{
  "_format": "hh-sol-artifact-1",
  "contractName": "StorageAccessible",
  "sourceName": "@kreskolabs/gnosis-safe-contracts/contracts/common/StorageAccessible.sol",
  "abi": [
    {
      "inputs": [
        {
          "internalType": "uint256",
          "name": "offset",
          "type": "uint256"
        },
        {
          "internalType": "uint256",
          "name": "length",
          "type": "uint256"
        }
      ],
      "name": "getStorageAt",
      "outputs": [
        {
          "internalType": "bytes",
          "name": "",
          "type": "bytes"
        }
      ],
      "stateMutability": "view",
      "type": "function"
    },
    {
      "inputs": [
        {
          "internalType": "address",
          "name": "targetContract",
          "type": "address"
        },
        {
          "internalType": "bytes",
          "name": "calldataPayload",
          "type": "bytes"
        }
      ],
      "name": "simulateAndRevert",
      "outputs": [],
      "stateMutability": "nonpayable",
      "type": "function"
    }
  ],
  "bytecode": "0x608080604052346100165761028f908161001c8239f35b600080fdfe60806040526004361015610013575b600080fd5b6000803560e01c9081635624b25b14610036575063b4faba090361000e57610184565b346100d35760406003193601126100d057600435906024359060059082821b936020918486048314851517156100cb5761007761007287610162565b610137565b95808752610087601f1991610162565b0136848801375b8481106100a9576100a586604051918291826100d6565b0390f35b808201548382861b8801015260001981146100c65760010161008e565b610220565b610220565b80fd5b80fd5b919091602092838252805190818584015260005b82811061010c57505060409293506000838284010152601f8019910116010190565b808680928401015160408287010152016100ea565b634e487b7160e01b600052604160045260246000fd5b9060405191601f8019910116820182811067ffffffffffffffff82111761015d57604052565b610121565b67ffffffffffffffff811161017f57602090601f80199101160190565b610121565b3461021b5760406003193601126102165760043560018060a01b0381168103610211576024359067ffffffffffffffff821161020c57366023830112156102075781600401356101db6101d682610162565b610137565b92818452366024838301011161020257816000926024602093018387013784010152610236565b600080fd5b600080fd5b600080fd5b600080fd5b600080fd5b600080fd5b634e487b7160e01b600052601160045260246000fd5b6000918291602082519201905af46000523d6020523d600060403e60403d016000fdfea264697066735822122019e95f7bc402ab24b28941019d0ecaf5b5043aa4505690b36f64b6713691b54664736f6c63430008130033",
  "linkReferences": {},
  "deployedLinkReferences": {}
}