{
    "address": "0x9f2ce9d537dBCfDCAA15050201adDB67D188A02C",
    "abi": [
        {
            "inputs": [
                {
                    "internalType": "contract KreskoAsset",
                    "name": "_asset",
                    "type": "address"
                }
            ],
            "stateMutability": "payable",
            "type": "constructor"
        },
        {
            "anonymous": false,
            "inputs": [
                {
                    "indexed": true,
                    "internalType": "address",
                    "name": "owner",
                    "type": "address"
                },
                {
                    "indexed": true,
                    "internalType": "address",
                    "name": "spender",
                    "type": "address"
                },
                {
                    "indexed": false,
                    "internalType": "uint256",
                    "name": "amount",
                    "type": "uint256"
                }
            ],
            "name": "Approval",
            "type": "event"
        },
        {
            "anonymous": false,
            "inputs": [
                {
                    "indexed": true,
                    "internalType": "address",
                    "name": "caller",
                    "type": "address"
                },
                {
                    "indexed": true,
                    "internalType": "address",
                    "name": "owner",
                    "type": "address"
                },
                {
                    "indexed": false,
                    "internalType": "uint256",
                    "name": "assets",
                    "type": "uint256"
                },
                {
                    "indexed": false,
                    "internalType": "uint256",
                    "name": "shares",
                    "type": "uint256"
                }
            ],
            "name": "Deposit",
            "type": "event"
        },
        {
            "anonymous": false,
            "inputs": [
                {
                    "indexed": true,
                    "internalType": "address",
                    "name": "caller",
                    "type": "address"
                },
                {
                    "indexed": true,
                    "internalType": "address",
                    "name": "receiver",
                    "type": "address"
                },
                {
                    "indexed": true,
                    "internalType": "address",
                    "name": "owner",
                    "type": "address"
                },
                {
                    "indexed": false,
                    "internalType": "uint256",
                    "name": "assets",
                    "type": "uint256"
                },
                {
                    "indexed": false,
                    "internalType": "uint256",
                    "name": "shares",
                    "type": "uint256"
                }
            ],
            "name": "Destroy",
            "type": "event"
        },
        {
            "anonymous": false,
            "inputs": [
                {
                    "indexed": false,
                    "internalType": "uint8",
                    "name": "version",
                    "type": "uint8"
                }
            ],
            "name": "Initialized",
            "type": "event"
        },
        {
            "anonymous": false,
            "inputs": [
                {
                    "indexed": true,
                    "internalType": "address",
                    "name": "caller",
                    "type": "address"
                },
                {
                    "indexed": true,
                    "internalType": "address",
                    "name": "owner",
                    "type": "address"
                },
                {
                    "indexed": false,
                    "internalType": "uint256",
                    "name": "assets",
                    "type": "uint256"
                },
                {
                    "indexed": false,
                    "internalType": "uint256",
                    "name": "shares",
                    "type": "uint256"
                }
            ],
            "name": "Issue",
            "type": "event"
        },
        {
            "anonymous": false,
            "inputs": [
                {
                    "indexed": true,
                    "internalType": "bytes32",
                    "name": "role",
                    "type": "bytes32"
                },
                {
                    "indexed": true,
                    "internalType": "bytes32",
                    "name": "previousAdminRole",
                    "type": "bytes32"
                },
                {
                    "indexed": true,
                    "internalType": "bytes32",
                    "name": "newAdminRole",
                    "type": "bytes32"
                }
            ],
            "name": "RoleAdminChanged",
            "type": "event"
        },
        {
            "anonymous": false,
            "inputs": [
                {
                    "indexed": true,
                    "internalType": "bytes32",
                    "name": "role",
                    "type": "bytes32"
                },
                {
                    "indexed": true,
                    "internalType": "address",
                    "name": "account",
                    "type": "address"
                },
                {
                    "indexed": true,
                    "internalType": "address",
                    "name": "sender",
                    "type": "address"
                }
            ],
            "name": "RoleGranted",
            "type": "event"
        },
        {
            "anonymous": false,
            "inputs": [
                {
                    "indexed": true,
                    "internalType": "bytes32",
                    "name": "role",
                    "type": "bytes32"
                },
                {
                    "indexed": true,
                    "internalType": "address",
                    "name": "account",
                    "type": "address"
                },
                {
                    "indexed": true,
                    "internalType": "address",
                    "name": "sender",
                    "type": "address"
                }
            ],
            "name": "RoleRevoked",
            "type": "event"
        },
        {
            "anonymous": false,
            "inputs": [
                {
                    "indexed": true,
                    "internalType": "address",
                    "name": "from",
                    "type": "address"
                },
                {
                    "indexed": true,
                    "internalType": "address",
                    "name": "to",
                    "type": "address"
                },
                {
                    "indexed": false,
                    "internalType": "uint256",
                    "name": "amount",
                    "type": "uint256"
                }
            ],
            "name": "Transfer",
            "type": "event"
        },
        {
            "anonymous": false,
            "inputs": [
                {
                    "indexed": true,
                    "internalType": "address",
                    "name": "caller",
                    "type": "address"
                },
                {
                    "indexed": true,
                    "internalType": "address",
                    "name": "receiver",
                    "type": "address"
                },
                {
                    "indexed": true,
                    "internalType": "address",
                    "name": "owner",
                    "type": "address"
                },
                {
                    "indexed": false,
                    "internalType": "uint256",
                    "name": "assets",
                    "type": "uint256"
                },
                {
                    "indexed": false,
                    "internalType": "uint256",
                    "name": "shares",
                    "type": "uint256"
                }
            ],
            "name": "Withdraw",
            "type": "event"
        },
        {
            "inputs": [],
            "name": "DEFAULT_ADMIN_ROLE",
            "outputs": [
                {
                    "internalType": "bytes32",
                    "name": "",
                    "type": "bytes32"
                }
            ],
            "stateMutability": "view",
            "type": "function"
        },
        {
            "inputs": [],
            "name": "DOMAIN_SEPARATOR",
            "outputs": [
                {
                    "internalType": "bytes32",
                    "name": "",
                    "type": "bytes32"
                }
            ],
            "stateMutability": "view",
            "type": "function"
        },
        {
            "inputs": [
                {
                    "internalType": "address",
                    "name": "_owner",
                    "type": "address"
                },
                {
                    "internalType": "address",
                    "name": "_spender",
                    "type": "address"
                }
            ],
            "name": "allowance",
            "outputs": [
                {
                    "internalType": "uint256",
                    "name": "",
                    "type": "uint256"
                }
            ],
            "stateMutability": "view",
            "type": "function"
        },
        {
            "inputs": [
                {
                    "internalType": "address",
                    "name": "spender",
                    "type": "address"
                },
                {
                    "internalType": "uint256",
                    "name": "amount",
                    "type": "uint256"
                }
            ],
            "name": "approve",
            "outputs": [
                {
                    "internalType": "bool",
                    "name": "",
                    "type": "bool"
                }
            ],
            "stateMutability": "nonpayable",
            "type": "function"
        },
        {
            "inputs": [],
            "name": "asset",
            "outputs": [
                {
                    "internalType": "contract KreskoAsset",
                    "name": "",
                    "type": "address"
                }
            ],
            "stateMutability": "view",
            "type": "function"
        },
        {
            "inputs": [
                {
                    "internalType": "address",
                    "name": "_account",
                    "type": "address"
                }
            ],
            "name": "balanceOf",
            "outputs": [
                {
                    "internalType": "uint256",
                    "name": "",
                    "type": "uint256"
                }
            ],
            "stateMutability": "view",
            "type": "function"
        },
        {
            "inputs": [
                {
                    "internalType": "uint256",
                    "name": "shares",
                    "type": "uint256"
                }
            ],
            "name": "convertToAssets",
            "outputs": [
                {
                    "internalType": "uint256",
                    "name": "",
                    "type": "uint256"
                }
            ],
            "stateMutability": "view",
            "type": "function"
        },
        {
            "inputs": [
                {
                    "internalType": "uint256",
                    "name": "assets",
                    "type": "uint256"
                }
            ],
            "name": "convertToShares",
            "outputs": [
                {
                    "internalType": "uint256",
                    "name": "",
                    "type": "uint256"
                }
            ],
            "stateMutability": "view",
            "type": "function"
        },
        {
            "inputs": [],
            "name": "decimals",
            "outputs": [
                {
                    "internalType": "uint8",
                    "name": "",
                    "type": "uint8"
                }
            ],
            "stateMutability": "view",
            "type": "function"
        },
        {
            "inputs": [
                {
                    "internalType": "uint256",
                    "name": "assets",
                    "type": "uint256"
                },
                {
                    "internalType": "address",
                    "name": "receiver",
                    "type": "address"
                }
            ],
            "name": "deposit",
            "outputs": [
                {
                    "internalType": "uint256",
                    "name": "shares",
                    "type": "uint256"
                }
            ],
            "stateMutability": "nonpayable",
            "type": "function"
        },
        {
            "inputs": [
                {
                    "internalType": "uint256",
                    "name": "_assets",
                    "type": "uint256"
                },
                {
                    "internalType": "address",
                    "name": "_from",
                    "type": "address"
                }
            ],
            "name": "destroy",
            "outputs": [
                {
                    "internalType": "uint256",
                    "name": "shares",
                    "type": "uint256"
                }
            ],
            "stateMutability": "nonpayable",
            "type": "function"
        },
        {
            "inputs": [
                {
                    "internalType": "bytes32",
                    "name": "role",
                    "type": "bytes32"
                }
            ],
            "name": "getRoleAdmin",
            "outputs": [
                {
                    "internalType": "bytes32",
                    "name": "",
                    "type": "bytes32"
                }
            ],
            "stateMutability": "view",
            "type": "function"
        },
        {
            "inputs": [
                {
                    "internalType": "bytes32",
                    "name": "role",
                    "type": "bytes32"
                },
                {
                    "internalType": "uint256",
                    "name": "index",
                    "type": "uint256"
                }
            ],
            "name": "getRoleMember",
            "outputs": [
                {
                    "internalType": "address",
                    "name": "",
                    "type": "address"
                }
            ],
            "stateMutability": "view",
            "type": "function"
        },
        {
            "inputs": [
                {
                    "internalType": "bytes32",
                    "name": "role",
                    "type": "bytes32"
                }
            ],
            "name": "getRoleMemberCount",
            "outputs": [
                {
                    "internalType": "uint256",
                    "name": "",
                    "type": "uint256"
                }
            ],
            "stateMutability": "view",
            "type": "function"
        },
        {
            "inputs": [
                {
                    "internalType": "bytes32",
                    "name": "role",
                    "type": "bytes32"
                },
                {
                    "internalType": "address",
                    "name": "account",
                    "type": "address"
                }
            ],
            "name": "grantRole",
            "outputs": [],
            "stateMutability": "nonpayable",
            "type": "function"
        },
        {
            "inputs": [
                {
                    "internalType": "bytes32",
                    "name": "role",
                    "type": "bytes32"
                },
                {
                    "internalType": "address",
                    "name": "account",
                    "type": "address"
                }
            ],
            "name": "hasRole",
            "outputs": [
                {
                    "internalType": "bool",
                    "name": "",
                    "type": "bool"
                }
            ],
            "stateMutability": "view",
            "type": "function"
        },
        {
            "inputs": [
                {
                    "internalType": "contract KreskoAsset",
                    "name": "_asset",
                    "type": "address"
                },
                {
                    "internalType": "string",
                    "name": "_name",
                    "type": "string"
                },
                {
                    "internalType": "string",
                    "name": "_symbol",
                    "type": "string"
                },
                {
                    "internalType": "address",
                    "name": "_owner",
                    "type": "address"
                }
            ],
            "name": "initialize",
            "outputs": [],
            "stateMutability": "nonpayable",
            "type": "function"
        },
        {
            "inputs": [
                {
                    "internalType": "uint256",
                    "name": "_assets",
                    "type": "uint256"
                },
                {
                    "internalType": "address",
                    "name": "_to",
                    "type": "address"
                }
            ],
            "name": "issue",
            "outputs": [
                {
                    "internalType": "uint256",
                    "name": "shares",
                    "type": "uint256"
                }
            ],
            "stateMutability": "nonpayable",
            "type": "function"
        },
        {
            "inputs": [
                {
                    "internalType": "address",
                    "name": "",
                    "type": "address"
                }
            ],
            "name": "maxDeposit",
            "outputs": [
                {
                    "internalType": "uint256",
                    "name": "",
                    "type": "uint256"
                }
            ],
            "stateMutability": "view",
            "type": "function"
        },
        {
            "inputs": [
                {
                    "internalType": "address",
                    "name": "owner",
                    "type": "address"
                }
            ],
            "name": "maxDestroy",
            "outputs": [
                {
                    "internalType": "uint256",
                    "name": "",
                    "type": "uint256"
                }
            ],
            "stateMutability": "view",
            "type": "function"
        },
        {
            "inputs": [
                {
                    "internalType": "address",
                    "name": "",
                    "type": "address"
                }
            ],
            "name": "maxIssue",
            "outputs": [
                {
                    "internalType": "uint256",
                    "name": "",
                    "type": "uint256"
                }
            ],
            "stateMutability": "view",
            "type": "function"
        },
        {
            "inputs": [
                {
                    "internalType": "address",
                    "name": "",
                    "type": "address"
                }
            ],
            "name": "maxMint",
            "outputs": [
                {
                    "internalType": "uint256",
                    "name": "",
                    "type": "uint256"
                }
            ],
            "stateMutability": "view",
            "type": "function"
        },
        {
            "inputs": [
                {
                    "internalType": "address",
                    "name": "owner",
                    "type": "address"
                }
            ],
            "name": "maxRedeem",
            "outputs": [
                {
                    "internalType": "uint256",
                    "name": "",
                    "type": "uint256"
                }
            ],
            "stateMutability": "view",
            "type": "function"
        },
        {
            "inputs": [
                {
                    "internalType": "address",
                    "name": "owner",
                    "type": "address"
                }
            ],
            "name": "maxWithdraw",
            "outputs": [
                {
                    "internalType": "uint256",
                    "name": "",
                    "type": "uint256"
                }
            ],
            "stateMutability": "view",
            "type": "function"
        },
        {
            "inputs": [
                {
                    "internalType": "uint256",
                    "name": "shares",
                    "type": "uint256"
                },
                {
                    "internalType": "address",
                    "name": "receiver",
                    "type": "address"
                }
            ],
            "name": "mint",
            "outputs": [
                {
                    "internalType": "uint256",
                    "name": "assets",
                    "type": "uint256"
                }
            ],
            "stateMutability": "nonpayable",
            "type": "function"
        },
        {
            "inputs": [],
            "name": "name",
            "outputs": [
                {
                    "internalType": "string",
                    "name": "",
                    "type": "string"
                }
            ],
            "stateMutability": "view",
            "type": "function"
        },
        {
            "inputs": [
                {
                    "internalType": "address",
                    "name": "",
                    "type": "address"
                }
            ],
            "name": "nonces",
            "outputs": [
                {
                    "internalType": "uint256",
                    "name": "",
                    "type": "uint256"
                }
            ],
            "stateMutability": "view",
            "type": "function"
        },
        {
            "inputs": [
                {
                    "internalType": "address",
                    "name": "owner",
                    "type": "address"
                },
                {
                    "internalType": "address",
                    "name": "spender",
                    "type": "address"
                },
                {
                    "internalType": "uint256",
                    "name": "value",
                    "type": "uint256"
                },
                {
                    "internalType": "uint256",
                    "name": "deadline",
                    "type": "uint256"
                },
                {
                    "internalType": "uint8",
                    "name": "v",
                    "type": "uint8"
                },
                {
                    "internalType": "bytes32",
                    "name": "r",
                    "type": "bytes32"
                },
                {
                    "internalType": "bytes32",
                    "name": "s",
                    "type": "bytes32"
                }
            ],
            "name": "permit",
            "outputs": [],
            "stateMutability": "nonpayable",
            "type": "function"
        },
        {
            "inputs": [
                {
                    "internalType": "uint256",
                    "name": "assets",
                    "type": "uint256"
                }
            ],
            "name": "previewDeposit",
            "outputs": [
                {
                    "internalType": "uint256",
                    "name": "",
                    "type": "uint256"
                }
            ],
            "stateMutability": "view",
            "type": "function"
        },
        {
            "inputs": [
                {
                    "internalType": "uint256",
                    "name": "shares",
                    "type": "uint256"
                }
            ],
            "name": "previewDestroy",
            "outputs": [
                {
                    "internalType": "uint256",
                    "name": "",
                    "type": "uint256"
                }
            ],
            "stateMutability": "view",
            "type": "function"
        },
        {
            "inputs": [
                {
                    "internalType": "uint256",
                    "name": "assets",
                    "type": "uint256"
                }
            ],
            "name": "previewIssue",
            "outputs": [
                {
                    "internalType": "uint256",
                    "name": "",
                    "type": "uint256"
                }
            ],
            "stateMutability": "view",
            "type": "function"
        },
        {
            "inputs": [
                {
                    "internalType": "uint256",
                    "name": "shares",
                    "type": "uint256"
                }
            ],
            "name": "previewMint",
            "outputs": [
                {
                    "internalType": "uint256",
                    "name": "",
                    "type": "uint256"
                }
            ],
            "stateMutability": "view",
            "type": "function"
        },
        {
            "inputs": [
                {
                    "internalType": "uint256",
                    "name": "shares",
                    "type": "uint256"
                }
            ],
            "name": "previewRedeem",
            "outputs": [
                {
                    "internalType": "uint256",
                    "name": "",
                    "type": "uint256"
                }
            ],
            "stateMutability": "view",
            "type": "function"
        },
        {
            "inputs": [
                {
                    "internalType": "uint256",
                    "name": "assets",
                    "type": "uint256"
                }
            ],
            "name": "previewWithdraw",
            "outputs": [
                {
                    "internalType": "uint256",
                    "name": "",
                    "type": "uint256"
                }
            ],
            "stateMutability": "view",
            "type": "function"
        },
        {
            "inputs": [
                {
                    "internalType": "uint256",
                    "name": "shares",
                    "type": "uint256"
                },
                {
                    "internalType": "address",
                    "name": "receiver",
                    "type": "address"
                },
                {
                    "internalType": "address",
                    "name": "owner",
                    "type": "address"
                }
            ],
            "name": "redeem",
            "outputs": [
                {
                    "internalType": "uint256",
                    "name": "assets",
                    "type": "uint256"
                }
            ],
            "stateMutability": "nonpayable",
            "type": "function"
        },
        {
            "inputs": [
                {
                    "internalType": "bytes32",
                    "name": "role",
                    "type": "bytes32"
                },
                {
                    "internalType": "address",
                    "name": "account",
                    "type": "address"
                }
            ],
            "name": "renounceRole",
            "outputs": [],
            "stateMutability": "nonpayable",
            "type": "function"
        },
        {
            "inputs": [
                {
                    "internalType": "bytes32",
                    "name": "role",
                    "type": "bytes32"
                },
                {
                    "internalType": "address",
                    "name": "account",
                    "type": "address"
                }
            ],
            "name": "revokeRole",
            "outputs": [],
            "stateMutability": "nonpayable",
            "type": "function"
        },
        {
            "inputs": [
                {
                    "internalType": "bytes4",
                    "name": "interfaceId",
                    "type": "bytes4"
                }
            ],
            "name": "supportsInterface",
            "outputs": [
                {
                    "internalType": "bool",
                    "name": "",
                    "type": "bool"
                }
            ],
            "stateMutability": "view",
            "type": "function"
        },
        {
            "inputs": [],
            "name": "symbol",
            "outputs": [
                {
                    "internalType": "string",
                    "name": "",
                    "type": "string"
                }
            ],
            "stateMutability": "view",
            "type": "function"
        },
        {
            "inputs": [],
            "name": "totalAssets",
            "outputs": [
                {
                    "internalType": "uint256",
                    "name": "",
                    "type": "uint256"
                }
            ],
            "stateMutability": "view",
            "type": "function"
        },
        {
            "inputs": [],
            "name": "totalSupply",
            "outputs": [
                {
                    "internalType": "uint256",
                    "name": "",
                    "type": "uint256"
                }
            ],
            "stateMutability": "view",
            "type": "function"
        },
        {
            "inputs": [
                {
                    "internalType": "address",
                    "name": "to",
                    "type": "address"
                },
                {
                    "internalType": "uint256",
                    "name": "amount",
                    "type": "uint256"
                }
            ],
            "name": "transfer",
            "outputs": [
                {
                    "internalType": "bool",
                    "name": "",
                    "type": "bool"
                }
            ],
            "stateMutability": "nonpayable",
            "type": "function"
        },
        {
            "inputs": [
                {
                    "internalType": "address",
                    "name": "from",
                    "type": "address"
                },
                {
                    "internalType": "address",
                    "name": "to",
                    "type": "address"
                },
                {
                    "internalType": "uint256",
                    "name": "amount",
                    "type": "uint256"
                }
            ],
            "name": "transferFrom",
            "outputs": [
                {
                    "internalType": "bool",
                    "name": "",
                    "type": "bool"
                }
            ],
            "stateMutability": "nonpayable",
            "type": "function"
        },
        {
            "inputs": [
                {
                    "internalType": "string",
                    "name": "_name",
                    "type": "string"
                },
                {
                    "internalType": "string",
                    "name": "_symbol",
                    "type": "string"
                },
                {
                    "internalType": "uint8",
                    "name": "_version",
                    "type": "uint8"
                }
            ],
            "name": "updateMetaData",
            "outputs": [],
            "stateMutability": "nonpayable",
            "type": "function"
        },
        {
            "inputs": [
                {
                    "internalType": "uint256",
                    "name": "assets",
                    "type": "uint256"
                },
                {
                    "internalType": "address",
                    "name": "receiver",
                    "type": "address"
                },
                {
                    "internalType": "address",
                    "name": "owner",
                    "type": "address"
                }
            ],
            "name": "withdraw",
            "outputs": [
                {
                    "internalType": "uint256",
                    "name": "shares",
                    "type": "uint256"
                }
            ],
            "stateMutability": "nonpayable",
            "type": "function"
        }
    ],
    "transactionHash": "0xf4f5d1fe56a80aa396ddd49d319992185da39603862a7196193151a5bc8f14c2",
    "args": [
        "0x0834439C570B191414d099a69cCD161f4eA657CE"
    ],
    "numDeployments": 1,
    "solcInputHash": "568e6f5c8ecd96cab50b364497aa87ed",
    "bytecode": "0x60e08060405260208162003fb480380380916200001d82856200018e565b83398101031262000189575173ffffffffffffffffffffffffffffffffffffffff8116810362000189576000546200006f60ff8260081c1615809281936200017a575b811562000157575b50620001e7565b8062000083600160ff196000541617600055565b6200013c575b6200009362000274565b620000f8575b60c052604051613b7b908162000439823960805181613419015260a05181613440015260c051818181610d4001528181611046015281816111c60152818161151301528181611929015281816119ff01528181612ce801526130e60152f35b6200010961ff001960005416600055565b604051600181527f7f26b83ff96e1f2b6a682f133852f6798a09c465da95921460cefb384740249890602090a162000099565b6200015161010061ff00196000541617600055565b62000089565b303b159150816200016b575b503862000068565b6001915060ff16143862000163565b600160ff821610915062000060565b600080fd5b601f9091017fffffffffffffffffffffffffffffffffffffffffffffffffffffffffffffffe01681019067ffffffffffffffff821190821017620001d157604052565b634e487b7160e01b600052604160045260246000fd5b15620001ef57565b6040517f08c379a000000000000000000000000000000000000000000000000000000000815260206004820152602e60248201527f496e697469616c697a61626c653a20636f6e747261637420697320616c72656160448201527f647920696e697469616c697a65640000000000000000000000000000000000006064820152608490fd5b4660805260405160009060019182549283811c908085169081156200042d575b60209586841083146200040057838652866020870193918215620003c257505060011462000362575b50505081620002d76200034b936200035a9303826200018e565b805190840120604080517f8b73c3c69bb8fe3d512ecc4cf759cc79239f7b179b0ffacaa9a75d522b39400f95810195865260208601929092527fc89efdaa54c0f20c7adf612882df0950f5a951637e0307cdcb4c672f298b8bc69085015246606085015230608085015291829060a0850190565b03601f1981018352826200018e565b51902060a052565b60016000529250907fb10e2d527612073b26eecdfd717e6a320cf44b4afac2b0732d9fcbe2b7fa0cf692856000945b838610620003af575050509101905081620002d76200034b620002bd565b8054858701529401938690820162000391565b7fffffffffffffffffffffffffffffffffffffffffffffffffffffffffffffff001684529092019350849250620002d791506200034b9050620002bd565b7f4e487b710000000000000000000000000000000000000000000000000000000085526022600452602485fd5b91607f16916200029456fe60806040526004361015610013575b600080fd5b60003560e01c806301e1d1141461035857806301ffc9a71461034f57806306fdde031461034657806307a2d13a146102da578063095ea7b31461033d5780630a28a4771461033457806318160ddd1461032b57806323b872dd14610322578063248a9ca3146103195780632f2ff15d14610310578063313ce567146103075780633644e515146102fe57806336568abe146102f557806338d52e0f146102ec578063402d267d146102535780634cdad506146102da578063613d25bb146102e357806361dcf1311461025357806368f1da40146102da5780636e553f65146102d157806370a082311461021d57806371b74a991461024a5780637ecebe00146102c85780638dec3daa146102bf5780639010d07c146102b657806391d14854146102ad57806394bf804d146102a457806395d89b411461029b578063a217fddf14610292578063a3d2563d14610289578063a9059cbb14610280578063b3d7f6b914610277578063b460af941461026e578063b696a6ad14610265578063ba0876521461025c578063c5c2c2c114610238578063c63d75b614610253578063c6e6f5921461024a578063ca15c87314610241578063ce96cb7714610238578063d505accf1461022f578063d547741f14610226578063d905777e1461021d578063dd62ed3e146102145763ef8b30f71461020c57600080fd5b61000e6110f6565b5061000e61200a565b5061000e61109a565b5061000e611fa9565b5061000e611d76565b5061000e611ccf565b5061000e611d2b565b5061000e6110f6565b5061000e610d7c565b5061000e611bc0565b5061000e6119c9565b5061000e61189a565b5061000e611831565b5061000e611776565b5061000e61164f565b5061000e611609565b5061000e611561565b5061000e61148a565b5061000e611415565b5061000e6113a2565b5061000e61118f565b5061000e611133565b5061000e610faa565b5061000e610715565b5061000e610e53565b5061000e610d0b565b5061000e610c1f565b5061000e610be5565b5061000e610ba5565b5061000e610a7b565b5061000e610a2d565b5061000e6108a5565b5061000e610868565b5061000e61082b565b5061000e610770565b5061000e610620565b5061000e6103ae565b5061000e61036c565b600091031261000e57565b503461000e576000367ffffffffffffffffffffffffffffffffffffffffffffffffffffffffffffffffc011261000e5760206103a66130b8565b604051908152f35b503461000e576020367ffffffffffffffffffffffffffffffffffffffffffffffffffffffffffffffffc011261000e577fffffffff000000000000000000000000000000000000000000000000000000006004358181169081900361000e5761042e918114159081610432575b5060405190151581529081906020820190565b0390f35b7f21df348f000000000000000000000000000000000000000000000000000000008114915081156104c7575b811561049d575b8115610473575b503861041b565b7f36372b07000000000000000000000000000000000000000000000000000000001490503861046c565b7f01ffc9a70000000000000000000000000000000000000000000000000000000081149150610465565b7ffa3ebfaf000000000000000000000000000000000000000000000000000000008114915061045e565b90600182811c92168015610521575b602083101461050b57565b634e487b7160e01b600052602260045260246000fd5b91607f1691610500565b50634e487b7160e01b600052604160045260246000fd5b67ffffffffffffffff811161055657604052565b61055e61052b565b604052565b6040810190811067ffffffffffffffff82111761055657604052565b90601f8019910116810190811067ffffffffffffffff82111761055657604052565b918091926000905b8282106105c15750116105ba575050565b6000910152565b915080602091830151818601520182916105a9565b604091602082526105f681518092816020860152602086860191016105a1565b601f017fffffffffffffffffffffffffffffffffffffffffffffffffffffffffffffffe016010190565b503461000e576000806003193601126107125760405190806001805491610646836104f1565b808652928281169081156106d35750600114610679575b61042e8561066d8187038261057f565b604051918291826105d6565b92508083527fb10e2d527612073b26eecdfd717e6a320cf44b4afac2b0732d9fcbe2b7fa0cf65b8284106106bb57505050810160200161066d8261042e61065d565b805460208587018101919091529093019281016106a0565b7fffffffffffffffffffffffffffffffffffffffffffffffffffffffffffffff00166020870152505060408401925061066d915083905061042e61065d565b80fd5b503461000e576020367ffffffffffffffffffffffffffffffffffffffffffffffffffffffffffffffffc011261000e5760206103a66004356137ae565b73ffffffffffffffffffffffffffffffffffffffff81160361000e57565b503461000e576040367ffffffffffffffffffffffffffffffffffffffffffffffffffffffffffffffffc011261000e576004356107ac81610752565b60243590336000526006602052816107da8260406000209060018060a01b0316600052602052604060002090565b5560405191825273ffffffffffffffffffffffffffffffffffffffff169033907f8c5be1e5ebec7d5bd14f71427d1e84f3dd0314c0f7b2291e5b200ac8c7c3b92590602090a3602060405160018152f35b503461000e576020367ffffffffffffffffffffffffffffffffffffffffffffffffffffffffffffffffc011261000e5760206103a660043561380e565b503461000e576000367ffffffffffffffffffffffffffffffffffffffffffffffffffffffffffffffffc011261000e576020600454604051908152f35b503461000e576060367ffffffffffffffffffffffffffffffffffffffffffffffffffffffffffffffffc011261000e576004356108e181610752565b602435906108ee82610752565b73ffffffffffffffffffffffffffffffffffffffff818116600081815260066020908152604080832033845290915290206044359491937fddf252ad1be2c89b69c2b068fc378daa952ba7f163c4a11628f55a4df523b3ef9392916109839190879054600181016109d8575b505073ffffffffffffffffffffffffffffffffffffffff16600090815260056020526040902090565b61098e8682546129c2565b905573ffffffffffffffffffffffffffffffffffffffff81166000908152600560205260409020805486019055604051948552169280602081015b0390a360405160018152602090f35b818110610a20575b03610a1833610a018460018060a01b03166000526006602052604060002090565b9060018060a01b0316600052602052604060002090565b55863861095a565b610a2861265d565b6109e0565b503461000e576020367ffffffffffffffffffffffffffffffffffffffffffffffffffffffffffffffffc011261000e57600435600052606c6020526020600160406000200154604051908152f35b503461000e5760408060031936011261000e5760043590610b0b602435610aa181610752565b610b06600094808652606c602052610abe600186882001546124a9565b808652606c602090815285872073ffffffffffffffffffffffffffffffffffffffff851660009081529152604090205460ff1615610b0f57600052609e602052604060002090565b6128d7565b5051f35b808652606c602090815285872073ffffffffffffffffffffffffffffffffffffffff85166000818152919092526040902080547fffffffffffffffffffffffffffffffffffffffffffffffffffffffffffffff00166001179055855133919083907f2f8788117e7eff1d82e926ec794901d17c78024a50270940304540a733656f0d908a90a4600052609e602052604060002090565b503461000e576000367ffffffffffffffffffffffffffffffffffffffffffffffffffffffffffffffffc011261000e57602060ff60035416604051908152f35b503461000e576000367ffffffffffffffffffffffffffffffffffffffffffffffffffffffffffffffffc011261000e5760206103a6613414565b503461000e576040367ffffffffffffffffffffffffffffffffffffffffffffffffffffffffffffffffc011261000e57602435610c5b81610752565b3373ffffffffffffffffffffffffffffffffffffffff821603610c8657610c8490600435612576565b005b6040517f08c379a000000000000000000000000000000000000000000000000000000000815260206004820152602f60248201527f416363657373436f6e74726f6c3a2063616e206f6e6c792072656e6f756e636560448201527f20726f6c657320666f722073656c6600000000000000000000000000000000006064820152608490fd5b503461000e576000367ffffffffffffffffffffffffffffffffffffffffffffffffffffffffffffffffc011261000e576040517f000000000000000000000000000000000000000000000000000000000000000073ffffffffffffffffffffffffffffffffffffffff168152602090f35b503461000e576020367ffffffffffffffffffffffffffffffffffffffffffffffffffffffffffffffffc011261000e57610db7600435610752565b60206040516000198152f35b60209067ffffffffffffffff8111610dff575b601f017fffffffffffffffffffffffffffffffffffffffffffffffffffffffffffffffe0160190565b610e0761052b565b610dd6565b81601f8201121561000e57803590610e2382610dc3565b92610e31604051948561057f565b8284526020838301011161000e57816000926020809301838601378301015290565b503461000e576080367ffffffffffffffffffffffffffffffffffffffffffffffffffffffffffffffffc011261000e57600435610e8f81610752565b67ffffffffffffffff60243581811161000e57610eb0903690600401610e0c565b60443591821161000e57610ecb610f19923690600401610e0c565b60643591610ed883610752565b60005494610efd60ff8760081c161580978198610f9c575b8115610f7c575b50612b06565b85610f10600160ff196000541617600055565b610f6357612bb4565b610f1f57005b610f2f61ff001960005416600055565b604051600181527f7f26b83ff96e1f2b6a682f133852f6798a09c465da95921460cefb38474024989080602081015b0390a1005b610f7761010061ff00196000541617600055565b612bb4565b303b15915081610f8e575b5038610ef7565b6001915060ff161438610f87565b600160ff8216109150610ef0565b503461000e576040367ffffffffffffffffffffffffffffffffffffffffffffffffffffffffffffffffc011261000e576020600435602435610feb81610752565b610ff48261377b565b9161100861100061362e565b8415156135f0565b7fdcbc1c05240f31ff3ad067ef1ee35ce4997762752e3a095284754544f4c709d773ffffffffffffffffffffffffffffffffffffffff61106c8330337f000000000000000000000000000000000000000000000000000000000000000085166138cd565b6110768585613667565b6040805193845260208401869052931692339290819081015b0390a3604051908152f35b503461000e576020367ffffffffffffffffffffffffffffffffffffffffffffffffffffffffffffffffc011261000e576004356110d681610752565b60018060a01b031660005260056020526020604060002054604051908152f35b503461000e576020367ffffffffffffffffffffffffffffffffffffffffffffffffffffffffffffffffc011261000e5760206103a660043561377b565b503461000e576020367ffffffffffffffffffffffffffffffffffffffffffffffffffffffffffffffffc011261000e5760043561116f81610752565b60018060a01b031660005260076020526020604060002054604051908152f35b503461000e5760408060031936011261000e5760043590602435906111b382610752565b6111bb6122be565b60018060a01b0392837f000000000000000000000000000000000000000000000000000000000000000016938251936112646335df84a360e21b80875261122960209788816004818d5afa908115611395575b600091611378575b50856112206136db565b911633146135f0565b6112328561377b565b96879161124061100061362e565b875190815281816004818d5afa91821561136b575b60009261133e575b5050613714565b853b1561000e5783517f9dc29fac00000000000000000000000000000000000000000000000000000000815273ffffffffffffffffffffffffffffffffffffffff821660048201526024810184905261042e966000908290604490829084905af18015611331575b611318575b508351928352602083018590521690819033907f3eb24e72927b5ff2af5337115f9c45aba5958fd34fdbd42177b035e6e34bcf6990604090a4519081529081906020820190565b8061132561132b92610542565b80610361565b386112d1565b611339612ba7565b6112cc565b61135d9250803d10611364575b611355818361057f565b810190612b92565b388061125d565b503d61134b565b611373612ba7565b611255565b61138f9150893d8b1161136457611355818361057f565b38611216565b61139d612ba7565b61120e565b503461000e576040367ffffffffffffffffffffffffffffffffffffffffffffffffffffffffffffffffc011261000e57600435600052609e60205260206113ef60243560406000206128f7565b905460405160039290921b1c73ffffffffffffffffffffffffffffffffffffffff168152f35b503461000e576040367ffffffffffffffffffffffffffffffffffffffffffffffffffffffffffffffffc011261000e57602060ff61147e60243561145881610752565b600435600052606c845260406000209060018060a01b0316600052602052604060002090565b54166040519015158152f35b503461000e576040367ffffffffffffffffffffffffffffffffffffffffffffffffffffffffffffffffc011261000e5760206004356024356114cb81610752565b6114d4826137cc565b917fdcbc1c05240f31ff3ad067ef1ee35ce4997762752e3a095284754544f4c709d773ffffffffffffffffffffffffffffffffffffffff6115398530337f000000000000000000000000000000000000000000000000000000000000000085166138cd565b6115438385613667565b6040805186815260208101949094529316923392908190810161108f565b503461000e57600080600319360112610712576040519080600254611585816104f1565b808552916001918083169081156106d357506001146115ae5761042e8561066d8187038261057f565b9250600283527f405787fa12a823e0f2b7631cc41b3ba8828b3321ca811111fa75cd3aa3bb5ace5b8284106115f157505050810160200161066d8261042e61065d565b805460208587018101919091529093019281016115d6565b503461000e576000367ffffffffffffffffffffffffffffffffffffffffffffffffffffffffffffffffc011261000e57602060405160008152f35b60ff81160361000e57565b503461000e576060367ffffffffffffffffffffffffffffffffffffffffffffffffffffffffffffffffc011261000e5767ffffffffffffffff60043581811161000e576116a0903690600401610e0c565b9060243590811161000e577f7f26b83ff96e1f2b6a682f133852f6798a09c465da95921460cefb3847402498916117436116e1610f5e933690600401610e0c565b604435926116ee84611644565b6116f66123c6565b61010060005460ff8160081c161580611767575b61171390612b06565b7fffffffffffffffffffffffffffffffffffffffffffffffffffffffffffff00001660ff86161717600055612f80565b61175361ff001960005416600055565b60405160ff90911681529081906020820190565b5060ff8681169082161061170a565b503461000e576040367ffffffffffffffffffffffffffffffffffffffffffffffffffffffffffffffffc011261000e576004356117b281610752565b602435903360005260056020526040600020828154818110611824575b03905560018060a01b03169081600052600560205260406000208181540190557fddf252ad1be2c89b69c2b068fc378daa952ba7f163c4a11628f55a4df523b3ef604051806109c93394829190602083019252565b61182c61265d565b6117cf565b503461000e576020367ffffffffffffffffffffffffffffffffffffffffffffffffffffffffffffffffc011261000e5760206103a66004356137cc565b606090600319011261000e576004359060243561188a81610752565b9060443561189781610752565b90565b503461000e5761042e61194e6118af3661186e565b9291906118bb8261380e565b9373ffffffffffffffffffffffffffffffffffffffff90818116906118e99087903384900361195e57613714565b60408051858152602081018890528484169133917ffbde797d201c681b91056529119e0b02407c7bb96a4a2c75c01fc9667232c8db91819081015b0390a47f000000000000000000000000000000000000000000000000000000000000000016613866565b6040519081529081906020820190565b60008481526006602090815260408083203384529091529020548260018201611988575050613714565b611991916129c2565b73ffffffffffffffffffffffffffffffffffffffff821660009081526006602052604090206119c1903390610a01565b55388261125d565b503461000e5760408060031936011261000e57600435602435916119ec83610752565b6119f46122be565b60018060a01b0392837f00000000000000000000000000000000000000000000000000000000000000001692825193611a946335df84a360e21b808752611a596020978881600481885afa908115611bb3575b600091611b96575b50896112206135b7565b611a628461377b565b968791611a7061100061362e565b87519081528181600481885afa918215611b89575b600092611b6c575b5050613667565b803b1561000e5783517f40c10f1900000000000000000000000000000000000000000000000000000000815273ffffffffffffffffffffffffffffffffffffffff841660048201526024810183905261042e967fca1340aac4caf2122faa48803f9cafe2fca0c643e9c0cc5e876d0f7c436b7ab2929091906000908290604490829084905af18015611b5f575b611b4c575b5084519283526020830186905292909216913391604090a3519081529081906020820190565b80611325611b5992610542565b38611b26565b611b67612ba7565b611b21565b611b829250803d1061136457611355818361057f565b3880611a8d565b611b91612ba7565b611a85565b611bad9150893d8b1161136457611355818361057f565b38611a4f565b611bbb612ba7565b611a47565b503461000e5761042e61194e611bd53661186e565b9192919073ffffffffffffffffffffffffffffffffffffffff80831633819003611c63575b85611c22611c07826137ae565b978896611c1d611c1561382d565b8915156135f0565b613714565b6040805186815260208101929092528484169133917ffbde797d201c681b91056529119e0b02407c7bb96a4a2c75c01fc9667232c8db919081908101611924565b60008181526006602090815260408083203384529091529020548660018201611c8e575b5050611bfa565b611c97916129c2565b73ffffffffffffffffffffffffffffffffffffffff85166000908152600660205260409020611cc7903390610a01565b553886611c87565b503461000e576020367ffffffffffffffffffffffffffffffffffffffffffffffffffffffffffffffffc011261000e57600435611d0b81610752565b60018060a01b0316600052600560205260206103a66040600020546137ae565b503461000e576020367ffffffffffffffffffffffffffffffffffffffffffffffffffffffffffffffffc011261000e57600435600052609e6020526020604060002054604051908152f35b503461000e5760e0367ffffffffffffffffffffffffffffffffffffffffffffffffffffffffffffffffc011261000e57600435611db281610752565b602435611dbe81610752565b7f8c5be1e5ebec7d5bd14f71427d1e84f3dd0314c0f7b2291e5b200ac8c7c3b925604435916020600060643560843590611df782611644565b611e0342821015613348565b611eea611ef6611e11613414565b928a8a611ead611e338360018060a01b03166000526007602052604060002090565b805460018101909155604080517f6e71edae12b1b97f4d1f60370fef10105fa2faae0126114a169c64845d6126c98d820190815273ffffffffffffffffffffffffffffffffffffffff9687166020820152958e16918601919091526060850193909352608084015260a083019390935291829060c0830190565b0391611ec1601f199384810183528261057f565b5190206040519384918983019687909160429261190160f01b8352600283015260228201520190565b0390810183528261057f565b5190206040805191825260ff92909216602082015260a4359181019190915260c435606082015281805260809060015afa15611f9c575b6000519083611f7e82610a0160018060a01b0395611f578782168015159081611f90575b506133ae565b73ffffffffffffffffffffffffffffffffffffffff16600090815260066020526040902090565b556040519384528116931691602090a3005b9050888c161438611f51565b611fa4612ba7565b611f2d565b503461000e576040367ffffffffffffffffffffffffffffffffffffffffffffffffffffffffffffffffc011261000e57610c84602435600435611feb82610752565b80600052606c6020526120056001604060002001546124a9565b612576565b503461000e576040367ffffffffffffffffffffffffffffffffffffffffffffffffffffffffffffffffc011261000e57602061208360043561204b81610752565b6024359061205882610752565b60018060a01b03166000526006835260406000209060018060a01b0316600052602052604060002090565b54604051908152f35b73ffffffffffffffffffffffffffffffffffffffff811660009081527f7febd347df14ea35c529e50fb2dd629d4a6226f5ccc893710fb466f8b83823fc60205260408082205461210893929060ff161561210b575b808052609e6020522073ffffffffffffffffffffffffffffffffffffffff9091169061293d565b50565b808052606c602090815282822073ffffffffffffffffffffffffffffffffffffffff85166000818152919092526040902080547fffffffffffffffffffffffffffffffffffffffffffffffffffffffffffffff00166001179055825133919083907f2f8788117e7eff1d82e926ec794901d17c78024a50270940304540a733656f0d908290a46120e1565b73ffffffffffffffffffffffffffffffffffffffff811660009081527f64cc6f6f685b3276a90c73e0133bcdef2e020f1e725303b7d260892943ebae9e6020526040808220546121089392907f112e48a576fb3a75acc75d9fcf6e0bc670b27b1dbcd2463502e10e68cf57d6fd9060ff1615612233575b8152609e6020522073ffffffffffffffffffffffffffffffffffffffff9091169061293d565b808252606c602090815283832073ffffffffffffffffffffffffffffffffffffffff86166000818152919092526040902080547fffffffffffffffffffffffffffffffffffffffffffffffffffffffffffffff00166001179055835133919083907f2f8788117e7eff1d82e926ec794901d17c78024a50270940304540a733656f0d908690a461220d565b3360009081527f64cc6f6f685b3276a90c73e0133bcdef2e020f1e725303b7d260892943ebae9e602052604090205460ff16156122f757565b6123c260486123906123083361278f565b61238261231361283a565b6040519485937f416363657373436f6e74726f6c3a206163636f756e742000000000000000000060208601526123538151809260206037890191016105a1565b84017f206973206d697373696e6720726f6c65200000000000000000000000000000006037820152019061255f565b03601f19810183528261057f565b6040517f08c379a0000000000000000000000000000000000000000000000000000000008152918291600483016105d6565b0390fd5b3360009081527f7febd347df14ea35c529e50fb2dd629d4a6226f5ccc893710fb466f8b83823fc602052604090205460ff16156123ff57565b6124083361278f565b6000612412612674565b90603061241e836126c5565b53607861242a836126db565b5360415b6001811161244d576123c2604861239086612382876123138815612744565b9080600f6124979216601081101561249c575b7f3031323334353637383961626364656600000000000000000000000000000000901a61248d84866126ec565b5360041c9161270b565b61242e565b6124a46126ae565b612460565b6000818152606c6020908152604080832033845290915290205460ff16156124ce5750565b6124d73361278f565b906124e0612674565b9060306124ec836126c5565b5360786124f8836126db565b5360415b6001811161251b576123c2604861239086612382876123138815612744565b9080600f61255a9216601081101561249c577f3031323334353637383961626364656600000000000000000000000000000000901a61248d84866126ec565b6124fc565b90612572602092828151948592016105a1565b0190565b90604061210892600090808252606c60205260ff6125a8858585209060018060a01b0316600052602052604060002090565b54166125d5575b8152609e6020522073ffffffffffffffffffffffffffffffffffffffff90911690612a37565b808252606c602090815283832073ffffffffffffffffffffffffffffffffffffffff86166000818152919092526040902080547fffffffffffffffffffffffffffffffffffffffffffffffffffffffffffffff00169055835133919083907ff6391f5c32d9c69d2a47ea670b442974b53935d1edc7fd64eb21e047a839171b908690a46125af565b50634e487b7160e01b600052601160045260246000fd5b604051906080820182811067ffffffffffffffff8211176126a1575b604052604282526060366020840137565b6126a961052b565b612690565b50634e487b7160e01b600052603260045260246000fd5b6020908051156126d3570190565b6125726126ae565b6021908051600110156126d3570190565b9060209180518210156126fe57010190565b6127066126ae565b010190565b8015612737575b7fffffffffffffffffffffffffffffffffffffffffffffffffffffffffffffffff0190565b61273f61265d565b612712565b1561274b57565b606460405162461bcd60e51b815260206004820152602060248201527f537472696e67733a20686578206c656e67746820696e73756666696369656e746044820152fd5b604051906060820182811067ffffffffffffffff82111761282d575b604052602a8252604036602084013760306127c5836126c5565b5360786127d1836126db565b536029905b600182116127e957611897915015612744565b80600f6128279216601081101561249c577f3031323334353637383961626364656600000000000000000000000000000000901a61248d84866126ec565b906127d6565b61283561052b565b6127ab565b7f112e48a576fb3a75acc75d9fcf6e0bc670b27b1dbcd2463502e10e68cf57d6fd612863612674565b90603061286f836126c5565b53607861287b836126db565b536041905b6001821161289357611897915015612744565b80600f6128d19216601081101561249c577f3031323334353637383961626364656600000000000000000000000000000000901a61248d84866126ec565b90612880565b6118979173ffffffffffffffffffffffffffffffffffffffff169061293d565b8054821015612910575b60005260206000200190600090565b6129186126ae565b612901565b916129399183549060031b600019811b9283911b169119161790565b9055565b60018101908260005281602052604060002054156000146129ba578261299861297f8354680100000000000000008110156129ad575b600181018555846128f7565b819391549060031b600019811b9283911b169119161790565b90555491600052602052604060002055600190565b6129b561052b565b612973565b505050600090565b8181106129cd570390565b6129d561265d565b0390565b8054908115612a21577fffffffffffffffffffffffffffffffffffffffffffffffffffffffffffffffff91820191612a1183836128f7565b909182549160031b1b1916905555565b634e487b7160e01b600052603160045260246000fd5b6001810191806000528260205260406000205492831515600014612afd57612a8b612a9a9385600160009710612af0575b861980820190835460018110612ae3575b0190808203612aa0575b5050506129d9565b90600052602052604060002090565b55600190565b612aca612ac491612ab4612ada94876128f7565b90549060031b1c928391876128f7565b9061291d565b8590600052602052604060002090565b55388080612a83565b612aeb61265d565b612a79565b612af861265d565b612a68565b50505050600090565b15612b0d57565b6040517f08c379a000000000000000000000000000000000000000000000000000000000815260206004820152602e60248201527f496e697469616c697a61626c653a20636f6e747261637420697320616c72656160448201527f647920696e697469616c697a65640000000000000000000000000000000000006064820152608490fd5b9081602091031261000e575161189781610752565b506040513d6000823e3d90fd5b939291909360009260ff845460081c1692612bce84612e63565b6040519063313ce56760e01b8252602094858360048160018060a01b038099165afa928315612e56575b8793612e16575b50612c0990612e63565b875167ffffffffffffffff8111612e09575b600198612c3182612c2c8c546104f1565b61316b565b8690601f8311600114612d565793612c96612cb394612d1f9b9c858b9a9896612ca69660049d9b988f92612d4b575b50507fffffffffffffffffffffffffffffffffffffffffffffffffffffffffffffffff600383901b1c191690821b179055613250565b60ff1660ff196003541617600355565b612cae612eef565b61208c565b612cbb612f00565b6040517fd77e128c00000000000000000000000000000000000000000000000000000000815293849182907f0000000000000000000000000000000000000000000000000000000000000000165afa928315612d3e575b92612d21575b5050612196565b565b612d379250803d1061136457611355818361057f565b3880612d18565b612d46612ba7565b612d12565b015190503880612c60565b60016000527fb10e2d527612073b26eecdfd717e6a320cf44b4afac2b0732d9fcbe2b7fa0cf691907fffffffffffffffffffffffffffffffffffffffffffffffffffffffffffffffe084168a5b818110612df45750948c612d1f9c9d86612ca6968d9c9a96612c969660049f9d9a612cb39c10612ddb575b505050811b019055613250565b015160001960f88460031b161c19169055388080612dce565b828401518555938d0193928a01928a01612da3565b612e1161052b565b612c1b565b9092508581813d8311612e4f575b612e2e818361057f565b81010312612e4b57612c099051612e4481611644565b9290612bff565b8680fd5b503d612e24565b612e5e612ba7565b612bf8565b15612e6a57565b6040517f08c379a000000000000000000000000000000000000000000000000000000000815260206004820152602b60248201527f496e697469616c697a61626c653a20636f6e7472616374206973206e6f74206960448201527f6e697469616c697a696e670000000000000000000000000000000000000000006064820152608490fd5b612d1f60ff60005460081c16612e63565b7f112e48a576fb3a75acc75d9fcf6e0bc670b27b1dbcd2463502e10e68cf57d6fd6000818152606c6020527f64cc6f6f685b3276a90c73e0133bcdef2e020f1e725303b7d260892943ebae9f805490829055604051919290917fbd79b86ffe0ab8e8776151514217cd7cacd52c909f66475c3af44e129f0b00ff908490a4565b919060ff6003541690612f9a60ff60005460081c16612e63565b83519367ffffffffffffffff85116130ab575b600190612fbe86612c2c84546104f1565b60209081601f881160011461301857509580612c96949392612d1f9798600092612d4b5750507fffffffffffffffffffffffffffffffffffffffffffffffffffffffffffffffff600383901b1c191690821b179055613250565b600160005291907fffffffffffffffffffffffffffffffffffffffffffffffffffffffffffffffe088167fb10e2d527612073b26eecdfd717e6a320cf44b4afac2b0732d9fcbe2b7fa0cf6936000905b828210613094575050928493928992612d1f999a612c9698979510612ddb57505050811b019055613250565b808786978294978701518155019601940190613068565b6130b361052b565b612fad565b6040517f18160ddd0000000000000000000000000000000000000000000000000000000081526020816004817f000000000000000000000000000000000000000000000000000000000000000073ffffffffffffffffffffffffffffffffffffffff165afa90811561315e575b600091613130575090565b906020823d8211613156575b816131496020938361057f565b8101031261071257505190565b3d915061313c565b613166612ba7565b613125565b90601f8211613178575050565b6001916000908382527fb10e2d527612073b26eecdfd717e6a320cf44b4afac2b0732d9fcbe2b7fa0cf6906020601f850160051c830194106131d5575b601f0160051c01915b8281106131cb5750505050565b81815583016131be565b90925082906131b5565b601f81116131eb575050565b600090600282527f405787fa12a823e0f2b7631cc41b3ba8828b3321ca811111fa75cd3aa3bb5ace906020601f850160051c83019410613246575b601f0160051c01915b82811061323b57505050565b81815560010161322f565b9092508290613226565b90815167ffffffffffffffff811161333b575b613277816132726002546104f1565b6131df565b602080601f83116001146132b357508192936000926132a8575b50508160011b916000199060031b1c191617600255565b015190503880613291565b90601f198316946132e660026000527f405787fa12a823e0f2b7631cc41b3ba8828b3321ca811111fa75cd3aa3bb5ace90565b926000905b87821061332357505083600195961061330a575b505050811b01600255565b015160001960f88460031b161c191690553880806132ff565b806001859682949686015181550195019301906132eb565b61334361052b565b613263565b1561334f57565b6040517f08c379a000000000000000000000000000000000000000000000000000000000815260206004820152601760248201527f5045524d49545f444541444c494e455f455850495245440000000000000000006044820152606490fd5b156133b557565b6040517f08c379a000000000000000000000000000000000000000000000000000000000815260206004820152600e60248201527f494e56414c49445f5349474e45520000000000000000000000000000000000006044820152606490fd5b6000467f00000000000000000000000000000000000000000000000000000000000000000361346257507f000000000000000000000000000000000000000000000000000000000000000090565b6040518190600191825492613476846104f1565b9081845260209586850195828116908160001461357c5750600114613524575b50505091816134ad61351e9361238295038261057f565b519020604080517f8b73c3c69bb8fe3d512ecc4cf759cc79239f7b179b0ffacaa9a75d522b39400f95810195865260208601929092527fc89efdaa54c0f20c7adf612882df0950f5a951637e0307cdcb4c672f298b8bc69085015246606085015230608085015291829060a0850190565b51902090565b91908693508083527fb10e2d527612073b26eecdfd717e6a320cf44b4afac2b0732d9fcbe2b7fa0cf65b82841061356757505050820101816134ad61351e613496565b8054868501860152879490930192810161354e565b7fffffffffffffffffffffffffffffffffffffffffffffffffffffffffffffff001687525050506040830191508290506134ad61351e613496565b604051906135c482610563565b600382527f35303100000000000000000000000000000000000000000000000000000000006020830152565b156135f85750565b6040517f08c379a00000000000000000000000000000000000000000000000000000000081529081906123c290600483016105d6565b6040519061363b82610563565b600382527f35303900000000000000000000000000000000000000000000000000000000006020830152565b7fddf252ad1be2c89b69c2b068fc378daa952ba7f163c4a11628f55a4df523b3ef602060009284600454811981116136ce575b0160045573ffffffffffffffffffffffffffffffffffffffff168084526005825260408085208054870190555194855293a3565b6136d661265d565b61369a565b604051906136e882610563565b600382527f35303200000000000000000000000000000000000000000000000000000000006020830152565b907fddf252ad1be2c89b69c2b068fc378daa952ba7f163c4a11628f55a4df523b3ef602060009360018060a01b031692838552600582526040852081815481811061376e575b0390558060045403600455604051908152a3565b61377661265d565b61375a565b60045480613787575090565b90611897916137946130b8565b915b8181029181830414901517821515161561000e570490565b600454806137ba575090565b611897916137c66130b8565b90613796565b600454806137d8575090565b611897916137e46130b8565b905b9190918281029281840414901517811515161561000e57600190600019830104019015150290565b6004548061381a575090565b90611897916138276130b8565b916137e6565b6040519061383a82610563565b600382527f35313000000000000000000000000000000000000000000000000000000000006020830152565b6040517fa9059cbb00000000000000000000000000000000000000000000000000000000602082015273ffffffffffffffffffffffffffffffffffffffff929092166024830152604480830193909352918152612d1f916138c860648361057f565b6139fd565b6040517f23b872dd00000000000000000000000000000000000000000000000000000000602082015273ffffffffffffffffffffffffffffffffffffffff9283166024820152929091166044830152606480830193909352918152612d1f9160a0820182811067ffffffffffffffff82111761394c575b6040526139fd565b61395461052b565b613944565b9081602091031261000e5751801515810361000e5790565b1561397857565b6040517f08c379a000000000000000000000000000000000000000000000000000000000815260206004820152602a60248201527f5361666545524332303a204552433230206f7065726174696f6e20646964206e60448201527f6f742073756363656564000000000000000000000000000000000000000000006064820152608490fd5b60405173ffffffffffffffffffffffffffffffffffffffff9190911691613a2382610563565b6020928383527f5361666545524332303a206c6f772d6c6576656c2063616c6c206661696c656484840152803b15613a9a5760008281928287613a759796519301915af1613a6f613af9565b90613b29565b80519081613a8257505050565b82612d1f93613a95938301019101613959565b613971565b6040517f08c379a000000000000000000000000000000000000000000000000000000000815260048101859052601d60248201527f416464726573733a2063616c6c20746f206e6f6e2d636f6e74726163740000006044820152606490fd5b3d15613b24573d90613b0a82610dc3565b91613b18604051938461057f565b82523d6000602084013e565b606090565b90919015613b35575090565b8151156135f85750805190602001fdfea264697066735822122098e150b28fd4df548d9309160cd3537d2bf079fc871e813707e289b7f7f3757164736f6c634300080e0033",
    "devdoc": {
        "author": "Kresko",
        "kind": "dev",
        "methods": {
            "getRoleAdmin(bytes32)": {
                "details": "Returns the admin role that controls `role`. See {grantRole} and {revokeRole}. To change a role's admin, use {_setRoleAdmin}."
            },
            "getRoleMember(bytes32,uint256)": {
                "details": "Returns one of the accounts that have `role`. `index` must be a value between 0 and {getRoleMemberCount}, non-inclusive. Role bearers are not sorted in any particular way, and their ordering may change at any point. WARNING: When using {getRoleMember} and {getRoleMemberCount}, make sure you perform all queries on the same block. See the following https://forum.openzeppelin.com/t/iterating-over-elements-on-enumerableset-in-openzeppelin-contracts/2296[forum post] for more information."
            },
            "getRoleMemberCount(bytes32)": {
                "details": "Returns the number of accounts that have `role`. Can be used together with {getRoleMember} to enumerate all bearers of a role."
            },
            "grantRole(bytes32,address)": {
                "details": "Grants `role` to `account`. If `account` had not been already granted `role`, emits a {RoleGranted} event. Requirements: - the caller must have ``role``'s admin role. May emit a {RoleGranted} event."
            },
            "hasRole(bytes32,address)": {
                "details": "Returns `true` if `account` has been granted `role`."
            },
            "renounceRole(bytes32,address)": {
                "details": "Revokes `role` from the calling account. Roles are often managed via {grantRole} and {revokeRole}: this function's purpose is to provide a mechanism for accounts to lose their privileges if they are compromised (such as when a trusted device is misplaced). If the calling account had been revoked `role`, emits a {RoleRevoked} event. Requirements: - the caller must be `account`. May emit a {RoleRevoked} event."
            },
            "revokeRole(bytes32,address)": {
                "details": "Revokes `role` from `account`. If `account` had been granted `role`, emits a {RoleRevoked} event. Requirements: - the caller must have ``role``'s admin role. May emit a {RoleRevoked} event."
            },
            "totalAssets()": {
                "returns": {
                    "_0": "Total supply for the underlying"
                }
            },
            "updateMetaData(string,string,uint8)": {
                "params": {
                    "_name": "new name for the asset",
                    "_symbol": "new symbol for the asset",
                    "_version": "number that must be greater than latest emitted `Initialized` version"
                }
            }
        },
        "title": "Kresko Asset Anchor - pro-rata representation of the underlying kresko asset. Based on ERC-4626 by Solmate (https://github.com/Rari-Capital/solmate/blob/main/src/mixins/ERC4626.sol)",
        "version": 1
    },
    "userdoc": {
        "kind": "user",
        "methods": {
            "deposit(uint256,address)": {
                "notice": "Deposit KreskoAssets for equivalent amount of anchor tokens"
            },
            "destroy(uint256,address)": {
                "notice": "Burns @param _assets of krAssets from @param _from,Burns relative @return _shares of wkrAssets"
            },
            "issue(uint256,address)": {
                "notice": "Mints @param _assets of krAssets for @param _to,Mints relative @return _shares of wkrAssets"
            },
            "mint(uint256,address)": {
                "notice": "Mint shares of anchor tokens for equivalent amount of KreskoAssets"
            },
            "previewDeposit(uint256)": {
                "notice": "amount of shares for amount of @param assets"
            },
            "previewDestroy(uint256)": {
                "notice": "amount of assets for amount of @param shares"
            },
            "previewIssue(uint256)": {
                "notice": "amount of shares for amount of @param assets"
            },
            "previewMint(uint256)": {
                "notice": "amount of assets for amount of @param shares"
            },
            "previewRedeem(uint256)": {
                "notice": "amount of assets for amount of @param shares"
            },
            "previewWithdraw(uint256)": {
                "notice": "amount of shares for amount of @param assets"
            },
            "redeem(uint256,address,address)": {
                "notice": "Redeem shares of anchor for KreskoAssets"
            },
            "supportsInterface(bytes4)": {
                "notice": "ERC-165 - KreskoAssetAnchor, ERC20 and ERC-165 itself"
            },
            "totalAssets()": {
                "notice": "Track the underlying amount"
            },
            "updateMetaData(string,string,uint8)": {
                "notice": "Updates metadata for the token in case eg. ticker change"
            },
            "withdraw(uint256,address,address)": {
                "notice": "Withdraw KreskoAssets for equivalent amount of anchor tokens"
            }
        },
        "notice": "Main purpose of this token is to provide a stable reference for the underlying rebasing KreskoAsset. Enables easier normalized book-keeping and integration with external contracts.",
        "version": 1
    },
    "storageLayout": {
        "storage": [
            {
                "astId": 589,
                "contract": "src/contracts/kreskoasset/KreskoAssetAnchor.sol:KreskoAssetAnchor",
                "label": "_initialized",
                "offset": 0,
                "slot": "0",
                "type": "t_uint8"
            },
            {
                "astId": 592,
                "contract": "src/contracts/kreskoasset/KreskoAssetAnchor.sol:KreskoAssetAnchor",
                "label": "_initializing",
                "offset": 1,
                "slot": "0",
                "type": "t_bool"
            },
            {
                "astId": 23315,
                "contract": "src/contracts/kreskoasset/KreskoAssetAnchor.sol:KreskoAssetAnchor",
                "label": "name",
                "offset": 0,
                "slot": "1",
                "type": "t_string_storage"
            },
            {
                "astId": 23317,
                "contract": "src/contracts/kreskoasset/KreskoAssetAnchor.sol:KreskoAssetAnchor",
                "label": "symbol",
                "offset": 0,
                "slot": "2",
                "type": "t_string_storage"
            },
            {
                "astId": 23319,
                "contract": "src/contracts/kreskoasset/KreskoAssetAnchor.sol:KreskoAssetAnchor",
                "label": "decimals",
                "offset": 0,
                "slot": "3",
                "type": "t_uint8"
            },
            {
                "astId": 23321,
                "contract": "src/contracts/kreskoasset/KreskoAssetAnchor.sol:KreskoAssetAnchor",
                "label": "_totalSupply",
                "offset": 0,
                "slot": "4",
                "type": "t_uint256"
            },
            {
                "astId": 23325,
                "contract": "src/contracts/kreskoasset/KreskoAssetAnchor.sol:KreskoAssetAnchor",
                "label": "_balances",
                "offset": 0,
                "slot": "5",
                "type": "t_mapping(t_address,t_uint256)"
            },
            {
                "astId": 23331,
                "contract": "src/contracts/kreskoasset/KreskoAssetAnchor.sol:KreskoAssetAnchor",
                "label": "_allowances",
                "offset": 0,
                "slot": "6",
                "type": "t_mapping(t_address,t_mapping(t_address,t_uint256))"
            },
            {
                "astId": 23335,
                "contract": "src/contracts/kreskoasset/KreskoAssetAnchor.sol:KreskoAssetAnchor",
                "label": "nonces",
                "offset": 0,
                "slot": "7",
                "type": "t_mapping(t_address,t_uint256)"
            },
            {
                "astId": 1412,
                "contract": "src/contracts/kreskoasset/KreskoAssetAnchor.sol:KreskoAssetAnchor",
                "label": "__gap",
                "offset": 0,
                "slot": "8",
                "type": "t_array(t_uint256)50_storage"
            },
            {
                "astId": 1682,
                "contract": "src/contracts/kreskoasset/KreskoAssetAnchor.sol:KreskoAssetAnchor",
                "label": "__gap",
                "offset": 0,
                "slot": "58",
                "type": "t_array(t_uint256)50_storage"
            },
            {
                "astId": 184,
                "contract": "src/contracts/kreskoasset/KreskoAssetAnchor.sol:KreskoAssetAnchor",
                "label": "_roles",
                "offset": 0,
                "slot": "108",
                "type": "t_mapping(t_bytes32,t_struct(RoleData)179_storage)"
            },
            {
                "astId": 483,
                "contract": "src/contracts/kreskoasset/KreskoAssetAnchor.sol:KreskoAssetAnchor",
                "label": "__gap",
                "offset": 0,
                "slot": "109",
                "type": "t_array(t_uint256)49_storage"
            },
            {
                "astId": 33,
                "contract": "src/contracts/kreskoasset/KreskoAssetAnchor.sol:KreskoAssetAnchor",
                "label": "_roleMembers",
                "offset": 0,
                "slot": "158",
                "type": "t_mapping(t_bytes32,t_struct(AddressSet)2383_storage)"
            },
            {
                "astId": 143,
                "contract": "src/contracts/kreskoasset/KreskoAssetAnchor.sol:KreskoAssetAnchor",
                "label": "__gap",
                "offset": 0,
                "slot": "159",
                "type": "t_array(t_uint256)49_storage"
            }
        ],
        "types": {
            "t_address": {
                "encoding": "inplace",
                "label": "address",
                "numberOfBytes": "20"
            },
            "t_array(t_bytes32)dyn_storage": {
                "base": "t_bytes32",
                "encoding": "dynamic_array",
                "label": "bytes32[]",
                "numberOfBytes": "32"
            },
            "t_array(t_uint256)49_storage": {
                "base": "t_uint256",
                "encoding": "inplace",
                "label": "uint256[49]",
                "numberOfBytes": "1568"
            },
            "t_array(t_uint256)50_storage": {
                "base": "t_uint256",
                "encoding": "inplace",
                "label": "uint256[50]",
                "numberOfBytes": "1600"
            },
            "t_bool": {
                "encoding": "inplace",
                "label": "bool",
                "numberOfBytes": "1"
            },
            "t_bytes32": {
                "encoding": "inplace",
                "label": "bytes32",
                "numberOfBytes": "32"
            },
            "t_mapping(t_address,t_bool)": {
                "encoding": "mapping",
                "key": "t_address",
                "label": "mapping(address => bool)",
                "numberOfBytes": "32",
                "value": "t_bool"
            },
            "t_mapping(t_address,t_mapping(t_address,t_uint256))": {
                "encoding": "mapping",
                "key": "t_address",
                "label": "mapping(address => mapping(address => uint256))",
                "numberOfBytes": "32",
                "value": "t_mapping(t_address,t_uint256)"
            },
            "t_mapping(t_address,t_uint256)": {
                "encoding": "mapping",
                "key": "t_address",
                "label": "mapping(address => uint256)",
                "numberOfBytes": "32",
                "value": "t_uint256"
            },
            "t_mapping(t_bytes32,t_struct(AddressSet)2383_storage)": {
                "encoding": "mapping",
                "key": "t_bytes32",
                "label": "mapping(bytes32 => struct EnumerableSetUpgradeable.AddressSet)",
                "numberOfBytes": "32",
                "value": "t_struct(AddressSet)2383_storage"
            },
            "t_mapping(t_bytes32,t_struct(RoleData)179_storage)": {
                "encoding": "mapping",
                "key": "t_bytes32",
                "label": "mapping(bytes32 => struct AccessControlUpgradeable.RoleData)",
                "numberOfBytes": "32",
                "value": "t_struct(RoleData)179_storage"
            },
            "t_mapping(t_bytes32,t_uint256)": {
                "encoding": "mapping",
                "key": "t_bytes32",
                "label": "mapping(bytes32 => uint256)",
                "numberOfBytes": "32",
                "value": "t_uint256"
            },
            "t_string_storage": {
                "encoding": "bytes",
                "label": "string",
                "numberOfBytes": "32"
            },
            "t_struct(AddressSet)2383_storage": {
                "encoding": "inplace",
                "label": "struct EnumerableSetUpgradeable.AddressSet",
                "members": [
                    {
                        "astId": 2382,
                        "contract": "src/contracts/kreskoasset/KreskoAssetAnchor.sol:KreskoAssetAnchor",
                        "label": "_inner",
                        "offset": 0,
                        "slot": "0",
                        "type": "t_struct(Set)2082_storage"
                    }
                ],
                "numberOfBytes": "64"
            },
            "t_struct(RoleData)179_storage": {
                "encoding": "inplace",
                "label": "struct AccessControlUpgradeable.RoleData",
                "members": [
                    {
                        "astId": 176,
                        "contract": "src/contracts/kreskoasset/KreskoAssetAnchor.sol:KreskoAssetAnchor",
                        "label": "members",
                        "offset": 0,
                        "slot": "0",
                        "type": "t_mapping(t_address,t_bool)"
                    },
                    {
                        "astId": 178,
                        "contract": "src/contracts/kreskoasset/KreskoAssetAnchor.sol:KreskoAssetAnchor",
                        "label": "adminRole",
                        "offset": 0,
                        "slot": "1",
                        "type": "t_bytes32"
                    }
                ],
                "numberOfBytes": "64"
            },
            "t_struct(Set)2082_storage": {
                "encoding": "inplace",
                "label": "struct EnumerableSetUpgradeable.Set",
                "members": [
                    {
                        "astId": 2077,
                        "contract": "src/contracts/kreskoasset/KreskoAssetAnchor.sol:KreskoAssetAnchor",
                        "label": "_values",
                        "offset": 0,
                        "slot": "0",
                        "type": "t_array(t_bytes32)dyn_storage"
                    },
                    {
                        "astId": 2081,
                        "contract": "src/contracts/kreskoasset/KreskoAssetAnchor.sol:KreskoAssetAnchor",
                        "label": "_indexes",
                        "offset": 0,
                        "slot": "1",
                        "type": "t_mapping(t_bytes32,t_uint256)"
                    }
                ],
                "numberOfBytes": "64"
            },
            "t_uint256": {
                "encoding": "inplace",
                "label": "uint256",
                "numberOfBytes": "32"
            },
            "t_uint8": {
                "encoding": "inplace",
                "label": "uint8",
                "numberOfBytes": "1"
            }
        }
    }
}