{
  "_format": "hh-sol-artifact-1",
  "contractName": "FallbackManager",
  "sourceName": "@kreskolabs/gnosis-safe-contracts/contracts/base/FallbackManager.sol",
  "abi": [
    {
      "anonymous": false,
      "inputs": [
        {
          "indexed": false,
          "internalType": "address",
          "name": "handler",
          "type": "address"
        }
      ],
      "name": "ChangedFallbackHandler",
      "type": "event"
    },
    {
      "stateMutability": "nonpayable",
      "type": "fallback"
    },
    {
      "inputs": [
        {
          "internalType": "address",
          "name": "handler",
          "type": "address"
        }
      ],
      "name": "setFallbackHandler",
      "outputs": [],
      "stateMutability": "nonpayable",
      "type": "function"
    }
  ],
  "bytecode": "0x608080604052346100165761017e908161001c8239f35b600080fdfe60806040526004361015610019575b34156100f257600080fd5b6000803560e01c63f08a032314610030575061000e565b346100ef5760206003193601126100ec5760043560018060a01b038116908181036100e8573033036100aa577f6c9a6c4a39284e37ed1cf53d337577d14212a4870fb976a4366c693b939918d5556080527f5ac6c46c93c8d0e53714ba3b53db3e7c046da994313d7ed0d192028bc7c228b060206080a180f35b62461bcd60e51b6080526020608452600560a4527f475330333100000000000000000000000000000000000000000000000000000060c45260646080fd5b8280fd5b80fd5b80fd5b7f6c9a6c4a39284e37ed1cf53d337577d14212a4870fb976a4366c693b939918d5548015610143576000808092368280373360601b3652818060143601925af13d82803e1561013f573d90f35b3d90fd5b600080f3fea26469706673582212200b1364d0bfcb0799499ee5cca484796d0c5377982af81aad2a79d68b0845fbb464736f6c63430008130033",
  "linkReferences": {},
  "deployedLinkReferences": {}
}