{
    "address": "0x9275Fea5732221A1032EA7dB9418b6E833c270FD",
    "abi": [
        {
            "inputs": [
                {
                    "internalType": "contract IKresko",
                    "name": "_kresko",
                    "type": "address"
                }
            ],
            "stateMutability": "nonpayable",
            "type": "constructor"
        },
        {
            "inputs": [],
            "name": "Kresko",
            "outputs": [
                {
                    "internalType": "contract IKresko",
                    "name": "",
                    "type": "address"
                }
            ],
            "stateMutability": "view",
            "type": "function"
        },
        {
            "inputs": [
                {
                    "internalType": "address",
                    "name": "_account",
                    "type": "address"
                }
            ],
            "name": "borrowingPowerUSD",
            "outputs": [
                {
                    "internalType": "uint256",
                    "name": "",
                    "type": "uint256"
                }
            ],
            "stateMutability": "view",
            "type": "function"
        },
        {
            "inputs": [
                {
                    "internalType": "address",
                    "name": "_account",
                    "type": "address"
                }
            ],
            "name": "collateralAssetInfoFor",
            "outputs": [
                {
                    "components": [
                        {
                            "internalType": "address",
                            "name": "assetAddress",
                            "type": "address"
                        },
                        {
                            "internalType": "address",
                            "name": "oracleAddress",
                            "type": "address"
                        },
                        {
                            "internalType": "address",
                            "name": "underlyingRebasingToken",
                            "type": "address"
                        },
                        {
                            "internalType": "uint256",
                            "name": "amount",
                            "type": "uint256"
                        },
                        {
                            "internalType": "uint256",
                            "name": "amountUSD",
                            "type": "uint256"
                        },
                        {
                            "components": [
                                {
                                    "internalType": "uint256",
                                    "name": "rawValue",
                                    "type": "uint256"
                                }
                            ],
                            "internalType": "struct FixedPoint.Unsigned",
                            "name": "cFactor",
                            "type": "tuple"
                        },
                        {
                            "internalType": "uint8",
                            "name": "decimals",
                            "type": "uint8"
                        },
                        {
                            "internalType": "uint256",
                            "name": "index",
                            "type": "uint256"
                        },
                        {
                            "internalType": "uint256",
                            "name": "price",
                            "type": "uint256"
                        },
                        {
                            "internalType": "string",
                            "name": "symbol",
                            "type": "string"
                        },
                        {
                            "internalType": "string",
                            "name": "name",
                            "type": "string"
                        }
                    ],
                    "internalType": "struct KreskoViewer.CollateralAssetInfoUser[]",
                    "name": "result",
                    "type": "tuple[]"
                },
                {
                    "internalType": "uint256",
                    "name": "totalCollateralUSD",
                    "type": "uint256"
                }
            ],
            "stateMutability": "view",
            "type": "function"
        },
        {
            "inputs": [
                {
                    "internalType": "address[]",
                    "name": "assetAddresses",
                    "type": "address[]"
                }
            ],
            "name": "collateralAssetInfos",
            "outputs": [
                {
                    "components": [
                        {
                            "internalType": "address",
                            "name": "assetAddress",
                            "type": "address"
                        },
                        {
                            "internalType": "address",
                            "name": "oracleAddress",
                            "type": "address"
                        },
                        {
                            "internalType": "address",
                            "name": "underlyingRebasingToken",
                            "type": "address"
                        },
                        {
                            "internalType": "uint256",
                            "name": "price",
                            "type": "uint256"
                        },
                        {
                            "internalType": "uint256",
                            "name": "value",
                            "type": "uint256"
                        },
                        {
                            "components": [
                                {
                                    "internalType": "uint256",
                                    "name": "rawValue",
                                    "type": "uint256"
                                }
                            ],
                            "internalType": "struct FixedPoint.Unsigned",
                            "name": "cFactor",
                            "type": "tuple"
                        },
                        {
                            "internalType": "uint8",
                            "name": "decimals",
                            "type": "uint8"
                        },
                        {
                            "internalType": "string",
                            "name": "symbol",
                            "type": "string"
                        },
                        {
                            "internalType": "string",
                            "name": "name",
                            "type": "string"
                        }
                    ],
                    "internalType": "struct KreskoViewer.CollateralAssetInfo[]",
                    "name": "result",
                    "type": "tuple[]"
                }
            ],
            "stateMutability": "view",
            "type": "function"
        },
        {
            "inputs": [
                {
                    "internalType": "address[]",
                    "name": "_collateralAssets",
                    "type": "address[]"
                },
                {
                    "internalType": "address[]",
                    "name": "_krAssets",
                    "type": "address[]"
                }
            ],
            "name": "getAssetInfos",
            "outputs": [
                {
                    "components": [
                        {
                            "internalType": "address",
                            "name": "assetAddress",
                            "type": "address"
                        },
                        {
                            "internalType": "address",
                            "name": "oracleAddress",
                            "type": "address"
                        },
                        {
                            "internalType": "address",
                            "name": "underlyingRebasingToken",
                            "type": "address"
                        },
                        {
                            "internalType": "uint256",
                            "name": "price",
                            "type": "uint256"
                        },
                        {
                            "internalType": "uint256",
                            "name": "value",
                            "type": "uint256"
                        },
                        {
                            "components": [
                                {
                                    "internalType": "uint256",
                                    "name": "rawValue",
                                    "type": "uint256"
                                }
                            ],
                            "internalType": "struct FixedPoint.Unsigned",
                            "name": "cFactor",
                            "type": "tuple"
                        },
                        {
                            "internalType": "uint8",
                            "name": "decimals",
                            "type": "uint8"
                        },
                        {
                            "internalType": "string",
                            "name": "symbol",
                            "type": "string"
                        },
                        {
                            "internalType": "string",
                            "name": "name",
                            "type": "string"
                        }
                    ],
                    "internalType": "struct KreskoViewer.CollateralAssetInfo[]",
                    "name": "collateralAssets",
                    "type": "tuple[]"
                },
                {
                    "components": [
                        {
                            "internalType": "address",
                            "name": "oracleAddress",
                            "type": "address"
                        },
                        {
                            "internalType": "address",
                            "name": "assetAddress",
                            "type": "address"
                        },
                        {
                            "internalType": "uint256",
                            "name": "price",
                            "type": "uint256"
                        },
                        {
                            "internalType": "uint256",
                            "name": "value",
                            "type": "uint256"
                        },
                        {
                            "components": [
                                {
                                    "internalType": "uint256",
                                    "name": "rawValue",
                                    "type": "uint256"
                                }
                            ],
                            "internalType": "struct FixedPoint.Unsigned",
                            "name": "kFactor",
                            "type": "tuple"
                        },
                        {
                            "internalType": "string",
                            "name": "symbol",
                            "type": "string"
                        },
                        {
                            "internalType": "string",
                            "name": "name",
                            "type": "string"
                        }
                    ],
                    "internalType": "struct KreskoViewer.krAssetInfo[]",
                    "name": "krAssets",
                    "type": "tuple[]"
                }
            ],
            "stateMutability": "view",
            "type": "function"
        },
        {
            "inputs": [
                {
                    "internalType": "address",
                    "name": "_account",
                    "type": "address"
                }
            ],
            "name": "healthFactorFor",
            "outputs": [
                {
                    "internalType": "uint256",
                    "name": "",
                    "type": "uint256"
                }
            ],
            "stateMutability": "view",
            "type": "function"
        },
        {
            "inputs": [
                {
                    "internalType": "address",
                    "name": "_account",
                    "type": "address"
                }
            ],
            "name": "krAssetInfoFor",
            "outputs": [
                {
                    "components": [
                        {
                            "internalType": "address",
                            "name": "assetAddress",
                            "type": "address"
                        },
                        {
                            "internalType": "address",
                            "name": "oracleAddress",
                            "type": "address"
                        },
                        {
                            "internalType": "uint256",
                            "name": "amount",
                            "type": "uint256"
                        },
                        {
                            "internalType": "uint256",
                            "name": "amountUSD",
                            "type": "uint256"
                        },
                        {
                            "internalType": "uint256",
                            "name": "index",
                            "type": "uint256"
                        },
                        {
                            "components": [
                                {
                                    "internalType": "uint256",
                                    "name": "rawValue",
                                    "type": "uint256"
                                }
                            ],
                            "internalType": "struct FixedPoint.Unsigned",
                            "name": "kFactor",
                            "type": "tuple"
                        },
                        {
                            "internalType": "bool",
                            "name": "mintable",
                            "type": "bool"
                        },
                        {
                            "internalType": "uint256",
                            "name": "price",
                            "type": "uint256"
                        },
                        {
                            "internalType": "string",
                            "name": "symbol",
                            "type": "string"
                        },
                        {
                            "internalType": "string",
                            "name": "name",
                            "type": "string"
                        }
                    ],
                    "internalType": "struct KreskoViewer.krAssetInfoUser[]",
                    "name": "result",
                    "type": "tuple[]"
                },
                {
                    "internalType": "uint256",
                    "name": "totalDebtUSD",
                    "type": "uint256"
                }
            ],
            "stateMutability": "view",
            "type": "function"
        },
        {
            "inputs": [
                {
                    "internalType": "address[]",
                    "name": "assetAddresses",
                    "type": "address[]"
                }
            ],
            "name": "krAssetInfos",
            "outputs": [
                {
                    "components": [
                        {
                            "internalType": "address",
                            "name": "oracleAddress",
                            "type": "address"
                        },
                        {
                            "internalType": "address",
                            "name": "assetAddress",
                            "type": "address"
                        },
                        {
                            "internalType": "uint256",
                            "name": "price",
                            "type": "uint256"
                        },
                        {
                            "internalType": "uint256",
                            "name": "value",
                            "type": "uint256"
                        },
                        {
                            "components": [
                                {
                                    "internalType": "uint256",
                                    "name": "rawValue",
                                    "type": "uint256"
                                }
                            ],
                            "internalType": "struct FixedPoint.Unsigned",
                            "name": "kFactor",
                            "type": "tuple"
                        },
                        {
                            "internalType": "string",
                            "name": "symbol",
                            "type": "string"
                        },
                        {
                            "internalType": "string",
                            "name": "name",
                            "type": "string"
                        }
                    ],
                    "internalType": "struct KreskoViewer.krAssetInfo[]",
                    "name": "result",
                    "type": "tuple[]"
                }
            ],
            "stateMutability": "view",
            "type": "function"
        },
        {
            "inputs": [
                {
                    "internalType": "address",
                    "name": "_account",
                    "type": "address"
                }
            ],
            "name": "kreskoUser",
            "outputs": [
                {
                    "components": [
                        {
                            "components": [
                                {
                                    "internalType": "address",
                                    "name": "assetAddress",
                                    "type": "address"
                                },
                                {
                                    "internalType": "address",
                                    "name": "oracleAddress",
                                    "type": "address"
                                },
                                {
                                    "internalType": "uint256",
                                    "name": "amount",
                                    "type": "uint256"
                                },
                                {
                                    "internalType": "uint256",
                                    "name": "amountUSD",
                                    "type": "uint256"
                                },
                                {
                                    "internalType": "uint256",
                                    "name": "index",
                                    "type": "uint256"
                                },
                                {
                                    "components": [
                                        {
                                            "internalType": "uint256",
                                            "name": "rawValue",
                                            "type": "uint256"
                                        }
                                    ],
                                    "internalType": "struct FixedPoint.Unsigned",
                                    "name": "kFactor",
                                    "type": "tuple"
                                },
                                {
                                    "internalType": "bool",
                                    "name": "mintable",
                                    "type": "bool"
                                },
                                {
                                    "internalType": "uint256",
                                    "name": "price",
                                    "type": "uint256"
                                },
                                {
                                    "internalType": "string",
                                    "name": "symbol",
                                    "type": "string"
                                },
                                {
                                    "internalType": "string",
                                    "name": "name",
                                    "type": "string"
                                }
                            ],
                            "internalType": "struct KreskoViewer.krAssetInfoUser[]",
                            "name": "krAssets",
                            "type": "tuple[]"
                        },
                        {
                            "components": [
                                {
                                    "internalType": "address",
                                    "name": "assetAddress",
                                    "type": "address"
                                },
                                {
                                    "internalType": "address",
                                    "name": "oracleAddress",
                                    "type": "address"
                                },
                                {
                                    "internalType": "address",
                                    "name": "underlyingRebasingToken",
                                    "type": "address"
                                },
                                {
                                    "internalType": "uint256",
                                    "name": "amount",
                                    "type": "uint256"
                                },
                                {
                                    "internalType": "uint256",
                                    "name": "amountUSD",
                                    "type": "uint256"
                                },
                                {
                                    "components": [
                                        {
                                            "internalType": "uint256",
                                            "name": "rawValue",
                                            "type": "uint256"
                                        }
                                    ],
                                    "internalType": "struct FixedPoint.Unsigned",
                                    "name": "cFactor",
                                    "type": "tuple"
                                },
                                {
                                    "internalType": "uint8",
                                    "name": "decimals",
                                    "type": "uint8"
                                },
                                {
                                    "internalType": "uint256",
                                    "name": "index",
                                    "type": "uint256"
                                },
                                {
                                    "internalType": "uint256",
                                    "name": "price",
                                    "type": "uint256"
                                },
                                {
                                    "internalType": "string",
                                    "name": "symbol",
                                    "type": "string"
                                },
                                {
                                    "internalType": "string",
                                    "name": "name",
                                    "type": "string"
                                }
                            ],
                            "internalType": "struct KreskoViewer.CollateralAssetInfoUser[]",
                            "name": "collateralAssets",
                            "type": "tuple[]"
                        },
                        {
                            "internalType": "uint256",
                            "name": "healthFactor",
                            "type": "uint256"
                        },
                        {
                            "internalType": "uint256",
                            "name": "debtActualUSD",
                            "type": "uint256"
                        },
                        {
                            "internalType": "uint256",
                            "name": "debtUSD",
                            "type": "uint256"
                        },
                        {
                            "internalType": "uint256",
                            "name": "collateralActualUSD",
                            "type": "uint256"
                        },
                        {
                            "internalType": "uint256",
                            "name": "collateralUSD",
                            "type": "uint256"
                        },
                        {
                            "internalType": "uint256",
                            "name": "minCollateralUSD",
                            "type": "uint256"
                        },
                        {
                            "internalType": "uint256",
                            "name": "borrowingPowerUSD",
                            "type": "uint256"
                        }
                    ],
                    "internalType": "struct KreskoViewer.KreskoUser",
                    "name": "user",
                    "type": "tuple"
                }
            ],
            "stateMutability": "view",
            "type": "function"
        }
    ],
    "transactionHash": "0x2e441d7f2327a46d43684fb3b77410af426250566d8d71fd8cb229cac1c33dcc",
    "args": [
        "0xADB3bcEa3D2DD8F6050F6959bF88a910Cdbd69b3"
    ],
    "numDeployments": 1,
    "solcInputHash": "a9f1b3a4e3cec5267ddbd5b2f6a6d195",
    "bytecode": "0x608060405234801561001057600080fd5b506040516200243b3803806200243b83398101604081905261003191610056565b600080546001600160a01b0319166001600160a01b0392909216919091179055610086565b60006020828403121561006857600080fd5b81516001600160a01b038116811461007f57600080fd5b9392505050565b6123a580620000966000396000f3fe608060405234801561001057600080fd5b50600436106100a35760003560e01c8063983ff61511610076578063be6d74a01161005b578063be6d74a014610167578063def86ce114610187578063f79031e8146101a857600080fd5b8063983ff61514610133578063b56274d41461015457600080fd5b806327c5607d146100a8578063624ba701146100d15780636bb52909146100f15780636e0696d614610112575b600080fd5b6100bb6100b6366004611940565b6101d3565b6040516100c89190611ab0565b60405180910390f35b6100e46100df366004611940565b610575565b6040516100c89190611b78565b6101046100ff366004611b8b565b6108be565b6040516100c8929190611bef565b610125610120366004611c1d565b6108de565b6040516100c8929190611d2c565b610146610141366004611c1d565b610d4b565b6040519081526020016100c8565b610146610162366004611c1d565b610e5a565b61017a610175366004611c1d565b610f64565b6040516100c89190611e23565b61019a610195366004611c1d565b6111b0565b6040516100c8929190611eb6565b6000546101bb906001600160a01b031681565b6040516001600160a01b0390911681526020016100c8565b6060815167ffffffffffffffff8111156101ef576101ef611849565b60405190808252806020026020018201604052801561022857816020015b610215611666565b81526020019060019003908161020d5790505b50905060005b825181101561056f57600083828151811061024b5761024b611ec9565b602090810291909101015160008054604051635390972760e01b81526001600160a01b0380851660048301529394509192169063539097279060240160a060405180830381865afa1580156102a4573d6000803e3d6000fd5b505050506040513d601f19601f820116820180604052508101906102c89190611f47565b90506000826001600160a01b031663313ce5676040518163ffffffff1660e01b8152600401602060405180830381865afa15801561030a573d6000803e3d6000fd5b505050506040513d601f19601f8201168201806040525081019061032e9190611fda565b90506000836001600160a01b03166395d89b416040518163ffffffff1660e01b8152600401600060405180830381865afa158015610370573d6000803e3d6000fd5b505050506040513d6000823e601f3d908101601f191682016040526103989190810190611ff5565b600080549192509081906001600160a01b0316633ae000c0876103bc87600a612183565b6103c7906001612192565b6040517fffffffff0000000000000000000000000000000000000000000000000000000060e085901b1681526001600160a01b0390921660048301526024820152600060448201526064016040805180830381865afa15801561042e573d6000803e3d6000fd5b505050506040513d601f19601f8201168201806040525081019061045291906121b1565b915091506000866001600160a01b03166306fdde036040518163ffffffff1660e01b8152600401600060405180830381865afa158015610496573d6000803e3d6000fd5b505050506040513d6000823e601f3d908101601f191682016040526104be9190810190611ff5565b90506000604051806101200160405280896001600160a01b0316815260200188602001516001600160a01b0316815260200188604001516001600160a01b031681526020018460000151815260200185600001518152602001886000015181526020018760ff168152602001868152602001838152509050808a8a8151811061054957610549611ec9565b602002602001018190525050505050505050508080610567906121dd565b91505061022e565b50919050565b6060815167ffffffffffffffff81111561059157610591611849565b6040519080825280602002602001820160405280156105ca57816020015b6105b76116df565b8152602001906001900390816105af5790505b50905060005b825181101561056f5760008382815181106105ed576105ed611ec9565b60209081029190910101516000805460405163d7bfcecd60e01b81526001600160a01b0380851660048301529394509192169063d7bfcecd90602401608060405180830381865afa158015610646573d6000803e3d6000fd5b505050506040513d601f19601f8201168201806040525081019061066a91906121f8565b60008054604051631a69f54b60e21b81526001600160a01b038681166004830152670de0b6b3a7640000602483015260448201849052939450919216906369a7d52c90606401602060405180830381865afa1580156106cd573d6000803e3d6000fd5b505050506040513d601f19601f820116820180604052508101906106f19190612278565b9050600082602001516001600160a01b03166350d25bcd6040518163ffffffff1660e01b8152600401602060405180830381865afa158015610737573d6000803e3d6000fd5b505050506040513d601f19601f8201168201806040525081019061075b9190612294565b90506000846001600160a01b03166306fdde036040518163ffffffff1660e01b8152600401600060405180830381865afa15801561079d573d6000803e3d6000fd5b505050506040513d6000823e601f3d908101601f191682016040526107c59190810190611ff5565b90506000856001600160a01b03166395d89b416040518163ffffffff1660e01b8152600401600060405180830381865afa158015610807573d6000803e3d6000fd5b505050506040513d6000823e601f3d908101601f1916820160405261082f9190810190611ff5565b905060006040518060e0016040528087602001516001600160a01b03168152602001886001600160a01b0316815260200185815260200186600001518152602001876000015181526020018381526020018481525090508089898151811061089957610899611ec9565b60200260200101819052505050505050505080806108b6906121dd565b9150506105d0565b6060806108ca846101d3565b91506108d583610575565b90509250929050565b6000805460405163369c411560e11b81526001600160a01b038481166004830152606093928392911690636d38822a90602401600060405180830381865afa15801561092e573d6000803e3d6000fd5b505050506040513d6000823e601f3d908101601f1916820160405261095691908101906122ad565b805190915015610d4557805167ffffffffffffffff81111561097a5761097a611849565b6040519080825280602002602001820160405280156109b357816020015b6109a0611742565b8152602001906001900390816109985790505b50925060005b8151811015610d435760008282815181106109d6576109d6611ec9565b602090810291909101015160008054604051635390972760e01b81526001600160a01b0380851660048301529394509192169063539097279060240160a060405180830381865afa158015610a2f573d6000803e3d6000fd5b505050506040513d601f19601f82011682018060405250810190610a539190611f47565b90506000826001600160a01b031663313ce5676040518163ffffffff1660e01b8152600401602060405180830381865afa158015610a95573d6000803e3d6000fd5b505050506040513d601f19601f82011682018060405250810190610ab99190611fda565b60008054604051630c65e07b60e01b81526001600160a01b038c81166004830152878116602483015293945091921690630c65e07b90604401602060405180830381865afa158015610b0f573d6000803e3d6000fd5b505050506040513d601f19601f82011682018060405250810190610b339190612294565b90506000846001600160a01b03166395d89b416040518163ffffffff1660e01b8152600401600060405180830381865afa158015610b75573d6000803e3d6000fd5b505050506040513d6000823e601f3d908101601f19168201604052610b9d9190810190611ff5565b6000805460405162eb800360e61b81526001600160a01b038981166004830152602482018790526001604483015293945091928392911690633ae000c0906064016040805180830381865afa158015610bfa573d6000803e3d6000fd5b505050506040513d601f19601f82011682018060405250810190610c1e91906121b1565b915091506000876001600160a01b03166306fdde036040518163ffffffff1660e01b8152600401600060405180830381865afa158015610c62573d6000803e3d6000fd5b505050506040513d6000823e601f3d908101601f19168201604052610c8a9190810190611ff5565b60408051610160810182526001600160a01b03808c16825260208b8101518216908301528a83015116918101919091526060810187905284516080820152885160a082015260ff881660c082015260e081018b9052835161010082015261012081018690526101408101829052845191925090610d07908d612347565b9b50808d8b81518110610d1c57610d1c611ec9565b60200260200101819052505050505050505050508080610d3b906121dd565b9150506109b9565b505b50915091565b60008054604051633fa1c54560e21b81526001600160a01b0384811660048301528392169063fe87151490602401602060405180830381865afa158015610d96573d6000803e3d6000fd5b505050506040513d601f19601f82011682018060405250810190610dba9190612278565b600080546040516307d1a44560e41b81526001600160a01b03878116600483015293945091921690637d1a445090602401602060405180830381865afa158015610e08573d6000803e3d6000fd5b505050506040513d601f19601f82011682018060405250810190610e2c9190612278565b9050610e388183611614565b15610e47575060009392505050565b610e518183611620565b51949350505050565b60008054604051633fa1c54560e21b81526001600160a01b0384811660048301528392169063fe87151490602401602060405180830381865afa158015610ea5573d6000803e3d6000fd5b505050506040513d601f19601f82011682018060405250810190610ec99190612278565b51600080546040516307d1a44560e41b81526001600160a01b03878116600483015293945091921690637d1a445090602401602060405180830381865afa158015610f18573d6000803e3d6000fd5b505050506040513d601f19601f82011682018060405250810190610f3c9190612278565b51905081610f5282670de0b6b3a7640000612192565b610f5c919061235f565b949350505050565b610fb36040518061012001604052806060815260200160608152602001600081526020016000815260200160008152602001600081526020016000815260200160008152602001600081525090565b600080610fbf846111b0565b91509150600080610fcf866108de565b91509150600084511180610fe4575060008251115b156111a75760405180610120016040528085815260200183815260200161100a88610e5a565b815260208101859052600054604080517fff1389c50000000000000000000000000000000000000000000000000000000081526001600160a01b038b81166004830152919093019291169063ff1389c590602401602060405180830381865afa15801561107b573d6000803e3d6000fd5b505050506040513d601f19601f8201168201806040525081019061109f9190612278565b51815260208101839052600054604080516307d1a44560e41b81526001600160a01b038b811660048301529190930192911690637d1a445090602401602060405180830381865afa1580156110f8573d6000803e3d6000fd5b505050506040513d601f19601f8201168201806040525081019061111c9190612278565b518152600054604051633fa1c54560e21b81526001600160a01b038a811660048301526020909301929091169063fe87151490602401602060405180830381865afa15801561116f573d6000803e3d6000fd5b505050506040513d601f19601f820116820180604052508101906111939190612278565b5181526020016111a288610d4b565b905294505b50505050919050565b600080546040516377d4074360e11b81526001600160a01b03848116600483015260609392839291169063efa80e8690602401600060405180830381865afa158015611200573d6000803e3d6000fd5b505050506040513d6000823e601f3d908101601f1916820160405261122891908101906122ad565b805190915015610d4557805167ffffffffffffffff81111561124c5761124c611849565b60405190808252806020026020018201604052801561128557816020015b6112726117ce565b81526020019060019003908161126a5790505b50925060005b8151811015610d435760008282815181106112a8576112a8611ec9565b60209081029190910101516000805460405163d7bfcecd60e01b81526001600160a01b0380851660048301529394509192169063d7bfcecd90602401608060405180830381865afa158015611301573d6000803e3d6000fd5b505050506040513d601f19601f8201168201806040525081019061132591906121f8565b60008054604051630692479b60e31b81526001600160a01b038b811660048301528681166024830152939450919216906334923cd890604401602060405180830381865afa15801561137b573d6000803e3d6000fd5b505050506040513d601f19601f8201168201806040525081019061139f9190612294565b9050600082602001516001600160a01b03166350d25bcd6040518163ffffffff1660e01b8152600401602060405180830381865afa1580156113e5573d6000803e3d6000fd5b505050506040513d601f19601f820116820180604052508101906114099190612294565b60008054604051631a69f54b60e21b81526001600160a01b0388811660048301526024820187905260016044830152939450919216906369a7d52c90606401602060405180830381865afa158015611465573d6000803e3d6000fd5b505050506040513d601f19601f820116820180604052508101906114899190612278565b6000015190506000856001600160a01b03166395d89b416040518163ffffffff1660e01b8152600401600060405180830381865afa1580156114cf573d6000803e3d6000fd5b505050506040513d6000823e601f3d908101601f191682016040526114f79190810190611ff5565b90506000866001600160a01b03166306fdde036040518163ffffffff1660e01b8152600401600060405180830381865afa158015611539573d6000803e3d6000fd5b505050506040513d6000823e601f3d908101601f191682016040526115619190810190611ff5565b90506000604051806101400160405280896001600160a01b0316815260200188602001516001600160a01b031681526020018781526020018581526020018a815260200188600001518152602001886060015115158152602001868152602001848152602001838152509050838b6115d99190612347565b9a50808c8a815181106115ee576115ee611ec9565b60200260200101819052505050505050505050808061160c906121dd565b91505061128b565b80518251105b92915050565b604080516020810190915260008152604080516020810190915282518451829161164a9190611653565b90529392505050565b600061165f8284612381565b9392505050565b60405180610120016040528060006001600160a01b0316815260200160006001600160a01b0316815260200160006001600160a01b0316815260200160008152602001600081526020016116c66040518060200160405280600081525090565b8152600060208201526060604082018190529081015290565b6040518060e0016040528060006001600160a01b0316815260200160006001600160a01b03168152602001600081526020016000815260200161172e6040518060200160405280600081525090565b815260200160608152602001606081525090565b60405180610160016040528060006001600160a01b0316815260200160006001600160a01b0316815260200160006001600160a01b0316815260200160008152602001600081526020016117a26040518060200160405280600081525090565b8152602001600060ff168152602001600081526020016000815260200160608152602001606081525090565b60405180610140016040528060006001600160a01b0316815260200160006001600160a01b031681526020016000815260200160008152602001600081526020016118256040518060200160405280600081525090565b81526020016000151581526020016000815260200160608152602001606081525090565b634e487b7160e01b600052604160045260246000fd5b604051601f8201601f1916810167ffffffffffffffff8111828210171561188857611888611849565b604052919050565b600067ffffffffffffffff8211156118aa576118aa611849565b5060051b60200190565b6001600160a01b03811681146118c957600080fd5b50565b600082601f8301126118dd57600080fd5b813560206118f26118ed83611890565b61185f565b82815260059290921b8401810191818101908684111561191157600080fd5b8286015b84811015611935578035611928816118b4565b8352918301918301611915565b509695505050505050565b60006020828403121561195257600080fd5b813567ffffffffffffffff81111561196957600080fd5b610f5c848285016118cc565b60005b83811015611990578181015183820152602001611978565b8381111561199f576000848401525b50505050565b600081518084526119bd816020860160208601611975565b601f01601f19169290920160200192915050565b600082825180855260208086019550808260051b84010181860160005b84811015611aa357601f19868403018952815180516001600160a01b0390811685528582015181168686015260408083015190911690850152606080820151908501526080808201519085015260a080820151519085015260c08082015160ff169085015260e0808201516101208287018190529190611a70838801826119a5565b925050506101008083015192508582038187015250611a8f81836119a5565b9a86019a94505050908301906001016119ee565b5090979650505050505050565b60208152600061165f60208301846119d1565b600082825180855260208086019550808260051b84010181860160005b84811015611aa357858303601f19018952815180516001600160a01b0390811685528582015116858501526040808201519085015260608082015190850152608080820151519085015260a08082015160e08287018190529190611b46838801826119a5565b9250505060c08083015192508582038187015250611b6481836119a5565b9a86019a9450505090830190600101611ae0565b60208152600061165f6020830184611ac3565b60008060408385031215611b9e57600080fd5b823567ffffffffffffffff80821115611bb657600080fd5b611bc2868387016118cc565b93506020850135915080821115611bd857600080fd5b50611be5858286016118cc565b9150509250929050565b604081526000611c0260408301856119d1565b8281036020840152611c148185611ac3565b95945050505050565b600060208284031215611c2f57600080fd5b813561165f816118b4565b600081518084526020808501808196508360051b8101915082860160005b85811015611d1f578284038952815180516001600160a01b0390811686528682015181168787015260408083015190911690860152606080820151908601526080808201519086015260a080820151519086015260c08082015160ff169086015260e080820151908601526101008082015190860152610120808201516101608288018190529190611cec838901826119a5565b925050506101408083015192508682038188015250611d0b81836119a5565b9a87019a9550505090840190600101611c58565b5091979650505050505050565b604081526000611d3f6040830185611c3a565b90508260208301529392505050565b600081518084526020808501808196508360051b8101915082860160005b85811015611d1f578284038952815180516001600160a01b03908116865286820151168686015260408082015190860152606080820151908601526080808201519086015260a080820151519086015260c08082015115159086015260e08082015190860152610100808201516101408288018190529190611df0838901826119a5565b925050506101208083015192508682038188015250611e0f81836119a5565b9a87019a9550505090840190600101611d6c565b6020815260008251610120806020850152611e42610140850183611d4e565b91506020850151601f19858403016040860152611e5f8382611c3a565b9250506040850151606085015260608501516080850152608085015160a085015260a085015160c085015260c085015160e085015260e0850151610100818187015280870151838701525050508091505092915050565b604081526000611d3f6040830185611d4e565b634e487b7160e01b600052603260045260246000fd5b600060208284031215611ef157600080fd5b6040516020810181811067ffffffffffffffff82111715611f1457611f14611849565b6040529151825250919050565b805160ff81168114611f3257600080fd5b919050565b80518015158114611f3257600080fd5b600060a08284031215611f5957600080fd5b60405160a0810181811067ffffffffffffffff82111715611f7c57611f7c611849565b604052611f898484611edf565b81526020830151611f99816118b4565b60208201526040830151611fac816118b4565b6040820152611fbd60608401611f21565b6060820152611fce60808401611f37565b60808201529392505050565b600060208284031215611fec57600080fd5b61165f82611f21565b60006020828403121561200757600080fd5b815167ffffffffffffffff8082111561201f57600080fd5b818401915084601f83011261203357600080fd5b81518181111561204557612045611849565b612058601f8201601f191660200161185f565b915080825285602082850101111561206f57600080fd5b612080816020840160208601611975565b50949350505050565b634e487b7160e01b600052601160045260246000fd5b600181815b808511156120da5781600019048211156120c0576120c0612089565b808516156120cd57918102915b93841c93908002906120a4565b509250929050565b6000826120f15750600161161a565b816120fe5750600061161a565b8160018114612114576002811461211e5761213a565b600191505061161a565b60ff84111561212f5761212f612089565b50506001821b61161a565b5060208310610133831016604e8410600b841016171561215d575081810a61161a565b612167838361209f565b806000190482111561217b5761217b612089565b029392505050565b600061165f60ff8416836120e2565b60008160001904831182151516156121ac576121ac612089565b500290565b600080604083850312156121c457600080fd5b6121ce8484611edf565b91506108d58460208501611edf565b60006000198214156121f1576121f1612089565b5060010190565b60006080828403121561220a57600080fd5b6040516080810181811067ffffffffffffffff8211171561222d5761222d611849565b60405261223a8484611edf565b8152602083015161224a816118b4565b602082015261225b60408401611f37565b604082015261226c60608401611f37565b60608201529392505050565b60006020828403121561228a57600080fd5b61165f8383611edf565b6000602082840312156122a657600080fd5b5051919050565b600060208083850312156122c057600080fd5b825167ffffffffffffffff8111156122d757600080fd5b8301601f810185136122e857600080fd5b80516122f66118ed82611890565b81815260059190911b8201830190838101908783111561231557600080fd5b928401925b8284101561233c57835161232d816118b4565b8252928401929084019061231a565b979650505050505050565b6000821982111561235a5761235a612089565b500190565b60008261237c57634e487b7160e01b600052601260045260246000fd5b500490565b60008282101561239357612393612089565b50039056fea164736f6c634300080a000a",
    "devdoc": {
        "kind": "dev",
        "methods": {},
        "version": 1
    },
    "userdoc": {
        "kind": "user",
        "methods": {},
        "version": 1
    },
    "storageLayout": {
        "storage": [
            {
                "astId": 19688,
                "contract": "src/contracts/KreskoViewer.sol:KreskoViewer",
                "label": "Kresko",
                "offset": 0,
                "slot": "0",
                "type": "t_contract(IKresko)21946"
            }
        ],
        "types": {
            "t_contract(IKresko)21946": {
                "encoding": "inplace",
                "label": "contract IKresko",
                "numberOfBytes": "20"
            }
        }
    }
}