{
    "address": "0xcbFe3C7896063AdAE103C70eaAA637089c32BCC7",
    "abi": [
        {
            "inputs": [
                {
                    "internalType": "contract IKresko",
                    "name": "_kresko",
                    "type": "address"
                }
            ],
            "stateMutability": "nonpayable",
            "type": "constructor"
        },
        {
            "inputs": [],
            "name": "Kresko",
            "outputs": [
                {
                    "internalType": "contract IKresko",
                    "name": "",
                    "type": "address"
                }
            ],
            "stateMutability": "view",
            "type": "function"
        },
        {
            "inputs": [
                {
                    "internalType": "address[]",
                    "name": "_assets",
                    "type": "address[]"
                },
                {
                    "internalType": "contract AggregatorV2V3Interface[]",
                    "name": "_oracles",
                    "type": "address[]"
                }
            ],
            "name": "batchPrices",
            "outputs": [
                {
                    "components": [
                        {
                            "internalType": "uint256",
                            "name": "price",
                            "type": "uint256"
                        },
                        {
                            "internalType": "uint256",
                            "name": "timestamp",
                            "type": "uint256"
                        },
                        {
                            "internalType": "address",
                            "name": "assetAddress",
                            "type": "address"
                        },
                        {
                            "internalType": "uint80",
                            "name": "roundId",
                            "type": "uint80"
                        }
                    ],
                    "internalType": "struct KreskoViewer.Price[]",
                    "name": "result",
                    "type": "tuple[]"
                }
            ],
            "stateMutability": "view",
            "type": "function"
        },
        {
            "inputs": [
                {
                    "internalType": "address",
                    "name": "_account",
                    "type": "address"
                }
            ],
            "name": "borrowingPowerUSD",
            "outputs": [
                {
                    "components": [
                        {
                            "internalType": "uint256",
                            "name": "rawValue",
                            "type": "uint256"
                        }
                    ],
                    "internalType": "struct FixedPoint.Unsigned",
                    "name": "",
                    "type": "tuple"
                }
            ],
            "stateMutability": "view",
            "type": "function"
        },
        {
            "inputs": [
                {
                    "internalType": "address",
                    "name": "_account",
                    "type": "address"
                }
            ],
            "name": "collateralAssetInfoFor",
            "outputs": [
                {
                    "components": [
                        {
                            "internalType": "address",
                            "name": "assetAddress",
                            "type": "address"
                        },
                        {
                            "internalType": "address",
                            "name": "oracleAddress",
                            "type": "address"
                        },
                        {
                            "internalType": "address",
                            "name": "underlyingRebasingToken",
                            "type": "address"
                        },
                        {
                            "internalType": "uint256",
                            "name": "amount",
                            "type": "uint256"
                        },
                        {
                            "components": [
                                {
                                    "internalType": "uint256",
                                    "name": "rawValue",
                                    "type": "uint256"
                                }
                            ],
                            "internalType": "struct FixedPoint.Unsigned",
                            "name": "amountUSD",
                            "type": "tuple"
                        },
                        {
                            "components": [
                                {
                                    "internalType": "uint256",
                                    "name": "rawValue",
                                    "type": "uint256"
                                }
                            ],
                            "internalType": "struct FixedPoint.Unsigned",
                            "name": "cFactor",
                            "type": "tuple"
                        },
                        {
                            "internalType": "uint8",
                            "name": "decimals",
                            "type": "uint8"
                        },
                        {
                            "internalType": "uint256",
                            "name": "index",
                            "type": "uint256"
                        },
                        {
                            "internalType": "uint256",
                            "name": "price",
                            "type": "uint256"
                        },
                        {
                            "internalType": "string",
                            "name": "symbol",
                            "type": "string"
                        },
                        {
                            "internalType": "string",
                            "name": "name",
                            "type": "string"
                        }
                    ],
                    "internalType": "struct KreskoViewer.CollateralAssetInfoUser[]",
                    "name": "result",
                    "type": "tuple[]"
                },
                {
                    "components": [
                        {
                            "internalType": "uint256",
                            "name": "rawValue",
                            "type": "uint256"
                        }
                    ],
                    "internalType": "struct FixedPoint.Unsigned",
                    "name": "totalCollateralUSD",
                    "type": "tuple"
                }
            ],
            "stateMutability": "view",
            "type": "function"
        },
        {
            "inputs": [
                {
                    "internalType": "address[]",
                    "name": "assetAddresses",
                    "type": "address[]"
                }
            ],
            "name": "collateralAssetInfos",
            "outputs": [
                {
                    "components": [
                        {
                            "internalType": "address",
                            "name": "assetAddress",
                            "type": "address"
                        },
                        {
                            "internalType": "address",
                            "name": "oracleAddress",
                            "type": "address"
                        },
                        {
                            "internalType": "address",
                            "name": "underlyingRebasingToken",
                            "type": "address"
                        },
                        {
                            "internalType": "uint256",
                            "name": "price",
                            "type": "uint256"
                        },
                        {
                            "internalType": "uint256",
                            "name": "value",
                            "type": "uint256"
                        },
                        {
                            "components": [
                                {
                                    "internalType": "uint256",
                                    "name": "rawValue",
                                    "type": "uint256"
                                }
                            ],
                            "internalType": "struct FixedPoint.Unsigned",
                            "name": "cFactor",
                            "type": "tuple"
                        },
                        {
                            "internalType": "uint8",
                            "name": "decimals",
                            "type": "uint8"
                        },
                        {
                            "internalType": "string",
                            "name": "symbol",
                            "type": "string"
                        },
                        {
                            "internalType": "string",
                            "name": "name",
                            "type": "string"
                        }
                    ],
                    "internalType": "struct KreskoViewer.CollateralAssetInfo[]",
                    "name": "result",
                    "type": "tuple[]"
                }
            ],
            "stateMutability": "view",
            "type": "function"
        },
        {
            "inputs": [
                {
                    "internalType": "contract IERC20Upgradeable[]",
                    "name": "_tokens",
                    "type": "address[]"
                },
                {
                    "internalType": "address",
                    "name": "owner",
                    "type": "address"
                },
                {
                    "internalType": "address",
                    "name": "spender",
                    "type": "address"
                }
            ],
            "name": "getAllowances",
            "outputs": [
                {
                    "components": [
                        {
                            "internalType": "address",
                            "name": "owner",
                            "type": "address"
                        },
                        {
                            "internalType": "address",
                            "name": "spender",
                            "type": "address"
                        },
                        {
                            "internalType": "uint256",
                            "name": "allowance",
                            "type": "uint256"
                        }
                    ],
                    "internalType": "struct KreskoViewer.Allowance[]",
                    "name": "allowances",
                    "type": "tuple[]"
                }
            ],
            "stateMutability": "view",
            "type": "function"
        },
        {
            "inputs": [
                {
                    "internalType": "address[]",
                    "name": "_collateralAssets",
                    "type": "address[]"
                },
                {
                    "internalType": "address[]",
                    "name": "_krAssets",
                    "type": "address[]"
                }
            ],
            "name": "getAssetInfos",
            "outputs": [
                {
                    "components": [
                        {
                            "internalType": "address",
                            "name": "assetAddress",
                            "type": "address"
                        },
                        {
                            "internalType": "address",
                            "name": "oracleAddress",
                            "type": "address"
                        },
                        {
                            "internalType": "address",
                            "name": "underlyingRebasingToken",
                            "type": "address"
                        },
                        {
                            "internalType": "uint256",
                            "name": "price",
                            "type": "uint256"
                        },
                        {
                            "internalType": "uint256",
                            "name": "value",
                            "type": "uint256"
                        },
                        {
                            "components": [
                                {
                                    "internalType": "uint256",
                                    "name": "rawValue",
                                    "type": "uint256"
                                }
                            ],
                            "internalType": "struct FixedPoint.Unsigned",
                            "name": "cFactor",
                            "type": "tuple"
                        },
                        {
                            "internalType": "uint8",
                            "name": "decimals",
                            "type": "uint8"
                        },
                        {
                            "internalType": "string",
                            "name": "symbol",
                            "type": "string"
                        },
                        {
                            "internalType": "string",
                            "name": "name",
                            "type": "string"
                        }
                    ],
                    "internalType": "struct KreskoViewer.CollateralAssetInfo[]",
                    "name": "collateralAssets",
                    "type": "tuple[]"
                },
                {
                    "components": [
                        {
                            "internalType": "address",
                            "name": "oracleAddress",
                            "type": "address"
                        },
                        {
                            "internalType": "address",
                            "name": "assetAddress",
                            "type": "address"
                        },
                        {
                            "internalType": "uint256",
                            "name": "price",
                            "type": "uint256"
                        },
                        {
                            "internalType": "uint256",
                            "name": "value",
                            "type": "uint256"
                        },
                        {
                            "components": [
                                {
                                    "internalType": "uint256",
                                    "name": "rawValue",
                                    "type": "uint256"
                                }
                            ],
                            "internalType": "struct FixedPoint.Unsigned",
                            "name": "kFactor",
                            "type": "tuple"
                        },
                        {
                            "internalType": "string",
                            "name": "symbol",
                            "type": "string"
                        },
                        {
                            "internalType": "string",
                            "name": "name",
                            "type": "string"
                        }
                    ],
                    "internalType": "struct KreskoViewer.krAssetInfo[]",
                    "name": "krAssets",
                    "type": "tuple[]"
                }
            ],
            "stateMutability": "view",
            "type": "function"
        },
        {
            "inputs": [
                {
                    "internalType": "contract IERC20Upgradeable[]",
                    "name": "_tokens",
                    "type": "address[]"
                },
                {
                    "internalType": "address",
                    "name": "account",
                    "type": "address"
                }
            ],
            "name": "getBalances",
            "outputs": [
                {
                    "components": [
                        {
                            "internalType": "address",
                            "name": "token",
                            "type": "address"
                        },
                        {
                            "internalType": "uint256",
                            "name": "balance",
                            "type": "uint256"
                        }
                    ],
                    "internalType": "struct KreskoViewer.Balance[]",
                    "name": "balances",
                    "type": "tuple[]"
                }
            ],
            "stateMutability": "view",
            "type": "function"
        },
        {
            "inputs": [
                {
                    "internalType": "address",
                    "name": "_account",
                    "type": "address"
                },
                {
                    "internalType": "address",
                    "name": "_asset",
                    "type": "address"
                },
                {
                    "internalType": "contract AggregatorV2V3Interface",
                    "name": "oracle",
                    "type": "address"
                }
            ],
            "name": "getGenericInfo",
            "outputs": [
                {
                    "components": [
                        {
                            "internalType": "address",
                            "name": "assetAddress",
                            "type": "address"
                        },
                        {
                            "components": [
                                {
                                    "internalType": "uint256",
                                    "name": "rawValue",
                                    "type": "uint256"
                                }
                            ],
                            "internalType": "struct FixedPoint.Unsigned",
                            "name": "kFactor",
                            "type": "tuple"
                        },
                        {
                            "components": [
                                {
                                    "internalType": "uint256",
                                    "name": "rawValue",
                                    "type": "uint256"
                                }
                            ],
                            "internalType": "struct FixedPoint.Unsigned",
                            "name": "cFactor",
                            "type": "tuple"
                        },
                        {
                            "internalType": "uint256",
                            "name": "price",
                            "type": "uint256"
                        },
                        {
                            "internalType": "bool",
                            "name": "isKrAsset",
                            "type": "bool"
                        },
                        {
                            "internalType": "bool",
                            "name": "isCollateral",
                            "type": "bool"
                        },
                        {
                            "internalType": "uint256",
                            "name": "debtAmount",
                            "type": "uint256"
                        },
                        {
                            "internalType": "uint256",
                            "name": "depositAmount",
                            "type": "uint256"
                        },
                        {
                            "internalType": "uint256",
                            "name": "walletBalance",
                            "type": "uint256"
                        }
                    ],
                    "internalType": "struct KreskoViewer.GenericInfo",
                    "name": "",
                    "type": "tuple"
                }
            ],
            "stateMutability": "view",
            "type": "function"
        },
        {
            "inputs": [
                {
                    "internalType": "contract IERC20MetadataUpgradeable[]",
                    "name": "_tokens",
                    "type": "address[]"
                }
            ],
            "name": "getTokenMetadatas",
            "outputs": [
                {
                    "components": [
                        {
                            "internalType": "uint8",
                            "name": "decimals",
                            "type": "uint8"
                        },
                        {
                            "internalType": "string",
                            "name": "symbol",
                            "type": "string"
                        },
                        {
                            "internalType": "string",
                            "name": "name",
                            "type": "string"
                        }
                    ],
                    "internalType": "struct KreskoViewer.TokenMetadata[]",
                    "name": "metadatas",
                    "type": "tuple[]"
                }
            ],
            "stateMutability": "view",
            "type": "function"
        },
        {
            "inputs": [
                {
                    "internalType": "address",
                    "name": "_account",
                    "type": "address"
                }
            ],
            "name": "healthFactorFor",
            "outputs": [
                {
                    "components": [
                        {
                            "internalType": "uint256",
                            "name": "rawValue",
                            "type": "uint256"
                        }
                    ],
                    "internalType": "struct FixedPoint.Unsigned",
                    "name": "",
                    "type": "tuple"
                }
            ],
            "stateMutability": "view",
            "type": "function"
        },
        {
            "inputs": [
                {
                    "internalType": "address",
                    "name": "_account",
                    "type": "address"
                }
            ],
            "name": "krAssetInfoFor",
            "outputs": [
                {
                    "components": [
                        {
                            "internalType": "address",
                            "name": "assetAddress",
                            "type": "address"
                        },
                        {
                            "internalType": "address",
                            "name": "oracleAddress",
                            "type": "address"
                        },
                        {
                            "internalType": "uint256",
                            "name": "amount",
                            "type": "uint256"
                        },
                        {
                            "components": [
                                {
                                    "internalType": "uint256",
                                    "name": "rawValue",
                                    "type": "uint256"
                                }
                            ],
                            "internalType": "struct FixedPoint.Unsigned",
                            "name": "amountUSD",
                            "type": "tuple"
                        },
                        {
                            "internalType": "uint256",
                            "name": "index",
                            "type": "uint256"
                        },
                        {
                            "components": [
                                {
                                    "internalType": "uint256",
                                    "name": "rawValue",
                                    "type": "uint256"
                                }
                            ],
                            "internalType": "struct FixedPoint.Unsigned",
                            "name": "kFactor",
                            "type": "tuple"
                        },
                        {
                            "internalType": "bool",
                            "name": "mintable",
                            "type": "bool"
                        },
                        {
                            "internalType": "uint256",
                            "name": "price",
                            "type": "uint256"
                        },
                        {
                            "internalType": "string",
                            "name": "symbol",
                            "type": "string"
                        },
                        {
                            "internalType": "string",
                            "name": "name",
                            "type": "string"
                        }
                    ],
                    "internalType": "struct KreskoViewer.krAssetInfoUser[]",
                    "name": "result",
                    "type": "tuple[]"
                },
                {
                    "components": [
                        {
                            "internalType": "uint256",
                            "name": "rawValue",
                            "type": "uint256"
                        }
                    ],
                    "internalType": "struct FixedPoint.Unsigned",
                    "name": "totalDebtUSD",
                    "type": "tuple"
                }
            ],
            "stateMutability": "view",
            "type": "function"
        },
        {
            "inputs": [
                {
                    "internalType": "address[]",
                    "name": "assetAddresses",
                    "type": "address[]"
                }
            ],
            "name": "krAssetInfos",
            "outputs": [
                {
                    "components": [
                        {
                            "internalType": "address",
                            "name": "oracleAddress",
                            "type": "address"
                        },
                        {
                            "internalType": "address",
                            "name": "assetAddress",
                            "type": "address"
                        },
                        {
                            "internalType": "uint256",
                            "name": "price",
                            "type": "uint256"
                        },
                        {
                            "internalType": "uint256",
                            "name": "value",
                            "type": "uint256"
                        },
                        {
                            "components": [
                                {
                                    "internalType": "uint256",
                                    "name": "rawValue",
                                    "type": "uint256"
                                }
                            ],
                            "internalType": "struct FixedPoint.Unsigned",
                            "name": "kFactor",
                            "type": "tuple"
                        },
                        {
                            "internalType": "string",
                            "name": "symbol",
                            "type": "string"
                        },
                        {
                            "internalType": "string",
                            "name": "name",
                            "type": "string"
                        }
                    ],
                    "internalType": "struct KreskoViewer.krAssetInfo[]",
                    "name": "result",
                    "type": "tuple[]"
                }
            ],
            "stateMutability": "view",
            "type": "function"
        },
        {
            "inputs": [
                {
                    "internalType": "address",
                    "name": "_account",
                    "type": "address"
                }
            ],
            "name": "kreskoUser",
            "outputs": [
                {
                    "components": [
                        {
                            "components": [
                                {
                                    "internalType": "address",
                                    "name": "assetAddress",
                                    "type": "address"
                                },
                                {
                                    "internalType": "address",
                                    "name": "oracleAddress",
                                    "type": "address"
                                },
                                {
                                    "internalType": "uint256",
                                    "name": "amount",
                                    "type": "uint256"
                                },
                                {
                                    "components": [
                                        {
                                            "internalType": "uint256",
                                            "name": "rawValue",
                                            "type": "uint256"
                                        }
                                    ],
                                    "internalType": "struct FixedPoint.Unsigned",
                                    "name": "amountUSD",
                                    "type": "tuple"
                                },
                                {
                                    "internalType": "uint256",
                                    "name": "index",
                                    "type": "uint256"
                                },
                                {
                                    "components": [
                                        {
                                            "internalType": "uint256",
                                            "name": "rawValue",
                                            "type": "uint256"
                                        }
                                    ],
                                    "internalType": "struct FixedPoint.Unsigned",
                                    "name": "kFactor",
                                    "type": "tuple"
                                },
                                {
                                    "internalType": "bool",
                                    "name": "mintable",
                                    "type": "bool"
                                },
                                {
                                    "internalType": "uint256",
                                    "name": "price",
                                    "type": "uint256"
                                },
                                {
                                    "internalType": "string",
                                    "name": "symbol",
                                    "type": "string"
                                },
                                {
                                    "internalType": "string",
                                    "name": "name",
                                    "type": "string"
                                }
                            ],
                            "internalType": "struct KreskoViewer.krAssetInfoUser[]",
                            "name": "krAssets",
                            "type": "tuple[]"
                        },
                        {
                            "components": [
                                {
                                    "internalType": "address",
                                    "name": "assetAddress",
                                    "type": "address"
                                },
                                {
                                    "internalType": "address",
                                    "name": "oracleAddress",
                                    "type": "address"
                                },
                                {
                                    "internalType": "address",
                                    "name": "underlyingRebasingToken",
                                    "type": "address"
                                },
                                {
                                    "internalType": "uint256",
                                    "name": "amount",
                                    "type": "uint256"
                                },
                                {
                                    "components": [
                                        {
                                            "internalType": "uint256",
                                            "name": "rawValue",
                                            "type": "uint256"
                                        }
                                    ],
                                    "internalType": "struct FixedPoint.Unsigned",
                                    "name": "amountUSD",
                                    "type": "tuple"
                                },
                                {
                                    "components": [
                                        {
                                            "internalType": "uint256",
                                            "name": "rawValue",
                                            "type": "uint256"
                                        }
                                    ],
                                    "internalType": "struct FixedPoint.Unsigned",
                                    "name": "cFactor",
                                    "type": "tuple"
                                },
                                {
                                    "internalType": "uint8",
                                    "name": "decimals",
                                    "type": "uint8"
                                },
                                {
                                    "internalType": "uint256",
                                    "name": "index",
                                    "type": "uint256"
                                },
                                {
                                    "internalType": "uint256",
                                    "name": "price",
                                    "type": "uint256"
                                },
                                {
                                    "internalType": "string",
                                    "name": "symbol",
                                    "type": "string"
                                },
                                {
                                    "internalType": "string",
                                    "name": "name",
                                    "type": "string"
                                }
                            ],
                            "internalType": "struct KreskoViewer.CollateralAssetInfoUser[]",
                            "name": "collateralAssets",
                            "type": "tuple[]"
                        },
                        {
                            "components": [
                                {
                                    "internalType": "uint256",
                                    "name": "rawValue",
                                    "type": "uint256"
                                }
                            ],
                            "internalType": "struct FixedPoint.Unsigned",
                            "name": "healthFactor",
                            "type": "tuple"
                        },
                        {
                            "components": [
                                {
                                    "internalType": "uint256",
                                    "name": "rawValue",
                                    "type": "uint256"
                                }
                            ],
                            "internalType": "struct FixedPoint.Unsigned",
                            "name": "debtActualUSD",
                            "type": "tuple"
                        },
                        {
                            "components": [
                                {
                                    "internalType": "uint256",
                                    "name": "rawValue",
                                    "type": "uint256"
                                }
                            ],
                            "internalType": "struct FixedPoint.Unsigned",
                            "name": "debtUSD",
                            "type": "tuple"
                        },
                        {
                            "components": [
                                {
                                    "internalType": "uint256",
                                    "name": "rawValue",
                                    "type": "uint256"
                                }
                            ],
                            "internalType": "struct FixedPoint.Unsigned",
                            "name": "collateralActualUSD",
                            "type": "tuple"
                        },
                        {
                            "components": [
                                {
                                    "internalType": "uint256",
                                    "name": "rawValue",
                                    "type": "uint256"
                                }
                            ],
                            "internalType": "struct FixedPoint.Unsigned",
                            "name": "collateralUSD",
                            "type": "tuple"
                        },
                        {
                            "components": [
                                {
                                    "internalType": "uint256",
                                    "name": "rawValue",
                                    "type": "uint256"
                                }
                            ],
                            "internalType": "struct FixedPoint.Unsigned",
                            "name": "minCollateralUSD",
                            "type": "tuple"
                        },
                        {
                            "components": [
                                {
                                    "internalType": "uint256",
                                    "name": "rawValue",
                                    "type": "uint256"
                                }
                            ],
                            "internalType": "struct FixedPoint.Unsigned",
                            "name": "borrowingPowerUSD",
                            "type": "tuple"
                        }
                    ],
                    "internalType": "struct KreskoViewer.KreskoUser",
                    "name": "user",
                    "type": "tuple"
                }
            ],
            "stateMutability": "view",
            "type": "function"
        }
    ],
    "transactionHash": "0xb9280c2f25ddd6f6b13635620ee6497494b4b834e4d0c58383e8bc718596b4c2",
    "args": [
        "0xDef6865442C28f9D67D5739bC4C88a50443791C6"
    ],
    "numDeployments": 1,
    "solcInputHash": "24395258857c12a49d5533c912a27014",
    "bytecode": "0x60806040523480156200001157600080fd5b50604051620037b1380380620037b183398101604081905262000034916200005a565b600080546001600160a01b0319166001600160a01b03929092169190911790556200008c565b6000602082840312156200006d57600080fd5b81516001600160a01b03811681146200008557600080fd5b9392505050565b613715806200009c6000396000f3fe608060405234801561001057600080fd5b50600436106100ea5760003560e01c8063ac1e25fb1161008c578063be6d74a011610066578063be6d74a01461022f578063d1c070281461024f578063def86ce11461026f578063f79031e81461029057600080fd5b8063ac1e25fb146101dc578063b56274d4146101fc578063b69a98501461020f57600080fd5b80636bb52909116100c85780636bb52909146101585780636e0696d61461017957806378d33ebd1461019a578063983ff615146101ba57600080fd5b806327c5607d146100ef57806358b23fd714610118578063624ba70114610138575b600080fd5b6101026100fd366004612750565b6102bb565b60405161010f91906128c0565b60405180910390f35b61012b6101263660046128d3565b61065d565b60405161010f919061296d565b61014b610146366004612750565b6108a4565b60405161010f9190612ac0565b61016b610166366004612ad3565b610bed565b60405161010f929190612b37565b61018c610187366004612b65565b610c0d565b60405161010f929190612c68565b6101ad6101a8366004612c8b565b6110eb565b60405161010f9190612cd6565b6101cd6101c8366004612b65565b6114c1565b6040519051815260200161010f565b6101ef6101ea366004612dae565b6115ed565b60405161010f9190612e1a565b6101cd61020a366004612b65565b6117e8565b61022261021d366004612eea565b611924565b60405161010f9190612f33565b61024261023d366004612b65565b611a8e565b60405161010f9190613061565b61026261025d36600461310c565b611c90565b60405161010f919061315e565b61028261027d366004612b65565b611df5565b60405161010f9291906131a9565b6000546102a3906001600160a01b031681565b6040516001600160a01b03909116815260200161010f565b6060815167ffffffffffffffff8111156102d7576102d7612659565b60405190808252806020026020018201604052801561031057816020015b6102fd612396565b8152602001906001900390816102f55790505b50905060005b8251811015610657576000838281518110610333576103336131bc565b602090810291909101015160008054604051635390972760e01b81526001600160a01b0380851660048301529394509192169063539097279060240160a060405180830381865afa15801561038c573d6000803e3d6000fd5b505050506040513d601f19601f820116820180604052508101906103b0919061323a565b90506000826001600160a01b031663313ce5676040518163ffffffff1660e01b8152600401602060405180830381865afa1580156103f2573d6000803e3d6000fd5b505050506040513d601f19601f8201168201806040525081019061041691906132cd565b90506000836001600160a01b03166395d89b416040518163ffffffff1660e01b8152600401600060405180830381865afa158015610458573d6000803e3d6000fd5b505050506040513d6000823e601f3d908101601f1916820160405261048091908101906132e8565b600080549192509081906001600160a01b0316633ae000c0876104a487600a61346d565b6104af90600161347c565b6040517fffffffff0000000000000000000000000000000000000000000000000000000060e085901b1681526001600160a01b0390921660048301526024820152600060448201526064016040805180830381865afa158015610516573d6000803e3d6000fd5b505050506040513d601f19601f8201168201806040525081019061053a919061349b565b915091506000866001600160a01b03166306fdde036040518163ffffffff1660e01b8152600401600060405180830381865afa15801561057e573d6000803e3d6000fd5b505050506040513d6000823e601f3d908101601f191682016040526105a691908101906132e8565b90506000604051806101200160405280896001600160a01b0316815260200188602001516001600160a01b0316815260200188604001516001600160a01b031681526020018460000151815260200185600001518152602001886000015181526020018760ff168152602001868152602001838152509050808a8a81518110610631576106316131bc565b60200260200101819052505050505050505050808061064f906134c7565b915050610316565b50919050565b6060815167ffffffffffffffff81111561067957610679612659565b6040519080825280602002602001820160405280156106d157816020015b6106be6040518060600160405280600060ff16815260200160608152602001606081525090565b8152602001906001900390816106975790505b50905060005b82518110156106575760405180606001604052808483815181106106fd576106fd6131bc565b60200260200101516001600160a01b031663313ce5676040518163ffffffff1660e01b8152600401602060405180830381865afa158015610742573d6000803e3d6000fd5b505050506040513d601f19601f8201168201806040525081019061076691906132cd565b60ff168152602001848381518110610780576107806131bc565b60200260200101516001600160a01b03166395d89b416040518163ffffffff1660e01b8152600401600060405180830381865afa1580156107c5573d6000803e3d6000fd5b505050506040513d6000823e601f3d908101601f191682016040526107ed91908101906132e8565b8152602001848381518110610804576108046131bc565b60200260200101516001600160a01b03166306fdde036040518163ffffffff1660e01b8152600401600060405180830381865afa158015610849573d6000803e3d6000fd5b505050506040513d6000823e601f3d908101601f1916820160405261087191908101906132e8565b815250828281518110610886576108866131bc565b6020026020010181905250808061089c906134c7565b9150506106d7565b6060815167ffffffffffffffff8111156108c0576108c0612659565b6040519080825280602002602001820160405280156108f957816020015b6108e661240f565b8152602001906001900390816108de5790505b50905060005b825181101561065757600083828151811061091c5761091c6131bc565b60209081029190910101516000805460405163d7bfcecd60e01b81526001600160a01b0380851660048301529394509192169063d7bfcecd90602401608060405180830381865afa158015610975573d6000803e3d6000fd5b505050506040513d601f19601f8201168201806040525081019061099991906134e2565b60008054604051631a69f54b60e21b81526001600160a01b038681166004830152670de0b6b3a7640000602483015260448201849052939450919216906369a7d52c90606401602060405180830381865afa1580156109fc573d6000803e3d6000fd5b505050506040513d601f19601f82011682018060405250810190610a209190613562565b9050600082602001516001600160a01b03166350d25bcd6040518163ffffffff1660e01b8152600401602060405180830381865afa158015610a66573d6000803e3d6000fd5b505050506040513d601f19601f82011682018060405250810190610a8a919061357e565b90506000846001600160a01b03166306fdde036040518163ffffffff1660e01b8152600401600060405180830381865afa158015610acc573d6000803e3d6000fd5b505050506040513d6000823e601f3d908101601f19168201604052610af491908101906132e8565b90506000856001600160a01b03166395d89b416040518163ffffffff1660e01b8152600401600060405180830381865afa158015610b36573d6000803e3d6000fd5b505050506040513d6000823e601f3d908101601f19168201604052610b5e91908101906132e8565b905060006040518060e0016040528087602001516001600160a01b03168152602001886001600160a01b03168152602001858152602001866000015181526020018760000151815260200183815260200184815250905080898981518110610bc857610bc86131bc565b6020026020010181905250505050505050508080610be5906134c7565b9150506108ff565b606080610bf9846102bb565b9150610c04836108a4565b90509250929050565b6060610c256040518060200160405280600081525090565b6000805460405163369c411560e11b81526001600160a01b03868116600483015290911690636d38822a90602401600060405180830381865afa158015610c70573d6000803e3d6000fd5b505050506040513d6000823e601f3d908101601f19168201604052610c989190810190613597565b8051909150156110e557805167ffffffffffffffff811115610cbc57610cbc612659565b604051908082528060200260200182016040528015610d5757816020015b6040805161016081018252600080825260208083018290528284018290526060808401839052845180830186528381526080850152845191820190945281815260a083015260c0820181905260e082018190526101008201526101208101829052610140810191909152815260200190600190039081610cda5790505b50925060005b81518110156110e3576000828281518110610d7a57610d7a6131bc565b602090810291909101015160008054604051635390972760e01b81526001600160a01b0380851660048301529394509192169063539097279060240160a060405180830381865afa158015610dd3573d6000803e3d6000fd5b505050506040513d601f19601f82011682018060405250810190610df7919061323a565b90506000826001600160a01b031663313ce5676040518163ffffffff1660e01b8152600401602060405180830381865afa158015610e39573d6000803e3d6000fd5b505050506040513d601f19601f82011682018060405250810190610e5d91906132cd565b60008054604051630c65e07b60e01b81526001600160a01b038c81166004830152878116602483015293945091921690630c65e07b90604401602060405180830381865afa158015610eb3573d6000803e3d6000fd5b505050506040513d601f19601f82011682018060405250810190610ed7919061357e565b90506000846001600160a01b03166395d89b416040518163ffffffff1660e01b8152600401600060405180830381865afa158015610f19573d6000803e3d6000fd5b505050506040513d6000823e601f3d908101601f19168201604052610f4191908101906132e8565b6000805460405162eb800360e61b81526001600160a01b038981166004830152602482018790526001604483015293945091928392911690633ae000c0906064016040805180830381865afa158015610f9e573d6000803e3d6000fd5b505050506040513d601f19601f82011682018060405250810190610fc2919061349b565b915091506000876001600160a01b03166306fdde036040518163ffffffff1660e01b8152600401600060405180830381865afa158015611006573d6000803e3d6000fd5b505050506040513d6000823e601f3d908101601f1916820160405261102e91908101906132e8565b60408051610160810182526001600160a01b03808c16825260208b8101518216908301528a83015116918101919091526060810187905260808101859052885160a082015260ff881660c082015260e081018b90528351610100820152610120810186905261014081018290529091506110a88c8561226e565b50808d8b815181106110bc576110bc6131bc565b602002602001018190525050505050505050505080806110db906134c7565b915050610d5d565b505b50915091565b6110f3612472565b60408051610120810182526001600160a01b03858116808352600054935163d7bfcecd60e01b815260048101919091529192602084019291169063d7bfcecd90602401608060405180830381865afa158015611153573d6000803e3d6000fd5b505050506040513d601f19601f8201168201806040525081019061117791906134e2565b518152600054604051635390972760e01b81526001600160a01b0387811660048301526020909301929091169063539097279060240160a060405180830381865afa1580156111ca573d6000803e3d6000fd5b505050506040513d601f19601f820116820180604052508101906111ee919061323a565b600001518152602001836001600160a01b03166350d25bcd6040518163ffffffff1660e01b8152600401602060405180830381865afa158015611235573d6000803e3d6000fd5b505050506040513d601f19601f82011682018060405250810190611259919061357e565b8152600054604051639b177c1960e01b81526001600160a01b03878116600483015260209093019290911690639b177c1990602401602060405180830381865afa1580156112ab573d6000803e3d6000fd5b505050506040513d601f19601f820116820180604052508101906112cf9190613626565b1515815260005460405163a61d1d5160e01b81526001600160a01b0387811660048301526020909301929091169063a61d1d5190602401602060405180830381865afa158015611323573d6000803e3d6000fd5b505050506040513d601f19601f820116820180604052508101906113479190613626565b15158152600054604051630692479b60e31b81526001600160a01b0388811660048301528781166024830152602090930192909116906334923cd890604401602060405180830381865afa1580156113a3573d6000803e3d6000fd5b505050506040513d601f19601f820116820180604052508101906113c7919061357e565b8152600054604051630c65e07b60e01b81526001600160a01b038881166004830152878116602483015260209093019290911690630c65e07b90604401602060405180830381865afa158015611421573d6000803e3d6000fd5b505050506040513d601f19601f82011682018060405250810190611445919061357e565b81526040516370a0823160e01b81526001600160a01b0387811660048301526020909201918616906370a0823190602401602060405180830381865afa158015611493573d6000803e3d6000fd5b505050506040513d601f19601f820116820180604052508101906114b7919061357e565b9052949350505050565b60408051602081019091526000815260008054604051633fa1c54560e21b81526001600160a01b0385811660048301529091169063fe87151490602401602060405180830381865afa15801561151b573d6000803e3d6000fd5b505050506040513d601f19601f8201168201806040525081019061153f9190613562565b600080546040516307d1a44560e41b81526001600160a01b03878116600483015293945091921690637d1a445090602401602060405180830381865afa15801561158d573d6000803e3d6000fd5b505050506040513d601f19601f820116820180604052508101906115b19190613562565b90506115bf81835190511090565b156115db57505060408051602081019091526000815292915050565b6115e581836122a3565b949350505050565b60608382146116425760405162461bcd60e51b815260206004820152601360248201527f5175657279206d75737420626520657175616c00000000000000000000000000604482015260640160405180910390fd5b8367ffffffffffffffff81111561165b5761165b612659565b6040519080825280602002602001820160405280156116ad57816020015b6040805160808101825260008082526020808301829052928201819052606082015282526000199092019101816116795790505b50905060005b848110156117df5760008060008686858181106116d2576116d26131bc565b90506020020160208101906116e79190612b65565b6001600160a01b031663feaf968c6040518163ffffffff1660e01b815260040160a060405180830381865afa158015611724573d6000803e3d6000fd5b505050506040513d601f19601f82011682018060405250810190611748919061365b565b509350509250925060405180608001604052808381526020018281526020018a8a87818110611779576117796131bc565b905060200201602081019061178e9190612b65565b6001600160a01b031681526020018469ffffffffffffffffffff168152508585815181106117be576117be6131bc565b602002602001018190525050505080806117d7906134c7565b9150506116b3565b50949350505050565b604080516020810190915260008152600080546040517fff1389c50000000000000000000000000000000000000000000000000000000081526001600160a01b0385811660048301529091169063ff1389c590602401602060405180830381865afa15801561185b573d6000803e3d6000fd5b505050506040513d601f19601f8201168201806040525081019061187f9190613562565b600080546040516307d1a44560e41b81526001600160a01b03878116600483015293945091921690637d1a445090602401602060405180830381865afa1580156118cd573d6000803e3d6000fd5b505050506040513d601f19601f820116820180604052508101906118f19190613562565b90506118fe8260006122cd565b1561190d576115e581836122e4565b505060408051602081019091526000815292915050565b6060835167ffffffffffffffff81111561194057611940612659565b60405190808252806020026020018201604052801561198b57816020015b604080516060810182526000808252602080830182905292820152825260001990920191018161195e5790505b50905060005b8451811015611a86576040518060600160405280856001600160a01b03168152602001846001600160a01b031681526020018683815181106119d5576119d56131bc565b6020908102919091010151604051636eb1769f60e11b81526001600160a01b03888116600483015287811660248301529091169063dd62ed3e90604401602060405180830381865afa158015611a2f573d6000803e3d6000fd5b505050506040513d601f19601f82011682018060405250810190611a53919061357e565b815250828281518110611a6857611a686131bc565b60200260200101819052508080611a7e906134c7565b915050611991565b509392505050565b611a966124f3565b600080611aa284611df5565b91509150600080611ab286610c0d565b91509150600084511180611ac7575060008251115b15611c8757604051806101200160405280858152602001838152602001611aed886117e8565b815260208101859052600054604080517fff1389c50000000000000000000000000000000000000000000000000000000081526001600160a01b038b81166004830152919093019291169063ff1389c590602401602060405180830381865afa158015611b5e573d6000803e3d6000fd5b505050506040513d601f19601f82011682018060405250810190611b829190613562565b815260208101839052600054604080516307d1a44560e41b81526001600160a01b038b811660048301529190930192911690637d1a445090602401602060405180830381865afa158015611bda573d6000803e3d6000fd5b505050506040513d601f19601f82011682018060405250810190611bfe9190613562565b8152600054604051633fa1c54560e21b81526001600160a01b038a811660048301526020909301929091169063fe87151490602401602060405180830381865afa158015611c50573d6000803e3d6000fd5b505050506040513d601f19601f82011682018060405250810190611c749190613562565b8152602001611c82886114c1565b905294505b50505050919050565b6060825167ffffffffffffffff811115611cac57611cac612659565b604051908082528060200260200182016040528015611cf157816020015b6040805180820190915260008082526020820152815260200190600190039081611cca5790505b50905060005b8351811015611dee576040518060400160405280858381518110611d1d57611d1d6131bc565b60200260200101516001600160a01b03168152602001858381518110611d4557611d456131bc565b60209081029190910101516040516370a0823160e01b81526001600160a01b038781166004830152909116906370a0823190602401602060405180830381865afa158015611d97573d6000803e3d6000fd5b505050506040513d601f19601f82011682018060405250810190611dbb919061357e565b815250828281518110611dd057611dd06131bc565b60200260200101819052508080611de6906134c7565b915050611cf7565b5092915050565b6060611e0d6040518060200160405280600081525090565b600080546040516377d4074360e11b81526001600160a01b0386811660048301529091169063efa80e8690602401600060405180830381865afa158015611e58573d6000803e3d6000fd5b505050506040513d6000823e601f3d908101601f19168201604052611e809190810190613597565b8051909150156110e557805167ffffffffffffffff811115611ea457611ea4612659565b604051908082528060200260200182016040528015611edd57816020015b611eca6125ca565b815260200190600190039081611ec25790505b50925060005b81518110156110e3576000828281518110611f0057611f006131bc565b60209081029190910101516000805460405163d7bfcecd60e01b81526001600160a01b0380851660048301529394509192169063d7bfcecd90602401608060405180830381865afa158015611f59573d6000803e3d6000fd5b505050506040513d601f19601f82011682018060405250810190611f7d91906134e2565b60008054604051630692479b60e31b81526001600160a01b038b811660048301528681166024830152939450919216906334923cd890604401602060405180830381865afa158015611fd3573d6000803e3d6000fd5b505050506040513d601f19601f82011682018060405250810190611ff7919061357e565b9050600082602001516001600160a01b03166350d25bcd6040518163ffffffff1660e01b8152600401602060405180830381865afa15801561203d573d6000803e3d6000fd5b505050506040513d601f19601f82011682018060405250810190612061919061357e565b60008054604051631a69f54b60e21b81526001600160a01b0388811660048301526024820187905260016044830152939450919216906369a7d52c90606401602060405180830381865afa1580156120bd573d6000803e3d6000fd5b505050506040513d601f19601f820116820180604052508101906120e19190613562565b90506000856001600160a01b03166395d89b416040518163ffffffff1660e01b8152600401600060405180830381865afa158015612123573d6000803e3d6000fd5b505050506040513d6000823e601f3d908101601f1916820160405261214b91908101906132e8565b90506000866001600160a01b03166306fdde036040518163ffffffff1660e01b8152600401600060405180830381865afa15801561218d573d6000803e3d6000fd5b505050506040513d6000823e601f3d908101601f191682016040526121b591908101906132e8565b90506000604051806101400160405280896001600160a01b0316815260200188602001516001600160a01b031681526020018781526020018581526020018a815260200188600001518152602001886060015115158152602001868152602001848152602001838152509050612234848c61226e90919063ffffffff16565b50808c8a81518110612248576122486131bc565b602002602001018190525050505050505050508080612266906134c7565b915050611ee3565b60408051602081019091526000815260408051602081019091528251845182916122989190612325565b905290505b92915050565b60408051602081019091526000815260408051602081019091528251845182916122989190612338565b60006122d882612344565b51835111905092915050565b6040805160208101909152600081526040518060200160405280612298846000015161231f6012600a61231791906136ab565b88519061237e565b9061238a565b600061233182846136b7565b9392505050565b600061233182846136cf565b60408051602081019091526000815260405180602001604052806123766012600a61236f91906136ab565b859061237e565b905292915050565b6000612331828461347c565b600061233182846136e6565b60405180610120016040528060006001600160a01b0316815260200160006001600160a01b0316815260200160006001600160a01b0316815260200160008152602001600081526020016123f66040518060200160405280600081525090565b8152600060208201526060604082018190529081015290565b6040518060e0016040528060006001600160a01b0316815260200160006001600160a01b03168152602001600081526020016000815260200161245e6040518060200160405280600081525090565b815260200160608152602001606081525090565b60405180610120016040528060006001600160a01b031681526020016124a46040518060200160405280600081525090565b81526020016124bf6040518060200160405280600081525090565b8152602001600081526020016000151581526020016000151581526020016000815260200160008152602001600081525090565b60405180610120016040528060608152602001606081526020016125236040518060200160405280600081525090565b815260200161253e6040518060200160405280600081525090565b81526020016125596040518060200160405280600081525090565b81526020016125746040518060200160405280600081525090565b815260200161258f6040518060200160405280600081525090565b81526020016125aa6040518060200160405280600081525090565b81526020016125c56040518060200160405280600081525090565b905290565b60405180610140016040528060006001600160a01b0316815260200160006001600160a01b03168152602001600081526020016126136040518060200160405280600081525090565b8152602001600081526020016126356040518060200160405280600081525090565b81526020016000151581526020016000815260200160608152602001606081525090565b634e487b7160e01b600052604160045260246000fd5b604051601f8201601f1916810167ffffffffffffffff8111828210171561269857612698612659565b604052919050565b600067ffffffffffffffff8211156126ba576126ba612659565b5060051b60200190565b6001600160a01b03811681146126d957600080fd5b50565b600082601f8301126126ed57600080fd5b813560206127026126fd836126a0565b61266f565b82815260059290921b8401810191818101908684111561272157600080fd5b8286015b84811015612745578035612738816126c4565b8352918301918301612725565b509695505050505050565b60006020828403121561276257600080fd5b813567ffffffffffffffff81111561277957600080fd5b6115e5848285016126dc565b60005b838110156127a0578181015183820152602001612788565b838111156127af576000848401525b50505050565b600081518084526127cd816020860160208601612785565b601f01601f19169290920160200192915050565b600082825180855260208086019550808260051b84010181860160005b848110156128b357601f19868403018952815180516001600160a01b0390811685528582015181168686015260408083015190911690850152606080820151908501526080808201519085015260a080820151519085015260c08082015160ff169085015260e0808201516101208287018190529190612880838801826127b5565b92505050610100808301519250858203818701525061289f81836127b5565b9a86019a94505050908301906001016127fe565b5090979650505050505050565b60208152600061233160208301846127e1565b600060208083850312156128e657600080fd5b823567ffffffffffffffff8111156128fd57600080fd5b8301601f8101851361290e57600080fd5b803561291c6126fd826126a0565b81815260059190911b8201830190838101908783111561293b57600080fd5b928401925b82841015612962578335612953816126c4565b82529284019290840190612940565b979650505050505050565b60006020808301818452808551808352604092508286019150828160051b87010184880160005b838110156129f357603f198984030185528151606060ff825116855288820151818a8701526129c5828701826127b5565b915050878201519150848103888601526129df81836127b5565b968901969450505090860190600101612994565b509098975050505050505050565b600081518084526020808501808196508360051b8101915082860160005b85811015612ab3578284038952815180516001600160a01b0390811686528682015116868601526040808201519086015260608082015190860152608080820151519086015260a08082015160e08288018190529190612a81838901826127b5565b9250505060c08083015192508682038188015250612a9f81836127b5565b9a87019a9550505090840190600101612a1f565b5091979650505050505050565b6020815260006123316020830184612a01565b60008060408385031215612ae657600080fd5b823567ffffffffffffffff80821115612afe57600080fd5b612b0a868387016126dc565b93506020850135915080821115612b2057600080fd5b50612b2d858286016126dc565b9150509250929050565b604081526000612b4a60408301856127e1565b8281036020840152612b5c8185612a01565b95945050505050565b600060208284031215612b7757600080fd5b8135612331816126c4565b600081518084526020808501808196508360051b8101915082860160005b85811015612ab3578284038952815180516001600160a01b039081168652868201518116878701526040808301519091169086015260608082015190860152608080820151519086015260a080820151519086015260c08082015160ff169086015260e080820151908601526101008082015190860152610120808201516101608288018190529190612c35838901826127b5565b925050506101408083015192508682038188015250612c5481836127b5565b9a87019a9550505090840190600101612ba0565b604081526000612c7b6040830185612b82565b9050825160208301529392505050565b600080600060608486031215612ca057600080fd5b8335612cab816126c4565b92506020840135612cbb816126c4565b91506040840135612ccb816126c4565b809150509250925092565b6000610120820190506001600160a01b03835116825260208301515160208301526040830151612d096040840182519052565b50606083015160608301526080830151612d27608084018215159052565b5060a0830151612d3b60a084018215159052565b5060c083015160c083015260e083015160e083015261010080840151818401525092915050565b60008083601f840112612d7457600080fd5b50813567ffffffffffffffff811115612d8c57600080fd5b6020830191508360208260051b8501011115612da757600080fd5b9250929050565b60008060008060408587031215612dc457600080fd5b843567ffffffffffffffff80821115612ddc57600080fd5b612de888838901612d62565b90965094506020870135915080821115612e0157600080fd5b50612e0e87828801612d62565b95989497509550505050565b602080825282518282018190526000919060409081850190868401855b82811015612ab3578151805185528681015187860152858101516001600160a01b03168686015260609081015169ffffffffffffffffffff169085015260809093019290850190600101612e37565b600082601f830112612e9757600080fd5b81356020612ea76126fd836126a0565b82815260059290921b84018101918181019086841115612ec657600080fd5b8286015b84811015612745578035612edd816126c4565b8352918301918301612eca565b600080600060608486031215612eff57600080fd5b833567ffffffffffffffff811115612f1657600080fd5b612f2286828701612e86565b9350506020840135612cbb816126c4565b602080825282518282018190526000919060409081850190868401855b82811015612ab357815180516001600160a01b0390811686528782015116878601528501518585015260609093019290850190600101612f50565b600081518084526020808501808196508360051b8101915082860160005b85811015612ab3578284038952815180516001600160a01b0390811686528682015116868601526040808201519086015260608082015151908601526080808201519086015260a080820151519086015260c08082015115159086015260e0808201519086015261010080820151610140828801819052919061302e838901826127b5565b92505050610120808301519250868203818801525061304d81836127b5565b9a87019a9550505090840190600101612fa9565b6020815260008251610120806020850152613080610140850183612f8b565b91506020850151601f1985840301604086015261309d8382612b82565b92505060408501516130b26060860182519052565b50606085015180516080860152506080850151805160a08601525060a0850151805160c08601525060c0850151805160e08601525060e08501516101006130fb81870183519052565b909501515193019290925250919050565b6000806040838503121561311f57600080fd5b823567ffffffffffffffff81111561313657600080fd5b61314285828601612e86565b9250506020830135613153816126c4565b809150509250929050565b602080825282518282018190526000919060409081850190868401855b82811015612ab357815180516001600160a01b0316855286015186850152928401929085019060010161317b565b604081526000612c7b6040830185612f8b565b634e487b7160e01b600052603260045260246000fd5b6000602082840312156131e457600080fd5b6040516020810181811067ffffffffffffffff8211171561320757613207612659565b6040529151825250919050565b805160ff8116811461322557600080fd5b919050565b8051801515811461322557600080fd5b600060a0828403121561324c57600080fd5b60405160a0810181811067ffffffffffffffff8211171561326f5761326f612659565b60405261327c84846131d2565b8152602083015161328c816126c4565b6020820152604083015161329f816126c4565b60408201526132b060608401613214565b60608201526132c16080840161322a565b60808201529392505050565b6000602082840312156132df57600080fd5b61233182613214565b6000602082840312156132fa57600080fd5b815167ffffffffffffffff8082111561331257600080fd5b818401915084601f83011261332657600080fd5b81518181111561333857613338612659565b61334b601f8201601f191660200161266f565b915080825285602082850101111561336257600080fd5b6117df816020840160208601612785565b634e487b7160e01b600052601160045260246000fd5b600181815b808511156133c45781600019048211156133aa576133aa613373565b808516156133b757918102915b93841c939080029061338e565b509250929050565b6000826133db5750600161229d565b816133e85750600061229d565b81600181146133fe576002811461340857613424565b600191505061229d565b60ff84111561341957613419613373565b50506001821b61229d565b5060208310610133831016604e8410600b8410161715613447575081810a61229d565b6134518383613389565b806000190482111561346557613465613373565b029392505050565b600061233160ff8416836133cc565b600081600019048311821515161561349657613496613373565b500290565b600080604083850312156134ae57600080fd5b6134b884846131d2565b9150610c0484602085016131d2565b60006000198214156134db576134db613373565b5060010190565b6000608082840312156134f457600080fd5b6040516080810181811067ffffffffffffffff8211171561351757613517612659565b60405261352484846131d2565b81526020830151613534816126c4565b60208201526135456040840161322a565b60408201526135566060840161322a565b60608201529392505050565b60006020828403121561357457600080fd5b61233183836131d2565b60006020828403121561359057600080fd5b5051919050565b600060208083850312156135aa57600080fd5b825167ffffffffffffffff8111156135c157600080fd5b8301601f810185136135d257600080fd5b80516135e06126fd826126a0565b81815260059190911b820183019083810190878311156135ff57600080fd5b928401925b82841015612962578351613617816126c4565b82529284019290840190613604565b60006020828403121561363857600080fd5b6123318261322a565b805169ffffffffffffffffffff8116811461322557600080fd5b600080600080600060a0868803121561367357600080fd5b61367c86613641565b945060208601519350604086015192506060860151915061369f60808701613641565b90509295509295909350565b600061233183836133cc565b600082198211156136ca576136ca613373565b500190565b6000828210156136e1576136e1613373565b500390565b60008261370357634e487b7160e01b600052601260045260246000fd5b50049056fea164736f6c634300080a000a",
    "devdoc": {
        "kind": "dev",
        "methods": {},
        "version": 1
    },
    "userdoc": {
        "kind": "user",
        "methods": {},
        "version": 1
    },
    "storageLayout": {
        "storage": [
            {
                "astId": 20494,
                "contract": "src/contracts/KreskoViewer.sol:KreskoViewer",
                "label": "Kresko",
                "offset": 0,
                "slot": "0",
                "type": "t_contract(IKresko)23204"
            }
        ],
        "types": {
            "t_contract(IKresko)23204": {
                "encoding": "inplace",
                "label": "contract IKresko",
                "numberOfBytes": "20"
            }
        }
    }
}