{
    "address": "0x2a8d64Ecab927Bf97576425977a9599daEb6Ef67",
    "abi": [
        {
            "anonymous": false,
            "inputs": [
                {
                    "indexed": true,
                    "internalType": "address",
                    "name": "user",
                    "type": "address"
                },
                {
                    "indexed": true,
                    "internalType": "address",
                    "name": "rewardToken",
                    "type": "address"
                },
                {
                    "indexed": false,
                    "internalType": "uint256",
                    "name": "amount",
                    "type": "uint256"
                }
            ],
            "name": "ClaimRewards",
            "type": "event"
        },
        {
            "anonymous": false,
            "inputs": [
                {
                    "indexed": true,
                    "internalType": "address",
                    "name": "user",
                    "type": "address"
                },
                {
                    "indexed": true,
                    "internalType": "uint256",
                    "name": "pid",
                    "type": "uint256"
                },
                {
                    "indexed": false,
                    "internalType": "uint256",
                    "name": "amount",
                    "type": "uint256"
                }
            ],
            "name": "Deposit",
            "type": "event"
        },
        {
            "anonymous": false,
            "inputs": [
                {
                    "indexed": true,
                    "internalType": "address",
                    "name": "user",
                    "type": "address"
                },
                {
                    "indexed": true,
                    "internalType": "uint256",
                    "name": "pid",
                    "type": "uint256"
                },
                {
                    "indexed": false,
                    "internalType": "uint256",
                    "name": "amount",
                    "type": "uint256"
                }
            ],
            "name": "EmergencyWithdraw",
            "type": "event"
        },
        {
            "anonymous": false,
            "inputs": [
                {
                    "indexed": true,
                    "internalType": "bytes32",
                    "name": "role",
                    "type": "bytes32"
                },
                {
                    "indexed": true,
                    "internalType": "bytes32",
                    "name": "previousAdminRole",
                    "type": "bytes32"
                },
                {
                    "indexed": true,
                    "internalType": "bytes32",
                    "name": "newAdminRole",
                    "type": "bytes32"
                }
            ],
            "name": "RoleAdminChanged",
            "type": "event"
        },
        {
            "anonymous": false,
            "inputs": [
                {
                    "indexed": true,
                    "internalType": "bytes32",
                    "name": "role",
                    "type": "bytes32"
                },
                {
                    "indexed": true,
                    "internalType": "address",
                    "name": "account",
                    "type": "address"
                },
                {
                    "indexed": true,
                    "internalType": "address",
                    "name": "sender",
                    "type": "address"
                }
            ],
            "name": "RoleGranted",
            "type": "event"
        },
        {
            "anonymous": false,
            "inputs": [
                {
                    "indexed": true,
                    "internalType": "bytes32",
                    "name": "role",
                    "type": "bytes32"
                },
                {
                    "indexed": true,
                    "internalType": "address",
                    "name": "account",
                    "type": "address"
                },
                {
                    "indexed": true,
                    "internalType": "address",
                    "name": "sender",
                    "type": "address"
                }
            ],
            "name": "RoleRevoked",
            "type": "event"
        },
        {
            "anonymous": false,
            "inputs": [
                {
                    "indexed": true,
                    "internalType": "address",
                    "name": "user",
                    "type": "address"
                },
                {
                    "indexed": true,
                    "internalType": "uint256",
                    "name": "pid",
                    "type": "uint256"
                },
                {
                    "indexed": false,
                    "internalType": "uint256",
                    "name": "amount",
                    "type": "uint256"
                }
            ],
            "name": "Withdraw",
            "type": "event"
        },
        {
            "inputs": [],
            "name": "DEFAULT_ADMIN_ROLE",
            "outputs": [
                {
                    "internalType": "bytes32",
                    "name": "",
                    "type": "bytes32"
                }
            ],
            "stateMutability": "view",
            "type": "function"
        },
        {
            "inputs": [],
            "name": "OPERATOR_ROLE",
            "outputs": [
                {
                    "internalType": "bytes32",
                    "name": "",
                    "type": "bytes32"
                }
            ],
            "stateMutability": "view",
            "type": "function"
        },
        {
            "inputs": [
                {
                    "internalType": "address[]",
                    "name": "_rewardTokens",
                    "type": "address[]"
                },
                {
                    "internalType": "contract IERC20",
                    "name": "_depositToken",
                    "type": "address"
                },
                {
                    "internalType": "uint128",
                    "name": "_allocPoint",
                    "type": "uint128"
                }
            ],
            "name": "addPool",
            "outputs": [],
            "stateMutability": "payable",
            "type": "function"
        },
        {
            "inputs": [
                {
                    "internalType": "address",
                    "name": "_user",
                    "type": "address"
                }
            ],
            "name": "allPendingRewards",
            "outputs": [
                {
                    "components": [
                        {
                            "internalType": "uint256",
                            "name": "pid",
                            "type": "uint256"
                        },
                        {
                            "internalType": "address[]",
                            "name": "tokens",
                            "type": "address[]"
                        },
                        {
                            "internalType": "uint256[]",
                            "name": "amounts",
                            "type": "uint256[]"
                        }
                    ],
                    "internalType": "struct KrStaking.Reward[]",
                    "name": "allRewards",
                    "type": "tuple[]"
                }
            ],
            "stateMutability": "view",
            "type": "function"
        },
        {
            "inputs": [
                {
                    "internalType": "address",
                    "name": "_to",
                    "type": "address"
                },
                {
                    "internalType": "uint256",
                    "name": "_pid",
                    "type": "uint256"
                },
                {
                    "internalType": "uint256",
                    "name": "_amount",
                    "type": "uint256"
                }
            ],
            "name": "deposit",
            "outputs": [],
            "stateMutability": "payable",
            "type": "function"
        },
        {
            "inputs": [
                {
                    "internalType": "uint256",
                    "name": "_pid",
                    "type": "uint256"
                }
            ],
            "name": "emergencyWithdraw",
            "outputs": [],
            "stateMutability": "payable",
            "type": "function"
        },
        {
            "inputs": [
                {
                    "internalType": "uint256",
                    "name": "_pid",
                    "type": "uint256"
                }
            ],
            "name": "getDepositAmount",
            "outputs": [
                {
                    "internalType": "uint256",
                    "name": "",
                    "type": "uint256"
                }
            ],
            "stateMutability": "view",
            "type": "function"
        },
        {
            "inputs": [
                {
                    "internalType": "address",
                    "name": "_token",
                    "type": "address"
                }
            ],
            "name": "getPidFor",
            "outputs": [
                {
                    "internalType": "uint256",
                    "name": "pid",
                    "type": "uint256"
                },
                {
                    "internalType": "bool",
                    "name": "found",
                    "type": "bool"
                }
            ],
            "stateMutability": "view",
            "type": "function"
        },
        {
            "inputs": [
                {
                    "internalType": "bytes32",
                    "name": "role",
                    "type": "bytes32"
                }
            ],
            "name": "getRoleAdmin",
            "outputs": [
                {
                    "internalType": "bytes32",
                    "name": "",
                    "type": "bytes32"
                }
            ],
            "stateMutability": "view",
            "type": "function"
        },
        {
            "inputs": [
                {
                    "internalType": "bytes32",
                    "name": "role",
                    "type": "bytes32"
                },
                {
                    "internalType": "address",
                    "name": "account",
                    "type": "address"
                }
            ],
            "name": "grantRole",
            "outputs": [],
            "stateMutability": "nonpayable",
            "type": "function"
        },
        {
            "inputs": [
                {
                    "internalType": "bytes32",
                    "name": "role",
                    "type": "bytes32"
                },
                {
                    "internalType": "address",
                    "name": "account",
                    "type": "address"
                }
            ],
            "name": "hasRole",
            "outputs": [
                {
                    "internalType": "bool",
                    "name": "",
                    "type": "bool"
                }
            ],
            "stateMutability": "view",
            "type": "function"
        },
        {
            "inputs": [
                {
                    "internalType": "address[]",
                    "name": "_rewardTokens",
                    "type": "address[]"
                },
                {
                    "internalType": "uint256[]",
                    "name": "_rewardPerBlocks",
                    "type": "uint256[]"
                },
                {
                    "internalType": "contract IERC20",
                    "name": "_depositToken",
                    "type": "address"
                },
                {
                    "internalType": "uint128",
                    "name": "_allocPoint",
                    "type": "uint128"
                }
            ],
            "name": "initialize",
            "outputs": [],
            "stateMutability": "nonpayable",
            "type": "function"
        },
        {
            "inputs": [],
            "name": "massUpdatePools",
            "outputs": [],
            "stateMutability": "payable",
            "type": "function"
        },
        {
            "inputs": [
                {
                    "internalType": "uint256",
                    "name": "_pid",
                    "type": "uint256"
                },
                {
                    "internalType": "address",
                    "name": "_user",
                    "type": "address"
                }
            ],
            "name": "pendingRewards",
            "outputs": [
                {
                    "components": [
                        {
                            "internalType": "uint256",
                            "name": "pid",
                            "type": "uint256"
                        },
                        {
                            "internalType": "address[]",
                            "name": "tokens",
                            "type": "address[]"
                        },
                        {
                            "internalType": "uint256[]",
                            "name": "amounts",
                            "type": "uint256[]"
                        }
                    ],
                    "internalType": "struct KrStaking.Reward",
                    "name": "rewards",
                    "type": "tuple"
                }
            ],
            "stateMutability": "view",
            "type": "function"
        },
        {
            "inputs": [
                {
                    "internalType": "uint256",
                    "name": "",
                    "type": "uint256"
                }
            ],
            "name": "poolInfo",
            "outputs": [
                {
                    "internalType": "contract IERC20",
                    "name": "depositToken",
                    "type": "address"
                },
                {
                    "internalType": "uint128",
                    "name": "allocPoint",
                    "type": "uint128"
                },
                {
                    "internalType": "uint128",
                    "name": "lastRewardBlock",
                    "type": "uint128"
                }
            ],
            "stateMutability": "view",
            "type": "function"
        },
        {
            "inputs": [],
            "name": "poolLength",
            "outputs": [
                {
                    "internalType": "uint256",
                    "name": "",
                    "type": "uint256"
                }
            ],
            "stateMutability": "view",
            "type": "function"
        },
        {
            "inputs": [
                {
                    "internalType": "bytes32",
                    "name": "role",
                    "type": "bytes32"
                },
                {
                    "internalType": "address",
                    "name": "account",
                    "type": "address"
                }
            ],
            "name": "renounceRole",
            "outputs": [],
            "stateMutability": "nonpayable",
            "type": "function"
        },
        {
            "inputs": [],
            "name": "rescueNative",
            "outputs": [],
            "stateMutability": "payable",
            "type": "function"
        },
        {
            "inputs": [
                {
                    "internalType": "contract IERC20",
                    "name": "_tokenToRescue",
                    "type": "address"
                },
                {
                    "internalType": "uint256",
                    "name": "_amount",
                    "type": "uint256"
                }
            ],
            "name": "rescueNonPoolToken",
            "outputs": [],
            "stateMutability": "payable",
            "type": "function"
        },
        {
            "inputs": [
                {
                    "internalType": "bytes32",
                    "name": "role",
                    "type": "bytes32"
                },
                {
                    "internalType": "address",
                    "name": "account",
                    "type": "address"
                }
            ],
            "name": "revokeRole",
            "outputs": [],
            "stateMutability": "nonpayable",
            "type": "function"
        },
        {
            "inputs": [
                {
                    "internalType": "address",
                    "name": "",
                    "type": "address"
                }
            ],
            "name": "rewardPerBlockFor",
            "outputs": [
                {
                    "internalType": "uint256",
                    "name": "",
                    "type": "uint256"
                }
            ],
            "stateMutability": "view",
            "type": "function"
        },
        {
            "inputs": [
                {
                    "internalType": "uint256",
                    "name": "_pid",
                    "type": "uint256"
                },
                {
                    "internalType": "uint128",
                    "name": "_newAllocPoint",
                    "type": "uint128"
                },
                {
                    "internalType": "address[]",
                    "name": "_rewardTokens",
                    "type": "address[]"
                }
            ],
            "name": "setPool",
            "outputs": [],
            "stateMutability": "payable",
            "type": "function"
        },
        {
            "inputs": [
                {
                    "internalType": "address",
                    "name": "_rewardToken",
                    "type": "address"
                },
                {
                    "internalType": "uint256",
                    "name": "_rewardPerBlock",
                    "type": "uint256"
                }
            ],
            "name": "setRewardPerBlockFor",
            "outputs": [],
            "stateMutability": "payable",
            "type": "function"
        },
        {
            "inputs": [],
            "name": "startBlock",
            "outputs": [
                {
                    "internalType": "uint128",
                    "name": "",
                    "type": "uint128"
                }
            ],
            "stateMutability": "view",
            "type": "function"
        },
        {
            "inputs": [
                {
                    "internalType": "bytes4",
                    "name": "interfaceId",
                    "type": "bytes4"
                }
            ],
            "name": "supportsInterface",
            "outputs": [
                {
                    "internalType": "bool",
                    "name": "",
                    "type": "bool"
                }
            ],
            "stateMutability": "view",
            "type": "function"
        },
        {
            "inputs": [],
            "name": "totalAllocPoint",
            "outputs": [
                {
                    "internalType": "uint128",
                    "name": "",
                    "type": "uint128"
                }
            ],
            "stateMutability": "view",
            "type": "function"
        },
        {
            "inputs": [
                {
                    "internalType": "uint256",
                    "name": "_pid",
                    "type": "uint256"
                }
            ],
            "name": "updatePool",
            "outputs": [
                {
                    "components": [
                        {
                            "internalType": "contract IERC20",
                            "name": "depositToken",
                            "type": "address"
                        },
                        {
                            "internalType": "uint128",
                            "name": "allocPoint",
                            "type": "uint128"
                        },
                        {
                            "internalType": "uint128",
                            "name": "lastRewardBlock",
                            "type": "uint128"
                        },
                        {
                            "internalType": "uint256[]",
                            "name": "accRewardPerShares",
                            "type": "uint256[]"
                        },
                        {
                            "internalType": "address[]",
                            "name": "rewardTokens",
                            "type": "address[]"
                        }
                    ],
                    "internalType": "struct KrStaking.PoolInfo",
                    "name": "pool",
                    "type": "tuple"
                }
            ],
            "stateMutability": "payable",
            "type": "function"
        },
        {
            "inputs": [
                {
                    "internalType": "uint256",
                    "name": "",
                    "type": "uint256"
                },
                {
                    "internalType": "address",
                    "name": "",
                    "type": "address"
                }
            ],
            "name": "userInfo",
            "outputs": [
                {
                    "internalType": "uint256",
                    "name": "amount",
                    "type": "uint256"
                }
            ],
            "stateMutability": "view",
            "type": "function"
        },
        {
            "inputs": [
                {
                    "internalType": "uint256",
                    "name": "_pid",
                    "type": "uint256"
                },
                {
                    "internalType": "uint256",
                    "name": "_amount",
                    "type": "uint256"
                },
                {
                    "internalType": "bool",
                    "name": "_claimRewards",
                    "type": "bool"
                },
                {
                    "internalType": "address",
                    "name": "_claimRewardsTo",
                    "type": "address"
                }
            ],
            "name": "withdraw",
            "outputs": [],
            "stateMutability": "payable",
            "type": "function"
        },
        {
            "inputs": [
                {
                    "internalType": "address",
                    "name": "_for",
                    "type": "address"
                },
                {
                    "internalType": "uint256",
                    "name": "_pid",
                    "type": "uint256"
                },
                {
                    "internalType": "uint256",
                    "name": "_amount",
                    "type": "uint256"
                },
                {
                    "internalType": "bool",
                    "name": "_claimRewards",
                    "type": "bool"
                },
                {
                    "internalType": "address",
                    "name": "_claimRewardsTo",
                    "type": "address"
                }
            ],
            "name": "withdrawFor",
            "outputs": [],
            "stateMutability": "payable",
            "type": "function"
        }
    ],
    "transactionHash": "0x2f976d8e4f39856ebd87c6d4dd13ebd0baef29e18d2a405184ccbcafe401994c",
    "args": [],
    "numDeployments": 1,
    "solcInputHash": "a9f1b3a4e3cec5267ddbd5b2f6a6d195",
    "bytecode": "0x608060405234801561001057600080fd5b50613289806100206000396000f3fe6080604052600436106101cd5760003560e01c80635312ea8e116100f75780639d5b382011610095578063d547741f11610064578063d547741f1461059a578063e4e13d8d146105ba578063f5b541a6146105cd578063fc82f0841461060157600080fd5b80639d5b382014610510578063a217fddf14610523578063ba8fc5bf14610538578063d18df53c1461056d57600080fd5b806368e2f7b7116100d157806368e2f7b71461045257806391d148541461047f57806392bb9fbf146104c557806393f1a40b146104d857600080fd5b80635312ea8e1461040a5780635ea3f4fa1461041d578063630b5ba11461044a57600080fd5b8063248a9ca31161016f578063378de45b1161013e578063378de45b146103785780634311b26a146103b057806348cd4cb1146103c357806351eb05a6146103ea57600080fd5b8063248a9ca3146102f55780632f2ff15d146103255780632f6c58ab1461034557806336568abe1461035857600080fd5b80630efe6a8b116101ab5780630efe6a8b1461023b5780631068f4541461024e5780631526fe271461026e57806317caf6f1146102bd57600080fd5b806301ffc9a7146101d2578063081e3eda146102075780630dbd1a3814610226575b600080fd5b3480156101de57600080fd5b506101f26101ed366004612af3565b610609565b60405190151581526020015b60405180910390f35b34801561021357600080fd5b5060cb545b6040519081526020016101fe565b610239610234366004612b32565b610640565b005b610239610249366004612b5e565b610669565b34801561025a57600080fd5b50610239610269366004612bf6565b6108bb565b34801561027a57600080fd5b5061028e610289366004612c87565b610c3d565b604080516001600160a01b0390941684526001600160801b0392831660208501529116908201526060016101fe565b3480156102c957600080fd5b5060cd546102dd906001600160801b031681565b6040516001600160801b0390911681526020016101fe565b34801561030157600080fd5b50610218610310366004612c87565b60009081526065602052604090206001015490565b34801561033157600080fd5b50610239610340366004612ca0565b610c89565b610239610353366004612cde565b610cb4565b34801561036457600080fd5b50610239610373366004612ca0565b610f06565b34801561038457600080fd5b50610218610393366004612c87565b600090815260cc6020908152604080832033845290915290205490565b6102396103be366004612d3d565b610f92565b3480156103cf57600080fd5b5060cd546102dd90600160801b90046001600160801b031681565b6103fd6103f8366004612c87565b6111e5565b6040516101fe9190612e17565b610239610418366004612c87565b61157a565b34801561042957600080fd5b5061043d610438366004612e8f565b6116a1565b6040516101fe9190612ee4565b61023961176a565b34801561045e57600080fd5b5061021861046d366004612e8f565b60c96020526000908152604090205481565b34801561048b57600080fd5b506101f261049a366004612ca0565b60009182526065602090815260408084206001600160a01b0393909316845291905290205460ff1690565b6102396104d3366004612b32565b611794565b3480156104e457600080fd5b506102186104f3366004612ca0565b60cc60209081526000928352604080842090915290825290205481565b61023961051e366004612f46565b611851565b34801561052f57600080fd5b50610218600081565b34801561054457600080fd5b50610558610553366004612e8f565b611a60565b604080519283529015156020830152016101fe565b34801561057957600080fd5b5061058d610588366004612ca0565b611aca565b6040516101fe9190612f90565b3480156105a657600080fd5b506102396105b5366004612ca0565b611f51565b6102396105c8366004612fa3565b611f77565b3480156105d957600080fd5b506102187f8952ae23cc3fea91b9dba0cefa16d18a26ca2bf124b54f42b5d04bce3aacecd281565b610239612105565b60006001600160e01b03198216637965db0b60e01b148061063a57506301ffc9a760e01b6001600160e01b03198316145b92915050565b600061064c813361213d565b506001600160a01b03909116600090815260c96020526040902055565b600260975414156106c15760405162461bcd60e51b815260206004820152601f60248201527f5265656e7472616e637947756172643a207265656e7472616e742063616c6c0060448201526064015b60405180910390fd5b600260975560cb80548391600091839081106106df576106df612ffd565b60009182526020909120600490910201546001600160a01b031614156107395760405162461bcd60e51b815260206004820152600f60248201526e4b523a2021706f6f6c45786973747360881b60448201526064016106b8565b6000610744846111e5565b600085815260cc602090815260408083206001600160a01b038a168452909152902090915083156108ae5760018101546107d85781608001515167ffffffffffffffff81111561079657610796613013565b6040519080825280602002602001820160405280156107bf578160200160208202803683370190505b5080516107d69160018401916020909101906129eb565b505b81516107ef906001600160a01b03163330876121bd565b80548401815560005b8260800151518110156108685764e8d4a510008360600151828151811061082157610821612ffd565b602002602001015186028161083857610838613029565b0482600101828154811061084e5761084e612ffd565b6000918252602090912001805490910190556001016107f8565b5084866001600160a01b03167f90890809c654f11d6e72a28fa60149770a0d11ec6c92319d6ceb2bb0a4ea1a15866040516108a591815260200190565b60405180910390a35b5050600160975550505050565b600054610100900460ff166108d65760005460ff16156108da565b303b155b61094c5760405162461bcd60e51b815260206004820152602e60248201527f496e697469616c697a61626c653a20636f6e747261637420697320616c72656160448201527f647920696e697469616c697a656400000000000000000000000000000000000060648201526084016106b8565b600054610100900460ff1615801561096e576000805461ffff19166101011790555b8386146109e35760405162461bcd60e51b815260206004820152602c60248201527f416c6c2072657761726420746f6b656e73206e6565642072657761726450657260448201527f426c6f636b20616d6f756e74000000000000000000000000000000000000000060648201526084016106b8565b6109eb61223d565b6109f66000336122c2565b60005b86811015610a7157858582818110610a1357610a13612ffd565b9050602002013560c960008a8a85818110610a3057610a30612ffd565b9050602002016020810190610a459190612e8f565b6001600160a01b0316815260208101919091526040016000205580610a6981613055565b9150506109f9565b5060ca86905560cd80546001600160801b03438116600160801b90810292821692909217928390556040805160a0810182526001600160a01b0388168152868316602082015292909304169181019190915260cb90606081018867ffffffffffffffff811115610ae357610ae3613013565b604051908082528060200260200182016040528015610b0c578160200160208202803683370190505b5081526020018989808060200260200160405190810160405280939291908181526020018383602002808284376000920182905250939094525050835460018181018655948252602091829020845160049092020180546001600160a01b039092166001600160a01b03199092169190911781558184015160408501516001600160801b03908116600160801b029116179481019490945560608301518051939493610bc29350600285019291909101906129eb565b5060808201518051610bde916003840191602090910190612a36565b505060cd8054849250600090610bfe9084906001600160801b0316613070565b92506101000a8154816001600160801b0302191690836001600160801b031602179055508015610c34576000805461ff00191690555b50505050505050565b60cb8181548110610c4d57600080fd5b6000918252602090912060049091020180546001909101546001600160a01b0390911691506001600160801b0380821691600160801b90041683565b600082815260656020526040902060010154610ca5813361213d565b610caf83836122c8565b505050565b60026097541415610d075760405162461bcd60e51b815260206004820152601f60248201527f5265656e7472616e637947756172643a207265656e7472616e742063616c6c0060448201526064016106b8565b60026097557f8952ae23cc3fea91b9dba0cefa16d18a26ca2bf124b54f42b5d04bce3aacecd2610d37813361213d565b6000610d42866111e5565b600087815260cc602090815260408083206001600160a01b038c16845290915290209091508415610de557610de582826040518060400160405290816000820154815260200160018201805480602002602001604051908101604052809291908181526020018280548015610dd657602002820191906000526020600020905b815481526020019060010190808311610dc2575b5050505050815250508661236a565b8515610e76578054861115610e01578054600082559550610e1b565b85816000016000828254610e15919061309b565b90915550505b8151610e31906001600160a01b031633886124a9565b86886001600160a01b03167ff279e6a1f5e320cca91135676d9cb6e44ca8a08c0b88342bcdb1144f6511b56888604051610e6d91815260200190565b60405180910390a35b60005b826080015151811015610ef65764e8d4a5100083606001518281518110610ea257610ea2612ffd565b60200260200101518360000154610eb991906130b2565b610ec391906130d1565b826001018281548110610ed857610ed8612ffd565b60009182526020909120015580610eee81613055565b915050610e79565b5050600160975550505050505050565b6001600160a01b0381163314610f845760405162461bcd60e51b815260206004820152602f60248201527f416363657373436f6e74726f6c3a2063616e206f6e6c792072656e6f756e636560448201527f20726f6c657320666f722073656c66000000000000000000000000000000000060648201526084016106b8565b610f8e82826124d9565b5050565b6000610f9e813361213d565b8260005b60cb5481101561103457816001600160a01b031660cb8281548110610fc957610fc9612ffd565b60009182526020909120600490910201546001600160a01b031614156110225760405162461bcd60e51b815260206004820152600e60248201526d4b523a20706f6f6c45786973747360901b60448201526064016106b8565b8061102c81613055565b915050610fa2565b5060cd80548491906000906110539084906001600160801b0316613070565b92506101000a8154816001600160801b0302191690836001600160801b0316021790555060ca5486869050111561108a5760ca8590555b60cb6040518060a00160405280866001600160a01b03168152602001856001600160801b03168152602001436001600160801b0316815260200160ca5467ffffffffffffffff8111156110df576110df613013565b604051908082528060200260200182016040528015611108578160200160208202803683370190505b5081526020018888808060200260200160405190810160405280939291908181526020018383602002808284376000920182905250939094525050835460018181018655948252602091829020845160049092020180546001600160a01b039092166001600160a01b03199092169190911781558184015160408501516001600160801b03908116600160801b0291161794810194909455606083015180519394936111be9350600285019291909101906129eb565b50608082015180516111da916003840191602090910190612a36565b505050505050505050565b6040805160a081018252600080825260208201819052918101919091526060808201819052608082015260cb828154811061122257611222612ffd565b60009182526020918290206040805160a081018252600490930290910180546001600160a01b0316835260018101546001600160801b0380821685870152600160801b9091041683830152600281018054835181870281018701909452808452939491936060860193928301828280156112bb57602002820191906000526020600020905b8154815260200190600101908083116112a7575b505050505081526020016003820180548060200260200160405190810160405280929190818152602001828054801561131d57602002820191906000526020600020905b81546001600160a01b031681526001909101906020018083116112ff575b505050505081525050905080604001516001600160801b03164311156115755780516040516370a0823160e01b81523060048201526000916001600160a01b0316906370a0823190602401602060405180830381865afa158015611385573d6000803e3d6000fd5b505050506040513d601f19601f820116820180604052508101906113a991906130f3565b905080156114bf5760005b8260800151518110156114bd57600060c96000856080015184815181106113dd576113dd612ffd565b60200260200101516001600160a01b03166001600160a01b03168152602001908152602001600020549050600084604001516001600160801b031643611423919061309b565b60cd5460208701519192506000916001600160801b03918216911661144884866130b2565b61145291906130b2565b61145c91906130d1565b90508461146e8264e8d4a510006130b2565b61147891906130d1565b8660600151858151811061148e5761148e612ffd565b602002602001018181516114a2919061310c565b9052508392506114b59150829050613055565b9150506113b4565b505b6001600160801b034316604083015260cb8054839190859081106114e5576114e5612ffd565b6000918252602091829020835160049092020180546001600160a01b039092166001600160a01b03199092169190911781558282015160408401516001600160801b03908116600160801b029116176001820155606083015180519192611554926002850192909101906129eb565b5060808201518051611570916003840191602090910190612a36565b505050505b919050565b600260975414156115cd5760405162461bcd60e51b815260206004820152601f60248201527f5265656e7472616e637947756172643a207265656e7472616e742063616c6c0060448201526064016106b8565b600260975560006115dd826111e5565b600083815260cc60209081526040808320338085529252909120805483519394509092611615926001600160a01b03909116916124a9565b60008082555b82608001515181101561165d57600082600101828154811061163f5761163f612ffd565b6000918252602090912001558061165581613055565b91505061161b565b508054604051908152839033907fbb757047c2b5f3974fe26b7c10f732e7bce710b0952a71082702781e62ae05959060200160405180910390a35050600160975550565b60cb5460609067ffffffffffffffff8111156116bf576116bf613013565b60405190808252806020026020018201604052801561171457816020015b61170160405180606001604052806000815260200160608152602001606081525090565b8152602001906001900390816116dd5790505b50905060005b60cb548110156117645760006117308285611aca565b90508083838151811061174557611745612ffd565b602002602001018190525050808061175c90613055565b91505061171a565b50919050565b60005b60cb5481101561179157611780816111e5565b5061178a81613055565b905061176d565b50565b60006117a0813361213d565b8260005b60cb5481101561183657816001600160a01b031660cb82815481106117cb576117cb612ffd565b60009182526020909120600490910201546001600160a01b031614156118245760405162461bcd60e51b815260206004820152600e60248201526d4b523a20706f6f6c45786973747360901b60448201526064016106b8565b8061182e81613055565b9150506117a4565b5061184b6001600160a01b03851633856124a9565b50505050565b600260975414156118a45760405162461bcd60e51b815260206004820152601f60248201527f5265656e7472616e637947756172643a207265656e7472616e742063616c6c0060448201526064016106b8565b600260975560006118b4856111e5565b600086815260cc602090815260408083203384529091529020909150831561194e5761194e8282604051806040016040529081600082015481526020016001820180548060200260200160405190810160405280929190818152602001828054801561193f57602002820191906000526020600020905b81548152602001906001019080831161192b575b5050505050815250508561236a565b84156119d257805485111561196a578054600082559450611984565b8481600001600082825461197e919061309b565b90915550505b815161199a906001600160a01b031633876124a9565b604051858152869033907ff279e6a1f5e320cca91135676d9cb6e44ca8a08c0b88342bcdb1144f6511b5689060200160405180910390a35b60005b826080015151811015611a525764e8d4a51000836060015182815181106119fe576119fe612ffd565b60200260200101518360000154611a1591906130b2565b611a1f91906130d1565b826001018281548110611a3457611a34612ffd565b60009182526020909120015580611a4a81613055565b9150506119d5565b505060016097555050505050565b6000805b60cb54821015611ac557826001600160a01b031660cb8381548110611a8b57611a8b612ffd565b60009182526020909120600490910201546001600160a01b03161415611ab357506001915091565b81611abd81613055565b925050611a64565b915091565b611aee60405180606001604052806000815260200160608152602001606081525090565b600060cb8481548110611b0357611b03612ffd565b60009182526020918290206040805160a081018252600490930290910180546001600160a01b0316835260018101546001600160801b0380821685870152600160801b909104168383015260028101805483518187028101870190945280845293949193606086019392830182828015611b9c57602002820191906000526020600020905b815481526020019060010190808311611b88575b5050505050815260200160038201805480602002602001604051908101604052809291908181526020018280548015611bfe57602002820191906000526020600020905b81546001600160a01b03168152600190910190602001808311611be0575b50505091909252505050600085815260cc602090815260408083206001600160a01b03881684528252808320815180830183528154815260018201805484518187028101870190955280855296975094959094919385810193929190830182828015611c8957602002820191906000526020600020905b815481526020019060010190808311611c75575b50505091909252505083516040516370a0823160e01b81523060048201529293506000926001600160a01b0390911691506370a0823190602401602060405180830381865afa158015611ce0573d6000803e3d6000fd5b505050506040513d601f19601f82011682018060405250810190611d0491906130f3565b60808401805151604080516060810182528a8152925160208401529293509181018267ffffffffffffffff811115611d3e57611d3e613013565b604051908082528060200260200182016040528015611d67578160200160208202803683370190505b50905294508115801590611d7b5750825115155b15611f475760005b81811015611f4557600085606001518281518110611da357611da3612ffd565b60200260200101519050600060c9600088608001518581518110611dc957611dc9612ffd565b60200260200101516001600160a01b03166001600160a01b03168152602001908152602001600020549050600087604001516001600160801b031643611e0f919061309b565b60cd5460208a01519192506000916001600160801b039182169116611e3484866130b2565b611e3e91906130b2565b611e4891906130d1565b905086611e5a8264e8d4a510006130b2565b611e6491906130d1565b611e6e908561310c565b935087602001518581518110611e8657611e86612ffd565b602002602001015164e8d4a51000858a60000151611ea491906130b2565b611eae91906130d1565b611eb8919061309b565b8a604001518681518110611ece57611ece612ffd565b60200260200101818152505088608001518581518110611ef057611ef0612ffd565b60200260200101518a602001518681518110611f0e57611f0e612ffd565b60200260200101906001600160a01b031690816001600160a01b031681525050505050508080611f3d90613055565b915050611d83565b505b5050505092915050565b600082815260656020526040902060010154611f6d813361213d565b610caf83836124d9565b6000611f83813361213d565b8460006001600160a01b031660cb8281548110611fa257611fa2612ffd565b60009182526020909120600490910201546001600160a01b03161415611ffc5760405162461bcd60e51b815260206004820152600f60248201526e4b523a2021706f6f6c45786973747360881b60448201526064016106b8565b8460cb878154811061201057612010612ffd565b600091825260209091206001600490920201015461203791906001600160801b0316613070565b60cd80546000906120529084906001600160801b0316613124565b92506101000a8154816001600160801b0302191690836001600160801b031602179055508460cb878154811061208a5761208a612ffd565b6000918252602090912060049091020160010180546fffffffffffffffffffffffffffffffff19166001600160801b039290921691909117905582156120fd57838360cb88815481106120df576120df612ffd565b90600052602060002090600402016003019190610c34929190612a8b565b505050505050565b6000612111813361213d565b60405133904780156108fc02916000818181858888f19350505050158015610f8e573d6000803e3d6000fd5b60008281526065602090815260408083206001600160a01b038516845290915290205460ff16610f8e5761217b816001600160a01b0316601461255c565b61218683602061255c565b604051602001612197929190613178565b60408051601f198184030181529082905262461bcd60e51b82526106b8916004016131f9565b6040516001600160a01b038085166024830152831660448201526064810182905261184b9085906323b872dd60e01b906084015b60408051601f198184030181529190526020810180517bffffffffffffffffffffffffffffffffffffffffffffffffffffffff166001600160e01b03199093169290921790915261270c565b600054610100900460ff166122a85760405162461bcd60e51b815260206004820152602b60248201527f496e697469616c697a61626c653a20636f6e7472616374206973206e6f74206960448201526a6e697469616c697a696e6760a81b60648201526084016106b8565b6122b06127f1565b6122b86127f1565b6122c06127f1565b565b610f8e82825b60008281526065602090815260408083206001600160a01b038516845290915290205460ff16610f8e5760008281526065602090815260408083206001600160a01b03851684529091529020805460ff191660011790556123263390565b6001600160a01b0316816001600160a01b0316837f2f8788117e7eff1d82e926ec794901d17c78024a50270940304540a733656f0d60405160405180910390a45050565b60005b83608001515181101561184b5760008360200151828151811061239257612392612ffd565b6020026020010151905060008164e8d4a51000876060015185815181106123bb576123bb612ffd565b602002602001015187600001516123d291906130b2565b6123dc91906130d1565b6123e6919061309b565b905080156124945761242984828860800151868151811061240957612409612ffd565b60200260200101516001600160a01b03166124a99092919063ffffffff16565b8560800151838151811061243f5761243f612ffd565b60200260200101516001600160a01b0316846001600160a01b03167f9aa05b3d70a9e3e2f004f039648839560576334fb45c81f91b6db03ad9e2efc98360405161248b91815260200190565b60405180910390a35b505080806124a190613055565b91505061236d565b6040516001600160a01b038316602482015260448101829052610caf90849063a9059cbb60e01b906064016121f1565b60008281526065602090815260408083206001600160a01b038516845290915290205460ff1615610f8e5760008281526065602090815260408083206001600160a01b0385168085529252808320805460ff1916905551339285917ff6391f5c32d9c69d2a47ea670b442974b53935d1edc7fd64eb21e047a839171b9190a45050565b6060600061256b8360026130b2565b61257690600261310c565b67ffffffffffffffff81111561258e5761258e613013565b6040519080825280601f01601f1916602001820160405280156125b8576020820181803683370190505b509050600360fc1b816000815181106125d3576125d3612ffd565b60200101906001600160f81b031916908160001a905350600f60fb1b8160018151811061260257612602612ffd565b60200101906001600160f81b031916908160001a90535060006126268460026130b2565b61263190600161310c565b90505b60018111156126b6577f303132333435363738396162636465660000000000000000000000000000000085600f166010811061267257612672612ffd565b1a60f81b82828151811061268857612688612ffd565b60200101906001600160f81b031916908160001a90535060049490941c936126af8161322c565b9050612634565b5083156127055760405162461bcd60e51b815260206004820181905260248201527f537472696e67733a20686578206c656e67746820696e73756666696369656e7460448201526064016106b8565b9392505050565b6000612761826040518060400160405280602081526020017f5361666545524332303a206c6f772d6c6576656c2063616c6c206661696c6564815250856001600160a01b031661285c9092919063ffffffff16565b805190915015610caf578080602001905181019061277f9190613243565b610caf5760405162461bcd60e51b815260206004820152602a60248201527f5361666545524332303a204552433230206f7065726174696f6e20646964206e60448201527f6f7420737563636565640000000000000000000000000000000000000000000060648201526084016106b8565b600054610100900460ff166122c05760405162461bcd60e51b815260206004820152602b60248201527f496e697469616c697a61626c653a20636f6e7472616374206973206e6f74206960448201526a6e697469616c697a696e6760a81b60648201526084016106b8565b606061286b8484600085612873565b949350505050565b6060824710156128eb5760405162461bcd60e51b815260206004820152602660248201527f416464726573733a20696e73756666696369656e742062616c616e636520666f60448201527f722063616c6c000000000000000000000000000000000000000000000000000060648201526084016106b8565b843b6129395760405162461bcd60e51b815260206004820152601d60248201527f416464726573733a2063616c6c20746f206e6f6e2d636f6e747261637400000060448201526064016106b8565b600080866001600160a01b031685876040516129559190613260565b60006040518083038185875af1925050503d8060008114612992576040519150601f19603f3d011682016040523d82523d6000602084013e612997565b606091505b50915091506129a78282866129b2565b979650505050505050565b606083156129c1575081612705565b8251156129d15782518084602001fd5b8160405162461bcd60e51b81526004016106b891906131f9565b828054828255906000526020600020908101928215612a26579160200282015b82811115612a26578251825591602001919060010190612a0b565b50612a32929150612ade565b5090565b828054828255906000526020600020908101928215612a26579160200282015b82811115612a2657825182546001600160a01b0319166001600160a01b03909116178255602090920191600190910190612a56565b828054828255906000526020600020908101928215612a26579160200282015b82811115612a265781546001600160a01b0319166001600160a01b03843516178255602090920191600190910190612aab565b5b80821115612a325760008155600101612adf565b600060208284031215612b0557600080fd5b81356001600160e01b03198116811461270557600080fd5b6001600160a01b038116811461179157600080fd5b60008060408385031215612b4557600080fd5b8235612b5081612b1d565b946020939093013593505050565b600080600060608486031215612b7357600080fd5b8335612b7e81612b1d565b95602085013595506040909401359392505050565b60008083601f840112612ba557600080fd5b50813567ffffffffffffffff811115612bbd57600080fd5b6020830191508360208260051b8501011115612bd857600080fd5b9250929050565b80356001600160801b038116811461157557600080fd5b60008060008060008060808789031215612c0f57600080fd5b863567ffffffffffffffff80821115612c2757600080fd5b612c338a838b01612b93565b90985096506020890135915080821115612c4c57600080fd5b50612c5989828a01612b93565b9095509350506040870135612c6d81612b1d565b9150612c7b60608801612bdf565b90509295509295509295565b600060208284031215612c9957600080fd5b5035919050565b60008060408385031215612cb357600080fd5b823591506020830135612cc581612b1d565b809150509250929050565b801515811461179157600080fd5b600080600080600060a08688031215612cf657600080fd5b8535612d0181612b1d565b945060208601359350604086013592506060860135612d1f81612cd0565b91506080860135612d2f81612b1d565b809150509295509295909350565b60008060008060608587031215612d5357600080fd5b843567ffffffffffffffff811115612d6a57600080fd5b612d7687828801612b93565b9095509350506020850135612d8a81612b1d565b9150612d9860408601612bdf565b905092959194509250565b600081518084526020808501945080840160005b83811015612dd357815187529582019590820190600101612db7565b509495945050505050565b600081518084526020808501945080840160005b83811015612dd35781516001600160a01b031687529582019590820190600101612df2565b602081526001600160a01b038251166020820152600060208301516001600160801b0380821660408501528060408601511660608501525050606083015160a06080840152612e6960c0840182612da3565b90506080840151601f198483030160a0850152612e868282612dde565b95945050505050565b600060208284031215612ea157600080fd5b813561270581612b1d565b805182526000602082015160606020850152612ecb6060850182612dde565b905060408301518482036040860152612e868282612da3565b6000602080830181845280855180835260408601915060408160051b870101925083870160005b82811015612f3957603f19888603018452612f27858351612eac565b94509285019290850190600101612f0b565b5092979650505050505050565b60008060008060808587031215612f5c57600080fd5b84359350602085013592506040850135612f7581612cd0565b91506060850135612f8581612b1d565b939692955090935050565b6020815260006127056020830184612eac565b60008060008060608587031215612fb957600080fd5b84359350612fc960208601612bdf565b9250604085013567ffffffffffffffff811115612fe557600080fd5b612ff187828801612b93565b95989497509550505050565b634e487b7160e01b600052603260045260246000fd5b634e487b7160e01b600052604160045260246000fd5b634e487b7160e01b600052601260045260246000fd5b634e487b7160e01b600052601160045260246000fd5b60006000198214156130695761306961303f565b5060010190565b60006001600160801b038083168185168083038211156130925761309261303f565b01949350505050565b6000828210156130ad576130ad61303f565b500390565b60008160001904831182151516156130cc576130cc61303f565b500290565b6000826130ee57634e487b7160e01b600052601260045260246000fd5b500490565b60006020828403121561310557600080fd5b5051919050565b6000821982111561311f5761311f61303f565b500190565b60006001600160801b03838116908316818110156131445761314461303f565b039392505050565b60005b8381101561316757818101518382015260200161314f565b8381111561184b5750506000910152565b7f416363657373436f6e74726f6c3a206163636f756e74200000000000000000008152600083516131b081601785016020880161314c565b7f206973206d697373696e6720726f6c652000000000000000000000000000000060179184019182015283516131ed81602884016020880161314c565b01602801949350505050565b602081526000825180602084015261321881604085016020870161314c565b601f01601f19169190910160400192915050565b60008161323b5761323b61303f565b506000190190565b60006020828403121561325557600080fd5b815161270581612cd0565b6000825161327281846020870161314c565b919091019291505056fea164736f6c634300080a000a",
    "devdoc": {
        "kind": "dev",
        "methods": {
            "addPool(address[],address,uint128)": {
                "params": {
                    "_allocPoint": "weight of rewards this pool receives",
                    "_depositToken": "token to deposit for rewards",
                    "_rewardTokens": "tokens to reward from this pool"
                }
            },
            "allPendingRewards(address)": {
                "params": {
                    "_user": "user to get rewards for"
                }
            },
            "deposit(address,uint256,uint256)": {
                "params": {
                    "_amount": "amount to deposit",
                    "_pid": "in `poolInfo`",
                    "_to": "address that msg.sender deposits tokens for"
                }
            },
            "emergencyWithdraw(uint256)": {
                "params": {
                    "_pid": "pool id to withdraw all deposited tokens from"
                }
            },
            "getRoleAdmin(bytes32)": {
                "details": "Returns the admin role that controls `role`. See {grantRole} and {revokeRole}. To change a role's admin, use {_setRoleAdmin}."
            },
            "grantRole(bytes32,address)": {
                "details": "Grants `role` to `account`. If `account` had not been already granted `role`, emits a {RoleGranted} event. Requirements: - the caller must have ``role``'s admin role."
            },
            "hasRole(bytes32,address)": {
                "details": "Returns `true` if `account` has been granted `role`."
            },
            "pendingRewards(uint256,address)": {
                "params": {
                    "_pid": "id of pool in `poolInfo` to check rewards from",
                    "_user": "id of user in `userInfo[_pid]`"
                }
            },
            "renounceRole(bytes32,address)": {
                "details": "Revokes `role` from the calling account. Roles are often managed via {grantRole} and {revokeRole}: this function's purpose is to provide a mechanism for accounts to lose their privileges if they are compromised (such as when a trusted device is misplaced). If the calling account had been revoked `role`, emits a {RoleRevoked} event. Requirements: - the caller must be `account`."
            },
            "revokeRole(bytes32,address)": {
                "details": "Revokes `role` from `account`. If `account` had been granted `role`, emits a {RoleRevoked} event. Requirements: - the caller must have ``role``'s admin role."
            },
            "setPool(uint256,uint128,address[])": {
                "params": {
                    "_newAllocPoint": "new allocation (weight) for rewards",
                    "_pid": "pool to modify",
                    "_rewardTokens": "set new reward tokens for this pool"
                }
            },
            "setRewardPerBlockFor(address,uint256)": {
                "params": {
                    "_rewardPerBlock": "tokens to drip per block",
                    "_rewardToken": "token to adjust the drip for"
                }
            },
            "supportsInterface(bytes4)": {
                "details": "See {IERC165-supportsInterface}."
            },
            "updatePool(uint256)": {
                "params": {
                    "_pid": "pool to update"
                }
            },
            "withdraw(uint256,uint256,bool,address)": {
                "params": {
                    "_amount": "amount to withdraw",
                    "_claimRewards": "does claim rewards",
                    "_claimRewardsTo": "address to send rewards to",
                    "_pid": "id in `poolInfo`"
                }
            },
            "withdrawFor(address,uint256,uint256,bool,address)": {
                "params": {
                    "_amount": "amount to withdraw",
                    "_claimRewards": "does claim rewards",
                    "_claimRewardsTo": "address to send rewards to",
                    "_for": "user to withdraw from",
                    "_pid": "id in `poolInfo`"
                }
            }
        },
        "version": 1
    },
    "userdoc": {
        "kind": "user",
        "methods": {
            "addPool(address[],address,uint128)": {
                "notice": "Adds a new reward pool"
            },
            "allPendingRewards(address)": {
                "notice": "View to get pending rewards from all pools for a user"
            },
            "deposit(address,uint256,uint256)": {
                "notice": "Deposits tokens for @param _to in a pool for reward allocation"
            },
            "emergencyWithdraw(uint256)": {
                "notice": "Emergency function for withdrawing users total staking balance in a poolUsage is for emergency only as this will ZERO your rewards."
            },
            "massUpdatePools()": {
                "notice": "Updates all pools to be up-to dateCannot be updated more than once per block"
            },
            "pendingRewards(uint256,address)": {
                "notice": "View to get pending rewards from a certain pool"
            },
            "rescueNative()": {
                "notice": "A rescue function for missent msg.valueSince we are using payable functions to save gas on calls"
            },
            "rescueNonPoolToken(address,uint256)": {
                "notice": "A rescue function for missent tokens / airdropsTHIS CANNOT WITHDRAW ANY POOL TOKENS due `ensurePoolDoesNotExist` modifier."
            },
            "setPool(uint256,uint128,address[])": {
                "notice": "Set new allocations and reward tokens for a pool"
            },
            "setRewardPerBlockFor(address,uint256)": {
                "notice": "Adjust reward per block for a particular reward token"
            },
            "updatePool(uint256)": {
                "notice": "Updates a pools reward variables to be up-to dateCannot be updated more than once per block"
            },
            "withdraw(uint256,uint256,bool,address)": {
                "notice": "Withdraw staked tokens and/or claim rewards.IF @param _claimRewards = true && @param _amount = 0 will claim only"
            },
            "withdrawFor(address,uint256,uint256,bool,address)": {
                "notice": "Withdraw staked tokens for an user through a trusted operator contract (eg. Kresko Zapper)IF @param _claimRewards = true && @param _amount = 0 will claim only"
            }
        },
        "version": 1
    },
    "storageLayout": {
        "storage": [
            {
                "astId": 597,
                "contract": "src/contracts/KrStaking.sol:KrStaking",
                "label": "_initialized",
                "offset": 0,
                "slot": "0",
                "type": "t_bool"
            },
            {
                "astId": 600,
                "contract": "src/contracts/KrStaking.sol:KrStaking",
                "label": "_initializing",
                "offset": 1,
                "slot": "0",
                "type": "t_bool"
            },
            {
                "astId": 1910,
                "contract": "src/contracts/KrStaking.sol:KrStaking",
                "label": "__gap",
                "offset": 0,
                "slot": "1",
                "type": "t_array(t_uint256)50_storage"
            },
            {
                "astId": 2159,
                "contract": "src/contracts/KrStaking.sol:KrStaking",
                "label": "__gap",
                "offset": 0,
                "slot": "51",
                "type": "t_array(t_uint256)50_storage"
            },
            {
                "astId": 204,
                "contract": "src/contracts/KrStaking.sol:KrStaking",
                "label": "_roles",
                "offset": 0,
                "slot": "101",
                "type": "t_mapping(t_bytes32,t_struct(RoleData)199_storage)"
            },
            {
                "astId": 491,
                "contract": "src/contracts/KrStaking.sol:KrStaking",
                "label": "__gap",
                "offset": 0,
                "slot": "102",
                "type": "t_array(t_uint256)49_storage"
            },
            {
                "astId": 678,
                "contract": "src/contracts/KrStaking.sol:KrStaking",
                "label": "_status",
                "offset": 0,
                "slot": "151",
                "type": "t_uint256"
            },
            {
                "astId": 721,
                "contract": "src/contracts/KrStaking.sol:KrStaking",
                "label": "__gap",
                "offset": 0,
                "slot": "152",
                "type": "t_array(t_uint256)49_storage"
            },
            {
                "astId": 15114,
                "contract": "src/contracts/KrStaking.sol:KrStaking",
                "label": "rewardPerBlockFor",
                "offset": 0,
                "slot": "201",
                "type": "t_mapping(t_address,t_uint256)"
            },
            {
                "astId": 15116,
                "contract": "src/contracts/KrStaking.sol:KrStaking",
                "label": "rewardTokenAmount",
                "offset": 0,
                "slot": "202",
                "type": "t_uint256"
            },
            {
                "astId": 15120,
                "contract": "src/contracts/KrStaking.sol:KrStaking",
                "label": "poolInfo",
                "offset": 0,
                "slot": "203",
                "type": "t_array(t_struct(PoolInfo)15098_storage)dyn_storage"
            },
            {
                "astId": 15127,
                "contract": "src/contracts/KrStaking.sol:KrStaking",
                "label": "userInfo",
                "offset": 0,
                "slot": "204",
                "type": "t_mapping(t_uint256,t_mapping(t_address,t_struct(UserInfo)15084_storage))"
            },
            {
                "astId": 15129,
                "contract": "src/contracts/KrStaking.sol:KrStaking",
                "label": "totalAllocPoint",
                "offset": 0,
                "slot": "205",
                "type": "t_uint128"
            },
            {
                "astId": 15131,
                "contract": "src/contracts/KrStaking.sol:KrStaking",
                "label": "startBlock",
                "offset": 16,
                "slot": "205",
                "type": "t_uint128"
            }
        ],
        "types": {
            "t_address": {
                "encoding": "inplace",
                "label": "address",
                "numberOfBytes": "20"
            },
            "t_array(t_address)dyn_storage": {
                "base": "t_address",
                "encoding": "dynamic_array",
                "label": "address[]",
                "numberOfBytes": "32"
            },
            "t_array(t_struct(PoolInfo)15098_storage)dyn_storage": {
                "base": "t_struct(PoolInfo)15098_storage",
                "encoding": "dynamic_array",
                "label": "struct KrStaking.PoolInfo[]",
                "numberOfBytes": "32"
            },
            "t_array(t_uint256)49_storage": {
                "base": "t_uint256",
                "encoding": "inplace",
                "label": "uint256[49]",
                "numberOfBytes": "1568"
            },
            "t_array(t_uint256)50_storage": {
                "base": "t_uint256",
                "encoding": "inplace",
                "label": "uint256[50]",
                "numberOfBytes": "1600"
            },
            "t_array(t_uint256)dyn_storage": {
                "base": "t_uint256",
                "encoding": "dynamic_array",
                "label": "uint256[]",
                "numberOfBytes": "32"
            },
            "t_bool": {
                "encoding": "inplace",
                "label": "bool",
                "numberOfBytes": "1"
            },
            "t_bytes32": {
                "encoding": "inplace",
                "label": "bytes32",
                "numberOfBytes": "32"
            },
            "t_contract(IERC20)4395": {
                "encoding": "inplace",
                "label": "contract IERC20",
                "numberOfBytes": "20"
            },
            "t_mapping(t_address,t_bool)": {
                "encoding": "mapping",
                "key": "t_address",
                "label": "mapping(address => bool)",
                "numberOfBytes": "32",
                "value": "t_bool"
            },
            "t_mapping(t_address,t_struct(UserInfo)15084_storage)": {
                "encoding": "mapping",
                "key": "t_address",
                "label": "mapping(address => struct KrStaking.UserInfo)",
                "numberOfBytes": "32",
                "value": "t_struct(UserInfo)15084_storage"
            },
            "t_mapping(t_address,t_uint256)": {
                "encoding": "mapping",
                "key": "t_address",
                "label": "mapping(address => uint256)",
                "numberOfBytes": "32",
                "value": "t_uint256"
            },
            "t_mapping(t_bytes32,t_struct(RoleData)199_storage)": {
                "encoding": "mapping",
                "key": "t_bytes32",
                "label": "mapping(bytes32 => struct AccessControlUpgradeable.RoleData)",
                "numberOfBytes": "32",
                "value": "t_struct(RoleData)199_storage"
            },
            "t_mapping(t_uint256,t_mapping(t_address,t_struct(UserInfo)15084_storage))": {
                "encoding": "mapping",
                "key": "t_uint256",
                "label": "mapping(uint256 => mapping(address => struct KrStaking.UserInfo))",
                "numberOfBytes": "32",
                "value": "t_mapping(t_address,t_struct(UserInfo)15084_storage)"
            },
            "t_struct(PoolInfo)15098_storage": {
                "encoding": "inplace",
                "label": "struct KrStaking.PoolInfo",
                "members": [
                    {
                        "astId": 15087,
                        "contract": "src/contracts/KrStaking.sol:KrStaking",
                        "label": "depositToken",
                        "offset": 0,
                        "slot": "0",
                        "type": "t_contract(IERC20)4395"
                    },
                    {
                        "astId": 15089,
                        "contract": "src/contracts/KrStaking.sol:KrStaking",
                        "label": "allocPoint",
                        "offset": 0,
                        "slot": "1",
                        "type": "t_uint128"
                    },
                    {
                        "astId": 15091,
                        "contract": "src/contracts/KrStaking.sol:KrStaking",
                        "label": "lastRewardBlock",
                        "offset": 16,
                        "slot": "1",
                        "type": "t_uint128"
                    },
                    {
                        "astId": 15094,
                        "contract": "src/contracts/KrStaking.sol:KrStaking",
                        "label": "accRewardPerShares",
                        "offset": 0,
                        "slot": "2",
                        "type": "t_array(t_uint256)dyn_storage"
                    },
                    {
                        "astId": 15097,
                        "contract": "src/contracts/KrStaking.sol:KrStaking",
                        "label": "rewardTokens",
                        "offset": 0,
                        "slot": "3",
                        "type": "t_array(t_address)dyn_storage"
                    }
                ],
                "numberOfBytes": "128"
            },
            "t_struct(RoleData)199_storage": {
                "encoding": "inplace",
                "label": "struct AccessControlUpgradeable.RoleData",
                "members": [
                    {
                        "astId": 196,
                        "contract": "src/contracts/KrStaking.sol:KrStaking",
                        "label": "members",
                        "offset": 0,
                        "slot": "0",
                        "type": "t_mapping(t_address,t_bool)"
                    },
                    {
                        "astId": 198,
                        "contract": "src/contracts/KrStaking.sol:KrStaking",
                        "label": "adminRole",
                        "offset": 0,
                        "slot": "1",
                        "type": "t_bytes32"
                    }
                ],
                "numberOfBytes": "64"
            },
            "t_struct(UserInfo)15084_storage": {
                "encoding": "inplace",
                "label": "struct KrStaking.UserInfo",
                "members": [
                    {
                        "astId": 15080,
                        "contract": "src/contracts/KrStaking.sol:KrStaking",
                        "label": "amount",
                        "offset": 0,
                        "slot": "0",
                        "type": "t_uint256"
                    },
                    {
                        "astId": 15083,
                        "contract": "src/contracts/KrStaking.sol:KrStaking",
                        "label": "rewardDebts",
                        "offset": 0,
                        "slot": "1",
                        "type": "t_array(t_uint256)dyn_storage"
                    }
                ],
                "numberOfBytes": "64"
            },
            "t_uint128": {
                "encoding": "inplace",
                "label": "uint128",
                "numberOfBytes": "16"
            },
            "t_uint256": {
                "encoding": "inplace",
                "label": "uint256",
                "numberOfBytes": "32"
            }
        }
    }
}