{
  "_format": "hh-sol-artifact-1",
  "contractName": "ModuleManager",
  "sourceName": "@kreskolabs/gnosis-safe-contracts/contracts/base/ModuleManager.sol",
  "abi": [
    {
      "anonymous": false,
      "inputs": [
        {
          "indexed": false,
          "internalType": "address",
          "name": "module",
          "type": "address"
        }
      ],
      "name": "DisabledModule",
      "type": "event"
    },
    {
      "anonymous": false,
      "inputs": [
        {
          "indexed": false,
          "internalType": "address",
          "name": "module",
          "type": "address"
        }
      ],
      "name": "EnabledModule",
      "type": "event"
    },
    {
      "anonymous": false,
      "inputs": [
        {
          "indexed": true,
          "internalType": "address",
          "name": "module",
          "type": "address"
        }
      ],
      "name": "ExecutionFromModuleFailure",
      "type": "event"
    },
    {
      "anonymous": false,
      "inputs": [
        {
          "indexed": true,
          "internalType": "address",
          "name": "module",
          "type": "address"
        }
      ],
      "name": "ExecutionFromModuleSuccess",
      "type": "event"
    },
    {
      "inputs": [
        {
          "internalType": "address",
          "name": "prevModule",
          "type": "address"
        },
        {
          "internalType": "address",
          "name": "module",
          "type": "address"
        }
      ],
      "name": "disableModule",
      "outputs": [],
      "stateMutability": "nonpayable",
      "type": "function"
    },
    {
      "inputs": [
        {
          "internalType": "address",
          "name": "module",
          "type": "address"
        }
      ],
      "name": "enableModule",
      "outputs": [],
      "stateMutability": "nonpayable",
      "type": "function"
    },
    {
      "inputs": [
        {
          "internalType": "address",
          "name": "to",
          "type": "address"
        },
        {
          "internalType": "uint256",
          "name": "value",
          "type": "uint256"
        },
        {
          "internalType": "bytes",
          "name": "data",
          "type": "bytes"
        },
        {
          "internalType": "enum Enum.Operation",
          "name": "operation",
          "type": "uint8"
        }
      ],
      "name": "execTransactionFromModule",
      "outputs": [
        {
          "internalType": "bool",
          "name": "success",
          "type": "bool"
        }
      ],
      "stateMutability": "nonpayable",
      "type": "function"
    },
    {
      "inputs": [
        {
          "internalType": "address",
          "name": "to",
          "type": "address"
        },
        {
          "internalType": "uint256",
          "name": "value",
          "type": "uint256"
        },
        {
          "internalType": "bytes",
          "name": "data",
          "type": "bytes"
        },
        {
          "internalType": "enum Enum.Operation",
          "name": "operation",
          "type": "uint8"
        }
      ],
      "name": "execTransactionFromModuleReturnData",
      "outputs": [
        {
          "internalType": "bool",
          "name": "success",
          "type": "bool"
        },
        {
          "internalType": "bytes",
          "name": "returnData",
          "type": "bytes"
        }
      ],
      "stateMutability": "nonpayable",
      "type": "function"
    },
    {
      "inputs": [
        {
          "internalType": "address",
          "name": "start",
          "type": "address"
        },
        {
          "internalType": "uint256",
          "name": "pageSize",
          "type": "uint256"
        }
      ],
      "name": "getModulesPaginated",
      "outputs": [
        {
          "internalType": "address[]",
          "name": "array",
          "type": "address[]"
        },
        {
          "internalType": "address",
          "name": "next",
          "type": "address"
        }
      ],
      "stateMutability": "view",
      "type": "function"
    },
    {
      "inputs": [
        {
          "internalType": "address",
          "name": "module",
          "type": "address"
        }
      ],
      "name": "isModuleEnabled",
      "outputs": [
        {
          "internalType": "bool",
          "name": "",
          "type": "bool"
        }
      ],
      "stateMutability": "view",
      "type": "function"
    }
  ],
  "bytecode": "0x608080604052346100165761092a908161001c8239f35b600080fdfe60806040526004361015610013575b600080fd5b6000803560e01c9081632d9ad53d1461007657508063468721a7146100715780635229073f1461006c578063610b592514610067578063cc2f8452146100625763e009cfde0361000e5761050b565b610425565b6102b4565b610220565b6101f5565b346100cc5760206003193601126100c95760018060a01b03806100976100cf565b1691826001141592836100b1575b83151560805260206080f35b604092935081528060205220541615158180806100a5565b80fd5b80fd5b6004359060018060a01b03821682036100e457565b600080fd5b6024359060018060a01b03821682036100fe57565b600080fd5b634e487b7160e01b600052604160045260246000fd5b9060405191601f8019910116820182811067ffffffffffffffff82111761013f57604052565b610103565b60643590600282101561015357565b600080fd5b60806003198201126101f05761016c6100cf565b916024359160443567ffffffffffffffff908181116101eb57826023820112156101e65780600401359182116101e1576101af6020601f19601f85011601610119565b92828452602483830101116101dc57816000926024602093018386013783010152906101d9610144565b90565b600080fd5b610103565b600080fd5b600080fd5b600080fd5b3461021b57602061021161020836610158565b92919091610702565b6040519015158152f35b600080fd5b346102af5761023a61023136610158565b92919091610702565b604051602091823d8301016040523d82523d60008484013e604051928391151582526040818301528251908160408401526000935b828510610292575050606092506000838284010152601f80199101168101030190f35b91938180945081840101516060828801015201929091849261026f565b600080fd5b346103c85760206003193601126103c3576102cd6100cf565b6102d56108a7565b60018060a01b03808216801515806103b3575b6102f190610634565b60005260006020526040600020541661036f576103677fecdf3a3effea5783a3c4c2140e677577666428d44ed9d474a0b3a4c9943f84409161034a61033c61033761067f565b6106a9565b61034583610691565b6106cd565b61035b8161035661067f565b6106cd565b604051918291826106ee565b0390a1600080f35b606460405162461bcd60e51b815260206004820152600560248201527f47533130320000000000000000000000000000000000000000000000000000006044820152fd5b506102f1600182141590506102e8565b600080fd5b600080fd5b9092919260408201604083528151809152606083019060208093019060005b8482821061040657505050509360018060a01b0316910152565b80600192939495838060a01b03875116815201940191019190916103ec565b346105065760406003193601126105015761043e6100cf565b6024359061045361044e8361082d565b610119565b828152601f196104628461082d565b0136602083013760009260018060a01b03809316845283602052610488604085206106a9565b5b83811680151590816104f5575b50806104ec575b156104d5576104c96104c4826104bf6104cf946104ba8a8961084b565b610875565b610691565b6106a9565b94610882565b93610489565b828581526104e8604051928392836103cd565b0390f35b5081851061049d565b60019150141538610496565b600080fd5b600080fd5b3461062f57604060031936011261062a576105246100cf565b61052c6100e9565b906105356108a7565b60018060a01b03808316908115158061061a575b61055290610634565b808316600052600060205260406000205416036105d657816105b16105ce926105ac6105a66105a17faab4fa2b463f581b2b32cb3b7e3b704b9ce37cc209b5fb4d77e593ace405427697610691565b6106a9565b91610691565b6106cd565b6105c26105bd82610691565b6106b6565b604051918291826106ee565b0390a1600080f35b606460405162461bcd60e51b815260206004820152600560248201527f47533130330000000000000000000000000000000000000000000000000000006044820152fd5b5061055260018314159050610549565b600080fd5b600080fd5b1561063b57565b606460405162461bcd60e51b815260206004820152600560248201527f47533130310000000000000000000000000000000000000000000000000000006044820152fd5b60016000526000602052604060002090565b60018060a01b03166000526000602052604060002090565b60018060a01b0390541690565b6bffffffffffffffffffffffff60a01b8154169055565b9060018060a01b03166bffffffffffffffffffffffff60a01b825416179055565b919091602081019260018060a01b03169052565b919290926001331415806107c2575b1561077e57610721935a936107e1565b908160001461075357337f6895c13664aa4f67288b25d7a21d7aaa34916e355fb9b6fae0a139a9085becb8600080a25b565b337facd2c8702804128fdb0db2bb49f6d127dd0181c13fd45dbfe16de0930e2bd375600080a2610751565b606460405162461bcd60e51b815260206004820152600560248201527f47533130340000000000000000000000000000000000000000000000000000006044820152fd5b5033600052600060205260018060a01b03604060002054161515610711565b93909360028410156108175760009460018695148514610808575060208351930191f4905b565b9060208451940192f190610806565b634e487b7160e01b600052602160045260246000fd5b67ffffffffffffffff81116108465760209060051b0190565b610103565b805182101561085f5760209160051b010190565b634e487b7160e01b600052603260045260246000fd5b9060018060a01b03169052565b60001981146108915760010190565b634e487b7160e01b600052601160045260246000fd5b3033036108b057565b606460405162461bcd60e51b815260206004820152600560248201527f47533033310000000000000000000000000000000000000000000000000000006044820152fdfea26469706673582212202a56ae33ede84a1bec2428b8ae52f1e3be3271fcaf8cd4eeade087534a01fccf64736f6c63430008130033",
  "linkReferences": {},
  "deployedLinkReferences": {}
}