{
  "_format": "hh-sol-artifact-1",
  "contractName": "GuardManager",
  "sourceName": "@kreskolabs/gnosis-safe-contracts/contracts/base/GuardManager.sol",
  "abi": [
    {
      "anonymous": false,
      "inputs": [
        {
          "indexed": false,
          "internalType": "address",
          "name": "guard",
          "type": "address"
        }
      ],
      "name": "ChangedGuard",
      "type": "event"
    },
    {
      "inputs": [
        {
          "internalType": "address",
          "name": "guard",
          "type": "address"
        }
      ],
      "name": "setGuard",
      "outputs": [],
      "stateMutability": "nonpayable",
      "type": "function"
    }
  ],
  "bytecode": "0x608080604052346100165761021d908161001c8239f35b600080fdfe6080604090808252600480361015610017575b600080fd5b600091823560e01c63e19a9dd91461002f5750610012565b346101e357602091826003193601126101df5780359060018060a01b038216928383036101db5730330361019c5750826100b3575b50937f1151116914515bc0891ff9047a6cb32cf902546f83066499bcf8ba33d2353fa293947f4a204f620c8c5ccdca3fd54d003badd85ba500436a431f0cbda4f558c93c34c85551908152a180f35b85516301ffc9a760e01b815263736bd41d60e11b828201528481602481875afa908115610190578691610128575b50610064576064908487519162461bcd60e51b8352820152600560248201527f47533330300000000000000000000000000000000000000000000000000000006044820152fd5b9050843d8611610189575b601f19601f820116820182811067ffffffffffffffff82111761017657869183918a52810103126101725751801515810361016e57386100e1565b8580fd5b8580fd5b602488604186634e487b7160e01b835252fd5b503d610133565b868851903d90823e3d90fd5b8460649262461bcd60e51b8352820152600560248201527f47533033310000000000000000000000000000000000000000000000000000006044820152fd5b8580fd5b8380fd5b8280fdfea264697066735822122090abb87e1262ff6808687df3e19a7791fc1e48236de362219e7b2a44fbe950fa64736f6c63430008130033",
  "linkReferences": {},
  "deployedLinkReferences": {}
}