{
    "address": "0x14C78703c070982c30643841f9a37d93B40a8F87",
    "abi": [
        {
            "inputs": [],
            "stateMutability": "nonpayable",
            "type": "constructor"
        },
        {
            "anonymous": false,
            "inputs": [
                {
                    "indexed": true,
                    "internalType": "address",
                    "name": "account",
                    "type": "address"
                },
                {
                    "indexed": true,
                    "internalType": "address",
                    "name": "paymentCollateralAsset",
                    "type": "address"
                },
                {
                    "indexed": true,
                    "internalType": "uint256",
                    "name": "paymentAmount",
                    "type": "uint256"
                },
                {
                    "indexed": false,
                    "internalType": "uint256",
                    "name": "paymentValue",
                    "type": "uint256"
                }
            ],
            "name": "BurnFeePaid",
            "type": "event"
        },
        {
            "anonymous": false,
            "inputs": [
                {
                    "indexed": true,
                    "internalType": "uint256",
                    "name": "burnFee",
                    "type": "uint256"
                }
            ],
            "name": "BurnFeeUpdated",
            "type": "event"
        },
        {
            "anonymous": false,
            "inputs": [
                {
                    "indexed": true,
                    "internalType": "address",
                    "name": "collateralAsset",
                    "type": "address"
                },
                {
                    "indexed": true,
                    "internalType": "uint256",
                    "name": "factor",
                    "type": "uint256"
                },
                {
                    "indexed": true,
                    "internalType": "address",
                    "name": "oracle",
                    "type": "address"
                }
            ],
            "name": "CollateralAssetAdded",
            "type": "event"
        },
        {
            "anonymous": false,
            "inputs": [
                {
                    "indexed": true,
                    "internalType": "address",
                    "name": "collateralAsset",
                    "type": "address"
                },
                {
                    "indexed": true,
                    "internalType": "uint256",
                    "name": "factor",
                    "type": "uint256"
                },
                {
                    "indexed": true,
                    "internalType": "address",
                    "name": "oracle",
                    "type": "address"
                }
            ],
            "name": "CollateralAssetUpdated",
            "type": "event"
        },
        {
            "anonymous": false,
            "inputs": [
                {
                    "indexed": true,
                    "internalType": "address",
                    "name": "account",
                    "type": "address"
                },
                {
                    "indexed": true,
                    "internalType": "address",
                    "name": "collateralAsset",
                    "type": "address"
                },
                {
                    "indexed": true,
                    "internalType": "uint256",
                    "name": "amount",
                    "type": "uint256"
                }
            ],
            "name": "CollateralDeposited",
            "type": "event"
        },
        {
            "anonymous": false,
            "inputs": [
                {
                    "indexed": true,
                    "internalType": "address",
                    "name": "account",
                    "type": "address"
                },
                {
                    "indexed": true,
                    "internalType": "address",
                    "name": "collateralAsset",
                    "type": "address"
                },
                {
                    "indexed": true,
                    "internalType": "uint256",
                    "name": "amount",
                    "type": "uint256"
                }
            ],
            "name": "CollateralWithdrawn",
            "type": "event"
        },
        {
            "anonymous": false,
            "inputs": [
                {
                    "indexed": true,
                    "internalType": "address",
                    "name": "feeRecipient",
                    "type": "address"
                }
            ],
            "name": "FeeRecipientUpdated",
            "type": "event"
        },
        {
            "anonymous": false,
            "inputs": [
                {
                    "indexed": true,
                    "internalType": "address",
                    "name": "kreskoAsset",
                    "type": "address"
                },
                {
                    "indexed": true,
                    "internalType": "string",
                    "name": "symbol",
                    "type": "string"
                },
                {
                    "indexed": true,
                    "internalType": "uint256",
                    "name": "kFactor",
                    "type": "uint256"
                },
                {
                    "indexed": false,
                    "internalType": "address",
                    "name": "oracle",
                    "type": "address"
                },
                {
                    "indexed": false,
                    "internalType": "uint256",
                    "name": "marketCapLimit",
                    "type": "uint256"
                }
            ],
            "name": "KreskoAssetAdded",
            "type": "event"
        },
        {
            "anonymous": false,
            "inputs": [
                {
                    "indexed": true,
                    "internalType": "address",
                    "name": "account",
                    "type": "address"
                },
                {
                    "indexed": true,
                    "internalType": "address",
                    "name": "kreskoAsset",
                    "type": "address"
                },
                {
                    "indexed": true,
                    "internalType": "uint256",
                    "name": "amount",
                    "type": "uint256"
                }
            ],
            "name": "KreskoAssetBurned",
            "type": "event"
        },
        {
            "anonymous": false,
            "inputs": [
                {
                    "indexed": true,
                    "internalType": "address",
                    "name": "account",
                    "type": "address"
                },
                {
                    "indexed": true,
                    "internalType": "address",
                    "name": "kreskoAsset",
                    "type": "address"
                },
                {
                    "indexed": true,
                    "internalType": "uint256",
                    "name": "amount",
                    "type": "uint256"
                }
            ],
            "name": "KreskoAssetMinted",
            "type": "event"
        },
        {
            "anonymous": false,
            "inputs": [
                {
                    "indexed": true,
                    "internalType": "address",
                    "name": "kreskoAsset",
                    "type": "address"
                },
                {
                    "indexed": true,
                    "internalType": "uint256",
                    "name": "kFactor",
                    "type": "uint256"
                },
                {
                    "indexed": true,
                    "internalType": "address",
                    "name": "oracle",
                    "type": "address"
                },
                {
                    "indexed": false,
                    "internalType": "bool",
                    "name": "mintable",
                    "type": "bool"
                },
                {
                    "indexed": false,
                    "internalType": "uint256",
                    "name": "limit",
                    "type": "uint256"
                }
            ],
            "name": "KreskoAssetUpdated",
            "type": "event"
        },
        {
            "anonymous": false,
            "inputs": [
                {
                    "indexed": true,
                    "internalType": "uint256",
                    "name": "liquidationIncentiveMultiplier",
                    "type": "uint256"
                }
            ],
            "name": "LiquidationIncentiveMultiplierUpdated",
            "type": "event"
        },
        {
            "anonymous": false,
            "inputs": [
                {
                    "indexed": true,
                    "internalType": "address",
                    "name": "account",
                    "type": "address"
                },
                {
                    "indexed": true,
                    "internalType": "address",
                    "name": "liquidator",
                    "type": "address"
                },
                {
                    "indexed": true,
                    "internalType": "address",
                    "name": "repayKreskoAsset",
                    "type": "address"
                },
                {
                    "indexed": false,
                    "internalType": "uint256",
                    "name": "repayAmount",
                    "type": "uint256"
                },
                {
                    "indexed": false,
                    "internalType": "address",
                    "name": "seizedCollateralAsset",
                    "type": "address"
                },
                {
                    "indexed": false,
                    "internalType": "uint256",
                    "name": "collateralSent",
                    "type": "uint256"
                }
            ],
            "name": "LiquidationOccurred",
            "type": "event"
        },
        {
            "anonymous": false,
            "inputs": [
                {
                    "indexed": true,
                    "internalType": "uint256",
                    "name": "minimumCollateralizationRatio",
                    "type": "uint256"
                }
            ],
            "name": "MinimumCollateralizationRatioUpdated",
            "type": "event"
        },
        {
            "anonymous": false,
            "inputs": [
                {
                    "indexed": true,
                    "internalType": "uint256",
                    "name": "minimumDebtValue",
                    "type": "uint256"
                }
            ],
            "name": "MinimumDebtValueUpdated",
            "type": "event"
        },
        {
            "anonymous": false,
            "inputs": [
                {
                    "indexed": true,
                    "internalType": "address",
                    "name": "previousOwner",
                    "type": "address"
                },
                {
                    "indexed": true,
                    "internalType": "address",
                    "name": "newOwner",
                    "type": "address"
                }
            ],
            "name": "OwnershipTransferred",
            "type": "event"
        },
        {
            "anonymous": false,
            "inputs": [
                {
                    "indexed": true,
                    "internalType": "address",
                    "name": "previousOwner",
                    "type": "address"
                },
                {
                    "indexed": true,
                    "internalType": "address",
                    "name": "pendingOwner",
                    "type": "address"
                }
            ],
            "name": "PendingOwnershipTransfer",
            "type": "event"
        },
        {
            "anonymous": false,
            "inputs": [
                {
                    "indexed": true,
                    "internalType": "uint256",
                    "name": "secondsUntilStalePrice",
                    "type": "uint256"
                }
            ],
            "name": "SecondsUntilStalePriceUpdated",
            "type": "event"
        },
        {
            "anonymous": false,
            "inputs": [
                {
                    "indexed": true,
                    "internalType": "address",
                    "name": "contractAddress",
                    "type": "address"
                },
                {
                    "indexed": true,
                    "internalType": "bool",
                    "name": "isTrusted",
                    "type": "bool"
                }
            ],
            "name": "TrustedContract",
            "type": "event"
        },
        {
            "inputs": [],
            "name": "MAX_BURN_FEE",
            "outputs": [
                {
                    "internalType": "uint256",
                    "name": "",
                    "type": "uint256"
                }
            ],
            "stateMutability": "view",
            "type": "function"
        },
        {
            "inputs": [],
            "name": "MAX_DEBT_VALUE",
            "outputs": [
                {
                    "internalType": "uint256",
                    "name": "",
                    "type": "uint256"
                }
            ],
            "stateMutability": "view",
            "type": "function"
        },
        {
            "inputs": [],
            "name": "MAX_LIQUIDATION_INCENTIVE_MULTIPLIER",
            "outputs": [
                {
                    "internalType": "uint256",
                    "name": "",
                    "type": "uint256"
                }
            ],
            "stateMutability": "view",
            "type": "function"
        },
        {
            "inputs": [],
            "name": "MIN_COLLATERALIZATION_RATIO",
            "outputs": [
                {
                    "internalType": "uint256",
                    "name": "",
                    "type": "uint256"
                }
            ],
            "stateMutability": "view",
            "type": "function"
        },
        {
            "inputs": [],
            "name": "MIN_LIQUIDATION_INCENTIVE_MULTIPLIER",
            "outputs": [
                {
                    "internalType": "uint256",
                    "name": "",
                    "type": "uint256"
                }
            ],
            "stateMutability": "view",
            "type": "function"
        },
        {
            "inputs": [],
            "name": "ONE_HUNDRED_PERCENT",
            "outputs": [
                {
                    "internalType": "uint256",
                    "name": "",
                    "type": "uint256"
                }
            ],
            "stateMutability": "view",
            "type": "function"
        },
        {
            "inputs": [
                {
                    "internalType": "address",
                    "name": "_collateralAsset",
                    "type": "address"
                },
                {
                    "internalType": "uint256",
                    "name": "_factor",
                    "type": "uint256"
                },
                {
                    "internalType": "address",
                    "name": "_oracle",
                    "type": "address"
                },
                {
                    "internalType": "bool",
                    "name": "isNonRebasingWrapperToken",
                    "type": "bool"
                }
            ],
            "name": "addCollateralAsset",
            "outputs": [],
            "stateMutability": "nonpayable",
            "type": "function"
        },
        {
            "inputs": [
                {
                    "internalType": "address",
                    "name": "_kreskoAsset",
                    "type": "address"
                },
                {
                    "internalType": "string",
                    "name": "_symbol",
                    "type": "string"
                },
                {
                    "internalType": "uint256",
                    "name": "_kFactor",
                    "type": "uint256"
                },
                {
                    "internalType": "address",
                    "name": "_oracle",
                    "type": "address"
                },
                {
                    "internalType": "uint256",
                    "name": "_marketCapUSDLimit",
                    "type": "uint256"
                }
            ],
            "name": "addKreskoAsset",
            "outputs": [],
            "stateMutability": "nonpayable",
            "type": "function"
        },
        {
            "inputs": [],
            "name": "burnFee",
            "outputs": [
                {
                    "internalType": "uint256",
                    "name": "rawValue",
                    "type": "uint256"
                }
            ],
            "stateMutability": "view",
            "type": "function"
        },
        {
            "inputs": [
                {
                    "internalType": "address",
                    "name": "_account",
                    "type": "address"
                },
                {
                    "internalType": "address",
                    "name": "_kreskoAsset",
                    "type": "address"
                },
                {
                    "internalType": "uint256",
                    "name": "_amount",
                    "type": "uint256"
                },
                {
                    "internalType": "uint256",
                    "name": "_mintedKreskoAssetIndex",
                    "type": "uint256"
                }
            ],
            "name": "burnKreskoAsset",
            "outputs": [],
            "stateMutability": "nonpayable",
            "type": "function"
        },
        {
            "inputs": [
                {
                    "internalType": "address",
                    "name": "_account",
                    "type": "address"
                },
                {
                    "internalType": "address",
                    "name": "_repayKreskoAsset",
                    "type": "address"
                },
                {
                    "internalType": "address",
                    "name": "_collateralAssetToSeize",
                    "type": "address"
                }
            ],
            "name": "calculateMaxLiquidatableValueForAssets",
            "outputs": [
                {
                    "components": [
                        {
                            "internalType": "uint256",
                            "name": "rawValue",
                            "type": "uint256"
                        }
                    ],
                    "internalType": "struct FixedPoint.Unsigned",
                    "name": "maxLiquidatableUSD",
                    "type": "tuple"
                }
            ],
            "stateMutability": "view",
            "type": "function"
        },
        {
            "inputs": [],
            "name": "claimOwnership",
            "outputs": [],
            "stateMutability": "nonpayable",
            "type": "function"
        },
        {
            "inputs": [
                {
                    "internalType": "address",
                    "name": "",
                    "type": "address"
                }
            ],
            "name": "collateralAssets",
            "outputs": [
                {
                    "components": [
                        {
                            "internalType": "uint256",
                            "name": "rawValue",
                            "type": "uint256"
                        }
                    ],
                    "internalType": "struct FixedPoint.Unsigned",
                    "name": "factor",
                    "type": "tuple"
                },
                {
                    "internalType": "contract AggregatorV2V3Interface",
                    "name": "oracle",
                    "type": "address"
                },
                {
                    "internalType": "address",
                    "name": "underlyingRebasingToken",
                    "type": "address"
                },
                {
                    "internalType": "uint8",
                    "name": "decimals",
                    "type": "uint8"
                },
                {
                    "internalType": "bool",
                    "name": "exists",
                    "type": "bool"
                }
            ],
            "stateMutability": "view",
            "type": "function"
        },
        {
            "inputs": [
                {
                    "internalType": "address",
                    "name": "",
                    "type": "address"
                },
                {
                    "internalType": "address",
                    "name": "",
                    "type": "address"
                }
            ],
            "name": "collateralDeposits",
            "outputs": [
                {
                    "internalType": "uint256",
                    "name": "",
                    "type": "uint256"
                }
            ],
            "stateMutability": "view",
            "type": "function"
        },
        {
            "inputs": [
                {
                    "internalType": "address",
                    "name": "_collateralAsset",
                    "type": "address"
                }
            ],
            "name": "collateralExists",
            "outputs": [
                {
                    "internalType": "bool",
                    "name": "",
                    "type": "bool"
                }
            ],
            "stateMutability": "view",
            "type": "function"
        },
        {
            "inputs": [
                {
                    "internalType": "address",
                    "name": "_account",
                    "type": "address"
                },
                {
                    "internalType": "address",
                    "name": "_collateralAsset",
                    "type": "address"
                },
                {
                    "internalType": "uint256",
                    "name": "_amount",
                    "type": "uint256"
                }
            ],
            "name": "depositCollateral",
            "outputs": [],
            "stateMutability": "nonpayable",
            "type": "function"
        },
        {
            "inputs": [
                {
                    "internalType": "address",
                    "name": "_account",
                    "type": "address"
                },
                {
                    "internalType": "address",
                    "name": "_collateralAsset",
                    "type": "address"
                },
                {
                    "internalType": "uint256",
                    "name": "_rebasingAmount",
                    "type": "uint256"
                }
            ],
            "name": "depositRebasingCollateral",
            "outputs": [],
            "stateMutability": "nonpayable",
            "type": "function"
        },
        {
            "inputs": [
                {
                    "internalType": "address",
                    "name": "",
                    "type": "address"
                },
                {
                    "internalType": "uint256",
                    "name": "",
                    "type": "uint256"
                }
            ],
            "name": "depositedCollateralAssets",
            "outputs": [
                {
                    "internalType": "address",
                    "name": "",
                    "type": "address"
                }
            ],
            "stateMutability": "view",
            "type": "function"
        },
        {
            "inputs": [],
            "name": "feeRecipient",
            "outputs": [
                {
                    "internalType": "address",
                    "name": "",
                    "type": "address"
                }
            ],
            "stateMutability": "view",
            "type": "function"
        },
        {
            "inputs": [
                {
                    "internalType": "address",
                    "name": "_account",
                    "type": "address"
                }
            ],
            "name": "getAccountCollateralValue",
            "outputs": [
                {
                    "components": [
                        {
                            "internalType": "uint256",
                            "name": "rawValue",
                            "type": "uint256"
                        }
                    ],
                    "internalType": "struct FixedPoint.Unsigned",
                    "name": "",
                    "type": "tuple"
                }
            ],
            "stateMutability": "view",
            "type": "function"
        },
        {
            "inputs": [
                {
                    "internalType": "address",
                    "name": "_account",
                    "type": "address"
                }
            ],
            "name": "getAccountKrAssetValue",
            "outputs": [
                {
                    "components": [
                        {
                            "internalType": "uint256",
                            "name": "rawValue",
                            "type": "uint256"
                        }
                    ],
                    "internalType": "struct FixedPoint.Unsigned",
                    "name": "",
                    "type": "tuple"
                }
            ],
            "stateMutability": "view",
            "type": "function"
        },
        {
            "inputs": [
                {
                    "internalType": "address",
                    "name": "_account",
                    "type": "address"
                }
            ],
            "name": "getAccountMinimumCollateralValue",
            "outputs": [
                {
                    "components": [
                        {
                            "internalType": "uint256",
                            "name": "rawValue",
                            "type": "uint256"
                        }
                    ],
                    "internalType": "struct FixedPoint.Unsigned",
                    "name": "",
                    "type": "tuple"
                }
            ],
            "stateMutability": "view",
            "type": "function"
        },
        {
            "inputs": [
                {
                    "internalType": "address",
                    "name": "_collateralAsset",
                    "type": "address"
                },
                {
                    "internalType": "uint256",
                    "name": "_amount",
                    "type": "uint256"
                },
                {
                    "internalType": "bool",
                    "name": "_ignoreCollateralFactor",
                    "type": "bool"
                }
            ],
            "name": "getCollateralValueAndOraclePrice",
            "outputs": [
                {
                    "components": [
                        {
                            "internalType": "uint256",
                            "name": "rawValue",
                            "type": "uint256"
                        }
                    ],
                    "internalType": "struct FixedPoint.Unsigned",
                    "name": "",
                    "type": "tuple"
                },
                {
                    "components": [
                        {
                            "internalType": "uint256",
                            "name": "rawValue",
                            "type": "uint256"
                        }
                    ],
                    "internalType": "struct FixedPoint.Unsigned",
                    "name": "",
                    "type": "tuple"
                }
            ],
            "stateMutability": "view",
            "type": "function"
        },
        {
            "inputs": [
                {
                    "internalType": "address",
                    "name": "_account",
                    "type": "address"
                },
                {
                    "internalType": "address",
                    "name": "_collateralAsset",
                    "type": "address"
                }
            ],
            "name": "getDepositedCollateralAssetIndex",
            "outputs": [
                {
                    "internalType": "uint256",
                    "name": "i",
                    "type": "uint256"
                }
            ],
            "stateMutability": "view",
            "type": "function"
        },
        {
            "inputs": [
                {
                    "internalType": "address",
                    "name": "_account",
                    "type": "address"
                }
            ],
            "name": "getDepositedCollateralAssets",
            "outputs": [
                {
                    "internalType": "address[]",
                    "name": "",
                    "type": "address[]"
                }
            ],
            "stateMutability": "view",
            "type": "function"
        },
        {
            "inputs": [
                {
                    "internalType": "address",
                    "name": "_kreskoAsset",
                    "type": "address"
                },
                {
                    "internalType": "uint256",
                    "name": "_amount",
                    "type": "uint256"
                },
                {
                    "internalType": "bool",
                    "name": "_ignoreKFactor",
                    "type": "bool"
                }
            ],
            "name": "getKrAssetValue",
            "outputs": [
                {
                    "components": [
                        {
                            "internalType": "uint256",
                            "name": "rawValue",
                            "type": "uint256"
                        }
                    ],
                    "internalType": "struct FixedPoint.Unsigned",
                    "name": "",
                    "type": "tuple"
                }
            ],
            "stateMutability": "view",
            "type": "function"
        },
        {
            "inputs": [
                {
                    "internalType": "address",
                    "name": "_krAsset",
                    "type": "address"
                },
                {
                    "internalType": "uint256",
                    "name": "_amount",
                    "type": "uint256"
                }
            ],
            "name": "getMinimumCollateralValue",
            "outputs": [
                {
                    "components": [
                        {
                            "internalType": "uint256",
                            "name": "rawValue",
                            "type": "uint256"
                        }
                    ],
                    "internalType": "struct FixedPoint.Unsigned",
                    "name": "minCollateralValue",
                    "type": "tuple"
                }
            ],
            "stateMutability": "view",
            "type": "function"
        },
        {
            "inputs": [
                {
                    "internalType": "address",
                    "name": "_account",
                    "type": "address"
                }
            ],
            "name": "getMintedKreskoAssets",
            "outputs": [
                {
                    "internalType": "address[]",
                    "name": "",
                    "type": "address[]"
                }
            ],
            "stateMutability": "view",
            "type": "function"
        },
        {
            "inputs": [
                {
                    "internalType": "address",
                    "name": "_account",
                    "type": "address"
                },
                {
                    "internalType": "address",
                    "name": "_kreskoAsset",
                    "type": "address"
                }
            ],
            "name": "getMintedKreskoAssetsIndex",
            "outputs": [
                {
                    "internalType": "uint256",
                    "name": "i",
                    "type": "uint256"
                }
            ],
            "stateMutability": "view",
            "type": "function"
        },
        {
            "inputs": [
                {
                    "internalType": "uint256",
                    "name": "_burnFee",
                    "type": "uint256"
                },
                {
                    "internalType": "address",
                    "name": "_feeRecipient",
                    "type": "address"
                },
                {
                    "internalType": "uint256",
                    "name": "_liquidationIncentiveMultiplier",
                    "type": "uint256"
                },
                {
                    "internalType": "uint256",
                    "name": "_minimumCollateralizationRatio",
                    "type": "uint256"
                },
                {
                    "internalType": "uint256",
                    "name": "_minimumDebtValue",
                    "type": "uint256"
                },
                {
                    "internalType": "uint256",
                    "name": "_secondsUntilStalePrice",
                    "type": "uint256"
                }
            ],
            "name": "initialize",
            "outputs": [],
            "stateMutability": "nonpayable",
            "type": "function"
        },
        {
            "inputs": [
                {
                    "internalType": "address",
                    "name": "_account",
                    "type": "address"
                }
            ],
            "name": "isAccountLiquidatable",
            "outputs": [
                {
                    "internalType": "bool",
                    "name": "",
                    "type": "bool"
                }
            ],
            "stateMutability": "view",
            "type": "function"
        },
        {
            "inputs": [
                {
                    "internalType": "address",
                    "name": "_krAsset",
                    "type": "address"
                }
            ],
            "name": "krAssetExists",
            "outputs": [
                {
                    "internalType": "bool",
                    "name": "",
                    "type": "bool"
                }
            ],
            "stateMutability": "view",
            "type": "function"
        },
        {
            "inputs": [
                {
                    "internalType": "address",
                    "name": "",
                    "type": "address"
                },
                {
                    "internalType": "address",
                    "name": "",
                    "type": "address"
                }
            ],
            "name": "kreskoAssetDebt",
            "outputs": [
                {
                    "internalType": "uint256",
                    "name": "",
                    "type": "uint256"
                }
            ],
            "stateMutability": "view",
            "type": "function"
        },
        {
            "inputs": [
                {
                    "internalType": "string",
                    "name": "",
                    "type": "string"
                }
            ],
            "name": "kreskoAssetSymbols",
            "outputs": [
                {
                    "internalType": "bool",
                    "name": "",
                    "type": "bool"
                }
            ],
            "stateMutability": "view",
            "type": "function"
        },
        {
            "inputs": [
                {
                    "internalType": "address",
                    "name": "",
                    "type": "address"
                }
            ],
            "name": "kreskoAssets",
            "outputs": [
                {
                    "components": [
                        {
                            "internalType": "uint256",
                            "name": "rawValue",
                            "type": "uint256"
                        }
                    ],
                    "internalType": "struct FixedPoint.Unsigned",
                    "name": "kFactor",
                    "type": "tuple"
                },
                {
                    "internalType": "contract AggregatorV2V3Interface",
                    "name": "oracle",
                    "type": "address"
                },
                {
                    "internalType": "bool",
                    "name": "exists",
                    "type": "bool"
                },
                {
                    "internalType": "bool",
                    "name": "mintable",
                    "type": "bool"
                },
                {
                    "internalType": "uint256",
                    "name": "marketCapUSDLimit",
                    "type": "uint256"
                }
            ],
            "stateMutability": "view",
            "type": "function"
        },
        {
            "inputs": [
                {
                    "internalType": "address",
                    "name": "_account",
                    "type": "address"
                },
                {
                    "internalType": "address",
                    "name": "_repayKreskoAsset",
                    "type": "address"
                },
                {
                    "internalType": "uint256",
                    "name": "_repayAmount",
                    "type": "uint256"
                },
                {
                    "internalType": "address",
                    "name": "_collateralAssetToSeize",
                    "type": "address"
                },
                {
                    "internalType": "uint256",
                    "name": "_mintedKreskoAssetIndex",
                    "type": "uint256"
                },
                {
                    "internalType": "uint256",
                    "name": "_depositedCollateralAssetIndex",
                    "type": "uint256"
                },
                {
                    "internalType": "bool",
                    "name": "_keepKrAssetDebt",
                    "type": "bool"
                }
            ],
            "name": "liquidate",
            "outputs": [],
            "stateMutability": "nonpayable",
            "type": "function"
        },
        {
            "inputs": [],
            "name": "liquidationIncentiveMultiplier",
            "outputs": [
                {
                    "internalType": "uint256",
                    "name": "rawValue",
                    "type": "uint256"
                }
            ],
            "stateMutability": "view",
            "type": "function"
        },
        {
            "inputs": [],
            "name": "minimumCollateralizationRatio",
            "outputs": [
                {
                    "internalType": "uint256",
                    "name": "rawValue",
                    "type": "uint256"
                }
            ],
            "stateMutability": "view",
            "type": "function"
        },
        {
            "inputs": [],
            "name": "minimumDebtValue",
            "outputs": [
                {
                    "internalType": "uint256",
                    "name": "rawValue",
                    "type": "uint256"
                }
            ],
            "stateMutability": "view",
            "type": "function"
        },
        {
            "inputs": [
                {
                    "internalType": "address",
                    "name": "_account",
                    "type": "address"
                },
                {
                    "internalType": "address",
                    "name": "_kreskoAsset",
                    "type": "address"
                },
                {
                    "internalType": "uint256",
                    "name": "_amount",
                    "type": "uint256"
                }
            ],
            "name": "mintKreskoAsset",
            "outputs": [],
            "stateMutability": "nonpayable",
            "type": "function"
        },
        {
            "inputs": [
                {
                    "internalType": "address",
                    "name": "",
                    "type": "address"
                },
                {
                    "internalType": "uint256",
                    "name": "",
                    "type": "uint256"
                }
            ],
            "name": "mintedKreskoAssets",
            "outputs": [
                {
                    "internalType": "address",
                    "name": "",
                    "type": "address"
                }
            ],
            "stateMutability": "view",
            "type": "function"
        },
        {
            "inputs": [],
            "name": "owner",
            "outputs": [
                {
                    "internalType": "address",
                    "name": "",
                    "type": "address"
                }
            ],
            "stateMutability": "view",
            "type": "function"
        },
        {
            "inputs": [],
            "name": "pendingOwner",
            "outputs": [
                {
                    "internalType": "address",
                    "name": "",
                    "type": "address"
                }
            ],
            "stateMutability": "view",
            "type": "function"
        },
        {
            "inputs": [],
            "name": "secondsUntilStalePrice",
            "outputs": [
                {
                    "internalType": "uint256",
                    "name": "",
                    "type": "uint256"
                }
            ],
            "stateMutability": "view",
            "type": "function"
        },
        {
            "inputs": [
                {
                    "internalType": "address",
                    "name": "_trustedContract",
                    "type": "address"
                }
            ],
            "name": "toggleTrustedContract",
            "outputs": [],
            "stateMutability": "nonpayable",
            "type": "function"
        },
        {
            "inputs": [
                {
                    "internalType": "address",
                    "name": "newOwner",
                    "type": "address"
                }
            ],
            "name": "transferOwnership",
            "outputs": [],
            "stateMutability": "nonpayable",
            "type": "function"
        },
        {
            "inputs": [
                {
                    "internalType": "address",
                    "name": "",
                    "type": "address"
                }
            ],
            "name": "trustedContracts",
            "outputs": [
                {
                    "internalType": "bool",
                    "name": "",
                    "type": "bool"
                }
            ],
            "stateMutability": "view",
            "type": "function"
        },
        {
            "inputs": [
                {
                    "internalType": "uint256",
                    "name": "_burnFee",
                    "type": "uint256"
                }
            ],
            "name": "updateBurnFee",
            "outputs": [],
            "stateMutability": "nonpayable",
            "type": "function"
        },
        {
            "inputs": [
                {
                    "internalType": "address",
                    "name": "_collateralAsset",
                    "type": "address"
                },
                {
                    "internalType": "uint256",
                    "name": "_factor",
                    "type": "uint256"
                },
                {
                    "internalType": "address",
                    "name": "_oracle",
                    "type": "address"
                }
            ],
            "name": "updateCollateralAsset",
            "outputs": [],
            "stateMutability": "nonpayable",
            "type": "function"
        },
        {
            "inputs": [
                {
                    "internalType": "address",
                    "name": "_feeRecipient",
                    "type": "address"
                }
            ],
            "name": "updateFeeRecipient",
            "outputs": [],
            "stateMutability": "nonpayable",
            "type": "function"
        },
        {
            "inputs": [
                {
                    "internalType": "address",
                    "name": "_kreskoAsset",
                    "type": "address"
                },
                {
                    "internalType": "uint256",
                    "name": "_kFactor",
                    "type": "uint256"
                },
                {
                    "internalType": "address",
                    "name": "_oracle",
                    "type": "address"
                },
                {
                    "internalType": "bool",
                    "name": "_mintable",
                    "type": "bool"
                },
                {
                    "internalType": "uint256",
                    "name": "_marketCapUSDLimit",
                    "type": "uint256"
                }
            ],
            "name": "updateKreskoAsset",
            "outputs": [],
            "stateMutability": "nonpayable",
            "type": "function"
        },
        {
            "inputs": [
                {
                    "internalType": "uint256",
                    "name": "_liquidationIncentiveMultiplier",
                    "type": "uint256"
                }
            ],
            "name": "updateLiquidationIncentiveMultiplier",
            "outputs": [],
            "stateMutability": "nonpayable",
            "type": "function"
        },
        {
            "inputs": [
                {
                    "internalType": "uint256",
                    "name": "_minimumCollateralizationRatio",
                    "type": "uint256"
                }
            ],
            "name": "updateMinimumCollateralizationRatio",
            "outputs": [],
            "stateMutability": "nonpayable",
            "type": "function"
        },
        {
            "inputs": [
                {
                    "internalType": "uint256",
                    "name": "_minimumDebtValue",
                    "type": "uint256"
                }
            ],
            "name": "updateMinimumDebtValue",
            "outputs": [],
            "stateMutability": "nonpayable",
            "type": "function"
        },
        {
            "inputs": [
                {
                    "internalType": "uint256",
                    "name": "_secondsUntilStalePrice",
                    "type": "uint256"
                }
            ],
            "name": "updateSecondsUntilStalePrice",
            "outputs": [],
            "stateMutability": "nonpayable",
            "type": "function"
        },
        {
            "inputs": [
                {
                    "internalType": "address",
                    "name": "_account",
                    "type": "address"
                },
                {
                    "internalType": "address",
                    "name": "_collateralAsset",
                    "type": "address"
                },
                {
                    "internalType": "uint256",
                    "name": "_amount",
                    "type": "uint256"
                },
                {
                    "internalType": "uint256",
                    "name": "_depositedCollateralAssetIndex",
                    "type": "uint256"
                }
            ],
            "name": "withdrawCollateral",
            "outputs": [],
            "stateMutability": "nonpayable",
            "type": "function"
        },
        {
            "inputs": [
                {
                    "internalType": "address",
                    "name": "_account",
                    "type": "address"
                },
                {
                    "internalType": "address",
                    "name": "_collateralAsset",
                    "type": "address"
                },
                {
                    "internalType": "uint256",
                    "name": "_amount",
                    "type": "uint256"
                },
                {
                    "internalType": "uint256",
                    "name": "_depositedCollateralAssetIndex",
                    "type": "uint256"
                }
            ],
            "name": "withdrawRebasingCollateral",
            "outputs": [],
            "stateMutability": "nonpayable",
            "type": "function"
        }
    ],
    "transactionHash": "0xb9ed4dd51032a6e84c9b3f106538d2889bec87b990db7e7b9f14b2e91bf2b5b6",
    "args": [],
    "numDeployments": 1,
    "solcInputHash": "b2477b9f303919a3ac017b4ecb0d8a20",
    "bytecode": "0x60806040523480156200001157600080fd5b50600054610100900460ff166200002f5760005460ff161562000039565b62000039620000de565b620000a15760405162461bcd60e51b815260206004820152602e60248201527f496e697469616c697a61626c653a20636f6e747261637420697320616c72656160448201526d191e481a5b9a5d1a585b1a5e995960921b606482015260840160405180910390fd5b600054610100900460ff16158015620000c4576000805461ffff19166101011790555b8015620000d7576000805461ff00191690555b5062000102565b6000620000f630620000fc60201b6200430f1760201c565b15905090565b3b151590565b615d9f80620001126000396000f3fe608060405234801561001057600080fd5b50600436106103835760003560e01c8063b204f155116101de578063e3f06d7b1161010f578063f5e6546c116100ad578063fcf6b5851161007c578063fcf6b5851461092d578063fe87151414610940578063fe93ec0614610848578063ff1389c51461095357600080fd5b8063f5e6546c146108ea578063f970c3b7146108fd578063f9bbba4a14610910578063fce589d81461092357600080fd5b8063edbcc146116100e9578063edbcc14614610848578063efa80e86146108b1578063f160d369146108c4578063f2fde38b146108d757600080fd5b8063e3f06d7b14610868578063e419f7091461087b578063e5919a4f1461088e57600080fd5b8063ca5115a21161017c578063d63b4a6611610156578063d63b4a66146107a2578063d7bfcecd146107b5578063dd0081c714610848578063e30c39781461085757600080fd5b8063ca5115a214610772578063cc530a4b14610785578063d127bad11461079857600080fd5b8063c18ed630116101b8578063c18ed6301461072d578063c744ebf114610740578063c8b91e281461074f578063c94ca11e1461075f57600080fd5b8063b204f155146106fe578063b58cfb0b14610711578063be2801b51461071a57600080fd5b806350e8676c116102b857806371e36753116102565780638da5cb5b116102305780638da5cb5b146106775780638fbce768146106885780639b177c1914610692578063a61d1d51146106c857600080fd5b806371e367531461063e5780637932d4cf146106515780637d1a44501461066457600080fd5b806369a7d52c1161029257806369a7d52c146105e55780636bf72d1d146105f85780636cceec251461060b5780636d38822a1461061e57600080fd5b806350e8676c1461052a578063539097271461053857806355ebc57a146105d257600080fd5b80632f3bc67a116103255780633a2d4eb6116102ff5780633a2d4eb6146104bc5780633ae000c0146104cf57806346904840146104f75780634e71e0c81461052257600080fd5b80632f3bc67a1461047457806334923cd81461048757806337e6c1fd146104b257600080fd5b806312dd8bdb1161036157806312dd8bdb146103fd5780631593738214610410578063166e3a05146104235780632dd555cd1461046157600080fd5b8063052dda6f14610388578063067dc289146103af5780630c65e07b146103c4575b600080fd5b61039b61039636600461557b565b610966565b604051905181526020015b60405180910390f35b6103c26103bd3660046155a7565b610a19565b005b6103ef6103d23660046155ed565b60a060209081526000928352604080842090915290825290205481565b6040519081526020016103a6565b6103c261040b366004615626565b610d6c565b6103c261041e36600461564d565b610ea2565b6104516104313660046156de565b805160208183018101805160a38252928201919093012091525460ff1681565b60405190151581526020016103a6565b6103c261046f36600461578f565b611504565b6103ef6104823660046155ed565b6116bf565b6103ef6104953660046155ed565b60a460209081526000928352604080842090915290825290205481565b609b546103ef9081565b6103c26104ca366004615626565b611749565b6104e26104dd3660046157d1565b611827565b604080519251835290516020830152016103a6565b609a5461050a906001600160a01b031681565b6040516001600160a01b0390911681526020016103a6565b6103c261195b565b6103ef66b1a2bc2ec5000081565b610598610546366004615808565b609f60209081526000918252604091829020825191820190925281548152600182015460029092015490916001600160a01b03908116919081169060ff600160a01b8204811691600160a81b90041685565b60408051955186526001600160a01b039485166020870152929093169184019190915260ff1660608301521515608082015260a0016103a6565b6103c26105e0366004615825565b611a1b565b61039b6105f33660046157d1565b611d95565b6103c2610606366004615880565b611ebf565b6103c26106193660046158d0565b611fbc565b61063161062c366004615808565b6124d4565b6040516103a6919061597c565b6103c261064c366004615626565b61254a565b61039b61065f3660046159c9565b612627565b61039b610672366004615808565b6128c2565b6033546001600160a01b031661050a565b609d546103ef9081565b6104516106a0366004615808565b6001600160a01b0316600090815260a26020526040902060010154600160a01b900460ff1690565b6104516106d6366004615808565b6001600160a01b03166000908152609f6020526040902060020154600160a81b900460ff1690565b6103c261070c366004615808565b6129d7565b6103ef609e5481565b610451610728366004615808565b612a7a565b61050a61073b36600461557b565b612aa9565b6103ef671158e460913d000081565b6103ef683635c9adc5dea0000081565b6103c261076d366004615a09565b612ae1565b6103c2610780366004615a5c565b612efd565b6103c26107933660046155a7565b6131c8565b609c546103ef9081565b6103ef6107b03660046155ed565b613442565b6108116107c3366004615808565b60a260209081526000918252604091829020825191820190925281548152600182015460029092015490916001600160a01b0381169160ff600160a01b8304811692600160a81b9004169085565b60408051955186526001600160a01b039094166020860152911515928401929092529015156060830152608082015260a0016103a6565b6103ef670de0b6b3a764000081565b6034546001600160a01b031661050a565b6103c2610876366004615a5c565b6134c6565b61050a61088936600461557b565b613ad1565b61045161089c366004615808565b60986020526000908152604090205460ff1681565b6106316108bf366004615808565b613aed565b6103c26108d2366004615808565b613b61565b6103c26108e5366004615808565b613c49565b6103c26108f83660046155a7565b613d19565b6103c261090b366004615a5c565b613eb6565b6103c261091e366004615626565b613fa5565b6099546103ef9081565b6103c261093b366004615626565b614084565b61039b61094e366004615808565b6140ff565b61039b610961366004615808565b614207565b6040805160208101909152600081526001600160a01b038316600090815260a260205260409020600101548390600160a01b900460ff166109e25760405162461bcd60e51b815260206004820152601160248201527012d48e88085adc905cdcd95d115e1a5cdd607a1b60448201526064015b60405180910390fd5b60006109f085856000611d95565b6040805160208101909152609c548152909150610a0e908290614315565b9250505b5092915050565b60026066541415610a6c5760405162461bcd60e51b815260206004820152601f60248201527f5265656e7472616e637947756172643a207265656e7472616e742063616c6c0060448201526064016109d9565b60026066556001600160a01b038316600090815260a260205260409020600101548390600160a01b900460ff16610ad95760405162461bcd60e51b815260206004820152601160248201527012d48e88085adc905cdcd95d115e1a5cdd607a1b60448201526064016109d9565b6001600160a01b0385163314801590610b4b573360009081526098602052604090205460ff16610b4b5760405162461bcd60e51b815260206004820152601760248201527f4b523a20556e617574686f72697a65642063616c6c657200000000000000000060448201526064016109d9565b60008411610b9b5760405162461bcd60e51b815260206004820152600a60248201527f4b523a20302d6275726e0000000000000000000000000000000000000000000060448201526064016109d9565b6001600160a01b03808716600090815260a4602090815260408083209389168352929052205480851115610c115760405162461bcd60e51b815260206004820152601160248201527f4b523a20616d6f756e74203e206465627400000000000000000000000000000060448201526064016109d9565b6040805160208101909152609d548152610c4290610c3a88610c338986615ab3565b6001611d95565b905190511090565b15610c4b578094505b6001600160a01b03808816600090815260a460209081526040808320938a1683529290529081208054879290610c82908490615ab3565b909155505084811415610cb2576001600160a01b038716600090815260a560205260409020610cb290878661435d565b610cbd87878761449e565b604051632770a7eb60e21b8152336004820152602481018690526001600160a01b03871690639dc29fac90604401600060405180830381600087803b158015610d0557600080fd5b505af1158015610d19573d6000803e3d6000fd5b5050505084866001600160a01b0316886001600160a01b03167f8af4d455a89586973d5f67129b1311b10fb5eaa983499b67e11d4a12f721fdad60405160405180910390a4505060016066555050505050565b6033546001600160a01b03163314610db45760405162461bcd60e51b81526020600482018190526024820152600080516020615d7383398151915260448201526064016109d9565b670de0b6b3a7640000811015610e0c5760405162461bcd60e51b815260206004820152601b60248201527f4b523a206c6971496e63656e746976654d756c7469203c206d696e000000000060448201526064016109d9565b671158e460913d0000811115610e645760405162461bcd60e51b815260206004820152601b60248201527f4b523a206c6971496e63656e746976654d756c7469203e206d6178000000000060448201526064016109d9565b60408051602081018252829052609b8290555181907f1b7b34c6d204ac91d0799a1082c5bb302148abed8cf3aca473c01e7e2b44437490600090a250565b60026066541415610ef55760405162461bcd60e51b815260206004820152601f60248201527f5265656e7472616e637947756172643a207265656e7472616e742063616c6c0060448201526064016109d9565b60026066556001600160a01b038616600090815260a26020526040902060010154600160a01b900460ff16610f605760405162461bcd60e51b815260206004820152601160248201527012d48e88085adc905cdcd95d115e1a5cdd607a1b60448201526064016109d9565b6001600160a01b0384166000908152609f6020526040902060020154600160a81b900460ff16610fca5760405162461bcd60e51b81526020600482015260156024820152744b523a2021636f6c6c61746572616c45786973747360581b60448201526064016109d9565b6000851161101a5760405162461bcd60e51b815260206004820152600b60248201527f4b523a20302d726570617900000000000000000000000000000000000000000060448201526064016109d9565b6001600160a01b03808716600090815260a260209081526040808320600101548151634102dfb560e11b8152915193941692638205bf6a926004808401939192918290030181865afa158015611074573d6000803e3d6000fd5b505050506040513d601f19601f820116820180604052508101906110989190615aca565b9050609e54816110a89190615ae3565b42106110e85760405162461bcd60e51b815260206004820152600f60248201526e4b523a207374616c6520707269636560881b60448201526064016109d9565b336001600160a01b03891614156111415760405162461bcd60e51b815260206004820152601460248201527f4b523a2073656c66206c69717569646174696f6e00000000000000000000000060448201526064016109d9565b61114a88612a7a565b6111965760405162461bcd60e51b815260206004820152601860248201527f4b523a20216163636f756e744c6971756964617461626c65000000000000000060448201526064016109d9565b506040805160208082018084526001600160a01b03808b16600090815260a28452858120600101546350d25bcd60e01b909352945161123794938493909216916350d25bcd9160248086019291908187030181865afa1580156111fd573d6000803e3d6000fd5b505050506040513d601f19601f820116820180604052508101906112219190615aca565b9052604080516020810190915288815290614315565b6001600160a01b03808a16600090815260a460209081526040808320938c1683529290529081205491925061126d8a8a89612627565b9050878210156112bf5760405162461bcd60e51b815260206004820152601c60248201527f4b523a207265706179416d6f756e74203e2064656274416d6f756e740000000060448201526064016109d9565b8051835111156113115760405162461bcd60e51b815260206004820152601560248201527f4b523a207265706179555344203e206d6178555344000000000000000000000060448201526064016109d9565b506040805160208082018084526001600160a01b03808b166000908152609f8452858120600101546350d25bcd60e01b9093529451849392909116916350d25bcd9160248086019291908187030181865afa158015611374573d6000803e3d6000fd5b505050506040513d601f19601f820116820180604052508101906113989190615aca565b90526040805160208101909152609b5481529091506000906113fe908c9085908c906113f5906113c990888b614742565b6001600160a01b038e166000908152609f6020526040902060020154600160a01b900460ff1690614764565b8e8c8e8d6147c3565b905061140b8b8b8b61449e565b604051632770a7eb60e21b8152336004820152602481018a90526001600160a01b038b1690639dc29fac90604401600060405180830381600087803b15801561145357600080fd5b505af1158015611467573d6000803e3d6000fd5b5050505060008561148557611480898c8c8589886148d4565b611487565b815b905061149d6001600160a01b038a163383614a82565b604080518b81526001600160a01b038b81166020830152918101839052818d16913391908f16907f742b0f459021eca6a76aa1a0ccaac62b9edabac406c61ac97d83dc4132d731a29060600160405180910390a45050600160665550505050505050505050565b6033546001600160a01b0316331461154c5760405162461bcd60e51b81526020600482018190526024820152600080516020615d7383398151915260448201526064016109d9565b6001600160a01b0383166000908152609f60205260409020600201548390600160a81b900460ff166115b85760405162461bcd60e51b81526020600482015260156024820152744b523a2021636f6c6c61746572616c45786973747360581b60448201526064016109d9565b6001600160a01b0382166116005760405162461bcd60e51b815260206004820152600f60248201526e25a91d1010b7b930b1b632a0b2323960891b60448201526064016109d9565b61160c6012600a615bdf565b83111561164e5760405162461bcd60e51b815260206004820152601060248201526f04b523a20666163746f72203e203146560841b60448201526064016109d9565b60408051602080820183528582526001600160a01b038781166000818152609f90935284832093518455600190930180546001600160a01b031916918716918217905592518692917f92645c693ce6964d8cc494cda3b2f70ffdac5b3a7b7fbccc34609741a818119491a450505050565b60005b6001600160a01b038316600090815260a16020526040902054811015611743576001600160a01b03838116600090815260a1602052604090208054918416918390811061171157611711615beb565b6000918252602090912001546001600160a01b0316141561173157611743565b8061173b81615c01565b9150506116c2565b92915050565b6033546001600160a01b031633146117915760405162461bcd60e51b81526020600482018190526024820152600080516020615d7383398151915260448201526064016109d9565b670de0b6b3a76400008110156117e95760405162461bcd60e51b815260206004820152601c60248201527f4b523a206d696e436f6c6c61746572616c526174696f203c206d696e0000000060448201526064016109d9565b60408051602081018252829052609c8290555181907f05eb44cf9a95cea4348c602716dd1baaf91d47819d797cffe9ada14069da8e0e90600090a250565b60408051602080820183526000808352835180830185528181526001600160a01b038881168352609f8452858320865160c081018852815460a0820190815281526001820154831695810195909552600201549081169584019590955260ff600160a01b8604811660608501819052600160a81b909604161515608084015292936118b29087614b17565b90506000604051806020016040528084602001516001600160a01b03166350d25bcd6040518163ffffffff1660e01b8152600401602060405180830381865afa158015611903573d6000803e3d6000fd5b505050506040513d601f19601f820116820180604052508101906119279190615aca565b9052905060006119378383614315565b90508661194e57835161194b908290614315565b90505b9890975095505050505050565b6034546001600160a01b031633146119b55760405162461bcd60e51b815260206004820181905260248201527f4f776e61626c653a2063616c6c657220213d2070656e64696e67206f776e657260448201526064016109d9565b6034546033546040516001600160a01b0392831692909116907f8be0079c531659141344cd1fd0a4f28419497f9722a3daafe3b4186f6b6457e090600090a360348054603380546001600160a01b03199081166001600160a01b03841617909155169055565b6033546001600160a01b03163314611a635760405162461bcd60e51b81526020600482018190526024820152600080516020615d7383398151915260448201526064016109d9565b6001600160a01b038516600090815260a260205260409020600101548590600160a01b900460ff16611acb5760405162461bcd60e51b815260206004820152601160248201527012d48e88085adc905cdcd95d115e1a5cdd607a1b60448201526064016109d9565b611ad76012600a615bdf565b851015611b265760405162461bcd60e51b815260206004820152601160248201527f4b523a206b466163746f72203c2031465000000000000000000000000000000060448201526064016109d9565b6001600160a01b038416611b6e5760405162461bcd60e51b815260206004820152600f60248201526e25a91d1010b7b930b1b632a0b2323960891b60448201526064016109d9565b600060a26000886001600160a01b03166001600160a01b031681526020019081526020016000206040518060a00160405290816000820160405180602001604052908160008201548152505081526020016001820160009054906101000a90046001600160a01b03166001600160a01b03166001600160a01b031681526020016001820160149054906101000a900460ff161515151581526020016001820160159054906101000a900460ff16151515158152602001600282015481525050905060405180602001604052808781525081600001819052508481602001906001600160a01b031690816001600160a01b03168152505083816060019015159081151581525050828160800181815250508060a26000896001600160a01b03166001600160a01b0316815260200190815260200160002060008201518160000160008201518160000155505060208201518160010160006101000a8154816001600160a01b0302191690836001600160a01b0316021790555060408201518160010160146101000a81548160ff02191690831515021790555060608201518160010160156101000a81548160ff02191690831515021790555060808201518160020155905050846001600160a01b031686886001600160a01b03167fd4be558c3d6665224cb3fb077d4ac0af3486eca045636a54d9457bf3f3165e8f8787604051611d849291909115158252602082015260400190565b60405180910390a450505050505050565b6040805160208101909152600081526001600160a01b03808516600090815260a260209081526040808320815160c081018352815460a082019081528152600182015480871682860190815260ff600160a01b83048116151584870152600160a81b909204909116151560608301526002909201546080820152825180850180855292516350d25bcd60e01b909352925190959293849392909216916350d25bcd9160248086019291908187030181865afa158015611e58573d6000803e3d6000fd5b505050506040513d601f19601f82011682018060405250810190611e7c9190615aca565b90526040805160208101909152868152909150600090611e9c9083614315565b905084611eb3578251611eb0908290614315565b90505b925050505b9392505050565b600054610100900460ff16611eda5760005460ff1615611ede565b303b155b611f415760405162461bcd60e51b815260206004820152602e60248201527f496e697469616c697a61626c653a20636f6e747261637420697320616c72656160448201526d191e481a5b9a5d1a585b1a5e995960921b60648201526084016109d9565b600054610100900460ff16158015611f63576000805461ffff19166101011790555b611f6b614b86565b611f748761254a565b611f7d86613b61565b611f8685610d6c565b611f8f84611749565b611f9883613fa5565b611fa182614084565b8015611fb3576000805461ff00191690555b50505050505050565b6033546001600160a01b031633146120045760405162461bcd60e51b81526020600482018190526024820152600080516020615d7383398151915260448201526064016109d9565b8484806120535760405162461bcd60e51b815260206004820152600b60248201527f4b523a2021737472696e6700000000000000000000000000000000000000000060448201526064016109d9565b6001600160a01b038816600090815260a26020526040902060010154889088908890600160a01b900460ff16156120cc5760405162461bcd60e51b815260206004820152601160248201527f4b523a206b72417373657445786973747300000000000000000000000000000060448201526064016109d9565b60a382826040516120de929190615c1c565b9081526040519081900360200190205460ff161561213e5760405162461bcd60e51b815260206004820152601060248201527f4b523a2073796d626f6c4578697374730000000000000000000000000000000060448201526064016109d9565b61214a6012600a615bdf565b8810156121995760405162461bcd60e51b815260206004820152601160248201527f4b523a206b466163746f72203c2031465000000000000000000000000000000060448201526064016109d9565b6001600160a01b0387166121e15760405162461bcd60e51b815260206004820152600f60248201526e25a91d1010b7b930b1b632a0b2323960891b60448201526064016109d9565b60008b9050806001600160a01b03166391d14854826001600160a01b031663f5b541a66040518163ffffffff1660e01b81526004016020604051808303816000875af1158015612235573d6000803e3d6000fd5b505050506040513d601f19601f820116820180604052508101906122599190615aca565b6040517fffffffff0000000000000000000000000000000000000000000000000000000060e084901b16815260048101919091523060248201526044016020604051808303816000875af11580156122b5573d6000803e3d6000fd5b505050506040513d601f19601f820116820180604052508101906122d99190615c2c565b6123255760405162461bcd60e51b815260206004820152601260248201527f4b523a202161737365744f70657261746f72000000000000000000000000000060448201526064016109d9565b600160a38c8c604051612339929190615c1c565b908152602001604051809103902060006101000a81548160ff0219169083151502179055506040518060a0016040528060405180602001604052808c8152508152602001896001600160a01b031681526020016001151581526020016001151581526020018881525060a260008e6001600160a01b03166001600160a01b0316815260200190815260200160002060008201518160000160008201518160000155505060208201518160010160006101000a8154816001600160a01b0302191690836001600160a01b0316021790555060408201518160010160146101000a81548160ff02191690831515021790555060608201518160010160156101000a81548160ff02191690831515021790555060808201518160020155905050888b8b604051612467929190615c1c565b60405180910390208d6001600160a01b03167f856f8fe3226e0a5efceedda3cc28003a67ae4be22c46969755433f4c0d47a0038b8b6040516124be9291906001600160a01b03929092168252602082015260400190565b60405180910390a4505050505050505050505050565b6001600160a01b038116600090815260a1602090815260409182902080548351818402810184019094528084526060939283018282801561253e57602002820191906000526020600020905b81546001600160a01b03168152600190910190602001808311612520575b50505050509050919050565b6033546001600160a01b031633146125925760405162461bcd60e51b81526020600482018190526024820152600080516020615d7383398151915260448201526064016109d9565b66b1a2bc2ec500008111156125e95760405162461bcd60e51b815260206004820152601160248201527f4b523a206275726e466565203e206d617800000000000000000000000000000060448201526064016109d9565b6040805160208101825282905260998290555181907fd54296e32811a7f2da2c1f6e8b39cb815ce208595da09bb98b034ccca6dffc6990600090a250565b604080516020808201835260008083526001600160a01b03878116825260a48352848220908716825290915291822054909190612665908590610966565b6001600160a01b03808716600090815260a0602090815260408083209388168352929052908120549192509061269d90859083611827565b5090506126ad8183519051101590565b156126cb576040518060200160405280600081525092505050611eb8565b6001600160a01b03808616600090815260a26020908152604080832081518084018352905481529388168352609f82528083208151928301909152548152906127148585614c4e565b604080516020808201835260995482528251908101909252609b5482529192506000916127719161275091869161274a91614c4e565b90614315565b6040805160208101909152609c54815261276b908790614315565b90614c4e565b905061277d8282614c78565b604080516020808201835260995482528251908101909252609b5482529198506000916127c0916127b9916127b29190614cb9565b8790614315565b8990614c78565b90506127ce81875190511190565b156127ea576127e76127e08285614c78565b8790614c78565b97505b6001600160a01b038b16600090815260a16020526040902054600110801561281f575061281f84670de0b6b3a7640000614ce3565b1561288b57604080516020808201835260995482528251908101909252670de0b6b3a7640000825261287d9161285491614cb9565b61274a61287661286f612868896004614cfa565b8b90614315565b8c90614c78565b8b90614c78565b975050505050505050611eb8565b604080516020808201835260995482528251908101909252670de0b6b3a7640000825261287d916128bb91614cb9565b8990614315565b60408051602080820183526000808352835180830185528181526001600160a01b038616825260a1835284822080548651818602810186019097528087529495919492939192909183018282801561294357602002820191906000526020600020905b81546001600160a01b03168152600190910190602001808311612925575b5050505050905060005b81518110156129ce57600082828151811061296a5761296a615beb565b6020908102919091018101516001600160a01b03808916600090815260a0845260408082209284168252919093528220549092506129aa90839083611827565b5090506129b78582614cb9565b9450505080806129c690615c01565b91505061294d565b50909392505050565b6033546001600160a01b03163314612a1f5760405162461bcd60e51b81526020600482018190526024820152600080516020615d7383398151915260448201526064016109d9565b6001600160a01b038116600081815260986020526040808220805460ff81161560ff19909116811790915590519092839290917fe2ad9d0600e2a93ef46991efd2c22f65f9ebe472487cc7551647bc52d79328999190a35050565b600080612a86836128c2565b90506000612a93846140ff565b9050612aa182825190511090565b949350505050565b60a56020528160005260406000208181548110612ac557600080fd5b6000918252602090912001546001600160a01b03169150829050565b60026066541415612b345760405162461bcd60e51b815260206004820152601f60248201527f5265656e7472616e637947756172643a207265656e7472616e742063616c6c0060448201526064016109d9565b60026066556033546001600160a01b03163314612b815760405162461bcd60e51b81526020600482018190526024820152600080516020615d7383398151915260448201526064016109d9565b6001600160a01b0384166000908152609f60205260409020600201548490600160a81b900460ff1615612bf65760405162461bcd60e51b815260206004820152601460248201527f4b523a20636f6c6c61746572616c45786973747300000000000000000000000060448201526064016109d9565b6001600160a01b038516612c4c5760405162461bcd60e51b815260206004820152601360248201527f4b523a2021636f6c6c61746572616c416464720000000000000000000000000060448201526064016109d9565b612c586012600a615bdf565b841115612c9a5760405162461bcd60e51b815260206004820152601060248201526f04b523a20666163746f72203e203146560841b60448201526064016109d9565b6001600160a01b038316612ce25760405162461bcd60e51b815260206004820152600f60248201526e25a91d1010b7b930b1b632a0b2323960891b60448201526064016109d9565b600082612cf0576000612d54565b856001600160a01b0316632495a5996040518163ffffffff1660e01b81526004016020604051808303816000875af1158015612d30573d6000803e3d6000fd5b505050506040513d601f19601f82011682018060405250810190612d549190615c49565b90506040518060a001604052806040518060200160405280888152508152602001856001600160a01b03168152602001826001600160a01b03168152602001876001600160a01b031663313ce5676040518163ffffffff1660e01b8152600401602060405180830381865afa158015612dd1573d6000803e3d6000fd5b505050506040513d601f19601f82011682018060405250810190612df59190615c66565b60ff9081168252600160209283018190526001600160a01b038a81166000818152609f8652604080822088515181559688015194870180546001600160a01b03191695851695909517909455868401516002909601805460608901516080909901519785167fffffffffffffffffffffff00000000000000000000000000000000000000000090911617600160a01b9890961697909702949094177fffffffffffffffffffff00ffffffffffffffffffffffffffffffffffffffffff16600160a81b951515959095029490941790945551928716928892917fbbed29325d56bc78244a08bc7ec9bcc8a4f4158eae5fa3be7ce21ebdb746845591a45050600160665550505050565b60026066541415612f505760405162461bcd60e51b815260206004820152601f60248201527f5265656e7472616e637947756172643a207265656e7472616e742063616c6c0060448201526064016109d9565b600260668190556001600160a01b0383166000908152609f6020526040902001548290600160a81b900460ff16612fc15760405162461bcd60e51b81526020600482015260156024820152744b523a2021636f6c6c61746572616c45786973747360581b60448201526064016109d9565b600082116130015760405162461bcd60e51b815260206004820152600d60248201526c12d48e880c0b59195c1bdcda5d609a1b60448201526064016109d9565b6001600160a01b038084166000908152609f6020526040902060020154168061306c5760405162461bcd60e51b815260206004820152601360248201527f4b523a20214e525754436f6c6c61746572616c0000000000000000000000000060448201526064016109d9565b6130816001600160a01b038216333086614d3e565b60405163095ea7b360e01b81526001600160a01b0385811660048301526024820185905282169063095ea7b3906044016020604051808303816000875af11580156130d0573d6000803e3d6000fd5b505050506040513d601f19601f820116820180604052508101906130f49190615c2c565b6131405760405162461bcd60e51b815260206004820152601060248201527f4b523a20417070726f76616c4661696c0000000000000000000000000000000060448201526064016109d9565b60405163b9f5be4160e01b8152600481018490526000906001600160a01b0386169063b9f5be41906024016020604051808303816000875af115801561318a573d6000803e3d6000fd5b505050506040513d601f19601f820116820180604052508101906131ae9190615aca565b90506131bb868683614d7c565b5050600160665550505050565b6002606654141561321b5760405162461bcd60e51b815260206004820152601f60248201527f5265656e7472616e637947756172643a207265656e7472616e742063616c6c0060448201526064016109d9565b600260668190556001600160a01b0384166000908152609f6020526040902001548390600160a81b900460ff1661328c5760405162461bcd60e51b81526020600482015260156024820152744b523a2021636f6c6c61746572616c45786973747360581b60448201526064016109d9565b6001600160a01b03851633148015906132fe573360009081526098602052604090205460ff166132fe5760405162461bcd60e51b815260206004820152601760248201527f4b523a20556e617574686f72697a65642063616c6c657200000000000000000060448201526064016109d9565b6001600160a01b03808716600090815260a06020908152604080832093891683529290522054808511156133325780613334565b845b94506133438787878488614e82565b6001600160a01b038087166000908152609f602052604090206002015416806133ae5760405162461bcd60e51b815260206004820152601360248201527f4b523a20214e525754436f6c6c61746572616c0000000000000000000000000060448201526064016109d9565b6040516301071a2960e41b8152600481018790526000906001600160a01b03891690631071a290906024016020604051808303816000875af11580156133f8573d6000803e3d6000fd5b505050506040513d601f19601f8201168201806040525081019061341c9190615aca565b90506134326001600160a01b0383168a83614a82565b5050600160665550505050505050565b60005b6001600160a01b038316600090815260a56020526040902054811015611743576001600160a01b03838116600090815260a5602052604090208054918416918390811061349457613494615beb565b6000918252602090912001546001600160a01b031614156134b457611743565b806134be81615c01565b915050613445565b600260665414156135195760405162461bcd60e51b815260206004820152601f60248201527f5265656e7472616e637947756172643a207265656e7472616e742063616c6c0060448201526064016109d9565b60026066556001600160a01b038216600090815260a260205260409020600101548290600160a01b900460ff166135865760405162461bcd60e51b815260206004820152601160248201527012d48e88085adc905cdcd95d115e1a5cdd607a1b60448201526064016109d9565b6001600160a01b038116600090815260a26020526040902060010154600160a81b900460ff166135f85760405162461bcd60e51b815260206004820152601460248201527f4b523a20216b7241737365744d696e7461626c6500000000000000000000000060448201526064016109d9565b6001600160a01b03808416600090815260a260209081526040808320600101548151634102dfb560e11b8152915188959190911692638205bf6a92600480820193918290030181865afa158015613653573d6000803e3d6000fd5b505050506040513d601f19601f820116820180604052508101906136779190615aca565b9050609e54816136879190615ae3565b42106136c75760405162461bcd60e51b815260206004820152600f60248201526e4b523a207374616c6520707269636560881b60448201526064016109d9565b6001600160a01b0386163314801590613739573360009081526098602052604090205460ff166137395760405162461bcd60e51b815260206004820152601760248201527f4b523a20556e617574686f72697a65642063616c6c657200000000000000000060448201526064016109d9565b600085116137895760405162461bcd60e51b815260206004820152600a60248201527f4b523a20302d6d696e740000000000000000000000000000000000000000000060448201526064016109d9565b60a26000876001600160a01b03166001600160a01b03168152602001908152602001600020600201546138238787896001600160a01b03166318160ddd6040518163ffffffff1660e01b8152600401602060405180830381865afa1580156137f5573d6000803e3d6000fd5b505050506040513d601f19601f820116820180604052508101906138199190615aca565b610c339190615ae3565b5111156138725760405162461bcd60e51b815260206004820152600c60248201527f4b523a204d43206c696d6974000000000000000000000000000000000000000060448201526064016109d9565b600061387d886128c2565b9050600061388a896140ff565b905060006138988989610966565b90506138b1836138a88484614cb9565b90519051111590565b6138fd5760405162461bcd60e51b815260206004820152601a60248201527f4b523a20696e73756666696369656e74436f6c6c61746572616c00000000000060448201526064016109d9565b6001600160a01b03808b16600090815260a460209081526040808320938d16835292815290829020548251918201909252609d54815261394e906139458c610c338d86615ae3565b90519051101590565b61399a5760405162461bcd60e51b815260206004820152601560248201527f4b523a2062656c6f774d696e4465627456616c7565000000000000000000000060448201526064016109d9565b806139de576001600160a01b038b8116600090815260a5602090815260408220805460018101825590835291200180546001600160a01b031916918c169190911790555b6139e88982615ae3565b6001600160a01b03808d16600090815260a460209081526040808320938f1680845293909152908190209290925590516340c10f1960e01b81526340c10f1990613a4c908e908d906004016001600160a01b03929092168252602082015260400190565b600060405180830381600087803b158015613a6657600080fd5b505af1158015613a7a573d6000803e3d6000fd5b50505050888a6001600160a01b03168c6001600160a01b03167f374b9a23ebe50f7d174c40fdd6a3085177f4efbd8560db9a6b034a695b1f070f60405160405180910390a450506001606655505050505050505050565b60a16020528160005260406000208181548110612ac557600080fd5b6001600160a01b038116600090815260a5602090815260409182902080548351818402810184019094528084526060939283018282801561253e576020028201919060005260206000209081546001600160a01b031681526001909101906020018083116125205750505050509050919050565b6033546001600160a01b03163314613ba95760405162461bcd60e51b81526020600482018190526024820152600080516020615d7383398151915260448201526064016109d9565b6001600160a01b038116613bff5760405162461bcd60e51b815260206004820152601160248201527f4b523a2021666565526563697069656e7400000000000000000000000000000060448201526064016109d9565b609a80546001600160a01b0319166001600160a01b0383169081179091556040517f7a7b5a0a132f9e0581eb8527f66eae9ee89c2a3e79d4ac7e41a1f1f4d48a7fc290600090a250565b6033546001600160a01b03163314613c915760405162461bcd60e51b81526020600482018190526024820152600080516020615d7383398151915260448201526064016109d9565b6001600160a01b038116613d0d5760405162461bcd60e51b815260206004820152602660248201527f4f776e61626c653a206e6577206f776e657220697320746865207a65726f206160448201527f646472657373000000000000000000000000000000000000000000000000000060648201526084016109d9565b613d1681614ffd565b50565b60026066541415613d6c5760405162461bcd60e51b815260206004820152601f60248201527f5265656e7472616e637947756172643a207265656e7472616e742063616c6c0060448201526064016109d9565b600260668190556001600160a01b0384166000908152609f6020526040902001548390600160a81b900460ff16613ddd5760405162461bcd60e51b81526020600482015260156024820152744b523a2021636f6c6c61746572616c45786973747360581b60448201526064016109d9565b6001600160a01b0385163314801590613e4f573360009081526098602052604090205460ff16613e4f5760405162461bcd60e51b815260206004820152601760248201527f4b523a20556e617574686f72697a65642063616c6c657200000000000000000060448201526064016109d9565b6001600160a01b03808716600090815260a0602090815260408083209389168352929052205480851115613e835780613e85565b845b9450613e948787878488614e82565b613ea86001600160a01b0387168887614a82565b505060016066555050505050565b60026066541415613f095760405162461bcd60e51b815260206004820152601f60248201527f5265656e7472616e637947756172643a207265656e7472616e742063616c6c0060448201526064016109d9565b600260668190556001600160a01b0383166000908152609f6020526040902001548290600160a81b900460ff16613f7a5760405162461bcd60e51b81526020600482015260156024820152744b523a2021636f6c6c61746572616c45786973747360581b60448201526064016109d9565b613f8f6001600160a01b038416333085614d3e565b613f9a848484614d7c565b505060016066555050565b6033546001600160a01b03163314613fed5760405162461bcd60e51b81526020600482018190526024820152600080516020615d7383398151915260448201526064016109d9565b683635c9adc5dea000008111156140465760405162461bcd60e51b815260206004820152601360248201527f4b523a206465627456616c7565203e206d61780000000000000000000000000060448201526064016109d9565b60408051602081018252829052609d8290555181907fbd32948ccd208f8bfa0001b72381d8ba95fbbe73788f0954df68689ef6d111ae90600090a250565b6033546001600160a01b031633146140cc5760405162461bcd60e51b81526020600482018190526024820152600080516020615d7383398151915260448201526064016109d9565b609e81905560405181907fa9148e2577c13396666c5565235419fb1e27d35ea4f9aec7ba3ca7011486855890600090a250565b60408051602080820183526000808352835180830185528181526001600160a01b038616825260a5835284822080548651818602810186019097528087529495919492939192909183018282801561418057602002820191906000526020600020905b81546001600160a01b03168152600190910190602001808311614162575b5050505050905060005b81518110156129ce5760008282815181106141a7576141a7615beb565b6020908102919091018101516001600160a01b03808916600090815260a484526040808220928416825291909352909120549091506141f06141e98383610966565b8690614cb9565b9450505080806141ff90615c01565b91505061418a565b60408051602080820183526000808352835180830185528181526001600160a01b038616825260a5835284822080548651818602810186019097528087529495919492939192909183018282801561428857602002820191906000526020600020905b81546001600160a01b0316815260019091019060200180831161426a575b5050505050905060005b81518110156129ce5760008282815181106142af576142af615beb565b6020908102919091018101516001600160a01b03808916600090815260a4845260408082209284168252919093528220549092506142f9916142f2918491611d95565b8590614cb9565b935050808061430790615c01565b915050614292565b3b151590565b60408051602081019091526000815260405180602001604052806012600a61433d9190615bdf565b8451865161434a9161504f565b6143549190615c89565b90529392505050565b816001600160a01b031683828154811061437957614379615beb565b6000918252602090912001546001600160a01b0316146143db5760405162461bcd60e51b815260206004820152601f60248201527f4172726179733a20696e636f72726563742072656d6f76616c20696e6465780060448201526064016109d9565b82546000906143ec90600190615ab3565b90508082146144665783818154811061440757614407615beb565b9060005260206000200160009054906101000a90046001600160a01b031684838154811061443757614437615beb565b9060005260206000200160006101000a8154816001600160a01b0302191690836001600160a01b031602179055505b8380548061447657614476615cab565b600082815260209020810160001990810180546001600160a01b031916905501905550505050565b6001600160a01b03808316600090815260a260209081526040808320815160c081018352815460a082019081528152600182015480871682860190815260ff600160a01b83048116151584870152600160a81b90920490911615156060830152600290920154608082015282518085018452609954815283518086018552888152845180870180875294516350d25bcd60e01b9095529451929761459f96929561274a95929490938493909216916350d25bcd9160248086019291908187030181865afa158015614573573d6000803e3d6000fd5b505050506040513d601f19601f820116820180604052508101906145979190615aca565b905290614315565b80519091506145af575050505050565b6001600160a01b038516600090815260a1602090815260408083208054825181850281018501909352808352919290919083018282801561461957602002820191906000526020600020905b81546001600160a01b031681526001909101906020018083116145fb575b505050505090506000600182516146309190615ab3565b90505b600082828151811061464757614647615beb565b60200260200101519050600080614660838b888761505b565b6001600160a01b03808d16600090815260a06020908152604080832093891683529290529081208054939550919350849261469c908490615ab3565b9091555050609a546146bb906001600160a01b03858116911684614a82565b81836001600160a01b03168b6001600160a01b03167ff3aa85c774db0dd66de0567be29cdc6872e4709f0374284190d9739ba475bbb8846000015160405161470591815260200190565b60405180910390a46147178682614c4e565b805190965061472c5750505050505050505050565b505050808061473a90615cc1565b915050614633565b604080516020810190915260008152612aa161475e8386614315565b84614c78565b8051600090601284101561479a5761477d846012615ab3565b61478890600a615bdf565b6147929082615c89565b915050611743565b6012841115611eb8576147ae601285615ab3565b6147b990600a615bdf565b6147929082615cd8565b60006147cf8789615ab3565b6001600160a01b03808b16600090815260a460209081526040808320938a168352929052205586881415614820576001600160a01b038916600090815260a56020526040902061482090868661435d565b6001600160a01b03808a16600090815260a0602090815260408083209387168352929052205486811115614883576148588782615ab3565b6001600160a01b03808c16600090815260a060209081526040808320938916835292905220556148c6565b6001600160a01b03808b16600081815260a060209081526040808320948916835293815283822082905591815260a19091522090965086906148c690858561435d565b509498975050505050505050565b33600090815260a4602090815260408083206001600160a01b038916845290915281205481868211614907576000614911565b6149118783615ab3565b9050600082118015614921575080155b15614a1e5733600081815260a4602090815260408083206001600160a01b038d168452825280832085905592825260a5815282822080548451818402810184019095528085529293849390928301828280156149a657602002820191906000526020600020905b81546001600160a01b03168152600190910190602001808311614988575b505050505090505b8051821015614a0157896001600160a01b03168183815181106149d3576149d3615beb565b60200260200101516001600160a01b031614156149ef57614a01565b816149f981615c01565b9250506149ae565b33600090815260a560205260409020614a1b908b8461435d565b50505b6001600160a01b0389166000908152609f6020526040812060020154600160a01b900460ff1690614a538661274a848b614b17565b9050614a73614a6c87614a66848b614c4e565b90614c78565b8390614764565b9b9a5050505050505050505050565b6040516001600160a01b038316602482015260448101829052614b1290849063a9059cbb60e01b906064015b60408051601f198184030181529190526020810180517bffffffffffffffffffffffffffffffffffffffffffffffffffffffff167fffffffff0000000000000000000000000000000000000000000000000000000090931692909217909152615151565b505050565b60408051602081019091526000815260408051602081019091528281526012841015614b5d57614792614b4b856012615ab3565b614b5690600a615bdf565b8290615236565b6012841115611eb857614792614b74601286615ab3565b614b7f90600a615bdf565b829061525e565b600054610100900460ff16614ba15760005460ff1615614ba5565b303b155b614c085760405162461bcd60e51b815260206004820152602e60248201527f496e697469616c697a61626c653a20636f6e747261637420697320616c72656160448201526d191e481a5b9a5d1a585b1a5e995960921b60648201526084016109d9565b600054610100900460ff16158015614c2a576000805461ffff19166101011790555b614c32615286565b614c3a615305565b8015613d16576000805461ff001916905550565b604080516020810190915260008152604080516020810190915282518451829161435491906153fd565b60408051602081019091526000815260405180602001604052806143548460000151614cb36012600a614cab9190615bdf565b88519061504f565b90615409565b60408051602081019091526000815260408051602081019091528251845182916143549190615415565b6000614cee82615421565b51835110905092915050565b604080516020810190915260008152614d136001615421565b905060005b82811015610a1257614d2a8285614315565b9150614d37816001615415565b9050614d18565b6040516001600160a01b0380851660248301528316604482015260648101829052614d769085906323b872dd60e01b90608401614aae565b50505050565b60008111614dbc5760405162461bcd60e51b815260206004820152600d60248201526c12d48e880c0b59195c1bdcda5d609a1b60448201526064016109d9565b6001600160a01b03808416600090815260a0602090815260408083209386168352929052205480614e26576001600160a01b03848116600090815260a1602090815260408220805460018101825590835291200180546001600160a01b0319169185169190911790555b6001600160a01b03808516600081815260a06020908152604080832094881680845294909152808220858701905551859392917ff1c0dd7e9b98bbff859029005ef89b127af049cd18df1a8d79f0b7e019911e5691a450505050565b60008311614ed25760405162461bcd60e51b815260206004820152600e60248201527f4b523a20302d776974686472617700000000000000000000000000000000000060448201526064016109d9565b6000614edd866128c2565b90506000614eed86866000611827565b5090506000614efb886140ff565b9050614f0b816139458585614c4e565b614f575760405162461bcd60e51b815260206004820152601460248201527f4b523a20636f6c6c61746572616c546f6f4c6f7700000000000000000000000060448201526064016109d9565b614f618686615ab3565b6001600160a01b03808a16600090815260a060209081526040808320938c168352929052205585851415614fb2576001600160a01b038816600090815260a160205260409020614fb290888661435d565b85876001600160a01b0316896001600160a01b03167f45892a46e6cef329bb642da6d69846d324db43d19008edc141ed82382eda1bee60405160405180910390a45050505050505050565b603480546001600160a01b0319166001600160a01b03838116918217909255603354604051919216907f23e1f881d1e797ea57a7247e53536f0bfc37c42e6645b3bdc4b1c9a0e0d8a13390600090a350565b6000611eb88284615cd8565b60006150736040518060200160405280600081525090565b6001600160a01b03808616600090815260a060209081526040808320938a1683529290529081205490806150a989846001611827565b915091506150c36040518060200160405280600081525090565b60006150d189855190511090565b156151195761510f6150e38a85614c78565b6001600160a01b038d166000908152609f6020526040902060020154600160a01b900460ff1690614764565b9050889150615142565b50506001600160a01b038816600090815260a16020526040902082908490615142908c8a61435d565b9a909950975050505050505050565b60006151a6826040518060400160405280602081526020017f5361666545524332303a206c6f772d6c6576656c2063616c6c206661696c6564815250856001600160a01b031661545b9092919063ffffffff16565b805190915015614b1257808060200190518101906151c49190615c2c565b614b125760405162461bcd60e51b815260206004820152602a60248201527f5361666545524332303a204552433230206f7065726174696f6e20646964206e60448201527f6f7420737563636565640000000000000000000000000000000000000000000060648201526084016109d9565b604080516020810190915260008152604080516020810190915283518190614354908561504f565b6040805160208101909152600081526040805160208101909152835181906143549085615409565b600054610100900460ff166153035760405162461bcd60e51b815260206004820152602b60248201527f496e697469616c697a61626c653a20636f6e7472616374206973206e6f74206960448201527f6e697469616c697a696e6700000000000000000000000000000000000000000060648201526084016109d9565b565b600054610100900460ff166153205760005460ff1615615324565b303b155b6153875760405162461bcd60e51b815260206004820152602e60248201527f496e697469616c697a61626c653a20636f6e747261637420697320616c72656160448201526d191e481a5b9a5d1a585b1a5e995960921b60648201526084016109d9565b600054610100900460ff161580156153a9576000805461ffff19166101011790555b603380546001600160a01b031916339081179091556040516000907f8be0079c531659141344cd1fd0a4f28419497f9722a3daafe3b4186f6b6457e0908290a38015613d16576000805461ff001916905550565b6000611eb88284615ab3565b6000611eb88284615c89565b6000611eb88284615ae3565b60408051602081019091526000815260405180602001604052806154536012600a61544c9190615bdf565b859061504f565b905292915050565b6060612aa1848460008585843b6154b45760405162461bcd60e51b815260206004820152601d60248201527f416464726573733a2063616c6c20746f206e6f6e2d636f6e747261637400000060448201526064016109d9565b600080866001600160a01b031685876040516154d09190615d23565b60006040518083038185875af1925050503d806000811461550d576040519150601f19603f3d011682016040523d82523d6000602084013e615512565b606091505b509150915061552282828661552d565b979650505050505050565b6060831561553c575081611eb8565b82511561554c5782518084602001fd5b8160405162461bcd60e51b81526004016109d99190615d3f565b6001600160a01b0381168114613d1657600080fd5b6000806040838503121561558e57600080fd5b823561559981615566565b946020939093013593505050565b600080600080608085870312156155bd57600080fd5b84356155c881615566565b935060208501356155d881615566565b93969395505050506040820135916060013590565b6000806040838503121561560057600080fd5b823561560b81615566565b9150602083013561561b81615566565b809150509250929050565b60006020828403121561563857600080fd5b5035919050565b8015158114613d1657600080fd5b600080600080600080600060e0888a03121561566857600080fd5b873561567381615566565b9650602088013561568381615566565b955060408801359450606088013561569a81615566565b93506080880135925060a0880135915060c08801356156b88161563f565b8091505092959891949750929550565b634e487b7160e01b600052604160045260246000fd5b6000602082840312156156f057600080fd5b813567ffffffffffffffff8082111561570857600080fd5b818401915084601f83011261571c57600080fd5b81358181111561572e5761572e6156c8565b604051601f8201601f19908116603f01168101908382118183101715615756576157566156c8565b8160405282815287602084870101111561576f57600080fd5b826020860160208301376000928101602001929092525095945050505050565b6000806000606084860312156157a457600080fd5b83356157af81615566565b92506020840135915060408401356157c681615566565b809150509250925092565b6000806000606084860312156157e657600080fd5b83356157f181615566565b92506020840135915060408401356157c68161563f565b60006020828403121561581a57600080fd5b8135611eb881615566565b600080600080600060a0868803121561583d57600080fd5b853561584881615566565b945060208601359350604086013561585f81615566565b9250606086013561586f8161563f565b949793965091946080013592915050565b60008060008060008060c0878903121561589957600080fd5b8635955060208701356158ab81615566565b95989597505050506040840135936060810135936080820135935060a0909101359150565b60008060008060008060a087890312156158e957600080fd5b86356158f481615566565b9550602087013567ffffffffffffffff8082111561591157600080fd5b818901915089601f83011261592557600080fd5b81358181111561593457600080fd5b8a602082850101111561594657600080fd5b60208301975080965050505060408701359250606087013561596781615566565b80925050608087013590509295509295509295565b6020808252825182820181905260009190848201906040850190845b818110156159bd5783516001600160a01b031683529284019291840191600101615998565b50909695505050505050565b6000806000606084860312156159de57600080fd5b83356159e981615566565b925060208401356159f981615566565b915060408401356157c681615566565b60008060008060808587031215615a1f57600080fd5b8435615a2a81615566565b9350602085013592506040850135615a4181615566565b91506060850135615a518161563f565b939692955090935050565b600080600060608486031215615a7157600080fd5b8335615a7c81615566565b92506020840135615a8c81615566565b929592945050506040919091013590565b634e487b7160e01b600052601160045260246000fd5b600082821015615ac557615ac5615a9d565b500390565b600060208284031215615adc57600080fd5b5051919050565b60008219821115615af657615af6615a9d565b500190565b600181815b80851115615b36578160001904821115615b1c57615b1c615a9d565b80851615615b2957918102915b93841c9390800290615b00565b509250929050565b600082615b4d57506001611743565b81615b5a57506000611743565b8160018114615b705760028114615b7a57615b96565b6001915050611743565b60ff841115615b8b57615b8b615a9d565b50506001821b611743565b5060208310610133831016604e8410600b8410161715615bb9575081810a611743565b615bc38383615afb565b8060001904821115615bd757615bd7615a9d565b029392505050565b6000611eb88383615b3e565b634e487b7160e01b600052603260045260246000fd5b6000600019821415615c1557615c15615a9d565b5060010190565b8183823760009101908152919050565b600060208284031215615c3e57600080fd5b8151611eb88161563f565b600060208284031215615c5b57600080fd5b8151611eb881615566565b600060208284031215615c7857600080fd5b815160ff81168114611eb857600080fd5b600082615ca657634e487b7160e01b600052601260045260246000fd5b500490565b634e487b7160e01b600052603160045260246000fd5b600081615cd057615cd0615a9d565b506000190190565b6000816000190483118215151615615cf257615cf2615a9d565b500290565b60005b83811015615d12578181015183820152602001615cfa565b83811115614d765750506000910152565b60008251615d35818460208701615cf7565b9190910192915050565b6020815260008251806020840152615d5e816040850160208701615cf7565b601f01601f1916919091016040019291505056fe4f776e61626c653a2063616c6c6572206973206e6f7420746865206f776e6572a164736f6c634300080a000a",
    "devdoc": {
        "events": {
            "BurnFeePaid(address,address,uint256,uint256)": {
                "details": "This can be emitted multiple times for a single Kresko asset burn.",
                "params": {
                    "account": "The address of the account burning the Kresko asset.",
                    "paymentAmount": "The amount of the payment collateral asset that was paid.",
                    "paymentCollateralAsset": "The address of the collateral asset used to pay the burn fee.",
                    "paymentValue": "The USD value of the payment."
                }
            },
            "BurnFeeUpdated(uint256)": {
                "params": {
                    "burnFee": "The new burn fee raw value."
                }
            },
            "CollateralAssetAdded(address,uint256,address)": {
                "details": "Can only be emitted once for a given collateral asset.",
                "params": {
                    "collateralAsset": "The address of the collateral asset.",
                    "factor": "The collateral factor.",
                    "oracle": "The address of the oracle."
                }
            },
            "CollateralAssetUpdated(address,uint256,address)": {
                "params": {
                    "collateralAsset": "The address of the collateral asset.",
                    "factor": "The collateral factor.",
                    "oracle": "The oracle address."
                }
            },
            "CollateralDeposited(address,address,uint256)": {
                "params": {
                    "account": "The address of the account depositing collateral.",
                    "amount": "The amount of the collateral asset that was deposited.",
                    "collateralAsset": "The address of the collateral asset."
                }
            },
            "CollateralWithdrawn(address,address,uint256)": {
                "params": {
                    "account": "The address of the account withdrawing collateral.",
                    "amount": "The amount of the collateral asset that was withdrawn.",
                    "collateralAsset": "The address of the collateral asset."
                }
            },
            "FeeRecipientUpdated(address)": {
                "params": {
                    "feeRecipient": "The new fee recipient."
                }
            },
            "KreskoAssetAdded(address,string,uint256,address,uint256)": {
                "details": "Can only be emitted once for a given Kresko asset.",
                "params": {
                    "kFactor": "The k-factor.",
                    "kreskoAsset": "The address of the Kresko asset.",
                    "marketCapLimit": "The initial market capitalization USD limit.",
                    "oracle": "The address of the oracle.",
                    "symbol": "The symbol of the Kresko asset."
                }
            },
            "KreskoAssetBurned(address,address,uint256)": {
                "params": {
                    "account": "The address of the account burning the Kresko asset.",
                    "amount": "The amount of the Kresko asset that was burned.",
                    "kreskoAsset": "The address of the Kresko asset."
                }
            },
            "KreskoAssetMinted(address,address,uint256)": {
                "params": {
                    "account": "The address of the account minting the Kresko asset.",
                    "amount": "The amount of the Kresko asset that was minted.",
                    "kreskoAsset": "The address of the Kresko asset."
                }
            },
            "KreskoAssetUpdated(address,uint256,address,bool,uint256)": {
                "params": {
                    "kFactor": "The k-factor.",
                    "kreskoAsset": "The address of the Kresko asset.",
                    "limit": "The market capitalization USD limit.",
                    "mintable": "The mintable value.",
                    "oracle": "The address of the oracle."
                }
            },
            "LiquidationIncentiveMultiplierUpdated(uint256)": {
                "params": {
                    "liquidationIncentiveMultiplier": "The new liquidation incentive multiplier raw value."
                }
            },
            "LiquidationOccurred(address,address,address,uint256,address,uint256)": {
                "params": {
                    "account": "The address of the account being liquidated.",
                    "collateralSent": "The amount of the seized collateral asset being seized from the account by the liquidator.",
                    "liquidator": "The account performing the liquidation.",
                    "repayAmount": "The amount of the repay Kresko asset being paid back to the protocol by the liquidator.",
                    "repayKreskoAsset": "The address of the Kresko asset being paid back to the protocol by the liquidator.",
                    "seizedCollateralAsset": "The address of the collateral asset being seized from the account by the liquidator."
                }
            },
            "MinimumCollateralizationRatioUpdated(uint256)": {
                "params": {
                    "minimumCollateralizationRatio": "The new minimum collateralization ratio raw value."
                }
            },
            "MinimumDebtValueUpdated(uint256)": {
                "params": {
                    "minimumDebtValue": "The new minimum debt value."
                }
            },
            "SecondsUntilStalePriceUpdated(uint256)": {
                "params": {
                    "secondsUntilStalePrice": "The new seconds until stale price value."
                }
            },
            "TrustedContract(address,bool)": {
                "params": {
                    "contractAddress": "A trusted contract (eg. Kresko Zapper).",
                    "isTrusted": "true if the contract was added, false if removed"
                }
            }
        },
        "kind": "dev",
        "methods": {
            "addCollateralAsset(address,uint256,address,bool)": {
                "details": "Only callable by the owner and cannot be called more than once for an asset.",
                "params": {
                    "_collateralAsset": "The address of the collateral asset.",
                    "_factor": "The collateral factor of the collateral asset as a raw value for a FixedPoint.Unsigned. Must be <= 1e18.",
                    "_oracle": "The oracle address for the collateral asset's USD value."
                }
            },
            "addKreskoAsset(address,string,uint256,address,uint256)": {
                "details": "Only callable by the owner and cannot be called more than once for a given symbol.",
                "params": {
                    "_kFactor": "The k-factor of the Kresko asset as a raw value for a FixedPoint.Unsigned. Must be >= 1e18.",
                    "_kreskoAsset": "The address of the Kresko asset.",
                    "_marketCapUSDLimit": "The initial market capitalization USD limit for the Kresko asset.",
                    "_oracle": "The oracle address for the Kresko asset.",
                    "_symbol": "The symbol of the Kresko asset."
                }
            },
            "burnKreskoAsset(address,address,uint256,uint256)": {
                "params": {
                    "_account": "The address to burn kresko assets for",
                    "_amount": "The amount of the Kresko asset to be burned.",
                    "_kreskoAsset": "The address of the Kresko asset.",
                    "_mintedKreskoAssetIndex": "The index of the collateral asset in the user's minted assets array."
                }
            },
            "calculateMaxLiquidatableValueForAssets(address,address,address)": {
                "details": "Calculates the total value that can be liquidated for a liquidation pair",
                "params": {
                    "_account": "address to liquidate",
                    "_collateralAssetToSeize": "address of the collateral asset being seized from the liquidatee",
                    "_repayKreskoAsset": "address of the kreskoAsset being repaid on behalf of the liquidatee"
                },
                "returns": {
                    "maxLiquidatableUSD": "USD value that can be liquidated, 0 if the pair has no liquidatable value"
                }
            },
            "constructor": {
                "details": "Protects against a call to initialize when this contract is called directly without a proxy."
            },
            "depositCollateral(address,address,uint256)": {
                "params": {
                    "_account": "The user to deposit collateral for.",
                    "_amount": "The amount of the collateral asset to deposit.",
                    "_collateralAsset": "The address of the collateral asset."
                }
            },
            "depositRebasingCollateral(address,address,uint256)": {
                "params": {
                    "_account": "The user to deposit collateral for.",
                    "_collateralAsset": "The address of the NonRebasingWrapperToken collateral asset.",
                    "_rebasingAmount": "The amount of the underlying rebasing token to deposit."
                }
            },
            "getAccountCollateralValue(address)": {
                "details": "O(# of different deposited collateral assets by account) complexity.",
                "params": {
                    "_account": "The account to calculate the collateral value for."
                },
                "returns": {
                    "_0": "The collateral value of a particular account."
                }
            },
            "getAccountKrAssetValue(address)": {
                "params": {
                    "_account": "The account to calculate the Kresko asset value for."
                },
                "returns": {
                    "_0": "The Kresko asset value of a particular account."
                }
            },
            "getAccountMinimumCollateralValue(address)": {
                "details": "Accounts that have their collateral value under the minimum collateral value are considered unhealthy and therefore to avoid liquidations users should maintain a collateral value higher than the value returned.",
                "params": {
                    "_account": "The account to calculate the minimum collateral value for."
                },
                "returns": {
                    "_0": "The minimum collateral value of a particular account."
                }
            },
            "getCollateralValueAndOraclePrice(address,uint256,bool)": {
                "params": {
                    "_amount": "The amount of the collateral asset to calculate the collateral value for.",
                    "_collateralAsset": "The address of the collateral asset.",
                    "_ignoreCollateralFactor": "Boolean indicating if the asset's collateral factor should be ignored."
                },
                "returns": {
                    "_0": "The collateral value for the provided amount of the collateral asset."
                }
            },
            "getDepositedCollateralAssetIndex(address,address)": {
                "params": {
                    "_account": "The account to get the index for.",
                    "_collateralAsset": "The asset lookup address."
                },
                "returns": {
                    "i": "= index of the minted collateral asset."
                }
            },
            "getDepositedCollateralAssets(address)": {
                "params": {
                    "_account": "The account to get the deposited collateral assets for."
                },
                "returns": {
                    "_0": "An array of addresses of collateral assets the account has deposited."
                }
            },
            "getKrAssetValue(address,uint256,bool)": {
                "params": {
                    "_amount": "The amount of the Kresko asset to calculate the value for.",
                    "_ignoreKFactor": "Boolean indicating if the asset's k-factor should be ignored.",
                    "_kreskoAsset": "The address of the Kresko asset."
                },
                "returns": {
                    "_0": "The value for the provided amount of the Kresko asset."
                }
            },
            "getMinimumCollateralValue(address,uint256)": {
                "params": {
                    "_amount": "The Kresko Asset debt amount.",
                    "_krAsset": "The address of the Kresko asset."
                },
                "returns": {
                    "minCollateralValue": "is the minimum collateral value required for this Kresko Asset amount."
                }
            },
            "getMintedKreskoAssets(address)": {
                "params": {
                    "_account": "The account to get the minted Kresko assets for."
                },
                "returns": {
                    "_0": "An array of addresses of Kresko assets the account has minted."
                }
            },
            "getMintedKreskoAssetsIndex(address,address)": {
                "params": {
                    "_account": "The account to get the minted Kresko assets for.",
                    "_kreskoAsset": "The asset lookup address."
                },
                "returns": {
                    "i": "= index of the minted Kresko asset."
                }
            },
            "initialize(uint256,address,uint256,uint256,uint256,uint256)": {
                "params": {
                    "_burnFee": "Initial burn fee as a raw value for a FixedPoint.Unsigned.",
                    "_feeRecipient": "Initial fee recipient.",
                    "_liquidationIncentiveMultiplier": "Initial liquidation incentive multiplier.",
                    "_minimumCollateralizationRatio": "Initial collateralization ratio as a raw value for a FixedPoint.Unsigned.",
                    "_minimumDebtValue": "Initial minimum debt value denominated in USD."
                }
            },
            "isAccountLiquidatable(address)": {
                "details": "Returns true if the account's current collateral value is below the minimum collateral value required to consider the position healthy.",
                "params": {
                    "_account": "The account to check."
                },
                "returns": {
                    "_0": "A boolean indicating if the account can be liquidated."
                }
            },
            "liquidate(address,address,uint256,address,uint256,uint256,bool)": {
                "params": {
                    "_account": "The account to attempt to liquidate.",
                    "_collateralAssetToSeize": "The address of the collateral asset to be seized.",
                    "_depositedCollateralAssetIndex": "Index of the collateral asset in the account's collateral assets array.",
                    "_keepKrAssetDebt": "Liquidator can choose to receive the whole seized amount keeping the krAsset debt. Setting _keepKrAssetDebt to false will instead only send the incentive and repay krAsset debt.",
                    "_mintedKreskoAssetIndex": "The index of the Kresko asset in the account's minted assets array.",
                    "_repayAmount": "The amount of the Kresko asset to be repaid.",
                    "_repayKreskoAsset": "The address of the Kresko asset to be repaid."
                }
            },
            "mintKreskoAsset(address,address,uint256)": {
                "params": {
                    "_account": "The address to mint assets for.",
                    "_amount": "The amount of the Kresko asset to be minted.",
                    "_kreskoAsset": "The address of the Kresko asset."
                }
            },
            "owner()": {
                "details": "Returns the address of the current owner."
            },
            "pendingOwner()": {
                "details": "Returns the address of the pending owner."
            },
            "toggleTrustedContract(address)": {
                "params": {
                    "_trustedContract": "Contract to toggle the trusted status for."
                }
            },
            "transferOwnership(address)": {
                "details": "Transfers ownership of the contract to a new account (`newOwner`). Can only be called by the current owner."
            },
            "updateBurnFee(uint256)": {
                "params": {
                    "_burnFee": "The new burn fee as a raw value for a FixedPoint.Unsigned."
                }
            },
            "updateCollateralAsset(address,uint256,address)": {
                "details": "Only callable by the owner.",
                "params": {
                    "_collateralAsset": "The address of the collateral asset.",
                    "_factor": "The new collateral factor as a raw value for a FixedPoint.Unsigned. Must be <= 1e18.",
                    "_oracle": "The new oracle address for the collateral asset."
                }
            },
            "updateFeeRecipient(address)": {
                "params": {
                    "_feeRecipient": "The new fee recipient."
                }
            },
            "updateKreskoAsset(address,uint256,address,bool,uint256)": {
                "details": "Only callable by the owner.",
                "params": {
                    "_kFactor": "The new k-factor as a raw value for a FixedPoint.Unsigned. Must be >= 1e18.",
                    "_kreskoAsset": "The address of the Kresko asset.",
                    "_marketCapUSDLimit": "The new market capitalization USD limit.",
                    "_mintable": "The new mintable value.",
                    "_oracle": "The new oracle address for the Kresko asset's USD value."
                }
            },
            "updateLiquidationIncentiveMultiplier(uint256)": {
                "params": {
                    "_liquidationIncentiveMultiplier": "The new liquidation incentive multiplie."
                }
            },
            "updateMinimumCollateralizationRatio(uint256)": {
                "details": "Updates the contract's collateralization ratio.",
                "params": {
                    "_minimumCollateralizationRatio": "The new minimum collateralization ratio as a raw value for a FixedPoint.Unsigned."
                }
            },
            "updateMinimumDebtValue(uint256)": {
                "details": "Updates the contract's minimum debt value.",
                "params": {
                    "_minimumDebtValue": "The new minimum debt value as a raw value for a FixedPoint.Unsigned."
                }
            },
            "updateSecondsUntilStalePrice(uint256)": {
                "details": "Updates the contract's seconds until stale price value",
                "params": {
                    "_secondsUntilStalePrice": "The new seconds until stale price."
                }
            },
            "withdrawCollateral(address,address,uint256,uint256)": {
                "details": "Requires the post-withdrawal collateral value to violate minimum collateral requirement.",
                "params": {
                    "_account": "The address to withdraw assets for.",
                    "_amount": "The amount of the collateral asset to withdraw.",
                    "_collateralAsset": "The address of the collateral asset.",
                    "_depositedCollateralAssetIndex": "The index of the collateral asset in the sender's deposited collateral assets array. Only needed if withdrawing the entire deposit of a particular collateral asset."
                }
            },
            "withdrawRebasingCollateral(address,address,uint256,uint256)": {
                "params": {
                    "_account": "The address to withdraw assets for.",
                    "_amount": "The amount of the NonRebasingWrapperToken collateral asset to withdraw.",
                    "_collateralAsset": "The address of the NonRebasingWrapperToken collateral asset.",
                    "_depositedCollateralAssetIndex": "The index of the collateral asset in the sender's deposited collateral assets array. Only needed if withdrawing the entire deposit of a particular collateral asset."
                }
            }
        },
        "stateVariables": {
            "collateralDeposits": {
                "details": "Collateral assets must not rebase."
            }
        },
        "title": "The core of the Kresko protocol.",
        "version": 1
    },
    "userdoc": {
        "events": {
            "BurnFeePaid(address,address,uint256,uint256)": {
                "notice": "Emitted when an account pays a burn fee with a collateral asset upon burning a Kresko asset."
            },
            "BurnFeeUpdated(uint256)": {
                "notice": "Emitted when the burn fee is updated."
            },
            "CollateralAssetAdded(address,uint256,address)": {
                "notice": "Emitted when a collateral asset is added to the protocol."
            },
            "CollateralAssetUpdated(address,uint256,address)": {
                "notice": "Emitted when a collateral asset is updated."
            },
            "CollateralDeposited(address,address,uint256)": {
                "notice": "Emitted when an account deposits collateral."
            },
            "CollateralWithdrawn(address,address,uint256)": {
                "notice": "Emitted when an account withdraws collateral."
            },
            "FeeRecipientUpdated(address)": {
                "notice": "Emitted when the fee recipient is updated."
            },
            "KreskoAssetAdded(address,string,uint256,address,uint256)": {
                "notice": "Emitted when a Kresko asset is added to the protocol."
            },
            "KreskoAssetBurned(address,address,uint256)": {
                "notice": "Emitted when an account burns a Kresko asset."
            },
            "KreskoAssetMinted(address,address,uint256)": {
                "notice": "Emitted when an account mints a Kresko asset."
            },
            "KreskoAssetUpdated(address,uint256,address,bool,uint256)": {
                "notice": "Emitted when a Kresko asset's oracle is updated."
            },
            "LiquidationIncentiveMultiplierUpdated(uint256)": {
                "notice": "Emitted when the liquidation incentive multiplier is updated."
            },
            "LiquidationOccurred(address,address,address,uint256,address,uint256)": {
                "notice": "Emitted when a liquidation occurs."
            },
            "MinimumCollateralizationRatioUpdated(uint256)": {
                "notice": "Emitted when the minimum collateralization ratio is updated."
            },
            "MinimumDebtValueUpdated(uint256)": {
                "notice": "Emitted when the minimum debt value updated."
            },
            "SecondsUntilStalePriceUpdated(uint256)": {
                "notice": "Emitted when the seconds until stale price value is updated."
            },
            "TrustedContract(address,bool)": {
                "notice": "Emitted when the a trusted contract is added/removed."
            }
        },
        "kind": "user",
        "methods": {
            "MAX_BURN_FEE()": {
                "notice": "The maximum configurable burn fee."
            },
            "MAX_DEBT_VALUE()": {
                "notice": "The maximum configurable minimum debt USD value."
            },
            "MAX_LIQUIDATION_INCENTIVE_MULTIPLIER()": {
                "notice": "The maximum configurable liquidation incentive multiplier. This means liquidator receives 25% bonus collateral compared to the debt repaid."
            },
            "MIN_COLLATERALIZATION_RATIO()": {
                "notice": "The minimum configurable minimum collateralization ratio."
            },
            "MIN_LIQUIDATION_INCENTIVE_MULTIPLIER()": {
                "notice": "The minimum configurable liquidation incentive multiplier. This means liquidator only receives equal amount of collateral to debt repaid."
            },
            "ONE_HUNDRED_PERCENT()": {
                "notice": "================================================== =================== Constants ==================== =================================================="
            },
            "addCollateralAsset(address,uint256,address,bool)": {
                "notice": "Adds a collateral asset to the protocol."
            },
            "addKreskoAsset(address,string,uint256,address,uint256)": {
                "notice": "Adds a Kresko asset to the protocol."
            },
            "burnFee()": {
                "notice": "The percent fee imposed upon the value of burned krAssets, taken as collateral and sent to feeRecipient."
            },
            "burnKreskoAsset(address,address,uint256,uint256)": {
                "notice": "Burns existing Kresko assets.Only needed if withdrawing the entire deposit of a particular collateral asset."
            },
            "claimOwnership()": {
                "notice": "Needs to be called by pending owner to claim ownership."
            },
            "collateralAssets(address)": {
                "notice": "Mapping of collateral asset token address to information on the collateral asset."
            },
            "collateralDeposits(address,address)": {
                "notice": "Mapping of account address to a mapping of collateral asset token address to the amount of the collateral asset the account has deposited."
            },
            "collateralExists(address)": {
                "notice": "Returns true if the @param _collateralAsset exists in the protocol"
            },
            "constructor": {
                "notice": "Empty constructor, see `initialize`."
            },
            "depositCollateral(address,address,uint256)": {
                "notice": "Deposits collateral into the protocol."
            },
            "depositRebasingCollateral(address,address,uint256)": {
                "notice": "Deposits a rebasing collateral into the protocol by wrapping the underlying rebasing token."
            },
            "depositedCollateralAssets(address,uint256)": {
                "notice": "Mapping of account address to an array of the addresses of each collateral asset the account has deposited."
            },
            "feeRecipient()": {
                "notice": "The recipient of burn fees."
            },
            "getAccountCollateralValue(address)": {
                "notice": "Gets the collateral value of a particular account."
            },
            "getAccountKrAssetValue(address)": {
                "notice": "Gets the Kresko asset value in USD of a particular account."
            },
            "getAccountMinimumCollateralValue(address)": {
                "notice": "Gets an account's minimum collateral value for its Kresko Asset debts."
            },
            "getCollateralValueAndOraclePrice(address,uint256,bool)": {
                "notice": "Gets the collateral value for a single collateral asset and amount."
            },
            "getDepositedCollateralAssetIndex(address,address)": {
                "notice": "Gets an index for the collateral asset the account has deposited."
            },
            "getDepositedCollateralAssets(address)": {
                "notice": "Gets an array of collateral assets the account has deposited."
            },
            "getKrAssetValue(address,uint256,bool)": {
                "notice": "Gets the USD value for a single Kresko asset and amount."
            },
            "getMinimumCollateralValue(address,uint256)": {
                "notice": "Get the minimum collateral value required to keep a individual debt position healthy."
            },
            "getMintedKreskoAssets(address)": {
                "notice": "Gets an array of Kresko assets the account has minted."
            },
            "getMintedKreskoAssetsIndex(address,address)": {
                "notice": "Gets an index for the Kresko asset the account has minted."
            },
            "initialize(uint256,address,uint256,uint256,uint256,uint256)": {
                "notice": "Initializes the core Kresko protocol."
            },
            "isAccountLiquidatable(address)": {
                "notice": "Calculates if an account's current collateral value is under its minimum collateral value"
            },
            "krAssetExists(address)": {
                "notice": "Returns true if the @param _krAsset exists in the protocol"
            },
            "kreskoAssetDebt(address,address)": {
                "notice": "Mapping of account address to a mapping of Kresko asset token address to the amount of the Kresko asset the account has minted and therefore owes to the protocol."
            },
            "kreskoAssetSymbols(string)": {
                "notice": "Mapping of Kresko asset symbols to whether the symbol is used by an existing Kresko asset."
            },
            "kreskoAssets(address)": {
                "notice": "Mapping of Kresko asset token address to information on the Kresko asset."
            },
            "liquidate(address,address,uint256,address,uint256,uint256,bool)": {
                "notice": "Attempts to liquidate an account by repaying the portion of the account's Kresko asset         debt, receiving in return a portion of the account's collateral at a discounted rate."
            },
            "liquidationIncentiveMultiplier()": {
                "notice": "The factor used to calculate the incentive a liquidator receives in the form of seized collateral."
            },
            "minimumCollateralizationRatio()": {
                "notice": "The absolute minimum ratio of collateral value to debt value that is used to calculate collateral requirements."
            },
            "minimumDebtValue()": {
                "notice": "The minimum USD value of an individual synthetic asset debt position."
            },
            "mintKreskoAsset(address,address,uint256)": {
                "notice": "Mints new Kresko assets."
            },
            "mintedKreskoAssets(address,uint256)": {
                "notice": "Mapping of account address to an array of the addresses of each Kresko asset the account has minted."
            },
            "secondsUntilStalePrice()": {
                "notice": "The number of seconds until a price is considered stale"
            },
            "toggleTrustedContract(address)": {
                "notice": "Toggles a trusted contract to perform actions on behalf of user (eg. Kresko Zapper)."
            },
            "trustedContracts(address)": {
                "notice": "================================================== ===================== State ====================== =================================================="
            },
            "updateBurnFee(uint256)": {
                "notice": "Updates the burn fee."
            },
            "updateCollateralAsset(address,uint256,address)": {
                "notice": "Updates a previously added collateral asset."
            },
            "updateFeeRecipient(address)": {
                "notice": "Updates the fee recipient."
            },
            "updateKreskoAsset(address,uint256,address,bool,uint256)": {
                "notice": "Updates the k-factor of a previously added Kresko asset."
            },
            "updateLiquidationIncentiveMultiplier(uint256)": {
                "notice": "Updates the liquidation incentive multiplier."
            },
            "withdrawCollateral(address,address,uint256,uint256)": {
                "notice": "Withdraws sender's collateral from the protocol."
            },
            "withdrawRebasingCollateral(address,address,uint256,uint256)": {
                "notice": "Withdraws NonRebasingWrapperToken collateral from the protocol and unwraps it."
            }
        },
        "notice": "Responsible for managing collateral and minting / burning overcollateralized synthetic assets called Kresko assets. Management of critical features such as adding new collateral assets / Kresko assets and updating protocol constants such as the burn fee minimum collateralization ratio, and liquidation incentive is restricted to the contract owner.",
        "version": 1
    },
    "storageLayout": {
        "storage": [
            {
                "astId": 597,
                "contract": "src/contracts/Kresko.sol:Kresko",
                "label": "_initialized",
                "offset": 0,
                "slot": "0",
                "type": "t_bool"
            },
            {
                "astId": 600,
                "contract": "src/contracts/Kresko.sol:Kresko",
                "label": "_initializing",
                "offset": 1,
                "slot": "0",
                "type": "t_bool"
            },
            {
                "astId": 1910,
                "contract": "src/contracts/Kresko.sol:Kresko",
                "label": "__gap",
                "offset": 0,
                "slot": "1",
                "type": "t_array(t_uint256)50_storage"
            },
            {
                "astId": 27395,
                "contract": "src/contracts/Kresko.sol:Kresko",
                "label": "_owner",
                "offset": 0,
                "slot": "51",
                "type": "t_address"
            },
            {
                "astId": 27397,
                "contract": "src/contracts/Kresko.sol:Kresko",
                "label": "_pendingOwner",
                "offset": 0,
                "slot": "52",
                "type": "t_address"
            },
            {
                "astId": 27544,
                "contract": "src/contracts/Kresko.sol:Kresko",
                "label": "__gap",
                "offset": 0,
                "slot": "53",
                "type": "t_array(t_uint256)49_storage"
            },
            {
                "astId": 678,
                "contract": "src/contracts/Kresko.sol:Kresko",
                "label": "_status",
                "offset": 0,
                "slot": "102",
                "type": "t_uint256"
            },
            {
                "astId": 721,
                "contract": "src/contracts/Kresko.sol:Kresko",
                "label": "__gap",
                "offset": 0,
                "slot": "103",
                "type": "t_array(t_uint256)49_storage"
            },
            {
                "astId": 16991,
                "contract": "src/contracts/Kresko.sol:Kresko",
                "label": "trustedContracts",
                "offset": 0,
                "slot": "152",
                "type": "t_mapping(t_address,t_bool)"
            },
            {
                "astId": 16995,
                "contract": "src/contracts/Kresko.sol:Kresko",
                "label": "burnFee",
                "offset": 0,
                "slot": "153",
                "type": "t_struct(Unsigned)22772_storage"
            },
            {
                "astId": 16998,
                "contract": "src/contracts/Kresko.sol:Kresko",
                "label": "feeRecipient",
                "offset": 0,
                "slot": "154",
                "type": "t_address"
            },
            {
                "astId": 17002,
                "contract": "src/contracts/Kresko.sol:Kresko",
                "label": "liquidationIncentiveMultiplier",
                "offset": 0,
                "slot": "155",
                "type": "t_struct(Unsigned)22772_storage"
            },
            {
                "astId": 17006,
                "contract": "src/contracts/Kresko.sol:Kresko",
                "label": "minimumCollateralizationRatio",
                "offset": 0,
                "slot": "156",
                "type": "t_struct(Unsigned)22772_storage"
            },
            {
                "astId": 17010,
                "contract": "src/contracts/Kresko.sol:Kresko",
                "label": "minimumDebtValue",
                "offset": 0,
                "slot": "157",
                "type": "t_struct(Unsigned)22772_storage"
            },
            {
                "astId": 17013,
                "contract": "src/contracts/Kresko.sol:Kresko",
                "label": "secondsUntilStalePrice",
                "offset": 0,
                "slot": "158",
                "type": "t_uint256"
            },
            {
                "astId": 17019,
                "contract": "src/contracts/Kresko.sol:Kresko",
                "label": "collateralAssets",
                "offset": 0,
                "slot": "159",
                "type": "t_mapping(t_address,t_struct(CollateralAsset)16949_storage)"
            },
            {
                "astId": 17026,
                "contract": "src/contracts/Kresko.sol:Kresko",
                "label": "collateralDeposits",
                "offset": 0,
                "slot": "160",
                "type": "t_mapping(t_address,t_mapping(t_address,t_uint256))"
            },
            {
                "astId": 17032,
                "contract": "src/contracts/Kresko.sol:Kresko",
                "label": "depositedCollateralAssets",
                "offset": 0,
                "slot": "161",
                "type": "t_mapping(t_address,t_array(t_address)dyn_storage)"
            },
            {
                "astId": 17038,
                "contract": "src/contracts/Kresko.sol:Kresko",
                "label": "kreskoAssets",
                "offset": 0,
                "slot": "162",
                "type": "t_mapping(t_address,t_struct(KrAsset)16962_storage)"
            },
            {
                "astId": 17043,
                "contract": "src/contracts/Kresko.sol:Kresko",
                "label": "kreskoAssetSymbols",
                "offset": 0,
                "slot": "163",
                "type": "t_mapping(t_string_memory_ptr,t_bool)"
            },
            {
                "astId": 17050,
                "contract": "src/contracts/Kresko.sol:Kresko",
                "label": "kreskoAssetDebt",
                "offset": 0,
                "slot": "164",
                "type": "t_mapping(t_address,t_mapping(t_address,t_uint256))"
            },
            {
                "astId": 17056,
                "contract": "src/contracts/Kresko.sol:Kresko",
                "label": "mintedKreskoAssets",
                "offset": 0,
                "slot": "165",
                "type": "t_mapping(t_address,t_array(t_address)dyn_storage)"
            }
        ],
        "types": {
            "t_address": {
                "encoding": "inplace",
                "label": "address",
                "numberOfBytes": "20"
            },
            "t_array(t_address)dyn_storage": {
                "base": "t_address",
                "encoding": "dynamic_array",
                "label": "address[]",
                "numberOfBytes": "32"
            },
            "t_array(t_uint256)49_storage": {
                "base": "t_uint256",
                "encoding": "inplace",
                "label": "uint256[49]",
                "numberOfBytes": "1568"
            },
            "t_array(t_uint256)50_storage": {
                "base": "t_uint256",
                "encoding": "inplace",
                "label": "uint256[50]",
                "numberOfBytes": "1600"
            },
            "t_bool": {
                "encoding": "inplace",
                "label": "bool",
                "numberOfBytes": "1"
            },
            "t_contract(AggregatorV2V3Interface)22228": {
                "encoding": "inplace",
                "label": "contract AggregatorV2V3Interface",
                "numberOfBytes": "20"
            },
            "t_mapping(t_address,t_array(t_address)dyn_storage)": {
                "encoding": "mapping",
                "key": "t_address",
                "label": "mapping(address => address[])",
                "numberOfBytes": "32",
                "value": "t_array(t_address)dyn_storage"
            },
            "t_mapping(t_address,t_bool)": {
                "encoding": "mapping",
                "key": "t_address",
                "label": "mapping(address => bool)",
                "numberOfBytes": "32",
                "value": "t_bool"
            },
            "t_mapping(t_address,t_mapping(t_address,t_uint256))": {
                "encoding": "mapping",
                "key": "t_address",
                "label": "mapping(address => mapping(address => uint256))",
                "numberOfBytes": "32",
                "value": "t_mapping(t_address,t_uint256)"
            },
            "t_mapping(t_address,t_struct(CollateralAsset)16949_storage)": {
                "encoding": "mapping",
                "key": "t_address",
                "label": "mapping(address => struct Kresko.CollateralAsset)",
                "numberOfBytes": "32",
                "value": "t_struct(CollateralAsset)16949_storage"
            },
            "t_mapping(t_address,t_struct(KrAsset)16962_storage)": {
                "encoding": "mapping",
                "key": "t_address",
                "label": "mapping(address => struct Kresko.KrAsset)",
                "numberOfBytes": "32",
                "value": "t_struct(KrAsset)16962_storage"
            },
            "t_mapping(t_address,t_uint256)": {
                "encoding": "mapping",
                "key": "t_address",
                "label": "mapping(address => uint256)",
                "numberOfBytes": "32",
                "value": "t_uint256"
            },
            "t_mapping(t_string_memory_ptr,t_bool)": {
                "encoding": "mapping",
                "key": "t_string_memory_ptr",
                "label": "mapping(string => bool)",
                "numberOfBytes": "32",
                "value": "t_bool"
            },
            "t_string_memory_ptr": {
                "encoding": "bytes",
                "label": "string",
                "numberOfBytes": "32"
            },
            "t_struct(CollateralAsset)16949_storage": {
                "encoding": "inplace",
                "label": "struct Kresko.CollateralAsset",
                "members": [
                    {
                        "astId": 16939,
                        "contract": "src/contracts/Kresko.sol:Kresko",
                        "label": "factor",
                        "offset": 0,
                        "slot": "0",
                        "type": "t_struct(Unsigned)22772_storage"
                    },
                    {
                        "astId": 16942,
                        "contract": "src/contracts/Kresko.sol:Kresko",
                        "label": "oracle",
                        "offset": 0,
                        "slot": "1",
                        "type": "t_contract(AggregatorV2V3Interface)22228"
                    },
                    {
                        "astId": 16944,
                        "contract": "src/contracts/Kresko.sol:Kresko",
                        "label": "underlyingRebasingToken",
                        "offset": 0,
                        "slot": "2",
                        "type": "t_address"
                    },
                    {
                        "astId": 16946,
                        "contract": "src/contracts/Kresko.sol:Kresko",
                        "label": "decimals",
                        "offset": 20,
                        "slot": "2",
                        "type": "t_uint8"
                    },
                    {
                        "astId": 16948,
                        "contract": "src/contracts/Kresko.sol:Kresko",
                        "label": "exists",
                        "offset": 21,
                        "slot": "2",
                        "type": "t_bool"
                    }
                ],
                "numberOfBytes": "96"
            },
            "t_struct(KrAsset)16962_storage": {
                "encoding": "inplace",
                "label": "struct Kresko.KrAsset",
                "members": [
                    {
                        "astId": 16952,
                        "contract": "src/contracts/Kresko.sol:Kresko",
                        "label": "kFactor",
                        "offset": 0,
                        "slot": "0",
                        "type": "t_struct(Unsigned)22772_storage"
                    },
                    {
                        "astId": 16955,
                        "contract": "src/contracts/Kresko.sol:Kresko",
                        "label": "oracle",
                        "offset": 0,
                        "slot": "1",
                        "type": "t_contract(AggregatorV2V3Interface)22228"
                    },
                    {
                        "astId": 16957,
                        "contract": "src/contracts/Kresko.sol:Kresko",
                        "label": "exists",
                        "offset": 20,
                        "slot": "1",
                        "type": "t_bool"
                    },
                    {
                        "astId": 16959,
                        "contract": "src/contracts/Kresko.sol:Kresko",
                        "label": "mintable",
                        "offset": 21,
                        "slot": "1",
                        "type": "t_bool"
                    },
                    {
                        "astId": 16961,
                        "contract": "src/contracts/Kresko.sol:Kresko",
                        "label": "marketCapUSDLimit",
                        "offset": 0,
                        "slot": "2",
                        "type": "t_uint256"
                    }
                ],
                "numberOfBytes": "96"
            },
            "t_struct(Unsigned)22772_storage": {
                "encoding": "inplace",
                "label": "struct FixedPoint.Unsigned",
                "members": [
                    {
                        "astId": 22771,
                        "contract": "src/contracts/Kresko.sol:Kresko",
                        "label": "rawValue",
                        "offset": 0,
                        "slot": "0",
                        "type": "t_uint256"
                    }
                ],
                "numberOfBytes": "32"
            },
            "t_uint256": {
                "encoding": "inplace",
                "label": "uint256",
                "numberOfBytes": "32"
            },
            "t_uint8": {
                "encoding": "inplace",
                "label": "uint8",
                "numberOfBytes": "1"
            }
        }
    }
}