{
    "address": "0x53EB38053A05f0A6b7Ab4aca782fdBaAa9980C82",
    "abi": [
        {
            "inputs": [
                {
                    "internalType": "contract IKresko",
                    "name": "_kresko",
                    "type": "address"
                },
                {
                    "internalType": "contract IKrStaking",
                    "name": "_staking",
                    "type": "address"
                }
            ],
            "stateMutability": "nonpayable",
            "type": "constructor"
        },
        {
            "inputs": [],
            "name": "Kresko",
            "outputs": [
                {
                    "internalType": "contract IKresko",
                    "name": "",
                    "type": "address"
                }
            ],
            "stateMutability": "view",
            "type": "function"
        },
        {
            "inputs": [],
            "name": "Staking",
            "outputs": [
                {
                    "internalType": "contract IKrStaking",
                    "name": "",
                    "type": "address"
                }
            ],
            "stateMutability": "view",
            "type": "function"
        },
        {
            "inputs": [
                {
                    "internalType": "address[]",
                    "name": "_assets",
                    "type": "address[]"
                },
                {
                    "internalType": "contract AggregatorV2V3Interface[]",
                    "name": "_oracles",
                    "type": "address[]"
                }
            ],
            "name": "batchPrices",
            "outputs": [
                {
                    "components": [
                        {
                            "internalType": "uint256",
                            "name": "price",
                            "type": "uint256"
                        },
                        {
                            "internalType": "uint256",
                            "name": "timestamp",
                            "type": "uint256"
                        },
                        {
                            "internalType": "address",
                            "name": "assetAddress",
                            "type": "address"
                        },
                        {
                            "internalType": "uint80",
                            "name": "roundId",
                            "type": "uint80"
                        }
                    ],
                    "internalType": "struct KreskoViewer.Price[]",
                    "name": "result",
                    "type": "tuple[]"
                }
            ],
            "stateMutability": "view",
            "type": "function"
        },
        {
            "inputs": [
                {
                    "internalType": "address",
                    "name": "_account",
                    "type": "address"
                }
            ],
            "name": "borrowingPowerUSD",
            "outputs": [
                {
                    "components": [
                        {
                            "internalType": "uint256",
                            "name": "rawValue",
                            "type": "uint256"
                        }
                    ],
                    "internalType": "struct FixedPoint.Unsigned",
                    "name": "",
                    "type": "tuple"
                }
            ],
            "stateMutability": "view",
            "type": "function"
        },
        {
            "inputs": [
                {
                    "internalType": "address",
                    "name": "_account",
                    "type": "address"
                }
            ],
            "name": "collateralAssetInfoFor",
            "outputs": [
                {
                    "components": [
                        {
                            "internalType": "address",
                            "name": "assetAddress",
                            "type": "address"
                        },
                        {
                            "internalType": "address",
                            "name": "oracleAddress",
                            "type": "address"
                        },
                        {
                            "internalType": "address",
                            "name": "underlyingRebasingToken",
                            "type": "address"
                        },
                        {
                            "internalType": "uint256",
                            "name": "amount",
                            "type": "uint256"
                        },
                        {
                            "components": [
                                {
                                    "internalType": "uint256",
                                    "name": "rawValue",
                                    "type": "uint256"
                                }
                            ],
                            "internalType": "struct FixedPoint.Unsigned",
                            "name": "amountUSD",
                            "type": "tuple"
                        },
                        {
                            "components": [
                                {
                                    "internalType": "uint256",
                                    "name": "rawValue",
                                    "type": "uint256"
                                }
                            ],
                            "internalType": "struct FixedPoint.Unsigned",
                            "name": "cFactor",
                            "type": "tuple"
                        },
                        {
                            "internalType": "uint8",
                            "name": "decimals",
                            "type": "uint8"
                        },
                        {
                            "internalType": "uint256",
                            "name": "index",
                            "type": "uint256"
                        },
                        {
                            "internalType": "uint256",
                            "name": "price",
                            "type": "uint256"
                        },
                        {
                            "internalType": "string",
                            "name": "symbol",
                            "type": "string"
                        },
                        {
                            "internalType": "string",
                            "name": "name",
                            "type": "string"
                        }
                    ],
                    "internalType": "struct KreskoViewer.CollateralAssetInfoUser[]",
                    "name": "result",
                    "type": "tuple[]"
                },
                {
                    "components": [
                        {
                            "internalType": "uint256",
                            "name": "rawValue",
                            "type": "uint256"
                        }
                    ],
                    "internalType": "struct FixedPoint.Unsigned",
                    "name": "totalCollateralUSD",
                    "type": "tuple"
                }
            ],
            "stateMutability": "view",
            "type": "function"
        },
        {
            "inputs": [
                {
                    "internalType": "address[]",
                    "name": "assetAddresses",
                    "type": "address[]"
                }
            ],
            "name": "collateralAssetInfos",
            "outputs": [
                {
                    "components": [
                        {
                            "internalType": "address",
                            "name": "assetAddress",
                            "type": "address"
                        },
                        {
                            "internalType": "address",
                            "name": "oracleAddress",
                            "type": "address"
                        },
                        {
                            "internalType": "address",
                            "name": "underlyingRebasingToken",
                            "type": "address"
                        },
                        {
                            "internalType": "uint256",
                            "name": "price",
                            "type": "uint256"
                        },
                        {
                            "internalType": "uint256",
                            "name": "value",
                            "type": "uint256"
                        },
                        {
                            "components": [
                                {
                                    "internalType": "uint256",
                                    "name": "rawValue",
                                    "type": "uint256"
                                }
                            ],
                            "internalType": "struct FixedPoint.Unsigned",
                            "name": "cFactor",
                            "type": "tuple"
                        },
                        {
                            "internalType": "uint8",
                            "name": "decimals",
                            "type": "uint8"
                        },
                        {
                            "internalType": "string",
                            "name": "symbol",
                            "type": "string"
                        },
                        {
                            "internalType": "string",
                            "name": "name",
                            "type": "string"
                        }
                    ],
                    "internalType": "struct KreskoViewer.CollateralAssetInfo[]",
                    "name": "result",
                    "type": "tuple[]"
                }
            ],
            "stateMutability": "view",
            "type": "function"
        },
        {
            "inputs": [
                {
                    "internalType": "contract IERC20Upgradeable[]",
                    "name": "_tokens",
                    "type": "address[]"
                },
                {
                    "internalType": "address",
                    "name": "owner",
                    "type": "address"
                },
                {
                    "internalType": "address",
                    "name": "spender",
                    "type": "address"
                }
            ],
            "name": "getAllowances",
            "outputs": [
                {
                    "components": [
                        {
                            "internalType": "address",
                            "name": "owner",
                            "type": "address"
                        },
                        {
                            "internalType": "address",
                            "name": "spender",
                            "type": "address"
                        },
                        {
                            "internalType": "uint256",
                            "name": "allowance",
                            "type": "uint256"
                        }
                    ],
                    "internalType": "struct KreskoViewer.Allowance[]",
                    "name": "allowances",
                    "type": "tuple[]"
                }
            ],
            "stateMutability": "view",
            "type": "function"
        },
        {
            "inputs": [
                {
                    "internalType": "address[]",
                    "name": "_collateralAssets",
                    "type": "address[]"
                },
                {
                    "internalType": "address[]",
                    "name": "_krAssets",
                    "type": "address[]"
                }
            ],
            "name": "getAssetInfos",
            "outputs": [
                {
                    "components": [
                        {
                            "internalType": "address",
                            "name": "assetAddress",
                            "type": "address"
                        },
                        {
                            "internalType": "address",
                            "name": "oracleAddress",
                            "type": "address"
                        },
                        {
                            "internalType": "address",
                            "name": "underlyingRebasingToken",
                            "type": "address"
                        },
                        {
                            "internalType": "uint256",
                            "name": "price",
                            "type": "uint256"
                        },
                        {
                            "internalType": "uint256",
                            "name": "value",
                            "type": "uint256"
                        },
                        {
                            "components": [
                                {
                                    "internalType": "uint256",
                                    "name": "rawValue",
                                    "type": "uint256"
                                }
                            ],
                            "internalType": "struct FixedPoint.Unsigned",
                            "name": "cFactor",
                            "type": "tuple"
                        },
                        {
                            "internalType": "uint8",
                            "name": "decimals",
                            "type": "uint8"
                        },
                        {
                            "internalType": "string",
                            "name": "symbol",
                            "type": "string"
                        },
                        {
                            "internalType": "string",
                            "name": "name",
                            "type": "string"
                        }
                    ],
                    "internalType": "struct KreskoViewer.CollateralAssetInfo[]",
                    "name": "collateralAssets",
                    "type": "tuple[]"
                },
                {
                    "components": [
                        {
                            "internalType": "address",
                            "name": "oracleAddress",
                            "type": "address"
                        },
                        {
                            "internalType": "address",
                            "name": "assetAddress",
                            "type": "address"
                        },
                        {
                            "internalType": "uint256",
                            "name": "price",
                            "type": "uint256"
                        },
                        {
                            "internalType": "uint256",
                            "name": "value",
                            "type": "uint256"
                        },
                        {
                            "components": [
                                {
                                    "internalType": "uint256",
                                    "name": "rawValue",
                                    "type": "uint256"
                                }
                            ],
                            "internalType": "struct FixedPoint.Unsigned",
                            "name": "kFactor",
                            "type": "tuple"
                        },
                        {
                            "internalType": "string",
                            "name": "symbol",
                            "type": "string"
                        },
                        {
                            "internalType": "string",
                            "name": "name",
                            "type": "string"
                        }
                    ],
                    "internalType": "struct KreskoViewer.krAssetInfo[]",
                    "name": "krAssets",
                    "type": "tuple[]"
                }
            ],
            "stateMutability": "view",
            "type": "function"
        },
        {
            "inputs": [
                {
                    "internalType": "contract IERC20Upgradeable[]",
                    "name": "_tokens",
                    "type": "address[]"
                },
                {
                    "internalType": "address",
                    "name": "account",
                    "type": "address"
                }
            ],
            "name": "getBalances",
            "outputs": [
                {
                    "components": [
                        {
                            "internalType": "address",
                            "name": "token",
                            "type": "address"
                        },
                        {
                            "internalType": "uint256",
                            "name": "balance",
                            "type": "uint256"
                        }
                    ],
                    "internalType": "struct KreskoViewer.Balance[]",
                    "name": "balances",
                    "type": "tuple[]"
                }
            ],
            "stateMutability": "view",
            "type": "function"
        },
        {
            "inputs": [
                {
                    "internalType": "address",
                    "name": "_account",
                    "type": "address"
                },
                {
                    "internalType": "address",
                    "name": "_asset",
                    "type": "address"
                },
                {
                    "internalType": "contract AggregatorV2V3Interface",
                    "name": "oracle",
                    "type": "address"
                }
            ],
            "name": "getGenericInfo",
            "outputs": [
                {
                    "components": [
                        {
                            "internalType": "address",
                            "name": "assetAddress",
                            "type": "address"
                        },
                        {
                            "components": [
                                {
                                    "internalType": "uint256",
                                    "name": "rawValue",
                                    "type": "uint256"
                                }
                            ],
                            "internalType": "struct FixedPoint.Unsigned",
                            "name": "kFactor",
                            "type": "tuple"
                        },
                        {
                            "components": [
                                {
                                    "internalType": "uint256",
                                    "name": "rawValue",
                                    "type": "uint256"
                                }
                            ],
                            "internalType": "struct FixedPoint.Unsigned",
                            "name": "cFactor",
                            "type": "tuple"
                        },
                        {
                            "internalType": "uint256",
                            "name": "price",
                            "type": "uint256"
                        },
                        {
                            "internalType": "bool",
                            "name": "isKrAsset",
                            "type": "bool"
                        },
                        {
                            "internalType": "bool",
                            "name": "isCollateral",
                            "type": "bool"
                        },
                        {
                            "internalType": "uint256",
                            "name": "debtAmount",
                            "type": "uint256"
                        },
                        {
                            "internalType": "uint256",
                            "name": "depositAmount",
                            "type": "uint256"
                        },
                        {
                            "internalType": "uint256",
                            "name": "walletBalance",
                            "type": "uint256"
                        }
                    ],
                    "internalType": "struct KreskoViewer.GenericInfo",
                    "name": "",
                    "type": "tuple"
                }
            ],
            "stateMutability": "view",
            "type": "function"
        },
        {
            "inputs": [
                {
                    "internalType": "address",
                    "name": "_account",
                    "type": "address"
                }
            ],
            "name": "getStakingData",
            "outputs": [
                {
                    "components": [
                        {
                            "internalType": "uint256",
                            "name": "pid",
                            "type": "uint256"
                        },
                        {
                            "internalType": "address",
                            "name": "depositToken",
                            "type": "address"
                        },
                        {
                            "internalType": "uint256[]",
                            "name": "rewardPerBlocks",
                            "type": "uint256[]"
                        },
                        {
                            "internalType": "uint256",
                            "name": "lastRewardBlock",
                            "type": "uint256"
                        },
                        {
                            "internalType": "uint256",
                            "name": "depositAmount",
                            "type": "uint256"
                        },
                        {
                            "internalType": "address[]",
                            "name": "rewardTokens",
                            "type": "address[]"
                        },
                        {
                            "internalType": "uint256[]",
                            "name": "rewardAmounts",
                            "type": "uint256[]"
                        }
                    ],
                    "internalType": "struct KreskoViewer.StakingData[]",
                    "name": "result",
                    "type": "tuple[]"
                }
            ],
            "stateMutability": "view",
            "type": "function"
        },
        {
            "inputs": [
                {
                    "internalType": "contract IERC20MetadataUpgradeable[]",
                    "name": "_tokens",
                    "type": "address[]"
                }
            ],
            "name": "getTokenMetadatas",
            "outputs": [
                {
                    "components": [
                        {
                            "internalType": "uint8",
                            "name": "decimals",
                            "type": "uint8"
                        },
                        {
                            "internalType": "string",
                            "name": "symbol",
                            "type": "string"
                        },
                        {
                            "internalType": "string",
                            "name": "name",
                            "type": "string"
                        }
                    ],
                    "internalType": "struct KreskoViewer.TokenMetadata[]",
                    "name": "metadatas",
                    "type": "tuple[]"
                }
            ],
            "stateMutability": "view",
            "type": "function"
        },
        {
            "inputs": [
                {
                    "internalType": "address",
                    "name": "_account",
                    "type": "address"
                }
            ],
            "name": "healthFactorFor",
            "outputs": [
                {
                    "components": [
                        {
                            "internalType": "uint256",
                            "name": "rawValue",
                            "type": "uint256"
                        }
                    ],
                    "internalType": "struct FixedPoint.Unsigned",
                    "name": "",
                    "type": "tuple"
                }
            ],
            "stateMutability": "view",
            "type": "function"
        },
        {
            "inputs": [
                {
                    "internalType": "address",
                    "name": "_account",
                    "type": "address"
                }
            ],
            "name": "krAssetInfoFor",
            "outputs": [
                {
                    "components": [
                        {
                            "internalType": "address",
                            "name": "assetAddress",
                            "type": "address"
                        },
                        {
                            "internalType": "address",
                            "name": "oracleAddress",
                            "type": "address"
                        },
                        {
                            "internalType": "uint256",
                            "name": "amount",
                            "type": "uint256"
                        },
                        {
                            "components": [
                                {
                                    "internalType": "uint256",
                                    "name": "rawValue",
                                    "type": "uint256"
                                }
                            ],
                            "internalType": "struct FixedPoint.Unsigned",
                            "name": "amountUSD",
                            "type": "tuple"
                        },
                        {
                            "internalType": "uint256",
                            "name": "index",
                            "type": "uint256"
                        },
                        {
                            "components": [
                                {
                                    "internalType": "uint256",
                                    "name": "rawValue",
                                    "type": "uint256"
                                }
                            ],
                            "internalType": "struct FixedPoint.Unsigned",
                            "name": "kFactor",
                            "type": "tuple"
                        },
                        {
                            "internalType": "bool",
                            "name": "mintable",
                            "type": "bool"
                        },
                        {
                            "internalType": "uint256",
                            "name": "price",
                            "type": "uint256"
                        },
                        {
                            "internalType": "string",
                            "name": "symbol",
                            "type": "string"
                        },
                        {
                            "internalType": "string",
                            "name": "name",
                            "type": "string"
                        }
                    ],
                    "internalType": "struct KreskoViewer.krAssetInfoUser[]",
                    "name": "result",
                    "type": "tuple[]"
                },
                {
                    "components": [
                        {
                            "internalType": "uint256",
                            "name": "rawValue",
                            "type": "uint256"
                        }
                    ],
                    "internalType": "struct FixedPoint.Unsigned",
                    "name": "totalDebtUSD",
                    "type": "tuple"
                }
            ],
            "stateMutability": "view",
            "type": "function"
        },
        {
            "inputs": [
                {
                    "internalType": "address[]",
                    "name": "assetAddresses",
                    "type": "address[]"
                }
            ],
            "name": "krAssetInfos",
            "outputs": [
                {
                    "components": [
                        {
                            "internalType": "address",
                            "name": "oracleAddress",
                            "type": "address"
                        },
                        {
                            "internalType": "address",
                            "name": "assetAddress",
                            "type": "address"
                        },
                        {
                            "internalType": "uint256",
                            "name": "price",
                            "type": "uint256"
                        },
                        {
                            "internalType": "uint256",
                            "name": "value",
                            "type": "uint256"
                        },
                        {
                            "components": [
                                {
                                    "internalType": "uint256",
                                    "name": "rawValue",
                                    "type": "uint256"
                                }
                            ],
                            "internalType": "struct FixedPoint.Unsigned",
                            "name": "kFactor",
                            "type": "tuple"
                        },
                        {
                            "internalType": "string",
                            "name": "symbol",
                            "type": "string"
                        },
                        {
                            "internalType": "string",
                            "name": "name",
                            "type": "string"
                        }
                    ],
                    "internalType": "struct KreskoViewer.krAssetInfo[]",
                    "name": "result",
                    "type": "tuple[]"
                }
            ],
            "stateMutability": "view",
            "type": "function"
        },
        {
            "inputs": [
                {
                    "internalType": "address",
                    "name": "_account",
                    "type": "address"
                }
            ],
            "name": "kreskoUser",
            "outputs": [
                {
                    "components": [
                        {
                            "components": [
                                {
                                    "internalType": "address",
                                    "name": "assetAddress",
                                    "type": "address"
                                },
                                {
                                    "internalType": "address",
                                    "name": "oracleAddress",
                                    "type": "address"
                                },
                                {
                                    "internalType": "uint256",
                                    "name": "amount",
                                    "type": "uint256"
                                },
                                {
                                    "components": [
                                        {
                                            "internalType": "uint256",
                                            "name": "rawValue",
                                            "type": "uint256"
                                        }
                                    ],
                                    "internalType": "struct FixedPoint.Unsigned",
                                    "name": "amountUSD",
                                    "type": "tuple"
                                },
                                {
                                    "internalType": "uint256",
                                    "name": "index",
                                    "type": "uint256"
                                },
                                {
                                    "components": [
                                        {
                                            "internalType": "uint256",
                                            "name": "rawValue",
                                            "type": "uint256"
                                        }
                                    ],
                                    "internalType": "struct FixedPoint.Unsigned",
                                    "name": "kFactor",
                                    "type": "tuple"
                                },
                                {
                                    "internalType": "bool",
                                    "name": "mintable",
                                    "type": "bool"
                                },
                                {
                                    "internalType": "uint256",
                                    "name": "price",
                                    "type": "uint256"
                                },
                                {
                                    "internalType": "string",
                                    "name": "symbol",
                                    "type": "string"
                                },
                                {
                                    "internalType": "string",
                                    "name": "name",
                                    "type": "string"
                                }
                            ],
                            "internalType": "struct KreskoViewer.krAssetInfoUser[]",
                            "name": "krAssets",
                            "type": "tuple[]"
                        },
                        {
                            "components": [
                                {
                                    "internalType": "address",
                                    "name": "assetAddress",
                                    "type": "address"
                                },
                                {
                                    "internalType": "address",
                                    "name": "oracleAddress",
                                    "type": "address"
                                },
                                {
                                    "internalType": "address",
                                    "name": "underlyingRebasingToken",
                                    "type": "address"
                                },
                                {
                                    "internalType": "uint256",
                                    "name": "amount",
                                    "type": "uint256"
                                },
                                {
                                    "components": [
                                        {
                                            "internalType": "uint256",
                                            "name": "rawValue",
                                            "type": "uint256"
                                        }
                                    ],
                                    "internalType": "struct FixedPoint.Unsigned",
                                    "name": "amountUSD",
                                    "type": "tuple"
                                },
                                {
                                    "components": [
                                        {
                                            "internalType": "uint256",
                                            "name": "rawValue",
                                            "type": "uint256"
                                        }
                                    ],
                                    "internalType": "struct FixedPoint.Unsigned",
                                    "name": "cFactor",
                                    "type": "tuple"
                                },
                                {
                                    "internalType": "uint8",
                                    "name": "decimals",
                                    "type": "uint8"
                                },
                                {
                                    "internalType": "uint256",
                                    "name": "index",
                                    "type": "uint256"
                                },
                                {
                                    "internalType": "uint256",
                                    "name": "price",
                                    "type": "uint256"
                                },
                                {
                                    "internalType": "string",
                                    "name": "symbol",
                                    "type": "string"
                                },
                                {
                                    "internalType": "string",
                                    "name": "name",
                                    "type": "string"
                                }
                            ],
                            "internalType": "struct KreskoViewer.CollateralAssetInfoUser[]",
                            "name": "collateralAssets",
                            "type": "tuple[]"
                        },
                        {
                            "components": [
                                {
                                    "internalType": "uint256",
                                    "name": "rawValue",
                                    "type": "uint256"
                                }
                            ],
                            "internalType": "struct FixedPoint.Unsigned",
                            "name": "healthFactor",
                            "type": "tuple"
                        },
                        {
                            "components": [
                                {
                                    "internalType": "uint256",
                                    "name": "rawValue",
                                    "type": "uint256"
                                }
                            ],
                            "internalType": "struct FixedPoint.Unsigned",
                            "name": "debtActualUSD",
                            "type": "tuple"
                        },
                        {
                            "components": [
                                {
                                    "internalType": "uint256",
                                    "name": "rawValue",
                                    "type": "uint256"
                                }
                            ],
                            "internalType": "struct FixedPoint.Unsigned",
                            "name": "debtUSD",
                            "type": "tuple"
                        },
                        {
                            "components": [
                                {
                                    "internalType": "uint256",
                                    "name": "rawValue",
                                    "type": "uint256"
                                }
                            ],
                            "internalType": "struct FixedPoint.Unsigned",
                            "name": "collateralActualUSD",
                            "type": "tuple"
                        },
                        {
                            "components": [
                                {
                                    "internalType": "uint256",
                                    "name": "rawValue",
                                    "type": "uint256"
                                }
                            ],
                            "internalType": "struct FixedPoint.Unsigned",
                            "name": "collateralUSD",
                            "type": "tuple"
                        },
                        {
                            "components": [
                                {
                                    "internalType": "uint256",
                                    "name": "rawValue",
                                    "type": "uint256"
                                }
                            ],
                            "internalType": "struct FixedPoint.Unsigned",
                            "name": "minCollateralUSD",
                            "type": "tuple"
                        },
                        {
                            "components": [
                                {
                                    "internalType": "uint256",
                                    "name": "rawValue",
                                    "type": "uint256"
                                }
                            ],
                            "internalType": "struct FixedPoint.Unsigned",
                            "name": "borrowingPowerUSD",
                            "type": "tuple"
                        }
                    ],
                    "internalType": "struct KreskoViewer.KreskoUser",
                    "name": "user",
                    "type": "tuple"
                }
            ],
            "stateMutability": "view",
            "type": "function"
        }
    ],
    "transactionHash": "0x1095fb3f8d76116548c2196854de07878f59232375bb508b9b77e75188586ba0",
    "args": [
        "0x570c1f7B255b90BDE738F1E1316EB41c2db49bc9",
        "0xDD08AFE0BFF3e5108fb016370f16c7B32CA522e2"
    ],
    "numDeployments": 2,
    "solcInputHash": "771595e30ebf192e573a6237be296876",
    "bytecode": "0x60806040523480156200001157600080fd5b506040516200409d3803806200409d83398101604081905262000034916200007f565b600080546001600160a01b039384166001600160a01b03199182161790915560018054929093169116179055620000be565b6001600160a01b03811681146200007c57600080fd5b50565b600080604083850312156200009357600080fd5b8251620000a08162000066565b6020840151909250620000b38162000066565b809150509250929050565b613fcf80620000ce6000396000f3fe608060405234801561001057600080fd5b50600436106101005760003560e01c8063ac1e25fb11610097578063d1c0702811610066578063d1c0702814610285578063def86ce1146102a5578063f57df22e146102c6578063f79031e8146102f157600080fd5b8063ac1e25fb14610212578063b56274d414610232578063b69a985014610245578063be6d74a01461026557600080fd5b80636bb52909116100d35780636bb529091461018e5780636e0696d6146101af57806378d33ebd146101d0578063983ff615146101f057600080fd5b806327c5607d1461010557806358b23fd71461012e578063624ba7011461014e57806367a7b5f61461016e575b600080fd5b610118610113366004612ba8565b610304565b6040516101259190612d18565b60405180910390f35b61014161013c366004612d2b565b6106a6565b6040516101259190612dc5565b61016161015c366004612ba8565b6108ed565b6040516101259190612f18565b61018161017c366004612f2b565b610c36565b6040516101259190612f83565b6101a161019c366004613087565b610ff9565b6040516101259291906130eb565b6101c26101bd366004612f2b565b611019565b6040516101259291906131ff565b6101e36101de366004613222565b6114f7565b604051610125919061326d565b6102036101fe366004612f2b565b6118cd565b60405190518152602001610125565b610225610220366004613345565b6119f9565b60405161012591906133b1565b610203610240366004612f2b565b611bf4565b610258610253366004613481565b611d30565b60405161012591906134ca565b610278610273366004612f2b565b611e9a565b60405161012591906135f8565b6102986102933660046136a3565b61209c565b60405161012591906136f5565b6102b86102b3366004612f2b565b612201565b604051610125929190613740565b6001546102d9906001600160a01b031681565b6040516001600160a01b039091168152602001610125565b6000546102d9906001600160a01b031681565b6060815167ffffffffffffffff81111561032057610320612a65565b60405190808252806020026020018201604052801561035957816020015b6103466127a2565b81526020019060019003908161033e5790505b50905060005b82518110156106a057600083828151811061037c5761037c613753565b602090810291909101015160008054604051635390972760e01b81526001600160a01b0380851660048301529394509192169063539097279060240160a060405180830381865afa1580156103d5573d6000803e3d6000fd5b505050506040513d601f19601f820116820180604052508101906103f991906137d1565b90506000826001600160a01b031663313ce5676040518163ffffffff1660e01b8152600401602060405180830381865afa15801561043b573d6000803e3d6000fd5b505050506040513d601f19601f8201168201806040525081019061045f9190613864565b90506000836001600160a01b03166395d89b416040518163ffffffff1660e01b8152600401600060405180830381865afa1580156104a1573d6000803e3d6000fd5b505050506040513d6000823e601f3d908101601f191682016040526104c9919081019061387f565b600080549192509081906001600160a01b0316633ae000c0876104ed87600a613a04565b6104f8906001613a13565b6040517fffffffff0000000000000000000000000000000000000000000000000000000060e085901b1681526001600160a01b0390921660048301526024820152600060448201526064016040805180830381865afa15801561055f573d6000803e3d6000fd5b505050506040513d601f19601f820116820180604052508101906105839190613a32565b915091506000866001600160a01b03166306fdde036040518163ffffffff1660e01b8152600401600060405180830381865afa1580156105c7573d6000803e3d6000fd5b505050506040513d6000823e601f3d908101601f191682016040526105ef919081019061387f565b90506000604051806101200160405280896001600160a01b0316815260200188602001516001600160a01b0316815260200188604001516001600160a01b031681526020018460000151815260200185600001518152602001886000015181526020018760ff168152602001868152602001838152509050808a8a8151811061067a5761067a613753565b60200260200101819052505050505050505050808061069890613a5e565b91505061035f565b50919050565b6060815167ffffffffffffffff8111156106c2576106c2612a65565b60405190808252806020026020018201604052801561071a57816020015b6107076040518060600160405280600060ff16815260200160608152602001606081525090565b8152602001906001900390816106e05790505b50905060005b82518110156106a057604051806060016040528084838151811061074657610746613753565b60200260200101516001600160a01b031663313ce5676040518163ffffffff1660e01b8152600401602060405180830381865afa15801561078b573d6000803e3d6000fd5b505050506040513d601f19601f820116820180604052508101906107af9190613864565b60ff1681526020018483815181106107c9576107c9613753565b60200260200101516001600160a01b03166395d89b416040518163ffffffff1660e01b8152600401600060405180830381865afa15801561080e573d6000803e3d6000fd5b505050506040513d6000823e601f3d908101601f19168201604052610836919081019061387f565b815260200184838151811061084d5761084d613753565b60200260200101516001600160a01b03166306fdde036040518163ffffffff1660e01b8152600401600060405180830381865afa158015610892573d6000803e3d6000fd5b505050506040513d6000823e601f3d908101601f191682016040526108ba919081019061387f565b8152508282815181106108cf576108cf613753565b602002602001018190525080806108e590613a5e565b915050610720565b6060815167ffffffffffffffff81111561090957610909612a65565b60405190808252806020026020018201604052801561094257816020015b61092f61281b565b8152602001906001900390816109275790505b50905060005b82518110156106a057600083828151811061096557610965613753565b60209081029190910101516000805460405163d7bfcecd60e01b81526001600160a01b0380851660048301529394509192169063d7bfcecd90602401608060405180830381865afa1580156109be573d6000803e3d6000fd5b505050506040513d601f19601f820116820180604052508101906109e29190613a79565b60008054604051631a69f54b60e21b81526001600160a01b038681166004830152670de0b6b3a7640000602483015260448201849052939450919216906369a7d52c90606401602060405180830381865afa158015610a45573d6000803e3d6000fd5b505050506040513d601f19601f82011682018060405250810190610a699190613af9565b9050600082602001516001600160a01b03166350d25bcd6040518163ffffffff1660e01b8152600401602060405180830381865afa158015610aaf573d6000803e3d6000fd5b505050506040513d601f19601f82011682018060405250810190610ad39190613b15565b90506000846001600160a01b03166306fdde036040518163ffffffff1660e01b8152600401600060405180830381865afa158015610b15573d6000803e3d6000fd5b505050506040513d6000823e601f3d908101601f19168201604052610b3d919081019061387f565b90506000856001600160a01b03166395d89b416040518163ffffffff1660e01b8152600401600060405180830381865afa158015610b7f573d6000803e3d6000fd5b505050506040513d6000823e601f3d908101601f19168201604052610ba7919081019061387f565b905060006040518060e0016040528087602001516001600160a01b03168152602001886001600160a01b03168152602001858152602001866000015181526020018760000151815260200183815260200184815250905080898981518110610c1157610c11613753565b6020026020010181905250505050505050508080610c2e90613a5e565b915050610948565b600154604051632f51fa7d60e11b81526001600160a01b038381166004830152606092600092911690635ea3f4fa90602401600060405180830381865afa158015610c85573d6000803e3d6000fd5b505050506040513d6000823e601f3d908101601f19168201604052610cad9190810190613bed565b9050805167ffffffffffffffff811115610cc957610cc9612a65565b604051908082528060200260200182016040528015610d4357816020015b610d306040518060e001604052806000815260200160006001600160a01b0316815260200160608152602001600081526020016000815260200160608152602001606081525090565b815260200190600190039081610ce75790505b50915060005b8151811015610ff25760015482516000916001600160a01b0316906393f1a40b90859085908110610d7c57610d7c613753565b602002602001015160000151876040518363ffffffff1660e01b8152600401610db89291909182526001600160a01b0316602082015260400190565b600060405180830381865afa158015610dd5573d6000803e3d6000fd5b505050506040513d6000823e601f3d908101601f19168201604052610dfd9190810190613d03565b60015484519192506000916001600160a01b0390911690631526fe2790869086908110610e2c57610e2c613753565b6020026020010151600001516040518263ffffffff1660e01b8152600401610e5691815260200190565b600060405180830381865afa158015610e73573d6000803e3d6000fd5b505050506040513d6000823e601f3d908101601f19168201604052610e9b9190810190613db0565b90506000816000015190506040518060e00160405280868681518110610ec357610ec3613753565b6020908102919091018101515182526001600160a01b03848116918301829052600154604080516368e2f7b760e01b815260048101949094529093019216906368e2f7b790602401600060405180830381865afa158015610f28573d6000803e3d6000fd5b505050506040513d6000823e601f3d908101601f19168201604052610f509190810190613e76565b815260200183604001516fffffffffffffffffffffffffffffffff16815260200184600001518152602001868681518110610f8d57610f8d613753565b6020026020010151602001518152602001868681518110610fb057610fb0613753565b602002602001015160400151815250868581518110610fd157610fd1613753565b60200260200101819052505050508080610fea90613a5e565b915050610d49565b5050919050565b60608061100584610304565b9150611010836108ed565b90509250929050565b60606110316040518060200160405280600081525090565b6000805460405163369c411560e11b81526001600160a01b03868116600483015290911690636d38822a90602401600060405180830381865afa15801561107c573d6000803e3d6000fd5b505050506040513d6000823e601f3d908101601f191682016040526110a49190810190613eab565b8051909150156114f157805167ffffffffffffffff8111156110c8576110c8612a65565b60405190808252806020026020018201604052801561116357816020015b6040805161016081018252600080825260208083018290528284018290526060808401839052845180830186528381526080850152845191820190945281815260a083015260c0820181905260e0820181905261010082015261012081018290526101408101919091528152602001906001900390816110e65790505b50925060005b81518110156114ef57600082828151811061118657611186613753565b602090810291909101015160008054604051635390972760e01b81526001600160a01b0380851660048301529394509192169063539097279060240160a060405180830381865afa1580156111df573d6000803e3d6000fd5b505050506040513d601f19601f8201168201806040525081019061120391906137d1565b90506000826001600160a01b031663313ce5676040518163ffffffff1660e01b8152600401602060405180830381865afa158015611245573d6000803e3d6000fd5b505050506040513d601f19601f820116820180604052508101906112699190613864565b60008054604051630c65e07b60e01b81526001600160a01b038c81166004830152878116602483015293945091921690630c65e07b90604401602060405180830381865afa1580156112bf573d6000803e3d6000fd5b505050506040513d601f19601f820116820180604052508101906112e39190613b15565b90506000846001600160a01b03166395d89b416040518163ffffffff1660e01b8152600401600060405180830381865afa158015611325573d6000803e3d6000fd5b505050506040513d6000823e601f3d908101601f1916820160405261134d919081019061387f565b6000805460405162eb800360e61b81526001600160a01b038981166004830152602482018790526001604483015293945091928392911690633ae000c0906064016040805180830381865afa1580156113aa573d6000803e3d6000fd5b505050506040513d601f19601f820116820180604052508101906113ce9190613a32565b915091506000876001600160a01b03166306fdde036040518163ffffffff1660e01b8152600401600060405180830381865afa158015611412573d6000803e3d6000fd5b505050506040513d6000823e601f3d908101601f1916820160405261143a919081019061387f565b60408051610160810182526001600160a01b03808c16825260208b8101518216908301528a83015116918101919091526060810187905260808101859052885160a082015260ff881660c082015260e081018b90528351610100820152610120810186905261014081018290529091506114b48c8561267a565b50808d8b815181106114c8576114c8613753565b602002602001018190525050505050505050505080806114e790613a5e565b915050611169565b505b50915091565b6114ff61287e565b60408051610120810182526001600160a01b03858116808352600054935163d7bfcecd60e01b815260048101919091529192602084019291169063d7bfcecd90602401608060405180830381865afa15801561155f573d6000803e3d6000fd5b505050506040513d601f19601f820116820180604052508101906115839190613a79565b518152600054604051635390972760e01b81526001600160a01b0387811660048301526020909301929091169063539097279060240160a060405180830381865afa1580156115d6573d6000803e3d6000fd5b505050506040513d601f19601f820116820180604052508101906115fa91906137d1565b600001518152602001836001600160a01b03166350d25bcd6040518163ffffffff1660e01b8152600401602060405180830381865afa158015611641573d6000803e3d6000fd5b505050506040513d601f19601f820116820180604052508101906116659190613b15565b8152600054604051639b177c1960e01b81526001600160a01b03878116600483015260209093019290911690639b177c1990602401602060405180830381865afa1580156116b7573d6000803e3d6000fd5b505050506040513d601f19601f820116820180604052508101906116db9190613ee0565b1515815260005460405163a61d1d5160e01b81526001600160a01b0387811660048301526020909301929091169063a61d1d5190602401602060405180830381865afa15801561172f573d6000803e3d6000fd5b505050506040513d601f19601f820116820180604052508101906117539190613ee0565b15158152600054604051630692479b60e31b81526001600160a01b0388811660048301528781166024830152602090930192909116906334923cd890604401602060405180830381865afa1580156117af573d6000803e3d6000fd5b505050506040513d601f19601f820116820180604052508101906117d39190613b15565b8152600054604051630c65e07b60e01b81526001600160a01b038881166004830152878116602483015260209093019290911690630c65e07b90604401602060405180830381865afa15801561182d573d6000803e3d6000fd5b505050506040513d601f19601f820116820180604052508101906118519190613b15565b81526040516370a0823160e01b81526001600160a01b0387811660048301526020909201918616906370a0823190602401602060405180830381865afa15801561189f573d6000803e3d6000fd5b505050506040513d601f19601f820116820180604052508101906118c39190613b15565b9052949350505050565b60408051602081019091526000815260008054604051633fa1c54560e21b81526001600160a01b0385811660048301529091169063fe87151490602401602060405180830381865afa158015611927573d6000803e3d6000fd5b505050506040513d601f19601f8201168201806040525081019061194b9190613af9565b600080546040516307d1a44560e41b81526001600160a01b03878116600483015293945091921690637d1a445090602401602060405180830381865afa158015611999573d6000803e3d6000fd5b505050506040513d601f19601f820116820180604052508101906119bd9190613af9565b90506119cb81835190511090565b156119e757505060408051602081019091526000815292915050565b6119f181836126af565b949350505050565b6060838214611a4e5760405162461bcd60e51b815260206004820152601360248201527f5175657279206d75737420626520657175616c00000000000000000000000000604482015260640160405180910390fd5b8367ffffffffffffffff811115611a6757611a67612a65565b604051908082528060200260200182016040528015611ab957816020015b604080516080810182526000808252602080830182905292820181905260608201528252600019909201910181611a855790505b50905060005b84811015611beb576000806000868685818110611ade57611ade613753565b9050602002016020810190611af39190612f2b565b6001600160a01b031663feaf968c6040518163ffffffff1660e01b815260040160a060405180830381865afa158015611b30573d6000803e3d6000fd5b505050506040513d601f19601f82011682018060405250810190611b549190613f15565b509350509250925060405180608001604052808381526020018281526020018a8a87818110611b8557611b85613753565b9050602002016020810190611b9a9190612f2b565b6001600160a01b031681526020018469ffffffffffffffffffff16815250858581518110611bca57611bca613753565b60200260200101819052505050508080611be390613a5e565b915050611abf565b50949350505050565b604080516020810190915260008152600080546040517fff1389c50000000000000000000000000000000000000000000000000000000081526001600160a01b0385811660048301529091169063ff1389c590602401602060405180830381865afa158015611c67573d6000803e3d6000fd5b505050506040513d601f19601f82011682018060405250810190611c8b9190613af9565b600080546040516307d1a44560e41b81526001600160a01b03878116600483015293945091921690637d1a445090602401602060405180830381865afa158015611cd9573d6000803e3d6000fd5b505050506040513d601f19601f82011682018060405250810190611cfd9190613af9565b9050611d0a8260006126d9565b15611d19576119f181836126f0565b505060408051602081019091526000815292915050565b6060835167ffffffffffffffff811115611d4c57611d4c612a65565b604051908082528060200260200182016040528015611d9757816020015b6040805160608101825260008082526020808301829052928201528252600019909201910181611d6a5790505b50905060005b8451811015611e92576040518060600160405280856001600160a01b03168152602001846001600160a01b03168152602001868381518110611de157611de1613753565b6020908102919091010151604051636eb1769f60e11b81526001600160a01b03888116600483015287811660248301529091169063dd62ed3e90604401602060405180830381865afa158015611e3b573d6000803e3d6000fd5b505050506040513d601f19601f82011682018060405250810190611e5f9190613b15565b815250828281518110611e7457611e74613753565b60200260200101819052508080611e8a90613a5e565b915050611d9d565b509392505050565b611ea26128ff565b600080611eae84612201565b91509150600080611ebe86611019565b91509150600084511180611ed3575060008251115b1561209357604051806101200160405280858152602001838152602001611ef988611bf4565b815260208101859052600054604080517fff1389c50000000000000000000000000000000000000000000000000000000081526001600160a01b038b81166004830152919093019291169063ff1389c590602401602060405180830381865afa158015611f6a573d6000803e3d6000fd5b505050506040513d601f19601f82011682018060405250810190611f8e9190613af9565b815260208101839052600054604080516307d1a44560e41b81526001600160a01b038b811660048301529190930192911690637d1a445090602401602060405180830381865afa158015611fe6573d6000803e3d6000fd5b505050506040513d601f19601f8201168201806040525081019061200a9190613af9565b8152600054604051633fa1c54560e21b81526001600160a01b038a811660048301526020909301929091169063fe87151490602401602060405180830381865afa15801561205c573d6000803e3d6000fd5b505050506040513d601f19601f820116820180604052508101906120809190613af9565b815260200161208e886118cd565b905294505b50505050919050565b6060825167ffffffffffffffff8111156120b8576120b8612a65565b6040519080825280602002602001820160405280156120fd57816020015b60408051808201909152600080825260208201528152602001906001900390816120d65790505b50905060005b83518110156121fa57604051806040016040528085838151811061212957612129613753565b60200260200101516001600160a01b0316815260200185838151811061215157612151613753565b60209081029190910101516040516370a0823160e01b81526001600160a01b038781166004830152909116906370a0823190602401602060405180830381865afa1580156121a3573d6000803e3d6000fd5b505050506040513d601f19601f820116820180604052508101906121c79190613b15565b8152508282815181106121dc576121dc613753565b602002602001018190525080806121f290613a5e565b915050612103565b5092915050565b60606122196040518060200160405280600081525090565b600080546040516377d4074360e11b81526001600160a01b0386811660048301529091169063efa80e8690602401600060405180830381865afa158015612264573d6000803e3d6000fd5b505050506040513d6000823e601f3d908101601f1916820160405261228c9190810190613eab565b8051909150156114f157805167ffffffffffffffff8111156122b0576122b0612a65565b6040519080825280602002602001820160405280156122e957816020015b6122d66129d6565b8152602001906001900390816122ce5790505b50925060005b81518110156114ef57600082828151811061230c5761230c613753565b60209081029190910101516000805460405163d7bfcecd60e01b81526001600160a01b0380851660048301529394509192169063d7bfcecd90602401608060405180830381865afa158015612365573d6000803e3d6000fd5b505050506040513d601f19601f820116820180604052508101906123899190613a79565b60008054604051630692479b60e31b81526001600160a01b038b811660048301528681166024830152939450919216906334923cd890604401602060405180830381865afa1580156123df573d6000803e3d6000fd5b505050506040513d601f19601f820116820180604052508101906124039190613b15565b9050600082602001516001600160a01b03166350d25bcd6040518163ffffffff1660e01b8152600401602060405180830381865afa158015612449573d6000803e3d6000fd5b505050506040513d601f19601f8201168201806040525081019061246d9190613b15565b60008054604051631a69f54b60e21b81526001600160a01b0388811660048301526024820187905260016044830152939450919216906369a7d52c90606401602060405180830381865afa1580156124c9573d6000803e3d6000fd5b505050506040513d601f19601f820116820180604052508101906124ed9190613af9565b90506000856001600160a01b03166395d89b416040518163ffffffff1660e01b8152600401600060405180830381865afa15801561252f573d6000803e3d6000fd5b505050506040513d6000823e601f3d908101601f19168201604052612557919081019061387f565b90506000866001600160a01b03166306fdde036040518163ffffffff1660e01b8152600401600060405180830381865afa158015612599573d6000803e3d6000fd5b505050506040513d6000823e601f3d908101601f191682016040526125c1919081019061387f565b90506000604051806101400160405280896001600160a01b0316815260200188602001516001600160a01b031681526020018781526020018581526020018a815260200188600001518152602001886060015115158152602001868152602001848152602001838152509050612640848c61267a90919063ffffffff16565b50808c8a8151811061265457612654613753565b60200260200101819052505050505050505050808061267290613a5e565b9150506122ef565b60408051602081019091526000815260408051602081019091528251845182916126a49190612731565b905290505b92915050565b60408051602081019091526000815260408051602081019091528251845182916126a49190612744565b60006126e482612750565b51835111905092915050565b60408051602081019091526000815260405180602001604052806126a4846000015161272b6012600a6127239190613f65565b88519061278a565b90612796565b600061273d8284613f71565b9392505050565b600061273d8284613f89565b60408051602081019091526000815260405180602001604052806127826012600a61277b9190613f65565b859061278a565b905292915050565b600061273d8284613a13565b600061273d8284613fa0565b60405180610120016040528060006001600160a01b0316815260200160006001600160a01b0316815260200160006001600160a01b0316815260200160008152602001600081526020016128026040518060200160405280600081525090565b8152600060208201526060604082018190529081015290565b6040518060e0016040528060006001600160a01b0316815260200160006001600160a01b03168152602001600081526020016000815260200161286a6040518060200160405280600081525090565b815260200160608152602001606081525090565b60405180610120016040528060006001600160a01b031681526020016128b06040518060200160405280600081525090565b81526020016128cb6040518060200160405280600081525090565b8152602001600081526020016000151581526020016000151581526020016000815260200160008152602001600081525090565b604051806101200160405280606081526020016060815260200161292f6040518060200160405280600081525090565b815260200161294a6040518060200160405280600081525090565b81526020016129656040518060200160405280600081525090565b81526020016129806040518060200160405280600081525090565b815260200161299b6040518060200160405280600081525090565b81526020016129b66040518060200160405280600081525090565b81526020016129d16040518060200160405280600081525090565b905290565b60405180610140016040528060006001600160a01b0316815260200160006001600160a01b0316815260200160008152602001612a1f6040518060200160405280600081525090565b815260200160008152602001612a416040518060200160405280600081525090565b81526020016000151581526020016000815260200160608152602001606081525090565b634e487b7160e01b600052604160045260246000fd5b6040516060810167ffffffffffffffff81118282101715612a9e57612a9e612a65565b60405290565b60405160a0810167ffffffffffffffff81118282101715612a9e57612a9e612a65565b604051601f8201601f1916810167ffffffffffffffff81118282101715612af057612af0612a65565b604052919050565b600067ffffffffffffffff821115612b1257612b12612a65565b5060051b60200190565b6001600160a01b0381168114612b3157600080fd5b50565b600082601f830112612b4557600080fd5b81356020612b5a612b5583612af8565b612ac7565b82815260059290921b84018101918181019086841115612b7957600080fd5b8286015b84811015612b9d578035612b9081612b1c565b8352918301918301612b7d565b509695505050505050565b600060208284031215612bba57600080fd5b813567ffffffffffffffff811115612bd157600080fd5b6119f184828501612b34565b60005b83811015612bf8578181015183820152602001612be0565b83811115612c07576000848401525b50505050565b60008151808452612c25816020860160208601612bdd565b601f01601f19169290920160200192915050565b600082825180855260208086019550808260051b84010181860160005b84811015612d0b57601f19868403018952815180516001600160a01b0390811685528582015181168686015260408083015190911690850152606080820151908501526080808201519085015260a080820151519085015260c08082015160ff169085015260e0808201516101208287018190529190612cd883880182612c0d565b925050506101008083015192508582038187015250612cf78183612c0d565b9a86019a9450505090830190600101612c56565b5090979650505050505050565b60208152600061273d6020830184612c39565b60006020808385031215612d3e57600080fd5b823567ffffffffffffffff811115612d5557600080fd5b8301601f81018513612d6657600080fd5b8035612d74612b5582612af8565b81815260059190911b82018301908381019087831115612d9357600080fd5b928401925b82841015612dba578335612dab81612b1c565b82529284019290840190612d98565b979650505050505050565b60006020808301818452808551808352604092508286019150828160051b87010184880160005b83811015612e4b57603f198984030185528151606060ff825116855288820151818a870152612e1d82870182612c0d565b91505087820151915084810388860152612e378183612c0d565b968901969450505090860190600101612dec565b509098975050505050505050565b600081518084526020808501808196508360051b8101915082860160005b85811015612f0b578284038952815180516001600160a01b0390811686528682015116868601526040808201519086015260608082015190860152608080820151519086015260a08082015160e08288018190529190612ed983890182612c0d565b9250505060c08083015192508682038188015250612ef78183612c0d565b9a87019a9550505090840190600101612e77565b5091979650505050505050565b60208152600061273d6020830184612e59565b600060208284031215612f3d57600080fd5b813561273d81612b1c565b600081518084526020808501945080840160005b83811015612f7857815187529582019590820190600101612f5c565b509495945050505050565b60006020808301818452808551808352604092508286019150828160051b8701018488016000805b8481101561307857898403603f19018652825180518552888101516001600160a01b039081168a8701528882015160e08a880181905291612fee83890183612f48565b606085810151908a0152608080860151908a015260a0808601518a8303918b01919091528051808352908e019450908d01925086905b8082101561304657845183168452938d0193928d019260019190910190613024565b50505060c092830151878203888501529291506130638184612f48565b988b0198965050509288019250600101612fab565b50919998505050505050505050565b6000806040838503121561309a57600080fd5b823567ffffffffffffffff808211156130b257600080fd5b6130be86838701612b34565b935060208501359150808211156130d457600080fd5b506130e185828601612b34565b9150509250929050565b6040815260006130fe6040830185612c39565b82810360208401526131108185612e59565b95945050505050565b600081518084526020808501808196508360051b8101915082860160005b85811015612f0b578284038952815180516001600160a01b039081168652868201518116878701526040808301519091169086015260608082015190860152608080820151519086015260a080820151519086015260c08082015160ff169086015260e0808201519086015261010080820151908601526101208082015161016082880181905291906131cc83890182612c0d565b9250505061014080830151925086820381880152506131eb8183612c0d565b9a87019a9550505090840190600101613137565b6040815260006132126040830185613119565b9050825160208301529392505050565b60008060006060848603121561323757600080fd5b833561324281612b1c565b9250602084013561325281612b1c565b9150604084013561326281612b1c565b809150509250925092565b6000610120820190506001600160a01b038351168252602083015151602083015260408301516132a06040840182519052565b506060830151606083015260808301516132be608084018215159052565b5060a08301516132d260a084018215159052565b5060c083015160c083015260e083015160e083015261010080840151818401525092915050565b60008083601f84011261330b57600080fd5b50813567ffffffffffffffff81111561332357600080fd5b6020830191508360208260051b850101111561333e57600080fd5b9250929050565b6000806000806040858703121561335b57600080fd5b843567ffffffffffffffff8082111561337357600080fd5b61337f888389016132f9565b9096509450602087013591508082111561339857600080fd5b506133a5878288016132f9565b95989497509550505050565b602080825282518282018190526000919060409081850190868401855b82811015612f0b578151805185528681015187860152858101516001600160a01b03168686015260609081015169ffffffffffffffffffff1690850152608090930192908501906001016133ce565b600082601f83011261342e57600080fd5b8135602061343e612b5583612af8565b82815260059290921b8401810191818101908684111561345d57600080fd5b8286015b84811015612b9d57803561347481612b1c565b8352918301918301613461565b60008060006060848603121561349657600080fd5b833567ffffffffffffffff8111156134ad57600080fd5b6134b98682870161341d565b935050602084013561325281612b1c565b602080825282518282018190526000919060409081850190868401855b82811015612f0b57815180516001600160a01b03908116865287820151168786015285015185850152606090930192908501906001016134e7565b600081518084526020808501808196508360051b8101915082860160005b85811015612f0b578284038952815180516001600160a01b0390811686528682015116868601526040808201519086015260608082015151908601526080808201519086015260a080820151519086015260c08082015115159086015260e080820151908601526101008082015161014082880181905291906135c583890182612c0d565b9250505061012080830151925086820381880152506135e48183612c0d565b9a87019a9550505090840190600101613540565b6020815260008251610120806020850152613617610140850183613522565b91506020850151601f198584030160408601526136348382613119565b92505060408501516136496060860182519052565b50606085015180516080860152506080850151805160a08601525060a0850151805160c08601525060c0850151805160e08601525060e085015161010061369281870183519052565b909501515193019290925250919050565b600080604083850312156136b657600080fd5b823567ffffffffffffffff8111156136cd57600080fd5b6136d98582860161341d565b92505060208301356136ea81612b1c565b809150509250929050565b602080825282518282018190526000919060409081850190868401855b82811015612f0b57815180516001600160a01b03168552860151868501529284019290850190600101613712565b6040815260006132126040830185613522565b634e487b7160e01b600052603260045260246000fd5b60006020828403121561377b57600080fd5b6040516020810181811067ffffffffffffffff8211171561379e5761379e612a65565b6040529151825250919050565b805160ff811681146137bc57600080fd5b919050565b805180151581146137bc57600080fd5b600060a082840312156137e357600080fd5b60405160a0810181811067ffffffffffffffff8211171561380657613806612a65565b6040526138138484613769565b8152602083015161382381612b1c565b6020820152604083015161383681612b1c565b6040820152613847606084016137ab565b6060820152613858608084016137c1565b60808201529392505050565b60006020828403121561387657600080fd5b61273d826137ab565b60006020828403121561389157600080fd5b815167ffffffffffffffff808211156138a957600080fd5b818401915084601f8301126138bd57600080fd5b8151818111156138cf576138cf612a65565b6138e2601f8201601f1916602001612ac7565b91508082528560208285010111156138f957600080fd5b611beb816020840160208601612bdd565b634e487b7160e01b600052601160045260246000fd5b600181815b8085111561395b5781600019048211156139415761394161390a565b8085161561394e57918102915b93841c9390800290613925565b509250929050565b600082613972575060016126a9565b8161397f575060006126a9565b8160018114613995576002811461399f576139bb565b60019150506126a9565b60ff8411156139b0576139b061390a565b50506001821b6126a9565b5060208310610133831016604e8410600b84101617156139de575081810a6126a9565b6139e88383613920565b80600019048211156139fc576139fc61390a565b029392505050565b600061273d60ff841683613963565b6000816000190483118215151615613a2d57613a2d61390a565b500290565b60008060408385031215613a4557600080fd5b613a4f8484613769565b91506110108460208501613769565b6000600019821415613a7257613a7261390a565b5060010190565b600060808284031215613a8b57600080fd5b6040516080810181811067ffffffffffffffff82111715613aae57613aae612a65565b604052613abb8484613769565b81526020830151613acb81612b1c565b6020820152613adc604084016137c1565b6040820152613aed606084016137c1565b60608201529392505050565b600060208284031215613b0b57600080fd5b61273d8383613769565b600060208284031215613b2757600080fd5b5051919050565b600082601f830112613b3f57600080fd5b81516020613b4f612b5583612af8565b82815260059290921b84018101918181019086841115613b6e57600080fd5b8286015b84811015612b9d578051613b8581612b1c565b8352918301918301613b72565b600082601f830112613ba357600080fd5b81516020613bb3612b5583612af8565b82815260059290921b84018101918181019086841115613bd257600080fd5b8286015b84811015612b9d5780518352918301918301613bd6565b60006020808385031215613c0057600080fd5b825167ffffffffffffffff80821115613c1857600080fd5b818501915085601f830112613c2c57600080fd5b8151613c3a612b5582612af8565b81815260059190911b83018401908481019088831115613c5957600080fd5b8585015b83811015613cf657805185811115613c755760008081fd5b86016060818c03601f1901811315613c8d5760008081fd5b613c95612a7b565b89830151815260408084015189811115613caf5760008081fd5b613cbd8f8d83880101613b2e565b838d015250918301519188831115613cd55760008081fd5b613ce38e8c85870101613b92565b9082015285525050918601918601613c5d565b5098975050505050505050565b600060208284031215613d1557600080fd5b815167ffffffffffffffff80821115613d2d57600080fd5b9083019060408286031215613d4157600080fd5b604051604081018181108382111715613d5c57613d5c612a65565b60405282518152602083015182811115613d7557600080fd5b613d8187828601613b92565b60208301525095945050505050565b80516fffffffffffffffffffffffffffffffff811681146137bc57600080fd5b600060208284031215613dc257600080fd5b815167ffffffffffffffff80821115613dda57600080fd5b9083019060a08286031215613dee57600080fd5b613df6612aa4565b8251613e0181612b1c565b8152613e0f60208401613d90565b6020820152613e2060408401613d90565b6040820152606083015182811115613e3757600080fd5b613e4387828601613b92565b606083015250608083015182811115613e5b57600080fd5b613e6787828601613b2e565b60808301525095945050505050565b600060208284031215613e8857600080fd5b815167ffffffffffffffff811115613e9f57600080fd5b6119f184828501613b92565b600060208284031215613ebd57600080fd5b815167ffffffffffffffff811115613ed457600080fd5b6119f184828501613b2e565b600060208284031215613ef257600080fd5b61273d826137c1565b805169ffffffffffffffffffff811681146137bc57600080fd5b600080600080600060a08688031215613f2d57600080fd5b613f3686613efb565b9450602086015193506040860151925060608601519150613f5960808701613efb565b90509295509295909350565b600061273d8383613963565b60008219821115613f8457613f8461390a565b500190565b600082821015613f9b57613f9b61390a565b500390565b600082613fbd57634e487b7160e01b600052601260045260246000fd5b50049056fea164736f6c634300080a000a",
    "devdoc": {
        "kind": "dev",
        "methods": {},
        "version": 1
    },
    "userdoc": {
        "kind": "user",
        "methods": {},
        "version": 1
    },
    "storageLayout": {
        "storage": [
            {
                "astId": 20495,
                "contract": "src/contracts/KreskoViewer.sol:KreskoViewer",
                "label": "Kresko",
                "offset": 0,
                "slot": "0",
                "type": "t_contract(IKresko)23374"
            },
            {
                "astId": 20498,
                "contract": "src/contracts/KreskoViewer.sol:KreskoViewer",
                "label": "Staking",
                "offset": 0,
                "slot": "1",
                "type": "t_contract(IKrStaking)23124"
            }
        ],
        "types": {
            "t_contract(IKrStaking)23124": {
                "encoding": "inplace",
                "label": "contract IKrStaking",
                "numberOfBytes": "20"
            },
            "t_contract(IKresko)23374": {
                "encoding": "inplace",
                "label": "contract IKresko",
                "numberOfBytes": "20"
            }
        }
    }
}