{
    "address": "0xf93852A798501d2c35796fa2a51bE8E36E2EA5Fa",
    "abi": [
        {
            "inputs": [
                {
                    "internalType": "contract IKresko",
                    "name": "_kresko",
                    "type": "address"
                }
            ],
            "stateMutability": "nonpayable",
            "type": "constructor"
        },
        {
            "inputs": [],
            "name": "Kresko",
            "outputs": [
                {
                    "internalType": "contract IKresko",
                    "name": "",
                    "type": "address"
                }
            ],
            "stateMutability": "view",
            "type": "function"
        },
        {
            "inputs": [
                {
                    "internalType": "address",
                    "name": "_account",
                    "type": "address"
                }
            ],
            "name": "borrowingPowerUSD",
            "outputs": [
                {
                    "internalType": "uint256",
                    "name": "",
                    "type": "uint256"
                }
            ],
            "stateMutability": "view",
            "type": "function"
        },
        {
            "inputs": [
                {
                    "internalType": "address",
                    "name": "_account",
                    "type": "address"
                }
            ],
            "name": "collateralAssetInfoFor",
            "outputs": [
                {
                    "components": [
                        {
                            "internalType": "address",
                            "name": "assetAddress",
                            "type": "address"
                        },
                        {
                            "internalType": "address",
                            "name": "oracleAddress",
                            "type": "address"
                        },
                        {
                            "internalType": "address",
                            "name": "underlyingRebasingToken",
                            "type": "address"
                        },
                        {
                            "internalType": "uint256",
                            "name": "amount",
                            "type": "uint256"
                        },
                        {
                            "internalType": "uint256",
                            "name": "amountUSD",
                            "type": "uint256"
                        },
                        {
                            "components": [
                                {
                                    "internalType": "uint256",
                                    "name": "rawValue",
                                    "type": "uint256"
                                }
                            ],
                            "internalType": "struct FixedPoint.Unsigned",
                            "name": "cFactor",
                            "type": "tuple"
                        },
                        {
                            "internalType": "uint8",
                            "name": "decimals",
                            "type": "uint8"
                        },
                        {
                            "internalType": "uint256",
                            "name": "index",
                            "type": "uint256"
                        },
                        {
                            "internalType": "uint256",
                            "name": "price",
                            "type": "uint256"
                        },
                        {
                            "internalType": "string",
                            "name": "symbol",
                            "type": "string"
                        },
                        {
                            "internalType": "string",
                            "name": "name",
                            "type": "string"
                        }
                    ],
                    "internalType": "struct KreskoViewer.CollateralAssetInfoUser[]",
                    "name": "result",
                    "type": "tuple[]"
                },
                {
                    "internalType": "uint256",
                    "name": "totalCollateralUSD",
                    "type": "uint256"
                }
            ],
            "stateMutability": "view",
            "type": "function"
        },
        {
            "inputs": [
                {
                    "internalType": "address[]",
                    "name": "assetAddresses",
                    "type": "address[]"
                }
            ],
            "name": "collateralAssetInfos",
            "outputs": [
                {
                    "components": [
                        {
                            "internalType": "address",
                            "name": "assetAddress",
                            "type": "address"
                        },
                        {
                            "internalType": "address",
                            "name": "oracleAddress",
                            "type": "address"
                        },
                        {
                            "internalType": "address",
                            "name": "underlyingRebasingToken",
                            "type": "address"
                        },
                        {
                            "internalType": "uint256",
                            "name": "price",
                            "type": "uint256"
                        },
                        {
                            "internalType": "uint256",
                            "name": "value",
                            "type": "uint256"
                        },
                        {
                            "components": [
                                {
                                    "internalType": "uint256",
                                    "name": "rawValue",
                                    "type": "uint256"
                                }
                            ],
                            "internalType": "struct FixedPoint.Unsigned",
                            "name": "cFactor",
                            "type": "tuple"
                        },
                        {
                            "internalType": "uint8",
                            "name": "decimals",
                            "type": "uint8"
                        },
                        {
                            "internalType": "string",
                            "name": "symbol",
                            "type": "string"
                        },
                        {
                            "internalType": "string",
                            "name": "name",
                            "type": "string"
                        }
                    ],
                    "internalType": "struct KreskoViewer.CollateralAssetInfo[]",
                    "name": "result",
                    "type": "tuple[]"
                }
            ],
            "stateMutability": "view",
            "type": "function"
        },
        {
            "inputs": [
                {
                    "internalType": "contract IERC20Upgradeable[]",
                    "name": "_tokens",
                    "type": "address[]"
                },
                {
                    "internalType": "address",
                    "name": "owner",
                    "type": "address"
                },
                {
                    "internalType": "address",
                    "name": "spender",
                    "type": "address"
                }
            ],
            "name": "getAllowances",
            "outputs": [
                {
                    "components": [
                        {
                            "internalType": "address",
                            "name": "owner",
                            "type": "address"
                        },
                        {
                            "internalType": "address",
                            "name": "spender",
                            "type": "address"
                        },
                        {
                            "internalType": "uint256",
                            "name": "allowance",
                            "type": "uint256"
                        }
                    ],
                    "internalType": "struct KreskoViewer.Allowance[]",
                    "name": "allowances",
                    "type": "tuple[]"
                }
            ],
            "stateMutability": "view",
            "type": "function"
        },
        {
            "inputs": [
                {
                    "internalType": "address[]",
                    "name": "_collateralAssets",
                    "type": "address[]"
                },
                {
                    "internalType": "address[]",
                    "name": "_krAssets",
                    "type": "address[]"
                }
            ],
            "name": "getAssetInfos",
            "outputs": [
                {
                    "components": [
                        {
                            "internalType": "address",
                            "name": "assetAddress",
                            "type": "address"
                        },
                        {
                            "internalType": "address",
                            "name": "oracleAddress",
                            "type": "address"
                        },
                        {
                            "internalType": "address",
                            "name": "underlyingRebasingToken",
                            "type": "address"
                        },
                        {
                            "internalType": "uint256",
                            "name": "price",
                            "type": "uint256"
                        },
                        {
                            "internalType": "uint256",
                            "name": "value",
                            "type": "uint256"
                        },
                        {
                            "components": [
                                {
                                    "internalType": "uint256",
                                    "name": "rawValue",
                                    "type": "uint256"
                                }
                            ],
                            "internalType": "struct FixedPoint.Unsigned",
                            "name": "cFactor",
                            "type": "tuple"
                        },
                        {
                            "internalType": "uint8",
                            "name": "decimals",
                            "type": "uint8"
                        },
                        {
                            "internalType": "string",
                            "name": "symbol",
                            "type": "string"
                        },
                        {
                            "internalType": "string",
                            "name": "name",
                            "type": "string"
                        }
                    ],
                    "internalType": "struct KreskoViewer.CollateralAssetInfo[]",
                    "name": "collateralAssets",
                    "type": "tuple[]"
                },
                {
                    "components": [
                        {
                            "internalType": "address",
                            "name": "oracleAddress",
                            "type": "address"
                        },
                        {
                            "internalType": "address",
                            "name": "assetAddress",
                            "type": "address"
                        },
                        {
                            "internalType": "uint256",
                            "name": "price",
                            "type": "uint256"
                        },
                        {
                            "internalType": "uint256",
                            "name": "value",
                            "type": "uint256"
                        },
                        {
                            "components": [
                                {
                                    "internalType": "uint256",
                                    "name": "rawValue",
                                    "type": "uint256"
                                }
                            ],
                            "internalType": "struct FixedPoint.Unsigned",
                            "name": "kFactor",
                            "type": "tuple"
                        },
                        {
                            "internalType": "string",
                            "name": "symbol",
                            "type": "string"
                        },
                        {
                            "internalType": "string",
                            "name": "name",
                            "type": "string"
                        }
                    ],
                    "internalType": "struct KreskoViewer.krAssetInfo[]",
                    "name": "krAssets",
                    "type": "tuple[]"
                }
            ],
            "stateMutability": "view",
            "type": "function"
        },
        {
            "inputs": [
                {
                    "internalType": "contract IERC20Upgradeable[]",
                    "name": "_tokens",
                    "type": "address[]"
                },
                {
                    "internalType": "address",
                    "name": "account",
                    "type": "address"
                }
            ],
            "name": "getBalances",
            "outputs": [
                {
                    "components": [
                        {
                            "internalType": "address",
                            "name": "token",
                            "type": "address"
                        },
                        {
                            "internalType": "uint256",
                            "name": "balance",
                            "type": "uint256"
                        }
                    ],
                    "internalType": "struct KreskoViewer.Balance[]",
                    "name": "balances",
                    "type": "tuple[]"
                }
            ],
            "stateMutability": "view",
            "type": "function"
        },
        {
            "inputs": [
                {
                    "internalType": "contract IERC20MetadataUpgradeable[]",
                    "name": "_tokens",
                    "type": "address[]"
                }
            ],
            "name": "getTokenMetadatas",
            "outputs": [
                {
                    "components": [
                        {
                            "internalType": "uint8",
                            "name": "decimals",
                            "type": "uint8"
                        },
                        {
                            "internalType": "string",
                            "name": "symbol",
                            "type": "string"
                        },
                        {
                            "internalType": "string",
                            "name": "name",
                            "type": "string"
                        }
                    ],
                    "internalType": "struct KreskoViewer.TokenMetadata[]",
                    "name": "metadatas",
                    "type": "tuple[]"
                }
            ],
            "stateMutability": "view",
            "type": "function"
        },
        {
            "inputs": [
                {
                    "internalType": "address",
                    "name": "_account",
                    "type": "address"
                }
            ],
            "name": "healthFactorFor",
            "outputs": [
                {
                    "internalType": "uint256",
                    "name": "",
                    "type": "uint256"
                }
            ],
            "stateMutability": "view",
            "type": "function"
        },
        {
            "inputs": [
                {
                    "internalType": "address",
                    "name": "_account",
                    "type": "address"
                }
            ],
            "name": "krAssetInfoFor",
            "outputs": [
                {
                    "components": [
                        {
                            "internalType": "address",
                            "name": "assetAddress",
                            "type": "address"
                        },
                        {
                            "internalType": "address",
                            "name": "oracleAddress",
                            "type": "address"
                        },
                        {
                            "internalType": "uint256",
                            "name": "amount",
                            "type": "uint256"
                        },
                        {
                            "internalType": "uint256",
                            "name": "amountUSD",
                            "type": "uint256"
                        },
                        {
                            "internalType": "uint256",
                            "name": "index",
                            "type": "uint256"
                        },
                        {
                            "components": [
                                {
                                    "internalType": "uint256",
                                    "name": "rawValue",
                                    "type": "uint256"
                                }
                            ],
                            "internalType": "struct FixedPoint.Unsigned",
                            "name": "kFactor",
                            "type": "tuple"
                        },
                        {
                            "internalType": "bool",
                            "name": "mintable",
                            "type": "bool"
                        },
                        {
                            "internalType": "uint256",
                            "name": "price",
                            "type": "uint256"
                        },
                        {
                            "internalType": "string",
                            "name": "symbol",
                            "type": "string"
                        },
                        {
                            "internalType": "string",
                            "name": "name",
                            "type": "string"
                        }
                    ],
                    "internalType": "struct KreskoViewer.krAssetInfoUser[]",
                    "name": "result",
                    "type": "tuple[]"
                },
                {
                    "internalType": "uint256",
                    "name": "totalDebtUSD",
                    "type": "uint256"
                }
            ],
            "stateMutability": "view",
            "type": "function"
        },
        {
            "inputs": [
                {
                    "internalType": "address[]",
                    "name": "assetAddresses",
                    "type": "address[]"
                }
            ],
            "name": "krAssetInfos",
            "outputs": [
                {
                    "components": [
                        {
                            "internalType": "address",
                            "name": "oracleAddress",
                            "type": "address"
                        },
                        {
                            "internalType": "address",
                            "name": "assetAddress",
                            "type": "address"
                        },
                        {
                            "internalType": "uint256",
                            "name": "price",
                            "type": "uint256"
                        },
                        {
                            "internalType": "uint256",
                            "name": "value",
                            "type": "uint256"
                        },
                        {
                            "components": [
                                {
                                    "internalType": "uint256",
                                    "name": "rawValue",
                                    "type": "uint256"
                                }
                            ],
                            "internalType": "struct FixedPoint.Unsigned",
                            "name": "kFactor",
                            "type": "tuple"
                        },
                        {
                            "internalType": "string",
                            "name": "symbol",
                            "type": "string"
                        },
                        {
                            "internalType": "string",
                            "name": "name",
                            "type": "string"
                        }
                    ],
                    "internalType": "struct KreskoViewer.krAssetInfo[]",
                    "name": "result",
                    "type": "tuple[]"
                }
            ],
            "stateMutability": "view",
            "type": "function"
        },
        {
            "inputs": [
                {
                    "internalType": "address",
                    "name": "_account",
                    "type": "address"
                }
            ],
            "name": "kreskoUser",
            "outputs": [
                {
                    "components": [
                        {
                            "components": [
                                {
                                    "internalType": "address",
                                    "name": "assetAddress",
                                    "type": "address"
                                },
                                {
                                    "internalType": "address",
                                    "name": "oracleAddress",
                                    "type": "address"
                                },
                                {
                                    "internalType": "uint256",
                                    "name": "amount",
                                    "type": "uint256"
                                },
                                {
                                    "internalType": "uint256",
                                    "name": "amountUSD",
                                    "type": "uint256"
                                },
                                {
                                    "internalType": "uint256",
                                    "name": "index",
                                    "type": "uint256"
                                },
                                {
                                    "components": [
                                        {
                                            "internalType": "uint256",
                                            "name": "rawValue",
                                            "type": "uint256"
                                        }
                                    ],
                                    "internalType": "struct FixedPoint.Unsigned",
                                    "name": "kFactor",
                                    "type": "tuple"
                                },
                                {
                                    "internalType": "bool",
                                    "name": "mintable",
                                    "type": "bool"
                                },
                                {
                                    "internalType": "uint256",
                                    "name": "price",
                                    "type": "uint256"
                                },
                                {
                                    "internalType": "string",
                                    "name": "symbol",
                                    "type": "string"
                                },
                                {
                                    "internalType": "string",
                                    "name": "name",
                                    "type": "string"
                                }
                            ],
                            "internalType": "struct KreskoViewer.krAssetInfoUser[]",
                            "name": "krAssets",
                            "type": "tuple[]"
                        },
                        {
                            "components": [
                                {
                                    "internalType": "address",
                                    "name": "assetAddress",
                                    "type": "address"
                                },
                                {
                                    "internalType": "address",
                                    "name": "oracleAddress",
                                    "type": "address"
                                },
                                {
                                    "internalType": "address",
                                    "name": "underlyingRebasingToken",
                                    "type": "address"
                                },
                                {
                                    "internalType": "uint256",
                                    "name": "amount",
                                    "type": "uint256"
                                },
                                {
                                    "internalType": "uint256",
                                    "name": "amountUSD",
                                    "type": "uint256"
                                },
                                {
                                    "components": [
                                        {
                                            "internalType": "uint256",
                                            "name": "rawValue",
                                            "type": "uint256"
                                        }
                                    ],
                                    "internalType": "struct FixedPoint.Unsigned",
                                    "name": "cFactor",
                                    "type": "tuple"
                                },
                                {
                                    "internalType": "uint8",
                                    "name": "decimals",
                                    "type": "uint8"
                                },
                                {
                                    "internalType": "uint256",
                                    "name": "index",
                                    "type": "uint256"
                                },
                                {
                                    "internalType": "uint256",
                                    "name": "price",
                                    "type": "uint256"
                                },
                                {
                                    "internalType": "string",
                                    "name": "symbol",
                                    "type": "string"
                                },
                                {
                                    "internalType": "string",
                                    "name": "name",
                                    "type": "string"
                                }
                            ],
                            "internalType": "struct KreskoViewer.CollateralAssetInfoUser[]",
                            "name": "collateralAssets",
                            "type": "tuple[]"
                        },
                        {
                            "internalType": "uint256",
                            "name": "healthFactor",
                            "type": "uint256"
                        },
                        {
                            "internalType": "uint256",
                            "name": "debtActualUSD",
                            "type": "uint256"
                        },
                        {
                            "internalType": "uint256",
                            "name": "debtUSD",
                            "type": "uint256"
                        },
                        {
                            "internalType": "uint256",
                            "name": "collateralActualUSD",
                            "type": "uint256"
                        },
                        {
                            "internalType": "uint256",
                            "name": "collateralUSD",
                            "type": "uint256"
                        },
                        {
                            "internalType": "uint256",
                            "name": "minCollateralUSD",
                            "type": "uint256"
                        },
                        {
                            "internalType": "uint256",
                            "name": "borrowingPowerUSD",
                            "type": "uint256"
                        }
                    ],
                    "internalType": "struct KreskoViewer.KreskoUser",
                    "name": "user",
                    "type": "tuple"
                }
            ],
            "stateMutability": "view",
            "type": "function"
        }
    ],
    "transactionHash": "0xf3b5c6d9b58e998fcfdf7985bf28f4e7906f50a8323a6809eaf25fef68c1316d",
    "args": [
        "0xb6BdB49B220905D34b0B9348D2AE514Df9D9F5dC"
    ],
    "numDeployments": 1,
    "solcInputHash": "766dda11e869a31fcd3ae688ad31a04c",
    "bytecode": "0x60806040523480156200001157600080fd5b5060405162002cdb38038062002cdb83398101604081905262000034916200005a565b600080546001600160a01b0319166001600160a01b03929092169190911790556200008c565b6000602082840312156200006d57600080fd5b81516001600160a01b03811681146200008557600080fd5b9392505050565b612c3f806200009c6000396000f3fe608060405234801561001057600080fd5b50600436106100d45760003560e01c8063b56274d411610081578063d1c070281161005b578063d1c07028146101f8578063def86ce114610218578063f79031e81461023957600080fd5b8063b56274d4146101a5578063b69a9850146101b8578063be6d74a0146101d857600080fd5b80636bb52909116100b25780636bb52909146101425780636e0696d614610163578063983ff6151461018457600080fd5b806327c5607d146100d957806358b23fd714610102578063624ba70114610122575b600080fd5b6100ec6100e7366004611ef7565b610264565b6040516100f99190612064565b60405180910390f35b610115610110366004612077565b610606565b6040516100f99190612111565b610135610130366004611ef7565b61084d565b6040516100f99190612267565b61015561015036600461227a565b610b96565b6040516100f99291906122de565b61017661017136600461230c565b610bb6565b6040516100f9929190612411565b61019761019236600461230c565b611023565b6040519081526020016100f9565b6101976101b336600461230c565b611132565b6101cb6101c6366004612497565b61124c565b6040516100f991906124fb565b6101eb6101e636600461230c565b6113b6565b6040516100f9919061262b565b61020b6102063660046126be565b611602565b6040516100f99190612710565b61022b61022636600461230c565b611767565b6040516100f992919061275b565b60005461024c906001600160a01b031681565b6040516001600160a01b0390911681526020016100f9565b6060815167ffffffffffffffff81111561028057610280611e00565b6040519080825280602002602001820160405280156102b957816020015b6102a6611c1d565b81526020019060019003908161029e5790505b50905060005b82518110156106005760008382815181106102dc576102dc61276e565b602090810291909101015160008054604051635390972760e01b81526001600160a01b0380851660048301529394509192169063539097279060240160a060405180830381865afa158015610335573d6000803e3d6000fd5b505050506040513d601f19601f8201168201806040525081019061035991906127ec565b90506000826001600160a01b031663313ce5676040518163ffffffff1660e01b8152600401602060405180830381865afa15801561039b573d6000803e3d6000fd5b505050506040513d601f19601f820116820180604052508101906103bf919061287f565b90506000836001600160a01b03166395d89b416040518163ffffffff1660e01b8152600401600060405180830381865afa158015610401573d6000803e3d6000fd5b505050506040513d6000823e601f3d908101601f19168201604052610429919081019061289a565b600080549192509081906001600160a01b0316633ae000c08761044d87600a612a28565b610458906001612a37565b6040517fffffffff0000000000000000000000000000000000000000000000000000000060e085901b1681526001600160a01b0390921660048301526024820152600060448201526064016040805180830381865afa1580156104bf573d6000803e3d6000fd5b505050506040513d601f19601f820116820180604052508101906104e39190612a56565b915091506000866001600160a01b03166306fdde036040518163ffffffff1660e01b8152600401600060405180830381865afa158015610527573d6000803e3d6000fd5b505050506040513d6000823e601f3d908101601f1916820160405261054f919081019061289a565b90506000604051806101200160405280896001600160a01b0316815260200188602001516001600160a01b0316815260200188604001516001600160a01b031681526020018460000151815260200185600001518152602001886000015181526020018760ff168152602001868152602001838152509050808a8a815181106105da576105da61276e565b6020026020010181905250505050505050505080806105f890612a82565b9150506102bf565b50919050565b6060815167ffffffffffffffff81111561062257610622611e00565b60405190808252806020026020018201604052801561067a57816020015b6106676040518060600160405280600060ff16815260200160608152602001606081525090565b8152602001906001900390816106405790505b50905060005b82518110156106005760405180606001604052808483815181106106a6576106a661276e565b60200260200101516001600160a01b031663313ce5676040518163ffffffff1660e01b8152600401602060405180830381865afa1580156106eb573d6000803e3d6000fd5b505050506040513d601f19601f8201168201806040525081019061070f919061287f565b60ff1681526020018483815181106107295761072961276e565b60200260200101516001600160a01b03166395d89b416040518163ffffffff1660e01b8152600401600060405180830381865afa15801561076e573d6000803e3d6000fd5b505050506040513d6000823e601f3d908101601f19168201604052610796919081019061289a565b81526020018483815181106107ad576107ad61276e565b60200260200101516001600160a01b03166306fdde036040518163ffffffff1660e01b8152600401600060405180830381865afa1580156107f2573d6000803e3d6000fd5b505050506040513d6000823e601f3d908101601f1916820160405261081a919081019061289a565b81525082828151811061082f5761082f61276e565b6020026020010181905250808061084590612a82565b915050610680565b6060815167ffffffffffffffff81111561086957610869611e00565b6040519080825280602002602001820160405280156108a257816020015b61088f611c96565b8152602001906001900390816108875790505b50905060005b82518110156106005760008382815181106108c5576108c561276e565b60209081029190910101516000805460405163d7bfcecd60e01b81526001600160a01b0380851660048301529394509192169063d7bfcecd90602401608060405180830381865afa15801561091e573d6000803e3d6000fd5b505050506040513d601f19601f820116820180604052508101906109429190612a9d565b60008054604051631a69f54b60e21b81526001600160a01b038681166004830152670de0b6b3a7640000602483015260448201849052939450919216906369a7d52c90606401602060405180830381865afa1580156109a5573d6000803e3d6000fd5b505050506040513d601f19601f820116820180604052508101906109c99190612b1d565b9050600082602001516001600160a01b03166350d25bcd6040518163ffffffff1660e01b8152600401602060405180830381865afa158015610a0f573d6000803e3d6000fd5b505050506040513d601f19601f82011682018060405250810190610a339190612b39565b90506000846001600160a01b03166306fdde036040518163ffffffff1660e01b8152600401600060405180830381865afa158015610a75573d6000803e3d6000fd5b505050506040513d6000823e601f3d908101601f19168201604052610a9d919081019061289a565b90506000856001600160a01b03166395d89b416040518163ffffffff1660e01b8152600401600060405180830381865afa158015610adf573d6000803e3d6000fd5b505050506040513d6000823e601f3d908101601f19168201604052610b07919081019061289a565b905060006040518060e0016040528087602001516001600160a01b03168152602001886001600160a01b03168152602001858152602001866000015181526020018760000151815260200183815260200184815250905080898981518110610b7157610b7161276e565b6020026020010181905250505050505050508080610b8e90612a82565b9150506108a8565b606080610ba284610264565b9150610bad8361084d565b90509250929050565b6000805460405163369c411560e11b81526001600160a01b038481166004830152606093928392911690636d38822a90602401600060405180830381865afa158015610c06573d6000803e3d6000fd5b505050506040513d6000823e601f3d908101601f19168201604052610c2e9190810190612b52565b80519091501561101d57805167ffffffffffffffff811115610c5257610c52611e00565b604051908082528060200260200182016040528015610c8b57816020015b610c78611cf9565b815260200190600190039081610c705790505b50925060005b815181101561101b576000828281518110610cae57610cae61276e565b602090810291909101015160008054604051635390972760e01b81526001600160a01b0380851660048301529394509192169063539097279060240160a060405180830381865afa158015610d07573d6000803e3d6000fd5b505050506040513d601f19601f82011682018060405250810190610d2b91906127ec565b90506000826001600160a01b031663313ce5676040518163ffffffff1660e01b8152600401602060405180830381865afa158015610d6d573d6000803e3d6000fd5b505050506040513d601f19601f82011682018060405250810190610d91919061287f565b60008054604051630c65e07b60e01b81526001600160a01b038c81166004830152878116602483015293945091921690630c65e07b90604401602060405180830381865afa158015610de7573d6000803e3d6000fd5b505050506040513d601f19601f82011682018060405250810190610e0b9190612b39565b90506000846001600160a01b03166395d89b416040518163ffffffff1660e01b8152600401600060405180830381865afa158015610e4d573d6000803e3d6000fd5b505050506040513d6000823e601f3d908101601f19168201604052610e75919081019061289a565b6000805460405162eb800360e61b81526001600160a01b038981166004830152602482018790526001604483015293945091928392911690633ae000c0906064016040805180830381865afa158015610ed2573d6000803e3d6000fd5b505050506040513d601f19601f82011682018060405250810190610ef69190612a56565b915091506000876001600160a01b03166306fdde036040518163ffffffff1660e01b8152600401600060405180830381865afa158015610f3a573d6000803e3d6000fd5b505050506040513d6000823e601f3d908101601f19168201604052610f62919081019061289a565b60408051610160810182526001600160a01b03808c16825260208b8101518216908301528a83015116918101919091526060810187905284516080820152885160a082015260ff881660c082015260e081018b9052835161010082015261012081018690526101408101829052845191925090610fdf908d612be1565b9b50808d8b81518110610ff457610ff461276e565b6020026020010181905250505050505050505050808061101390612a82565b915050610c91565b505b50915091565b60008054604051633fa1c54560e21b81526001600160a01b0384811660048301528392169063fe87151490602401602060405180830381865afa15801561106e573d6000803e3d6000fd5b505050506040513d601f19601f820116820180604052508101906110929190612b1d565b600080546040516307d1a44560e41b81526001600160a01b03878116600483015293945091921690637d1a445090602401602060405180830381865afa1580156110e0573d6000803e3d6000fd5b505050506040513d601f19601f820116820180604052508101906111049190612b1d565b90506111108183611bcb565b1561111f575060009392505050565b6111298183611bd7565b51949350505050565b60008054604051633fa1c54560e21b81526001600160a01b0384811660048301528392169063fe87151490602401602060405180830381865afa15801561117d573d6000803e3d6000fd5b505050506040513d601f19601f820116820180604052508101906111a19190612b1d565b51600080546040516307d1a44560e41b81526001600160a01b03878116600483015293945091921690637d1a445090602401602060405180830381865afa1580156111f0573d6000803e3d6000fd5b505050506040513d601f19601f820116820180604052508101906112149190612b1d565b5190508115611242578161123082670de0b6b3a7640000612a37565b61123a9190612bf9565b949350505050565b5060009392505050565b6060835167ffffffffffffffff81111561126857611268611e00565b6040519080825280602002602001820160405280156112b357816020015b60408051606081018252600080825260208083018290529282015282526000199092019101816112865790505b50905060005b84518110156113ae576040518060600160405280856001600160a01b03168152602001846001600160a01b031681526020018683815181106112fd576112fd61276e565b6020908102919091010151604051636eb1769f60e11b81526001600160a01b03888116600483015287811660248301529091169063dd62ed3e90604401602060405180830381865afa158015611357573d6000803e3d6000fd5b505050506040513d601f19601f8201168201806040525081019061137b9190612b39565b8152508282815181106113905761139061276e565b602002602001018190525080806113a690612a82565b9150506112b9565b509392505050565b6114056040518061012001604052806060815260200160608152602001600081526020016000815260200160008152602001600081526020016000815260200160008152602001600081525090565b60008061141184611767565b9150915060008061142186610bb6565b91509150600084511180611436575060008251115b156115f95760405180610120016040528085815260200183815260200161145c88611132565b815260208101859052600054604080517fff1389c50000000000000000000000000000000000000000000000000000000081526001600160a01b038b81166004830152919093019291169063ff1389c590602401602060405180830381865afa1580156114cd573d6000803e3d6000fd5b505050506040513d601f19601f820116820180604052508101906114f19190612b1d565b51815260208101839052600054604080516307d1a44560e41b81526001600160a01b038b811660048301529190930192911690637d1a445090602401602060405180830381865afa15801561154a573d6000803e3d6000fd5b505050506040513d601f19601f8201168201806040525081019061156e9190612b1d565b518152600054604051633fa1c54560e21b81526001600160a01b038a811660048301526020909301929091169063fe87151490602401602060405180830381865afa1580156115c1573d6000803e3d6000fd5b505050506040513d601f19601f820116820180604052508101906115e59190612b1d565b5181526020016115f488611023565b905294505b50505050919050565b6060825167ffffffffffffffff81111561161e5761161e611e00565b60405190808252806020026020018201604052801561166357816020015b604080518082019091526000808252602082015281526020019060019003908161163c5790505b50905060005b835181101561176057604051806040016040528085838151811061168f5761168f61276e565b60200260200101516001600160a01b031681526020018583815181106116b7576116b761276e565b60209081029190910101516040516370a0823160e01b81526001600160a01b038781166004830152909116906370a0823190602401602060405180830381865afa158015611709573d6000803e3d6000fd5b505050506040513d601f19601f8201168201806040525081019061172d9190612b39565b8152508282815181106117425761174261276e565b6020026020010181905250808061175890612a82565b915050611669565b5092915050565b600080546040516377d4074360e11b81526001600160a01b03848116600483015260609392839291169063efa80e8690602401600060405180830381865afa1580156117b7573d6000803e3d6000fd5b505050506040513d6000823e601f3d908101601f191682016040526117df9190810190612b52565b80519091501561101d57805167ffffffffffffffff81111561180357611803611e00565b60405190808252806020026020018201604052801561183c57816020015b611829611d85565b8152602001906001900390816118215790505b50925060005b815181101561101b57600082828151811061185f5761185f61276e565b60209081029190910101516000805460405163d7bfcecd60e01b81526001600160a01b0380851660048301529394509192169063d7bfcecd90602401608060405180830381865afa1580156118b8573d6000803e3d6000fd5b505050506040513d601f19601f820116820180604052508101906118dc9190612a9d565b60008054604051630692479b60e31b81526001600160a01b038b811660048301528681166024830152939450919216906334923cd890604401602060405180830381865afa158015611932573d6000803e3d6000fd5b505050506040513d601f19601f820116820180604052508101906119569190612b39565b9050600082602001516001600160a01b03166350d25bcd6040518163ffffffff1660e01b8152600401602060405180830381865afa15801561199c573d6000803e3d6000fd5b505050506040513d601f19601f820116820180604052508101906119c09190612b39565b60008054604051631a69f54b60e21b81526001600160a01b0388811660048301526024820187905260016044830152939450919216906369a7d52c90606401602060405180830381865afa158015611a1c573d6000803e3d6000fd5b505050506040513d601f19601f82011682018060405250810190611a409190612b1d565b6000015190506000856001600160a01b03166395d89b416040518163ffffffff1660e01b8152600401600060405180830381865afa158015611a86573d6000803e3d6000fd5b505050506040513d6000823e601f3d908101601f19168201604052611aae919081019061289a565b90506000866001600160a01b03166306fdde036040518163ffffffff1660e01b8152600401600060405180830381865afa158015611af0573d6000803e3d6000fd5b505050506040513d6000823e601f3d908101601f19168201604052611b18919081019061289a565b90506000604051806101400160405280896001600160a01b0316815260200188602001516001600160a01b031681526020018781526020018581526020018a815260200188600001518152602001886060015115158152602001868152602001848152602001838152509050838b611b909190612be1565b9a50808c8a81518110611ba557611ba561276e565b602002602001018190525050505050505050508080611bc390612a82565b915050611842565b80518251105b92915050565b6040805160208101909152600081526040805160208101909152825184518291611c019190611c0a565b90529392505050565b6000611c168284612c1b565b9392505050565b60405180610120016040528060006001600160a01b0316815260200160006001600160a01b0316815260200160006001600160a01b031681526020016000815260200160008152602001611c7d6040518060200160405280600081525090565b8152600060208201526060604082018190529081015290565b6040518060e0016040528060006001600160a01b0316815260200160006001600160a01b031681526020016000815260200160008152602001611ce56040518060200160405280600081525090565b815260200160608152602001606081525090565b60405180610160016040528060006001600160a01b0316815260200160006001600160a01b0316815260200160006001600160a01b031681526020016000815260200160008152602001611d596040518060200160405280600081525090565b8152602001600060ff168152602001600081526020016000815260200160608152602001606081525090565b60405180610140016040528060006001600160a01b0316815260200160006001600160a01b03168152602001600081526020016000815260200160008152602001611ddc6040518060200160405280600081525090565b81526020016000151581526020016000815260200160608152602001606081525090565b634e487b7160e01b600052604160045260246000fd5b604051601f8201601f1916810167ffffffffffffffff81118282101715611e3f57611e3f611e00565b604052919050565b600067ffffffffffffffff821115611e6157611e61611e00565b5060051b60200190565b6001600160a01b0381168114611e8057600080fd5b50565b600082601f830112611e9457600080fd5b81356020611ea9611ea483611e47565b611e16565b82815260059290921b84018101918181019086841115611ec857600080fd5b8286015b84811015611eec578035611edf81611e6b565b8352918301918301611ecc565b509695505050505050565b600060208284031215611f0957600080fd5b813567ffffffffffffffff811115611f2057600080fd5b61123a84828501611e83565b60005b83811015611f47578181015183820152602001611f2f565b83811115611f56576000848401525b50505050565b60008151808452611f74816020860160208601611f2c565b601f01601f19169290920160200192915050565b600081518084526020808501808196508360051b8101915082860160005b85811015612057578284038952815180516001600160a01b0390811686528682015181168787015260408083015190911690860152606080820151908601526080808201519086015260a080820151519086015260c08082015160ff169086015260e080820151610120828801819052919061202483890182611f5c565b9250505061010080830151925086820381880152506120438183611f5c565b9a87019a9550505090840190600101611fa6565b5091979650505050505050565b602081526000611c166020830184611f88565b6000602080838503121561208a57600080fd5b823567ffffffffffffffff8111156120a157600080fd5b8301601f810185136120b257600080fd5b80356120c0611ea482611e47565b81815260059190911b820183019083810190878311156120df57600080fd5b928401925b828410156121065783356120f781611e6b565b825292840192908401906120e4565b979650505050505050565b60006020808301818452808551808352604092508286019150828160051b87010184880160005b8381101561219757603f198984030185528151606060ff825116855288820151818a87015261216982870182611f5c565b915050878201519150848103888601526121838183611f5c565b968901969450505090860190600101612138565b509098975050505050505050565b600082825180855260208086019550808260051b84010181860160005b8481101561225a57858303601f19018952815180516001600160a01b0390811685528582015116858501526040808201519085015260608082015190850152608080820151519085015260a08082015160e0828701819052919061222883880182611f5c565b9250505060c080830151925085820381870152506122468183611f5c565b9a86019a94505050908301906001016121c2565b5090979650505050505050565b602081526000611c1660208301846121a5565b6000806040838503121561228d57600080fd5b823567ffffffffffffffff808211156122a557600080fd5b6122b186838701611e83565b935060208501359150808211156122c757600080fd5b506122d485828601611e83565b9150509250929050565b6040815260006122f16040830185611f88565b828103602084015261230381856121a5565b95945050505050565b60006020828403121561231e57600080fd5b8135611c1681611e6b565b600082825180855260208086019550808260051b84010181860160005b8481101561225a57601f19868403018952815180516001600160a01b0390811685528582015181168686015260408083015190911690850152606080820151908501526080808201519085015260a080820151519085015260c08082015160ff169085015260e0808201519085015261010080820151908501526101208082015161016082870181905291906123de83880182611f5c565b9250505061014080830151925085820381870152506123fd8183611f5c565b9a86019a9450505090830190600101612346565b6040815260006124246040830185612329565b90508260208301529392505050565b600082601f83011261244457600080fd5b81356020612454611ea483611e47565b82815260059290921b8401810191818101908684111561247357600080fd5b8286015b84811015611eec57803561248a81611e6b565b8352918301918301612477565b6000806000606084860312156124ac57600080fd5b833567ffffffffffffffff8111156124c357600080fd5b6124cf86828701612433565b93505060208401356124e081611e6b565b915060408401356124f081611e6b565b809150509250925092565b602080825282518282018190526000919060409081850190868401855b8281101561205757815180516001600160a01b0390811686528782015116878601528501518585015260609093019290850190600101612518565b600082825180855260208086019550808260051b84010181860160005b8481101561225a57601f19868403018952815180516001600160a01b03908116855285820151168585015260408082015190850152606080820151908501526080808201519085015260a080820151519085015260c08082015115159085015260e080820151908501526101008082015161014082870181905291906125f883880182611f5c565b9250505061012080830151925085820381870152506126178183611f5c565b9a86019a9450505090830190600101612570565b602081526000825161012080602085015261264a610140850183612553565b91506020850151601f198584030160408601526126678382612329565b9250506040850151606085015260608501516080850152608085015160a085015260a085015160c085015260c085015160e085015260e0850151610100818187015280870151838701525050508091505092915050565b600080604083850312156126d157600080fd5b823567ffffffffffffffff8111156126e857600080fd5b6126f485828601612433565b925050602083013561270581611e6b565b809150509250929050565b602080825282518282018190526000919060409081850190868401855b8281101561205757815180516001600160a01b0316855286015186850152928401929085019060010161272d565b6040815260006124246040830185612553565b634e487b7160e01b600052603260045260246000fd5b60006020828403121561279657600080fd5b6040516020810181811067ffffffffffffffff821117156127b9576127b9611e00565b6040529151825250919050565b805160ff811681146127d757600080fd5b919050565b805180151581146127d757600080fd5b600060a082840312156127fe57600080fd5b60405160a0810181811067ffffffffffffffff8211171561282157612821611e00565b60405261282e8484612784565b8152602083015161283e81611e6b565b6020820152604083015161285181611e6b565b6040820152612862606084016127c6565b6060820152612873608084016127dc565b60808201529392505050565b60006020828403121561289157600080fd5b611c16826127c6565b6000602082840312156128ac57600080fd5b815167ffffffffffffffff808211156128c457600080fd5b818401915084601f8301126128d857600080fd5b8151818111156128ea576128ea611e00565b6128fd601f8201601f1916602001611e16565b915080825285602082850101111561291457600080fd5b612925816020840160208601611f2c565b50949350505050565b634e487b7160e01b600052601160045260246000fd5b600181815b8085111561297f5781600019048211156129655761296561292e565b8085161561297257918102915b93841c9390800290612949565b509250929050565b60008261299657506001611bd1565b816129a357506000611bd1565b81600181146129b957600281146129c3576129df565b6001915050611bd1565b60ff8411156129d4576129d461292e565b50506001821b611bd1565b5060208310610133831016604e8410600b8410161715612a02575081810a611bd1565b612a0c8383612944565b8060001904821115612a2057612a2061292e565b029392505050565b6000611c1660ff841683612987565b6000816000190483118215151615612a5157612a5161292e565b500290565b60008060408385031215612a6957600080fd5b612a738484612784565b9150610bad8460208501612784565b6000600019821415612a9657612a9661292e565b5060010190565b600060808284031215612aaf57600080fd5b6040516080810181811067ffffffffffffffff82111715612ad257612ad2611e00565b604052612adf8484612784565b81526020830151612aef81611e6b565b6020820152612b00604084016127dc565b6040820152612b11606084016127dc565b60608201529392505050565b600060208284031215612b2f57600080fd5b611c168383612784565b600060208284031215612b4b57600080fd5b5051919050565b60006020808385031215612b6557600080fd5b825167ffffffffffffffff811115612b7c57600080fd5b8301601f81018513612b8d57600080fd5b8051612b9b611ea482611e47565b81815260059190911b82018301908381019087831115612bba57600080fd5b928401925b82841015612106578351612bd281611e6b565b82529284019290840190612bbf565b60008219821115612bf457612bf461292e565b500190565b600082612c1657634e487b7160e01b600052601260045260246000fd5b500490565b600082821015612c2d57612c2d61292e565b50039056fea164736f6c634300080a000a",
    "devdoc": {
        "kind": "dev",
        "methods": {},
        "version": 1
    },
    "userdoc": {
        "kind": "user",
        "methods": {},
        "version": 1
    },
    "storageLayout": {
        "storage": [
            {
                "astId": 20125,
                "contract": "src/contracts/KreskoViewer.sol:KreskoViewer",
                "label": "Kresko",
                "offset": 0,
                "slot": "0",
                "type": "t_contract(IKresko)22651"
            }
        ],
        "types": {
            "t_contract(IKresko)22651": {
                "encoding": "inplace",
                "label": "contract IKresko",
                "numberOfBytes": "20"
            }
        }
    }
}