{
    "address": "0x234Ff5FB28f1852732276207a033a0923011D467",
    "abi": [
        {
            "inputs": [
                {
                    "internalType": "contract IKresko",
                    "name": "_kresko",
                    "type": "address"
                }
            ],
            "stateMutability": "nonpayable",
            "type": "constructor"
        },
        {
            "inputs": [],
            "name": "Kresko",
            "outputs": [
                {
                    "internalType": "contract IKresko",
                    "name": "",
                    "type": "address"
                }
            ],
            "stateMutability": "view",
            "type": "function"
        },
        {
            "inputs": [
                {
                    "internalType": "address",
                    "name": "_account",
                    "type": "address"
                }
            ],
            "name": "borrowingPowerUSD",
            "outputs": [
                {
                    "internalType": "uint256",
                    "name": "",
                    "type": "uint256"
                }
            ],
            "stateMutability": "view",
            "type": "function"
        },
        {
            "inputs": [
                {
                    "internalType": "address",
                    "name": "_account",
                    "type": "address"
                }
            ],
            "name": "collateralAssetInfoFor",
            "outputs": [
                {
                    "components": [
                        {
                            "internalType": "address",
                            "name": "assetAddress",
                            "type": "address"
                        },
                        {
                            "internalType": "address",
                            "name": "oracleAddress",
                            "type": "address"
                        },
                        {
                            "internalType": "address",
                            "name": "underlyingRebasingToken",
                            "type": "address"
                        },
                        {
                            "internalType": "uint256",
                            "name": "amount",
                            "type": "uint256"
                        },
                        {
                            "internalType": "uint256",
                            "name": "amountUSD",
                            "type": "uint256"
                        },
                        {
                            "components": [
                                {
                                    "internalType": "uint256",
                                    "name": "rawValue",
                                    "type": "uint256"
                                }
                            ],
                            "internalType": "struct FixedPoint.Unsigned",
                            "name": "cFactor",
                            "type": "tuple"
                        },
                        {
                            "internalType": "uint8",
                            "name": "decimals",
                            "type": "uint8"
                        },
                        {
                            "internalType": "uint256",
                            "name": "index",
                            "type": "uint256"
                        },
                        {
                            "internalType": "uint256",
                            "name": "price",
                            "type": "uint256"
                        },
                        {
                            "internalType": "string",
                            "name": "symbol",
                            "type": "string"
                        },
                        {
                            "internalType": "string",
                            "name": "name",
                            "type": "string"
                        }
                    ],
                    "internalType": "struct KreskoViewer.CollateralAssetInfoUser[]",
                    "name": "result",
                    "type": "tuple[]"
                },
                {
                    "internalType": "uint256",
                    "name": "totalCollateralUSD",
                    "type": "uint256"
                }
            ],
            "stateMutability": "view",
            "type": "function"
        },
        {
            "inputs": [
                {
                    "internalType": "address[]",
                    "name": "assetAddresses",
                    "type": "address[]"
                }
            ],
            "name": "collateralAssetInfos",
            "outputs": [
                {
                    "components": [
                        {
                            "internalType": "address",
                            "name": "assetAddress",
                            "type": "address"
                        },
                        {
                            "internalType": "address",
                            "name": "oracleAddress",
                            "type": "address"
                        },
                        {
                            "internalType": "address",
                            "name": "underlyingRebasingToken",
                            "type": "address"
                        },
                        {
                            "internalType": "uint256",
                            "name": "price",
                            "type": "uint256"
                        },
                        {
                            "internalType": "uint256",
                            "name": "value",
                            "type": "uint256"
                        },
                        {
                            "components": [
                                {
                                    "internalType": "uint256",
                                    "name": "rawValue",
                                    "type": "uint256"
                                }
                            ],
                            "internalType": "struct FixedPoint.Unsigned",
                            "name": "cFactor",
                            "type": "tuple"
                        },
                        {
                            "internalType": "uint8",
                            "name": "decimals",
                            "type": "uint8"
                        },
                        {
                            "internalType": "string",
                            "name": "symbol",
                            "type": "string"
                        },
                        {
                            "internalType": "string",
                            "name": "name",
                            "type": "string"
                        }
                    ],
                    "internalType": "struct KreskoViewer.CollateralAssetInfo[]",
                    "name": "result",
                    "type": "tuple[]"
                }
            ],
            "stateMutability": "view",
            "type": "function"
        },
        {
            "inputs": [
                {
                    "internalType": "contract IERC20Upgradeable[]",
                    "name": "_tokens",
                    "type": "address[]"
                },
                {
                    "internalType": "address",
                    "name": "owner",
                    "type": "address"
                },
                {
                    "internalType": "address",
                    "name": "spender",
                    "type": "address"
                }
            ],
            "name": "getAllowances",
            "outputs": [
                {
                    "components": [
                        {
                            "internalType": "address",
                            "name": "spender",
                            "type": "address"
                        },
                        {
                            "internalType": "uint256",
                            "name": "allowance",
                            "type": "uint256"
                        }
                    ],
                    "internalType": "struct KreskoViewer.Allowance[]",
                    "name": "allowances",
                    "type": "tuple[]"
                }
            ],
            "stateMutability": "view",
            "type": "function"
        },
        {
            "inputs": [
                {
                    "internalType": "address[]",
                    "name": "_collateralAssets",
                    "type": "address[]"
                },
                {
                    "internalType": "address[]",
                    "name": "_krAssets",
                    "type": "address[]"
                }
            ],
            "name": "getAssetInfos",
            "outputs": [
                {
                    "components": [
                        {
                            "internalType": "address",
                            "name": "assetAddress",
                            "type": "address"
                        },
                        {
                            "internalType": "address",
                            "name": "oracleAddress",
                            "type": "address"
                        },
                        {
                            "internalType": "address",
                            "name": "underlyingRebasingToken",
                            "type": "address"
                        },
                        {
                            "internalType": "uint256",
                            "name": "price",
                            "type": "uint256"
                        },
                        {
                            "internalType": "uint256",
                            "name": "value",
                            "type": "uint256"
                        },
                        {
                            "components": [
                                {
                                    "internalType": "uint256",
                                    "name": "rawValue",
                                    "type": "uint256"
                                }
                            ],
                            "internalType": "struct FixedPoint.Unsigned",
                            "name": "cFactor",
                            "type": "tuple"
                        },
                        {
                            "internalType": "uint8",
                            "name": "decimals",
                            "type": "uint8"
                        },
                        {
                            "internalType": "string",
                            "name": "symbol",
                            "type": "string"
                        },
                        {
                            "internalType": "string",
                            "name": "name",
                            "type": "string"
                        }
                    ],
                    "internalType": "struct KreskoViewer.CollateralAssetInfo[]",
                    "name": "collateralAssets",
                    "type": "tuple[]"
                },
                {
                    "components": [
                        {
                            "internalType": "address",
                            "name": "oracleAddress",
                            "type": "address"
                        },
                        {
                            "internalType": "address",
                            "name": "assetAddress",
                            "type": "address"
                        },
                        {
                            "internalType": "uint256",
                            "name": "price",
                            "type": "uint256"
                        },
                        {
                            "internalType": "uint256",
                            "name": "value",
                            "type": "uint256"
                        },
                        {
                            "components": [
                                {
                                    "internalType": "uint256",
                                    "name": "rawValue",
                                    "type": "uint256"
                                }
                            ],
                            "internalType": "struct FixedPoint.Unsigned",
                            "name": "kFactor",
                            "type": "tuple"
                        },
                        {
                            "internalType": "string",
                            "name": "symbol",
                            "type": "string"
                        },
                        {
                            "internalType": "string",
                            "name": "name",
                            "type": "string"
                        }
                    ],
                    "internalType": "struct KreskoViewer.krAssetInfo[]",
                    "name": "krAssets",
                    "type": "tuple[]"
                }
            ],
            "stateMutability": "view",
            "type": "function"
        },
        {
            "inputs": [
                {
                    "internalType": "contract IERC20Upgradeable[]",
                    "name": "_tokens",
                    "type": "address[]"
                },
                {
                    "internalType": "address",
                    "name": "account",
                    "type": "address"
                }
            ],
            "name": "getBalances",
            "outputs": [
                {
                    "internalType": "uint256[]",
                    "name": "balances",
                    "type": "uint256[]"
                }
            ],
            "stateMutability": "view",
            "type": "function"
        },
        {
            "inputs": [
                {
                    "internalType": "address",
                    "name": "_account",
                    "type": "address"
                }
            ],
            "name": "healthFactorFor",
            "outputs": [
                {
                    "internalType": "uint256",
                    "name": "",
                    "type": "uint256"
                }
            ],
            "stateMutability": "view",
            "type": "function"
        },
        {
            "inputs": [
                {
                    "internalType": "address",
                    "name": "_account",
                    "type": "address"
                }
            ],
            "name": "krAssetInfoFor",
            "outputs": [
                {
                    "components": [
                        {
                            "internalType": "address",
                            "name": "assetAddress",
                            "type": "address"
                        },
                        {
                            "internalType": "address",
                            "name": "oracleAddress",
                            "type": "address"
                        },
                        {
                            "internalType": "uint256",
                            "name": "amount",
                            "type": "uint256"
                        },
                        {
                            "internalType": "uint256",
                            "name": "amountUSD",
                            "type": "uint256"
                        },
                        {
                            "internalType": "uint256",
                            "name": "index",
                            "type": "uint256"
                        },
                        {
                            "components": [
                                {
                                    "internalType": "uint256",
                                    "name": "rawValue",
                                    "type": "uint256"
                                }
                            ],
                            "internalType": "struct FixedPoint.Unsigned",
                            "name": "kFactor",
                            "type": "tuple"
                        },
                        {
                            "internalType": "bool",
                            "name": "mintable",
                            "type": "bool"
                        },
                        {
                            "internalType": "uint256",
                            "name": "price",
                            "type": "uint256"
                        },
                        {
                            "internalType": "string",
                            "name": "symbol",
                            "type": "string"
                        },
                        {
                            "internalType": "string",
                            "name": "name",
                            "type": "string"
                        }
                    ],
                    "internalType": "struct KreskoViewer.krAssetInfoUser[]",
                    "name": "result",
                    "type": "tuple[]"
                },
                {
                    "internalType": "uint256",
                    "name": "totalDebtUSD",
                    "type": "uint256"
                }
            ],
            "stateMutability": "view",
            "type": "function"
        },
        {
            "inputs": [
                {
                    "internalType": "address[]",
                    "name": "assetAddresses",
                    "type": "address[]"
                }
            ],
            "name": "krAssetInfos",
            "outputs": [
                {
                    "components": [
                        {
                            "internalType": "address",
                            "name": "oracleAddress",
                            "type": "address"
                        },
                        {
                            "internalType": "address",
                            "name": "assetAddress",
                            "type": "address"
                        },
                        {
                            "internalType": "uint256",
                            "name": "price",
                            "type": "uint256"
                        },
                        {
                            "internalType": "uint256",
                            "name": "value",
                            "type": "uint256"
                        },
                        {
                            "components": [
                                {
                                    "internalType": "uint256",
                                    "name": "rawValue",
                                    "type": "uint256"
                                }
                            ],
                            "internalType": "struct FixedPoint.Unsigned",
                            "name": "kFactor",
                            "type": "tuple"
                        },
                        {
                            "internalType": "string",
                            "name": "symbol",
                            "type": "string"
                        },
                        {
                            "internalType": "string",
                            "name": "name",
                            "type": "string"
                        }
                    ],
                    "internalType": "struct KreskoViewer.krAssetInfo[]",
                    "name": "result",
                    "type": "tuple[]"
                }
            ],
            "stateMutability": "view",
            "type": "function"
        },
        {
            "inputs": [
                {
                    "internalType": "address",
                    "name": "_account",
                    "type": "address"
                }
            ],
            "name": "kreskoUser",
            "outputs": [
                {
                    "components": [
                        {
                            "components": [
                                {
                                    "internalType": "address",
                                    "name": "assetAddress",
                                    "type": "address"
                                },
                                {
                                    "internalType": "address",
                                    "name": "oracleAddress",
                                    "type": "address"
                                },
                                {
                                    "internalType": "uint256",
                                    "name": "amount",
                                    "type": "uint256"
                                },
                                {
                                    "internalType": "uint256",
                                    "name": "amountUSD",
                                    "type": "uint256"
                                },
                                {
                                    "internalType": "uint256",
                                    "name": "index",
                                    "type": "uint256"
                                },
                                {
                                    "components": [
                                        {
                                            "internalType": "uint256",
                                            "name": "rawValue",
                                            "type": "uint256"
                                        }
                                    ],
                                    "internalType": "struct FixedPoint.Unsigned",
                                    "name": "kFactor",
                                    "type": "tuple"
                                },
                                {
                                    "internalType": "bool",
                                    "name": "mintable",
                                    "type": "bool"
                                },
                                {
                                    "internalType": "uint256",
                                    "name": "price",
                                    "type": "uint256"
                                },
                                {
                                    "internalType": "string",
                                    "name": "symbol",
                                    "type": "string"
                                },
                                {
                                    "internalType": "string",
                                    "name": "name",
                                    "type": "string"
                                }
                            ],
                            "internalType": "struct KreskoViewer.krAssetInfoUser[]",
                            "name": "krAssets",
                            "type": "tuple[]"
                        },
                        {
                            "components": [
                                {
                                    "internalType": "address",
                                    "name": "assetAddress",
                                    "type": "address"
                                },
                                {
                                    "internalType": "address",
                                    "name": "oracleAddress",
                                    "type": "address"
                                },
                                {
                                    "internalType": "address",
                                    "name": "underlyingRebasingToken",
                                    "type": "address"
                                },
                                {
                                    "internalType": "uint256",
                                    "name": "amount",
                                    "type": "uint256"
                                },
                                {
                                    "internalType": "uint256",
                                    "name": "amountUSD",
                                    "type": "uint256"
                                },
                                {
                                    "components": [
                                        {
                                            "internalType": "uint256",
                                            "name": "rawValue",
                                            "type": "uint256"
                                        }
                                    ],
                                    "internalType": "struct FixedPoint.Unsigned",
                                    "name": "cFactor",
                                    "type": "tuple"
                                },
                                {
                                    "internalType": "uint8",
                                    "name": "decimals",
                                    "type": "uint8"
                                },
                                {
                                    "internalType": "uint256",
                                    "name": "index",
                                    "type": "uint256"
                                },
                                {
                                    "internalType": "uint256",
                                    "name": "price",
                                    "type": "uint256"
                                },
                                {
                                    "internalType": "string",
                                    "name": "symbol",
                                    "type": "string"
                                },
                                {
                                    "internalType": "string",
                                    "name": "name",
                                    "type": "string"
                                }
                            ],
                            "internalType": "struct KreskoViewer.CollateralAssetInfoUser[]",
                            "name": "collateralAssets",
                            "type": "tuple[]"
                        },
                        {
                            "internalType": "uint256",
                            "name": "healthFactor",
                            "type": "uint256"
                        },
                        {
                            "internalType": "uint256",
                            "name": "debtActualUSD",
                            "type": "uint256"
                        },
                        {
                            "internalType": "uint256",
                            "name": "debtUSD",
                            "type": "uint256"
                        },
                        {
                            "internalType": "uint256",
                            "name": "collateralActualUSD",
                            "type": "uint256"
                        },
                        {
                            "internalType": "uint256",
                            "name": "collateralUSD",
                            "type": "uint256"
                        },
                        {
                            "internalType": "uint256",
                            "name": "minCollateralUSD",
                            "type": "uint256"
                        },
                        {
                            "internalType": "uint256",
                            "name": "borrowingPowerUSD",
                            "type": "uint256"
                        }
                    ],
                    "internalType": "struct KreskoViewer.KreskoUser",
                    "name": "user",
                    "type": "tuple"
                }
            ],
            "stateMutability": "view",
            "type": "function"
        }
    ],
    "transactionHash": "0xa529aa7f46f18a1807df3d095f0a9e6c8ada4c2bce45a5237bbcb4f062c9d40b",
    "args": [
        "0x9847D57DC892e791E1ea756E581BDC31Be19bFBA"
    ],
    "numDeployments": 6,
    "solcInputHash": "d5aee9e14ac6503ee81f884bee48bd22",
    "bytecode": "0x60806040523480156200001157600080fd5b50604051620027fc380380620027fc83398101604081905262000034916200005a565b600080546001600160a01b0319166001600160a01b03929092169190911790556200008c565b6000602082840312156200006d57600080fd5b81516001600160a01b03811681146200008557600080fd5b9392505050565b612760806200009c6000396000f3fe608060405234801561001057600080fd5b50600436106100c95760003560e01c8063b56274d411610081578063d1c070281161005b578063d1c07028146101cd578063def86ce1146101ed578063f79031e81461020e57600080fd5b8063b56274d41461017a578063b69a98501461018d578063be6d74a0146101ad57600080fd5b80636bb52909116100b25780636bb52909146101175780636e0696d614610138578063983ff6151461015957600080fd5b806327c5607d146100ce578063624ba701146100f7575b600080fd5b6100e16100dc366004611b65565b610239565b6040516100ee9190611cd2565b60405180910390f35b61010a610105366004611b65565b6105db565b6040516100ee9190611d97565b61012a610125366004611daa565b610924565b6040516100ee929190611e0e565b61014b610146366004611e3c565b610944565b6040516100ee929190611f3e565b61016c610167366004611e3c565b610db1565b6040519081526020016100ee565b61016c610188366004611e3c565b610ec0565b6101a061019b366004611fc4565b610fca565b6040516100ee9190612028565b6101c06101bb366004611e3c565b6110bd565b6040516100ee9190612148565b6101e06101db3660046121db565b611309565b6040516100ee919061222d565b6102006101fb366004611e3c565b6113d5565b6040516100ee929190612271565b600054610221906001600160a01b031681565b6040516001600160a01b0390911681526020016100ee565b6060815167ffffffffffffffff81111561025557610255611a6e565b60405190808252806020026020018201604052801561028e57816020015b61027b61188b565b8152602001906001900390816102735790505b50905060005b82518110156105d55760008382815181106102b1576102b1612284565b602090810291909101015160008054604051635390972760e01b81526001600160a01b0380851660048301529394509192169063539097279060240160a060405180830381865afa15801561030a573d6000803e3d6000fd5b505050506040513d601f19601f8201168201806040525081019061032e9190612302565b90506000826001600160a01b031663313ce5676040518163ffffffff1660e01b8152600401602060405180830381865afa158015610370573d6000803e3d6000fd5b505050506040513d601f19601f820116820180604052508101906103949190612395565b90506000836001600160a01b03166395d89b416040518163ffffffff1660e01b8152600401600060405180830381865afa1580156103d6573d6000803e3d6000fd5b505050506040513d6000823e601f3d908101601f191682016040526103fe91908101906123b0565b600080549192509081906001600160a01b0316633ae000c08761042287600a61253e565b61042d90600161254d565b6040517fffffffff0000000000000000000000000000000000000000000000000000000060e085901b1681526001600160a01b0390921660048301526024820152600060448201526064016040805180830381865afa158015610494573d6000803e3d6000fd5b505050506040513d601f19601f820116820180604052508101906104b8919061256c565b915091506000866001600160a01b03166306fdde036040518163ffffffff1660e01b8152600401600060405180830381865afa1580156104fc573d6000803e3d6000fd5b505050506040513d6000823e601f3d908101601f1916820160405261052491908101906123b0565b90506000604051806101200160405280896001600160a01b0316815260200188602001516001600160a01b0316815260200188604001516001600160a01b031681526020018460000151815260200185600001518152602001886000015181526020018760ff168152602001868152602001838152509050808a8a815181106105af576105af612284565b6020026020010181905250505050505050505080806105cd90612598565b915050610294565b50919050565b6060815167ffffffffffffffff8111156105f7576105f7611a6e565b60405190808252806020026020018201604052801561063057816020015b61061d611904565b8152602001906001900390816106155790505b50905060005b82518110156105d557600083828151811061065357610653612284565b60209081029190910101516000805460405163d7bfcecd60e01b81526001600160a01b0380851660048301529394509192169063d7bfcecd90602401608060405180830381865afa1580156106ac573d6000803e3d6000fd5b505050506040513d601f19601f820116820180604052508101906106d091906125b3565b60008054604051631a69f54b60e21b81526001600160a01b038681166004830152670de0b6b3a7640000602483015260448201849052939450919216906369a7d52c90606401602060405180830381865afa158015610733573d6000803e3d6000fd5b505050506040513d601f19601f820116820180604052508101906107579190612633565b9050600082602001516001600160a01b03166350d25bcd6040518163ffffffff1660e01b8152600401602060405180830381865afa15801561079d573d6000803e3d6000fd5b505050506040513d601f19601f820116820180604052508101906107c1919061264f565b90506000846001600160a01b03166306fdde036040518163ffffffff1660e01b8152600401600060405180830381865afa158015610803573d6000803e3d6000fd5b505050506040513d6000823e601f3d908101601f1916820160405261082b91908101906123b0565b90506000856001600160a01b03166395d89b416040518163ffffffff1660e01b8152600401600060405180830381865afa15801561086d573d6000803e3d6000fd5b505050506040513d6000823e601f3d908101601f1916820160405261089591908101906123b0565b905060006040518060e0016040528087602001516001600160a01b03168152602001886001600160a01b031681526020018581526020018660000151815260200187600001518152602001838152602001848152509050808989815181106108ff576108ff612284565b602002602001018190525050505050505050808061091c90612598565b915050610636565b60608061093084610239565b915061093b836105db565b90509250929050565b6000805460405163369c411560e11b81526001600160a01b038481166004830152606093928392911690636d38822a90602401600060405180830381865afa158015610994573d6000803e3d6000fd5b505050506040513d6000823e601f3d908101601f191682016040526109bc9190810190612668565b805190915015610dab57805167ffffffffffffffff8111156109e0576109e0611a6e565b604051908082528060200260200182016040528015610a1957816020015b610a06611967565b8152602001906001900390816109fe5790505b50925060005b8151811015610da9576000828281518110610a3c57610a3c612284565b602090810291909101015160008054604051635390972760e01b81526001600160a01b0380851660048301529394509192169063539097279060240160a060405180830381865afa158015610a95573d6000803e3d6000fd5b505050506040513d601f19601f82011682018060405250810190610ab99190612302565b90506000826001600160a01b031663313ce5676040518163ffffffff1660e01b8152600401602060405180830381865afa158015610afb573d6000803e3d6000fd5b505050506040513d601f19601f82011682018060405250810190610b1f9190612395565b60008054604051630c65e07b60e01b81526001600160a01b038c81166004830152878116602483015293945091921690630c65e07b90604401602060405180830381865afa158015610b75573d6000803e3d6000fd5b505050506040513d601f19601f82011682018060405250810190610b99919061264f565b90506000846001600160a01b03166395d89b416040518163ffffffff1660e01b8152600401600060405180830381865afa158015610bdb573d6000803e3d6000fd5b505050506040513d6000823e601f3d908101601f19168201604052610c0391908101906123b0565b6000805460405162eb800360e61b81526001600160a01b038981166004830152602482018790526001604483015293945091928392911690633ae000c0906064016040805180830381865afa158015610c60573d6000803e3d6000fd5b505050506040513d601f19601f82011682018060405250810190610c84919061256c565b915091506000876001600160a01b03166306fdde036040518163ffffffff1660e01b8152600401600060405180830381865afa158015610cc8573d6000803e3d6000fd5b505050506040513d6000823e601f3d908101601f19168201604052610cf091908101906123b0565b60408051610160810182526001600160a01b03808c16825260208b8101518216908301528a83015116918101919091526060810187905284516080820152885160a082015260ff881660c082015260e081018b9052835161010082015261012081018690526101408101829052845191925090610d6d908d612702565b9b50808d8b81518110610d8257610d82612284565b60200260200101819052505050505050505050508080610da190612598565b915050610a1f565b505b50915091565b60008054604051633fa1c54560e21b81526001600160a01b0384811660048301528392169063fe87151490602401602060405180830381865afa158015610dfc573d6000803e3d6000fd5b505050506040513d601f19601f82011682018060405250810190610e209190612633565b600080546040516307d1a44560e41b81526001600160a01b03878116600483015293945091921690637d1a445090602401602060405180830381865afa158015610e6e573d6000803e3d6000fd5b505050506040513d601f19601f82011682018060405250810190610e929190612633565b9050610e9e8183611839565b15610ead575060009392505050565b610eb78183611845565b51949350505050565b60008054604051633fa1c54560e21b81526001600160a01b0384811660048301528392169063fe87151490602401602060405180830381865afa158015610f0b573d6000803e3d6000fd5b505050506040513d601f19601f82011682018060405250810190610f2f9190612633565b51600080546040516307d1a44560e41b81526001600160a01b03878116600483015293945091921690637d1a445090602401602060405180830381865afa158015610f7e573d6000803e3d6000fd5b505050506040513d601f19601f82011682018060405250810190610fa29190612633565b51905081610fb882670de0b6b3a764000061254d565b610fc2919061271a565b949350505050565b606060005b84518110156110b5576040518060400160405280846001600160a01b0316815260200186838151811061100457611004612284565b6020908102919091010151604051636eb1769f60e11b81526001600160a01b03888116600483015287811660248301529091169063dd62ed3e90604401602060405180830381865afa15801561105e573d6000803e3d6000fd5b505050506040513d601f19601f82011682018060405250810190611082919061264f565b81525082828151811061109757611097612284565b602002602001018190525080806110ad90612598565b915050610fcf565b509392505050565b61110c6040518061012001604052806060815260200160608152602001600081526020016000815260200160008152602001600081526020016000815260200160008152602001600081525090565b600080611118846113d5565b9150915060008061112886610944565b9150915060008451118061113d575060008251115b156113005760405180610120016040528085815260200183815260200161116388610ec0565b815260208101859052600054604080517fff1389c50000000000000000000000000000000000000000000000000000000081526001600160a01b038b81166004830152919093019291169063ff1389c590602401602060405180830381865afa1580156111d4573d6000803e3d6000fd5b505050506040513d601f19601f820116820180604052508101906111f89190612633565b51815260208101839052600054604080516307d1a44560e41b81526001600160a01b038b811660048301529190930192911690637d1a445090602401602060405180830381865afa158015611251573d6000803e3d6000fd5b505050506040513d601f19601f820116820180604052508101906112759190612633565b518152600054604051633fa1c54560e21b81526001600160a01b038a811660048301526020909301929091169063fe87151490602401602060405180830381865afa1580156112c8573d6000803e3d6000fd5b505050506040513d601f19601f820116820180604052508101906112ec9190612633565b5181526020016112fb88610db1565b905294505b50505050919050565b606060005b83518110156113ce5783818151811061132957611329612284565b60209081029190910101516040516370a0823160e01b81526001600160a01b038581166004830152909116906370a0823190602401602060405180830381865afa15801561137b573d6000803e3d6000fd5b505050506040513d601f19601f8201168201806040525081019061139f919061264f565b8282815181106113b1576113b1612284565b6020908102919091010152806113c681612598565b91505061130e565b5092915050565b600080546040516377d4074360e11b81526001600160a01b03848116600483015260609392839291169063efa80e8690602401600060405180830381865afa158015611425573d6000803e3d6000fd5b505050506040513d6000823e601f3d908101601f1916820160405261144d9190810190612668565b805190915015610dab57805167ffffffffffffffff81111561147157611471611a6e565b6040519080825280602002602001820160405280156114aa57816020015b6114976119f3565b81526020019060019003908161148f5790505b50925060005b8151811015610da95760008282815181106114cd576114cd612284565b60209081029190910101516000805460405163d7bfcecd60e01b81526001600160a01b0380851660048301529394509192169063d7bfcecd90602401608060405180830381865afa158015611526573d6000803e3d6000fd5b505050506040513d601f19601f8201168201806040525081019061154a91906125b3565b60008054604051630692479b60e31b81526001600160a01b038b811660048301528681166024830152939450919216906334923cd890604401602060405180830381865afa1580156115a0573d6000803e3d6000fd5b505050506040513d601f19601f820116820180604052508101906115c4919061264f565b9050600082602001516001600160a01b03166350d25bcd6040518163ffffffff1660e01b8152600401602060405180830381865afa15801561160a573d6000803e3d6000fd5b505050506040513d601f19601f8201168201806040525081019061162e919061264f565b60008054604051631a69f54b60e21b81526001600160a01b0388811660048301526024820187905260016044830152939450919216906369a7d52c90606401602060405180830381865afa15801561168a573d6000803e3d6000fd5b505050506040513d601f19601f820116820180604052508101906116ae9190612633565b6000015190506000856001600160a01b03166395d89b416040518163ffffffff1660e01b8152600401600060405180830381865afa1580156116f4573d6000803e3d6000fd5b505050506040513d6000823e601f3d908101601f1916820160405261171c91908101906123b0565b90506000866001600160a01b03166306fdde036040518163ffffffff1660e01b8152600401600060405180830381865afa15801561175e573d6000803e3d6000fd5b505050506040513d6000823e601f3d908101601f1916820160405261178691908101906123b0565b90506000604051806101400160405280896001600160a01b0316815260200188602001516001600160a01b031681526020018781526020018581526020018a815260200188600001518152602001886060015115158152602001868152602001848152602001838152509050838b6117fe9190612702565b9a50808c8a8151811061181357611813612284565b60200260200101819052505050505050505050808061183190612598565b9150506114b0565b80518251105b92915050565b604080516020810190915260008152604080516020810190915282518451829161186f9190611878565b90529392505050565b6000611884828461273c565b9392505050565b60405180610120016040528060006001600160a01b0316815260200160006001600160a01b0316815260200160006001600160a01b0316815260200160008152602001600081526020016118eb6040518060200160405280600081525090565b8152600060208201526060604082018190529081015290565b6040518060e0016040528060006001600160a01b0316815260200160006001600160a01b0316815260200160008152602001600081526020016119536040518060200160405280600081525090565b815260200160608152602001606081525090565b60405180610160016040528060006001600160a01b0316815260200160006001600160a01b0316815260200160006001600160a01b0316815260200160008152602001600081526020016119c76040518060200160405280600081525090565b8152602001600060ff168152602001600081526020016000815260200160608152602001606081525090565b60405180610140016040528060006001600160a01b0316815260200160006001600160a01b03168152602001600081526020016000815260200160008152602001611a4a6040518060200160405280600081525090565b81526020016000151581526020016000815260200160608152602001606081525090565b634e487b7160e01b600052604160045260246000fd5b604051601f8201601f1916810167ffffffffffffffff81118282101715611aad57611aad611a6e565b604052919050565b600067ffffffffffffffff821115611acf57611acf611a6e565b5060051b60200190565b6001600160a01b0381168114611aee57600080fd5b50565b600082601f830112611b0257600080fd5b81356020611b17611b1283611ab5565b611a84565b82815260059290921b84018101918181019086841115611b3657600080fd5b8286015b84811015611b5a578035611b4d81611ad9565b8352918301918301611b3a565b509695505050505050565b600060208284031215611b7757600080fd5b813567ffffffffffffffff811115611b8e57600080fd5b610fc284828501611af1565b60005b83811015611bb5578181015183820152602001611b9d565b83811115611bc4576000848401525b50505050565b60008151808452611be2816020860160208601611b9a565b601f01601f19169290920160200192915050565b600081518084526020808501808196508360051b8101915082860160005b85811015611cc5578284038952815180516001600160a01b0390811686528682015181168787015260408083015190911690860152606080820151908601526080808201519086015260a080820151519086015260c08082015160ff169086015260e0808201516101208288018190529190611c9283890182611bca565b925050506101008083015192508682038188015250611cb18183611bca565b9a87019a9550505090840190600101611c14565b5091979650505050505050565b6020815260006118846020830184611bf6565b600081518084526020808501808196508360051b8101915082860160005b85811015611cc5578284038952815180516001600160a01b0390811686528682015116868601526040808201519086015260608082015190860152608080820151519086015260a08082015160e08288018190529190611d6583890182611bca565b9250505060c08083015192508682038188015250611d838183611bca565b9a87019a9550505090840190600101611d03565b6020815260006118846020830184611ce5565b60008060408385031215611dbd57600080fd5b823567ffffffffffffffff80821115611dd557600080fd5b611de186838701611af1565b93506020850135915080821115611df757600080fd5b50611e0485828601611af1565b9150509250929050565b604081526000611e216040830185611bf6565b8281036020840152611e338185611ce5565b95945050505050565b600060208284031215611e4e57600080fd5b813561188481611ad9565b600081518084526020808501808196508360051b8101915082860160005b85811015611cc5578284038952815180516001600160a01b0390811686528682015181168787015260408083015190911690860152606080820151908601526080808201519086015260a080820151519086015260c08082015160ff169086015260e080820151908601526101008082015190860152610120808201516101608288018190529190611f0b83890182611bca565b925050506101408083015192508682038188015250611f2a8183611bca565b9a87019a9550505090840190600101611e77565b604081526000611f516040830185611e59565b90508260208301529392505050565b600082601f830112611f7157600080fd5b81356020611f81611b1283611ab5565b82815260059290921b84018101918181019086841115611fa057600080fd5b8286015b84811015611b5a578035611fb781611ad9565b8352918301918301611fa4565b600080600060608486031215611fd957600080fd5b833567ffffffffffffffff811115611ff057600080fd5b611ffc86828701611f60565b935050602084013561200d81611ad9565b9150604084013561201d81611ad9565b809150509250925092565b602080825282518282018190526000919060409081850190868401855b82811015611cc557815180516001600160a01b03168552860151868501529284019290850190600101612045565b600081518084526020808501808196508360051b8101915082860160005b85811015611cc5578284038952815180516001600160a01b03908116865286820151168686015260408082015190860152606080820151908601526080808201519086015260a080820151519086015260c08082015115159086015260e0808201519086015261010080820151610140828801819052919061211583890182611bca565b9250505061012080830151925086820381880152506121348183611bca565b9a87019a9550505090840190600101612091565b6020815260008251610120806020850152612167610140850183612073565b91506020850151601f198584030160408601526121848382611e59565b9250506040850151606085015260608501516080850152608085015160a085015260a085015160c085015260c085015160e085015260e0850151610100818187015280870151838701525050508091505092915050565b600080604083850312156121ee57600080fd5b823567ffffffffffffffff81111561220557600080fd5b61221185828601611f60565b925050602083013561222281611ad9565b809150509250929050565b6020808252825182820181905260009190848201906040850190845b8181101561226557835183529284019291840191600101612249565b50909695505050505050565b604081526000611f516040830185612073565b634e487b7160e01b600052603260045260246000fd5b6000602082840312156122ac57600080fd5b6040516020810181811067ffffffffffffffff821117156122cf576122cf611a6e565b6040529151825250919050565b805160ff811681146122ed57600080fd5b919050565b805180151581146122ed57600080fd5b600060a0828403121561231457600080fd5b60405160a0810181811067ffffffffffffffff8211171561233757612337611a6e565b604052612344848461229a565b8152602083015161235481611ad9565b6020820152604083015161236781611ad9565b6040820152612378606084016122dc565b6060820152612389608084016122f2565b60808201529392505050565b6000602082840312156123a757600080fd5b611884826122dc565b6000602082840312156123c257600080fd5b815167ffffffffffffffff808211156123da57600080fd5b818401915084601f8301126123ee57600080fd5b81518181111561240057612400611a6e565b612413601f8201601f1916602001611a84565b915080825285602082850101111561242a57600080fd5b61243b816020840160208601611b9a565b50949350505050565b634e487b7160e01b600052601160045260246000fd5b600181815b8085111561249557816000190482111561247b5761247b612444565b8085161561248857918102915b93841c939080029061245f565b509250929050565b6000826124ac5750600161183f565b816124b95750600061183f565b81600181146124cf57600281146124d9576124f5565b600191505061183f565b60ff8411156124ea576124ea612444565b50506001821b61183f565b5060208310610133831016604e8410600b8410161715612518575081810a61183f565b612522838361245a565b806000190482111561253657612536612444565b029392505050565b600061188460ff84168361249d565b600081600019048311821515161561256757612567612444565b500290565b6000806040838503121561257f57600080fd5b612589848461229a565b915061093b846020850161229a565b60006000198214156125ac576125ac612444565b5060010190565b6000608082840312156125c557600080fd5b6040516080810181811067ffffffffffffffff821117156125e8576125e8611a6e565b6040526125f5848461229a565b8152602083015161260581611ad9565b6020820152612616604084016122f2565b6040820152612627606084016122f2565b60608201529392505050565b60006020828403121561264557600080fd5b611884838361229a565b60006020828403121561266157600080fd5b5051919050565b6000602080838503121561267b57600080fd5b825167ffffffffffffffff81111561269257600080fd5b8301601f810185136126a357600080fd5b80516126b1611b1282611ab5565b81815260059190911b820183019083810190878311156126d057600080fd5b928401925b828410156126f75783516126e881611ad9565b825292840192908401906126d5565b979650505050505050565b6000821982111561271557612715612444565b500190565b60008261273757634e487b7160e01b600052601260045260246000fd5b500490565b60008282101561274e5761274e612444565b50039056fea164736f6c634300080a000a",
    "devdoc": {
        "kind": "dev",
        "methods": {},
        "version": 1
    },
    "userdoc": {
        "kind": "user",
        "methods": {},
        "version": 1
    },
    "storageLayout": {
        "storage": [
            {
                "astId": 19688,
                "contract": "src/contracts/KreskoViewer.sol:KreskoViewer",
                "label": "Kresko",
                "offset": 0,
                "slot": "0",
                "type": "t_contract(IKresko)22030"
            }
        ],
        "types": {
            "t_contract(IKresko)22030": {
                "encoding": "inplace",
                "label": "contract IKresko",
                "numberOfBytes": "20"
            }
        }
    }
}