{
    "address": "0x0610F06EccA6862e13ED2580466aAB670f39f164",
    "abi": [
        {
            "inputs": [],
            "stateMutability": "nonpayable",
            "type": "constructor"
        },
        {
            "anonymous": false,
            "inputs": [
                {
                    "indexed": true,
                    "internalType": "address",
                    "name": "account",
                    "type": "address"
                },
                {
                    "indexed": true,
                    "internalType": "address",
                    "name": "paymentCollateralAsset",
                    "type": "address"
                },
                {
                    "indexed": true,
                    "internalType": "uint256",
                    "name": "paymentAmount",
                    "type": "uint256"
                },
                {
                    "indexed": false,
                    "internalType": "uint256",
                    "name": "paymentValue",
                    "type": "uint256"
                }
            ],
            "name": "BurnFeePaid",
            "type": "event"
        },
        {
            "anonymous": false,
            "inputs": [
                {
                    "indexed": true,
                    "internalType": "uint256",
                    "name": "burnFee",
                    "type": "uint256"
                }
            ],
            "name": "BurnFeeUpdated",
            "type": "event"
        },
        {
            "anonymous": false,
            "inputs": [
                {
                    "indexed": true,
                    "internalType": "address",
                    "name": "collateralAsset",
                    "type": "address"
                },
                {
                    "indexed": true,
                    "internalType": "uint256",
                    "name": "factor",
                    "type": "uint256"
                },
                {
                    "indexed": true,
                    "internalType": "address",
                    "name": "oracle",
                    "type": "address"
                }
            ],
            "name": "CollateralAssetAdded",
            "type": "event"
        },
        {
            "anonymous": false,
            "inputs": [
                {
                    "indexed": true,
                    "internalType": "address",
                    "name": "collateralAsset",
                    "type": "address"
                },
                {
                    "indexed": true,
                    "internalType": "uint256",
                    "name": "factor",
                    "type": "uint256"
                }
            ],
            "name": "CollateralAssetFactorUpdated",
            "type": "event"
        },
        {
            "anonymous": false,
            "inputs": [
                {
                    "indexed": true,
                    "internalType": "address",
                    "name": "collateralAsset",
                    "type": "address"
                },
                {
                    "indexed": true,
                    "internalType": "address",
                    "name": "oracle",
                    "type": "address"
                }
            ],
            "name": "CollateralAssetOracleUpdated",
            "type": "event"
        },
        {
            "anonymous": false,
            "inputs": [
                {
                    "indexed": true,
                    "internalType": "address",
                    "name": "account",
                    "type": "address"
                },
                {
                    "indexed": true,
                    "internalType": "address",
                    "name": "collateralAsset",
                    "type": "address"
                },
                {
                    "indexed": true,
                    "internalType": "uint256",
                    "name": "amount",
                    "type": "uint256"
                }
            ],
            "name": "CollateralDeposited",
            "type": "event"
        },
        {
            "anonymous": false,
            "inputs": [
                {
                    "indexed": true,
                    "internalType": "address",
                    "name": "account",
                    "type": "address"
                },
                {
                    "indexed": true,
                    "internalType": "address",
                    "name": "collateralAsset",
                    "type": "address"
                },
                {
                    "indexed": true,
                    "internalType": "uint256",
                    "name": "amount",
                    "type": "uint256"
                }
            ],
            "name": "CollateralWithdrawn",
            "type": "event"
        },
        {
            "anonymous": false,
            "inputs": [
                {
                    "indexed": true,
                    "internalType": "address",
                    "name": "feeRecipient",
                    "type": "address"
                }
            ],
            "name": "FeeRecipientUpdated",
            "type": "event"
        },
        {
            "anonymous": false,
            "inputs": [
                {
                    "indexed": true,
                    "internalType": "address",
                    "name": "kreskoAsset",
                    "type": "address"
                },
                {
                    "indexed": true,
                    "internalType": "string",
                    "name": "symbol",
                    "type": "string"
                },
                {
                    "indexed": true,
                    "internalType": "uint256",
                    "name": "kFactor",
                    "type": "uint256"
                },
                {
                    "indexed": false,
                    "internalType": "address",
                    "name": "oracle",
                    "type": "address"
                },
                {
                    "indexed": false,
                    "internalType": "uint256",
                    "name": "marketCapLimit",
                    "type": "uint256"
                }
            ],
            "name": "KreskoAssetAdded",
            "type": "event"
        },
        {
            "anonymous": false,
            "inputs": [
                {
                    "indexed": true,
                    "internalType": "address",
                    "name": "account",
                    "type": "address"
                },
                {
                    "indexed": true,
                    "internalType": "address",
                    "name": "kreskoAsset",
                    "type": "address"
                },
                {
                    "indexed": true,
                    "internalType": "uint256",
                    "name": "amount",
                    "type": "uint256"
                }
            ],
            "name": "KreskoAssetBurned",
            "type": "event"
        },
        {
            "anonymous": false,
            "inputs": [
                {
                    "indexed": true,
                    "internalType": "address",
                    "name": "kreskoAsset",
                    "type": "address"
                },
                {
                    "indexed": true,
                    "internalType": "uint256",
                    "name": "kFactor",
                    "type": "uint256"
                }
            ],
            "name": "KreskoAssetKFactorUpdated",
            "type": "event"
        },
        {
            "anonymous": false,
            "inputs": [
                {
                    "indexed": true,
                    "internalType": "address",
                    "name": "kreskoAsset",
                    "type": "address"
                },
                {
                    "indexed": true,
                    "internalType": "uint256",
                    "name": "limit",
                    "type": "uint256"
                }
            ],
            "name": "KreskoAssetMarketCapLimitUpdated",
            "type": "event"
        },
        {
            "anonymous": false,
            "inputs": [
                {
                    "indexed": true,
                    "internalType": "address",
                    "name": "kreskoAsset",
                    "type": "address"
                },
                {
                    "indexed": true,
                    "internalType": "bool",
                    "name": "mintable",
                    "type": "bool"
                }
            ],
            "name": "KreskoAssetMintableUpdated",
            "type": "event"
        },
        {
            "anonymous": false,
            "inputs": [
                {
                    "indexed": true,
                    "internalType": "address",
                    "name": "account",
                    "type": "address"
                },
                {
                    "indexed": true,
                    "internalType": "address",
                    "name": "kreskoAsset",
                    "type": "address"
                },
                {
                    "indexed": true,
                    "internalType": "uint256",
                    "name": "amount",
                    "type": "uint256"
                }
            ],
            "name": "KreskoAssetMinted",
            "type": "event"
        },
        {
            "anonymous": false,
            "inputs": [
                {
                    "indexed": true,
                    "internalType": "address",
                    "name": "kreskoAsset",
                    "type": "address"
                },
                {
                    "indexed": true,
                    "internalType": "address",
                    "name": "oracle",
                    "type": "address"
                }
            ],
            "name": "KreskoAssetOracleUpdated",
            "type": "event"
        },
        {
            "anonymous": false,
            "inputs": [
                {
                    "indexed": true,
                    "internalType": "uint256",
                    "name": "liquidationIncentiveMultiplier",
                    "type": "uint256"
                }
            ],
            "name": "LiquidationIncentiveMultiplierUpdated",
            "type": "event"
        },
        {
            "anonymous": false,
            "inputs": [
                {
                    "indexed": true,
                    "internalType": "address",
                    "name": "account",
                    "type": "address"
                },
                {
                    "indexed": true,
                    "internalType": "address",
                    "name": "liquidator",
                    "type": "address"
                },
                {
                    "indexed": true,
                    "internalType": "address",
                    "name": "repayKreskoAsset",
                    "type": "address"
                },
                {
                    "indexed": false,
                    "internalType": "uint256",
                    "name": "repayAmount",
                    "type": "uint256"
                },
                {
                    "indexed": false,
                    "internalType": "address",
                    "name": "seizedCollateralAsset",
                    "type": "address"
                },
                {
                    "indexed": false,
                    "internalType": "uint256",
                    "name": "collateralSent",
                    "type": "uint256"
                }
            ],
            "name": "LiquidationOccurred",
            "type": "event"
        },
        {
            "anonymous": false,
            "inputs": [
                {
                    "indexed": true,
                    "internalType": "uint256",
                    "name": "minimumCollateralizationRatio",
                    "type": "uint256"
                }
            ],
            "name": "MinimumCollateralizationRatioUpdated",
            "type": "event"
        },
        {
            "anonymous": false,
            "inputs": [
                {
                    "indexed": true,
                    "internalType": "uint256",
                    "name": "minimumDebtValue",
                    "type": "uint256"
                }
            ],
            "name": "MinimumDebtValueUpdated",
            "type": "event"
        },
        {
            "anonymous": false,
            "inputs": [
                {
                    "indexed": true,
                    "internalType": "address",
                    "name": "previousOwner",
                    "type": "address"
                },
                {
                    "indexed": true,
                    "internalType": "address",
                    "name": "newOwner",
                    "type": "address"
                }
            ],
            "name": "OwnershipTransferred",
            "type": "event"
        },
        {
            "anonymous": false,
            "inputs": [
                {
                    "indexed": true,
                    "internalType": "address",
                    "name": "previousOwner",
                    "type": "address"
                },
                {
                    "indexed": true,
                    "internalType": "address",
                    "name": "pendingOwner",
                    "type": "address"
                }
            ],
            "name": "PendingOwnershipTransfer",
            "type": "event"
        },
        {
            "anonymous": false,
            "inputs": [
                {
                    "indexed": true,
                    "internalType": "address",
                    "name": "contractAddress",
                    "type": "address"
                },
                {
                    "indexed": true,
                    "internalType": "bool",
                    "name": "isTrusted",
                    "type": "bool"
                }
            ],
            "name": "TrustedContract",
            "type": "event"
        },
        {
            "inputs": [],
            "name": "MAX_BURN_FEE",
            "outputs": [
                {
                    "internalType": "uint256",
                    "name": "",
                    "type": "uint256"
                }
            ],
            "stateMutability": "view",
            "type": "function"
        },
        {
            "inputs": [],
            "name": "MAX_DEBT_VALUE",
            "outputs": [
                {
                    "internalType": "uint256",
                    "name": "",
                    "type": "uint256"
                }
            ],
            "stateMutability": "view",
            "type": "function"
        },
        {
            "inputs": [],
            "name": "MAX_LIQUIDATION_INCENTIVE_MULTIPLIER",
            "outputs": [
                {
                    "internalType": "uint256",
                    "name": "",
                    "type": "uint256"
                }
            ],
            "stateMutability": "view",
            "type": "function"
        },
        {
            "inputs": [],
            "name": "MIN_COLLATERALIZATION_RATIO",
            "outputs": [
                {
                    "internalType": "uint256",
                    "name": "",
                    "type": "uint256"
                }
            ],
            "stateMutability": "view",
            "type": "function"
        },
        {
            "inputs": [],
            "name": "MIN_LIQUIDATION_INCENTIVE_MULTIPLIER",
            "outputs": [
                {
                    "internalType": "uint256",
                    "name": "",
                    "type": "uint256"
                }
            ],
            "stateMutability": "view",
            "type": "function"
        },
        {
            "inputs": [],
            "name": "ONE_HUNDRED_PERCENT",
            "outputs": [
                {
                    "internalType": "uint256",
                    "name": "",
                    "type": "uint256"
                }
            ],
            "stateMutability": "view",
            "type": "function"
        },
        {
            "inputs": [
                {
                    "internalType": "address",
                    "name": "_collateralAsset",
                    "type": "address"
                },
                {
                    "internalType": "uint256",
                    "name": "_factor",
                    "type": "uint256"
                },
                {
                    "internalType": "address",
                    "name": "_oracle",
                    "type": "address"
                },
                {
                    "internalType": "bool",
                    "name": "isNonRebasingWrapperToken",
                    "type": "bool"
                }
            ],
            "name": "addCollateralAsset",
            "outputs": [],
            "stateMutability": "nonpayable",
            "type": "function"
        },
        {
            "inputs": [
                {
                    "internalType": "address",
                    "name": "_kreskoAsset",
                    "type": "address"
                },
                {
                    "internalType": "string",
                    "name": "_symbol",
                    "type": "string"
                },
                {
                    "internalType": "uint256",
                    "name": "_kFactor",
                    "type": "uint256"
                },
                {
                    "internalType": "address",
                    "name": "_oracle",
                    "type": "address"
                },
                {
                    "internalType": "uint256",
                    "name": "_marketCapUSDLimit",
                    "type": "uint256"
                }
            ],
            "name": "addKreskoAsset",
            "outputs": [],
            "stateMutability": "nonpayable",
            "type": "function"
        },
        {
            "inputs": [],
            "name": "burnFee",
            "outputs": [
                {
                    "internalType": "uint256",
                    "name": "rawValue",
                    "type": "uint256"
                }
            ],
            "stateMutability": "view",
            "type": "function"
        },
        {
            "inputs": [
                {
                    "internalType": "address",
                    "name": "_account",
                    "type": "address"
                },
                {
                    "internalType": "address",
                    "name": "_kreskoAsset",
                    "type": "address"
                },
                {
                    "internalType": "uint256",
                    "name": "_amount",
                    "type": "uint256"
                },
                {
                    "internalType": "uint256",
                    "name": "_mintedKreskoAssetIndex",
                    "type": "uint256"
                }
            ],
            "name": "burnKreskoAsset",
            "outputs": [],
            "stateMutability": "nonpayable",
            "type": "function"
        },
        {
            "inputs": [
                {
                    "internalType": "address",
                    "name": "_account",
                    "type": "address"
                },
                {
                    "internalType": "address",
                    "name": "_repayKreskoAsset",
                    "type": "address"
                },
                {
                    "internalType": "address",
                    "name": "_collateralAssetToSeize",
                    "type": "address"
                }
            ],
            "name": "calculateMaxLiquidatableValueForAssets",
            "outputs": [
                {
                    "components": [
                        {
                            "internalType": "uint256",
                            "name": "rawValue",
                            "type": "uint256"
                        }
                    ],
                    "internalType": "struct FixedPoint.Unsigned",
                    "name": "maxLiquidatableUSD",
                    "type": "tuple"
                }
            ],
            "stateMutability": "view",
            "type": "function"
        },
        {
            "inputs": [],
            "name": "claimOwnership",
            "outputs": [],
            "stateMutability": "nonpayable",
            "type": "function"
        },
        {
            "inputs": [
                {
                    "internalType": "address",
                    "name": "",
                    "type": "address"
                }
            ],
            "name": "collateralAssets",
            "outputs": [
                {
                    "components": [
                        {
                            "internalType": "uint256",
                            "name": "rawValue",
                            "type": "uint256"
                        }
                    ],
                    "internalType": "struct FixedPoint.Unsigned",
                    "name": "factor",
                    "type": "tuple"
                },
                {
                    "internalType": "contract AggregatorV2V3Interface",
                    "name": "oracle",
                    "type": "address"
                },
                {
                    "internalType": "address",
                    "name": "underlyingRebasingToken",
                    "type": "address"
                },
                {
                    "internalType": "uint8",
                    "name": "decimals",
                    "type": "uint8"
                },
                {
                    "internalType": "bool",
                    "name": "exists",
                    "type": "bool"
                }
            ],
            "stateMutability": "view",
            "type": "function"
        },
        {
            "inputs": [
                {
                    "internalType": "address",
                    "name": "",
                    "type": "address"
                },
                {
                    "internalType": "address",
                    "name": "",
                    "type": "address"
                }
            ],
            "name": "collateralDeposits",
            "outputs": [
                {
                    "internalType": "uint256",
                    "name": "",
                    "type": "uint256"
                }
            ],
            "stateMutability": "view",
            "type": "function"
        },
        {
            "inputs": [
                {
                    "internalType": "address",
                    "name": "_collateralAsset",
                    "type": "address"
                }
            ],
            "name": "collateralExists",
            "outputs": [
                {
                    "internalType": "bool",
                    "name": "",
                    "type": "bool"
                }
            ],
            "stateMutability": "view",
            "type": "function"
        },
        {
            "inputs": [
                {
                    "internalType": "address",
                    "name": "_account",
                    "type": "address"
                },
                {
                    "internalType": "address",
                    "name": "_collateralAsset",
                    "type": "address"
                },
                {
                    "internalType": "uint256",
                    "name": "_amount",
                    "type": "uint256"
                }
            ],
            "name": "depositCollateral",
            "outputs": [],
            "stateMutability": "nonpayable",
            "type": "function"
        },
        {
            "inputs": [
                {
                    "internalType": "address",
                    "name": "_account",
                    "type": "address"
                },
                {
                    "internalType": "address",
                    "name": "_collateralAsset",
                    "type": "address"
                },
                {
                    "internalType": "uint256",
                    "name": "_rebasingAmount",
                    "type": "uint256"
                }
            ],
            "name": "depositRebasingCollateral",
            "outputs": [],
            "stateMutability": "nonpayable",
            "type": "function"
        },
        {
            "inputs": [
                {
                    "internalType": "address",
                    "name": "",
                    "type": "address"
                },
                {
                    "internalType": "uint256",
                    "name": "",
                    "type": "uint256"
                }
            ],
            "name": "depositedCollateralAssets",
            "outputs": [
                {
                    "internalType": "address",
                    "name": "",
                    "type": "address"
                }
            ],
            "stateMutability": "view",
            "type": "function"
        },
        {
            "inputs": [],
            "name": "feeRecipient",
            "outputs": [
                {
                    "internalType": "address",
                    "name": "",
                    "type": "address"
                }
            ],
            "stateMutability": "view",
            "type": "function"
        },
        {
            "inputs": [
                {
                    "internalType": "address",
                    "name": "_account",
                    "type": "address"
                }
            ],
            "name": "getAccountCollateralValue",
            "outputs": [
                {
                    "components": [
                        {
                            "internalType": "uint256",
                            "name": "rawValue",
                            "type": "uint256"
                        }
                    ],
                    "internalType": "struct FixedPoint.Unsigned",
                    "name": "",
                    "type": "tuple"
                }
            ],
            "stateMutability": "view",
            "type": "function"
        },
        {
            "inputs": [
                {
                    "internalType": "address",
                    "name": "_account",
                    "type": "address"
                }
            ],
            "name": "getAccountKrAssetValue",
            "outputs": [
                {
                    "components": [
                        {
                            "internalType": "uint256",
                            "name": "rawValue",
                            "type": "uint256"
                        }
                    ],
                    "internalType": "struct FixedPoint.Unsigned",
                    "name": "",
                    "type": "tuple"
                }
            ],
            "stateMutability": "view",
            "type": "function"
        },
        {
            "inputs": [
                {
                    "internalType": "address",
                    "name": "_account",
                    "type": "address"
                }
            ],
            "name": "getAccountMinimumCollateralValue",
            "outputs": [
                {
                    "components": [
                        {
                            "internalType": "uint256",
                            "name": "rawValue",
                            "type": "uint256"
                        }
                    ],
                    "internalType": "struct FixedPoint.Unsigned",
                    "name": "",
                    "type": "tuple"
                }
            ],
            "stateMutability": "view",
            "type": "function"
        },
        {
            "inputs": [
                {
                    "internalType": "address",
                    "name": "_collateralAsset",
                    "type": "address"
                },
                {
                    "internalType": "uint256",
                    "name": "_amount",
                    "type": "uint256"
                },
                {
                    "internalType": "bool",
                    "name": "_ignoreCollateralFactor",
                    "type": "bool"
                }
            ],
            "name": "getCollateralValueAndOraclePrice",
            "outputs": [
                {
                    "components": [
                        {
                            "internalType": "uint256",
                            "name": "rawValue",
                            "type": "uint256"
                        }
                    ],
                    "internalType": "struct FixedPoint.Unsigned",
                    "name": "",
                    "type": "tuple"
                },
                {
                    "components": [
                        {
                            "internalType": "uint256",
                            "name": "rawValue",
                            "type": "uint256"
                        }
                    ],
                    "internalType": "struct FixedPoint.Unsigned",
                    "name": "",
                    "type": "tuple"
                }
            ],
            "stateMutability": "view",
            "type": "function"
        },
        {
            "inputs": [
                {
                    "internalType": "address",
                    "name": "_account",
                    "type": "address"
                },
                {
                    "internalType": "address",
                    "name": "_collateralAsset",
                    "type": "address"
                }
            ],
            "name": "getDepositedCollateralAssetIndex",
            "outputs": [
                {
                    "internalType": "uint256",
                    "name": "i",
                    "type": "uint256"
                }
            ],
            "stateMutability": "view",
            "type": "function"
        },
        {
            "inputs": [
                {
                    "internalType": "address",
                    "name": "_account",
                    "type": "address"
                }
            ],
            "name": "getDepositedCollateralAssets",
            "outputs": [
                {
                    "internalType": "address[]",
                    "name": "",
                    "type": "address[]"
                }
            ],
            "stateMutability": "view",
            "type": "function"
        },
        {
            "inputs": [
                {
                    "internalType": "address",
                    "name": "_kreskoAsset",
                    "type": "address"
                },
                {
                    "internalType": "uint256",
                    "name": "_amount",
                    "type": "uint256"
                },
                {
                    "internalType": "bool",
                    "name": "_ignoreKFactor",
                    "type": "bool"
                }
            ],
            "name": "getKrAssetValue",
            "outputs": [
                {
                    "components": [
                        {
                            "internalType": "uint256",
                            "name": "rawValue",
                            "type": "uint256"
                        }
                    ],
                    "internalType": "struct FixedPoint.Unsigned",
                    "name": "",
                    "type": "tuple"
                }
            ],
            "stateMutability": "view",
            "type": "function"
        },
        {
            "inputs": [
                {
                    "internalType": "address",
                    "name": "_krAsset",
                    "type": "address"
                },
                {
                    "internalType": "uint256",
                    "name": "_amount",
                    "type": "uint256"
                }
            ],
            "name": "getMinimumCollateralValue",
            "outputs": [
                {
                    "components": [
                        {
                            "internalType": "uint256",
                            "name": "rawValue",
                            "type": "uint256"
                        }
                    ],
                    "internalType": "struct FixedPoint.Unsigned",
                    "name": "minCollateralValue",
                    "type": "tuple"
                }
            ],
            "stateMutability": "view",
            "type": "function"
        },
        {
            "inputs": [
                {
                    "internalType": "address",
                    "name": "_account",
                    "type": "address"
                }
            ],
            "name": "getMintedKreskoAssets",
            "outputs": [
                {
                    "internalType": "address[]",
                    "name": "",
                    "type": "address[]"
                }
            ],
            "stateMutability": "view",
            "type": "function"
        },
        {
            "inputs": [
                {
                    "internalType": "address",
                    "name": "_account",
                    "type": "address"
                },
                {
                    "internalType": "address",
                    "name": "_kreskoAsset",
                    "type": "address"
                }
            ],
            "name": "getMintedKreskoAssetsIndex",
            "outputs": [
                {
                    "internalType": "uint256",
                    "name": "i",
                    "type": "uint256"
                }
            ],
            "stateMutability": "view",
            "type": "function"
        },
        {
            "inputs": [
                {
                    "internalType": "uint256",
                    "name": "_burnFee",
                    "type": "uint256"
                },
                {
                    "internalType": "address",
                    "name": "_feeRecipient",
                    "type": "address"
                },
                {
                    "internalType": "uint256",
                    "name": "_liquidationIncentiveMultiplier",
                    "type": "uint256"
                },
                {
                    "internalType": "uint256",
                    "name": "_minimumCollateralizationRatio",
                    "type": "uint256"
                },
                {
                    "internalType": "uint256",
                    "name": "_minimumDebtValue",
                    "type": "uint256"
                }
            ],
            "name": "initialize",
            "outputs": [],
            "stateMutability": "nonpayable",
            "type": "function"
        },
        {
            "inputs": [
                {
                    "internalType": "address",
                    "name": "_account",
                    "type": "address"
                }
            ],
            "name": "isAccountLiquidatable",
            "outputs": [
                {
                    "internalType": "bool",
                    "name": "",
                    "type": "bool"
                }
            ],
            "stateMutability": "view",
            "type": "function"
        },
        {
            "inputs": [
                {
                    "internalType": "address",
                    "name": "_krAsset",
                    "type": "address"
                }
            ],
            "name": "krAssetExists",
            "outputs": [
                {
                    "internalType": "bool",
                    "name": "",
                    "type": "bool"
                }
            ],
            "stateMutability": "view",
            "type": "function"
        },
        {
            "inputs": [
                {
                    "internalType": "address",
                    "name": "",
                    "type": "address"
                },
                {
                    "internalType": "address",
                    "name": "",
                    "type": "address"
                }
            ],
            "name": "kreskoAssetDebt",
            "outputs": [
                {
                    "internalType": "uint256",
                    "name": "",
                    "type": "uint256"
                }
            ],
            "stateMutability": "view",
            "type": "function"
        },
        {
            "inputs": [
                {
                    "internalType": "string",
                    "name": "",
                    "type": "string"
                }
            ],
            "name": "kreskoAssetSymbols",
            "outputs": [
                {
                    "internalType": "bool",
                    "name": "",
                    "type": "bool"
                }
            ],
            "stateMutability": "view",
            "type": "function"
        },
        {
            "inputs": [
                {
                    "internalType": "address",
                    "name": "",
                    "type": "address"
                }
            ],
            "name": "kreskoAssets",
            "outputs": [
                {
                    "components": [
                        {
                            "internalType": "uint256",
                            "name": "rawValue",
                            "type": "uint256"
                        }
                    ],
                    "internalType": "struct FixedPoint.Unsigned",
                    "name": "kFactor",
                    "type": "tuple"
                },
                {
                    "internalType": "contract AggregatorV2V3Interface",
                    "name": "oracle",
                    "type": "address"
                },
                {
                    "internalType": "bool",
                    "name": "exists",
                    "type": "bool"
                },
                {
                    "internalType": "bool",
                    "name": "mintable",
                    "type": "bool"
                },
                {
                    "internalType": "uint256",
                    "name": "marketCapUSDLimit",
                    "type": "uint256"
                }
            ],
            "stateMutability": "view",
            "type": "function"
        },
        {
            "inputs": [
                {
                    "internalType": "address",
                    "name": "_account",
                    "type": "address"
                },
                {
                    "internalType": "address",
                    "name": "_repayKreskoAsset",
                    "type": "address"
                },
                {
                    "internalType": "uint256",
                    "name": "_repayAmount",
                    "type": "uint256"
                },
                {
                    "internalType": "address",
                    "name": "_collateralAssetToSeize",
                    "type": "address"
                },
                {
                    "internalType": "uint256",
                    "name": "_mintedKreskoAssetIndex",
                    "type": "uint256"
                },
                {
                    "internalType": "uint256",
                    "name": "_depositedCollateralAssetIndex",
                    "type": "uint256"
                },
                {
                    "internalType": "bool",
                    "name": "_keepKrAssetDebt",
                    "type": "bool"
                }
            ],
            "name": "liquidate",
            "outputs": [],
            "stateMutability": "nonpayable",
            "type": "function"
        },
        {
            "inputs": [],
            "name": "liquidationIncentiveMultiplier",
            "outputs": [
                {
                    "internalType": "uint256",
                    "name": "rawValue",
                    "type": "uint256"
                }
            ],
            "stateMutability": "view",
            "type": "function"
        },
        {
            "inputs": [],
            "name": "minimumCollateralizationRatio",
            "outputs": [
                {
                    "internalType": "uint256",
                    "name": "rawValue",
                    "type": "uint256"
                }
            ],
            "stateMutability": "view",
            "type": "function"
        },
        {
            "inputs": [],
            "name": "minimumDebtValue",
            "outputs": [
                {
                    "internalType": "uint256",
                    "name": "rawValue",
                    "type": "uint256"
                }
            ],
            "stateMutability": "view",
            "type": "function"
        },
        {
            "inputs": [
                {
                    "internalType": "address",
                    "name": "_account",
                    "type": "address"
                },
                {
                    "internalType": "address",
                    "name": "_kreskoAsset",
                    "type": "address"
                },
                {
                    "internalType": "uint256",
                    "name": "_amount",
                    "type": "uint256"
                }
            ],
            "name": "mintKreskoAsset",
            "outputs": [],
            "stateMutability": "nonpayable",
            "type": "function"
        },
        {
            "inputs": [
                {
                    "internalType": "address",
                    "name": "",
                    "type": "address"
                },
                {
                    "internalType": "uint256",
                    "name": "",
                    "type": "uint256"
                }
            ],
            "name": "mintedKreskoAssets",
            "outputs": [
                {
                    "internalType": "address",
                    "name": "",
                    "type": "address"
                }
            ],
            "stateMutability": "view",
            "type": "function"
        },
        {
            "inputs": [],
            "name": "owner",
            "outputs": [
                {
                    "internalType": "address",
                    "name": "",
                    "type": "address"
                }
            ],
            "stateMutability": "view",
            "type": "function"
        },
        {
            "inputs": [],
            "name": "pendingOwner",
            "outputs": [
                {
                    "internalType": "address",
                    "name": "",
                    "type": "address"
                }
            ],
            "stateMutability": "view",
            "type": "function"
        },
        {
            "inputs": [
                {
                    "internalType": "address",
                    "name": "_trustedContract",
                    "type": "address"
                }
            ],
            "name": "toggleTrustedContract",
            "outputs": [],
            "stateMutability": "nonpayable",
            "type": "function"
        },
        {
            "inputs": [
                {
                    "internalType": "address",
                    "name": "newOwner",
                    "type": "address"
                }
            ],
            "name": "transferOwnership",
            "outputs": [],
            "stateMutability": "nonpayable",
            "type": "function"
        },
        {
            "inputs": [
                {
                    "internalType": "address",
                    "name": "",
                    "type": "address"
                }
            ],
            "name": "trustedContracts",
            "outputs": [
                {
                    "internalType": "bool",
                    "name": "",
                    "type": "bool"
                }
            ],
            "stateMutability": "view",
            "type": "function"
        },
        {
            "inputs": [
                {
                    "internalType": "uint256",
                    "name": "_burnFee",
                    "type": "uint256"
                }
            ],
            "name": "updateBurnFee",
            "outputs": [],
            "stateMutability": "nonpayable",
            "type": "function"
        },
        {
            "inputs": [
                {
                    "internalType": "address",
                    "name": "_collateralAsset",
                    "type": "address"
                },
                {
                    "internalType": "address",
                    "name": "_oracle",
                    "type": "address"
                }
            ],
            "name": "updateCollateralAssetOracle",
            "outputs": [],
            "stateMutability": "nonpayable",
            "type": "function"
        },
        {
            "inputs": [
                {
                    "internalType": "address",
                    "name": "_collateralAsset",
                    "type": "address"
                },
                {
                    "internalType": "uint256",
                    "name": "_factor",
                    "type": "uint256"
                }
            ],
            "name": "updateCollateralFactor",
            "outputs": [],
            "stateMutability": "nonpayable",
            "type": "function"
        },
        {
            "inputs": [
                {
                    "internalType": "address",
                    "name": "_feeRecipient",
                    "type": "address"
                }
            ],
            "name": "updateFeeRecipient",
            "outputs": [],
            "stateMutability": "nonpayable",
            "type": "function"
        },
        {
            "inputs": [
                {
                    "internalType": "address",
                    "name": "_kreskoAsset",
                    "type": "address"
                },
                {
                    "internalType": "uint256",
                    "name": "_kFactor",
                    "type": "uint256"
                }
            ],
            "name": "updateKreskoAssetFactor",
            "outputs": [],
            "stateMutability": "nonpayable",
            "type": "function"
        },
        {
            "inputs": [
                {
                    "internalType": "address",
                    "name": "_kreskoAsset",
                    "type": "address"
                },
                {
                    "internalType": "uint256",
                    "name": "_marketCapUSDLimit",
                    "type": "uint256"
                }
            ],
            "name": "updateKreskoAssetMarketCapUSDLimit",
            "outputs": [],
            "stateMutability": "nonpayable",
            "type": "function"
        },
        {
            "inputs": [
                {
                    "internalType": "address",
                    "name": "_kreskoAsset",
                    "type": "address"
                },
                {
                    "internalType": "bool",
                    "name": "_mintable",
                    "type": "bool"
                }
            ],
            "name": "updateKreskoAssetMintable",
            "outputs": [],
            "stateMutability": "nonpayable",
            "type": "function"
        },
        {
            "inputs": [
                {
                    "internalType": "address",
                    "name": "_kreskoAsset",
                    "type": "address"
                },
                {
                    "internalType": "address",
                    "name": "_oracle",
                    "type": "address"
                }
            ],
            "name": "updateKreskoAssetOracle",
            "outputs": [],
            "stateMutability": "nonpayable",
            "type": "function"
        },
        {
            "inputs": [
                {
                    "internalType": "uint256",
                    "name": "_liquidationIncentiveMultiplier",
                    "type": "uint256"
                }
            ],
            "name": "updateLiquidationIncentiveMultiplier",
            "outputs": [],
            "stateMutability": "nonpayable",
            "type": "function"
        },
        {
            "inputs": [
                {
                    "internalType": "uint256",
                    "name": "_minimumCollateralizationRatio",
                    "type": "uint256"
                }
            ],
            "name": "updateMinimumCollateralizationRatio",
            "outputs": [],
            "stateMutability": "nonpayable",
            "type": "function"
        },
        {
            "inputs": [
                {
                    "internalType": "uint256",
                    "name": "_minimumDebtValue",
                    "type": "uint256"
                }
            ],
            "name": "updateMinimumDebtValue",
            "outputs": [],
            "stateMutability": "nonpayable",
            "type": "function"
        },
        {
            "inputs": [
                {
                    "internalType": "address",
                    "name": "_account",
                    "type": "address"
                },
                {
                    "internalType": "address",
                    "name": "_collateralAsset",
                    "type": "address"
                },
                {
                    "internalType": "uint256",
                    "name": "_amount",
                    "type": "uint256"
                },
                {
                    "internalType": "uint256",
                    "name": "_depositedCollateralAssetIndex",
                    "type": "uint256"
                }
            ],
            "name": "withdrawCollateral",
            "outputs": [],
            "stateMutability": "nonpayable",
            "type": "function"
        },
        {
            "inputs": [
                {
                    "internalType": "address",
                    "name": "_account",
                    "type": "address"
                },
                {
                    "internalType": "address",
                    "name": "_collateralAsset",
                    "type": "address"
                },
                {
                    "internalType": "uint256",
                    "name": "_amount",
                    "type": "uint256"
                },
                {
                    "internalType": "uint256",
                    "name": "_depositedCollateralAssetIndex",
                    "type": "uint256"
                }
            ],
            "name": "withdrawRebasingCollateral",
            "outputs": [],
            "stateMutability": "nonpayable",
            "type": "function"
        }
    ],
    "transactionHash": "0xff8e24c2786bc9612546dbac79b7edb57ae9c9aa7fd0017855c5404401121672",
    "args": [],
    "numDeployments": 1,
    "solcInputHash": "2aafaed9b8bd0478c07754209a9062a6",
    "bytecode": "0x60806040523480156200001157600080fd5b50600054610100900460ff166200002f5760005460ff161562000039565b62000039620000de565b620000a15760405162461bcd60e51b815260206004820152602e60248201527f496e697469616c697a61626c653a20636f6e747261637420697320616c72656160448201526d191e481a5b9a5d1a585b1a5e995960921b606482015260840160405180910390fd5b600054610100900460ff16158015620000c4576000805461ffff19166101011790555b8015620000d7576000805461ff00191690555b5062000102565b6000620000f630620000fc60201b6200430a1760201c565b15905090565b3b151590565b615dea80620001126000396000f3fe608060405234801561001057600080fd5b50600436106103995760003560e01c8063a61d1d51116101e9578063e30c39781161010f578063f2fde38b116100ad578063fce589d81161007c578063fce589d81461097c578063fe87151414610986578063fe93ec061461088e578063ff1389c51461099957600080fd5b8063f2fde38b14610930578063f5e6546c14610943578063f970c3b714610956578063f9bbba4a1461096957600080fd5b8063e5919a4f116100e9578063e5919a4f146108e7578063edbcc1461461088e578063efa80e861461090a578063f160d3691461091d57600080fd5b8063e30c3978146108b0578063e3f06d7b146108c1578063e419f709146108d457600080fd5b8063ca5115a211610187578063d7bfcecd11610156578063d7bfcecd146107e8578063d7da83be1461087b578063dd0081c71461088e578063e161cd7b1461089d57600080fd5b8063ca5115a2146107a5578063cc530a4b146107b8578063d127bad1146107cb578063d63b4a66146107d557600080fd5b8063c18ed630116101c3578063c18ed63014610760578063c744ebf114610773578063c8b91e2814610782578063c94ca11e1461079257600080fd5b8063a61d1d5114610704578063b204f1551461073a578063be2801b51461074d57600080fd5b806353909727116102ce57806377276fef1161026c57806384b16ceb1161023b57806384b16ceb146106a05780638da5cb5b146106b35780638fbce768146106c45780639b177c19146106ce57600080fd5b806377276fef14610654578063793271e3146106675780637932d4cf1461067a5780637d1a44501461068d57600080fd5b80636cceec25116102a85780636cceec25146105fb5780636d38822a1461060e5780636d5ec7b51461062e57806371e367531461064157600080fd5b8063539097271461053b5780635b1ae19f146105d557806369a7d52c146105e857600080fd5b806334923cd81161033b5780633ae000c0116103155780633ae000c0146104d257806346904840146104fa5780634e71e0c81461052557806350e8676c1461052d57600080fd5b806334923cd81461048a57806337e6c1fd146104b55780633a2d4eb6146104bf57600080fd5b806312dd8bdb1161037757806312dd8bdb146104135780631593738214610426578063166e3a05146104395780632f3bc67a1461047757600080fd5b8063052dda6f1461039e578063067dc289146103c55780630c65e07b146103da575b600080fd5b6103b16103ac366004615632565b6109ac565b604051905181526020015b60405180910390f35b6103d86103d336600461565e565b610a5f565b005b6104056103e83660046156a4565b609f60209081526000928352604080842090915290825290205481565b6040519081526020016103bc565b6103d86104213660046156dd565b610db2565b6103d8610434366004615704565b610ee8565b610467610447366004615795565b805160208183018101805160a28252928201919093012091525460ff1681565b60405190151581526020016103bc565b6104056104853660046156a4565b61143d565b6104056104983660046156a4565b60a360209081526000928352604080842090915290825290205481565b609b546104059081565b6103d86104cd3660046156dd565b6114c7565b6104e56104e0366004615846565b6115a5565b604080519251835290516020830152016103bc565b609a5461050d906001600160a01b031681565b6040516001600160a01b0390911681526020016103bc565b6103d86116e0565b61040566b1a2bc2ec5000081565b61059b610549366004615888565b609e60209081526000918252604091829020825191820190925281548152600182015460029092015490916001600160a01b03908116919081169060ff600160a01b8204811691600160a81b90041685565b60408051955186526001600160a01b039485166020870152929093169184019190915260ff1660608301521515608082015260a0016103bc565b6103d86105e3366004615632565b6117a0565b6103b16105f6366004615846565b6118f8565b6103d86106093660046158a5565b611a22565b61062161061c366004615888565b611f3a565b6040516103bc9190615951565b6103d861063c3660046156a4565b611fb0565b6103d861064f3660046156dd565b612107565b6103d86106623660046156a4565b6121e4565b6103d8610675366004615632565b612337565b6103b161068836600461599e565b612432565b6103b161069b366004615888565b6126cd565b6103d86106ae3660046159de565b6127e2565b6033546001600160a01b031661050d565b609d546104059081565b6104676106dc366004615888565b6001600160a01b0316600090815260a16020526040902060010154600160a01b900460ff1690565b610467610712366004615888565b6001600160a01b03166000908152609e6020526040902060020154600160a81b900460ff1690565b6103d8610748366004615888565b6128d5565b61046761075b366004615888565b612978565b61050d61076e366004615632565b6129a7565b610405671158e460913d000081565b610405683635c9adc5dea0000081565b6103d86107a0366004615a26565b6129df565b6103d86107b3366004615a79565b612de0565b6103d86107c636600461565e565b6130ab565b609c546104059081565b6104056107e33660046156a4565b613325565b6108446107f6366004615888565b60a160209081526000918252604091829020825191820190925281548152600182015460029092015490916001600160a01b0381169160ff600160a01b8304811692600160a81b9004169085565b60408051955186526001600160a01b039094166020860152911515928401929092529015156060830152608082015260a0016103bc565b6103d8610889366004615aba565b6133a9565b610405670de0b6b3a764000081565b6103d86108ab366004615632565b6134bd565b6034546001600160a01b031661050d565b6103d86108cf366004615a79565b61361e565b61050d6108e2366004615632565b613b47565b6104676108f5366004615888565b60986020526000908152604090205460ff1681565b610621610918366004615888565b613b63565b6103d861092b366004615888565b613bd7565b6103d861093e366004615888565b613cbf565b6103d861095136600461565e565b613d8f565b6103d8610964366004615a79565b613f2c565b6103d86109773660046156dd565b61401b565b6099546104059081565b6103b1610994366004615888565b6140fa565b6103b16109a7366004615888565b614202565b6040805160208101909152600081526001600160a01b038316600090815260a160205260409020600101548390600160a01b900460ff16610a285760405162461bcd60e51b815260206004820152601160248201527012d48e88085adc905cdcd95d115e1a5cdd607a1b60448201526064015b60405180910390fd5b6000610a36858560006118f8565b6040805160208101909152609c548152909150610a54908290614310565b9250505b5092915050565b60026066541415610ab25760405162461bcd60e51b815260206004820152601f60248201527f5265656e7472616e637947756172643a207265656e7472616e742063616c6c006044820152606401610a1f565b60026066556001600160a01b038316600090815260a160205260409020600101548390600160a01b900460ff16610b1f5760405162461bcd60e51b815260206004820152601160248201527012d48e88085adc905cdcd95d115e1a5cdd607a1b6044820152606401610a1f565b6001600160a01b0385163314801590610b91573360009081526098602052604090205460ff16610b915760405162461bcd60e51b815260206004820152601760248201527f4b523a20556e617574686f72697a65642063616c6c65720000000000000000006044820152606401610a1f565b60008411610be15760405162461bcd60e51b815260206004820152600a60248201527f4b523a20302d6275726e000000000000000000000000000000000000000000006044820152606401610a1f565b6001600160a01b03808716600090815260a3602090815260408083209389168352929052205480851115610c575760405162461bcd60e51b815260206004820152601160248201527f4b523a20616d6f756e74203e20646562740000000000000000000000000000006044820152606401610a1f565b6040805160208101909152609d548152610c8890610c8088610c798986615afe565b60016118f8565b905190511090565b15610c91578094505b6001600160a01b03808816600090815260a360209081526040808320938a1683529290529081208054879290610cc8908490615afe565b909155505084811415610cf8576001600160a01b038716600090815260a460205260409020610cf8908786614358565b610d03878787614499565b604051632770a7eb60e21b8152336004820152602481018690526001600160a01b03871690639dc29fac90604401600060405180830381600087803b158015610d4b57600080fd5b505af1158015610d5f573d6000803e3d6000fd5b5050505084866001600160a01b0316886001600160a01b03167f8af4d455a89586973d5f67129b1311b10fb5eaa983499b67e11d4a12f721fdad60405160405180910390a4505060016066555050505050565b6033546001600160a01b03163314610dfa5760405162461bcd60e51b81526020600482018190526024820152600080516020615dbe8339815191526044820152606401610a1f565b670de0b6b3a7640000811015610e525760405162461bcd60e51b815260206004820152601b60248201527f4b523a206c6971496e63656e746976654d756c7469203c206d696e00000000006044820152606401610a1f565b671158e460913d0000811115610eaa5760405162461bcd60e51b815260206004820152601b60248201527f4b523a206c6971496e63656e746976654d756c7469203e206d617800000000006044820152606401610a1f565b60408051602081018252829052609b8290555181907f1b7b34c6d204ac91d0799a1082c5bb302148abed8cf3aca473c01e7e2b44437490600090a250565b60026066541415610f3b5760405162461bcd60e51b815260206004820152601f60248201527f5265656e7472616e637947756172643a207265656e7472616e742063616c6c006044820152606401610a1f565b60026066556001600160a01b038616600090815260a16020526040902060010154600160a01b900460ff16610fa65760405162461bcd60e51b815260206004820152601160248201527012d48e88085adc905cdcd95d115e1a5cdd607a1b6044820152606401610a1f565b6001600160a01b0384166000908152609e6020526040902060020154600160a81b900460ff166110105760405162461bcd60e51b81526020600482015260156024820152744b523a2021636f6c6c61746572616c45786973747360581b6044820152606401610a1f565b600085116110605760405162461bcd60e51b815260206004820152600b60248201527f4b523a20302d72657061790000000000000000000000000000000000000000006044820152606401610a1f565b336001600160a01b03881614156110b95760405162461bcd60e51b815260206004820152601460248201527f4b523a2073656c66206c69717569646174696f6e0000000000000000000000006044820152606401610a1f565b6110c287612978565b61110e5760405162461bcd60e51b815260206004820152601860248201527f4b523a20216163636f756e744c6971756964617461626c6500000000000000006044820152606401610a1f565b6040805160208082018084526001600160a01b03808b16600090815260a18452858120600101546350d25bcd60e01b90935294516111ae94938493909216916350d25bcd9160248086019291908187030181865afa158015611174573d6000803e3d6000fd5b505050506040513d601f19601f820116820180604052508101906111989190615b15565b9052604080516020810190915288815290614310565b6001600160a01b03808a16600090815260a360209081526040808320938c168352929052908120549192506111e48a8a89612432565b9050878210156112365760405162461bcd60e51b815260206004820152601c60248201527f4b523a207265706179416d6f756e74203e2064656274416d6f756e74000000006044820152606401610a1f565b8051835111156112885760405162461bcd60e51b815260206004820152601560248201527f4b523a207265706179555344203e206d617855534400000000000000000000006044820152606401610a1f565b506040805160208082018084526001600160a01b03808b166000908152609e8452858120600101546350d25bcd60e01b9093529451849392909116916350d25bcd9160248086019291908187030181865afa1580156112eb573d6000803e3d6000fd5b505050506040513d601f19601f8201168201806040525081019061130f9190615b15565b9052905060006113378b848b61132e8c611329888b61473d565b614773565b8e8c8e8d614856565b90506113448b8b8b614499565b604051632770a7eb60e21b8152336004820152602481018a90526001600160a01b038b1690639dc29fac90604401600060405180830381600087803b15801561138c57600080fd5b505af11580156113a0573d6000803e3d6000fd5b505050506000856113be576113b9898c8c858988614967565b6113c0565b815b90506113d66001600160a01b038a163383614ae3565b604080518b81526001600160a01b038b81166020830152918101839052818d16913391908f16907f742b0f459021eca6a76aa1a0ccaac62b9edabac406c61ac97d83dc4132d731a29060600160405180910390a45050600160665550505050505050505050565b60005b6001600160a01b038316600090815260a060205260409020548110156114c1576001600160a01b03838116600090815260a0602052604090208054918416918390811061148f5761148f615b2e565b6000918252602090912001546001600160a01b031614156114af576114c1565b806114b981615b44565b915050611440565b92915050565b6033546001600160a01b0316331461150f5760405162461bcd60e51b81526020600482018190526024820152600080516020615dbe8339815191526044820152606401610a1f565b670de0b6b3a76400008110156115675760405162461bcd60e51b815260206004820152601c60248201527f4b523a206d696e436f6c6c61746572616c526174696f203c206d696e000000006044820152606401610a1f565b60408051602081018252829052609c8290555181907f05eb44cf9a95cea4348c602716dd1baaf91d47819d797cffe9ada14069da8e0e90600090a250565b6040805160208101909152600081526040805160208101909152600081526001600160a01b038086166000908152609e60209081526040808320815160c081018352815460a0820190815281526001820154861693810193909352600201549384169082015260ff600160a01b840481166060830152600160a81b909304909216151560808301526116378787614b78565b90506000604051806020016040528084602001516001600160a01b03166350d25bcd6040518163ffffffff1660e01b8152600401602060405180830381865afa158015611688573d6000803e3d6000fd5b505050506040513d601f19601f820116820180604052508101906116ac9190615b15565b9052905060006116bc8383614310565b9050866116d35783516116d0908290614310565b90505b9890975095505050505050565b6034546001600160a01b0316331461173a5760405162461bcd60e51b815260206004820181905260248201527f4f776e61626c653a2063616c6c657220213d2070656e64696e67206f776e65726044820152606401610a1f565b6034546033546040516001600160a01b0392831692909116907f8be0079c531659141344cd1fd0a4f28419497f9722a3daafe3b4186f6b6457e090600090a360348054603380546001600160a01b03199081166001600160a01b03841617909155169055565b6033546001600160a01b031633146117e85760405162461bcd60e51b81526020600482018190526024820152600080516020615dbe8339815191526044820152606401610a1f565b6001600160a01b0382166000908152609e60205260409020600201548290600160a81b900460ff166118545760405162461bcd60e51b81526020600482015260156024820152744b523a2021636f6c6c61746572616c45786973747360581b6044820152606401610a1f565b6118606012600a615c43565b8211156118a25760405162461bcd60e51b815260206004820152601060248201526f04b523a20666163746f72203e203146560841b6044820152606401610a1f565b60408051602080820183528482526001600160a01b0386166000818152609e9092528382209251909255915184927f49770492abc63d09a8225775de481b54ba236716913e27a353928f7d5cbd303291a3505050565b6040805160208101909152600081526001600160a01b03808516600090815260a160209081526040808320815160c081018352815460a082019081528152600182015480871682860190815260ff600160a01b83048116151584870152600160a81b909204909116151560608301526002909201546080820152825180850180855292516350d25bcd60e01b909352925190959293849392909216916350d25bcd9160248086019291908187030181865afa1580156119bb573d6000803e3d6000fd5b505050506040513d601f19601f820116820180604052508101906119df9190615b15565b905260408051602081019091528681529091506000906119ff9083614310565b905084611a16578251611a13908290614310565b90505b925050505b9392505050565b6033546001600160a01b03163314611a6a5760405162461bcd60e51b81526020600482018190526024820152600080516020615dbe8339815191526044820152606401610a1f565b848480611ab95760405162461bcd60e51b815260206004820152600b60248201527f4b523a2021737472696e670000000000000000000000000000000000000000006044820152606401610a1f565b6001600160a01b038816600090815260a16020526040902060010154889088908890600160a01b900460ff1615611b325760405162461bcd60e51b815260206004820152601160248201527f4b523a206b7241737365744578697374730000000000000000000000000000006044820152606401610a1f565b60a28282604051611b44929190615c4f565b9081526040519081900360200190205460ff1615611ba45760405162461bcd60e51b815260206004820152601060248201527f4b523a2073796d626f6c457869737473000000000000000000000000000000006044820152606401610a1f565b611bb06012600a615c43565b881015611bff5760405162461bcd60e51b815260206004820152601160248201527f4b523a206b466163746f72203c203146500000000000000000000000000000006044820152606401610a1f565b6001600160a01b038716611c475760405162461bcd60e51b815260206004820152600f60248201526e25a91d1010b7b930b1b632a0b2323960891b6044820152606401610a1f565b60008b9050806001600160a01b03166391d14854826001600160a01b031663f5b541a66040518163ffffffff1660e01b81526004016020604051808303816000875af1158015611c9b573d6000803e3d6000fd5b505050506040513d601f19601f82011682018060405250810190611cbf9190615b15565b6040517fffffffff0000000000000000000000000000000000000000000000000000000060e084901b16815260048101919091523060248201526044016020604051808303816000875af1158015611d1b573d6000803e3d6000fd5b505050506040513d601f19601f82011682018060405250810190611d3f9190615c5f565b611d8b5760405162461bcd60e51b815260206004820152601260248201527f4b523a202161737365744f70657261746f7200000000000000000000000000006044820152606401610a1f565b600160a28c8c604051611d9f929190615c4f565b908152602001604051809103902060006101000a81548160ff0219169083151502179055506040518060a0016040528060405180602001604052808c8152508152602001896001600160a01b031681526020016001151581526020016001151581526020018881525060a160008e6001600160a01b03166001600160a01b0316815260200190815260200160002060008201518160000160008201518160000155505060208201518160010160006101000a8154816001600160a01b0302191690836001600160a01b0316021790555060408201518160010160146101000a81548160ff02191690831515021790555060608201518160010160156101000a81548160ff02191690831515021790555060808201518160020155905050888b8b604051611ecd929190615c4f565b60405180910390208d6001600160a01b03167f856f8fe3226e0a5efceedda3cc28003a67ae4be22c46969755433f4c0d47a0038b8b604051611f249291906001600160a01b03929092168252602082015260400190565b60405180910390a4505050505050505050505050565b6001600160a01b038116600090815260a06020908152604091829020805483518184028101840190945280845260609392830182828015611fa457602002820191906000526020600020905b81546001600160a01b03168152600190910190602001808311611f86575b50505050509050919050565b6033546001600160a01b03163314611ff85760405162461bcd60e51b81526020600482018190526024820152600080516020615dbe8339815191526044820152606401610a1f565b6001600160a01b0382166000908152609e60205260409020600201548290600160a81b900460ff166120645760405162461bcd60e51b81526020600482015260156024820152744b523a2021636f6c6c61746572616c45786973747360581b6044820152606401610a1f565b6001600160a01b0382166120ac5760405162461bcd60e51b815260206004820152600f60248201526e25a91d1010b7b930b1b632a0b2323960891b6044820152606401610a1f565b6001600160a01b038381166000818152609e602052604080822060010180546001600160a01b0319169487169485179055517fbc5686022e81a9fd2392fd05641541be06b67500d38385682b19839486b237389190a3505050565b6033546001600160a01b0316331461214f5760405162461bcd60e51b81526020600482018190526024820152600080516020615dbe8339815191526044820152606401610a1f565b66b1a2bc2ec500008111156121a65760405162461bcd60e51b815260206004820152601160248201527f4b523a206275726e466565203e206d61780000000000000000000000000000006044820152606401610a1f565b6040805160208101825282905260998290555181907fd54296e32811a7f2da2c1f6e8b39cb815ce208595da09bb98b034ccca6dffc6990600090a250565b6033546001600160a01b0316331461222c5760405162461bcd60e51b81526020600482018190526024820152600080516020615dbe8339815191526044820152606401610a1f565b6001600160a01b038216600090815260a160205260409020600101548290600160a01b900460ff166122945760405162461bcd60e51b815260206004820152601160248201527012d48e88085adc905cdcd95d115e1a5cdd607a1b6044820152606401610a1f565b6001600160a01b0382166122dc5760405162461bcd60e51b815260206004820152600f60248201526e25a91d1010b7b930b1b632a0b2323960891b6044820152606401610a1f565b6001600160a01b03838116600081815260a1602052604080822060010180546001600160a01b0319169487169485179055517ff0b8c8a6fa2342fb4971ac9b18f27800649af052be9325aa40cebbc03292dda19190a3505050565b6033546001600160a01b0316331461237f5760405162461bcd60e51b81526020600482018190526024820152600080516020615dbe8339815191526044820152606401610a1f565b6001600160a01b038216600090815260a160205260409020600101548290600160a01b900460ff166123e75760405162461bcd60e51b815260206004820152601160248201527012d48e88085adc905cdcd95d115e1a5cdd607a1b6044820152606401610a1f565b6001600160a01b038316600081815260a16020526040808220600201859055518492917ffb48e61ce1966a340bb8b4d5f4e408b3d85e72c0e0cee3dafccc92bc2e8480be91a3505050565b604080516020808201835260008083526001600160a01b03878116825260a383528482209087168252909152918220549091906124709085906109ac565b6001600160a01b038087166000908152609f60209081526040808320938816835292905290812054919250906124a8908590836115a5565b5090506124b88183519051101590565b156124d6576040518060200160405280600081525092505050611a1b565b6001600160a01b03808616600090815260a16020908152604080832081518084018352905481529388168352609e825280832081519283019091525481529061251f8585614c68565b604080516020808201835260995482528251908101909252609b54825291925060009161257c9161255b91869161255591614c68565b90614310565b6040805160208101909152609c548152612576908790614310565b90614c68565b90506125888282614c92565b604080516020808201835260995482528251908101909252609b5482529198506000916125cb916125c4916125bd9190614cd3565b8790614310565b8990614c92565b90506125d981875190511190565b156125f5576125f26125eb8285614c92565b8790614c92565b97505b6001600160a01b038b16600090815260a06020526040902054600110801561262a575061262a84670de0b6b3a7640000614cfd565b1561269657604080516020808201835260995482528251908101909252670de0b6b3a764000082526126889161265f91614cd3565b61255561268161267a612673896004614d14565b8b90614310565b8c90614c92565b8b90614c92565b975050505050505050611a1b565b604080516020808201835260995482528251908101909252670de0b6b3a76400008252612688916126c691614cd3565b8990614310565b60408051602080820183526000808352835180830185528181526001600160a01b038616825260a0835284822080548651818602810186019097528087529495919492939192909183018282801561274e57602002820191906000526020600020905b81546001600160a01b03168152600190910190602001808311612730575b5050505050905060005b81518110156127d957600082828151811061277557612775615b2e565b6020908102919091018101516001600160a01b038089166000908152609f845260408082209284168252919093528220549092506127b5908390836115a5565b5090506127c28582614cd3565b9450505080806127d190615b44565b915050612758565b50909392505050565b600054610100900460ff166127fd5760005460ff1615612801565b303b155b6128645760405162461bcd60e51b815260206004820152602e60248201527f496e697469616c697a61626c653a20636f6e747261637420697320616c72656160448201526d191e481a5b9a5d1a585b1a5e995960921b6064820152608401610a1f565b600054610100900460ff16158015612886576000805461ffff19166101011790555b61288e614d58565b61289786612107565b6128a085613bd7565b6128a984610db2565b6128b2836114c7565b6128bb8261401b565b80156128cd576000805461ff00191690555b505050505050565b6033546001600160a01b0316331461291d5760405162461bcd60e51b81526020600482018190526024820152600080516020615dbe8339815191526044820152606401610a1f565b6001600160a01b038116600081815260986020526040808220805460ff81161560ff19909116811790915590519092839290917fe2ad9d0600e2a93ef46991efd2c22f65f9ebe472487cc7551647bc52d79328999190a35050565b600080612984836126cd565b90506000612991846140fa565b905061299f82825190511090565b949350505050565b60a460205281600052604060002081815481106129c357600080fd5b6000918252602090912001546001600160a01b03169150829050565b60026066541415612a325760405162461bcd60e51b815260206004820152601f60248201527f5265656e7472616e637947756172643a207265656e7472616e742063616c6c006044820152606401610a1f565b60026066556033546001600160a01b03163314612a7f5760405162461bcd60e51b81526020600482018190526024820152600080516020615dbe8339815191526044820152606401610a1f565b6001600160a01b0384166000908152609e60205260409020600201548490600160a81b900460ff1615612af45760405162461bcd60e51b815260206004820152601460248201527f4b523a20636f6c6c61746572616c4578697374730000000000000000000000006044820152606401610a1f565b6001600160a01b038516612b4a5760405162461bcd60e51b815260206004820152601360248201527f4b523a2021636f6c6c61746572616c41646472000000000000000000000000006044820152606401610a1f565b612b566012600a615c43565b841115612b985760405162461bcd60e51b815260206004820152601060248201526f04b523a20666163746f72203e203146560841b6044820152606401610a1f565b6001600160a01b038316612be05760405162461bcd60e51b815260206004820152600f60248201526e25a91d1010b7b930b1b632a0b2323960891b6044820152606401610a1f565b600082612bee576000612c52565b856001600160a01b0316632495a5996040518163ffffffff1660e01b81526004016020604051808303816000875af1158015612c2e573d6000803e3d6000fd5b505050506040513d601f19601f82011682018060405250810190612c529190615c7c565b90506040518060a001604052806040518060200160405280888152508152602001856001600160a01b03168152602001826001600160a01b03168152602001876001600160a01b031663313ce5676040518163ffffffff1660e01b8152600401602060405180830381865afa158015612ccf573d6000803e3d6000fd5b505050506040513d601f19601f82011682018060405250810190612cf39190615c99565b60ff9081168252600160209283018190526001600160a01b038a81166000818152609e8652604080822088515181559688015194870180546001600160a01b03191695851695909517909455868401516002909601805460608901516080909901519785167fffffffffffffffffffffff00000000000000000000000000000000000000000090911617600160a01b98909616979097029490941760ff60a81b1916600160a81b951515959095029490941790945551928716928892917fbbed29325d56bc78244a08bc7ec9bcc8a4f4158eae5fa3be7ce21ebdb746845591a45050600160665550505050565b60026066541415612e335760405162461bcd60e51b815260206004820152601f60248201527f5265656e7472616e637947756172643a207265656e7472616e742063616c6c006044820152606401610a1f565b600260668190556001600160a01b0383166000908152609e6020526040902001548290600160a81b900460ff16612ea45760405162461bcd60e51b81526020600482015260156024820152744b523a2021636f6c6c61746572616c45786973747360581b6044820152606401610a1f565b60008211612ee45760405162461bcd60e51b815260206004820152600d60248201526c12d48e880c0b59195c1bdcda5d609a1b6044820152606401610a1f565b6001600160a01b038084166000908152609e60205260409020600201541680612f4f5760405162461bcd60e51b815260206004820152601360248201527f4b523a20214e525754436f6c6c61746572616c000000000000000000000000006044820152606401610a1f565b612f646001600160a01b038216333086614e20565b60405163095ea7b360e01b81526001600160a01b0385811660048301526024820185905282169063095ea7b3906044016020604051808303816000875af1158015612fb3573d6000803e3d6000fd5b505050506040513d601f19601f82011682018060405250810190612fd79190615c5f565b6130235760405162461bcd60e51b815260206004820152601060248201527f4b523a20417070726f76616c4661696c000000000000000000000000000000006044820152606401610a1f565b60405163b9f5be4160e01b8152600481018490526000906001600160a01b0386169063b9f5be41906024016020604051808303816000875af115801561306d573d6000803e3d6000fd5b505050506040513d601f19601f820116820180604052508101906130919190615b15565b905061309e868683614e5e565b5050600160665550505050565b600260665414156130fe5760405162461bcd60e51b815260206004820152601f60248201527f5265656e7472616e637947756172643a207265656e7472616e742063616c6c006044820152606401610a1f565b600260668190556001600160a01b0384166000908152609e6020526040902001548390600160a81b900460ff1661316f5760405162461bcd60e51b81526020600482015260156024820152744b523a2021636f6c6c61746572616c45786973747360581b6044820152606401610a1f565b6001600160a01b03851633148015906131e1573360009081526098602052604090205460ff166131e15760405162461bcd60e51b815260206004820152601760248201527f4b523a20556e617574686f72697a65642063616c6c65720000000000000000006044820152606401610a1f565b6001600160a01b038087166000908152609f6020908152604080832093891683529290522054808511156132155780613217565b845b94506132268787878488614f64565b6001600160a01b038087166000908152609e602052604090206002015416806132915760405162461bcd60e51b815260206004820152601360248201527f4b523a20214e525754436f6c6c61746572616c000000000000000000000000006044820152606401610a1f565b6040516301071a2960e41b8152600481018790526000906001600160a01b03891690631071a290906024016020604051808303816000875af11580156132db573d6000803e3d6000fd5b505050506040513d601f19601f820116820180604052508101906132ff9190615b15565b90506133156001600160a01b0383168a83614ae3565b5050600160665550505050505050565b60005b6001600160a01b038316600090815260a460205260409020548110156114c1576001600160a01b03838116600090815260a4602052604090208054918416918390811061337757613377615b2e565b6000918252602090912001546001600160a01b03161415613397576114c1565b806133a181615b44565b915050613328565b6033546001600160a01b031633146133f15760405162461bcd60e51b81526020600482018190526024820152600080516020615dbe8339815191526044820152606401610a1f565b6001600160a01b038216600090815260a160205260409020600101548290600160a01b900460ff166134595760405162461bcd60e51b815260206004820152601160248201527012d48e88085adc905cdcd95d115e1a5cdd607a1b6044820152606401610a1f565b6001600160a01b038316600081815260a16020526040808220600101805460ff60a81b1916600160a81b8715159081029190911790915590519092917f1300a72d2cb37aa0fff9174bc14f739dad46409355b216f37d855138cd7c99ed91a3505050565b6033546001600160a01b031633146135055760405162461bcd60e51b81526020600482018190526024820152600080516020615dbe8339815191526044820152606401610a1f565b6001600160a01b038216600090815260a160205260409020600101548290600160a01b900460ff1661356d5760405162461bcd60e51b815260206004820152601160248201527012d48e88085adc905cdcd95d115e1a5cdd607a1b6044820152606401610a1f565b6135796012600a615c43565b8210156135c85760405162461bcd60e51b815260206004820152601160248201527f4b523a206b466163746f72203c203146500000000000000000000000000000006044820152606401610a1f565b60408051602080820183528482526001600160a01b038616600081815260a19092528382209251909255915184927f503b3a501859c7bb27e9a41cc3c6796efe716725a25f5d88a7c4a4284557db6c91a3505050565b600260665414156136715760405162461bcd60e51b815260206004820152601f60248201527f5265656e7472616e637947756172643a207265656e7472616e742063616c6c006044820152606401610a1f565b60026066556001600160a01b038216600090815260a160205260409020600101548290600160a01b900460ff166136de5760405162461bcd60e51b815260206004820152601160248201527012d48e88085adc905cdcd95d115e1a5cdd607a1b6044820152606401610a1f565b6001600160a01b038116600090815260a16020526040902060010154600160a81b900460ff166137505760405162461bcd60e51b815260206004820152601460248201527f4b523a20216b7241737365744d696e7461626c650000000000000000000000006044820152606401610a1f565b6001600160a01b03841633148015906137c2573360009081526098602052604090205460ff166137c25760405162461bcd60e51b815260206004820152601760248201527f4b523a20556e617574686f72697a65642063616c6c65720000000000000000006044820152606401610a1f565b600083116138125760405162461bcd60e51b815260206004820152600a60248201527f4b523a20302d6d696e74000000000000000000000000000000000000000000006044820152606401610a1f565b60a16000856001600160a01b03166001600160a01b03168152602001908152602001600020600201546138ac8585876001600160a01b03166318160ddd6040518163ffffffff1660e01b8152600401602060405180830381865afa15801561387e573d6000803e3d6000fd5b505050506040513d601f19601f820116820180604052508101906138a29190615b15565b610c799190615cbc565b5111156138fb5760405162461bcd60e51b815260206004820152600c60248201527f4b523a204d43206c696d697400000000000000000000000000000000000000006044820152606401610a1f565b6000613906866126cd565b90506000613913876140fa565b9050600061392187876109ac565b905061393a836139318484614cd3565b90519051111590565b6139865760405162461bcd60e51b815260206004820152601a60248201527f4b523a20696e73756666696369656e74436f6c6c61746572616c0000000000006044820152606401610a1f565b6001600160a01b03808916600090815260a360209081526040808320938b16835292815290829020548251918201909252609d5481526139d7906139ce8a610c798b86615cbc565b90519051101590565b613a235760405162461bcd60e51b815260206004820152601560248201527f4b523a2062656c6f774d696e4465627456616c756500000000000000000000006044820152606401610a1f565b80613a67576001600160a01b03898116600090815260a4602090815260408220805460018101825590835291200180546001600160a01b031916918a169190911790555b613a718782615cbc565b6001600160a01b038a8116600081815260a360209081526040808320948e1680845294909152908190209390935591516340c10f1960e01b8152600481019290925260248201899052906340c10f1990604401600060405180830381600087803b158015613ade57600080fd5b505af1158015613af2573d6000803e3d6000fd5b5050505086886001600160a01b03168a6001600160a01b03167f374b9a23ebe50f7d174c40fdd6a3085177f4efbd8560db9a6b034a695b1f070f60405160405180910390a45050600160665550505050505050565b60a060205281600052604060002081815481106129c357600080fd5b6001600160a01b038116600090815260a46020908152604091829020805483518184028101840190945280845260609392830182828015611fa4576020028201919060005260206000209081546001600160a01b03168152600190910190602001808311611f865750505050509050919050565b6033546001600160a01b03163314613c1f5760405162461bcd60e51b81526020600482018190526024820152600080516020615dbe8339815191526044820152606401610a1f565b6001600160a01b038116613c755760405162461bcd60e51b815260206004820152601160248201527f4b523a2021666565526563697069656e740000000000000000000000000000006044820152606401610a1f565b609a80546001600160a01b0319166001600160a01b0383169081179091556040517f7a7b5a0a132f9e0581eb8527f66eae9ee89c2a3e79d4ac7e41a1f1f4d48a7fc290600090a250565b6033546001600160a01b03163314613d075760405162461bcd60e51b81526020600482018190526024820152600080516020615dbe8339815191526044820152606401610a1f565b6001600160a01b038116613d835760405162461bcd60e51b815260206004820152602660248201527f4f776e61626c653a206e6577206f776e657220697320746865207a65726f206160448201527f64647265737300000000000000000000000000000000000000000000000000006064820152608401610a1f565b613d8c816150df565b50565b60026066541415613de25760405162461bcd60e51b815260206004820152601f60248201527f5265656e7472616e637947756172643a207265656e7472616e742063616c6c006044820152606401610a1f565b600260668190556001600160a01b0384166000908152609e6020526040902001548390600160a81b900460ff16613e535760405162461bcd60e51b81526020600482015260156024820152744b523a2021636f6c6c61746572616c45786973747360581b6044820152606401610a1f565b6001600160a01b0385163314801590613ec5573360009081526098602052604090205460ff16613ec55760405162461bcd60e51b815260206004820152601760248201527f4b523a20556e617574686f72697a65642063616c6c65720000000000000000006044820152606401610a1f565b6001600160a01b038087166000908152609f602090815260408083209389168352929052205480851115613ef95780613efb565b845b9450613f0a8787878488614f64565b613f1e6001600160a01b0387168887614ae3565b505060016066555050505050565b60026066541415613f7f5760405162461bcd60e51b815260206004820152601f60248201527f5265656e7472616e637947756172643a207265656e7472616e742063616c6c006044820152606401610a1f565b600260668190556001600160a01b0383166000908152609e6020526040902001548290600160a81b900460ff16613ff05760405162461bcd60e51b81526020600482015260156024820152744b523a2021636f6c6c61746572616c45786973747360581b6044820152606401610a1f565b6140056001600160a01b038416333085614e20565b614010848484614e5e565b505060016066555050565b6033546001600160a01b031633146140635760405162461bcd60e51b81526020600482018190526024820152600080516020615dbe8339815191526044820152606401610a1f565b683635c9adc5dea000008111156140bc5760405162461bcd60e51b815260206004820152601360248201527f4b523a206465627456616c7565203e206d6178000000000000000000000000006044820152606401610a1f565b60408051602081018252829052609d8290555181907fbd32948ccd208f8bfa0001b72381d8ba95fbbe73788f0954df68689ef6d111ae90600090a250565b60408051602080820183526000808352835180830185528181526001600160a01b038616825260a4835284822080548651818602810186019097528087529495919492939192909183018282801561417b57602002820191906000526020600020905b81546001600160a01b0316815260019091019060200180831161415d575b5050505050905060005b81518110156127d95760008282815181106141a2576141a2615b2e565b6020908102919091018101516001600160a01b03808916600090815260a384526040808220928416825291909352909120549091506141eb6141e483836109ac565b8690614cd3565b9450505080806141fa90615b44565b915050614185565b60408051602080820183526000808352835180830185528181526001600160a01b038616825260a4835284822080548651818602810186019097528087529495919492939192909183018282801561428357602002820191906000526020600020905b81546001600160a01b03168152600190910190602001808311614265575b5050505050905060005b81518110156127d95760008282815181106142aa576142aa615b2e565b6020908102919091018101516001600160a01b03808916600090815260a3845260408082209284168252919093528220549092506142f4916142ed9184916118f8565b8590614cd3565b935050808061430290615b44565b91505061428d565b3b151590565b60408051602081019091526000815260405180602001604052806012600a6143389190615c43565b8451865161434591615131565b61434f9190615cd4565b90529392505050565b816001600160a01b031683828154811061437457614374615b2e565b6000918252602090912001546001600160a01b0316146143d65760405162461bcd60e51b815260206004820152601f60248201527f4172726179733a20696e636f72726563742072656d6f76616c20696e646578006044820152606401610a1f565b82546000906143e790600190615afe565b90508082146144615783818154811061440257614402615b2e565b9060005260206000200160009054906101000a90046001600160a01b031684838154811061443257614432615b2e565b9060005260206000200160006101000a8154816001600160a01b0302191690836001600160a01b031602179055505b8380548061447157614471615cf6565b600082815260209020810160001990810180546001600160a01b031916905501905550505050565b6001600160a01b03808316600090815260a160209081526040808320815160c081018352815460a082019081528152600182015480871682860190815260ff600160a01b83048116151584870152600160a81b90920490911615156060830152600290920154608082015282518085018452609954815283518086018552888152845180870180875294516350d25bcd60e01b9095529451929761459a96929561255595929490938493909216916350d25bcd9160248086019291908187030181865afa15801561456e573d6000803e3d6000fd5b505050506040513d601f19601f820116820180604052508101906145929190615b15565b905290614310565b80519091506145aa575050505050565b6001600160a01b038516600090815260a0602090815260408083208054825181850281018501909352808352919290919083018282801561461457602002820191906000526020600020905b81546001600160a01b031681526001909101906020018083116145f6575b5050505050905060006001825161462b9190615afe565b90505b600082828151811061464257614642615b2e565b6020026020010151905060008061465b838b888761513d565b6001600160a01b03808d166000908152609f60209081526040808320938916835292905290812080549395509193508492614697908490615afe565b9091555050609a546146b6906001600160a01b03858116911684614ae3565b81836001600160a01b03168b6001600160a01b03167ff3aa85c774db0dd66de0567be29cdc6872e4709f0374284190d9739ba475bbb8846000015160405161470091815260200190565b60405180910390a46147128682614c68565b80519096506147275750505050505050505050565b505050808061473590615d0c565b91505061462e565b6040805160208101909152600081526040805160208101909152609b548152611a1b90849061476d908590614310565b90614c92565b6001600160a01b038083166000908152609e60209081526040808320815160c081018352815460a0820190815281526001820154861693810193909352600201549384169082015260ff600160a01b8404811660608301819052600160a81b9094041615156080820152835191929091906012111561481d5760608201516147ff9060ff166012615afe565b61480a90600a615c43565b6148149082615cd4565b925050506114c1565b6012826060015160ff16111561299f576012826060015160ff166148419190615afe565b61484c90600a615c43565b6148149082615d23565b60006148628789615afe565b6001600160a01b03808b16600090815260a360209081526040808320938a1683529290522055868814156148b3576001600160a01b038916600090815260a4602052604090206148b3908686614358565b6001600160a01b03808a166000908152609f602090815260408083209387168352929052205486811115614916576148eb8782615afe565b6001600160a01b03808c166000908152609f6020908152604080832093891683529290522055614959565b6001600160a01b03808b166000818152609f60209081526040808320948916835293815283822082905591815260a0909152209096508690614959908585614358565b509498975050505050505050565b33600090815260a3602090815260408083206001600160a01b03891684529091528120548186821161499a5760006149a4565b6149a48783615afe565b90506000821180156149b4575080155b15614ab15733600081815260a3602090815260408083206001600160a01b038d168452825280832085905592825260a481528282208054845181840281018401909552808552929384939092830182828015614a3957602002820191906000526020600020905b81546001600160a01b03168152600190910190602001808311614a1b575b505050505090505b8051821015614a9457896001600160a01b0316818381518110614a6657614a66615b2e565b60200260200101516001600160a01b03161415614a8257614a94565b81614a8c81615b44565b925050614a41565b33600090815260a460205260409020614aae908b84614358565b50505b6000614ac1856125558c8a614b78565b9050614ad58a6113298761476d858b614c68565b9a9950505050505050505050565b6040516001600160a01b038316602482015260448101829052614b7390849063a9059cbb60e01b906064015b60408051601f198184030181529190526020810180517bffffffffffffffffffffffffffffffffffffffffffffffffffffffff167fffffffff0000000000000000000000000000000000000000000000000000000090931692909217909152615208565b505050565b604080516020808201835260008083526001600160a01b038681168252609e835290849020845160c081018652815460a08201908152815260018201548316818501526002909101549182168186015260ff600160a01b8304811660608301908152600160a81b9093048116151560808301528551938401909552858352905192939092601291161015614c2f57614814826060015160ff166012614c1d9190615afe565b614c2890600a615c43565b82906152ed565b6012826060015160ff16111561299f576148146012836060015160ff16614c569190615afe565b614c6190600a615c43565b8290615315565b604080516020810190915260008152604080516020810190915282518451829161434f919061533d565b604080516020810190915260008152604051806020016040528061434f8460000151614ccd6012600a614cc59190615c43565b885190615131565b90615349565b604080516020810190915260008152604080516020810190915282518451829161434f9190615355565b6000614d0882615361565b51835110905092915050565b604080516020810190915260008152614d2d6001615361565b905060005b82811015610a5857614d448285614310565b9150614d51816001615355565b9050614d32565b600054610100900460ff16614d735760005460ff1615614d77565b303b155b614dda5760405162461bcd60e51b815260206004820152602e60248201527f496e697469616c697a61626c653a20636f6e747261637420697320616c72656160448201526d191e481a5b9a5d1a585b1a5e995960921b6064820152608401610a1f565b600054610100900460ff16158015614dfc576000805461ffff19166101011790555b614e0461539b565b614e0c61541a565b8015613d8c576000805461ff001916905550565b6040516001600160a01b0380851660248301528316604482015260648101829052614e589085906323b872dd60e01b90608401614b0f565b50505050565b60008111614e9e5760405162461bcd60e51b815260206004820152600d60248201526c12d48e880c0b59195c1bdcda5d609a1b6044820152606401610a1f565b6001600160a01b038084166000908152609f602090815260408083209386168352929052205480614f08576001600160a01b03848116600090815260a0602090815260408220805460018101825590835291200180546001600160a01b0319169185169190911790555b6001600160a01b038085166000818152609f6020908152604080832094881680845294909152808220858701905551859392917ff1c0dd7e9b98bbff859029005ef89b127af049cd18df1a8d79f0b7e019911e5691a450505050565b60008311614fb45760405162461bcd60e51b815260206004820152600e60248201527f4b523a20302d77697468647261770000000000000000000000000000000000006044820152606401610a1f565b6000614fbf866126cd565b90506000614fcf868660006115a5565b5090506000614fdd886140fa565b9050614fed816139ce8585614c68565b6150395760405162461bcd60e51b815260206004820152601460248201527f4b523a20636f6c6c61746572616c546f6f4c6f770000000000000000000000006044820152606401610a1f565b6150438686615afe565b6001600160a01b03808a166000908152609f60209081526040808320938c168352929052205585851415615094576001600160a01b038816600090815260a060205260409020615094908886614358565b85876001600160a01b0316896001600160a01b03167f45892a46e6cef329bb642da6d69846d324db43d19008edc141ed82382eda1bee60405160405180910390a45050505050505050565b603480546001600160a01b0319166001600160a01b03838116918217909255603354604051919216907f23e1f881d1e797ea57a7247e53536f0bfc37c42e6645b3bdc4b1c9a0e0d8a13390600090a350565b6000611a1b8284615d23565b60006151556040518060200160405280600081525090565b6001600160a01b038086166000908152609f60209081526040808320938a16835292905290812054908061518b898460016115a5565b915091506151a56040518060200160405280600081525090565b60006151b389855190511090565b156151d0576151c68b6113298b86614c92565b90508891506151f9565b50506001600160a01b038816600090815260a060205260409020829084906151f9908c8a614358565b9a909950975050505050505050565b600061525d826040518060400160405280602081526020017f5361666545524332303a206c6f772d6c6576656c2063616c6c206661696c6564815250856001600160a01b03166155129092919063ffffffff16565b805190915015614b73578080602001905181019061527b9190615c5f565b614b735760405162461bcd60e51b815260206004820152602a60248201527f5361666545524332303a204552433230206f7065726174696f6e20646964206e60448201527f6f742073756363656564000000000000000000000000000000000000000000006064820152608401610a1f565b60408051602081019091526000815260408051602081019091528351819061434f9085615131565b60408051602081019091526000815260408051602081019091528351819061434f9085615349565b6000611a1b8284615afe565b6000611a1b8284615cd4565b6000611a1b8284615cbc565b60408051602081019091526000815260405180602001604052806153936012600a61538c9190615c43565b8590615131565b905292915050565b600054610100900460ff166154185760405162461bcd60e51b815260206004820152602b60248201527f496e697469616c697a61626c653a20636f6e7472616374206973206e6f74206960448201527f6e697469616c697a696e670000000000000000000000000000000000000000006064820152608401610a1f565b565b600054610100900460ff166154355760005460ff1615615439565b303b155b61549c5760405162461bcd60e51b815260206004820152602e60248201527f496e697469616c697a61626c653a20636f6e747261637420697320616c72656160448201526d191e481a5b9a5d1a585b1a5e995960921b6064820152608401610a1f565b600054610100900460ff161580156154be576000805461ffff19166101011790555b603380546001600160a01b031916339081179091556040516000907f8be0079c531659141344cd1fd0a4f28419497f9722a3daafe3b4186f6b6457e0908290a38015613d8c576000805461ff001916905550565b606061299f848460008585843b61556b5760405162461bcd60e51b815260206004820152601d60248201527f416464726573733a2063616c6c20746f206e6f6e2d636f6e74726163740000006044820152606401610a1f565b600080866001600160a01b031685876040516155879190615d6e565b60006040518083038185875af1925050503d80600081146155c4576040519150601f19603f3d011682016040523d82523d6000602084013e6155c9565b606091505b50915091506155d98282866155e4565b979650505050505050565b606083156155f3575081611a1b565b8251156156035782518084602001fd5b8160405162461bcd60e51b8152600401610a1f9190615d8a565b6001600160a01b0381168114613d8c57600080fd5b6000806040838503121561564557600080fd5b82356156508161561d565b946020939093013593505050565b6000806000806080858703121561567457600080fd5b843561567f8161561d565b9350602085013561568f8161561d565b93969395505050506040820135916060013590565b600080604083850312156156b757600080fd5b82356156c28161561d565b915060208301356156d28161561d565b809150509250929050565b6000602082840312156156ef57600080fd5b5035919050565b8015158114613d8c57600080fd5b600080600080600080600060e0888a03121561571f57600080fd5b873561572a8161561d565b9650602088013561573a8161561d565b95506040880135945060608801356157518161561d565b93506080880135925060a0880135915060c088013561576f816156f6565b8091505092959891949750929550565b634e487b7160e01b600052604160045260246000fd5b6000602082840312156157a757600080fd5b813567ffffffffffffffff808211156157bf57600080fd5b818401915084601f8301126157d357600080fd5b8135818111156157e5576157e561577f565b604051601f8201601f19908116603f0116810190838211818310171561580d5761580d61577f565b8160405282815287602084870101111561582657600080fd5b826020860160208301376000928101602001929092525095945050505050565b60008060006060848603121561585b57600080fd5b83356158668161561d565b925060208401359150604084013561587d816156f6565b809150509250925092565b60006020828403121561589a57600080fd5b8135611a1b8161561d565b60008060008060008060a087890312156158be57600080fd5b86356158c98161561d565b9550602087013567ffffffffffffffff808211156158e657600080fd5b818901915089601f8301126158fa57600080fd5b81358181111561590957600080fd5b8a602082850101111561591b57600080fd5b60208301975080965050505060408701359250606087013561593c8161561d565b80925050608087013590509295509295509295565b6020808252825182820181905260009190848201906040850190845b818110156159925783516001600160a01b03168352928401929184019160010161596d565b50909695505050505050565b6000806000606084860312156159b357600080fd5b83356159be8161561d565b925060208401356159ce8161561d565b9150604084013561587d8161561d565b600080600080600060a086880312156159f657600080fd5b853594506020860135615a088161561d565b94979496505050506040830135926060810135926080909101359150565b60008060008060808587031215615a3c57600080fd5b8435615a478161561d565b9350602085013592506040850135615a5e8161561d565b91506060850135615a6e816156f6565b939692955090935050565b600080600060608486031215615a8e57600080fd5b8335615a998161561d565b92506020840135615aa98161561d565b929592945050506040919091013590565b60008060408385031215615acd57600080fd5b8235615ad88161561d565b915060208301356156d2816156f6565b634e487b7160e01b600052601160045260246000fd5b600082821015615b1057615b10615ae8565b500390565b600060208284031215615b2757600080fd5b5051919050565b634e487b7160e01b600052603260045260246000fd5b6000600019821415615b5857615b58615ae8565b5060010190565b600181815b80851115615b9a578160001904821115615b8057615b80615ae8565b80851615615b8d57918102915b93841c9390800290615b64565b509250929050565b600082615bb1575060016114c1565b81615bbe575060006114c1565b8160018114615bd45760028114615bde57615bfa565b60019150506114c1565b60ff841115615bef57615bef615ae8565b50506001821b6114c1565b5060208310610133831016604e8410600b8410161715615c1d575081810a6114c1565b615c278383615b5f565b8060001904821115615c3b57615c3b615ae8565b029392505050565b6000611a1b8383615ba2565b8183823760009101908152919050565b600060208284031215615c7157600080fd5b8151611a1b816156f6565b600060208284031215615c8e57600080fd5b8151611a1b8161561d565b600060208284031215615cab57600080fd5b815160ff81168114611a1b57600080fd5b60008219821115615ccf57615ccf615ae8565b500190565b600082615cf157634e487b7160e01b600052601260045260246000fd5b500490565b634e487b7160e01b600052603160045260246000fd5b600081615d1b57615d1b615ae8565b506000190190565b6000816000190483118215151615615d3d57615d3d615ae8565b500290565b60005b83811015615d5d578181015183820152602001615d45565b83811115614e585750506000910152565b60008251615d80818460208701615d42565b9190910192915050565b6020815260008251806020840152615da9816040850160208701615d42565b601f01601f1916919091016040019291505056fe4f776e61626c653a2063616c6c6572206973206e6f7420746865206f776e6572a164736f6c634300080a000a",
    "devdoc": {
        "events": {
            "BurnFeePaid(address,address,uint256,uint256)": {
                "details": "This can be emitted multiple times for a single Kresko asset burn.",
                "params": {
                    "account": "The address of the account burning the Kresko asset.",
                    "paymentAmount": "The amount of the payment collateral asset that was paid.",
                    "paymentCollateralAsset": "The address of the collateral asset used to pay the burn fee.",
                    "paymentValue": "The USD value of the payment."
                }
            },
            "BurnFeeUpdated(uint256)": {
                "params": {
                    "burnFee": "The new burn fee raw value."
                }
            },
            "CollateralAssetAdded(address,uint256,address)": {
                "details": "Can only be emitted once for a given collateral asset.",
                "params": {
                    "collateralAsset": "The address of the collateral asset.",
                    "factor": "The collateral factor.",
                    "oracle": "The address of the oracle."
                }
            },
            "CollateralAssetFactorUpdated(address,uint256)": {
                "params": {
                    "collateralAsset": "The address of the collateral asset.",
                    "factor": "The collateral factor."
                }
            },
            "CollateralAssetOracleUpdated(address,address)": {
                "params": {
                    "collateralAsset": "The address of the collateral asset.",
                    "oracle": "The address of the oracle."
                }
            },
            "CollateralDeposited(address,address,uint256)": {
                "params": {
                    "account": "The address of the account depositing collateral.",
                    "amount": "The amount of the collateral asset that was deposited.",
                    "collateralAsset": "The address of the collateral asset."
                }
            },
            "CollateralWithdrawn(address,address,uint256)": {
                "params": {
                    "account": "The address of the account withdrawing collateral.",
                    "amount": "The amount of the collateral asset that was withdrawn.",
                    "collateralAsset": "The address of the collateral asset."
                }
            },
            "FeeRecipientUpdated(address)": {
                "params": {
                    "feeRecipient": "The new fee recipient."
                }
            },
            "KreskoAssetAdded(address,string,uint256,address,uint256)": {
                "details": "Can only be emitted once for a given Kresko asset.",
                "params": {
                    "kFactor": "The k-factor.",
                    "kreskoAsset": "The address of the Kresko asset.",
                    "marketCapLimit": "The initial market capitalization USD limit.",
                    "oracle": "The address of the oracle.",
                    "symbol": "The symbol of the Kresko asset."
                }
            },
            "KreskoAssetBurned(address,address,uint256)": {
                "params": {
                    "account": "The address of the account burning the Kresko asset.",
                    "amount": "The amount of the Kresko asset that was burned.",
                    "kreskoAsset": "The address of the Kresko asset."
                }
            },
            "KreskoAssetKFactorUpdated(address,uint256)": {
                "params": {
                    "kFactor": "The k-factor.",
                    "kreskoAsset": "The address of the Kresko asset."
                }
            },
            "KreskoAssetMarketCapLimitUpdated(address,uint256)": {
                "params": {
                    "kreskoAsset": "The address of the Kresko asset.",
                    "limit": "The market capitalization USD limit."
                }
            },
            "KreskoAssetMintableUpdated(address,bool)": {
                "params": {
                    "kreskoAsset": "The address of the Kresko asset.",
                    "mintable": "The mintable value."
                }
            },
            "KreskoAssetMinted(address,address,uint256)": {
                "params": {
                    "account": "The address of the account minting the Kresko asset.",
                    "amount": "The amount of the Kresko asset that was minted.",
                    "kreskoAsset": "The address of the Kresko asset."
                }
            },
            "KreskoAssetOracleUpdated(address,address)": {
                "params": {
                    "kreskoAsset": "The address of the Kresko asset.",
                    "oracle": "The address of the oracle."
                }
            },
            "LiquidationIncentiveMultiplierUpdated(uint256)": {
                "params": {
                    "liquidationIncentiveMultiplier": "The new liquidation incentive multiplier raw value."
                }
            },
            "LiquidationOccurred(address,address,address,uint256,address,uint256)": {
                "params": {
                    "account": "The address of the account being liquidated.",
                    "collateralSent": "The amount of the seized collateral asset being seized from the account by the liquidator.",
                    "liquidator": "The account performing the liquidation.",
                    "repayAmount": "The amount of the repay Kresko asset being paid back to the protocol by the liquidator.",
                    "repayKreskoAsset": "The address of the Kresko asset being paid back to the protocol by the liquidator.",
                    "seizedCollateralAsset": "The address of the collateral asset being seized from the account by the liquidator."
                }
            },
            "MinimumCollateralizationRatioUpdated(uint256)": {
                "params": {
                    "minimumCollateralizationRatio": "The new minimum collateralization ratio raw value."
                }
            },
            "MinimumDebtValueUpdated(uint256)": {
                "params": {
                    "minimumDebtValue": "The new minimum debt value."
                }
            },
            "TrustedContract(address,bool)": {
                "params": {
                    "contractAddress": "A trusted contract (eg. Kresko Zapper).",
                    "isTrusted": "true if the contract was added, false if removed"
                }
            }
        },
        "kind": "dev",
        "methods": {
            "addCollateralAsset(address,uint256,address,bool)": {
                "details": "Only callable by the owner and cannot be called more than once for an asset.",
                "params": {
                    "_collateralAsset": "The address of the collateral asset.",
                    "_factor": "The collateral factor of the collateral asset as a raw value for a FixedPoint.Unsigned. Must be <= 1e18.",
                    "_oracle": "The oracle address for the collateral asset's USD value."
                }
            },
            "addKreskoAsset(address,string,uint256,address,uint256)": {
                "details": "Only callable by the owner and cannot be called more than once for a given symbol.",
                "params": {
                    "_kFactor": "The k-factor of the Kresko asset as a raw value for a FixedPoint.Unsigned. Must be >= 1e18.",
                    "_kreskoAsset": "The address of the Kresko asset.",
                    "_marketCapUSDLimit": "The initial market capitalization USD limit for the Kresko asset.",
                    "_oracle": "The oracle address for the Kresko asset.",
                    "_symbol": "The symbol of the Kresko asset."
                }
            },
            "burnKreskoAsset(address,address,uint256,uint256)": {
                "params": {
                    "_account": "The address to burn kresko assets for",
                    "_amount": "The amount of the Kresko asset to be burned.",
                    "_kreskoAsset": "The address of the Kresko asset.",
                    "_mintedKreskoAssetIndex": "The index of the collateral asset in the user's minted assets array."
                }
            },
            "calculateMaxLiquidatableValueForAssets(address,address,address)": {
                "details": "Calculates the total value that can be liquidated for a liquidation pair",
                "params": {
                    "_account": "address to liquidate",
                    "_collateralAssetToSeize": "address of the collateral asset being seized from the liquidatee",
                    "_repayKreskoAsset": "address of the kreskoAsset being repaid on behalf of the liquidatee"
                },
                "returns": {
                    "maxLiquidatableUSD": "USD value that can be liquidated, 0 if the pair has no liquidatable value"
                }
            },
            "constructor": {
                "details": "Protects against a call to initialize when this contract is called directly without a proxy."
            },
            "depositCollateral(address,address,uint256)": {
                "params": {
                    "_account": "The user to deposit collateral for.",
                    "_amount": "The amount of the collateral asset to deposit.",
                    "_collateralAsset": "The address of the collateral asset."
                }
            },
            "depositRebasingCollateral(address,address,uint256)": {
                "params": {
                    "_account": "The user to deposit collateral for.",
                    "_collateralAsset": "The address of the NonRebasingWrapperToken collateral asset.",
                    "_rebasingAmount": "The amount of the underlying rebasing token to deposit."
                }
            },
            "getAccountCollateralValue(address)": {
                "details": "O(# of different deposited collateral assets by account) complexity.",
                "params": {
                    "_account": "The account to calculate the collateral value for."
                },
                "returns": {
                    "_0": "The collateral value of a particular account."
                }
            },
            "getAccountKrAssetValue(address)": {
                "params": {
                    "_account": "The account to calculate the Kresko asset value for."
                },
                "returns": {
                    "_0": "The Kresko asset value of a particular account."
                }
            },
            "getAccountMinimumCollateralValue(address)": {
                "details": "Accounts that have their collateral value under the minimum collateral value are considered unhealthy and therefore to avoid liquidations users should maintain a collateral value higher than the value returned.",
                "params": {
                    "_account": "The account to calculate the minimum collateral value for."
                },
                "returns": {
                    "_0": "The minimum collateral value of a particular account."
                }
            },
            "getCollateralValueAndOraclePrice(address,uint256,bool)": {
                "params": {
                    "_amount": "The amount of the collateral asset to calculate the collateral value for.",
                    "_collateralAsset": "The address of the collateral asset.",
                    "_ignoreCollateralFactor": "Boolean indicating if the asset's collateral factor should be ignored."
                },
                "returns": {
                    "_0": "The collateral value for the provided amount of the collateral asset."
                }
            },
            "getDepositedCollateralAssetIndex(address,address)": {
                "params": {
                    "_account": "The account to get the index for.",
                    "_collateralAsset": "The asset lookup address."
                },
                "returns": {
                    "i": "= index of the minted collateral asset."
                }
            },
            "getDepositedCollateralAssets(address)": {
                "params": {
                    "_account": "The account to get the deposited collateral assets for."
                },
                "returns": {
                    "_0": "An array of addresses of collateral assets the account has deposited."
                }
            },
            "getKrAssetValue(address,uint256,bool)": {
                "params": {
                    "_amount": "The amount of the Kresko asset to calculate the value for.",
                    "_ignoreKFactor": "Boolean indicating if the asset's k-factor should be ignored.",
                    "_kreskoAsset": "The address of the Kresko asset."
                },
                "returns": {
                    "_0": "The value for the provided amount of the Kresko asset."
                }
            },
            "getMinimumCollateralValue(address,uint256)": {
                "params": {
                    "_amount": "The Kresko Asset debt amount.",
                    "_krAsset": "The address of the Kresko asset."
                },
                "returns": {
                    "minCollateralValue": "is the minimum collateral value required for this Kresko Asset amount."
                }
            },
            "getMintedKreskoAssets(address)": {
                "params": {
                    "_account": "The account to get the minted Kresko assets for."
                },
                "returns": {
                    "_0": "An array of addresses of Kresko assets the account has minted."
                }
            },
            "getMintedKreskoAssetsIndex(address,address)": {
                "params": {
                    "_account": "The account to get the minted Kresko assets for.",
                    "_kreskoAsset": "The asset lookup address."
                },
                "returns": {
                    "i": "= index of the minted Kresko asset."
                }
            },
            "initialize(uint256,address,uint256,uint256,uint256)": {
                "params": {
                    "_burnFee": "Initial burn fee as a raw value for a FixedPoint.Unsigned.",
                    "_feeRecipient": "Initial fee recipient.",
                    "_liquidationIncentiveMultiplier": "Initial liquidation incentive multiplier.",
                    "_minimumCollateralizationRatio": "Initial collateralization ratio as a raw value for a FixedPoint.Unsigned.",
                    "_minimumDebtValue": "Initial minimum debt value denominated in USD."
                }
            },
            "isAccountLiquidatable(address)": {
                "details": "Returns true if the account's current collateral value is below the minimum collateral value required to consider the position healthy.",
                "params": {
                    "_account": "The account to check."
                },
                "returns": {
                    "_0": "A boolean indicating if the account can be liquidated."
                }
            },
            "liquidate(address,address,uint256,address,uint256,uint256,bool)": {
                "params": {
                    "_account": "The account to attempt to liquidate.",
                    "_collateralAssetToSeize": "The address of the collateral asset to be seized.",
                    "_depositedCollateralAssetIndex": "Index of the collateral asset in the account's collateral assets array.",
                    "_keepKrAssetDebt": "Liquidator can choose to receive the whole seized amount keeping the krAsset debt. Setting _keepKrAssetDebt to false will instead only send the incentive and repay krAsset debt.",
                    "_mintedKreskoAssetIndex": "The index of the Kresko asset in the account's minted assets array.",
                    "_repayAmount": "The amount of the Kresko asset to be repaid.",
                    "_repayKreskoAsset": "The address of the Kresko asset to be repaid."
                }
            },
            "mintKreskoAsset(address,address,uint256)": {
                "params": {
                    "_account": "The address to mint assets for.",
                    "_amount": "The amount of the Kresko asset to be minted.",
                    "_kreskoAsset": "The address of the Kresko asset."
                }
            },
            "owner()": {
                "details": "Returns the address of the current owner."
            },
            "pendingOwner()": {
                "details": "Returns the address of the pending owner."
            },
            "toggleTrustedContract(address)": {
                "params": {
                    "_trustedContract": "Contract to toggle the trusted status for."
                }
            },
            "transferOwnership(address)": {
                "details": "Transfers ownership of the contract to a new account (`newOwner`). Can only be called by the current owner."
            },
            "updateBurnFee(uint256)": {
                "params": {
                    "_burnFee": "The new burn fee as a raw value for a FixedPoint.Unsigned."
                }
            },
            "updateCollateralAssetOracle(address,address)": {
                "details": "Only callable by the owner.",
                "params": {
                    "_collateralAsset": "The address of the collateral asset.",
                    "_oracle": "The new oracle address for the collateral asset."
                }
            },
            "updateCollateralFactor(address,uint256)": {
                "details": "Only callable by the owner.",
                "params": {
                    "_collateralAsset": "The address of the collateral asset.",
                    "_factor": "The new collateral factor as a raw value for a FixedPoint.Unsigned. Must be <= 1e18."
                }
            },
            "updateFeeRecipient(address)": {
                "params": {
                    "_feeRecipient": "The new fee recipient."
                }
            },
            "updateKreskoAssetFactor(address,uint256)": {
                "details": "Only callable by the owner.",
                "params": {
                    "_kFactor": "The new k-factor as a raw value for a FixedPoint.Unsigned. Must be >= 1e18.",
                    "_kreskoAsset": "The address of the Kresko asset."
                }
            },
            "updateKreskoAssetMarketCapUSDLimit(address,uint256)": {
                "details": "Updates the market capitalization USD limit property of a previously added Kresko asset.Only callable by the owner.",
                "params": {
                    "_kreskoAsset": "The address of the Kresko asset.",
                    "_marketCapUSDLimit": "The new market capitalization USD limit."
                }
            },
            "updateKreskoAssetMintable(address,bool)": {
                "details": "Updates the mintable property of a previously added Kresko asset.Only callable by the owner.",
                "params": {
                    "_kreskoAsset": "The address of the Kresko asset.",
                    "_mintable": "The new mintable value."
                }
            },
            "updateKreskoAssetOracle(address,address)": {
                "details": "Updates the oracle address of a previously added Kresko asset.Only callable by the owner.",
                "params": {
                    "_kreskoAsset": "The address of the Kresko asset.",
                    "_oracle": "The new oracle address for the Kresko asset's USD value."
                }
            },
            "updateLiquidationIncentiveMultiplier(uint256)": {
                "params": {
                    "_liquidationIncentiveMultiplier": "The new liquidation incentive multiplie."
                }
            },
            "updateMinimumCollateralizationRatio(uint256)": {
                "details": "Updates the contract's collateralization ratio.",
                "params": {
                    "_minimumCollateralizationRatio": "The new minimum collateralization ratio as a raw value for a FixedPoint.Unsigned."
                }
            },
            "updateMinimumDebtValue(uint256)": {
                "details": "Updates the contract's minimum debt value.",
                "params": {
                    "_minimumDebtValue": "The new minimum debt value as a raw value for a FixedPoint.Unsigned."
                }
            },
            "withdrawCollateral(address,address,uint256,uint256)": {
                "details": "Requires the post-withdrawal collateral value to violate minimum collateral requirement.",
                "params": {
                    "_account": "The address to withdraw assets for.",
                    "_amount": "The amount of the collateral asset to withdraw.",
                    "_collateralAsset": "The address of the collateral asset.",
                    "_depositedCollateralAssetIndex": "The index of the collateral asset in the sender's deposited collateral assets array. Only needed if withdrawing the entire deposit of a particular collateral asset."
                }
            },
            "withdrawRebasingCollateral(address,address,uint256,uint256)": {
                "params": {
                    "_account": "The address to withdraw assets for.",
                    "_amount": "The amount of the NonRebasingWrapperToken collateral asset to withdraw.",
                    "_collateralAsset": "The address of the NonRebasingWrapperToken collateral asset.",
                    "_depositedCollateralAssetIndex": "The index of the collateral asset in the sender's deposited collateral assets array. Only needed if withdrawing the entire deposit of a particular collateral asset."
                }
            }
        },
        "stateVariables": {
            "collateralDeposits": {
                "details": "Collateral assets must not rebase."
            }
        },
        "title": "The core of the Kresko protocol.",
        "version": 1
    },
    "userdoc": {
        "events": {
            "BurnFeePaid(address,address,uint256,uint256)": {
                "notice": "Emitted when an account pays a burn fee with a collateral asset upon burning a Kresko asset."
            },
            "BurnFeeUpdated(uint256)": {
                "notice": "Emitted when the burn fee is updated."
            },
            "CollateralAssetAdded(address,uint256,address)": {
                "notice": "Emitted when a collateral asset is added to the protocol."
            },
            "CollateralAssetFactorUpdated(address,uint256)": {
                "notice": "Emitted when a collateral asset's collateral factor is updated."
            },
            "CollateralAssetOracleUpdated(address,address)": {
                "notice": "Emitted when a collateral asset's oracle is updated."
            },
            "CollateralDeposited(address,address,uint256)": {
                "notice": "Emitted when an account deposits collateral."
            },
            "CollateralWithdrawn(address,address,uint256)": {
                "notice": "Emitted when an account withdraws collateral."
            },
            "FeeRecipientUpdated(address)": {
                "notice": "Emitted when the fee recipient is updated."
            },
            "KreskoAssetAdded(address,string,uint256,address,uint256)": {
                "notice": "Emitted when a Kresko asset is added to the protocol."
            },
            "KreskoAssetBurned(address,address,uint256)": {
                "notice": "Emitted when an account burns a Kresko asset."
            },
            "KreskoAssetKFactorUpdated(address,uint256)": {
                "notice": "Emitted when a Kresko asset's k-factor is updated."
            },
            "KreskoAssetMarketCapLimitUpdated(address,uint256)": {
                "notice": "Emitted when a Kresko asset's market capitalization USD limit is updated."
            },
            "KreskoAssetMintableUpdated(address,bool)": {
                "notice": "Emitted when a Kresko asset's mintable property is updated."
            },
            "KreskoAssetMinted(address,address,uint256)": {
                "notice": "Emitted when an account mints a Kresko asset."
            },
            "KreskoAssetOracleUpdated(address,address)": {
                "notice": "Emitted when a Kresko asset's oracle is updated."
            },
            "LiquidationIncentiveMultiplierUpdated(uint256)": {
                "notice": "Emitted when the liquidation incentive multiplier is updated."
            },
            "LiquidationOccurred(address,address,address,uint256,address,uint256)": {
                "notice": "Emitted when a liquidation occurs."
            },
            "MinimumCollateralizationRatioUpdated(uint256)": {
                "notice": "Emitted when the minimum collateralization ratio is updated."
            },
            "MinimumDebtValueUpdated(uint256)": {
                "notice": "Emitted when the minimum debt value updated."
            },
            "TrustedContract(address,bool)": {
                "notice": "Emitted when the a trusted contract is added/removed."
            }
        },
        "kind": "user",
        "methods": {
            "MAX_BURN_FEE()": {
                "notice": "The maximum configurable burn fee."
            },
            "MAX_DEBT_VALUE()": {
                "notice": "The maximum configurable minimum debt USD value."
            },
            "MAX_LIQUIDATION_INCENTIVE_MULTIPLIER()": {
                "notice": "The maximum configurable liquidation incentive multiplier. This means liquidator receives 25% bonus collateral compared to the debt repaid."
            },
            "MIN_COLLATERALIZATION_RATIO()": {
                "notice": "The minimum configurable minimum collateralization ratio."
            },
            "MIN_LIQUIDATION_INCENTIVE_MULTIPLIER()": {
                "notice": "The minimum configurable liquidation incentive multiplier. This means liquidator only receives equal amount of collateral to debt repaid."
            },
            "ONE_HUNDRED_PERCENT()": {
                "notice": "================================================== =================== Constants ==================== =================================================="
            },
            "addCollateralAsset(address,uint256,address,bool)": {
                "notice": "Adds a collateral asset to the protocol."
            },
            "addKreskoAsset(address,string,uint256,address,uint256)": {
                "notice": "Adds a Kresko asset to the protocol."
            },
            "burnFee()": {
                "notice": "The percent fee imposed upon the value of burned krAssets, taken as collateral and sent to feeRecipient."
            },
            "burnKreskoAsset(address,address,uint256,uint256)": {
                "notice": "Burns existing Kresko assets.Only needed if withdrawing the entire deposit of a particular collateral asset."
            },
            "claimOwnership()": {
                "notice": "Needs to be called by pending owner to claim ownership."
            },
            "collateralAssets(address)": {
                "notice": "Mapping of collateral asset token address to information on the collateral asset."
            },
            "collateralDeposits(address,address)": {
                "notice": "Mapping of account address to a mapping of collateral asset token address to the amount of the collateral asset the account has deposited."
            },
            "collateralExists(address)": {
                "notice": "Returns true if the @param _collateralAsset exists in the protocol"
            },
            "constructor": {
                "notice": "Empty constructor, see `initialize`."
            },
            "depositCollateral(address,address,uint256)": {
                "notice": "Deposits collateral into the protocol."
            },
            "depositRebasingCollateral(address,address,uint256)": {
                "notice": "Deposits a rebasing collateral into the protocol by wrapping the underlying rebasing token."
            },
            "depositedCollateralAssets(address,uint256)": {
                "notice": "Mapping of account address to an array of the addresses of each collateral asset the account has deposited."
            },
            "feeRecipient()": {
                "notice": "The recipient of burn fees."
            },
            "getAccountCollateralValue(address)": {
                "notice": "Gets the collateral value of a particular account."
            },
            "getAccountKrAssetValue(address)": {
                "notice": "Gets the Kresko asset value in USD of a particular account."
            },
            "getAccountMinimumCollateralValue(address)": {
                "notice": "Gets an account's minimum collateral value for its Kresko Asset debts."
            },
            "getCollateralValueAndOraclePrice(address,uint256,bool)": {
                "notice": "Gets the collateral value for a single collateral asset and amount."
            },
            "getDepositedCollateralAssetIndex(address,address)": {
                "notice": "Gets an index for the collateral asset the account has deposited."
            },
            "getDepositedCollateralAssets(address)": {
                "notice": "Gets an array of collateral assets the account has deposited."
            },
            "getKrAssetValue(address,uint256,bool)": {
                "notice": "Gets the USD value for a single Kresko asset and amount."
            },
            "getMinimumCollateralValue(address,uint256)": {
                "notice": "Get the minimum collateral value required to keep a individual debt position healthy."
            },
            "getMintedKreskoAssets(address)": {
                "notice": "Gets an array of Kresko assets the account has minted."
            },
            "getMintedKreskoAssetsIndex(address,address)": {
                "notice": "Gets an index for the Kresko asset the account has minted."
            },
            "initialize(uint256,address,uint256,uint256,uint256)": {
                "notice": "Initializes the core Kresko protocol."
            },
            "isAccountLiquidatable(address)": {
                "notice": "Calculates if an account's current collateral value is under its minimum collateral value"
            },
            "krAssetExists(address)": {
                "notice": "Returns true if the @param _krAsset exists in the protocol"
            },
            "kreskoAssetDebt(address,address)": {
                "notice": "Mapping of account address to a mapping of Kresko asset token address to the amount of the Kresko asset the account has minted and therefore owes to the protocol."
            },
            "kreskoAssetSymbols(string)": {
                "notice": "Mapping of Kresko asset symbols to whether the symbol is used by an existing Kresko asset."
            },
            "kreskoAssets(address)": {
                "notice": "Mapping of Kresko asset token address to information on the Kresko asset."
            },
            "liquidate(address,address,uint256,address,uint256,uint256,bool)": {
                "notice": "Attempts to liquidate an account by repaying the portion of the account's Kresko asset         debt, receiving in return a portion of the account's collateral at a discounted rate."
            },
            "liquidationIncentiveMultiplier()": {
                "notice": "The factor used to calculate the incentive a liquidator receives in the form of seized collateral."
            },
            "minimumCollateralizationRatio()": {
                "notice": "The absolute minimum ratio of collateral value to debt value that is used to calculate collateral requirements."
            },
            "minimumDebtValue()": {
                "notice": "The minimum USD value of an individual synthetic asset debt position."
            },
            "mintKreskoAsset(address,address,uint256)": {
                "notice": "Mints new Kresko assets."
            },
            "mintedKreskoAssets(address,uint256)": {
                "notice": "Mapping of account address to an array of the addresses of each Kresko asset the account has minted."
            },
            "toggleTrustedContract(address)": {
                "notice": "Toggles a trusted contract to perform actions on behalf of user (eg. Kresko Zapper)."
            },
            "trustedContracts(address)": {
                "notice": "================================================== ===================== State ====================== =================================================="
            },
            "updateBurnFee(uint256)": {
                "notice": "Updates the burn fee."
            },
            "updateCollateralAssetOracle(address,address)": {
                "notice": "Updates the oracle address of a previously added collateral asset."
            },
            "updateCollateralFactor(address,uint256)": {
                "notice": "Updates the collateral factor of a previously added collateral asset."
            },
            "updateFeeRecipient(address)": {
                "notice": "Updates the fee recipient."
            },
            "updateKreskoAssetFactor(address,uint256)": {
                "notice": "Updates the k-factor of a previously added Kresko asset."
            },
            "updateLiquidationIncentiveMultiplier(uint256)": {
                "notice": "Updates the liquidation incentive multiplier."
            },
            "withdrawCollateral(address,address,uint256,uint256)": {
                "notice": "Withdraws sender's collateral from the protocol."
            },
            "withdrawRebasingCollateral(address,address,uint256,uint256)": {
                "notice": "Withdraws NonRebasingWrapperToken collateral from the protocol and unwraps it."
            }
        },
        "notice": "Responsible for managing collateral and minting / burning overcollateralized synthetic assets called Kresko assets. Management of critical features such as adding new collateral assets / Kresko assets and updating protocol constants such as the burn fee minimum collateralization ratio, and liquidation incentive is restricted to the contract owner.",
        "version": 1
    },
    "storageLayout": {
        "storage": [
            {
                "astId": 597,
                "contract": "src/contracts/Kresko.sol:Kresko",
                "label": "_initialized",
                "offset": 0,
                "slot": "0",
                "type": "t_bool"
            },
            {
                "astId": 600,
                "contract": "src/contracts/Kresko.sol:Kresko",
                "label": "_initializing",
                "offset": 1,
                "slot": "0",
                "type": "t_bool"
            },
            {
                "astId": 1910,
                "contract": "src/contracts/Kresko.sol:Kresko",
                "label": "__gap",
                "offset": 0,
                "slot": "1",
                "type": "t_array(t_uint256)50_storage"
            },
            {
                "astId": 27372,
                "contract": "src/contracts/Kresko.sol:Kresko",
                "label": "_owner",
                "offset": 0,
                "slot": "51",
                "type": "t_address"
            },
            {
                "astId": 27374,
                "contract": "src/contracts/Kresko.sol:Kresko",
                "label": "_pendingOwner",
                "offset": 0,
                "slot": "52",
                "type": "t_address"
            },
            {
                "astId": 27521,
                "contract": "src/contracts/Kresko.sol:Kresko",
                "label": "__gap",
                "offset": 0,
                "slot": "53",
                "type": "t_array(t_uint256)49_storage"
            },
            {
                "astId": 678,
                "contract": "src/contracts/Kresko.sol:Kresko",
                "label": "_status",
                "offset": 0,
                "slot": "102",
                "type": "t_uint256"
            },
            {
                "astId": 721,
                "contract": "src/contracts/Kresko.sol:Kresko",
                "label": "__gap",
                "offset": 0,
                "slot": "103",
                "type": "t_array(t_uint256)49_storage"
            },
            {
                "astId": 16984,
                "contract": "src/contracts/Kresko.sol:Kresko",
                "label": "trustedContracts",
                "offset": 0,
                "slot": "152",
                "type": "t_mapping(t_address,t_bool)"
            },
            {
                "astId": 16988,
                "contract": "src/contracts/Kresko.sol:Kresko",
                "label": "burnFee",
                "offset": 0,
                "slot": "153",
                "type": "t_struct(Unsigned)22894_storage"
            },
            {
                "astId": 16991,
                "contract": "src/contracts/Kresko.sol:Kresko",
                "label": "feeRecipient",
                "offset": 0,
                "slot": "154",
                "type": "t_address"
            },
            {
                "astId": 16995,
                "contract": "src/contracts/Kresko.sol:Kresko",
                "label": "liquidationIncentiveMultiplier",
                "offset": 0,
                "slot": "155",
                "type": "t_struct(Unsigned)22894_storage"
            },
            {
                "astId": 16999,
                "contract": "src/contracts/Kresko.sol:Kresko",
                "label": "minimumCollateralizationRatio",
                "offset": 0,
                "slot": "156",
                "type": "t_struct(Unsigned)22894_storage"
            },
            {
                "astId": 17003,
                "contract": "src/contracts/Kresko.sol:Kresko",
                "label": "minimumDebtValue",
                "offset": 0,
                "slot": "157",
                "type": "t_struct(Unsigned)22894_storage"
            },
            {
                "astId": 17009,
                "contract": "src/contracts/Kresko.sol:Kresko",
                "label": "collateralAssets",
                "offset": 0,
                "slot": "158",
                "type": "t_mapping(t_address,t_struct(CollateralAsset)16942_storage)"
            },
            {
                "astId": 17016,
                "contract": "src/contracts/Kresko.sol:Kresko",
                "label": "collateralDeposits",
                "offset": 0,
                "slot": "159",
                "type": "t_mapping(t_address,t_mapping(t_address,t_uint256))"
            },
            {
                "astId": 17022,
                "contract": "src/contracts/Kresko.sol:Kresko",
                "label": "depositedCollateralAssets",
                "offset": 0,
                "slot": "160",
                "type": "t_mapping(t_address,t_array(t_address)dyn_storage)"
            },
            {
                "astId": 17028,
                "contract": "src/contracts/Kresko.sol:Kresko",
                "label": "kreskoAssets",
                "offset": 0,
                "slot": "161",
                "type": "t_mapping(t_address,t_struct(KrAsset)16955_storage)"
            },
            {
                "astId": 17033,
                "contract": "src/contracts/Kresko.sol:Kresko",
                "label": "kreskoAssetSymbols",
                "offset": 0,
                "slot": "162",
                "type": "t_mapping(t_string_memory_ptr,t_bool)"
            },
            {
                "astId": 17040,
                "contract": "src/contracts/Kresko.sol:Kresko",
                "label": "kreskoAssetDebt",
                "offset": 0,
                "slot": "163",
                "type": "t_mapping(t_address,t_mapping(t_address,t_uint256))"
            },
            {
                "astId": 17046,
                "contract": "src/contracts/Kresko.sol:Kresko",
                "label": "mintedKreskoAssets",
                "offset": 0,
                "slot": "164",
                "type": "t_mapping(t_address,t_array(t_address)dyn_storage)"
            }
        ],
        "types": {
            "t_address": {
                "encoding": "inplace",
                "label": "address",
                "numberOfBytes": "20"
            },
            "t_array(t_address)dyn_storage": {
                "base": "t_address",
                "encoding": "dynamic_array",
                "label": "address[]",
                "numberOfBytes": "32"
            },
            "t_array(t_uint256)49_storage": {
                "base": "t_uint256",
                "encoding": "inplace",
                "label": "uint256[49]",
                "numberOfBytes": "1568"
            },
            "t_array(t_uint256)50_storage": {
                "base": "t_uint256",
                "encoding": "inplace",
                "label": "uint256[50]",
                "numberOfBytes": "1600"
            },
            "t_bool": {
                "encoding": "inplace",
                "label": "bool",
                "numberOfBytes": "1"
            },
            "t_contract(AggregatorV2V3Interface)22350": {
                "encoding": "inplace",
                "label": "contract AggregatorV2V3Interface",
                "numberOfBytes": "20"
            },
            "t_mapping(t_address,t_array(t_address)dyn_storage)": {
                "encoding": "mapping",
                "key": "t_address",
                "label": "mapping(address => address[])",
                "numberOfBytes": "32",
                "value": "t_array(t_address)dyn_storage"
            },
            "t_mapping(t_address,t_bool)": {
                "encoding": "mapping",
                "key": "t_address",
                "label": "mapping(address => bool)",
                "numberOfBytes": "32",
                "value": "t_bool"
            },
            "t_mapping(t_address,t_mapping(t_address,t_uint256))": {
                "encoding": "mapping",
                "key": "t_address",
                "label": "mapping(address => mapping(address => uint256))",
                "numberOfBytes": "32",
                "value": "t_mapping(t_address,t_uint256)"
            },
            "t_mapping(t_address,t_struct(CollateralAsset)16942_storage)": {
                "encoding": "mapping",
                "key": "t_address",
                "label": "mapping(address => struct Kresko.CollateralAsset)",
                "numberOfBytes": "32",
                "value": "t_struct(CollateralAsset)16942_storage"
            },
            "t_mapping(t_address,t_struct(KrAsset)16955_storage)": {
                "encoding": "mapping",
                "key": "t_address",
                "label": "mapping(address => struct Kresko.KrAsset)",
                "numberOfBytes": "32",
                "value": "t_struct(KrAsset)16955_storage"
            },
            "t_mapping(t_address,t_uint256)": {
                "encoding": "mapping",
                "key": "t_address",
                "label": "mapping(address => uint256)",
                "numberOfBytes": "32",
                "value": "t_uint256"
            },
            "t_mapping(t_string_memory_ptr,t_bool)": {
                "encoding": "mapping",
                "key": "t_string_memory_ptr",
                "label": "mapping(string => bool)",
                "numberOfBytes": "32",
                "value": "t_bool"
            },
            "t_string_memory_ptr": {
                "encoding": "bytes",
                "label": "string",
                "numberOfBytes": "32"
            },
            "t_struct(CollateralAsset)16942_storage": {
                "encoding": "inplace",
                "label": "struct Kresko.CollateralAsset",
                "members": [
                    {
                        "astId": 16932,
                        "contract": "src/contracts/Kresko.sol:Kresko",
                        "label": "factor",
                        "offset": 0,
                        "slot": "0",
                        "type": "t_struct(Unsigned)22894_storage"
                    },
                    {
                        "astId": 16935,
                        "contract": "src/contracts/Kresko.sol:Kresko",
                        "label": "oracle",
                        "offset": 0,
                        "slot": "1",
                        "type": "t_contract(AggregatorV2V3Interface)22350"
                    },
                    {
                        "astId": 16937,
                        "contract": "src/contracts/Kresko.sol:Kresko",
                        "label": "underlyingRebasingToken",
                        "offset": 0,
                        "slot": "2",
                        "type": "t_address"
                    },
                    {
                        "astId": 16939,
                        "contract": "src/contracts/Kresko.sol:Kresko",
                        "label": "decimals",
                        "offset": 20,
                        "slot": "2",
                        "type": "t_uint8"
                    },
                    {
                        "astId": 16941,
                        "contract": "src/contracts/Kresko.sol:Kresko",
                        "label": "exists",
                        "offset": 21,
                        "slot": "2",
                        "type": "t_bool"
                    }
                ],
                "numberOfBytes": "96"
            },
            "t_struct(KrAsset)16955_storage": {
                "encoding": "inplace",
                "label": "struct Kresko.KrAsset",
                "members": [
                    {
                        "astId": 16945,
                        "contract": "src/contracts/Kresko.sol:Kresko",
                        "label": "kFactor",
                        "offset": 0,
                        "slot": "0",
                        "type": "t_struct(Unsigned)22894_storage"
                    },
                    {
                        "astId": 16948,
                        "contract": "src/contracts/Kresko.sol:Kresko",
                        "label": "oracle",
                        "offset": 0,
                        "slot": "1",
                        "type": "t_contract(AggregatorV2V3Interface)22350"
                    },
                    {
                        "astId": 16950,
                        "contract": "src/contracts/Kresko.sol:Kresko",
                        "label": "exists",
                        "offset": 20,
                        "slot": "1",
                        "type": "t_bool"
                    },
                    {
                        "astId": 16952,
                        "contract": "src/contracts/Kresko.sol:Kresko",
                        "label": "mintable",
                        "offset": 21,
                        "slot": "1",
                        "type": "t_bool"
                    },
                    {
                        "astId": 16954,
                        "contract": "src/contracts/Kresko.sol:Kresko",
                        "label": "marketCapUSDLimit",
                        "offset": 0,
                        "slot": "2",
                        "type": "t_uint256"
                    }
                ],
                "numberOfBytes": "96"
            },
            "t_struct(Unsigned)22894_storage": {
                "encoding": "inplace",
                "label": "struct FixedPoint.Unsigned",
                "members": [
                    {
                        "astId": 22893,
                        "contract": "src/contracts/Kresko.sol:Kresko",
                        "label": "rawValue",
                        "offset": 0,
                        "slot": "0",
                        "type": "t_uint256"
                    }
                ],
                "numberOfBytes": "32"
            },
            "t_uint256": {
                "encoding": "inplace",
                "label": "uint256",
                "numberOfBytes": "32"
            },
            "t_uint8": {
                "encoding": "inplace",
                "label": "uint8",
                "numberOfBytes": "1"
            }
        }
    }
}