{
    "address": "0xceB1F78E977259E80b13F627122154ad16d3388F",
    "abi": [
        {
            "inputs": [],
            "stateMutability": "nonpayable",
            "type": "constructor"
        },
        {
            "anonymous": false,
            "inputs": [
                {
                    "indexed": true,
                    "internalType": "address",
                    "name": "owner",
                    "type": "address"
                },
                {
                    "indexed": true,
                    "internalType": "address",
                    "name": "spender",
                    "type": "address"
                },
                {
                    "indexed": false,
                    "internalType": "uint256",
                    "name": "value",
                    "type": "uint256"
                }
            ],
            "name": "Approval",
            "type": "event"
        },
        {
            "anonymous": false,
            "inputs": [
                {
                    "indexed": false,
                    "internalType": "uint8",
                    "name": "version",
                    "type": "uint8"
                }
            ],
            "name": "Initialized",
            "type": "event"
        },
        {
            "anonymous": false,
            "inputs": [
                {
                    "indexed": true,
                    "internalType": "bytes32",
                    "name": "role",
                    "type": "bytes32"
                },
                {
                    "indexed": true,
                    "internalType": "bytes32",
                    "name": "previousAdminRole",
                    "type": "bytes32"
                },
                {
                    "indexed": true,
                    "internalType": "bytes32",
                    "name": "newAdminRole",
                    "type": "bytes32"
                }
            ],
            "name": "RoleAdminChanged",
            "type": "event"
        },
        {
            "anonymous": false,
            "inputs": [
                {
                    "indexed": true,
                    "internalType": "bytes32",
                    "name": "role",
                    "type": "bytes32"
                },
                {
                    "indexed": true,
                    "internalType": "address",
                    "name": "account",
                    "type": "address"
                },
                {
                    "indexed": true,
                    "internalType": "address",
                    "name": "sender",
                    "type": "address"
                }
            ],
            "name": "RoleGranted",
            "type": "event"
        },
        {
            "anonymous": false,
            "inputs": [
                {
                    "indexed": true,
                    "internalType": "bytes32",
                    "name": "role",
                    "type": "bytes32"
                },
                {
                    "indexed": true,
                    "internalType": "address",
                    "name": "account",
                    "type": "address"
                },
                {
                    "indexed": true,
                    "internalType": "address",
                    "name": "sender",
                    "type": "address"
                }
            ],
            "name": "RoleRevoked",
            "type": "event"
        },
        {
            "anonymous": false,
            "inputs": [
                {
                    "indexed": true,
                    "internalType": "address",
                    "name": "from",
                    "type": "address"
                },
                {
                    "indexed": true,
                    "internalType": "address",
                    "name": "to",
                    "type": "address"
                },
                {
                    "indexed": false,
                    "internalType": "uint256",
                    "name": "value",
                    "type": "uint256"
                }
            ],
            "name": "Transfer",
            "type": "event"
        },
        {
            "inputs": [],
            "name": "DEFAULT_ADMIN_ROLE",
            "outputs": [
                {
                    "internalType": "bytes32",
                    "name": "",
                    "type": "bytes32"
                }
            ],
            "stateMutability": "view",
            "type": "function"
        },
        {
            "inputs": [],
            "name": "OPERATOR_ROLE",
            "outputs": [
                {
                    "internalType": "bytes32",
                    "name": "",
                    "type": "bytes32"
                }
            ],
            "stateMutability": "view",
            "type": "function"
        },
        {
            "inputs": [
                {
                    "internalType": "address",
                    "name": "owner",
                    "type": "address"
                },
                {
                    "internalType": "address",
                    "name": "spender",
                    "type": "address"
                }
            ],
            "name": "allowance",
            "outputs": [
                {
                    "internalType": "uint256",
                    "name": "",
                    "type": "uint256"
                }
            ],
            "stateMutability": "view",
            "type": "function"
        },
        {
            "inputs": [
                {
                    "internalType": "address",
                    "name": "spender",
                    "type": "address"
                },
                {
                    "internalType": "uint256",
                    "name": "amount",
                    "type": "uint256"
                }
            ],
            "name": "approve",
            "outputs": [
                {
                    "internalType": "bool",
                    "name": "",
                    "type": "bool"
                }
            ],
            "stateMutability": "nonpayable",
            "type": "function"
        },
        {
            "inputs": [
                {
                    "internalType": "address",
                    "name": "account",
                    "type": "address"
                }
            ],
            "name": "balanceOf",
            "outputs": [
                {
                    "internalType": "uint256",
                    "name": "",
                    "type": "uint256"
                }
            ],
            "stateMutability": "view",
            "type": "function"
        },
        {
            "inputs": [
                {
                    "internalType": "address",
                    "name": "_account",
                    "type": "address"
                },
                {
                    "internalType": "uint256",
                    "name": "_amount",
                    "type": "uint256"
                }
            ],
            "name": "burn",
            "outputs": [],
            "stateMutability": "nonpayable",
            "type": "function"
        },
        {
            "inputs": [],
            "name": "decimals",
            "outputs": [
                {
                    "internalType": "uint8",
                    "name": "",
                    "type": "uint8"
                }
            ],
            "stateMutability": "view",
            "type": "function"
        },
        {
            "inputs": [
                {
                    "internalType": "address",
                    "name": "spender",
                    "type": "address"
                },
                {
                    "internalType": "uint256",
                    "name": "subtractedValue",
                    "type": "uint256"
                }
            ],
            "name": "decreaseAllowance",
            "outputs": [
                {
                    "internalType": "bool",
                    "name": "",
                    "type": "bool"
                }
            ],
            "stateMutability": "nonpayable",
            "type": "function"
        },
        {
            "inputs": [
                {
                    "internalType": "bytes32",
                    "name": "role",
                    "type": "bytes32"
                }
            ],
            "name": "getRoleAdmin",
            "outputs": [
                {
                    "internalType": "bytes32",
                    "name": "",
                    "type": "bytes32"
                }
            ],
            "stateMutability": "view",
            "type": "function"
        },
        {
            "inputs": [
                {
                    "internalType": "bytes32",
                    "name": "role",
                    "type": "bytes32"
                },
                {
                    "internalType": "uint256",
                    "name": "index",
                    "type": "uint256"
                }
            ],
            "name": "getRoleMember",
            "outputs": [
                {
                    "internalType": "address",
                    "name": "",
                    "type": "address"
                }
            ],
            "stateMutability": "view",
            "type": "function"
        },
        {
            "inputs": [
                {
                    "internalType": "bytes32",
                    "name": "role",
                    "type": "bytes32"
                }
            ],
            "name": "getRoleMemberCount",
            "outputs": [
                {
                    "internalType": "uint256",
                    "name": "",
                    "type": "uint256"
                }
            ],
            "stateMutability": "view",
            "type": "function"
        },
        {
            "inputs": [
                {
                    "internalType": "bytes32",
                    "name": "role",
                    "type": "bytes32"
                },
                {
                    "internalType": "address",
                    "name": "account",
                    "type": "address"
                }
            ],
            "name": "grantRole",
            "outputs": [],
            "stateMutability": "nonpayable",
            "type": "function"
        },
        {
            "inputs": [
                {
                    "internalType": "bytes32",
                    "name": "role",
                    "type": "bytes32"
                },
                {
                    "internalType": "address",
                    "name": "account",
                    "type": "address"
                }
            ],
            "name": "hasRole",
            "outputs": [
                {
                    "internalType": "bool",
                    "name": "",
                    "type": "bool"
                }
            ],
            "stateMutability": "view",
            "type": "function"
        },
        {
            "inputs": [
                {
                    "internalType": "address",
                    "name": "spender",
                    "type": "address"
                },
                {
                    "internalType": "uint256",
                    "name": "addedValue",
                    "type": "uint256"
                }
            ],
            "name": "increaseAllowance",
            "outputs": [
                {
                    "internalType": "bool",
                    "name": "",
                    "type": "bool"
                }
            ],
            "stateMutability": "nonpayable",
            "type": "function"
        },
        {
            "inputs": [
                {
                    "internalType": "string",
                    "name": "_name",
                    "type": "string"
                },
                {
                    "internalType": "string",
                    "name": "_symbol",
                    "type": "string"
                },
                {
                    "internalType": "address",
                    "name": "_owner",
                    "type": "address"
                },
                {
                    "internalType": "address",
                    "name": "_operator",
                    "type": "address"
                }
            ],
            "name": "initialize",
            "outputs": [],
            "stateMutability": "nonpayable",
            "type": "function"
        },
        {
            "inputs": [
                {
                    "internalType": "address",
                    "name": "_account",
                    "type": "address"
                },
                {
                    "internalType": "uint256",
                    "name": "_amount",
                    "type": "uint256"
                }
            ],
            "name": "mint",
            "outputs": [],
            "stateMutability": "nonpayable",
            "type": "function"
        },
        {
            "inputs": [],
            "name": "name",
            "outputs": [
                {
                    "internalType": "string",
                    "name": "",
                    "type": "string"
                }
            ],
            "stateMutability": "view",
            "type": "function"
        },
        {
            "inputs": [
                {
                    "internalType": "bytes32",
                    "name": "role",
                    "type": "bytes32"
                },
                {
                    "internalType": "address",
                    "name": "account",
                    "type": "address"
                }
            ],
            "name": "renounceRole",
            "outputs": [],
            "stateMutability": "nonpayable",
            "type": "function"
        },
        {
            "inputs": [
                {
                    "internalType": "bytes32",
                    "name": "role",
                    "type": "bytes32"
                },
                {
                    "internalType": "address",
                    "name": "account",
                    "type": "address"
                }
            ],
            "name": "revokeRole",
            "outputs": [],
            "stateMutability": "nonpayable",
            "type": "function"
        },
        {
            "inputs": [
                {
                    "internalType": "bytes4",
                    "name": "interfaceId",
                    "type": "bytes4"
                }
            ],
            "name": "supportsInterface",
            "outputs": [
                {
                    "internalType": "bool",
                    "name": "",
                    "type": "bool"
                }
            ],
            "stateMutability": "view",
            "type": "function"
        },
        {
            "inputs": [],
            "name": "symbol",
            "outputs": [
                {
                    "internalType": "string",
                    "name": "",
                    "type": "string"
                }
            ],
            "stateMutability": "view",
            "type": "function"
        },
        {
            "inputs": [],
            "name": "totalSupply",
            "outputs": [
                {
                    "internalType": "uint256",
                    "name": "",
                    "type": "uint256"
                }
            ],
            "stateMutability": "view",
            "type": "function"
        },
        {
            "inputs": [
                {
                    "internalType": "address",
                    "name": "to",
                    "type": "address"
                },
                {
                    "internalType": "uint256",
                    "name": "amount",
                    "type": "uint256"
                }
            ],
            "name": "transfer",
            "outputs": [
                {
                    "internalType": "bool",
                    "name": "",
                    "type": "bool"
                }
            ],
            "stateMutability": "nonpayable",
            "type": "function"
        },
        {
            "inputs": [
                {
                    "internalType": "address",
                    "name": "from",
                    "type": "address"
                },
                {
                    "internalType": "address",
                    "name": "to",
                    "type": "address"
                },
                {
                    "internalType": "uint256",
                    "name": "amount",
                    "type": "uint256"
                }
            ],
            "name": "transferFrom",
            "outputs": [
                {
                    "internalType": "bool",
                    "name": "",
                    "type": "bool"
                }
            ],
            "stateMutability": "nonpayable",
            "type": "function"
        }
    ],
    "transactionHash": "0x592a5613f648f9cee86aaac1f755b5f2161356d66f7e7619a3fcaeadb406fdc5",
    "args": [],
    "numDeployments": 1,
    "solcInputHash": "24395258857c12a49d5533c912a27014",
    "bytecode": "0x60806040523480156200001157600080fd5b50600054610100900460ff1615808015620000335750600054600160ff909116105b8062000063575062000050306200013d60201b620008e11760201c565b15801562000063575060005460ff166001145b620000cb5760405162461bcd60e51b815260206004820152602e60248201527f496e697469616c697a61626c653a20636f6e747261637420697320616c72656160448201526d191e481a5b9a5d1a585b1a5e995960921b606482015260840160405180910390fd5b6000805460ff191660011790558015620000ef576000805461ff0019166101001790555b801562000136576000805461ff0019169055604051600181527f7f26b83ff96e1f2b6a682f133852f6798a09c465da95921460cefb38474024989060200160405180910390a15b506200014c565b6001600160a01b03163b151590565b611ab6806200015c6000396000f3fe608060405234801561001057600080fd5b50600436106101985760003560e01c80638f15b414116100e3578063a457c2d71161008c578063d547741f11610066578063d547741f1461038e578063dd62ed3e146103a1578063f5b541a6146103da57600080fd5b8063a457c2d714610355578063a9059cbb14610368578063ca15c8731461037b57600080fd5b806395d89b41116100bd57806395d89b41146103325780639dc29fac1461033a578063a217fddf1461034d57600080fd5b80638f15b414146102bb5780639010d07c146102ce57806391d14854146102f957600080fd5b80632f2ff15d11610145578063395093511161011f578063395093511461026c57806340c10f191461027f57806370a082311461029257600080fd5b80632f2ff15d14610235578063313ce5671461024a57806336568abe1461025957600080fd5b806318160ddd1161017657806318160ddd146101ed57806323b872dd146101ff578063248a9ca31461021257600080fd5b806301ffc9a71461019d57806306fdde03146101c5578063095ea7b3146101da575b600080fd5b6101b06101ab366004611667565b610401565b60405190151581526020015b60405180910390f35b6101cd61042c565b6040516101bc91906116bd565b6101b06101e836600461170c565b6104be565b6035545b6040519081526020016101bc565b6101b061020d366004611736565b6104d6565b6101f1610220366004611772565b60009081526097602052604090206001015490565b61024861024336600461178b565b6104fa565b005b604051601281526020016101bc565b61024861026736600461178b565b610524565b6101b061027a36600461170c565b6105b5565b61024861028d36600461170c565b6105f4565b6101f16102a03660046117b7565b6001600160a01b031660009081526033602052604090205490565b6102486102c9366004611875565b610628565b6102e16102dc3660046118fa565b61078b565b6040516001600160a01b0390911681526020016101bc565b6101b061030736600461178b565b60009182526097602090815260408084206001600160a01b0393909316845291905290205460ff1690565b6101cd6107aa565b61024861034836600461170c565b6107b9565b6101f1600081565b6101b061036336600461170c565b6107ed565b6101b061037636600461170c565b610897565b6101f1610389366004611772565b6108a5565b61024861039c36600461178b565b6108bc565b6101f16103af36600461191c565b6001600160a01b03918216600090815260346020908152604080832093909416825291909152205490565b6101f17f8952ae23cc3fea91b9dba0cefa16d18a26ca2bf124b54f42b5d04bce3aacecd281565b60006001600160e01b03198216635a05180f60e01b14806104265750610426826108f0565b92915050565b60606036805461043b90611946565b80601f016020809104026020016040519081016040528092919081815260200182805461046790611946565b80156104b45780601f10610489576101008083540402835291602001916104b4565b820191906000526020600020905b81548152906001019060200180831161049757829003601f168201915b5050505050905090565b6000336104cc818585610925565b5060019392505050565b6000336104e4858285610a49565b6104ef858585610adb565b506001949350505050565b60008281526097602052604090206001015461051581610cd8565b61051f8383610ce5565b505050565b6001600160a01b03811633146105a75760405162461bcd60e51b815260206004820152602f60248201527f416363657373436f6e74726f6c3a2063616e206f6e6c792072656e6f756e636560448201527f20726f6c657320666f722073656c66000000000000000000000000000000000060648201526084015b60405180910390fd5b6105b18282610d07565b5050565b3360008181526034602090815260408083206001600160a01b03871684529091528120549091906104cc90829086906105ef908790611997565b610925565b7f8952ae23cc3fea91b9dba0cefa16d18a26ca2bf124b54f42b5d04bce3aacecd261061e81610cd8565b61051f8383610d29565b600054610100900460ff16158080156106485750600054600160ff909116105b806106625750303b158015610662575060005460ff166001145b6106d45760405162461bcd60e51b815260206004820152602e60248201527f496e697469616c697a61626c653a20636f6e747261637420697320616c72656160448201527f647920696e697469616c697a6564000000000000000000000000000000000000606482015260840161059e565b6000805460ff1916600117905580156106f7576000805461ff0019166101001790555b6107018585610e08565b610709610e7d565b610714600084610eea565b61073e7f8952ae23cc3fea91b9dba0cefa16d18a26ca2bf124b54f42b5d04bce3aacecd283610eea565b8015610784576000805461ff0019169055604051600181527f7f26b83ff96e1f2b6a682f133852f6798a09c465da95921460cefb38474024989060200160405180910390a15b5050505050565b600082815260c9602052604081206107a39083610ef4565b9392505050565b60606037805461043b90611946565b7f8952ae23cc3fea91b9dba0cefa16d18a26ca2bf124b54f42b5d04bce3aacecd26107e381610cd8565b61051f8383610f00565b3360008181526034602090815260408083206001600160a01b03871684529091528120549091908381101561088a5760405162461bcd60e51b815260206004820152602560248201527f45524332303a2064656372656173656420616c6c6f77616e63652062656c6f7760448201527f207a65726f000000000000000000000000000000000000000000000000000000606482015260840161059e565b6104ef8286868403610925565b6000336104cc818585610adb565b600081815260c9602052604081206104269061104e565b6000828152609760205260409020600101546108d781610cd8565b61051f8383610d07565b6001600160a01b03163b151590565b60006001600160e01b03198216637965db0b60e01b148061042657506301ffc9a760e01b6001600160e01b0319831614610426565b6001600160a01b0383166109875760405162461bcd60e51b8152602060048201526024808201527f45524332303a20617070726f76652066726f6d20746865207a65726f206164646044820152637265737360e01b606482015260840161059e565b6001600160a01b0382166109e85760405162461bcd60e51b815260206004820152602260248201527f45524332303a20617070726f766520746f20746865207a65726f206164647265604482015261737360f01b606482015260840161059e565b6001600160a01b0383811660008181526034602090815260408083209487168084529482529182902085905590518481527f8c5be1e5ebec7d5bd14f71427d1e84f3dd0314c0f7b2291e5b200ac8c7c3b925910160405180910390a3505050565b6001600160a01b038381166000908152603460209081526040808320938616835292905220546000198114610ad55781811015610ac85760405162461bcd60e51b815260206004820152601d60248201527f45524332303a20696e73756666696369656e7420616c6c6f77616e6365000000604482015260640161059e565b610ad58484848403610925565b50505050565b6001600160a01b038316610b575760405162461bcd60e51b815260206004820152602560248201527f45524332303a207472616e736665722066726f6d20746865207a65726f20616460448201527f6472657373000000000000000000000000000000000000000000000000000000606482015260840161059e565b6001600160a01b038216610bb95760405162461bcd60e51b815260206004820152602360248201527f45524332303a207472616e7366657220746f20746865207a65726f206164647260448201526265737360e81b606482015260840161059e565b6001600160a01b03831660009081526033602052604090205481811015610c485760405162461bcd60e51b815260206004820152602660248201527f45524332303a207472616e7366657220616d6f756e742065786365656473206260448201527f616c616e63650000000000000000000000000000000000000000000000000000606482015260840161059e565b6001600160a01b03808516600090815260336020526040808220858503905591851681529081208054849290610c7f908490611997565b92505081905550826001600160a01b0316846001600160a01b03167fddf252ad1be2c89b69c2b068fc378daa952ba7f163c4a11628f55a4df523b3ef84604051610ccb91815260200190565b60405180910390a3610ad5565b610ce28133611058565b50565b610cef82826110d8565b600082815260c96020526040902061051f908261117a565b610d11828261118f565b600082815260c96020526040902061051f9082611212565b6001600160a01b038216610d7f5760405162461bcd60e51b815260206004820152601f60248201527f45524332303a206d696e7420746f20746865207a65726f206164647265737300604482015260640161059e565b8060356000828254610d919190611997565b90915550506001600160a01b03821660009081526033602052604081208054839290610dbe908490611997565b90915550506040518181526001600160a01b038316906000907fddf252ad1be2c89b69c2b068fc378daa952ba7f163c4a11628f55a4df523b3ef9060200160405180910390a35050565b600054610100900460ff16610e735760405162461bcd60e51b815260206004820152602b60248201527f496e697469616c697a61626c653a20636f6e7472616374206973206e6f74206960448201526a6e697469616c697a696e6760a81b606482015260840161059e565b6105b18282611227565b600054610100900460ff16610ee85760405162461bcd60e51b815260206004820152602b60248201527f496e697469616c697a61626c653a20636f6e7472616374206973206e6f74206960448201526a6e697469616c697a696e6760a81b606482015260840161059e565b565b6105b18282610ce5565b60006107a383836112b9565b6001600160a01b038216610f605760405162461bcd60e51b815260206004820152602160248201527f45524332303a206275726e2066726f6d20746865207a65726f206164647265736044820152607360f81b606482015260840161059e565b6001600160a01b03821660009081526033602052604090205481811015610fd45760405162461bcd60e51b815260206004820152602260248201527f45524332303a206275726e20616d6f756e7420657863656564732062616c616e604482015261636560f01b606482015260840161059e565b6001600160a01b03831660009081526033602052604081208383039055603580548492906110039084906119af565b90915550506040518281526000906001600160a01b038516907fddf252ad1be2c89b69c2b068fc378daa952ba7f163c4a11628f55a4df523b3ef9060200160405180910390a3505050565b6000610426825490565b60008281526097602090815260408083206001600160a01b038516845290915290205460ff166105b157611096816001600160a01b031660146112e3565b6110a18360206112e3565b6040516020016110b29291906119c6565b60408051601f198184030181529082905262461bcd60e51b825261059e916004016116bd565b60008281526097602090815260408083206001600160a01b038516845290915290205460ff166105b15760008281526097602090815260408083206001600160a01b03851684529091529020805460ff191660011790556111363390565b6001600160a01b0316816001600160a01b0316837f2f8788117e7eff1d82e926ec794901d17c78024a50270940304540a733656f0d60405160405180910390a45050565b60006107a3836001600160a01b03841661148c565b60008281526097602090815260408083206001600160a01b038516845290915290205460ff16156105b15760008281526097602090815260408083206001600160a01b0385168085529252808320805460ff1916905551339285917ff6391f5c32d9c69d2a47ea670b442974b53935d1edc7fd64eb21e047a839171b9190a45050565b60006107a3836001600160a01b0384166114db565b600054610100900460ff166112925760405162461bcd60e51b815260206004820152602b60248201527f496e697469616c697a61626c653a20636f6e7472616374206973206e6f74206960448201526a6e697469616c697a696e6760a81b606482015260840161059e565b81516112a59060369060208501906115ce565b50805161051f9060379060208401906115ce565b60008260000182815481106112d0576112d0611a47565b9060005260206000200154905092915050565b606060006112f2836002611a5d565b6112fd906002611997565b67ffffffffffffffff811115611315576113156117d2565b6040519080825280601f01601f19166020018201604052801561133f576020820181803683370190505b509050600360fc1b8160008151811061135a5761135a611a47565b60200101906001600160f81b031916908160001a905350600f60fb1b8160018151811061138957611389611a47565b60200101906001600160f81b031916908160001a90535060006113ad846002611a5d565b6113b8906001611997565b90505b600181111561143d577f303132333435363738396162636465660000000000000000000000000000000085600f16601081106113f9576113f9611a47565b1a60f81b82828151811061140f5761140f611a47565b60200101906001600160f81b031916908160001a90535060049490941c9361143681611a7c565b90506113bb565b5083156107a35760405162461bcd60e51b815260206004820181905260248201527f537472696e67733a20686578206c656e67746820696e73756666696369656e74604482015260640161059e565b60008181526001830160205260408120546114d357508154600181810184556000848152602080822090930184905584548482528286019093526040902091909155610426565b506000610426565b600081815260018301602052604081205480156115c45760006114ff6001836119af565b8554909150600090611513906001906119af565b905081811461157857600086600001828154811061153357611533611a47565b906000526020600020015490508087600001848154811061155657611556611a47565b6000918252602080832090910192909255918252600188019052604090208390555b855486908061158957611589611a93565b600190038181906000526020600020016000905590558560010160008681526020019081526020016000206000905560019350505050610426565b6000915050610426565b8280546115da90611946565b90600052602060002090601f0160209004810192826115fc5760008555611642565b82601f1061161557805160ff1916838001178555611642565b82800160010185558215611642579182015b82811115611642578251825591602001919060010190611627565b5061164e929150611652565b5090565b5b8082111561164e5760008155600101611653565b60006020828403121561167957600080fd5b81356001600160e01b0319811681146107a357600080fd5b60005b838110156116ac578181015183820152602001611694565b83811115610ad55750506000910152565b60208152600082518060208401526116dc816040850160208701611691565b601f01601f19169190910160400192915050565b80356001600160a01b038116811461170757600080fd5b919050565b6000806040838503121561171f57600080fd5b611728836116f0565b946020939093013593505050565b60008060006060848603121561174b57600080fd5b611754846116f0565b9250611762602085016116f0565b9150604084013590509250925092565b60006020828403121561178457600080fd5b5035919050565b6000806040838503121561179e57600080fd5b823591506117ae602084016116f0565b90509250929050565b6000602082840312156117c957600080fd5b6107a3826116f0565b634e487b7160e01b600052604160045260246000fd5b600082601f8301126117f957600080fd5b813567ffffffffffffffff80821115611814576118146117d2565b604051601f8301601f19908116603f0116810190828211818310171561183c5761183c6117d2565b8160405283815286602085880101111561185557600080fd5b836020870160208301376000602085830101528094505050505092915050565b6000806000806080858703121561188b57600080fd5b843567ffffffffffffffff808211156118a357600080fd5b6118af888389016117e8565b955060208701359150808211156118c557600080fd5b506118d2878288016117e8565b9350506118e1604086016116f0565b91506118ef606086016116f0565b905092959194509250565b6000806040838503121561190d57600080fd5b50508035926020909101359150565b6000806040838503121561192f57600080fd5b611938836116f0565b91506117ae602084016116f0565b600181811c9082168061195a57607f821691505b6020821081141561197b57634e487b7160e01b600052602260045260246000fd5b50919050565b634e487b7160e01b600052601160045260246000fd5b600082198211156119aa576119aa611981565b500190565b6000828210156119c1576119c1611981565b500390565b7f416363657373436f6e74726f6c3a206163636f756e74200000000000000000008152600083516119fe816017850160208801611691565b7f206973206d697373696e6720726f6c65200000000000000000000000000000006017918401918201528351611a3b816028840160208801611691565b01602801949350505050565b634e487b7160e01b600052603260045260246000fd5b6000816000190483118215151615611a7757611a77611981565b500290565b600081611a8b57611a8b611981565b506000190190565b634e487b7160e01b600052603160045260246000fdfea164736f6c634300080a000a",
    "devdoc": {
        "details": "Extension of {ERC20} that restricts token minting and burning to the contract's owner. Tokens can be minted to any address, but can only be burned from the owner's address.",
        "kind": "dev",
        "methods": {
            "allowance(address,address)": {
                "details": "See {IERC20-allowance}."
            },
            "approve(address,uint256)": {
                "details": "See {IERC20-approve}. NOTE: If `amount` is the maximum `uint256`, the allowance is not updated on `transferFrom`. This is semantically equivalent to an infinite approval. Requirements: - `spender` cannot be the zero address."
            },
            "balanceOf(address)": {
                "details": "See {IERC20-balanceOf}."
            },
            "burn(address,uint256)": {
                "details": "Only callable by operator.",
                "params": {
                    "_account": "The address to burn tokens from.",
                    "_amount": "The amount of tokens to burn."
                }
            },
            "constructor": {
                "details": "Protects against a call to initialize when this contract is called directly without a proxy."
            },
            "decimals()": {
                "details": "Returns the number of decimals used to get its user representation. For example, if `decimals` equals `2`, a balance of `505` tokens should be displayed to a user as `5.05` (`505 / 10 ** 2`). Tokens usually opt for a value of 18, imitating the relationship between Ether and Wei. This is the value {ERC20} uses, unless this function is overridden; NOTE: This information is only used for _display_ purposes: it in no way affects any of the arithmetic of the contract, including {IERC20-balanceOf} and {IERC20-transfer}."
            },
            "decreaseAllowance(address,uint256)": {
                "details": "Atomically decreases the allowance granted to `spender` by the caller. This is an alternative to {approve} that can be used as a mitigation for problems described in {IERC20-approve}. Emits an {Approval} event indicating the updated allowance. Requirements: - `spender` cannot be the zero address. - `spender` must have allowance for the caller of at least `subtractedValue`."
            },
            "getRoleAdmin(bytes32)": {
                "details": "Returns the admin role that controls `role`. See {grantRole} and {revokeRole}. To change a role's admin, use {_setRoleAdmin}."
            },
            "getRoleMember(bytes32,uint256)": {
                "details": "Returns one of the accounts that have `role`. `index` must be a value between 0 and {getRoleMemberCount}, non-inclusive. Role bearers are not sorted in any particular way, and their ordering may change at any point. WARNING: When using {getRoleMember} and {getRoleMemberCount}, make sure you perform all queries on the same block. See the following https://forum.openzeppelin.com/t/iterating-over-elements-on-enumerableset-in-openzeppelin-contracts/2296[forum post] for more information."
            },
            "getRoleMemberCount(bytes32)": {
                "details": "Returns the number of accounts that have `role`. Can be used together with {getRoleMember} to enumerate all bearers of a role."
            },
            "grantRole(bytes32,address)": {
                "details": "Grants `role` to `account`. If `account` had not been already granted `role`, emits a {RoleGranted} event. Requirements: - the caller must have ``role``'s admin role. May emit a {RoleGranted} event."
            },
            "hasRole(bytes32,address)": {
                "details": "Returns `true` if `account` has been granted `role`."
            },
            "increaseAllowance(address,uint256)": {
                "details": "Atomically increases the allowance granted to `spender` by the caller. This is an alternative to {approve} that can be used as a mitigation for problems described in {IERC20-approve}. Emits an {Approval} event indicating the updated allowance. Requirements: - `spender` cannot be the zero address."
            },
            "initialize(string,string,address,address)": {
                "details": "Intended to be operated by the Kresko smart contract.",
                "params": {
                    "_name": "The name of the KreskoAsset.",
                    "_operator": "The mint/burn operator.",
                    "_owner": "The owner of this contract.",
                    "_symbol": "The symbol of the KreskoAsset."
                }
            },
            "mint(address,uint256)": {
                "details": "Only callable by operator.",
                "params": {
                    "_account": "The recipient address of the mint.",
                    "_amount": "The amount of tokens to mint."
                }
            },
            "name()": {
                "details": "Returns the name of the token."
            },
            "renounceRole(bytes32,address)": {
                "details": "Revokes `role` from the calling account. Roles are often managed via {grantRole} and {revokeRole}: this function's purpose is to provide a mechanism for accounts to lose their privileges if they are compromised (such as when a trusted device is misplaced). If the calling account had been revoked `role`, emits a {RoleRevoked} event. Requirements: - the caller must be `account`. May emit a {RoleRevoked} event."
            },
            "revokeRole(bytes32,address)": {
                "details": "Revokes `role` from `account`. If `account` had been granted `role`, emits a {RoleRevoked} event. Requirements: - the caller must have ``role``'s admin role. May emit a {RoleRevoked} event."
            },
            "supportsInterface(bytes4)": {
                "details": "See {IERC165-supportsInterface}."
            },
            "symbol()": {
                "details": "Returns the symbol of the token, usually a shorter version of the name."
            },
            "totalSupply()": {
                "details": "See {IERC20-totalSupply}."
            },
            "transfer(address,uint256)": {
                "details": "See {IERC20-transfer}. Requirements: - `to` cannot be the zero address. - the caller must have a balance of at least `amount`."
            },
            "transferFrom(address,address,uint256)": {
                "details": "See {IERC20-transferFrom}. Emits an {Approval} event indicating the updated allowance. This is not required by the EIP. See the note at the beginning of {ERC20}. NOTE: Does not update the allowance if the current allowance is the maximum `uint256`. Requirements: - `from` and `to` cannot be the zero address. - `from` must have a balance of at least `amount`. - the caller must have allowance for ``from``'s tokens of at least `amount`."
            }
        },
        "version": 1
    },
    "userdoc": {
        "kind": "user",
        "methods": {
            "burn(address,uint256)": {
                "notice": "Burns tokens from an address."
            },
            "constructor": {
                "notice": "Empty constructor, see `initialize`."
            },
            "initialize(string,string,address,address)": {
                "notice": "Initializes a KreskoAsset ERC20 token."
            },
            "mint(address,uint256)": {
                "notice": "Mints tokens to an address."
            }
        },
        "version": 1
    },
    "storageLayout": {
        "storage": [
            {
                "astId": 589,
                "contract": "src/contracts/KreskoAsset.sol:KreskoAsset",
                "label": "_initialized",
                "offset": 0,
                "slot": "0",
                "type": "t_uint8"
            },
            {
                "astId": 592,
                "contract": "src/contracts/KreskoAsset.sol:KreskoAsset",
                "label": "_initializing",
                "offset": 1,
                "slot": "0",
                "type": "t_bool"
            },
            {
                "astId": 2107,
                "contract": "src/contracts/KreskoAsset.sol:KreskoAsset",
                "label": "__gap",
                "offset": 0,
                "slot": "1",
                "type": "t_array(t_uint256)50_storage"
            },
            {
                "astId": 811,
                "contract": "src/contracts/KreskoAsset.sol:KreskoAsset",
                "label": "_balances",
                "offset": 0,
                "slot": "51",
                "type": "t_mapping(t_address,t_uint256)"
            },
            {
                "astId": 817,
                "contract": "src/contracts/KreskoAsset.sol:KreskoAsset",
                "label": "_allowances",
                "offset": 0,
                "slot": "52",
                "type": "t_mapping(t_address,t_mapping(t_address,t_uint256))"
            },
            {
                "astId": 819,
                "contract": "src/contracts/KreskoAsset.sol:KreskoAsset",
                "label": "_totalSupply",
                "offset": 0,
                "slot": "53",
                "type": "t_uint256"
            },
            {
                "astId": 821,
                "contract": "src/contracts/KreskoAsset.sol:KreskoAsset",
                "label": "_name",
                "offset": 0,
                "slot": "54",
                "type": "t_string_storage"
            },
            {
                "astId": 823,
                "contract": "src/contracts/KreskoAsset.sol:KreskoAsset",
                "label": "_symbol",
                "offset": 0,
                "slot": "55",
                "type": "t_string_storage"
            },
            {
                "astId": 1402,
                "contract": "src/contracts/KreskoAsset.sol:KreskoAsset",
                "label": "__gap",
                "offset": 0,
                "slot": "56",
                "type": "t_array(t_uint256)45_storage"
            },
            {
                "astId": 2377,
                "contract": "src/contracts/KreskoAsset.sol:KreskoAsset",
                "label": "__gap",
                "offset": 0,
                "slot": "101",
                "type": "t_array(t_uint256)50_storage"
            },
            {
                "astId": 184,
                "contract": "src/contracts/KreskoAsset.sol:KreskoAsset",
                "label": "_roles",
                "offset": 0,
                "slot": "151",
                "type": "t_mapping(t_bytes32,t_struct(RoleData)179_storage)"
            },
            {
                "astId": 483,
                "contract": "src/contracts/KreskoAsset.sol:KreskoAsset",
                "label": "__gap",
                "offset": 0,
                "slot": "152",
                "type": "t_array(t_uint256)49_storage"
            },
            {
                "astId": 33,
                "contract": "src/contracts/KreskoAsset.sol:KreskoAsset",
                "label": "_roleMembers",
                "offset": 0,
                "slot": "201",
                "type": "t_mapping(t_bytes32,t_struct(AddressSet)3078_storage)"
            },
            {
                "astId": 143,
                "contract": "src/contracts/KreskoAsset.sol:KreskoAsset",
                "label": "__gap",
                "offset": 0,
                "slot": "202",
                "type": "t_array(t_uint256)49_storage"
            }
        ],
        "types": {
            "t_address": {
                "encoding": "inplace",
                "label": "address",
                "numberOfBytes": "20"
            },
            "t_array(t_bytes32)dyn_storage": {
                "base": "t_bytes32",
                "encoding": "dynamic_array",
                "label": "bytes32[]",
                "numberOfBytes": "32"
            },
            "t_array(t_uint256)45_storage": {
                "base": "t_uint256",
                "encoding": "inplace",
                "label": "uint256[45]",
                "numberOfBytes": "1440"
            },
            "t_array(t_uint256)49_storage": {
                "base": "t_uint256",
                "encoding": "inplace",
                "label": "uint256[49]",
                "numberOfBytes": "1568"
            },
            "t_array(t_uint256)50_storage": {
                "base": "t_uint256",
                "encoding": "inplace",
                "label": "uint256[50]",
                "numberOfBytes": "1600"
            },
            "t_bool": {
                "encoding": "inplace",
                "label": "bool",
                "numberOfBytes": "1"
            },
            "t_bytes32": {
                "encoding": "inplace",
                "label": "bytes32",
                "numberOfBytes": "32"
            },
            "t_mapping(t_address,t_bool)": {
                "encoding": "mapping",
                "key": "t_address",
                "label": "mapping(address => bool)",
                "numberOfBytes": "32",
                "value": "t_bool"
            },
            "t_mapping(t_address,t_mapping(t_address,t_uint256))": {
                "encoding": "mapping",
                "key": "t_address",
                "label": "mapping(address => mapping(address => uint256))",
                "numberOfBytes": "32",
                "value": "t_mapping(t_address,t_uint256)"
            },
            "t_mapping(t_address,t_uint256)": {
                "encoding": "mapping",
                "key": "t_address",
                "label": "mapping(address => uint256)",
                "numberOfBytes": "32",
                "value": "t_uint256"
            },
            "t_mapping(t_bytes32,t_struct(AddressSet)3078_storage)": {
                "encoding": "mapping",
                "key": "t_bytes32",
                "label": "mapping(bytes32 => struct EnumerableSetUpgradeable.AddressSet)",
                "numberOfBytes": "32",
                "value": "t_struct(AddressSet)3078_storage"
            },
            "t_mapping(t_bytes32,t_struct(RoleData)179_storage)": {
                "encoding": "mapping",
                "key": "t_bytes32",
                "label": "mapping(bytes32 => struct AccessControlUpgradeable.RoleData)",
                "numberOfBytes": "32",
                "value": "t_struct(RoleData)179_storage"
            },
            "t_mapping(t_bytes32,t_uint256)": {
                "encoding": "mapping",
                "key": "t_bytes32",
                "label": "mapping(bytes32 => uint256)",
                "numberOfBytes": "32",
                "value": "t_uint256"
            },
            "t_string_storage": {
                "encoding": "bytes",
                "label": "string",
                "numberOfBytes": "32"
            },
            "t_struct(AddressSet)3078_storage": {
                "encoding": "inplace",
                "label": "struct EnumerableSetUpgradeable.AddressSet",
                "members": [
                    {
                        "astId": 3077,
                        "contract": "src/contracts/KreskoAsset.sol:KreskoAsset",
                        "label": "_inner",
                        "offset": 0,
                        "slot": "0",
                        "type": "t_struct(Set)2777_storage"
                    }
                ],
                "numberOfBytes": "64"
            },
            "t_struct(RoleData)179_storage": {
                "encoding": "inplace",
                "label": "struct AccessControlUpgradeable.RoleData",
                "members": [
                    {
                        "astId": 176,
                        "contract": "src/contracts/KreskoAsset.sol:KreskoAsset",
                        "label": "members",
                        "offset": 0,
                        "slot": "0",
                        "type": "t_mapping(t_address,t_bool)"
                    },
                    {
                        "astId": 178,
                        "contract": "src/contracts/KreskoAsset.sol:KreskoAsset",
                        "label": "adminRole",
                        "offset": 0,
                        "slot": "1",
                        "type": "t_bytes32"
                    }
                ],
                "numberOfBytes": "64"
            },
            "t_struct(Set)2777_storage": {
                "encoding": "inplace",
                "label": "struct EnumerableSetUpgradeable.Set",
                "members": [
                    {
                        "astId": 2772,
                        "contract": "src/contracts/KreskoAsset.sol:KreskoAsset",
                        "label": "_values",
                        "offset": 0,
                        "slot": "0",
                        "type": "t_array(t_bytes32)dyn_storage"
                    },
                    {
                        "astId": 2776,
                        "contract": "src/contracts/KreskoAsset.sol:KreskoAsset",
                        "label": "_indexes",
                        "offset": 0,
                        "slot": "1",
                        "type": "t_mapping(t_bytes32,t_uint256)"
                    }
                ],
                "numberOfBytes": "64"
            },
            "t_uint256": {
                "encoding": "inplace",
                "label": "uint256",
                "numberOfBytes": "32"
            },
            "t_uint8": {
                "encoding": "inplace",
                "label": "uint8",
                "numberOfBytes": "1"
            }
        }
    }
}