{
    "address": "0x6dd62cF81780170D0e5Be4Bb42e3Af034789F250",
    "abi": [
        {
            "inputs": [],
            "stateMutability": "nonpayable",
            "type": "constructor"
        },
        {
            "anonymous": false,
            "inputs": [
                {
                    "indexed": true,
                    "internalType": "address",
                    "name": "owner",
                    "type": "address"
                },
                {
                    "indexed": true,
                    "internalType": "address",
                    "name": "spender",
                    "type": "address"
                },
                {
                    "indexed": false,
                    "internalType": "uint256",
                    "name": "value",
                    "type": "uint256"
                }
            ],
            "name": "Approval",
            "type": "event"
        },
        {
            "anonymous": false,
            "inputs": [
                {
                    "indexed": true,
                    "internalType": "bytes32",
                    "name": "role",
                    "type": "bytes32"
                },
                {
                    "indexed": true,
                    "internalType": "bytes32",
                    "name": "previousAdminRole",
                    "type": "bytes32"
                },
                {
                    "indexed": true,
                    "internalType": "bytes32",
                    "name": "newAdminRole",
                    "type": "bytes32"
                }
            ],
            "name": "RoleAdminChanged",
            "type": "event"
        },
        {
            "anonymous": false,
            "inputs": [
                {
                    "indexed": true,
                    "internalType": "bytes32",
                    "name": "role",
                    "type": "bytes32"
                },
                {
                    "indexed": true,
                    "internalType": "address",
                    "name": "account",
                    "type": "address"
                },
                {
                    "indexed": true,
                    "internalType": "address",
                    "name": "sender",
                    "type": "address"
                }
            ],
            "name": "RoleGranted",
            "type": "event"
        },
        {
            "anonymous": false,
            "inputs": [
                {
                    "indexed": true,
                    "internalType": "bytes32",
                    "name": "role",
                    "type": "bytes32"
                },
                {
                    "indexed": true,
                    "internalType": "address",
                    "name": "account",
                    "type": "address"
                },
                {
                    "indexed": true,
                    "internalType": "address",
                    "name": "sender",
                    "type": "address"
                }
            ],
            "name": "RoleRevoked",
            "type": "event"
        },
        {
            "anonymous": false,
            "inputs": [
                {
                    "indexed": true,
                    "internalType": "address",
                    "name": "from",
                    "type": "address"
                },
                {
                    "indexed": true,
                    "internalType": "address",
                    "name": "to",
                    "type": "address"
                },
                {
                    "indexed": false,
                    "internalType": "uint256",
                    "name": "value",
                    "type": "uint256"
                }
            ],
            "name": "Transfer",
            "type": "event"
        },
        {
            "inputs": [],
            "name": "DEFAULT_ADMIN_ROLE",
            "outputs": [
                {
                    "internalType": "bytes32",
                    "name": "",
                    "type": "bytes32"
                }
            ],
            "stateMutability": "view",
            "type": "function"
        },
        {
            "inputs": [],
            "name": "OPERATOR_ROLE",
            "outputs": [
                {
                    "internalType": "bytes32",
                    "name": "",
                    "type": "bytes32"
                }
            ],
            "stateMutability": "view",
            "type": "function"
        },
        {
            "inputs": [
                {
                    "internalType": "address",
                    "name": "owner",
                    "type": "address"
                },
                {
                    "internalType": "address",
                    "name": "spender",
                    "type": "address"
                }
            ],
            "name": "allowance",
            "outputs": [
                {
                    "internalType": "uint256",
                    "name": "",
                    "type": "uint256"
                }
            ],
            "stateMutability": "view",
            "type": "function"
        },
        {
            "inputs": [
                {
                    "internalType": "address",
                    "name": "spender",
                    "type": "address"
                },
                {
                    "internalType": "uint256",
                    "name": "amount",
                    "type": "uint256"
                }
            ],
            "name": "approve",
            "outputs": [
                {
                    "internalType": "bool",
                    "name": "",
                    "type": "bool"
                }
            ],
            "stateMutability": "nonpayable",
            "type": "function"
        },
        {
            "inputs": [
                {
                    "internalType": "address",
                    "name": "account",
                    "type": "address"
                }
            ],
            "name": "balanceOf",
            "outputs": [
                {
                    "internalType": "uint256",
                    "name": "",
                    "type": "uint256"
                }
            ],
            "stateMutability": "view",
            "type": "function"
        },
        {
            "inputs": [
                {
                    "internalType": "address",
                    "name": "_account",
                    "type": "address"
                },
                {
                    "internalType": "uint256",
                    "name": "_amount",
                    "type": "uint256"
                }
            ],
            "name": "burn",
            "outputs": [],
            "stateMutability": "nonpayable",
            "type": "function"
        },
        {
            "inputs": [],
            "name": "decimals",
            "outputs": [
                {
                    "internalType": "uint8",
                    "name": "",
                    "type": "uint8"
                }
            ],
            "stateMutability": "view",
            "type": "function"
        },
        {
            "inputs": [
                {
                    "internalType": "address",
                    "name": "spender",
                    "type": "address"
                },
                {
                    "internalType": "uint256",
                    "name": "subtractedValue",
                    "type": "uint256"
                }
            ],
            "name": "decreaseAllowance",
            "outputs": [
                {
                    "internalType": "bool",
                    "name": "",
                    "type": "bool"
                }
            ],
            "stateMutability": "nonpayable",
            "type": "function"
        },
        {
            "inputs": [
                {
                    "internalType": "bytes32",
                    "name": "role",
                    "type": "bytes32"
                }
            ],
            "name": "getRoleAdmin",
            "outputs": [
                {
                    "internalType": "bytes32",
                    "name": "",
                    "type": "bytes32"
                }
            ],
            "stateMutability": "view",
            "type": "function"
        },
        {
            "inputs": [
                {
                    "internalType": "bytes32",
                    "name": "role",
                    "type": "bytes32"
                },
                {
                    "internalType": "uint256",
                    "name": "index",
                    "type": "uint256"
                }
            ],
            "name": "getRoleMember",
            "outputs": [
                {
                    "internalType": "address",
                    "name": "",
                    "type": "address"
                }
            ],
            "stateMutability": "view",
            "type": "function"
        },
        {
            "inputs": [
                {
                    "internalType": "bytes32",
                    "name": "role",
                    "type": "bytes32"
                }
            ],
            "name": "getRoleMemberCount",
            "outputs": [
                {
                    "internalType": "uint256",
                    "name": "",
                    "type": "uint256"
                }
            ],
            "stateMutability": "view",
            "type": "function"
        },
        {
            "inputs": [
                {
                    "internalType": "bytes32",
                    "name": "role",
                    "type": "bytes32"
                },
                {
                    "internalType": "address",
                    "name": "account",
                    "type": "address"
                }
            ],
            "name": "grantRole",
            "outputs": [],
            "stateMutability": "nonpayable",
            "type": "function"
        },
        {
            "inputs": [
                {
                    "internalType": "bytes32",
                    "name": "role",
                    "type": "bytes32"
                },
                {
                    "internalType": "address",
                    "name": "account",
                    "type": "address"
                }
            ],
            "name": "hasRole",
            "outputs": [
                {
                    "internalType": "bool",
                    "name": "",
                    "type": "bool"
                }
            ],
            "stateMutability": "view",
            "type": "function"
        },
        {
            "inputs": [
                {
                    "internalType": "address",
                    "name": "spender",
                    "type": "address"
                },
                {
                    "internalType": "uint256",
                    "name": "addedValue",
                    "type": "uint256"
                }
            ],
            "name": "increaseAllowance",
            "outputs": [
                {
                    "internalType": "bool",
                    "name": "",
                    "type": "bool"
                }
            ],
            "stateMutability": "nonpayable",
            "type": "function"
        },
        {
            "inputs": [
                {
                    "internalType": "string",
                    "name": "_name",
                    "type": "string"
                },
                {
                    "internalType": "string",
                    "name": "_symbol",
                    "type": "string"
                },
                {
                    "internalType": "address",
                    "name": "_owner",
                    "type": "address"
                },
                {
                    "internalType": "address",
                    "name": "_operator",
                    "type": "address"
                }
            ],
            "name": "initialize",
            "outputs": [],
            "stateMutability": "nonpayable",
            "type": "function"
        },
        {
            "inputs": [
                {
                    "internalType": "address",
                    "name": "_account",
                    "type": "address"
                },
                {
                    "internalType": "uint256",
                    "name": "_amount",
                    "type": "uint256"
                }
            ],
            "name": "mint",
            "outputs": [],
            "stateMutability": "nonpayable",
            "type": "function"
        },
        {
            "inputs": [],
            "name": "name",
            "outputs": [
                {
                    "internalType": "string",
                    "name": "",
                    "type": "string"
                }
            ],
            "stateMutability": "view",
            "type": "function"
        },
        {
            "inputs": [
                {
                    "internalType": "bytes32",
                    "name": "role",
                    "type": "bytes32"
                },
                {
                    "internalType": "address",
                    "name": "account",
                    "type": "address"
                }
            ],
            "name": "renounceRole",
            "outputs": [],
            "stateMutability": "nonpayable",
            "type": "function"
        },
        {
            "inputs": [
                {
                    "internalType": "bytes32",
                    "name": "role",
                    "type": "bytes32"
                },
                {
                    "internalType": "address",
                    "name": "account",
                    "type": "address"
                }
            ],
            "name": "revokeRole",
            "outputs": [],
            "stateMutability": "nonpayable",
            "type": "function"
        },
        {
            "inputs": [
                {
                    "internalType": "bytes4",
                    "name": "interfaceId",
                    "type": "bytes4"
                }
            ],
            "name": "supportsInterface",
            "outputs": [
                {
                    "internalType": "bool",
                    "name": "",
                    "type": "bool"
                }
            ],
            "stateMutability": "view",
            "type": "function"
        },
        {
            "inputs": [],
            "name": "symbol",
            "outputs": [
                {
                    "internalType": "string",
                    "name": "",
                    "type": "string"
                }
            ],
            "stateMutability": "view",
            "type": "function"
        },
        {
            "inputs": [],
            "name": "totalSupply",
            "outputs": [
                {
                    "internalType": "uint256",
                    "name": "",
                    "type": "uint256"
                }
            ],
            "stateMutability": "view",
            "type": "function"
        },
        {
            "inputs": [
                {
                    "internalType": "address",
                    "name": "recipient",
                    "type": "address"
                },
                {
                    "internalType": "uint256",
                    "name": "amount",
                    "type": "uint256"
                }
            ],
            "name": "transfer",
            "outputs": [
                {
                    "internalType": "bool",
                    "name": "",
                    "type": "bool"
                }
            ],
            "stateMutability": "nonpayable",
            "type": "function"
        },
        {
            "inputs": [
                {
                    "internalType": "address",
                    "name": "sender",
                    "type": "address"
                },
                {
                    "internalType": "address",
                    "name": "recipient",
                    "type": "address"
                },
                {
                    "internalType": "uint256",
                    "name": "amount",
                    "type": "uint256"
                }
            ],
            "name": "transferFrom",
            "outputs": [
                {
                    "internalType": "bool",
                    "name": "",
                    "type": "bool"
                }
            ],
            "stateMutability": "nonpayable",
            "type": "function"
        }
    ],
    "transactionHash": "0xd7014d79c9d152fcae9e12e2f6bb8f3262e1a7267bf5a9152814e1508f872c12",
    "args": [],
    "numDeployments": 1,
    "solcInputHash": "9af8c3d7ba59b21f9cc7b2040ad35216",
    "bytecode": "0x60806040523480156200001157600080fd5b50600054610100900460ff166200002f5760005460ff161562000039565b62000039620000de565b620000a15760405162461bcd60e51b815260206004820152602e60248201527f496e697469616c697a61626c653a20636f6e747261637420697320616c72656160448201526d191e481a5b9a5d1a585b1a5e995960921b606482015260840160405180910390fd5b600054610100900460ff16158015620000c4576000805461ffff19166101011790555b8015620000d7576000805461ff00191690555b5062000102565b6000620000f630620000fc60201b620009311760201c565b15905090565b3b151590565b611af380620001126000396000f3fe608060405234801561001057600080fd5b50600436106101985760003560e01c80638f15b414116100e3578063a457c2d71161008c578063d547741f11610066578063d547741f1461038e578063dd62ed3e146103a1578063f5b541a6146103da57600080fd5b8063a457c2d714610355578063a9059cbb14610368578063ca15c8731461037b57600080fd5b806395d89b41116100bd57806395d89b41146103325780639dc29fac1461033a578063a217fddf1461034d57600080fd5b80638f15b414146102bb5780639010d07c146102ce57806391d14854146102f957600080fd5b80632f2ff15d11610145578063395093511161011f578063395093511461026c57806340c10f191461027f57806370a082311461029257600080fd5b80632f2ff15d14610235578063313ce5671461024a57806336568abe1461025957600080fd5b806318160ddd1161017657806318160ddd146101ed57806323b872dd146101ff578063248a9ca31461021257600080fd5b806301ffc9a71461019d57806306fdde03146101c5578063095ea7b3146101da575b600080fd5b6101b06101ab3660046116a4565b610401565b60405190151581526020015b60405180910390f35b6101cd61042c565b6040516101bc91906116fa565b6101b06101e8366004611749565b6104be565b6035545b6040519081526020016101bc565b6101b061020d366004611773565b6104d4565b6101f16102203660046117af565b60009081526097602052604090206001015490565b6102486102433660046117c8565b610598565b005b604051601281526020016101bc565b6102486102673660046117c8565b6105c3565b6101b061027a366004611749565b61064f565b61024861028d366004611749565b61068b565b6101f16102a03660046117f4565b6001600160a01b031660009081526033602052604090205490565b6102486102c93660046118b2565b6106c0565b6102e16102dc366004611937565b6107d3565b6040516001600160a01b0390911681526020016101bc565b6101b06103073660046117c8565b60009182526097602090815260408084206001600160a01b0393909316845291905290205460ff1690565b6101cd6107f2565b610248610348366004611749565b610801565b6101f1600081565b6101b0610363366004611749565b610836565b6101b0610376366004611749565b6108e7565b6101f16103893660046117af565b6108f4565b61024861039c3660046117c8565b61090b565b6101f16103af366004611959565b6001600160a01b03918216600090815260346020908152604080832093909416825291909152205490565b6101f17f8952ae23cc3fea91b9dba0cefa16d18a26ca2bf124b54f42b5d04bce3aacecd281565b60006001600160e01b03198216635a05180f60e01b1480610426575061042682610937565b92915050565b60606036805461043b90611983565b80601f016020809104026020016040519081016040528092919081815260200182805461046790611983565b80156104b45780601f10610489576101008083540402835291602001916104b4565b820191906000526020600020905b81548152906001019060200180831161049757829003601f168201915b5050505050905090565b60006104cb33848461096c565b50600192915050565b60006104e1848484610a90565b6001600160a01b0384166000908152603460209081526040808320338452909152902054828110156105805760405162461bcd60e51b815260206004820152602860248201527f45524332303a207472616e7366657220616d6f756e742065786365656473206160448201527f6c6c6f77616e636500000000000000000000000000000000000000000000000060648201526084015b60405180910390fd5b61058d853385840361096c565b506001949350505050565b6000828152609760205260409020600101546105b48133610c8f565b6105be8383610d0f565b505050565b6001600160a01b03811633146106415760405162461bcd60e51b815260206004820152602f60248201527f416363657373436f6e74726f6c3a2063616e206f6e6c792072656e6f756e636560448201527f20726f6c657320666f722073656c6600000000000000000000000000000000006064820152608401610577565b61064b8282610d31565b5050565b3360008181526034602090815260408083206001600160a01b038716845290915281205490916104cb9185906106869086906119d4565b61096c565b7f8952ae23cc3fea91b9dba0cefa16d18a26ca2bf124b54f42b5d04bce3aacecd26106b68133610c8f565b6105be8383610d53565b600054610100900460ff166106db5760005460ff16156106df565b303b155b6107515760405162461bcd60e51b815260206004820152602e60248201527f496e697469616c697a61626c653a20636f6e747261637420697320616c72656160448201527f647920696e697469616c697a65640000000000000000000000000000000000006064820152608401610577565b600054610100900460ff16158015610773576000805461ffff19166101011790555b61077d8585610e32565b610785610eaf565b610790600084610f3c565b6107ba7f8952ae23cc3fea91b9dba0cefa16d18a26ca2bf124b54f42b5d04bce3aacecd283610f3c565b80156107cc576000805461ff00191690555b5050505050565b600082815260c9602052604081206107eb9083610f46565b9392505050565b60606037805461043b90611983565b7f8952ae23cc3fea91b9dba0cefa16d18a26ca2bf124b54f42b5d04bce3aacecd261082c8133610c8f565b6105be8383610f52565b3360009081526034602090815260408083206001600160a01b0386168452909152812054828110156108d05760405162461bcd60e51b815260206004820152602560248201527f45524332303a2064656372656173656420616c6c6f77616e63652062656c6f7760448201527f207a65726f0000000000000000000000000000000000000000000000000000006064820152608401610577565b6108dd338585840361096c565b5060019392505050565b60006104cb338484610a90565b600081815260c960205260408120610426906110a0565b6000828152609760205260409020600101546109278133610c8f565b6105be8383610d31565b3b151590565b60006001600160e01b03198216637965db0b60e01b148061042657506301ffc9a760e01b6001600160e01b0319831614610426565b6001600160a01b0383166109ce5760405162461bcd60e51b8152602060048201526024808201527f45524332303a20617070726f76652066726f6d20746865207a65726f206164646044820152637265737360e01b6064820152608401610577565b6001600160a01b038216610a2f5760405162461bcd60e51b815260206004820152602260248201527f45524332303a20617070726f766520746f20746865207a65726f206164647265604482015261737360f01b6064820152608401610577565b6001600160a01b0383811660008181526034602090815260408083209487168084529482529182902085905590518481527f8c5be1e5ebec7d5bd14f71427d1e84f3dd0314c0f7b2291e5b200ac8c7c3b925910160405180910390a3505050565b6001600160a01b038316610b0c5760405162461bcd60e51b815260206004820152602560248201527f45524332303a207472616e736665722066726f6d20746865207a65726f20616460448201527f64726573730000000000000000000000000000000000000000000000000000006064820152608401610577565b6001600160a01b038216610b6e5760405162461bcd60e51b815260206004820152602360248201527f45524332303a207472616e7366657220746f20746865207a65726f206164647260448201526265737360e81b6064820152608401610577565b6001600160a01b03831660009081526033602052604090205481811015610bfd5760405162461bcd60e51b815260206004820152602660248201527f45524332303a207472616e7366657220616d6f756e742065786365656473206260448201527f616c616e636500000000000000000000000000000000000000000000000000006064820152608401610577565b6001600160a01b03808516600090815260336020526040808220858503905591851681529081208054849290610c349084906119d4565b92505081905550826001600160a01b0316846001600160a01b03167fddf252ad1be2c89b69c2b068fc378daa952ba7f163c4a11628f55a4df523b3ef84604051610c8091815260200190565b60405180910390a35b50505050565b60008281526097602090815260408083206001600160a01b038516845290915290205460ff1661064b57610ccd816001600160a01b031660146110aa565b610cd88360206110aa565b604051602001610ce99291906119ec565b60408051601f198184030181529082905262461bcd60e51b8252610577916004016116fa565b610d198282611253565b600082815260c9602052604090206105be90826112f5565b610d3b828261130a565b600082815260c9602052604090206105be908261138d565b6001600160a01b038216610da95760405162461bcd60e51b815260206004820152601f60248201527f45524332303a206d696e7420746f20746865207a65726f2061646472657373006044820152606401610577565b8060356000828254610dbb91906119d4565b90915550506001600160a01b03821660009081526033602052604081208054839290610de89084906119d4565b90915550506040518181526001600160a01b038316906000907fddf252ad1be2c89b69c2b068fc378daa952ba7f163c4a11628f55a4df523b3ef9060200160405180910390a35050565b600054610100900460ff16610e9d5760405162461bcd60e51b815260206004820152602b60248201527f496e697469616c697a61626c653a20636f6e7472616374206973206e6f74206960448201526a6e697469616c697a696e6760a81b6064820152608401610577565b610ea56113a2565b61064b828261140d565b600054610100900460ff16610f1a5760405162461bcd60e51b815260206004820152602b60248201527f496e697469616c697a61626c653a20636f6e7472616374206973206e6f74206960448201526a6e697469616c697a696e6760a81b6064820152608401610577565b610f226113a2565b610f2a6113a2565b610f326113a2565b610f3a6113a2565b565b61064b8282610d0f565b60006107eb838361149f565b6001600160a01b038216610fb25760405162461bcd60e51b815260206004820152602160248201527f45524332303a206275726e2066726f6d20746865207a65726f206164647265736044820152607360f81b6064820152608401610577565b6001600160a01b038216600090815260336020526040902054818110156110265760405162461bcd60e51b815260206004820152602260248201527f45524332303a206275726e20616d6f756e7420657863656564732062616c616e604482015261636560f01b6064820152608401610577565b6001600160a01b0383166000908152603360205260408120838303905560358054849290611055908490611a6d565b90915550506040518281526000906001600160a01b038516907fddf252ad1be2c89b69c2b068fc378daa952ba7f163c4a11628f55a4df523b3ef9060200160405180910390a3505050565b6000610426825490565b606060006110b9836002611a84565b6110c49060026119d4565b67ffffffffffffffff8111156110dc576110dc61180f565b6040519080825280601f01601f191660200182016040528015611106576020820181803683370190505b509050600360fc1b8160008151811061112157611121611aa3565b60200101906001600160f81b031916908160001a905350600f60fb1b8160018151811061115057611150611aa3565b60200101906001600160f81b031916908160001a9053506000611174846002611a84565b61117f9060016119d4565b90505b6001811115611204577f303132333435363738396162636465660000000000000000000000000000000085600f16601081106111c0576111c0611aa3565b1a60f81b8282815181106111d6576111d6611aa3565b60200101906001600160f81b031916908160001a90535060049490941c936111fd81611ab9565b9050611182565b5083156107eb5760405162461bcd60e51b815260206004820181905260248201527f537472696e67733a20686578206c656e67746820696e73756666696369656e746044820152606401610577565b60008281526097602090815260408083206001600160a01b038516845290915290205460ff1661064b5760008281526097602090815260408083206001600160a01b03851684529091529020805460ff191660011790556112b13390565b6001600160a01b0316816001600160a01b0316837f2f8788117e7eff1d82e926ec794901d17c78024a50270940304540a733656f0d60405160405180910390a45050565b60006107eb836001600160a01b0384166114c9565b60008281526097602090815260408083206001600160a01b038516845290915290205460ff161561064b5760008281526097602090815260408083206001600160a01b0385168085529252808320805460ff1916905551339285917ff6391f5c32d9c69d2a47ea670b442974b53935d1edc7fd64eb21e047a839171b9190a45050565b60006107eb836001600160a01b038416611518565b600054610100900460ff16610f3a5760405162461bcd60e51b815260206004820152602b60248201527f496e697469616c697a61626c653a20636f6e7472616374206973206e6f74206960448201526a6e697469616c697a696e6760a81b6064820152608401610577565b600054610100900460ff166114785760405162461bcd60e51b815260206004820152602b60248201527f496e697469616c697a61626c653a20636f6e7472616374206973206e6f74206960448201526a6e697469616c697a696e6760a81b6064820152608401610577565b815161148b90603690602085019061160b565b5080516105be90603790602084019061160b565b60008260000182815481106114b6576114b6611aa3565b9060005260206000200154905092915050565b600081815260018301602052604081205461151057508154600181810184556000848152602080822090930184905584548482528286019093526040902091909155610426565b506000610426565b6000818152600183016020526040812054801561160157600061153c600183611a6d565b855490915060009061155090600190611a6d565b90508181146115b557600086600001828154811061157057611570611aa3565b906000526020600020015490508087600001848154811061159357611593611aa3565b6000918252602080832090910192909255918252600188019052604090208390555b85548690806115c6576115c6611ad0565b600190038181906000526020600020016000905590558560010160008681526020019081526020016000206000905560019350505050610426565b6000915050610426565b82805461161790611983565b90600052602060002090601f016020900481019282611639576000855561167f565b82601f1061165257805160ff191683800117855561167f565b8280016001018555821561167f579182015b8281111561167f578251825591602001919060010190611664565b5061168b92915061168f565b5090565b5b8082111561168b5760008155600101611690565b6000602082840312156116b657600080fd5b81356001600160e01b0319811681146107eb57600080fd5b60005b838110156116e95781810151838201526020016116d1565b83811115610c895750506000910152565b60208152600082518060208401526117198160408501602087016116ce565b601f01601f19169190910160400192915050565b80356001600160a01b038116811461174457600080fd5b919050565b6000806040838503121561175c57600080fd5b6117658361172d565b946020939093013593505050565b60008060006060848603121561178857600080fd5b6117918461172d565b925061179f6020850161172d565b9150604084013590509250925092565b6000602082840312156117c157600080fd5b5035919050565b600080604083850312156117db57600080fd5b823591506117eb6020840161172d565b90509250929050565b60006020828403121561180657600080fd5b6107eb8261172d565b634e487b7160e01b600052604160045260246000fd5b600082601f83011261183657600080fd5b813567ffffffffffffffff808211156118515761185161180f565b604051601f8301601f19908116603f011681019082821181831017156118795761187961180f565b8160405283815286602085880101111561189257600080fd5b836020870160208301376000602085830101528094505050505092915050565b600080600080608085870312156118c857600080fd5b843567ffffffffffffffff808211156118e057600080fd5b6118ec88838901611825565b9550602087013591508082111561190257600080fd5b5061190f87828801611825565b93505061191e6040860161172d565b915061192c6060860161172d565b905092959194509250565b6000806040838503121561194a57600080fd5b50508035926020909101359150565b6000806040838503121561196c57600080fd5b6119758361172d565b91506117eb6020840161172d565b600181811c9082168061199757607f821691505b602082108114156119b857634e487b7160e01b600052602260045260246000fd5b50919050565b634e487b7160e01b600052601160045260246000fd5b600082198211156119e7576119e76119be565b500190565b7f416363657373436f6e74726f6c3a206163636f756e7420000000000000000000815260008351611a248160178501602088016116ce565b7f206973206d697373696e6720726f6c65200000000000000000000000000000006017918401918201528351611a618160288401602088016116ce565b01602801949350505050565b600082821015611a7f57611a7f6119be565b500390565b6000816000190483118215151615611a9e57611a9e6119be565b500290565b634e487b7160e01b600052603260045260246000fd5b600081611ac857611ac86119be565b506000190190565b634e487b7160e01b600052603160045260246000fdfea164736f6c634300080a000a",
    "devdoc": {
        "details": "Extension of {ERC20} that restricts token minting and burning to the contract's owner. Tokens can be minted to any address, but can only be burned from the owner's address.",
        "kind": "dev",
        "methods": {
            "allowance(address,address)": {
                "details": "See {IERC20-allowance}."
            },
            "approve(address,uint256)": {
                "details": "See {IERC20-approve}. Requirements: - `spender` cannot be the zero address."
            },
            "balanceOf(address)": {
                "details": "See {IERC20-balanceOf}."
            },
            "burn(address,uint256)": {
                "details": "Only callable by operator.",
                "params": {
                    "_account": "The address to burn tokens from.",
                    "_amount": "The amount of tokens to burn."
                }
            },
            "constructor": {
                "details": "Protects against a call to initialize when this contract is called directly without a proxy."
            },
            "decimals()": {
                "details": "Returns the number of decimals used to get its user representation. For example, if `decimals` equals `2`, a balance of `505` tokens should be displayed to a user as `5.05` (`505 / 10 ** 2`). Tokens usually opt for a value of 18, imitating the relationship between Ether and Wei. This is the value {ERC20} uses, unless this function is overridden; NOTE: This information is only used for _display_ purposes: it in no way affects any of the arithmetic of the contract, including {IERC20-balanceOf} and {IERC20-transfer}."
            },
            "decreaseAllowance(address,uint256)": {
                "details": "Atomically decreases the allowance granted to `spender` by the caller. This is an alternative to {approve} that can be used as a mitigation for problems described in {IERC20-approve}. Emits an {Approval} event indicating the updated allowance. Requirements: - `spender` cannot be the zero address. - `spender` must have allowance for the caller of at least `subtractedValue`."
            },
            "getRoleAdmin(bytes32)": {
                "details": "Returns the admin role that controls `role`. See {grantRole} and {revokeRole}. To change a role's admin, use {_setRoleAdmin}."
            },
            "getRoleMember(bytes32,uint256)": {
                "details": "Returns one of the accounts that have `role`. `index` must be a value between 0 and {getRoleMemberCount}, non-inclusive. Role bearers are not sorted in any particular way, and their ordering may change at any point. WARNING: When using {getRoleMember} and {getRoleMemberCount}, make sure you perform all queries on the same block. See the following https://forum.openzeppelin.com/t/iterating-over-elements-on-enumerableset-in-openzeppelin-contracts/2296[forum post] for more information."
            },
            "getRoleMemberCount(bytes32)": {
                "details": "Returns the number of accounts that have `role`. Can be used together with {getRoleMember} to enumerate all bearers of a role."
            },
            "grantRole(bytes32,address)": {
                "details": "Grants `role` to `account`. If `account` had not been already granted `role`, emits a {RoleGranted} event. Requirements: - the caller must have ``role``'s admin role."
            },
            "hasRole(bytes32,address)": {
                "details": "Returns `true` if `account` has been granted `role`."
            },
            "increaseAllowance(address,uint256)": {
                "details": "Atomically increases the allowance granted to `spender` by the caller. This is an alternative to {approve} that can be used as a mitigation for problems described in {IERC20-approve}. Emits an {Approval} event indicating the updated allowance. Requirements: - `spender` cannot be the zero address."
            },
            "initialize(string,string,address,address)": {
                "details": "Intended to be operated by the Kresko smart contract.",
                "params": {
                    "_name": "The name of the KreskoAsset.",
                    "_operator": "The mint/burn operator.",
                    "_owner": "The owner of this contract.",
                    "_symbol": "The symbol of the KreskoAsset."
                }
            },
            "mint(address,uint256)": {
                "details": "Only callable by operator.",
                "params": {
                    "_account": "The recipient address of the mint.",
                    "_amount": "The amount of tokens to mint."
                }
            },
            "name()": {
                "details": "Returns the name of the token."
            },
            "renounceRole(bytes32,address)": {
                "details": "Revokes `role` from the calling account. Roles are often managed via {grantRole} and {revokeRole}: this function's purpose is to provide a mechanism for accounts to lose their privileges if they are compromised (such as when a trusted device is misplaced). If the calling account had been revoked `role`, emits a {RoleRevoked} event. Requirements: - the caller must be `account`."
            },
            "revokeRole(bytes32,address)": {
                "details": "Revokes `role` from `account`. If `account` had been granted `role`, emits a {RoleRevoked} event. Requirements: - the caller must have ``role``'s admin role."
            },
            "supportsInterface(bytes4)": {
                "details": "See {IERC165-supportsInterface}."
            },
            "symbol()": {
                "details": "Returns the symbol of the token, usually a shorter version of the name."
            },
            "totalSupply()": {
                "details": "See {IERC20-totalSupply}."
            },
            "transfer(address,uint256)": {
                "details": "See {IERC20-transfer}. Requirements: - `recipient` cannot be the zero address. - the caller must have a balance of at least `amount`."
            },
            "transferFrom(address,address,uint256)": {
                "details": "See {IERC20-transferFrom}. Emits an {Approval} event indicating the updated allowance. This is not required by the EIP. See the note at the beginning of {ERC20}. Requirements: - `sender` and `recipient` cannot be the zero address. - `sender` must have a balance of at least `amount`. - the caller must have allowance for ``sender``'s tokens of at least `amount`."
            }
        },
        "version": 1
    },
    "userdoc": {
        "kind": "user",
        "methods": {
            "burn(address,uint256)": {
                "notice": "Burns tokens from an address."
            },
            "constructor": {
                "notice": "Empty constructor, see `initialize`."
            },
            "initialize(string,string,address,address)": {
                "notice": "Initializes a KreskoAsset ERC20 token."
            },
            "mint(address,uint256)": {
                "notice": "Mints tokens to an address."
            }
        },
        "version": 1
    },
    "storageLayout": {
        "storage": [
            {
                "astId": 597,
                "contract": "src/contracts/KreskoAsset.sol:KreskoAsset",
                "label": "_initialized",
                "offset": 0,
                "slot": "0",
                "type": "t_bool"
            },
            {
                "astId": 600,
                "contract": "src/contracts/KreskoAsset.sol:KreskoAsset",
                "label": "_initializing",
                "offset": 1,
                "slot": "0",
                "type": "t_bool"
            },
            {
                "astId": 1910,
                "contract": "src/contracts/KreskoAsset.sol:KreskoAsset",
                "label": "__gap",
                "offset": 0,
                "slot": "1",
                "type": "t_array(t_uint256)50_storage"
            },
            {
                "astId": 741,
                "contract": "src/contracts/KreskoAsset.sol:KreskoAsset",
                "label": "_balances",
                "offset": 0,
                "slot": "51",
                "type": "t_mapping(t_address,t_uint256)"
            },
            {
                "astId": 747,
                "contract": "src/contracts/KreskoAsset.sol:KreskoAsset",
                "label": "_allowances",
                "offset": 0,
                "slot": "52",
                "type": "t_mapping(t_address,t_mapping(t_address,t_uint256))"
            },
            {
                "astId": 749,
                "contract": "src/contracts/KreskoAsset.sol:KreskoAsset",
                "label": "_totalSupply",
                "offset": 0,
                "slot": "53",
                "type": "t_uint256"
            },
            {
                "astId": 751,
                "contract": "src/contracts/KreskoAsset.sol:KreskoAsset",
                "label": "_name",
                "offset": 0,
                "slot": "54",
                "type": "t_string_storage"
            },
            {
                "astId": 753,
                "contract": "src/contracts/KreskoAsset.sol:KreskoAsset",
                "label": "_symbol",
                "offset": 0,
                "slot": "55",
                "type": "t_string_storage"
            },
            {
                "astId": 1294,
                "contract": "src/contracts/KreskoAsset.sol:KreskoAsset",
                "label": "__gap",
                "offset": 0,
                "slot": "56",
                "type": "t_array(t_uint256)45_storage"
            },
            {
                "astId": 2159,
                "contract": "src/contracts/KreskoAsset.sol:KreskoAsset",
                "label": "__gap",
                "offset": 0,
                "slot": "101",
                "type": "t_array(t_uint256)50_storage"
            },
            {
                "astId": 204,
                "contract": "src/contracts/KreskoAsset.sol:KreskoAsset",
                "label": "_roles",
                "offset": 0,
                "slot": "151",
                "type": "t_mapping(t_bytes32,t_struct(RoleData)199_storage)"
            },
            {
                "astId": 491,
                "contract": "src/contracts/KreskoAsset.sol:KreskoAsset",
                "label": "__gap",
                "offset": 0,
                "slot": "152",
                "type": "t_array(t_uint256)49_storage"
            },
            {
                "astId": 45,
                "contract": "src/contracts/KreskoAsset.sol:KreskoAsset",
                "label": "_roleMembers",
                "offset": 0,
                "slot": "201",
                "type": "t_mapping(t_bytes32,t_struct(AddressSet)2860_storage)"
            },
            {
                "astId": 154,
                "contract": "src/contracts/KreskoAsset.sol:KreskoAsset",
                "label": "__gap",
                "offset": 0,
                "slot": "202",
                "type": "t_array(t_uint256)49_storage"
            }
        ],
        "types": {
            "t_address": {
                "encoding": "inplace",
                "label": "address",
                "numberOfBytes": "20"
            },
            "t_array(t_bytes32)dyn_storage": {
                "base": "t_bytes32",
                "encoding": "dynamic_array",
                "label": "bytes32[]",
                "numberOfBytes": "32"
            },
            "t_array(t_uint256)45_storage": {
                "base": "t_uint256",
                "encoding": "inplace",
                "label": "uint256[45]",
                "numberOfBytes": "1440"
            },
            "t_array(t_uint256)49_storage": {
                "base": "t_uint256",
                "encoding": "inplace",
                "label": "uint256[49]",
                "numberOfBytes": "1568"
            },
            "t_array(t_uint256)50_storage": {
                "base": "t_uint256",
                "encoding": "inplace",
                "label": "uint256[50]",
                "numberOfBytes": "1600"
            },
            "t_bool": {
                "encoding": "inplace",
                "label": "bool",
                "numberOfBytes": "1"
            },
            "t_bytes32": {
                "encoding": "inplace",
                "label": "bytes32",
                "numberOfBytes": "32"
            },
            "t_mapping(t_address,t_bool)": {
                "encoding": "mapping",
                "key": "t_address",
                "label": "mapping(address => bool)",
                "numberOfBytes": "32",
                "value": "t_bool"
            },
            "t_mapping(t_address,t_mapping(t_address,t_uint256))": {
                "encoding": "mapping",
                "key": "t_address",
                "label": "mapping(address => mapping(address => uint256))",
                "numberOfBytes": "32",
                "value": "t_mapping(t_address,t_uint256)"
            },
            "t_mapping(t_address,t_uint256)": {
                "encoding": "mapping",
                "key": "t_address",
                "label": "mapping(address => uint256)",
                "numberOfBytes": "32",
                "value": "t_uint256"
            },
            "t_mapping(t_bytes32,t_struct(AddressSet)2860_storage)": {
                "encoding": "mapping",
                "key": "t_bytes32",
                "label": "mapping(bytes32 => struct EnumerableSetUpgradeable.AddressSet)",
                "numberOfBytes": "32",
                "value": "t_struct(AddressSet)2860_storage"
            },
            "t_mapping(t_bytes32,t_struct(RoleData)199_storage)": {
                "encoding": "mapping",
                "key": "t_bytes32",
                "label": "mapping(bytes32 => struct AccessControlUpgradeable.RoleData)",
                "numberOfBytes": "32",
                "value": "t_struct(RoleData)199_storage"
            },
            "t_mapping(t_bytes32,t_uint256)": {
                "encoding": "mapping",
                "key": "t_bytes32",
                "label": "mapping(bytes32 => uint256)",
                "numberOfBytes": "32",
                "value": "t_uint256"
            },
            "t_string_storage": {
                "encoding": "bytes",
                "label": "string",
                "numberOfBytes": "32"
            },
            "t_struct(AddressSet)2860_storage": {
                "encoding": "inplace",
                "label": "struct EnumerableSetUpgradeable.AddressSet",
                "members": [
                    {
                        "astId": 2859,
                        "contract": "src/contracts/KreskoAsset.sol:KreskoAsset",
                        "label": "_inner",
                        "offset": 0,
                        "slot": "0",
                        "type": "t_struct(Set)2559_storage"
                    }
                ],
                "numberOfBytes": "64"
            },
            "t_struct(RoleData)199_storage": {
                "encoding": "inplace",
                "label": "struct AccessControlUpgradeable.RoleData",
                "members": [
                    {
                        "astId": 196,
                        "contract": "src/contracts/KreskoAsset.sol:KreskoAsset",
                        "label": "members",
                        "offset": 0,
                        "slot": "0",
                        "type": "t_mapping(t_address,t_bool)"
                    },
                    {
                        "astId": 198,
                        "contract": "src/contracts/KreskoAsset.sol:KreskoAsset",
                        "label": "adminRole",
                        "offset": 0,
                        "slot": "1",
                        "type": "t_bytes32"
                    }
                ],
                "numberOfBytes": "64"
            },
            "t_struct(Set)2559_storage": {
                "encoding": "inplace",
                "label": "struct EnumerableSetUpgradeable.Set",
                "members": [
                    {
                        "astId": 2554,
                        "contract": "src/contracts/KreskoAsset.sol:KreskoAsset",
                        "label": "_values",
                        "offset": 0,
                        "slot": "0",
                        "type": "t_array(t_bytes32)dyn_storage"
                    },
                    {
                        "astId": 2558,
                        "contract": "src/contracts/KreskoAsset.sol:KreskoAsset",
                        "label": "_indexes",
                        "offset": 0,
                        "slot": "1",
                        "type": "t_mapping(t_bytes32,t_uint256)"
                    }
                ],
                "numberOfBytes": "64"
            },
            "t_uint256": {
                "encoding": "inplace",
                "label": "uint256",
                "numberOfBytes": "32"
            }
        }
    }
}