{
    "address": "0xC2c165F6C0bc9c2D3B1E2574f1f901d5a9c32837",
    "abi": [
        {
            "anonymous": false,
            "inputs": [
                {
                    "indexed": true,
                    "internalType": "address",
                    "name": "user",
                    "type": "address"
                },
                {
                    "indexed": true,
                    "internalType": "address",
                    "name": "rewardToken",
                    "type": "address"
                },
                {
                    "indexed": true,
                    "internalType": "uint256",
                    "name": "amount",
                    "type": "uint256"
                }
            ],
            "name": "ClaimRewards",
            "type": "event"
        },
        {
            "anonymous": false,
            "inputs": [
                {
                    "indexed": true,
                    "internalType": "address",
                    "name": "user",
                    "type": "address"
                },
                {
                    "indexed": true,
                    "internalType": "uint256",
                    "name": "pid",
                    "type": "uint256"
                },
                {
                    "indexed": true,
                    "internalType": "uint256",
                    "name": "amount",
                    "type": "uint256"
                }
            ],
            "name": "Deposit",
            "type": "event"
        },
        {
            "anonymous": false,
            "inputs": [
                {
                    "indexed": true,
                    "internalType": "address",
                    "name": "user",
                    "type": "address"
                },
                {
                    "indexed": true,
                    "internalType": "uint256",
                    "name": "pid",
                    "type": "uint256"
                },
                {
                    "indexed": true,
                    "internalType": "uint256",
                    "name": "amount",
                    "type": "uint256"
                }
            ],
            "name": "EmergencyWithdraw",
            "type": "event"
        },
        {
            "anonymous": false,
            "inputs": [
                {
                    "indexed": true,
                    "internalType": "bytes32",
                    "name": "role",
                    "type": "bytes32"
                },
                {
                    "indexed": true,
                    "internalType": "bytes32",
                    "name": "previousAdminRole",
                    "type": "bytes32"
                },
                {
                    "indexed": true,
                    "internalType": "bytes32",
                    "name": "newAdminRole",
                    "type": "bytes32"
                }
            ],
            "name": "RoleAdminChanged",
            "type": "event"
        },
        {
            "anonymous": false,
            "inputs": [
                {
                    "indexed": true,
                    "internalType": "bytes32",
                    "name": "role",
                    "type": "bytes32"
                },
                {
                    "indexed": true,
                    "internalType": "address",
                    "name": "account",
                    "type": "address"
                },
                {
                    "indexed": true,
                    "internalType": "address",
                    "name": "sender",
                    "type": "address"
                }
            ],
            "name": "RoleGranted",
            "type": "event"
        },
        {
            "anonymous": false,
            "inputs": [
                {
                    "indexed": true,
                    "internalType": "bytes32",
                    "name": "role",
                    "type": "bytes32"
                },
                {
                    "indexed": true,
                    "internalType": "address",
                    "name": "account",
                    "type": "address"
                },
                {
                    "indexed": true,
                    "internalType": "address",
                    "name": "sender",
                    "type": "address"
                }
            ],
            "name": "RoleRevoked",
            "type": "event"
        },
        {
            "anonymous": false,
            "inputs": [
                {
                    "indexed": true,
                    "internalType": "address",
                    "name": "user",
                    "type": "address"
                },
                {
                    "indexed": true,
                    "internalType": "uint256",
                    "name": "pid",
                    "type": "uint256"
                },
                {
                    "indexed": true,
                    "internalType": "uint256",
                    "name": "amount",
                    "type": "uint256"
                }
            ],
            "name": "Withdraw",
            "type": "event"
        },
        {
            "inputs": [],
            "name": "DEFAULT_ADMIN_ROLE",
            "outputs": [
                {
                    "internalType": "bytes32",
                    "name": "",
                    "type": "bytes32"
                }
            ],
            "stateMutability": "view",
            "type": "function"
        },
        {
            "inputs": [],
            "name": "OPERATOR_ROLE",
            "outputs": [
                {
                    "internalType": "bytes32",
                    "name": "",
                    "type": "bytes32"
                }
            ],
            "stateMutability": "view",
            "type": "function"
        },
        {
            "inputs": [
                {
                    "internalType": "address[]",
                    "name": "_rewardTokens",
                    "type": "address[]"
                },
                {
                    "internalType": "contract IERC20",
                    "name": "_depositToken",
                    "type": "address"
                },
                {
                    "internalType": "uint128",
                    "name": "_allocPoint",
                    "type": "uint128"
                },
                {
                    "internalType": "uint128",
                    "name": "_startBlock",
                    "type": "uint128"
                }
            ],
            "name": "addPool",
            "outputs": [],
            "stateMutability": "payable",
            "type": "function"
        },
        {
            "inputs": [
                {
                    "internalType": "address",
                    "name": "_account",
                    "type": "address"
                }
            ],
            "name": "allPendingRewards",
            "outputs": [
                {
                    "components": [
                        {
                            "internalType": "uint256",
                            "name": "pid",
                            "type": "uint256"
                        },
                        {
                            "internalType": "address[]",
                            "name": "tokens",
                            "type": "address[]"
                        },
                        {
                            "internalType": "uint256[]",
                            "name": "amounts",
                            "type": "uint256[]"
                        }
                    ],
                    "internalType": "struct KrStaking.Reward[]",
                    "name": "allRewards",
                    "type": "tuple[]"
                }
            ],
            "stateMutability": "view",
            "type": "function"
        },
        {
            "inputs": [
                {
                    "internalType": "uint256",
                    "name": "_pid",
                    "type": "uint256"
                },
                {
                    "internalType": "address",
                    "name": "_rewardRecipient",
                    "type": "address"
                }
            ],
            "name": "claim",
            "outputs": [],
            "stateMutability": "payable",
            "type": "function"
        },
        {
            "inputs": [
                {
                    "internalType": "address",
                    "name": "_for",
                    "type": "address"
                },
                {
                    "internalType": "uint256",
                    "name": "_pid",
                    "type": "uint256"
                },
                {
                    "internalType": "address",
                    "name": "_rewardRecipient",
                    "type": "address"
                }
            ],
            "name": "claimFor",
            "outputs": [],
            "stateMutability": "payable",
            "type": "function"
        },
        {
            "inputs": [
                {
                    "internalType": "address",
                    "name": "_to",
                    "type": "address"
                },
                {
                    "internalType": "uint256",
                    "name": "_pid",
                    "type": "uint256"
                },
                {
                    "internalType": "uint256",
                    "name": "_amount",
                    "type": "uint256"
                }
            ],
            "name": "deposit",
            "outputs": [],
            "stateMutability": "payable",
            "type": "function"
        },
        {
            "inputs": [
                {
                    "internalType": "uint256",
                    "name": "_pid",
                    "type": "uint256"
                }
            ],
            "name": "emergencyWithdraw",
            "outputs": [],
            "stateMutability": "payable",
            "type": "function"
        },
        {
            "inputs": [
                {
                    "internalType": "address",
                    "name": "_depositToken",
                    "type": "address"
                }
            ],
            "name": "getPidFor",
            "outputs": [
                {
                    "internalType": "uint256",
                    "name": "pid",
                    "type": "uint256"
                },
                {
                    "internalType": "bool",
                    "name": "found",
                    "type": "bool"
                }
            ],
            "stateMutability": "view",
            "type": "function"
        },
        {
            "inputs": [
                {
                    "internalType": "bytes32",
                    "name": "role",
                    "type": "bytes32"
                }
            ],
            "name": "getRoleAdmin",
            "outputs": [
                {
                    "internalType": "bytes32",
                    "name": "",
                    "type": "bytes32"
                }
            ],
            "stateMutability": "view",
            "type": "function"
        },
        {
            "inputs": [
                {
                    "internalType": "bytes32",
                    "name": "role",
                    "type": "bytes32"
                },
                {
                    "internalType": "address",
                    "name": "account",
                    "type": "address"
                }
            ],
            "name": "grantRole",
            "outputs": [],
            "stateMutability": "nonpayable",
            "type": "function"
        },
        {
            "inputs": [
                {
                    "internalType": "bytes32",
                    "name": "role",
                    "type": "bytes32"
                },
                {
                    "internalType": "address",
                    "name": "account",
                    "type": "address"
                }
            ],
            "name": "hasRole",
            "outputs": [
                {
                    "internalType": "bool",
                    "name": "",
                    "type": "bool"
                }
            ],
            "stateMutability": "view",
            "type": "function"
        },
        {
            "inputs": [
                {
                    "internalType": "address[]",
                    "name": "_rewardTokens",
                    "type": "address[]"
                },
                {
                    "internalType": "uint256[]",
                    "name": "_rewardPerBlocks",
                    "type": "uint256[]"
                },
                {
                    "internalType": "contract IERC20",
                    "name": "_depositToken",
                    "type": "address"
                },
                {
                    "internalType": "uint128",
                    "name": "_allocPoint",
                    "type": "uint128"
                },
                {
                    "internalType": "uint128",
                    "name": "_startBlock",
                    "type": "uint128"
                }
            ],
            "name": "initialize",
            "outputs": [],
            "stateMutability": "nonpayable",
            "type": "function"
        },
        {
            "inputs": [],
            "name": "massUpdatePools",
            "outputs": [],
            "stateMutability": "payable",
            "type": "function"
        },
        {
            "inputs": [
                {
                    "internalType": "uint256",
                    "name": "_pid",
                    "type": "uint256"
                },
                {
                    "internalType": "address",
                    "name": "_user",
                    "type": "address"
                }
            ],
            "name": "pendingRewards",
            "outputs": [
                {
                    "components": [
                        {
                            "internalType": "uint256",
                            "name": "pid",
                            "type": "uint256"
                        },
                        {
                            "internalType": "address[]",
                            "name": "tokens",
                            "type": "address[]"
                        },
                        {
                            "internalType": "uint256[]",
                            "name": "amounts",
                            "type": "uint256[]"
                        }
                    ],
                    "internalType": "struct KrStaking.Reward",
                    "name": "rewards",
                    "type": "tuple"
                }
            ],
            "stateMutability": "view",
            "type": "function"
        },
        {
            "inputs": [
                {
                    "internalType": "uint256",
                    "name": "_pid",
                    "type": "uint256"
                }
            ],
            "name": "poolInfo",
            "outputs": [
                {
                    "components": [
                        {
                            "internalType": "contract IERC20",
                            "name": "depositToken",
                            "type": "address"
                        },
                        {
                            "internalType": "uint128",
                            "name": "allocPoint",
                            "type": "uint128"
                        },
                        {
                            "internalType": "uint128",
                            "name": "lastRewardBlock",
                            "type": "uint128"
                        },
                        {
                            "internalType": "uint256[]",
                            "name": "accRewardPerShares",
                            "type": "uint256[]"
                        },
                        {
                            "internalType": "address[]",
                            "name": "rewardTokens",
                            "type": "address[]"
                        }
                    ],
                    "internalType": "struct KrStaking.PoolInfo",
                    "name": "",
                    "type": "tuple"
                }
            ],
            "stateMutability": "view",
            "type": "function"
        },
        {
            "inputs": [],
            "name": "poolLength",
            "outputs": [
                {
                    "internalType": "uint256",
                    "name": "",
                    "type": "uint256"
                }
            ],
            "stateMutability": "view",
            "type": "function"
        },
        {
            "inputs": [
                {
                    "internalType": "bytes32",
                    "name": "role",
                    "type": "bytes32"
                },
                {
                    "internalType": "address",
                    "name": "account",
                    "type": "address"
                }
            ],
            "name": "renounceRole",
            "outputs": [],
            "stateMutability": "nonpayable",
            "type": "function"
        },
        {
            "inputs": [],
            "name": "rescueNative",
            "outputs": [],
            "stateMutability": "payable",
            "type": "function"
        },
        {
            "inputs": [
                {
                    "internalType": "contract IERC20",
                    "name": "_tokenToRescue",
                    "type": "address"
                },
                {
                    "internalType": "uint256",
                    "name": "_amount",
                    "type": "uint256"
                }
            ],
            "name": "rescueNonPoolToken",
            "outputs": [],
            "stateMutability": "payable",
            "type": "function"
        },
        {
            "inputs": [
                {
                    "internalType": "bytes32",
                    "name": "role",
                    "type": "bytes32"
                },
                {
                    "internalType": "address",
                    "name": "account",
                    "type": "address"
                }
            ],
            "name": "revokeRole",
            "outputs": [],
            "stateMutability": "nonpayable",
            "type": "function"
        },
        {
            "inputs": [
                {
                    "internalType": "address",
                    "name": "",
                    "type": "address"
                }
            ],
            "name": "rewardPerBlockFor",
            "outputs": [
                {
                    "internalType": "uint256",
                    "name": "",
                    "type": "uint256"
                }
            ],
            "stateMutability": "view",
            "type": "function"
        },
        {
            "inputs": [
                {
                    "internalType": "uint256",
                    "name": "_pid",
                    "type": "uint256"
                },
                {
                    "internalType": "uint128",
                    "name": "_newAllocPoint",
                    "type": "uint128"
                }
            ],
            "name": "setPool",
            "outputs": [],
            "stateMutability": "payable",
            "type": "function"
        },
        {
            "inputs": [
                {
                    "internalType": "address",
                    "name": "_rewardToken",
                    "type": "address"
                },
                {
                    "internalType": "uint256",
                    "name": "_rewardPerBlock",
                    "type": "uint256"
                }
            ],
            "name": "setRewardPerBlockFor",
            "outputs": [],
            "stateMutability": "payable",
            "type": "function"
        },
        {
            "inputs": [
                {
                    "internalType": "bytes4",
                    "name": "interfaceId",
                    "type": "bytes4"
                }
            ],
            "name": "supportsInterface",
            "outputs": [
                {
                    "internalType": "bool",
                    "name": "",
                    "type": "bool"
                }
            ],
            "stateMutability": "view",
            "type": "function"
        },
        {
            "inputs": [],
            "name": "totalAllocPoint",
            "outputs": [
                {
                    "internalType": "uint128",
                    "name": "",
                    "type": "uint128"
                }
            ],
            "stateMutability": "view",
            "type": "function"
        },
        {
            "inputs": [
                {
                    "internalType": "uint256",
                    "name": "_pid",
                    "type": "uint256"
                }
            ],
            "name": "updatePool",
            "outputs": [
                {
                    "components": [
                        {
                            "internalType": "contract IERC20",
                            "name": "depositToken",
                            "type": "address"
                        },
                        {
                            "internalType": "uint128",
                            "name": "allocPoint",
                            "type": "uint128"
                        },
                        {
                            "internalType": "uint128",
                            "name": "lastRewardBlock",
                            "type": "uint128"
                        },
                        {
                            "internalType": "uint256[]",
                            "name": "accRewardPerShares",
                            "type": "uint256[]"
                        },
                        {
                            "internalType": "address[]",
                            "name": "rewardTokens",
                            "type": "address[]"
                        }
                    ],
                    "internalType": "struct KrStaking.PoolInfo",
                    "name": "pool",
                    "type": "tuple"
                }
            ],
            "stateMutability": "payable",
            "type": "function"
        },
        {
            "inputs": [
                {
                    "internalType": "uint256",
                    "name": "_pid",
                    "type": "uint256"
                },
                {
                    "internalType": "address",
                    "name": "_account",
                    "type": "address"
                }
            ],
            "name": "userInfo",
            "outputs": [
                {
                    "components": [
                        {
                            "internalType": "uint256",
                            "name": "amount",
                            "type": "uint256"
                        },
                        {
                            "internalType": "uint256[]",
                            "name": "rewardDebts",
                            "type": "uint256[]"
                        }
                    ],
                    "internalType": "struct KrStaking.UserInfo",
                    "name": "",
                    "type": "tuple"
                }
            ],
            "stateMutability": "view",
            "type": "function"
        },
        {
            "inputs": [
                {
                    "internalType": "uint256",
                    "name": "_pid",
                    "type": "uint256"
                },
                {
                    "internalType": "uint256",
                    "name": "_amount",
                    "type": "uint256"
                },
                {
                    "internalType": "address",
                    "name": "_rewardRecipient",
                    "type": "address"
                }
            ],
            "name": "withdraw",
            "outputs": [],
            "stateMutability": "payable",
            "type": "function"
        },
        {
            "inputs": [
                {
                    "internalType": "address",
                    "name": "_for",
                    "type": "address"
                },
                {
                    "internalType": "uint256",
                    "name": "_pid",
                    "type": "uint256"
                },
                {
                    "internalType": "uint256",
                    "name": "_amount",
                    "type": "uint256"
                },
                {
                    "internalType": "address",
                    "name": "_rewardRecipient",
                    "type": "address"
                }
            ],
            "name": "withdrawFor",
            "outputs": [],
            "stateMutability": "payable",
            "type": "function"
        }
    ],
    "transactionHash": "0x992d777a95e50bb870e5612b5781ca2c94bd129368a9221e6dcbdef269b8c44b",
    "args": [],
    "numDeployments": 1,
    "solcInputHash": "2aafaed9b8bd0478c07754209a9062a6",
    "bytecode": "0x608060405234801561001057600080fd5b5061382e806100206000396000f3fe6080604052600436106101cd5760003560e01c80635ea3f4fa116100f7578063ba8fc5bf11610095578063ddd5e1b211610064578063ddd5e1b214610527578063f5b541a61461053a578063f619753d1461056e578063fc82f0841461058e57600080fd5b8063ba8fc5bf14610492578063bf82b7b5146104c7578063d18df53c146104da578063d547741f1461050757600080fd5b806391d14854116100d157806391d14854146103f757806392bb9fbf1461043d57806393f1a40b14610450578063a217fddf1461047d57600080fd5b80635ea3f4fa14610395578063630b5ba1146103c257806368e2f7b7146103ca57600080fd5b806317caf6f11161016f57806343a4534b1161013e57806343a4534b146103495780634d7ee6441461035c57806351eb05a61461036f5780635312ea8e1461038257600080fd5b806317caf6f1146102a1578063248a9ca3146102d95780632f2ff15d1461030957806336568abe1461032957600080fd5b80630ad58d2f116101ab5780630ad58d2f1461023b5780630dbd1a381461024e5780630efe6a8b146102615780631526fe271461027457600080fd5b806301ffc9a7146101d25780630802f76814610207578063081e3eda1461021c575b600080fd5b3480156101de57600080fd5b506101f26101ed36600461308c565b610596565b60405190151581526020015b60405180910390f35b61021a61021536600461312e565b6105cd565b005b34801561022857600080fd5b5060cb545b6040519081526020016101fe565b61021a6102493660046131a5565b610877565b61021a61025c3660046131de565b610af3565b61021a61026f36600461320a565b610b1c565b34801561028057600080fd5b5061029461028f36600461323f565b610d87565b6040516101fe91906132cc565b3480156102ad57600080fd5b5060cc546102c1906001600160801b031681565b6040516001600160801b0390911681526020016101fe565b3480156102e557600080fd5b5061022d6102f436600461323f565b60009081526065602052604090206001015490565b34801561031557600080fd5b5061021a610324366004613344565b610ecf565b34801561033557600080fd5b5061021a610344366004613344565b610efa565b61021a610357366004613374565b610f86565b61021a61036a3660046133be565b611244565b61029461037d36600461323f565b611392565b61021a61039036600461323f565b611727565b3480156103a157600080fd5b506103b56103b03660046133ea565b611844565b6040516101fe919061343f565b61021a61190d565b3480156103d657600080fd5b5061022d6103e53660046133ea565b60ca6020526000908152604090205481565b34801561040357600080fd5b506101f2610412366004613344565b60009182526065602090815260408084206001600160a01b0393909316845291905290205460ff1690565b61021a61044b3660046131de565b611937565b34801561045c57600080fd5b5061047061046b366004613344565b6119f4565b6040516101fe91906134a1565b34801561048957600080fd5b5061022d600081565b34801561049e57600080fd5b506104b26104ad3660046133ea565b611a96565b604080519283529015156020830152016101fe565b61021a6104d53660046134c6565b611b00565b3480156104e657600080fd5b506104fa6104f5366004613344565b611d0d565b6040516101fe91906134fd565b34801561051357600080fd5b5061021a610522366004613344565b612194565b61021a610535366004613344565b6121ba565b34801561054657600080fd5b5061022d7f8952ae23cc3fea91b9dba0cefa16d18a26ca2bf124b54f42b5d04bce3aacecd281565b34801561057a57600080fd5b5061021a610589366004613510565b612391565b61021a6126f9565b60006001600160e01b03198216637965db0b60e01b14806105c757506301ffc9a760e01b6001600160e01b03198316145b92915050565b60006105d98133612731565b8360005b60cb5481101561067457816001600160a01b031660cb8281548110610604576106046135b3565b60009182526020909120600490910201546001600160a01b031614156106625760405162461bcd60e51b815260206004820152600e60248201526d4b523a20706f6f6c45786973747360901b60448201526064015b60405180910390fd5b8061066c816135df565b9150506105dd565b50856106c25760405162461bcd60e51b815260206004820152601160248201527f4b523a2021726577617264546f6b656e730000000000000000000000000000006044820152606401610659565b60cc80548591906000906106e09084906001600160801b03166135fa565b92506101000a8154816001600160801b0302191690836001600160801b0316021790555060cb6040518060a00160405280876001600160a01b03168152602001866001600160801b03168152602001856001600160801b0316600014156107475743610749565b855b6001600160801b031681526020018867ffffffffffffffff81111561077057610770613625565b604051908082528060200260200182016040528015610799578160200160208202803683370190505b5081526020018989808060200260200160405190810160405280939291908181526020018383602002808284376000920182905250939094525050835460018181018655948252602091829020845160049092020180546001600160a01b039092166001600160a01b03199092169190911781558184015160408501516001600160801b03908116600160801b02911617948101949094556060830151805193949361084f935060028501929190910190612fd7565b506080820151805161086b916003840191602090910190613022565b50505050505050505050565b600260975414156108ca5760405162461bcd60e51b815260206004820152601f60248201527f5265656e7472616e637947756172643a207265656e7472616e742063616c6c006044820152606401610659565b60026097558161090d5760405162461bcd60e51b815260206004820152600e60248201526d4b523a20302d776974686472617760901b6044820152606401610659565b6001600160a01b03811661095a5760405162461bcd60e51b815260206004820152601460248201527312d48e88085c995dd85c99149958da5c1a595b9d60621b6044820152606401610659565b600061096584611392565b600085815260c960209081526040808320338452825291829020825180840184528154815260018201805485518186028101860190965280865295965091946109f19487949293879385810193908301828280156109e257602002820191906000526020600020905b8154815260200190600101908083116109ce575b505050505081525050856127b1565b8054841115610a07578054600082559350610a21565b83816000016000828254610a1b919061363b565b90915550505b8151610a37906001600160a01b031633866128e4565b60005b826080015151811015610ab75764e8d4a5100083606001518281518110610a6357610a636135b3565b60200260200101518360000154610a7a9190613652565b610a849190613671565b826001018281548110610a9957610a996135b3565b60009182526020909120015580610aaf816135df565b915050610a3a565b506040518490869033907ff279e6a1f5e320cca91135676d9cb6e44ca8a08c0b88342bcdb1144f6511b56890600090a450506001609755505050565b6000610aff8133612731565b506001600160a01b03909116600090815260ca6020526040902055565b60026097541415610b6f5760405162461bcd60e51b815260206004820152601f60248201527f5265656e7472616e637947756172643a207265656e7472616e742063616c6c006044820152606401610659565b600260975560cb8054839160009183908110610b8d57610b8d6135b3565b60009182526020909120600490910201546001600160a01b03161415610be75760405162461bcd60e51b815260206004820152600f60248201526e4b523a2021706f6f6c45786973747360881b6044820152606401610659565b6000610bf284611392565b600085815260c9602090815260408083206001600160a01b038a1684529091529020600181015491925090610c815781608001515167ffffffffffffffff811115610c3f57610c3f613625565b604051908082528060200260200182016040528015610c68578160200160208202803683370190505b508051610c7f916001840191602090910190612fd7565b505b8151610c98906001600160a01b031633308761295c565b83816000016000828254610cac9190613693565b90915550600090505b826080015151811015610d415764e8d4a5100083606001518281518110610cde57610cde6135b3565b602002602001015186610cf19190613652565b610cfb9190613671565b826001018281548110610d1057610d106135b3565b906000526020600020016000828254610d299190613693565b90915550819050610d39816135df565b915050610cb5565b508385876001600160a01b03167f90890809c654f11d6e72a28fa60149770a0d11ec6c92319d6ceb2bb0a4ea1a1560405160405180910390a45050600160975550505050565b6040805160a081018252600080825260208201819052918101919091526060808201819052608082015260cb8281548110610dc457610dc46135b3565b60009182526020918290206040805160a081018252600490930290910180546001600160a01b0316835260018101546001600160801b0380821685870152600160801b909104168383015260028101805483518187028101870190945280845293949193606086019392830182828015610e5d57602002820191906000526020600020905b815481526020019060010190808311610e49575b5050505050815260200160038201805480602002602001604051908101604052809291908181526020018280548015610ebf57602002820191906000526020600020905b81546001600160a01b03168152600190910190602001808311610ea1575b5050505050815250509050919050565b600082815260656020526040902060010154610eeb8133612731565b610ef58383612994565b505050565b6001600160a01b0381163314610f785760405162461bcd60e51b815260206004820152602f60248201527f416363657373436f6e74726f6c3a2063616e206f6e6c792072656e6f756e636560448201527f20726f6c657320666f722073656c6600000000000000000000000000000000006064820152608401610659565b610f828282612a36565b5050565b60026097541415610fd95760405162461bcd60e51b815260206004820152601f60248201527f5265656e7472616e637947756172643a207265656e7472616e742063616c6c006044820152606401610659565b60026097557f8952ae23cc3fea91b9dba0cefa16d18a26ca2bf124b54f42b5d04bce3aacecd26110098133612731565b6000831161104a5760405162461bcd60e51b815260206004820152600e60248201526d4b523a20302d776974686472617760901b6044820152606401610659565b6001600160a01b0382166110975760405162461bcd60e51b815260206004820152601460248201527312d48e88085c995dd85c99149958da5c1a595b9d60621b6044820152606401610659565b60006110a285611392565b600086815260c9602090815260408083206001600160a01b038b1684528252918290208251808401845281548152600182018054855181860281018601909652808652959650919461113794879492938793858101939083018282801561112857602002820191906000526020600020905b815481526020019060010190808311611114575b505050505081525050866127b1565b805485111561114d578054600082559450611167565b84816000016000828254611161919061363b565b90915550505b815161117d906001600160a01b031633876128e4565b60005b8260800151518110156111fd5764e8d4a51000836060015182815181106111a9576111a96135b3565b602002602001015183600001546111c09190613652565b6111ca9190613671565b8260010182815481106111df576111df6135b3565b600091825260209091200155806111f5816135df565b915050611180565b508486886001600160a01b03167ff279e6a1f5e320cca91135676d9cb6e44ca8a08c0b88342bcdb1144f6511b56860405160405180910390a4505060016097555050505050565b60006112508133612731565b8260006001600160a01b031660cb828154811061126f5761126f6135b3565b60009182526020909120600490910201546001600160a01b031614156112c95760405162461bcd60e51b815260206004820152600f60248201526e4b523a2021706f6f6c45786973747360881b6044820152606401610659565b8260cb85815481106112dd576112dd6135b3565b600091825260209091206001600490920201015461130491906001600160801b03166135fa565b60cc805460009061131f9084906001600160801b03166136ab565b92506101000a8154816001600160801b0302191690836001600160801b031602179055508260cb8581548110611357576113576135b3565b906000526020600020906004020160010160006101000a8154816001600160801b0302191690836001600160801b0316021790555050505050565b6040805160a081018252600080825260208201819052918101919091526060808201819052608082015260cb82815481106113cf576113cf6135b3565b60009182526020918290206040805160a081018252600490930290910180546001600160a01b0316835260018101546001600160801b0380821685870152600160801b90910416838301526002810180548351818702810187019094528084529394919360608601939283018282801561146857602002820191906000526020600020905b815481526020019060010190808311611454575b50505050508152602001600382018054806020026020016040519081016040528092919081815260200182805480156114ca57602002820191906000526020600020905b81546001600160a01b031681526001909101906020018083116114ac575b505050505081525050905080604001516001600160801b03164311156117225780516040516370a0823160e01b81523060048201526000916001600160a01b0316906370a0823190602401602060405180830381865afa158015611532573d6000803e3d6000fd5b505050506040513d601f19601f8201168201806040525081019061155691906136d3565b9050801561166c5760005b82608001515181101561166a57600060ca60008560800151848151811061158a5761158a6135b3565b60200260200101516001600160a01b03166001600160a01b03168152602001908152602001600020549050600084604001516001600160801b0316436115d0919061363b565b60cc5460208701519192506000916001600160801b0391821691166115f58486613652565b6115ff9190613652565b6116099190613671565b90508461161b8264e8d4a51000613652565b6116259190613671565b8660600151858151811061163b5761163b6135b3565b6020026020010181815161164f9190613693565b90525083925061166291508290506135df565b915050611561565b505b6001600160801b034316604083015260cb805483919085908110611692576116926135b3565b6000918252602091829020835160049092020180546001600160a01b039092166001600160a01b03199092169190911781558282015160408401516001600160801b03908116600160801b02911617600182015560608301518051919261170192600285019290910190612fd7565b506080820151805161171d916003840191602090910190613022565b505050505b919050565b6002609754141561177a5760405162461bcd60e51b815260206004820152601f60248201527f5265656e7472616e637947756172643a207265656e7472616e742063616c6c006044820152606401610659565b6002609755600061178a82611392565b600083815260c9602090815260408083203380855292529091208054835193945090926117c2926001600160a01b03909116916128e4565b60008082555b82608001515181101561180a5760008260010182815481106117ec576117ec6135b3565b60009182526020909120015580611802816135df565b9150506117c8565b508054604051849033907fbb757047c2b5f3974fe26b7c10f732e7bce710b0952a71082702781e62ae059590600090a45050600160975550565b60cb5460609067ffffffffffffffff81111561186257611862613625565b6040519080825280602002602001820160405280156118b757816020015b6118a460405180606001604052806000815260200160608152602001606081525090565b8152602001906001900390816118805790505b50905060005b60cb548110156119075760006118d38285611d0d565b9050808383815181106118e8576118e86135b3565b60200260200101819052505080806118ff906135df565b9150506118bd565b50919050565b60005b60cb548110156119345761192381611392565b5061192d816135df565b9050611910565b50565b60006119438133612731565b8260005b60cb548110156119d957816001600160a01b031660cb828154811061196e5761196e6135b3565b60009182526020909120600490910201546001600160a01b031614156119c75760405162461bcd60e51b815260206004820152600e60248201526d4b523a20706f6f6c45786973747360901b6044820152606401610659565b806119d1816135df565b915050611947565b506119ee6001600160a01b03851633856128e4565b50505050565b604080518082019091526000815260606020820152600083815260c9602090815260408083206001600160a01b0386168452825291829020825180840184528154815260018201805485518186028101860190965280865291949293858101939290830182828015611a8557602002820191906000526020600020905b815481526020019060010190808311611a71575b505050505081525050905092915050565b6000805b60cb54821015611afb57826001600160a01b031660cb8381548110611ac157611ac16135b3565b60009182526020909120600490910201546001600160a01b03161415611ae957506001915091565b81611af3816135df565b925050611a9a565b915091565b60026097541415611b535760405162461bcd60e51b815260206004820152601f60248201527f5265656e7472616e637947756172643a207265656e7472616e742063616c6c006044820152606401610659565b60026097557f8952ae23cc3fea91b9dba0cefa16d18a26ca2bf124b54f42b5d04bce3aacecd2611b838133612731565b6001600160a01b038216611bd05760405162461bcd60e51b815260206004820152601460248201527312d48e88085c995dd85c99149958da5c1a595b9d60621b6044820152606401610659565b6000611bdb84611392565b600085815260c9602090815260408083206001600160a01b038a168452909152902080549192509015611d0057611c7e82826040518060400160405290816000820154815260200160018201805480602002602001604051908101604052809291908181526020018280548015611128576020028201919060005260206000209081548152602001906001019080831161111457505050505081525050866127b1565b60005b826080015151811015611cfe5764e8d4a5100083606001518281518110611caa57611caa6135b3565b60200260200101518360000154611cc19190613652565b611ccb9190613671565b826001018281548110611ce057611ce06135b3565b60009182526020909120015580611cf6816135df565b915050611c81565b505b5050600160975550505050565b611d3160405180606001604052806000815260200160608152602001606081525090565b600060cb8481548110611d4657611d466135b3565b60009182526020918290206040805160a081018252600490930290910180546001600160a01b0316835260018101546001600160801b0380821685870152600160801b909104168383015260028101805483518187028101870190945280845293949193606086019392830182828015611ddf57602002820191906000526020600020905b815481526020019060010190808311611dcb575b5050505050815260200160038201805480602002602001604051908101604052809291908181526020018280548015611e4157602002820191906000526020600020905b81546001600160a01b03168152600190910190602001808311611e23575b50505091909252505050600085815260c9602090815260408083206001600160a01b03881684528252808320815180830183528154815260018201805484518187028101870190955280855296975094959094919385810193929190830182828015611ecc57602002820191906000526020600020905b815481526020019060010190808311611eb8575b50505091909252505083516040516370a0823160e01b81523060048201529293506000926001600160a01b0390911691506370a0823190602401602060405180830381865afa158015611f23573d6000803e3d6000fd5b505050506040513d601f19601f82011682018060405250810190611f4791906136d3565b60808401805151604080516060810182528a8152925160208401529293509181018267ffffffffffffffff811115611f8157611f81613625565b604051908082528060200260200182016040528015611faa578160200160208202803683370190505b50905294508115801590611fbe5750825115155b1561218a5760005b8181101561218857600085606001518281518110611fe657611fe66135b3565b60200260200101519050600060ca60008860800151858151811061200c5761200c6135b3565b60200260200101516001600160a01b03166001600160a01b03168152602001908152602001600020549050600087604001516001600160801b031643612052919061363b565b60cc5460208a01519192506000916001600160801b0391821691166120778486613652565b6120819190613652565b61208b9190613671565b90508661209d8264e8d4a51000613652565b6120a79190613671565b6120b19085613693565b9350876020015185815181106120c9576120c96135b3565b602002602001015164e8d4a51000858a600001516120e79190613652565b6120f19190613671565b6120fb919061363b565b8a604001518681518110612111576121116135b3565b60200260200101818152505088608001518581518110612133576121336135b3565b60200260200101518a602001518681518110612151576121516135b3565b60200260200101906001600160a01b031690816001600160a01b031681525050505050508080612180906135df565b915050611fc6565b505b5050505092915050565b6000828152606560205260409020600101546121b08133612731565b610ef58383612a36565b6002609754141561220d5760405162461bcd60e51b815260206004820152601f60248201527f5265656e7472616e637947756172643a207265656e7472616e742063616c6c006044820152606401610659565b60026097556001600160a01b03811661225f5760405162461bcd60e51b815260206004820152601460248201527312d48e88085c995dd85c99149958da5c1a595b9d60621b6044820152606401610659565b600061226a83611392565b600084815260c96020908152604080832033845290915290208054919250901561238657612304828260405180604001604052908160008201548152602001600182018054806020026020016040519081016040528092919081815260200182805480156109e257602002820191906000526020600020908154815260200190600101908083116109ce57505050505081525050856127b1565b60005b8260800151518110156123845764e8d4a5100083606001518281518110612330576123306135b3565b602002602001015183600001546123479190613652565b6123519190613671565b826001018281548110612366576123666135b3565b6000918252602090912001558061237c816135df565b915050612307565b505b505060016097555050565b600054610100900460ff166123ac5760005460ff16156123b0565b303b155b6124225760405162461bcd60e51b815260206004820152602e60248201527f496e697469616c697a61626c653a20636f6e747261637420697320616c72656160448201527f647920696e697469616c697a65640000000000000000000000000000000000006064820152608401610659565b600054610100900460ff16158015612444576000805461ffff19166101011790555b8487146124b95760405162461bcd60e51b815260206004820152602e60248201527f52657761726420746f6b656e73206d757374206861766520612072657761726460448201527f506572426c6f636b2076616c75650000000000000000000000000000000000006064820152608401610659565b6124c1612ab9565b6124cc600033612b3e565b60005b87811015612547578686828181106124e9576124e96135b3565b9050602002013560ca60008b8b85818110612506576125066135b3565b905060200201602081019061251b91906133ea565b6001600160a01b031681526020810191909152604001600020558061253f816135df565b9150506124cf565b5060cb6040518060a00160405280866001600160a01b03168152602001856001600160801b03168152602001846001600160801b031681526020018a8a905067ffffffffffffffff81111561259e5761259e613625565b6040519080825280602002602001820160405280156125c7578160200160208202803683370190505b5081526020018a8a808060200260200160405190810160405280939291908181526020018383602002808284376000920182905250939094525050835460018181018655948252602091829020845160049092020180546001600160a01b039092166001600160a01b03199092169190911781558184015160408501516001600160801b03908116600160801b02911617948101949094556060830151805193949361267d935060028501929190910190612fd7565b5060808201518051612699916003840191602090910190613022565b505060cc80548592506000906126b99084906001600160801b03166135fa565b92506101000a8154816001600160801b0302191690836001600160801b0316021790555080156126ef576000805461ff00191690555b5050505050505050565b60006127058133612731565b60405133904780156108fc02916000818181858888f19350505050158015610f82573d6000803e3d6000fd5b60008281526065602090815260408083206001600160a01b038516845290915290205460ff16610f825761276f816001600160a01b03166014612b48565b61277a836020612b48565b60405160200161278b929190613718565b60408051601f198184030181529082905262461bcd60e51b825261065991600401613799565b60005b8360800151518110156119ee57600064e8d4a51000856060015183815181106127df576127df6135b3565b602002602001015185600001516127f69190613652565b6128009190613671565b905060008460200151838151811061281a5761281a6135b3565b60200260200101518261282d919061363b565b905080156128cf57612870848288608001518681518110612850576128506135b3565b60200260200101516001600160a01b03166128e49092919063ffffffff16565b8086608001518481518110612887576128876135b3565b60200260200101516001600160a01b0316856001600160a01b03167f9aa05b3d70a9e3e2f004f039648839560576334fb45c81f91b6db03ad9e2efc960405160405180910390a45b505080806128dc906135df565b9150506127b4565b6040516001600160a01b038316602482015260448101829052610ef590849063a9059cbb60e01b906064015b60408051601f198184030181529190526020810180517bffffffffffffffffffffffffffffffffffffffffffffffffffffffff166001600160e01b031990931692909217909152612cf8565b6040516001600160a01b03808516602483015283166044820152606481018290526119ee9085906323b872dd60e01b90608401612910565b60008281526065602090815260408083206001600160a01b038516845290915290205460ff16610f825760008281526065602090815260408083206001600160a01b03851684529091529020805460ff191660011790556129f23390565b6001600160a01b0316816001600160a01b0316837f2f8788117e7eff1d82e926ec794901d17c78024a50270940304540a733656f0d60405160405180910390a45050565b60008281526065602090815260408083206001600160a01b038516845290915290205460ff1615610f825760008281526065602090815260408083206001600160a01b0385168085529252808320805460ff1916905551339285917ff6391f5c32d9c69d2a47ea670b442974b53935d1edc7fd64eb21e047a839171b9190a45050565b600054610100900460ff16612b245760405162461bcd60e51b815260206004820152602b60248201527f496e697469616c697a61626c653a20636f6e7472616374206973206e6f74206960448201526a6e697469616c697a696e6760a81b6064820152608401610659565b612b2c612ddd565b612b34612ddd565b612b3c612ddd565b565b610f828282612994565b60606000612b57836002613652565b612b62906002613693565b67ffffffffffffffff811115612b7a57612b7a613625565b6040519080825280601f01601f191660200182016040528015612ba4576020820181803683370190505b509050600360fc1b81600081518110612bbf57612bbf6135b3565b60200101906001600160f81b031916908160001a905350600f60fb1b81600181518110612bee57612bee6135b3565b60200101906001600160f81b031916908160001a9053506000612c12846002613652565b612c1d906001613693565b90505b6001811115612ca2577f303132333435363738396162636465660000000000000000000000000000000085600f1660108110612c5e57612c5e6135b3565b1a60f81b828281518110612c7457612c746135b3565b60200101906001600160f81b031916908160001a90535060049490941c93612c9b816137cc565b9050612c20565b508315612cf15760405162461bcd60e51b815260206004820181905260248201527f537472696e67733a20686578206c656e67746820696e73756666696369656e746044820152606401610659565b9392505050565b6000612d4d826040518060400160405280602081526020017f5361666545524332303a206c6f772d6c6576656c2063616c6c206661696c6564815250856001600160a01b0316612e489092919063ffffffff16565b805190915015610ef55780806020019051810190612d6b91906137e3565b610ef55760405162461bcd60e51b815260206004820152602a60248201527f5361666545524332303a204552433230206f7065726174696f6e20646964206e60448201527f6f742073756363656564000000000000000000000000000000000000000000006064820152608401610659565b600054610100900460ff16612b3c5760405162461bcd60e51b815260206004820152602b60248201527f496e697469616c697a61626c653a20636f6e7472616374206973206e6f74206960448201526a6e697469616c697a696e6760a81b6064820152608401610659565b6060612e578484600085612e5f565b949350505050565b606082471015612ed75760405162461bcd60e51b815260206004820152602660248201527f416464726573733a20696e73756666696369656e742062616c616e636520666f60448201527f722063616c6c00000000000000000000000000000000000000000000000000006064820152608401610659565b843b612f255760405162461bcd60e51b815260206004820152601d60248201527f416464726573733a2063616c6c20746f206e6f6e2d636f6e74726163740000006044820152606401610659565b600080866001600160a01b03168587604051612f419190613805565b60006040518083038185875af1925050503d8060008114612f7e576040519150601f19603f3d011682016040523d82523d6000602084013e612f83565b606091505b5091509150612f93828286612f9e565b979650505050505050565b60608315612fad575081612cf1565b825115612fbd5782518084602001fd5b8160405162461bcd60e51b81526004016106599190613799565b828054828255906000526020600020908101928215613012579160200282015b82811115613012578251825591602001919060010190612ff7565b5061301e929150613077565b5090565b828054828255906000526020600020908101928215613012579160200282015b8281111561301257825182546001600160a01b0319166001600160a01b03909116178255602090920191600190910190613042565b5b8082111561301e5760008155600101613078565b60006020828403121561309e57600080fd5b81356001600160e01b031981168114612cf157600080fd5b60008083601f8401126130c857600080fd5b50813567ffffffffffffffff8111156130e057600080fd5b6020830191508360208260051b85010111156130fb57600080fd5b9250929050565b6001600160a01b038116811461193457600080fd5b80356001600160801b038116811461172257600080fd5b60008060008060006080868803121561314657600080fd5b853567ffffffffffffffff81111561315d57600080fd5b613169888289016130b6565b909650945050602086013561317d81613102565b925061318b60408701613117565b915061319960608701613117565b90509295509295909350565b6000806000606084860312156131ba57600080fd5b833592506020840135915060408401356131d381613102565b809150509250925092565b600080604083850312156131f157600080fd5b82356131fc81613102565b946020939093013593505050565b60008060006060848603121561321f57600080fd5b833561322a81613102565b95602085013595506040909401359392505050565b60006020828403121561325157600080fd5b5035919050565b600081518084526020808501945080840160005b838110156132885781518752958201959082019060010161326c565b509495945050505050565b600081518084526020808501945080840160005b838110156132885781516001600160a01b0316875295820195908201906001016132a7565b602081526001600160a01b038251166020820152600060208301516001600160801b0380821660408501528060408601511660608501525050606083015160a0608084015261331e60c0840182613258565b90506080840151601f198483030160a085015261333b8282613293565b95945050505050565b6000806040838503121561335757600080fd5b82359150602083013561336981613102565b809150509250929050565b6000806000806080858703121561338a57600080fd5b843561339581613102565b9350602085013592506040850135915060608501356133b381613102565b939692955090935050565b600080604083850312156133d157600080fd5b823591506133e160208401613117565b90509250929050565b6000602082840312156133fc57600080fd5b8135612cf181613102565b8051825260006020820151606060208501526134266060850182613293565b90506040830151848203604086015261333b8282613258565b6000602080830181845280855180835260408601915060408160051b870101925083870160005b8281101561349457603f19888603018452613482858351613407565b94509285019290850190600101613466565b5092979650505050505050565b602081528151602082015260006020830151604080840152612e576060840182613258565b6000806000606084860312156134db57600080fd5b83356134e681613102565b92506020840135915060408401356131d381613102565b602081526000612cf16020830184613407565b600080600080600080600060a0888a03121561352b57600080fd5b873567ffffffffffffffff8082111561354357600080fd5b61354f8b838c016130b6565b909950975060208a013591508082111561356857600080fd5b506135758a828b016130b6565b909650945050604088013561358981613102565b925061359760608901613117565b91506135a560808901613117565b905092959891949750929550565b634e487b7160e01b600052603260045260246000fd5b634e487b7160e01b600052601160045260246000fd5b60006000198214156135f3576135f36135c9565b5060010190565b60006001600160801b0380831681851680830382111561361c5761361c6135c9565b01949350505050565b634e487b7160e01b600052604160045260246000fd5b60008282101561364d5761364d6135c9565b500390565b600081600019048311821515161561366c5761366c6135c9565b500290565b60008261368e57634e487b7160e01b600052601260045260246000fd5b500490565b600082198211156136a6576136a66135c9565b500190565b60006001600160801b03838116908316818110156136cb576136cb6135c9565b039392505050565b6000602082840312156136e557600080fd5b5051919050565b60005b838110156137075781810151838201526020016136ef565b838111156119ee5750506000910152565b7f416363657373436f6e74726f6c3a206163636f756e74200000000000000000008152600083516137508160178501602088016136ec565b7f206973206d697373696e6720726f6c6520000000000000000000000000000000601791840191820152835161378d8160288401602088016136ec565b01602801949350505050565b60208152600082518060208401526137b88160408501602087016136ec565b601f01601f19169190910160400192915050565b6000816137db576137db6135c9565b506000190190565b6000602082840312156137f557600080fd5b81518015158114612cf157600080fd5b600082516138178184602087016136ec565b919091019291505056fea164736f6c634300080a000a",
    "devdoc": {
        "kind": "dev",
        "methods": {
            "addPool(address[],address,uint128,uint128)": {
                "params": {
                    "_allocPoint": "weight of rewards this pool receives",
                    "_depositToken": "token to deposit for rewards",
                    "_rewardTokens": "tokens to reward from this pool"
                }
            },
            "allPendingRewards(address)": {
                "params": {
                    "_account": "to get rewards for"
                }
            },
            "claim(uint256,address)": {
                "params": {
                    "_pid": "id in `_poolInfo`",
                    "_rewardRecipient": "address to send rewards to"
                }
            },
            "claimFor(address,uint256,address)": {
                "params": {
                    "_for": "account to claim for",
                    "_pid": "id in `_poolInfo`",
                    "_rewardRecipient": "address that receives rewards"
                }
            },
            "deposit(address,uint256,uint256)": {
                "params": {
                    "_amount": "amount of tokens to deposit",
                    "_pid": "in `_poolInfo`",
                    "_to": "address that msg.sender deposits tokens for"
                }
            },
            "emergencyWithdraw(uint256)": {
                "params": {
                    "_pid": "pool id to withdraw tokens from"
                }
            },
            "getPidFor(address)": {
                "params": {
                    "_depositToken": "depositToken in `_poolInfo`"
                },
                "returns": {
                    "found": "ensure 0 index",
                    "pid": "of pool with `_depositToken`"
                }
            },
            "getRoleAdmin(bytes32)": {
                "details": "Returns the admin role that controls `role`. See {grantRole} and {revokeRole}. To change a role's admin, use {_setRoleAdmin}."
            },
            "grantRole(bytes32,address)": {
                "details": "Grants `role` to `account`. If `account` had not been already granted `role`, emits a {RoleGranted} event. Requirements: - the caller must have ``role``'s admin role."
            },
            "hasRole(bytes32,address)": {
                "details": "Returns `true` if `account` has been granted `role`."
            },
            "pendingRewards(uint256,address)": {
                "params": {
                    "_pid": "id in `_poolInfo`",
                    "_user": "id in `_userInfo[_pid]`"
                }
            },
            "poolInfo(uint256)": {
                "params": {
                    "_pid": "in `_poolInfo`"
                }
            },
            "renounceRole(bytes32,address)": {
                "details": "Revokes `role` from the calling account. Roles are often managed via {grantRole} and {revokeRole}: this function's purpose is to provide a mechanism for accounts to lose their privileges if they are compromised (such as when a trusted device is misplaced). If the calling account had been revoked `role`, emits a {RoleRevoked} event. Requirements: - the caller must be `account`."
            },
            "revokeRole(bytes32,address)": {
                "details": "Revokes `role` from `account`. If `account` had been granted `role`, emits a {RoleRevoked} event. Requirements: - the caller must have ``role``'s admin role."
            },
            "setPool(uint256,uint128)": {
                "params": {
                    "_newAllocPoint": "new allocation (weight) for rewards",
                    "_pid": "pool to modify"
                }
            },
            "setRewardPerBlockFor(address,uint256)": {
                "params": {
                    "_rewardPerBlock": "tokens to drip per block",
                    "_rewardToken": "token to adjust the drip for"
                }
            },
            "supportsInterface(bytes4)": {
                "details": "See {IERC165-supportsInterface}."
            },
            "updatePool(uint256)": {
                "params": {
                    "_pid": "pool to update"
                }
            },
            "userInfo(uint256,address)": {
                "params": {
                    "_account": "to get information for",
                    "_pid": "in `_poolInfo`"
                }
            },
            "withdraw(uint256,uint256,address)": {
                "params": {
                    "_amount": "amount to withdraw",
                    "_pid": "id in `_poolInfo`",
                    "_rewardRecipient": "address to send rewards to"
                }
            },
            "withdrawFor(address,uint256,uint256,address)": {
                "params": {
                    "_amount": "amount to withdraw",
                    "_for": "account to withdraw from",
                    "_pid": "id in `_poolInfo`",
                    "_rewardRecipient": "reward recipient"
                }
            }
        },
        "version": 1
    },
    "userdoc": {
        "events": {
            "Deposit(address,uint256,uint256)": {
                "notice": "================================================== ============== Events ============================ =================================================="
            }
        },
        "kind": "user",
        "methods": {
            "addPool(address[],address,uint128,uint128)": {
                "notice": "Adds a new reward poolUpdates reward token count in case of adding extra tokens"
            },
            "allPendingRewards(address)": {
                "notice": "Get all pending rewards for an account"
            },
            "claim(uint256,address)": {
                "notice": "Claim rewards only"
            },
            "claimFor(address,uint256,address)": {
                "notice": "Trusted helper contract can claim rewards on behalf of an account"
            },
            "deposit(address,uint256,uint256)": {
                "notice": "Deposits tokens for @param _to"
            },
            "emergencyWithdraw(uint256)": {
                "notice": "Emergency function, withdraws deposits from a poolThis will forfeit your rewards."
            },
            "getPidFor(address)": {
                "notice": "Get id for a tokenUseful for external contracts"
            },
            "initialize(address[],uint256[],address,uint128,uint128)": {
                "notice": "Initialize the contract with a single poolSets initial reward token and ratesSets the caller as DEFAULT_ADMIN"
            },
            "massUpdatePools()": {
                "notice": "Updates all pools to be up-to date"
            },
            "pendingRewards(uint256,address)": {
                "notice": "Get pending rewards from a certain pool"
            },
            "poolInfo(uint256)": {
                "notice": "Get pool information"
            },
            "poolLength()": {
                "notice": "Amount of pools"
            },
            "rescueNative()": {
                "notice": "A rescue function for missent msg.valueSince we are using payable functions to save gas on calls"
            },
            "rescueNonPoolToken(address,uint256)": {
                "notice": "A rescue function for missent tokens / airdropsThis cannot withdraw any deposits due `ensurePoolDoesNotExist` modifier."
            },
            "setPool(uint256,uint128)": {
                "notice": "Set new allocations for a poolSet `_newAllocPoint` to 0 to retire a pool"
            },
            "setRewardPerBlockFor(address,uint256)": {
                "notice": "Adjust/Set reward per block for a particular reward token"
            },
            "updatePool(uint256)": {
                "notice": "Updates a pools reward variables to be up-to date"
            },
            "userInfo(uint256,address)": {
                "notice": "Get account information on a pool"
            },
            "withdraw(uint256,uint256,address)": {
                "notice": "Withdraw deposited tokens and rewards."
            },
            "withdrawFor(address,uint256,uint256,address)": {
                "notice": "Trusted helper contract can withdraw rewards and deposits on behalf of an accountFor eg. withdraw + remove liquidity"
            }
        },
        "version": 1
    },
    "storageLayout": {
        "storage": [
            {
                "astId": 597,
                "contract": "src/contracts/KrStaking.sol:KrStaking",
                "label": "_initialized",
                "offset": 0,
                "slot": "0",
                "type": "t_bool"
            },
            {
                "astId": 600,
                "contract": "src/contracts/KrStaking.sol:KrStaking",
                "label": "_initializing",
                "offset": 1,
                "slot": "0",
                "type": "t_bool"
            },
            {
                "astId": 1910,
                "contract": "src/contracts/KrStaking.sol:KrStaking",
                "label": "__gap",
                "offset": 0,
                "slot": "1",
                "type": "t_array(t_uint256)50_storage"
            },
            {
                "astId": 2159,
                "contract": "src/contracts/KrStaking.sol:KrStaking",
                "label": "__gap",
                "offset": 0,
                "slot": "51",
                "type": "t_array(t_uint256)50_storage"
            },
            {
                "astId": 204,
                "contract": "src/contracts/KrStaking.sol:KrStaking",
                "label": "_roles",
                "offset": 0,
                "slot": "101",
                "type": "t_mapping(t_bytes32,t_struct(RoleData)199_storage)"
            },
            {
                "astId": 491,
                "contract": "src/contracts/KrStaking.sol:KrStaking",
                "label": "__gap",
                "offset": 0,
                "slot": "102",
                "type": "t_array(t_uint256)49_storage"
            },
            {
                "astId": 678,
                "contract": "src/contracts/KrStaking.sol:KrStaking",
                "label": "_status",
                "offset": 0,
                "slot": "151",
                "type": "t_uint256"
            },
            {
                "astId": 721,
                "contract": "src/contracts/KrStaking.sol:KrStaking",
                "label": "__gap",
                "offset": 0,
                "slot": "152",
                "type": "t_array(t_uint256)49_storage"
            },
            {
                "astId": 15119,
                "contract": "src/contracts/KrStaking.sol:KrStaking",
                "label": "_userInfo",
                "offset": 0,
                "slot": "201",
                "type": "t_mapping(t_uint256,t_mapping(t_address,t_struct(UserInfo)15088_storage))"
            },
            {
                "astId": 15123,
                "contract": "src/contracts/KrStaking.sol:KrStaking",
                "label": "rewardPerBlockFor",
                "offset": 0,
                "slot": "202",
                "type": "t_mapping(t_address,t_uint256)"
            },
            {
                "astId": 15127,
                "contract": "src/contracts/KrStaking.sol:KrStaking",
                "label": "_poolInfo",
                "offset": 0,
                "slot": "203",
                "type": "t_array(t_struct(PoolInfo)15102_storage)dyn_storage"
            },
            {
                "astId": 15129,
                "contract": "src/contracts/KrStaking.sol:KrStaking",
                "label": "totalAllocPoint",
                "offset": 0,
                "slot": "204",
                "type": "t_uint128"
            }
        ],
        "types": {
            "t_address": {
                "encoding": "inplace",
                "label": "address",
                "numberOfBytes": "20"
            },
            "t_array(t_address)dyn_storage": {
                "base": "t_address",
                "encoding": "dynamic_array",
                "label": "address[]",
                "numberOfBytes": "32"
            },
            "t_array(t_struct(PoolInfo)15102_storage)dyn_storage": {
                "base": "t_struct(PoolInfo)15102_storage",
                "encoding": "dynamic_array",
                "label": "struct KrStaking.PoolInfo[]",
                "numberOfBytes": "32"
            },
            "t_array(t_uint256)49_storage": {
                "base": "t_uint256",
                "encoding": "inplace",
                "label": "uint256[49]",
                "numberOfBytes": "1568"
            },
            "t_array(t_uint256)50_storage": {
                "base": "t_uint256",
                "encoding": "inplace",
                "label": "uint256[50]",
                "numberOfBytes": "1600"
            },
            "t_array(t_uint256)dyn_storage": {
                "base": "t_uint256",
                "encoding": "dynamic_array",
                "label": "uint256[]",
                "numberOfBytes": "32"
            },
            "t_bool": {
                "encoding": "inplace",
                "label": "bool",
                "numberOfBytes": "1"
            },
            "t_bytes32": {
                "encoding": "inplace",
                "label": "bytes32",
                "numberOfBytes": "32"
            },
            "t_contract(IERC20)4395": {
                "encoding": "inplace",
                "label": "contract IERC20",
                "numberOfBytes": "20"
            },
            "t_mapping(t_address,t_bool)": {
                "encoding": "mapping",
                "key": "t_address",
                "label": "mapping(address => bool)",
                "numberOfBytes": "32",
                "value": "t_bool"
            },
            "t_mapping(t_address,t_struct(UserInfo)15088_storage)": {
                "encoding": "mapping",
                "key": "t_address",
                "label": "mapping(address => struct KrStaking.UserInfo)",
                "numberOfBytes": "32",
                "value": "t_struct(UserInfo)15088_storage"
            },
            "t_mapping(t_address,t_uint256)": {
                "encoding": "mapping",
                "key": "t_address",
                "label": "mapping(address => uint256)",
                "numberOfBytes": "32",
                "value": "t_uint256"
            },
            "t_mapping(t_bytes32,t_struct(RoleData)199_storage)": {
                "encoding": "mapping",
                "key": "t_bytes32",
                "label": "mapping(bytes32 => struct AccessControlUpgradeable.RoleData)",
                "numberOfBytes": "32",
                "value": "t_struct(RoleData)199_storage"
            },
            "t_mapping(t_uint256,t_mapping(t_address,t_struct(UserInfo)15088_storage))": {
                "encoding": "mapping",
                "key": "t_uint256",
                "label": "mapping(uint256 => mapping(address => struct KrStaking.UserInfo))",
                "numberOfBytes": "32",
                "value": "t_mapping(t_address,t_struct(UserInfo)15088_storage)"
            },
            "t_struct(PoolInfo)15102_storage": {
                "encoding": "inplace",
                "label": "struct KrStaking.PoolInfo",
                "members": [
                    {
                        "astId": 15091,
                        "contract": "src/contracts/KrStaking.sol:KrStaking",
                        "label": "depositToken",
                        "offset": 0,
                        "slot": "0",
                        "type": "t_contract(IERC20)4395"
                    },
                    {
                        "astId": 15093,
                        "contract": "src/contracts/KrStaking.sol:KrStaking",
                        "label": "allocPoint",
                        "offset": 0,
                        "slot": "1",
                        "type": "t_uint128"
                    },
                    {
                        "astId": 15095,
                        "contract": "src/contracts/KrStaking.sol:KrStaking",
                        "label": "lastRewardBlock",
                        "offset": 16,
                        "slot": "1",
                        "type": "t_uint128"
                    },
                    {
                        "astId": 15098,
                        "contract": "src/contracts/KrStaking.sol:KrStaking",
                        "label": "accRewardPerShares",
                        "offset": 0,
                        "slot": "2",
                        "type": "t_array(t_uint256)dyn_storage"
                    },
                    {
                        "astId": 15101,
                        "contract": "src/contracts/KrStaking.sol:KrStaking",
                        "label": "rewardTokens",
                        "offset": 0,
                        "slot": "3",
                        "type": "t_array(t_address)dyn_storage"
                    }
                ],
                "numberOfBytes": "128"
            },
            "t_struct(RoleData)199_storage": {
                "encoding": "inplace",
                "label": "struct AccessControlUpgradeable.RoleData",
                "members": [
                    {
                        "astId": 196,
                        "contract": "src/contracts/KrStaking.sol:KrStaking",
                        "label": "members",
                        "offset": 0,
                        "slot": "0",
                        "type": "t_mapping(t_address,t_bool)"
                    },
                    {
                        "astId": 198,
                        "contract": "src/contracts/KrStaking.sol:KrStaking",
                        "label": "adminRole",
                        "offset": 0,
                        "slot": "1",
                        "type": "t_bytes32"
                    }
                ],
                "numberOfBytes": "64"
            },
            "t_struct(UserInfo)15088_storage": {
                "encoding": "inplace",
                "label": "struct KrStaking.UserInfo",
                "members": [
                    {
                        "astId": 15084,
                        "contract": "src/contracts/KrStaking.sol:KrStaking",
                        "label": "amount",
                        "offset": 0,
                        "slot": "0",
                        "type": "t_uint256"
                    },
                    {
                        "astId": 15087,
                        "contract": "src/contracts/KrStaking.sol:KrStaking",
                        "label": "rewardDebts",
                        "offset": 0,
                        "slot": "1",
                        "type": "t_array(t_uint256)dyn_storage"
                    }
                ],
                "numberOfBytes": "64"
            },
            "t_uint128": {
                "encoding": "inplace",
                "label": "uint128",
                "numberOfBytes": "16"
            },
            "t_uint256": {
                "encoding": "inplace",
                "label": "uint256",
                "numberOfBytes": "32"
            }
        }
    }
}