{
    "address": "0xf4b631562a48C6Ff321e481a2baAa0FCc9D45Ff4",
    "abi": [
        {
            "inputs": [],
            "stateMutability": "nonpayable",
            "type": "constructor"
        },
        {
            "anonymous": false,
            "inputs": [
                {
                    "indexed": true,
                    "internalType": "address",
                    "name": "owner",
                    "type": "address"
                },
                {
                    "indexed": true,
                    "internalType": "address",
                    "name": "spender",
                    "type": "address"
                },
                {
                    "indexed": false,
                    "internalType": "uint256",
                    "name": "value",
                    "type": "uint256"
                }
            ],
            "name": "Approval",
            "type": "event"
        },
        {
            "anonymous": false,
            "inputs": [
                {
                    "indexed": true,
                    "internalType": "address",
                    "name": "account",
                    "type": "address"
                },
                {
                    "indexed": false,
                    "internalType": "uint256",
                    "name": "underlyingDepositAmount",
                    "type": "uint256"
                },
                {
                    "indexed": false,
                    "internalType": "uint256",
                    "name": "mintAmount",
                    "type": "uint256"
                }
            ],
            "name": "DepositedUnderlying",
            "type": "event"
        },
        {
            "anonymous": false,
            "inputs": [
                {
                    "indexed": true,
                    "internalType": "address",
                    "name": "previousOwner",
                    "type": "address"
                },
                {
                    "indexed": true,
                    "internalType": "address",
                    "name": "newOwner",
                    "type": "address"
                }
            ],
            "name": "OwnershipTransferred",
            "type": "event"
        },
        {
            "anonymous": false,
            "inputs": [
                {
                    "indexed": true,
                    "internalType": "address",
                    "name": "previousOwner",
                    "type": "address"
                },
                {
                    "indexed": true,
                    "internalType": "address",
                    "name": "pendingOwner",
                    "type": "address"
                }
            ],
            "name": "PendingOwnershipTransfer",
            "type": "event"
        },
        {
            "anonymous": false,
            "inputs": [
                {
                    "indexed": true,
                    "internalType": "address",
                    "name": "from",
                    "type": "address"
                },
                {
                    "indexed": true,
                    "internalType": "address",
                    "name": "to",
                    "type": "address"
                },
                {
                    "indexed": false,
                    "internalType": "uint256",
                    "name": "value",
                    "type": "uint256"
                }
            ],
            "name": "Transfer",
            "type": "event"
        },
        {
            "anonymous": false,
            "inputs": [
                {
                    "indexed": true,
                    "internalType": "address",
                    "name": "account",
                    "type": "address"
                },
                {
                    "indexed": false,
                    "internalType": "uint256",
                    "name": "underlyingWithdrawAmount",
                    "type": "uint256"
                },
                {
                    "indexed": false,
                    "internalType": "uint256",
                    "name": "burnAmount",
                    "type": "uint256"
                }
            ],
            "name": "WithdrewUnderlying",
            "type": "event"
        },
        {
            "inputs": [
                {
                    "internalType": "address",
                    "name": "owner",
                    "type": "address"
                },
                {
                    "internalType": "address",
                    "name": "spender",
                    "type": "address"
                }
            ],
            "name": "allowance",
            "outputs": [
                {
                    "internalType": "uint256",
                    "name": "",
                    "type": "uint256"
                }
            ],
            "stateMutability": "view",
            "type": "function"
        },
        {
            "inputs": [
                {
                    "internalType": "address",
                    "name": "spender",
                    "type": "address"
                },
                {
                    "internalType": "uint256",
                    "name": "amount",
                    "type": "uint256"
                }
            ],
            "name": "approve",
            "outputs": [
                {
                    "internalType": "bool",
                    "name": "",
                    "type": "bool"
                }
            ],
            "stateMutability": "nonpayable",
            "type": "function"
        },
        {
            "inputs": [
                {
                    "internalType": "address",
                    "name": "account",
                    "type": "address"
                }
            ],
            "name": "balanceOf",
            "outputs": [
                {
                    "internalType": "uint256",
                    "name": "",
                    "type": "uint256"
                }
            ],
            "stateMutability": "view",
            "type": "function"
        },
        {
            "inputs": [
                {
                    "internalType": "address",
                    "name": "_account",
                    "type": "address"
                }
            ],
            "name": "balanceOfUnderlying",
            "outputs": [
                {
                    "internalType": "uint256",
                    "name": "",
                    "type": "uint256"
                }
            ],
            "stateMutability": "view",
            "type": "function"
        },
        {
            "inputs": [],
            "name": "claimOwnership",
            "outputs": [],
            "stateMutability": "nonpayable",
            "type": "function"
        },
        {
            "inputs": [],
            "name": "decimals",
            "outputs": [
                {
                    "internalType": "uint8",
                    "name": "",
                    "type": "uint8"
                }
            ],
            "stateMutability": "view",
            "type": "function"
        },
        {
            "inputs": [
                {
                    "internalType": "address",
                    "name": "spender",
                    "type": "address"
                },
                {
                    "internalType": "uint256",
                    "name": "subtractedValue",
                    "type": "uint256"
                }
            ],
            "name": "decreaseAllowance",
            "outputs": [
                {
                    "internalType": "bool",
                    "name": "",
                    "type": "bool"
                }
            ],
            "stateMutability": "nonpayable",
            "type": "function"
        },
        {
            "inputs": [
                {
                    "internalType": "uint256",
                    "name": "_underlyingDepositAmount",
                    "type": "uint256"
                }
            ],
            "name": "depositUnderlying",
            "outputs": [
                {
                    "internalType": "uint256",
                    "name": "",
                    "type": "uint256"
                }
            ],
            "stateMutability": "nonpayable",
            "type": "function"
        },
        {
            "inputs": [
                {
                    "internalType": "uint256",
                    "name": "_nonRebasingAmount",
                    "type": "uint256"
                }
            ],
            "name": "getUnderlyingAmount",
            "outputs": [
                {
                    "internalType": "uint256",
                    "name": "",
                    "type": "uint256"
                }
            ],
            "stateMutability": "view",
            "type": "function"
        },
        {
            "inputs": [
                {
                    "internalType": "address",
                    "name": "spender",
                    "type": "address"
                },
                {
                    "internalType": "uint256",
                    "name": "addedValue",
                    "type": "uint256"
                }
            ],
            "name": "increaseAllowance",
            "outputs": [
                {
                    "internalType": "bool",
                    "name": "",
                    "type": "bool"
                }
            ],
            "stateMutability": "nonpayable",
            "type": "function"
        },
        {
            "inputs": [
                {
                    "internalType": "address",
                    "name": "_underlyingToken",
                    "type": "address"
                },
                {
                    "internalType": "string",
                    "name": "_name",
                    "type": "string"
                },
                {
                    "internalType": "string",
                    "name": "_symbol",
                    "type": "string"
                }
            ],
            "name": "initialize",
            "outputs": [],
            "stateMutability": "nonpayable",
            "type": "function"
        },
        {
            "inputs": [],
            "name": "name",
            "outputs": [
                {
                    "internalType": "string",
                    "name": "",
                    "type": "string"
                }
            ],
            "stateMutability": "view",
            "type": "function"
        },
        {
            "inputs": [],
            "name": "owner",
            "outputs": [
                {
                    "internalType": "address",
                    "name": "",
                    "type": "address"
                }
            ],
            "stateMutability": "view",
            "type": "function"
        },
        {
            "inputs": [],
            "name": "pendingOwner",
            "outputs": [
                {
                    "internalType": "address",
                    "name": "",
                    "type": "address"
                }
            ],
            "stateMutability": "view",
            "type": "function"
        },
        {
            "inputs": [],
            "name": "symbol",
            "outputs": [
                {
                    "internalType": "string",
                    "name": "",
                    "type": "string"
                }
            ],
            "stateMutability": "view",
            "type": "function"
        },
        {
            "inputs": [],
            "name": "totalSupply",
            "outputs": [
                {
                    "internalType": "uint256",
                    "name": "",
                    "type": "uint256"
                }
            ],
            "stateMutability": "view",
            "type": "function"
        },
        {
            "inputs": [
                {
                    "internalType": "address",
                    "name": "recipient",
                    "type": "address"
                },
                {
                    "internalType": "uint256",
                    "name": "amount",
                    "type": "uint256"
                }
            ],
            "name": "transfer",
            "outputs": [
                {
                    "internalType": "bool",
                    "name": "",
                    "type": "bool"
                }
            ],
            "stateMutability": "nonpayable",
            "type": "function"
        },
        {
            "inputs": [
                {
                    "internalType": "address",
                    "name": "sender",
                    "type": "address"
                },
                {
                    "internalType": "address",
                    "name": "recipient",
                    "type": "address"
                },
                {
                    "internalType": "uint256",
                    "name": "amount",
                    "type": "uint256"
                }
            ],
            "name": "transferFrom",
            "outputs": [
                {
                    "internalType": "bool",
                    "name": "",
                    "type": "bool"
                }
            ],
            "stateMutability": "nonpayable",
            "type": "function"
        },
        {
            "inputs": [
                {
                    "internalType": "address",
                    "name": "newOwner",
                    "type": "address"
                }
            ],
            "name": "transferOwnership",
            "outputs": [],
            "stateMutability": "nonpayable",
            "type": "function"
        },
        {
            "inputs": [],
            "name": "underlyingToken",
            "outputs": [
                {
                    "internalType": "contract IERC20Upgradeable",
                    "name": "",
                    "type": "address"
                }
            ],
            "stateMutability": "view",
            "type": "function"
        },
        {
            "inputs": [
                {
                    "internalType": "uint256",
                    "name": "_nonRebasingWithdrawalAmount",
                    "type": "uint256"
                }
            ],
            "name": "withdrawUnderlying",
            "outputs": [
                {
                    "internalType": "uint256",
                    "name": "",
                    "type": "uint256"
                }
            ],
            "stateMutability": "nonpayable",
            "type": "function"
        }
    ],
    "transactionHash": "0x7187d9b83c5d3ee2240a0ecc42d5fff97c1c0e9947cd26955bdf0fe19f3cbaa5",
    "args": [],
    "numDeployments": 1,
    "solcInputHash": "11300df78050aeca0c8dabc53eaca532",
    "bytecode": "0x60806040523480156200001157600080fd5b50600054610100900460ff166200002f5760005460ff161562000039565b62000039620000de565b620000a15760405162461bcd60e51b815260206004820152602e60248201527f496e697469616c697a61626c653a20636f6e747261637420697320616c72656160448201526d191e481a5b9a5d1a585b1a5e995960921b606482015260840160405180910390fd5b600054610100900460ff16158015620000c4576000805461ffff19166101011790555b8015620000d7576000805461ff00191690555b5062000102565b6000620000f630620000fc60201b62000de51760201c565b15905090565b3b151590565b611ef280620001126000396000f3fe608060405234801561001057600080fd5b50600436106101775760003560e01c806355f2a4a0116100d8578063a457c2d71161008c578063dd62ed3e11610066578063dd62ed3e14610304578063e30c39781461033d578063f2fde38b1461034e57600080fd5b8063a457c2d7146102cb578063a9059cbb146102de578063b9f5be41146102f157600080fd5b80638da5cb5b116100bd5780638da5cb5b1461029f57806390657147146102b057806395d89b41146102c357600080fd5b806355f2a4a01461026357806370a082311461027657600080fd5b80632495a5991161012f578063395093511161011457806339509351146102335780633af9e669146102465780634e71e0c81461025957600080fd5b80632495a599146101f9578063313ce5671461022457600080fd5b80631071a290116101605780631071a290146101bd57806318160ddd146101de57806323b872dd146101e657600080fd5b806306fdde031461017c578063095ea7b31461019a575b600080fd5b610184610361565b6040516101919190611aaa565b60405180910390f35b6101ad6101a8366004611af9565b6103f3565b6040519015158152602001610191565b6101d06101cb366004611b23565b61040a565b604051908152602001610191565b6068546101d0565b6101ad6101f4366004611b3c565b6105ba565b60ca5461020c906001600160a01b031681565b6040516001600160a01b039091168152602001610191565b60405160128152602001610191565b6101ad610241366004611af9565b61067b565b6101d0610254366004611b78565b6106b7565b6102616106d9565b005b6101d0610271366004611b23565b610799565b6101d0610284366004611b78565b6001600160a01b031660009081526066602052604090205490565b6033546001600160a01b031661020c565b6102616102be366004611c36565b6108f5565b610184610a52565b6101ad6102d9366004611af9565b610a61565b6101ad6102ec366004611af9565b610b12565b6101d06102ff366004611b23565b610b1f565b6101d0610312366004611caa565b6001600160a01b03918216600090815260676020908152604080832093909416825291909152205490565b6034546001600160a01b031661020c565b61026161035c366004611b78565b610d03565b60606069805461037090611cdd565b80601f016020809104026020016040519081016040528092919081815260200182805461039c90611cdd565b80156103e95780601f106103be576101008083540402835291602001916103e9565b820191906000526020600020905b8154815290600101906020018083116103cc57829003601f168201915b5050505050905090565b6000610400338484610deb565b5060015b92915050565b6000600260985414156104645760405162461bcd60e51b815260206004820152601f60248201527f5265656e7472616e637947756172643a207265656e7472616e742063616c6c0060448201526064015b60405180910390fd5b6002609855816104c05760405162461bcd60e51b815260206004820152602160248201527f4e5257546f6b656e3a20776974686472617720616d6f756e74206973207a65726044820152606f60f81b606482015260840161045b565b336000908152606660205260409020548211156105455760405162461bcd60e51b815260206004820152602960248201527f4e5257546f6b656e3a20776974686472617720616d6f756e742065786365656460448201527f732062616c616e63650000000000000000000000000000000000000000000000606482015260840161045b565b600061055083610799565b60ca5490915061056a906001600160a01b03163383610f0f565b6105743384610fa4565b604080518281526020810185905233917ff9f8af7a4be10e4105212dad5f026d0623723adbbf8d605eba6b722e63f07fb3910160405180910390a2600160985592915050565b60006105c78484846110f2565b6001600160a01b0384166000908152606760209081526040808320338452909152902054828110156106615760405162461bcd60e51b815260206004820152602860248201527f45524332303a207472616e7366657220616d6f756e742065786365656473206160448201527f6c6c6f77616e6365000000000000000000000000000000000000000000000000606482015260840161045b565b61066e8533858403610deb565b60019150505b9392505050565b3360008181526067602090815260408083206001600160a01b038716845290915281205490916104009185906106b2908690611d2e565b610deb565b6001600160a01b03811660009081526066602052604081205461040490610799565b6034546001600160a01b031633146107335760405162461bcd60e51b815260206004820181905260248201527f4f776e61626c653a2063616c6c657220213d2070656e64696e67206f776e6572604482015260640161045b565b6034546033546040516001600160a01b0392831692909116907f8be0079c531659141344cd1fd0a4f28419497f9722a3daafe3b4186f6b6457e090600090a360348054603380546001600160a01b03199081166001600160a01b03841617909155169055565b6000806107a560685490565b90508015806107b2575082155b156107c05750600092915050565b808311156108365760405162461bcd60e51b815260206004820152602560248201527f4e5257546f6b656e3a20616d6f756e74206578636565647320746f74616c207360448201527f7570706c79000000000000000000000000000000000000000000000000000000606482015260840161045b565b60ca546040516370a0823160e01b81523060048201526000916001600160a01b0316906370a0823190602401602060405180830381865afa15801561087f573d6000803e3d6000fd5b505050506040513d601f19601f820116820180604052508101906108a39190611d46565b90506108ec6040518060200160405280848152506108e66040518060200160405280858152506040518060200160405280898152506112ef90919063ffffffff16565b90611337565b51949350505050565b600054610100900460ff166109105760005460ff1615610914565b303b155b6109775760405162461bcd60e51b815260206004820152602e60248201527f496e697469616c697a61626c653a20636f6e747261637420697320616c72656160448201526d191e481a5b9a5d1a585b1a5e995960921b606482015260840161045b565b600054610100900460ff16158015610999576000805461ffff19166101011790555b833b610a0d5760405162461bcd60e51b815260206004820152602760248201527f4e5257546f6b656e3a20756e6465726c79696e67206d7573742062652061206360448201527f6f6e747261637400000000000000000000000000000000000000000000000000606482015260840161045b565b610a178383611378565b610a1f6113f9565b60ca80546001600160a01b0319166001600160a01b0386161790558015610a4c576000805461ff00191690555b50505050565b6060606a805461037090611cdd565b3360009081526067602090815260408083206001600160a01b038616845290915281205482811015610afb5760405162461bcd60e51b815260206004820152602560248201527f45524332303a2064656372656173656420616c6c6f77616e63652062656c6f7760448201527f207a65726f000000000000000000000000000000000000000000000000000000606482015260840161045b565b610b083385858403610deb565b5060019392505050565b60006104003384846110f2565b60ca546040516370a0823160e01b815230600482015260009182916001600160a01b03909116906370a0823190602401602060405180830381865afa158015610b6c573d6000803e3d6000fd5b505050506040513d601f19601f82011682018060405250810190610b909190611d46565b60ca54909150610bab906001600160a01b03163330866114f1565b60ca546040516370a0823160e01b81523060048201526000916001600160a01b0316906370a0823190602401602060405180830381865afa158015610bf4573d6000803e3d6000fd5b505050506040513d601f19601f82011682018060405250810190610c189190611d46565b90506000610c268383611d5f565b905060008111610c785760405162461bcd60e51b815260206004820181905260248201527f4e5257546f6b656e3a206465706f73697420616d6f756e74206973207a65726f604482015260640161045b565b6000610c8360685490565b90506000811580610c92575084155b610cb05784610ca18385611d76565b610cab9190611d95565b610cb2565b825b9050610cbe3382611529565b604080518481526020810183905233917ffeb003d0e84cfe38015ad2a7aacabdfbf185810a244f62cdb731231e002fc40d910160405180910390a29695505050505050565b6033546001600160a01b03163314610d5d5760405162461bcd60e51b815260206004820181905260248201527f4f776e61626c653a2063616c6c6572206973206e6f7420746865206f776e6572604482015260640161045b565b6001600160a01b038116610dd95760405162461bcd60e51b815260206004820152602660248201527f4f776e61626c653a206e6577206f776e657220697320746865207a65726f206160448201527f6464726573730000000000000000000000000000000000000000000000000000606482015260840161045b565b610de281611608565b50565b3b151590565b6001600160a01b038316610e4d5760405162461bcd60e51b8152602060048201526024808201527f45524332303a20617070726f76652066726f6d20746865207a65726f206164646044820152637265737360e01b606482015260840161045b565b6001600160a01b038216610eae5760405162461bcd60e51b815260206004820152602260248201527f45524332303a20617070726f766520746f20746865207a65726f206164647265604482015261737360f01b606482015260840161045b565b6001600160a01b0383811660008181526067602090815260408083209487168084529482529182902085905590518481527f8c5be1e5ebec7d5bd14f71427d1e84f3dd0314c0f7b2291e5b200ac8c7c3b925910160405180910390a3505050565b6040516001600160a01b038316602482015260448101829052610f9f90849063a9059cbb60e01b906064015b60408051601f198184030181529190526020810180517bffffffffffffffffffffffffffffffffffffffffffffffffffffffff167fffffffff000000000000000000000000000000000000000000000000000000009093169290921790915261165a565b505050565b6001600160a01b0382166110045760405162461bcd60e51b815260206004820152602160248201527f45524332303a206275726e2066726f6d20746865207a65726f206164647265736044820152607360f81b606482015260840161045b565b6001600160a01b038216600090815260666020526040902054818110156110785760405162461bcd60e51b815260206004820152602260248201527f45524332303a206275726e20616d6f756e7420657863656564732062616c616e604482015261636560f01b606482015260840161045b565b6001600160a01b03831660009081526066602052604081208383039055606880548492906110a7908490611d5f565b90915550506040518281526000906001600160a01b038516907fddf252ad1be2c89b69c2b068fc378daa952ba7f163c4a11628f55a4df523b3ef9060200160405180910390a3505050565b6001600160a01b03831661116e5760405162461bcd60e51b815260206004820152602560248201527f45524332303a207472616e736665722066726f6d20746865207a65726f20616460448201527f6472657373000000000000000000000000000000000000000000000000000000606482015260840161045b565b6001600160a01b0382166111d05760405162461bcd60e51b815260206004820152602360248201527f45524332303a207472616e7366657220746f20746865207a65726f206164647260448201526265737360e81b606482015260840161045b565b6001600160a01b0383166000908152606660205260409020548181101561125f5760405162461bcd60e51b815260206004820152602660248201527f45524332303a207472616e7366657220616d6f756e742065786365656473206260448201527f616c616e63650000000000000000000000000000000000000000000000000000606482015260840161045b565b6001600160a01b03808516600090815260666020526040808220858503905591851681529081208054849290611296908490611d2e565b92505081905550826001600160a01b0316846001600160a01b03167fddf252ad1be2c89b69c2b068fc378daa952ba7f163c4a11628f55a4df523b3ef846040516112e291815260200190565b60405180910390a3610a4c565b60408051602081019091526000815260405180602001604052806012600a6113179190611e9b565b845186516113249161173f565b61132e9190611d95565b90529392505050565b604080516020810190915260008152604051806020016040528061132e84600001516113726012600a61136a9190611e9b565b88519061173f565b9061174b565b600054610100900460ff166113e35760405162461bcd60e51b815260206004820152602b60248201527f496e697469616c697a61626c653a20636f6e7472616374206973206e6f74206960448201526a6e697469616c697a696e6760a81b606482015260840161045b565b6113eb611757565b6113f582826117c4565b5050565b600054610100900460ff166114145760005460ff1615611418565b303b155b61147b5760405162461bcd60e51b815260206004820152602e60248201527f496e697469616c697a61626c653a20636f6e747261637420697320616c72656160448201526d191e481a5b9a5d1a585b1a5e995960921b606482015260840161045b565b600054610100900460ff1615801561149d576000805461ffff19166101011790555b603380546001600160a01b031916339081179091556040516000907f8be0079c531659141344cd1fd0a4f28419497f9722a3daafe3b4186f6b6457e0908290a38015610de2576000805461ff001916905550565b6040516001600160a01b0380851660248301528316604482015260648101829052610a4c9085906323b872dd60e01b90608401610f3b565b6001600160a01b03821661157f5760405162461bcd60e51b815260206004820152601f60248201527f45524332303a206d696e7420746f20746865207a65726f206164647265737300604482015260640161045b565b80606860008282546115919190611d2e565b90915550506001600160a01b038216600090815260666020526040812080548392906115be908490611d2e565b90915550506040518181526001600160a01b038316906000907fddf252ad1be2c89b69c2b068fc378daa952ba7f163c4a11628f55a4df523b3ef9060200160405180910390a35050565b603480546001600160a01b0319166001600160a01b03838116918217909255603354604051919216907f23e1f881d1e797ea57a7247e53536f0bfc37c42e6645b3bdc4b1c9a0e0d8a13390600090a350565b60006116af826040518060400160405280602081526020017f5361666545524332303a206c6f772d6c6576656c2063616c6c206661696c6564815250856001600160a01b03166118569092919063ffffffff16565b805190915015610f9f57808060200190518101906116cd9190611ea7565b610f9f5760405162461bcd60e51b815260206004820152602a60248201527f5361666545524332303a204552433230206f7065726174696f6e20646964206e60448201527f6f74207375636365656400000000000000000000000000000000000000000000606482015260840161045b565b60006106748284611d76565b60006106748284611d95565b600054610100900460ff166117c25760405162461bcd60e51b815260206004820152602b60248201527f496e697469616c697a61626c653a20636f6e7472616374206973206e6f74206960448201526a6e697469616c697a696e6760a81b606482015260840161045b565b565b600054610100900460ff1661182f5760405162461bcd60e51b815260206004820152602b60248201527f496e697469616c697a61626c653a20636f6e7472616374206973206e6f74206960448201526a6e697469616c697a696e6760a81b606482015260840161045b565b81516118429060699060208501906119e5565b508051610f9f90606a9060208401906119e5565b6060611865848460008561186d565b949350505050565b6060824710156118e55760405162461bcd60e51b815260206004820152602660248201527f416464726573733a20696e73756666696369656e742062616c616e636520666f60448201527f722063616c6c0000000000000000000000000000000000000000000000000000606482015260840161045b565b843b6119335760405162461bcd60e51b815260206004820152601d60248201527f416464726573733a2063616c6c20746f206e6f6e2d636f6e7472616374000000604482015260640161045b565b600080866001600160a01b0316858760405161194f9190611ec9565b60006040518083038185875af1925050503d806000811461198c576040519150601f19603f3d011682016040523d82523d6000602084013e611991565b606091505b50915091506119a18282866119ac565b979650505050505050565b606083156119bb575081610674565b8251156119cb5782518084602001fd5b8160405162461bcd60e51b815260040161045b9190611aaa565b8280546119f190611cdd565b90600052602060002090601f016020900481019282611a135760008555611a59565b82601f10611a2c57805160ff1916838001178555611a59565b82800160010185558215611a59579182015b82811115611a59578251825591602001919060010190611a3e565b50611a65929150611a69565b5090565b5b80821115611a655760008155600101611a6a565b60005b83811015611a99578181015183820152602001611a81565b83811115610a4c5750506000910152565b6020815260008251806020840152611ac9816040850160208701611a7e565b601f01601f19169190910160400192915050565b80356001600160a01b0381168114611af457600080fd5b919050565b60008060408385031215611b0c57600080fd5b611b1583611add565b946020939093013593505050565b600060208284031215611b3557600080fd5b5035919050565b600080600060608486031215611b5157600080fd5b611b5a84611add565b9250611b6860208501611add565b9150604084013590509250925092565b600060208284031215611b8a57600080fd5b61067482611add565b634e487b7160e01b600052604160045260246000fd5b600082601f830112611bba57600080fd5b813567ffffffffffffffff80821115611bd557611bd5611b93565b604051601f8301601f19908116603f01168101908282118183101715611bfd57611bfd611b93565b81604052838152866020858801011115611c1657600080fd5b836020870160208301376000602085830101528094505050505092915050565b600080600060608486031215611c4b57600080fd5b611c5484611add565b9250602084013567ffffffffffffffff80821115611c7157600080fd5b611c7d87838801611ba9565b93506040860135915080821115611c9357600080fd5b50611ca086828701611ba9565b9150509250925092565b60008060408385031215611cbd57600080fd5b611cc683611add565b9150611cd460208401611add565b90509250929050565b600181811c90821680611cf157607f821691505b60208210811415611d1257634e487b7160e01b600052602260045260246000fd5b50919050565b634e487b7160e01b600052601160045260246000fd5b60008219821115611d4157611d41611d18565b500190565b600060208284031215611d5857600080fd5b5051919050565b600082821015611d7157611d71611d18565b500390565b6000816000190483118215151615611d9057611d90611d18565b500290565b600082611db257634e487b7160e01b600052601260045260246000fd5b500490565b600181815b80851115611df2578160001904821115611dd857611dd8611d18565b80851615611de557918102915b93841c9390800290611dbc565b509250929050565b600082611e0957506001610404565b81611e1657506000610404565b8160018114611e2c5760028114611e3657611e52565b6001915050610404565b60ff841115611e4757611e47611d18565b50506001821b610404565b5060208310610133831016604e8410600b8410161715611e75575081810a610404565b611e7f8383611db7565b8060001904821115611e9357611e93611d18565b029392505050565b60006106748383611dfa565b600060208284031215611eb957600080fd5b8151801515811461067457600080fd5b60008251611edb818460208701611a7e565b919091019291505056fea164736f6c634300080a000a",
    "devdoc": {
        "kind": "dev",
        "methods": {
            "allowance(address,address)": {
                "details": "See {IERC20-allowance}."
            },
            "approve(address,uint256)": {
                "details": "See {IERC20-approve}. Requirements: - `spender` cannot be the zero address."
            },
            "balanceOf(address)": {
                "details": "See {IERC20-balanceOf}."
            },
            "balanceOfUnderlying(address)": {
                "params": {
                    "_account": "The account to view the underlying balance of."
                },
                "returns": {
                    "_0": "The amount of underlying tokens the account owns in this contract."
                }
            },
            "constructor": {
                "details": "Protects against a call to initialize when this contract is called directly without a proxy."
            },
            "decimals()": {
                "details": "Returns the number of decimals used to get its user representation. For example, if `decimals` equals `2`, a balance of `505` tokens should be displayed to a user as `5.05` (`505 / 10 ** 2`). Tokens usually opt for a value of 18, imitating the relationship between Ether and Wei. This is the value {ERC20} uses, unless this function is overridden; NOTE: This information is only used for _display_ purposes: it in no way affects any of the arithmetic of the contract, including {IERC20-balanceOf} and {IERC20-transfer}."
            },
            "decreaseAllowance(address,uint256)": {
                "details": "Atomically decreases the allowance granted to `spender` by the caller. This is an alternative to {approve} that can be used as a mitigation for problems described in {IERC20-approve}. Emits an {Approval} event indicating the updated allowance. Requirements: - `spender` cannot be the zero address. - `spender` must have allowance for the caller of at least `subtractedValue`."
            },
            "depositUnderlying(uint256)": {
                "details": "The amount of the underlying deposited that's used in any calculations is   the difference in this contract's balance after transferring in underlyingDepositAmount.",
                "params": {
                    "_underlyingDepositAmount": "The amount of the underlying token to transfer in as a deposit."
                },
                "returns": {
                    "_0": "The amount of this token that was minted for the deposit."
                }
            },
            "getUnderlyingAmount(uint256)": {
                "details": "Loss of precision could result in a marginally lower amount returned, but should never   result in a higher value than intended. Dust from any lower amounts that are withdrawn   effectively accumulate to the rest of token holders.",
                "params": {
                    "_nonRebasingAmount": "The non-rebasing amount of tokens, i.e. denominated in this contract's tokens."
                },
                "returns": {
                    "_0": "The amount of underlying tokens corresponding to nonRebasingAmount of this contract's tokens."
                }
            },
            "increaseAllowance(address,uint256)": {
                "details": "Atomically increases the allowance granted to `spender` by the caller. This is an alternative to {approve} that can be used as a mitigation for problems described in {IERC20-approve}. Emits an {Approval} event indicating the updated allowance. Requirements: - `spender` cannot be the zero address."
            },
            "initialize(address,string,string)": {
                "params": {
                    "_name": "The name of this wrapper token.",
                    "_symbol": "The symbol of this wrapper token.",
                    "_underlyingToken": "The address of the underlying token this contract wraps."
                }
            },
            "name()": {
                "details": "Returns the name of the token."
            },
            "owner()": {
                "details": "Returns the address of the current owner."
            },
            "pendingOwner()": {
                "details": "Returns the address of the pending owner."
            },
            "symbol()": {
                "details": "Returns the symbol of the token, usually a shorter version of the name."
            },
            "totalSupply()": {
                "details": "See {IERC20-totalSupply}."
            },
            "transfer(address,uint256)": {
                "details": "See {IERC20-transfer}. Requirements: - `recipient` cannot be the zero address. - the caller must have a balance of at least `amount`."
            },
            "transferFrom(address,address,uint256)": {
                "details": "See {IERC20-transferFrom}. Emits an {Approval} event indicating the updated allowance. This is not required by the EIP. See the note at the beginning of {ERC20}. Requirements: - `sender` and `recipient` cannot be the zero address. - `sender` must have a balance of at least `amount`. - the caller must have allowance for ``sender``'s tokens of at least `amount`."
            },
            "transferOwnership(address)": {
                "details": "Transfers ownership of the contract to a new account (`newOwner`). Can only be called by the current owner."
            },
            "withdrawUnderlying(uint256)": {
                "params": {
                    "_nonRebasingWithdrawalAmount": "Denominated in this token, the amount   to burn. Used to calculate the amount of underlying tokens that are withdrawn as a result."
                },
                "returns": {
                    "_0": "The amount of the rebasing underlying token withdrawn."
                }
            }
        },
        "title": "A non-rebasing wrapper token.",
        "version": 1
    },
    "userdoc": {
        "kind": "user",
        "methods": {
            "balanceOfUnderlying(address)": {
                "notice": "Gets the amount of the underlying tokens an account owns based off their   balance of this token."
            },
            "claimOwnership()": {
                "notice": "Needs to be called by pending owner to claim ownership."
            },
            "constructor": {
                "notice": "Empty constructor, see `initialize`."
            },
            "depositUnderlying(uint256)": {
                "notice": "Deposits an amount of the underlying token, minting an amount of this token   according to the deposit amount."
            },
            "getUnderlyingAmount(uint256)": {
                "notice": "Gets the amount of underlying tokens corresponding to a provided amount of this contract's tokens."
            },
            "initialize(address,string,string)": {
                "notice": "Constructs a non-rebasing wrapper token."
            },
            "underlyingToken()": {
                "notice": "The underlying token that this contract wraps."
            },
            "withdrawUnderlying(uint256)": {
                "notice": "Withdraws an underlying token amount corresponding to the provided   amount of this token, burning the tokens."
            }
        },
        "notice": "A non-rebasing token that wraps rebasing tokens to present a balance for each user that   does not change from exogenous events. The logic in Kresko.sol assumes that collateral token   balances do not rebase. This contract is intended to allow Kresko.sol to support rebasing tokens   as collateral, but it can be used in any setting just as a normal token.   Rebasing tokens are tokens whose balances across all holders change due to exogenous reasons   (i.e. not just token transfers, for example Aave's aTokens that adjust balances as they accrue   interest). Such rebasing tokens can be wrapped in this contract, instead representing them as   a token whose balances do not rebase but have an internal exchange rate between the underlying   rebasing token and this non-rebasing wrapper token (e.g. how Compound's cTokens do not rebase but   use an internal exchange rate to represent accrued interest). This is useful to allow protocols   (like Kresko) that have accounting rules that assume deposited tokens are non-rebasing (e.g. so   that a user's collateral in a particular token can be kept track of as an exact quantity of deposited   tokens rather than a percent ownership of a pool of deposited tokens).   Non-rebasing tokens (i.e. this contract) are minted and burned according to the internal exchange rate of   the non-rebasing token to the rebasing token (i.e. the underlying token). In pseudocode to illustrate:     exchangeRate = underlyingToken.balanceOf(address(this)) / totalSupply()     underlyingOwnedByNonRebasingTokenHolder = exchangeRate * balanceOf(nonRebasingTokenHolder)",
        "version": 1
    },
    "storageLayout": {
        "storage": [
            {
                "astId": 597,
                "contract": "src/contracts/misc/NonRebasingWrapperToken.sol:NonRebasingWrapperToken",
                "label": "_initialized",
                "offset": 0,
                "slot": "0",
                "type": "t_bool"
            },
            {
                "astId": 600,
                "contract": "src/contracts/misc/NonRebasingWrapperToken.sol:NonRebasingWrapperToken",
                "label": "_initializing",
                "offset": 1,
                "slot": "0",
                "type": "t_bool"
            },
            {
                "astId": 1910,
                "contract": "src/contracts/misc/NonRebasingWrapperToken.sol:NonRebasingWrapperToken",
                "label": "__gap",
                "offset": 0,
                "slot": "1",
                "type": "t_array(t_uint256)50_storage"
            },
            {
                "astId": 25882,
                "contract": "src/contracts/misc/NonRebasingWrapperToken.sol:NonRebasingWrapperToken",
                "label": "_owner",
                "offset": 0,
                "slot": "51",
                "type": "t_address"
            },
            {
                "astId": 25884,
                "contract": "src/contracts/misc/NonRebasingWrapperToken.sol:NonRebasingWrapperToken",
                "label": "_pendingOwner",
                "offset": 0,
                "slot": "52",
                "type": "t_address"
            },
            {
                "astId": 26031,
                "contract": "src/contracts/misc/NonRebasingWrapperToken.sol:NonRebasingWrapperToken",
                "label": "__gap",
                "offset": 0,
                "slot": "53",
                "type": "t_array(t_uint256)49_storage"
            },
            {
                "astId": 741,
                "contract": "src/contracts/misc/NonRebasingWrapperToken.sol:NonRebasingWrapperToken",
                "label": "_balances",
                "offset": 0,
                "slot": "102",
                "type": "t_mapping(t_address,t_uint256)"
            },
            {
                "astId": 747,
                "contract": "src/contracts/misc/NonRebasingWrapperToken.sol:NonRebasingWrapperToken",
                "label": "_allowances",
                "offset": 0,
                "slot": "103",
                "type": "t_mapping(t_address,t_mapping(t_address,t_uint256))"
            },
            {
                "astId": 749,
                "contract": "src/contracts/misc/NonRebasingWrapperToken.sol:NonRebasingWrapperToken",
                "label": "_totalSupply",
                "offset": 0,
                "slot": "104",
                "type": "t_uint256"
            },
            {
                "astId": 751,
                "contract": "src/contracts/misc/NonRebasingWrapperToken.sol:NonRebasingWrapperToken",
                "label": "_name",
                "offset": 0,
                "slot": "105",
                "type": "t_string_storage"
            },
            {
                "astId": 753,
                "contract": "src/contracts/misc/NonRebasingWrapperToken.sol:NonRebasingWrapperToken",
                "label": "_symbol",
                "offset": 0,
                "slot": "106",
                "type": "t_string_storage"
            },
            {
                "astId": 1294,
                "contract": "src/contracts/misc/NonRebasingWrapperToken.sol:NonRebasingWrapperToken",
                "label": "__gap",
                "offset": 0,
                "slot": "107",
                "type": "t_array(t_uint256)45_storage"
            },
            {
                "astId": 678,
                "contract": "src/contracts/misc/NonRebasingWrapperToken.sol:NonRebasingWrapperToken",
                "label": "_status",
                "offset": 0,
                "slot": "152",
                "type": "t_uint256"
            },
            {
                "astId": 721,
                "contract": "src/contracts/misc/NonRebasingWrapperToken.sol:NonRebasingWrapperToken",
                "label": "__gap",
                "offset": 0,
                "slot": "153",
                "type": "t_array(t_uint256)49_storage"
            },
            {
                "astId": 23566,
                "contract": "src/contracts/misc/NonRebasingWrapperToken.sol:NonRebasingWrapperToken",
                "label": "underlyingToken",
                "offset": 0,
                "slot": "202",
                "type": "t_contract(IERC20Upgradeable)1373"
            }
        ],
        "types": {
            "t_address": {
                "encoding": "inplace",
                "label": "address",
                "numberOfBytes": "20"
            },
            "t_array(t_uint256)45_storage": {
                "base": "t_uint256",
                "encoding": "inplace",
                "label": "uint256[45]",
                "numberOfBytes": "1440"
            },
            "t_array(t_uint256)49_storage": {
                "base": "t_uint256",
                "encoding": "inplace",
                "label": "uint256[49]",
                "numberOfBytes": "1568"
            },
            "t_array(t_uint256)50_storage": {
                "base": "t_uint256",
                "encoding": "inplace",
                "label": "uint256[50]",
                "numberOfBytes": "1600"
            },
            "t_bool": {
                "encoding": "inplace",
                "label": "bool",
                "numberOfBytes": "1"
            },
            "t_contract(IERC20Upgradeable)1373": {
                "encoding": "inplace",
                "label": "contract IERC20Upgradeable",
                "numberOfBytes": "20"
            },
            "t_mapping(t_address,t_mapping(t_address,t_uint256))": {
                "encoding": "mapping",
                "key": "t_address",
                "label": "mapping(address => mapping(address => uint256))",
                "numberOfBytes": "32",
                "value": "t_mapping(t_address,t_uint256)"
            },
            "t_mapping(t_address,t_uint256)": {
                "encoding": "mapping",
                "key": "t_address",
                "label": "mapping(address => uint256)",
                "numberOfBytes": "32",
                "value": "t_uint256"
            },
            "t_string_storage": {
                "encoding": "bytes",
                "label": "string",
                "numberOfBytes": "32"
            },
            "t_uint256": {
                "encoding": "inplace",
                "label": "uint256",
                "numberOfBytes": "32"
            }
        }
    }
}