{
  "address": "0xA8DCF0025019A55df21eb447A92e8c5bdb978F04",
  "abi": [
    {
      "inputs": [
        {
          "internalType": "address",
          "name": "_account",
          "type": "address"
        },
        {
          "internalType": "address",
          "name": "_asset",
          "type": "address"
        }
      ],
      "name": "collateralDeposits",
      "outputs": [
        {
          "internalType": "uint256",
          "name": "",
          "type": "uint256"
        }
      ],
      "stateMutability": "view",
      "type": "function"
    },
    {
      "inputs": [
        {
          "internalType": "address",
          "name": "_account",
          "type": "address"
        }
      ],
      "name": "getAccountCollateralRatio",
      "outputs": [
        {
          "components": [
            {
              "internalType": "uint256",
              "name": "rawValue",
              "type": "uint256"
            }
          ],
          "internalType": "struct FixedPoint.Unsigned",
          "name": "ratio",
          "type": "tuple"
        }
      ],
      "stateMutability": "view",
      "type": "function"
    },
    {
      "inputs": [
        {
          "internalType": "address",
          "name": "_account",
          "type": "address"
        }
      ],
      "name": "getAccountCollateralValue",
      "outputs": [
        {
          "components": [
            {
              "internalType": "uint256",
              "name": "rawValue",
              "type": "uint256"
            }
          ],
          "internalType": "struct FixedPoint.Unsigned",
          "name": "",
          "type": "tuple"
        }
      ],
      "stateMutability": "view",
      "type": "function"
    },
    {
      "inputs": [
        {
          "internalType": "address",
          "name": "_account",
          "type": "address"
        }
      ],
      "name": "getAccountKrAssetValue",
      "outputs": [
        {
          "components": [
            {
              "internalType": "uint256",
              "name": "rawValue",
              "type": "uint256"
            }
          ],
          "internalType": "struct FixedPoint.Unsigned",
          "name": "",
          "type": "tuple"
        }
      ],
      "stateMutability": "view",
      "type": "function"
    },
    {
      "inputs": [
        {
          "internalType": "address",
          "name": "_account",
          "type": "address"
        },
        {
          "components": [
            {
              "internalType": "uint256",
              "name": "rawValue",
              "type": "uint256"
            }
          ],
          "internalType": "struct FixedPoint.Unsigned",
          "name": "_ratio",
          "type": "tuple"
        }
      ],
      "name": "getAccountMinimumCollateralValueAtRatio",
      "outputs": [
        {
          "components": [
            {
              "internalType": "uint256",
              "name": "rawValue",
              "type": "uint256"
            }
          ],
          "internalType": "struct FixedPoint.Unsigned",
          "name": "",
          "type": "tuple"
        }
      ],
      "stateMutability": "view",
      "type": "function"
    },
    {
      "inputs": [
        {
          "internalType": "address[]",
          "name": "_accounts",
          "type": "address[]"
        }
      ],
      "name": "getCollateralRatiosFor",
      "outputs": [
        {
          "components": [
            {
              "internalType": "uint256",
              "name": "rawValue",
              "type": "uint256"
            }
          ],
          "internalType": "struct FixedPoint.Unsigned[]",
          "name": "",
          "type": "tuple[]"
        }
      ],
      "stateMutability": "view",
      "type": "function"
    },
    {
      "inputs": [
        {
          "internalType": "address",
          "name": "_account",
          "type": "address"
        },
        {
          "internalType": "address",
          "name": "_collateralAsset",
          "type": "address"
        }
      ],
      "name": "getDepositedCollateralAssetIndex",
      "outputs": [
        {
          "internalType": "uint256",
          "name": "i",
          "type": "uint256"
        }
      ],
      "stateMutability": "view",
      "type": "function"
    },
    {
      "inputs": [
        {
          "internalType": "address",
          "name": "_account",
          "type": "address"
        }
      ],
      "name": "getDepositedCollateralAssets",
      "outputs": [
        {
          "internalType": "address[]",
          "name": "",
          "type": "address[]"
        }
      ],
      "stateMutability": "view",
      "type": "function"
    },
    {
      "inputs": [
        {
          "internalType": "address",
          "name": "_account",
          "type": "address"
        }
      ],
      "name": "getMintedKreskoAssets",
      "outputs": [
        {
          "internalType": "address[]",
          "name": "",
          "type": "address[]"
        }
      ],
      "stateMutability": "view",
      "type": "function"
    },
    {
      "inputs": [
        {
          "internalType": "address",
          "name": "_account",
          "type": "address"
        },
        {
          "internalType": "address",
          "name": "_kreskoAsset",
          "type": "address"
        }
      ],
      "name": "getMintedKreskoAssetsIndex",
      "outputs": [
        {
          "internalType": "uint256",
          "name": "",
          "type": "uint256"
        }
      ],
      "stateMutability": "view",
      "type": "function"
    },
    {
      "inputs": [
        {
          "internalType": "address",
          "name": "_account",
          "type": "address"
        },
        {
          "internalType": "address",
          "name": "_asset",
          "type": "address"
        }
      ],
      "name": "kreskoAssetDebt",
      "outputs": [
        {
          "internalType": "uint256",
          "name": "",
          "type": "uint256"
        }
      ],
      "stateMutability": "view",
      "type": "function"
    }
  ],
  "transactionHash": "0xad7026d66a4dd349b03e0bcc736c5108438ae1e0a71950888a13a4996b5dafab",
  "args": [],
  "numDeployments": 1,
  "solcInputHash": "982b6a22f97b2c235980e50ae289fa10",
  "bytecode": "0x608060405234801561001057600080fd5b50611d94806100206000396000f3fe608060405234801561001057600080fd5b50600436106100a95760003560e01c8063d0d7814011610071578063d0d781401461019e578063d63b4a66146101ce578063efa80e86146101fe578063eff19fd51461022e578063f18d1ae51461025e578063ff1389c51461028e576100a9565b80630c65e07b146100ae5780632f3bc67a146100de57806334923cd81461010e5780636d38822a1461013e5780637d1a44501461016e575b600080fd5b6100c860048036038101906100c391906114f4565b6102be565b6040516100d5919061154d565b60405180910390f35b6100f860048036038101906100f391906114f4565b61034e565b604051610105919061154d565b60405180910390f35b610128600480360381019061012391906114f4565b610475565b604051610135919061154d565b60405180910390f35b61015860048036038101906101539190611568565b610505565b6040516101659190611653565b60405180910390f35b61018860048036038101906101839190611568565b6105db565b60405161019591906116a0565b60405180910390f35b6101b860048036038101906101b39190611568565b610604565b6040516101c591906116a0565b60405180910390f35b6101e860048036038101906101e391906114f4565b610692565b6040516101f5919061154d565b60405180910390f35b61021860048036038101906102139190611568565b6106b8565b6040516102259190611653565b60405180910390f35b61024860048036038101906102439190611720565b61078e565b6040516102559190611838565b60405180910390f35b61027860048036038101906102739190611953565b610865565b60405161028591906116a0565b60405180910390f35b6102a860048036038101906102a39190611568565b610891565b6040516102b591906116a0565b60405180910390f35b60006102c86108ba565b600a0160008473ffffffffffffffffffffffffffffffffffffffff1673ffffffffffffffffffffffffffffffffffffffff16815260200190815260200160002060008373ffffffffffffffffffffffffffffffffffffffff1673ffffffffffffffffffffffffffffffffffffffff16815260200190815260200160002054905092915050565b60005b6103596108ba565b600b0160008473ffffffffffffffffffffffffffffffffffffffff1673ffffffffffffffffffffffffffffffffffffffff1681526020019081526020016000208054905081101561046f578173ffffffffffffffffffffffffffffffffffffffff166103c36108ba565b600b0160008573ffffffffffffffffffffffffffffffffffffffff1673ffffffffffffffffffffffffffffffffffffffff168152602001908152602001600020828154811061041557610414611993565b5b9060005260206000200160009054906101000a900473ffffffffffffffffffffffffffffffffffffffff1673ffffffffffffffffffffffffffffffffffffffff16031561046f578080610467906119f1565b915050610351565b92915050565b600061047f6108ba565b600d0160008473ffffffffffffffffffffffffffffffffffffffff1673ffffffffffffffffffffffffffffffffffffffff16815260200190815260200160002060008373ffffffffffffffffffffffffffffffffffffffff1673ffffffffffffffffffffffffffffffffffffffff16815260200190815260200160002054905092915050565b606061050f6108ba565b600b0160008373ffffffffffffffffffffffffffffffffffffffff1673ffffffffffffffffffffffffffffffffffffffff1681526020019081526020016000208054806020026020016040519081016040528092919081815260200182805480156105cf57602002820191906000526020600020905b8160009054906101000a900473ffffffffffffffffffffffffffffffffffffffff1673ffffffffffffffffffffffffffffffffffffffff1681526020019060010190808311610585575b50505050509050919050565b6105e361146f565b6105fd826105ef6108ba565b6108e790919063ffffffff16565b9050919050565b61060c61146f565b60006106288361061a6108ba565b6108e790919063ffffffff16565b9050600081600001510361064e576040518060200160405280600081525091505061068d565b61068961067a8461065d6108ba565b600401604051806020016040529081600082015481525050610865565b82610ac990919063ffffffff16565b9150505b919050565b60006106b083836106a16108ba565b610b219092919063ffffffff16565b905092915050565b60606106c26108ba565b600e0160008373ffffffffffffffffffffffffffffffffffffffff1673ffffffffffffffffffffffffffffffffffffffff16815260200190815260200160002080548060200260200160405190810160405280929190818152602001828054801561078257602002820191906000526020600020905b8160009054906101000a900473ffffffffffffffffffffffffffffffffffffffff1673ffffffffffffffffffffffffffffffffffffffff1681526020019060010190808311610738575b50505050509050919050565b606060008383905067ffffffffffffffff8111156107af576107ae611870565b5b6040519080825280602002602001820160405280156107e857816020015b6107d561146f565b8152602001906001900390816107cd5790505b50905060005b8484905081101561085a5761082985858381811061080f5761080e611993565b5b90506020020160208101906108249190611568565b610604565b82828151811061083c5761083b611993565b5b60200260200101819052508080610852906119f1565b9150506107ee565b508091505092915050565b61086d61146f565b610889838361087a6108ba565b610c3b9092919063ffffffff16565b905092915050565b61089961146f565b6108b3826108a56108ba565b610c7190919063ffffffff16565b9050919050565b6000807f5076ab9fa18d2a17cfce4375a530b76392de8264a11126885cd5534d39f0a97c90508091505090565b6108ef61146f565b6000604051806020016040528060008152509050600084600b0160008573ffffffffffffffffffffffffffffffffffffffff1673ffffffffffffffffffffffffffffffffffffffff1681526020019081526020016000208054806020026020016040519081016040528092919081815260200182805480156109c657602002820191906000526020600020905b8160009054906101000a900473ffffffffffffffffffffffffffffffffffffffff1673ffffffffffffffffffffffffffffffffffffffff168152602001906001019080831161097c575b5050505050905060005b8151811015610abd5760008282815181106109ee576109ed611993565b5b602002602001015190506000610a908289600a0160008a73ffffffffffffffffffffffffffffffffffffffff1673ffffffffffffffffffffffffffffffffffffffff16815260200190815260200160002060008573ffffffffffffffffffffffffffffffffffffffff1673ffffffffffffffffffffffffffffffffffffffff1681526020019081526020016000205460008b610e4c909392919063ffffffff16565b509050610aa6818661109a90919063ffffffff16565b945050508080610ab5906119f1565b9150506109d0565b50819250505092915050565b610ad161146f565b6040518060200160405280610b168460000151610b086012600a610af59190611b6c565b88600001516110d390919063ffffffff16565b6110e990919063ffffffff16565b815250905092915050565b60005b83600e0160008473ffffffffffffffffffffffffffffffffffffffff1673ffffffffffffffffffffffffffffffffffffffff16815260200190815260200160002080549050811015610c34578173ffffffffffffffffffffffffffffffffffffffff1684600e0160008573ffffffffffffffffffffffffffffffffffffffff1673ffffffffffffffffffffffffffffffffffffffff1681526020019081526020016000208281548110610bda57610bd9611993565b5b9060005260206000200160009054906101000a900473ffffffffffffffffffffffffffffffffffffffff1673ffffffffffffffffffffffffffffffffffffffff160315610c34578080610c2c906119f1565b915050610b24565b9392505050565b610c4361146f565b610c6882610c5a8587610c7190919063ffffffff16565b6110ff90919063ffffffff16565b90509392505050565b610c7961146f565b6000604051806020016040528060008152509050600084600e0160008573ffffffffffffffffffffffffffffffffffffffff1673ffffffffffffffffffffffffffffffffffffffff168152602001908152602001600020805480602002602001604051908101604052809291908181526020018280548015610d5057602002820191906000526020600020905b8160009054906101000a900473ffffffffffffffffffffffffffffffffffffffff1673ffffffffffffffffffffffffffffffffffffffff1681526020019060010190808311610d06575b5050505050905060005b8151811015610e40576000828281518110610d7857610d77611993565b5b60200260200101519050610e2a610e1b8289600d0160008a73ffffffffffffffffffffffffffffffffffffffff1673ffffffffffffffffffffffffffffffffffffffff16815260200190815260200160002060008573ffffffffffffffffffffffffffffffffffffffff1673ffffffffffffffffffffffffffffffffffffffff1681526020019081526020016000205460008b611150909392919063ffffffff16565b8561109a90919063ffffffff16565b9350508080610e38906119f1565b915050610d5a565b50819250505092915050565b610e5461146f565b610e5c61146f565b60008660090160008773ffffffffffffffffffffffffffffffffffffffff1673ffffffffffffffffffffffffffffffffffffffff1681526020019081526020016000206040518060a00160405290816000820160405180602001604052908160008201548152505081526020016001820160009054906101000a900473ffffffffffffffffffffffffffffffffffffffff1673ffffffffffffffffffffffffffffffffffffffff1673ffffffffffffffffffffffffffffffffffffffff1681526020016002820160009054906101000a900473ffffffffffffffffffffffffffffffffffffffff1673ffffffffffffffffffffffffffffffffffffffff1673ffffffffffffffffffffffffffffffffffffffff1681526020016002820160149054906101000a900460ff1660ff1660ff1681526020016002820160159054906101000a900460ff16151515158152505090506000610fca86836060015160ff1661135190919063ffffffff16565b905060006040518060200160405280846020015173ffffffffffffffffffffffffffffffffffffffff166350d25bcd6040518163ffffffff1660e01b8152600401602060405180830381865afa158015611028573d6000803e3d6000fd5b505050506040513d601f19601f8201168201806040525081019061104c9190611bed565b8152509050600061106682846110ff90919063ffffffff16565b905086611087576110848460000151826110ff90919063ffffffff16565b90505b8082955095505050505094509492505050565b6110a261146f565b60405180602001604052806110c8846000015186600001516113ef90919063ffffffff16565b815250905092915050565b600081836110e19190611c1a565b905092915050565b600081836110f79190611ca3565b905092915050565b61110761146f565b60405180602001604052806012600a6111209190611b6c565b61113b856000015187600001516110d390919063ffffffff16565b6111459190611ca3565b815250905092915050565b61115861146f565b600085600c0160008673ffffffffffffffffffffffffffffffffffffffff1673ffffffffffffffffffffffffffffffffffffffff1681526020019081526020016000206040518060c00160405290816000820160405180602001604052908160008201548152505081526020016001820160009054906101000a900473ffffffffffffffffffffffffffffffffffffffff1673ffffffffffffffffffffffffffffffffffffffff1673ffffffffffffffffffffffffffffffffffffffff168152602001600282015481526020016003820160405180602001604052908160008201548152505081526020016004820160009054906101000a900460ff161515151581526020016004820160019054906101000a900460ff161515151581525050905060006040518060200160405280836020015173ffffffffffffffffffffffffffffffffffffffff166350d25bcd6040518163ffffffff1660e01b8152600401602060405180830381865afa1580156112d6573d6000803e3d6000fd5b505050506040513d601f19601f820116820180604052508101906112fa9190611bed565b81525090506000611322826040518060200160405280898152506110ff90919063ffffffff16565b905084611343576113408360000151826110ff90919063ffffffff16565b90505b809350505050949350505050565b61135961146f565b6000604051806020016040528084815250905060128410156113a8576113a08460126113859190611cd4565b600a6113919190611b6c565b8261140590919063ffffffff16565b9150506113e9565b60128411156113e4576113dc6012856113c19190611cd4565b600a6113cd9190611b6c565b8261143a90919063ffffffff16565b9150506113e9565b809150505b92915050565b600081836113fd9190611d08565b905092915050565b61140d61146f565b604051806020016040528061142f8486600001516110d390919063ffffffff16565b815250905092915050565b61144261146f565b60405180602001604052806114648486600001516110e990919063ffffffff16565b815250905092915050565b6040518060200160405280600081525090565b6000604051905090565b600080fd5b600080fd5b600073ffffffffffffffffffffffffffffffffffffffff82169050919050565b60006114c182611496565b9050919050565b6114d1816114b6565b81146114dc57600080fd5b50565b6000813590506114ee816114c8565b92915050565b6000806040838503121561150b5761150a61148c565b5b6000611519858286016114df565b925050602061152a858286016114df565b9150509250929050565b6000819050919050565b61154781611534565b82525050565b6000602082019050611562600083018461153e565b92915050565b60006020828403121561157e5761157d61148c565b5b600061158c848285016114df565b91505092915050565b600081519050919050565b600082825260208201905092915050565b6000819050602082019050919050565b6115ca816114b6565b82525050565b60006115dc83836115c1565b60208301905092915050565b6000602082019050919050565b600061160082611595565b61160a81856115a0565b9350611615836115b1565b8060005b8381101561164657815161162d88826115d0565b9750611638836115e8565b925050600181019050611619565b5085935050505092915050565b6000602082019050818103600083015261166d81846115f5565b905092915050565b61167e81611534565b82525050565b60208201600082015161169a6000850182611675565b50505050565b60006020820190506116b56000830184611684565b92915050565b600080fd5b600080fd5b600080fd5b60008083601f8401126116e0576116df6116bb565b5b8235905067ffffffffffffffff8111156116fd576116fc6116c0565b5b602083019150836020820283011115611719576117186116c5565b5b9250929050565b600080602083850312156117375761173661148c565b5b600083013567ffffffffffffffff81111561175557611754611491565b5b611761858286016116ca565b92509250509250929050565b600081519050919050565b600082825260208201905092915050565b6000819050602082019050919050565b6020820160008201516117af6000850182611675565b50505050565b60006117c18383611799565b60208301905092915050565b6000602082019050919050565b60006117e58261176d565b6117ef8185611778565b93506117fa83611789565b8060005b8381101561182b57815161181288826117b5565b975061181d836117cd565b9250506001810190506117fe565b5085935050505092915050565b6000602082019050818103600083015261185281846117da565b905092915050565b600080fd5b6000601f19601f8301169050919050565b7f4e487b7100000000000000000000000000000000000000000000000000000000600052604160045260246000fd5b6118a88261185f565b810181811067ffffffffffffffff821117156118c7576118c6611870565b5b80604052505050565b60006118da611482565b90506118e6828261189f565b919050565b6118f481611534565b81146118ff57600080fd5b50565b600081359050611911816118eb565b92915050565b60006020828403121561192d5761192c61185a565b5b61193760206118d0565b9050600061194784828501611902565b60008301525092915050565b6000806040838503121561196a5761196961148c565b5b6000611978858286016114df565b925050602061198985828601611917565b9150509250929050565b7f4e487b7100000000000000000000000000000000000000000000000000000000600052603260045260246000fd5b7f4e487b7100000000000000000000000000000000000000000000000000000000600052601160045260246000fd5b60006119fc82611534565b91507fffffffffffffffffffffffffffffffffffffffffffffffffffffffffffffffff8203611a2e57611a2d6119c2565b5b600182019050919050565b60008160011c9050919050565b6000808291508390505b6001851115611a9057808604811115611a6c57611a6b6119c2565b5b6001851615611a7b5780820291505b8081029050611a8985611a39565b9450611a50565b94509492505050565b600082611aa95760019050611b65565b81611ab75760009050611b65565b8160018114611acd5760028114611ad757611b06565b6001915050611b65565b60ff841115611ae957611ae86119c2565b5b8360020a915084821115611b0057611aff6119c2565b5b50611b65565b5060208310610133831016604e8410600b8410161715611b3b5782820a905083811115611b3657611b356119c2565b5b611b65565b611b488484846001611a46565b92509050818404811115611b5f57611b5e6119c2565b5b81810290505b9392505050565b6000611b7782611534565b9150611b8283611534565b9250611baf7fffffffffffffffffffffffffffffffffffffffffffffffffffffffffffffffff8484611a99565b905092915050565b6000819050919050565b611bca81611bb7565b8114611bd557600080fd5b50565b600081519050611be781611bc1565b92915050565b600060208284031215611c0357611c0261148c565b5b6000611c1184828501611bd8565b91505092915050565b6000611c2582611534565b9150611c3083611534565b9250817fffffffffffffffffffffffffffffffffffffffffffffffffffffffffffffffff0483118215151615611c6957611c686119c2565b5b828202905092915050565b7f4e487b7100000000000000000000000000000000000000000000000000000000600052601260045260246000fd5b6000611cae82611534565b9150611cb983611534565b925082611cc957611cc8611c74565b5b828204905092915050565b6000611cdf82611534565b9150611cea83611534565b925082821015611cfd57611cfc6119c2565b5b828203905092915050565b6000611d1382611534565b9150611d1e83611534565b9250827fffffffffffffffffffffffffffffffffffffffffffffffffffffffffffffffff03821115611d5357611d526119c2565b5b82820190509291505056fea2646970667358221220ba03395035eadb198c8d7e4430589100caaacecb594b35d65cca2c209ee4cb6a64736f6c634300080e0033",
  "devdoc": {
    "kind": "dev",
    "methods": {
      "collateralDeposits(address,address)": {
        "params": {
          "_account": "The account to query amount for",
          "_asset": "The asset address"
        },
        "returns": {
          "_0": "Amount of collateral deposited for `_asset`"
        }
      },
      "getAccountCollateralRatio(address)": {
        "returns": {
          "ratio": "for an `_account`"
        }
      },
      "getAccountCollateralValue(address)": {
        "details": "O(# of different deposited collateral assets by account) complexity.",
        "params": {
          "_account": "The account to calculate the collateral value for."
        },
        "returns": {
          "_0": "The collateral value of a particular account."
        }
      },
      "getAccountKrAssetValue(address)": {
        "params": {
          "_account": "The account to calculate the Kresko asset value for."
        },
        "returns": {
          "_0": "The Kresko asset value of a particular account."
        }
      },
      "getAccountMinimumCollateralValueAtRatio(address,(uint256))": {
        "details": "Accounts that have their collateral value under the minimum collateral value are considered unhealthy,      accounts with their collateral value under the liquidation threshold are considered liquidatable.",
        "params": {
          "_account": "The account to calculate the minimum collateral value for.",
          "_ratio": "The collateralization ratio required: higher ratio = more collateral required"
        },
        "returns": {
          "_0": "The minimum collateral value of a particular account."
        }
      },
      "getCollateralRatiosFor(address[])": {
        "returns": {
          "_0": "ratios of the accounts"
        }
      },
      "getDepositedCollateralAssetIndex(address,address)": {
        "params": {
          "_account": "The account to get the index for.",
          "_collateralAsset": "The asset lookup address."
        },
        "returns": {
          "i": "= index of the minted collateral asset."
        }
      },
      "getDepositedCollateralAssets(address)": {
        "params": {
          "_account": "The account to get the deposited collateral assets for."
        },
        "returns": {
          "_0": "An array of addresses of collateral assets the account has deposited."
        }
      },
      "getMintedKreskoAssets(address)": {
        "params": {
          "_account": "The account to get the minted Kresko assets for."
        },
        "returns": {
          "_0": "An array of addresses of Kresko assets the account has minted."
        }
      },
      "getMintedKreskoAssetsIndex(address,address)": {
        "params": {
          "_account": "The account to get the minted Kresko assets for.",
          "_kreskoAsset": "The asset lookup address."
        },
        "returns": {
          "_0": "index of the minted Kresko asset."
        }
      },
      "kreskoAssetDebt(address,address)": {
        "params": {
          "_account": "The account to query amount for",
          "_asset": "The asset address"
        },
        "returns": {
          "_0": "Amount of debt for `_asset`"
        }
      }
    },
    "version": 1
  },
  "userdoc": {
    "kind": "user",
    "methods": {
      "collateralDeposits(address,address)": {
        "notice": "Get `_account` collateral deposit amount for `_asset`"
      },
      "getAccountCollateralRatio(address)": {
        "notice": "Get a list of accounts and their collateral ratios"
      },
      "getAccountCollateralValue(address)": {
        "notice": "Gets the collateral value of a particular account."
      },
      "getAccountKrAssetValue(address)": {
        "notice": "Gets the Kresko asset value in USD of a particular account."
      },
      "getAccountMinimumCollateralValueAtRatio(address,(uint256))": {
        "notice": "Get an account's minimum collateral value required to back a Kresko asset amount at a given collateralization ratio."
      },
      "getCollateralRatiosFor(address[])": {
        "notice": "Get a list of accounts and their collateral ratios"
      },
      "getDepositedCollateralAssetIndex(address,address)": {
        "notice": "Gets an index for the collateral asset the account has deposited."
      },
      "getDepositedCollateralAssets(address)": {
        "notice": "Gets an array of collateral assets the account has deposited."
      },
      "getMintedKreskoAssets(address)": {
        "notice": "Gets an array of Kresko assets the account has minted."
      },
      "getMintedKreskoAssetsIndex(address,address)": {
        "notice": "Gets an index for the Kresko asset the account has minted."
      },
      "kreskoAssetDebt(address,address)": {
        "notice": "Get `_account` debt amount for `_asset`"
      }
    },
    "version": 1
  },
  "storageLayout": {
    "storage": [],
    "types": null
  }
}