{
  "address": "0x75de4Af6386859bC21E08b9b2527056ED195Fd02",
  "abi": [
    {
      "inputs": [
        {
          "internalType": "address",
          "name": "_account",
          "type": "address"
        },
        {
          "internalType": "address",
          "name": "_kreskoAsset",
          "type": "address"
        },
        {
          "internalType": "uint256",
          "name": "_kreskoAssetAmount",
          "type": "uint256"
        },
        {
          "internalType": "uint256",
          "name": "_feeType",
          "type": "uint256"
        }
      ],
      "name": "calcExpectedFee",
      "outputs": [
        {
          "internalType": "address[]",
          "name": "",
          "type": "address[]"
        },
        {
          "internalType": "uint256[]",
          "name": "",
          "type": "uint256[]"
        }
      ],
      "stateMutability": "view",
      "type": "function"
    },
    {
      "inputs": [
        {
          "internalType": "address",
          "name": "_account",
          "type": "address"
        },
        {
          "internalType": "address",
          "name": "_asset",
          "type": "address"
        }
      ],
      "name": "collateralDeposits",
      "outputs": [
        {
          "internalType": "uint256",
          "name": "",
          "type": "uint256"
        }
      ],
      "stateMutability": "view",
      "type": "function"
    },
    {
      "inputs": [
        {
          "internalType": "address",
          "name": "_account",
          "type": "address"
        }
      ],
      "name": "getAccountCollateralRatio",
      "outputs": [
        {
          "components": [
            {
              "internalType": "uint256",
              "name": "rawValue",
              "type": "uint256"
            }
          ],
          "internalType": "struct FixedPoint.Unsigned",
          "name": "ratio",
          "type": "tuple"
        }
      ],
      "stateMutability": "view",
      "type": "function"
    },
    {
      "inputs": [
        {
          "internalType": "address",
          "name": "_account",
          "type": "address"
        }
      ],
      "name": "getAccountCollateralValue",
      "outputs": [
        {
          "components": [
            {
              "internalType": "uint256",
              "name": "rawValue",
              "type": "uint256"
            }
          ],
          "internalType": "struct FixedPoint.Unsigned",
          "name": "",
          "type": "tuple"
        }
      ],
      "stateMutability": "view",
      "type": "function"
    },
    {
      "inputs": [
        {
          "internalType": "address",
          "name": "_account",
          "type": "address"
        }
      ],
      "name": "getAccountKrAssetValue",
      "outputs": [
        {
          "components": [
            {
              "internalType": "uint256",
              "name": "rawValue",
              "type": "uint256"
            }
          ],
          "internalType": "struct FixedPoint.Unsigned",
          "name": "",
          "type": "tuple"
        }
      ],
      "stateMutability": "view",
      "type": "function"
    },
    {
      "inputs": [
        {
          "internalType": "address",
          "name": "_account",
          "type": "address"
        },
        {
          "components": [
            {
              "internalType": "uint256",
              "name": "rawValue",
              "type": "uint256"
            }
          ],
          "internalType": "struct FixedPoint.Unsigned",
          "name": "_ratio",
          "type": "tuple"
        }
      ],
      "name": "getAccountMinimumCollateralValueAtRatio",
      "outputs": [
        {
          "components": [
            {
              "internalType": "uint256",
              "name": "rawValue",
              "type": "uint256"
            }
          ],
          "internalType": "struct FixedPoint.Unsigned",
          "name": "",
          "type": "tuple"
        }
      ],
      "stateMutability": "view",
      "type": "function"
    },
    {
      "inputs": [
        {
          "internalType": "address",
          "name": "_account",
          "type": "address"
        },
        {
          "internalType": "address",
          "name": "_asset",
          "type": "address"
        }
      ],
      "name": "getAccountSingleCollateralValueAndRealValue",
      "outputs": [
        {
          "components": [
            {
              "internalType": "uint256",
              "name": "rawValue",
              "type": "uint256"
            }
          ],
          "internalType": "struct FixedPoint.Unsigned",
          "name": "value",
          "type": "tuple"
        },
        {
          "components": [
            {
              "internalType": "uint256",
              "name": "rawValue",
              "type": "uint256"
            }
          ],
          "internalType": "struct FixedPoint.Unsigned",
          "name": "realValue",
          "type": "tuple"
        }
      ],
      "stateMutability": "view",
      "type": "function"
    },
    {
      "inputs": [
        {
          "internalType": "address[]",
          "name": "_accounts",
          "type": "address[]"
        }
      ],
      "name": "getCollateralRatiosFor",
      "outputs": [
        {
          "components": [
            {
              "internalType": "uint256",
              "name": "rawValue",
              "type": "uint256"
            }
          ],
          "internalType": "struct FixedPoint.Unsigned[]",
          "name": "",
          "type": "tuple[]"
        }
      ],
      "stateMutability": "view",
      "type": "function"
    },
    {
      "inputs": [
        {
          "internalType": "address",
          "name": "_account",
          "type": "address"
        },
        {
          "internalType": "address",
          "name": "_collateralAsset",
          "type": "address"
        }
      ],
      "name": "getDepositedCollateralAssetIndex",
      "outputs": [
        {
          "internalType": "uint256",
          "name": "i",
          "type": "uint256"
        }
      ],
      "stateMutability": "view",
      "type": "function"
    },
    {
      "inputs": [
        {
          "internalType": "address",
          "name": "_account",
          "type": "address"
        }
      ],
      "name": "getDepositedCollateralAssets",
      "outputs": [
        {
          "internalType": "address[]",
          "name": "",
          "type": "address[]"
        }
      ],
      "stateMutability": "view",
      "type": "function"
    },
    {
      "inputs": [
        {
          "internalType": "address",
          "name": "_account",
          "type": "address"
        }
      ],
      "name": "getMintedKreskoAssets",
      "outputs": [
        {
          "internalType": "address[]",
          "name": "",
          "type": "address[]"
        }
      ],
      "stateMutability": "view",
      "type": "function"
    },
    {
      "inputs": [
        {
          "internalType": "address",
          "name": "_account",
          "type": "address"
        },
        {
          "internalType": "address",
          "name": "_kreskoAsset",
          "type": "address"
        }
      ],
      "name": "getMintedKreskoAssetsIndex",
      "outputs": [
        {
          "internalType": "uint256",
          "name": "",
          "type": "uint256"
        }
      ],
      "stateMutability": "view",
      "type": "function"
    },
    {
      "inputs": [
        {
          "internalType": "address",
          "name": "_account",
          "type": "address"
        },
        {
          "internalType": "address",
          "name": "_asset",
          "type": "address"
        }
      ],
      "name": "kreskoAssetDebt",
      "outputs": [
        {
          "internalType": "uint256",
          "name": "",
          "type": "uint256"
        }
      ],
      "stateMutability": "view",
      "type": "function"
    }
  ],
  "transactionHash": "0xe25a2e4c7c61d8b0fb9fc1f630266e60f624458ab8e34d72707825cdb2df38dc",
  "args": [],
  "numDeployments": 1,
  "solcInputHash": "83713c02c02640d2cd1e3b8340799402",
  "bytecode": "0x608060405234801561001057600080fd5b50612cad806100206000396000f3fe608060405234801561001057600080fd5b50600436106100cf5760003560e01c8063a14bd39d1161008c578063efa80e8611610066578063efa80e8614610286578063eff19fd5146102b6578063f18d1ae5146102e6578063ff1389c514610316576100cf565b8063a14bd39d146101f5578063d0d7814014610226578063d63b4a6614610256576100cf565b80630c65e07b146100d457806321075383146101045780632f3bc67a1461013557806334923cd8146101655780636d38822a146101955780637d1a4450146101c5575b600080fd5b6100ee60048036038101906100e99190612153565b610346565b6040516100fb91906121ac565b60405180910390f35b61011e600480360381019061011991906121f3565b61036c565b60405161012c9291906123d6565b60405180910390f35b61014f600480360381019061014a9190612153565b610aca565b60405161015c91906121ac565b60405180910390f35b61017f600480360381019061017a9190612153565b610bf1565b60405161018c91906121ac565b60405180910390f35b6101af60048036038101906101aa919061240d565b610c17565b6040516101bc919061243a565b60405180910390f35b6101df60048036038101906101da919061240d565b610ced565b6040516101ec9190612478565b60405180910390f35b61020f600480360381019061020a9190612153565b610d16565b60405161021d929190612493565b60405180910390f35b610240600480360381019061023b919061240d565b610d71565b60405161024d9190612478565b60405180910390f35b610270600480360381019061026b9190612153565b610dff565b60405161027d91906121ac565b60405180910390f35b6102a0600480360381019061029b919061240d565b610e25565b6040516102ad919061243a565b60405180910390f35b6102d060048036038101906102cb9190612521565b610efb565b6040516102dd9190612639565b60405180910390f35b61030060048036038101906102fb9190612728565b610fd2565b60405161030d9190612478565b60405180910390f35b610330600480360381019061032b919061240d565b610ffe565b60405161033d9190612478565b60405180910390f35b60006103648383610355611027565b6110549092919063ffffffff16565b905092915050565b60608060018311156040518060400160405280600381526020017f3233390000000000000000000000000000000000000000000000000000000000815250906103eb576040517f08c379a00000000000000000000000000000000000000000000000000000000081526004016103e291906127f0565b60405180910390fd5b5060006103f6611027565b600c0160008773ffffffffffffffffffffffffffffffffffffffff1673ffffffffffffffffffffffffffffffffffffffff1681526020019081526020016000206040518060e00160405290816000820160405180602001604052908160008201548152505081526020016001820160009054906101000a900473ffffffffffffffffffffffffffffffffffffffff1673ffffffffffffffffffffffffffffffffffffffff1673ffffffffffffffffffffffffffffffffffffffff168152602001600282015481526020016003820160009054906101000a900473ffffffffffffffffffffffffffffffffffffffff1673ffffffffffffffffffffffffffffffffffffffff1673ffffffffffffffffffffffffffffffffffffffff1681526020016004820160405180602001604052908160008201548152505081526020016005820160405180602001604052908160008201548152505081526020016006820160009054906101000a900460ff161515151581525050905060006106706000600181111561058757610586612812565b5b86600181111561059a57610599612812565b5b60018111156105ac576105ab612812565b5b146105bb5782608001516105c1565b8260a001515b61066260405180602001604052808a8152506040518060200160405280876020015173ffffffffffffffffffffffffffffffffffffffff166350d25bcd6040518163ffffffff1660e01b8152600401602060405180830381865afa15801561062d573d6000803e3d6000fd5b505050506040513d601f19601f820116820180604052508101906106519190612877565b81525061135690919063ffffffff16565b61135690919063ffffffff16565b9050600061067c611027565b600b0160008a73ffffffffffffffffffffffffffffffffffffffff1673ffffffffffffffffffffffffffffffffffffffff16815260200190815260200160002080548060200260200160405190810160405280929190818152602001828054801561073c57602002820191906000526020600020905b8160009054906101000a900473ffffffffffffffffffffffffffffffffffffffff1673ffffffffffffffffffffffffffffffffffffffff16815260200190600101908083116106f2575b5050505050905061074b6120ad565b815167ffffffffffffffff81111561076657610765612671565b5b6040519080825280602002602001820160405280156107945781602001602082028036833780820191505090505b508160000181905250815167ffffffffffffffff8111156107b8576107b7612671565b5b6040519080825280602002602001820160405280156107e65781602001602082028036833780820191505090505b508160200181905250600083600001510361081257806000015181602001519550955050505050610ac1565b60006001835161082291906128d3565b90505b60008110610aad57600083828151811061084257610841612907565b5b602002602001015190506000610856611027565b600a0160008e73ffffffffffffffffffffffffffffffffffffffff1673ffffffffffffffffffffffffffffffffffffffff16815260200190815260200160002060008373ffffffffffffffffffffffffffffffffffffffff1673ffffffffffffffffffffffffffffffffffffffff1681526020019081526020016000205490506000806108f8848460016108e8611027565b6113a7909392919063ffffffff16565b915091506109046120ce565b6000610919848b6115f590919063ffffffff16565b156109a85761099e610934848c61160a90919063ffffffff16565b61093c611027565b60090160008973ffffffffffffffffffffffffffffffffffffffff1673ffffffffffffffffffffffffffffffffffffffff16815260200190815260200160002060020160149054906101000a900460ff1660ff1661166290919063ffffffff16565b90508991506109af565b8490508391505b6000811115610a55578588600001518960400151815181106109d4576109d3612907565b5b602002602001019073ffffffffffffffffffffffffffffffffffffffff16908173ffffffffffffffffffffffffffffffffffffffff1681525050808860200151896040015181518110610a2a57610a29612907565b5b602002602001018181525050876040018051809190610a4890612936565b8152508860400181815250505b610a68828b6116e190919063ffffffff16565b995060008a6000015103610a9457876000015188602001519c509c505050505050505050505050610ac1565b5050505050508080610aa59061297e565b915050610825565b508060000151816020015195509550505050505b94509492505050565b60005b610ad5611027565b600b0160008473ffffffffffffffffffffffffffffffffffffffff1673ffffffffffffffffffffffffffffffffffffffff16815260200190815260200160002080549050811015610beb578173ffffffffffffffffffffffffffffffffffffffff16610b3f611027565b600b0160008573ffffffffffffffffffffffffffffffffffffffff1673ffffffffffffffffffffffffffffffffffffffff1681526020019081526020016000208281548110610b9157610b90612907565b5b9060005260206000200160009054906101000a900473ffffffffffffffffffffffffffffffffffffffff1673ffffffffffffffffffffffffffffffffffffffff160315610beb578080610be390612936565b915050610acd565b92915050565b6000610c0f8383610c00611027565b61171a9092919063ffffffff16565b905092915050565b6060610c21611027565b600b0160008373ffffffffffffffffffffffffffffffffffffffff1673ffffffffffffffffffffffffffffffffffffffff168152602001908152602001600020805480602002602001604051908101604052809291908181526020018280548015610ce157602002820191906000526020600020905b8160009054906101000a900473ffffffffffffffffffffffffffffffffffffffff1673ffffffffffffffffffffffffffffffffffffffff1681526020019060010190808311610c97575b50505050509050919050565b610cf56120ce565b610d0f82610d01611027565b61188190919063ffffffff16565b9050919050565b610d1e6120ce565b610d266120ce565b6000610d448585610d35611027565b6110549092919063ffffffff16565b9050610d6584826000610d55611027565b6113a7909392919063ffffffff16565b92509250509250929050565b610d796120ce565b6000610d9583610d87611027565b61188190919063ffffffff16565b90506000816000015103610dbb5760405180602001604052806000815250915050610dfa565b610df6610de784610dca611027565b600401604051806020016040529081600082015481525050610fd2565b8261160a90919063ffffffff16565b9150505b919050565b6000610e1d8383610e0e611027565b6119f99092919063ffffffff16565b905092915050565b6060610e2f611027565b600e0160008373ffffffffffffffffffffffffffffffffffffffff1673ffffffffffffffffffffffffffffffffffffffff168152602001908152602001600020805480602002602001604051908101604052809291908181526020018280548015610eef57602002820191906000526020600020905b8160009054906101000a900473ffffffffffffffffffffffffffffffffffffffff1673ffffffffffffffffffffffffffffffffffffffff1681526020019060010190808311610ea5575b50505050509050919050565b606060008383905067ffffffffffffffff811115610f1c57610f1b612671565b5b604051908082528060200260200182016040528015610f5557816020015b610f426120ce565b815260200190600190039081610f3a5790505b50905060005b84849050811015610fc757610f96858583818110610f7c57610f7b612907565b5b9050602002016020810190610f91919061240d565b610d71565b828281518110610fa957610fa8612907565b5b60200260200101819052508080610fbf90612936565b915050610f5b565b508091505092915050565b610fda6120ce565b610ff68383610fe7611027565b611b139092919063ffffffff16565b905092915050565b6110066120ce565b61102082611012611027565b611b4990919063ffffffff16565b9050919050565b6000807f5076ab9fa18d2a17cfce4375a530b76392de8264a11126885cd5534d39f0a97c90508091505090565b6000808460090160008473ffffffffffffffffffffffffffffffffffffffff1673ffffffffffffffffffffffffffffffffffffffff1681526020019081526020016000206040518060a00160405290816000820160405180602001604052908160008201548152505081526020016001820160009054906101000a900473ffffffffffffffffffffffffffffffffffffffff1673ffffffffffffffffffffffffffffffffffffffff1673ffffffffffffffffffffffffffffffffffffffff1681526020016002820160009054906101000a900473ffffffffffffffffffffffffffffffffffffffff1673ffffffffffffffffffffffffffffffffffffffff1673ffffffffffffffffffffffffffffffffffffffff1681526020016002820160149054906101000a900460ff1660ff1660ff1681526020016002820160159054906101000a900460ff1615151515815250509050600085600a0160008673ffffffffffffffffffffffffffffffffffffffff1673ffffffffffffffffffffffffffffffffffffffff16815260200190815260200160002060008573ffffffffffffffffffffffffffffffffffffffff1673ffffffffffffffffffffffffffffffffffffffff168152602001908152602001600020549050600073ffffffffffffffffffffffffffffffffffffffff16826040015173ffffffffffffffffffffffffffffffffffffffff1614611349578560090160008573ffffffffffffffffffffffffffffffffffffffff1673ffffffffffffffffffffffffffffffffffffffff16815260200190815260200160002060020160009054906101000a900473ffffffffffffffffffffffffffffffffffffffff1673ffffffffffffffffffffffffffffffffffffffff166307a2d13a826040518263ffffffff1660e01b81526004016112ff91906121ac565b602060405180830381865afa15801561131c573d6000803e3d6000fd5b505050506040513d601f19601f8201168201806040525081019061134091906129bc565b9250505061134f565b80925050505b9392505050565b61135e6120ce565b60405180602001604052806012600a6113779190612b1c565b61139285600001518760000151611cba90919063ffffffff16565b61139c9190612b96565b815250905092915050565b6113af6120ce565b6113b76120ce565b60008660090160008773ffffffffffffffffffffffffffffffffffffffff1673ffffffffffffffffffffffffffffffffffffffff1681526020019081526020016000206040518060a00160405290816000820160405180602001604052908160008201548152505081526020016001820160009054906101000a900473ffffffffffffffffffffffffffffffffffffffff1673ffffffffffffffffffffffffffffffffffffffff1673ffffffffffffffffffffffffffffffffffffffff1681526020016002820160009054906101000a900473ffffffffffffffffffffffffffffffffffffffff1673ffffffffffffffffffffffffffffffffffffffff1673ffffffffffffffffffffffffffffffffffffffff1681526020016002820160149054906101000a900460ff1660ff1660ff1681526020016002820160159054906101000a900460ff1615151515815250509050600061152586836060015160ff16611cd090919063ffffffff16565b905060006040518060200160405280846020015173ffffffffffffffffffffffffffffffffffffffff166350d25bcd6040518163ffffffff1660e01b8152600401602060405180830381865afa158015611583573d6000803e3d6000fd5b505050506040513d601f19601f820116820180604052508101906115a79190612877565b815250905060006115c1828461135690919063ffffffff16565b9050866115e2576115df84600001518261135690919063ffffffff16565b90505b8082955095505050505094509492505050565b60008160000151836000015110905092915050565b6116126120ce565b604051806020016040528061165784600001516116496012600a6116369190612b1c565b8860000151611cba90919063ffffffff16565b611d6e90919063ffffffff16565b815250905092915050565b6000808260000151905060128410156116a15783601261168291906128d3565b600a61168e9190612b1c565b816116999190612b96565b9150506116db565b60128411156116d6576012846116b791906128d3565b600a6116c39190612b1c565b816116ce9190612bc7565b9150506116db565b809150505b92915050565b6116e96120ce565b604051806020016040528061170f84600001518660000151611d8490919063ffffffff16565b815250905092915050565b600083600c0160008373ffffffffffffffffffffffffffffffffffffffff1673ffffffffffffffffffffffffffffffffffffffff16815260200190815260200160002060030160009054906101000a900473ffffffffffffffffffffffffffffffffffffffff1673ffffffffffffffffffffffffffffffffffffffff166307a2d13a85600d0160008673ffffffffffffffffffffffffffffffffffffffff1673ffffffffffffffffffffffffffffffffffffffff16815260200190815260200160002060008573ffffffffffffffffffffffffffffffffffffffff1673ffffffffffffffffffffffffffffffffffffffff168152602001908152602001600020546040518263ffffffff1660e01b815260040161183791906121ac565b602060405180830381865afa158015611854573d6000803e3d6000fd5b505050506040513d601f19601f8201168201806040525081019061187891906129bc565b90509392505050565b6118896120ce565b6000604051806020016040528060008152509050600084600b0160008573ffffffffffffffffffffffffffffffffffffffff1673ffffffffffffffffffffffffffffffffffffffff16815260200190815260200160002080548060200260200160405190810160405280929190818152602001828054801561196057602002820191906000526020600020905b8160009054906101000a900473ffffffffffffffffffffffffffffffffffffffff1673ffffffffffffffffffffffffffffffffffffffff1681526020019060010190808311611916575b5050505050905060005b81518110156119ed57600082828151811061198857611987612907565b5b6020026020010151905060006119c0826119ad89858c6110549092919063ffffffff16565b60008b6113a7909392919063ffffffff16565b5090506119d68186611d9a90919063ffffffff16565b9450505080806119e590612936565b91505061196a565b50819250505092915050565b60005b83600e0160008473ffffffffffffffffffffffffffffffffffffffff1673ffffffffffffffffffffffffffffffffffffffff16815260200190815260200160002080549050811015611b0c578173ffffffffffffffffffffffffffffffffffffffff1684600e0160008573ffffffffffffffffffffffffffffffffffffffff1673ffffffffffffffffffffffffffffffffffffffff1681526020019081526020016000208281548110611ab257611ab1612907565b5b9060005260206000200160009054906101000a900473ffffffffffffffffffffffffffffffffffffffff1673ffffffffffffffffffffffffffffffffffffffff160315611b0c578080611b0490612936565b9150506119fc565b9392505050565b611b1b6120ce565b611b4082611b328587611b4990919063ffffffff16565b61135690919063ffffffff16565b90509392505050565b611b516120ce565b6000604051806020016040528060008152509050600084600e0160008573ffffffffffffffffffffffffffffffffffffffff1673ffffffffffffffffffffffffffffffffffffffff168152602001908152602001600020805480602002602001604051908101604052809291908181526020018280548015611c2857602002820191906000526020600020905b8160009054906101000a900473ffffffffffffffffffffffffffffffffffffffff1673ffffffffffffffffffffffffffffffffffffffff1681526020019060010190808311611bde575b5050505050905060005b8151811015611cae576000828281518110611c5057611c4f612907565b5b60200260200101519050611c98611c8982611c7689858c61171a9092919063ffffffff16565b60008b611dd3909392919063ffffffff16565b85611d9a90919063ffffffff16565b9350508080611ca690612936565b915050611c32565b50819250505092915050565b60008183611cc89190612bc7565b905092915050565b611cd86120ce565b600060405180602001604052808481525090506012841015611d2757611d1f846012611d0491906128d3565b600a611d109190612b1c565b8261202d90919063ffffffff16565b915050611d68565b6012841115611d6357611d5b601285611d4091906128d3565b600a611d4c9190612b1c565b8261206290919063ffffffff16565b915050611d68565b809150505b92915050565b60008183611d7c9190612b96565b905092915050565b60008183611d9291906128d3565b905092915050565b611da26120ce565b6040518060200160405280611dc88460000151866000015161209790919063ffffffff16565b815250905092915050565b611ddb6120ce565b600085600c0160008673ffffffffffffffffffffffffffffffffffffffff1673ffffffffffffffffffffffffffffffffffffffff1681526020019081526020016000206040518060e00160405290816000820160405180602001604052908160008201548152505081526020016001820160009054906101000a900473ffffffffffffffffffffffffffffffffffffffff1673ffffffffffffffffffffffffffffffffffffffff1673ffffffffffffffffffffffffffffffffffffffff168152602001600282015481526020016003820160009054906101000a900473ffffffffffffffffffffffffffffffffffffffff1673ffffffffffffffffffffffffffffffffffffffff1673ffffffffffffffffffffffffffffffffffffffff1681526020016004820160405180602001604052908160008201548152505081526020016005820160405180602001604052908160008201548152505081526020016006820160009054906101000a900460ff161515151581525050905060006040518060200160405280836020015173ffffffffffffffffffffffffffffffffffffffff166350d25bcd6040518163ffffffff1660e01b8152600401602060405180830381865afa158015611fb2573d6000803e3d6000fd5b505050506040513d601f19601f82011682018060405250810190611fd69190612877565b81525090506000611ffe8260405180602001604052808981525061135690919063ffffffff16565b90508461201f5761201c83600001518261135690919063ffffffff16565b90505b809350505050949350505050565b6120356120ce565b6040518060200160405280612057848660000151611cba90919063ffffffff16565b815250905092915050565b61206a6120ce565b604051806020016040528061208c848660000151611d6e90919063ffffffff16565b815250905092915050565b600081836120a59190612c21565b905092915050565b60405180606001604052806060815260200160608152602001600081525090565b6040518060200160405280600081525090565b6000604051905090565b600080fd5b600080fd5b600073ffffffffffffffffffffffffffffffffffffffff82169050919050565b6000612120826120f5565b9050919050565b61213081612115565b811461213b57600080fd5b50565b60008135905061214d81612127565b92915050565b6000806040838503121561216a576121696120eb565b5b60006121788582860161213e565b92505060206121898582860161213e565b9150509250929050565b6000819050919050565b6121a681612193565b82525050565b60006020820190506121c1600083018461219d565b92915050565b6121d081612193565b81146121db57600080fd5b50565b6000813590506121ed816121c7565b92915050565b6000806000806080858703121561220d5761220c6120eb565b5b600061221b8782880161213e565b945050602061222c8782880161213e565b935050604061223d878288016121de565b925050606061224e878288016121de565b91505092959194509250565b600081519050919050565b600082825260208201905092915050565b6000819050602082019050919050565b61228f81612115565b82525050565b60006122a18383612286565b60208301905092915050565b6000602082019050919050565b60006122c58261225a565b6122cf8185612265565b93506122da83612276565b8060005b8381101561230b5781516122f28882612295565b97506122fd836122ad565b9250506001810190506122de565b5085935050505092915050565b600081519050919050565b600082825260208201905092915050565b6000819050602082019050919050565b61234d81612193565b82525050565b600061235f8383612344565b60208301905092915050565b6000602082019050919050565b600061238382612318565b61238d8185612323565b935061239883612334565b8060005b838110156123c95781516123b08882612353565b97506123bb8361236b565b92505060018101905061239c565b5085935050505092915050565b600060408201905081810360008301526123f081856122ba565b905081810360208301526124048184612378565b90509392505050565b600060208284031215612423576124226120eb565b5b60006124318482850161213e565b91505092915050565b6000602082019050818103600083015261245481846122ba565b905092915050565b6020820160008201516124726000850182612344565b50505050565b600060208201905061248d600083018461245c565b92915050565b60006040820190506124a8600083018561245c565b6124b5602083018461245c565b9392505050565b600080fd5b600080fd5b600080fd5b60008083601f8401126124e1576124e06124bc565b5b8235905067ffffffffffffffff8111156124fe576124fd6124c1565b5b60208301915083602082028301111561251a576125196124c6565b5b9250929050565b60008060208385031215612538576125376120eb565b5b600083013567ffffffffffffffff811115612556576125556120f0565b5b612562858286016124cb565b92509250509250929050565b600081519050919050565b600082825260208201905092915050565b6000819050602082019050919050565b6020820160008201516125b06000850182612344565b50505050565b60006125c2838361259a565b60208301905092915050565b6000602082019050919050565b60006125e68261256e565b6125f08185612579565b93506125fb8361258a565b8060005b8381101561262c57815161261388826125b6565b975061261e836125ce565b9250506001810190506125ff565b5085935050505092915050565b6000602082019050818103600083015261265381846125db565b905092915050565b600080fd5b6000601f19601f8301169050919050565b7f4e487b7100000000000000000000000000000000000000000000000000000000600052604160045260246000fd5b6126a982612660565b810181811067ffffffffffffffff821117156126c8576126c7612671565b5b80604052505050565b60006126db6120e1565b90506126e782826126a0565b919050565b6000602082840312156127025761270161265b565b5b61270c60206126d1565b9050600061271c848285016121de565b60008301525092915050565b6000806040838503121561273f5761273e6120eb565b5b600061274d8582860161213e565b925050602061275e858286016126ec565b9150509250929050565b600081519050919050565b600082825260208201905092915050565b60005b838110156127a2578082015181840152602081019050612787565b838111156127b1576000848401525b50505050565b60006127c282612768565b6127cc8185612773565b93506127dc818560208601612784565b6127e581612660565b840191505092915050565b6000602082019050818103600083015261280a81846127b7565b905092915050565b7f4e487b7100000000000000000000000000000000000000000000000000000000600052602160045260246000fd5b6000819050919050565b61285481612841565b811461285f57600080fd5b50565b6000815190506128718161284b565b92915050565b60006020828403121561288d5761288c6120eb565b5b600061289b84828501612862565b91505092915050565b7f4e487b7100000000000000000000000000000000000000000000000000000000600052601160045260246000fd5b60006128de82612193565b91506128e983612193565b9250828210156128fc576128fb6128a4565b5b828203905092915050565b7f4e487b7100000000000000000000000000000000000000000000000000000000600052603260045260246000fd5b600061294182612193565b91507fffffffffffffffffffffffffffffffffffffffffffffffffffffffffffffffff8203612973576129726128a4565b5b600182019050919050565b600061298982612193565b91506000820361299c5761299b6128a4565b5b600182039050919050565b6000815190506129b6816121c7565b92915050565b6000602082840312156129d2576129d16120eb565b5b60006129e0848285016129a7565b91505092915050565b60008160011c9050919050565b6000808291508390505b6001851115612a4057808604811115612a1c57612a1b6128a4565b5b6001851615612a2b5780820291505b8081029050612a39856129e9565b9450612a00565b94509492505050565b600082612a595760019050612b15565b81612a675760009050612b15565b8160018114612a7d5760028114612a8757612ab6565b6001915050612b15565b60ff841115612a9957612a986128a4565b5b8360020a915084821115612ab057612aaf6128a4565b5b50612b15565b5060208310610133831016604e8410600b8410161715612aeb5782820a905083811115612ae657612ae56128a4565b5b612b15565b612af884848460016129f6565b92509050818404811115612b0f57612b0e6128a4565b5b81810290505b9392505050565b6000612b2782612193565b9150612b3283612193565b9250612b5f7fffffffffffffffffffffffffffffffffffffffffffffffffffffffffffffffff8484612a49565b905092915050565b7f4e487b7100000000000000000000000000000000000000000000000000000000600052601260045260246000fd5b6000612ba182612193565b9150612bac83612193565b925082612bbc57612bbb612b67565b5b828204905092915050565b6000612bd282612193565b9150612bdd83612193565b9250817fffffffffffffffffffffffffffffffffffffffffffffffffffffffffffffffff0483118215151615612c1657612c156128a4565b5b828202905092915050565b6000612c2c82612193565b9150612c3783612193565b9250827fffffffffffffffffffffffffffffffffffffffffffffffffffffffffffffffff03821115612c6c57612c6b6128a4565b5b82820190509291505056fea26469706673582212205b940219ac2f407600333ce64290684867189bc05584a3c9273bf86ccd877a0e64736f6c634300080e0033",
  "devdoc": {
    "kind": "dev",
    "methods": {
      "calcExpectedFee(address,address,uint256,uint256)": {
        "params": {
          "_account": "The account to charge the open fee from.",
          "_feeType": "The fee type (open, close, etc).",
          "_kreskoAsset": "The address of the kresko asset being burned.",
          "_kreskoAssetAmount": "The amount of the kresko asset being minted."
        },
        "returns": {
          "_0": "assets The collateral types as an array of addresses.",
          "_1": "amounts The collateral amounts as an array of uint256."
        }
      },
      "collateralDeposits(address,address)": {
        "params": {
          "_account": "The account to query amount for",
          "_asset": "The asset address"
        },
        "returns": {
          "_0": "Amount of collateral deposited for `_asset`"
        }
      },
      "getAccountCollateralRatio(address)": {
        "returns": {
          "ratio": "for an `_account`"
        }
      },
      "getAccountCollateralValue(address)": {
        "details": "O(# of different deposited collateral assets by account) complexity.",
        "params": {
          "_account": "The account to calculate the collateral value for."
        },
        "returns": {
          "_0": "The collateral value of a particular account."
        }
      },
      "getAccountKrAssetValue(address)": {
        "params": {
          "_account": "The account to calculate the Kresko asset value for."
        },
        "returns": {
          "_0": "The Kresko asset value of a particular account."
        }
      },
      "getAccountMinimumCollateralValueAtRatio(address,(uint256))": {
        "details": "Accounts that have their collateral value under the minimum collateral value are considered unhealthy,      accounts with their collateral value under the liquidation threshold are considered liquidatable.",
        "params": {
          "_account": "The account to calculate the minimum collateral value for.",
          "_ratio": "The collateralization ratio required: higher ratio = more collateral required"
        },
        "returns": {
          "_0": "The minimum collateral value of a particular account."
        }
      },
      "getCollateralRatiosFor(address[])": {
        "returns": {
          "_0": "ratios of the accounts"
        }
      },
      "getDepositedCollateralAssetIndex(address,address)": {
        "params": {
          "_account": "The account to get the index for.",
          "_collateralAsset": "The asset lookup address."
        },
        "returns": {
          "i": "= index of the minted collateral asset."
        }
      },
      "getDepositedCollateralAssets(address)": {
        "params": {
          "_account": "The account to get the deposited collateral assets for."
        },
        "returns": {
          "_0": "An array of addresses of collateral assets the account has deposited."
        }
      },
      "getMintedKreskoAssets(address)": {
        "params": {
          "_account": "The account to get the minted Kresko assets for."
        },
        "returns": {
          "_0": "An array of addresses of Kresko assets the account has minted."
        }
      },
      "getMintedKreskoAssetsIndex(address,address)": {
        "params": {
          "_account": "The account to get the minted Kresko assets for.",
          "_kreskoAsset": "The asset lookup address."
        },
        "returns": {
          "_0": "index of the minted Kresko asset."
        }
      },
      "kreskoAssetDebt(address,address)": {
        "params": {
          "_account": "The account to query amount for",
          "_asset": "The asset address"
        },
        "returns": {
          "_0": "Amount of debt for `_asset`"
        }
      }
    },
    "version": 1
  },
  "userdoc": {
    "kind": "user",
    "methods": {
      "calcExpectedFee(address,address,uint256,uint256)": {
        "notice": "Calculates the expected fee to be taken from a user's deposited collateral assets,         by imitating calcFee without modifying state."
      },
      "collateralDeposits(address,address)": {
        "notice": "Get `_account` collateral deposit amount for `_asset`"
      },
      "getAccountCollateralRatio(address)": {
        "notice": "Get a list of accounts and their collateral ratios"
      },
      "getAccountCollateralValue(address)": {
        "notice": "Gets the collateral value of a particular account."
      },
      "getAccountKrAssetValue(address)": {
        "notice": "Gets the Kresko asset value in USD of a particular account."
      },
      "getAccountMinimumCollateralValueAtRatio(address,(uint256))": {
        "notice": "Get an account's minimum collateral value required to back a Kresko asset amount at a given collateralization ratio."
      },
      "getCollateralRatiosFor(address[])": {
        "notice": "Get a list of accounts and their collateral ratios"
      },
      "getDepositedCollateralAssetIndex(address,address)": {
        "notice": "Gets an index for the collateral asset the account has deposited."
      },
      "getDepositedCollateralAssets(address)": {
        "notice": "Gets an array of collateral assets the account has deposited."
      },
      "getMintedKreskoAssets(address)": {
        "notice": "Gets an array of Kresko assets the account has minted."
      },
      "getMintedKreskoAssetsIndex(address,address)": {
        "notice": "Gets an index for the Kresko asset the account has minted."
      },
      "kreskoAssetDebt(address,address)": {
        "notice": "Get `_account` debt amount for `_asset`"
      }
    },
    "version": 1
  },
  "storageLayout": {
    "storage": [],
    "types": null
  }
}