{
  "address": "0x7Bae134FFcC8cA25f0e3A328c4a7410ED0371dfb",
  "abi": [
    {
      "inputs": [
        {
          "internalType": "address",
          "name": "_account",
          "type": "address"
        },
        {
          "internalType": "address",
          "name": "_kreskoAsset",
          "type": "address"
        },
        {
          "internalType": "uint256",
          "name": "_amount",
          "type": "uint256"
        },
        {
          "internalType": "uint256",
          "name": "_mintedKreskoAssetIndex",
          "type": "uint256"
        }
      ],
      "name": "burnKreskoAsset",
      "outputs": [],
      "stateMutability": "nonpayable",
      "type": "function"
    },
    {
      "inputs": [
        {
          "internalType": "address",
          "name": "_account",
          "type": "address"
        },
        {
          "internalType": "address",
          "name": "_collateralAsset",
          "type": "address"
        },
        {
          "internalType": "uint256",
          "name": "_amount",
          "type": "uint256"
        }
      ],
      "name": "depositCollateral",
      "outputs": [],
      "stateMutability": "nonpayable",
      "type": "function"
    },
    {
      "inputs": [
        {
          "internalType": "address",
          "name": "_account",
          "type": "address"
        },
        {
          "internalType": "address",
          "name": "_kreskoAsset",
          "type": "address"
        },
        {
          "internalType": "uint256",
          "name": "_amount",
          "type": "uint256"
        }
      ],
      "name": "mintKreskoAsset",
      "outputs": [],
      "stateMutability": "nonpayable",
      "type": "function"
    },
    {
      "inputs": [
        {
          "internalType": "address",
          "name": "_account",
          "type": "address"
        },
        {
          "internalType": "address",
          "name": "_collateralAsset",
          "type": "address"
        },
        {
          "internalType": "uint256",
          "name": "_amount",
          "type": "uint256"
        },
        {
          "internalType": "uint256",
          "name": "_depositedCollateralAssetIndex",
          "type": "uint256"
        }
      ],
      "name": "withdrawCollateral",
      "outputs": [],
      "stateMutability": "nonpayable",
      "type": "function"
    }
  ],
  "transactionHash": "0x2c556c42a336bdea111209b03c86db9c6cc903cc1fd3611d3a9eff570faeaef2",
  "args": [],
  "numDeployments": 1,
  "solcInputHash": "982b6a22f97b2c235980e50ae289fa10",
  "bytecode": "0x608060405234801561001057600080fd5b50614634806100206000396000f3fe608060405234801561001057600080fd5b506004361061004c5760003560e01c8063067dc28914610051578063e3f06d7b1461006d578063f5e6546c14610089578063f970c3b7146100a5575b600080fd5b61006b60048036038101906100669190613b60565b6100c1565b005b61008760048036038101906100829190613bc7565b6107ca565b005b6100a3600480360381019061009e9190613b60565b6110d3565b005b6100bf60048036038101906100ba9190613bc7565b6113cf565b005b60016100cb6115c5565b600b0154146040518060400160405280600381526020017f313036000000000000000000000000000000000000000000000000000000000081525090610147576040517f08c379a000000000000000000000000000000000000000000000000000000000815260040161013e9190613cb3565b60405180910390fd5b5060026101526115c5565b600b0181905550826101626115f2565b600c0160008273ffffffffffffffffffffffffffffffffffffffff1673ffffffffffffffffffffffffffffffffffffffff16815260200190815260200160002060040160019054906101000a900460ff166040518060400160405280600381526020017f32313900000000000000000000000000000000000000000000000000000000008152509061022a576040517f08c379a00000000000000000000000000000000000000000000000000000000081526004016102219190613cb3565b60405180910390fd5b503373ffffffffffffffffffffffffffffffffffffffff168573ffffffffffffffffffffffffffffffffffffffff1614157f46925e0f0cc76e485772167edccb8dc449d43b23b55fc4e756b063f49099e6a060001b811561028f5761028e8161161f565b5b6102976115f2565b60070160009054906101000a900460ff16156102b9576102b8866002611633565b5b600085116040518060400160405280600381526020017f323032000000000000000000000000000000000000000000000000000000000081525090610334576040517f08c379a000000000000000000000000000000000000000000000000000000000815260040161032b9190613cb3565b60405180910390fd5b50600061033f6115f2565b9050600081600d0160008a73ffffffffffffffffffffffffffffffffffffffff1673ffffffffffffffffffffffffffffffffffffffff16815260200190815260200160002060008973ffffffffffffffffffffffffffffffffffffffff1673ffffffffffffffffffffffffffffffffffffffff168152602001908152602001600020549050808711156040518060400160405280600381526020017f32313100000000000000000000000000000000000000000000000000000000008152509061043f576040517f08c379a00000000000000000000000000000000000000000000000000000000081526004016104369190613cb3565b60405180910390fd5b5060006104658989846104529190613d04565b600186611741909392919063ffffffff16565b905061047b60008261194290919063ffffffff16565b80156104ae57506104ad836005016040518060200160405290816000820154815250508261195f90919063ffffffff16565b5b156105dc576000604051806020016040528085600c0160008d73ffffffffffffffffffffffffffffffffffffffff1673ffffffffffffffffffffffffffffffffffffffff16815260200190815260200160002060010160009054906101000a900473ffffffffffffffffffffffffffffffffffffffff1673ffffffffffffffffffffffffffffffffffffffff166350d25bcd6040518163ffffffff1660e01b8152600401602060405180830381865afa15801561056f573d6000803e3d6000fd5b505050506040513d601f19601f820116820180604052508101906105939190613d6e565b815250905060006105c5828660050160405180602001604052908160008201548152505061197490919063ffffffff16565b90508060000151846105d79190613d04565b995050505b508682600d0160008b73ffffffffffffffffffffffffffffffffffffffff1673ffffffffffffffffffffffffffffffffffffffff16815260200190815260200160002060008a73ffffffffffffffffffffffffffffffffffffffff1673ffffffffffffffffffffffffffffffffffffffff168152602001908152602001600020600082825461066b9190613d04565b925050819055508087036106cf576106ce888784600e0160008d73ffffffffffffffffffffffffffffffffffffffff1673ffffffffffffffffffffffffffffffffffffffff1681526020019081526020016000206119cc9092919063ffffffff16565b5b6106e689898985611bb2909392919063ffffffff16565b8773ffffffffffffffffffffffffffffffffffffffff16639dc29fac33896040518363ffffffff1660e01b8152600401610721929190613db9565b600060405180830381600087803b15801561073b57600080fd5b505af115801561074f573d6000803e3d6000fd5b50505050868873ffffffffffffffffffffffffffffffffffffffff168a73ffffffffffffffffffffffffffffffffffffffff167f8af4d455a89586973d5f67129b1311b10fb5eaa983499b67e11d4a12f721fdad60405160405180910390a4505050505060016107bd6115c5565b600b018190555050505050565b60016107d46115c5565b600b0154146040518060400160405280600381526020017f313036000000000000000000000000000000000000000000000000000000000081525090610850576040517f08c379a00000000000000000000000000000000000000000000000000000000081526004016108479190613cb3565b60405180910390fd5b50600261085b6115c5565b600b01819055508161086b6115f2565b600c0160008273ffffffffffffffffffffffffffffffffffffffff1673ffffffffffffffffffffffffffffffffffffffff16815260200190815260200160002060040160019054906101000a900460ff166040518060400160405280600381526020017f323139000000000000000000000000000000000000000000000000000000000081525090610933576040517f08c379a000000000000000000000000000000000000000000000000000000000815260040161092a9190613cb3565b60405180910390fd5b5061093c6115f2565b600c0160008273ffffffffffffffffffffffffffffffffffffffff1673ffffffffffffffffffffffffffffffffffffffff16815260200190815260200160002060040160009054906101000a900460ff166040518060400160405280600381526020017f323230000000000000000000000000000000000000000000000000000000000081525090610a04576040517f08c379a00000000000000000000000000000000000000000000000000000000081526004016109fb9190613cb3565b60405180910390fd5b503373ffffffffffffffffffffffffffffffffffffffff168473ffffffffffffffffffffffffffffffffffffffff1614157f46925e0f0cc76e485772167edccb8dc449d43b23b55fc4e756b063f49099e6a060001b8115610a6957610a688161161f565b5b600084116040518060400160405280600381526020017f323031000000000000000000000000000000000000000000000000000000000081525090610ae4576040517f08c379a0000000000000000000000000000000000000000000000000000000008152600401610adb9190613cb3565b60405180910390fd5b506000610aef6115f2565b90508060070160009054906101000a900460ff1615610b1457610b13866003611633565b5b80600c0160008773ffffffffffffffffffffffffffffffffffffffff1673ffffffffffffffffffffffffffffffffffffffff16815260200190815260200160002060020154858773ffffffffffffffffffffffffffffffffffffffff166318160ddd6040518163ffffffff1660e01b8152600401602060405180830381865afa158015610ba5573d6000803e3d6000fd5b505050506040513d601f19601f82011682018060405250810190610bc99190613df7565b610bd39190613e24565b11156040518060400160405280600381526020017f323234000000000000000000000000000000000000000000000000000000000081525090610c4c576040517f08c379a0000000000000000000000000000000000000000000000000000000008152600401610c439190613cb3565b60405180910390fd5b506000610c62888361206290919063ffffffff16565b90506000610c938984600401604051806020016040529081600082015481525050856122449092919063ffffffff16565b90506000610cc68989866004016040518060200160405290816000820154815250508761227a909392919063ffffffff16565b9050610ced83610cdf83856122bc90919063ffffffff16565b6122f590919063ffffffff16565b6040518060400160405280600381526020017f323232000000000000000000000000000000000000000000000000000000000081525090610d64576040517f08c379a0000000000000000000000000000000000000000000000000000000008152600401610d5b9190613cb3565b60405180910390fd5b50600084600d0160008c73ffffffffffffffffffffffffffffffffffffffff1673ffffffffffffffffffffffffffffffffffffffff16815260200190815260200160002060008b73ffffffffffffffffffffffffffffffffffffffff1673ffffffffffffffffffffffffffffffffffffffff168152602001908152602001600020549050610e3585600501604051806020016040529081600082015481525050610e278c8c85610e149190613e24565b60018a611741909392919063ffffffff16565b61230b90919063ffffffff16565b6040518060400160405280600381526020017f323233000000000000000000000000000000000000000000000000000000000081525090610eac576040517f08c379a0000000000000000000000000000000000000000000000000000000008152600401610ea39190613cb3565b60405180910390fd5b5060008103610f585784600e0160008c73ffffffffffffffffffffffffffffffffffffffff1673ffffffffffffffffffffffffffffffffffffffff1681526020019081526020016000208a9080600181540180825580915050600190039060005260206000200160009091909190916101000a81548173ffffffffffffffffffffffffffffffffffffffff021916908373ffffffffffffffffffffffffffffffffffffffff1602179055505b8885600d0160008d73ffffffffffffffffffffffffffffffffffffffff1673ffffffffffffffffffffffffffffffffffffffff16815260200190815260200160002060008c73ffffffffffffffffffffffffffffffffffffffff1673ffffffffffffffffffffffffffffffffffffffff1681526020019081526020016000206000828254610fe69190613e24565b925050819055508973ffffffffffffffffffffffffffffffffffffffff166340c10f198c8b6040518363ffffffff1660e01b8152600401611028929190613db9565b600060405180830381600087803b15801561104257600080fd5b505af1158015611056573d6000803e3d6000fd5b50505050888a73ffffffffffffffffffffffffffffffffffffffff168c73ffffffffffffffffffffffffffffffffffffffff167f374b9a23ebe50f7d174c40fdd6a3085177f4efbd8560db9a6b034a695b1f070f60405160405180910390a4505050505050505060016110c76115c5565b600b0181905550505050565b60016110dd6115c5565b600b0154146040518060400160405280600381526020017f313036000000000000000000000000000000000000000000000000000000000081525090611159576040517f08c379a00000000000000000000000000000000000000000000000000000000081526004016111509190613cb3565b60405180910390fd5b5060026111646115c5565b600b0181905550826111746115f2565b60090160008273ffffffffffffffffffffffffffffffffffffffff1673ffffffffffffffffffffffffffffffffffffffff16815260200190815260200160002060020160159054906101000a900460ff166040518060400160405280600381526020017f32313800000000000000000000000000000000000000000000000000000000008152509061123c576040517f08c379a00000000000000000000000000000000000000000000000000000000081526004016112339190613cb3565b60405180910390fd5b503373ffffffffffffffffffffffffffffffffffffffff168573ffffffffffffffffffffffffffffffffffffffff1614157f46925e0f0cc76e485772167edccb8dc449d43b23b55fc4e756b063f49099e6a060001b81156112a1576112a08161161f565b5b6112a96115f2565b60070160009054906101000a900460ff16156112cb576112ca866001611633565b5b60006112d56115f2565b600a0160008973ffffffffffffffffffffffffffffffffffffffff1673ffffffffffffffffffffffffffffffffffffffff16815260200190815260200160002060008873ffffffffffffffffffffffffffffffffffffffff1673ffffffffffffffffffffffffffffffffffffffff168152602001908152602001600020549050808611156113635780611365565b855b955061138988888884896113776115f2565b6123219095949392919063ffffffff16565b6113b488878973ffffffffffffffffffffffffffffffffffffffff166126bc9092919063ffffffff16565b5050505060016113c26115c5565b600b018190555050505050565b60016113d96115c5565b600b0154146040518060400160405280600381526020017f313036000000000000000000000000000000000000000000000000000000000081525090611455576040517f08c379a000000000000000000000000000000000000000000000000000000000815260040161144c9190613cb3565b60405180910390fd5b5060026114606115c5565b600b0181905550816114706115f2565b60090160008273ffffffffffffffffffffffffffffffffffffffff1673ffffffffffffffffffffffffffffffffffffffff16815260200190815260200160002060020160159054906101000a900460ff166040518060400160405280600381526020017f323138000000000000000000000000000000000000000000000000000000000081525090611538576040517f08c379a000000000000000000000000000000000000000000000000000000000815260040161152f9190613cb3565b60405180910390fd5b506115416115f2565b60070160009054906101000a900460ff161561156357611562836000611633565b5b6115903330848673ffffffffffffffffffffffffffffffffffffffff16612742909392919063ffffffff16565b6115ae84848461159e6115f2565b6127cb909392919063ffffffff16565b5060016115b96115c5565b600b0181905550505050565b6000807f080f9836d135d84bdc1ee0b4214e5f2ae76516c41178c6f14a73685c9c3e5f0990508091505090565b6000807f5076ab9fa18d2a17cfce4375a530b76392de8264a11126885cd5534d39f0a97c90508091505090565b6116308161162b612a5c565b612b0c565b50565b61163b6115f2565b60080160008373ffffffffffffffffffffffffffffffffffffffff1673ffffffffffffffffffffffffffffffffffffffff16815260200190815260200160002060008260048111156116905761168f613e7a565b5b60048111156116a2576116a1613e7a565b5b815260200190815260200160002060000160000160009054906101000a900460ff16156040518060400160405280600381526020017f32333200000000000000000000000000000000000000000000000000000000008152509061173c576040517f08c379a00000000000000000000000000000000000000000000000000000000081526004016117339190613cb3565b60405180910390fd5b505050565b611749613ab4565b600085600c0160008673ffffffffffffffffffffffffffffffffffffffff1673ffffffffffffffffffffffffffffffffffffffff1681526020019081526020016000206040518060c00160405290816000820160405180602001604052908160008201548152505081526020016001820160009054906101000a900473ffffffffffffffffffffffffffffffffffffffff1673ffffffffffffffffffffffffffffffffffffffff1673ffffffffffffffffffffffffffffffffffffffff168152602001600282015481526020016003820160405180602001604052908160008201548152505081526020016004820160009054906101000a900460ff161515151581526020016004820160019054906101000a900460ff161515151581525050905060006040518060200160405280836020015173ffffffffffffffffffffffffffffffffffffffff166350d25bcd6040518163ffffffff1660e01b8152600401602060405180830381865afa1580156118c7573d6000803e3d6000fd5b505050506040513d601f19601f820116820180604052508101906118eb9190613d6e565b8152509050600061191382604051806020016040528089815250612ba990919063ffffffff16565b90508461193457611931836000015182612ba990919063ffffffff16565b90505b809350505050949350505050565b600061194d82612bfa565b60000151836000015111905092915050565b60008160000151836000015110905092915050565b61197c613ab4565b60405180602001604052806119c184600001516119b36012600a6119a09190613fdc565b8860000151612c3790919063ffffffff16565b612c4d90919063ffffffff16565b815250905092915050565b8173ffffffffffffffffffffffffffffffffffffffff168382815481106119f6576119f5614027565b5b9060005260206000200160009054906101000a900473ffffffffffffffffffffffffffffffffffffffff1673ffffffffffffffffffffffffffffffffffffffff16146040518060400160405280600381526020017f343030000000000000000000000000000000000000000000000000000000000081525090611aaf576040517f08c379a0000000000000000000000000000000000000000000000000000000008152600401611aa69190613cb3565b60405180910390fd5b50600060018480549050611ac39190613d04565b9050808214611b6657838181548110611adf57611ade614027565b5b9060005260206000200160009054906101000a900473ffffffffffffffffffffffffffffffffffffffff16848381548110611b1d57611b1c614027565b5b9060005260206000200160006101000a81548173ffffffffffffffffffffffffffffffffffffffff021916908373ffffffffffffffffffffffffffffffffffffffff1602179055505b83805480611b7757611b76614056565b5b6001900381819060005260206000200160006101000a81549073ffffffffffffffffffffffffffffffffffffffff0219169055905550505050565b600084600c0160008473ffffffffffffffffffffffffffffffffffffffff1673ffffffffffffffffffffffffffffffffffffffff1681526020019081526020016000206040518060c00160405290816000820160405180602001604052908160008201548152505081526020016001820160009054906101000a900473ffffffffffffffffffffffffffffffffffffffff1673ffffffffffffffffffffffffffffffffffffffff1673ffffffffffffffffffffffffffffffffffffffff168152602001600282015481526020016003820160405180602001604052908160008201548152505081526020016004820160009054906101000a900460ff161515151581526020016004820160019054906101000a900460ff16151515158152505090506000611d8d8260600151611d7f6040518060200160405280878152506040518060200160405280876020015173ffffffffffffffffffffffffffffffffffffffff166350d25bcd6040518163ffffffff1660e01b8152600401602060405180830381865afa158015611d4a573d6000803e3d6000fd5b505050506040513d601f19601f82011682018060405250810190611d6e9190613d6e565b815250612ba990919063ffffffff16565b612ba990919063ffffffff16565b90506000816000015103611da257505061205c565b600086600b0160008773ffffffffffffffffffffffffffffffffffffffff1673ffffffffffffffffffffffffffffffffffffffff168152602001908152602001600020805480602002602001604051908101604052809291908181526020018280548015611e6557602002820191906000526020600020905b8160009054906101000a900473ffffffffffffffffffffffffffffffffffffffff1673ffffffffffffffffffffffffffffffffffffffff1681526020019060010190808311611e1b575b50505050509050600060018251611e7c9190613d04565b90505b60008110612057576000828281518110611e9c57611e9b614027565b5b60200260200101519050600080611ec2838b88878f612c6390949392919063ffffffff16565b91509150818b600a0160008c73ffffffffffffffffffffffffffffffffffffffff1673ffffffffffffffffffffffffffffffffffffffff16815260200190815260200160002060008573ffffffffffffffffffffffffffffffffffffffff1673ffffffffffffffffffffffffffffffffffffffff1681526020019081526020016000206000828254611f549190613d04565b92505081905550611faa8b60020160009054906101000a900473ffffffffffffffffffffffffffffffffffffffff16838573ffffffffffffffffffffffffffffffffffffffff16612e259092919063ffffffff16565b818373ffffffffffffffffffffffffffffffffffffffff168b73ffffffffffffffffffffffffffffffffffffffff167fbfec87a214fb0d037be9e8ca36943fbbe5d6bdb3c7de2336d8f792ece8627fcc846000015160405161200c9190614085565b60405180910390a46120278187612eab90919063ffffffff16565b95506000866000015103612041575050505050505061205c565b505050808061204f906140a0565b915050611e7f565b505050505b50505050565b61206a613ab4565b6000604051806020016040528060008152509050600084600b0160008573ffffffffffffffffffffffffffffffffffffffff1673ffffffffffffffffffffffffffffffffffffffff16815260200190815260200160002080548060200260200160405190810160405280929190818152602001828054801561214157602002820191906000526020600020905b8160009054906101000a900473ffffffffffffffffffffffffffffffffffffffff1673ffffffffffffffffffffffffffffffffffffffff16815260200190600101908083116120f7575b5050505050905060005b815181101561223857600082828151811061216957612168614027565b5b60200260200101519050600061220b8289600a0160008a73ffffffffffffffffffffffffffffffffffffffff1673ffffffffffffffffffffffffffffffffffffffff16815260200190815260200160002060008573ffffffffffffffffffffffffffffffffffffffff1673ffffffffffffffffffffffffffffffffffffffff1681526020019081526020016000205460008b612ee4909392919063ffffffff16565b50905061222181866122bc90919063ffffffff16565b945050508080612230906140c9565b91505061214b565b50819250505092915050565b61224c613ab4565b61227182612263858761313290919063ffffffff16565b612ba990919063ffffffff16565b90509392505050565b612282613ab4565b600061229c8585600089611741909392919063ffffffff16565b90506122b18382612ba990919063ffffffff16565b915050949350505050565b6122c4613ab4565b60405180602001604052806122ea8460000151866000015161330d90919063ffffffff16565b815250905092915050565b6000816000015183600001511115905092915050565b6000816000015183600001511015905092915050565b600083116040518060400160405280600381526020017f31303200000000000000000000000000000000000000000000000000000000008152509061239c576040517f08c379a00000000000000000000000000000000000000000000000000000000081526004016123939190613cb3565b60405180910390fd5b50600186600b0160008773ffffffffffffffffffffffffffffffffffffffff1673ffffffffffffffffffffffffffffffffffffffff168152602001908152602001600020805490506123ee9190613d04565b8111156040518060400160405280600381526020017f343030000000000000000000000000000000000000000000000000000000000081525090612468576040517f08c379a000000000000000000000000000000000000000000000000000000000815260040161245f9190613cb3565b60405180910390fd5b50600061247e868861206290919063ffffffff16565b9050600061249a868660008b612ee4909392919063ffffffff16565b50905060006124cc888a6004016040518060200160405290816000820154815250508b6122449092919063ffffffff16565b90506124f3816124e58486612eab90919063ffffffff16565b61230b90919063ffffffff16565b6040518060400160405280600381526020017f32333600000000000000000000000000000000000000000000000000000000008152509061256a576040517f08c379a00000000000000000000000000000000000000000000000000000000081526004016125619190613cb3565b60405180910390fd5b5085856125779190613d04565b89600a0160008a73ffffffffffffffffffffffffffffffffffffffff1673ffffffffffffffffffffffffffffffffffffffff16815260200190815260200160002060008973ffffffffffffffffffffffffffffffffffffffff1673ffffffffffffffffffffffffffffffffffffffff168152602001908152602001600020819055508486036126565761265587858b600b0160008c73ffffffffffffffffffffffffffffffffffffffff1673ffffffffffffffffffffffffffffffffffffffff1681526020019081526020016000206119cc9092919063ffffffff16565b5b858773ffffffffffffffffffffffffffffffffffffffff168973ffffffffffffffffffffffffffffffffffffffff167f45892a46e6cef329bb642da6d69846d324db43d19008edc141ed82382eda1bee60405160405180910390a4505050505050505050565b61273d8363a9059cbb60e01b84846040516024016126db929190613db9565b604051602081830303815290604052907bffffffffffffffffffffffffffffffffffffffffffffffffffffffff19166020820180517bffffffffffffffffffffffffffffffffffffffffffffffffffffffff8381831617835250505050613323565b505050565b6127c5846323b872dd60e01b85858560405160240161276393929190614111565b604051602081830303815290604052907bffffffffffffffffffffffffffffffffffffffffffffffffffffffff19166020820180517bffffffffffffffffffffffffffffffffffffffffffffffffffffffff8381831617835250505050613323565b50505050565b600081116040518060400160405280600381526020017f313033000000000000000000000000000000000000000000000000000000000081525090612846576040517f08c379a000000000000000000000000000000000000000000000000000000000815260040161283d9190613cb3565b60405180910390fd5b50600084600a0160008573ffffffffffffffffffffffffffffffffffffffff1673ffffffffffffffffffffffffffffffffffffffff16815260200190815260200160002060008473ffffffffffffffffffffffffffffffffffffffff1673ffffffffffffffffffffffffffffffffffffffff168152602001908152602001600020549050600081036129755784600b0160008573ffffffffffffffffffffffffffffffffffffffff1673ffffffffffffffffffffffffffffffffffffffff168152602001908152602001600020839080600181540180825580915050600190039060005260206000200160009091909190916101000a81548173ffffffffffffffffffffffffffffffffffffffff021916908373ffffffffffffffffffffffffffffffffffffffff1602179055505b81810185600a0160008673ffffffffffffffffffffffffffffffffffffffff1673ffffffffffffffffffffffffffffffffffffffff16815260200190815260200160002060008573ffffffffffffffffffffffffffffffffffffffff1673ffffffffffffffffffffffffffffffffffffffff16815260200190815260200160002081905550818373ffffffffffffffffffffffffffffffffffffffff168573ffffffffffffffffffffffffffffffffffffffff167ff1c0dd7e9b98bbff859029005ef89b127af049cd18df1a8d79f0b7e019911e5660405160405180910390a45050505050565b60003073ffffffffffffffffffffffffffffffffffffffff163373ffffffffffffffffffffffffffffffffffffffff1603612b0557600080368080601f016020809104026020016040519081016040528093929190818152602001838380828437600081840152601f19601f820116905080830192505050505050509050600080369050905073ffffffffffffffffffffffffffffffffffffffff818301511692505050612b09565b3390505b90565b612b1682826133ea565b612ba557612b3b8173ffffffffffffffffffffffffffffffffffffffff16601461345e565b612b498360001c602061345e565b604051602001612b5a92919061421c565b6040516020818303038152906040526040517f08c379a0000000000000000000000000000000000000000000000000000000008152600401612b9c9190613cb3565b60405180910390fd5b5050565b612bb1613ab4565b60405180602001604052806012600a612bca9190613fdc565b612be585600001518760000151612c3790919063ffffffff16565b612bef9190614285565b815250905092915050565b612c02613ab4565b6040518060200160405280612c2d6012600a612c1e9190613fdc565b85612c3790919063ffffffff16565b8152509050919050565b60008183612c4591906142b6565b905092915050565b60008183612c5b9190614285565b905092915050565b6000612c6d613ab4565b600087600a0160008773ffffffffffffffffffffffffffffffffffffffff1673ffffffffffffffffffffffffffffffffffffffff16815260200190815260200160002060008873ffffffffffffffffffffffffffffffffffffffff1673ffffffffffffffffffffffffffffffffffffffff168152602001908152602001600020549050600080612d0b898460018d612ee4909392919063ffffffff16565b91509150612d17613ab4565b6000612d2c848a61195f90919063ffffffff16565b15612db457612daa612d47848b61197490919063ffffffff16565b8d60090160008e73ffffffffffffffffffffffffffffffffffffffff1673ffffffffffffffffffffffffffffffffffffffff16815260200190815260200160002060020160149054906101000a900460ff1660ff1661369a90919063ffffffff16565b9050889150612e10565b849050839150612e0f8b898e600b0160008e73ffffffffffffffffffffffffffffffffffffffff1673ffffffffffffffffffffffffffffffffffffffff1681526020019081526020016000206119cc9092919063ffffffff16565b5b80829650965050505050509550959350505050565b612ea68363a9059cbb60e01b8484604051602401612e44929190613db9565b604051602081830303815290604052907bffffffffffffffffffffffffffffffffffffffffffffffffffffffff19166020820180517bffffffffffffffffffffffffffffffffffffffffffffffffffffffff8381831617835250505050613719565b505050565b612eb3613ab4565b6040518060200160405280612ed9846000015186600001516137e090919063ffffffff16565b815250905092915050565b612eec613ab4565b612ef4613ab4565b60008660090160008773ffffffffffffffffffffffffffffffffffffffff1673ffffffffffffffffffffffffffffffffffffffff1681526020019081526020016000206040518060a00160405290816000820160405180602001604052908160008201548152505081526020016001820160009054906101000a900473ffffffffffffffffffffffffffffffffffffffff1673ffffffffffffffffffffffffffffffffffffffff1673ffffffffffffffffffffffffffffffffffffffff1681526020016002820160009054906101000a900473ffffffffffffffffffffffffffffffffffffffff1673ffffffffffffffffffffffffffffffffffffffff1673ffffffffffffffffffffffffffffffffffffffff1681526020016002820160149054906101000a900460ff1660ff1660ff1681526020016002820160159054906101000a900460ff1615151515815250509050600061306286836060015160ff166137f690919063ffffffff16565b905060006040518060200160405280846020015173ffffffffffffffffffffffffffffffffffffffff166350d25bcd6040518163ffffffff1660e01b8152600401602060405180830381865afa1580156130c0573d6000803e3d6000fd5b505050506040513d601f19601f820116820180604052508101906130e49190613d6e565b815250905060006130fe8284612ba990919063ffffffff16565b90508661311f5761311c846000015182612ba990919063ffffffff16565b90505b8082955095505050505094509492505050565b61313a613ab4565b6000604051806020016040528060008152509050600084600e0160008573ffffffffffffffffffffffffffffffffffffffff1673ffffffffffffffffffffffffffffffffffffffff16815260200190815260200160002080548060200260200160405190810160405280929190818152602001828054801561321157602002820191906000526020600020905b8160009054906101000a900473ffffffffffffffffffffffffffffffffffffffff1673ffffffffffffffffffffffffffffffffffffffff16815260200190600101908083116131c7575b5050505050905060005b815181101561330157600082828151811061323957613238614027565b5b602002602001015190506132eb6132dc8289600d0160008a73ffffffffffffffffffffffffffffffffffffffff1673ffffffffffffffffffffffffffffffffffffffff16815260200190815260200160002060008573ffffffffffffffffffffffffffffffffffffffff1673ffffffffffffffffffffffffffffffffffffffff1681526020019081526020016000205460008b611741909392919063ffffffff16565b856122bc90919063ffffffff16565b93505080806132f9906140c9565b91505061321b565b50819250505092915050565b6000818361331b9190613e24565b905092915050565b6000613385826040518060400160405280602081526020017f5361666545524332303a206c6f772d6c6576656c2063616c6c206661696c65648152508573ffffffffffffffffffffffffffffffffffffffff166138949092919063ffffffff16565b90506000815111156133e557808060200190518101906133a59190614348565b6133e4576040517f08c379a00000000000000000000000000000000000000000000000000000000081526004016133db906143e7565b60405180910390fd5b5b505050565b60006133f46115c5565b600901600084815260200190815260200160002060000160008373ffffffffffffffffffffffffffffffffffffffff1673ffffffffffffffffffffffffffffffffffffffff16815260200190815260200160002060009054906101000a900460ff16905092915050565b60606000600283600261347191906142b6565b61347b9190613e24565b67ffffffffffffffff81111561349457613493614407565b5b6040519080825280601f01601f1916602001820160405280156134c65781602001600182028036833780820191505090505b5090507f3000000000000000000000000000000000000000000000000000000000000000816000815181106134fe576134fd614027565b5b60200101907effffffffffffffffffffffffffffffffffffffffffffffffffffffffffffff1916908160001a9053507f78000000000000000000000000000000000000000000000000000000000000008160018151811061356257613561614027565b5b60200101907effffffffffffffffffffffffffffffffffffffffffffffffffffffffffffff1916908160001a905350600060018460026135a291906142b6565b6135ac9190613e24565b90505b600181111561364c577f3031323334353637383961626364656600000000000000000000000000000000600f8616601081106135ee576135ed614027565b5b1a60f81b82828151811061360557613604614027565b5b60200101907effffffffffffffffffffffffffffffffffffffffffffffffffffffffffffff1916908160001a905350600485901c945080613645906140a0565b90506135af565b5060008414613690576040517f08c379a000000000000000000000000000000000000000000000000000000000815260040161368790614482565b60405180910390fd5b8091505092915050565b6000808260000151905060128410156136d9578360126136ba9190613d04565b600a6136c69190613fdc565b816136d19190614285565b915050613713565b601284111561370e576012846136ef9190613d04565b600a6136fb9190613fdc565b8161370691906142b6565b915050613713565b809150505b92915050565b600061377b826040518060400160405280602081526020017f5361666545524332303a206c6f772d6c6576656c2063616c6c206661696c65648152508573ffffffffffffffffffffffffffffffffffffffff166138949092919063ffffffff16565b90506000815111156137db578080602001905181019061379b9190614348565b6137da576040517f08c379a00000000000000000000000000000000000000000000000000000000081526004016137d1906143e7565b60405180910390fd5b5b505050565b600081836137ee9190613d04565b905092915050565b6137fe613ab4565b60006040518060200160405280848152509050601284101561384d5761384584601261382a9190613d04565b600a6138369190613fdc565b826138ac90919063ffffffff16565b91505061388e565b6012841115613889576138816012856138669190613d04565b600a6138729190613fdc565b826138e190919063ffffffff16565b91505061388e565b809150505b92915050565b60606138a38484600085613916565b90509392505050565b6138b4613ab4565b60405180602001604052806138d6848660000151612c3790919063ffffffff16565b815250905092915050565b6138e9613ab4565b604051806020016040528061390b848660000151612c4d90919063ffffffff16565b815250905092915050565b60608247101561395b576040517f08c379a000000000000000000000000000000000000000000000000000000000815260040161395290614514565b60405180910390fd5b61396485613a2a565b6139a3576040517f08c379a000000000000000000000000000000000000000000000000000000000815260040161399a90614580565b60405180910390fd5b6000808673ffffffffffffffffffffffffffffffffffffffff1685876040516139cc91906145e7565b60006040518083038185875af1925050503d8060008114613a09576040519150601f19603f3d011682016040523d82523d6000602084013e613a0e565b606091505b5091509150613a1e828286613a4d565b92505050949350505050565b6000808273ffffffffffffffffffffffffffffffffffffffff163b119050919050565b60608315613a5d57829050613aad565b600083511115613a705782518084602001fd5b816040517f08c379a0000000000000000000000000000000000000000000000000000000008152600401613aa49190613cb3565b60405180910390fd5b9392505050565b6040518060200160405280600081525090565b600080fd5b600073ffffffffffffffffffffffffffffffffffffffff82169050919050565b6000613af782613acc565b9050919050565b613b0781613aec565b8114613b1257600080fd5b50565b600081359050613b2481613afe565b92915050565b6000819050919050565b613b3d81613b2a565b8114613b4857600080fd5b50565b600081359050613b5a81613b34565b92915050565b60008060008060808587031215613b7a57613b79613ac7565b5b6000613b8887828801613b15565b9450506020613b9987828801613b15565b9350506040613baa87828801613b4b565b9250506060613bbb87828801613b4b565b91505092959194509250565b600080600060608486031215613be057613bdf613ac7565b5b6000613bee86828701613b15565b9350506020613bff86828701613b15565b9250506040613c1086828701613b4b565b9150509250925092565b600081519050919050565b600082825260208201905092915050565b60005b83811015613c54578082015181840152602081019050613c39565b83811115613c63576000848401525b50505050565b6000601f19601f8301169050919050565b6000613c8582613c1a565b613c8f8185613c25565b9350613c9f818560208601613c36565b613ca881613c69565b840191505092915050565b60006020820190508181036000830152613ccd8184613c7a565b905092915050565b7f4e487b7100000000000000000000000000000000000000000000000000000000600052601160045260246000fd5b6000613d0f82613b2a565b9150613d1a83613b2a565b925082821015613d2d57613d2c613cd5565b5b828203905092915050565b6000819050919050565b613d4b81613d38565b8114613d5657600080fd5b50565b600081519050613d6881613d42565b92915050565b600060208284031215613d8457613d83613ac7565b5b6000613d9284828501613d59565b91505092915050565b613da481613aec565b82525050565b613db381613b2a565b82525050565b6000604082019050613dce6000830185613d9b565b613ddb6020830184613daa565b9392505050565b600081519050613df181613b34565b92915050565b600060208284031215613e0d57613e0c613ac7565b5b6000613e1b84828501613de2565b91505092915050565b6000613e2f82613b2a565b9150613e3a83613b2a565b9250827fffffffffffffffffffffffffffffffffffffffffffffffffffffffffffffffff03821115613e6f57613e6e613cd5565b5b828201905092915050565b7f4e487b7100000000000000000000000000000000000000000000000000000000600052602160045260246000fd5b60008160011c9050919050565b6000808291508390505b6001851115613f0057808604811115613edc57613edb613cd5565b5b6001851615613eeb5780820291505b8081029050613ef985613ea9565b9450613ec0565b94509492505050565b600082613f195760019050613fd5565b81613f275760009050613fd5565b8160018114613f3d5760028114613f4757613f76565b6001915050613fd5565b60ff841115613f5957613f58613cd5565b5b8360020a915084821115613f7057613f6f613cd5565b5b50613fd5565b5060208310610133831016604e8410600b8410161715613fab5782820a905083811115613fa657613fa5613cd5565b5b613fd5565b613fb88484846001613eb6565b92509050818404811115613fcf57613fce613cd5565b5b81810290505b9392505050565b6000613fe782613b2a565b9150613ff283613b2a565b925061401f7fffffffffffffffffffffffffffffffffffffffffffffffffffffffffffffffff8484613f09565b905092915050565b7f4e487b7100000000000000000000000000000000000000000000000000000000600052603260045260246000fd5b7f4e487b7100000000000000000000000000000000000000000000000000000000600052603160045260246000fd5b600060208201905061409a6000830184613daa565b92915050565b60006140ab82613b2a565b9150600082036140be576140bd613cd5565b5b600182039050919050565b60006140d482613b2a565b91507fffffffffffffffffffffffffffffffffffffffffffffffffffffffffffffffff820361410657614105613cd5565b5b600182019050919050565b60006060820190506141266000830186613d9b565b6141336020830185613d9b565b6141406040830184613daa565b949350505050565b600081905092915050565b7f416363657373436f6e74726f6c3a206163636f756e7420000000000000000000600082015250565b6000614189601783614148565b915061419482614153565b601782019050919050565b60006141aa82613c1a565b6141b48185614148565b93506141c4818560208601613c36565b80840191505092915050565b7f206973206d697373696e6720726f6c6520000000000000000000000000000000600082015250565b6000614206601183614148565b9150614211826141d0565b601182019050919050565b60006142278261417c565b9150614233828561419f565b915061423e826141f9565b915061424a828461419f565b91508190509392505050565b7f4e487b7100000000000000000000000000000000000000000000000000000000600052601260045260246000fd5b600061429082613b2a565b915061429b83613b2a565b9250826142ab576142aa614256565b5b828204905092915050565b60006142c182613b2a565b91506142cc83613b2a565b9250817fffffffffffffffffffffffffffffffffffffffffffffffffffffffffffffffff048311821515161561430557614304613cd5565b5b828202905092915050565b60008115159050919050565b61432581614310565b811461433057600080fd5b50565b6000815190506143428161431c565b92915050565b60006020828403121561435e5761435d613ac7565b5b600061436c84828501614333565b91505092915050565b7f5361666545524332303a204552433230206f7065726174696f6e20646964206e60008201527f6f74207375636365656400000000000000000000000000000000000000000000602082015250565b60006143d1602a83613c25565b91506143dc82614375565b604082019050919050565b60006020820190508181036000830152614400816143c4565b9050919050565b7f4e487b7100000000000000000000000000000000000000000000000000000000600052604160045260246000fd5b7f537472696e67733a20686578206c656e67746820696e73756666696369656e74600082015250565b600061446c602083613c25565b915061447782614436565b602082019050919050565b6000602082019050818103600083015261449b8161445f565b9050919050565b7f416464726573733a20696e73756666696369656e742062616c616e636520666f60008201527f722063616c6c0000000000000000000000000000000000000000000000000000602082015250565b60006144fe602683613c25565b9150614509826144a2565b604082019050919050565b6000602082019050818103600083015261452d816144f1565b9050919050565b7f416464726573733a2063616c6c20746f206e6f6e2d636f6e7472616374000000600082015250565b600061456a601d83613c25565b915061457582614534565b602082019050919050565b600060208201905081810360008301526145998161455d565b9050919050565b600081519050919050565b600081905092915050565b60006145c1826145a0565b6145cb81856145ab565b93506145db818560208601613c36565b80840191505092915050565b60006145f382846145b6565b91508190509291505056fea2646970667358221220d246dc92447b002ec2be8cb639387805c0f55bd8b062b5edb76e8d9dc2bdc40b64736f6c634300080e0033",
  "devdoc": {
    "kind": "dev",
    "methods": {
      "burnKreskoAsset(address,address,uint256,uint256)": {
        "params": {
          "_account": "The address to burn kresko assets for",
          "_amount": "The amount of the Kresko asset to be burned.",
          "_kreskoAsset": "The address of the Kresko asset.",
          "_mintedKreskoAssetIndex": "The index of the collateral asset in the user's minted assets array."
        }
      },
      "depositCollateral(address,address,uint256)": {
        "params": {
          "_account": "The user to deposit collateral for.",
          "_amount": "The amount of the collateral asset to deposit.",
          "_collateralAsset": "The address of the collateral asset."
        }
      },
      "mintKreskoAsset(address,address,uint256)": {
        "params": {
          "_account": "The address to mint assets for.",
          "_amount": "The amount of the Kresko asset to be minted.",
          "_kreskoAsset": "The address of the Kresko asset."
        }
      },
      "withdrawCollateral(address,address,uint256,uint256)": {
        "details": "Requires the post-withdrawal collateral value to violate minimum collateral requirement.",
        "params": {
          "_account": "The address to withdraw assets for.",
          "_amount": "The amount of the collateral asset to withdraw.",
          "_collateralAsset": "The address of the collateral asset.",
          "_depositedCollateralAssetIndex": "The index of the collateral asset in the sender's deposited collateral assets array. Only needed if withdrawing the entire deposit of a particular collateral asset."
        }
      }
    },
    "version": 1
  },
  "userdoc": {
    "kind": "user",
    "methods": {
      "burnKreskoAsset(address,address,uint256,uint256)": {
        "notice": "Burns existing Kresko assets.Only needed if withdrawing the entire deposit of a particular collateral asset."
      },
      "depositCollateral(address,address,uint256)": {
        "notice": "Deposits collateral into the protocol."
      },
      "mintKreskoAsset(address,address,uint256)": {
        "notice": "Mints new Kresko assets."
      },
      "withdrawCollateral(address,address,uint256,uint256)": {
        "notice": "Withdraws sender's collateral from the protocol."
      }
    },
    "version": 1
  },
  "storageLayout": {
    "storage": [],
    "types": null
  }
}