{
  "address": "0xf0CF7fc09A3D14f7D4E8a8B248c3CddBeB86681a",
  "abi": [
    {
      "inputs": [
        {
          "internalType": "address",
          "name": "_account",
          "type": "address"
        },
        {
          "internalType": "address",
          "name": "_kreskoAsset",
          "type": "address"
        },
        {
          "internalType": "uint256",
          "name": "_burnAmount",
          "type": "uint256"
        },
        {
          "internalType": "uint256",
          "name": "_mintedKreskoAssetIndex",
          "type": "uint256"
        }
      ],
      "name": "burnKreskoAsset",
      "outputs": [],
      "stateMutability": "nonpayable",
      "type": "function"
    },
    {
      "inputs": [
        {
          "internalType": "address",
          "name": "_account",
          "type": "address"
        },
        {
          "internalType": "address",
          "name": "_collateralAsset",
          "type": "address"
        },
        {
          "internalType": "uint256",
          "name": "_amount",
          "type": "uint256"
        }
      ],
      "name": "depositCollateral",
      "outputs": [],
      "stateMutability": "nonpayable",
      "type": "function"
    },
    {
      "inputs": [
        {
          "internalType": "address",
          "name": "_account",
          "type": "address"
        },
        {
          "internalType": "address",
          "name": "_kreskoAsset",
          "type": "address"
        },
        {
          "internalType": "uint256",
          "name": "_amount",
          "type": "uint256"
        }
      ],
      "name": "mintKreskoAsset",
      "outputs": [],
      "stateMutability": "nonpayable",
      "type": "function"
    },
    {
      "inputs": [
        {
          "internalType": "address",
          "name": "_account",
          "type": "address"
        },
        {
          "internalType": "address",
          "name": "_collateralAsset",
          "type": "address"
        },
        {
          "internalType": "uint256",
          "name": "_amount",
          "type": "uint256"
        },
        {
          "internalType": "uint256",
          "name": "_depositedCollateralAssetIndex",
          "type": "uint256"
        }
      ],
      "name": "withdrawCollateral",
      "outputs": [],
      "stateMutability": "nonpayable",
      "type": "function"
    }
  ],
  "transactionHash": "0x04e0c79491ae861225c3ee3a0c0032afae6ea45137eee1d2f5a5cd77b84db273",
  "args": [],
  "numDeployments": 3,
  "solcInputHash": "7eabd0f9a002234cf400e60eb676d7b2",
  "bytecode": "0x608060405234801561001057600080fd5b506151ab806100206000396000f3fe608060405234801561001057600080fd5b506004361061004c5760003560e01c8063067dc28914610051578063e3f06d7b1461006d578063f5e6546c14610089578063f970c3b7146100a5575b600080fd5b61006b600480360381019061006691906146ae565b6100c1565b005b61008760048036038101906100829190614715565b61064c565b005b6100a3600480360381019061009e91906146ae565b611009565b005b6100bf60048036038101906100ba9190614715565b61129a565b005b60016100cb611490565b600b0154146040518060400160405280600381526020017f313036000000000000000000000000000000000000000000000000000000000081525090610147576040517f08c379a000000000000000000000000000000000000000000000000000000000815260040161013e9190614801565b60405180910390fd5b506002610152611490565b600b0181905550826101626114bd565b600c0160008273ffffffffffffffffffffffffffffffffffffffff1673ffffffffffffffffffffffffffffffffffffffff16815260200190815260200160002060060160009054906101000a900460ff166040518060400160405280600381526020017f32313900000000000000000000000000000000000000000000000000000000008152509061022a576040517f08c379a00000000000000000000000000000000000000000000000000000000081526004016102219190614801565b60405180910390fd5b503373ffffffffffffffffffffffffffffffffffffffff168573ffffffffffffffffffffffffffffffffffffffff1614157f46925e0f0cc76e485772167edccb8dc449d43b23b55fc4e756b063f49099e6a060001b811561028f5761028e816114ea565b5b600085116040518060400160405280600381526020017f32303200000000000000000000000000000000000000000000000000000000008152509061030a576040517f08c379a00000000000000000000000000000000000000000000000000000000081526004016103019190614801565b60405180910390fd5b5060006103156114bd565b90508060070160009054906101000a900460ff161561033a576103398760026114fe565b5b600061035189898461160c9092919063ffffffff16565b9050808711156040518060400160405280600381526020017f3231310000000000000000000000000000000000000000000000000000000000815250906103ce576040517f08c379a00000000000000000000000000000000000000000000000000000000081526004016103c59190614801565b60405180910390fd5b5060006103e889898486611773909392919063ffffffff16565b905081810361044757610446898885600e0160008e73ffffffffffffffffffffffffffffffffffffffff1673ffffffffffffffffffffffffffffffffffffffff1681526020019081526020016000206119219092919063ffffffff16565b5b61045e8a8a8386611b07909392919063ffffffff16565b82600c0160008a73ffffffffffffffffffffffffffffffffffffffff1673ffffffffffffffffffffffffffffffffffffffff16815260200190815260200160002060030160009054906101000a900473ffffffffffffffffffffffffffffffffffffffff1673ffffffffffffffffffffffffffffffffffffffff16638dec3daa82336040518363ffffffff1660e01b81526004016104fd929190614841565b6020604051808303816000875af115801561051c573d6000803e3d6000fd5b505050506040513d601f19601f82011682018060405250810190610540919061487f565b83600d0160008c73ffffffffffffffffffffffffffffffffffffffff1673ffffffffffffffffffffffffffffffffffffffff16815260200190815260200160002060008b73ffffffffffffffffffffffffffffffffffffffff1673ffffffffffffffffffffffffffffffffffffffff16815260200190815260200160002060008282546105cd91906148db565b92505081905550808973ffffffffffffffffffffffffffffffffffffffff168b73ffffffffffffffffffffffffffffffffffffffff167f8af4d455a89586973d5f67129b1311b10fb5eaa983499b67e11d4a12f721fdad60405160405180910390a4505050505050600161063f611490565b600b018190555050505050565b6001610656611490565b600b0154146040518060400160405280600381526020017f3130360000000000000000000000000000000000000000000000000000000000815250906106d2576040517f08c379a00000000000000000000000000000000000000000000000000000000081526004016106c99190614801565b60405180910390fd5b5060026106dd611490565b600b0181905550816106ed6114bd565b600c0160008273ffffffffffffffffffffffffffffffffffffffff1673ffffffffffffffffffffffffffffffffffffffff16815260200190815260200160002060060160009054906101000a900460ff166040518060400160405280600381526020017f3231390000000000000000000000000000000000000000000000000000000000815250906107b5576040517f08c379a00000000000000000000000000000000000000000000000000000000081526004016107ac9190614801565b60405180910390fd5b503373ffffffffffffffffffffffffffffffffffffffff168473ffffffffffffffffffffffffffffffffffffffff1614157f46925e0f0cc76e485772167edccb8dc449d43b23b55fc4e756b063f49099e6a060001b811561081a57610819816114ea565b5b600084116040518060400160405280600381526020017f323031000000000000000000000000000000000000000000000000000000000081525090610895576040517f08c379a000000000000000000000000000000000000000000000000000000000815260040161088c9190614801565b60405180910390fd5b5060006108a06114bd565b90508060070160009054906101000a900460ff16156108c5576108c48660036114fe565b5b600081600c0160008873ffffffffffffffffffffffffffffffffffffffff1673ffffffffffffffffffffffffffffffffffffffff1681526020019081526020016000206040518060e00160405290816000820160405180602001604052908160008201548152505081526020016001820160009054906101000a900473ffffffffffffffffffffffffffffffffffffffff1673ffffffffffffffffffffffffffffffffffffffff1673ffffffffffffffffffffffffffffffffffffffff168152602001600282015481526020016003820160009054906101000a900473ffffffffffffffffffffffffffffffffffffffff1673ffffffffffffffffffffffffffffffffffffffff1673ffffffffffffffffffffffffffffffffffffffff1681526020016004820160405180602001604052908160008201548152505081526020016005820160405180602001604052908160008201548152505081526020016006820160009054906101000a900460ff16151515158152505090508060400151868873ffffffffffffffffffffffffffffffffffffffff166318160ddd6040518163ffffffff1660e01b8152600401602060405180830381865afa158015610a91573d6000803e3d6000fd5b505050506040513d601f19601f82011682018060405250810190610ab5919061487f565b610abf919061490f565b11156040518060400160405280600381526020017f323234000000000000000000000000000000000000000000000000000000000081525090610b38576040517f08c379a0000000000000000000000000000000000000000000000000000000008152600401610b2f9190614801565b60405180910390fd5b50610b5160008260a0015161202490919063ffffffff16565b15610b6e57610b6d88888885612041909392919063ffffffff16565b5b6000610b83898461254a90919063ffffffff16565b90506000610bb48a85600401604051806020016040529081600082015481525050866126c29092919063ffffffff16565b90506000610be78a8a87600401604051806020016040529081600082015481525050886126f8909392919063ffffffff16565b9050610c0e83610c00838561273a90919063ffffffff16565b61277390919063ffffffff16565b6040518060400160405280600381526020017f323232000000000000000000000000000000000000000000000000000000000081525090610c85576040517f08c379a0000000000000000000000000000000000000000000000000000000008152600401610c7c9190614801565b60405180910390fd5b50600085600d0160008d73ffffffffffffffffffffffffffffffffffffffff1673ffffffffffffffffffffffffffffffffffffffff16815260200190815260200160002060008c73ffffffffffffffffffffffffffffffffffffffff1673ffffffffffffffffffffffffffffffffffffffff168152602001908152602001600020549050610d5686600501604051806020016040529081600082015481525050610d488d8d85610d35919061490f565b60018b612789909392919063ffffffff16565b6129e390919063ffffffff16565b6040518060400160405280600381526020017f323233000000000000000000000000000000000000000000000000000000000081525090610dcd576040517f08c379a0000000000000000000000000000000000000000000000000000000008152600401610dc49190614801565b60405180910390fd5b5060008103610e795785600e0160008d73ffffffffffffffffffffffffffffffffffffffff1673ffffffffffffffffffffffffffffffffffffffff1681526020019081526020016000208b9080600181540180825580915050600190039060005260206000200160009091909190916101000a81548173ffffffffffffffffffffffffffffffffffffffff021916908373ffffffffffffffffffffffffffffffffffffffff1602179055505b846060015173ffffffffffffffffffffffffffffffffffffffff1663b696a6ad8b8e6040518363ffffffff1660e01b8152600401610eb8929190614841565b6020604051808303816000875af1158015610ed7573d6000803e3d6000fd5b505050506040513d601f19601f82011682018060405250810190610efb919061487f565b86600d0160008e73ffffffffffffffffffffffffffffffffffffffff1673ffffffffffffffffffffffffffffffffffffffff16815260200190815260200160002060008d73ffffffffffffffffffffffffffffffffffffffff1673ffffffffffffffffffffffffffffffffffffffff1681526020019081526020016000206000828254610f88919061490f565b92505081905550898b73ffffffffffffffffffffffffffffffffffffffff168d73ffffffffffffffffffffffffffffffffffffffff167f374b9a23ebe50f7d174c40fdd6a3085177f4efbd8560db9a6b034a695b1f070f60405160405180910390a45050505050505050506001610ffd611490565b600b0181905550505050565b6001611013611490565b600b0154146040518060400160405280600381526020017f31303600000000000000000000000000000000000000000000000000000000008152509061108f576040517f08c379a00000000000000000000000000000000000000000000000000000000081526004016110869190614801565b60405180910390fd5b50600261109a611490565b600b0181905550826110aa6114bd565b60090160008273ffffffffffffffffffffffffffffffffffffffff1673ffffffffffffffffffffffffffffffffffffffff16815260200190815260200160002060020160159054906101000a900460ff166040518060400160405280600381526020017f323138000000000000000000000000000000000000000000000000000000000081525090611172576040517f08c379a00000000000000000000000000000000000000000000000000000000081526004016111699190614801565b60405180910390fd5b503373ffffffffffffffffffffffffffffffffffffffff168573ffffffffffffffffffffffffffffffffffffffff1614157f46925e0f0cc76e485772167edccb8dc449d43b23b55fc4e756b063f49099e6a060001b81156111d7576111d6816114ea565b5b6111df6114bd565b60070160009054906101000a900460ff1615611201576112008660016114fe565b5b600061121f88886112106114bd565b6129f99092919063ffffffff16565b905080861161122e5785611230565b805b955061125488888884896112426114bd565b612cfb9095949392919063ffffffff16565b61127f88878973ffffffffffffffffffffffffffffffffffffffff166130aa9092919063ffffffff16565b50505050600161128d611490565b600b018190555050505050565b60016112a4611490565b600b0154146040518060400160405280600381526020017f313036000000000000000000000000000000000000000000000000000000000081525090611320576040517f08c379a00000000000000000000000000000000000000000000000000000000081526004016113179190614801565b60405180910390fd5b50600261132b611490565b600b01819055508161133b6114bd565b60090160008273ffffffffffffffffffffffffffffffffffffffff1673ffffffffffffffffffffffffffffffffffffffff16815260200190815260200160002060020160159054906101000a900460ff166040518060400160405280600381526020017f323138000000000000000000000000000000000000000000000000000000000081525090611403576040517f08c379a00000000000000000000000000000000000000000000000000000000081526004016113fa9190614801565b60405180910390fd5b5061140c6114bd565b60070160009054906101000a900460ff161561142e5761142d8360006114fe565b5b61145b3330848673ffffffffffffffffffffffffffffffffffffffff16613130909392919063ffffffff16565b6114798484846114696114bd565b6131b9909392919063ffffffff16565b506001611484611490565b600b0181905550505050565b6000807f080f9836d135d84bdc1ee0b4214e5f2ae76516c41178c6f14a73685c9c3e5f0990508091505090565b6000807f5076ab9fa18d2a17cfce4375a530b76392de8264a11126885cd5534d39f0a97c90508091505090565b6114fb816114f66133f4565b6134a4565b50565b6115066114bd565b60080160008373ffffffffffffffffffffffffffffffffffffffff1673ffffffffffffffffffffffffffffffffffffffff168152602001908152602001600020600082600481111561155b5761155a614965565b5b600481111561156d5761156c614965565b5b815260200190815260200160002060000160000160009054906101000a900460ff16156040518060400160405280600381526020017f323332000000000000000000000000000000000000000000000000000000000081525090611607576040517f08c379a00000000000000000000000000000000000000000000000000000000081526004016115fe9190614801565b60405180910390fd5b505050565b600083600c0160008373ffffffffffffffffffffffffffffffffffffffff1673ffffffffffffffffffffffffffffffffffffffff16815260200190815260200160002060030160009054906101000a900473ffffffffffffffffffffffffffffffffffffffff1673ffffffffffffffffffffffffffffffffffffffff166307a2d13a85600d0160008673ffffffffffffffffffffffffffffffffffffffff1673ffffffffffffffffffffffffffffffffffffffff16815260200190815260200160002060008573ffffffffffffffffffffffffffffffffffffffff1673ffffffffffffffffffffffffffffffffffffffff168152602001908152602001600020546040518263ffffffff1660e01b81526004016117299190614994565b602060405180830381865afa158015611746573d6000803e3d6000fd5b505050506040513d601f19601f8201168201806040525081019061176a919061487f565b90509392505050565b60008061179985858561178691906148db565b600189612789909392919063ffffffff16565b90506117af60008261202490919063ffffffff16565b80156117e257506117e1866005016040518060200160405290816000820154815250508261354190919063ffffffff16565b5b15611914576000604051806020016040528088600c0160008973ffffffffffffffffffffffffffffffffffffffff1673ffffffffffffffffffffffffffffffffffffffff16815260200190815260200160002060010160009054906101000a900473ffffffffffffffffffffffffffffffffffffffff1673ffffffffffffffffffffffffffffffffffffffff166350d25bcd6040518163ffffffff1660e01b8152600401602060405180830381865afa1580156118a3573d6000803e3d6000fd5b505050506040513d601f19601f820116820180604052508101906118c791906149e5565b815250905060006118f9828960050160405180602001604052908160008201548152505061355690919063ffffffff16565b905080600001518561190b91906148db565b93505050611918565b8391505b50949350505050565b8173ffffffffffffffffffffffffffffffffffffffff1683828154811061194b5761194a614a12565b5b9060005260206000200160009054906101000a900473ffffffffffffffffffffffffffffffffffffffff1673ffffffffffffffffffffffffffffffffffffffff16146040518060400160405280600381526020017f343030000000000000000000000000000000000000000000000000000000000081525090611a04576040517f08c379a00000000000000000000000000000000000000000000000000000000081526004016119fb9190614801565b60405180910390fd5b50600060018480549050611a1891906148db565b9050808214611abb57838181548110611a3457611a33614a12565b5b9060005260206000200160009054906101000a900473ffffffffffffffffffffffffffffffffffffffff16848381548110611a7257611a71614a12565b5b9060005260206000200160006101000a81548173ffffffffffffffffffffffffffffffffffffffff021916908373ffffffffffffffffffffffffffffffffffffffff1602179055505b83805480611acc57611acb614a41565b5b6001900381819060005260206000200160006101000a81549073ffffffffffffffffffffffffffffffffffffffff0219169055905550505050565b600084600c0160008473ffffffffffffffffffffffffffffffffffffffff1673ffffffffffffffffffffffffffffffffffffffff1681526020019081526020016000206040518060e00160405290816000820160405180602001604052908160008201548152505081526020016001820160009054906101000a900473ffffffffffffffffffffffffffffffffffffffff1673ffffffffffffffffffffffffffffffffffffffff1673ffffffffffffffffffffffffffffffffffffffff168152602001600282015481526020016003820160009054906101000a900473ffffffffffffffffffffffffffffffffffffffff1673ffffffffffffffffffffffffffffffffffffffff1673ffffffffffffffffffffffffffffffffffffffff1681526020016004820160405180602001604052908160008201548152505081526020016005820160405180602001604052908160008201548152505081526020016006820160009054906101000a900460ff16151515158152505090506000611d3b8260800151611d2d6040518060200160405280878152506040518060200160405280876020015173ffffffffffffffffffffffffffffffffffffffff166350d25bcd6040518163ffffffff1660e01b8152600401602060405180830381865afa158015611cf8573d6000803e3d6000fd5b505050506040513d601f19601f82011682018060405250810190611d1c91906149e5565b8152506135ae90919063ffffffff16565b6135ae90919063ffffffff16565b90506000816000015103611d5057505061201e565b600086600b0160008773ffffffffffffffffffffffffffffffffffffffff1673ffffffffffffffffffffffffffffffffffffffff168152602001908152602001600020805480602002602001604051908101604052809291908181526020018280548015611e1357602002820191906000526020600020905b8160009054906101000a900473ffffffffffffffffffffffffffffffffffffffff1673ffffffffffffffffffffffffffffffffffffffff1681526020019060010190808311611dc9575b50505050509050600060018251611e2a91906148db565b90505b60008110612019576000828281518110611e4a57611e49614a12565b5b60200260200101519050600080611e70838b88878f6135ff90949392919063ffffffff16565b91509150611e8982848d6137579092919063ffffffff16565b8b600a0160008c73ffffffffffffffffffffffffffffffffffffffff1673ffffffffffffffffffffffffffffffffffffffff16815260200190815260200160002060008573ffffffffffffffffffffffffffffffffffffffff1673ffffffffffffffffffffffffffffffffffffffff1681526020019081526020016000206000828254611f1691906148db565b92505081905550611f6c8b60020160009054906101000a900473ffffffffffffffffffffffffffffffffffffffff16838573ffffffffffffffffffffffffffffffffffffffff166130aa9092919063ffffffff16565b818373ffffffffffffffffffffffffffffffffffffffff168b73ffffffffffffffffffffffffffffffffffffffff167fbfec87a214fb0d037be9e8ca36943fbbe5d6bdb3c7de2336d8f792ece8627fcc8460000151604051611fce9190614994565b60405180910390a4611fe9818761397490919063ffffffff16565b95506000866000015103612003575050505050505061201e565b505050808061201190614a70565b915050611e2d565b505050505b50505050565b600061202f826139ad565b60000151836000015111905092915050565b600084600c0160008473ffffffffffffffffffffffffffffffffffffffff1673ffffffffffffffffffffffffffffffffffffffff1681526020019081526020016000206040518060e00160405290816000820160405180602001604052908160008201548152505081526020016001820160009054906101000a900473ffffffffffffffffffffffffffffffffffffffff1673ffffffffffffffffffffffffffffffffffffffff1673ffffffffffffffffffffffffffffffffffffffff168152602001600282015481526020016003820160009054906101000a900473ffffffffffffffffffffffffffffffffffffffff1673ffffffffffffffffffffffffffffffffffffffff1673ffffffffffffffffffffffffffffffffffffffff1681526020016004820160405180602001604052908160008201548152505081526020016005820160405180602001604052908160008201548152505081526020016006820160009054906101000a900460ff161515151581525050905060006122758260a001516122676040518060200160405280878152506040518060200160405280876020015173ffffffffffffffffffffffffffffffffffffffff166350d25bcd6040518163ffffffff1660e01b8152600401602060405180830381865afa158015612232573d6000803e3d6000fd5b505050506040513d601f19601f8201168201806040525081019061225691906149e5565b8152506135ae90919063ffffffff16565b6135ae90919063ffffffff16565b9050600081600001510361228a575050612544565b600086600b0160008773ffffffffffffffffffffffffffffffffffffffff1673ffffffffffffffffffffffffffffffffffffffff16815260200190815260200160002080548060200260200160405190810160405280929190818152602001828054801561234d57602002820191906000526020600020905b8160009054906101000a900473ffffffffffffffffffffffffffffffffffffffff1673ffffffffffffffffffffffffffffffffffffffff1681526020019060010190808311612303575b5050505050905060006001825161236491906148db565b90505b6000811061253f57600082828151811061238457612383614a12565b5b602002602001015190506000806123aa838b88878f6135ff90949392919063ffffffff16565b91509150818b600a0160008c73ffffffffffffffffffffffffffffffffffffffff1673ffffffffffffffffffffffffffffffffffffffff16815260200190815260200160002060008573ffffffffffffffffffffffffffffffffffffffff1673ffffffffffffffffffffffffffffffffffffffff168152602001908152602001600020600082825461243c91906148db565b925050819055506124928b60020160009054906101000a900473ffffffffffffffffffffffffffffffffffffffff16838573ffffffffffffffffffffffffffffffffffffffff166139ea9092919063ffffffff16565b818373ffffffffffffffffffffffffffffffffffffffff168b73ffffffffffffffffffffffffffffffffffffffff167fa0e7d0a11173d2695c0c7163acd2cdd0e13f168b6ee2ac3040be71985fccea9784600001516040516124f49190614994565b60405180910390a461250f818761397490919063ffffffff16565b955060008660000151036125295750505050505050612544565b505050808061253790614a70565b915050612367565b505050505b50505050565b612552614602565b6000604051806020016040528060008152509050600084600b0160008573ffffffffffffffffffffffffffffffffffffffff1673ffffffffffffffffffffffffffffffffffffffff16815260200190815260200160002080548060200260200160405190810160405280929190818152602001828054801561262957602002820191906000526020600020905b8160009054906101000a900473ffffffffffffffffffffffffffffffffffffffff1673ffffffffffffffffffffffffffffffffffffffff16815260200190600101908083116125df575b5050505050905060005b81518110156126b657600082828151811061265157612650614a12565b5b6020026020010151905060006126898261267689858c6129f99092919063ffffffff16565b60008b613a70909392919063ffffffff16565b50905061269f818661273a90919063ffffffff16565b9450505080806126ae90614a99565b915050612633565b50819250505092915050565b6126ca614602565b6126ef826126e18587613cbe90919063ffffffff16565b6135ae90919063ffffffff16565b90509392505050565b612700614602565b600061271a8585600089612789909392919063ffffffff16565b905061272f83826135ae90919063ffffffff16565b915050949350505050565b612742614602565b604051806020016040528061276884600001518660000151613e2f90919063ffffffff16565b815250905092915050565b6000816000015183600001511115905092915050565b612791614602565b600085600c0160008673ffffffffffffffffffffffffffffffffffffffff1673ffffffffffffffffffffffffffffffffffffffff1681526020019081526020016000206040518060e00160405290816000820160405180602001604052908160008201548152505081526020016001820160009054906101000a900473ffffffffffffffffffffffffffffffffffffffff1673ffffffffffffffffffffffffffffffffffffffff1673ffffffffffffffffffffffffffffffffffffffff168152602001600282015481526020016003820160009054906101000a900473ffffffffffffffffffffffffffffffffffffffff1673ffffffffffffffffffffffffffffffffffffffff1673ffffffffffffffffffffffffffffffffffffffff1681526020016004820160405180602001604052908160008201548152505081526020016005820160405180602001604052908160008201548152505081526020016006820160009054906101000a900460ff161515151581525050905060006040518060200160405280836020015173ffffffffffffffffffffffffffffffffffffffff166350d25bcd6040518163ffffffff1660e01b8152600401602060405180830381865afa158015612968573d6000803e3d6000fd5b505050506040513d601f19601f8201168201806040525081019061298c91906149e5565b815250905060006129b4826040518060200160405280898152506135ae90919063ffffffff16565b9050846129d5576129d28360000151826135ae90919063ffffffff16565b90505b809350505050949350505050565b6000816000015183600001511015905092915050565b6000808460090160008473ffffffffffffffffffffffffffffffffffffffff1673ffffffffffffffffffffffffffffffffffffffff1681526020019081526020016000206040518060a00160405290816000820160405180602001604052908160008201548152505081526020016001820160009054906101000a900473ffffffffffffffffffffffffffffffffffffffff1673ffffffffffffffffffffffffffffffffffffffff1673ffffffffffffffffffffffffffffffffffffffff1681526020016002820160009054906101000a900473ffffffffffffffffffffffffffffffffffffffff1673ffffffffffffffffffffffffffffffffffffffff1673ffffffffffffffffffffffffffffffffffffffff1681526020016002820160149054906101000a900460ff1660ff1660ff1681526020016002820160159054906101000a900460ff1615151515815250509050600085600a0160008673ffffffffffffffffffffffffffffffffffffffff1673ffffffffffffffffffffffffffffffffffffffff16815260200190815260200160002060008573ffffffffffffffffffffffffffffffffffffffff1673ffffffffffffffffffffffffffffffffffffffff168152602001908152602001600020549050600073ffffffffffffffffffffffffffffffffffffffff16826040015173ffffffffffffffffffffffffffffffffffffffff1614612cee578560090160008573ffffffffffffffffffffffffffffffffffffffff1673ffffffffffffffffffffffffffffffffffffffff16815260200190815260200160002060020160009054906101000a900473ffffffffffffffffffffffffffffffffffffffff1673ffffffffffffffffffffffffffffffffffffffff166307a2d13a826040518263ffffffff1660e01b8152600401612ca49190614994565b602060405180830381865afa158015612cc1573d6000803e3d6000fd5b505050506040513d601f19601f82011682018060405250810190612ce5919061487f565b92505050612cf4565b80925050505b9392505050565b600083116040518060400160405280600381526020017f313032000000000000000000000000000000000000000000000000000000000081525090612d76576040517f08c379a0000000000000000000000000000000000000000000000000000000008152600401612d6d9190614801565b60405180910390fd5b50600186600b0160008773ffffffffffffffffffffffffffffffffffffffff1673ffffffffffffffffffffffffffffffffffffffff16815260200190815260200160002080549050612dc891906148db565b8111156040518060400160405280600381526020017f343030000000000000000000000000000000000000000000000000000000000081525090612e42576040517f08c379a0000000000000000000000000000000000000000000000000000000008152600401612e399190614801565b60405180910390fd5b506000612e58868861254a90919063ffffffff16565b90506000612e74868660008b613a70909392919063ffffffff16565b5090506000612ea6888a6004016040518060200160405290816000820154815250508b6126c29092919063ffffffff16565b9050612ecd81612ebf848661397490919063ffffffff16565b6129e390919063ffffffff16565b6040518060400160405280600381526020017f323336000000000000000000000000000000000000000000000000000000000081525090612f44576040517f08c379a0000000000000000000000000000000000000000000000000000000008152600401612f3b9190614801565b60405180910390fd5b50612f658686612f5491906148db565b888b6137579092919063ffffffff16565b89600a0160008a73ffffffffffffffffffffffffffffffffffffffff1673ffffffffffffffffffffffffffffffffffffffff16815260200190815260200160002060008973ffffffffffffffffffffffffffffffffffffffff1673ffffffffffffffffffffffffffffffffffffffff168152602001908152602001600020819055508486036130445761304387858b600b0160008c73ffffffffffffffffffffffffffffffffffffffff1673ffffffffffffffffffffffffffffffffffffffff1681526020019081526020016000206119219092919063ffffffff16565b5b858773ffffffffffffffffffffffffffffffffffffffff168973ffffffffffffffffffffffffffffffffffffffff167f45892a46e6cef329bb642da6d69846d324db43d19008edc141ed82382eda1bee60405160405180910390a4505050505050505050565b61312b8363a9059cbb60e01b84846040516024016130c9929190614ae1565b604051602081830303815290604052907bffffffffffffffffffffffffffffffffffffffffffffffffffffffff19166020820180517bffffffffffffffffffffffffffffffffffffffffffffffffffffffff8381831617835250505050613e45565b505050565b6131b3846323b872dd60e01b85858560405160240161315193929190614b0a565b604051602081830303815290604052907bffffffffffffffffffffffffffffffffffffffffffffffffffffffff19166020820180517bffffffffffffffffffffffffffffffffffffffffffffffffffffffff8381831617835250505050613e45565b50505050565b600081116040518060400160405280600381526020017f313033000000000000000000000000000000000000000000000000000000000081525090613234576040517f08c379a000000000000000000000000000000000000000000000000000000000815260040161322b9190614801565b60405180910390fd5b50600061324c8484876129f99092919063ffffffff16565b9050600081036132f95784600b0160008573ffffffffffffffffffffffffffffffffffffffff1673ffffffffffffffffffffffffffffffffffffffff168152602001908152602001600020839080600181540180825580915050600190039060005260206000200160009091909190916101000a81548173ffffffffffffffffffffffffffffffffffffffff021916908373ffffffffffffffffffffffffffffffffffffffff1602179055505b61331082820184876137579092919063ffffffff16565b85600a0160008673ffffffffffffffffffffffffffffffffffffffff1673ffffffffffffffffffffffffffffffffffffffff16815260200190815260200160002060008573ffffffffffffffffffffffffffffffffffffffff1673ffffffffffffffffffffffffffffffffffffffff16815260200190815260200160002081905550818373ffffffffffffffffffffffffffffffffffffffff168573ffffffffffffffffffffffffffffffffffffffff167ff1c0dd7e9b98bbff859029005ef89b127af049cd18df1a8d79f0b7e019911e5660405160405180910390a45050505050565b60003073ffffffffffffffffffffffffffffffffffffffff163373ffffffffffffffffffffffffffffffffffffffff160361349d57600080368080601f016020809104026020016040519081016040528093929190818152602001838380828437600081840152601f19601f820116905080830192505050505050509050600080369050905073ffffffffffffffffffffffffffffffffffffffff8183015116925050506134a1565b3390505b90565b6134ae8282613f0c565b61353d576134d38173ffffffffffffffffffffffffffffffffffffffff166014613f80565b6134e18360001c6020613f80565b6040516020016134f2929190614c15565b6040516020818303038152906040526040517f08c379a00000000000000000000000000000000000000000000000000000000081526004016135349190614801565b60405180910390fd5b5050565b60008160000151836000015110905092915050565b61355e614602565b60405180602001604052806135a384600001516135956012600a6135829190614d82565b88600001516141bc90919063ffffffff16565b6141d290919063ffffffff16565b815250905092915050565b6135b6614602565b60405180602001604052806012600a6135cf9190614d82565b6135ea856000015187600001516141bc90919063ffffffff16565b6135f49190614dfc565b815250905092915050565b6000613609614602565b600061362086888a6129f99092919063ffffffff16565b905060008061363d898460018d613a70909392919063ffffffff16565b91509150613649614602565b600061365e848a61354190919063ffffffff16565b156136e6576136dc613679848b61355690919063ffffffff16565b8d60090160008e73ffffffffffffffffffffffffffffffffffffffff1673ffffffffffffffffffffffffffffffffffffffff16815260200190815260200160002060020160149054906101000a900460ff1660ff166141e890919063ffffffff16565b9050889150613742565b8490508391506137418b898e600b0160008e73ffffffffffffffffffffffffffffffffffffffff1673ffffffffffffffffffffffffffffffffffffffff1681526020019081526020016000206119219092919063ffffffff16565b5b80829650965050505050509550959350505050565b6000808460090160008473ffffffffffffffffffffffffffffffffffffffff1673ffffffffffffffffffffffffffffffffffffffff1681526020019081526020016000206040518060a00160405290816000820160405180602001604052908160008201548152505081526020016001820160009054906101000a900473ffffffffffffffffffffffffffffffffffffffff1673ffffffffffffffffffffffffffffffffffffffff1673ffffffffffffffffffffffffffffffffffffffff1681526020016002820160009054906101000a900473ffffffffffffffffffffffffffffffffffffffff1673ffffffffffffffffffffffffffffffffffffffff1673ffffffffffffffffffffffffffffffffffffffff1681526020016002820160149054906101000a900460ff1660ff1660ff1681526020016002820160159054906101000a900460ff1615151515815250509050600073ffffffffffffffffffffffffffffffffffffffff16816040015173ffffffffffffffffffffffffffffffffffffffff161461396857806040015173ffffffffffffffffffffffffffffffffffffffff1663c6e6f592856040518263ffffffff1660e01b815260040161391f9190614994565b602060405180830381865afa15801561393c573d6000803e3d6000fd5b505050506040513d601f19601f82011682018060405250810190613960919061487f565b91505061396d565b839150505b9392505050565b61397c614602565b60405180602001604052806139a28460000151866000015161426790919063ffffffff16565b815250905092915050565b6139b5614602565b60405180602001604052806139e06012600a6139d19190614d82565b856141bc90919063ffffffff16565b8152509050919050565b613a6b8363a9059cbb60e01b8484604051602401613a09929190614ae1565b604051602081830303815290604052907bffffffffffffffffffffffffffffffffffffffffffffffffffffffff19166020820180517bffffffffffffffffffffffffffffffffffffffffffffffffffffffff838183161783525050505061427d565b505050565b613a78614602565b613a80614602565b60008660090160008773ffffffffffffffffffffffffffffffffffffffff1673ffffffffffffffffffffffffffffffffffffffff1681526020019081526020016000206040518060a00160405290816000820160405180602001604052908160008201548152505081526020016001820160009054906101000a900473ffffffffffffffffffffffffffffffffffffffff1673ffffffffffffffffffffffffffffffffffffffff1673ffffffffffffffffffffffffffffffffffffffff1681526020016002820160009054906101000a900473ffffffffffffffffffffffffffffffffffffffff1673ffffffffffffffffffffffffffffffffffffffff1673ffffffffffffffffffffffffffffffffffffffff1681526020016002820160149054906101000a900460ff1660ff1660ff1681526020016002820160159054906101000a900460ff16151515158152505090506000613bee86836060015160ff1661434490919063ffffffff16565b905060006040518060200160405280846020015173ffffffffffffffffffffffffffffffffffffffff166350d25bcd6040518163ffffffff1660e01b8152600401602060405180830381865afa158015613c4c573d6000803e3d6000fd5b505050506040513d601f19601f82011682018060405250810190613c7091906149e5565b81525090506000613c8a82846135ae90919063ffffffff16565b905086613cab57613ca88460000151826135ae90919063ffffffff16565b90505b8082955095505050505094509492505050565b613cc6614602565b6000604051806020016040528060008152509050600084600e0160008573ffffffffffffffffffffffffffffffffffffffff1673ffffffffffffffffffffffffffffffffffffffff168152602001908152602001600020805480602002602001604051908101604052809291908181526020018280548015613d9d57602002820191906000526020600020905b8160009054906101000a900473ffffffffffffffffffffffffffffffffffffffff1673ffffffffffffffffffffffffffffffffffffffff1681526020019060010190808311613d53575b5050505050905060005b8151811015613e23576000828281518110613dc557613dc4614a12565b5b60200260200101519050613e0d613dfe82613deb89858c61160c9092919063ffffffff16565b60008b612789909392919063ffffffff16565b8561273a90919063ffffffff16565b9350508080613e1b90614a99565b915050613da7565b50819250505092915050565b60008183613e3d919061490f565b905092915050565b6000613ea7826040518060400160405280602081526020017f5361666545524332303a206c6f772d6c6576656c2063616c6c206661696c65648152508573ffffffffffffffffffffffffffffffffffffffff166143e29092919063ffffffff16565b9050600081511115613f075780806020019051810190613ec79190614e65565b613f06576040517f08c379a0000000000000000000000000000000000000000000000000000000008152600401613efd90614f04565b60405180910390fd5b5b505050565b6000613f16611490565b600901600084815260200190815260200160002060000160008373ffffffffffffffffffffffffffffffffffffffff1673ffffffffffffffffffffffffffffffffffffffff16815260200190815260200160002060009054906101000a900460ff16905092915050565b606060006002836002613f939190614f24565b613f9d919061490f565b67ffffffffffffffff811115613fb657613fb5614f7e565b5b6040519080825280601f01601f191660200182016040528015613fe85781602001600182028036833780820191505090505b5090507f3000000000000000000000000000000000000000000000000000000000000000816000815181106140205761401f614a12565b5b60200101907effffffffffffffffffffffffffffffffffffffffffffffffffffffffffffff1916908160001a9053507f78000000000000000000000000000000000000000000000000000000000000008160018151811061408457614083614a12565b5b60200101907effffffffffffffffffffffffffffffffffffffffffffffffffffffffffffff1916908160001a905350600060018460026140c49190614f24565b6140ce919061490f565b90505b600181111561416e577f3031323334353637383961626364656600000000000000000000000000000000600f8616601081106141105761410f614a12565b5b1a60f81b82828151811061412757614126614a12565b5b60200101907effffffffffffffffffffffffffffffffffffffffffffffffffffffffffffff1916908160001a905350600485901c94508061416790614a70565b90506140d1565b50600084146141b2576040517f08c379a00000000000000000000000000000000000000000000000000000000081526004016141a990614ff9565b60405180910390fd5b8091505092915050565b600081836141ca9190614f24565b905092915050565b600081836141e09190614dfc565b905092915050565b6000808260000151905060128410156142275783601261420891906148db565b600a6142149190614d82565b8161421f9190614dfc565b915050614261565b601284111561425c5760128461423d91906148db565b600a6142499190614d82565b816142549190614f24565b915050614261565b809150505b92915050565b6000818361427591906148db565b905092915050565b60006142df826040518060400160405280602081526020017f5361666545524332303a206c6f772d6c6576656c2063616c6c206661696c65648152508573ffffffffffffffffffffffffffffffffffffffff166143e29092919063ffffffff16565b905060008151111561433f57808060200190518101906142ff9190614e65565b61433e576040517f08c379a000000000000000000000000000000000000000000000000000000000815260040161433590614f04565b60405180910390fd5b5b505050565b61434c614602565b60006040518060200160405280848152509050601284101561439b5761439384601261437891906148db565b600a6143849190614d82565b826143fa90919063ffffffff16565b9150506143dc565b60128411156143d7576143cf6012856143b491906148db565b600a6143c09190614d82565b8261442f90919063ffffffff16565b9150506143dc565b809150505b92915050565b60606143f18484600085614464565b90509392505050565b614402614602565b60405180602001604052806144248486600001516141bc90919063ffffffff16565b815250905092915050565b614437614602565b60405180602001604052806144598486600001516141d290919063ffffffff16565b815250905092915050565b6060824710156144a9576040517f08c379a00000000000000000000000000000000000000000000000000000000081526004016144a09061508b565b60405180910390fd5b6144b285614578565b6144f1576040517f08c379a00000000000000000000000000000000000000000000000000000000081526004016144e8906150f7565b60405180910390fd5b6000808673ffffffffffffffffffffffffffffffffffffffff16858760405161451a919061515e565b60006040518083038185875af1925050503d8060008114614557576040519150601f19603f3d011682016040523d82523d6000602084013e61455c565b606091505b509150915061456c82828661459b565b92505050949350505050565b6000808273ffffffffffffffffffffffffffffffffffffffff163b119050919050565b606083156145ab578290506145fb565b6000835111156145be5782518084602001fd5b816040517f08c379a00000000000000000000000000000000000000000000000000000000081526004016145f29190614801565b60405180910390fd5b9392505050565b6040518060200160405280600081525090565b600080fd5b600073ffffffffffffffffffffffffffffffffffffffff82169050919050565b60006146458261461a565b9050919050565b6146558161463a565b811461466057600080fd5b50565b6000813590506146728161464c565b92915050565b6000819050919050565b61468b81614678565b811461469657600080fd5b50565b6000813590506146a881614682565b92915050565b600080600080608085870312156146c8576146c7614615565b5b60006146d687828801614663565b94505060206146e787828801614663565b93505060406146f887828801614699565b925050606061470987828801614699565b91505092959194509250565b60008060006060848603121561472e5761472d614615565b5b600061473c86828701614663565b935050602061474d86828701614663565b925050604061475e86828701614699565b9150509250925092565b600081519050919050565b600082825260208201905092915050565b60005b838110156147a2578082015181840152602081019050614787565b838111156147b1576000848401525b50505050565b6000601f19601f8301169050919050565b60006147d382614768565b6147dd8185614773565b93506147ed818560208601614784565b6147f6816147b7565b840191505092915050565b6000602082019050818103600083015261481b81846147c8565b905092915050565b61482c81614678565b82525050565b61483b8161463a565b82525050565b60006040820190506148566000830185614823565b6148636020830184614832565b9392505050565b60008151905061487981614682565b92915050565b60006020828403121561489557614894614615565b5b60006148a38482850161486a565b91505092915050565b7f4e487b7100000000000000000000000000000000000000000000000000000000600052601160045260246000fd5b60006148e682614678565b91506148f183614678565b925082821015614904576149036148ac565b5b828203905092915050565b600061491a82614678565b915061492583614678565b9250827fffffffffffffffffffffffffffffffffffffffffffffffffffffffffffffffff0382111561495a576149596148ac565b5b828201905092915050565b7f4e487b7100000000000000000000000000000000000000000000000000000000600052602160045260246000fd5b60006020820190506149a96000830184614823565b92915050565b6000819050919050565b6149c2816149af565b81146149cd57600080fd5b50565b6000815190506149df816149b9565b92915050565b6000602082840312156149fb576149fa614615565b5b6000614a09848285016149d0565b91505092915050565b7f4e487b7100000000000000000000000000000000000000000000000000000000600052603260045260246000fd5b7f4e487b7100000000000000000000000000000000000000000000000000000000600052603160045260246000fd5b6000614a7b82614678565b915060008203614a8e57614a8d6148ac565b5b600182039050919050565b6000614aa482614678565b91507fffffffffffffffffffffffffffffffffffffffffffffffffffffffffffffffff8203614ad657614ad56148ac565b5b600182019050919050565b6000604082019050614af66000830185614832565b614b036020830184614823565b9392505050565b6000606082019050614b1f6000830186614832565b614b2c6020830185614832565b614b396040830184614823565b949350505050565b600081905092915050565b7f416363657373436f6e74726f6c3a206163636f756e7420000000000000000000600082015250565b6000614b82601783614b41565b9150614b8d82614b4c565b601782019050919050565b6000614ba382614768565b614bad8185614b41565b9350614bbd818560208601614784565b80840191505092915050565b7f206973206d697373696e6720726f6c6520000000000000000000000000000000600082015250565b6000614bff601183614b41565b9150614c0a82614bc9565b601182019050919050565b6000614c2082614b75565b9150614c2c8285614b98565b9150614c3782614bf2565b9150614c438284614b98565b91508190509392505050565b60008160011c9050919050565b6000808291508390505b6001851115614ca657808604811115614c8257614c816148ac565b5b6001851615614c915780820291505b8081029050614c9f85614c4f565b9450614c66565b94509492505050565b600082614cbf5760019050614d7b565b81614ccd5760009050614d7b565b8160018114614ce35760028114614ced57614d1c565b6001915050614d7b565b60ff841115614cff57614cfe6148ac565b5b8360020a915084821115614d1657614d156148ac565b5b50614d7b565b5060208310610133831016604e8410600b8410161715614d515782820a905083811115614d4c57614d4b6148ac565b5b614d7b565b614d5e8484846001614c5c565b92509050818404811115614d7557614d746148ac565b5b81810290505b9392505050565b6000614d8d82614678565b9150614d9883614678565b9250614dc57fffffffffffffffffffffffffffffffffffffffffffffffffffffffffffffffff8484614caf565b905092915050565b7f4e487b7100000000000000000000000000000000000000000000000000000000600052601260045260246000fd5b6000614e0782614678565b9150614e1283614678565b925082614e2257614e21614dcd565b5b828204905092915050565b60008115159050919050565b614e4281614e2d565b8114614e4d57600080fd5b50565b600081519050614e5f81614e39565b92915050565b600060208284031215614e7b57614e7a614615565b5b6000614e8984828501614e50565b91505092915050565b7f5361666545524332303a204552433230206f7065726174696f6e20646964206e60008201527f6f74207375636365656400000000000000000000000000000000000000000000602082015250565b6000614eee602a83614773565b9150614ef982614e92565b604082019050919050565b60006020820190508181036000830152614f1d81614ee1565b9050919050565b6000614f2f82614678565b9150614f3a83614678565b9250817fffffffffffffffffffffffffffffffffffffffffffffffffffffffffffffffff0483118215151615614f7357614f726148ac565b5b828202905092915050565b7f4e487b7100000000000000000000000000000000000000000000000000000000600052604160045260246000fd5b7f537472696e67733a20686578206c656e67746820696e73756666696369656e74600082015250565b6000614fe3602083614773565b9150614fee82614fad565b602082019050919050565b6000602082019050818103600083015261501281614fd6565b9050919050565b7f416464726573733a20696e73756666696369656e742062616c616e636520666f60008201527f722063616c6c0000000000000000000000000000000000000000000000000000602082015250565b6000615075602683614773565b915061508082615019565b604082019050919050565b600060208201905081810360008301526150a481615068565b9050919050565b7f416464726573733a2063616c6c20746f206e6f6e2d636f6e7472616374000000600082015250565b60006150e1601d83614773565b91506150ec826150ab565b602082019050919050565b60006020820190508181036000830152615110816150d4565b9050919050565b600081519050919050565b600081905092915050565b600061513882615117565b6151428185615122565b9350615152818560208601614784565b80840191505092915050565b600061516a828461512d565b91508190509291505056fea2646970667358221220c7454c65e8045877760db8b6ae4da774fdadb14a8adc6a3d0c460d1a6fc5436064736f6c634300080e0033",
  "devdoc": {
    "kind": "dev",
    "methods": {
      "burnKreskoAsset(address,address,uint256,uint256)": {
        "params": {
          "_account": "The address to burn kresko assets for",
          "_burnAmount": "The amount of the Kresko asset to be burned.",
          "_kreskoAsset": "The address of the Kresko asset.",
          "_mintedKreskoAssetIndex": "The index of the collateral asset in the user's minted assets array."
        }
      },
      "depositCollateral(address,address,uint256)": {
        "params": {
          "_account": "The user to deposit collateral for.",
          "_amount": "The amount of the collateral asset to deposit.",
          "_collateralAsset": "The address of the collateral asset."
        }
      },
      "mintKreskoAsset(address,address,uint256)": {
        "params": {
          "_account": "The address to mint assets for.",
          "_amount": "The amount of the Kresko asset to be minted.",
          "_kreskoAsset": "The address of the Kresko asset."
        }
      },
      "withdrawCollateral(address,address,uint256,uint256)": {
        "details": "Requires the post-withdrawal collateral value to violate minimum collateral requirement.",
        "params": {
          "_account": "The address to withdraw assets for.",
          "_amount": "The amount of the collateral asset to withdraw.",
          "_collateralAsset": "The address of the collateral asset.",
          "_depositedCollateralAssetIndex": "The index of the collateral asset in the sender's deposited collateral assets array. Only needed if withdrawing the entire deposit of a particular collateral asset."
        }
      }
    },
    "version": 1
  },
  "userdoc": {
    "kind": "user",
    "methods": {
      "burnKreskoAsset(address,address,uint256,uint256)": {
        "notice": "Burns existing Kresko assets.Only needed if withdrawing the entire deposit of a particular collateral asset."
      },
      "depositCollateral(address,address,uint256)": {
        "notice": "Deposits collateral into the protocol."
      },
      "mintKreskoAsset(address,address,uint256)": {
        "notice": "Mints new Kresko assets."
      },
      "withdrawCollateral(address,address,uint256,uint256)": {
        "notice": "Withdraws sender's collateral from the protocol."
      }
    },
    "version": 1
  },
  "storageLayout": {
    "storage": [],
    "types": null
  }
}