{
  "address": "0x1A63931A93CC063BE2B0A6Dc068a38B2f01aB34E",
  "abi": [
    {
      "inputs": [
        {
          "internalType": "contract KreskoAsset",
          "name": "_asset",
          "type": "address"
        }
      ],
      "stateMutability": "payable",
      "type": "constructor"
    },
    {
      "anonymous": false,
      "inputs": [
        {
          "indexed": true,
          "internalType": "address",
          "name": "owner",
          "type": "address"
        },
        {
          "indexed": true,
          "internalType": "address",
          "name": "spender",
          "type": "address"
        },
        {
          "indexed": false,
          "internalType": "uint256",
          "name": "amount",
          "type": "uint256"
        }
      ],
      "name": "Approval",
      "type": "event"
    },
    {
      "anonymous": false,
      "inputs": [
        {
          "indexed": true,
          "internalType": "address",
          "name": "caller",
          "type": "address"
        },
        {
          "indexed": true,
          "internalType": "address",
          "name": "owner",
          "type": "address"
        },
        {
          "indexed": false,
          "internalType": "uint256",
          "name": "assets",
          "type": "uint256"
        },
        {
          "indexed": false,
          "internalType": "uint256",
          "name": "shares",
          "type": "uint256"
        }
      ],
      "name": "Deposit",
      "type": "event"
    },
    {
      "anonymous": false,
      "inputs": [
        {
          "indexed": true,
          "internalType": "address",
          "name": "caller",
          "type": "address"
        },
        {
          "indexed": true,
          "internalType": "address",
          "name": "receiver",
          "type": "address"
        },
        {
          "indexed": true,
          "internalType": "address",
          "name": "owner",
          "type": "address"
        },
        {
          "indexed": false,
          "internalType": "uint256",
          "name": "assets",
          "type": "uint256"
        },
        {
          "indexed": false,
          "internalType": "uint256",
          "name": "shares",
          "type": "uint256"
        }
      ],
      "name": "Destroy",
      "type": "event"
    },
    {
      "anonymous": false,
      "inputs": [
        {
          "indexed": false,
          "internalType": "uint8",
          "name": "version",
          "type": "uint8"
        }
      ],
      "name": "Initialized",
      "type": "event"
    },
    {
      "anonymous": false,
      "inputs": [
        {
          "indexed": true,
          "internalType": "address",
          "name": "caller",
          "type": "address"
        },
        {
          "indexed": true,
          "internalType": "address",
          "name": "owner",
          "type": "address"
        },
        {
          "indexed": false,
          "internalType": "uint256",
          "name": "assets",
          "type": "uint256"
        },
        {
          "indexed": false,
          "internalType": "uint256",
          "name": "shares",
          "type": "uint256"
        }
      ],
      "name": "Issue",
      "type": "event"
    },
    {
      "anonymous": false,
      "inputs": [
        {
          "indexed": true,
          "internalType": "bytes32",
          "name": "role",
          "type": "bytes32"
        },
        {
          "indexed": true,
          "internalType": "bytes32",
          "name": "previousAdminRole",
          "type": "bytes32"
        },
        {
          "indexed": true,
          "internalType": "bytes32",
          "name": "newAdminRole",
          "type": "bytes32"
        }
      ],
      "name": "RoleAdminChanged",
      "type": "event"
    },
    {
      "anonymous": false,
      "inputs": [
        {
          "indexed": true,
          "internalType": "bytes32",
          "name": "role",
          "type": "bytes32"
        },
        {
          "indexed": true,
          "internalType": "address",
          "name": "account",
          "type": "address"
        },
        {
          "indexed": true,
          "internalType": "address",
          "name": "sender",
          "type": "address"
        }
      ],
      "name": "RoleGranted",
      "type": "event"
    },
    {
      "anonymous": false,
      "inputs": [
        {
          "indexed": true,
          "internalType": "bytes32",
          "name": "role",
          "type": "bytes32"
        },
        {
          "indexed": true,
          "internalType": "address",
          "name": "account",
          "type": "address"
        },
        {
          "indexed": true,
          "internalType": "address",
          "name": "sender",
          "type": "address"
        }
      ],
      "name": "RoleRevoked",
      "type": "event"
    },
    {
      "anonymous": false,
      "inputs": [
        {
          "indexed": true,
          "internalType": "address",
          "name": "from",
          "type": "address"
        },
        {
          "indexed": true,
          "internalType": "address",
          "name": "to",
          "type": "address"
        },
        {
          "indexed": false,
          "internalType": "uint256",
          "name": "amount",
          "type": "uint256"
        }
      ],
      "name": "Transfer",
      "type": "event"
    },
    {
      "anonymous": false,
      "inputs": [
        {
          "indexed": true,
          "internalType": "address",
          "name": "caller",
          "type": "address"
        },
        {
          "indexed": true,
          "internalType": "address",
          "name": "receiver",
          "type": "address"
        },
        {
          "indexed": true,
          "internalType": "address",
          "name": "owner",
          "type": "address"
        },
        {
          "indexed": false,
          "internalType": "uint256",
          "name": "assets",
          "type": "uint256"
        },
        {
          "indexed": false,
          "internalType": "uint256",
          "name": "shares",
          "type": "uint256"
        }
      ],
      "name": "Withdraw",
      "type": "event"
    },
    {
      "inputs": [],
      "name": "DEFAULT_ADMIN_ROLE",
      "outputs": [
        {
          "internalType": "bytes32",
          "name": "",
          "type": "bytes32"
        }
      ],
      "stateMutability": "view",
      "type": "function"
    },
    {
      "inputs": [],
      "name": "DOMAIN_SEPARATOR",
      "outputs": [
        {
          "internalType": "bytes32",
          "name": "",
          "type": "bytes32"
        }
      ],
      "stateMutability": "view",
      "type": "function"
    },
    {
      "inputs": [
        {
          "internalType": "address",
          "name": "_owner",
          "type": "address"
        },
        {
          "internalType": "address",
          "name": "_spender",
          "type": "address"
        }
      ],
      "name": "allowance",
      "outputs": [
        {
          "internalType": "uint256",
          "name": "",
          "type": "uint256"
        }
      ],
      "stateMutability": "view",
      "type": "function"
    },
    {
      "inputs": [
        {
          "internalType": "address",
          "name": "spender",
          "type": "address"
        },
        {
          "internalType": "uint256",
          "name": "amount",
          "type": "uint256"
        }
      ],
      "name": "approve",
      "outputs": [
        {
          "internalType": "bool",
          "name": "",
          "type": "bool"
        }
      ],
      "stateMutability": "nonpayable",
      "type": "function"
    },
    {
      "inputs": [],
      "name": "asset",
      "outputs": [
        {
          "internalType": "contract KreskoAsset",
          "name": "",
          "type": "address"
        }
      ],
      "stateMutability": "view",
      "type": "function"
    },
    {
      "inputs": [
        {
          "internalType": "address",
          "name": "_account",
          "type": "address"
        }
      ],
      "name": "balanceOf",
      "outputs": [
        {
          "internalType": "uint256",
          "name": "",
          "type": "uint256"
        }
      ],
      "stateMutability": "view",
      "type": "function"
    },
    {
      "inputs": [
        {
          "internalType": "uint256",
          "name": "shares",
          "type": "uint256"
        }
      ],
      "name": "convertToAssets",
      "outputs": [
        {
          "internalType": "uint256",
          "name": "",
          "type": "uint256"
        }
      ],
      "stateMutability": "view",
      "type": "function"
    },
    {
      "inputs": [
        {
          "internalType": "uint256",
          "name": "assets",
          "type": "uint256"
        }
      ],
      "name": "convertToShares",
      "outputs": [
        {
          "internalType": "uint256",
          "name": "",
          "type": "uint256"
        }
      ],
      "stateMutability": "view",
      "type": "function"
    },
    {
      "inputs": [],
      "name": "decimals",
      "outputs": [
        {
          "internalType": "uint8",
          "name": "",
          "type": "uint8"
        }
      ],
      "stateMutability": "view",
      "type": "function"
    },
    {
      "inputs": [
        {
          "internalType": "uint256",
          "name": "assets",
          "type": "uint256"
        },
        {
          "internalType": "address",
          "name": "receiver",
          "type": "address"
        }
      ],
      "name": "deposit",
      "outputs": [
        {
          "internalType": "uint256",
          "name": "shares",
          "type": "uint256"
        }
      ],
      "stateMutability": "nonpayable",
      "type": "function"
    },
    {
      "inputs": [
        {
          "internalType": "uint256",
          "name": "_assets",
          "type": "uint256"
        },
        {
          "internalType": "address",
          "name": "_from",
          "type": "address"
        }
      ],
      "name": "destroy",
      "outputs": [
        {
          "internalType": "uint256",
          "name": "shares",
          "type": "uint256"
        }
      ],
      "stateMutability": "nonpayable",
      "type": "function"
    },
    {
      "inputs": [
        {
          "internalType": "bytes32",
          "name": "role",
          "type": "bytes32"
        }
      ],
      "name": "getRoleAdmin",
      "outputs": [
        {
          "internalType": "bytes32",
          "name": "",
          "type": "bytes32"
        }
      ],
      "stateMutability": "view",
      "type": "function"
    },
    {
      "inputs": [
        {
          "internalType": "bytes32",
          "name": "role",
          "type": "bytes32"
        },
        {
          "internalType": "uint256",
          "name": "index",
          "type": "uint256"
        }
      ],
      "name": "getRoleMember",
      "outputs": [
        {
          "internalType": "address",
          "name": "",
          "type": "address"
        }
      ],
      "stateMutability": "view",
      "type": "function"
    },
    {
      "inputs": [
        {
          "internalType": "bytes32",
          "name": "role",
          "type": "bytes32"
        }
      ],
      "name": "getRoleMemberCount",
      "outputs": [
        {
          "internalType": "uint256",
          "name": "",
          "type": "uint256"
        }
      ],
      "stateMutability": "view",
      "type": "function"
    },
    {
      "inputs": [
        {
          "internalType": "bytes32",
          "name": "role",
          "type": "bytes32"
        },
        {
          "internalType": "address",
          "name": "account",
          "type": "address"
        }
      ],
      "name": "grantRole",
      "outputs": [],
      "stateMutability": "nonpayable",
      "type": "function"
    },
    {
      "inputs": [
        {
          "internalType": "bytes32",
          "name": "role",
          "type": "bytes32"
        },
        {
          "internalType": "address",
          "name": "account",
          "type": "address"
        }
      ],
      "name": "hasRole",
      "outputs": [
        {
          "internalType": "bool",
          "name": "",
          "type": "bool"
        }
      ],
      "stateMutability": "view",
      "type": "function"
    },
    {
      "inputs": [
        {
          "internalType": "contract KreskoAsset",
          "name": "_asset",
          "type": "address"
        },
        {
          "internalType": "string",
          "name": "_name",
          "type": "string"
        },
        {
          "internalType": "string",
          "name": "_symbol",
          "type": "string"
        },
        {
          "internalType": "address",
          "name": "_owner",
          "type": "address"
        }
      ],
      "name": "initialize",
      "outputs": [],
      "stateMutability": "nonpayable",
      "type": "function"
    },
    {
      "inputs": [
        {
          "internalType": "uint256",
          "name": "_assets",
          "type": "uint256"
        },
        {
          "internalType": "address",
          "name": "_to",
          "type": "address"
        }
      ],
      "name": "issue",
      "outputs": [
        {
          "internalType": "uint256",
          "name": "shares",
          "type": "uint256"
        }
      ],
      "stateMutability": "nonpayable",
      "type": "function"
    },
    {
      "inputs": [
        {
          "internalType": "address",
          "name": "",
          "type": "address"
        }
      ],
      "name": "maxDeposit",
      "outputs": [
        {
          "internalType": "uint256",
          "name": "",
          "type": "uint256"
        }
      ],
      "stateMutability": "view",
      "type": "function"
    },
    {
      "inputs": [
        {
          "internalType": "address",
          "name": "owner",
          "type": "address"
        }
      ],
      "name": "maxDestroy",
      "outputs": [
        {
          "internalType": "uint256",
          "name": "",
          "type": "uint256"
        }
      ],
      "stateMutability": "view",
      "type": "function"
    },
    {
      "inputs": [
        {
          "internalType": "address",
          "name": "",
          "type": "address"
        }
      ],
      "name": "maxIssue",
      "outputs": [
        {
          "internalType": "uint256",
          "name": "",
          "type": "uint256"
        }
      ],
      "stateMutability": "view",
      "type": "function"
    },
    {
      "inputs": [
        {
          "internalType": "address",
          "name": "",
          "type": "address"
        }
      ],
      "name": "maxMint",
      "outputs": [
        {
          "internalType": "uint256",
          "name": "",
          "type": "uint256"
        }
      ],
      "stateMutability": "view",
      "type": "function"
    },
    {
      "inputs": [
        {
          "internalType": "address",
          "name": "owner",
          "type": "address"
        }
      ],
      "name": "maxRedeem",
      "outputs": [
        {
          "internalType": "uint256",
          "name": "",
          "type": "uint256"
        }
      ],
      "stateMutability": "view",
      "type": "function"
    },
    {
      "inputs": [
        {
          "internalType": "address",
          "name": "owner",
          "type": "address"
        }
      ],
      "name": "maxWithdraw",
      "outputs": [
        {
          "internalType": "uint256",
          "name": "",
          "type": "uint256"
        }
      ],
      "stateMutability": "view",
      "type": "function"
    },
    {
      "inputs": [
        {
          "internalType": "uint256",
          "name": "shares",
          "type": "uint256"
        },
        {
          "internalType": "address",
          "name": "receiver",
          "type": "address"
        }
      ],
      "name": "mint",
      "outputs": [
        {
          "internalType": "uint256",
          "name": "assets",
          "type": "uint256"
        }
      ],
      "stateMutability": "nonpayable",
      "type": "function"
    },
    {
      "inputs": [],
      "name": "name",
      "outputs": [
        {
          "internalType": "string",
          "name": "",
          "type": "string"
        }
      ],
      "stateMutability": "view",
      "type": "function"
    },
    {
      "inputs": [
        {
          "internalType": "address",
          "name": "",
          "type": "address"
        }
      ],
      "name": "nonces",
      "outputs": [
        {
          "internalType": "uint256",
          "name": "",
          "type": "uint256"
        }
      ],
      "stateMutability": "view",
      "type": "function"
    },
    {
      "inputs": [
        {
          "internalType": "address",
          "name": "owner",
          "type": "address"
        },
        {
          "internalType": "address",
          "name": "spender",
          "type": "address"
        },
        {
          "internalType": "uint256",
          "name": "value",
          "type": "uint256"
        },
        {
          "internalType": "uint256",
          "name": "deadline",
          "type": "uint256"
        },
        {
          "internalType": "uint8",
          "name": "v",
          "type": "uint8"
        },
        {
          "internalType": "bytes32",
          "name": "r",
          "type": "bytes32"
        },
        {
          "internalType": "bytes32",
          "name": "s",
          "type": "bytes32"
        }
      ],
      "name": "permit",
      "outputs": [],
      "stateMutability": "nonpayable",
      "type": "function"
    },
    {
      "inputs": [
        {
          "internalType": "uint256",
          "name": "assets",
          "type": "uint256"
        }
      ],
      "name": "previewDeposit",
      "outputs": [
        {
          "internalType": "uint256",
          "name": "",
          "type": "uint256"
        }
      ],
      "stateMutability": "view",
      "type": "function"
    },
    {
      "inputs": [
        {
          "internalType": "uint256",
          "name": "shares",
          "type": "uint256"
        }
      ],
      "name": "previewDestroy",
      "outputs": [
        {
          "internalType": "uint256",
          "name": "",
          "type": "uint256"
        }
      ],
      "stateMutability": "view",
      "type": "function"
    },
    {
      "inputs": [
        {
          "internalType": "uint256",
          "name": "assets",
          "type": "uint256"
        }
      ],
      "name": "previewIssue",
      "outputs": [
        {
          "internalType": "uint256",
          "name": "",
          "type": "uint256"
        }
      ],
      "stateMutability": "view",
      "type": "function"
    },
    {
      "inputs": [
        {
          "internalType": "uint256",
          "name": "shares",
          "type": "uint256"
        }
      ],
      "name": "previewMint",
      "outputs": [
        {
          "internalType": "uint256",
          "name": "",
          "type": "uint256"
        }
      ],
      "stateMutability": "view",
      "type": "function"
    },
    {
      "inputs": [
        {
          "internalType": "uint256",
          "name": "shares",
          "type": "uint256"
        }
      ],
      "name": "previewRedeem",
      "outputs": [
        {
          "internalType": "uint256",
          "name": "",
          "type": "uint256"
        }
      ],
      "stateMutability": "view",
      "type": "function"
    },
    {
      "inputs": [
        {
          "internalType": "uint256",
          "name": "assets",
          "type": "uint256"
        }
      ],
      "name": "previewWithdraw",
      "outputs": [
        {
          "internalType": "uint256",
          "name": "",
          "type": "uint256"
        }
      ],
      "stateMutability": "view",
      "type": "function"
    },
    {
      "inputs": [
        {
          "internalType": "uint256",
          "name": "shares",
          "type": "uint256"
        },
        {
          "internalType": "address",
          "name": "receiver",
          "type": "address"
        },
        {
          "internalType": "address",
          "name": "owner",
          "type": "address"
        }
      ],
      "name": "redeem",
      "outputs": [
        {
          "internalType": "uint256",
          "name": "assets",
          "type": "uint256"
        }
      ],
      "stateMutability": "nonpayable",
      "type": "function"
    },
    {
      "inputs": [
        {
          "internalType": "bytes32",
          "name": "role",
          "type": "bytes32"
        },
        {
          "internalType": "address",
          "name": "account",
          "type": "address"
        }
      ],
      "name": "renounceRole",
      "outputs": [],
      "stateMutability": "nonpayable",
      "type": "function"
    },
    {
      "inputs": [
        {
          "internalType": "bytes32",
          "name": "role",
          "type": "bytes32"
        },
        {
          "internalType": "address",
          "name": "account",
          "type": "address"
        }
      ],
      "name": "revokeRole",
      "outputs": [],
      "stateMutability": "nonpayable",
      "type": "function"
    },
    {
      "inputs": [
        {
          "internalType": "bytes4",
          "name": "interfaceId",
          "type": "bytes4"
        }
      ],
      "name": "supportsInterface",
      "outputs": [
        {
          "internalType": "bool",
          "name": "",
          "type": "bool"
        }
      ],
      "stateMutability": "view",
      "type": "function"
    },
    {
      "inputs": [],
      "name": "symbol",
      "outputs": [
        {
          "internalType": "string",
          "name": "",
          "type": "string"
        }
      ],
      "stateMutability": "view",
      "type": "function"
    },
    {
      "inputs": [],
      "name": "totalAssets",
      "outputs": [
        {
          "internalType": "uint256",
          "name": "",
          "type": "uint256"
        }
      ],
      "stateMutability": "view",
      "type": "function"
    },
    {
      "inputs": [],
      "name": "totalSupply",
      "outputs": [
        {
          "internalType": "uint256",
          "name": "",
          "type": "uint256"
        }
      ],
      "stateMutability": "view",
      "type": "function"
    },
    {
      "inputs": [
        {
          "internalType": "address",
          "name": "to",
          "type": "address"
        },
        {
          "internalType": "uint256",
          "name": "amount",
          "type": "uint256"
        }
      ],
      "name": "transfer",
      "outputs": [
        {
          "internalType": "bool",
          "name": "",
          "type": "bool"
        }
      ],
      "stateMutability": "nonpayable",
      "type": "function"
    },
    {
      "inputs": [
        {
          "internalType": "address",
          "name": "from",
          "type": "address"
        },
        {
          "internalType": "address",
          "name": "to",
          "type": "address"
        },
        {
          "internalType": "uint256",
          "name": "amount",
          "type": "uint256"
        }
      ],
      "name": "transferFrom",
      "outputs": [
        {
          "internalType": "bool",
          "name": "",
          "type": "bool"
        }
      ],
      "stateMutability": "nonpayable",
      "type": "function"
    },
    {
      "inputs": [
        {
          "internalType": "string",
          "name": "_name",
          "type": "string"
        },
        {
          "internalType": "string",
          "name": "_symbol",
          "type": "string"
        },
        {
          "internalType": "uint8",
          "name": "_version",
          "type": "uint8"
        }
      ],
      "name": "updateMetaData",
      "outputs": [],
      "stateMutability": "nonpayable",
      "type": "function"
    },
    {
      "inputs": [
        {
          "internalType": "uint256",
          "name": "assets",
          "type": "uint256"
        },
        {
          "internalType": "address",
          "name": "receiver",
          "type": "address"
        },
        {
          "internalType": "address",
          "name": "owner",
          "type": "address"
        }
      ],
      "name": "withdraw",
      "outputs": [
        {
          "internalType": "uint256",
          "name": "shares",
          "type": "uint256"
        }
      ],
      "stateMutability": "nonpayable",
      "type": "function"
    }
  ],
  "transactionHash": "0xcbbbed7af6d88e62a5064eafcfade3bd1e0e50e0db33a98ef8a8ebfe5c7d31bb",
  "args": [
    "0xdE945BB222777d72F82d589Fa711Ba522A5FDec9"
  ],
  "numDeployments": 1,
  "solcInputHash": "83713c02c02640d2cd1e3b8340799402",
  "bytecode": "0x60e0604052604051620058c8380380620058c8833981810160405281019062000029919062000301565b8060008060019054906101000a900460ff161590508080156200005c5750600160008054906101000a900460ff1660ff16105b806200009857506200007930620001d060201b620025011760201c565b158015620000975750600160008054906101000a900460ff1660ff16145b5b620000da576040517f08c379a0000000000000000000000000000000000000000000000000000000008152600401620000d190620003ba565b60405180910390fd5b60016000806101000a81548160ff021916908360ff160217905550801562000118576001600060016101000a81548160ff0219169083151502179055505b466080818152505062000130620001f360201b60201c565b60a081815250508015620001935760008060016101000a81548160ff0219169083151502179055507f7f26b83ff96e1f2b6a682f133852f6798a09c465da95921460cefb384740249860016040516200018a919062000436565b60405180910390a15b508073ffffffffffffffffffffffffffffffffffffffff1660c08173ffffffffffffffffffffffffffffffffffffffff168152505050506200061f565b6000808273ffffffffffffffffffffffffffffffffffffffff163b119050919050565b60007f8b73c3c69bb8fe3d512ecc4cf759cc79239f7b179b0ffacaa9a75d522b39400f600160405162000227919062000562565b60405180910390207fc89efdaa54c0f20c7adf612882df0950f5a951637e0307cdcb4c672f298b8bc6463060405160200162000268959493929190620005c2565b60405160208183030381529060405280519060200120905090565b600080fd5b600073ffffffffffffffffffffffffffffffffffffffff82169050919050565b6000620002b58262000288565b9050919050565b6000620002c982620002a8565b9050919050565b620002db81620002bc565b8114620002e757600080fd5b50565b600081519050620002fb81620002d0565b92915050565b6000602082840312156200031a576200031962000283565b5b60006200032a84828501620002ea565b91505092915050565b600082825260208201905092915050565b7f496e697469616c697a61626c653a20636f6e747261637420697320616c72656160008201527f647920696e697469616c697a6564000000000000000000000000000000000000602082015250565b6000620003a2602e8362000333565b9150620003af8262000344565b604082019050919050565b60006020820190508181036000830152620003d58162000393565b9050919050565b6000819050919050565b600060ff82169050919050565b6000819050919050565b60006200041e620004186200041284620003dc565b620003f3565b620003e6565b9050919050565b6200043081620003fd565b82525050565b60006020820190506200044d600083018462000425565b92915050565b7f4e487b7100000000000000000000000000000000000000000000000000000000600052602260045260246000fd5b600060028204905060018216806200049b57607f821691505b602082108103620004b157620004b062000453565b5b50919050565b600081905092915050565b60008190508160005260206000209050919050565b60008154620004e68162000482565b620004f28186620004b7565b94506001821660008114620005105760018114620005225762000559565b60ff1983168652818601935062000559565b6200052d85620004c2565b60005b83811015620005515781548189015260018201915060208101905062000530565b838801955050505b50505092915050565b6000620005708284620004d7565b915081905092915050565b6000819050919050565b62000590816200057b565b82525050565b6000819050919050565b620005ab8162000596565b82525050565b620005bc81620002a8565b82525050565b600060a082019050620005d9600083018862000585565b620005e8602083018762000585565b620005f7604083018662000585565b620006066060830185620005a0565b620006156080830184620005b1565b9695505050505050565b60805160a05160c051615225620006a3600039600081816109f0015281816110fe015281816112af0152818161146e0152818161169801528181611c7501528181611f8f0152818161298101528181612b4b01528181612be001528181612f0e015281816130ce0152613163015260006110540152600061102001526152256000f3fe608060405234801561001057600080fd5b506004361061027f5760003560e01c80637ecebe001161015c578063b696a6ad116100ce578063ce96cb7711610087578063ce96cb77146108f4578063d505accf14610924578063d547741f14610940578063d905777e1461095c578063dd62ed3e1461098c578063ef8b30f7146109bc5761027f565b8063b696a6ad146107d4578063ba08765214610804578063c5c2c2c114610834578063c63d75b614610864578063c6e6f59214610894578063ca15c873146108c45761027f565b806395d89b411161012057806395d89b41146106ec578063a217fddf1461070a578063a3d2563d14610728578063a9059cbb14610744578063b3d7f6b914610774578063b460af94146107a45761027f565b80637ecebe00146105fc5780638dec3daa1461062c5780639010d07c1461065c57806391d148541461068c57806394bf804d146106bc5761027f565b80633644e515116101f5578063613d25bb116101b9578063613d25bb146104f057806361dcf1311461050c57806368f1da401461053c5780636e553f651461056c57806370a082311461059c57806371b74a99146105cc5761027f565b80633644e5151461043857806336568abe1461045657806338d52e0f14610472578063402d267d146104905780634cdad506146104c05761027f565b80630a28a477116102475780630a28a4771461035057806318160ddd1461038057806323b872dd1461039e578063248a9ca3146103ce5780632f2ff15d146103fe578063313ce5671461041a5761027f565b806301e1d1141461028457806301ffc9a7146102a257806306fdde03146102d257806307a2d13a146102f0578063095ea7b314610320575b600080fd5b61028c6109ec565b6040516102999190613c77565b60405180910390f35b6102bc60048036038101906102b79190613cfe565b610a82565b6040516102c99190613d46565b60405180910390f35b6102da610b7e565b6040516102e79190613dfa565b60405180910390f35b61030a60048036038101906103059190613e48565b610c0c565b6040516103179190613c77565b60405180910390f35b61033a60048036038101906103359190613ed3565b610c47565b6040516103479190613d46565b60405180910390f35b61036a60048036038101906103659190613e48565b610d39565b6040516103779190613c77565b60405180910390f35b610388610d74565b6040516103959190613c77565b60405180910390f35b6103b860048036038101906103b39190613f13565b610d7e565b6040516103c59190613d46565b60405180910390f35b6103e860048036038101906103e39190613f9c565b610fc8565b6040516103f59190613fd8565b60405180910390f35b61041860048036038101906104139190613ff3565b610fe8565b005b610422611009565b60405161042f919061404f565b60405180910390f35b61044061101c565b60405161044d9190613fd8565b60405180910390f35b610470600480360381019061046b9190613ff3565b611079565b005b61047a6110fc565b60405161048791906140c9565b60405180910390f35b6104aa60048036038101906104a591906140e4565b611120565b6040516104b79190613c77565b60405180910390f35b6104da60048036038101906104d59190613e48565b61114a565b6040516104e79190613c77565b60405180910390f35b61050a60048036038101906105059190614284565b61115c565b005b610526600480360381019061052191906140e4565b6113a1565b6040516105339190613c77565b60405180910390f35b61055660048036038101906105519190613e48565b6113cb565b6040516105639190613c77565b60405180910390f35b61058660048036038101906105819190614323565b6113dd565b6040516105939190613c77565b60405180910390f35b6105b660048036038101906105b191906140e4565b611534565b6040516105c39190613c77565b60405180910390f35b6105e660048036038101906105e19190613e48565b61157d565b6040516105f39190613c77565b60405180910390f35b610616600480360381019061061191906140e4565b61158f565b6040516106239190613c77565b60405180910390f35b61064660048036038101906106419190614323565b6115a7565b6040516106539190613c77565b60405180910390f35b61067660048036038101906106719190614363565b6115e9565b60405161068391906143b2565b60405180910390f35b6106a660048036038101906106a19190613ff3565b611618565b6040516106b39190613d46565b60405180910390f35b6106d660048036038101906106d19190614323565b611683565b6040516106e39190613c77565b60405180910390f35b6106f461175e565b6040516107019190613dfa565b60405180910390f35b6107126117ec565b60405161071f9190613fd8565b60405180910390f35b610742600480360381019061073d91906143f9565b6117f3565b005b61075e60048036038101906107599190613ed3565b611916565b60405161076b9190613d46565b60405180910390f35b61078e60048036038101906107899190613e48565b611a2a565b60405161079b9190613c77565b60405180910390f35b6107be60048036038101906107b99190614484565b611a65565b6040516107cb9190613c77565b60405180910390f35b6107ee60048036038101906107e99190614323565b611cc0565b6040516107fb9190613c77565b60405180910390f35b61081e60048036038101906108199190614484565b611d02565b60405161082b9190613c77565b60405180910390f35b61084e600480360381019061084991906140e4565b611fda565b60405161085b9190613c77565b60405180910390f35b61087e600480360381019061087991906140e4565b61202b565b60405161088b9190613c77565b60405180910390f35b6108ae60048036038101906108a99190613e48565b612055565b6040516108bb9190613c77565b60405180910390f35b6108de60048036038101906108d99190613f9c565b612090565b6040516108eb9190613c77565b60405180910390f35b61090e600480360381019061090991906140e4565b6120b4565b60405161091b9190613c77565b60405180910390f35b61093e600480360381019061093991906144d7565b612105565b005b61095a60048036038101906109559190613ff3565b6123fe565b005b610976600480360381019061097191906140e4565b61241f565b6040516109839190613c77565b60405180910390f35b6109a660048036038101906109a19190614579565b612468565b6040516109b39190613c77565b60405180910390f35b6109d660048036038101906109d19190613e48565b6124ef565b6040516109e39190613c77565b60405180910390f35b60007f000000000000000000000000000000000000000000000000000000000000000073ffffffffffffffffffffffffffffffffffffffff166318160ddd6040518163ffffffff1660e01b8152600401602060405180830381865afa158015610a59573d6000803e3d6000fd5b505050506040513d601f19601f82011682018060405250810190610a7d91906145ce565b905090565b600063ffffffff60e01b827bffffffffffffffffffffffffffffffffffffffffffffffffffffffff191614158015610b7757507f21df348f000000000000000000000000000000000000000000000000000000007bffffffffffffffffffffffffffffffffffffffffffffffffffffffff1916827bffffffffffffffffffffffffffffffffffffffffffffffffffffffff19161480610b4657506301ffc9a760e01b827bffffffffffffffffffffffffffffffffffffffffffffffffffffffff1916145b80610b7657506336372b0760e01b827bffffffffffffffffffffffffffffffffffffffffffffffffffffffff1916145b5b9050919050565b60018054610b8b9061462a565b80601f0160208091040260200160405190810160405280929190818152602001828054610bb79061462a565b8015610c045780601f10610bd957610100808354040283529160200191610c04565b820191906000526020600020905b815481529060010190602001808311610be757829003601f168201915b505050505081565b600080600454905060008114610c3d57610c38610c276109ec565b82856125249092919063ffffffff16565b610c3f565b825b915050919050565b600081600660003373ffffffffffffffffffffffffffffffffffffffff1673ffffffffffffffffffffffffffffffffffffffff16815260200190815260200160002060008573ffffffffffffffffffffffffffffffffffffffff1673ffffffffffffffffffffffffffffffffffffffff168152602001908152602001600020819055508273ffffffffffffffffffffffffffffffffffffffff163373ffffffffffffffffffffffffffffffffffffffff167f8c5be1e5ebec7d5bd14f71427d1e84f3dd0314c0f7b2291e5b200ac8c7c3b92584604051610d279190613c77565b60405180910390a36001905092915050565b600080600454905060008114610d6a57610d6581610d556109ec565b8561254c9092919063ffffffff16565b610d6c565b825b915050919050565b6000600454905090565b600080600660008673ffffffffffffffffffffffffffffffffffffffff1673ffffffffffffffffffffffffffffffffffffffff16815260200190815260200160002060003373ffffffffffffffffffffffffffffffffffffffff1673ffffffffffffffffffffffffffffffffffffffff1681526020019081526020016000205490507fffffffffffffffffffffffffffffffffffffffffffffffffffffffffffffffff8114610eb4578281610e33919061468a565b600660008773ffffffffffffffffffffffffffffffffffffffff1673ffffffffffffffffffffffffffffffffffffffff16815260200190815260200160002060003373ffffffffffffffffffffffffffffffffffffffff1673ffffffffffffffffffffffffffffffffffffffff168152602001908152602001600020819055505b82600560008773ffffffffffffffffffffffffffffffffffffffff1673ffffffffffffffffffffffffffffffffffffffff1681526020019081526020016000206000828254610f03919061468a565b9250508190555082600560008673ffffffffffffffffffffffffffffffffffffffff1673ffffffffffffffffffffffffffffffffffffffff168152602001908152602001600020600082825401925050819055508373ffffffffffffffffffffffffffffffffffffffff168573ffffffffffffffffffffffffffffffffffffffff167fddf252ad1be2c89b69c2b068fc378daa952ba7f163c4a11628f55a4df523b3ef85604051610fb49190613c77565b60405180910390a360019150509392505050565b6000606c6000838152602001908152602001600020600101549050919050565b610ff182610fc8565b610ffa8161257e565b6110048383612592565b505050565b600360009054906101000a900460ff1681565b60007f000000000000000000000000000000000000000000000000000000000000000046146110525761104d6125c6565b611074565b7f00000000000000000000000000000000000000000000000000000000000000005b905090565b611081612652565b73ffffffffffffffffffffffffffffffffffffffff168173ffffffffffffffffffffffffffffffffffffffff16146110ee576040517f08c379a00000000000000000000000000000000000000000000000000000000081526004016110e590614730565b60405180910390fd5b6110f8828261265a565b5050565b7f000000000000000000000000000000000000000000000000000000000000000081565b60007fffffffffffffffffffffffffffffffffffffffffffffffffffffffffffffffff9050919050565b600061115582610c0c565b9050919050565b60008060019054906101000a900460ff1615905080801561118d5750600160008054906101000a900460ff1660ff16105b806111ba575061119c30612501565b1580156111b95750600160008054906101000a900460ff1660ff16145b5b6111f9576040517f08c379a00000000000000000000000000000000000000000000000000000000081526004016111f0906147c2565b60405180910390fd5b60016000806101000a81548160ff021916908360ff1602179055508015611236576001600060016101000a81548160ff0219169083151502179055505b61124185858561268e565b61124961275b565b6112566000801b836127ac565b6112867f112e48a576fb3a75acc75d9fcf6e0bc670b27b1dbcd2463502e10e68cf57d6fd60001b6000801b6127ba565b6113417f112e48a576fb3a75acc75d9fcf6e0bc670b27b1dbcd2463502e10e68cf57d6fd60001b7f000000000000000000000000000000000000000000000000000000000000000073ffffffffffffffffffffffffffffffffffffffff1663d77e128c6040518163ffffffff1660e01b8152600401602060405180830381865afa158015611318573d6000803e3d6000fd5b505050506040513d601f19601f8201168201806040525081019061133c91906147f7565b6127ac565b801561139a5760008060016101000a81548160ff0219169083151502179055507f7f26b83ff96e1f2b6a682f133852f6798a09c465da95921460cefb38474024986001604051611391919061485f565b60405180910390a15b5050505050565b60007fffffffffffffffffffffffffffffffffffffffffffffffffffffffffffffffff9050919050565b60006113d682610c0c565b9050919050565b6000806113e9846124ef565b91508114156040518060400160405280600381526020017f353039000000000000000000000000000000000000000000000000000000000081525090611465576040517f08c379a000000000000000000000000000000000000000000000000000000000815260040161145c9190613dfa565b60405180910390fd5b506114b33330857f000000000000000000000000000000000000000000000000000000000000000073ffffffffffffffffffffffffffffffffffffffff16612816909392919063ffffffff16565b6114bd828261289f565b8173ffffffffffffffffffffffffffffffffffffffff163373ffffffffffffffffffffffffffffffffffffffff167fdcbc1c05240f31ff3ad067ef1ee35ce4997762752e3a095284754544f4c709d7858460405161151c92919061487a565b60405180910390a361152e838261296f565b92915050565b6000600560008373ffffffffffffffffffffffffffffffffffffffff1673ffffffffffffffffffffffffffffffffffffffff168152602001908152602001600020549050919050565b600061158882612055565b9050919050565b60076020528060005260406000206000915090505481565b60007f112e48a576fb3a75acc75d9fcf6e0bc670b27b1dbcd2463502e10e68cf57d6fd60001b6115d68161257e565b6115e0848461297d565b91505092915050565b600061161082609e6000868152602001908152602001600020612cef90919063ffffffff16565b905092915050565b6000606c600084815260200190815260200160002060000160008373ffffffffffffffffffffffffffffffffffffffff1673ffffffffffffffffffffffffffffffffffffffff16815260200190815260200160002060009054906101000a900460ff16905092915050565b600061168e83611a2a565b90506116dd3330837f000000000000000000000000000000000000000000000000000000000000000073ffffffffffffffffffffffffffffffffffffffff16612816909392919063ffffffff16565b6116e7828461289f565b8173ffffffffffffffffffffffffffffffffffffffff163373ffffffffffffffffffffffffffffffffffffffff167fdcbc1c05240f31ff3ad067ef1ee35ce4997762752e3a095284754544f4c709d7838660405161174692919061487a565b60405180910390a3611758818461296f565b92915050565b6002805461176b9061462a565b80601f01602080910402602001604051908101604052809291908181526020018280546117979061462a565b80156117e45780601f106117b9576101008083540402835291602001916117e4565b820191906000526020600020905b8154815290600101906020018083116117c757829003601f168201915b505050505081565b6000801b81565b6000801b6118008161257e565b81600060019054906101000a900460ff1615801561183057508060ff1660008054906101000a900460ff1660ff16105b61186f576040517f08c379a0000000000000000000000000000000000000000000000000000000008152600401611866906147c2565b60405180910390fd5b806000806101000a81548160ff021916908360ff1602179055506001600060016101000a81548160ff0219169083151502179055506118be8585600360009054906101000a900460ff16612d09565b60008060016101000a81548160ff0219169083151502179055507f7f26b83ff96e1f2b6a682f133852f6798a09c465da95921460cefb384740249881604051611907919061404f565b60405180910390a15050505050565b600081600560003373ffffffffffffffffffffffffffffffffffffffff1673ffffffffffffffffffffffffffffffffffffffff1681526020019081526020016000206000828254611967919061468a565b9250508190555081600560008573ffffffffffffffffffffffffffffffffffffffff1673ffffffffffffffffffffffffffffffffffffffff168152602001908152602001600020600082825401925050819055508273ffffffffffffffffffffffffffffffffffffffff163373ffffffffffffffffffffffffffffffffffffffff167fddf252ad1be2c89b69c2b068fc378daa952ba7f163c4a11628f55a4df523b3ef84604051611a189190613c77565b60405180910390a36001905092915050565b600080600454905060008114611a5b57611a56611a456109ec565b828561254c9092919063ffffffff16565b611a5d565b825b915050919050565b6000611a7084610d39565b90508173ffffffffffffffffffffffffffffffffffffffff163373ffffffffffffffffffffffffffffffffffffffff1614611bdc576000600660008473ffffffffffffffffffffffffffffffffffffffff1673ffffffffffffffffffffffffffffffffffffffff16815260200190815260200160002060003373ffffffffffffffffffffffffffffffffffffffff1673ffffffffffffffffffffffffffffffffffffffff1681526020019081526020016000205490507fffffffffffffffffffffffffffffffffffffffffffffffffffffffffffffffff8114611bda578181611b59919061468a565b600660008573ffffffffffffffffffffffffffffffffffffffff1673ffffffffffffffffffffffffffffffffffffffff16815260200190815260200160002060003373ffffffffffffffffffffffffffffffffffffffff1673ffffffffffffffffffffffffffffffffffffffff168152602001908152602001600020819055505b505b611be68482612da6565b611bf08282612db4565b8173ffffffffffffffffffffffffffffffffffffffff168373ffffffffffffffffffffffffffffffffffffffff163373ffffffffffffffffffffffffffffffffffffffff167ffbde797d201c681b91056529119e0b02407c7bb96a4a2c75c01fc9667232c8db8785604051611c6692919061487a565b60405180910390a4611cb983857f000000000000000000000000000000000000000000000000000000000000000073ffffffffffffffffffffffffffffffffffffffff16612e849092919063ffffffff16565b9392505050565b60007f112e48a576fb3a75acc75d9fcf6e0bc670b27b1dbcd2463502e10e68cf57d6fd60001b611cef8161257e565b611cf98484612f0a565b91505092915050565b60008173ffffffffffffffffffffffffffffffffffffffff163373ffffffffffffffffffffffffffffffffffffffff1614611e6e576000600660008473ffffffffffffffffffffffffffffffffffffffff1673ffffffffffffffffffffffffffffffffffffffff16815260200190815260200160002060003373ffffffffffffffffffffffffffffffffffffffff1673ffffffffffffffffffffffffffffffffffffffff1681526020019081526020016000205490507fffffffffffffffffffffffffffffffffffffffffffffffffffffffffffffffff8114611e6c578481611deb919061468a565b600660008573ffffffffffffffffffffffffffffffffffffffff1673ffffffffffffffffffffffffffffffffffffffff16815260200190815260200160002060003373ffffffffffffffffffffffffffffffffffffffff1673ffffffffffffffffffffffffffffffffffffffff168152602001908152602001600020819055505b505b6000611e798561114a565b91508114156040518060400160405280600381526020017f353130000000000000000000000000000000000000000000000000000000000081525090611ef5576040517f08c379a0000000000000000000000000000000000000000000000000000000008152600401611eec9190613dfa565b60405180910390fd5b50611f008185612da6565b611f0a8285612db4565b8173ffffffffffffffffffffffffffffffffffffffff168373ffffffffffffffffffffffffffffffffffffffff163373ffffffffffffffffffffffffffffffffffffffff167ffbde797d201c681b91056529119e0b02407c7bb96a4a2c75c01fc9667232c8db8488604051611f8092919061487a565b60405180910390a4611fd383827f000000000000000000000000000000000000000000000000000000000000000073ffffffffffffffffffffffffffffffffffffffff16612e849092919063ffffffff16565b9392505050565b6000612024600560008473ffffffffffffffffffffffffffffffffffffffff1673ffffffffffffffffffffffffffffffffffffffff16815260200190815260200160002054610c0c565b9050919050565b60007fffffffffffffffffffffffffffffffffffffffffffffffffffffffffffffffff9050919050565b60008060045490506000811461208657612081816120716109ec565b856125249092919063ffffffff16565b612088565b825b915050919050565b60006120ad609e6000848152602001908152602001600020613265565b9050919050565b60006120fe600560008473ffffffffffffffffffffffffffffffffffffffff1673ffffffffffffffffffffffffffffffffffffffff16815260200190815260200160002054610c0c565b9050919050565b42841015612148576040517f08c379a000000000000000000000000000000000000000000000000000000000815260040161213f906148ef565b60405180910390fd5b6000600161215461101c565b7f6e71edae12b1b97f4d1f60370fef10105fa2faae0126114a169c64845d6126c98a8a8a600760008f73ffffffffffffffffffffffffffffffffffffffff1673ffffffffffffffffffffffffffffffffffffffff1681526020019081526020016000206000815480929190600101919050558b6040516020016121dc9695949392919061490f565b604051602081830303815290604052805190602001206040516020016122039291906149e8565b60405160208183030381529060405280519060200120858585604051600081526020016040526040516122399493929190614a1f565b6020604051602081039080840390855afa15801561225b573d6000803e3d6000fd5b505050602060405103519050600073ffffffffffffffffffffffffffffffffffffffff168173ffffffffffffffffffffffffffffffffffffffff16141580156122cf57508773ffffffffffffffffffffffffffffffffffffffff168173ffffffffffffffffffffffffffffffffffffffff16145b61230e576040517f08c379a000000000000000000000000000000000000000000000000000000000815260040161230590614ab0565b60405180910390fd5b85600660008373ffffffffffffffffffffffffffffffffffffffff1673ffffffffffffffffffffffffffffffffffffffff16815260200190815260200160002060008973ffffffffffffffffffffffffffffffffffffffff1673ffffffffffffffffffffffffffffffffffffffff16815260200190815260200160002081905550508573ffffffffffffffffffffffffffffffffffffffff168773ffffffffffffffffffffffffffffffffffffffff167f8c5be1e5ebec7d5bd14f71427d1e84f3dd0314c0f7b2291e5b200ac8c7c3b925876040516123ed9190613c77565b60405180910390a350505050505050565b61240782610fc8565b6124108161257e565b61241a838361265a565b505050565b6000600560008373ffffffffffffffffffffffffffffffffffffffff1673ffffffffffffffffffffffffffffffffffffffff168152602001908152602001600020549050919050565b6000600660008473ffffffffffffffffffffffffffffffffffffffff1673ffffffffffffffffffffffffffffffffffffffff16815260200190815260200160002060008373ffffffffffffffffffffffffffffffffffffffff1673ffffffffffffffffffffffffffffffffffffffff16815260200190815260200160002054905092915050565b60006124fa82612055565b9050919050565b6000808273ffffffffffffffffffffffffffffffffffffffff163b119050919050565b6000828402905082848204148415178215151661254057600080fd5b81810490509392505050565b6000828402905082848204148415178215151661256857600080fd5b6001826001830304018115150290509392505050565b61258f8161258a612652565b61327a565b50565b61259c8282613317565b6125c181609e60008581526020019081526020016000206133f890919063ffffffff16565b505050565b60007f8b73c3c69bb8fe3d512ecc4cf759cc79239f7b179b0ffacaa9a75d522b39400f60016040516125f89190614b6f565b60405180910390207fc89efdaa54c0f20c7adf612882df0950f5a951637e0307cdcb4c672f298b8bc64630604051602001612637959493929190614b86565b60405160208183030381529060405280519060200120905090565b600033905090565b6126648282613428565b61268981609e600085815260200190815260200160002061350a90919063ffffffff16565b505050565b600060019054906101000a900460ff166126dd576040517f08c379a00000000000000000000000000000000000000000000000000000000081526004016126d490614c4b565b60405180910390fd5b61275682828573ffffffffffffffffffffffffffffffffffffffff1663313ce5676040518163ffffffff1660e01b8152600401602060405180830381865afa15801561272d573d6000803e3d6000fd5b505050506040513d601f19601f820116820180604052508101906127519190614c80565b612d09565b505050565b600060019054906101000a900460ff166127aa576040517f08c379a00000000000000000000000000000000000000000000000000000000081526004016127a190614c4b565b60405180910390fd5b565b6127b68282612592565b5050565b60006127c583610fc8565b905081606c6000858152602001908152602001600020600101819055508181847fbd79b86ffe0ab8e8776151514217cd7cacd52c909f66475c3af44e129f0b00ff60405160405180910390a4505050565b612899846323b872dd60e01b85858560405160240161283793929190614cad565b604051602081830303815290604052907bffffffffffffffffffffffffffffffffffffffffffffffffffffffff19166020820180517bffffffffffffffffffffffffffffffffffffffffffffffffffffffff838183161783525050505061353a565b50505050565b80600460008282546128b19190614ce4565b9250508190555080600560008473ffffffffffffffffffffffffffffffffffffffff1673ffffffffffffffffffffffffffffffffffffffff168152602001908152602001600020600082825401925050819055508173ffffffffffffffffffffffffffffffffffffffff16600073ffffffffffffffffffffffffffffffffffffffff167fddf252ad1be2c89b69c2b068fc378daa952ba7f163c4a11628f55a4df523b3ef836040516129639190613c77565b60405180910390a35050565b6129798282613601565b5050565b60007f000000000000000000000000000000000000000000000000000000000000000073ffffffffffffffffffffffffffffffffffffffff1663d77e128c6040518163ffffffff1660e01b8152600401602060405180830381865afa1580156129ea573d6000803e3d6000fd5b505050506040513d601f19601f82011682018060405250810190612a0e91906147f7565b73ffffffffffffffffffffffffffffffffffffffff163373ffffffffffffffffffffffffffffffffffffffff16146040518060400160405280600381526020017f353032000000000000000000000000000000000000000000000000000000000081525090612ab3576040517f08c379a0000000000000000000000000000000000000000000000000000000008152600401612aaa9190613dfa565b60405180910390fd5b506000612abf8461157d565b91508114156040518060400160405280600381526020017f353039000000000000000000000000000000000000000000000000000000000081525090612b3b576040517f08c379a0000000000000000000000000000000000000000000000000000000008152600401612b329190613dfa565b60405180910390fd5b50612b468382612da6565b612bde7f000000000000000000000000000000000000000000000000000000000000000073ffffffffffffffffffffffffffffffffffffffff1663d77e128c6040518163ffffffff1660e01b8152600401602060405180830381865afa158015612bb4573d6000803e3d6000fd5b505050506040513d601f19601f82011682018060405250810190612bd891906147f7565b82612db4565b7f000000000000000000000000000000000000000000000000000000000000000073ffffffffffffffffffffffffffffffffffffffff16639dc29fac83856040518363ffffffff1660e01b8152600401612c39929190614d3a565b600060405180830381600087803b158015612c5357600080fd5b505af1158015612c67573d6000803e3d6000fd5b505050508173ffffffffffffffffffffffffffffffffffffffff168273ffffffffffffffffffffffffffffffffffffffff163373ffffffffffffffffffffffffffffffffffffffff167f3eb24e72927b5ff2af5337115f9c45aba5958fd34fdbd42177b035e6e34bcf698685604051612ce192919061487a565b60405180910390a492915050565b6000612cfe8360000183613605565b60001c905092915050565b600060019054906101000a900460ff16612d58576040517f08c379a0000000000000000000000000000000000000000000000000000000008152600401612d4f90614c4b565b60405180910390fd5b8260019080519060200190612d6e929190613bbb565b508160029080519060200190612d85929190613bbb565b5080600360006101000a81548160ff021916908360ff160217905550505050565b612db08282613630565b5050565b80600560008473ffffffffffffffffffffffffffffffffffffffff1673ffffffffffffffffffffffffffffffffffffffff1681526020019081526020016000206000828254612e03919061468a565b9250508190555080600460008282540392505081905550600073ffffffffffffffffffffffffffffffffffffffff168273ffffffffffffffffffffffffffffffffffffffff167fddf252ad1be2c89b69c2b068fc378daa952ba7f163c4a11628f55a4df523b3ef83604051612e789190613c77565b60405180910390a35050565b612f058363a9059cbb60e01b8484604051602401612ea3929190614d3a565b604051602081830303815290604052907bffffffffffffffffffffffffffffffffffffffffffffffffffffffff19166020820180517bffffffffffffffffffffffffffffffffffffffffffffffffffffffff838183161783525050505061353a565b505050565b60007f000000000000000000000000000000000000000000000000000000000000000073ffffffffffffffffffffffffffffffffffffffff1663d77e128c6040518163ffffffff1660e01b8152600401602060405180830381865afa158015612f77573d6000803e3d6000fd5b505050506040513d601f19601f82011682018060405250810190612f9b91906147f7565b73ffffffffffffffffffffffffffffffffffffffff163373ffffffffffffffffffffffffffffffffffffffff16146040518060400160405280600381526020017f353031000000000000000000000000000000000000000000000000000000000081525090613040576040517f08c379a00000000000000000000000000000000000000000000000000000000081526004016130379190613dfa565b60405180910390fd5b50600061304c8461157d565b91508114156040518060400160405280600381526020017f3530390000000000000000000000000000000000000000000000000000000000815250906130c8576040517f08c379a00000000000000000000000000000000000000000000000000000000081526004016130bf9190613dfa565b60405180910390fd5b506131617f000000000000000000000000000000000000000000000000000000000000000073ffffffffffffffffffffffffffffffffffffffff1663d77e128c6040518163ffffffff1660e01b8152600401602060405180830381865afa158015613137573d6000803e3d6000fd5b505050506040513d601f19601f8201168201806040525081019061315b91906147f7565b8261289f565b7f000000000000000000000000000000000000000000000000000000000000000073ffffffffffffffffffffffffffffffffffffffff166340c10f1983856040518363ffffffff1660e01b81526004016131bc929190614d3a565b600060405180830381600087803b1580156131d657600080fd5b505af11580156131ea573d6000803e3d6000fd5b505050508173ffffffffffffffffffffffffffffffffffffffff163373ffffffffffffffffffffffffffffffffffffffff167fca1340aac4caf2122faa48803f9cafe2fca0c643e9c0cc5e876d0f7c436b7ab2858460405161324d92919061487a565b60405180910390a361325f838261296f565b92915050565b600061327382600001613634565b9050919050565b6132848282611618565b613313576132a98173ffffffffffffffffffffffffffffffffffffffff166014613645565b6132b78360001c6020613645565b6040516020016132c8929190614e2c565b6040516020818303038152906040526040517f08c379a000000000000000000000000000000000000000000000000000000000815260040161330a9190613dfa565b60405180910390fd5b5050565b6133218282611618565b6133f4576001606c600084815260200190815260200160002060000160008373ffffffffffffffffffffffffffffffffffffffff1673ffffffffffffffffffffffffffffffffffffffff16815260200190815260200160002060006101000a81548160ff021916908315150217905550613399612652565b73ffffffffffffffffffffffffffffffffffffffff168173ffffffffffffffffffffffffffffffffffffffff16837f2f8788117e7eff1d82e926ec794901d17c78024a50270940304540a733656f0d60405160405180910390a45b5050565b6000613420836000018373ffffffffffffffffffffffffffffffffffffffff1660001b613881565b905092915050565b6134328282611618565b15613506576000606c600084815260200190815260200160002060000160008373ffffffffffffffffffffffffffffffffffffffff1673ffffffffffffffffffffffffffffffffffffffff16815260200190815260200160002060006101000a81548160ff0219169083151502179055506134ab612652565b73ffffffffffffffffffffffffffffffffffffffff168173ffffffffffffffffffffffffffffffffffffffff16837ff6391f5c32d9c69d2a47ea670b442974b53935d1edc7fd64eb21e047a839171b60405160405180910390a45b5050565b6000613532836000018373ffffffffffffffffffffffffffffffffffffffff1660001b6138f1565b905092915050565b600061359c826040518060400160405280602081526020017f5361666545524332303a206c6f772d6c6576656c2063616c6c206661696c65648152508573ffffffffffffffffffffffffffffffffffffffff16613a059092919063ffffffff16565b90506000815111156135fc57808060200190518101906135bc9190614e92565b6135fb576040517f08c379a00000000000000000000000000000000000000000000000000000000081526004016135f290614f31565b60405180910390fd5b5b505050565b5050565b600082600001828154811061361d5761361c614f51565b5b9060005260206000200154905092915050565b5050565b600081600001805490509050919050565b6060600060028360026136589190614f80565b6136629190614ce4565b67ffffffffffffffff81111561367b5761367a614159565b5b6040519080825280601f01601f1916602001820160405280156136ad5781602001600182028036833780820191505090505b5090507f3000000000000000000000000000000000000000000000000000000000000000816000815181106136e5576136e4614f51565b5b60200101907effffffffffffffffffffffffffffffffffffffffffffffffffffffffffffff1916908160001a9053507f78000000000000000000000000000000000000000000000000000000000000008160018151811061374957613748614f51565b5b60200101907effffffffffffffffffffffffffffffffffffffffffffffffffffffffffffff1916908160001a905350600060018460026137899190614f80565b6137939190614ce4565b90505b6001811115613833577f3031323334353637383961626364656600000000000000000000000000000000600f8616601081106137d5576137d4614f51565b5b1a60f81b8282815181106137ec576137eb614f51565b5b60200101907effffffffffffffffffffffffffffffffffffffffffffffffffffffffffffff1916908160001a905350600485901c94508061382c90614fda565b9050613796565b5060008414613877576040517f08c379a000000000000000000000000000000000000000000000000000000000815260040161386e9061504f565b60405180910390fd5b8091505092915050565b600061388d8383613a1d565b6138e65782600001829080600181540180825580915050600190039060005260206000200160009091909190915055826000018054905083600101600084815260200190815260200160002081905550600190506138eb565b600090505b92915050565b600080836001016000848152602001908152602001600020549050600081146139f9576000600182613923919061468a565b905060006001866000018054905061393b919061468a565b90508181146139aa57600086600001828154811061395c5761395b614f51565b5b90600052602060002001549050808760000184815481106139805761397f614f51565b5b90600052602060002001819055508387600101600083815260200190815260200160002081905550505b856000018054806139be576139bd61506f565b5b6001900381819060005260206000200160009055905585600101600086815260200190815260200160002060009055600193505050506139ff565b60009150505b92915050565b6060613a148484600085613a40565b90509392505050565b600080836001016000848152602001908152602001600020541415905092915050565b606082471015613a85576040517f08c379a0000000000000000000000000000000000000000000000000000000008152600401613a7c90615110565b60405180910390fd5b613a8e85612501565b613acd576040517f08c379a0000000000000000000000000000000000000000000000000000000008152600401613ac49061517c565b60405180910390fd5b6000808673ffffffffffffffffffffffffffffffffffffffff168587604051613af691906151d8565b60006040518083038185875af1925050503d8060008114613b33576040519150601f19603f3d011682016040523d82523d6000602084013e613b38565b606091505b5091509150613b48828286613b54565b92505050949350505050565b60608315613b6457829050613bb4565b600083511115613b775782518084602001fd5b816040517f08c379a0000000000000000000000000000000000000000000000000000000008152600401613bab9190613dfa565b60405180910390fd5b9392505050565b828054613bc79061462a565b90600052602060002090601f016020900481019282613be95760008555613c30565b82601f10613c0257805160ff1916838001178555613c30565b82800160010185558215613c30579182015b82811115613c2f578251825591602001919060010190613c14565b5b509050613c3d9190613c41565b5090565b5b80821115613c5a576000816000905550600101613c42565b5090565b6000819050919050565b613c7181613c5e565b82525050565b6000602082019050613c8c6000830184613c68565b92915050565b6000604051905090565b600080fd5b600080fd5b60007fffffffff0000000000000000000000000000000000000000000000000000000082169050919050565b613cdb81613ca6565b8114613ce657600080fd5b50565b600081359050613cf881613cd2565b92915050565b600060208284031215613d1457613d13613c9c565b5b6000613d2284828501613ce9565b91505092915050565b60008115159050919050565b613d4081613d2b565b82525050565b6000602082019050613d5b6000830184613d37565b92915050565b600081519050919050565b600082825260208201905092915050565b60005b83811015613d9b578082015181840152602081019050613d80565b83811115613daa576000848401525b50505050565b6000601f19601f8301169050919050565b6000613dcc82613d61565b613dd68185613d6c565b9350613de6818560208601613d7d565b613def81613db0565b840191505092915050565b60006020820190508181036000830152613e148184613dc1565b905092915050565b613e2581613c5e565b8114613e3057600080fd5b50565b600081359050613e4281613e1c565b92915050565b600060208284031215613e5e57613e5d613c9c565b5b6000613e6c84828501613e33565b91505092915050565b600073ffffffffffffffffffffffffffffffffffffffff82169050919050565b6000613ea082613e75565b9050919050565b613eb081613e95565b8114613ebb57600080fd5b50565b600081359050613ecd81613ea7565b92915050565b60008060408385031215613eea57613ee9613c9c565b5b6000613ef885828601613ebe565b9250506020613f0985828601613e33565b9150509250929050565b600080600060608486031215613f2c57613f2b613c9c565b5b6000613f3a86828701613ebe565b9350506020613f4b86828701613ebe565b9250506040613f5c86828701613e33565b9150509250925092565b6000819050919050565b613f7981613f66565b8114613f8457600080fd5b50565b600081359050613f9681613f70565b92915050565b600060208284031215613fb257613fb1613c9c565b5b6000613fc084828501613f87565b91505092915050565b613fd281613f66565b82525050565b6000602082019050613fed6000830184613fc9565b92915050565b6000806040838503121561400a57614009613c9c565b5b600061401885828601613f87565b925050602061402985828601613ebe565b9150509250929050565b600060ff82169050919050565b61404981614033565b82525050565b60006020820190506140646000830184614040565b92915050565b6000819050919050565b600061408f61408a61408584613e75565b61406a565b613e75565b9050919050565b60006140a182614074565b9050919050565b60006140b382614096565b9050919050565b6140c3816140a8565b82525050565b60006020820190506140de60008301846140ba565b92915050565b6000602082840312156140fa576140f9613c9c565b5b600061410884828501613ebe565b91505092915050565b600061411c82613e95565b9050919050565b61412c81614111565b811461413757600080fd5b50565b60008135905061414981614123565b92915050565b600080fd5b600080fd5b7f4e487b7100000000000000000000000000000000000000000000000000000000600052604160045260246000fd5b61419182613db0565b810181811067ffffffffffffffff821117156141b0576141af614159565b5b80604052505050565b60006141c3613c92565b90506141cf8282614188565b919050565b600067ffffffffffffffff8211156141ef576141ee614159565b5b6141f882613db0565b9050602081019050919050565b82818337600083830152505050565b6000614227614222846141d4565b6141b9565b90508281526020810184848401111561424357614242614154565b5b61424e848285614205565b509392505050565b600082601f83011261426b5761426a61414f565b5b813561427b848260208601614214565b91505092915050565b6000806000806080858703121561429e5761429d613c9c565b5b60006142ac8782880161413a565b945050602085013567ffffffffffffffff8111156142cd576142cc613ca1565b5b6142d987828801614256565b935050604085013567ffffffffffffffff8111156142fa576142f9613ca1565b5b61430687828801614256565b925050606061431787828801613ebe565b91505092959194509250565b6000806040838503121561433a57614339613c9c565b5b600061434885828601613e33565b925050602061435985828601613ebe565b9150509250929050565b6000806040838503121561437a57614379613c9c565b5b600061438885828601613f87565b925050602061439985828601613e33565b9150509250929050565b6143ac81613e95565b82525050565b60006020820190506143c760008301846143a3565b92915050565b6143d681614033565b81146143e157600080fd5b50565b6000813590506143f3816143cd565b92915050565b60008060006060848603121561441257614411613c9c565b5b600084013567ffffffffffffffff8111156144305761442f613ca1565b5b61443c86828701614256565b935050602084013567ffffffffffffffff81111561445d5761445c613ca1565b5b61446986828701614256565b925050604061447a868287016143e4565b9150509250925092565b60008060006060848603121561449d5761449c613c9c565b5b60006144ab86828701613e33565b93505060206144bc86828701613ebe565b92505060406144cd86828701613ebe565b9150509250925092565b600080600080600080600060e0888a0312156144f6576144f5613c9c565b5b60006145048a828b01613ebe565b97505060206145158a828b01613ebe565b96505060406145268a828b01613e33565b95505060606145378a828b01613e33565b94505060806145488a828b016143e4565b93505060a06145598a828b01613f87565b92505060c061456a8a828b01613f87565b91505092959891949750929550565b600080604083850312156145905761458f613c9c565b5b600061459e85828601613ebe565b92505060206145af85828601613ebe565b9150509250929050565b6000815190506145c881613e1c565b92915050565b6000602082840312156145e4576145e3613c9c565b5b60006145f2848285016145b9565b91505092915050565b7f4e487b7100000000000000000000000000000000000000000000000000000000600052602260045260246000fd5b6000600282049050600182168061464257607f821691505b602082108103614655576146546145fb565b5b50919050565b7f4e487b7100000000000000000000000000000000000000000000000000000000600052601160045260246000fd5b600061469582613c5e565b91506146a083613c5e565b9250828210156146b3576146b261465b565b5b828203905092915050565b7f416363657373436f6e74726f6c3a2063616e206f6e6c792072656e6f756e636560008201527f20726f6c657320666f722073656c660000000000000000000000000000000000602082015250565b600061471a602f83613d6c565b9150614725826146be565b604082019050919050565b600060208201905081810360008301526147498161470d565b9050919050565b7f496e697469616c697a61626c653a20636f6e747261637420697320616c72656160008201527f647920696e697469616c697a6564000000000000000000000000000000000000602082015250565b60006147ac602e83613d6c565b91506147b782614750565b604082019050919050565b600060208201905081810360008301526147db8161479f565b9050919050565b6000815190506147f181613ea7565b92915050565b60006020828403121561480d5761480c613c9c565b5b600061481b848285016147e2565b91505092915050565b6000819050919050565b600061484961484461483f84614824565b61406a565b614033565b9050919050565b6148598161482e565b82525050565b60006020820190506148746000830184614850565b92915050565b600060408201905061488f6000830185613c68565b61489c6020830184613c68565b9392505050565b7f5045524d49545f444541444c494e455f45585049524544000000000000000000600082015250565b60006148d9601783613d6c565b91506148e4826148a3565b602082019050919050565b60006020820190508181036000830152614908816148cc565b9050919050565b600060c0820190506149246000830189613fc9565b61493160208301886143a3565b61493e60408301876143a3565b61494b6060830186613c68565b6149586080830185613c68565b61496560a0830184613c68565b979650505050505050565b600081905092915050565b7f1901000000000000000000000000000000000000000000000000000000000000600082015250565b60006149b1600283614970565b91506149bc8261497b565b600282019050919050565b6000819050919050565b6149e26149dd82613f66565b6149c7565b82525050565b60006149f3826149a4565b91506149ff82856149d1565b602082019150614a0f82846149d1565b6020820191508190509392505050565b6000608082019050614a346000830187613fc9565b614a416020830186614040565b614a4e6040830185613fc9565b614a5b6060830184613fc9565b95945050505050565b7f494e56414c49445f5349474e4552000000000000000000000000000000000000600082015250565b6000614a9a600e83613d6c565b9150614aa582614a64565b602082019050919050565b60006020820190508181036000830152614ac981614a8d565b9050919050565b600081905092915050565b60008190508160005260206000209050919050565b60008154614afd8161462a565b614b078186614ad0565b94506001821660008114614b225760018114614b3357614b66565b60ff19831686528186019350614b66565b614b3c85614adb565b60005b83811015614b5e57815481890152600182019150602081019050614b3f565b838801955050505b50505092915050565b6000614b7b8284614af0565b915081905092915050565b600060a082019050614b9b6000830188613fc9565b614ba86020830187613fc9565b614bb56040830186613fc9565b614bc26060830185613c68565b614bcf60808301846143a3565b9695505050505050565b7f496e697469616c697a61626c653a20636f6e7472616374206973206e6f74206960008201527f6e697469616c697a696e67000000000000000000000000000000000000000000602082015250565b6000614c35602b83613d6c565b9150614c4082614bd9565b604082019050919050565b60006020820190508181036000830152614c6481614c28565b9050919050565b600081519050614c7a816143cd565b92915050565b600060208284031215614c9657614c95613c9c565b5b6000614ca484828501614c6b565b91505092915050565b6000606082019050614cc260008301866143a3565b614ccf60208301856143a3565b614cdc6040830184613c68565b949350505050565b6000614cef82613c5e565b9150614cfa83613c5e565b9250827fffffffffffffffffffffffffffffffffffffffffffffffffffffffffffffffff03821115614d2f57614d2e61465b565b5b828201905092915050565b6000604082019050614d4f60008301856143a3565b614d5c6020830184613c68565b9392505050565b7f416363657373436f6e74726f6c3a206163636f756e7420000000000000000000600082015250565b6000614d99601783614970565b9150614da482614d63565b601782019050919050565b6000614dba82613d61565b614dc48185614970565b9350614dd4818560208601613d7d565b80840191505092915050565b7f206973206d697373696e6720726f6c6520000000000000000000000000000000600082015250565b6000614e16601183614970565b9150614e2182614de0565b601182019050919050565b6000614e3782614d8c565b9150614e438285614daf565b9150614e4e82614e09565b9150614e5a8284614daf565b91508190509392505050565b614e6f81613d2b565b8114614e7a57600080fd5b50565b600081519050614e8c81614e66565b92915050565b600060208284031215614ea857614ea7613c9c565b5b6000614eb684828501614e7d565b91505092915050565b7f5361666545524332303a204552433230206f7065726174696f6e20646964206e60008201527f6f74207375636365656400000000000000000000000000000000000000000000602082015250565b6000614f1b602a83613d6c565b9150614f2682614ebf565b604082019050919050565b60006020820190508181036000830152614f4a81614f0e565b9050919050565b7f4e487b7100000000000000000000000000000000000000000000000000000000600052603260045260246000fd5b6000614f8b82613c5e565b9150614f9683613c5e565b9250817fffffffffffffffffffffffffffffffffffffffffffffffffffffffffffffffff0483118215151615614fcf57614fce61465b565b5b828202905092915050565b6000614fe582613c5e565b915060008203614ff857614ff761465b565b5b600182039050919050565b7f537472696e67733a20686578206c656e67746820696e73756666696369656e74600082015250565b6000615039602083613d6c565b915061504482615003565b602082019050919050565b600060208201905081810360008301526150688161502c565b9050919050565b7f4e487b7100000000000000000000000000000000000000000000000000000000600052603160045260246000fd5b7f416464726573733a20696e73756666696369656e742062616c616e636520666f60008201527f722063616c6c0000000000000000000000000000000000000000000000000000602082015250565b60006150fa602683613d6c565b91506151058261509e565b604082019050919050565b60006020820190508181036000830152615129816150ed565b9050919050565b7f416464726573733a2063616c6c20746f206e6f6e2d636f6e7472616374000000600082015250565b6000615166601d83613d6c565b915061517182615130565b602082019050919050565b6000602082019050818103600083015261519581615159565b9050919050565b600081519050919050565b60006151b28261519c565b6151bc8185614ad0565b93506151cc818560208601613d7d565b80840191505092915050565b60006151e482846151a7565b91508190509291505056fea26469706673582212201c7592ac0d8cca22bb03700675a7aa9acb9138c493dfc750270adcd8bf462e5b64736f6c634300080e0033",
  "devdoc": {
    "author": "Kresko",
    "kind": "dev",
    "methods": {
      "getRoleAdmin(bytes32)": {
        "details": "Returns the admin role that controls `role`. See {grantRole} and {revokeRole}. To change a role's admin, use {_setRoleAdmin}."
      },
      "getRoleMember(bytes32,uint256)": {
        "details": "Returns one of the accounts that have `role`. `index` must be a value between 0 and {getRoleMemberCount}, non-inclusive. Role bearers are not sorted in any particular way, and their ordering may change at any point. WARNING: When using {getRoleMember} and {getRoleMemberCount}, make sure you perform all queries on the same block. See the following https://forum.openzeppelin.com/t/iterating-over-elements-on-enumerableset-in-openzeppelin-contracts/2296[forum post] for more information."
      },
      "getRoleMemberCount(bytes32)": {
        "details": "Returns the number of accounts that have `role`. Can be used together with {getRoleMember} to enumerate all bearers of a role."
      },
      "grantRole(bytes32,address)": {
        "details": "Grants `role` to `account`. If `account` had not been already granted `role`, emits a {RoleGranted} event. Requirements: - the caller must have ``role``'s admin role. May emit a {RoleGranted} event."
      },
      "hasRole(bytes32,address)": {
        "details": "Returns `true` if `account` has been granted `role`."
      },
      "renounceRole(bytes32,address)": {
        "details": "Revokes `role` from the calling account. Roles are often managed via {grantRole} and {revokeRole}: this function's purpose is to provide a mechanism for accounts to lose their privileges if they are compromised (such as when a trusted device is misplaced). If the calling account had been revoked `role`, emits a {RoleRevoked} event. Requirements: - the caller must be `account`. May emit a {RoleRevoked} event."
      },
      "revokeRole(bytes32,address)": {
        "details": "Revokes `role` from `account`. If `account` had been granted `role`, emits a {RoleRevoked} event. Requirements: - the caller must have ``role``'s admin role. May emit a {RoleRevoked} event."
      },
      "totalAssets()": {
        "returns": {
          "_0": "Total supply for the underlying"
        }
      },
      "updateMetaData(string,string,uint8)": {
        "params": {
          "_name": "new name for the asset",
          "_symbol": "new symbol for the asset",
          "_version": "number that must be greater than latest emitted `Initialized` version"
        }
      }
    },
    "title": "Kresko Asset Anchor - pro-rata representation of the underlying kresko asset. Based on ERC-4626 by Solmate (https://github.com/Rari-Capital/solmate/blob/main/src/mixins/ERC4626.sol)",
    "version": 1
  },
  "userdoc": {
    "kind": "user",
    "methods": {
      "deposit(uint256,address)": {
        "notice": "Deposit KreskoAssets for equivalent amount of anchor tokens"
      },
      "destroy(uint256,address)": {
        "notice": "Burns @param _assets of krAssets from @param _from,Burns relative @return _shares of wkrAssets"
      },
      "issue(uint256,address)": {
        "notice": "Mints @param _assets of krAssets for @param _to,Mints relative @return _shares of wkrAssets"
      },
      "mint(uint256,address)": {
        "notice": "Mint shares of anchor tokens for equivalent amount of KreskoAssets"
      },
      "previewDeposit(uint256)": {
        "notice": "amount of shares for amount of @param assets"
      },
      "previewDestroy(uint256)": {
        "notice": "amount of assets for amount of @param shares"
      },
      "previewIssue(uint256)": {
        "notice": "amount of shares for amount of @param assets"
      },
      "previewMint(uint256)": {
        "notice": "amount of assets for amount of @param shares"
      },
      "previewRedeem(uint256)": {
        "notice": "amount of assets for amount of @param shares"
      },
      "previewWithdraw(uint256)": {
        "notice": "amount of shares for amount of @param assets"
      },
      "redeem(uint256,address,address)": {
        "notice": "Redeem shares of anchor for KreskoAssets"
      },
      "supportsInterface(bytes4)": {
        "notice": "ERC-165 - KreskoAssetAnchor, ERC20 and ERC-165 itself"
      },
      "totalAssets()": {
        "notice": "Track the underlying amount"
      },
      "updateMetaData(string,string,uint8)": {
        "notice": "Updates metadata for the token in case eg. ticker change"
      },
      "withdraw(uint256,address,address)": {
        "notice": "Withdraw KreskoAssets for equivalent amount of anchor tokens"
      }
    },
    "notice": "Main purpose of this token is to provide a stable reference for the underlying rebasing KreskoAsset. Enables easier normalized book-keeping and integration with external contracts.",
    "version": 1
  },
  "storageLayout": {
    "storage": [
      {
        "astId": 2028,
        "contract": "src/contracts/krAsset/KreskoAssetAnchor.sol:KreskoAssetAnchor",
        "label": "_initialized",
        "offset": 0,
        "slot": "0",
        "type": "t_uint8"
      },
      {
        "astId": 2031,
        "contract": "src/contracts/krAsset/KreskoAssetAnchor.sol:KreskoAssetAnchor",
        "label": "_initializing",
        "offset": 1,
        "slot": "0",
        "type": "t_bool"
      },
      {
        "astId": 30627,
        "contract": "src/contracts/krAsset/KreskoAssetAnchor.sol:KreskoAssetAnchor",
        "label": "name",
        "offset": 0,
        "slot": "1",
        "type": "t_string_storage"
      },
      {
        "astId": 30629,
        "contract": "src/contracts/krAsset/KreskoAssetAnchor.sol:KreskoAssetAnchor",
        "label": "symbol",
        "offset": 0,
        "slot": "2",
        "type": "t_string_storage"
      },
      {
        "astId": 30631,
        "contract": "src/contracts/krAsset/KreskoAssetAnchor.sol:KreskoAssetAnchor",
        "label": "decimals",
        "offset": 0,
        "slot": "3",
        "type": "t_uint8"
      },
      {
        "astId": 30633,
        "contract": "src/contracts/krAsset/KreskoAssetAnchor.sol:KreskoAssetAnchor",
        "label": "_totalSupply",
        "offset": 0,
        "slot": "4",
        "type": "t_uint256"
      },
      {
        "astId": 30637,
        "contract": "src/contracts/krAsset/KreskoAssetAnchor.sol:KreskoAssetAnchor",
        "label": "_balances",
        "offset": 0,
        "slot": "5",
        "type": "t_mapping(t_address,t_uint256)"
      },
      {
        "astId": 30643,
        "contract": "src/contracts/krAsset/KreskoAssetAnchor.sol:KreskoAssetAnchor",
        "label": "_allowances",
        "offset": 0,
        "slot": "6",
        "type": "t_mapping(t_address,t_mapping(t_address,t_uint256))"
      },
      {
        "astId": 30647,
        "contract": "src/contracts/krAsset/KreskoAssetAnchor.sol:KreskoAssetAnchor",
        "label": "nonces",
        "offset": 0,
        "slot": "7",
        "type": "t_mapping(t_address,t_uint256)"
      },
      {
        "astId": 2935,
        "contract": "src/contracts/krAsset/KreskoAssetAnchor.sol:KreskoAssetAnchor",
        "label": "__gap",
        "offset": 0,
        "slot": "8",
        "type": "t_array(t_uint256)50_storage"
      },
      {
        "astId": 3205,
        "contract": "src/contracts/krAsset/KreskoAssetAnchor.sol:KreskoAssetAnchor",
        "label": "__gap",
        "offset": 0,
        "slot": "58",
        "type": "t_array(t_uint256)50_storage"
      },
      {
        "astId": 1623,
        "contract": "src/contracts/krAsset/KreskoAssetAnchor.sol:KreskoAssetAnchor",
        "label": "_roles",
        "offset": 0,
        "slot": "108",
        "type": "t_mapping(t_bytes32,t_struct(RoleData)1618_storage)"
      },
      {
        "astId": 1922,
        "contract": "src/contracts/krAsset/KreskoAssetAnchor.sol:KreskoAssetAnchor",
        "label": "__gap",
        "offset": 0,
        "slot": "109",
        "type": "t_array(t_uint256)49_storage"
      },
      {
        "astId": 1472,
        "contract": "src/contracts/krAsset/KreskoAssetAnchor.sol:KreskoAssetAnchor",
        "label": "_roleMembers",
        "offset": 0,
        "slot": "158",
        "type": "t_mapping(t_bytes32,t_struct(AddressSet)3906_storage)"
      },
      {
        "astId": 1582,
        "contract": "src/contracts/krAsset/KreskoAssetAnchor.sol:KreskoAssetAnchor",
        "label": "__gap",
        "offset": 0,
        "slot": "159",
        "type": "t_array(t_uint256)49_storage"
      }
    ],
    "types": {
      "t_address": {
        "encoding": "inplace",
        "label": "address",
        "numberOfBytes": "20"
      },
      "t_array(t_bytes32)dyn_storage": {
        "base": "t_bytes32",
        "encoding": "dynamic_array",
        "label": "bytes32[]",
        "numberOfBytes": "32"
      },
      "t_array(t_uint256)49_storage": {
        "base": "t_uint256",
        "encoding": "inplace",
        "label": "uint256[49]",
        "numberOfBytes": "1568"
      },
      "t_array(t_uint256)50_storage": {
        "base": "t_uint256",
        "encoding": "inplace",
        "label": "uint256[50]",
        "numberOfBytes": "1600"
      },
      "t_bool": {
        "encoding": "inplace",
        "label": "bool",
        "numberOfBytes": "1"
      },
      "t_bytes32": {
        "encoding": "inplace",
        "label": "bytes32",
        "numberOfBytes": "32"
      },
      "t_mapping(t_address,t_bool)": {
        "encoding": "mapping",
        "key": "t_address",
        "label": "mapping(address => bool)",
        "numberOfBytes": "32",
        "value": "t_bool"
      },
      "t_mapping(t_address,t_mapping(t_address,t_uint256))": {
        "encoding": "mapping",
        "key": "t_address",
        "label": "mapping(address => mapping(address => uint256))",
        "numberOfBytes": "32",
        "value": "t_mapping(t_address,t_uint256)"
      },
      "t_mapping(t_address,t_uint256)": {
        "encoding": "mapping",
        "key": "t_address",
        "label": "mapping(address => uint256)",
        "numberOfBytes": "32",
        "value": "t_uint256"
      },
      "t_mapping(t_bytes32,t_struct(AddressSet)3906_storage)": {
        "encoding": "mapping",
        "key": "t_bytes32",
        "label": "mapping(bytes32 => struct EnumerableSetUpgradeable.AddressSet)",
        "numberOfBytes": "32",
        "value": "t_struct(AddressSet)3906_storage"
      },
      "t_mapping(t_bytes32,t_struct(RoleData)1618_storage)": {
        "encoding": "mapping",
        "key": "t_bytes32",
        "label": "mapping(bytes32 => struct AccessControlUpgradeable.RoleData)",
        "numberOfBytes": "32",
        "value": "t_struct(RoleData)1618_storage"
      },
      "t_mapping(t_bytes32,t_uint256)": {
        "encoding": "mapping",
        "key": "t_bytes32",
        "label": "mapping(bytes32 => uint256)",
        "numberOfBytes": "32",
        "value": "t_uint256"
      },
      "t_string_storage": {
        "encoding": "bytes",
        "label": "string",
        "numberOfBytes": "32"
      },
      "t_struct(AddressSet)3906_storage": {
        "encoding": "inplace",
        "label": "struct EnumerableSetUpgradeable.AddressSet",
        "members": [
          {
            "astId": 3905,
            "contract": "src/contracts/krAsset/KreskoAssetAnchor.sol:KreskoAssetAnchor",
            "label": "_inner",
            "offset": 0,
            "slot": "0",
            "type": "t_struct(Set)3605_storage"
          }
        ],
        "numberOfBytes": "64"
      },
      "t_struct(RoleData)1618_storage": {
        "encoding": "inplace",
        "label": "struct AccessControlUpgradeable.RoleData",
        "members": [
          {
            "astId": 1615,
            "contract": "src/contracts/krAsset/KreskoAssetAnchor.sol:KreskoAssetAnchor",
            "label": "members",
            "offset": 0,
            "slot": "0",
            "type": "t_mapping(t_address,t_bool)"
          },
          {
            "astId": 1617,
            "contract": "src/contracts/krAsset/KreskoAssetAnchor.sol:KreskoAssetAnchor",
            "label": "adminRole",
            "offset": 0,
            "slot": "1",
            "type": "t_bytes32"
          }
        ],
        "numberOfBytes": "64"
      },
      "t_struct(Set)3605_storage": {
        "encoding": "inplace",
        "label": "struct EnumerableSetUpgradeable.Set",
        "members": [
          {
            "astId": 3600,
            "contract": "src/contracts/krAsset/KreskoAssetAnchor.sol:KreskoAssetAnchor",
            "label": "_values",
            "offset": 0,
            "slot": "0",
            "type": "t_array(t_bytes32)dyn_storage"
          },
          {
            "astId": 3604,
            "contract": "src/contracts/krAsset/KreskoAssetAnchor.sol:KreskoAssetAnchor",
            "label": "_indexes",
            "offset": 0,
            "slot": "1",
            "type": "t_mapping(t_bytes32,t_uint256)"
          }
        ],
        "numberOfBytes": "64"
      },
      "t_uint256": {
        "encoding": "inplace",
        "label": "uint256",
        "numberOfBytes": "32"
      },
      "t_uint8": {
        "encoding": "inplace",
        "label": "uint8",
        "numberOfBytes": "1"
      }
    }
  }
}