{
  "address": "0xcE1bF4649E46c3e9661474EB078f01FdA98E35cc",
  "abi": [
    {
      "inputs": [
        {
          "internalType": "bytes32",
          "name": "role",
          "type": "bytes32"
        }
      ],
      "name": "getRoleAdmin",
      "outputs": [
        {
          "internalType": "bytes32",
          "name": "",
          "type": "bytes32"
        }
      ],
      "stateMutability": "view",
      "type": "function"
    },
    {
      "inputs": [
        {
          "internalType": "bytes32",
          "name": "role",
          "type": "bytes32"
        },
        {
          "internalType": "uint256",
          "name": "index",
          "type": "uint256"
        }
      ],
      "name": "getRoleMember",
      "outputs": [
        {
          "internalType": "address",
          "name": "",
          "type": "address"
        }
      ],
      "stateMutability": "view",
      "type": "function"
    },
    {
      "inputs": [
        {
          "internalType": "bytes32",
          "name": "role",
          "type": "bytes32"
        }
      ],
      "name": "getRoleMemberCount",
      "outputs": [
        {
          "internalType": "uint256",
          "name": "",
          "type": "uint256"
        }
      ],
      "stateMutability": "view",
      "type": "function"
    },
    {
      "inputs": [
        {
          "internalType": "bytes32",
          "name": "role",
          "type": "bytes32"
        },
        {
          "internalType": "address",
          "name": "account",
          "type": "address"
        }
      ],
      "name": "grantRole",
      "outputs": [],
      "stateMutability": "nonpayable",
      "type": "function"
    },
    {
      "inputs": [
        {
          "internalType": "bytes32",
          "name": "role",
          "type": "bytes32"
        },
        {
          "internalType": "address",
          "name": "account",
          "type": "address"
        }
      ],
      "name": "hasRole",
      "outputs": [
        {
          "internalType": "bool",
          "name": "",
          "type": "bool"
        }
      ],
      "stateMutability": "view",
      "type": "function"
    },
    {
      "inputs": [
        {
          "internalType": "bytes32",
          "name": "role",
          "type": "bytes32"
        },
        {
          "internalType": "address",
          "name": "account",
          "type": "address"
        }
      ],
      "name": "renounceRole",
      "outputs": [],
      "stateMutability": "nonpayable",
      "type": "function"
    },
    {
      "inputs": [
        {
          "internalType": "bytes32",
          "name": "role",
          "type": "bytes32"
        },
        {
          "internalType": "address",
          "name": "account",
          "type": "address"
        }
      ],
      "name": "revokeRole",
      "outputs": [],
      "stateMutability": "nonpayable",
      "type": "function"
    }
  ],
  "transactionHash": "0x7faf3b52cc4586444208bcca64d52bf4ab1ce7f4e8c7da9e761a90f749307fa0",
  "args": [],
  "numDeployments": 1,
  "solcInputHash": "6f03fd12c7b897b932d0a3a72934cacd",
  "bytecode": "0x608060405234801561001057600080fd5b506113b6806100206000396000f3fe608060405234801561001057600080fd5b506004361061007d5760003560e01c80639010d07c1161005b5780639010d07c146100ea57806391d148541461011a578063ca15c8731461014a578063d547741f1461017a5761007d565b8063248a9ca3146100825780632f2ff15d146100b257806336568abe146100ce575b600080fd5b61009c60048036038101906100979190610cfb565b610196565b6040516100a99190610d37565b60405180910390f35b6100cc60048036038101906100c79190610db0565b6101a8565b005b6100e860048036038101906100e39190610db0565b6101b6565b005b61010460048036038101906100ff9190610e26565b6101c4565b6040516101119190610e75565b60405180910390f35b610134600480360381019061012f9190610db0565b6101d8565b6040516101419190610eab565b60405180910390f35b610164600480360381019061015f9190610cfb565b6101ec565b6040516101719190610ed5565b60405180910390f35b610194600480360381019061018f9190610db0565b6101fe565b005b60006101a18261020c565b9050919050565b6101b28282610235565b5050565b6101c08282610254565b5050565b60006101d083836102d7565b905092915050565b60006101e4838361030f565b905092915050565b60006101f782610383565b9050919050565b61020882826103b0565b5050565b60006102166104ca565b6009016000838152602001908152602001600020600101549050919050565b6102466102418361020c565b6104f7565b610250828261050b565b5050565b61025c6106c5565b73ffffffffffffffffffffffffffffffffffffffff168173ffffffffffffffffffffffffffffffffffffffff16146102c9576040517f08c379a00000000000000000000000000000000000000000000000000000000081526004016102c090610f73565b60405180910390fd5b6102d382826103b0565b5050565b6000610307826102e56104ca565b600a01600086815260200190815260200160002061077590919063ffffffff16565b905092915050565b60006103196104ca565b600901600084815260200190815260200160002060000160008373ffffffffffffffffffffffffffffffffffffffff1673ffffffffffffffffffffffffffffffffffffffff16815260200190815260200160002060009054906101000a900460ff16905092915050565b60006103a96103906104ca565b600a01600084815260200190815260200160002061078f565b9050919050565b6103ba828261030f565b156104c65760006103c96104ca565b600901600084815260200190815260200160002060000160008373ffffffffffffffffffffffffffffffffffffffff1673ffffffffffffffffffffffffffffffffffffffff16815260200190815260200160002060006101000a81548160ff021916908315150217905550610462816104406104ca565b600a0160008581526020019081526020016000206107a490919063ffffffff16565b5061046b6106c5565b73ffffffffffffffffffffffffffffffffffffffff168173ffffffffffffffffffffffffffffffffffffffff16837ff6391f5c32d9c69d2a47ea670b442974b53935d1edc7fd64eb21e047a839171b60405160405180910390a45b5050565b6000807f080f9836d135d84bdc1ee0b4214e5f2ae76516c41178c6f14a73685c9c3e5f0990508091505090565b610508816105036106c5565b6107d4565b50565b817f9c387ecf1663f9144595993e2c602b45de94bf8ba3a110cb30e3652d79b581c060001b8114156040518060400160405280600381526020017f3232390000000000000000000000000000000000000000000000000000000000815250906105aa576040517f08c379a00000000000000000000000000000000000000000000000000000000081526004016105a1919061101b565b60405180910390fd5b506105b5838361030f565b6106c05760016105c36104ca565b600901600085815260200190815260200160002060000160008473ffffffffffffffffffffffffffffffffffffffff1673ffffffffffffffffffffffffffffffffffffffff16815260200190815260200160002060006101000a81548160ff02191690831515021790555061065c8261063a6104ca565b600a01600086815260200190815260200160002061087190919063ffffffff16565b506106656106c5565b73ffffffffffffffffffffffffffffffffffffffff168273ffffffffffffffffffffffffffffffffffffffff16847f2f8788117e7eff1d82e926ec794901d17c78024a50270940304540a733656f0d60405160405180910390a45b505050565b60003073ffffffffffffffffffffffffffffffffffffffff163373ffffffffffffffffffffffffffffffffffffffff160361076e57600080368080601f016020809104026020016040519081016040528093929190818152602001838380828437600081840152601f19601f820116905080830192505050505050509050600080369050905073ffffffffffffffffffffffffffffffffffffffff818301511692505050610772565b3390505b90565b600061078483600001836108a1565b60001c905092915050565b600061079d826000016108cc565b9050919050565b60006107cc836000018373ffffffffffffffffffffffffffffffffffffffff1660001b6108dd565b905092915050565b6107de828261030f565b61086d576108038173ffffffffffffffffffffffffffffffffffffffff1660146109f1565b6108118360001c60206109f1565b604051602001610822929190611111565b6040516020818303038152906040526040517f08c379a0000000000000000000000000000000000000000000000000000000008152600401610864919061101b565b60405180910390fd5b5050565b6000610899836000018373ffffffffffffffffffffffffffffffffffffffff1660001b610c2d565b905092915050565b60008260000182815481106108b9576108b861114b565b5b9060005260206000200154905092915050565b600081600001805490509050919050565b600080836001016000848152602001908152602001600020549050600081146109e557600060018261090f91906111a9565b905060006001866000018054905061092791906111a9565b90508181146109965760008660000182815481106109485761094761114b565b5b906000526020600020015490508087600001848154811061096c5761096b61114b565b5b90600052602060002001819055508387600101600083815260200190815260200160002081905550505b856000018054806109aa576109a96111dd565b5b6001900381819060005260206000200160009055905585600101600086815260200190815260200160002060009055600193505050506109eb565b60009150505b92915050565b606060006002836002610a04919061120c565b610a0e9190611266565b67ffffffffffffffff811115610a2757610a266112bc565b5b6040519080825280601f01601f191660200182016040528015610a595781602001600182028036833780820191505090505b5090507f300000000000000000000000000000000000000000000000000000000000000081600081518110610a9157610a9061114b565b5b60200101907effffffffffffffffffffffffffffffffffffffffffffffffffffffffffffff1916908160001a9053507f780000000000000000000000000000000000000000000000000000000000000081600181518110610af557610af461114b565b5b60200101907effffffffffffffffffffffffffffffffffffffffffffffffffffffffffffff1916908160001a90535060006001846002610b35919061120c565b610b3f9190611266565b90505b6001811115610bdf577f3031323334353637383961626364656600000000000000000000000000000000600f861660108110610b8157610b8061114b565b5b1a60f81b828281518110610b9857610b9761114b565b5b60200101907effffffffffffffffffffffffffffffffffffffffffffffffffffffffffffff1916908160001a905350600485901c945080610bd8906112eb565b9050610b42565b5060008414610c23576040517f08c379a0000000000000000000000000000000000000000000000000000000008152600401610c1a90611360565b60405180910390fd5b8091505092915050565b6000610c398383610c9d565b610c92578260000182908060018154018082558091505060019003906000526020600020016000909190919091505582600001805490508360010160008481526020019081526020016000208190555060019050610c97565b600090505b92915050565b600080836001016000848152602001908152602001600020541415905092915050565b600080fd5b6000819050919050565b610cd881610cc5565b8114610ce357600080fd5b50565b600081359050610cf581610ccf565b92915050565b600060208284031215610d1157610d10610cc0565b5b6000610d1f84828501610ce6565b91505092915050565b610d3181610cc5565b82525050565b6000602082019050610d4c6000830184610d28565b92915050565b600073ffffffffffffffffffffffffffffffffffffffff82169050919050565b6000610d7d82610d52565b9050919050565b610d8d81610d72565b8114610d9857600080fd5b50565b600081359050610daa81610d84565b92915050565b60008060408385031215610dc757610dc6610cc0565b5b6000610dd585828601610ce6565b9250506020610de685828601610d9b565b9150509250929050565b6000819050919050565b610e0381610df0565b8114610e0e57600080fd5b50565b600081359050610e2081610dfa565b92915050565b60008060408385031215610e3d57610e3c610cc0565b5b6000610e4b85828601610ce6565b9250506020610e5c85828601610e11565b9150509250929050565b610e6f81610d72565b82525050565b6000602082019050610e8a6000830184610e66565b92915050565b60008115159050919050565b610ea581610e90565b82525050565b6000602082019050610ec06000830184610e9c565b92915050565b610ecf81610df0565b82525050565b6000602082019050610eea6000830184610ec6565b92915050565b600082825260208201905092915050565b7f416363657373436f6e74726f6c3a2063616e206f6e6c792072656e6f756e636560008201527f20726f6c657320666f722073656c660000000000000000000000000000000000602082015250565b6000610f5d602f83610ef0565b9150610f6882610f01565b604082019050919050565b60006020820190508181036000830152610f8c81610f50565b9050919050565b600081519050919050565b60005b83811015610fbc578082015181840152602081019050610fa1565b83811115610fcb576000848401525b50505050565b6000601f19601f8301169050919050565b6000610fed82610f93565b610ff78185610ef0565b9350611007818560208601610f9e565b61101081610fd1565b840191505092915050565b600060208201905081810360008301526110358184610fe2565b905092915050565b600081905092915050565b7f416363657373436f6e74726f6c3a206163636f756e7420000000000000000000600082015250565b600061107e60178361103d565b915061108982611048565b601782019050919050565b600061109f82610f93565b6110a9818561103d565b93506110b9818560208601610f9e565b80840191505092915050565b7f206973206d697373696e6720726f6c6520000000000000000000000000000000600082015250565b60006110fb60118361103d565b9150611106826110c5565b601182019050919050565b600061111c82611071565b91506111288285611094565b9150611133826110ee565b915061113f8284611094565b91508190509392505050565b7f4e487b7100000000000000000000000000000000000000000000000000000000600052603260045260246000fd5b7f4e487b7100000000000000000000000000000000000000000000000000000000600052601160045260246000fd5b60006111b482610df0565b91506111bf83610df0565b9250828210156111d2576111d161117a565b5b828203905092915050565b7f4e487b7100000000000000000000000000000000000000000000000000000000600052603160045260246000fd5b600061121782610df0565b915061122283610df0565b9250817fffffffffffffffffffffffffffffffffffffffffffffffffffffffffffffffff048311821515161561125b5761125a61117a565b5b828202905092915050565b600061127182610df0565b915061127c83610df0565b9250827fffffffffffffffffffffffffffffffffffffffffffffffffffffffffffffffff038211156112b1576112b061117a565b5b828201905092915050565b7f4e487b7100000000000000000000000000000000000000000000000000000000600052604160045260246000fd5b60006112f682610df0565b9150600082036113095761130861117a565b5b600182039050919050565b7f537472696e67733a20686578206c656e67746820696e73756666696369656e74600082015250565b600061134a602083610ef0565b915061135582611314565b602082019050919050565b600060208201905081810360008301526113798161133d565b905091905056fea2646970667358221220ed1fd9362b1c83c5e87d4f4b9d89c4422c7d258c27e0136c0df9e8877dec4a0264736f6c634300080e0033",
  "devdoc": {
    "author": "Kresko",
    "details": "Difference here is the logic library that is shared and reused, there is no state here.",
    "kind": "dev",
    "methods": {
      "getRoleAdmin(bytes32)": {
        "details": "Returns the admin role that controls `role`. See {grantRole} and {revokeRole}."
      },
      "getRoleMember(bytes32,uint256)": {
        "details": "OpenZeppelin Returns one of the accounts that have `role`. `index` must be a value between 0 and {getRoleMemberCount}, non-inclusive. Role bearers are not sorted in any particular way, and their ordering may change at any point.Kresko TL;DR above: - If you iterate the EnumSet outside a single block scope you might get different results. - Since when EnumSet member is deleted it is replaced with the highest index.",
        "returns": {
          "_0": "address with the `role`"
        }
      },
      "getRoleMemberCount(bytes32)": {
        "details": "Returns the number of accounts that have `role`. Can be used together with {getRoleMember} to enumerate all bearers of a role."
      },
      "grantRole(bytes32,address)": {
        "details": "Grants `role` to `account`. If `account` had not been already granted `role`, emits a {RoleGranted} event. Requirements: - the caller must have ``role``'s admin role."
      },
      "renounceRole(bytes32,address)": {
        "details": "Revokes `role` from the calling account. Roles are often managed via {grantRole} and {revokeRole}: this function's purpose is to provide a mechanism for accounts to lose their privileges if they are compromised (such as when a trusted device is misplaced). If the calling account had been revoked `role`, emits a {RoleRevoked} event."
      },
      "revokeRole(bytes32,address)": {
        "details": "Revokes `role` from `account`."
      }
    },
    "title": "Enumerable access control for the EIP2535-pattern following the OZ implementation.",
    "version": 1
  },
  "userdoc": {
    "kind": "user",
    "methods": {
      "getRoleAdmin(bytes32)": {
        "notice": "To change a role's admin, use {_setRoleAdmin}."
      },
      "getRoleMember(bytes32,uint256)": {
        "notice": "WARNING: When using {getRoleMember} and {getRoleMemberCount}, make sure you perform all queries on the same block. See the following forum post for more information: - https://forum.openzeppelin.com/t/iterating-over-elements-on-enumerableset-in-openzeppelin-contracts/2296"
      },
      "getRoleMemberCount(bytes32)": {
        "notice": "See warning in {getRoleMember} if combining these two"
      },
      "renounceRole(bytes32,address)": {
        "notice": "Requirements - the caller must be `account`."
      },
      "revokeRole(bytes32,address)": {
        "notice": "Requirements - the caller must have ``role``'s admin role."
      }
    },
    "notice": "The storage area is in the main proxy diamond storage.",
    "version": 1
  },
  "storageLayout": {
    "storage": [],
    "types": null
  }
}