{
  "address": "0x93B7b1BA0e214143A446c790d152F52b28D49061",
  "abi": [
    {
      "inputs": [
        {
          "internalType": "address",
          "name": "_account",
          "type": "address"
        },
        {
          "internalType": "address",
          "name": "_kreskoAsset",
          "type": "address"
        },
        {
          "internalType": "uint256",
          "name": "_burnAmount",
          "type": "uint256"
        },
        {
          "internalType": "uint256",
          "name": "_mintedKreskoAssetIndex",
          "type": "uint256"
        }
      ],
      "name": "burnKreskoAsset",
      "outputs": [],
      "stateMutability": "nonpayable",
      "type": "function"
    }
  ],
  "transactionHash": "0x7453ea3e03d5d8389c9c78892228c5f8d7e6d7a28e775f9722b92ec60e7a8cd7",
  "args": [],
  "numDeployments": 2,
  "solcInputHash": "ae1fc0dafe5a732e0de9681a142b3713",
  "bytecode": "0x6080806040523461001657612685908161001c8239f35b600080fdfe604060808152600436101561001357600080fd5b6000803560e01c63067dc2891461002957600080fd5b346102fb576080367ffffffffffffffffffffffffffffffffffffffffffffffffffffffffffffffffc01126102fb576100606102fe565b91610069610326565b60027f080f9836d135d84bdc1ee0b4214e5f2ae76516c41178c6f14a73685c9c3e5f146100cc600182541461009e60c0604052565b60036080527f313036000000000000000000000000000000000000000000000000000000000060a0526104e8565b5561011b60ff60076100dd846105b4565b0154168351906100ec826103a5565b600382527f32313900000000000000000000000000000000000000000000000000000000006020830152610576565b73ffffffffffffffffffffffffffffffffffffffff933381861603610179575b9061014d9160643591604435916106f8565b61017660017f080f9836d135d84bdc1ee0b4214e5f2ae76516c41178c6f14a73685c9c3e5f1455565b51f35b3330036102f4578461018a36610420565b94610197855196876103dd565b3686529436600060208301373601600060208201525116945b7f46925e0f0cc76e485772167edccb8dc449d43b23b55fc4e756b063f49099e6a085527f080f9836d135d84bdc1ee0b4214e5f2ae76516c41178c6f14a73685c9c3e5f1260205261022060ff61021a888789209060018060a01b0316600052602052604060002090565b54161590565b61022a575061013b565b610289846102c061023f6102f0948a16610b98565b6102b261024a610c5e565b6102838551968794610283602087016017907f416363657373436f6e74726f6c3a206163636f756e742000000000000000000081520190565b90610a79565b7f206973206d697373696e6720726f6c6520000000000000000000000000000000815260110190565b03601f1981018452836103dd565b517f08c379a00000000000000000000000000000000000000000000000000000000081529182916004830161049e565b0390fd5b33946101b0565b80fd5b6004359073ffffffffffffffffffffffffffffffffffffffff8216820361032157565b600080fd5b6024359073ffffffffffffffffffffffffffffffffffffffff8216820361032157565b50634e487b7160e01b600052604160045260246000fd5b6020810190811067ffffffffffffffff82111761037c57604052565b610384610349565b604052565b60c0810190811067ffffffffffffffff82111761037c57604052565b6040810190811067ffffffffffffffff82111761037c57604052565b6080810190811067ffffffffffffffff82111761037c57604052565b90601f8019910116810190811067ffffffffffffffff82111761037c57604052565b60405190610100820182811067ffffffffffffffff82111761037c57604052565b60209067ffffffffffffffff811161045c575b601f017fffffffffffffffffffffffffffffffffffffffffffffffffffffffffffffffe0160190565b610464610349565b610433565b918091926000905b828210610489575011610482575050565b6000910152565b91508060209183015181860152018291610471565b604091602082526104be8151809281602086015260208686019101610469565b601f017fffffffffffffffffffffffffffffffffffffffffffffffffffffffffffffffe016010190565b156104ef57565b60405162461bcd60e51b8152602080600483015281608051918260248301526000905b83821061055e5750918060449311610551575b601f017fffffffffffffffffffffffffffffffffffffffffffffffffffffffffffffffe0168101030190fd5b6000838284010152610525565b915080829160a0015160448287010152018391610512565b1561057e5750565b6040517f08c379a00000000000000000000000000000000000000000000000000000000081529081906102f0906004830161049e565b73ffffffffffffffffffffffffffffffffffffffff1660009081527f5076ab9fa18d2a17cfce4375a530b76392de8264a11126885cd5534d39f0a9886020526040902090565b73ffffffffffffffffffffffffffffffffffffffff1660009081527f028c7d8c2729a6bb9150d56b34c68e690d2d010cd1f97ccb986fdd9fba86b1896020526040902090565b73ffffffffffffffffffffffffffffffffffffffff1660009081527f5076ab9fa18d2a17cfce4375a530b76392de8264a11126885cd5534d39f0a9856020526040902090565b60405190610693826103a5565b600382527f32303200000000000000000000000000000000000000000000000000000000006020830152565b604051906106cc826103a5565b600382527f32313100000000000000000000000000000000000000000000000000000000006020830152565b9192909261070f610707610686565b821515610576565b7f5076ab9fa18d2a17cfce4375a530b76392de8264a11126885cd5534d39f0a9835460ff16610896575b6107438484610e0a565b90817fffffffffffffffffffffffffffffffffffffffffffffffffffffffffffffffff821461088e5761078a9161078461077b6106bf565b83831115610576565b86611be1565b935b73ffffffffffffffffffffffffffffffffffffffff928392836107ce60046107b3866105fa565b015473ffffffffffffffffffffffffffffffffffffffff1690565b16159081610884575b5061082e575b506107e98582866113b7565b61080284866107fc60046107b3866105b4565b8461104d565b1691167f8af4d455a89586973d5f67129b1311b10fb5eaa983499b67e11d4a12f721fdad6000604051a4565b73ffffffffffffffffffffffffffffffffffffffff851660009081527f5076ab9fa18d2a17cfce4375a530b76392de8264a11126885cd5534d39f0a98a6020526040902061087e919083906109ab565b386107dd565b90508614386107d7565b90509361078c565b61089f8461236d565b610739565b50634e487b7160e01b600052603260045260246000fd5b80548210156108d4575b60005260206000200190600090565b6108dc6108a4565b6108c5565b50634e487b7160e01b600052601160045260246000fd5b60018110610926575b7fffffffffffffffffffffffffffffffffffffffffffffffffffffffffffffffff0190565b61092e6108e1565b610901565b81811061093e570390565b6109466108e1565b0390565b80548015610995577fffffffffffffffffffffffffffffffffffffffffffffffffffffffffffffffff019061097f82826108bb565b81549060018060a01b039060031b1b1916905555565b634e487b7160e01b600052603160045260246000fd5b90610a2f92610a106109bd82856108bb565b93905493604051916109ce836103a5565b600383527f3430300000000000000000000000000000000000000000000000000000000000602084015260018060a01b0395868092169260031b1c1614610576565b825460018110610a6c575b60001901808203610a31575b50505061094a565b565b82610a3f610a4e92866108bb565b90549060031b1c1691846108bb565b909283549160031b90811b9283911b16911916179055388080610a27565b610a746108e1565b610a1b565b90610a8c60209282815194859201610469565b0190565b8060001904821181151516610aa3570290565b610aab6108e1565b0290565b6b033b2e3c9fd0803ce800000081198111610ac8570190565b610a8c6108e1565b81198111610ac8570190565b602090805115610aea570190565b610a8c6108a4565b602190805160011015610aea570190565b906020918051821015610b1557010190565b610b1d6108a4565b010190565b8015610926577fffffffffffffffffffffffffffffffffffffffffffffffffffffffffffffffff0190565b15610b5457565b606460405162461bcd60e51b815260206004820152602060248201527f537472696e67733a20686578206c656e67746820696e73756666696369656e746044820152fd5b604051906060820182811067ffffffffffffffff821117610c51575b604052602a825260403660208401376030610bce83610adc565b536078610bda83610af2565b536029905b60018211610bf557610bf2915015610b4d565b90565b80600f610c3e92166010811015610c44575b7f3031323334353637383961626364656600000000000000000000000000000000901a610c348486610b03565b5360041c91610b22565b90610bdf565b610c4c6108a4565b610c07565b610c59610349565b610bb4565b6040517f46925e0f0cc76e485772167edccb8dc449d43b23b55fc4e756b063f49099e6a0610c8b826103c1565b6042825260603660208401376030610ca283610adc565b536078610cae83610af2565b536041905b60018211610cc657610bf2915015610b4d565b80600f610d0492166010811015610c44577f3031323334353637383961626364656600000000000000000000000000000000901a610c348486610b03565b90610cb3565b60405190610d1782610360565b7f5076ab9fa18d2a17cfce4375a530b76392de8264a11126885cd5534d39f0a981548252565b90604051610d4a81610360565b91548252565b90610a2f610e016007610d616103ff565b94610d6b81610d3d565b8652600181015473ffffffffffffffffffffffffffffffffffffffff166020870152600281015473ffffffffffffffffffffffffffffffffffffffff16604087015260038101546060870152600481015473ffffffffffffffffffffffffffffffffffffffff166080870152610de360058201610d3d565b60a0870152610df460068201610d3d565b60c0870152015460ff1690565b151560e0840152565b610f34610bf292610f1d610e1d826105b4565b93610ed7610ece6007610e2e6103ff565b97610e3881610d3d565b8952600181015473ffffffffffffffffffffffffffffffffffffffff1660208a0152600281015473ffffffffffffffffffffffffffffffffffffffff1660408a0152600381015460608a0152600481015473ffffffffffffffffffffffffffffffffffffffff1660808a0152610eb060058201610d3d565b60a08a0152610ec160068201610d3d565b60c08a0152015460ff1690565b151560e0870152565b73ffffffffffffffffffffffffffffffffffffffff1660009081527f5076ab9fa18d2a17cfce4375a530b76392de8264a11126885cd5534d39f0a9896020526040902090565b9060018060a01b0316600052602052604060002090565b5490610f57565b90816020910312610321575190565b506040513d6000823e3d90fd5b608001516040517f07a2d13a00000000000000000000000000000000000000000000000000000000815260048101929092526020908290602490829073ffffffffffffffffffffffffffffffffffffffff165afa908115610fe6575b600091610fbe575090565b610bf2915060203d8111610fdf575b610fd781836103dd565b810190610f3b565b503d610fcd565b610fee610f4a565b610fb3565b60405190611000826103a5565b600382527f35313100000000000000000000000000000000000000000000000000000000006020830152565b6fffffffffffffffffffffffffffffffff918216911681811061093e570390565b90610a2f9361123783610f1d600061125f9760206110bd61125a98611079611074886105fa565b611d8f565b6040517f8dec3daa00000000000000000000000000000000000000000000000000000000815260048101959095523360248601529394859283919082906044820190565b039273ffffffffffffffffffffffffffffffffffffffff165af1918215611284575b600092611264575b506110fa816110f5846112b7565b611291565b9161110e611106610ff3565b841515610576565b61115861115086610f1d8a60018060a01b03166000527f5076ab9fa18d2a17cfce4375a530b76392de8264a11126885cd5534d39f0a989602052604060002090565b918254610933565b90556111fe61119c85610f1d8960018060a01b03166000527f028c7d8c2729a6bb9150d56b34c68e690d2d010cd1f97ccb986fdd9fba86b18a602052604060002090565b6111d26fffffffffffffffffffffffffffffffff8095166111cd83546fffffffffffffffffffffffffffffffff1690565b61102c565b6fffffffffffffffffffffffffffffffff166fffffffffffffffffffffffffffffffff19825416179055565b169360018060a01b03166000527f028c7d8c2729a6bb9150d56b34c68e690d2d010cd1f97ccb986fdd9fba86b18a602052604060002090565b906fffffffffffffffffffffffffffffffff82549181199060801b169116179055565b6105fa565b611f4c565b61127d91925060203d8111610fdf57610fd781836103dd565b90386110e7565b61128c610f4a565b6110df565b8160011c906b033b2e3c9fd0803ce8000000908183190481118415176103215702010490565b90633b9aca00918281029283040361032157565b9060405191828154918282526020928383019160005283600020936000905b82821061130057505050610a2f925003836103dd565b855473ffffffffffffffffffffffffffffffffffffffff16845260019586019588955093810193909101906112ea565b6020918151811015611345575b60051b010190565b61134d6108a4565b61133d565b9060405161135f81610389565b60a060ff829460405161137181610360565b8154815284526003600180851b0391826001820154166020870152826002820154166040870152015490811660608501528181841c16608085015260a81c161515910152565b9160a06113d86113d16113cc6113e1956105b4565b610d50565b92836116c9565b910151906115f4565b9081511561157a579061142d6114288360018060a01b03166000527f5076ab9fa18d2a17cfce4375a530b76392de8264a11126885cd5534d39f0a987602052604060002090565b6112cb565b9161155161143b84516108f8565b925b61146461144a8587611330565b5173ffffffffffffffffffffffffffffffffffffffff1690565b90611471858286856117c1565b9261148c8261148761148284610640565b611352565b61162d565b6114ce61115083610f1d8a60018060a01b03166000527f5076ab9fa18d2a17cfce4375a530b76392de8264a11126885cd5534d39f0a986602052604060002090565b90557f5076ab9fa18d2a17cfce4375a530b76392de8264a11126885cd5534d39f0a97e5473ffffffffffffffffffffffffffffffffffffffff918216919061151a908490831684612411565b8451604051908152908716907fbfec87a214fb0d037be9e8ca36943fbbe5d6bdb3c7de2336d8f792ece8627fcc90602090a461157e565b8051156115745761146461144a61156a61155195610b22565b949291505061143d565b50505050565b5050565b600060405161158c81610360565b525190518082106115ab575b604051916115a583610360565b03815290565b6115b36108e1565b611598565b604d81116115c7575b600a0a90565b6115cf6108e1565b6115c1565b81156115de570490565b634e487b7160e01b600052601260045260246000fd5b670de0b6b3a76400009161161a91600060405161161081610360565b5251905190610a90565b046040519061162882610360565b815290565b6060015173ffffffffffffffffffffffffffffffffffffffff1690811561167d576020906024604051809481936363737ac960e11b835260048301525afa908115610fe657600091610fbe575090565b905090565b61169d610bf291600060405161169781610360565b5261170a565b60006040516116ab81610360565b52604051906116b982610360565b670de0b6b3a764000082526115f4565b906116e86116e2610bf293600060405161169781610360565b916116ee565b906115f4565b60006040516116fc81610360565b526040519061162882610360565b6020600491600060405161171d81610360565b528101516040517f50d25bcd000000000000000000000000000000000000000000000000000000008152928391829073ffffffffffffffffffffffffffffffffffffffff165afa9081156117b4575b600091611783575b5060006040516116fc81610360565b906020823d82116117ac575b8161179c602093836103dd565b810103126102fb57505138611774565b3d915061178f565b6117bc610f4a565b61176c565b909392919360006040516117d481610360565b526118ac6117e183610640565b61185660ff604051926117f384610389565b6117fc81610d3d565b8452600181015473ffffffffffffffffffffffffffffffffffffffff9081166020860152600282015481166040860152600390910154908116606085015260ff60a082901c831616608085015260a81c16151560a0830152565b73ffffffffffffffffffffffffffffffffffffffff831660009081527f5076ab9fa18d2a17cfce4375a530b76392de8264a11126885cd5534d39f0a986602052604090206118a5908590610f1d565b54906119af565b6118b681846119ff565b9490916118c583895190511190565b156119085750505050906118fe6118f76118f160036118e661190496610640565b015460a01c60ff1690565b60ff1690565b918561195d565b90611b94565b9190565b73ffffffffffffffffffffffffffffffffffffffff90931660009081527f5076ab9fa18d2a17cfce4375a530b76392de8264a11126885cd5534d39f0a9876020526040902091965091935061190492906109ab565b9061199591600060405161197081610360565b525190670de0b6b3a76400009082600019048211831515166119a2575b5191026115d4565b6040519061162882610360565b6119aa6108e1565b61198d565b6060015173ffffffffffffffffffffffffffffffffffffffff1690811561167d576020906024604051809481936303d1689d60e11b835260048301525afa908115610fe657600091610fbe575090565b611ac8611ac2611a32611904939594956000604051611a1d81610360565b526000604051611a2c81610360565b52610640565b94611abd6118f160405197611a4689610389565b611a4f81610d3d565b8952600181015473ffffffffffffffffffffffffffffffffffffffff90811660208b01526002820154811660408b015260039091015490811660608a0152611ab660ff60808b0192611aa9828260a01c16859060ff169052565b60a81c16151560a08b0152565b5160ff1690565b611acf565b9361170a565b80936115f4565b60409060008251611adf81610360565b52815192611aec84610360565b83526012811015611b3f5791611b1183611b269394601210611b32575b6012036115b8565b9060008451611b1f81610360565b5251610a90565b90519061162882610360565b611b3a6108e1565b611b09565b60128111611b4c57505090565b91611b5e611b269293601119016115b8565b9060008451611b6c81610360565b52516115d4565b600a906000604051611b8481610360565b5251046040519061162882610360565b9051906012811015611bbe5790611bb882610bf293601210611b32576012036115b8565b906115d4565b60128111611bca575090565b90611bdb610bf292601119016115b8565b90610a90565b9190808210611d49575b6000604051611bf981610360565b52611cc8611c06846105b4565b611cbf611cb66007611c166103ff565b93611c2081610d3d565b8552600181015473ffffffffffffffffffffffffffffffffffffffff166020860152600281015473ffffffffffffffffffffffffffffffffffffffff16604086015260038101546060860152600481015473ffffffffffffffffffffffffffffffffffffffff166080860152611c9860058201610d3d565b60a0860152611ca960068201610d3d565b60c0860152015460ff1690565b151560e0830152565b828403906116c9565b80516000604051611cd881610360565b526000604051611ce781610360565b5215159081611d2e575b5015611d285750611d21610bf292611d1b611d166113cc611d10610d0a565b936105b4565b61170a565b9061195d565b5190610933565b91505090565b611d439150611d3b610d0a565b905190511190565b38611cf1565b611d516108e1565b611beb565b60405190611d63826103a5565b600382527f36303600000000000000000000000000000000000000000000000000000000006020830152565b60048101805473ffffffffffffffffffffffffffffffffffffffff1692918315611efd5760046020611de9611dd484546fffffffffffffffffffffffffffffffff1690565b6fffffffffffffffffffffffffffffffff1690565b95604051928380926318160ddd60e01b82525afa908115611ef0575b600091611ed2575b50611e5c575b5080547fffffffffffffff0000000000ffffffffffffffffffffffffffffffffffffffff164260a01b78ffffffffff000000000000000000000000000000000000000016179055565b9290611ecc611e77610a2f93611e724288612274565b611f10565b94611e80611d56565b611e9e6fffffffffffffffffffffffffffffffff9182891115610576565b86166fffffffffffffffffffffffffffffffff166fffffffffffffffffffffffffffffffff19825416179055565b90611e13565b611eea915060203d8111610fdf57610fd781836103dd565b38611e0d565b611ef8610f4a565b611e05565b506b033b2e3c9fd0803ce8000000925050565b816b019d971e4fe8401e74000000190481111582151715610321576b033b2e3c9fd0803ce800000091026b019d971e4fe8401e74000000010490565b600481015473ffffffffffffffffffffffffffffffffffffffff1615611ff657806002611f7b610a2f9361201e565b60405190611f88826103a5565b600382527f36303500000000000000000000000000000000000000000000000000000000006020830152611fd06fffffffffffffffffffffffffffffffff9283831115610576565b169101906fffffffffffffffffffffffffffffffff82549181199060801b169116179055565b50565b906fffffffffffffffffffffffffffffffff8080931691168092038111610ac8570190565b61202781612131565b8015612111576120a461203e611dd4845460801c90565b808311928315612103579061205291610933565b61209e6001850154612095611dd461207d60028901546fffffffffffffffffffffffffffffffff1690565b6fffffffffffffffffffffffffffffffff8416611ff9565b9060801c611291565b90611f10565b906120d1576120cc611dd46003610bf29401546fffffffffffffffffffffffffffffffff1690565b610ad0565b6120fd6120f7611dd46003610bf29501546fffffffffffffffffffffffffffffffff1690565b91610aaf565b90611291565b61210c91610933565b612052565b5060030154610bf2906fffffffffffffffffffffffffffffffff16611dd4565b600460018060a01b0391015416600060405161214c81610360565b5261217761217161215c836105b4565b61216c611cb66007611c166103ff565b611682565b9161219b565b805115612194576121909161218b9161195d565b611b73565b5190565b5050600090565b60006040516121a981610360565b527f5076ab9fa18d2a17cfce4375a530b76392de8264a11126885cd5534d39f0a98b5473ffffffffffffffffffffffffffffffffffffffff9190821690811561225e57610bf29260446020926040519485938492632d43620b60e21b8452166004830152670de0b6b3a764000060248301525afa908115612251575b600091612233575b506116ee565b61224b915060203d8111610fdf57610fd781836103dd565b3861222d565b612259610f4a565b612225565b50505060405161226d81610360565b6000815290565b6004810154909161228f9160a01c64ffffffffff1690610933565b801561235b576120cc6123226120cc6123416123116123279561233b612334610bf2996000198401978891600060028711600014612346575061232261232d6122e5611dd460026001198b01955b015460801c90565b9d8e61232261231b61231161230a6122fd8580611f10565b66038882915c4000900490565b9384611f10565b6301e13380900490565b978b610a90565b610a90565b60011c90565b9a87610a90565b6006900490565b96610a90565b610aaf565b61232d6122e5611dd4600261232294956122dd565b50506b033b2e3c9fd0803ce800000090565b60018060a01b03166000527f5076ab9fa18d2a17cfce4375a530b76392de8264a11126885cd5534d39f0a98460205260406000206002600052602052610a2f60ff6040600020541615604051906040820182811067ffffffffffffffff821117612404575b604052600382527f32333200000000000000000000000000000000000000000000000000000000006020830152610576565b61240c610349565b6123d2565b6040517fa9059cbb00000000000000000000000000000000000000000000000000000000602080830191825273ffffffffffffffffffffffffffffffffffffffff94909416602483015260448083019590955293815291926124ef9291600090819061247e6064866103dd565b60018060a01b03169260405194612494866103a5565b8786527f5361666545524332303a206c6f772d6c6576656c2063616c6c206661696c656488870152519082855af13d15612514573d916124d383610420565b926124e160405194856103dd565b83523d60008785013e6125c0565b805190816124fc57505050565b82610a2f9361250f93830101910161251c565b612534565b6060916125c0565b90816020910312610321575180151581036103215790565b1561253b57565b6040517f08c379a000000000000000000000000000000000000000000000000000000000815260206004820152602a60248201527f5361666545524332303a204552433230206f7065726174696f6e20646964206e60448201527f6f742073756363656564000000000000000000000000000000000000000000006064820152608490fd5b9192901561263c57508151156125d4575090565b3b156125dd5790565b6040517f08c379a000000000000000000000000000000000000000000000000000000000815260206004820152601d60248201527f416464726573733a2063616c6c20746f206e6f6e2d636f6e74726163740000006044820152606490fd5b82519091501561057e5750805190602001fdfea26469706673582212200c534956291494e06b421bb283746e89f936a605b80ca51384301c8155cf5c1a64736f6c634300080e0033",
  "devdoc": {
    "author": "Kresko",
    "kind": "dev",
    "methods": {
      "burnKreskoAsset(address,address,uint256,uint256)": {
        "params": {
          "_account": "The address to burn kresko assets for",
          "_burnAmount": "The amount of the Kresko asset to be burned.",
          "_kreskoAsset": "The address of the Kresko asset.",
          "_mintedKreskoAssetIndex": "The index of the collateral asset in the user's minted assets array."
        }
      }
    },
    "title": "BurnFacet",
    "version": 1
  },
  "userdoc": {
    "kind": "user",
    "methods": {
      "burnKreskoAsset(address,address,uint256,uint256)": {
        "notice": "Burns existing Kresko assets.Only needed if burning all principal debt of a particular collateral asset."
      }
    },
    "notice": "Main end-user functionality concerning burning of kresko assets",
    "version": 1
  },
  "storageLayout": {
    "storage": [],
    "types": null
  }
}