{
  "address": "0x95f5381386Bf562BdFC06411b78D8B83d4399a1a",
  "abi": [
    {
      "inputs": [
        {
          "internalType": "address",
          "name": "_account",
          "type": "address"
        },
        {
          "internalType": "address",
          "name": "_collateralAsset",
          "type": "address"
        },
        {
          "internalType": "bool",
          "name": "_ignoreFactors",
          "type": "bool"
        }
      ],
      "name": "getPoolAccountDepositsValue",
      "outputs": [
        {
          "internalType": "uint256",
          "name": "",
          "type": "uint256"
        }
      ],
      "stateMutability": "view",
      "type": "function"
    },
    {
      "inputs": [
        {
          "internalType": "address",
          "name": "_account",
          "type": "address"
        },
        {
          "internalType": "address",
          "name": "_collateralAsset",
          "type": "address"
        }
      ],
      "name": "getPoolAccountDepositsValueWithFees",
      "outputs": [
        {
          "internalType": "uint256",
          "name": "",
          "type": "uint256"
        }
      ],
      "stateMutability": "view",
      "type": "function"
    },
    {
      "inputs": [
        {
          "internalType": "address",
          "name": "_account",
          "type": "address"
        },
        {
          "internalType": "address",
          "name": "_collateralAsset",
          "type": "address"
        }
      ],
      "name": "getPoolAccountDepositsWithFees",
      "outputs": [
        {
          "internalType": "uint256",
          "name": "",
          "type": "uint256"
        }
      ],
      "stateMutability": "view",
      "type": "function"
    },
    {
      "inputs": [
        {
          "internalType": "address",
          "name": "_account",
          "type": "address"
        },
        {
          "internalType": "address",
          "name": "_collateralAsset",
          "type": "address"
        }
      ],
      "name": "getPoolAccountPrincipalDeposits",
      "outputs": [
        {
          "internalType": "uint256",
          "name": "",
          "type": "uint256"
        }
      ],
      "stateMutability": "view",
      "type": "function"
    },
    {
      "inputs": [
        {
          "internalType": "address",
          "name": "_account",
          "type": "address"
        },
        {
          "internalType": "bool",
          "name": "_ignoreFactors",
          "type": "bool"
        }
      ],
      "name": "getPoolAccountTotalDepositsValue",
      "outputs": [
        {
          "internalType": "uint256",
          "name": "",
          "type": "uint256"
        }
      ],
      "stateMutability": "view",
      "type": "function"
    },
    {
      "inputs": [
        {
          "internalType": "address",
          "name": "_account",
          "type": "address"
        }
      ],
      "name": "getPoolAccountTotalDepositsValueWithFees",
      "outputs": [
        {
          "internalType": "uint256",
          "name": "",
          "type": "uint256"
        }
      ],
      "stateMutability": "view",
      "type": "function"
    },
    {
      "inputs": [
        {
          "internalType": "address",
          "name": "_asset",
          "type": "address"
        }
      ],
      "name": "getPoolAssetIsEnabled",
      "outputs": [
        {
          "internalType": "bool",
          "name": "",
          "type": "bool"
        }
      ],
      "stateMutability": "view",
      "type": "function"
    },
    {
      "inputs": [
        {
          "internalType": "address",
          "name": "_collateralAsset",
          "type": "address"
        }
      ],
      "name": "getPoolCollateral",
      "outputs": [
        {
          "components": [
            {
              "internalType": "uint256",
              "name": "liquidationIncentive",
              "type": "uint256"
            },
            {
              "internalType": "uint128",
              "name": "liquidityIndex",
              "type": "uint128"
            },
            {
              "internalType": "uint8",
              "name": "decimals",
              "type": "uint8"
            }
          ],
          "internalType": "struct PoolCollateral",
          "name": "",
          "type": "tuple"
        }
      ],
      "stateMutability": "view",
      "type": "function"
    },
    {
      "inputs": [],
      "name": "getPoolCollateralAssets",
      "outputs": [
        {
          "internalType": "address[]",
          "name": "",
          "type": "address[]"
        }
      ],
      "stateMutability": "view",
      "type": "function"
    },
    {
      "inputs": [
        {
          "internalType": "address",
          "name": "_kreskoAsset",
          "type": "address"
        }
      ],
      "name": "getPoolDebt",
      "outputs": [
        {
          "internalType": "uint256",
          "name": "",
          "type": "uint256"
        }
      ],
      "stateMutability": "view",
      "type": "function"
    },
    {
      "inputs": [
        {
          "internalType": "address",
          "name": "_kreskoAsset",
          "type": "address"
        },
        {
          "internalType": "bool",
          "name": "_ignoreFactors",
          "type": "bool"
        }
      ],
      "name": "getPoolDebtValue",
      "outputs": [
        {
          "internalType": "uint256",
          "name": "",
          "type": "uint256"
        }
      ],
      "stateMutability": "view",
      "type": "function"
    },
    {
      "inputs": [
        {
          "internalType": "address",
          "name": "_collateralAsset",
          "type": "address"
        }
      ],
      "name": "getPoolDeposits",
      "outputs": [
        {
          "internalType": "uint256",
          "name": "",
          "type": "uint256"
        }
      ],
      "stateMutability": "view",
      "type": "function"
    },
    {
      "inputs": [
        {
          "internalType": "address",
          "name": "_collateralAsset",
          "type": "address"
        },
        {
          "internalType": "bool",
          "name": "_ignoreFactors",
          "type": "bool"
        }
      ],
      "name": "getPoolDepositsValue",
      "outputs": [
        {
          "internalType": "uint256",
          "name": "",
          "type": "uint256"
        }
      ],
      "stateMutability": "view",
      "type": "function"
    },
    {
      "inputs": [
        {
          "internalType": "address",
          "name": "_assetIn",
          "type": "address"
        },
        {
          "internalType": "address",
          "name": "_assetOut",
          "type": "address"
        }
      ],
      "name": "getPoolIsSwapEnabled",
      "outputs": [
        {
          "internalType": "bool",
          "name": "",
          "type": "bool"
        }
      ],
      "stateMutability": "view",
      "type": "function"
    },
    {
      "inputs": [
        {
          "internalType": "address",
          "name": "_krAsset",
          "type": "address"
        }
      ],
      "name": "getPoolKrAsset",
      "outputs": [
        {
          "components": [
            {
              "internalType": "uint256",
              "name": "protocolFee",
              "type": "uint256"
            },
            {
              "internalType": "uint256",
              "name": "openFee",
              "type": "uint256"
            },
            {
              "internalType": "uint256",
              "name": "closeFee",
              "type": "uint256"
            },
            {
              "internalType": "uint256",
              "name": "supplyLimit",
              "type": "uint256"
            }
          ],
          "internalType": "struct PoolKrAsset",
          "name": "",
          "type": "tuple"
        }
      ],
      "stateMutability": "view",
      "type": "function"
    },
    {
      "inputs": [],
      "name": "getPoolKrAssets",
      "outputs": [
        {
          "internalType": "address[]",
          "name": "",
          "type": "address[]"
        }
      ],
      "stateMutability": "view",
      "type": "function"
    },
    {
      "inputs": [
        {
          "internalType": "bool",
          "name": "_ignoreFactors",
          "type": "bool"
        }
      ],
      "name": "getPoolStats",
      "outputs": [
        {
          "internalType": "uint256",
          "name": "collateralValue",
          "type": "uint256"
        },
        {
          "internalType": "uint256",
          "name": "debtValue",
          "type": "uint256"
        },
        {
          "internalType": "uint256",
          "name": "cr",
          "type": "uint256"
        }
      ],
      "stateMutability": "view",
      "type": "function"
    },
    {
      "inputs": [
        {
          "internalType": "address",
          "name": "_collateralAsset",
          "type": "address"
        }
      ],
      "name": "getPoolSwapDeposits",
      "outputs": [
        {
          "internalType": "uint256",
          "name": "",
          "type": "uint256"
        }
      ],
      "stateMutability": "view",
      "type": "function"
    },
    {
      "inputs": [],
      "name": "getPoolSwapFeeRecipient",
      "outputs": [
        {
          "internalType": "address",
          "name": "",
          "type": "address"
        }
      ],
      "stateMutability": "view",
      "type": "function"
    }
  ],
  "transactionHash": "0x5158b325c63e61bc1fbca3586a63db1f7047a48e41865b18674d31edd785139c",
  "args": [],
  "numDeployments": 1,
  "solcInputHash": "da64b2514f06331329702e90140ebd5b",
  "bytecode": "0x6080806040523461001657611889908161001c8239f35b600080fdfe6080604052600436101561001257600080fd5b60003560e01c8063038e2d1114610147578063061c92b41461014257806322e8ddb01461013d57806337984e14146101385780633b82aa89146101335780633dbbd0f81461012e578063561bdc571461012957806360b5e0f61461012457806369d94d0c1461011f5780636a465d8b1461011a578063840a3e631461011557806392ffd1a6146101105780639928881f1461010b5780639ff076c614610106578063dde8867b14610101578063eb377a88146100fc578063f0fbf9e6146100f7578063fec85100146100f25763ff3bb332146100ed57600080fd5b610b32565b610ae6565b610a3f565b6109f5565b6109a7565b61090b565b61088c565b61082b565b61075e565b6106a8565b6105ae565b610528565b6104e2565b610438565b6103df565b61036c565b610274565b6101eb565b610197565b6004359073ffffffffffffffffffffffffffffffffffffffff8216820361016f57565b600080fd5b6024359073ffffffffffffffffffffffffffffffffffffffff8216820361016f57565b3461016f576020367ffffffffffffffffffffffffffffffffffffffffffffffffffffffffffffffffc011261016f5760206101e36101d361014c565b6101dc81610b90565b54906115f4565b604051908152f35b3461016f576020367ffffffffffffffffffffffffffffffffffffffffffffffffffffffffffffffffc011261016f5773ffffffffffffffffffffffffffffffffffffffff61023761014c565b166000527f0980d88c0052fb539027d8f1c45d7ffc55ebdeff598d346025602914866910aa602052602060ff604060002054166040519015158152f35b3461016f576020367ffffffffffffffffffffffffffffffffffffffffffffffffffffffffffffffffc011261016f576103686103096102b161014c565b600060606040516102c181610c62565b828152826020820152826040820152015260018060a01b03166000527f0980d88c0052fb539027d8f1c45d7ffc55ebdeff598d346025602914866910a8602052604060002090565b60036040519161031883610c62565b805483526001810154602084015260028101546040840152015460608201526040519182918291909160608060808301948051845260208101516020850152604081015160408501520151910152565b0390f35b3461016f576000367ffffffffffffffffffffffffffffffffffffffffffffffffffffffffffffffffc011261016f577f0980d88c0052fb539027d8f1c45d7ffc55ebdeff598d346025602914866910ad5460405173ffffffffffffffffffffffffffffffffffffffff9091168152602090f35b3461016f576040367ffffffffffffffffffffffffffffffffffffffffffffffffffffffffffffffffc011261016f5760206101e361041b61014c565b610423610174565b90610e8d565b60243590811515820361016f57565b3461016f576020367ffffffffffffffffffffffffffffffffffffffffffffffffffffffffffffffffc011261016f57600435801515810361016f5761047e606091610db3565b9060405192835260208301526040820152f35b6020908160408183019282815285518094520193019160005b8281106104b8575050505090565b835173ffffffffffffffffffffffffffffffffffffffff16855293810193928101926001016104aa565b3461016f576000367ffffffffffffffffffffffffffffffffffffffffffffffffffffffffffffffffc011261016f5761036861051c610d0f565b60405191829182610491565b3461016f576020367ffffffffffffffffffffffffffffffffffffffffffffffffffffffffffffffffc011261016f5760206101e361056461014c565b73ffffffffffffffffffffffffffffffffffffffff811660009081527f0980d88c0052fb539027d8f1c45d7ffc55ebdeff598d346025602914866910a48452604090205490611049565b3461016f576020367ffffffffffffffffffffffffffffffffffffffffffffffffffffffffffffffffc011261016f576103686105e861014c565b60409060008280516105f981610c94565b828152826020820152015260018060a01b03166000527f0980d88c0052fb539027d8f1c45d7ffc55ebdeff598d346025602914866910a7602052806000209060ff600182519361064885610c94565b8054855201546fffffffffffffffffffffffffffffffff8116602085015260801c16818301525191829182919091604060ff816060840195805185526fffffffffffffffffffffffffffffffff6020820151166020860152015116910152565b3461016f576040367ffffffffffffffffffffffffffffffffffffffffffffffffffffffffffffffffc011261016f576106df61014c565b6106e7610429565b906000916106f3610d0f565b91835b8351851015610753576107348373ffffffffffffffffffffffffffffffffffffffff6107228888611116565b511661072e8186610fc4565b90611322565b50810180911161074e5761074890946110e9565b936106f6565b6110d3565b602090604051908152f35b3461016f576000367ffffffffffffffffffffffffffffffffffffffffffffffffffffffffffffffffc011261016f57604051807f0980d88c0052fb539027d8f1c45d7ffc55ebdeff598d346025602914866910ac9182548082526020809201936000527f2e8d201d2fa3e4424fdc846a0bfa073ccad78b48f9e052b99654d713205ccdc1916000905b8282106107fe576103688561051c81890382610ccc565b835473ffffffffffffffffffffffffffffffffffffffff16865294850194600193840193909101906107e7565b3461016f576040367ffffffffffffffffffffffffffffffffffffffffffffffffffffffffffffffffc011261016f57602061088361086761014c565b61086f610429565b9061072e61087c82610bd6565b5482611049565b50604051908152f35b3461016f576060367ffffffffffffffffffffffffffffffffffffffffffffffffffffffffffffffffc011261016f576108c361014c565b6108cb610174565b90604435801515810361016f5782826108f3826108ed60209761088397610fc4565b92610e8d565b9081811115610903575090611322565b905090611322565b3461016f576020367ffffffffffffffffffffffffffffffffffffffffffffffffffffffffffffffffc011261016f5761094261014c565b60009061094d610d0f565b90825b82518410156107535761098d73ffffffffffffffffffffffffffffffffffffffff61097b8686611116565b51166109878185610e8d565b9061142a565b50810180911161074e576109a190936110e9565b92610950565b3461016f576040367ffffffffffffffffffffffffffffffffffffffffffffffffffffffffffffffffc011261016f5760206108836109e361014c565b6109876109ee610174565b8092610e8d565b3461016f576040367ffffffffffffffffffffffffffffffffffffffffffffffffffffffffffffffffc011261016f5760206101e3610a3161014c565b610a39610174565b90610fc4565b3461016f576040367ffffffffffffffffffffffffffffffffffffffffffffffffffffffffffffffffc011261016f57602060ff610ada610a7d61014c565b610a85610174565b73ffffffffffffffffffffffffffffffffffffffff91821660009081527f0980d88c0052fb539027d8f1c45d7ffc55ebdeff598d346025602914866910a9865260408082209290931681526020919091522090565b54166040519015158152f35b3461016f576020367ffffffffffffffffffffffffffffffffffffffffffffffffffffffffffffffffc011261016f5760206101e3610b2261014c565b610b2b81610bd6565b5490611049565b3461016f576040367ffffffffffffffffffffffffffffffffffffffffffffffffffffffffffffffffc011261016f5760206101e3610b6e61014c565b610b76610429565b90610b8a610b8382610b90565b54826115f4565b90611746565b73ffffffffffffffffffffffffffffffffffffffff1660009081527f0980d88c0052fb539027d8f1c45d7ffc55ebdeff598d346025602914866910a26020526040902090565b73ffffffffffffffffffffffffffffffffffffffff1660009081527f0980d88c0052fb539027d8f1c45d7ffc55ebdeff598d346025602914866910a36020526040902090565b73ffffffffffffffffffffffffffffffffffffffff1660009081527f5076ab9fa18d2a17cfce4375a530b76392de8264a11126885cd5534d39f0a9856020526040902090565b6080810190811067ffffffffffffffff821117610c7e57604052565b634e487b7160e01b600052604160045260246000fd5b6060810190811067ffffffffffffffff821117610c7e57604052565b60e0810190811067ffffffffffffffff821117610c7e57604052565b90601f8019910116810190811067ffffffffffffffff821117610c7e57604052565b60405190610100820182811067ffffffffffffffff821117610c7e57604052565b604051907f0980d88c0052fb539027d8f1c45d7ffc55ebdeff598d346025602914866910ab82815491828252602092838301916000527f0282ca8294215797dfb4535558523a498f073744e410c412e63f2ba506c0936f936000905b828210610d8357505050610d8192500383610ccc565b565b855473ffffffffffffffffffffffffffffffffffffffff1684526001958601958895509381019390910190610d6b565b90600091610dbf610d0f565b835b8151851015610e1557610dfb8373ffffffffffffffffffffffffffffffffffffffff610ded8886611116565b511661072e61087c82610bd6565b50810180911161074e57610e0f90946110e9565b93610dc1565b9350839291610e3391508015610e6657670de0b6b3a7640000611140565b918215610e5f57508160011c670de0b6b3a76400009081811904851184151761016f5783918502010490565b9250600090565b7f0980d88c0052fb539027d8f1c45d7ffc55ebdeff598d346025602914866910a054611140565b73ffffffffffffffffffffffffffffffffffffffff90811660009081527f0980d88c0052fb539027d8f1c45d7ffc55ebdeff598d346025602914866910a5602090815260408083209385168352929052908120909190610eec9061087c565b908115610fbf5773ffffffffffffffffffffffffffffffffffffffff1660009081527f0980d88c0052fb539027d8f1c45d7ffc55ebdeff598d346025602914866910a760205260409020600101546fffffffffffffffffffffffffffffffff169081157ffffffffffffffffffffffffffffffffffffffffffe6268e1b017bfe18bffffff8390048211151715610fbb576b033b2e3c9fd0803ce8000000916b019d971e4fe8401e74000000910201049050631dcd6500633b9aca0080830492061015610fb55790565b60010190565b8280fd5b505090565b9061102c90610fd38184610e8d565b73ffffffffffffffffffffffffffffffffffffffff93841660009081527f0980d88c0052fb539027d8f1c45d7ffc55ebdeff598d346025602914866910a660209081526040808320968516835295905293909320610b2b565b9080611039575050600090565b818110611044575090565b905090565b906110566110d092610c1c565b60046040519161106583610cb0565b80548352600181015473ffffffffffffffffffffffffffffffffffffffff90811660208501526002820154811660408501526003820154908116606085015260ff60a082901c811660808601526110c4915b60a81c16151560a0850152565b015460c08201526112a5565b90565b634e487b7160e01b600052601160045260246000fd5b7fffffffffffffffffffffffffffffffffffffffffffffffffffffffffffffffff811461074e5760010190565b805182101561112a5760209160051b010190565b634e487b7160e01b600052603260045260246000fd5b60009160405180817f0980d88c0052fb539027d8f1c45d7ffc55ebdeff598d346025602914866910ac80548084526020809401916000527f2e8d201d2fa3e4424fdc846a0bfa073ccad78b48f9e052b99654d713205ccdc1936000905b82821061122a575050506111b392500382610ccc565b6000935b815185101561120a576111f18373ffffffffffffffffffffffffffffffffffffffff6111e38886611116565b5116610b8a610b8382610b90565b810180911161074e5761120490946110e9565b936111b7565b93505050670de0b6b3a76400008114611226576110d09161125a565b5090565b855473ffffffffffffffffffffffffffffffffffffffff168452600195860195879550938101939091019061119d565b816706f05b59d3b2000019048111158215171561016f57670de0b6b3a764000091026706f05b59d3b20000010490565b9081602091031261016f575190565b6040513d6000823e3d90fd5b6060015173ffffffffffffffffffffffffffffffffffffffff16908115611044576020906024604051809481936303d1689d60e11b835260048301525afa90811561131d576000916112f5575090565b6110d0915060203d8111611316575b61130e8183610ccc565b81019061128a565b503d611304565b611299565b90611411611334611401959493610c1c565b61140c6040519361134485610cb0565b82548552600183015473ffffffffffffffffffffffffffffffffffffffff9081166020870152600284015490936004916113989086165b73ffffffffffffffffffffffffffffffffffffffff166040890152565b600381015494851673ffffffffffffffffffffffffffffffffffffffff1660608801526113e460ff60808901966113d7828260a01c16899060ff169052565b60a81c16151560a0890152565b015460c08601526114076113f7866114c5565b9889945160ff1690565b60ff1690565b611563565b61125a565b911561141c57509190565b516114269161125a565b9190565b611401929161140c61143e61142693610c1c565b916114076114bb60405161145181610cb0565b85548152600186015473ffffffffffffffffffffffffffffffffffffffff90811660208301526002870154811660408301526003870154908116606083015260ff60a082901c8116608084019081529760049290916114af916110b7565b015460c08201526114c5565b9687945160ff1690565b6020908101516040517f50d25bcd00000000000000000000000000000000000000000000000000000000815291908290600490829073ffffffffffffffffffffffffffffffffffffffff165afa90811561131d57600091611524575090565b906020823d821161154d575b8161153d60209383610ccc565b8101031261154a57505190565b80fd5b3d9150611530565b604d811161074e57600a0a90565b6012811015611594576012036012811161074e5761158090611555565b9081810291818304149015171561074e5790565b601281116115a0575090565b7fffffffffffffffffffffffffffffffffffffffffffffffffffffffffffffffee810190811161074e576115d390611555565b9081156115de570490565b634e487b7160e01b600052601260045260246000fd5b73ffffffffffffffffffffffffffffffffffffffff1660009081527f5076ab9fa18d2a17cfce4375a530b76392de8264a11126885cd5534d39f0a988602052604090206110d091906116e06116d7600761164c610cee565b84548152600185015473ffffffffffffffffffffffffffffffffffffffff16602082015293600281015473ffffffffffffffffffffffffffffffffffffffff16604086015260038101546060860152600481015473ffffffffffffffffffffffffffffffffffffffff166080860152600581015460a0860152600681015460c0860152015460ff1690565b151560e0830152565b608001516040517f07a2d13a00000000000000000000000000000000000000000000000000000000815260048101929092526020908290602490829073ffffffffffffffffffffffffffffffffffffffff165afa90811561131d576000916112f5575090565b73ffffffffffffffffffffffffffffffffffffffff1660009081527f5076ab9fa18d2a17cfce4375a530b76392de8264a11126885cd5534d39f0a9886020526040902061183f909161183661182d600761179e610cee565b86548152600187015473ffffffffffffffffffffffffffffffffffffffff1660208201529560028101546117e79073ffffffffffffffffffffffffffffffffffffffff1661137b565b60038101546060880152600481015473ffffffffffffffffffffffffffffffffffffffff166080880152600581015460a0880152600681015460c0880152015460ff1690565b151560e0850152565b61140c836114c5565b9115611849575090565b516110d09161125a56fea2646970667358221220081f4e67cca2519d2ef986d88f1bd1cf03be2c900beddf74b82340bc68ba677664736f6c63430008130033",
  "devdoc": {
    "author": "Kresko",
    "kind": "dev",
    "methods": {
      "getPoolAccountDepositsValue(address,address,bool)": {
        "params": {
          "_account": "The account.",
          "_collateralAsset": "The collateral asset",
          "_ignoreFactors": "Ignore factors when calculating collateral value."
        }
      },
      "getPoolAccountDepositsValueWithFees(address,address)": {
        "params": {
          "_account": "The account.",
          "_collateralAsset": "The collateral asset"
        }
      },
      "getPoolAccountDepositsWithFees(address,address)": {
        "params": {
          "_account": "The account.",
          "_collateralAsset": "The collateral asset."
        }
      },
      "getPoolAccountPrincipalDeposits(address,address)": {
        "params": {
          "_account": "The account.",
          "_collateralAsset": "The collateral asset"
        }
      },
      "getPoolAccountTotalDepositsValue(address,bool)": {
        "params": {
          "_account": "The account.",
          "_ignoreFactors": "Ignore factors when calculating collateral value."
        }
      },
      "getPoolAccountTotalDepositsValueWithFees(address)": {
        "params": {
          "_account": "The account."
        }
      },
      "getPoolCollateral(address)": {
        "params": {
          "_collateralAsset": "The collateral asset"
        }
      },
      "getPoolDebt(address)": {
        "params": {
          "_kreskoAsset": "The KreskoAsset"
        }
      },
      "getPoolDebtValue(address,bool)": {
        "params": {
          "_ignoreFactors": "Ignore factors when calculating collateral and debt value.",
          "_kreskoAsset": "The KreskoAsset"
        }
      },
      "getPoolDeposits(address)": {
        "params": {
          "_collateralAsset": "The collateral asset"
        }
      },
      "getPoolDepositsValue(address,bool)": {
        "params": {
          "_collateralAsset": "The collateral asset",
          "_ignoreFactors": "Ignore factors when calculating collateral and debt value."
        }
      },
      "getPoolIsSwapEnabled(address,address)": {
        "params": {
          "_assetIn": "The asset to swap from",
          "_assetOut": "The asset to swap to"
        }
      },
      "getPoolKrAsset(address)": {
        "params": {
          "_krAsset": "The collateral asset"
        }
      },
      "getPoolStats(bool)": {
        "params": {
          "_ignoreFactors": "Ignore factors when calculating collateral and debt value."
        }
      },
      "getPoolSwapDeposits(address)": {
        "params": {
          "_collateralAsset": "The collateral asset"
        }
      }
    },
    "title": "CollateralPoolStateFacet",
    "version": 1
  },
  "userdoc": {
    "kind": "user",
    "methods": {
      "getPoolAccountDepositsValue(address,address,bool)": {
        "notice": "Get the  collateral deposit value for `_account`"
      },
      "getPoolAccountDepositsValueWithFees(address,address)": {
        "notice": "Get the full value of account and fees for `_account`"
      },
      "getPoolAccountDepositsWithFees(address,address)": {
        "notice": "Get the collateral pool balance for `_account`."
      },
      "getPoolAccountPrincipalDeposits(address,address)": {
        "notice": "Get the total collateral principal for `_account`"
      },
      "getPoolAccountTotalDepositsValue(address,bool)": {
        "notice": "Get the total collateral deposit value for `_account`"
      },
      "getPoolAccountTotalDepositsValueWithFees(address)": {
        "notice": "Get the full value of account and fees for `_account`"
      },
      "getPoolAssetIsEnabled(address)": {
        "notice": "Get enabled state of asset"
      },
      "getPoolCollateral(address)": {
        "notice": "Get the collateral configuration for `_collateralAsset`"
      },
      "getPoolCollateralAssets()": {
        "notice": "Get all pool CollateralAssets"
      },
      "getPoolDebt(address)": {
        "notice": "Get the collateral debt amount for `_kreskoAsset`"
      },
      "getPoolDebtValue(address,bool)": {
        "notice": "Get the collateral debt value for `_kreskoAsset`"
      },
      "getPoolDeposits(address)": {
        "notice": "Get the total collateral deposits for `_collateralAsset`"
      },
      "getPoolDepositsValue(address,bool)": {
        "notice": "Get the total collateral deposit value for `_collateralAsset`"
      },
      "getPoolIsSwapEnabled(address,address)": {
        "notice": "Get whether swap is enabled from `_assetIn` to `_assetOut`"
      },
      "getPoolKrAsset(address)": {
        "notice": "Get the collateral configuration for `_krAsset`"
      },
      "getPoolKrAssets()": {
        "notice": "Get all pool KreskoAssets"
      },
      "getPoolStats(bool)": {
        "notice": "Get pool collateral value, debt value and resulting CR."
      },
      "getPoolSwapDeposits(address)": {
        "notice": "Get the total collateral swap deposits for `_collateralAsset`"
      },
      "getPoolSwapFeeRecipient()": {
        "notice": "Get the swap fee recipient"
      }
    },
    "notice": "This facet is used to view the state of the collateral pool.",
    "version": 1
  },
  "storageLayout": {
    "storage": [],
    "types": null
  }
}