{
  "address": "0xd685069f4Ee802776454A826E3eE567f5117da63",
  "abi": [
    {
      "inputs": [
        {
          "internalType": "address",
          "name": "_collateralAsset",
          "type": "address"
        },
        {
          "internalType": "address",
          "name": "_anchor",
          "type": "address"
        },
        {
          "internalType": "uint256",
          "name": "_factor",
          "type": "uint256"
        },
        {
          "internalType": "address",
          "name": "_priceFeedOracle",
          "type": "address"
        },
        {
          "internalType": "address",
          "name": "_marketStatusOracle",
          "type": "address"
        }
      ],
      "name": "addCollateralAsset",
      "outputs": [],
      "stateMutability": "nonpayable",
      "type": "function"
    },
    {
      "inputs": [
        {
          "internalType": "address",
          "name": "_krAsset",
          "type": "address"
        },
        {
          "internalType": "address",
          "name": "_anchor",
          "type": "address"
        },
        {
          "internalType": "uint256",
          "name": "_kFactor",
          "type": "uint256"
        },
        {
          "internalType": "address",
          "name": "_priceFeedOracle",
          "type": "address"
        },
        {
          "internalType": "address",
          "name": "_marketStatusOracle",
          "type": "address"
        },
        {
          "internalType": "uint256",
          "name": "_supplyLimit",
          "type": "uint256"
        },
        {
          "internalType": "uint256",
          "name": "_closeFee",
          "type": "uint256"
        },
        {
          "internalType": "uint256",
          "name": "_openFee",
          "type": "uint256"
        }
      ],
      "name": "addKreskoAsset",
      "outputs": [],
      "stateMutability": "nonpayable",
      "type": "function"
    },
    {
      "inputs": [
        {
          "components": [
            {
              "internalType": "address",
              "name": "operator",
              "type": "address"
            },
            {
              "internalType": "address",
              "name": "council",
              "type": "address"
            },
            {
              "internalType": "address",
              "name": "feeRecipient",
              "type": "address"
            },
            {
              "internalType": "uint8",
              "name": "extOracleDecimals",
              "type": "uint8"
            },
            {
              "internalType": "uint256",
              "name": "liquidationIncentiveMultiplier",
              "type": "uint256"
            },
            {
              "internalType": "uint256",
              "name": "minimumCollateralizationRatio",
              "type": "uint256"
            },
            {
              "internalType": "uint256",
              "name": "minimumDebtValue",
              "type": "uint256"
            },
            {
              "internalType": "uint256",
              "name": "liquidationThreshold",
              "type": "uint256"
            }
          ],
          "internalType": "struct MinterInitArgs",
          "name": "args",
          "type": "tuple"
        }
      ],
      "name": "initialize",
      "outputs": [],
      "stateMutability": "nonpayable",
      "type": "function"
    },
    {
      "inputs": [
        {
          "internalType": "address",
          "name": "_ammOracle",
          "type": "address"
        }
      ],
      "name": "updateAMMOracle",
      "outputs": [],
      "stateMutability": "nonpayable",
      "type": "function"
    },
    {
      "inputs": [
        {
          "internalType": "address",
          "name": "_collateralAsset",
          "type": "address"
        },
        {
          "internalType": "address",
          "name": "_anchor",
          "type": "address"
        },
        {
          "internalType": "uint256",
          "name": "_factor",
          "type": "uint256"
        },
        {
          "internalType": "address",
          "name": "_priceFeedOracle",
          "type": "address"
        },
        {
          "internalType": "address",
          "name": "_marketStatusOracle",
          "type": "address"
        }
      ],
      "name": "updateCollateralAsset",
      "outputs": [],
      "stateMutability": "nonpayable",
      "type": "function"
    },
    {
      "inputs": [
        {
          "internalType": "uint8",
          "name": "_decimals",
          "type": "uint8"
        }
      ],
      "name": "updateExtOracleDecimals",
      "outputs": [],
      "stateMutability": "nonpayable",
      "type": "function"
    },
    {
      "inputs": [
        {
          "internalType": "address",
          "name": "_feeRecipient",
          "type": "address"
        }
      ],
      "name": "updateFeeRecipient",
      "outputs": [],
      "stateMutability": "nonpayable",
      "type": "function"
    },
    {
      "inputs": [
        {
          "internalType": "address",
          "name": "_krAsset",
          "type": "address"
        },
        {
          "internalType": "address",
          "name": "_anchor",
          "type": "address"
        },
        {
          "internalType": "uint256",
          "name": "_kFactor",
          "type": "uint256"
        },
        {
          "internalType": "address",
          "name": "_priceFeedOracle",
          "type": "address"
        },
        {
          "internalType": "address",
          "name": "_marketStatusOracle",
          "type": "address"
        },
        {
          "internalType": "uint256",
          "name": "_supplyLimit",
          "type": "uint256"
        },
        {
          "internalType": "uint256",
          "name": "_closeFee",
          "type": "uint256"
        },
        {
          "internalType": "uint256",
          "name": "_openFee",
          "type": "uint256"
        }
      ],
      "name": "updateKreskoAsset",
      "outputs": [],
      "stateMutability": "nonpayable",
      "type": "function"
    },
    {
      "inputs": [
        {
          "internalType": "uint256",
          "name": "_liquidationIncentiveMultiplier",
          "type": "uint256"
        }
      ],
      "name": "updateLiquidationIncentiveMultiplier",
      "outputs": [],
      "stateMutability": "nonpayable",
      "type": "function"
    },
    {
      "inputs": [
        {
          "internalType": "uint256",
          "name": "_liquidationThreshold",
          "type": "uint256"
        }
      ],
      "name": "updateLiquidationThreshold",
      "outputs": [],
      "stateMutability": "nonpayable",
      "type": "function"
    },
    {
      "inputs": [
        {
          "internalType": "uint256",
          "name": "_minimumCollateralizationRatio",
          "type": "uint256"
        }
      ],
      "name": "updateMinimumCollateralizationRatio",
      "outputs": [],
      "stateMutability": "nonpayable",
      "type": "function"
    },
    {
      "inputs": [
        {
          "internalType": "uint256",
          "name": "_minimumDebtValue",
          "type": "uint256"
        }
      ],
      "name": "updateMinimumDebtValue",
      "outputs": [],
      "stateMutability": "nonpayable",
      "type": "function"
    }
  ],
  "transactionHash": "0xe1b79e51193d48113632cca7528c4a966232220e030025b9e1d647ded3ac4ebc",
  "args": [],
  "numDeployments": 1,
  "solcInputHash": "1e9d8a3d1ac2e98cc6ae75571f3527fa",
  "bytecode": "0x608060405234801561001057600080fd5b506147c1806100206000396000f3fe608060405234801561001057600080fd5b50600436106100b45760003560e01c8063d3b5be1a11610071578063d3b5be1a14610161578063d45371271461017d578063ee67e41c14610199578063f160d369146101b5578063f9bbba4a146101d1578063fc684962146101ed576100b4565b80630372982f146100b957806312dd8bdb146100d55780633a2d4eb6146100f15780636a0ae3721461010d57806385fc641d14610129578063998ed60e14610145575b600080fd5b6100d360048036038101906100ce9190613c66565b610209565b005b6100ef60048036038101906100ea9190613cca565b61057f565b005b61010b60048036038101906101069190613cca565b610706565b005b61012760048036038101906101229190613d55565b610809565b005b610143600480360381019061013e9190613dd0565b611095565b005b61015f600480360381019061015a9190613dd0565b611a5b565b005b61017b60048036038101906101769190613cca565b61230c565b005b61019760048036038101906101929190613d55565b61243b565b005b6101b360048036038101906101ae9190613e86565b612991565b005b6101cf60048036038101906101ca9190613e86565b612afa565b005b6101eb60048036038101906101e69190613cca565b612c61565b005b61020760048036038101906102029190613eec565b612d65565b005b610211612e65565b60060160009054906101000a900473ffffffffffffffffffffffffffffffffffffffff1673ffffffffffffffffffffffffffffffffffffffff16610253612e92565b73ffffffffffffffffffffffffffffffffffffffff16146040518060400160405280602081526020017f6b724469616d6f6e643a204d757374206265206469616d6f6e64206f776e6572815250906102e1576040517f08c379a00000000000000000000000000000000000000000000000000000000081526004016102d89190613fb2565b60405180910390fd5b5060006102ec612f42565b60000154146040518060400160405280600381526020017f313035000000000000000000000000000000000000000000000000000000000081525090610368576040517f08c379a000000000000000000000000000000000000000000000000000000000815260040161035f9190613fb2565b60405180910390fd5b506103a87f112e48a576fb3a75acc75d9fcf6e0bc670b27b1dbcd2463502e10e68cf57d6fd60001b8260000160208101906103a39190613e86565b612f6f565b6103c38160200160208101906103be9190613e86565b613129565b6103f07f112e48a576fb3a75acc75d9fcf6e0bc670b27b1dbcd2463502e10e68cf57d6fd60001b33612f6f565b61040b8160400160208101906104069190613e86565b612afa565b610418816080013561057f565b6104258160a00135610706565b6104328160c00135612c61565b61043f8160e0013561230c565b61045a8160600160208101906104559190613eec565b612d65565b6104877f112e48a576fb3a75acc75d9fcf6e0bc670b27b1dbcd2463502e10e68cf57d6fd60001b33613434565b6001610491612f42565b6000018190555061050c6040518060400160405280600d81526020017f4b7265736b6f204d696e746572000000000000000000000000000000000000008152506040518060400160405280600281526020017f5631000000000000000000000000000000000000000000000000000000000000815250613482565b610514612f42565b6001018190555080600001602081019061052e9190613e86565b73ffffffffffffffffffffffffffffffffffffffff167f91d493a38a37c26f1d48ee98b1ec0af796b36f960ef63328655fb91b1541f50d60016040516105749190614019565b60405180910390a250565b7f112e48a576fb3a75acc75d9fcf6e0bc670b27b1dbcd2463502e10e68cf57d6fd60001b6105ac816134ef565b670de0b6b3a76400008210156040518060400160405280600381526020017f32313400000000000000000000000000000000000000000000000000000000008152509061062f576040517f08c379a00000000000000000000000000000000000000000000000000000000081526004016106269190613fb2565b60405180910390fd5b50671158e460913d00008211156040518060400160405280600381526020017f3231350000000000000000000000000000000000000000000000000000000000815250906106b3576040517f08c379a00000000000000000000000000000000000000000000000000000000081526004016106aa9190613fb2565b60405180910390fd5b506106bd82613503565b6106c5612f42565b60030160008201518160000155905050817f1b7b34c6d204ac91d0799a1082c5bb302148abed8cf3aca473c01e7e2b44437460405160405180910390a25050565b7f112e48a576fb3a75acc75d9fcf6e0bc670b27b1dbcd2463502e10e68cf57d6fd60001b610733816134ef565b670de0b6b3a76400008210156040518060400160405280600381526020017f3231360000000000000000000000000000000000000000000000000000000000815250906107b6576040517f08c379a00000000000000000000000000000000000000000000000000000000081526004016107ad9190613fb2565b60405180910390fd5b506107c082613503565b6107c8612f42565b60040160008201518160000155905050817f05eb44cf9a95cea4348c602716dd1baaf91d47819d797cffe9ada14069da8e0e60405160405180910390a25050565b6001610813612e65565b600b0154146040518060400160405280600381526020017f31303600000000000000000000000000000000000000000000000000000000008152509061088f576040517f08c379a00000000000000000000000000000000000000000000000000000000081526004016108869190613fb2565b60405180910390fd5b50600261089a612e65565b600b01819055507f112e48a576fb3a75acc75d9fcf6e0bc670b27b1dbcd2463502e10e68cf57d6fd60001b6108ce816134ef565b856108d7612f42565b60090160008273ffffffffffffffffffffffffffffffffffffffff1673ffffffffffffffffffffffffffffffffffffffff16815260200190815260200160002060030160159054906101000a900460ff16156040518060400160405280600381526020017f3230370000000000000000000000000000000000000000000000000000000000815250906109a0576040517f08c379a00000000000000000000000000000000000000000000000000000000081526004016109979190613fb2565b60405180910390fd5b50600073ffffffffffffffffffffffffffffffffffffffff168773ffffffffffffffffffffffffffffffffffffffff1614156040518060400160405280600381526020017f323036000000000000000000000000000000000000000000000000000000000081525090610a49576040517f08c379a0000000000000000000000000000000000000000000000000000000008152600401610a409190613fb2565b60405180910390fd5b50600073ffffffffffffffffffffffffffffffffffffffff168473ffffffffffffffffffffffffffffffffffffffff1614156040518060400160405280600381526020017f323033000000000000000000000000000000000000000000000000000000000081525090610af2576040517f08c379a0000000000000000000000000000000000000000000000000000000008152600401610ae99190613fb2565b60405180910390fd5b506012600a610b019190614196565b8511156040518060400160405280600381526020017f323038000000000000000000000000000000000000000000000000000000000081525090610b7b576040517f08c379a0000000000000000000000000000000000000000000000000000000008152600401610b729190613fb2565b60405180910390fd5b506000610b86612f42565b600c0160008973ffffffffffffffffffffffffffffffffffffffff1673ffffffffffffffffffffffffffffffffffffffff16815260200190815260200160002060070160009054906101000a900460ff169050801580610c7c57508773ffffffffffffffffffffffffffffffffffffffff166301ffc9a77f5c2b4dfd000000000000000000000000000000000000000000000000000000006040518263ffffffff1660e01b8152600401610c3a919061421c565b602060405180830381865afa158015610c57573d6000803e3d6000fd5b505050506040513d601f19601f82011682018060405250810190610c7b919061426f565b5b80610d1d57508673ffffffffffffffffffffffffffffffffffffffff166301ffc9a77ffa3ebfaf000000000000000000000000000000000000000000000000000000006040518263ffffffff1660e01b8152600401610cdb919061421c565b602060405180830381865afa158015610cf8573d6000803e3d6000fd5b505050506040513d601f19601f82011682018060405250810190610d1c919061426f565b5b6040518060400160405280600381526020017f323430000000000000000000000000000000000000000000000000000000000081525090610d94576040517f08c379a0000000000000000000000000000000000000000000000000000000008152600401610d8b9190613fb2565b60405180910390fd5b506040518060c0016040528060405180602001604052808981525081526020018673ffffffffffffffffffffffffffffffffffffffff1681526020018573ffffffffffffffffffffffffffffffffffffffff1681526020018873ffffffffffffffffffffffffffffffffffffffff1681526020018973ffffffffffffffffffffffffffffffffffffffff1663313ce5676040518163ffffffff1660e01b8152600401602060405180830381865afa158015610e53573d6000803e3d6000fd5b505050506040513d601f19601f82011682018060405250810190610e7791906142b1565b60ff16815260200160011515815250610e8e612f42565b60090160008a73ffffffffffffffffffffffffffffffffffffffff1673ffffffffffffffffffffffffffffffffffffffff16815260200190815260200160002060008201518160000160008201518160000155505060208201518160010160006101000a81548173ffffffffffffffffffffffffffffffffffffffff021916908373ffffffffffffffffffffffffffffffffffffffff16021790555060408201518160020160006101000a81548173ffffffffffffffffffffffffffffffffffffffff021916908373ffffffffffffffffffffffffffffffffffffffff16021790555060608201518160030160006101000a81548173ffffffffffffffffffffffffffffffffffffffff021916908373ffffffffffffffffffffffffffffffffffffffff16021790555060808201518160030160146101000a81548160ff021916908360ff16021790555060a08201518160030160156101000a81548160ff0219169083151502179055509050508373ffffffffffffffffffffffffffffffffffffffff168573ffffffffffffffffffffffffffffffffffffffff168973ffffffffffffffffffffffffffffffffffffffff167fc6ccb906d714c7ed5c4cd899ad2ce97fce7599c4c4d211d90904da8327e54dd5898b6040516110729291906142fc565b60405180910390a45050506001611087612e65565b600b01819055505050505050565b7f112e48a576fb3a75acc75d9fcf6e0bc670b27b1dbcd2463502e10e68cf57d6fd60001b6110c2816134ef565b886110cb612f42565b600c0160008273ffffffffffffffffffffffffffffffffffffffff1673ffffffffffffffffffffffffffffffffffffffff16815260200190815260200160002060070160009054906101000a900460ff16156040518060400160405280600381526020017f323132000000000000000000000000000000000000000000000000000000000081525090611194576040517f08c379a000000000000000000000000000000000000000000000000000000000815260040161118b9190613fb2565b60405180910390fd5b506012600a6111a39190614196565b8810156040518060400160405280600381526020017f32313000000000000000000000000000000000000000000000000000000000008152509061121d576040517f08c379a00000000000000000000000000000000000000000000000000000000081526004016112149190613fb2565b60405180910390fd5b50600073ffffffffffffffffffffffffffffffffffffffff168773ffffffffffffffffffffffffffffffffffffffff1614156040518060400160405280600381526020017f3230330000000000000000000000000000000000000000000000000000000000815250906112c6576040517f08c379a00000000000000000000000000000000000000000000000000000000081526004016112bd9190613fb2565b60405180910390fd5b5067016345785d8a00008411156040518060400160405280600381526020017f32313300000000000000000000000000000000000000000000000000000000008152509061134a576040517f08c379a00000000000000000000000000000000000000000000000000000000081526004016113419190613fb2565b60405180910390fd5b5067016345785d8a00008311156040518060400160405280600381526020017f3233380000000000000000000000000000000000000000000000000000000000815250906113ce576040517f08c379a00000000000000000000000000000000000000000000000000000000081526004016113c59190613fb2565b60405180910390fd5b508973ffffffffffffffffffffffffffffffffffffffff166301ffc9a77f5c2b4dfd000000000000000000000000000000000000000000000000000000006040518263ffffffff1660e01b8152600401611428919061421c565b602060405180830381865afa158015611445573d6000803e3d6000fd5b505050506040513d601f19601f82011682018060405250810190611469919061426f565b8061150a57508973ffffffffffffffffffffffffffffffffffffffff166301ffc9a77f4930815a000000000000000000000000000000000000000000000000000000006040518263ffffffff1660e01b81526004016114c8919061421c565b602060405180830381865afa1580156114e5573d6000803e3d6000fd5b505050506040513d601f19601f82011682018060405250810190611509919061426f565b5b6040518060400160405280600381526020017f323431000000000000000000000000000000000000000000000000000000000081525090611581576040517f08c379a00000000000000000000000000000000000000000000000000000000081526004016115789190613fb2565b60405180910390fd5b508873ffffffffffffffffffffffffffffffffffffffff166301ffc9a77ffa3ebfaf000000000000000000000000000000000000000000000000000000006040518263ffffffff1660e01b81526004016115db919061421c565b602060405180830381865afa1580156115f8573d6000803e3d6000fd5b505050506040513d601f19601f8201168201806040525081019061161c919061426f565b6040518060400160405280600381526020017f323430000000000000000000000000000000000000000000000000000000000081525090611693576040517f08c379a000000000000000000000000000000000000000000000000000000000815260040161168a9190613fb2565b60405180910390fd5b508973ffffffffffffffffffffffffffffffffffffffff166391d148547f112e48a576fb3a75acc75d9fcf6e0bc670b27b1dbcd2463502e10e68cf57d6fd60001b306040518363ffffffff1660e01b81526004016116f292919061433e565b602060405180830381865afa15801561170f573d6000803e3d6000fd5b505050506040513d601f19601f82011682018060405250810190611733919061426f565b6040518060400160405280600381526020017f3130310000000000000000000000000000000000000000000000000000000000815250906117aa576040517f08c379a00000000000000000000000000000000000000000000000000000000081526004016117a19190613fb2565b60405180910390fd5b506040518061010001604052806117c08a613503565b81526020018873ffffffffffffffffffffffffffffffffffffffff1681526020018773ffffffffffffffffffffffffffffffffffffffff1681526020018681526020018a73ffffffffffffffffffffffffffffffffffffffff16815260200161182886613503565b815260200161183685613503565b81526020016001151581525061184a612f42565b600c0160008c73ffffffffffffffffffffffffffffffffffffffff1673ffffffffffffffffffffffffffffffffffffffff16815260200190815260200160002060008201518160000160008201518160000155505060208201518160010160006101000a81548173ffffffffffffffffffffffffffffffffffffffff021916908373ffffffffffffffffffffffffffffffffffffffff16021790555060408201518160020160006101000a81548173ffffffffffffffffffffffffffffffffffffffff021916908373ffffffffffffffffffffffffffffffffffffffff1602179055506060820151816003015560808201518160040160006101000a81548173ffffffffffffffffffffffffffffffffffffffff021916908373ffffffffffffffffffffffffffffffffffffffff16021790555060a08201518160050160008201518160000155505060c08201518160060160008201518160000155505060e08201518160070160006101000a81548160ff0219169083151502179055509050508573ffffffffffffffffffffffffffffffffffffffff168773ffffffffffffffffffffffffffffffffffffffff168b73ffffffffffffffffffffffffffffffffffffffff167fd675969286a0906d644d8312bde6c30cc3d15ffce0685a82a172c6b52fb4f5458c8c8a8a8a604051611a47959493929190614367565b60405180910390a450505050505050505050565b7f112e48a576fb3a75acc75d9fcf6e0bc670b27b1dbcd2463502e10e68cf57d6fd60001b611a88816134ef565b88611a91612f42565b600c0160008273ffffffffffffffffffffffffffffffffffffffff1673ffffffffffffffffffffffffffffffffffffffff16815260200190815260200160002060070160009054906101000a900460ff166040518060400160405280600381526020017f323139000000000000000000000000000000000000000000000000000000000081525090611b59576040517f08c379a0000000000000000000000000000000000000000000000000000000008152600401611b509190613fb2565b60405180910390fd5b506012600a611b689190614196565b8810156040518060400160405280600381526020017f323130000000000000000000000000000000000000000000000000000000000081525090611be2576040517f08c379a0000000000000000000000000000000000000000000000000000000008152600401611bd99190613fb2565b60405180910390fd5b50600073ffffffffffffffffffffffffffffffffffffffff168773ffffffffffffffffffffffffffffffffffffffff1614156040518060400160405280600381526020017f323033000000000000000000000000000000000000000000000000000000000081525090611c8b576040517f08c379a0000000000000000000000000000000000000000000000000000000008152600401611c829190613fb2565b60405180910390fd5b5067016345785d8a00008411156040518060400160405280600381526020017f323133000000000000000000000000000000000000000000000000000000000081525090611d0f576040517f08c379a0000000000000000000000000000000000000000000000000000000008152600401611d069190613fb2565b60405180910390fd5b5067016345785d8a00008311156040518060400160405280600381526020017f323338000000000000000000000000000000000000000000000000000000000081525090611d93576040517f08c379a0000000000000000000000000000000000000000000000000000000008152600401611d8a9190613fb2565b60405180910390fd5b506000611d9e612f42565b600c0160008c73ffffffffffffffffffffffffffffffffffffffff1673ffffffffffffffffffffffffffffffffffffffff168152602001908152602001600020604051806101000160405290816000820160405180602001604052908160008201548152505081526020016001820160009054906101000a900473ffffffffffffffffffffffffffffffffffffffff1673ffffffffffffffffffffffffffffffffffffffff1673ffffffffffffffffffffffffffffffffffffffff1681526020016002820160009054906101000a900473ffffffffffffffffffffffffffffffffffffffff1673ffffffffffffffffffffffffffffffffffffffff1673ffffffffffffffffffffffffffffffffffffffff168152602001600382015481526020016004820160009054906101000a900473ffffffffffffffffffffffffffffffffffffffff1673ffffffffffffffffffffffffffffffffffffffff1673ffffffffffffffffffffffffffffffffffffffff1681526020016005820160405180602001604052908160008201548152505081526020016006820160405180602001604052908160008201548152505081526020016007820160009054906101000a900460ff1615151515815250509050600073ffffffffffffffffffffffffffffffffffffffff168a73ffffffffffffffffffffffffffffffffffffffff1614611fda5789816080019073ffffffffffffffffffffffffffffffffffffffff16908173ffffffffffffffffffffffffffffffffffffffff16815250505b600073ffffffffffffffffffffffffffffffffffffffff168873ffffffffffffffffffffffffffffffffffffffff16146120475787816020019073ffffffffffffffffffffffffffffffffffffffff16908173ffffffffffffffffffffffffffffffffffffffff16815250505b600073ffffffffffffffffffffffffffffffffffffffff168773ffffffffffffffffffffffffffffffffffffffff16146120b45786816040019073ffffffffffffffffffffffffffffffffffffffff16908173ffffffffffffffffffffffffffffffffffffffff16815250505b6120bd89613503565b8160000181905250858160600181815250506120d885613503565b8160a001819052506120e984613503565b8160c00181905250806120fa612f42565b600c0160008d73ffffffffffffffffffffffffffffffffffffffff1673ffffffffffffffffffffffffffffffffffffffff16815260200190815260200160002060008201518160000160008201518160000155505060208201518160010160006101000a81548173ffffffffffffffffffffffffffffffffffffffff021916908373ffffffffffffffffffffffffffffffffffffffff16021790555060408201518160020160006101000a81548173ffffffffffffffffffffffffffffffffffffffff021916908373ffffffffffffffffffffffffffffffffffffffff1602179055506060820151816003015560808201518160040160006101000a81548173ffffffffffffffffffffffffffffffffffffffff021916908373ffffffffffffffffffffffffffffffffffffffff16021790555060a08201518160050160008201518160000155505060c08201518160060160008201518160000155505060e08201518160070160006101000a81548160ff0219169083151502179055509050508673ffffffffffffffffffffffffffffffffffffffff168873ffffffffffffffffffffffffffffffffffffffff168c73ffffffffffffffffffffffffffffffffffffffff167fa19d3289415a900fbfef54f655d34d675e4ca42ad2fef43a6adf12962ecae7e68d8d8b8b8b6040516122f7959493929190614367565b60405180910390a45050505050505050505050565b7f112e48a576fb3a75acc75d9fcf6e0bc670b27b1dbcd2463502e10e68cf57d6fd60001b612339816134ef565b600061234483613503565b9050612378612351612f42565b6004016040518060200160405290816000820154815250508261352190919063ffffffff16565b6040518060400160405280600381526020017f3233350000000000000000000000000000000000000000000000000000000000815250906123ef576040517f08c379a00000000000000000000000000000000000000000000000000000000081526004016123e69190613fb2565b60405180910390fd5b50806123f9612f42565b60060160008201518160000155905050827feba9f700db57a60a859189ecad4492254a5045e5cae74167bae53564fdea10ca60405160405180910390a2505050565b7f112e48a576fb3a75acc75d9fcf6e0bc670b27b1dbcd2463502e10e68cf57d6fd60001b612468816134ef565b85612471612f42565b60090160008273ffffffffffffffffffffffffffffffffffffffff1673ffffffffffffffffffffffffffffffffffffffff16815260200190815260200160002060030160159054906101000a900460ff166040518060400160405280600381526020017f323138000000000000000000000000000000000000000000000000000000000081525090612539576040517f08c379a00000000000000000000000000000000000000000000000000000000081526004016125309190613fb2565b60405180910390fd5b50600073ffffffffffffffffffffffffffffffffffffffff168473ffffffffffffffffffffffffffffffffffffffff1614156040518060400160405280600381526020017f3230330000000000000000000000000000000000000000000000000000000000815250906125e2576040517f08c379a00000000000000000000000000000000000000000000000000000000081526004016125d99190613fb2565b60405180910390fd5b506012600a6125f19190614196565b8511156040518060400160405280600381526020017f32303800000000000000000000000000000000000000000000000000000000008152509061266b576040517f08c379a00000000000000000000000000000000000000000000000000000000081526004016126629190613fb2565b60405180910390fd5b50600073ffffffffffffffffffffffffffffffffffffffff168673ffffffffffffffffffffffffffffffffffffffff161461272b57856126a9612f42565b60090160008973ffffffffffffffffffffffffffffffffffffffff1673ffffffffffffffffffffffffffffffffffffffff16815260200190815260200160002060030160006101000a81548173ffffffffffffffffffffffffffffffffffffffff021916908373ffffffffffffffffffffffffffffffffffffffff1602179055505b600073ffffffffffffffffffffffffffffffffffffffff168373ffffffffffffffffffffffffffffffffffffffff16146127ea5782612768612f42565b60090160008973ffffffffffffffffffffffffffffffffffffffff1673ffffffffffffffffffffffffffffffffffffffff16815260200190815260200160002060020160006101000a81548173ffffffffffffffffffffffffffffffffffffffff021916908373ffffffffffffffffffffffffffffffffffffffff1602179055505b600073ffffffffffffffffffffffffffffffffffffffff168473ffffffffffffffffffffffffffffffffffffffff16146128a95783612827612f42565b60090160008973ffffffffffffffffffffffffffffffffffffffff1673ffffffffffffffffffffffffffffffffffffffff16815260200190815260200160002060010160006101000a81548173ffffffffffffffffffffffffffffffffffffffff021916908373ffffffffffffffffffffffffffffffffffffffff1602179055505b6128b285613503565b6128ba612f42565b60090160008973ffffffffffffffffffffffffffffffffffffffff1673ffffffffffffffffffffffffffffffffffffffff168152602001908152602001600020600001600082015181600001559050508273ffffffffffffffffffffffffffffffffffffffff168473ffffffffffffffffffffffffffffffffffffffff168873ffffffffffffffffffffffffffffffffffffffff167fd6fa6cea797bc7cbc3da51273910ca1e6694f43ff766d1192cdf2b928084832b888a6040516129809291906142fc565b60405180910390a450505050505050565b612999612e65565b60060160009054906101000a900473ffffffffffffffffffffffffffffffffffffffff1673ffffffffffffffffffffffffffffffffffffffff166129db612e92565b73ffffffffffffffffffffffffffffffffffffffff16146040518060400160405280602081526020017f6b724469616d6f6e643a204d757374206265206469616d6f6e64206f776e657281525090612a69576040517f08c379a0000000000000000000000000000000000000000000000000000000008152600401612a609190613fb2565b60405180910390fd5b5080612a73612f42565b600f0160006101000a81548173ffffffffffffffffffffffffffffffffffffffff021916908373ffffffffffffffffffffffffffffffffffffffff1602179055508073ffffffffffffffffffffffffffffffffffffffff167fa2d0ed6a86e183f78b61f1d5e3b3bfacae9406c078748022c8a92076d655efcf60405160405180910390a250565b7f112e48a576fb3a75acc75d9fcf6e0bc670b27b1dbcd2463502e10e68cf57d6fd60001b612b27816134ef565b600073ffffffffffffffffffffffffffffffffffffffff168273ffffffffffffffffffffffffffffffffffffffff1614156040518060400160405280600381526020017f323035000000000000000000000000000000000000000000000000000000000081525090612bcf576040517f08c379a0000000000000000000000000000000000000000000000000000000008152600401612bc69190613fb2565b60405180910390fd5b5081612bd9612f42565b60020160006101000a81548173ffffffffffffffffffffffffffffffffffffffff021916908373ffffffffffffffffffffffffffffffffffffffff1602179055508173ffffffffffffffffffffffffffffffffffffffff167f7a7b5a0a132f9e0581eb8527f66eae9ee89c2a3e79d4ac7e41a1f1f4d48a7fc260405160405180910390a25050565b7f112e48a576fb3a75acc75d9fcf6e0bc670b27b1dbcd2463502e10e68cf57d6fd60001b612c8e816134ef565b683635c9adc5dea000008211156040518060400160405280600381526020017f323137000000000000000000000000000000000000000000000000000000000081525090612d12576040517f08c379a0000000000000000000000000000000000000000000000000000000008152600401612d099190613fb2565b60405180910390fd5b50612d1c82613503565b612d24612f42565b60050160008201518160000155905050817fbd32948ccd208f8bfa0001b72381d8ba95fbbe73788f0954df68689ef6d111ae60405160405180910390a25050565b612d6d612e65565b60060160009054906101000a900473ffffffffffffffffffffffffffffffffffffffff1673ffffffffffffffffffffffffffffffffffffffff16612daf612e92565b73ffffffffffffffffffffffffffffffffffffffff16146040518060400160405280602081526020017f6b724469616d6f6e643a204d757374206265206469616d6f6e64206f776e657281525090612e3d576040517f08c379a0000000000000000000000000000000000000000000000000000000008152600401612e349190613fb2565b60405180910390fd5b5080612e47612f42565b600f0160146101000a81548160ff021916908360ff16021790555050565b6000807f080f9836d135d84bdc1ee0b4214e5f2ae76516c41178c6f14a73685c9c3e5f0990508091505090565b60003073ffffffffffffffffffffffffffffffffffffffff163373ffffffffffffffffffffffffffffffffffffffff1603612f3b57600080368080601f016020809104026020016040519081016040528093929190818152602001838380828437600081840152601f19601f820116905080830192505050505050509050600080369050905073ffffffffffffffffffffffffffffffffffffffff818301511692505050612f3f565b3390505b90565b6000807f5076ab9fa18d2a17cfce4375a530b76392de8264a11126885cd5534d39f0a97c90508091505090565b817f9c387ecf1663f9144595993e2c602b45de94bf8ba3a110cb30e3652d79b581c060001b8114156040518060400160405280600381526020017f32323900000000000000000000000000000000000000000000000000000000008152509061300e576040517f08c379a00000000000000000000000000000000000000000000000000000000081526004016130059190613fb2565b60405180910390fd5b506130198383613537565b613124576001613027612e65565b600901600085815260200190815260200160002060000160008473ffffffffffffffffffffffffffffffffffffffff1673ffffffffffffffffffffffffffffffffffffffff16815260200190815260200160002060006101000a81548160ff0219169083151502179055506130c08261309e612e65565b600a0160008681526020019081526020016000206135ab90919063ffffffff16565b506130c9612e92565b73ffffffffffffffffffffffffffffffffffffffff168273ffffffffffffffffffffffffffffffffffffffff16847f2f8788117e7eff1d82e926ec794901d17c78024a50270940304540a733656f0d60405160405180910390a45b505050565b60006131577f9c387ecf1663f9144595993e2c602b45de94bf8ba3a110cb30e3652d79b581c060001b6135db565b146040518060400160405280600381526020017f3233300000000000000000000000000000000000000000000000000000000000815250906131cf576040517f08c379a00000000000000000000000000000000000000000000000000000000081526004016131c69190613fb2565b60405180910390fd5b508073ffffffffffffffffffffffffffffffffffffffff16632f54bf6e336040518263ffffffff1660e01b815260040161320991906143ba565b602060405180830381865afa158015613226573d6000803e3d6000fd5b505050506040513d601f19601f8201168201806040525081019061324a919061426f565b6040518060400160405280600381526020017f3232390000000000000000000000000000000000000000000000000000000000815250906132c1576040517f08c379a00000000000000000000000000000000000000000000000000000000081526004016132b89190613fb2565b60405180910390fd5b5060016132cc612e65565b60090160007f9c387ecf1663f9144595993e2c602b45de94bf8ba3a110cb30e3652d79b581c060001b815260200190815260200160002060000160008373ffffffffffffffffffffffffffffffffffffffff1673ffffffffffffffffffffffffffffffffffffffff16815260200190815260200160002060006101000a81548160ff0219169083151502179055506133ab81613366612e65565b600a0160007f9c387ecf1663f9144595993e2c602b45de94bf8ba3a110cb30e3652d79b581c060001b81526020019081526020016000206135ab90919063ffffffff16565b506133b4612e92565b73ffffffffffffffffffffffffffffffffffffffff168173ffffffffffffffffffffffffffffffffffffffff167f9c387ecf1663f9144595993e2c602b45de94bf8ba3a110cb30e3652d79b581c060001b7f2f8788117e7eff1d82e926ec794901d17c78024a50270940304540a733656f0d60405160405180910390a450565b61344561344083613608565b6134ef565b61344f8282613631565b61347d8161345b612e65565b600a01600085815260200190815260200160002061374b90919063ffffffff16565b505050565b60006040518060800160405280604f815260200161473d604f913980519060200120838051906020012083805190602001206134bc61377b565b306040516020016134d19594939291906143d5565b60405160208183030381529060405280519060200120905092915050565b613500816134fb612e92565b613783565b50565b61350b613c29565b6040518060200160405280838152509050919050565b6000816000015183600001511115905092915050565b6000613541612e65565b600901600084815260200190815260200160002060000160008373ffffffffffffffffffffffffffffffffffffffff1673ffffffffffffffffffffffffffffffffffffffff16815260200190815260200160002060009054906101000a900460ff16905092915050565b60006135d3836000018373ffffffffffffffffffffffffffffffffffffffff1660001b613820565b905092915050565b60006136016135e8612e65565b600a016000848152602001908152602001600020613890565b9050919050565b6000613612612e65565b6009016000838152602001908152602001600020600101549050919050565b61363b8282613537565b1561374757600061364a612e65565b600901600084815260200190815260200160002060000160008373ffffffffffffffffffffffffffffffffffffffff1673ffffffffffffffffffffffffffffffffffffffff16815260200190815260200160002060006101000a81548160ff0219169083151502179055506136e3816136c1612e65565b600a01600085815260200190815260200160002061374b90919063ffffffff16565b506136ec612e92565b73ffffffffffffffffffffffffffffffffffffffff168173ffffffffffffffffffffffffffffffffffffffff16837ff6391f5c32d9c69d2a47ea670b442974b53935d1edc7fd64eb21e047a839171b60405160405180910390a45b5050565b6000613773836000018373ffffffffffffffffffffffffffffffffffffffff1660001b6138a5565b905092915050565b600046905090565b61378d8282613537565b61381c576137b28173ffffffffffffffffffffffffffffffffffffffff1660146139b9565b6137c08360001c60206139b9565b6040516020016137d19291906144fc565b6040516020818303038152906040526040517f08c379a00000000000000000000000000000000000000000000000000000000081526004016138139190613fb2565b60405180910390fd5b5050565b600061382c8383613bf5565b61388557826000018290806001815401808255809150506001900390600052602060002001600090919091909150558260000180549050836001016000848152602001908152602001600020819055506001905061388a565b600090505b92915050565b600061389e82600001613c18565b9050919050565b600080836001016000848152602001908152602001600020549050600081146139ad5760006001826138d79190614536565b90506000600186600001805490506138ef9190614536565b905081811461395e5760008660000182815481106139105761390f61456a565b5b90600052602060002001549050808760000184815481106139345761393361456a565b5b90600052602060002001819055508387600101600083815260200190815260200160002081905550505b8560000180548061397257613971614599565b5b6001900381819060005260206000200160009055905585600101600086815260200190815260200160002060009055600193505050506139b3565b60009150505b92915050565b6060600060028360026139cc91906145c8565b6139d69190614622565b67ffffffffffffffff8111156139ef576139ee614678565b5b6040519080825280601f01601f191660200182016040528015613a215781602001600182028036833780820191505090505b5090507f300000000000000000000000000000000000000000000000000000000000000081600081518110613a5957613a5861456a565b5b60200101907effffffffffffffffffffffffffffffffffffffffffffffffffffffffffffff1916908160001a9053507f780000000000000000000000000000000000000000000000000000000000000081600181518110613abd57613abc61456a565b5b60200101907effffffffffffffffffffffffffffffffffffffffffffffffffffffffffffff1916908160001a90535060006001846002613afd91906145c8565b613b079190614622565b90505b6001811115613ba7577f3031323334353637383961626364656600000000000000000000000000000000600f861660108110613b4957613b4861456a565b5b1a60f81b828281518110613b6057613b5f61456a565b5b60200101907effffffffffffffffffffffffffffffffffffffffffffffffffffffffffffff1916908160001a905350600485901c945080613ba0906146a7565b9050613b0a565b5060008414613beb576040517f08c379a0000000000000000000000000000000000000000000000000000000008152600401613be29061471c565b60405180910390fd5b8091505092915050565b600080836001016000848152602001908152602001600020541415905092915050565b600081600001805490509050919050565b6040518060200160405280600081525090565b600080fd5b600080fd5b60006101008284031215613c5d57613c5c613c41565b5b81905092915050565b60006101008284031215613c7d57613c7c613c3c565b5b6000613c8b84828501613c46565b91505092915050565b6000819050919050565b613ca781613c94565b8114613cb257600080fd5b50565b600081359050613cc481613c9e565b92915050565b600060208284031215613ce057613cdf613c3c565b5b6000613cee84828501613cb5565b91505092915050565b600073ffffffffffffffffffffffffffffffffffffffff82169050919050565b6000613d2282613cf7565b9050919050565b613d3281613d17565b8114613d3d57600080fd5b50565b600081359050613d4f81613d29565b92915050565b600080600080600060a08688031215613d7157613d70613c3c565b5b6000613d7f88828901613d40565b9550506020613d9088828901613d40565b9450506040613da188828901613cb5565b9350506060613db288828901613d40565b9250506080613dc388828901613d40565b9150509295509295909350565b600080600080600080600080610100898b031215613df157613df0613c3c565b5b6000613dff8b828c01613d40565b9850506020613e108b828c01613d40565b9750506040613e218b828c01613cb5565b9650506060613e328b828c01613d40565b9550506080613e438b828c01613d40565b94505060a0613e548b828c01613cb5565b93505060c0613e658b828c01613cb5565b92505060e0613e768b828c01613cb5565b9150509295985092959890939650565b600060208284031215613e9c57613e9b613c3c565b5b6000613eaa84828501613d40565b91505092915050565b600060ff82169050919050565b613ec981613eb3565b8114613ed457600080fd5b50565b600081359050613ee681613ec0565b92915050565b600060208284031215613f0257613f01613c3c565b5b6000613f1084828501613ed7565b91505092915050565b600081519050919050565b600082825260208201905092915050565b60005b83811015613f53578082015181840152602081019050613f38565b83811115613f62576000848401525b50505050565b6000601f19601f8301169050919050565b6000613f8482613f19565b613f8e8185613f24565b9350613f9e818560208601613f35565b613fa781613f68565b840191505092915050565b60006020820190508181036000830152613fcc8184613f79565b905092915050565b6000819050919050565b6000819050919050565b6000614003613ffe613ff984613fd4565b613fde565b613eb3565b9050919050565b61401381613fe8565b82525050565b600060208201905061402e600083018461400a565b92915050565b7f4e487b7100000000000000000000000000000000000000000000000000000000600052601160045260246000fd5b60008160011c9050919050565b6000808291508390505b60018511156140ba5780860481111561409657614095614034565b5b60018516156140a55780820291505b80810290506140b385614063565b945061407a565b94509492505050565b6000826140d3576001905061418f565b816140e1576000905061418f565b81600181146140f7576002811461410157614130565b600191505061418f565b60ff84111561411357614112614034565b5b8360020a91508482111561412a57614129614034565b5b5061418f565b5060208310610133831016604e8410600b84101617156141655782820a9050838111156141605761415f614034565b5b61418f565b6141728484846001614070565b9250905081840481111561418957614188614034565b5b81810290505b9392505050565b60006141a182613c94565b91506141ac83613c94565b92506141d97fffffffffffffffffffffffffffffffffffffffffffffffffffffffffffffffff84846140c3565b905092915050565b60007fffffffff0000000000000000000000000000000000000000000000000000000082169050919050565b614216816141e1565b82525050565b6000602082019050614231600083018461420d565b92915050565b60008115159050919050565b61424c81614237565b811461425757600080fd5b50565b60008151905061426981614243565b92915050565b60006020828403121561428557614284613c3c565b5b60006142938482850161425a565b91505092915050565b6000815190506142ab81613ec0565b92915050565b6000602082840312156142c7576142c6613c3c565b5b60006142d58482850161429c565b91505092915050565b6142e781613c94565b82525050565b6142f681613d17565b82525050565b600060408201905061431160008301856142de565b61431e60208301846142ed565b9392505050565b6000819050919050565b61433881614325565b82525050565b6000604082019050614353600083018561432f565b61436060208301846142ed565b9392505050565b600060a08201905061437c60008301886142ed565b61438960208301876142de565b61439660408301866142de565b6143a360608301856142de565b6143b060808301846142de565b9695505050505050565b60006020820190506143cf60008301846142ed565b92915050565b600060a0820190506143ea600083018861432f565b6143f7602083018761432f565b614404604083018661432f565b61441160608301856142de565b61441e60808301846142ed565b9695505050505050565b600081905092915050565b7f416363657373436f6e74726f6c3a206163636f756e7420000000000000000000600082015250565b6000614469601783614428565b915061447482614433565b601782019050919050565b600061448a82613f19565b6144948185614428565b93506144a4818560208601613f35565b80840191505092915050565b7f206973206d697373696e6720726f6c6520000000000000000000000000000000600082015250565b60006144e6601183614428565b91506144f1826144b0565b601182019050919050565b60006145078261445c565b9150614513828561447f565b915061451e826144d9565b915061452a828461447f565b91508190509392505050565b600061454182613c94565b915061454c83613c94565b92508282101561455f5761455e614034565b5b828203905092915050565b7f4e487b7100000000000000000000000000000000000000000000000000000000600052603260045260246000fd5b7f4e487b7100000000000000000000000000000000000000000000000000000000600052603160045260246000fd5b60006145d382613c94565b91506145de83613c94565b9250817fffffffffffffffffffffffffffffffffffffffffffffffffffffffffffffffff048311821515161561461757614616614034565b5b828202905092915050565b600061462d82613c94565b915061463883613c94565b9250827fffffffffffffffffffffffffffffffffffffffffffffffffffffffffffffffff0382111561466d5761466c614034565b5b828201905092915050565b7f4e487b7100000000000000000000000000000000000000000000000000000000600052604160045260246000fd5b60006146b282613c94565b9150600082036146c5576146c4614034565b5b600182039050919050565b7f537472696e67733a20686578206c656e67746820696e73756666696369656e74600082015250565b6000614706602083613f24565b9150614711826146d0565b602082019050919050565b60006020820190508181036000830152614735816146f9565b905091905056fe454950373132446f6d61696e28737472696e67206e616d652c737472696e672076657273696f6e2c75696e743235362073616c742c6164647265737320766572696679696e67436f6e747261637429a26469706673582212204f43038c6c17e969521d90263f1ac50becff9d35ada802b63ef7d5de0f6708b264736f6c634300080e0033",
  "devdoc": {
    "author": "Kresko",
    "kind": "dev",
    "methods": {
      "addCollateralAsset(address,address,uint256,address,address)": {
        "details": "Only callable by the owner and cannot be called more than once for an asset.",
        "params": {
          "_anchor": "Underlying anchor for a krAsset collateral, needs to support IKreskoAssetAnchor.",
          "_collateralAsset": "The address of the collateral asset.",
          "_factor": "The collateral factor of the collateral asset as a raw value for a FixedPoint.Unsigned. Must be <= 1e18.",
          "_marketStatusOracle": "The oracle address for the collateral asset's market open/closed status",
          "_priceFeedOracle": "The oracle address for the collateral asset's USD value."
        }
      },
      "addKreskoAsset(address,address,uint256,address,address,uint256,uint256,uint256)": {
        "details": "Only callable by the owner.",
        "params": {
          "_anchor": "Underlying anchor for the krAsset, needs to support IKreskoAssetAnchor.",
          "_closeFee": "The initial close fee percentage for the Kresko asset.",
          "_kFactor": "The k-factor of the Kresko asset as a raw value for a FixedPoint.Unsigned. Must be >= 1e18.",
          "_krAsset": "The address of the wrapped Kresko asset, needs to support IKreskoAsset.",
          "_marketStatusOracle": "The oracle address for the Kresko asset market status.",
          "_openFee": "The initial open fee percentage for the Kresko asset.",
          "_priceFeedOracle": "The oracle address for the Kresko asset.",
          "_supplyLimit": "The initial total supply limit for the Kresko asset."
        }
      },
      "updateAMMOracle(address)": {
        "params": {
          "_ammOracle": "The address of the oracle"
        }
      },
      "updateCollateralAsset(address,address,uint256,address,address)": {
        "details": "Only callable by the owner.",
        "params": {
          "_anchor": "Underlying anchor for a krAsset collateral, needs to support IKreskoAssetAnchor.",
          "_collateralAsset": "The address of the collateral asset.",
          "_factor": "The new collateral factor as a raw value for a FixedPoint.Unsigned. Must be <= 1e18.",
          "_marketStatusOracle": "The oracle address for the collateral asset's market open/closed status",
          "_priceFeedOracle": "The new oracle address for the collateral asset."
        }
      },
      "updateExtOracleDecimals(uint8)": {
        "params": {
          "_decimals": "Amount of decimals"
        }
      },
      "updateFeeRecipient(address)": {
        "params": {
          "_feeRecipient": "The new fee recipient."
        }
      },
      "updateKreskoAsset(address,address,uint256,address,address,uint256,uint256,uint256)": {
        "details": "Only callable by the owner.",
        "params": {
          "_anchor": "Underlying anchor for a krAsset.",
          "_closeFee": "The new close fee percentage for the Kresko asset.",
          "_kFactor": "The new k-factor as a raw value for a FixedPoint.Unsigned. Must be >= 1e18.",
          "_krAsset": "The address of the Kresko asset.",
          "_marketStatusOracle": "The oracle address for the Kresko asset market status.",
          "_openFee": "The new open fee percentage for the Kresko asset.",
          "_priceFeedOracle": "The new oracle address for the Kresko asset's USD value.",
          "_supplyLimit": "The new total supply limit for the Kresko asset."
        }
      },
      "updateLiquidationIncentiveMultiplier(uint256)": {
        "params": {
          "_liquidationIncentiveMultiplier": "The new liquidation incentive multiplie."
        }
      },
      "updateLiquidationThreshold(uint256)": {
        "details": "Updates the contract's liquidation threshold value",
        "params": {
          "_liquidationThreshold": "The new liquidation threshold value"
        }
      },
      "updateMinimumCollateralizationRatio(uint256)": {
        "details": "Updates the contract's collateralization ratio.",
        "params": {
          "_minimumCollateralizationRatio": "The new minimum collateralization ratio as a raw value for a FixedPoint.Unsigned."
        }
      },
      "updateMinimumDebtValue(uint256)": {
        "details": "Updates the contract's minimum debt value.",
        "params": {
          "_minimumDebtValue": "The new minimum debt value as a raw value for a FixedPoint.Unsigned."
        }
      }
    },
    "title": "ConfigurationFacet",
    "version": 1
  },
  "userdoc": {
    "kind": "user",
    "methods": {
      "addCollateralAsset(address,address,uint256,address,address)": {
        "notice": "Adds a collateral asset to the protocol."
      },
      "addKreskoAsset(address,address,uint256,address,address,uint256,uint256,uint256)": {
        "notice": "Adds a Kresko asset to the protocol."
      },
      "updateAMMOracle(address)": {
        "notice": "Sets the protocol AMM oracle address"
      },
      "updateCollateralAsset(address,address,uint256,address,address)": {
        "notice": "Updates a previously added collateral asset."
      },
      "updateExtOracleDecimals(uint8)": {
        "notice": "Sets the decimal precision of external oracle"
      },
      "updateFeeRecipient(address)": {
        "notice": "Updates the fee recipient."
      },
      "updateKreskoAsset(address,address,uint256,address,address,uint256,uint256,uint256)": {
        "notice": "Updates the k-factor of a previously added Kresko asset."
      },
      "updateLiquidationIncentiveMultiplier(uint256)": {
        "notice": "Updates the liquidation incentive multiplier."
      }
    },
    "notice": "Functionality for `Role.OPERATOR` level actions.Can be only initialized by the `Role.ADMIN`",
    "version": 1
  },
  "storageLayout": {
    "storage": [],
    "types": null
  }
}