{
  "address": "0x33a1cB462086bc6D28078Ea4310E5F683F9d2e81",
  "abi": [
    {
      "inputs": [
        {
          "internalType": "address",
          "name": "_account",
          "type": "address"
        },
        {
          "internalType": "address",
          "name": "_collateralAsset",
          "type": "address"
        },
        {
          "internalType": "uint256",
          "name": "_depositAmount",
          "type": "uint256"
        }
      ],
      "name": "depositCollateral",
      "outputs": [],
      "stateMutability": "nonpayable",
      "type": "function"
    },
    {
      "inputs": [
        {
          "internalType": "address",
          "name": "_account",
          "type": "address"
        },
        {
          "internalType": "address",
          "name": "_collateralAsset",
          "type": "address"
        },
        {
          "internalType": "uint256",
          "name": "_withdrawAmount",
          "type": "uint256"
        },
        {
          "internalType": "uint256",
          "name": "_depositedCollateralAssetIndex",
          "type": "uint256"
        }
      ],
      "name": "withdrawCollateral",
      "outputs": [],
      "stateMutability": "nonpayable",
      "type": "function"
    }
  ],
  "transactionHash": "0x88945d41a95bab2440c8d1657f5e5e3ab670e2304697c63d975c930ec65e4fb0",
  "args": [],
  "numDeployments": 2,
  "solcInputHash": "ae1fc0dafe5a732e0de9681a142b3713",
  "bytecode": "0x6080806040523461001657612034908161001c8239f35b600080fdfe60806040526004361015610013575b600080fd5b6000803560e01c908163f5e6546c1461003e575063f970c3b71461003657600080fd5b61000e6102d8565b3461028f576080367ffffffffffffffffffffffffffffffffffffffffffffffffffffffffffffffffc011261028f57610075610292565b9061007e6102b5565b60027f080f9836d135d84bdc1ee0b4214e5f2ae76516c41178c6f14a73685c9c3e5f146100b760018254146100b16105aa565b90610662565b556100d660ff60036100c8846106a0565b015460a81c166100b1610772565b73ffffffffffffffffffffffffffffffffffffffff92836100f56107ab565b168482160361013f575b906101119160643591604435916107fe565b61013a60017f080f9836d135d84bdc1ee0b4214e5f2ae76516c41178c6f14a73685c9c3e5f1455565b604051f35b6101476107ab565b937f46925e0f0cc76e485772167edccb8dc449d43b23b55fc4e756b063f49099e6a084527f080f9836d135d84bdc1ee0b4214e5f2ae76516c41178c6f14a73685c9c3e5f126020526101b960ff6101b387604088209060018060a01b0316600052602052604060002090565b54161590565b6101c357506100ff565b6102226102596101d761028b938816610adb565b61024b6101e2610ba1565b61021c60405195869461021c602087016017907f416363657373436f6e74726f6c3a206163636f756e742000000000000000000081520190565b90610980565b7f206973206d697373696e6720726f6c6520000000000000000000000000000000815260110190565b03601f19810183528261051e565b6040517f08c379a000000000000000000000000000000000000000000000000000000000815291829160048301610618565b0390fd5b80fd5b6004359073ffffffffffffffffffffffffffffffffffffffff8216820361000e57565b6024359073ffffffffffffffffffffffffffffffffffffffff8216820361000e57565b503461000e576060367ffffffffffffffffffffffffffffffffffffffffffffffffffffffffffffffffc011261000e576000610312610292565b61031a6102b5565b6044359060027f080f9836d135d84bdc1ee0b4214e5f2ae76516c41178c6f14a73685c9c3e5f1461035160018254146100b16105aa565b5561036260ff60036100c8846106a0565b60ff7f5076ab9fa18d2a17cfce4375a530b76392de8264a11126885cd5534d39f0a9835416610460575b73ffffffffffffffffffffffffffffffffffffffff8181169161040c9084906104066103b66107ab565b6040517f23b872dd000000000000000000000000000000000000000000000000000000006020820152908616602482015230604482015260648082018590528152610400816104ca565b86611eb3565b86611821565b60405193167ff1c0dd7e9b98bbff859029005ef89b127af049cd18df1a8d79f0b7e019911e568585a461045e60017f080f9836d135d84bdc1ee0b4214e5f2ae76516c41178c6f14a73685c9c3e5f1455565bf35b61046981611caa565b61038c565b50634e487b7160e01b600052604160045260246000fd5b6020810190811067ffffffffffffffff8211176104a157604052565b6104a961046e565b604052565b60c0810190811067ffffffffffffffff8211176104a157604052565b60a0810190811067ffffffffffffffff8211176104a157604052565b6040810190811067ffffffffffffffff8211176104a157604052565b6080810190811067ffffffffffffffff8211176104a157604052565b90601f8019910116810190811067ffffffffffffffff8211176104a157604052565b60405190610100820182811067ffffffffffffffff8211176104a157604052565b60209067ffffffffffffffff811161059d575b601f017fffffffffffffffffffffffffffffffffffffffffffffffffffffffffffffffe0160190565b6105a561046e565b610574565b604051906105b7826104e6565b600382527f31303600000000000000000000000000000000000000000000000000000000006020830152565b918091926000905b8282106106035750116105fc575050565b6000910152565b915080602091830151818601520182916105eb565b6040916020825261063881518092816020860152602086860191016105e3565b601f017fffffffffffffffffffffffffffffffffffffffffffffffffffffffffffffffe016010190565b1561066a5750565b6040517f08c379a000000000000000000000000000000000000000000000000000000000815290819061028b9060048301610618565b73ffffffffffffffffffffffffffffffffffffffff1660009081527f5076ab9fa18d2a17cfce4375a530b76392de8264a11126885cd5534d39f0a9856020526040902090565b73ffffffffffffffffffffffffffffffffffffffff1660009081527f5076ab9fa18d2a17cfce4375a530b76392de8264a11126885cd5534d39f0a9876020526040902090565b73ffffffffffffffffffffffffffffffffffffffff1660009081527f5076ab9fa18d2a17cfce4375a530b76392de8264a11126885cd5534d39f0a9866020526040902090565b6040519061077f826104e6565b600382527f32313800000000000000000000000000000000000000000000000000000000006020830152565b3330036107fa576107bb36610561565b6107c8604051918261051e565b3681523660006020830137600060203692909201918201525173ffffffffffffffffffffffffffffffffffffffff1690565b3390565b919260ff7f5076ab9fa18d2a17cfce4375a530b76392de8264a11126885cd5534d39f0a9835416610972575b6108348284610cf8565b938481111561096c5750835b61085361084b610e65565b861515610662565b610873610868610862866106e6565b54610e9e565b8311156100b1610ee2565b6108b76108af610882866110f9565b6108a761088f8988611676565b506108a161089b610c4d565b8a61120d565b9261106f565b519051111590565b6100b1610f1b565b6108db6108cb6108c6856106a0565b610c93565b6108d58784610ecb565b90611626565b6108ff846108e88761072c565b9060018060a01b0316600052602052604060002090565b558414610953575b5060018060a01b0380831691169161094b847f45892a46e6cef329bb642da6d69846d324db43d19008edc141ed82382eda1bee92818686866000604051a485611da4565b6000604051a4565b6109669082610961856106e6565b610f7a565b38610907565b93610840565b61097b82611d3f565b61082a565b90610993602092828151948592016105e3565b0190565b50634e487b7160e01b600052601160045260246000fd5b80600019048211811515166109c1570290565b6109c9610997565b0290565b6b033b2e3c9fd0803ce8000000811981116109e6570190565b610993610997565b811981116109e6570190565b50634e487b7160e01b600052603260045260246000fd5b602090805115610a1f570190565b6109936109fa565b602190805160011015610a1f570190565b906020918051821015610a4a57010190565b610a526109fa565b010190565b8015610a83575b7fffffffffffffffffffffffffffffffffffffffffffffffffffffffffffffffff0190565b610a8b610997565b610a5e565b15610a9757565b606460405162461bcd60e51b815260206004820152602060248201527f537472696e67733a20686578206c656e67746820696e73756666696369656e746044820152fd5b604051906060820182811067ffffffffffffffff821117610b94575b604052602a825260403660208401376030610b1183610a11565b536078610b1d83610a27565b536029905b60018211610b3857610b35915015610a90565b90565b80600f610b8192166010811015610b87575b7f3031323334353637383961626364656600000000000000000000000000000000901a610b778486610a38565b5360041c91610a57565b90610b22565b610b8f6109fa565b610b4a565b610b9c61046e565b610af7565b6040517f46925e0f0cc76e485772167edccb8dc449d43b23b55fc4e756b063f49099e6a0610bce82610502565b6042825260603660208401376030610be583610a11565b536078610bf183610a27565b536041905b60018211610c0957610b35915015610a90565b80600f610c4792166010811015610b87577f3031323334353637383961626364656600000000000000000000000000000000901a610b778486610a38565b90610bf6565b60405190610c5a82610485565b7f5076ab9fa18d2a17cfce4375a530b76392de8264a11126885cd5534d39f0a980548252565b90604051610c8d81610485565b91548252565b90604051610ca0816104ae565b60a060ff8294604051610cb281610485565b8154815284526003600180851b0391826001820154166020870152826002820154166040870152015490811660608501528181841c16608085015260a81c161515910152565b610db7610b35926108e860018060a01b03938483166000527f5076ab9fa18d2a17cfce4375a530b76392de8264a11126885cd5534d39f0a985602052610db260ff604060002096610d96600360405199610d518b6104ae565b610d5a81610c80565b8b526001810154841660208c01526002810154841660408c0152015491821673ffffffffffffffffffffffffffffffffffffffff1660608a0152565b60ff60a082901c831616608089015260a81c16151560a0870152565b61072c565b5490610dda565b9081602091031261000e575190565b506040513d6000823e3d90fd5b6060015173ffffffffffffffffffffffffffffffffffffffff16908115610e60576020906024604051809481936303d1689d60e11b835260048301525afa908115610e53575b600091610e2b575090565b610b35915060203d8111610e4c575b610e44818361051e565b810190610dbe565b503d610e3a565b610e5b610dcd565b610e20565b905090565b60405190610e72826104e6565b600382527f31303200000000000000000000000000000000000000000000000000000000006020830152565b60018110610a83577fffffffffffffffffffffffffffffffffffffffffffffffffffffffffffffffff0190565b818110610ed6570390565b610ede610997565b0390565b60405190610eef826104e6565b600382527f34303000000000000000000000000000000000000000000000000000000000006020830152565b60405190610f28826104e6565b600382527f32333600000000000000000000000000000000000000000000000000000000006020830152565b8054821015610f6d575b60005260206000200190600090565b610f756109fa565b610f5e565b9091610fbe610f898284610f54565b94905494610f95610ee2565b73ffffffffffffffffffffffffffffffffffffffff969092871660039290921b1c861614610662565b8282549160018310611062575b600019809301808203611016575b50505081548015611000570191610ff08383610f54565b909182549160031b1b1916905555565b634e487b7160e01b600052603160045260246000fd5b61105a926110276110369287610f54565b90549060031b1c169185610f54565b90919082549060031b9160018060a01b039283811b93849216901b16911916179055565b823880610fd9565b61106a610997565b610fcb565b600060405161107d81610485565b5251905180821061109c575b6040519161109683610485565b03815290565b6110a4610997565b611089565b6001907fffffffffffffffffffffffffffffffffffffffffffffffffffffffffffffffff81146109e6570190565b60209181518110156110ec575b60051b010190565b6110f46109fa565b6110e4565b60405161110581610485565b6000815290611113816106e6565b604051808281935480845260208094019160005283600020936000905b8282106111ae575050506111469250038261051e565b6000925b81518410156111a75761119b6111a19161119461118461116a88876110d7565b5173ffffffffffffffffffffffffffffffffffffffff1690565b61118e8188610cf8565b90611676565b50906111de565b936110a9565b9261114a565b9250505090565b855473ffffffffffffffffffffffffffffffffffffffff1684526001958601958795509381019390910190611130565b906111fb9160006040516111f181610485565b52519051906109ee565b6040519061120882610485565b815290565b91909160405161121c81610485565b600080915260405161122d81610485565b81815273ffffffffffffffffffffffffffffffffffffffff831660009081527f5076ab9fa18d2a17cfce4375a530b76392de8264a11126885cd5534d39f0a98a6020526040902090939091604051808481955480845260208094019185528385209385905b8282106112fb575050506112a89250038461051e565b935b82518510156112ec576112e06112e6916112da6112ca61116a89886110d7565b6112d4818961137b565b906119f6565b906111de565b946110a9565b936112aa565b9150939150610b359250611347565b855473ffffffffffffffffffffffffffffffffffffffff1684526001958601958995509381019390910190611292565b604d811161133a575b600a0a90565b611342610997565b611334565b670de0b6b3a76400009161136d91600060405161136381610485565b52519051906109ae565b046040519061120882610485565b6114f8906114f26114dd6114c7856108e86113c78260018060a01b03166000527f5076ab9fa18d2a17cfce4375a530b76392de8264a11126885cd5534d39f0a988602052604060002090565b9561148161147860076113d8610540565b996113e281610c80565b8b52600181015473ffffffffffffffffffffffffffffffffffffffff1660208c0152600281015473ffffffffffffffffffffffffffffffffffffffff1660408c0152600381015460608c0152600481015473ffffffffffffffffffffffffffffffffffffffff1660808c015261145a60058201610c80565b60a08c015261146b60068201610c80565b60c08c0152015460ff1690565b151560e0890152565b73ffffffffffffffffffffffffffffffffffffffff1660009081527f028c7d8c2729a6bb9150d56b34c68e690d2d010cd1f97ccb986fdd9fba86b18a6020526040902090565b546fffffffffffffffffffffffffffffffff1690565b6fffffffffffffffffffffffffffffffff1690565b906115c0565b90811561155e5773ffffffffffffffffffffffffffffffffffffffff1660009081527f028c7d8c2729a6bb9150d56b34c68e690d2d010cd1f97ccb986fdd9fba86b18960205260409020610b35916115599161155390611b50565b90611565565b6115a1565b5050600090565b816b019d971e4fe8401e7400000019048111158215171561000e576b033b2e3c9fd0803ce800000091026b019d971e4fe8401e74000000010490565b90631dcd6500633b9aca00808404930610156115b957565b9060010190565b608001516040517f07a2d13a00000000000000000000000000000000000000000000000000000000815260048101929092526020908290602490829073ffffffffffffffffffffffffffffffffffffffff165afa908115610e5357600091610e2b575090565b6060015173ffffffffffffffffffffffffffffffffffffffff16908115610e60576020906024604051809481936363737ac960e11b835260048301525afa908115610e5357600091610e2b575090565b61173c6116a661175892949394600060405161169181610485565b5260006040516116a081610485565b526106a0565b93611737611731604051966116ba886104ae565b6116c381610c80565b8852600181015473ffffffffffffffffffffffffffffffffffffffff90811660208a01526002820154811660408a0152600390910154908116606089015261172a60ff60808a019261171d828260a01c16859060ff169052565b60a81c16151560a08a0152565b5160ff1690565b60ff1690565b611911565b926117506117498261175c565b8095611347565b905190611347565b9190565b6020600491600060405161176f81610485565b528101516040517f50d25bcd000000000000000000000000000000000000000000000000000000008152928391829073ffffffffffffffffffffffffffffffffffffffff165afa908115611814575b6000916117e3575b5060006040516117d581610485565b526040519061120882610485565b906020823d821161180c575b816117fc6020938361051e565b8101031261028f575051386117c6565b3d91506117ef565b61181c610dcd565b6117be565b90611863604051611831816104e6565b600381527f31303300000000000000000000000000000000000000000000000000000000006020820152841515610662565b61188c6118708284610cf8565b80156118cf575b846118846108c6856106a0565b910190611626565b611899826108e88561072c565b5560018060a01b0380911691167ff1c0dd7e9b98bbff859029005ef89b127af049cd18df1a8d79f0b7e019911e566000604051a4565b6118ff836110366118df876106e6565b80549068010000000000000000821015611904575b600182018155610f54565b611877565b61190c61046e565b6118f4565b600060405161191f81610485565b526040519161192d83610485565b82526012811015611964579061195182610b3593601210611957575b60120361132b565b906119dc565b61195f610997565b611949565b60128111611970575090565b61199b907fffffffffffffffffffffffffffffffffffffffffffffffffffffffffffffffee0161132b565b9060006040516119aa81610485565b52519080156119c657604051916119c083610485565b04815290565b634e487b7160e01b600052601260045260246000fd5b906111fb9160006040516119ef81610485565b52516109ae565b90611750611a56610b35936000604051611a0f81610485565b5273ffffffffffffffffffffffffffffffffffffffff1660009081527f5076ab9fa18d2a17cfce4375a530b76392de8264a11126885cd5534d39f0a9886020526040902090565b91611b10611b076007611a67610540565b95611a7181610c80565b8752600181015473ffffffffffffffffffffffffffffffffffffffff166020880152600281015473ffffffffffffffffffffffffffffffffffffffff16604088015260038101546060880152600481015473ffffffffffffffffffffffffffffffffffffffff166080880152611ae960058201610c80565b60a0880152611afa60068201610c80565b60c0880152015460ff1690565b151560e0850152565b8290611b2d610b35926000604051611b2781610485565b5261175c565b6000604051611b3b81610485565b5260405191611b4983610485565b8252611347565b600481015473ffffffffffffffffffffffffffffffffffffffff811615611bac5764ffffffffff8042169160a01c16146114c757610b35906fffffffffffffffffffffffffffffffff611ba34283611bbe565b91541690611565565b50506b033b2e3c9fd0803ce800000090565b60048101549091611bd99160a01c64ffffffffff1690610ecb565b8015611bac57611c90611c6c611c90611c8b611c5b611c7195611c85611c7e610b35996000198401978891600060028711600014611c955750611c6c611c77611c2f6114dd60026001198b01955b015460801c90565b9d8e611c6c611c65611c5b611c54611c478580611565565b66038882915c4000900490565b9384611565565b6301e13380900490565b978b6109ae565b6109ae565b60011c90565b9a876109ae565b6006900490565b966109ae565b6109cd565b6109ee565b611c77611c2f6114dd6002611c6c9495611c27565b73ffffffffffffffffffffffffffffffffffffffff1660009081527f5076ab9fa18d2a17cfce4375a530b76392de8264a11126885cd5534d39f0a9846020526040902060008052602052611d3d60ff604060002054161560405190611d0e826104e6565b600382527f32333200000000000000000000000000000000000000000000000000000000006020830152610662565b565b73ffffffffffffffffffffffffffffffffffffffff1660009081527f5076ab9fa18d2a17cfce4375a530b76392de8264a11126885cd5534d39f0a984602052604090206001600052602052611d3d60ff604060002054161560405190611d0e826104e6565b6040517fa9059cbb00000000000000000000000000000000000000000000000000000000602082015273ffffffffffffffffffffffffffffffffffffffff9092166024830152604480830193909352918152611d3d916080820167ffffffffffffffff811183821017611e1a575b604052611eb3565b611e2261046e565b611e12565b15611e2e57565b6040517f08c379a000000000000000000000000000000000000000000000000000000000815260206004820152602a60248201527f5361666545524332303a204552433230206f7065726174696f6e20646964206e60448201527f6f742073756363656564000000000000000000000000000000000000000000006064820152608490fd5b60018060a01b0316611f2f604051611eca816104e6565b6020928382527f5361666545524332303a206c6f772d6c6576656c2063616c6c206661696c6564848301526000808686829851910182855af13d15611f6b573d91611f1483610561565b92611f22604051948561051e565b83523d878785013e611f6f565b805180611f3d575b50505050565b81839181010312611f6757015190811515820361028f5750611f5e90611e27565b38808080611f37565b8280fd5b6060915b91929015611feb5750815115611f83575090565b3b15611f8c5790565b6040517f08c379a000000000000000000000000000000000000000000000000000000000815260206004820152601d60248201527f416464726573733a2063616c6c20746f206e6f6e2d636f6e74726163740000006044820152606490fd5b82519091501561066a5750805190602001fdfea2646970667358221220058f0a8f7bdd06a6e5502ecb822fcdc14492034084bf36387587acb6315295d564736f6c634300080e0033",
  "devdoc": {
    "author": "Kresko",
    "kind": "dev",
    "methods": {
      "depositCollateral(address,address,uint256)": {
        "params": {
          "_account": "The user to deposit collateral for.",
          "_collateralAsset": "The address of the collateral asset.",
          "_depositAmount": "The amount of the collateral asset to deposit."
        }
      },
      "withdrawCollateral(address,address,uint256,uint256)": {
        "details": "Requires the post-withdrawal collateral value to violate minimum collateral requirement.",
        "params": {
          "_account": "The address to withdraw assets for.",
          "_collateralAsset": "The address of the collateral asset.",
          "_depositedCollateralAssetIndex": "The index of the collateral asset in the sender's deposited collateral assets array. Only needed if withdrawing the entire deposit of a particular collateral asset.",
          "_withdrawAmount": "The amount of the collateral asset to withdraw."
        }
      }
    },
    "title": "DepositWithdrawFacet",
    "version": 1
  },
  "userdoc": {
    "kind": "user",
    "methods": {
      "depositCollateral(address,address,uint256)": {
        "notice": "Deposits collateral into the protocol."
      },
      "withdrawCollateral(address,address,uint256,uint256)": {
        "notice": "Withdraws sender's collateral from the protocol."
      }
    },
    "notice": "Main end-user functionality concerning collateral asset deposits and withdrawals within the Kresko protocol",
    "version": 1
  },
  "storageLayout": {
    "storage": [],
    "types": null
  }
}