{
  "address": "0x8e3db4FD96609F2d0158d1645b4A42774E0696aF",
  "abi": [
    {
      "inputs": [
        {
          "internalType": "address",
          "name": "_account",
          "type": "address"
        },
        {
          "internalType": "address",
          "name": "_collateralAsset",
          "type": "address"
        },
        {
          "internalType": "uint256",
          "name": "_depositAmount",
          "type": "uint256"
        }
      ],
      "name": "depositCollateral",
      "outputs": [],
      "stateMutability": "nonpayable",
      "type": "function"
    },
    {
      "inputs": [
        {
          "internalType": "address",
          "name": "_account",
          "type": "address"
        },
        {
          "internalType": "address",
          "name": "_collateralAsset",
          "type": "address"
        },
        {
          "internalType": "uint256",
          "name": "_withdrawAmount",
          "type": "uint256"
        },
        {
          "internalType": "uint256",
          "name": "_depositedCollateralAssetIndex",
          "type": "uint256"
        }
      ],
      "name": "withdrawCollateral",
      "outputs": [],
      "stateMutability": "nonpayable",
      "type": "function"
    },
    {
      "inputs": [
        {
          "internalType": "address",
          "name": "_account",
          "type": "address"
        },
        {
          "internalType": "address",
          "name": "_collateralAsset",
          "type": "address"
        },
        {
          "internalType": "uint256",
          "name": "_withdrawAmount",
          "type": "uint256"
        },
        {
          "internalType": "uint256",
          "name": "_depositedCollateralAssetIndex",
          "type": "uint256"
        },
        {
          "internalType": "bytes",
          "name": "_userData",
          "type": "bytes"
        }
      ],
      "name": "withdrawCollateralUnchecked",
      "outputs": [],
      "stateMutability": "nonpayable",
      "type": "function"
    }
  ],
  "transactionHash": "0x146ba2e6ab6d294706c68a642ee607c26caecbc2911fecb4fd2df58e09a33092",
  "args": [],
  "numDeployments": 3,
  "solcInputHash": "35b2e5b3b54f81b0ee410b5df7c6c414",
  "bytecode": "0x6080806040523461001657612660908161001c8239f35b600080fdfe60806040526004361015610013575b600080fd5b6000803560e01c90816374d5f7c41461005257508063f5e6546c146100495763f970c3b71461004157600080fd5b61000e610522565b5061000e6102a9565b346100de5760a0367ffffffffffffffffffffffffffffffffffffffffffffffffffffffffffffffffc01126100de576100896100e1565b610091610104565b906084359167ffffffffffffffff83116100da57366023840112156100da576100c76100d5933690602481600401359101610272565b916064359160443591610d1a565b604051f35b8380fd5b80fd5b6004359073ffffffffffffffffffffffffffffffffffffffff8216820361000e57565b6024359073ffffffffffffffffffffffffffffffffffffffff8216820361000e57565b50634e487b7160e01b600052604160045260246000fd5b6020810190811067ffffffffffffffff82111761015a57604052565b610162610127565b604052565b60e0810190811067ffffffffffffffff82111761015a57604052565b60a0810190811067ffffffffffffffff82111761015a57604052565b6040810190811067ffffffffffffffff82111761015a57604052565b6080810190811067ffffffffffffffff82111761015a57604052565b90601f8019910116810190811067ffffffffffffffff82111761015a57604052565b60405190610100820182811067ffffffffffffffff82111761015a57604052565b604051906102278261013e565b565b60209067ffffffffffffffff8111610265575b601f017fffffffffffffffffffffffffffffffffffffffffffffffffffffffffffffffe0160190565b61026d610127565b61023c565b92919261027e82610229565b9161028c60405193846101d7565b82948184528183011161000e578281602093846000960137010152565b503461000e576080367ffffffffffffffffffffffffffffffffffffffffffffffffffffffffffffffffc011261000e576104b06102e46100e1565b6102ec610104565b90604435916064359060027f080f9836d135d84bdc1ee0b4214e5f2ae76516c41178c6f14a73685c9c3e5f1461032e600182541461032861065c565b90610721565b5561034d60ff600361033f8461076b565b015460a81c16610328610883565b73ffffffffffffffffffffffffffffffffffffffff908161036c6108bc565b1692828516938403610515575b60ff7f5076ab9fa18d2a17cfce4375a530b76392de8264a11126885cd5534d39f0a9835416610507575b6103ad8286610fe0565b95868111156105015750855b6103cc6103c461114d565b881515610721565b6104156103d8876107b1565b54600181106104f4575b6103ea61119d565b907fffffffffffffffffffffffffffffffffffffffffffffffffffffffffffffffff01841115610721565b6104208784886115a3565b61044461043461042f8561076b565b610f39565b61043e8984611186565b906112f1565b61046884610451896107f7565b9060018060a01b0316600052602052604060002090565b5586146104db575b501680917f45892a46e6cef329bb642da6d69846d324db43d19008edc141ed82382eda1bee604051806104a888829190602083019252565b0390a361239a565b6104d960017f080f9836d135d84bdc1ee0b4214e5f2ae76516c41178c6f14a73685c9c3e5f1455565b005b6104ee90826104e9876107b1565b6111fc565b38610470565b6104fc610aef565b6103e2565b956103b9565b61051082612316565b6103a3565b61051d61090f565b610379565b503461000e576060367ffffffffffffffffffffffffffffffffffffffffffffffffffffffffffffffffc011261000e576104b061055d6100e1565b610565610104565b6044359160027f080f9836d135d84bdc1ee0b4214e5f2ae76516c41178c6f14a73685c9c3e5f1461059c600182541461032861065c565b556105ad60ff600361033f8561076b565b60ff7f5076ab9fa18d2a17cfce4375a530b76392de8264a11126885cd5534d39f0a983541661064e575b6106496105e26108bc565b6040517f23b872dd00000000000000000000000000000000000000000000000000000000602082015273ffffffffffffffffffffffffffffffffffffffff9182166024820152306044820152606480820187905281529061064282610183565b84166124a9565b611341565b61065782612370565b6105d7565b604051906106698261019f565b600382527f31303600000000000000000000000000000000000000000000000000000000006020830152565b918091926000905b8282106106b55750116106ae575050565b6000910152565b9150806020918301518186015201829161069d565b906020916106e381518092818552858086019101610695565b601f017fffffffffffffffffffffffffffffffffffffffffffffffffffffffffffffffe016010190565b90602061071e9281815201906106ca565b90565b156107295750565b6040517f08c379a0000000000000000000000000000000000000000000000000000000008152602060048201529081906107679060248301906106ca565b0390fd5b73ffffffffffffffffffffffffffffffffffffffff1660009081527f5076ab9fa18d2a17cfce4375a530b76392de8264a11126885cd5534d39f0a9856020526040902090565b73ffffffffffffffffffffffffffffffffffffffff1660009081527f5076ab9fa18d2a17cfce4375a530b76392de8264a11126885cd5534d39f0a9876020526040902090565b73ffffffffffffffffffffffffffffffffffffffff1660009081527f5076ab9fa18d2a17cfce4375a530b76392de8264a11126885cd5534d39f0a9866020526040902090565b73ffffffffffffffffffffffffffffffffffffffff1660009081527f5076ab9fa18d2a17cfce4375a530b76392de8264a11126885cd5534d39f0a9846020526040902090565b604051906108908261019f565b600382527f32313800000000000000000000000000000000000000000000000000000000006020830152565b33300361090b576108cc36610229565b6108d960405191826101d7565b3681523660006020830137600060203692909201918201525173ffffffffffffffffffffffffffffffffffffffff1690565b3390565b6109176108bc565b73ffffffffffffffffffffffffffffffffffffffff811660009081527f93629c9e6816630b4636f2e33b911c9973fffdc441b0348f23d531120f630b93602052604090205460ff16156109675750565b73ffffffffffffffffffffffffffffffffffffffff16610985610b52565b90603061099183610ba4565b53607861099d83610bba565b5360295b60018111610a7c576107676037610a4a856109bc8615610c23565b610a3c6109c7610c6e565b610a366040519586947f416363657373436f6e74726f6c3a206163636f756e74200000000000000000006020870152610a09815180926020858a019101610695565b8501016011907f206973206d697373696e6720726f6c652000000000000000000000000000000081520190565b90610ad8565b03601f1981018352826101d7565b6040517f08c379a00000000000000000000000000000000000000000000000000000000081529182916004830161070d565b9080600f610ac692166010811015610acb575b7f3031323334353637383961626364656600000000000000000000000000000000901a610abc8486610bcb565b5360041c91610bea565b6109a1565b610ad3610b8d565b610a8f565b90610aeb60209282815194859201610695565b0190565b50634e487b7160e01b600052601160045260246000fd5b8060001904821181151516610b19570290565b610b21610aef565b0290565b6b033b2e3c9fd0803ce800000081198111610b3e570190565b610aeb610aef565b81198111610b3e570190565b604051906060820182811067ffffffffffffffff821117610b80575b604052602a8252604082602036910137565b610b88610127565b610b6e565b50634e487b7160e01b600052603260045260246000fd5b602090805115610bb2570190565b610aeb610b8d565b602190805160011015610bb2570190565b906020918051821015610bdd57010190565b610be5610b8d565b010190565b8015610c16575b7fffffffffffffffffffffffffffffffffffffffffffffffffffffffffffffffff0190565b610c1e610aef565b610bf1565b15610c2a57565b606460405162461bcd60e51b815260206004820152602060248201527f537472696e67733a20686578206c656e67746820696e73756666696369656e746044820152fd5b6040517f46925e0f0cc76e485772167edccb8dc449d43b23b55fc4e756b063f49099e6a0610c9b826101bb565b6042825260603660208401376030610cb283610ba4565b536078610cbe83610bba565b536041905b60018211610cd65761071e915015610c23565b80600f610d1492166010811015610acb577f3031323334353637383961626364656600000000000000000000000000000000901a610abc8486610bcb565b90610cc3565b9161022794600091610df69395610d3760ff600361033f8a61076b565b610d3f61090f565b7f5076ab9fa18d2a17cfce4375a530b76392de8264a11126885cd5534d39f0a9835460ff16610e46575b610d738787610fe0565b91818382118614610e3c57610d8d9150835b848a8a61147d565b610dae823373ffffffffffffffffffffffffffffffffffffffff8a1661239a565b83610dd6610dbd610dbd6108bc565b73ffffffffffffffffffffffffffffffffffffffff1690565b92604051968795869485936374fef1a960e11b85528c8c60048701610eb3565b03925af18015610e2f575b610e0c575b506116c8565b610e28903d806000833e610e2081836101d7565b810190610e54565b5038610e06565b610e37610ee6565b610e01565b610d8d9193610d85565b610e4f87612316565b610d69565b60208183031261000e5780519067ffffffffffffffff821161000e570181601f8201121561000e578051610e8781610229565b92610e9560405194856101d7565b8184526020828401011161000e5761071e9160208085019101610695565b919261071e95949160a094600180871b0380921685521660208401526040830152606082015281608082015201906106ca565b506040513d6000823e3d90fd5b60405190610f008261013e565b7f5076ab9fa18d2a17cfce4375a530b76392de8264a11126885cd5534d39f0a980548252565b90604051610f338161013e565b91548252565b90604051610f4681610167565b60c0610fdb60048395604051610f5b8161013e565b815481528552600181015473ffffffffffffffffffffffffffffffffffffffff9081166020870152600282015481166040870152610fd59060ff90600384015490811673ffffffffffffffffffffffffffffffffffffffff16606089015260ff60a082901c831616608089015260a81c16151560a0870152565b01610f26565b910152565b6110ac61071e92610451610ff38261076b565b936110a260046040519661100688610167565b61100f81610f26565b8852600181015473ffffffffffffffffffffffffffffffffffffffff90811660208a01526002820154610fd59160ff916110639082165b73ffffffffffffffffffffffffffffffffffffffff1660408d0152565b600384015490811673ffffffffffffffffffffffffffffffffffffffff1660608c015260ff60a082901c83161660808c015260a81c16151560a08a0152565b60c08601526107f7565b54906110c2565b9081602091031261000e575190565b6060015173ffffffffffffffffffffffffffffffffffffffff16908115611148576020906024604051809481936303d1689d60e11b835260048301525afa90811561113b575b600091611113575090565b61071e915060203d8111611134575b61112c81836101d7565b8101906110b3565b503d611122565b611143610ee6565b611108565b905090565b6040519061115a8261019f565b600382527f31303200000000000000000000000000000000000000000000000000000000006020830152565b818110611191570390565b611199610aef565b0390565b604051906111aa8261019f565b600382527f34303000000000000000000000000000000000000000000000000000000000006020830152565b80548210156111ef575b60005260206000200190600090565b6111f7610b8d565b6111e0565b909161124061120b82846111d6565b9490549461121761119d565b73ffffffffffffffffffffffffffffffffffffffff969092871660039290921b1c861614610721565b82825491600183106112e4575b600019809301808203611298575b5050508154801561128257019161127283836111d6565b909182549160031b1b1916905555565b634e487b7160e01b600052603160045260246000fd5b6112dc926112a96112b892876111d6565b90549060031b1c1691856111d6565b90919082549060031b9160018060a01b039283811b93849216901b16911916179055565b82388061125b565b6112ec610aef565b61124d565b6060015173ffffffffffffffffffffffffffffffffffffffff16908115611148576020906024604051809481936363737ac960e11b835260048301525afa90811561113b57600091611113575090565b919060207ff1c0dd7e9b98bbff859029005ef89b127af049cd18df1a8d79f0b7e019911e56916113a76040516113768161019f565b600381527f313033000000000000000000000000000000000000000000000000000000000084820152851515610721565b6113d06113b48287610fe0565b8015611402575b856113c861042f8561076b565b9101906112f1565b6113dd82610451886107f7565b5560405193845273ffffffffffffffffffffffffffffffffffffffff908116941692a3565b611432836112b86114128a6107b1565b80549068010000000000000000821015611437575b6001820181556111d6565b6113bb565b61143f610127565b611427565b604051906114518261019f565b600382527f32333600000000000000000000000000000000000000000000000000000000006020830152565b907fbf166edf3b90190dbd0a258313aada9827835adddd08a0051db7d61fc2f129b69294916114b56114ad61114d565b871515610721565b60018060a01b03928284831696876000527f5076ab9fa18d2a17cfce4375a530b76392de8264a11126885cd5534d39f0a98760205261152f60406000205460018110611596575b61150461119d565b907fffffffffffffffffffffffffffffffffffffffffffffffffffffffffffffffff01851115610721565b61154361153a611444565b8a831015610721565b61155c61155261042f8461076b565b61043e8b84611186565b61156983610451876107f7565b558814611582575b5050604051958652501692602090a3565b6104e961158e936107b1565b388082611571565b61159e610aef565b6114fc565b90916000604051906115b48261013e565b8152936115c0836107b1565b91604051808481955480845260208094019160005283600020936000905b828210611698575050506115f4925003846101d7565b6000955b83518710156116555761164961164f916116426116326116188b89611802565b5173ffffffffffffffffffffffffffffffffffffffff1690565b61163c818a610fe0565b90611c70565b5090611824565b966117d4565b956115f8565b9250611687919550926116816116716116909561022797611c70565b509161167b610ef3565b90611853565b9261179a565b90519051101590565b610328611444565b855473ffffffffffffffffffffffffffffffffffffffff16845260019586019589955093810193909101906115de565b60405160006116d68261013e565b8152926116e2826107b1565b90604051808381945480845260208094019160005283600020936000905b82821061176a57505050611716925003836101d7565b6000945b82518610156117505761174461174a9161164261173a6116188a88611802565b61163c8189610fe0565b956117d4565b9461171a565b915093506116876116909261168161167161022796611d7e565b855473ffffffffffffffffffffffffffffffffffffffff1684526001958601958895509381019390910190611700565b60006040516117a88161013e565b525190518082106117c7575b604051916117c18361013e565b03815290565b6117cf610aef565b6117b4565b6001907fffffffffffffffffffffffffffffffffffffffffffffffffffffffffffffffff8114610b3e570190565b6020918151811015611817575b60051b010190565b61181f610b8d565b61180f565b906118419160006040516118378161013e565b5251905190610b46565b6040519061184e8261013e565b815290565b9190916040516118628161013e565b60008091526040516118738161013e565b81815273ffffffffffffffffffffffffffffffffffffffff831660009081527f5076ab9fa18d2a17cfce4375a530b76392de8264a11126885cd5534d39f0a98a6020526040902090939091604051808481955480845260208094019185528385209385905b828210611941575050506118ee925003846101d7565b935b82518510156119325761192661192c916119206119106116188988611802565b61191a81896119c1565b90612015565b90611824565b946117d4565b936118f0565b915093915061071e925061198d565b855473ffffffffffffffffffffffffffffffffffffffff16845260019586019589955093810193909101906118d8565b604d8111611980575b600a0a90565b611988610aef565b61197a565b670de0b6b3a7640000916119b39160006040516119a98161013e565b5251905190610b06565b046040519061184e8261013e565b611b4290611b3c611b27611b1185610451611a0d8260018060a01b03166000527f5076ab9fa18d2a17cfce4375a530b76392de8264a11126885cd5534d39f0a988602052604060002090565b95611acb611ac26007611a1e6101f9565b99611a2881610f26565b8b52600181015473ffffffffffffffffffffffffffffffffffffffff1660208c01526002810154611a6e9073ffffffffffffffffffffffffffffffffffffffff16611046565b600381015460608c0152600481015473ffffffffffffffffffffffffffffffffffffffff1660808c0152611aa460058201610f26565b60a08c0152611ab560068201610f26565b60c08c0152015460ff1690565b151560e0890152565b73ffffffffffffffffffffffffffffffffffffffff1660009081527f028c7d8c2729a6bb9150d56b34c68e690d2d010cd1f97ccb986fdd9fba86b18a6020526040902090565b546fffffffffffffffffffffffffffffffff1690565b6fffffffffffffffffffffffffffffffff1690565b90611c0a565b908115611ba85773ffffffffffffffffffffffffffffffffffffffff1660009081527f028c7d8c2729a6bb9150d56b34c68e690d2d010cd1f97ccb986fdd9fba86b1896020526040902061071e91611ba391611b9d906121bc565b90611baf565b611beb565b5050600090565b816b019d971e4fe8401e7400000019048111158215171561000e576b033b2e3c9fd0803ce800000091026b019d971e4fe8401e74000000010490565b90631dcd6500633b9aca0080840493061015611c0357565b9060010190565b608001516040517f07a2d13a00000000000000000000000000000000000000000000000000000000815260048101929092526020908290602490829073ffffffffffffffffffffffffffffffffffffffff165afa90811561113b57600091611113575090565b611d5e611ca0611d7a929493946000604051611c8b8161013e565b526000604051611c9a8161013e565b5261076b565b93611d59611d5360405196611cb488610167565b611cbd81610f26565b8852600181015473ffffffffffffffffffffffffffffffffffffffff90811660208a015260028201549091611d479160049190611cfb908516611046565b600381015493841673ffffffffffffffffffffffffffffffffffffffff1660608c0152610fd560ff60808d0195611d3a828260a01c16889060ff169052565b60a81c16151560a08d0152565b60c08901525160ff1690565b60ff1690565b611fbc565b92611d72611d6b82611e2a565b809561198d565b90519061198d565b9190565b611d90906000604051611c8b8161013e565b90611d7a611d5e611e25611d5360405195611daa87610167565b611db381610f26565b8752600181015473ffffffffffffffffffffffffffffffffffffffff90811660208901526002820154811660408901526003820154908116606089015260ff60a082901c811660808a0190815292611e1992600492610fd59160a81c16151560a08c0152565b60c08801525160ff1690565b611eef565b60206004916000604051611e3d8161013e565b528101516040517f50d25bcd000000000000000000000000000000000000000000000000000000008152928391829073ffffffffffffffffffffffffffffffffffffffff165afa908115611ee2575b600091611eb1575b506000604051611ea38161013e565b526040519061184e8261013e565b906020823d8211611eda575b81611eca602093836101d7565b810103126100de57505138611e94565b3d9150611ebd565b611eea610ee6565b611e8c565b6000604051611efd8161013e565b5260405190611f0b8261013e565b600082526012811015611f445790611f318261071e93601210611f37575b601203611971565b90611ffb565b611f3f610aef565b611f29565b60128111611f50575090565b611f7b907fffffffffffffffffffffffffffffffffffffffffffffffffffffffffffffffee01611971565b906000604051611f8a8161013e565b5251908015611fa65760405191611fa08361013e565b04815290565b634e487b7160e01b600052601260045260246000fd5b6000604051611fca8161013e565b5260405191611fd88361013e565b82526012811015611f445790611f318261071e93601210611f3757601203611971565b9061184191600060405161200e8161013e565b5251610b06565b9061213561207561213f93600060405161202e8161013e565b5273ffffffffffffffffffffffffffffffffffffffff1660009081527f5076ab9fa18d2a17cfce4375a530b76392de8264a11126885cd5534d39f0a9886020526040902090565b9161212f61212660076120866101f9565b9561209081610f26565b8752600181015473ffffffffffffffffffffffffffffffffffffffff166020880152600281015473ffffffffffffffffffffffffffffffffffffffff16604088015260038101546060880152600481015473ffffffffffffffffffffffffffffffffffffffff16608088015261210860058201610f26565b60a088015261211960068201610f26565b60c0880152015460ff1690565b151560e0850152565b8261217d565b519051519061214d565b61214761021a565b90815290565b816706f05b59d3b2000019048111158215171561000e57670de0b6b3a764000091026706f05b59d3b20000010490565b9061219961071e9260006040516121938161013e565b52611e2a565b60006040516121a78161013e565b52604051916121b58361013e565b825261198d565b600481015473ffffffffffffffffffffffffffffffffffffffff8116156122185764ffffffffff8042169160a01c1614611b115761071e906fffffffffffffffffffffffffffffffff61220f428361222a565b91541690611baf565b50506b033b2e3c9fd0803ce800000090565b600481015490916122459160a01c64ffffffffff1690611186565b8015612218576122fc6122d86122fc6122f76122c76122dd956122f16122ea61071e99600019840197889160006002871160001461230157506122d86122e361229b611b2760026001198b01955b015460801c90565b9d8e6122d86122d16122c76122c06122b38580611baf565b66038882915c4000900490565b9384611baf565b6301e13380900490565b978b610b06565b610b06565b60011c90565b9a87610b06565b6006900490565b96610b06565b610b25565b610b46565b6122e361229b611b2760026122d89495612293565b61231f9061083d565b600160005260205261022760ff6040600020541615604051906123418261019f565b600382527f32333200000000000000000000000000000000000000000000000000000000006020830152610721565b6123799061083d565b6000805260205261022760ff6040600020541615604051906123418261019f565b6040517fa9059cbb00000000000000000000000000000000000000000000000000000000602082015273ffffffffffffffffffffffffffffffffffffffff9092166024830152604480830193909352918152610227916080820167ffffffffffffffff811183821017612410575b6040526124a9565b612418610127565b612408565b1561242457565b6040517f08c379a000000000000000000000000000000000000000000000000000000000815260206004820152602a60248201527f5361666545524332303a204552433230206f7065726174696f6e20646964206e60448201527f6f742073756363656564000000000000000000000000000000000000000000006064820152608490fd5b60018060a01b03166125256040516124c08161019f565b6020928382527f5361666545524332303a206c6f772d6c6576656c2063616c6c206661696c6564848301526000808686829851910182855af13d15612561573d9161250a83610229565b9261251860405194856101d7565b83523d878785013e612565565b805180612533575b50505050565b8183918101031261255d5701519081151582036100de57506125549061241d565b3880808061252d565b8280fd5b6060915b919290156125e15750815115612579575090565b3b156125825790565b6040517f08c379a000000000000000000000000000000000000000000000000000000000815260206004820152601d60248201527f416464726573733a2063616c6c20746f206e6f6e2d636f6e74726163740000006044820152606490fd5b8251909150156125f45750805190602001fd5b6040517f08c379a0000000000000000000000000000000000000000000000000000000008152908190610767906004830161070d56fea264697066735822122064ae20fc6393a18e0a1650a47ab3585b7d00ba2c770ea6f776ac29684b4661fc64736f6c634300080e0033",
  "devdoc": {
    "author": "Kresko",
    "kind": "dev",
    "methods": {
      "depositCollateral(address,address,uint256)": {
        "params": {
          "_account": "The user to deposit collateral for.",
          "_collateralAsset": "The address of the collateral asset.",
          "_depositAmount": "The amount of the collateral asset to deposit."
        }
      },
      "withdrawCollateral(address,address,uint256,uint256)": {
        "details": "Requires that the post-withdrawal collateral value does not violate minimum collateral requirement.",
        "params": {
          "_account": "The address to withdraw assets for.",
          "_collateralAsset": "The address of the collateral asset.",
          "_depositedCollateralAssetIndex": "The index of the collateral asset in the sender's deposited collateral assets array. Only needed if withdrawing the entire deposit of a particular collateral asset.",
          "_withdrawAmount": "The amount of the collateral asset to withdraw."
        }
      },
      "withdrawCollateralUnchecked(address,address,uint256,uint256,bytes)": {
        "details": "Executes post-withdraw-callback triggering onUncheckedCollateralWithdraw on the callerRequires that the post-withdraw-callback collateral value does not violate minimum collateral requirement.",
        "params": {
          "_account": "The address to withdraw assets for.",
          "_collateralAsset": "The address of the collateral asset.",
          "_depositedCollateralAssetIndex": "The index of the collateral asset in the sender's deposited collateral assets array. Only needed if withdrawing the entire deposit of a particular collateral asset.",
          "_withdrawAmount": "The amount of the collateral asset to withdraw."
        }
      }
    },
    "title": "DepositWithdrawFacet",
    "version": 1
  },
  "userdoc": {
    "kind": "user",
    "methods": {
      "depositCollateral(address,address,uint256)": {
        "notice": "Deposits collateral into the protocol."
      },
      "withdrawCollateral(address,address,uint256,uint256)": {
        "notice": "Withdraws sender's collateral from the protocol."
      },
      "withdrawCollateralUnchecked(address,address,uint256,uint256,bytes)": {
        "notice": "Withdraws sender's collateral from the protocol before checking minimum collateral ratio."
      }
    },
    "notice": "Main end-user functionality concerning collateral asset deposits and withdrawals within the Kresko protocol",
    "version": 1
  },
  "storageLayout": {
    "storage": [],
    "types": null
  }
}