{
  "address": "0xd0A72142663b8b60d4AB2192Abddb3dC1d62638E",
  "abi": [
    {
      "anonymous": false,
      "inputs": [
        {
          "components": [
            {
              "internalType": "address",
              "name": "facetAddress",
              "type": "address"
            },
            {
              "internalType": "enum IDiamondCut.FacetCutAction",
              "name": "action",
              "type": "uint8"
            },
            {
              "internalType": "bytes4[]",
              "name": "functionSelectors",
              "type": "bytes4[]"
            }
          ],
          "indexed": false,
          "internalType": "struct IDiamondCut.FacetCut[]",
          "name": "_diamondCut",
          "type": "tuple[]"
        },
        {
          "indexed": false,
          "internalType": "address",
          "name": "_init",
          "type": "address"
        },
        {
          "indexed": false,
          "internalType": "bytes",
          "name": "_calldata",
          "type": "bytes"
        }
      ],
      "name": "DiamondCut",
      "type": "event"
    },
    {
      "inputs": [
        {
          "components": [
            {
              "internalType": "address",
              "name": "facetAddress",
              "type": "address"
            },
            {
              "internalType": "enum IDiamondCut.FacetCutAction",
              "name": "action",
              "type": "uint8"
            },
            {
              "internalType": "bytes4[]",
              "name": "functionSelectors",
              "type": "bytes4[]"
            }
          ],
          "internalType": "struct IDiamondCut.FacetCut[]",
          "name": "_diamondCut",
          "type": "tuple[]"
        },
        {
          "internalType": "address",
          "name": "_init",
          "type": "address"
        },
        {
          "internalType": "bytes",
          "name": "_calldata",
          "type": "bytes"
        }
      ],
      "name": "diamondCut",
      "outputs": [],
      "stateMutability": "nonpayable",
      "type": "function"
    },
    {
      "inputs": [
        {
          "internalType": "address",
          "name": "_init",
          "type": "address"
        },
        {
          "internalType": "bytes",
          "name": "_calldata",
          "type": "bytes"
        }
      ],
      "name": "upgradeState",
      "outputs": [],
      "stateMutability": "nonpayable",
      "type": "function"
    }
  ],
  "transactionHash": "0x1bf69490a261931a5b7cd681a4293efb9d39c262674a2410b6e2c139bac2cf32",
  "args": [],
  "numDeployments": 1,
  "solcInputHash": "982b6a22f97b2c235980e50ae289fa10",
  "bytecode": "0x608060405234801561001057600080fd5b5061282d806100206000396000f3fe608060405234801561001057600080fd5b50600436106100365760003560e01c80631f931c1c1461003b57806333400db014610057575b600080fd5b6100556004803603810190610050919061188f565b610073565b005b610071600480360381019061006c9190611924565b6101c1565b005b61007b6102ed565b60060160009054906101000a900473ffffffffffffffffffffffffffffffffffffffff1673ffffffffffffffffffffffffffffffffffffffff166100bd61031a565b73ffffffffffffffffffffffffffffffffffffffff16146040518060400160405280602081526020017f6b724469616d6f6e643a204d757374206265206469616d6f6e64206f776e65728152509061014b576040517f08c379a00000000000000000000000000000000000000000000000000000000081526004016101429190611a1d565b60405180910390fd5b506101ba85859061015c9190611d37565b8484848080601f016020809104026020016040519081016040528093929190818152602001838380828437600081840152601f19601f820116905080830192505050505050506101aa6102ed565b6103ca909392919063ffffffff16565b5050505050565b6101c96102ed565b60060160009054906101000a900473ffffffffffffffffffffffffffffffffffffffff1673ffffffffffffffffffffffffffffffffffffffff1661020b61031a565b73ffffffffffffffffffffffffffffffffffffffff16146040518060400160405280602081526020017f6b724469616d6f6e643a204d757374206265206469616d6f6e64206f776e657281525090610299576040517f08c379a00000000000000000000000000000000000000000000000000000000081526004016102909190611a1d565b60405180910390fd5b506102e88383838080601f016020809104026020016040519081016040528093929190818152602001838380828437600081840152601f19601f8201169050808301925050505050505061061b565b505050565b6000807f080f9836d135d84bdc1ee0b4214e5f2ae76516c41178c6f14a73685c9c3e5f0990508091505090565b60003073ffffffffffffffffffffffffffffffffffffffff163373ffffffffffffffffffffffffffffffffffffffff16036103c357600080368080601f016020809104026020016040519081016040528093929190818152602001838380828437600081840152601f19601f820116905080830192505050505050509050600080369050905073ffffffffffffffffffffffffffffffffffffffff8183015116925050506103c7565b3390505b90565b60005b83518110156105cf5760008482815181106103eb576103ea611d4c565b5b60200260200101516020015190506000600281111561040d5761040c611d7b565b5b8160028111156104205761041f611d7b565b5b0361047b5761047685838151811061043b5761043a611d4c565b5b60200260200101516000015186848151811061045a57610459611d4c565b5b602002602001015160400151886107f99092919063ffffffff16565b6105bb565b6001600281111561048f5761048e611d7b565b5b8160028111156104a2576104a1611d7b565b5b036104fd576104f88583815181106104bd576104bc611d4c565b5b6020026020010151600001518684815181106104dc576104db611d4c565b5b60200260200101516040015188610a789092919063ffffffff16565b6105ba565b6002808111156105105761050f611d7b565b5b81600281111561052357610522611d7b565b5b0361057e5761057985838151811061053e5761053d611d4c565b5b60200260200101516000015186848151811061055d5761055c611d4c565b5b60200260200101516040015188610d0b9092919063ffffffff16565b6105b9565b6040517f08c379a00000000000000000000000000000000000000000000000000000000081526004016105b090611e1c565b60405180910390fd5b5b5b5080806105c790611e75565b9150506103cd565b507f8faa70878671ccd212d20771b795c50af8fd3ff6cf27f4bde57e5d4de0aeb67383838360405161060393929190612148565b60405180910390a1610615828261061b565b50505050565b600073ffffffffffffffffffffffffffffffffffffffff168273ffffffffffffffffffffffffffffffffffffffff1603610698576000815114610693576040517f08c379a000000000000000000000000000000000000000000000000000000000815260040161068a906121ff565b60405180910390fd5b6107f5565b60008151116106dc576040517f08c379a00000000000000000000000000000000000000000000000000000000081526004016106d390612291565b60405180910390fd5b6106fe826040518060600160405280602581526020016127d360259139610e94565b6000808373ffffffffffffffffffffffffffffffffffffffff168360405161072691906122ed565b600060405180830381855af49150503d8060008114610761576040519150601f19603f3d011682016040523d82523d6000602084013e610766565b606091505b5091509150816107f2576000815111156107b757806040517f08c379a00000000000000000000000000000000000000000000000000000000081526004016107ae9190611a1d565b60405180910390fd5b6040517f08c379a00000000000000000000000000000000000000000000000000000000081526004016107e990612376565b60405180910390fd5b50505b5050565b600081511161083d576040517f08c379a000000000000000000000000000000000000000000000000000000000815260040161083490612408565b60405180910390fd5b600073ffffffffffffffffffffffffffffffffffffffff168273ffffffffffffffffffffffffffffffffffffffff16036108ac576040517f08c379a00000000000000000000000000000000000000000000000000000000081526004016108a39061249a565b60405180910390fd5b60008360010160008473ffffffffffffffffffffffffffffffffffffffff1673ffffffffffffffffffffffffffffffffffffffff1681526020019081526020016000206000018054905090506000816bffffffffffffffffffffffff1603610922576109218385610ee690919063ffffffff16565b5b60005b8251811015610a7157600083828151811061094357610942611d4c565b5b602002602001015190506000866000016000837bffffffffffffffffffffffffffffffffffffffffffffffffffffffff19167bffffffffffffffffffffffffffffffffffffffffffffffffffffffff1916815260200190815260200160002060000160009054906101000a900473ffffffffffffffffffffffffffffffffffffffff169050600073ffffffffffffffffffffffffffffffffffffffff168173ffffffffffffffffffffffffffffffffffffffff1614610a37576040517f08c379a0000000000000000000000000000000000000000000000000000000008152600401610a2e9061252c565b60405180910390fd5b610a4e8285888a610fc1909392919063ffffffff16565b8380610a5990612564565b94505050508080610a6990611e75565b915050610925565b5050505050565b6000815111610abc576040517f08c379a0000000000000000000000000000000000000000000000000000000008152600401610ab390612408565b60405180910390fd5b600073ffffffffffffffffffffffffffffffffffffffff168273ffffffffffffffffffffffffffffffffffffffff1603610b2b576040517f08c379a0000000000000000000000000000000000000000000000000000000008152600401610b229061249a565b60405180910390fd5b60008360010160008473ffffffffffffffffffffffffffffffffffffffff1673ffffffffffffffffffffffffffffffffffffffff1681526020019081526020016000206000018054905090506000816bffffffffffffffffffffffff1603610ba157610ba08385610ee690919063ffffffff16565b5b60005b8251811015610d04576000838281518110610bc257610bc1611d4c565b5b602002602001015190506000866000016000837bffffffffffffffffffffffffffffffffffffffffffffffffffffffff19167bffffffffffffffffffffffffffffffffffffffffffffffffffffffff1916815260200190815260200160002060000160009054906101000a900473ffffffffffffffffffffffffffffffffffffffff1690508573ffffffffffffffffffffffffffffffffffffffff168173ffffffffffffffffffffffffffffffffffffffff1603610cb5576040517f08c379a0000000000000000000000000000000000000000000000000000000008152600401610cac9061260a565b60405180910390fd5b610cca81838961116e9092919063ffffffff16565b610ce18285888a610fc1909392919063ffffffff16565b8380610cec90612564565b94505050508080610cfc90611e75565b915050610ba4565b5050505050565b6000815111610d4f576040517f08c379a0000000000000000000000000000000000000000000000000000000008152600401610d4690612408565b60405180910390fd5b600073ffffffffffffffffffffffffffffffffffffffff168273ffffffffffffffffffffffffffffffffffffffff1614610dbe576040517f08c379a0000000000000000000000000000000000000000000000000000000008152600401610db59061269c565b60405180910390fd5b60005b8151811015610e8e576000828281518110610ddf57610dde611d4c565b5b602002602001015190506000856000016000837bffffffffffffffffffffffffffffffffffffffffffffffffffffffff19167bffffffffffffffffffffffffffffffffffffffffffffffffffffffff1916815260200190815260200160002060000160009054906101000a900473ffffffffffffffffffffffffffffffffffffffff169050610e7981838861116e9092919063ffffffff16565b50508080610e8690611e75565b915050610dc1565b50505050565b6000823b9050600081118290610ee0576040517f08c379a0000000000000000000000000000000000000000000000000000000008152600401610ed79190611a1d565b60405180910390fd5b50505050565b610f08816040518060600160405280602181526020016127b260219139610e94565b81600201805490508260010160008373ffffffffffffffffffffffffffffffffffffffff1673ffffffffffffffffffffffffffffffffffffffff1681526020019081526020016000206001018190555081600201819080600181540180825580915050600190039060005260206000200160009091909190916101000a81548173ffffffffffffffffffffffffffffffffffffffff021916908373ffffffffffffffffffffffffffffffffffffffff1602179055505050565b81846000016000857bffffffffffffffffffffffffffffffffffffffffffffffffffffffff19167bffffffffffffffffffffffffffffffffffffffffffffffffffffffff1916815260200190815260200160002060000160146101000a8154816bffffffffffffffffffffffff02191690836bffffffffffffffffffffffff1602179055508360010160008273ffffffffffffffffffffffffffffffffffffffff1673ffffffffffffffffffffffffffffffffffffffff1681526020019081526020016000206000018390806001815401808255809150506001900390600052602060002090600891828204019190066004029091909190916101000a81548163ffffffff021916908360e01c021790555080846000016000857bffffffffffffffffffffffffffffffffffffffffffffffffffffffff19167bffffffffffffffffffffffffffffffffffffffffffffffffffffffff1916815260200190815260200160002060000160006101000a81548173ffffffffffffffffffffffffffffffffffffffff021916908373ffffffffffffffffffffffffffffffffffffffff16021790555050505050565b600073ffffffffffffffffffffffffffffffffffffffff168273ffffffffffffffffffffffffffffffffffffffff16036111dd576040517f08c379a00000000000000000000000000000000000000000000000000000000081526004016111d49061272e565b60405180910390fd5b6000836000016000837bffffffffffffffffffffffffffffffffffffffffffffffffffffffff19167bffffffffffffffffffffffffffffffffffffffffffffffffffffffff1916815260200190815260200160002060000160149054906101000a90046bffffffffffffffffffffffff166bffffffffffffffffffffffff169050600060018560010160008673ffffffffffffffffffffffffffffffffffffffff1673ffffffffffffffffffffffffffffffffffffffff168152602001908152602001600020600001805490506112b4919061274e565b90508082146114485760008560010160008673ffffffffffffffffffffffffffffffffffffffff1673ffffffffffffffffffffffffffffffffffffffff168152602001908152602001600020600001828154811061131557611314611d4c565b5b90600052602060002090600891828204019190066004029054906101000a900460e01b9050808660010160008773ffffffffffffffffffffffffffffffffffffffff1673ffffffffffffffffffffffffffffffffffffffff168152602001908152602001600020600001848154811061139157611390611d4c565b5b90600052602060002090600891828204019190066004026101000a81548163ffffffff021916908360e01c021790555082866000016000837bffffffffffffffffffffffffffffffffffffffffffffffffffffffff19167bffffffffffffffffffffffffffffffffffffffffffffffffffffffff1916815260200190815260200160002060000160146101000a8154816bffffffffffffffffffffffff02191690836bffffffffffffffffffffffff160217905550505b8460010160008573ffffffffffffffffffffffffffffffffffffffff1673ffffffffffffffffffffffffffffffffffffffff16815260200190815260200160002060000180548061149c5761149b612782565b5b60019003818190600052602060002090600891828204019190066004026101000a81549063ffffffff02191690559055846000016000847bffffffffffffffffffffffffffffffffffffffffffffffffffffffff19167bffffffffffffffffffffffffffffffffffffffffffffffffffffffff19168152602001908152602001600020600080820160006101000a81549073ffffffffffffffffffffffffffffffffffffffff02191690556000820160146101000a8154906bffffffffffffffffffffffff021916905550506000810361175b57600060018660020180549050611586919061274e565b905060008660010160008773ffffffffffffffffffffffffffffffffffffffff1673ffffffffffffffffffffffffffffffffffffffff1681526020019081526020016000206001015490508181146116c75760008760020183815481106115f0576115ef611d4c565b5b9060005260206000200160009054906101000a900473ffffffffffffffffffffffffffffffffffffffff1690508088600201838154811061163457611633611d4c565b5b9060005260206000200160006101000a81548173ffffffffffffffffffffffffffffffffffffffff021916908373ffffffffffffffffffffffffffffffffffffffff160217905550818860010160008373ffffffffffffffffffffffffffffffffffffffff1673ffffffffffffffffffffffffffffffffffffffff16815260200190815260200160002060010181905550505b866002018054806116db576116da612782565b5b6001900381819060005260206000200160006101000a81549073ffffffffffffffffffffffffffffffffffffffff021916905590558660010160008773ffffffffffffffffffffffffffffffffffffffff1673ffffffffffffffffffffffffffffffffffffffff1681526020019081526020016000206001016000905550505b5050505050565b6000604051905090565b600080fd5b600080fd5b600080fd5b600080fd5b600080fd5b60008083601f84011261179b5761179a611776565b5b8235905067ffffffffffffffff8111156117b8576117b761177b565b5b6020830191508360208202830111156117d4576117d3611780565b5b9250929050565b600073ffffffffffffffffffffffffffffffffffffffff82169050919050565b6000611806826117db565b9050919050565b611816816117fb565b811461182157600080fd5b50565b6000813590506118338161180d565b92915050565b60008083601f84011261184f5761184e611776565b5b8235905067ffffffffffffffff81111561186c5761186b61177b565b5b60208301915083600182028301111561188857611887611780565b5b9250929050565b6000806000806000606086880312156118ab576118aa61176c565b5b600086013567ffffffffffffffff8111156118c9576118c8611771565b5b6118d588828901611785565b955095505060206118e888828901611824565b935050604086013567ffffffffffffffff81111561190957611908611771565b5b61191588828901611839565b92509250509295509295909350565b60008060006040848603121561193d5761193c61176c565b5b600061194b86828701611824565b935050602084013567ffffffffffffffff81111561196c5761196b611771565b5b61197886828701611839565b92509250509250925092565b600081519050919050565b600082825260208201905092915050565b60005b838110156119be5780820151818401526020810190506119a3565b838111156119cd576000848401525b50505050565b6000601f19601f8301169050919050565b60006119ef82611984565b6119f9818561198f565b9350611a098185602086016119a0565b611a12816119d3565b840191505092915050565b60006020820190508181036000830152611a3781846119e4565b905092915050565b7f4e487b7100000000000000000000000000000000000000000000000000000000600052604160045260246000fd5b611a77826119d3565b810181811067ffffffffffffffff82111715611a9657611a95611a3f565b5b80604052505050565b6000611aa9611762565b9050611ab58282611a6e565b919050565b600067ffffffffffffffff821115611ad557611ad4611a3f565b5b602082029050602081019050919050565b600080fd5b600080fd5b60038110611afd57600080fd5b50565b600081359050611b0f81611af0565b92915050565b600067ffffffffffffffff821115611b3057611b2f611a3f565b5b602082029050602081019050919050565b60007fffffffff0000000000000000000000000000000000000000000000000000000082169050919050565b611b7681611b41565b8114611b8157600080fd5b50565b600081359050611b9381611b6d565b92915050565b6000611bac611ba784611b15565b611a9f565b90508083825260208201905060208402830185811115611bcf57611bce611780565b5b835b81811015611bf85780611be48882611b84565b845260208401935050602081019050611bd1565b5050509392505050565b600082601f830112611c1757611c16611776565b5b8135611c27848260208601611b99565b91505092915050565b600060608284031215611c4657611c45611ae6565b5b611c506060611a9f565b90506000611c6084828501611824565b6000830152506020611c7484828501611b00565b602083015250604082013567ffffffffffffffff811115611c9857611c97611aeb565b5b611ca484828501611c02565b60408301525092915050565b6000611cc3611cbe84611aba565b611a9f565b90508083825260208201905060208402830185811115611ce657611ce5611780565b5b835b81811015611d2d57803567ffffffffffffffff811115611d0b57611d0a611776565b5b808601611d188982611c30565b85526020850194505050602081019050611ce8565b5050509392505050565b6000611d44368484611cb0565b905092915050565b7f4e487b7100000000000000000000000000000000000000000000000000000000600052603260045260246000fd5b7f4e487b7100000000000000000000000000000000000000000000000000000000600052602160045260246000fd5b7f4469616d6f6e644375743a20496e636f7272656374204661636574437574416360008201527f74696f6e00000000000000000000000000000000000000000000000000000000602082015250565b6000611e0660248361198f565b9150611e1182611daa565b604082019050919050565b60006020820190508181036000830152611e3581611df9565b9050919050565b7f4e487b7100000000000000000000000000000000000000000000000000000000600052601160045260246000fd5b6000819050919050565b6000611e8082611e6b565b91507fffffffffffffffffffffffffffffffffffffffffffffffffffffffffffffffff8203611eb257611eb1611e3c565b5b600182019050919050565b600081519050919050565b600082825260208201905092915050565b6000819050602082019050919050565b611ef2816117fb565b82525050565b60038110611f0957611f08611d7b565b5b50565b6000819050611f1a82611ef8565b919050565b6000611f2a82611f0c565b9050919050565b611f3a81611f1f565b82525050565b600081519050919050565b600082825260208201905092915050565b6000819050602082019050919050565b611f7581611b41565b82525050565b6000611f878383611f6c565b60208301905092915050565b6000602082019050919050565b6000611fab82611f40565b611fb58185611f4b565b9350611fc083611f5c565b8060005b83811015611ff1578151611fd88882611f7b565b9750611fe383611f93565b925050600181019050611fc4565b5085935050505092915050565b60006060830160008301516120166000860182611ee9565b5060208301516120296020860182611f31565b50604083015184820360408601526120418282611fa0565b9150508091505092915050565b600061205a8383611ffe565b905092915050565b6000602082019050919050565b600061207a82611ebd565b6120848185611ec8565b93508360208202850161209685611ed9565b8060005b858110156120d257848403895281516120b3858261204e565b94506120be83612062565b925060208a0199505060018101905061209a565b50829750879550505050505092915050565b6120ed816117fb565b82525050565b600081519050919050565b600082825260208201905092915050565b600061211a826120f3565b61212481856120fe565b93506121348185602086016119a0565b61213d816119d3565b840191505092915050565b60006060820190508181036000830152612162818661206f565b905061217160208301856120e4565b8181036040830152612183818461210f565b9050949350505050565b7f4469616d6f6e644375743a205f696e697420697320616464726573732830292060008201527f6275745f63616c6c64617461206973206e6f7420656d70747900000000000000602082015250565b60006121e960398361198f565b91506121f48261218d565b604082019050919050565b60006020820190508181036000830152612218816121dc565b9050919050565b7f4469616d6f6e644375743a205f63616c6c6461746120697320656d707479206260008201527f7574205f696e6974206973206e6f742061646472657373283029000000000000602082015250565b600061227b603a8361198f565b91506122868261221f565b604082019050919050565b600060208201905081810360008301526122aa8161226e565b9050919050565b600081905092915050565b60006122c7826120f3565b6122d181856122b1565b93506122e18185602086016119a0565b80840191505092915050565b60006122f982846122bc565b915081905092915050565b7f4469616d6f6e644375743a205f696e69742066756e6374696f6e20726576657260008201527f7465640000000000000000000000000000000000000000000000000000000000602082015250565b600061236060238361198f565b915061236b82612304565b604082019050919050565b6000602082019050818103600083015261238f81612353565b9050919050565b7f4469616d6f6e644375743a204e6f2073656c6563746f727320696e206661636560008201527f7420746f20637574000000000000000000000000000000000000000000000000602082015250565b60006123f260288361198f565b91506123fd82612396565b604082019050919050565b60006020820190508181036000830152612421816123e5565b9050919050565b7f4469616d6f6e644375743a204164642066616365742063616e2774206265206160008201527f6464726573732830290000000000000000000000000000000000000000000000602082015250565b600061248460298361198f565b915061248f82612428565b604082019050919050565b600060208201905081810360008301526124b381612477565b9050919050565b7f4469616d6f6e644375743a2043616e2774206164642066756e6374696f6e207460008201527f68617420616c7265616479206578697374730000000000000000000000000000602082015250565b600061251660328361198f565b9150612521826124ba565b604082019050919050565b6000602082019050818103600083015261254581612509565b9050919050565b60006bffffffffffffffffffffffff82169050919050565b600061256f8261254c565b91506bffffffffffffffffffffffff820361258d5761258c611e3c565b5b600182019050919050565b7f4469616d6f6e644375743a2043616e2774207265706c6163652066756e63746960008201527f6f6e20776974682073616d652066756e6374696f6e0000000000000000000000602082015250565b60006125f460358361198f565b91506125ff82612598565b604082019050919050565b60006020820190508181036000830152612623816125e7565b9050919050565b7f4469616d6f6e644375743a2052656d6f7665206661636574206164647265737360008201527f206d757374206265206164647265737328302900000000000000000000000000602082015250565b600061268660338361198f565b91506126918261262a565b604082019050919050565b600060208201905081810360008301526126b581612679565b9050919050565b7f4469616d6f6e644375743a2043616e27742072656d6f76652066756e6374696f60008201527f6e207468617420646f65736e2774206578697374000000000000000000000000602082015250565b600061271860348361198f565b9150612723826126bc565b604082019050919050565b600060208201905081810360008301526127478161270b565b9050919050565b600061275982611e6b565b915061276483611e6b565b92508282101561277757612776611e3c565b5b828203905092915050565b7f4e487b7100000000000000000000000000000000000000000000000000000000600052603160045260246000fdfe4469616d6f6e644375743a204e657720666163657420686173206e6f20636f64654469616d6f6e644375743a205f696e6974206164647265737320686173206e6f20636f6465a2646970667358221220031f595ad72ac86f27a5db103f5e40e8f2b9741e36ec9a3c082bc484c169c53664736f6c634300080e0033",
  "devdoc": {
    "kind": "dev",
    "methods": {
      "diamondCut((address,uint8,bytes4[])[],address,bytes)": {
        "params": {
          "_calldata": "A function call, including function selector and arguments                  _calldata is executed with delegatecall on _init",
          "_diamondCut": "Contains the facet addresses and function selectors",
          "_init": "The address of the contract or facet to execute _calldata"
        }
      },
      "upgradeState(address,bytes)": {
        "params": {
          "_calldata": "A function call, including function selector and arguments - _calldata is executed with delegatecall on _init",
          "_init": "The address of the contract or facet to execute _calldata"
        }
      }
    },
    "version": 1
  },
  "userdoc": {
    "kind": "user",
    "methods": {
      "diamondCut((address,uint8,bytes4[])[],address,bytes)": {
        "notice": "Add/replace/remove any number of functions and optionally execute  a function with delegatecall"
      },
      "upgradeState(address,bytes)": {
        "notice": "Use an initializer contract without doing modifications"
      }
    },
    "version": 1
  },
  "storageLayout": {
    "storage": [],
    "types": null
  }
}