{
  "address": "0xCc0498199e461c6e2dcFe4e21c380F0981Fc77aF",
  "abi": [
    {
      "inputs": [],
      "stateMutability": "nonpayable",
      "type": "constructor"
    },
    {
      "anonymous": false,
      "inputs": [
        {
          "indexed": true,
          "internalType": "address",
          "name": "owner",
          "type": "address"
        },
        {
          "indexed": true,
          "internalType": "address",
          "name": "approved",
          "type": "address"
        },
        {
          "indexed": true,
          "internalType": "uint256",
          "name": "tokenId",
          "type": "uint256"
        }
      ],
      "name": "Approval",
      "type": "event"
    },
    {
      "anonymous": false,
      "inputs": [
        {
          "indexed": true,
          "internalType": "address",
          "name": "owner",
          "type": "address"
        },
        {
          "indexed": true,
          "internalType": "address",
          "name": "operator",
          "type": "address"
        },
        {
          "indexed": false,
          "internalType": "bool",
          "name": "approved",
          "type": "bool"
        }
      ],
      "name": "ApprovalForAll",
      "type": "event"
    },
    {
      "anonymous": false,
      "inputs": [
        {
          "indexed": true,
          "internalType": "address",
          "name": "from",
          "type": "address"
        },
        {
          "indexed": true,
          "internalType": "address",
          "name": "to",
          "type": "address"
        },
        {
          "indexed": true,
          "internalType": "uint256",
          "name": "tokenId",
          "type": "uint256"
        }
      ],
      "name": "Transfer",
      "type": "event"
    },
    {
      "inputs": [],
      "name": "DOMAIN_SEPARATOR",
      "outputs": [
        {
          "internalType": "bytes32",
          "name": "",
          "type": "bytes32"
        }
      ],
      "stateMutability": "view",
      "type": "function"
    },
    {
      "inputs": [],
      "name": "PERMIT_TYPEHASH",
      "outputs": [
        {
          "internalType": "bytes32",
          "name": "",
          "type": "bytes32"
        }
      ],
      "stateMutability": "view",
      "type": "function"
    },
    {
      "inputs": [
        {
          "internalType": "address",
          "name": "_approved",
          "type": "address"
        },
        {
          "internalType": "uint256",
          "name": "_tokenId",
          "type": "uint256"
        }
      ],
      "name": "approve",
      "outputs": [],
      "stateMutability": "nonpayable",
      "type": "function"
    },
    {
      "inputs": [
        {
          "internalType": "address",
          "name": "_owner",
          "type": "address"
        }
      ],
      "name": "balanceOf",
      "outputs": [
        {
          "internalType": "uint256",
          "name": "",
          "type": "uint256"
        }
      ],
      "stateMutability": "view",
      "type": "function"
    },
    {
      "inputs": [
        {
          "internalType": "uint256",
          "name": "_tokenId",
          "type": "uint256"
        }
      ],
      "name": "getApproved",
      "outputs": [
        {
          "internalType": "address",
          "name": "operator",
          "type": "address"
        }
      ],
      "stateMutability": "view",
      "type": "function"
    },
    {
      "inputs": [],
      "name": "getCurrentId",
      "outputs": [
        {
          "internalType": "uint256",
          "name": "",
          "type": "uint256"
        }
      ],
      "stateMutability": "view",
      "type": "function"
    },
    {
      "inputs": [
        {
          "internalType": "address",
          "name": "_owner",
          "type": "address"
        },
        {
          "internalType": "address",
          "name": "_operator",
          "type": "address"
        }
      ],
      "name": "isApprovedForAll",
      "outputs": [
        {
          "internalType": "bool",
          "name": "",
          "type": "bool"
        }
      ],
      "stateMutability": "view",
      "type": "function"
    },
    {
      "inputs": [],
      "name": "name",
      "outputs": [
        {
          "internalType": "string",
          "name": "",
          "type": "string"
        }
      ],
      "stateMutability": "view",
      "type": "function"
    },
    {
      "inputs": [
        {
          "internalType": "uint256",
          "name": "_tokenId",
          "type": "uint256"
        }
      ],
      "name": "ownerOf",
      "outputs": [
        {
          "internalType": "address",
          "name": "",
          "type": "address"
        }
      ],
      "stateMutability": "view",
      "type": "function"
    },
    {
      "inputs": [
        {
          "internalType": "address",
          "name": "spender",
          "type": "address"
        },
        {
          "internalType": "uint256",
          "name": "tokenId",
          "type": "uint256"
        },
        {
          "internalType": "uint256",
          "name": "deadline",
          "type": "uint256"
        },
        {
          "internalType": "uint8",
          "name": "v",
          "type": "uint8"
        },
        {
          "internalType": "bytes32",
          "name": "r",
          "type": "bytes32"
        },
        {
          "internalType": "bytes32",
          "name": "s",
          "type": "bytes32"
        }
      ],
      "name": "permit",
      "outputs": [],
      "stateMutability": "payable",
      "type": "function"
    },
    {
      "inputs": [
        {
          "internalType": "address",
          "name": "_from",
          "type": "address"
        },
        {
          "internalType": "address",
          "name": "_to",
          "type": "address"
        },
        {
          "internalType": "uint256",
          "name": "_tokenId",
          "type": "uint256"
        }
      ],
      "name": "safeTransferFrom",
      "outputs": [],
      "stateMutability": "nonpayable",
      "type": "function"
    },
    {
      "inputs": [
        {
          "internalType": "address",
          "name": "_from",
          "type": "address"
        },
        {
          "internalType": "address",
          "name": "_to",
          "type": "address"
        },
        {
          "internalType": "uint256",
          "name": "_tokenId",
          "type": "uint256"
        },
        {
          "internalType": "bytes",
          "name": "_data",
          "type": "bytes"
        }
      ],
      "name": "safeTransferFrom",
      "outputs": [],
      "stateMutability": "nonpayable",
      "type": "function"
    },
    {
      "inputs": [
        {
          "internalType": "address",
          "name": "_operator",
          "type": "address"
        },
        {
          "internalType": "bool",
          "name": "_approved",
          "type": "bool"
        }
      ],
      "name": "setApprovalForAll",
      "outputs": [],
      "stateMutability": "nonpayable",
      "type": "function"
    },
    {
      "inputs": [],
      "name": "symbol",
      "outputs": [
        {
          "internalType": "string",
          "name": "",
          "type": "string"
        }
      ],
      "stateMutability": "view",
      "type": "function"
    },
    {
      "inputs": [
        {
          "internalType": "address",
          "name": "_from",
          "type": "address"
        },
        {
          "internalType": "address",
          "name": "_to",
          "type": "address"
        },
        {
          "internalType": "uint256",
          "name": "_tokenId",
          "type": "uint256"
        }
      ],
      "name": "transferFrom",
      "outputs": [],
      "stateMutability": "nonpayable",
      "type": "function"
    }
  ],
  "transactionHash": "0x7382ca85a991033c731f1ca0ac4eae665cf1dfe1e3d1ecb371d3a41f3bf7a73d",
  "args": [],
  "numDeployments": 2,
  "solcInputHash": "6631d94f6b53ea8c7f04af64e7cd9d11",
  "bytecode": "0x60c08060405234610070577f11c46bd0bd3e1ce4ade04ba3c5a440057b3c2a5618fe8e7fd1cf6c90c9960bb96080527fc89efdaa54c0f20c7adf612882df0950f5a951637e0307cdcb4c672f298b8bc660a05261175a9081610076823960805181610f70015260a05181610f960152f35b600080fdfe608080604052600436101561001357600080fd5b600090813560e01c90816306fdde0314610cea57508063081812fc14610bd8578063095ea7b314610b9457806323b872dd14610b6f57806330adf81f14610b345780633644e51514610b1157806342842e0e14610a9e5780636352211e14610a2e5780636c143862146109f157806370a082311461096e5780637ac2ff7b146104ae57806395d89b4114610360578063a22cb46514610252578063b88d4fde146101835763e985e9c5146100c657600080fd5b34610180576040367ffffffffffffffffffffffffffffffffffffffffffffffffffffffffffffffffc01126101805760ff6040602092610104610e0c565b61015761010f610e34565b73ffffffffffffffffffffffffffffffffffffffff90921660009081527fa69d290a9fc968e5d4570d812390b00825a2addd4f76316b7e43122b804de8d96020526040902090565b73ffffffffffffffffffffffffffffffffffffffff909116825284522054604051911615158152f35b80fd5b5034610180576080367ffffffffffffffffffffffffffffffffffffffffffffffffffffffffffffffffc0112610180576101bb610e0c565b6101c3610e34565b6044356064359167ffffffffffffffff831161024e573660238401121561024e57826004013593856101f486610f09565b946102026040519687610ee7565b868652366024888301011161024a57866102469760246020930183890137860101526102366102318433611103565b611077565b610241838383611571565b61136a565b5080f35b5080fd5b8480fd5b5034610180576040367ffffffffffffffffffffffffffffffffffffffffffffffffffffffffffffffffc01126101805761028a610e0c565b6024359081151580920361035c5773ffffffffffffffffffffffffffffffffffffffff163381146102fd573360009081527fa69d290a9fc968e5d4570d812390b00825a2addd4f76316b7e43122b804de8d960205260409020908352602052604082209060ff8019835416911617905580f35b6040517f08c379a000000000000000000000000000000000000000000000000000000000815260206004820152601960248201527f4552433732313a20617070726f766520746f2063616c6c6572000000000000006044820152606490fd5b8280fd5b5034610180578060031936011261018057604051817fa69d290a9fc968e5d4570d812390b00825a2addd4f76316b7e43122b804de8d592835491600183811c928185169687156104a4575b602095868610891461047757868899878a98999a5291826000146104535750506001146103fa575b5050506103e292500383610ee7565b6103f6604051928284938452830190610dcc565b0390f35b8152859250907f21b933b14ffe6ab58fd7c3aee75f3ce284841da094d61160b28f611141e42d075b85831061043b5750506103e293508201013880806103d3565b80548389018501528794508693909201918101610422565b9350945050506103e294915060ff191682840152151560051b8201013880806103d3565b7f4e487b710000000000000000000000000000000000000000000000000000000083526022600452602483fd5b93607f16936103ab565b5060c0367ffffffffffffffffffffffffffffffffffffffffffffffffffffffffffffffffc0112610180576104e1610e0c565b906064359160ff83169283810361035c576044359384421161090f57610505610f43565b90602495863586527f7fa3672f0a15500ff7afa2c728d0e7f7814ec4292bd398cee8caf1d13a0c6767602052600b60408720019283549360001985146108e35760018501905560405160208101907f49ecf333e5b8c95c40fdafc95c1ad136e8914a8fb55e9dc8bb01eaa83a2df9ad825260018060a01b0393848916968760408401528b356060840152608083015260a082015260a081526105a681610e99565b51902060405190602082019261190160f01b845260228301526042820152604281526105d181610ecb565b51902091873587527fa69d290a9fc968e5d4570d812390b00825a2addd4f76316b7e43122b804de8d66020528160408820541693841561085f5784146107db57833b156107235750509160209161067b959693604051926084358585015260a435604085015260ff60f81b9060f81b1660608401526041835261065383610ecb565b604051809781948293630b135d3f60e11b845260048401526040888401526044830190610dcc565b03915afa928315610718576106e6936106df9186916106e9575b507fffffffff00000000000000000000000000000000000000000000000000000000167f1626ba7e0000000000000000000000000000000000000000000000000000000014610fd9565b35906112c9565b80f35b61070b915060203d602011610711575b6107038183610ee7565b81019061103f565b38610695565b503d6106f9565b6040513d86823e3d90fd5b869193945060209260809160405191825284820152608435604082015260a435606082015282805260015afa156107d0578351168015610772576106e693949161076d9114610fd9565b6106df565b6040517f08c379a0000000000000000000000000000000000000000000000000000000008152602060048201526011818701527f496e76616c6964207369676e61747572650000000000000000000000000000006044820152606490fd5b6040513d85823e3d90fd5b6040517f08c379a0000000000000000000000000000000000000000000000000000000008152602060048201526027818a01527f4552433732315065726d69743a20617070726f76616c20746f2063757272656e60448201527f74206f776e6572000000000000000000000000000000000000000000000000006064820152608490fd5b6040517f08c379a0000000000000000000000000000000000000000000000000000000008152602060048201526029818b01527f455243373231203a61646472657373207a65726f206973206e6f74206120766160448201527f6c6964206f776e657200000000000000000000000000000000000000000000006064820152608490fd5b7f4e487b7100000000000000000000000000000000000000000000000000000000885260116004528888fd5b6040517f08c379a000000000000000000000000000000000000000000000000000000000815260206004820152600e60248201527f5065726d697420657870697265640000000000000000000000000000000000006044820152606490fd5b5034610180576020367ffffffffffffffffffffffffffffffffffffffffffffffffffffffffffffffffc01126101805760209060409073ffffffffffffffffffffffffffffffffffffffff6109c1610e0c565b1681527fa69d290a9fc968e5d4570d812390b00825a2addd4f76316b7e43122b804de8d783522054604051908152f35b503461018057806003193601126101805760207fa69d290a9fc968e5d4570d812390b00825a2addd4f76316b7e43122b804de8d354604051908152f35b5034610180576020367ffffffffffffffffffffffffffffffffffffffffffffffffffffffffffffffffc01126101805760209060043581527fa69d290a9fc968e5d4570d812390b00825a2addd4f76316b7e43122b804de8d68252604060018060a01b0391205416604051908152f35b503461018057610aad36610e57565b60409392935191602083019483861067ffffffffffffffff871117610ae45761024694956040528584526102366102318433611103565b7f4e487b710000000000000000000000000000000000000000000000000000000085526041600452602485fd5b50346101805780600319360112610180576020610b2c610f43565b604051908152f35b503461018057806003193601126101805760206040517f49ecf333e5b8c95c40fdafc95c1ad136e8914a8fb55e9dc8bb01eaa83a2df9ad8152f35b5034610180576106e6610b8136610e57565b91610b8f6102318433611103565b611571565b5034610180576040367ffffffffffffffffffffffffffffffffffffffffffffffffffffffffffffffffc0112610180576106e6610bcf610e0c565b602435906112c9565b5034610180576020367ffffffffffffffffffffffffffffffffffffffffffffffffffffffffffffffffc0112610180576004358082527fa69d290a9fc968e5d4570d812390b00825a2addd4f76316b7e43122b804de8d6602052604082205473ffffffffffffffffffffffffffffffffffffffff9190821615610c8b5782604091602094527fa69d290a9fc968e5d4570d812390b00825a2addd4f76316b7e43122b804de8d88452205416604051908152f35b6040517f08c379a000000000000000000000000000000000000000000000000000000000815260206004820152601860248201527f4552433732313a20696e76616c696420746f6b656e20494400000000000000006044820152606490fd5b90503461024a578160031936011261024a57817fa69d290a9fc968e5d4570d812390b00825a2addd4f76316b7e43122b804de8d492835491600183811c92818516968715610dc2575b602095868610891461047757868899878a98999a529182600014610453575050600114610d69575050506103e292500383610ee7565b8152859250907f71378b296151749ed178607cf606725b947f386eb9d5e3ed6a8549172e117d4e5b858310610daa5750506103e293508201013880806103d3565b80548389018501528794508693909201918101610d91565b93607f1693610d33565b919082519283825260005b848110610df8575050826000602080949584010152601f8019910116010190565b602081830181015184830182015201610dd7565b6004359073ffffffffffffffffffffffffffffffffffffffff82168203610e2f57565b600080fd5b6024359073ffffffffffffffffffffffffffffffffffffffff82168203610e2f57565b6060906003190112610e2f5773ffffffffffffffffffffffffffffffffffffffff906004358281168103610e2f57916024359081168103610e2f579060443590565b60c0810190811067ffffffffffffffff821117610eb557604052565b634e487b7160e01b600052604160045260246000fd5b6080810190811067ffffffffffffffff821117610eb557604052565b90601f8019910116810190811067ffffffffffffffff821117610eb557604052565b67ffffffffffffffff8111610eb557601f017fffffffffffffffffffffffffffffffffffffffffffffffffffffffffffffffe01660200190565b60405160208101907f8b73c3c69bb8fe3d512ecc4cf759cc79239f7b179b0ffacaa9a75d522b39400f82527f000000000000000000000000000000000000000000000000000000000000000060408201527f000000000000000000000000000000000000000000000000000000000000000060608201524660808201523060a082015260a08152610fd381610e99565b51902090565b15610fe057565b6040517f08c379a000000000000000000000000000000000000000000000000000000000815260206004820152600c60248201527f556e617574686f72697a656400000000000000000000000000000000000000006044820152606490fd5b90816020910312610e2f57517fffffffff0000000000000000000000000000000000000000000000000000000081168103610e2f5790565b1561107e57565b6040517f08c379a000000000000000000000000000000000000000000000000000000000815260206004820152602d60248201527f4552433732313a2063616c6c6572206973206e6f7420746f6b656e206f776e6560448201527f72206f7220617070726f766564000000000000000000000000000000000000006064820152608490fd5b9073ffffffffffffffffffffffffffffffffffffffff8080611124846111f7565b169316918383149384156111b1575b508315611141575b50505090565b80919293506000527fa69d290a9fc968e5d4570d812390b00825a2addd4f76316b7e43122b804de8d6602052816040600020541615610c8b576000527fa69d290a9fc968e5d4570d812390b00825a2addd4f76316b7e43122b804de8d8602052604060002054161438808061113b565b9093506000527fa69d290a9fc968e5d4570d812390b00825a2addd4f76316b7e43122b804de8d960205260406000208260005260205260ff604060002054169238611133565b60009081527fa69d290a9fc968e5d4570d812390b00825a2addd4f76316b7e43122b804de8d6602052604090205473ffffffffffffffffffffffffffffffffffffffff1680156112445790565b6040517f08c379a000000000000000000000000000000000000000000000000000000000815260206004820152602960248201527f455243373231203a61646472657373207a65726f206973206e6f74206120766160448201527f6c6964206f776e657200000000000000000000000000000000000000000000006064820152608490fd5b60008281527fa69d290a9fc968e5d4570d812390b00825a2addd4f76316b7e43122b804de8d86020526040902080547fffffffffffffffffffffffff00000000000000000000000000000000000000001673ffffffffffffffffffffffffffffffffffffffff92831690811790915590611342836111f7565b167f8c5be1e5ebec7d5bd14f71427d1e84f3dd0314c0f7b2291e5b200ac8c7c3b925600080a4565b92939290803b156114dc57936000916113c19560405180948193630a85bd0160e11b9788845233600485015260018060a01b0380921660248501526044840152608060648401528260209a8b976084830190610dcc565b0393165af1600091816114bd575b5061149657833d1561148e573d906113e682610f09565b916113f46040519384610ee7565b82523d60008284013e5b8151918261148b576040517f08c379a000000000000000000000000000000000000000000000000000000000815260048101839052603260248201527f4552433732313a207472616e7366657220746f206e6f6e20455243373231526560448201527f63656976657220696d706c656d656e74657200000000000000000000000000006064820152608490fd5b01fd5b6060906113fe565b7fffffffff0000000000000000000000000000000000000000000000000000000016149150565b6114d5919250853d8711610711576107038183610ee7565b90386113cf565b50600193505050565b156114ec57565b6040517f08c379a000000000000000000000000000000000000000000000000000000000815260206004820152602560248201527f4552433732313a207472616e736665722066726f6d20696e636f72726563742060448201527f6f776e65720000000000000000000000000000000000000000000000000000006064820152608490fd5b906115a69161157f846111f7565b73ffffffffffffffffffffffffffffffffffffffff939184169284929091831684146114e5565b169182156116a057816115c3916115bc866111f7565b16146114e5565b7fddf252ad1be2c89b69c2b068fc378daa952ba7f163c4a11628f55a4df523b3ef60008481527fa69d290a9fc968e5d4570d812390b00825a2addd4f76316b7e43122b804de8d8602052604081206bffffffffffffffffffffffff60a01b908181541690558382527fa69d290a9fc968e5d4570d812390b00825a2addd4f76316b7e43122b804de8d760205260408220600019815401905584825260408220600181540190558582527fa69d290a9fc968e5d4570d812390b00825a2addd4f76316b7e43122b804de8d660205284604083209182541617905580a4565b6040517f08c379a0000000000000000000000000000000000000000000000000000000008152602060048201526024808201527f4552433732313a207472616e7366657220746f20746865207a65726f2061646460448201527f72657373000000000000000000000000000000000000000000000000000000006064820152608490fdfea2646970667358221220093cac5b9441c92feeb816a2d33279d2abf527bc96cb5a49a6750bc5b004fdd664736f6c63430008130033",
  "devdoc": {
    "events": {
      "Approval(address,address,uint256)": {
        "details": "Emitted when `owner` enables `approved` to manage the `tokenId` token."
      },
      "ApprovalForAll(address,address,bool)": {
        "details": "Emitted when `owner` enables or disables (`approved`) `operator` to manage all of its assets."
      },
      "Transfer(address,address,uint256)": {
        "details": "Emitted when `tokenId` token is transferred from `from` to `to`."
      }
    },
    "kind": "dev",
    "methods": {
      "DOMAIN_SEPARATOR()": {
        "returns": {
          "_0": "The domain seperator used in encoding of permit signature"
        }
      },
      "permit(address,uint256,uint256,uint8,bytes32,bytes32)": {
        "params": {
          "deadline": "The deadline timestamp by which the call must be mined for the approve to work",
          "r": "Must produce valid secp256k1 signature from the holder along with `v` and `s`",
          "s": "Must produce valid secp256k1 signature from the holder along with `r` and `v`",
          "spender": "The account that is being approved",
          "tokenId": "The ID of the token that is being approved for spending",
          "v": "Must produce valid secp256k1 signature from the holder along with `r` and `s`"
        }
      }
    },
    "stateVariables": {
      "PERMIT_TYPEHASH": {
        "details": "Value is equal to keccak256(\"Permit(address spender,uint256 tokenId,uint256 nonce,uint256 deadline)\");",
        "return": "The typehash for the permit",
        "returns": {
          "_0": "The typehash for the permit"
        }
      },
      "nameHash": {
        "details": "The hash of the name used in the permit signature verification"
      },
      "versionHash": {
        "details": "The hash of the version string used in the permit signature verification"
      }
    },
    "version": 1
  },
  "userdoc": {
    "kind": "user",
    "methods": {
      "DOMAIN_SEPARATOR()": {
        "notice": "The domain separator used in the permit signature"
      },
      "PERMIT_TYPEHASH()": {
        "notice": "The permit typehash used in the permit signature"
      },
      "permit(address,uint256,uint256,uint8,bytes32,bytes32)": {
        "notice": "Approve of a specific token ID for spending by spender via signature"
      }
    },
    "version": 1
  },
  "storageLayout": {
    "storage": [],
    "types": null
  }
}