{
  "address": "0xcFc6ff1128686C112326a385A57934C8A4BB7E55",
  "abi": [
    {
      "inputs": [
        {
          "internalType": "contract IKISS",
          "name": "_KISS",
          "type": "address"
        },
        {
          "internalType": "address[]",
          "name": "_underlyings",
          "type": "address[]"
        }
      ],
      "stateMutability": "nonpayable",
      "type": "constructor"
    },
    {
      "anonymous": false,
      "inputs": [
        {
          "indexed": false,
          "internalType": "uint256",
          "name": "underlyingIn",
          "type": "uint256"
        },
        {
          "indexed": false,
          "internalType": "uint256",
          "name": "kissIssued",
          "type": "uint256"
        },
        {
          "indexed": true,
          "internalType": "address",
          "name": "to",
          "type": "address"
        },
        {
          "indexed": true,
          "internalType": "address",
          "name": "underlying",
          "type": "address"
        }
      ],
      "name": "Issue",
      "type": "event"
    },
    {
      "anonymous": false,
      "inputs": [
        {
          "indexed": true,
          "internalType": "address",
          "name": "previousOwner",
          "type": "address"
        },
        {
          "indexed": true,
          "internalType": "address",
          "name": "newOwner",
          "type": "address"
        }
      ],
      "name": "OwnershipTransferred",
      "type": "event"
    },
    {
      "anonymous": false,
      "inputs": [
        {
          "indexed": false,
          "internalType": "uint256",
          "name": "kissDestroyed",
          "type": "uint256"
        },
        {
          "indexed": false,
          "internalType": "uint256",
          "name": "underlyingOut",
          "type": "uint256"
        },
        {
          "indexed": true,
          "internalType": "address",
          "name": "to",
          "type": "address"
        },
        {
          "indexed": true,
          "internalType": "address",
          "name": "underlying",
          "type": "address"
        }
      ],
      "name": "Redeem",
      "type": "event"
    },
    {
      "anonymous": false,
      "inputs": [
        {
          "indexed": true,
          "internalType": "address",
          "name": "underlying",
          "type": "address"
        }
      ],
      "name": "UnderlyingDisabled",
      "type": "event"
    },
    {
      "anonymous": false,
      "inputs": [
        {
          "indexed": true,
          "internalType": "address",
          "name": "underlying",
          "type": "address"
        }
      ],
      "name": "UnderlyingEnabled",
      "type": "event"
    },
    {
      "inputs": [],
      "name": "KISS",
      "outputs": [
        {
          "internalType": "contract IKISS",
          "name": "",
          "type": "address"
        }
      ],
      "stateMutability": "view",
      "type": "function"
    },
    {
      "inputs": [
        {
          "internalType": "address",
          "name": "",
          "type": "address"
        },
        {
          "internalType": "address",
          "name": "",
          "type": "address"
        }
      ],
      "name": "balances",
      "outputs": [
        {
          "internalType": "uint256",
          "name": "",
          "type": "uint256"
        }
      ],
      "stateMutability": "view",
      "type": "function"
    },
    {
      "inputs": [
        {
          "internalType": "address",
          "name": "_underlying",
          "type": "address"
        },
        {
          "internalType": "uint256",
          "name": "_kissIn",
          "type": "uint256"
        }
      ],
      "name": "fromKISS",
      "outputs": [
        {
          "internalType": "uint256",
          "name": "underlyingOut",
          "type": "uint256"
        }
      ],
      "stateMutability": "pure",
      "type": "function"
    },
    {
      "inputs": [
        {
          "internalType": "address",
          "name": "_to",
          "type": "address"
        },
        {
          "internalType": "address",
          "name": "_underlying",
          "type": "address"
        },
        {
          "internalType": "uint256",
          "name": "_underlyingIn",
          "type": "uint256"
        }
      ],
      "name": "issue",
      "outputs": [],
      "stateMutability": "nonpayable",
      "type": "function"
    },
    {
      "inputs": [],
      "name": "owner",
      "outputs": [
        {
          "internalType": "address",
          "name": "",
          "type": "address"
        }
      ],
      "stateMutability": "view",
      "type": "function"
    },
    {
      "inputs": [
        {
          "internalType": "address",
          "name": "_to",
          "type": "address"
        },
        {
          "internalType": "address",
          "name": "_underlying",
          "type": "address"
        },
        {
          "internalType": "uint256",
          "name": "_underlyingOut",
          "type": "uint256"
        }
      ],
      "name": "redeem",
      "outputs": [],
      "stateMutability": "nonpayable",
      "type": "function"
    },
    {
      "inputs": [],
      "name": "renounceOwnership",
      "outputs": [],
      "stateMutability": "nonpayable",
      "type": "function"
    },
    {
      "inputs": [
        {
          "internalType": "address",
          "name": "_underlying",
          "type": "address"
        },
        {
          "internalType": "uint256",
          "name": "_underlyingIn",
          "type": "uint256"
        }
      ],
      "name": "toKISS",
      "outputs": [
        {
          "internalType": "uint256",
          "name": "kissOut",
          "type": "uint256"
        }
      ],
      "stateMutability": "pure",
      "type": "function"
    },
    {
      "inputs": [
        {
          "internalType": "address",
          "name": "_underlying",
          "type": "address"
        }
      ],
      "name": "toggleUnderlying",
      "outputs": [],
      "stateMutability": "nonpayable",
      "type": "function"
    },
    {
      "inputs": [
        {
          "internalType": "address",
          "name": "newOwner",
          "type": "address"
        }
      ],
      "name": "transferOwnership",
      "outputs": [],
      "stateMutability": "nonpayable",
      "type": "function"
    },
    {
      "inputs": [
        {
          "internalType": "address",
          "name": "",
          "type": "address"
        }
      ],
      "name": "underlyings",
      "outputs": [
        {
          "internalType": "bool",
          "name": "",
          "type": "bool"
        }
      ],
      "stateMutability": "view",
      "type": "function"
    }
  ],
  "transactionHash": "0xf64e0e4fe0e9d1e6a8e6614dbc1d84da37a47bd5e2a2e76b39258e7a095cebe2",
  "args": [
    "0xdE945BB222777d72F82d589Fa711Ba522A5FDec9",
    [
      "0x9fedD80495dE8223a403b35e2e9D1C5b96d86Cd3"
    ]
  ],
  "numDeployments": 1,
  "solcInputHash": "83713c02c02640d2cd1e3b8340799402",
  "bytecode": "0x60a06040523480156200001157600080fd5b50604051620020b3380380620020b3833981810160405281019062000037919062000432565b620000576200004b6200013360201b60201c565b6200013b60201b60201c565b600180819055508173ffffffffffffffffffffffffffffffffffffffff1660808173ffffffffffffffffffffffffffffffffffffffff168152505060005b81518110156200012a57600160026000848481518110620000bb57620000ba62000498565b5b602002602001015173ffffffffffffffffffffffffffffffffffffffff1673ffffffffffffffffffffffffffffffffffffffff16815260200190815260200160002060006101000a81548160ff0219169083151502179055508080620001219062000500565b91505062000095565b5050506200054d565b600033905090565b60008060009054906101000a900473ffffffffffffffffffffffffffffffffffffffff169050816000806101000a81548173ffffffffffffffffffffffffffffffffffffffff021916908373ffffffffffffffffffffffffffffffffffffffff1602179055508173ffffffffffffffffffffffffffffffffffffffff168173ffffffffffffffffffffffffffffffffffffffff167f8be0079c531659141344cd1fd0a4f28419497f9722a3daafe3b4186f6b6457e060405160405180910390a35050565b6000604051905090565b600080fd5b600080fd5b600073ffffffffffffffffffffffffffffffffffffffff82169050919050565b6000620002408262000213565b9050919050565b6000620002548262000233565b9050919050565b620002668162000247565b81146200027257600080fd5b50565b60008151905062000286816200025b565b92915050565b600080fd5b6000601f19601f8301169050919050565b7f4e487b7100000000000000000000000000000000000000000000000000000000600052604160045260246000fd5b620002dc8262000291565b810181811067ffffffffffffffff82111715620002fe57620002fd620002a2565b5b80604052505050565b600062000313620001ff565b9050620003218282620002d1565b919050565b600067ffffffffffffffff821115620003445762000343620002a2565b5b602082029050602081019050919050565b600080fd5b620003658162000233565b81146200037157600080fd5b50565b60008151905062000385816200035a565b92915050565b6000620003a26200039c8462000326565b62000307565b90508083825260208201905060208402830185811115620003c857620003c762000355565b5b835b81811015620003f55780620003e0888262000374565b845260208401935050602081019050620003ca565b5050509392505050565b600082601f8301126200041757620004166200028c565b5b8151620004298482602086016200038b565b91505092915050565b600080604083850312156200044c576200044b62000209565b5b60006200045c8582860162000275565b925050602083015167ffffffffffffffff81111562000480576200047f6200020e565b5b6200048e85828601620003ff565b9150509250929050565b7f4e487b7100000000000000000000000000000000000000000000000000000000600052603260045260246000fd5b7f4e487b7100000000000000000000000000000000000000000000000000000000600052601160045260246000fd5b6000819050919050565b60006200050d82620004f6565b91507fffffffffffffffffffffffffffffffffffffffffffffffffffffffffffffffff8203620005425762000541620004c7565b5b600182019050919050565b608051611b3c62000577600039600081816105f10152818161071f0152610af80152611b3c6000f3fe608060405234801561001057600080fd5b50600436106100a95760003560e01c8063679a8da811610071578063679a8da814610164578063715018a6146101945780638da5cb5b1461019e578063b6139992146101bc578063c23f001f146101d8578063f2fde38b14610208576100a9565b806301b29119146100ae5780630e6dfcd5146100ca5780633f9bd874146100e657806353764ebe14610104578063552cd1b514610134575b600080fd5b6100c860048036038101906100c391906111da565b610224565b005b6100e460048036038101906100df919061123d565b61036b565b005b6100ee61071d565b6040516100fb91906112ef565b60405180910390f35b61011e6004803603810190610119919061130a565b610741565b60405161012b9190611359565b60405180910390f35b61014e6004803603810190610149919061130a565b6107f4565b60405161015b9190611359565b60405180910390f35b61017e600480360381019061017991906111da565b6108a7565b60405161018b919061138f565b60405180910390f35b61019c6108c7565b005b6101a66108db565b6040516101b391906113b9565b60405180910390f35b6101d660048036038101906101d1919061123d565b610904565b005b6101f260048036038101906101ed91906113d4565b610bf9565b6040516101ff9190611359565b60405180910390f35b610222600480360381019061021d91906111da565b610c1e565b005b61022c610ca1565b6000600260008373ffffffffffffffffffffffffffffffffffffffff1673ffffffffffffffffffffffffffffffffffffffff16815260200190815260200160002060009054906101000a900460ff1615905080600260008473ffffffffffffffffffffffffffffffffffffffff1673ffffffffffffffffffffffffffffffffffffffff16815260200190815260200160002060006101000a81548160ff0219169083151502179055508015610323578173ffffffffffffffffffffffffffffffffffffffff167fabf4d64ce5121a1e72d320d057f320bb7c40997e6dcabca4dcd254eef9f6d74a60405160405180910390a2610367565b8173ffffffffffffffffffffffffffffffffffffffff167ff936ffcc7d39a14d439d7bee0f8cfba92398707f5a37a9c8ea4c65371d235e1c60405160405180910390a25b5050565b6002600154036103b0576040517f08c379a00000000000000000000000000000000000000000000000000000000081526004016103a790611471565b60405180910390fd5b6002600181905550600260008373ffffffffffffffffffffffffffffffffffffffff1673ffffffffffffffffffffffffffffffffffffffff16815260200190815260200160002060009054906101000a900460ff16610444576040517f08c379a000000000000000000000000000000000000000000000000000000000815260040161043b906114dd565b60405180910390fd5b600061044e610d1f565b905081600360008373ffffffffffffffffffffffffffffffffffffffff1673ffffffffffffffffffffffffffffffffffffffff16815260200190815260200160002060008573ffffffffffffffffffffffffffffffffffffffff1673ffffffffffffffffffffffffffffffffffffffff16815260200190815260200160002054101561050f576040517f08c379a000000000000000000000000000000000000000000000000000000000815260040161050690611549565b60405180910390fd5b60008073ffffffffffffffffffffffffffffffffffffffff168573ffffffffffffffffffffffffffffffffffffffff161461054a578461054c565b815b905082600360008373ffffffffffffffffffffffffffffffffffffffff1673ffffffffffffffffffffffffffffffffffffffff16815260200190815260200160002060008673ffffffffffffffffffffffffffffffffffffffff1673ffffffffffffffffffffffffffffffffffffffff16815260200190815260200160002060008282546105da9190611598565b9250508190555060006105ed8585610741565b90507f000000000000000000000000000000000000000000000000000000000000000073ffffffffffffffffffffffffffffffffffffffff16639dc29fac84836040518363ffffffff1660e01b815260040161064a9291906115cc565b600060405180830381600087803b15801561066457600080fd5b505af1158015610678573d6000803e3d6000fd5b505050506106a782858773ffffffffffffffffffffffffffffffffffffffff16610d279092919063ffffffff16565b8473ffffffffffffffffffffffffffffffffffffffff168273ffffffffffffffffffffffffffffffffffffffff167fc7f098657aa627802dbc6b2c5bdd77a5dc62b624fe6ff30eeeb16e9308c67f1983876040516107069291906115f5565b60405180910390a350505060018081905550505050565b7f000000000000000000000000000000000000000000000000000000000000000081565b60008073ffffffffffffffffffffffffffffffffffffffff168373ffffffffffffffffffffffffffffffffffffffff1614156040518060400160405280600381526020017f3130340000000000000000000000000000000000000000000000000000000000815250906107ea576040517f08c379a00000000000000000000000000000000000000000000000000000000081526004016107e191906116a6565b60405180910390fd5b5081905092915050565b60008073ffffffffffffffffffffffffffffffffffffffff168373ffffffffffffffffffffffffffffffffffffffff1614156040518060400160405280600381526020017f31303400000000000000000000000000000000000000000000000000000000008152509061089d576040517f08c379a000000000000000000000000000000000000000000000000000000000815260040161089491906116a6565b60405180910390fd5b5081905092915050565b60026020528060005260406000206000915054906101000a900460ff1681565b6108cf610ca1565b6108d96000610dad565b565b60008060009054906101000a900473ffffffffffffffffffffffffffffffffffffffff16905090565b600260015403610949576040517f08c379a000000000000000000000000000000000000000000000000000000000815260040161094090611471565b60405180910390fd5b6002600181905550600260008373ffffffffffffffffffffffffffffffffffffffff1673ffffffffffffffffffffffffffffffffffffffff16815260200190815260200160002060009054906101000a900460ff166109dd576040517f08c379a00000000000000000000000000000000000000000000000000000000081526004016109d490611714565b60405180910390fd5b60006109e7610d1f565b905060008073ffffffffffffffffffffffffffffffffffffffff168573ffffffffffffffffffffffffffffffffffffffff1614610a245784610a26565b815b905082600360008373ffffffffffffffffffffffffffffffffffffffff1673ffffffffffffffffffffffffffffffffffffffff16815260200190815260200160002060008673ffffffffffffffffffffffffffffffffffffffff1673ffffffffffffffffffffffffffffffffffffffff1681526020019081526020016000206000828254610ab49190611734565b92505081905550610ae88230858773ffffffffffffffffffffffffffffffffffffffff16610e71909392919063ffffffff16565b6000610af48585610741565b90507f000000000000000000000000000000000000000000000000000000000000000073ffffffffffffffffffffffffffffffffffffffff166340c10f1983836040518363ffffffff1660e01b8152600401610b519291906115cc565b600060405180830381600087803b158015610b6b57600080fd5b505af1158015610b7f573d6000803e3d6000fd5b505050508473ffffffffffffffffffffffffffffffffffffffff168273ffffffffffffffffffffffffffffffffffffffff167f21f0ca23fad9b3f9ee7ea19a41434459b5ba2efc2b37de2711af801af99bbb218684604051610be29291906115f5565b60405180910390a350505060018081905550505050565b6003602052816000526040600020602052806000526040600020600091509150505481565b610c26610ca1565b600073ffffffffffffffffffffffffffffffffffffffff168173ffffffffffffffffffffffffffffffffffffffff1603610c95576040517f08c379a0000000000000000000000000000000000000000000000000000000008152600401610c8c906117fc565b60405180910390fd5b610c9e81610dad565b50565b610ca9610d1f565b73ffffffffffffffffffffffffffffffffffffffff16610cc76108db565b73ffffffffffffffffffffffffffffffffffffffff1614610d1d576040517f08c379a0000000000000000000000000000000000000000000000000000000008152600401610d1490611868565b60405180910390fd5b565b600033905090565b610da88363a9059cbb60e01b8484604051602401610d469291906115cc565b604051602081830303815290604052907bffffffffffffffffffffffffffffffffffffffffffffffffffffffff19166020820180517bffffffffffffffffffffffffffffffffffffffffffffffffffffffff8381831617835250505050610efa565b505050565b60008060009054906101000a900473ffffffffffffffffffffffffffffffffffffffff169050816000806101000a81548173ffffffffffffffffffffffffffffffffffffffff021916908373ffffffffffffffffffffffffffffffffffffffff1602179055508173ffffffffffffffffffffffffffffffffffffffff168173ffffffffffffffffffffffffffffffffffffffff167f8be0079c531659141344cd1fd0a4f28419497f9722a3daafe3b4186f6b6457e060405160405180910390a35050565b610ef4846323b872dd60e01b858585604051602401610e9293929190611888565b604051602081830303815290604052907bffffffffffffffffffffffffffffffffffffffffffffffffffffffff19166020820180517bffffffffffffffffffffffffffffffffffffffffffffffffffffffff8381831617835250505050610efa565b50505050565b6000610f5c826040518060400160405280602081526020017f5361666545524332303a206c6f772d6c6576656c2063616c6c206661696c65648152508573ffffffffffffffffffffffffffffffffffffffff16610fc19092919063ffffffff16565b9050600081511115610fbc5780806020019051810190610f7c91906118eb565b610fbb576040517f08c379a0000000000000000000000000000000000000000000000000000000008152600401610fb29061198a565b60405180910390fd5b5b505050565b6060610fd08484600085610fd9565b90509392505050565b60608247101561101e576040517f08c379a000000000000000000000000000000000000000000000000000000000815260040161101590611a1c565b60405180910390fd5b611027856110ed565b611066576040517f08c379a000000000000000000000000000000000000000000000000000000000815260040161105d90611a88565b60405180910390fd5b6000808673ffffffffffffffffffffffffffffffffffffffff16858760405161108f9190611aef565b60006040518083038185875af1925050503d80600081146110cc576040519150601f19603f3d011682016040523d82523d6000602084013e6110d1565b606091505b50915091506110e1828286611110565b92505050949350505050565b6000808273ffffffffffffffffffffffffffffffffffffffff163b119050919050565b6060831561112057829050611170565b6000835111156111335782518084602001fd5b816040517f08c379a000000000000000000000000000000000000000000000000000000000815260040161116791906116a6565b60405180910390fd5b9392505050565b600080fd5b600073ffffffffffffffffffffffffffffffffffffffff82169050919050565b60006111a78261117c565b9050919050565b6111b78161119c565b81146111c257600080fd5b50565b6000813590506111d4816111ae565b92915050565b6000602082840312156111f0576111ef611177565b5b60006111fe848285016111c5565b91505092915050565b6000819050919050565b61121a81611207565b811461122557600080fd5b50565b60008135905061123781611211565b92915050565b60008060006060848603121561125657611255611177565b5b6000611264868287016111c5565b9350506020611275868287016111c5565b925050604061128686828701611228565b9150509250925092565b6000819050919050565b60006112b56112b06112ab8461117c565b611290565b61117c565b9050919050565b60006112c78261129a565b9050919050565b60006112d9826112bc565b9050919050565b6112e9816112ce565b82525050565b600060208201905061130460008301846112e0565b92915050565b6000806040838503121561132157611320611177565b5b600061132f858286016111c5565b925050602061134085828601611228565b9150509250929050565b61135381611207565b82525050565b600060208201905061136e600083018461134a565b92915050565b60008115159050919050565b61138981611374565b82525050565b60006020820190506113a46000830184611380565b92915050565b6113b38161119c565b82525050565b60006020820190506113ce60008301846113aa565b92915050565b600080604083850312156113eb576113ea611177565b5b60006113f9858286016111c5565b925050602061140a858286016111c5565b9150509250929050565b600082825260208201905092915050565b7f5265656e7472616e637947756172643a207265656e7472616e742063616c6c00600082015250565b600061145b601f83611414565b915061146682611425565b602082019050919050565b6000602082019050818103600083015261148a8161144e565b9050919050565b7f52454445454d3a2021756e6465726c79696e6700000000000000000000000000600082015250565b60006114c7601383611414565b91506114d282611491565b602082019050919050565b600060208201905081810360008301526114f6816114ba565b9050919050565b7f52454445454d3a202162616c616e636500000000000000000000000000000000600082015250565b6000611533601083611414565b915061153e826114fd565b602082019050919050565b6000602082019050818103600083015261156281611526565b9050919050565b7f4e487b7100000000000000000000000000000000000000000000000000000000600052601160045260246000fd5b60006115a382611207565b91506115ae83611207565b9250828210156115c1576115c0611569565b5b828203905092915050565b60006040820190506115e160008301856113aa565b6115ee602083018461134a565b9392505050565b600060408201905061160a600083018561134a565b611617602083018461134a565b9392505050565b600081519050919050565b60005b8381101561164757808201518184015260208101905061162c565b83811115611656576000848401525b50505050565b6000601f19601f8301169050919050565b60006116788261161e565b6116828185611414565b9350611692818560208601611629565b61169b8161165c565b840191505092915050565b600060208201905081810360008301526116c0818461166d565b905092915050565b7f49535355453a2021756e6465726c79696e670000000000000000000000000000600082015250565b60006116fe601283611414565b9150611709826116c8565b602082019050919050565b6000602082019050818103600083015261172d816116f1565b9050919050565b600061173f82611207565b915061174a83611207565b9250827fffffffffffffffffffffffffffffffffffffffffffffffffffffffffffffffff0382111561177f5761177e611569565b5b828201905092915050565b7f4f776e61626c653a206e6577206f776e657220697320746865207a65726f206160008201527f6464726573730000000000000000000000000000000000000000000000000000602082015250565b60006117e6602683611414565b91506117f18261178a565b604082019050919050565b60006020820190508181036000830152611815816117d9565b9050919050565b7f4f776e61626c653a2063616c6c6572206973206e6f7420746865206f776e6572600082015250565b6000611852602083611414565b915061185d8261181c565b602082019050919050565b6000602082019050818103600083015261188181611845565b9050919050565b600060608201905061189d60008301866113aa565b6118aa60208301856113aa565b6118b7604083018461134a565b949350505050565b6118c881611374565b81146118d357600080fd5b50565b6000815190506118e5816118bf565b92915050565b60006020828403121561190157611900611177565b5b600061190f848285016118d6565b91505092915050565b7f5361666545524332303a204552433230206f7065726174696f6e20646964206e60008201527f6f74207375636365656400000000000000000000000000000000000000000000602082015250565b6000611974602a83611414565b915061197f82611918565b604082019050919050565b600060208201905081810360008301526119a381611967565b9050919050565b7f416464726573733a20696e73756666696369656e742062616c616e636520666f60008201527f722063616c6c0000000000000000000000000000000000000000000000000000602082015250565b6000611a06602683611414565b9150611a11826119aa565b604082019050919050565b60006020820190508181036000830152611a35816119f9565b9050919050565b7f416464726573733a2063616c6c20746f206e6f6e2d636f6e7472616374000000600082015250565b6000611a72601d83611414565b9150611a7d82611a3c565b602082019050919050565b60006020820190508181036000830152611aa181611a65565b9050919050565b600081519050919050565b600081905092915050565b6000611ac982611aa8565b611ad38185611ab3565b9350611ae3818560208601611629565b80840191505092915050565b6000611afb8284611abe565b91508190509291505056fea26469706673582212203c98c95649101b7ef7d4feafaf9343e282f7d15608b6a2f517ebdb134d964c9a64736f6c634300080e0033",
  "devdoc": {
    "author": "Kresko",
    "kind": "dev",
    "methods": {
      "fromKISS(address,uint256)": {
        "details": "TEST - no oracles - 1-1 ratio",
        "params": {
          "_kissIn": "amount of KISS",
          "_underlying": "underlying asset"
        },
        "returns": {
          "underlyingOut": "amount of underlying for `_kissIn`"
        }
      },
      "issue(address,address,uint256)": {
        "params": {
          "_to": "KISS recipient",
          "_underlying": "underlying asset",
          "_underlyingIn": "amount of underlying to convert into KISS"
        }
      },
      "owner()": {
        "details": "Returns the address of the current owner."
      },
      "redeem(address,address,uint256)": {
        "params": {
          "_to": "address to send underlying",
          "_underlying": "underlying asset",
          "_underlyingOut": "amount of underlying to redeem"
        }
      },
      "renounceOwnership()": {
        "details": "Leaves the contract without owner. It will not be possible to call `onlyOwner` functions anymore. Can only be called by the current owner. NOTE: Renouncing ownership will leave the contract without an owner, thereby removing any functionality that is only available to the owner."
      },
      "toKISS(address,uint256)": {
        "details": "TEST - no oracles - 1-1 ratio",
        "params": {
          "_underlying": "underlying asset",
          "_underlyingIn": "underlying asset amount"
        },
        "returns": {
          "kissOut": "amount of KISS for `_underlyingIn`"
        }
      },
      "transferOwnership(address)": {
        "details": "Transfers ownership of the contract to a new account (`newOwner`). Can only be called by the current owner."
      }
    },
    "title": "KISSConverter (TEST VERSION)",
    "version": 1
  },
  "userdoc": {
    "kind": "user",
    "methods": {
      "fromKISS(address,uint256)": {
        "notice": "Get equal amount of underlying for an amount of KISS"
      },
      "issue(address,address,uint256)": {
        "notice": "Issue KISS for amount of underlyingaddress(0) == _msgSender()"
      },
      "redeem(address,address,uint256)": {
        "notice": "Redeem underlying, destroy KISSaddress(0) == _msgSender()amount of KISS destroyed likely differs"
      },
      "toKISS(address,uint256)": {
        "notice": "Get equal amount of KISS for an amount of underlying"
      }
    },
    "version": 1
  },
  "storageLayout": {
    "storage": [
      {
        "astId": 4744,
        "contract": "src/contracts/kiss/KISSConverter.sol:KISSConverter",
        "label": "_owner",
        "offset": 0,
        "slot": "0",
        "type": "t_address"
      },
      {
        "astId": 4968,
        "contract": "src/contracts/kiss/KISSConverter.sol:KISSConverter",
        "label": "_status",
        "offset": 0,
        "slot": "1",
        "type": "t_uint256"
      },
      {
        "astId": 18701,
        "contract": "src/contracts/kiss/KISSConverter.sol:KISSConverter",
        "label": "underlyings",
        "offset": 0,
        "slot": "2",
        "type": "t_mapping(t_address,t_bool)"
      },
      {
        "astId": 18707,
        "contract": "src/contracts/kiss/KISSConverter.sol:KISSConverter",
        "label": "balances",
        "offset": 0,
        "slot": "3",
        "type": "t_mapping(t_address,t_mapping(t_address,t_uint256))"
      }
    ],
    "types": {
      "t_address": {
        "encoding": "inplace",
        "label": "address",
        "numberOfBytes": "20"
      },
      "t_bool": {
        "encoding": "inplace",
        "label": "bool",
        "numberOfBytes": "1"
      },
      "t_mapping(t_address,t_bool)": {
        "encoding": "mapping",
        "key": "t_address",
        "label": "mapping(address => bool)",
        "numberOfBytes": "32",
        "value": "t_bool"
      },
      "t_mapping(t_address,t_mapping(t_address,t_uint256))": {
        "encoding": "mapping",
        "key": "t_address",
        "label": "mapping(address => mapping(address => uint256))",
        "numberOfBytes": "32",
        "value": "t_mapping(t_address,t_uint256)"
      },
      "t_mapping(t_address,t_uint256)": {
        "encoding": "mapping",
        "key": "t_address",
        "label": "mapping(address => uint256)",
        "numberOfBytes": "32",
        "value": "t_uint256"
      },
      "t_uint256": {
        "encoding": "inplace",
        "label": "uint256",
        "numberOfBytes": "32"
      }
    }
  }
}