{
  "address": "0xaBFb8145EE77952aC891d4aE2d59E6dc50F97dBd",
  "abi": [
    {
      "inputs": [
        {
          "internalType": "string",
          "name": "name_",
          "type": "string"
        },
        {
          "internalType": "string",
          "name": "symbol_",
          "type": "string"
        },
        {
          "internalType": "uint8",
          "name": "dec_",
          "type": "uint8"
        },
        {
          "internalType": "address",
          "name": "kresko_",
          "type": "address"
        }
      ],
      "stateMutability": "nonpayable",
      "type": "constructor"
    },
    {
      "anonymous": false,
      "inputs": [
        {
          "indexed": true,
          "internalType": "address",
          "name": "owner",
          "type": "address"
        },
        {
          "indexed": true,
          "internalType": "address",
          "name": "spender",
          "type": "address"
        },
        {
          "indexed": false,
          "internalType": "uint256",
          "name": "value",
          "type": "uint256"
        }
      ],
      "name": "Approval",
      "type": "event"
    },
    {
      "anonymous": false,
      "inputs": [
        {
          "indexed": false,
          "internalType": "address",
          "name": "newMinter",
          "type": "address"
        }
      ],
      "name": "NewMinter",
      "type": "event"
    },
    {
      "anonymous": false,
      "inputs": [
        {
          "indexed": false,
          "internalType": "address",
          "name": "pendingNewMinter",
          "type": "address"
        },
        {
          "indexed": false,
          "internalType": "uint256",
          "name": "unlockTimestamp",
          "type": "uint256"
        }
      ],
      "name": "NewMinterInitiated",
      "type": "event"
    },
    {
      "anonymous": false,
      "inputs": [
        {
          "indexed": false,
          "internalType": "address",
          "name": "account",
          "type": "address"
        }
      ],
      "name": "Paused",
      "type": "event"
    },
    {
      "anonymous": false,
      "inputs": [
        {
          "indexed": true,
          "internalType": "bytes32",
          "name": "role",
          "type": "bytes32"
        },
        {
          "indexed": true,
          "internalType": "bytes32",
          "name": "previousAdminRole",
          "type": "bytes32"
        },
        {
          "indexed": true,
          "internalType": "bytes32",
          "name": "newAdminRole",
          "type": "bytes32"
        }
      ],
      "name": "RoleAdminChanged",
      "type": "event"
    },
    {
      "anonymous": false,
      "inputs": [
        {
          "indexed": true,
          "internalType": "bytes32",
          "name": "role",
          "type": "bytes32"
        },
        {
          "indexed": true,
          "internalType": "address",
          "name": "account",
          "type": "address"
        },
        {
          "indexed": true,
          "internalType": "address",
          "name": "sender",
          "type": "address"
        }
      ],
      "name": "RoleGranted",
      "type": "event"
    },
    {
      "anonymous": false,
      "inputs": [
        {
          "indexed": true,
          "internalType": "bytes32",
          "name": "role",
          "type": "bytes32"
        },
        {
          "indexed": true,
          "internalType": "address",
          "name": "account",
          "type": "address"
        },
        {
          "indexed": true,
          "internalType": "address",
          "name": "sender",
          "type": "address"
        }
      ],
      "name": "RoleRevoked",
      "type": "event"
    },
    {
      "anonymous": false,
      "inputs": [
        {
          "indexed": true,
          "internalType": "address",
          "name": "from",
          "type": "address"
        },
        {
          "indexed": true,
          "internalType": "address",
          "name": "to",
          "type": "address"
        },
        {
          "indexed": false,
          "internalType": "uint256",
          "name": "value",
          "type": "uint256"
        }
      ],
      "name": "Transfer",
      "type": "event"
    },
    {
      "anonymous": false,
      "inputs": [
        {
          "indexed": false,
          "internalType": "address",
          "name": "account",
          "type": "address"
        }
      ],
      "name": "Unpaused",
      "type": "event"
    },
    {
      "inputs": [],
      "name": "DEFAULT_ADMIN_ROLE",
      "outputs": [
        {
          "internalType": "bytes32",
          "name": "",
          "type": "bytes32"
        }
      ],
      "stateMutability": "view",
      "type": "function"
    },
    {
      "inputs": [],
      "name": "MINTER_ROLE",
      "outputs": [
        {
          "internalType": "bytes32",
          "name": "",
          "type": "bytes32"
        }
      ],
      "stateMutability": "view",
      "type": "function"
    },
    {
      "inputs": [],
      "name": "OPERATOR_ROLE",
      "outputs": [
        {
          "internalType": "bytes32",
          "name": "",
          "type": "bytes32"
        }
      ],
      "stateMutability": "view",
      "type": "function"
    },
    {
      "inputs": [],
      "name": "OPERATOR_ROLE_PERIOD",
      "outputs": [
        {
          "internalType": "uint256",
          "name": "",
          "type": "uint256"
        }
      ],
      "stateMutability": "view",
      "type": "function"
    },
    {
      "inputs": [],
      "name": "PAUSER_ROLE",
      "outputs": [
        {
          "internalType": "bytes32",
          "name": "",
          "type": "bytes32"
        }
      ],
      "stateMutability": "view",
      "type": "function"
    },
    {
      "inputs": [
        {
          "internalType": "address",
          "name": "owner",
          "type": "address"
        },
        {
          "internalType": "address",
          "name": "spender",
          "type": "address"
        }
      ],
      "name": "allowance",
      "outputs": [
        {
          "internalType": "uint256",
          "name": "",
          "type": "uint256"
        }
      ],
      "stateMutability": "view",
      "type": "function"
    },
    {
      "inputs": [
        {
          "internalType": "address",
          "name": "spender",
          "type": "address"
        },
        {
          "internalType": "uint256",
          "name": "amount",
          "type": "uint256"
        }
      ],
      "name": "approve",
      "outputs": [
        {
          "internalType": "bool",
          "name": "",
          "type": "bool"
        }
      ],
      "stateMutability": "nonpayable",
      "type": "function"
    },
    {
      "inputs": [
        {
          "internalType": "address",
          "name": "account",
          "type": "address"
        }
      ],
      "name": "balanceOf",
      "outputs": [
        {
          "internalType": "uint256",
          "name": "",
          "type": "uint256"
        }
      ],
      "stateMutability": "view",
      "type": "function"
    },
    {
      "inputs": [
        {
          "internalType": "uint256",
          "name": "amount",
          "type": "uint256"
        }
      ],
      "name": "burn",
      "outputs": [],
      "stateMutability": "nonpayable",
      "type": "function"
    },
    {
      "inputs": [
        {
          "internalType": "address",
          "name": "_from",
          "type": "address"
        },
        {
          "internalType": "uint256",
          "name": "_amount",
          "type": "uint256"
        }
      ],
      "name": "burn",
      "outputs": [],
      "stateMutability": "nonpayable",
      "type": "function"
    },
    {
      "inputs": [
        {
          "internalType": "address",
          "name": "account",
          "type": "address"
        },
        {
          "internalType": "uint256",
          "name": "amount",
          "type": "uint256"
        }
      ],
      "name": "burnFrom",
      "outputs": [],
      "stateMutability": "nonpayable",
      "type": "function"
    },
    {
      "inputs": [],
      "name": "decimals",
      "outputs": [
        {
          "internalType": "uint8",
          "name": "",
          "type": "uint8"
        }
      ],
      "stateMutability": "view",
      "type": "function"
    },
    {
      "inputs": [
        {
          "internalType": "address",
          "name": "spender",
          "type": "address"
        },
        {
          "internalType": "uint256",
          "name": "subtractedValue",
          "type": "uint256"
        }
      ],
      "name": "decreaseAllowance",
      "outputs": [
        {
          "internalType": "bool",
          "name": "",
          "type": "bool"
        }
      ],
      "stateMutability": "nonpayable",
      "type": "function"
    },
    {
      "inputs": [
        {
          "internalType": "bytes32",
          "name": "role",
          "type": "bytes32"
        }
      ],
      "name": "getRoleAdmin",
      "outputs": [
        {
          "internalType": "bytes32",
          "name": "",
          "type": "bytes32"
        }
      ],
      "stateMutability": "view",
      "type": "function"
    },
    {
      "inputs": [
        {
          "internalType": "bytes32",
          "name": "role",
          "type": "bytes32"
        },
        {
          "internalType": "uint256",
          "name": "index",
          "type": "uint256"
        }
      ],
      "name": "getRoleMember",
      "outputs": [
        {
          "internalType": "address",
          "name": "",
          "type": "address"
        }
      ],
      "stateMutability": "view",
      "type": "function"
    },
    {
      "inputs": [
        {
          "internalType": "bytes32",
          "name": "role",
          "type": "bytes32"
        }
      ],
      "name": "getRoleMemberCount",
      "outputs": [
        {
          "internalType": "uint256",
          "name": "",
          "type": "uint256"
        }
      ],
      "stateMutability": "view",
      "type": "function"
    },
    {
      "inputs": [
        {
          "internalType": "bytes32",
          "name": "_role",
          "type": "bytes32"
        },
        {
          "internalType": "address",
          "name": "_to",
          "type": "address"
        }
      ],
      "name": "grantRole",
      "outputs": [],
      "stateMutability": "nonpayable",
      "type": "function"
    },
    {
      "inputs": [
        {
          "internalType": "bytes32",
          "name": "role",
          "type": "bytes32"
        },
        {
          "internalType": "address",
          "name": "account",
          "type": "address"
        }
      ],
      "name": "hasRole",
      "outputs": [
        {
          "internalType": "bool",
          "name": "",
          "type": "bool"
        }
      ],
      "stateMutability": "view",
      "type": "function"
    },
    {
      "inputs": [
        {
          "internalType": "address",
          "name": "spender",
          "type": "address"
        },
        {
          "internalType": "uint256",
          "name": "addedValue",
          "type": "uint256"
        }
      ],
      "name": "increaseAllowance",
      "outputs": [
        {
          "internalType": "bool",
          "name": "",
          "type": "bool"
        }
      ],
      "stateMutability": "nonpayable",
      "type": "function"
    },
    {
      "inputs": [],
      "name": "kresko",
      "outputs": [
        {
          "internalType": "address",
          "name": "",
          "type": "address"
        }
      ],
      "stateMutability": "view",
      "type": "function"
    },
    {
      "inputs": [
        {
          "internalType": "address",
          "name": "_to",
          "type": "address"
        },
        {
          "internalType": "uint256",
          "name": "_amount",
          "type": "uint256"
        }
      ],
      "name": "mint",
      "outputs": [],
      "stateMutability": "nonpayable",
      "type": "function"
    },
    {
      "inputs": [],
      "name": "name",
      "outputs": [
        {
          "internalType": "string",
          "name": "",
          "type": "string"
        }
      ],
      "stateMutability": "view",
      "type": "function"
    },
    {
      "inputs": [],
      "name": "operatorRoleTimestamp",
      "outputs": [
        {
          "internalType": "uint256",
          "name": "",
          "type": "uint256"
        }
      ],
      "stateMutability": "view",
      "type": "function"
    },
    {
      "inputs": [],
      "name": "pause",
      "outputs": [],
      "stateMutability": "nonpayable",
      "type": "function"
    },
    {
      "inputs": [],
      "name": "paused",
      "outputs": [
        {
          "internalType": "bool",
          "name": "",
          "type": "bool"
        }
      ],
      "stateMutability": "view",
      "type": "function"
    },
    {
      "inputs": [],
      "name": "pendingOperator",
      "outputs": [
        {
          "internalType": "address",
          "name": "",
          "type": "address"
        }
      ],
      "stateMutability": "view",
      "type": "function"
    },
    {
      "inputs": [
        {
          "internalType": "bytes32",
          "name": "role",
          "type": "bytes32"
        },
        {
          "internalType": "address",
          "name": "account",
          "type": "address"
        }
      ],
      "name": "renounceRole",
      "outputs": [],
      "stateMutability": "nonpayable",
      "type": "function"
    },
    {
      "inputs": [
        {
          "internalType": "bytes32",
          "name": "role",
          "type": "bytes32"
        },
        {
          "internalType": "address",
          "name": "account",
          "type": "address"
        }
      ],
      "name": "revokeRole",
      "outputs": [],
      "stateMutability": "nonpayable",
      "type": "function"
    },
    {
      "inputs": [
        {
          "internalType": "string",
          "name": "_newName",
          "type": "string"
        },
        {
          "internalType": "string",
          "name": "_newSymbol",
          "type": "string"
        }
      ],
      "name": "setMetadata",
      "outputs": [],
      "stateMutability": "nonpayable",
      "type": "function"
    },
    {
      "inputs": [
        {
          "internalType": "bytes4",
          "name": "interfaceId",
          "type": "bytes4"
        }
      ],
      "name": "supportsInterface",
      "outputs": [
        {
          "internalType": "bool",
          "name": "",
          "type": "bool"
        }
      ],
      "stateMutability": "view",
      "type": "function"
    },
    {
      "inputs": [],
      "name": "symbol",
      "outputs": [
        {
          "internalType": "string",
          "name": "",
          "type": "string"
        }
      ],
      "stateMutability": "view",
      "type": "function"
    },
    {
      "inputs": [],
      "name": "totalSupply",
      "outputs": [
        {
          "internalType": "uint256",
          "name": "",
          "type": "uint256"
        }
      ],
      "stateMutability": "view",
      "type": "function"
    },
    {
      "inputs": [
        {
          "internalType": "address",
          "name": "to",
          "type": "address"
        },
        {
          "internalType": "uint256",
          "name": "amount",
          "type": "uint256"
        }
      ],
      "name": "transfer",
      "outputs": [
        {
          "internalType": "bool",
          "name": "",
          "type": "bool"
        }
      ],
      "stateMutability": "nonpayable",
      "type": "function"
    },
    {
      "inputs": [
        {
          "internalType": "address",
          "name": "from",
          "type": "address"
        },
        {
          "internalType": "address",
          "name": "to",
          "type": "address"
        },
        {
          "internalType": "uint256",
          "name": "amount",
          "type": "uint256"
        }
      ],
      "name": "transferFrom",
      "outputs": [
        {
          "internalType": "bool",
          "name": "",
          "type": "bool"
        }
      ],
      "stateMutability": "nonpayable",
      "type": "function"
    },
    {
      "inputs": [],
      "name": "unpause",
      "outputs": [],
      "stateMutability": "nonpayable",
      "type": "function"
    }
  ],
  "transactionHash": "0x0f62a2bf3ef33ff55dd4fc32a2a77accff8a341646bf65291aa80e2a80f2f4c3",
  "args": [
    "KISS",
    "KISS",
    18,
    "0x7cAEF318168d1866efE131479460D587fC243474"
  ],
  "numDeployments": 1,
  "solcInputHash": "982b6a22f97b2c235980e50ae289fa10",
  "bytecode": "0x60806040523480156200001157600080fd5b506040516200468538038062004685833981810160405281019062000037919062000a7d565b838381818160059080519060200190620000539291906200078d565b5080600690805190602001906200006c9291906200078d565b5050506000600760006101000a81548160ff021916908315150217905550620000ae6000801b620000a26200026160201b60201c565b6200026960201b60201c565b620000ef7f9f2df0fed2c77648de5860a4cc508cd0818c85b8b8a1ab4ceeef8d981c8956a6620000e36200026160201b60201c565b6200026960201b60201c565b620001307f65d7a28e3265b37a6474929f336521b332c1681b933f6cb9f3376673440d862a620001246200026160201b60201c565b6200026960201b60201c565b505083600b90805190602001906200014a9291906200078d565b5082600c9080519060200190620001639291906200078d565b5081600d60006101000a81548160ff021916908360ff16021790555080600a60006101000a81548173ffffffffffffffffffffffffffffffffffffffff021916908373ffffffffffffffffffffffffffffffffffffffff160217905550620001e46000801b620001d86200026160201b60201c565b6200026960201b60201c565b620002167feff9325756f17c2cb6786e7ce4614611786e33e9797b5b47c617de5d45f84f23826200026960201b60201c565b620002577f9f2df0fed2c77648de5860a4cc508cd0818c85b8b8a1ab4ceeef8d981c8956a66200024b6200026160201b60201c565b6200027f60201b60201c565b5050505062000c63565b600033905090565b6200027b8282620002c760201b60201c565b5050565b6200029682826200030f60201b620012f21760201c565b620002c281600160008581526020019081526020016000206200040160201b620013d31790919060201c565b505050565b620002de82826200043960201b620014031760201c565b6200030a81600160008581526020019081526020016000206200052a60201b620014e31790919060201c565b505050565b6200032182826200056260201b60201c565b15620003fd57600080600084815260200190815260200160002060000160008373ffffffffffffffffffffffffffffffffffffffff1673ffffffffffffffffffffffffffffffffffffffff16815260200190815260200160002060006101000a81548160ff021916908315150217905550620003a26200026160201b60201c565b73ffffffffffffffffffffffffffffffffffffffff168173ffffffffffffffffffffffffffffffffffffffff16837ff6391f5c32d9c69d2a47ea670b442974b53935d1edc7fd64eb21e047a839171b60405160405180910390a45b5050565b600062000431836000018373ffffffffffffffffffffffffffffffffffffffff1660001b620005cc60201b60201c565b905092915050565b6200044b82826200056260201b60201c565b6200052657600160008084815260200190815260200160002060000160008373ffffffffffffffffffffffffffffffffffffffff1673ffffffffffffffffffffffffffffffffffffffff16815260200190815260200160002060006101000a81548160ff021916908315150217905550620004cb6200026160201b60201c565b73ffffffffffffffffffffffffffffffffffffffff168173ffffffffffffffffffffffffffffffffffffffff16837f2f8788117e7eff1d82e926ec794901d17c78024a50270940304540a733656f0d60405160405180910390a45b5050565b60006200055a836000018373ffffffffffffffffffffffffffffffffffffffff1660001b620006f060201b60201c565b905092915050565b600080600084815260200190815260200160002060000160008373ffffffffffffffffffffffffffffffffffffffff1673ffffffffffffffffffffffffffffffffffffffff16815260200190815260200160002060009054906101000a900460ff16905092915050565b60008083600101600084815260200190815260200160002054905060008114620006e457600060018262000601919062000b66565b90506000600186600001805490506200061b919062000b66565b90508181146200069157600086600001828154811062000640576200063f62000ba1565b5b906000526020600020015490508087600001848154811062000667576200066662000ba1565b5b90600052602060002001819055508387600101600083815260200190815260200160002081905550505b85600001805480620006a857620006a762000bd0565b5b600190038181906000526020600020016000905590558560010160008681526020019081526020016000206000905560019350505050620006ea565b60009150505b92915050565b60006200070483836200076a60201b60201c565b6200075f57826000018290806001815401808255809150506001900390600052602060002001600090919091909150558260000180549050836001016000848152602001908152602001600020819055506001905062000764565b600090505b92915050565b600080836001016000848152602001908152602001600020541415905092915050565b8280546200079b9062000c2e565b90600052602060002090601f016020900481019282620007bf57600085556200080b565b82601f10620007da57805160ff19168380011785556200080b565b828001600101855582156200080b579182015b828111156200080a578251825591602001919060010190620007ed565b5b5090506200081a91906200081e565b5090565b5b80821115620008395760008160009055506001016200081f565b5090565b6000604051905090565b600080fd5b600080fd5b600080fd5b600080fd5b6000601f19601f8301169050919050565b7f4e487b7100000000000000000000000000000000000000000000000000000000600052604160045260246000fd5b620008a6826200085b565b810181811067ffffffffffffffff82111715620008c857620008c76200086c565b5b80604052505050565b6000620008dd6200083d565b9050620008eb82826200089b565b919050565b600067ffffffffffffffff8211156200090e576200090d6200086c565b5b62000919826200085b565b9050602081019050919050565b60005b838110156200094657808201518184015260208101905062000929565b8381111562000956576000848401525b50505050565b6000620009736200096d84620008f0565b620008d1565b90508281526020810184848401111562000992576200099162000856565b5b6200099f84828562000926565b509392505050565b600082601f830112620009bf57620009be62000851565b5b8151620009d18482602086016200095c565b91505092915050565b600060ff82169050919050565b620009f281620009da565b8114620009fe57600080fd5b50565b60008151905062000a1281620009e7565b92915050565b600073ffffffffffffffffffffffffffffffffffffffff82169050919050565b600062000a458262000a18565b9050919050565b62000a578162000a38565b811462000a6357600080fd5b50565b60008151905062000a778162000a4c565b92915050565b6000806000806080858703121562000a9a5762000a9962000847565b5b600085015167ffffffffffffffff81111562000abb5762000aba6200084c565b5b62000ac987828801620009a7565b945050602085015167ffffffffffffffff81111562000aed5762000aec6200084c565b5b62000afb87828801620009a7565b935050604062000b0e8782880162000a01565b925050606062000b218782880162000a66565b91505092959194509250565b6000819050919050565b7f4e487b7100000000000000000000000000000000000000000000000000000000600052601160045260246000fd5b600062000b738262000b2d565b915062000b808362000b2d565b92508282101562000b965762000b9562000b37565b5b828203905092915050565b7f4e487b7100000000000000000000000000000000000000000000000000000000600052603260045260246000fd5b7f4e487b7100000000000000000000000000000000000000000000000000000000600052603160045260246000fd5b7f4e487b7100000000000000000000000000000000000000000000000000000000600052602260045260246000fd5b6000600282049050600182168062000c4757607f821691505b60208210810362000c5d5762000c5c62000bff565b5b50919050565b613a128062000c736000396000f3fe608060405234801561001057600080fd5b50600436106102115760003560e01c806379cc679011610125578063a9059cbb116100ad578063d547741f1161007c578063d547741f1461062a578063d77e128c14610646578063dd62ed3e14610664578063e63ab1e914610694578063f5b541a6146106b257610211565b8063a9059cbb1461058e578063ac7e534e146105be578063ca15c873146105dc578063d53913931461060c57610211565b806395af0e2b116100f457806395af0e2b146104e857806395d89b41146105065780639dc29fac14610524578063a217fddf14610540578063a457c2d71461055e57610211565b806379cc6790146104625780638456cb591461047e5780639010d07c1461048857806391d14854146104b857610211565b8063313ce567116101a857806340c10f191161017757806340c10f19146103c057806342966c68146103dc57806351335b50146103f85780635c975abb1461041457806370a082311461043257610211565b8063313ce5671461034c57806336568abe1461036a57806339509351146103865780633f4ba83a146103b657610211565b806323b872dd116101e457806323b872dd146102b2578063248a9ca3146102e2578063272b0c3f146103125780632f2ff15d1461033057610211565b806301ffc9a71461021657806306fdde0314610246578063095ea7b31461026457806318160ddd14610294575b600080fd5b610230600480360381019061022b919061264f565b6106d0565b60405161023d9190612697565b60405180910390f35b61024e61074a565b60405161025b919061274b565b60405180910390f35b61027e60048036038101906102799190612801565b6107dc565b60405161028b9190612697565b60405180910390f35b61029c6107ff565b6040516102a99190612850565b60405180910390f35b6102cc60048036038101906102c7919061286b565b610809565b6040516102d99190612697565b60405180910390f35b6102fc60048036038101906102f791906128f4565b610838565b6040516103099190612930565b60405180910390f35b61031a610857565b6040516103279190612850565b60405180910390f35b61034a6004803603810190610345919061294b565b61085d565b005b610354610bde565b60405161036191906129a7565b60405180910390f35b610384600480360381019061037f919061294b565b610bf5565b005b6103a0600480360381019061039b9190612801565b610c78565b6040516103ad9190612697565b60405180910390f35b6103be610caf565b005b6103da60048036038101906103d59190612801565b610d29565b005b6103f660048036038101906103f191906129c2565b610dbc565b005b610412600480360381019061040d9190612b24565b610dd0565b005b61041c610e10565b6040516104299190612697565b60405180910390f35b61044c60048036038101906104479190612b9c565b610e27565b6040516104599190612850565b60405180910390f35b61047c60048036038101906104779190612801565b610e70565b005b610486610e90565b005b6104a2600480360381019061049d9190612bc9565b610f0a565b6040516104af9190612c18565b60405180910390f35b6104d260048036038101906104cd919061294b565b610f39565b6040516104df9190612697565b60405180910390f35b6104f0610fa3565b6040516104fd9190612850565b60405180910390f35b61050e610fa8565b60405161051b919061274b565b60405180910390f35b61053e60048036038101906105399190612801565b61103a565b005b6105486110cd565b6040516105559190612930565b60405180910390f35b61057860048036038101906105739190612801565b6110d4565b6040516105859190612697565b60405180910390f35b6105a860048036038101906105a39190612801565b61114b565b6040516105b59190612697565b60405180910390f35b6105c661116e565b6040516105d39190612c18565b60405180910390f35b6105f660048036038101906105f191906128f4565b611194565b6040516106039190612850565b60405180910390f35b6106146111b8565b6040516106219190612930565b60405180910390f35b610644600480360381019061063f919061294b565b6111dc565b005b61064e6111fd565b60405161065b9190612c18565b60405180910390f35b61067e60048036038101906106799190612c33565b611223565b60405161068b9190612850565b60405180910390f35b61069c6112aa565b6040516106a99190612930565b60405180910390f35b6106ba6112ce565b6040516106c79190612930565b60405180910390f35b60007f5a05180f000000000000000000000000000000000000000000000000000000007bffffffffffffffffffffffffffffffffffffffffffffffffffffffff1916827bffffffffffffffffffffffffffffffffffffffffffffffffffffffff19161480610743575061074282611513565b5b9050919050565b6060600b805461075990612ca2565b80601f016020809104026020016040519081016040528092919081815260200182805461078590612ca2565b80156107d25780601f106107a7576101008083540402835291602001916107d2565b820191906000526020600020905b8154815290600101906020018083116107b557829003601f168201915b5050505050905090565b6000806107e761158d565b90506107f4818585611595565b600191505092915050565b6000600454905090565b60008061081461158d565b905061082185828561175e565b61082c8585856117ea565b60019150509392505050565b6000806000838152602001908152602001600020600101549050919050565b60085481565b6000801b61086a81611a6c565b7feff9325756f17c2cb6786e7ce4614611786e33e9797b5b47c617de5d45f84f238303610bce5760008273ffffffffffffffffffffffffffffffffffffffff163b116108eb576040517f08c379a00000000000000000000000000000000000000000000000000000000081526004016108e290612d1f565b60405180910390fd5b600073ffffffffffffffffffffffffffffffffffffffff16600960009054906101000a900473ffffffffffffffffffffffffffffffffffffffff1673ffffffffffffffffffffffffffffffffffffffff1614610a56574260085410610985576040517f08c379a000000000000000000000000000000000000000000000000000000000815260040161097c90612d8b565b60405180910390fd5b6109d17feff9325756f17c2cb6786e7ce4614611786e33e9797b5b47c617de5d45f84f23600960009054906101000a900473ffffffffffffffffffffffffffffffffffffffff16611a80565b7f6adffd5c93085d835dac6f3b40adf7c242ca4b3284048d20c3d8a501748dc9736109fa61158d565b604051610a079190612c18565b60405180910390a16000600960006101000a81548173ffffffffffffffffffffffffffffffffffffffff021916908373ffffffffffffffffffffffffffffffffffffffff160217905550610bc9565b600060085414610b5f576001610a8b7feff9325756f17c2cb6786e7ce4614611786e33e9797b5b47c617de5d45f84f23611194565b1115610acc576040517f08c379a0000000000000000000000000000000000000000000000000000000008152600401610ac390612df7565b60405180910390fd5b603c42610ad99190612e46565b60088190555081600960006101000a81548173ffffffffffffffffffffffffffffffffffffffff021916908373ffffffffffffffffffffffffffffffffffffffff1602179055507e796b9188078b706afc21dc367f7acab967fb9f87b74734e94fa1833cb2250a82600854604051610b52929190612e9c565b60405180910390a1610bc8565b610b897feff9325756f17c2cb6786e7ce4614611786e33e9797b5b47c617de5d45f84f2383611a80565b7f6adffd5c93085d835dac6f3b40adf7c242ca4b3284048d20c3d8a501748dc97382604051610bb89190612c18565b60405180910390a1426008819055505b5b610bd9565b610bd88383611a80565b5b505050565b6000600d60009054906101000a900460ff16905090565b610bfd61158d565b73ffffffffffffffffffffffffffffffffffffffff168173ffffffffffffffffffffffffffffffffffffffff1614610c6a576040517f08c379a0000000000000000000000000000000000000000000000000000000008152600401610c6190612f37565b60405180910390fd5b610c748282611ab4565b5050565b600080610c8361158d565b9050610ca4818585610c958589611223565b610c9f9190612e46565b611595565b600191505092915050565b610ce07f65d7a28e3265b37a6474929f336521b332c1681b933f6cb9f3376673440d862a610cdb61158d565b610f39565b610d1f576040517f08c379a0000000000000000000000000000000000000000000000000000000008152600401610d1690612fc9565b60405180910390fd5b610d27611ae8565b565b7feff9325756f17c2cb6786e7ce4614611786e33e9797b5b47c617de5d45f84f23610d5381611a6c565b60003373ffffffffffffffffffffffffffffffffffffffff163b11610dad576040517f08c379a0000000000000000000000000000000000000000000000000000000008152600401610da490612d1f565b60405180910390fd5b610db78383611b4b565b505050565b610dcd610dc761158d565b82611cab565b50565b6000801b610ddd81611a6c565b81600b9080519060200190610df3929190612540565b5082600c9080519060200190610e0a929190612540565b50505050565b6000600760009054906101000a900460ff16905090565b6000600260008373ffffffffffffffffffffffffffffffffffffffff1673ffffffffffffffffffffffffffffffffffffffff168152602001908152602001600020549050919050565b610e8282610e7c61158d565b8361175e565b610e8c8282611cab565b5050565b610ec17f65d7a28e3265b37a6474929f336521b332c1681b933f6cb9f3376673440d862a610ebc61158d565b610f39565b610f00576040517f08c379a0000000000000000000000000000000000000000000000000000000008152600401610ef79061305b565b60405180910390fd5b610f08611e83565b565b6000610f318260016000868152602001908152602001600020611ee690919063ffffffff16565b905092915050565b600080600084815260200190815260200160002060000160008373ffffffffffffffffffffffffffffffffffffffff1673ffffffffffffffffffffffffffffffffffffffff16815260200190815260200160002060009054906101000a900460ff16905092915050565b603c81565b6060600c8054610fb790612ca2565b80601f0160208091040260200160405190810160405280929190818152602001828054610fe390612ca2565b80156110305780601f1061100557610100808354040283529160200191611030565b820191906000526020600020905b81548152906001019060200180831161101357829003601f168201915b5050505050905090565b7feff9325756f17c2cb6786e7ce4614611786e33e9797b5b47c617de5d45f84f2361106481611a6c565b60003373ffffffffffffffffffffffffffffffffffffffff163b116110be576040517f08c379a00000000000000000000000000000000000000000000000000000000081526004016110b590612d1f565b60405180910390fd5b6110c88383611cab565b505050565b6000801b81565b6000806110df61158d565b905060006110ed8286611223565b905083811015611132576040517f08c379a0000000000000000000000000000000000000000000000000000000008152600401611129906130ed565b60405180910390fd5b61113f8286868403611595565b60019250505092915050565b60008061115661158d565b90506111638185856117ea565b600191505092915050565b600960009054906101000a900473ffffffffffffffffffffffffffffffffffffffff1681565b60006111b160016000848152602001908152602001600020611f00565b9050919050565b7f9f2df0fed2c77648de5860a4cc508cd0818c85b8b8a1ab4ceeef8d981c8956a681565b6111e582610838565b6111ee81611a6c565b6111f88383611ab4565b505050565b600a60009054906101000a900473ffffffffffffffffffffffffffffffffffffffff1681565b6000600360008473ffffffffffffffffffffffffffffffffffffffff1673ffffffffffffffffffffffffffffffffffffffff16815260200190815260200160002060008373ffffffffffffffffffffffffffffffffffffffff1673ffffffffffffffffffffffffffffffffffffffff16815260200190815260200160002054905092915050565b7f65d7a28e3265b37a6474929f336521b332c1681b933f6cb9f3376673440d862a81565b7feff9325756f17c2cb6786e7ce4614611786e33e9797b5b47c617de5d45f84f2381565b6112fc8282610f39565b156113cf57600080600084815260200190815260200160002060000160008373ffffffffffffffffffffffffffffffffffffffff1673ffffffffffffffffffffffffffffffffffffffff16815260200190815260200160002060006101000a81548160ff02191690831515021790555061137461158d565b73ffffffffffffffffffffffffffffffffffffffff168173ffffffffffffffffffffffffffffffffffffffff16837ff6391f5c32d9c69d2a47ea670b442974b53935d1edc7fd64eb21e047a839171b60405160405180910390a45b5050565b60006113fb836000018373ffffffffffffffffffffffffffffffffffffffff1660001b611f15565b905092915050565b61140d8282610f39565b6114df57600160008084815260200190815260200160002060000160008373ffffffffffffffffffffffffffffffffffffffff1673ffffffffffffffffffffffffffffffffffffffff16815260200190815260200160002060006101000a81548160ff02191690831515021790555061148461158d565b73ffffffffffffffffffffffffffffffffffffffff168173ffffffffffffffffffffffffffffffffffffffff16837f2f8788117e7eff1d82e926ec794901d17c78024a50270940304540a733656f0d60405160405180910390a45b5050565b600061150b836000018373ffffffffffffffffffffffffffffffffffffffff1660001b612029565b905092915050565b60007f7965db0b000000000000000000000000000000000000000000000000000000007bffffffffffffffffffffffffffffffffffffffffffffffffffffffff1916827bffffffffffffffffffffffffffffffffffffffffffffffffffffffff19161480611586575061158582612099565b5b9050919050565b600033905090565b600073ffffffffffffffffffffffffffffffffffffffff168373ffffffffffffffffffffffffffffffffffffffff1603611604576040517f08c379a00000000000000000000000000000000000000000000000000000000081526004016115fb9061317f565b60405180910390fd5b600073ffffffffffffffffffffffffffffffffffffffff168273ffffffffffffffffffffffffffffffffffffffff1603611673576040517f08c379a000000000000000000000000000000000000000000000000000000000815260040161166a90613211565b60405180910390fd5b80600360008573ffffffffffffffffffffffffffffffffffffffff1673ffffffffffffffffffffffffffffffffffffffff16815260200190815260200160002060008473ffffffffffffffffffffffffffffffffffffffff1673ffffffffffffffffffffffffffffffffffffffff168152602001908152602001600020819055508173ffffffffffffffffffffffffffffffffffffffff168373ffffffffffffffffffffffffffffffffffffffff167f8c5be1e5ebec7d5bd14f71427d1e84f3dd0314c0f7b2291e5b200ac8c7c3b925836040516117519190612850565b60405180910390a3505050565b600061176a8484611223565b90507fffffffffffffffffffffffffffffffffffffffffffffffffffffffffffffffff81146117e457818110156117d6576040517f08c379a00000000000000000000000000000000000000000000000000000000081526004016117cd9061327d565b60405180910390fd5b6117e38484848403611595565b5b50505050565b600073ffffffffffffffffffffffffffffffffffffffff168373ffffffffffffffffffffffffffffffffffffffff1603611859576040517f08c379a00000000000000000000000000000000000000000000000000000000081526004016118509061330f565b60405180910390fd5b600073ffffffffffffffffffffffffffffffffffffffff168273ffffffffffffffffffffffffffffffffffffffff16036118c8576040517f08c379a00000000000000000000000000000000000000000000000000000000081526004016118bf906133a1565b60405180910390fd5b6118d3838383612103565b6000600260008573ffffffffffffffffffffffffffffffffffffffff1673ffffffffffffffffffffffffffffffffffffffff1681526020019081526020016000205490508181101561195a576040517f08c379a000000000000000000000000000000000000000000000000000000000815260040161195190613433565b60405180910390fd5b818103600260008673ffffffffffffffffffffffffffffffffffffffff1673ffffffffffffffffffffffffffffffffffffffff1681526020019081526020016000208190555081600260008573ffffffffffffffffffffffffffffffffffffffff1673ffffffffffffffffffffffffffffffffffffffff16815260200190815260200160002060008282546119ef9190612e46565b925050819055508273ffffffffffffffffffffffffffffffffffffffff168473ffffffffffffffffffffffffffffffffffffffff167fddf252ad1be2c89b69c2b068fc378daa952ba7f163c4a11628f55a4df523b3ef84604051611a539190612850565b60405180910390a3611a66848484612113565b50505050565b611a7d81611a7861158d565b612118565b50565b611a8a8282611403565b611aaf81600160008581526020019081526020016000206114e390919063ffffffff16565b505050565b611abe82826112f2565b611ae381600160008581526020019081526020016000206113d390919063ffffffff16565b505050565b611af06121b5565b6000600760006101000a81548160ff0219169083151502179055507f5db9ee0a495bf2e6ff9c91a7834c1ba4fdd244a5e8aa4e537bd38aeae4b073aa611b3461158d565b604051611b419190612c18565b60405180910390a1565b600073ffffffffffffffffffffffffffffffffffffffff168273ffffffffffffffffffffffffffffffffffffffff1603611bba576040517f08c379a0000000000000000000000000000000000000000000000000000000008152600401611bb19061349f565b60405180910390fd5b611bc660008383612103565b8060046000828254611bd89190612e46565b9250508190555080600260008473ffffffffffffffffffffffffffffffffffffffff1673ffffffffffffffffffffffffffffffffffffffff1681526020019081526020016000206000828254611c2e9190612e46565b925050819055508173ffffffffffffffffffffffffffffffffffffffff16600073ffffffffffffffffffffffffffffffffffffffff167fddf252ad1be2c89b69c2b068fc378daa952ba7f163c4a11628f55a4df523b3ef83604051611c939190612850565b60405180910390a3611ca760008383612113565b5050565b600073ffffffffffffffffffffffffffffffffffffffff168273ffffffffffffffffffffffffffffffffffffffff1603611d1a576040517f08c379a0000000000000000000000000000000000000000000000000000000008152600401611d1190613531565b60405180910390fd5b611d2682600083612103565b6000600260008473ffffffffffffffffffffffffffffffffffffffff1673ffffffffffffffffffffffffffffffffffffffff16815260200190815260200160002054905081811015611dad576040517f08c379a0000000000000000000000000000000000000000000000000000000008152600401611da4906135c3565b60405180910390fd5b818103600260008573ffffffffffffffffffffffffffffffffffffffff1673ffffffffffffffffffffffffffffffffffffffff168152602001908152602001600020819055508160046000828254611e0591906135e3565b92505081905550600073ffffffffffffffffffffffffffffffffffffffff168373ffffffffffffffffffffffffffffffffffffffff167fddf252ad1be2c89b69c2b068fc378daa952ba7f163c4a11628f55a4df523b3ef84604051611e6a9190612850565b60405180910390a3611e7e83600084612113565b505050565b611e8b6121fe565b6001600760006101000a81548160ff0219169083151502179055507f62e78cea01bee320cd4e420270b5ea74000d11b0c9f74754ebdbfc544b05a258611ecf61158d565b604051611edc9190612c18565b60405180910390a1565b6000611ef58360000183612248565b60001c905092915050565b6000611f0e82600001612273565b9050919050565b6000808360010160008481526020019081526020016000205490506000811461201d576000600182611f4791906135e3565b9050600060018660000180549050611f5f91906135e3565b9050818114611fce576000866000018281548110611f8057611f7f613617565b5b9060005260206000200154905080876000018481548110611fa457611fa3613617565b5b90600052602060002001819055508387600101600083815260200190815260200160002081905550505b85600001805480611fe257611fe1613646565b5b600190038181906000526020600020016000905590558560010160008681526020019081526020016000206000905560019350505050612023565b60009150505b92915050565b60006120358383612284565b61208e578260000182908060018154018082558091505060019003906000526020600020016000909190919091505582600001805490508360010160008481526020019081526020016000208190555060019050612093565b600090505b92915050565b60007f01ffc9a7000000000000000000000000000000000000000000000000000000007bffffffffffffffffffffffffffffffffffffffffffffffffffffffff1916827bffffffffffffffffffffffffffffffffffffffffffffffffffffffff1916149050919050565b61210e8383836122a7565b505050565b505050565b6121228282610f39565b6121b1576121478173ffffffffffffffffffffffffffffffffffffffff1660146122ff565b6121558360001c60206122ff565b604051602001612166929190613749565b6040516020818303038152906040526040517f08c379a00000000000000000000000000000000000000000000000000000000081526004016121a8919061274b565b60405180910390fd5b5050565b6121bd610e10565b6121fc576040517f08c379a00000000000000000000000000000000000000000000000000000000081526004016121f3906137cf565b60405180910390fd5b565b612206610e10565b15612246576040517f08c379a000000000000000000000000000000000000000000000000000000000815260040161223d9061383b565b60405180910390fd5b565b60008260000182815481106122605761225f613617565b5b9060005260206000200154905092915050565b600081600001805490509050919050565b600080836001016000848152602001908152602001600020541415905092915050565b6122b283838361253b565b6122ba610e10565b156122fa576040517f08c379a00000000000000000000000000000000000000000000000000000000081526004016122f1906138cd565b60405180910390fd5b505050565b60606000600283600261231291906138ed565b61231c9190612e46565b67ffffffffffffffff811115612335576123346129f9565b5b6040519080825280601f01601f1916602001820160405280156123675781602001600182028036833780820191505090505b5090507f30000000000000000000000000000000000000000000000000000000000000008160008151811061239f5761239e613617565b5b60200101907effffffffffffffffffffffffffffffffffffffffffffffffffffffffffffff1916908160001a9053507f78000000000000000000000000000000000000000000000000000000000000008160018151811061240357612402613617565b5b60200101907effffffffffffffffffffffffffffffffffffffffffffffffffffffffffffff1916908160001a9053506000600184600261244391906138ed565b61244d9190612e46565b90505b60018111156124ed577f3031323334353637383961626364656600000000000000000000000000000000600f86166010811061248f5761248e613617565b5b1a60f81b8282815181106124a6576124a5613617565b5b60200101907effffffffffffffffffffffffffffffffffffffffffffffffffffffffffffff1916908160001a905350600485901c9450806124e690613947565b9050612450565b5060008414612531576040517f08c379a0000000000000000000000000000000000000000000000000000000008152600401612528906139bc565b60405180910390fd5b8091505092915050565b505050565b82805461254c90612ca2565b90600052602060002090601f01602090048101928261256e57600085556125b5565b82601f1061258757805160ff19168380011785556125b5565b828001600101855582156125b5579182015b828111156125b4578251825591602001919060010190612599565b5b5090506125c291906125c6565b5090565b5b808211156125df5760008160009055506001016125c7565b5090565b6000604051905090565b600080fd5b600080fd5b60007fffffffff0000000000000000000000000000000000000000000000000000000082169050919050565b61262c816125f7565b811461263757600080fd5b50565b60008135905061264981612623565b92915050565b600060208284031215612665576126646125ed565b5b60006126738482850161263a565b91505092915050565b60008115159050919050565b6126918161267c565b82525050565b60006020820190506126ac6000830184612688565b92915050565b600081519050919050565b600082825260208201905092915050565b60005b838110156126ec5780820151818401526020810190506126d1565b838111156126fb576000848401525b50505050565b6000601f19601f8301169050919050565b600061271d826126b2565b61272781856126bd565b93506127378185602086016126ce565b61274081612701565b840191505092915050565b600060208201905081810360008301526127658184612712565b905092915050565b600073ffffffffffffffffffffffffffffffffffffffff82169050919050565b60006127988261276d565b9050919050565b6127a88161278d565b81146127b357600080fd5b50565b6000813590506127c58161279f565b92915050565b6000819050919050565b6127de816127cb565b81146127e957600080fd5b50565b6000813590506127fb816127d5565b92915050565b60008060408385031215612818576128176125ed565b5b6000612826858286016127b6565b9250506020612837858286016127ec565b9150509250929050565b61284a816127cb565b82525050565b60006020820190506128656000830184612841565b92915050565b600080600060608486031215612884576128836125ed565b5b6000612892868287016127b6565b93505060206128a3868287016127b6565b92505060406128b4868287016127ec565b9150509250925092565b6000819050919050565b6128d1816128be565b81146128dc57600080fd5b50565b6000813590506128ee816128c8565b92915050565b60006020828403121561290a576129096125ed565b5b6000612918848285016128df565b91505092915050565b61292a816128be565b82525050565b60006020820190506129456000830184612921565b92915050565b60008060408385031215612962576129616125ed565b5b6000612970858286016128df565b9250506020612981858286016127b6565b9150509250929050565b600060ff82169050919050565b6129a18161298b565b82525050565b60006020820190506129bc6000830184612998565b92915050565b6000602082840312156129d8576129d76125ed565b5b60006129e6848285016127ec565b91505092915050565b600080fd5b600080fd5b7f4e487b7100000000000000000000000000000000000000000000000000000000600052604160045260246000fd5b612a3182612701565b810181811067ffffffffffffffff82111715612a5057612a4f6129f9565b5b80604052505050565b6000612a636125e3565b9050612a6f8282612a28565b919050565b600067ffffffffffffffff821115612a8f57612a8e6129f9565b5b612a9882612701565b9050602081019050919050565b82818337600083830152505050565b6000612ac7612ac284612a74565b612a59565b905082815260208101848484011115612ae357612ae26129f4565b5b612aee848285612aa5565b509392505050565b600082601f830112612b0b57612b0a6129ef565b5b8135612b1b848260208601612ab4565b91505092915050565b60008060408385031215612b3b57612b3a6125ed565b5b600083013567ffffffffffffffff811115612b5957612b586125f2565b5b612b6585828601612af6565b925050602083013567ffffffffffffffff811115612b8657612b856125f2565b5b612b9285828601612af6565b9150509250929050565b600060208284031215612bb257612bb16125ed565b5b6000612bc0848285016127b6565b91505092915050565b60008060408385031215612be057612bdf6125ed565b5b6000612bee858286016128df565b9250506020612bff858286016127ec565b9150509250929050565b612c128161278d565b82525050565b6000602082019050612c2d6000830184612c09565b92915050565b60008060408385031215612c4a57612c496125ed565b5b6000612c58858286016127b6565b9250506020612c69858286016127b6565b9150509250929050565b7f4e487b7100000000000000000000000000000000000000000000000000000000600052602260045260246000fd5b60006002820490506001821680612cba57607f821691505b602082108103612ccd57612ccc612c73565b5b50919050565b7f4b4953533a20454f410000000000000000000000000000000000000000000000600082015250565b6000612d096009836126bd565b9150612d1482612cd3565b602082019050919050565b60006020820190508181036000830152612d3881612cfc565b9050919050565b7f4b4953533a20214f50455241544f525f524f4c455f504552494f440000000000600082015250565b6000612d75601b836126bd565b9150612d8082612d3f565b602082019050919050565b60006020820190508181036000830152612da481612d68565b9050919050565b7f4b4953533a20216d696e7465725265766f6b6564000000000000000000000000600082015250565b6000612de16014836126bd565b9150612dec82612dab565b602082019050919050565b60006020820190508181036000830152612e1081612dd4565b9050919050565b7f4e487b7100000000000000000000000000000000000000000000000000000000600052601160045260246000fd5b6000612e51826127cb565b9150612e5c836127cb565b9250827fffffffffffffffffffffffffffffffffffffffffffffffffffffffffffffffff03821115612e9157612e90612e17565b5b828201905092915050565b6000604082019050612eb16000830185612c09565b612ebe6020830184612841565b9392505050565b7f416363657373436f6e74726f6c3a2063616e206f6e6c792072656e6f756e636560008201527f20726f6c657320666f722073656c660000000000000000000000000000000000602082015250565b6000612f21602f836126bd565b9150612f2c82612ec5565b604082019050919050565b60006020820190508181036000830152612f5081612f14565b9050919050565b7f45524332305072657365744d696e7465725061757365723a206d75737420686160008201527f76652070617573657220726f6c6520746f20756e706175736500000000000000602082015250565b6000612fb36039836126bd565b9150612fbe82612f57565b604082019050919050565b60006020820190508181036000830152612fe281612fa6565b9050919050565b7f45524332305072657365744d696e7465725061757365723a206d75737420686160008201527f76652070617573657220726f6c6520746f207061757365000000000000000000602082015250565b60006130456037836126bd565b915061305082612fe9565b604082019050919050565b6000602082019050818103600083015261307481613038565b9050919050565b7f45524332303a2064656372656173656420616c6c6f77616e63652062656c6f7760008201527f207a65726f000000000000000000000000000000000000000000000000000000602082015250565b60006130d76025836126bd565b91506130e28261307b565b604082019050919050565b60006020820190508181036000830152613106816130ca565b9050919050565b7f45524332303a20617070726f76652066726f6d20746865207a65726f2061646460008201527f7265737300000000000000000000000000000000000000000000000000000000602082015250565b60006131696024836126bd565b91506131748261310d565b604082019050919050565b600060208201905081810360008301526131988161315c565b9050919050565b7f45524332303a20617070726f766520746f20746865207a65726f20616464726560008201527f7373000000000000000000000000000000000000000000000000000000000000602082015250565b60006131fb6022836126bd565b91506132068261319f565b604082019050919050565b6000602082019050818103600083015261322a816131ee565b9050919050565b7f45524332303a20696e73756666696369656e7420616c6c6f77616e6365000000600082015250565b6000613267601d836126bd565b915061327282613231565b602082019050919050565b600060208201905081810360008301526132968161325a565b9050919050565b7f45524332303a207472616e736665722066726f6d20746865207a65726f20616460008201527f6472657373000000000000000000000000000000000000000000000000000000602082015250565b60006132f96025836126bd565b91506133048261329d565b604082019050919050565b60006020820190508181036000830152613328816132ec565b9050919050565b7f45524332303a207472616e7366657220746f20746865207a65726f206164647260008201527f6573730000000000000000000000000000000000000000000000000000000000602082015250565b600061338b6023836126bd565b91506133968261332f565b604082019050919050565b600060208201905081810360008301526133ba8161337e565b9050919050565b7f45524332303a207472616e7366657220616d6f756e742065786365656473206260008201527f616c616e63650000000000000000000000000000000000000000000000000000602082015250565b600061341d6026836126bd565b9150613428826133c1565b604082019050919050565b6000602082019050818103600083015261344c81613410565b9050919050565b7f45524332303a206d696e7420746f20746865207a65726f206164647265737300600082015250565b6000613489601f836126bd565b915061349482613453565b602082019050919050565b600060208201905081810360008301526134b88161347c565b9050919050565b7f45524332303a206275726e2066726f6d20746865207a65726f2061646472657360008201527f7300000000000000000000000000000000000000000000000000000000000000602082015250565b600061351b6021836126bd565b9150613526826134bf565b604082019050919050565b6000602082019050818103600083015261354a8161350e565b9050919050565b7f45524332303a206275726e20616d6f756e7420657863656564732062616c616e60008201527f6365000000000000000000000000000000000000000000000000000000000000602082015250565b60006135ad6022836126bd565b91506135b882613551565b604082019050919050565b600060208201905081810360008301526135dc816135a0565b9050919050565b60006135ee826127cb565b91506135f9836127cb565b92508282101561360c5761360b612e17565b5b828203905092915050565b7f4e487b7100000000000000000000000000000000000000000000000000000000600052603260045260246000fd5b7f4e487b7100000000000000000000000000000000000000000000000000000000600052603160045260246000fd5b600081905092915050565b7f416363657373436f6e74726f6c3a206163636f756e7420000000000000000000600082015250565b60006136b6601783613675565b91506136c182613680565b601782019050919050565b60006136d7826126b2565b6136e18185613675565b93506136f18185602086016126ce565b80840191505092915050565b7f206973206d697373696e6720726f6c6520000000000000000000000000000000600082015250565b6000613733601183613675565b915061373e826136fd565b601182019050919050565b6000613754826136a9565b915061376082856136cc565b915061376b82613726565b915061377782846136cc565b91508190509392505050565b7f5061757361626c653a206e6f7420706175736564000000000000000000000000600082015250565b60006137b96014836126bd565b91506137c482613783565b602082019050919050565b600060208201905081810360008301526137e8816137ac565b9050919050565b7f5061757361626c653a2070617573656400000000000000000000000000000000600082015250565b60006138256010836126bd565b9150613830826137ef565b602082019050919050565b6000602082019050818103600083015261385481613818565b9050919050565b7f45524332305061757361626c653a20746f6b656e207472616e7366657220776860008201527f696c652070617573656400000000000000000000000000000000000000000000602082015250565b60006138b7602a836126bd565b91506138c28261385b565b604082019050919050565b600060208201905081810360008301526138e6816138aa565b9050919050565b60006138f8826127cb565b9150613903836127cb565b9250817fffffffffffffffffffffffffffffffffffffffffffffffffffffffffffffffff048311821515161561393c5761393b612e17565b5b828202905092915050565b6000613952826127cb565b91506000820361396557613964612e17565b5b600182039050919050565b7f537472696e67733a20686578206c656e67746820696e73756666696369656e74600082015250565b60006139a66020836126bd565b91506139b182613970565b602082019050919050565b600060208201905081810360008301526139d581613999565b905091905056fea26469706673582212203a8c1e26e1b2f17e0f436e21d358f5fb162c9d8f2a6fe2135641ceeacdd4b60464736f6c634300080e0033",
  "devdoc": {
    "author": "Kresko",
    "kind": "dev",
    "methods": {
      "allowance(address,address)": {
        "details": "See {IERC20-allowance}."
      },
      "approve(address,uint256)": {
        "details": "See {IERC20-approve}. NOTE: If `amount` is the maximum `uint256`, the allowance is not updated on `transferFrom`. This is semantically equivalent to an infinite approval. Requirements: - `spender` cannot be the zero address."
      },
      "balanceOf(address)": {
        "details": "See {IERC20-balanceOf}."
      },
      "burn(address,uint256)": {
        "params": {
          "_amount": "amount to burn",
          "_from": "address to burn tokens from"
        }
      },
      "burn(uint256)": {
        "details": "Destroys `amount` tokens from the caller. See {ERC20-_burn}."
      },
      "burnFrom(address,uint256)": {
        "details": "Destroys `amount` tokens from `account`, deducting from the caller's allowance. See {ERC20-_burn} and {ERC20-allowance}. Requirements: - the caller must have allowance for ``accounts``'s tokens of at least `amount`."
      },
      "decimals()": {
        "details": "Returns the number of decimals used to get its user representation. For example, if `decimals` equals `2`, a balance of `505` tokens should be displayed to a user as `5.05` (`505 / 10 ** 2`). Tokens usually opt for a value of 18, imitating the relationship between Ether and Wei. This is the value {ERC20} uses, unless this function is overridden; NOTE: This information is only used for _display_ purposes: it in no way affects any of the arithmetic of the contract, including {IERC20-balanceOf} and {IERC20-transfer}."
      },
      "decreaseAllowance(address,uint256)": {
        "details": "Atomically decreases the allowance granted to `spender` by the caller. This is an alternative to {approve} that can be used as a mitigation for problems described in {IERC20-approve}. Emits an {Approval} event indicating the updated allowance. Requirements: - `spender` cannot be the zero address. - `spender` must have allowance for the caller of at least `subtractedValue`."
      },
      "getRoleAdmin(bytes32)": {
        "details": "Returns the admin role that controls `role`. See {grantRole} and {revokeRole}. To change a role's admin, use {_setRoleAdmin}."
      },
      "getRoleMember(bytes32,uint256)": {
        "details": "Returns one of the accounts that have `role`. `index` must be a value between 0 and {getRoleMemberCount}, non-inclusive. Role bearers are not sorted in any particular way, and their ordering may change at any point. WARNING: When using {getRoleMember} and {getRoleMemberCount}, make sure you perform all queries on the same block. See the following https://forum.openzeppelin.com/t/iterating-over-elements-on-enumerableset-in-openzeppelin-contracts/2296[forum post] for more information."
      },
      "getRoleMemberCount(bytes32)": {
        "details": "Returns the number of accounts that have `role`. Can be used together with {getRoleMember} to enumerate all bearers of a role."
      },
      "grantRole(bytes32,address)": {
        "params": {
          "_role": "role to grant",
          "_to": "address to grant role for"
        }
      },
      "hasRole(bytes32,address)": {
        "details": "Returns `true` if `account` has been granted `role`."
      },
      "increaseAllowance(address,uint256)": {
        "details": "Atomically increases the allowance granted to `spender` by the caller. This is an alternative to {approve} that can be used as a mitigation for problems described in {IERC20-approve}. Emits an {Approval} event indicating the updated allowance. Requirements: - `spender` cannot be the zero address."
      },
      "mint(address,uint256)": {
        "params": {
          "_amount": "amount to mint",
          "_to": "address to mint tokens to"
        }
      },
      "name()": {
        "details": "Returns the name of the token."
      },
      "pause()": {
        "details": "Pauses all token transfers. See {ERC20Pausable} and {Pausable-_pause}. Requirements: - the caller must have the `PAUSER_ROLE`."
      },
      "paused()": {
        "details": "Returns true if the contract is paused, and false otherwise."
      },
      "renounceRole(bytes32,address)": {
        "details": "Revokes `role` from the calling account. Roles are often managed via {grantRole} and {revokeRole}: this function's purpose is to provide a mechanism for accounts to lose their privileges if they are compromised (such as when a trusted device is misplaced). If the calling account had been revoked `role`, emits a {RoleRevoked} event. Requirements: - the caller must be `account`. May emit a {RoleRevoked} event."
      },
      "revokeRole(bytes32,address)": {
        "details": "Revokes `role` from `account`. If `account` had been granted `role`, emits a {RoleRevoked} event. Requirements: - the caller must have ``role``'s admin role. May emit a {RoleRevoked} event."
      },
      "supportsInterface(bytes4)": {
        "details": "See {IERC165-supportsInterface}."
      },
      "symbol()": {
        "details": "Returns the symbol of the token, usually a shorter version of the name."
      },
      "totalSupply()": {
        "details": "See {IERC20-totalSupply}."
      },
      "transfer(address,uint256)": {
        "details": "See {IERC20-transfer}. Requirements: - `to` cannot be the zero address. - the caller must have a balance of at least `amount`."
      },
      "transferFrom(address,address,uint256)": {
        "details": "See {IERC20-transferFrom}. Emits an {Approval} event indicating the updated allowance. This is not required by the EIP. See the note at the beginning of {ERC20}. NOTE: Does not update the allowance if the current allowance is the maximum `uint256`. Requirements: - `from` and `to` cannot be the zero address. - `from` must have a balance of at least `amount`. - the caller must have allowance for ``from``'s tokens of at least `amount`."
      },
      "unpause()": {
        "details": "Unpauses all token transfers. See {ERC20Pausable} and {Pausable-_unpause}. Requirements: - the caller must have the `PAUSER_ROLE`."
      }
    },
    "title": "Kresko Integrated Stable System (TEST)",
    "version": 1
  },
  "userdoc": {
    "kind": "user",
    "methods": {
      "burn(address,uint256)": {
        "notice": "Allows OPERATOR_ROLE to burn tokens"
      },
      "grantRole(bytes32,address)": {
        "notice": "Overrides `AccessControl.grantRole` for following: * Implement a cooldown period of `OPERATOR_ROLE_PERIOD` minutes for setting a new OPERATOR_ROLE * Limited to 2 role members (Converter & Kresko) * EOA cannot be granted the operator roleOPERATOR_ROLE can still be revoked without this cooldown periodPAUSER_ROLE can still be granted without this cooldown period"
      },
      "mint(address,uint256)": {
        "notice": "Allows OPERATOR_ROLE to mint tokens"
      }
    },
    "version": 1
  },
  "storageLayout": {
    "storage": [
      {
        "astId": 4218,
        "contract": "src/contracts/kiss/KISS.sol:KISS",
        "label": "_roles",
        "offset": 0,
        "slot": "0",
        "type": "t_mapping(t_bytes32,t_struct(RoleData)4213_storage)"
      },
      {
        "astId": 4532,
        "contract": "src/contracts/kiss/KISS.sol:KISS",
        "label": "_roleMembers",
        "offset": 0,
        "slot": "1",
        "type": "t_mapping(t_bytes32,t_struct(AddressSet)7423_storage)"
      },
      {
        "astId": 5013,
        "contract": "src/contracts/kiss/KISS.sol:KISS",
        "label": "_balances",
        "offset": 0,
        "slot": "2",
        "type": "t_mapping(t_address,t_uint256)"
      },
      {
        "astId": 5019,
        "contract": "src/contracts/kiss/KISS.sol:KISS",
        "label": "_allowances",
        "offset": 0,
        "slot": "3",
        "type": "t_mapping(t_address,t_mapping(t_address,t_uint256))"
      },
      {
        "astId": 5021,
        "contract": "src/contracts/kiss/KISS.sol:KISS",
        "label": "_totalSupply",
        "offset": 0,
        "slot": "4",
        "type": "t_uint256"
      },
      {
        "astId": 5023,
        "contract": "src/contracts/kiss/KISS.sol:KISS",
        "label": "_name",
        "offset": 0,
        "slot": "5",
        "type": "t_string_storage"
      },
      {
        "astId": 5025,
        "contract": "src/contracts/kiss/KISS.sol:KISS",
        "label": "_symbol",
        "offset": 0,
        "slot": "6",
        "type": "t_string_storage"
      },
      {
        "astId": 4867,
        "contract": "src/contracts/kiss/KISS.sol:KISS",
        "label": "_paused",
        "offset": 0,
        "slot": "7",
        "type": "t_bool"
      },
      {
        "astId": 18351,
        "contract": "src/contracts/kiss/KISS.sol:KISS",
        "label": "operatorRoleTimestamp",
        "offset": 0,
        "slot": "8",
        "type": "t_uint256"
      },
      {
        "astId": 18353,
        "contract": "src/contracts/kiss/KISS.sol:KISS",
        "label": "pendingOperator",
        "offset": 0,
        "slot": "9",
        "type": "t_address"
      },
      {
        "astId": 18355,
        "contract": "src/contracts/kiss/KISS.sol:KISS",
        "label": "kresko",
        "offset": 0,
        "slot": "10",
        "type": "t_address"
      },
      {
        "astId": 18357,
        "contract": "src/contracts/kiss/KISS.sol:KISS",
        "label": "_name",
        "offset": 0,
        "slot": "11",
        "type": "t_string_storage"
      },
      {
        "astId": 18359,
        "contract": "src/contracts/kiss/KISS.sol:KISS",
        "label": "_symbol",
        "offset": 0,
        "slot": "12",
        "type": "t_string_storage"
      },
      {
        "astId": 18361,
        "contract": "src/contracts/kiss/KISS.sol:KISS",
        "label": "_decimals",
        "offset": 0,
        "slot": "13",
        "type": "t_uint8"
      }
    ],
    "types": {
      "t_address": {
        "encoding": "inplace",
        "label": "address",
        "numberOfBytes": "20"
      },
      "t_array(t_bytes32)dyn_storage": {
        "base": "t_bytes32",
        "encoding": "dynamic_array",
        "label": "bytes32[]",
        "numberOfBytes": "32"
      },
      "t_bool": {
        "encoding": "inplace",
        "label": "bool",
        "numberOfBytes": "1"
      },
      "t_bytes32": {
        "encoding": "inplace",
        "label": "bytes32",
        "numberOfBytes": "32"
      },
      "t_mapping(t_address,t_bool)": {
        "encoding": "mapping",
        "key": "t_address",
        "label": "mapping(address => bool)",
        "numberOfBytes": "32",
        "value": "t_bool"
      },
      "t_mapping(t_address,t_mapping(t_address,t_uint256))": {
        "encoding": "mapping",
        "key": "t_address",
        "label": "mapping(address => mapping(address => uint256))",
        "numberOfBytes": "32",
        "value": "t_mapping(t_address,t_uint256)"
      },
      "t_mapping(t_address,t_uint256)": {
        "encoding": "mapping",
        "key": "t_address",
        "label": "mapping(address => uint256)",
        "numberOfBytes": "32",
        "value": "t_uint256"
      },
      "t_mapping(t_bytes32,t_struct(AddressSet)7423_storage)": {
        "encoding": "mapping",
        "key": "t_bytes32",
        "label": "mapping(bytes32 => struct EnumerableSet.AddressSet)",
        "numberOfBytes": "32",
        "value": "t_struct(AddressSet)7423_storage"
      },
      "t_mapping(t_bytes32,t_struct(RoleData)4213_storage)": {
        "encoding": "mapping",
        "key": "t_bytes32",
        "label": "mapping(bytes32 => struct AccessControl.RoleData)",
        "numberOfBytes": "32",
        "value": "t_struct(RoleData)4213_storage"
      },
      "t_mapping(t_bytes32,t_uint256)": {
        "encoding": "mapping",
        "key": "t_bytes32",
        "label": "mapping(bytes32 => uint256)",
        "numberOfBytes": "32",
        "value": "t_uint256"
      },
      "t_string_storage": {
        "encoding": "bytes",
        "label": "string",
        "numberOfBytes": "32"
      },
      "t_struct(AddressSet)7423_storage": {
        "encoding": "inplace",
        "label": "struct EnumerableSet.AddressSet",
        "members": [
          {
            "astId": 7422,
            "contract": "src/contracts/kiss/KISS.sol:KISS",
            "label": "_inner",
            "offset": 0,
            "slot": "0",
            "type": "t_struct(Set)7122_storage"
          }
        ],
        "numberOfBytes": "64"
      },
      "t_struct(RoleData)4213_storage": {
        "encoding": "inplace",
        "label": "struct AccessControl.RoleData",
        "members": [
          {
            "astId": 4210,
            "contract": "src/contracts/kiss/KISS.sol:KISS",
            "label": "members",
            "offset": 0,
            "slot": "0",
            "type": "t_mapping(t_address,t_bool)"
          },
          {
            "astId": 4212,
            "contract": "src/contracts/kiss/KISS.sol:KISS",
            "label": "adminRole",
            "offset": 0,
            "slot": "1",
            "type": "t_bytes32"
          }
        ],
        "numberOfBytes": "64"
      },
      "t_struct(Set)7122_storage": {
        "encoding": "inplace",
        "label": "struct EnumerableSet.Set",
        "members": [
          {
            "astId": 7117,
            "contract": "src/contracts/kiss/KISS.sol:KISS",
            "label": "_values",
            "offset": 0,
            "slot": "0",
            "type": "t_array(t_bytes32)dyn_storage"
          },
          {
            "astId": 7121,
            "contract": "src/contracts/kiss/KISS.sol:KISS",
            "label": "_indexes",
            "offset": 0,
            "slot": "1",
            "type": "t_mapping(t_bytes32,t_uint256)"
          }
        ],
        "numberOfBytes": "64"
      },
      "t_uint256": {
        "encoding": "inplace",
        "label": "uint256",
        "numberOfBytes": "32"
      },
      "t_uint8": {
        "encoding": "inplace",
        "label": "uint8",
        "numberOfBytes": "1"
      }
    }
  }
}