{
  "address": "0x02244A4B8D07b71aC82ebE49D5674c8320Ed1659",
  "abi": [
    {
      "inputs": [
        {
          "internalType": "string",
          "name": "name_",
          "type": "string"
        },
        {
          "internalType": "string",
          "name": "symbol_",
          "type": "string"
        },
        {
          "internalType": "uint8",
          "name": "dec_",
          "type": "uint8"
        },
        {
          "internalType": "address",
          "name": "kresko_",
          "type": "address"
        }
      ],
      "stateMutability": "nonpayable",
      "type": "constructor"
    },
    {
      "anonymous": false,
      "inputs": [
        {
          "indexed": true,
          "internalType": "address",
          "name": "owner",
          "type": "address"
        },
        {
          "indexed": true,
          "internalType": "address",
          "name": "spender",
          "type": "address"
        },
        {
          "indexed": false,
          "internalType": "uint256",
          "name": "value",
          "type": "uint256"
        }
      ],
      "name": "Approval",
      "type": "event"
    },
    {
      "anonymous": false,
      "inputs": [
        {
          "indexed": false,
          "internalType": "address",
          "name": "newMinter",
          "type": "address"
        }
      ],
      "name": "NewMinter",
      "type": "event"
    },
    {
      "anonymous": false,
      "inputs": [
        {
          "indexed": false,
          "internalType": "address",
          "name": "pendingNewMinter",
          "type": "address"
        },
        {
          "indexed": false,
          "internalType": "uint256",
          "name": "unlockTimestamp",
          "type": "uint256"
        }
      ],
      "name": "NewMinterInitiated",
      "type": "event"
    },
    {
      "anonymous": false,
      "inputs": [
        {
          "indexed": false,
          "internalType": "address",
          "name": "account",
          "type": "address"
        }
      ],
      "name": "Paused",
      "type": "event"
    },
    {
      "anonymous": false,
      "inputs": [
        {
          "indexed": true,
          "internalType": "bytes32",
          "name": "role",
          "type": "bytes32"
        },
        {
          "indexed": true,
          "internalType": "bytes32",
          "name": "previousAdminRole",
          "type": "bytes32"
        },
        {
          "indexed": true,
          "internalType": "bytes32",
          "name": "newAdminRole",
          "type": "bytes32"
        }
      ],
      "name": "RoleAdminChanged",
      "type": "event"
    },
    {
      "anonymous": false,
      "inputs": [
        {
          "indexed": true,
          "internalType": "bytes32",
          "name": "role",
          "type": "bytes32"
        },
        {
          "indexed": true,
          "internalType": "address",
          "name": "account",
          "type": "address"
        },
        {
          "indexed": true,
          "internalType": "address",
          "name": "sender",
          "type": "address"
        }
      ],
      "name": "RoleGranted",
      "type": "event"
    },
    {
      "anonymous": false,
      "inputs": [
        {
          "indexed": true,
          "internalType": "bytes32",
          "name": "role",
          "type": "bytes32"
        },
        {
          "indexed": true,
          "internalType": "address",
          "name": "account",
          "type": "address"
        },
        {
          "indexed": true,
          "internalType": "address",
          "name": "sender",
          "type": "address"
        }
      ],
      "name": "RoleRevoked",
      "type": "event"
    },
    {
      "anonymous": false,
      "inputs": [
        {
          "indexed": true,
          "internalType": "address",
          "name": "from",
          "type": "address"
        },
        {
          "indexed": true,
          "internalType": "address",
          "name": "to",
          "type": "address"
        },
        {
          "indexed": false,
          "internalType": "uint256",
          "name": "value",
          "type": "uint256"
        }
      ],
      "name": "Transfer",
      "type": "event"
    },
    {
      "anonymous": false,
      "inputs": [
        {
          "indexed": false,
          "internalType": "address",
          "name": "account",
          "type": "address"
        }
      ],
      "name": "Unpaused",
      "type": "event"
    },
    {
      "inputs": [],
      "name": "DEFAULT_ADMIN_ROLE",
      "outputs": [
        {
          "internalType": "bytes32",
          "name": "",
          "type": "bytes32"
        }
      ],
      "stateMutability": "view",
      "type": "function"
    },
    {
      "inputs": [],
      "name": "MINTER_ROLE",
      "outputs": [
        {
          "internalType": "bytes32",
          "name": "",
          "type": "bytes32"
        }
      ],
      "stateMutability": "view",
      "type": "function"
    },
    {
      "inputs": [],
      "name": "OPERATOR_ROLE",
      "outputs": [
        {
          "internalType": "bytes32",
          "name": "",
          "type": "bytes32"
        }
      ],
      "stateMutability": "view",
      "type": "function"
    },
    {
      "inputs": [],
      "name": "OPERATOR_ROLE_PERIOD",
      "outputs": [
        {
          "internalType": "uint256",
          "name": "",
          "type": "uint256"
        }
      ],
      "stateMutability": "view",
      "type": "function"
    },
    {
      "inputs": [],
      "name": "PAUSER_ROLE",
      "outputs": [
        {
          "internalType": "bytes32",
          "name": "",
          "type": "bytes32"
        }
      ],
      "stateMutability": "view",
      "type": "function"
    },
    {
      "inputs": [
        {
          "internalType": "address",
          "name": "owner",
          "type": "address"
        },
        {
          "internalType": "address",
          "name": "spender",
          "type": "address"
        }
      ],
      "name": "allowance",
      "outputs": [
        {
          "internalType": "uint256",
          "name": "",
          "type": "uint256"
        }
      ],
      "stateMutability": "view",
      "type": "function"
    },
    {
      "inputs": [
        {
          "internalType": "address",
          "name": "spender",
          "type": "address"
        },
        {
          "internalType": "uint256",
          "name": "amount",
          "type": "uint256"
        }
      ],
      "name": "approve",
      "outputs": [
        {
          "internalType": "bool",
          "name": "",
          "type": "bool"
        }
      ],
      "stateMutability": "nonpayable",
      "type": "function"
    },
    {
      "inputs": [
        {
          "internalType": "address",
          "name": "account",
          "type": "address"
        }
      ],
      "name": "balanceOf",
      "outputs": [
        {
          "internalType": "uint256",
          "name": "",
          "type": "uint256"
        }
      ],
      "stateMutability": "view",
      "type": "function"
    },
    {
      "inputs": [
        {
          "internalType": "uint256",
          "name": "amount",
          "type": "uint256"
        }
      ],
      "name": "burn",
      "outputs": [],
      "stateMutability": "nonpayable",
      "type": "function"
    },
    {
      "inputs": [
        {
          "internalType": "address",
          "name": "account",
          "type": "address"
        },
        {
          "internalType": "uint256",
          "name": "amount",
          "type": "uint256"
        }
      ],
      "name": "burnFrom",
      "outputs": [],
      "stateMutability": "nonpayable",
      "type": "function"
    },
    {
      "inputs": [
        {
          "internalType": "uint256",
          "name": "shares",
          "type": "uint256"
        }
      ],
      "name": "convertToAssets",
      "outputs": [
        {
          "internalType": "uint256",
          "name": "",
          "type": "uint256"
        }
      ],
      "stateMutability": "view",
      "type": "function"
    },
    {
      "inputs": [
        {
          "internalType": "uint256",
          "name": "assets",
          "type": "uint256"
        }
      ],
      "name": "convertToShares",
      "outputs": [
        {
          "internalType": "uint256",
          "name": "",
          "type": "uint256"
        }
      ],
      "stateMutability": "view",
      "type": "function"
    },
    {
      "inputs": [],
      "name": "decimals",
      "outputs": [
        {
          "internalType": "uint8",
          "name": "",
          "type": "uint8"
        }
      ],
      "stateMutability": "view",
      "type": "function"
    },
    {
      "inputs": [
        {
          "internalType": "address",
          "name": "spender",
          "type": "address"
        },
        {
          "internalType": "uint256",
          "name": "subtractedValue",
          "type": "uint256"
        }
      ],
      "name": "decreaseAllowance",
      "outputs": [
        {
          "internalType": "bool",
          "name": "",
          "type": "bool"
        }
      ],
      "stateMutability": "nonpayable",
      "type": "function"
    },
    {
      "inputs": [
        {
          "internalType": "uint256",
          "name": "_amount",
          "type": "uint256"
        },
        {
          "internalType": "address",
          "name": "_from",
          "type": "address"
        }
      ],
      "name": "destroy",
      "outputs": [
        {
          "internalType": "uint256",
          "name": "",
          "type": "uint256"
        }
      ],
      "stateMutability": "nonpayable",
      "type": "function"
    },
    {
      "inputs": [
        {
          "internalType": "bytes32",
          "name": "role",
          "type": "bytes32"
        }
      ],
      "name": "getRoleAdmin",
      "outputs": [
        {
          "internalType": "bytes32",
          "name": "",
          "type": "bytes32"
        }
      ],
      "stateMutability": "view",
      "type": "function"
    },
    {
      "inputs": [
        {
          "internalType": "bytes32",
          "name": "role",
          "type": "bytes32"
        },
        {
          "internalType": "uint256",
          "name": "index",
          "type": "uint256"
        }
      ],
      "name": "getRoleMember",
      "outputs": [
        {
          "internalType": "address",
          "name": "",
          "type": "address"
        }
      ],
      "stateMutability": "view",
      "type": "function"
    },
    {
      "inputs": [
        {
          "internalType": "bytes32",
          "name": "role",
          "type": "bytes32"
        }
      ],
      "name": "getRoleMemberCount",
      "outputs": [
        {
          "internalType": "uint256",
          "name": "",
          "type": "uint256"
        }
      ],
      "stateMutability": "view",
      "type": "function"
    },
    {
      "inputs": [
        {
          "internalType": "bytes32",
          "name": "_role",
          "type": "bytes32"
        },
        {
          "internalType": "address",
          "name": "_to",
          "type": "address"
        }
      ],
      "name": "grantRole",
      "outputs": [],
      "stateMutability": "nonpayable",
      "type": "function"
    },
    {
      "inputs": [
        {
          "internalType": "bytes32",
          "name": "role",
          "type": "bytes32"
        },
        {
          "internalType": "address",
          "name": "account",
          "type": "address"
        }
      ],
      "name": "hasRole",
      "outputs": [
        {
          "internalType": "bool",
          "name": "",
          "type": "bool"
        }
      ],
      "stateMutability": "view",
      "type": "function"
    },
    {
      "inputs": [
        {
          "internalType": "address",
          "name": "spender",
          "type": "address"
        },
        {
          "internalType": "uint256",
          "name": "addedValue",
          "type": "uint256"
        }
      ],
      "name": "increaseAllowance",
      "outputs": [
        {
          "internalType": "bool",
          "name": "",
          "type": "bool"
        }
      ],
      "stateMutability": "nonpayable",
      "type": "function"
    },
    {
      "inputs": [
        {
          "internalType": "uint256",
          "name": "_amount",
          "type": "uint256"
        },
        {
          "internalType": "address",
          "name": "_to",
          "type": "address"
        }
      ],
      "name": "issue",
      "outputs": [
        {
          "internalType": "uint256",
          "name": "",
          "type": "uint256"
        }
      ],
      "stateMutability": "nonpayable",
      "type": "function"
    },
    {
      "inputs": [],
      "name": "kresko",
      "outputs": [
        {
          "internalType": "address",
          "name": "",
          "type": "address"
        }
      ],
      "stateMutability": "view",
      "type": "function"
    },
    {
      "inputs": [
        {
          "internalType": "address",
          "name": "to",
          "type": "address"
        },
        {
          "internalType": "uint256",
          "name": "amount",
          "type": "uint256"
        }
      ],
      "name": "mint",
      "outputs": [],
      "stateMutability": "nonpayable",
      "type": "function"
    },
    {
      "inputs": [],
      "name": "name",
      "outputs": [
        {
          "internalType": "string",
          "name": "",
          "type": "string"
        }
      ],
      "stateMutability": "view",
      "type": "function"
    },
    {
      "inputs": [],
      "name": "operatorRoleTimestamp",
      "outputs": [
        {
          "internalType": "uint256",
          "name": "",
          "type": "uint256"
        }
      ],
      "stateMutability": "view",
      "type": "function"
    },
    {
      "inputs": [],
      "name": "pause",
      "outputs": [],
      "stateMutability": "nonpayable",
      "type": "function"
    },
    {
      "inputs": [],
      "name": "paused",
      "outputs": [
        {
          "internalType": "bool",
          "name": "",
          "type": "bool"
        }
      ],
      "stateMutability": "view",
      "type": "function"
    },
    {
      "inputs": [],
      "name": "pendingOperator",
      "outputs": [
        {
          "internalType": "address",
          "name": "",
          "type": "address"
        }
      ],
      "stateMutability": "view",
      "type": "function"
    },
    {
      "inputs": [
        {
          "internalType": "bytes32",
          "name": "role",
          "type": "bytes32"
        },
        {
          "internalType": "address",
          "name": "account",
          "type": "address"
        }
      ],
      "name": "renounceRole",
      "outputs": [],
      "stateMutability": "nonpayable",
      "type": "function"
    },
    {
      "inputs": [
        {
          "internalType": "bytes32",
          "name": "role",
          "type": "bytes32"
        },
        {
          "internalType": "address",
          "name": "account",
          "type": "address"
        }
      ],
      "name": "revokeRole",
      "outputs": [],
      "stateMutability": "nonpayable",
      "type": "function"
    },
    {
      "inputs": [
        {
          "internalType": "string",
          "name": "_newName",
          "type": "string"
        },
        {
          "internalType": "string",
          "name": "_newSymbol",
          "type": "string"
        }
      ],
      "name": "setMetadata",
      "outputs": [],
      "stateMutability": "nonpayable",
      "type": "function"
    },
    {
      "inputs": [
        {
          "internalType": "bytes4",
          "name": "interfaceId",
          "type": "bytes4"
        }
      ],
      "name": "supportsInterface",
      "outputs": [
        {
          "internalType": "bool",
          "name": "",
          "type": "bool"
        }
      ],
      "stateMutability": "pure",
      "type": "function"
    },
    {
      "inputs": [],
      "name": "symbol",
      "outputs": [
        {
          "internalType": "string",
          "name": "",
          "type": "string"
        }
      ],
      "stateMutability": "view",
      "type": "function"
    },
    {
      "inputs": [],
      "name": "totalSupply",
      "outputs": [
        {
          "internalType": "uint256",
          "name": "",
          "type": "uint256"
        }
      ],
      "stateMutability": "view",
      "type": "function"
    },
    {
      "inputs": [
        {
          "internalType": "address",
          "name": "to",
          "type": "address"
        },
        {
          "internalType": "uint256",
          "name": "amount",
          "type": "uint256"
        }
      ],
      "name": "transfer",
      "outputs": [
        {
          "internalType": "bool",
          "name": "",
          "type": "bool"
        }
      ],
      "stateMutability": "nonpayable",
      "type": "function"
    },
    {
      "inputs": [
        {
          "internalType": "address",
          "name": "from",
          "type": "address"
        },
        {
          "internalType": "address",
          "name": "to",
          "type": "address"
        },
        {
          "internalType": "uint256",
          "name": "amount",
          "type": "uint256"
        }
      ],
      "name": "transferFrom",
      "outputs": [
        {
          "internalType": "bool",
          "name": "",
          "type": "bool"
        }
      ],
      "stateMutability": "nonpayable",
      "type": "function"
    },
    {
      "inputs": [],
      "name": "unpause",
      "outputs": [],
      "stateMutability": "nonpayable",
      "type": "function"
    }
  ],
  "transactionHash": "0x51263e9b2a30be85001e293469881f0b233ec5892365f7f532dbb565239fc698",
  "args": [
    "KISS",
    "KISS",
    18,
    "0x0c2A7e87dF383460e28C64cB85e96773011E53AF"
  ],
  "numDeployments": 3,
  "solcInputHash": "7eabd0f9a002234cf400e60eb676d7b2",
  "bytecode": "0x60806040523480156200001157600080fd5b50604051620048da380380620048da833981810160405281019062000037919062000a80565b8383818181600590805190602001906200005392919062000790565b5080600690805190602001906200006c92919062000790565b5050506000600760006101000a81548160ff021916908315150217905550620000ae6000801b620000a26200026460201b60201c565b6200026c60201b60201c565b620000ef7f9f2df0fed2c77648de5860a4cc508cd0818c85b8b8a1ab4ceeef8d981c8956a6620000e36200026460201b60201c565b6200026c60201b60201c565b620001307f65d7a28e3265b37a6474929f336521b332c1681b933f6cb9f3376673440d862a620001246200026460201b60201c565b6200026c60201b60201c565b505083600b90805190602001906200014a92919062000790565b5082600c90805190602001906200016392919062000790565b5081600d60006101000a81548160ff021916908360ff16021790555080600a60006101000a81548173ffffffffffffffffffffffffffffffffffffffff021916908373ffffffffffffffffffffffffffffffffffffffff160217905550620001e46000801b620001d86200026460201b60201c565b6200026c60201b60201c565b620002197f112e48a576fb3a75acc75d9fcf6e0bc670b27b1dbcd2463502e10e68cf57d6fd60001b826200026c60201b60201c565b6200025a7f9f2df0fed2c77648de5860a4cc508cd0818c85b8b8a1ab4ceeef8d981c8956a66200024e6200026460201b60201c565b6200028260201b60201c565b5050505062000c66565b600033905090565b6200027e8282620002ca60201b60201c565b5050565b6200029982826200031260201b620015561760201c565b620002c581600160008581526020019081526020016000206200040460201b620016371790919060201c565b505050565b620002e182826200043c60201b620016671760201c565b6200030d81600160008581526020019081526020016000206200052d60201b620017471790919060201c565b505050565b6200032482826200056560201b60201c565b156200040057600080600084815260200190815260200160002060000160008373ffffffffffffffffffffffffffffffffffffffff1673ffffffffffffffffffffffffffffffffffffffff16815260200190815260200160002060006101000a81548160ff021916908315150217905550620003a56200026460201b60201c565b73ffffffffffffffffffffffffffffffffffffffff168173ffffffffffffffffffffffffffffffffffffffff16837ff6391f5c32d9c69d2a47ea670b442974b53935d1edc7fd64eb21e047a839171b60405160405180910390a45b5050565b600062000434836000018373ffffffffffffffffffffffffffffffffffffffff1660001b620005cf60201b60201c565b905092915050565b6200044e82826200056560201b60201c565b6200052957600160008084815260200190815260200160002060000160008373ffffffffffffffffffffffffffffffffffffffff1673ffffffffffffffffffffffffffffffffffffffff16815260200190815260200160002060006101000a81548160ff021916908315150217905550620004ce6200026460201b60201c565b73ffffffffffffffffffffffffffffffffffffffff168173ffffffffffffffffffffffffffffffffffffffff16837f2f8788117e7eff1d82e926ec794901d17c78024a50270940304540a733656f0d60405160405180910390a45b5050565b60006200055d836000018373ffffffffffffffffffffffffffffffffffffffff1660001b620006f360201b60201c565b905092915050565b600080600084815260200190815260200160002060000160008373ffffffffffffffffffffffffffffffffffffffff1673ffffffffffffffffffffffffffffffffffffffff16815260200190815260200160002060009054906101000a900460ff16905092915050565b60008083600101600084815260200190815260200160002054905060008114620006e757600060018262000604919062000b69565b90506000600186600001805490506200061e919062000b69565b90508181146200069457600086600001828154811062000643576200064262000ba4565b5b90600052602060002001549050808760000184815481106200066a576200066962000ba4565b5b90600052602060002001819055508387600101600083815260200190815260200160002081905550505b85600001805480620006ab57620006aa62000bd3565b5b600190038181906000526020600020016000905590558560010160008681526020019081526020016000206000905560019350505050620006ed565b60009150505b92915050565b60006200070783836200076d60201b60201c565b6200076257826000018290806001815401808255809150506001900390600052602060002001600090919091909150558260000180549050836001016000848152602001908152602001600020819055506001905062000767565b600090505b92915050565b600080836001016000848152602001908152602001600020541415905092915050565b8280546200079e9062000c31565b90600052602060002090601f016020900481019282620007c257600085556200080e565b82601f10620007dd57805160ff19168380011785556200080e565b828001600101855582156200080e579182015b828111156200080d578251825591602001919060010190620007f0565b5b5090506200081d919062000821565b5090565b5b808211156200083c57600081600090555060010162000822565b5090565b6000604051905090565b600080fd5b600080fd5b600080fd5b600080fd5b6000601f19601f8301169050919050565b7f4e487b7100000000000000000000000000000000000000000000000000000000600052604160045260246000fd5b620008a9826200085e565b810181811067ffffffffffffffff82111715620008cb57620008ca6200086f565b5b80604052505050565b6000620008e062000840565b9050620008ee82826200089e565b919050565b600067ffffffffffffffff8211156200091157620009106200086f565b5b6200091c826200085e565b9050602081019050919050565b60005b83811015620009495780820151818401526020810190506200092c565b8381111562000959576000848401525b50505050565b6000620009766200097084620008f3565b620008d4565b90508281526020810184848401111562000995576200099462000859565b5b620009a284828562000929565b509392505050565b600082601f830112620009c257620009c162000854565b5b8151620009d48482602086016200095f565b91505092915050565b600060ff82169050919050565b620009f581620009dd565b811462000a0157600080fd5b50565b60008151905062000a1581620009ea565b92915050565b600073ffffffffffffffffffffffffffffffffffffffff82169050919050565b600062000a488262000a1b565b9050919050565b62000a5a8162000a3b565b811462000a6657600080fd5b50565b60008151905062000a7a8162000a4f565b92915050565b6000806000806080858703121562000a9d5762000a9c6200084a565b5b600085015167ffffffffffffffff81111562000abe5762000abd6200084f565b5b62000acc87828801620009aa565b945050602085015167ffffffffffffffff81111562000af05762000aef6200084f565b5b62000afe87828801620009aa565b935050604062000b118782880162000a04565b925050606062000b248782880162000a69565b91505092959194509250565b6000819050919050565b7f4e487b7100000000000000000000000000000000000000000000000000000000600052601160045260246000fd5b600062000b768262000b30565b915062000b838362000b30565b92508282101562000b995762000b9862000b3a565b5b828203905092915050565b7f4e487b7100000000000000000000000000000000000000000000000000000000600052603260045260246000fd5b7f4e487b7100000000000000000000000000000000000000000000000000000000600052603160045260246000fd5b7f4e487b7100000000000000000000000000000000000000000000000000000000600052602260045260246000fd5b6000600282049050600182168062000c4a57607f821691505b60208210810362000c605762000c5f62000c02565b5b50919050565b613c648062000c766000396000f3fe608060405234801561001057600080fd5b50600436106102325760003560e01c80638456cb5911610130578063ac7e534e116100b8578063d547741f1161007c578063d547741f146106ef578063d77e128c1461070b578063dd62ed3e14610729578063e63ab1e914610759578063f5b541a61461077757610232565b8063ac7e534e14610623578063b696a6ad14610641578063c6e6f59214610671578063ca15c873146106a1578063d5391393146106d157610232565b806395af0e2b116100ff57806395af0e2b1461056957806395d89b4114610587578063a217fddf146105a5578063a457c2d7146105c3578063a9059cbb146105f357610232565b80638456cb59146104cf5780638dec3daa146104d95780639010d07c1461050957806391d148541461053957610232565b8063313ce567116101be57806342966c681161018257806342966c681461042d57806351335b50146104495780635c975abb1461046557806370a082311461048357806379cc6790146104b357610232565b8063313ce5671461039d57806336568abe146103bb57806339509351146103d75780633f4ba83a1461040757806340c10f191461041157610232565b806318160ddd1161020557806318160ddd146102e557806323b872dd14610303578063248a9ca314610333578063272b0c3f146103635780632f2ff15d1461038157610232565b806301ffc9a71461023757806306fdde031461026757806307a2d13a14610285578063095ea7b3146102b5575b600080fd5b610251600480360381019061024c91906127cf565b610795565b60405161025e9190612817565b60405180910390f35b61026f6108f9565b60405161027c91906128cb565b60405180910390f35b61029f600480360381019061029a9190612923565b61098b565b6040516102ac919061295f565b60405180910390f35b6102cf60048036038101906102ca91906129d8565b610995565b6040516102dc9190612817565b60405180910390f35b6102ed6109b8565b6040516102fa919061295f565b60405180910390f35b61031d60048036038101906103189190612a18565b6109c2565b60405161032a9190612817565b60405180910390f35b61034d60048036038101906103489190612aa1565b6109f1565b60405161035a9190612add565b60405180910390f35b61036b610a10565b604051610378919061295f565b60405180910390f35b61039b60048036038101906103969190612af8565b610a16565b005b6103a5610da3565b6040516103b29190612b54565b60405180910390f35b6103d560048036038101906103d09190612af8565b610dba565b005b6103f160048036038101906103ec91906129d8565b610e3d565b6040516103fe9190612817565b60405180910390f35b61040f610e74565b005b61042b600480360381019061042691906129d8565b610eee565b005b61044760048036038101906104429190612923565b610f6c565b005b610463600480360381019061045e9190612ca4565b610f80565b005b61046d610fc0565b60405161047a9190612817565b60405180910390f35b61049d60048036038101906104989190612d1c565b610fd7565b6040516104aa919061295f565b60405180910390f35b6104cd60048036038101906104c891906129d8565b611020565b005b6104d7611040565b005b6104f360048036038101906104ee9190612d49565b6110ba565b604051610500919061295f565b60405180910390f35b610523600480360381019061051e9190612d89565b611157565b6040516105309190612dd8565b60405180910390f35b610553600480360381019061054e9190612af8565b611186565b6040516105609190612817565b60405180910390f35b6105716111f0565b60405161057e919061295f565b60405180910390f35b61058f6111f5565b60405161059c91906128cb565b60405180910390f35b6105ad611287565b6040516105ba9190612add565b60405180910390f35b6105dd60048036038101906105d891906129d8565b61128e565b6040516105ea9190612817565b60405180910390f35b61060d600480360381019061060891906129d8565b611305565b60405161061a9190612817565b60405180910390f35b61062b611328565b6040516106389190612dd8565b60405180910390f35b61065b60048036038101906106569190612d49565b61134e565b604051610668919061295f565b60405180910390f35b61068b60048036038101906106869190612923565b6113eb565b604051610698919061295f565b60405180910390f35b6106bb60048036038101906106b69190612aa1565b6113f5565b6040516106c8919061295f565b60405180910390f35b6106d9611419565b6040516106e69190612add565b60405180910390f35b61070960048036038101906107049190612af8565b61143d565b005b61071361145e565b6040516107209190612dd8565b60405180910390f35b610743600480360381019061073e9190612df3565b611484565b604051610750919061295f565b60405180910390f35b61076161150b565b60405161076e9190612add565b60405180910390f35b61077f61152f565b60405161078c9190612add565b60405180910390f35b600063ffffffff60e01b827bffffffffffffffffffffffffffffffffffffffffffffffffffffffff1916141580156108f257507f5c2b4dfd000000000000000000000000000000000000000000000000000000007bffffffffffffffffffffffffffffffffffffffffffffffffffffffff1916827bffffffffffffffffffffffffffffffffffffffffffffffffffffffff1916148061089157507ffa3ebfaf000000000000000000000000000000000000000000000000000000007bffffffffffffffffffffffffffffffffffffffffffffffffffffffff1916827bffffffffffffffffffffffffffffffffffffffffffffffffffffffff1916145b806108c157506301ffc9a760e01b827bffffffffffffffffffffffffffffffffffffffffffffffffffffffff1916145b806108f157506336372b0760e01b827bffffffffffffffffffffffffffffffffffffffffffffffffffffffff1916145b5b9050919050565b6060600b805461090890612e62565b80601f016020809104026020016040519081016040528092919081815260200182805461093490612e62565b80156109815780601f1061095657610100808354040283529160200191610981565b820191906000526020600020905b81548152906001019060200180831161096457829003601f168201915b5050505050905090565b6000819050919050565b6000806109a0611777565b90506109ad81858561177f565b600191505092915050565b6000600454905090565b6000806109cd611777565b90506109da858285611948565b6109e58585856119d4565b60019150509392505050565b6000806000838152602001908152602001600020600101549050919050565b60085481565b6000801b610a2381611c56565b7f112e48a576fb3a75acc75d9fcf6e0bc670b27b1dbcd2463502e10e68cf57d6fd60001b8303610d935760008273ffffffffffffffffffffffffffffffffffffffff163b11610aa7576040517f08c379a0000000000000000000000000000000000000000000000000000000008152600401610a9e90612edf565b60405180910390fd5b600073ffffffffffffffffffffffffffffffffffffffff16600960009054906101000a900473ffffffffffffffffffffffffffffffffffffffff1673ffffffffffffffffffffffffffffffffffffffff1614610c15574260085410610b41576040517f08c379a0000000000000000000000000000000000000000000000000000000008152600401610b3890612f4b565b60405180910390fd5b610b907f112e48a576fb3a75acc75d9fcf6e0bc670b27b1dbcd2463502e10e68cf57d6fd60001b600960009054906101000a900473ffffffffffffffffffffffffffffffffffffffff16611c6a565b7f6adffd5c93085d835dac6f3b40adf7c242ca4b3284048d20c3d8a501748dc973610bb9611777565b604051610bc69190612dd8565b60405180910390a16000600960006101000a81548173ffffffffffffffffffffffffffffffffffffffff021916908373ffffffffffffffffffffffffffffffffffffffff160217905550610d8e565b600060085414610d21576001610c4d7f112e48a576fb3a75acc75d9fcf6e0bc670b27b1dbcd2463502e10e68cf57d6fd60001b6113f5565b1115610c8e576040517f08c379a0000000000000000000000000000000000000000000000000000000008152600401610c8590612fb7565b60405180910390fd5b603c42610c9b9190613006565b60088190555081600960006101000a81548173ffffffffffffffffffffffffffffffffffffffff021916908373ffffffffffffffffffffffffffffffffffffffff1602179055507e796b9188078b706afc21dc367f7acab967fb9f87b74734e94fa1833cb2250a82600854604051610d1492919061305c565b60405180910390a1610d8d565b610d4e7f112e48a576fb3a75acc75d9fcf6e0bc670b27b1dbcd2463502e10e68cf57d6fd60001b83611c6a565b7f6adffd5c93085d835dac6f3b40adf7c242ca4b3284048d20c3d8a501748dc97382604051610d7d9190612dd8565b60405180910390a1426008819055505b5b610d9e565b610d9d8383611c6a565b5b505050565b6000600d60009054906101000a900460ff16905090565b610dc2611777565b73ffffffffffffffffffffffffffffffffffffffff168173ffffffffffffffffffffffffffffffffffffffff1614610e2f576040517f08c379a0000000000000000000000000000000000000000000000000000000008152600401610e26906130f7565b60405180910390fd5b610e398282611c9e565b5050565b600080610e48611777565b9050610e69818585610e5a8589611484565b610e649190613006565b61177f565b600191505092915050565b610ea57f65d7a28e3265b37a6474929f336521b332c1681b933f6cb9f3376673440d862a610ea0611777565b611186565b610ee4576040517f08c379a0000000000000000000000000000000000000000000000000000000008152600401610edb90613189565b60405180910390fd5b610eec611cd2565b565b610f1f7f9f2df0fed2c77648de5860a4cc508cd0818c85b8b8a1ab4ceeef8d981c8956a6610f1a611777565b611186565b610f5e576040517f08c379a0000000000000000000000000000000000000000000000000000000008152600401610f559061321b565b60405180910390fd5b610f688282611d35565b5050565b610f7d610f77611777565b82611e95565b50565b6000801b610f8d81611c56565b81600b9080519060200190610fa39291906126c0565b5082600c9080519060200190610fba9291906126c0565b50505050565b6000600760009054906101000a900460ff16905090565b6000600260008373ffffffffffffffffffffffffffffffffffffffff1673ffffffffffffffffffffffffffffffffffffffff168152602001908152602001600020549050919050565b6110328261102c611777565b83611948565b61103c8282611e95565b5050565b6110717f65d7a28e3265b37a6474929f336521b332c1681b933f6cb9f3376673440d862a61106c611777565b611186565b6110b0576040517f08c379a00000000000000000000000000000000000000000000000000000000081526004016110a7906132ad565b60405180910390fd5b6110b861206d565b565b60007f112e48a576fb3a75acc75d9fcf6e0bc670b27b1dbcd2463502e10e68cf57d6fd60001b6110e981611c56565b60003373ffffffffffffffffffffffffffffffffffffffff163b11611143576040517f08c379a000000000000000000000000000000000000000000000000000000000815260040161113a90612edf565b60405180910390fd5b61114d8385611e95565b8391505092915050565b600061117e82600160008681526020019081526020016000206120d090919063ffffffff16565b905092915050565b600080600084815260200190815260200160002060000160008373ffffffffffffffffffffffffffffffffffffffff1673ffffffffffffffffffffffffffffffffffffffff16815260200190815260200160002060009054906101000a900460ff16905092915050565b603c81565b6060600c805461120490612e62565b80601f016020809104026020016040519081016040528092919081815260200182805461123090612e62565b801561127d5780601f106112525761010080835404028352916020019161127d565b820191906000526020600020905b81548152906001019060200180831161126057829003601f168201915b5050505050905090565b6000801b81565b600080611299611777565b905060006112a78286611484565b9050838110156112ec576040517f08c379a00000000000000000000000000000000000000000000000000000000081526004016112e39061333f565b60405180910390fd5b6112f9828686840361177f565b60019250505092915050565b600080611310611777565b905061131d8185856119d4565b600191505092915050565b600960009054906101000a900473ffffffffffffffffffffffffffffffffffffffff1681565b60007f112e48a576fb3a75acc75d9fcf6e0bc670b27b1dbcd2463502e10e68cf57d6fd60001b61137d81611c56565b60003373ffffffffffffffffffffffffffffffffffffffff163b116113d7576040517f08c379a00000000000000000000000000000000000000000000000000000000081526004016113ce90612edf565b60405180910390fd5b6113e18385611d35565b8391505092915050565b6000819050919050565b6000611412600160008481526020019081526020016000206120ea565b9050919050565b7f9f2df0fed2c77648de5860a4cc508cd0818c85b8b8a1ab4ceeef8d981c8956a681565b611446826109f1565b61144f81611c56565b6114598383611c9e565b505050565b600a60009054906101000a900473ffffffffffffffffffffffffffffffffffffffff1681565b6000600360008473ffffffffffffffffffffffffffffffffffffffff1673ffffffffffffffffffffffffffffffffffffffff16815260200190815260200160002060008373ffffffffffffffffffffffffffffffffffffffff1673ffffffffffffffffffffffffffffffffffffffff16815260200190815260200160002054905092915050565b7f65d7a28e3265b37a6474929f336521b332c1681b933f6cb9f3376673440d862a81565b7f112e48a576fb3a75acc75d9fcf6e0bc670b27b1dbcd2463502e10e68cf57d6fd60001b81565b6115608282611186565b1561163357600080600084815260200190815260200160002060000160008373ffffffffffffffffffffffffffffffffffffffff1673ffffffffffffffffffffffffffffffffffffffff16815260200190815260200160002060006101000a81548160ff0219169083151502179055506115d8611777565b73ffffffffffffffffffffffffffffffffffffffff168173ffffffffffffffffffffffffffffffffffffffff16837ff6391f5c32d9c69d2a47ea670b442974b53935d1edc7fd64eb21e047a839171b60405160405180910390a45b5050565b600061165f836000018373ffffffffffffffffffffffffffffffffffffffff1660001b6120ff565b905092915050565b6116718282611186565b61174357600160008084815260200190815260200160002060000160008373ffffffffffffffffffffffffffffffffffffffff1673ffffffffffffffffffffffffffffffffffffffff16815260200190815260200160002060006101000a81548160ff0219169083151502179055506116e8611777565b73ffffffffffffffffffffffffffffffffffffffff168173ffffffffffffffffffffffffffffffffffffffff16837f2f8788117e7eff1d82e926ec794901d17c78024a50270940304540a733656f0d60405160405180910390a45b5050565b600061176f836000018373ffffffffffffffffffffffffffffffffffffffff1660001b612213565b905092915050565b600033905090565b600073ffffffffffffffffffffffffffffffffffffffff168373ffffffffffffffffffffffffffffffffffffffff16036117ee576040517f08c379a00000000000000000000000000000000000000000000000000000000081526004016117e5906133d1565b60405180910390fd5b600073ffffffffffffffffffffffffffffffffffffffff168273ffffffffffffffffffffffffffffffffffffffff160361185d576040517f08c379a000000000000000000000000000000000000000000000000000000000815260040161185490613463565b60405180910390fd5b80600360008573ffffffffffffffffffffffffffffffffffffffff1673ffffffffffffffffffffffffffffffffffffffff16815260200190815260200160002060008473ffffffffffffffffffffffffffffffffffffffff1673ffffffffffffffffffffffffffffffffffffffff168152602001908152602001600020819055508173ffffffffffffffffffffffffffffffffffffffff168373ffffffffffffffffffffffffffffffffffffffff167f8c5be1e5ebec7d5bd14f71427d1e84f3dd0314c0f7b2291e5b200ac8c7c3b9258360405161193b919061295f565b60405180910390a3505050565b60006119548484611484565b90507fffffffffffffffffffffffffffffffffffffffffffffffffffffffffffffffff81146119ce57818110156119c0576040517f08c379a00000000000000000000000000000000000000000000000000000000081526004016119b7906134cf565b60405180910390fd5b6119cd848484840361177f565b5b50505050565b600073ffffffffffffffffffffffffffffffffffffffff168373ffffffffffffffffffffffffffffffffffffffff1603611a43576040517f08c379a0000000000000000000000000000000000000000000000000000000008152600401611a3a90613561565b60405180910390fd5b600073ffffffffffffffffffffffffffffffffffffffff168273ffffffffffffffffffffffffffffffffffffffff1603611ab2576040517f08c379a0000000000000000000000000000000000000000000000000000000008152600401611aa9906135f3565b60405180910390fd5b611abd838383612283565b6000600260008573ffffffffffffffffffffffffffffffffffffffff1673ffffffffffffffffffffffffffffffffffffffff16815260200190815260200160002054905081811015611b44576040517f08c379a0000000000000000000000000000000000000000000000000000000008152600401611b3b90613685565b60405180910390fd5b818103600260008673ffffffffffffffffffffffffffffffffffffffff1673ffffffffffffffffffffffffffffffffffffffff1681526020019081526020016000208190555081600260008573ffffffffffffffffffffffffffffffffffffffff1673ffffffffffffffffffffffffffffffffffffffff1681526020019081526020016000206000828254611bd99190613006565b925050819055508273ffffffffffffffffffffffffffffffffffffffff168473ffffffffffffffffffffffffffffffffffffffff167fddf252ad1be2c89b69c2b068fc378daa952ba7f163c4a11628f55a4df523b3ef84604051611c3d919061295f565b60405180910390a3611c50848484612293565b50505050565b611c6781611c62611777565b612298565b50565b611c748282611667565b611c99816001600085815260200190815260200160002061174790919063ffffffff16565b505050565b611ca88282611556565b611ccd816001600085815260200190815260200160002061163790919063ffffffff16565b505050565b611cda612335565b6000600760006101000a81548160ff0219169083151502179055507f5db9ee0a495bf2e6ff9c91a7834c1ba4fdd244a5e8aa4e537bd38aeae4b073aa611d1e611777565b604051611d2b9190612dd8565b60405180910390a1565b600073ffffffffffffffffffffffffffffffffffffffff168273ffffffffffffffffffffffffffffffffffffffff1603611da4576040517f08c379a0000000000000000000000000000000000000000000000000000000008152600401611d9b906136f1565b60405180910390fd5b611db060008383612283565b8060046000828254611dc29190613006565b9250508190555080600260008473ffffffffffffffffffffffffffffffffffffffff1673ffffffffffffffffffffffffffffffffffffffff1681526020019081526020016000206000828254611e189190613006565b925050819055508173ffffffffffffffffffffffffffffffffffffffff16600073ffffffffffffffffffffffffffffffffffffffff167fddf252ad1be2c89b69c2b068fc378daa952ba7f163c4a11628f55a4df523b3ef83604051611e7d919061295f565b60405180910390a3611e9160008383612293565b5050565b600073ffffffffffffffffffffffffffffffffffffffff168273ffffffffffffffffffffffffffffffffffffffff1603611f04576040517f08c379a0000000000000000000000000000000000000000000000000000000008152600401611efb90613783565b60405180910390fd5b611f1082600083612283565b6000600260008473ffffffffffffffffffffffffffffffffffffffff1673ffffffffffffffffffffffffffffffffffffffff16815260200190815260200160002054905081811015611f97576040517f08c379a0000000000000000000000000000000000000000000000000000000008152600401611f8e90613815565b60405180910390fd5b818103600260008573ffffffffffffffffffffffffffffffffffffffff1673ffffffffffffffffffffffffffffffffffffffff168152602001908152602001600020819055508160046000828254611fef9190613835565b92505081905550600073ffffffffffffffffffffffffffffffffffffffff168373ffffffffffffffffffffffffffffffffffffffff167fddf252ad1be2c89b69c2b068fc378daa952ba7f163c4a11628f55a4df523b3ef84604051612054919061295f565b60405180910390a361206883600084612293565b505050565b61207561237e565b6001600760006101000a81548160ff0219169083151502179055507f62e78cea01bee320cd4e420270b5ea74000d11b0c9f74754ebdbfc544b05a2586120b9611777565b6040516120c69190612dd8565b60405180910390a1565b60006120df83600001836123c8565b60001c905092915050565b60006120f8826000016123f3565b9050919050565b600080836001016000848152602001908152602001600020549050600081146122075760006001826121319190613835565b90506000600186600001805490506121499190613835565b90508181146121b857600086600001828154811061216a57612169613869565b5b906000526020600020015490508087600001848154811061218e5761218d613869565b5b90600052602060002001819055508387600101600083815260200190815260200160002081905550505b856000018054806121cc576121cb613898565b5b60019003818190600052602060002001600090559055856001016000868152602001908152602001600020600090556001935050505061220d565b60009150505b92915050565b600061221f8383612404565b61227857826000018290806001815401808255809150506001900390600052602060002001600090919091909150558260000180549050836001016000848152602001908152602001600020819055506001905061227d565b600090505b92915050565b61228e838383612427565b505050565b505050565b6122a28282611186565b612331576122c78173ffffffffffffffffffffffffffffffffffffffff16601461247f565b6122d58360001c602061247f565b6040516020016122e692919061399b565b6040516020818303038152906040526040517f08c379a000000000000000000000000000000000000000000000000000000000815260040161232891906128cb565b60405180910390fd5b5050565b61233d610fc0565b61237c576040517f08c379a000000000000000000000000000000000000000000000000000000000815260040161237390613a21565b60405180910390fd5b565b612386610fc0565b156123c6576040517f08c379a00000000000000000000000000000000000000000000000000000000081526004016123bd90613a8d565b60405180910390fd5b565b60008260000182815481106123e0576123df613869565b5b9060005260206000200154905092915050565b600081600001805490509050919050565b600080836001016000848152602001908152602001600020541415905092915050565b6124328383836126bb565b61243a610fc0565b1561247a576040517f08c379a000000000000000000000000000000000000000000000000000000000815260040161247190613b1f565b60405180910390fd5b505050565b6060600060028360026124929190613b3f565b61249c9190613006565b67ffffffffffffffff8111156124b5576124b4612b79565b5b6040519080825280601f01601f1916602001820160405280156124e75781602001600182028036833780820191505090505b5090507f30000000000000000000000000000000000000000000000000000000000000008160008151811061251f5761251e613869565b5b60200101907effffffffffffffffffffffffffffffffffffffffffffffffffffffffffffff1916908160001a9053507f78000000000000000000000000000000000000000000000000000000000000008160018151811061258357612582613869565b5b60200101907effffffffffffffffffffffffffffffffffffffffffffffffffffffffffffff1916908160001a905350600060018460026125c39190613b3f565b6125cd9190613006565b90505b600181111561266d577f3031323334353637383961626364656600000000000000000000000000000000600f86166010811061260f5761260e613869565b5b1a60f81b82828151811061262657612625613869565b5b60200101907effffffffffffffffffffffffffffffffffffffffffffffffffffffffffffff1916908160001a905350600485901c94508061266690613b99565b90506125d0565b50600084146126b1576040517f08c379a00000000000000000000000000000000000000000000000000000000081526004016126a890613c0e565b60405180910390fd5b8091505092915050565b505050565b8280546126cc90612e62565b90600052602060002090601f0160209004810192826126ee5760008555612735565b82601f1061270757805160ff1916838001178555612735565b82800160010185558215612735579182015b82811115612734578251825591602001919060010190612719565b5b5090506127429190612746565b5090565b5b8082111561275f576000816000905550600101612747565b5090565b6000604051905090565b600080fd5b600080fd5b60007fffffffff0000000000000000000000000000000000000000000000000000000082169050919050565b6127ac81612777565b81146127b757600080fd5b50565b6000813590506127c9816127a3565b92915050565b6000602082840312156127e5576127e461276d565b5b60006127f3848285016127ba565b91505092915050565b60008115159050919050565b612811816127fc565b82525050565b600060208201905061282c6000830184612808565b92915050565b600081519050919050565b600082825260208201905092915050565b60005b8381101561286c578082015181840152602081019050612851565b8381111561287b576000848401525b50505050565b6000601f19601f8301169050919050565b600061289d82612832565b6128a7818561283d565b93506128b781856020860161284e565b6128c081612881565b840191505092915050565b600060208201905081810360008301526128e58184612892565b905092915050565b6000819050919050565b612900816128ed565b811461290b57600080fd5b50565b60008135905061291d816128f7565b92915050565b6000602082840312156129395761293861276d565b5b60006129478482850161290e565b91505092915050565b612959816128ed565b82525050565b60006020820190506129746000830184612950565b92915050565b600073ffffffffffffffffffffffffffffffffffffffff82169050919050565b60006129a58261297a565b9050919050565b6129b58161299a565b81146129c057600080fd5b50565b6000813590506129d2816129ac565b92915050565b600080604083850312156129ef576129ee61276d565b5b60006129fd858286016129c3565b9250506020612a0e8582860161290e565b9150509250929050565b600080600060608486031215612a3157612a3061276d565b5b6000612a3f868287016129c3565b9350506020612a50868287016129c3565b9250506040612a618682870161290e565b9150509250925092565b6000819050919050565b612a7e81612a6b565b8114612a8957600080fd5b50565b600081359050612a9b81612a75565b92915050565b600060208284031215612ab757612ab661276d565b5b6000612ac584828501612a8c565b91505092915050565b612ad781612a6b565b82525050565b6000602082019050612af26000830184612ace565b92915050565b60008060408385031215612b0f57612b0e61276d565b5b6000612b1d85828601612a8c565b9250506020612b2e858286016129c3565b9150509250929050565b600060ff82169050919050565b612b4e81612b38565b82525050565b6000602082019050612b696000830184612b45565b92915050565b600080fd5b600080fd5b7f4e487b7100000000000000000000000000000000000000000000000000000000600052604160045260246000fd5b612bb182612881565b810181811067ffffffffffffffff82111715612bd057612bcf612b79565b5b80604052505050565b6000612be3612763565b9050612bef8282612ba8565b919050565b600067ffffffffffffffff821115612c0f57612c0e612b79565b5b612c1882612881565b9050602081019050919050565b82818337600083830152505050565b6000612c47612c4284612bf4565b612bd9565b905082815260208101848484011115612c6357612c62612b74565b5b612c6e848285612c25565b509392505050565b600082601f830112612c8b57612c8a612b6f565b5b8135612c9b848260208601612c34565b91505092915050565b60008060408385031215612cbb57612cba61276d565b5b600083013567ffffffffffffffff811115612cd957612cd8612772565b5b612ce585828601612c76565b925050602083013567ffffffffffffffff811115612d0657612d05612772565b5b612d1285828601612c76565b9150509250929050565b600060208284031215612d3257612d3161276d565b5b6000612d40848285016129c3565b91505092915050565b60008060408385031215612d6057612d5f61276d565b5b6000612d6e8582860161290e565b9250506020612d7f858286016129c3565b9150509250929050565b60008060408385031215612da057612d9f61276d565b5b6000612dae85828601612a8c565b9250506020612dbf8582860161290e565b9150509250929050565b612dd28161299a565b82525050565b6000602082019050612ded6000830184612dc9565b92915050565b60008060408385031215612e0a57612e0961276d565b5b6000612e18858286016129c3565b9250506020612e29858286016129c3565b9150509250929050565b7f4e487b7100000000000000000000000000000000000000000000000000000000600052602260045260246000fd5b60006002820490506001821680612e7a57607f821691505b602082108103612e8d57612e8c612e33565b5b50919050565b7f4b4953533a20454f410000000000000000000000000000000000000000000000600082015250565b6000612ec960098361283d565b9150612ed482612e93565b602082019050919050565b60006020820190508181036000830152612ef881612ebc565b9050919050565b7f4b4953533a20214f50455241544f525f524f4c455f504552494f440000000000600082015250565b6000612f35601b8361283d565b9150612f4082612eff565b602082019050919050565b60006020820190508181036000830152612f6481612f28565b9050919050565b7f4b4953533a20216d696e7465725265766f6b6564000000000000000000000000600082015250565b6000612fa160148361283d565b9150612fac82612f6b565b602082019050919050565b60006020820190508181036000830152612fd081612f94565b9050919050565b7f4e487b7100000000000000000000000000000000000000000000000000000000600052601160045260246000fd5b6000613011826128ed565b915061301c836128ed565b9250827fffffffffffffffffffffffffffffffffffffffffffffffffffffffffffffffff0382111561305157613050612fd7565b5b828201905092915050565b60006040820190506130716000830185612dc9565b61307e6020830184612950565b9392505050565b7f416363657373436f6e74726f6c3a2063616e206f6e6c792072656e6f756e636560008201527f20726f6c657320666f722073656c660000000000000000000000000000000000602082015250565b60006130e1602f8361283d565b91506130ec82613085565b604082019050919050565b60006020820190508181036000830152613110816130d4565b9050919050565b7f45524332305072657365744d696e7465725061757365723a206d75737420686160008201527f76652070617573657220726f6c6520746f20756e706175736500000000000000602082015250565b600061317360398361283d565b915061317e82613117565b604082019050919050565b600060208201905081810360008301526131a281613166565b9050919050565b7f45524332305072657365744d696e7465725061757365723a206d75737420686160008201527f7665206d696e74657220726f6c6520746f206d696e7400000000000000000000602082015250565b600061320560368361283d565b9150613210826131a9565b604082019050919050565b60006020820190508181036000830152613234816131f8565b9050919050565b7f45524332305072657365744d696e7465725061757365723a206d75737420686160008201527f76652070617573657220726f6c6520746f207061757365000000000000000000602082015250565b600061329760378361283d565b91506132a28261323b565b604082019050919050565b600060208201905081810360008301526132c68161328a565b9050919050565b7f45524332303a2064656372656173656420616c6c6f77616e63652062656c6f7760008201527f207a65726f000000000000000000000000000000000000000000000000000000602082015250565b600061332960258361283d565b9150613334826132cd565b604082019050919050565b600060208201905081810360008301526133588161331c565b9050919050565b7f45524332303a20617070726f76652066726f6d20746865207a65726f2061646460008201527f7265737300000000000000000000000000000000000000000000000000000000602082015250565b60006133bb60248361283d565b91506133c68261335f565b604082019050919050565b600060208201905081810360008301526133ea816133ae565b9050919050565b7f45524332303a20617070726f766520746f20746865207a65726f20616464726560008201527f7373000000000000000000000000000000000000000000000000000000000000602082015250565b600061344d60228361283d565b9150613458826133f1565b604082019050919050565b6000602082019050818103600083015261347c81613440565b9050919050565b7f45524332303a20696e73756666696369656e7420616c6c6f77616e6365000000600082015250565b60006134b9601d8361283d565b91506134c482613483565b602082019050919050565b600060208201905081810360008301526134e8816134ac565b9050919050565b7f45524332303a207472616e736665722066726f6d20746865207a65726f20616460008201527f6472657373000000000000000000000000000000000000000000000000000000602082015250565b600061354b60258361283d565b9150613556826134ef565b604082019050919050565b6000602082019050818103600083015261357a8161353e565b9050919050565b7f45524332303a207472616e7366657220746f20746865207a65726f206164647260008201527f6573730000000000000000000000000000000000000000000000000000000000602082015250565b60006135dd60238361283d565b91506135e882613581565b604082019050919050565b6000602082019050818103600083015261360c816135d0565b9050919050565b7f45524332303a207472616e7366657220616d6f756e742065786365656473206260008201527f616c616e63650000000000000000000000000000000000000000000000000000602082015250565b600061366f60268361283d565b915061367a82613613565b604082019050919050565b6000602082019050818103600083015261369e81613662565b9050919050565b7f45524332303a206d696e7420746f20746865207a65726f206164647265737300600082015250565b60006136db601f8361283d565b91506136e6826136a5565b602082019050919050565b6000602082019050818103600083015261370a816136ce565b9050919050565b7f45524332303a206275726e2066726f6d20746865207a65726f2061646472657360008201527f7300000000000000000000000000000000000000000000000000000000000000602082015250565b600061376d60218361283d565b915061377882613711565b604082019050919050565b6000602082019050818103600083015261379c81613760565b9050919050565b7f45524332303a206275726e20616d6f756e7420657863656564732062616c616e60008201527f6365000000000000000000000000000000000000000000000000000000000000602082015250565b60006137ff60228361283d565b915061380a826137a3565b604082019050919050565b6000602082019050818103600083015261382e816137f2565b9050919050565b6000613840826128ed565b915061384b836128ed565b92508282101561385e5761385d612fd7565b5b828203905092915050565b7f4e487b7100000000000000000000000000000000000000000000000000000000600052603260045260246000fd5b7f4e487b7100000000000000000000000000000000000000000000000000000000600052603160045260246000fd5b600081905092915050565b7f416363657373436f6e74726f6c3a206163636f756e7420000000000000000000600082015250565b60006139086017836138c7565b9150613913826138d2565b601782019050919050565b600061392982612832565b61393381856138c7565b935061394381856020860161284e565b80840191505092915050565b7f206973206d697373696e6720726f6c6520000000000000000000000000000000600082015250565b60006139856011836138c7565b91506139908261394f565b601182019050919050565b60006139a6826138fb565b91506139b2828561391e565b91506139bd82613978565b91506139c9828461391e565b91508190509392505050565b7f5061757361626c653a206e6f7420706175736564000000000000000000000000600082015250565b6000613a0b60148361283d565b9150613a16826139d5565b602082019050919050565b60006020820190508181036000830152613a3a816139fe565b9050919050565b7f5061757361626c653a2070617573656400000000000000000000000000000000600082015250565b6000613a7760108361283d565b9150613a8282613a41565b602082019050919050565b60006020820190508181036000830152613aa681613a6a565b9050919050565b7f45524332305061757361626c653a20746f6b656e207472616e7366657220776860008201527f696c652070617573656400000000000000000000000000000000000000000000602082015250565b6000613b09602a8361283d565b9150613b1482613aad565b604082019050919050565b60006020820190508181036000830152613b3881613afc565b9050919050565b6000613b4a826128ed565b9150613b55836128ed565b9250817fffffffffffffffffffffffffffffffffffffffffffffffffffffffffffffffff0483118215151615613b8e57613b8d612fd7565b5b828202905092915050565b6000613ba4826128ed565b915060008203613bb757613bb6612fd7565b5b600182039050919050565b7f537472696e67733a20686578206c656e67746820696e73756666696369656e74600082015250565b6000613bf860208361283d565b9150613c0382613bc2565b602082019050919050565b60006020820190508181036000830152613c2781613beb565b905091905056fea2646970667358221220fa5fe56229242b8c2bfc30a74255c510347877aed61d573f0f5323c0e838043f64736f6c634300080e0033",
  "devdoc": {
    "author": "Kresko",
    "kind": "dev",
    "methods": {
      "allowance(address,address)": {
        "details": "See {IERC20-allowance}."
      },
      "approve(address,uint256)": {
        "details": "See {IERC20-approve}. NOTE: If `amount` is the maximum `uint256`, the allowance is not updated on `transferFrom`. This is semantically equivalent to an infinite approval. Requirements: - `spender` cannot be the zero address."
      },
      "balanceOf(address)": {
        "details": "See {IERC20-balanceOf}."
      },
      "burn(uint256)": {
        "details": "Destroys `amount` tokens from the caller. See {ERC20-_burn}."
      },
      "burnFrom(address,uint256)": {
        "details": "Destroys `amount` tokens from `account`, deducting from the caller's allowance. See {ERC20-_burn} and {ERC20-allowance}. Requirements: - the caller must have allowance for ``accounts``'s tokens of at least `amount`."
      },
      "decimals()": {
        "details": "Returns the number of decimals used to get its user representation. For example, if `decimals` equals `2`, a balance of `505` tokens should be displayed to a user as `5.05` (`505 / 10 ** 2`). Tokens usually opt for a value of 18, imitating the relationship between Ether and Wei. This is the value {ERC20} uses, unless this function is overridden; NOTE: This information is only used for _display_ purposes: it in no way affects any of the arithmetic of the contract, including {IERC20-balanceOf} and {IERC20-transfer}."
      },
      "decreaseAllowance(address,uint256)": {
        "details": "Atomically decreases the allowance granted to `spender` by the caller. This is an alternative to {approve} that can be used as a mitigation for problems described in {IERC20-approve}. Emits an {Approval} event indicating the updated allowance. Requirements: - `spender` cannot be the zero address. - `spender` must have allowance for the caller of at least `subtractedValue`."
      },
      "destroy(uint256,address)": {
        "params": {
          "_amount": "amount to burn",
          "_from": "address to burn tokens from"
        }
      },
      "getRoleAdmin(bytes32)": {
        "details": "Returns the admin role that controls `role`. See {grantRole} and {revokeRole}. To change a role's admin, use {_setRoleAdmin}."
      },
      "getRoleMember(bytes32,uint256)": {
        "details": "Returns one of the accounts that have `role`. `index` must be a value between 0 and {getRoleMemberCount}, non-inclusive. Role bearers are not sorted in any particular way, and their ordering may change at any point. WARNING: When using {getRoleMember} and {getRoleMemberCount}, make sure you perform all queries on the same block. See the following https://forum.openzeppelin.com/t/iterating-over-elements-on-enumerableset-in-openzeppelin-contracts/2296[forum post] for more information."
      },
      "getRoleMemberCount(bytes32)": {
        "details": "Returns the number of accounts that have `role`. Can be used together with {getRoleMember} to enumerate all bearers of a role."
      },
      "grantRole(bytes32,address)": {
        "params": {
          "_role": "role to grant",
          "_to": "address to grant role for"
        }
      },
      "hasRole(bytes32,address)": {
        "details": "Returns `true` if `account` has been granted `role`."
      },
      "increaseAllowance(address,uint256)": {
        "details": "Atomically increases the allowance granted to `spender` by the caller. This is an alternative to {approve} that can be used as a mitigation for problems described in {IERC20-approve}. Emits an {Approval} event indicating the updated allowance. Requirements: - `spender` cannot be the zero address."
      },
      "issue(uint256,address)": {
        "params": {
          "_amount": "amount to mint",
          "_to": "address to mint tokens to"
        }
      },
      "mint(address,uint256)": {
        "details": "Creates `amount` new tokens for `to`. See {ERC20-_mint}. Requirements: - the caller must have the `MINTER_ROLE`."
      },
      "name()": {
        "details": "Returns the name of the token."
      },
      "pause()": {
        "details": "Pauses all token transfers. See {ERC20Pausable} and {Pausable-_pause}. Requirements: - the caller must have the `PAUSER_ROLE`."
      },
      "paused()": {
        "details": "Returns true if the contract is paused, and false otherwise."
      },
      "renounceRole(bytes32,address)": {
        "details": "Revokes `role` from the calling account. Roles are often managed via {grantRole} and {revokeRole}: this function's purpose is to provide a mechanism for accounts to lose their privileges if they are compromised (such as when a trusted device is misplaced). If the calling account had been revoked `role`, emits a {RoleRevoked} event. Requirements: - the caller must be `account`. May emit a {RoleRevoked} event."
      },
      "revokeRole(bytes32,address)": {
        "details": "Revokes `role` from `account`. If `account` had been granted `role`, emits a {RoleRevoked} event. Requirements: - the caller must have ``role``'s admin role. May emit a {RoleRevoked} event."
      },
      "supportsInterface(bytes4)": {
        "details": "See {IERC165-supportsInterface}."
      },
      "symbol()": {
        "details": "Returns the symbol of the token, usually a shorter version of the name."
      },
      "totalSupply()": {
        "details": "See {IERC20-totalSupply}."
      },
      "transfer(address,uint256)": {
        "details": "See {IERC20-transfer}. Requirements: - `to` cannot be the zero address. - the caller must have a balance of at least `amount`."
      },
      "transferFrom(address,address,uint256)": {
        "details": "See {IERC20-transferFrom}. Emits an {Approval} event indicating the updated allowance. This is not required by the EIP. See the note at the beginning of {ERC20}. NOTE: Does not update the allowance if the current allowance is the maximum `uint256`. Requirements: - `from` and `to` cannot be the zero address. - `from` must have a balance of at least `amount`. - the caller must have allowance for ``from``'s tokens of at least `amount`."
      },
      "unpause()": {
        "details": "Unpauses all token transfers. See {ERC20Pausable} and {Pausable-_unpause}. Requirements: - the caller must have the `PAUSER_ROLE`."
      }
    },
    "title": "Kresko Integrated Stable System (TEST)",
    "version": 1
  },
  "userdoc": {
    "kind": "user",
    "methods": {
      "destroy(uint256,address)": {
        "notice": "Allows OPERATOR_ROLE to burn tokens"
      },
      "grantRole(bytes32,address)": {
        "notice": "Overrides `AccessControl.grantRole` for following: * Implement a cooldown period of `OPERATOR_ROLE_PERIOD` minutes for setting a new OPERATOR_ROLE * Limited to 2 role members (Converter & Kresko) * EOA cannot be granted the operator roleOPERATOR_ROLE can still be revoked without this cooldown periodPAUSER_ROLE can still be granted without this cooldown period"
      },
      "issue(uint256,address)": {
        "notice": "Allows OPERATOR_ROLE to mint tokens"
      }
    },
    "version": 1
  },
  "storageLayout": {
    "storage": [
      {
        "astId": 2695,
        "contract": "src/contracts/kiss/KISS.sol:KISS",
        "label": "_roles",
        "offset": 0,
        "slot": "0",
        "type": "t_mapping(t_bytes32,t_struct(RoleData)2690_storage)"
      },
      {
        "astId": 3009,
        "contract": "src/contracts/kiss/KISS.sol:KISS",
        "label": "_roleMembers",
        "offset": 0,
        "slot": "1",
        "type": "t_mapping(t_bytes32,t_struct(AddressSet)4823_storage)"
      },
      {
        "astId": 3337,
        "contract": "src/contracts/kiss/KISS.sol:KISS",
        "label": "_balances",
        "offset": 0,
        "slot": "2",
        "type": "t_mapping(t_address,t_uint256)"
      },
      {
        "astId": 3343,
        "contract": "src/contracts/kiss/KISS.sol:KISS",
        "label": "_allowances",
        "offset": 0,
        "slot": "3",
        "type": "t_mapping(t_address,t_mapping(t_address,t_uint256))"
      },
      {
        "astId": 3345,
        "contract": "src/contracts/kiss/KISS.sol:KISS",
        "label": "_totalSupply",
        "offset": 0,
        "slot": "4",
        "type": "t_uint256"
      },
      {
        "astId": 3347,
        "contract": "src/contracts/kiss/KISS.sol:KISS",
        "label": "_name",
        "offset": 0,
        "slot": "5",
        "type": "t_string_storage"
      },
      {
        "astId": 3349,
        "contract": "src/contracts/kiss/KISS.sol:KISS",
        "label": "_symbol",
        "offset": 0,
        "slot": "6",
        "type": "t_string_storage"
      },
      {
        "astId": 3231,
        "contract": "src/contracts/kiss/KISS.sol:KISS",
        "label": "_paused",
        "offset": 0,
        "slot": "7",
        "type": "t_bool"
      },
      {
        "astId": 14994,
        "contract": "src/contracts/kiss/KISS.sol:KISS",
        "label": "operatorRoleTimestamp",
        "offset": 0,
        "slot": "8",
        "type": "t_uint256"
      },
      {
        "astId": 14996,
        "contract": "src/contracts/kiss/KISS.sol:KISS",
        "label": "pendingOperator",
        "offset": 0,
        "slot": "9",
        "type": "t_address"
      },
      {
        "astId": 14998,
        "contract": "src/contracts/kiss/KISS.sol:KISS",
        "label": "kresko",
        "offset": 0,
        "slot": "10",
        "type": "t_address"
      },
      {
        "astId": 15000,
        "contract": "src/contracts/kiss/KISS.sol:KISS",
        "label": "_name",
        "offset": 0,
        "slot": "11",
        "type": "t_string_storage"
      },
      {
        "astId": 15002,
        "contract": "src/contracts/kiss/KISS.sol:KISS",
        "label": "_symbol",
        "offset": 0,
        "slot": "12",
        "type": "t_string_storage"
      },
      {
        "astId": 15004,
        "contract": "src/contracts/kiss/KISS.sol:KISS",
        "label": "_decimals",
        "offset": 0,
        "slot": "13",
        "type": "t_uint8"
      }
    ],
    "types": {
      "t_address": {
        "encoding": "inplace",
        "label": "address",
        "numberOfBytes": "20"
      },
      "t_array(t_bytes32)dyn_storage": {
        "base": "t_bytes32",
        "encoding": "dynamic_array",
        "label": "bytes32[]",
        "numberOfBytes": "32"
      },
      "t_bool": {
        "encoding": "inplace",
        "label": "bool",
        "numberOfBytes": "1"
      },
      "t_bytes32": {
        "encoding": "inplace",
        "label": "bytes32",
        "numberOfBytes": "32"
      },
      "t_mapping(t_address,t_bool)": {
        "encoding": "mapping",
        "key": "t_address",
        "label": "mapping(address => bool)",
        "numberOfBytes": "32",
        "value": "t_bool"
      },
      "t_mapping(t_address,t_mapping(t_address,t_uint256))": {
        "encoding": "mapping",
        "key": "t_address",
        "label": "mapping(address => mapping(address => uint256))",
        "numberOfBytes": "32",
        "value": "t_mapping(t_address,t_uint256)"
      },
      "t_mapping(t_address,t_uint256)": {
        "encoding": "mapping",
        "key": "t_address",
        "label": "mapping(address => uint256)",
        "numberOfBytes": "32",
        "value": "t_uint256"
      },
      "t_mapping(t_bytes32,t_struct(AddressSet)4823_storage)": {
        "encoding": "mapping",
        "key": "t_bytes32",
        "label": "mapping(bytes32 => struct EnumerableSet.AddressSet)",
        "numberOfBytes": "32",
        "value": "t_struct(AddressSet)4823_storage"
      },
      "t_mapping(t_bytes32,t_struct(RoleData)2690_storage)": {
        "encoding": "mapping",
        "key": "t_bytes32",
        "label": "mapping(bytes32 => struct AccessControl.RoleData)",
        "numberOfBytes": "32",
        "value": "t_struct(RoleData)2690_storage"
      },
      "t_mapping(t_bytes32,t_uint256)": {
        "encoding": "mapping",
        "key": "t_bytes32",
        "label": "mapping(bytes32 => uint256)",
        "numberOfBytes": "32",
        "value": "t_uint256"
      },
      "t_string_storage": {
        "encoding": "bytes",
        "label": "string",
        "numberOfBytes": "32"
      },
      "t_struct(AddressSet)4823_storage": {
        "encoding": "inplace",
        "label": "struct EnumerableSet.AddressSet",
        "members": [
          {
            "astId": 4822,
            "contract": "src/contracts/kiss/KISS.sol:KISS",
            "label": "_inner",
            "offset": 0,
            "slot": "0",
            "type": "t_struct(Set)4522_storage"
          }
        ],
        "numberOfBytes": "64"
      },
      "t_struct(RoleData)2690_storage": {
        "encoding": "inplace",
        "label": "struct AccessControl.RoleData",
        "members": [
          {
            "astId": 2687,
            "contract": "src/contracts/kiss/KISS.sol:KISS",
            "label": "members",
            "offset": 0,
            "slot": "0",
            "type": "t_mapping(t_address,t_bool)"
          },
          {
            "astId": 2689,
            "contract": "src/contracts/kiss/KISS.sol:KISS",
            "label": "adminRole",
            "offset": 0,
            "slot": "1",
            "type": "t_bytes32"
          }
        ],
        "numberOfBytes": "64"
      },
      "t_struct(Set)4522_storage": {
        "encoding": "inplace",
        "label": "struct EnumerableSet.Set",
        "members": [
          {
            "astId": 4517,
            "contract": "src/contracts/kiss/KISS.sol:KISS",
            "label": "_values",
            "offset": 0,
            "slot": "0",
            "type": "t_array(t_bytes32)dyn_storage"
          },
          {
            "astId": 4521,
            "contract": "src/contracts/kiss/KISS.sol:KISS",
            "label": "_indexes",
            "offset": 0,
            "slot": "1",
            "type": "t_mapping(t_bytes32,t_uint256)"
          }
        ],
        "numberOfBytes": "64"
      },
      "t_uint256": {
        "encoding": "inplace",
        "label": "uint256",
        "numberOfBytes": "32"
      },
      "t_uint8": {
        "encoding": "inplace",
        "label": "uint8",
        "numberOfBytes": "1"
      }
    }
  }
}