{
    "address": "0xC0B5aBa9F46bDf4D1bC52a4C3ab05C857aC4Ee80",
    "abi": [
        {
            "inputs": [
                {
                    "internalType": "string",
                    "name": "name_",
                    "type": "string"
                },
                {
                    "internalType": "string",
                    "name": "symbol_",
                    "type": "string"
                },
                {
                    "internalType": "uint8",
                    "name": "dec_",
                    "type": "uint8"
                },
                {
                    "internalType": "address",
                    "name": "admin_",
                    "type": "address"
                },
                {
                    "internalType": "address",
                    "name": "kresko_",
                    "type": "address"
                }
            ],
            "stateMutability": "nonpayable",
            "type": "constructor"
        },
        {
            "anonymous": false,
            "inputs": [
                {
                    "indexed": true,
                    "internalType": "address",
                    "name": "owner",
                    "type": "address"
                },
                {
                    "indexed": true,
                    "internalType": "address",
                    "name": "spender",
                    "type": "address"
                },
                {
                    "indexed": false,
                    "internalType": "uint256",
                    "name": "value",
                    "type": "uint256"
                }
            ],
            "name": "Approval",
            "type": "event"
        },
        {
            "anonymous": false,
            "inputs": [
                {
                    "indexed": false,
                    "internalType": "uint256",
                    "name": "newMaxOperators",
                    "type": "uint256"
                }
            ],
            "name": "NewMaxOperators",
            "type": "event"
        },
        {
            "anonymous": false,
            "inputs": [
                {
                    "indexed": true,
                    "internalType": "address",
                    "name": "newOperator",
                    "type": "address"
                }
            ],
            "name": "NewOperator",
            "type": "event"
        },
        {
            "anonymous": false,
            "inputs": [
                {
                    "indexed": true,
                    "internalType": "address",
                    "name": "pendingNewOperator",
                    "type": "address"
                },
                {
                    "indexed": false,
                    "internalType": "uint256",
                    "name": "unlockTimestamp",
                    "type": "uint256"
                }
            ],
            "name": "NewOperatorInitialized",
            "type": "event"
        },
        {
            "anonymous": false,
            "inputs": [
                {
                    "indexed": false,
                    "internalType": "uint256",
                    "name": "newPeriod",
                    "type": "uint256"
                }
            ],
            "name": "NewPendingOperatorWaitPeriod",
            "type": "event"
        },
        {
            "anonymous": false,
            "inputs": [
                {
                    "indexed": false,
                    "internalType": "address",
                    "name": "account",
                    "type": "address"
                }
            ],
            "name": "Paused",
            "type": "event"
        },
        {
            "anonymous": false,
            "inputs": [
                {
                    "indexed": true,
                    "internalType": "bytes32",
                    "name": "role",
                    "type": "bytes32"
                },
                {
                    "indexed": true,
                    "internalType": "bytes32",
                    "name": "previousAdminRole",
                    "type": "bytes32"
                },
                {
                    "indexed": true,
                    "internalType": "bytes32",
                    "name": "newAdminRole",
                    "type": "bytes32"
                }
            ],
            "name": "RoleAdminChanged",
            "type": "event"
        },
        {
            "anonymous": false,
            "inputs": [
                {
                    "indexed": true,
                    "internalType": "bytes32",
                    "name": "role",
                    "type": "bytes32"
                },
                {
                    "indexed": true,
                    "internalType": "address",
                    "name": "account",
                    "type": "address"
                },
                {
                    "indexed": true,
                    "internalType": "address",
                    "name": "sender",
                    "type": "address"
                }
            ],
            "name": "RoleGranted",
            "type": "event"
        },
        {
            "anonymous": false,
            "inputs": [
                {
                    "indexed": true,
                    "internalType": "bytes32",
                    "name": "role",
                    "type": "bytes32"
                },
                {
                    "indexed": true,
                    "internalType": "address",
                    "name": "account",
                    "type": "address"
                },
                {
                    "indexed": true,
                    "internalType": "address",
                    "name": "sender",
                    "type": "address"
                }
            ],
            "name": "RoleRevoked",
            "type": "event"
        },
        {
            "anonymous": false,
            "inputs": [
                {
                    "indexed": true,
                    "internalType": "address",
                    "name": "from",
                    "type": "address"
                },
                {
                    "indexed": true,
                    "internalType": "address",
                    "name": "to",
                    "type": "address"
                },
                {
                    "indexed": false,
                    "internalType": "uint256",
                    "name": "value",
                    "type": "uint256"
                }
            ],
            "name": "Transfer",
            "type": "event"
        },
        {
            "anonymous": false,
            "inputs": [
                {
                    "indexed": false,
                    "internalType": "address",
                    "name": "account",
                    "type": "address"
                }
            ],
            "name": "Unpaused",
            "type": "event"
        },
        {
            "inputs": [],
            "name": "DEFAULT_ADMIN_ROLE",
            "outputs": [
                {
                    "internalType": "bytes32",
                    "name": "",
                    "type": "bytes32"
                }
            ],
            "stateMutability": "view",
            "type": "function"
        },
        {
            "inputs": [],
            "name": "MINTER_ROLE",
            "outputs": [
                {
                    "internalType": "bytes32",
                    "name": "",
                    "type": "bytes32"
                }
            ],
            "stateMutability": "view",
            "type": "function"
        },
        {
            "inputs": [],
            "name": "OPERATOR_ROLE",
            "outputs": [
                {
                    "internalType": "bytes32",
                    "name": "",
                    "type": "bytes32"
                }
            ],
            "stateMutability": "view",
            "type": "function"
        },
        {
            "inputs": [],
            "name": "PAUSER_ROLE",
            "outputs": [
                {
                    "internalType": "bytes32",
                    "name": "",
                    "type": "bytes32"
                }
            ],
            "stateMutability": "view",
            "type": "function"
        },
        {
            "inputs": [
                {
                    "internalType": "address",
                    "name": "owner",
                    "type": "address"
                },
                {
                    "internalType": "address",
                    "name": "spender",
                    "type": "address"
                }
            ],
            "name": "allowance",
            "outputs": [
                {
                    "internalType": "uint256",
                    "name": "",
                    "type": "uint256"
                }
            ],
            "stateMutability": "view",
            "type": "function"
        },
        {
            "inputs": [
                {
                    "internalType": "address",
                    "name": "spender",
                    "type": "address"
                },
                {
                    "internalType": "uint256",
                    "name": "amount",
                    "type": "uint256"
                }
            ],
            "name": "approve",
            "outputs": [
                {
                    "internalType": "bool",
                    "name": "",
                    "type": "bool"
                }
            ],
            "stateMutability": "nonpayable",
            "type": "function"
        },
        {
            "inputs": [
                {
                    "internalType": "address",
                    "name": "account",
                    "type": "address"
                }
            ],
            "name": "balanceOf",
            "outputs": [
                {
                    "internalType": "uint256",
                    "name": "",
                    "type": "uint256"
                }
            ],
            "stateMutability": "view",
            "type": "function"
        },
        {
            "inputs": [
                {
                    "internalType": "uint256",
                    "name": "amount",
                    "type": "uint256"
                }
            ],
            "name": "burn",
            "outputs": [],
            "stateMutability": "nonpayable",
            "type": "function"
        },
        {
            "inputs": [
                {
                    "internalType": "address",
                    "name": "account",
                    "type": "address"
                },
                {
                    "internalType": "uint256",
                    "name": "amount",
                    "type": "uint256"
                }
            ],
            "name": "burnFrom",
            "outputs": [],
            "stateMutability": "nonpayable",
            "type": "function"
        },
        {
            "inputs": [
                {
                    "internalType": "uint256",
                    "name": "shares",
                    "type": "uint256"
                }
            ],
            "name": "convertToAssets",
            "outputs": [
                {
                    "internalType": "uint256",
                    "name": "",
                    "type": "uint256"
                }
            ],
            "stateMutability": "pure",
            "type": "function"
        },
        {
            "inputs": [
                {
                    "internalType": "uint256",
                    "name": "assets",
                    "type": "uint256"
                }
            ],
            "name": "convertToShares",
            "outputs": [
                {
                    "internalType": "uint256",
                    "name": "",
                    "type": "uint256"
                }
            ],
            "stateMutability": "pure",
            "type": "function"
        },
        {
            "inputs": [],
            "name": "decimals",
            "outputs": [
                {
                    "internalType": "uint8",
                    "name": "",
                    "type": "uint8"
                }
            ],
            "stateMutability": "view",
            "type": "function"
        },
        {
            "inputs": [
                {
                    "internalType": "address",
                    "name": "spender",
                    "type": "address"
                },
                {
                    "internalType": "uint256",
                    "name": "subtractedValue",
                    "type": "uint256"
                }
            ],
            "name": "decreaseAllowance",
            "outputs": [
                {
                    "internalType": "bool",
                    "name": "",
                    "type": "bool"
                }
            ],
            "stateMutability": "nonpayable",
            "type": "function"
        },
        {
            "inputs": [
                {
                    "internalType": "uint256",
                    "name": "_amount",
                    "type": "uint256"
                },
                {
                    "internalType": "address",
                    "name": "_from",
                    "type": "address"
                }
            ],
            "name": "destroy",
            "outputs": [
                {
                    "internalType": "uint256",
                    "name": "",
                    "type": "uint256"
                }
            ],
            "stateMutability": "nonpayable",
            "type": "function"
        },
        {
            "inputs": [
                {
                    "internalType": "bytes32",
                    "name": "role",
                    "type": "bytes32"
                }
            ],
            "name": "getRoleAdmin",
            "outputs": [
                {
                    "internalType": "bytes32",
                    "name": "",
                    "type": "bytes32"
                }
            ],
            "stateMutability": "view",
            "type": "function"
        },
        {
            "inputs": [
                {
                    "internalType": "bytes32",
                    "name": "role",
                    "type": "bytes32"
                },
                {
                    "internalType": "uint256",
                    "name": "index",
                    "type": "uint256"
                }
            ],
            "name": "getRoleMember",
            "outputs": [
                {
                    "internalType": "address",
                    "name": "",
                    "type": "address"
                }
            ],
            "stateMutability": "view",
            "type": "function"
        },
        {
            "inputs": [
                {
                    "internalType": "bytes32",
                    "name": "role",
                    "type": "bytes32"
                }
            ],
            "name": "getRoleMemberCount",
            "outputs": [
                {
                    "internalType": "uint256",
                    "name": "",
                    "type": "uint256"
                }
            ],
            "stateMutability": "view",
            "type": "function"
        },
        {
            "inputs": [
                {
                    "internalType": "bytes32",
                    "name": "_role",
                    "type": "bytes32"
                },
                {
                    "internalType": "address",
                    "name": "_to",
                    "type": "address"
                }
            ],
            "name": "grantRole",
            "outputs": [],
            "stateMutability": "nonpayable",
            "type": "function"
        },
        {
            "inputs": [
                {
                    "internalType": "bytes32",
                    "name": "role",
                    "type": "bytes32"
                },
                {
                    "internalType": "address",
                    "name": "account",
                    "type": "address"
                }
            ],
            "name": "hasRole",
            "outputs": [
                {
                    "internalType": "bool",
                    "name": "",
                    "type": "bool"
                }
            ],
            "stateMutability": "view",
            "type": "function"
        },
        {
            "inputs": [
                {
                    "internalType": "address",
                    "name": "spender",
                    "type": "address"
                },
                {
                    "internalType": "uint256",
                    "name": "addedValue",
                    "type": "uint256"
                }
            ],
            "name": "increaseAllowance",
            "outputs": [
                {
                    "internalType": "bool",
                    "name": "",
                    "type": "bool"
                }
            ],
            "stateMutability": "nonpayable",
            "type": "function"
        },
        {
            "inputs": [
                {
                    "internalType": "uint256",
                    "name": "_amount",
                    "type": "uint256"
                },
                {
                    "internalType": "address",
                    "name": "_to",
                    "type": "address"
                }
            ],
            "name": "issue",
            "outputs": [
                {
                    "internalType": "uint256",
                    "name": "",
                    "type": "uint256"
                }
            ],
            "stateMutability": "nonpayable",
            "type": "function"
        },
        {
            "inputs": [],
            "name": "kresko",
            "outputs": [
                {
                    "internalType": "address",
                    "name": "",
                    "type": "address"
                }
            ],
            "stateMutability": "view",
            "type": "function"
        },
        {
            "inputs": [],
            "name": "maxOperators",
            "outputs": [
                {
                    "internalType": "uint256",
                    "name": "",
                    "type": "uint256"
                }
            ],
            "stateMutability": "view",
            "type": "function"
        },
        {
            "inputs": [
                {
                    "internalType": "address",
                    "name": "_to",
                    "type": "address"
                },
                {
                    "internalType": "uint256",
                    "name": "_amount",
                    "type": "uint256"
                }
            ],
            "name": "mint",
            "outputs": [],
            "stateMutability": "nonpayable",
            "type": "function"
        },
        {
            "inputs": [],
            "name": "name",
            "outputs": [
                {
                    "internalType": "string",
                    "name": "",
                    "type": "string"
                }
            ],
            "stateMutability": "view",
            "type": "function"
        },
        {
            "inputs": [],
            "name": "pause",
            "outputs": [],
            "stateMutability": "nonpayable",
            "type": "function"
        },
        {
            "inputs": [],
            "name": "paused",
            "outputs": [
                {
                    "internalType": "bool",
                    "name": "",
                    "type": "bool"
                }
            ],
            "stateMutability": "view",
            "type": "function"
        },
        {
            "inputs": [],
            "name": "pendingOperator",
            "outputs": [
                {
                    "internalType": "address",
                    "name": "",
                    "type": "address"
                }
            ],
            "stateMutability": "view",
            "type": "function"
        },
        {
            "inputs": [],
            "name": "pendingOperatorUnlockTime",
            "outputs": [
                {
                    "internalType": "uint256",
                    "name": "",
                    "type": "uint256"
                }
            ],
            "stateMutability": "view",
            "type": "function"
        },
        {
            "inputs": [],
            "name": "pendingOperatorWaitPeriod",
            "outputs": [
                {
                    "internalType": "uint256",
                    "name": "",
                    "type": "uint256"
                }
            ],
            "stateMutability": "view",
            "type": "function"
        },
        {
            "inputs": [
                {
                    "internalType": "bytes32",
                    "name": "role",
                    "type": "bytes32"
                },
                {
                    "internalType": "address",
                    "name": "account",
                    "type": "address"
                }
            ],
            "name": "renounceRole",
            "outputs": [],
            "stateMutability": "nonpayable",
            "type": "function"
        },
        {
            "inputs": [
                {
                    "internalType": "bytes32",
                    "name": "role",
                    "type": "bytes32"
                },
                {
                    "internalType": "address",
                    "name": "account",
                    "type": "address"
                }
            ],
            "name": "revokeRole",
            "outputs": [],
            "stateMutability": "nonpayable",
            "type": "function"
        },
        {
            "inputs": [
                {
                    "internalType": "uint256",
                    "name": "_maxOperators",
                    "type": "uint256"
                }
            ],
            "name": "setMaxOperators",
            "outputs": [],
            "stateMutability": "nonpayable",
            "type": "function"
        },
        {
            "inputs": [
                {
                    "internalType": "uint256",
                    "name": "_newPeriod",
                    "type": "uint256"
                }
            ],
            "name": "setPendingOperatorWaitPeriod",
            "outputs": [],
            "stateMutability": "nonpayable",
            "type": "function"
        },
        {
            "inputs": [
                {
                    "internalType": "bytes4",
                    "name": "interfaceId",
                    "type": "bytes4"
                }
            ],
            "name": "supportsInterface",
            "outputs": [
                {
                    "internalType": "bool",
                    "name": "",
                    "type": "bool"
                }
            ],
            "stateMutability": "pure",
            "type": "function"
        },
        {
            "inputs": [],
            "name": "symbol",
            "outputs": [
                {
                    "internalType": "string",
                    "name": "",
                    "type": "string"
                }
            ],
            "stateMutability": "view",
            "type": "function"
        },
        {
            "inputs": [],
            "name": "totalSupply",
            "outputs": [
                {
                    "internalType": "uint256",
                    "name": "",
                    "type": "uint256"
                }
            ],
            "stateMutability": "view",
            "type": "function"
        },
        {
            "inputs": [
                {
                    "internalType": "address",
                    "name": "to",
                    "type": "address"
                },
                {
                    "internalType": "uint256",
                    "name": "amount",
                    "type": "uint256"
                }
            ],
            "name": "transfer",
            "outputs": [
                {
                    "internalType": "bool",
                    "name": "",
                    "type": "bool"
                }
            ],
            "stateMutability": "nonpayable",
            "type": "function"
        },
        {
            "inputs": [
                {
                    "internalType": "address",
                    "name": "from",
                    "type": "address"
                },
                {
                    "internalType": "address",
                    "name": "to",
                    "type": "address"
                },
                {
                    "internalType": "uint256",
                    "name": "amount",
                    "type": "uint256"
                }
            ],
            "name": "transferFrom",
            "outputs": [
                {
                    "internalType": "bool",
                    "name": "",
                    "type": "bool"
                }
            ],
            "stateMutability": "nonpayable",
            "type": "function"
        },
        {
            "inputs": [],
            "name": "unpause",
            "outputs": [],
            "stateMutability": "nonpayable",
            "type": "function"
        }
    ],
    "transactionHash": "0x006ab9a17bfc552a6e2a30c8e60559701c6fa2c220d03f958a15ec8d59580d91",
    "args": [
        "KISS",
        "KISS",
        18,
        "0xC4489F3A82079C5a7b0b610Fc85952B6E585E697",
        "0x0921a7234a2762aaB3C43d3b1F51dB5D8094a04b"
    ],
    "numDeployments": 1,
    "solcInputHash": "7f151a4c133817a4db425d2f7225b297",
    "bytecode": "0x608060405234620000b35762003ec1803803806200001d81620000cf565b928339810160a082820312620000b357815167ffffffffffffffff90818111620000b357826200004f9185016200015b565b916020840151918211620000b3576200006a9184016200015b565b91604081015160ff81168103620000b357620000a3936200009c60806200009460608601620001e2565b9401620001e2565b93620007f2565b604051612bf19081620012d08239f35b600080fd5b50634e487b7160e01b600052604160045260246000fd5b6040519190601f017fffffffffffffffffffffffffffffffffffffffffffffffffffffffffffffffe016820167ffffffffffffffff8111838210176200011457604052565b6200011e620000b8565b604052565b918091926000905b828210620001455750116200013e575050565b6000910152565b915080602091830151818601520182916200012b565b81601f82011215620000b357805167ffffffffffffffff8111620001d2575b620001ad601f82017fffffffffffffffffffffffffffffffffffffffffffffffffffffffffffffffe016602001620000cf565b9281845260208284010111620000b357620001cf916020808501910162000123565b90565b620001dc620000b8565b6200017a565b519073ffffffffffffffffffffffffffffffffffffffff82168203620000b357565b604080519190820167ffffffffffffffff81118382101762000250575b604052600382527f38303400000000000000000000000000000000000000000000000000000000006020830152565b6200025a620000b8565b62000221565b15620002695750565b6044604051809262461bcd60e51b8252602060048301526200029b815180928160248601526020868601910162000123565b601f017fffffffffffffffffffffffffffffffffffffffffffffffffffffffffffffffe0168101030190fd5b90600182811c92168015620002f9575b6020831014620002e357565b634e487b7160e01b600052602260045260246000fd5b91607f1691620002d7565b91620003219183549060031b600019811b9283911b169119161790565b9055565b601f811162000332575050565b6000906005825260208220906020601f850160051c8301941062000373575b601f0160051c01915b8281106200036757505050565b8181556001016200035a565b909250829062000351565b601f81116200038b575050565b6000906006825260208220906020601f850160051c83019410620003cc575b601f0160051c01915b828110620003c057505050565b818155600101620003b3565b9092508290620003aa565b601f8111620003e4575050565b600090600d825260208220906020601f850160051c8301941062000425575b601f0160051c01915b8281106200041957505050565b8181556001016200040c565b909250829062000403565b601f81116200043d575050565b600090600e825260208220906020601f850160051c830194106200047e575b601f0160051c01915b8281106200047257505050565b81815560010162000465565b90925082906200045c565b805190919067ffffffffffffffff81116200059c575b620004b781620004b1600654620002c7565b6200037e565b602080601f8311600114620004f65750819293600092620004ea575b50508160011b916000199060031b1c191617600655565b015190503880620004d3565b60066000527fffffffffffffffffffffffffffffffffffffffffffffffffffffffffffffffe08316949091907ff652222313e28459528d920b65115c16c04f3efc82aaedc97be59f3f377c0d3f926000905b8782106200058357505083600195961062000569575b505050811b01600655565b015160001960f88460031b161c191690553880806200055e565b8060018596829496860151815501950193019062000548565b620005a6620000b8565b6200049f565b805190919067ffffffffffffffff8111620006bf575b620005da81620005d4600d54620002c7565b620003d7565b602080601f83116001146200061957508192936000926200060d575b50508160011b916000199060031b1c191617600d55565b015190503880620005f6565b600d6000527fffffffffffffffffffffffffffffffffffffffffffffffffffffffffffffffe08316949091907fd7b6990105719101dabeb77144f2a3385c8033acd3af97e9423a695e81ad1eb5926000905b878210620006a65750508360019596106200068c575b505050811b01600d55565b015160001960f88460031b161c1916905538808062000681565b806001859682949686015181550195019301906200066b565b620006c9620000b8565b620005c2565b805190919067ffffffffffffffff8111620007e2575b620006fd81620006f7600e54620002c7565b62000430565b602080601f83116001146200073c575081929360009262000730575b50508160011b916000199060031b1c191617600e55565b01519050388062000719565b600e6000527fffffffffffffffffffffffffffffffffffffffffffffffffffffffffffffffe08316949091907fbb7b4a454dc3493923482f07822329ed19e8244eff582cc204f8554c3620c3fd926000905b878210620007c9575050836001959610620007af575b505050811b01600e55565b015160001960f88460031b161c19169055388080620007a4565b806001859682949686015181550195019301906200078e565b620007ec620000b8565b620006e5565b805167ffffffffffffffff811162000a81575b6200081d8162000817600554620002c7565b62000325565b602080601f8311600114620009c057506200099c969593620008c2620008d89484620009409895620008c895600091620009b4575b508160011b916000199060031b1c1916176005555b620008728362000489565b6200088260ff1960075416600755565b6200088d3362000cbf565b620008983362000dc8565b620008a33362000ef4565b620008bc893b1515620008b562000204565b9062000260565b620005ac565b620006cf565b60ff1660ff19600f541617600f55565b600c80547fffffffffffffffffffffffff00000000000000000000000000000000000000001673ffffffffffffffffffffffffffffffffffffffff8516179055620009236002600a55565b6200092f610384600855565b6200093a8162000cbf565b62000f6b565b600c80547fffffffffffffffffffffffff00000000000000000000000000000000000000001673ffffffffffffffffffffffffffffffffffffffff83161790556200098b8162000fe2565b620009968162000dc8565b62000ef4565b620009a73362000a91565b620009b23362000c27565b565b90508201513862000852565b6005600052907fffffffffffffffffffffffffffffffffffffffffffffffffffffffffffffffe083167f036b6384b5eca791c62761152d0c79bb0604c104a5fb6f4eb0703f3154bb3db0926000905b82821062000a68575050620008d894600185620008c8956200099c9c9b9995620009409b98620008c2961062000a4e575b5050811b0160055562000867565b84015160001960f88460031b161c19169055388062000a40565b80600185968294968a0151815501950193019062000a0f565b62000a8b620000b8565b62000805565b73ffffffffffffffffffffffffffffffffffffffff81169033820362000ba25773ffffffffffffffffffffffffffffffffffffffff811660009081527f0781d7cac9c378efa22a7481e4d4d29704a680ddf504b3bc50b517700ee11e6c602052604080822062000b3b949192917f9f2df0fed2c77648de5860a4cc508cd0818c85b8b8a1ab4ceeef8d981c8956a69160ff905b541662000b3e575b50815260016020522062001115565b50565b818352602083815284842073ffffffffffffffffffffffffffffffffffffffff8716600090815291526040902060ff1981541690553390827ff6391f5c32d9c69d2a47ea670b442974b53935d1edc7fd64eb21e047a839171b858751a43862000b2c565b6040517f08c379a000000000000000000000000000000000000000000000000000000000815260206004820152602f60248201527f416363657373436f6e74726f6c3a2063616e206f6e6c792072656e6f756e636560448201527f20726f6c657320666f722073656c6600000000000000000000000000000000006064820152608490fd5b73ffffffffffffffffffffffffffffffffffffffff81169033820362000ba25773ffffffffffffffffffffffffffffffffffffffff811660009081527ff7c9542c591017a21c74b6f3fab6263c7952fc0aaf9db4c22a2a04ddc7f8674f602052604080822062000b3b949192917f65d7a28e3265b37a6474929f336521b332c1681b933f6cb9f3376673440d862a9160ff9062000b24565b73ffffffffffffffffffffffffffffffffffffffff811660009081527fad3228b676f7d3cd4284a5443f17f1962b36e491b30a40b2405849e597ba5fb560205260408082205462000b3b93929060ff161562000d3e575b80805260016020522073ffffffffffffffffffffffffffffffffffffffff9091169062001088565b808052602081815282822073ffffffffffffffffffffffffffffffffffffffff85166000818152919092526040902080547fffffffffffffffffffffffffffffffffffffffffffffffffffffffffffffff00166001179055825133919083907f2f8788117e7eff1d82e926ec794901d17c78024a50270940304540a733656f0d908290a462000d16565b73ffffffffffffffffffffffffffffffffffffffff811660009081527f0781d7cac9c378efa22a7481e4d4d29704a680ddf504b3bc50b517700ee11e6c602052604080822062000b3b9392907f9f2df0fed2c77648de5860a4cc508cd0818c85b8b8a1ab4ceeef8d981c8956a69060ff905b54161562000e6a575b815260016020522073ffffffffffffffffffffffffffffffffffffffff9091169062001088565b808252602082815283832073ffffffffffffffffffffffffffffffffffffffff86166000818152919092526040902080547fffffffffffffffffffffffffffffffffffffffffffffffffffffffffffffff00166001179055835133919083907f2f8788117e7eff1d82e926ec794901d17c78024a50270940304540a733656f0d908690a462000e43565b73ffffffffffffffffffffffffffffffffffffffff811660009081527ff7c9542c591017a21c74b6f3fab6263c7952fc0aaf9db4c22a2a04ddc7f8674f602052604080822062000b3b9392907f65d7a28e3265b37a6474929f336521b332c1681b933f6cb9f3376673440d862a9060ff9062000e3a565b73ffffffffffffffffffffffffffffffffffffffff811660009081527f8af3556a8cc4f45a5fe7bdc27dc6ee752155f7c603796de28ab9833361fa7571602052604080822062000b3b9392907fb9dacdf02281f2e98ddbadaaf44db270b3d5a916342df47c59f77937a6bcd5d89060ff9062000e3a565b73ffffffffffffffffffffffffffffffffffffffff811660009081527f930998099b263558799c5489879946eacbc400e73587bc12f26d63614018880a602052604080822062000b3b9392907f112e48a576fb3a75acc75d9fcf6e0bc670b27b1dbcd2463502e10e68cf57d6fd9060ff9062000e3a565b8054821015620010725760005260206000200190600090565b634e487b7160e01b600052603260045260246000fd5b60018101908260005281602052604060002054156000146200110d5782620010e8620010cf835468010000000000000000811015620010fd575b6001810185558462001059565b819391549060031b600019811b9283911b169119161790565b90555491600052602052604060002055600190565b62001107620000b8565b620010c2565b505050600090565b620001cf9173ffffffffffffffffffffffffffffffffffffffff1690620011dc565b6001811062001165577fffffffffffffffffffffffffffffffffffffffffffffffffffffffffffffffff0190565b634e487b7160e01b600052601160045260246000fd5b8054908115620011c6577fffffffffffffffffffffffffffffffffffffffffffffffffffffffffffffffff91820191620011b6838362001059565b909182549160031b1b1916905555565b634e487b7160e01b600052603160045260246000fd5b9060018201600092828452816020526040842054801515600014620012c857600181106200129b57620012439392916200123491600019810162001221835462001137565b9080820362001249575b5050506200117b565b90600052602052604060002090565b55600190565b620012816200127a91620012706200126662001291958862001059565b90549060031b1c90565b9283918762001059565b9062000304565b8590600052602052604060002090565b553880806200122b565b7f4e487b710000000000000000000000000000000000000000000000000000000085526011600452602485fd5b505050509056fe60806040526004361015610013575b600080fd5b60003560e01c806301ffc9a71461032a578063025a1fc01461032157806306b22e701461031857806306fdde031461030f57806307a2d13a14610213578063095ea7b31461030657806318160ddd146102fd57806323b872dd146102f4578063248a9ca3146102eb5780632f2ff15d146102e2578063313ce567146102d957806336568abe146102d057806339509351146102c75780633f4ba83a146102be57806340c10f19146102b557806342966c68146102ac5780635c975abb146102a357806370a082311461029a57806375e1a8b11461029157806379cc6790146102885780638456cb591461027f5780638dec3daa146102765780639010d07c1461026d5780639189cb4c1461026457806391d148541461025b57806395d89b4114610252578063a217fddf14610249578063a457c2d714610240578063a9059cbb14610237578063ac7e534e1461022e578063b4e854cc14610225578063b696a6ad1461021c578063c6e6f59214610213578063ca15c8731461020a578063d539139314610201578063d547741f146101f8578063d77e128c146101ef578063dd62ed3e146101e6578063e63ab1e9146101dd5763f5b541a6146101d557600080fd5b61000e61163f565b5061000e6115e5565b5061000e611561565b5061000e61150c565b5061000e6113e0565b5061000e611386565b5061000e61133b565b5061000e610712565b5061000e6112de565b5061000e6112a1565b5061000e61124c565b5061000e611207565b5061000e6110fc565b5061000e6110c1565b5061000e610ffd565b5061000e610f8c565b5061000e610f21565b5061000e610eae565b5061000e610e4e565b5061000e610d66565b5061000e610d17565b5061000e610cda565b5061000e610c74565b5061000e610c32565b5061000e610bf6565b5061000e610b9b565b5061000e610ab0565b5061000e610a39565b5061000e610953565b5061000e610913565b5061000e6108c6565b5061000e610878565b5061000e610821565b5061000e6107e4565b5061000e610794565b5061000e6105d7565b5061000e6104aa565b5061000e61046d565b503461000e576020367ffffffffffffffffffffffffffffffffffffffffffffffffffffffffffffffffc011261000e577fffffffff000000000000000000000000000000000000000000000000000000006004358181169081900361000e576103aa9181141590816103ae575b5060405190151581529081906020820190565b0390f35b7f2b8076f300000000000000000000000000000000000000000000000000000000811491508115610443575b8115610419575b81156103ef575b5038610397565b7f36372b0700000000000000000000000000000000000000000000000000000000149050386103e8565b7f01ffc9a700000000000000000000000000000000000000000000000000000000811491506103e1565b7ffa3ebfaf00000000000000000000000000000000000000000000000000000000811491506103da565b503461000e576000367ffffffffffffffffffffffffffffffffffffffffffffffffffffffffffffffffc011261000e576020600854604051908152f35b503461000e576020367ffffffffffffffffffffffffffffffffffffffffffffffffffffffffffffffffc011261000e577f2bad6e075a588960f394ac13285a7e6ab9dedc5e55d5a1ccad37d9c28770c3a76020600435610508611699565b61054b60405161051781611939565b600381527f3830360000000000000000000000000000000000000000000000000000000000848201526103848310156125e6565b80600855604051908152a1005b918091926000905b828210610578575011610571575050565b6000910152565b91508060209183015181860152018291610560565b604091602082526105ad8151809281602086015260208686019101610558565b601f017fffffffffffffffffffffffffffffffffffffffffffffffffffffffffffffffe016010190565b503461000e5760008060031936011261070f576040519080600d549060019180831c92808216928315610705575b60209283861085146106d857858852602088019490811561069e5750600114610645575b6103aa8761063981890382611962565b6040519182918261058d565b600d60005294509192917fd7b6990105719101dabeb77144f2a3385c8033acd3af97e9423a695e81ad1eb55b83861061068d5750505091019050610639826103aa3880610629565b805485870152948201948101610671565b7fffffffffffffffffffffffffffffffffffffffffffffffffffffffffffffff001685525050500191506106399050826103aa3880610629565b7f4e487b710000000000000000000000000000000000000000000000000000000082526022600452602482fd5b93607f1693610605565b80fd5b503461000e576020367ffffffffffffffffffffffffffffffffffffffffffffffffffffffffffffffffc011261000e5760206040516004358152f35b6004359073ffffffffffffffffffffffffffffffffffffffff8216820361000e57565b6024359073ffffffffffffffffffffffffffffffffffffffff8216820361000e57565b503461000e576040367ffffffffffffffffffffffffffffffffffffffffffffffffffffffffffffffffc011261000e576107d96107cf61074e565b6024359033611d30565b602060405160018152f35b503461000e576000367ffffffffffffffffffffffffffffffffffffffffffffffffffffffffffffffffc011261000e576020600454604051908152f35b503461000e576060367ffffffffffffffffffffffffffffffffffffffffffffffffffffffffffffffffc011261000e576107d961085c61074e565b610864610771565b60443591610873833383611ed0565b611bae565b503461000e576020367ffffffffffffffffffffffffffffffffffffffffffffffffffffffffffffffffc011261000e5760043560005260006020526020600160406000200154604051908152f35b503461000e576040367ffffffffffffffffffffffffffffffffffffffffffffffffffffffffffffffffc011261000e57610911610901610771565b610909611699565b6004356127ca565b005b503461000e576000367ffffffffffffffffffffffffffffffffffffffffffffffffffffffffffffffffc011261000e57602060ff600f5416604051908152f35b503461000e576040367ffffffffffffffffffffffffffffffffffffffffffffffffffffffffffffffffc011261000e5761098b610771565b3373ffffffffffffffffffffffffffffffffffffffff8216036109b45761091190600435611984565b6040517f08c379a000000000000000000000000000000000000000000000000000000000815260206004820152602f60248201527f416363657373436f6e74726f6c3a2063616e206f6e6c792072656e6f756e636560448201527f20726f6c657320666f722073656c6600000000000000000000000000000000006064820152608490fd5b503461000e576040367ffffffffffffffffffffffffffffffffffffffffffffffffffffffffffffffffc011261000e576107d9610a7461074e565b336000526003602052610aa9602435610aa38360406000209060018060a01b0316600052602052604060002090565b54611a82565b9033611d30565b503461000e576000367ffffffffffffffffffffffffffffffffffffffffffffffffffffffffffffffffc011261000e57610af5333b1515610aef6125ad565b906125e6565b610afd611699565b60075460ff811615610b3c5760ff19166007557f5db9ee0a495bf2e6ff9c91a7834c1ba4fdd244a5e8aa4e537bd38aeae4b073aa6020604051338152a1005b6040517f08c379a000000000000000000000000000000000000000000000000000000000815260206004820152601460248201527f5061757361626c653a206e6f74207061757365640000000000000000000000006044820152606490fd5b503461000e576040367ffffffffffffffffffffffffffffffffffffffffffffffffffffffffffffffffc011261000e57610911610bd661074e565b610be5333b1515610aef6125ad565b610bed61181e565b60243590612624565b503461000e576020367ffffffffffffffffffffffffffffffffffffffffffffffffffffffffffffffffc011261000e5761091160043533612033565b503461000e576000367ffffffffffffffffffffffffffffffffffffffffffffffffffffffffffffffffc011261000e57602060ff600754166040519015158152f35b503461000e576020367ffffffffffffffffffffffffffffffffffffffffffffffffffffffffffffffffc011261000e5773ffffffffffffffffffffffffffffffffffffffff610cc161074e565b1660005260026020526020604060002054604051908152f35b503461000e576000367ffffffffffffffffffffffffffffffffffffffffffffffffffffffffffffffffc011261000e576020600a54604051908152f35b503461000e576040367ffffffffffffffffffffffffffffffffffffffffffffffffffffffffffffffffc011261000e57610911610d5261074e565b60243590610d61823383611ed0565b612033565b503461000e576000367ffffffffffffffffffffffffffffffffffffffffffffffffffffffffffffffffc011261000e57610da5333b1515610aef6125ad565b610dad611699565b60075460ff8116610def5760019060ff1916176007557f62e78cea01bee320cd4e420270b5ea74000d11b0c9f74754ebdbfc544b05a2586020604051338152a1005b6040517f08c379a000000000000000000000000000000000000000000000000000000000815260206004820152601060248201527f5061757361626c653a20706175736564000000000000000000000000000000006044820152606490fd5b503461000e576040367ffffffffffffffffffffffffffffffffffffffffffffffffffffffffffffffffc011261000e576020600435610ea681610e8f610771565b610e9e333b1515610aef6125ad565b610d6161181e565b604051908152f35b503461000e576040367ffffffffffffffffffffffffffffffffffffffffffffffffffffffffffffffffc011261000e5760043560005260016020526020610efb602435604060002061243a565b905460405160039290921b1c73ffffffffffffffffffffffffffffffffffffffff168152f35b503461000e576020367ffffffffffffffffffffffffffffffffffffffffffffffffffffffffffffffffc011261000e577fd6c519a9f18a7ef0183f3bee1f48840de0b5e4f1f6a27a89abd46e7a242d89f86020600435610f7f611699565b80600a55604051908152a1005b503461000e576040367ffffffffffffffffffffffffffffffffffffffffffffffffffffffffffffffffc011261000e57602060ff610ff1610fcb610771565b6004356000526000845260406000209060018060a01b0316600052602052604060002090565b54166040519015158152f35b503461000e5760008060031936011261070f576040519080600e549060019180831c928082169283156110b7575b60209283861085146106d857858852602088019490811561069e575060011461105e576103aa8761063981890382611962565b600e60005294509192917fbb7b4a454dc3493923482f07822329ed19e8244eff582cc204f8554c3620c3fd5b8386106110a65750505091019050610639826103aa3880610629565b80548587015294820194810161108a565b93607f169361102b565b503461000e576000367ffffffffffffffffffffffffffffffffffffffffffffffffffffffffffffffffc011261000e57602060405160008152f35b503461000e576040367ffffffffffffffffffffffffffffffffffffffffffffffffffffffffffffffffc011261000e5761113461074e565b602435903360005260036020526111618160406000209060018060a01b0316600052602052604060002090565b54918083106111825761117692039033611d30565b60405160018152602090f35b6040517f08c379a000000000000000000000000000000000000000000000000000000000815260206004820152602560248201527f45524332303a2064656372656173656420616c6c6f77616e63652062656c6f7760448201527f207a65726f0000000000000000000000000000000000000000000000000000006064820152608490fd5b503461000e576040367ffffffffffffffffffffffffffffffffffffffffffffffffffffffffffffffffc011261000e576107d961124261074e565b6024359033611bae565b503461000e576000367ffffffffffffffffffffffffffffffffffffffffffffffffffffffffffffffffc011261000e57600b5460405173ffffffffffffffffffffffffffffffffffffffff9091168152602090f35b503461000e576000367ffffffffffffffffffffffffffffffffffffffffffffffffffffffffffffffffc011261000e576020600954604051908152f35b503461000e576040367ffffffffffffffffffffffffffffffffffffffffffffffffffffffffffffffffc011261000e576020600435610ea68161131f610771565b61132e333b1515610aef6125ad565b61133661181e565b612624565b503461000e576020367ffffffffffffffffffffffffffffffffffffffffffffffffffffffffffffffffc011261000e5760043560005260016020526020604060002054604051908152f35b503461000e576000367ffffffffffffffffffffffffffffffffffffffffffffffffffffffffffffffffc011261000e5760206040517f9f2df0fed2c77648de5860a4cc508cd0818c85b8b8a1ab4ceeef8d981c8956a68152f35b503461000e5760408060031936011261000e57600435906113ff610771565b600083815260208181528382206001015480835284832033845290915260408220549094919392919060ff161561143d579061143a91611984565b51f35b6115086048846114d8886114ca61145c61145633612310565b926123be565b84519586937f416363657373436f6e74726f6c3a206163636f756e7420000000000000000000602086015261149b815180926020603789019101610558565b84017f206973206d697373696e6720726f6c65200000000000000000000000000000006037820152019061190b565b03601f198101845283611962565b517f08c379a00000000000000000000000000000000000000000000000000000000081529182916004830161058d565b0390fd5b503461000e576000367ffffffffffffffffffffffffffffffffffffffffffffffffffffffffffffffffc011261000e57600c5460405173ffffffffffffffffffffffffffffffffffffffff9091168152602090f35b503461000e576040367ffffffffffffffffffffffffffffffffffffffffffffffffffffffffffffffffc011261000e5760206115dc61159e61074e565b6115a6610771565b73ffffffffffffffffffffffffffffffffffffffff91821660009081526003855260408082209290931681526020919091522090565b54604051908152f35b503461000e576000367ffffffffffffffffffffffffffffffffffffffffffffffffffffffffffffffffc011261000e5760206040517f65d7a28e3265b37a6474929f336521b332c1681b933f6cb9f3376673440d862a8152f35b503461000e576000367ffffffffffffffffffffffffffffffffffffffffffffffffffffffffffffffffc011261000e5760206040517f112e48a576fb3a75acc75d9fcf6e0bc670b27b1dbcd2463502e10e68cf57d6fd8152f35b3360009081527f8af3556a8cc4f45a5fe7bdc27dc6ee752155f7c603796de28ab9833361fa757160205260409020547fb9dacdf02281f2e98ddbadaaf44db270b3d5a916342df47c59f77937a6bcd5d89060ff16156116f55750565b6116fe33612310565b906117076121f5565b90603061171383612246565b53607861171f8361225c565b5360415b600181116117c2576115086048611790866117828761174288156122c5565b6040519485937f416363657373436f6e74726f6c3a206163636f756e7420000000000000000000602086015261149b815180926020603789019101610558565b03601f198101835282611962565b6040517f08c379a00000000000000000000000000000000000000000000000000000000081529182916004830161058d565b9080600f61180c92166010811015611811575b7f3031323334353637383961626364656600000000000000000000000000000000901a611802848661226d565b5360041c9161228c565b611723565b61181961222f565b6117d5565b3360009081527f930998099b263558799c5489879946eacbc400e73587bc12f26d63614018880a60205260409020547f112e48a576fb3a75acc75d9fcf6e0bc670b27b1dbcd2463502e10e68cf57d6fd9060ff161561187a5750565b61188333612310565b9061188c6121f5565b90603061189883612246565b5360786118a48361225c565b5360415b600181116118c7576115086048611790866117828761174288156122c5565b9080600f61190692166010811015611811577f3031323334353637383961626364656600000000000000000000000000000000901a611802848661226d565b6118a8565b9061191e60209282815194859201610558565b0190565b50634e487b7160e01b600052604160045260246000fd5b6040810190811067ffffffffffffffff82111761195557604052565b61195d611922565b604052565b90601f8019910116810190811067ffffffffffffffff82111761195557604052565b9060406119e2926000908082528160205260ff6119b5858585209060018060a01b0316600052602052604060002090565b54166119e5575b815260016020522073ffffffffffffffffffffffffffffffffffffffff909116906124de565b50565b808252602082815283832073ffffffffffffffffffffffffffffffffffffffff86166000818152919092526040902080547fffffffffffffffffffffffffffffffffffffffffffffffffffffffffffffff00169055835133919083907ff6391f5c32d9c69d2a47ea670b442974b53935d1edc7fd64eb21e047a839171b908690a46119bc565b50634e487b7160e01b600052601160045260246000fd5b81198111611a8e570190565b61191e611a6b565b15611a9d57565b6040517f08c379a000000000000000000000000000000000000000000000000000000000815260206004820152602360248201527f45524332303a207472616e7366657220746f20746865207a65726f206164647260448201527f65737300000000000000000000000000000000000000000000000000000000006064820152608490fd5b15611b2957565b6040517f08c379a000000000000000000000000000000000000000000000000000000000815260206004820152602660248201527f45524332303a207472616e7366657220616d6f756e742065786365656473206260448201527f616c616e636500000000000000000000000000000000000000000000000000006064820152608490fd5b9173ffffffffffffffffffffffffffffffffffffffff8084169290918315611cab57611c89827fddf252ad1be2c89b69c2b068fc378daa952ba7f163c4a11628f55a4df523b3ef94611ca6941696611c07881515611a96565b611c0f612164565b73ffffffffffffffffffffffffffffffffffffffff81166000908152600260205260409020611c6190859054611c4782821015611b22565b039160018060a01b03166000526002602052604060002090565b5573ffffffffffffffffffffffffffffffffffffffff16600090815260026020526040902090565b611c94828254611a82565b90556040519081529081906020820190565b0390a3565b6040517f08c379a000000000000000000000000000000000000000000000000000000000815260206004820152602560248201527f45524332303a207472616e736665722066726f6d20746865207a65726f20616460448201527f64726573730000000000000000000000000000000000000000000000000000006064820152608490fd5b73ffffffffffffffffffffffffffffffffffffffff8082169291908315611e4c578216938415611dc75780611db67f8c5be1e5ebec7d5bd14f71427d1e84f3dd0314c0f7b2291e5b200ac8c7c3b92594611d9f611ca69560018060a01b03166000526003602052604060002090565b9060018060a01b0316600052602052604060002090565b556040519081529081906020820190565b6040517f08c379a000000000000000000000000000000000000000000000000000000000815260206004820152602260248201527f45524332303a20617070726f766520746f20746865207a65726f20616464726560448201527f73730000000000000000000000000000000000000000000000000000000000006064820152608490fd5b6040517f08c379a0000000000000000000000000000000000000000000000000000000008152602060048201526024808201527f45524332303a20617070726f76652066726f6d20746865207a65726f2061646460448201527f72657373000000000000000000000000000000000000000000000000000000006064820152608490fd5b73ffffffffffffffffffffffffffffffffffffffff8082166000908152600360209081526040808320938616835292905220909190549260018401611f16575b50505050565b808410611f3157611f28930391611d30565b38808080611f10565b6040517f08c379a000000000000000000000000000000000000000000000000000000000815260206004820152601d60248201527f45524332303a20696e73756666696369656e7420616c6c6f77616e63650000006044820152606490fd5b15611f9757565b6040517f08c379a000000000000000000000000000000000000000000000000000000000815260206004820152602260248201527f45524332303a206275726e20616d6f756e7420657863656564732062616c616e60448201527f63650000000000000000000000000000000000000000000000000000000000006064820152608490fd5b818110612027570390565b61202f611a6b565b0390565b9073ffffffffffffffffffffffffffffffffffffffff82169081156120df57611ca67fddf252ad1be2c89b69c2b068fc378daa952ba7f163c4a11628f55a4df523b3ef91600094612082612164565b73ffffffffffffffffffffffffffffffffffffffff811660009081526002602052604090206120ba90839054611c4782821015611f90565b556120cf6120ca8260045461201c565b600455565b6040519081529081906020820190565b6040517f08c379a000000000000000000000000000000000000000000000000000000000815260206004820152602160248201527f45524332303a206275726e2066726f6d20746865207a65726f2061646472657360448201527f73000000000000000000000000000000000000000000000000000000000000006064820152608490fd5b60ff6007541661217057565b6040517f08c379a000000000000000000000000000000000000000000000000000000000815260206004820152602a60248201527f45524332305061757361626c653a20746f6b656e207472616e7366657220776860448201527f696c6520706175736564000000000000000000000000000000000000000000006064820152608490fd5b604051906080820182811067ffffffffffffffff821117612222575b604052604282526060366020840137565b61222a611922565b612211565b50634e487b7160e01b600052603260045260246000fd5b602090805115612254570190565b61191e61222f565b602190805160011015612254570190565b90602091805182101561227f57010190565b61228761222f565b010190565b80156122b8575b7fffffffffffffffffffffffffffffffffffffffffffffffffffffffffffffffff0190565b6122c0611a6b565b612293565b156122cc57565b606460405162461bcd60e51b815260206004820152602060248201527f537472696e67733a20686578206c656e67746820696e73756666696369656e746044820152fd5b604051906060820182811067ffffffffffffffff8211176123b1575b604052602a82526040366020840137603061234683612246565b5360786123528361225c565b536029905b6001821161236d5761236a9150156122c5565b90565b80600f6123ab92166010811015611811577f3031323334353637383961626364656600000000000000000000000000000000901a611802848661226d565b90612357565b6123b9611922565b61232c565b6123c66121f5565b9060306123d283612246565b5360786123de8361225c565b536041905b600182116123f65761236a9150156122c5565b80600f61243492166010811015611811577f3031323334353637383961626364656600000000000000000000000000000000901a611802848661226d565b906123e3565b8054821015612453575b60005260206000200190600090565b61245b61222f565b612444565b9161247c9183549060031b600019811b9283911b169119161790565b9055565b80549081156124c8577fffffffffffffffffffffffffffffffffffffffffffffffffffffffffffffffff918201916124b8838361243a565b909182549160031b1b1916905555565b634e487b7160e01b600052603160045260246000fd5b60018101918060005282602052604060002054928315156000146125a4576125326125419385600160009710612597575b86198082019083546001811061258a575b0190808203612547575b505050612480565b90600052602052604060002090565b55600190565b61257161256b9161255b612581948761243a565b90549060031b1c9283918761243a565b90612460565b8590600052602052604060002090565b5538808061252a565b612592611a6b565b612520565b61259f611a6b565b61250f565b50505050600090565b604051906125ba82611939565b600382527f38303200000000000000000000000000000000000000000000000000000000006020830152565b156125ee5750565b6040517f08c379a0000000000000000000000000000000000000000000000000000000008152908190611508906004830161058d565b73ffffffffffffffffffffffffffffffffffffffff81169182156126c05760207fddf252ad1be2c89b69c2b068fc378daa952ba7f163c4a11628f55a4df523b3ef916126aa600094612674612164565b61268083600454611a82565b60045573ffffffffffffffffffffffffffffffffffffffff16600090815260026020526040902090565b6126b5828254611a82565b9055604051908152a3565b6040517f08c379a000000000000000000000000000000000000000000000000000000000815260206004820152601f60248201527f45524332303a206d696e7420746f20746865207a65726f2061646472657373006044820152606490fd5b6040519061272c82611939565b600382527f38303300000000000000000000000000000000000000000000000000000000006020830152565b6040519061276582611939565b600382527f38303100000000000000000000000000000000000000000000000000000000006020830152565b6040519061279e82611939565b600382527f38303000000000000000000000000000000000000000000000000000000000006020830152565b7f112e48a576fb3a75acc75d9fcf6e0bc670b27b1dbcd2463502e10e68cf57d6fd81036129d35750612801813b1515610aef61271f565b600b5473ffffffffffffffffffffffffffffffffffffffff908116156128ae575050612839600954612831612791565b9042116125e6565b600b5461285b9073ffffffffffffffffffffffffffffffffffffffff166129dd565b337fda12ee837e6978172aaf54b16145ffe08414fd8710092ef033c71b8eb6ec189a6000604051a2600b80547fffffffffffffffffffffffff00000000000000000000000000000000000000001690555b565b60095415612998577f112e48a576fb3a75acc75d9fcf6e0bc670b27b1dbcd2463502e10e68cf57d6fd60005260016020527f298e4e2fc26cd2a88f744ccefe049db51c8315ee831a0b84af6aef760f09d12b906129327fd38805d0ec006fe5031f19b1b1e5de1f3bc794c86102d7e37540dc9587a7951654600a5411610aef612758565b61294661294160085442611a82565b600955565b600b80547fffffffffffffffffffffffff00000000000000000000000000000000000000001673ffffffffffffffffffffffffffffffffffffffff8516179055600954604051908152921691602090a2565b906129a2816129dd565b167fda12ee837e6978172aaf54b16145ffe08414fd8710092ef033c71b8eb6ec189a6000604051a26128ac42600955565b906128ac91612b05565b73ffffffffffffffffffffffffffffffffffffffff811660009081527f930998099b263558799c5489879946eacbc400e73587bc12f26d63614018880a60205260408082206119e29392907f112e48a576fb3a75acc75d9fcf6e0bc670b27b1dbcd2463502e10e68cf57d6fd9060ff905b541615612a7c575b815260016020522073ffffffffffffffffffffffffffffffffffffffff90911690612b36565b808252602082815283832073ffffffffffffffffffffffffffffffffffffffff86166000818152919092526040902080547fffffffffffffffffffffffffffffffffffffffffffffffffffffffffffffff00166001179055835133919083907f2f8788117e7eff1d82e926ec794901d17c78024a50270940304540a733656f0d908690a4612a56565b9060406119e2926000908082528160205260ff612a4e858585209060018060a01b0316600052602052604060002090565b6001810190826000528160205260406000205415600014612bb35782612b91612b78835468010000000000000000811015612ba6575b6001810185558461243a565b819391549060031b600019811b9283911b169119161790565b90555491600052602052604060002055600190565b612bae611922565b612b6c565b50505060009056fea264697066735822122068251fab19ab255c5cab453b6b229c6667849cd8af70601510a4d0c0fea18d2b64736f6c634300080e0033",
    "devdoc": {
        "author": "Kresko",
        "kind": "dev",
        "methods": {
            "allowance(address,address)": {
                "details": "See {IERC20-allowance}."
            },
            "approve(address,uint256)": {
                "details": "See {IERC20-approve}. NOTE: If `amount` is the maximum `uint256`, the allowance is not updated on `transferFrom`. This is semantically equivalent to an infinite approval. Requirements: - `spender` cannot be the zero address."
            },
            "balanceOf(address)": {
                "details": "See {IERC20-balanceOf}."
            },
            "burn(uint256)": {
                "details": "Destroys `amount` tokens from the caller. See {ERC20-_burn}."
            },
            "burnFrom(address,uint256)": {
                "details": "Destroys `amount` tokens from `account`, deducting from the caller's allowance. See {ERC20-_burn} and {ERC20-allowance}. Requirements: - the caller must have allowance for ``accounts``'s tokens of at least `amount`."
            },
            "convertToAssets(uint256)": {
                "params": {
                    "shares": "amount of shares"
                },
                "returns": {
                    "_0": "assets with kiss, this is equal to shares as there is no rebasing"
                }
            },
            "convertToShares(uint256)": {
                "params": {
                    "assets": "amount of assets"
                },
                "returns": {
                    "_0": "shares with kiss, this is equal to assets as there is no rebasing"
                }
            },
            "decimals()": {
                "details": "Returns the number of decimals used to get its user representation. For example, if `decimals` equals `2`, a balance of `505` tokens should be displayed to a user as `5.05` (`505 / 10 ** 2`). Tokens usually opt for a value of 18, imitating the relationship between Ether and Wei. This is the value {ERC20} uses, unless this function is overridden; NOTE: This information is only used for _display_ purposes: it in no way affects any of the arithmetic of the contract, including {IERC20-balanceOf} and {IERC20-transfer}."
            },
            "decreaseAllowance(address,uint256)": {
                "details": "Atomically decreases the allowance granted to `spender` by the caller. This is an alternative to {approve} that can be used as a mitigation for problems described in {IERC20-approve}. Emits an {Approval} event indicating the updated allowance. Requirements: - `spender` cannot be the zero address. - `spender` must have allowance for the caller of at least `subtractedValue`."
            },
            "destroy(uint256,address)": {
                "params": {
                    "_amount": "amount to burn",
                    "_from": "address to burn tokens from"
                }
            },
            "getRoleAdmin(bytes32)": {
                "details": "Returns the admin role that controls `role`. See {grantRole} and {revokeRole}. To change a role's admin, use {_setRoleAdmin}."
            },
            "getRoleMember(bytes32,uint256)": {
                "details": "Returns one of the accounts that have `role`. `index` must be a value between 0 and {getRoleMemberCount}, non-inclusive. Role bearers are not sorted in any particular way, and their ordering may change at any point. WARNING: When using {getRoleMember} and {getRoleMemberCount}, make sure you perform all queries on the same block. See the following https://forum.openzeppelin.com/t/iterating-over-elements-on-enumerableset-in-openzeppelin-contracts/2296[forum post] for more information."
            },
            "getRoleMemberCount(bytes32)": {
                "details": "Returns the number of accounts that have `role`. Can be used together with {getRoleMember} to enumerate all bearers of a role."
            },
            "grantRole(bytes32,address)": {
                "params": {
                    "_role": "role to grant",
                    "_to": "address to grant role for"
                }
            },
            "hasRole(bytes32,address)": {
                "details": "Returns `true` if `account` has been granted `role`."
            },
            "increaseAllowance(address,uint256)": {
                "details": "Atomically increases the allowance granted to `spender` by the caller. This is an alternative to {approve} that can be used as a mitigation for problems described in {IERC20-approve}. Emits an {Approval} event indicating the updated allowance. Requirements: - `spender` cannot be the zero address."
            },
            "issue(uint256,address)": {
                "params": {
                    "_amount": "amount to mint",
                    "_to": "address to mint tokens to"
                }
            },
            "mint(address,uint256)": {
                "details": "Does not return a value",
                "params": {
                    "_amount": "amount to mint",
                    "_to": "address to mint tokens to"
                }
            },
            "name()": {
                "details": "Returns the name of the token."
            },
            "paused()": {
                "details": "Returns true if the contract is paused, and false otherwise."
            },
            "renounceRole(bytes32,address)": {
                "details": "Revokes `role` from the calling account. Roles are often managed via {grantRole} and {revokeRole}: this function's purpose is to provide a mechanism for accounts to lose their privileges if they are compromised (such as when a trusted device is misplaced). If the calling account had been revoked `role`, emits a {RoleRevoked} event. Requirements: - the caller must be `account`. May emit a {RoleRevoked} event."
            },
            "revokeRole(bytes32,address)": {
                "details": "Revokes `role` from `account`. If `account` had been granted `role`, emits a {RoleRevoked} event. Requirements: - the caller must have ``role``'s admin role. May emit a {RoleRevoked} event."
            },
            "setMaxOperators(uint256)": {
                "params": {
                    "_maxOperators": "new maximum amount of operators"
                }
            },
            "setPendingOperatorWaitPeriod(uint256)": {
                "params": {
                    "_newPeriod": "the period, in seconds"
                }
            },
            "supportsInterface(bytes4)": {
                "details": "See {IERC165-supportsInterface}."
            },
            "symbol()": {
                "details": "Returns the symbol of the token, usually a shorter version of the name."
            },
            "totalSupply()": {
                "details": "See {IERC20-totalSupply}."
            },
            "transfer(address,uint256)": {
                "details": "See {IERC20-transfer}. Requirements: - `to` cannot be the zero address. - the caller must have a balance of at least `amount`."
            },
            "transferFrom(address,address,uint256)": {
                "details": "See {IERC20-transferFrom}. Emits an {Approval} event indicating the updated allowance. This is not required by the EIP. See the note at the beginning of {ERC20}. NOTE: Does not update the allowance if the current allowance is the maximum `uint256`. Requirements: - `from` and `to` cannot be the zero address. - `from` must have a balance of at least `amount`. - the caller must have allowance for ``from``'s tokens of at least `amount`."
            }
        },
        "title": "Kresko Integrated Stable System This is a non-rebasing Kresko Asset, intended to be paired to a stable-value underlying.",
        "version": 1
    },
    "userdoc": {
        "kind": "user",
        "methods": {
            "convertToAssets(uint256)": {
                "notice": "KreskoAssetIssuer compability"
            },
            "convertToShares(uint256)": {
                "notice": "KreskoAssetIssuer compability"
            },
            "destroy(uint256,address)": {
                "notice": "This function removes KISS from circulation Caller must be a contract and have the OPERATOR_ROLE"
            },
            "grantRole(bytes32,address)": {
                "notice": "Overrides `AccessControl.grantRole` for following: * Implement a cooldown period of `pendingOperatorWaitPeriod` minutes for setting a new OPERATOR_ROLE * EOA cannot be granted the operator roleOPERATOR_ROLE can still be revoked without this cooldown periodPAUSER_ROLE can still be granted without this cooldown period"
            },
            "issue(uint256,address)": {
                "notice": "This function adds KISS to circulation Caller must be a contract and have the OPERATOR_ROLE"
            },
            "mint(address,uint256)": {
                "notice": "Use operator role for minting, so override the parent Caller must be a contract and have the OPERATOR_ROLE"
            },
            "pause()": {
                "notice": "Allows ADMIN_ROLE to perform a pause"
            },
            "setMaxOperators(uint256)": {
                "notice": "Allows ADMIN_ROLE to change the maximum operators"
            },
            "setPendingOperatorWaitPeriod(uint256)": {
                "notice": "Set a new waiting period for a new operator Must be at least 15 minutes"
            },
            "unpause()": {
                "notice": "Allows ADMIN_ROLE to unpause"
            }
        },
        "version": 1
    },
    "storageLayout": {
        "storage": [
            {
                "astId": 2754,
                "contract": "src/contracts/kiss/KISS.sol:KISS",
                "label": "_roles",
                "offset": 0,
                "slot": "0",
                "type": "t_mapping(t_bytes32,t_struct(RoleData)2749_storage)"
            },
            {
                "astId": 3068,
                "contract": "src/contracts/kiss/KISS.sol:KISS",
                "label": "_roleMembers",
                "offset": 0,
                "slot": "1",
                "type": "t_mapping(t_bytes32,t_struct(AddressSet)5806_storage)"
            },
            {
                "astId": 3396,
                "contract": "src/contracts/kiss/KISS.sol:KISS",
                "label": "_balances",
                "offset": 0,
                "slot": "2",
                "type": "t_mapping(t_address,t_uint256)"
            },
            {
                "astId": 3402,
                "contract": "src/contracts/kiss/KISS.sol:KISS",
                "label": "_allowances",
                "offset": 0,
                "slot": "3",
                "type": "t_mapping(t_address,t_mapping(t_address,t_uint256))"
            },
            {
                "astId": 3404,
                "contract": "src/contracts/kiss/KISS.sol:KISS",
                "label": "_totalSupply",
                "offset": 0,
                "slot": "4",
                "type": "t_uint256"
            },
            {
                "astId": 3406,
                "contract": "src/contracts/kiss/KISS.sol:KISS",
                "label": "_name",
                "offset": 0,
                "slot": "5",
                "type": "t_string_storage"
            },
            {
                "astId": 3408,
                "contract": "src/contracts/kiss/KISS.sol:KISS",
                "label": "_symbol",
                "offset": 0,
                "slot": "6",
                "type": "t_string_storage"
            },
            {
                "astId": 3290,
                "contract": "src/contracts/kiss/KISS.sol:KISS",
                "label": "_paused",
                "offset": 0,
                "slot": "7",
                "type": "t_bool"
            },
            {
                "astId": 8661,
                "contract": "src/contracts/kiss/KISS.sol:KISS",
                "label": "pendingOperatorWaitPeriod",
                "offset": 0,
                "slot": "8",
                "type": "t_uint256"
            },
            {
                "astId": 8663,
                "contract": "src/contracts/kiss/KISS.sol:KISS",
                "label": "pendingOperatorUnlockTime",
                "offset": 0,
                "slot": "9",
                "type": "t_uint256"
            },
            {
                "astId": 8665,
                "contract": "src/contracts/kiss/KISS.sol:KISS",
                "label": "maxOperators",
                "offset": 0,
                "slot": "10",
                "type": "t_uint256"
            },
            {
                "astId": 8667,
                "contract": "src/contracts/kiss/KISS.sol:KISS",
                "label": "pendingOperator",
                "offset": 0,
                "slot": "11",
                "type": "t_address"
            },
            {
                "astId": 8669,
                "contract": "src/contracts/kiss/KISS.sol:KISS",
                "label": "kresko",
                "offset": 0,
                "slot": "12",
                "type": "t_address"
            },
            {
                "astId": 8671,
                "contract": "src/contracts/kiss/KISS.sol:KISS",
                "label": "_name",
                "offset": 0,
                "slot": "13",
                "type": "t_string_storage"
            },
            {
                "astId": 8673,
                "contract": "src/contracts/kiss/KISS.sol:KISS",
                "label": "_symbol",
                "offset": 0,
                "slot": "14",
                "type": "t_string_storage"
            },
            {
                "astId": 8675,
                "contract": "src/contracts/kiss/KISS.sol:KISS",
                "label": "_decimals",
                "offset": 0,
                "slot": "15",
                "type": "t_uint8"
            }
        ],
        "types": {
            "t_address": {
                "encoding": "inplace",
                "label": "address",
                "numberOfBytes": "20"
            },
            "t_array(t_bytes32)dyn_storage": {
                "base": "t_bytes32",
                "encoding": "dynamic_array",
                "label": "bytes32[]",
                "numberOfBytes": "32"
            },
            "t_bool": {
                "encoding": "inplace",
                "label": "bool",
                "numberOfBytes": "1"
            },
            "t_bytes32": {
                "encoding": "inplace",
                "label": "bytes32",
                "numberOfBytes": "32"
            },
            "t_mapping(t_address,t_bool)": {
                "encoding": "mapping",
                "key": "t_address",
                "label": "mapping(address => bool)",
                "numberOfBytes": "32",
                "value": "t_bool"
            },
            "t_mapping(t_address,t_mapping(t_address,t_uint256))": {
                "encoding": "mapping",
                "key": "t_address",
                "label": "mapping(address => mapping(address => uint256))",
                "numberOfBytes": "32",
                "value": "t_mapping(t_address,t_uint256)"
            },
            "t_mapping(t_address,t_uint256)": {
                "encoding": "mapping",
                "key": "t_address",
                "label": "mapping(address => uint256)",
                "numberOfBytes": "32",
                "value": "t_uint256"
            },
            "t_mapping(t_bytes32,t_struct(AddressSet)5806_storage)": {
                "encoding": "mapping",
                "key": "t_bytes32",
                "label": "mapping(bytes32 => struct EnumerableSet.AddressSet)",
                "numberOfBytes": "32",
                "value": "t_struct(AddressSet)5806_storage"
            },
            "t_mapping(t_bytes32,t_struct(RoleData)2749_storage)": {
                "encoding": "mapping",
                "key": "t_bytes32",
                "label": "mapping(bytes32 => struct AccessControl.RoleData)",
                "numberOfBytes": "32",
                "value": "t_struct(RoleData)2749_storage"
            },
            "t_mapping(t_bytes32,t_uint256)": {
                "encoding": "mapping",
                "key": "t_bytes32",
                "label": "mapping(bytes32 => uint256)",
                "numberOfBytes": "32",
                "value": "t_uint256"
            },
            "t_string_storage": {
                "encoding": "bytes",
                "label": "string",
                "numberOfBytes": "32"
            },
            "t_struct(AddressSet)5806_storage": {
                "encoding": "inplace",
                "label": "struct EnumerableSet.AddressSet",
                "members": [
                    {
                        "astId": 5805,
                        "contract": "src/contracts/kiss/KISS.sol:KISS",
                        "label": "_inner",
                        "offset": 0,
                        "slot": "0",
                        "type": "t_struct(Set)5505_storage"
                    }
                ],
                "numberOfBytes": "64"
            },
            "t_struct(RoleData)2749_storage": {
                "encoding": "inplace",
                "label": "struct AccessControl.RoleData",
                "members": [
                    {
                        "astId": 2746,
                        "contract": "src/contracts/kiss/KISS.sol:KISS",
                        "label": "members",
                        "offset": 0,
                        "slot": "0",
                        "type": "t_mapping(t_address,t_bool)"
                    },
                    {
                        "astId": 2748,
                        "contract": "src/contracts/kiss/KISS.sol:KISS",
                        "label": "adminRole",
                        "offset": 0,
                        "slot": "1",
                        "type": "t_bytes32"
                    }
                ],
                "numberOfBytes": "64"
            },
            "t_struct(Set)5505_storage": {
                "encoding": "inplace",
                "label": "struct EnumerableSet.Set",
                "members": [
                    {
                        "astId": 5500,
                        "contract": "src/contracts/kiss/KISS.sol:KISS",
                        "label": "_values",
                        "offset": 0,
                        "slot": "0",
                        "type": "t_array(t_bytes32)dyn_storage"
                    },
                    {
                        "astId": 5504,
                        "contract": "src/contracts/kiss/KISS.sol:KISS",
                        "label": "_indexes",
                        "offset": 0,
                        "slot": "1",
                        "type": "t_mapping(t_bytes32,t_uint256)"
                    }
                ],
                "numberOfBytes": "64"
            },
            "t_uint256": {
                "encoding": "inplace",
                "label": "uint256",
                "numberOfBytes": "32"
            },
            "t_uint8": {
                "encoding": "inplace",
                "label": "uint8",
                "numberOfBytes": "1"
            }
        }
    }
}