{
    "address": "0xFAd672698652C6Af0A295b2e49700C55D1b34b9d",
    "abi": [
        {
            "inputs": [
                {
                    "internalType": "contract IKresko",
                    "name": "_kresko",
                    "type": "address"
                },
                {
                    "internalType": "contract IKrStaking",
                    "name": "_staking",
                    "type": "address"
                }
            ],
            "stateMutability": "nonpayable",
            "type": "constructor"
        },
        {
            "inputs": [],
            "name": "Kresko",
            "outputs": [
                {
                    "internalType": "contract IKresko",
                    "name": "",
                    "type": "address"
                }
            ],
            "stateMutability": "view",
            "type": "function"
        },
        {
            "inputs": [],
            "name": "Staking",
            "outputs": [
                {
                    "internalType": "contract IKrStaking",
                    "name": "",
                    "type": "address"
                }
            ],
            "stateMutability": "view",
            "type": "function"
        },
        {
            "inputs": [
                {
                    "internalType": "address[]",
                    "name": "_assets",
                    "type": "address[]"
                },
                {
                    "internalType": "contract AggregatorV2V3Interface[]",
                    "name": "_oracles",
                    "type": "address[]"
                }
            ],
            "name": "batchPrices",
            "outputs": [
                {
                    "components": [
                        {
                            "internalType": "uint256",
                            "name": "price",
                            "type": "uint256"
                        },
                        {
                            "internalType": "uint256",
                            "name": "timestamp",
                            "type": "uint256"
                        },
                        {
                            "internalType": "address",
                            "name": "assetAddress",
                            "type": "address"
                        },
                        {
                            "internalType": "uint80",
                            "name": "roundId",
                            "type": "uint80"
                        }
                    ],
                    "internalType": "struct KreskoViewer.Price[]",
                    "name": "result",
                    "type": "tuple[]"
                }
            ],
            "stateMutability": "view",
            "type": "function"
        },
        {
            "inputs": [
                {
                    "internalType": "address",
                    "name": "_account",
                    "type": "address"
                }
            ],
            "name": "borrowingPowerUSD",
            "outputs": [
                {
                    "components": [
                        {
                            "internalType": "uint256",
                            "name": "rawValue",
                            "type": "uint256"
                        }
                    ],
                    "internalType": "struct FixedPoint.Unsigned",
                    "name": "",
                    "type": "tuple"
                }
            ],
            "stateMutability": "view",
            "type": "function"
        },
        {
            "inputs": [
                {
                    "internalType": "address",
                    "name": "_account",
                    "type": "address"
                }
            ],
            "name": "collateralAssetInfoFor",
            "outputs": [
                {
                    "components": [
                        {
                            "internalType": "address",
                            "name": "assetAddress",
                            "type": "address"
                        },
                        {
                            "internalType": "address",
                            "name": "oracleAddress",
                            "type": "address"
                        },
                        {
                            "internalType": "address",
                            "name": "underlyingRebasingToken",
                            "type": "address"
                        },
                        {
                            "internalType": "uint256",
                            "name": "amount",
                            "type": "uint256"
                        },
                        {
                            "components": [
                                {
                                    "internalType": "uint256",
                                    "name": "rawValue",
                                    "type": "uint256"
                                }
                            ],
                            "internalType": "struct FixedPoint.Unsigned",
                            "name": "amountUSD",
                            "type": "tuple"
                        },
                        {
                            "components": [
                                {
                                    "internalType": "uint256",
                                    "name": "rawValue",
                                    "type": "uint256"
                                }
                            ],
                            "internalType": "struct FixedPoint.Unsigned",
                            "name": "cFactor",
                            "type": "tuple"
                        },
                        {
                            "internalType": "uint8",
                            "name": "decimals",
                            "type": "uint8"
                        },
                        {
                            "internalType": "uint256",
                            "name": "index",
                            "type": "uint256"
                        },
                        {
                            "internalType": "uint256",
                            "name": "price",
                            "type": "uint256"
                        },
                        {
                            "internalType": "string",
                            "name": "symbol",
                            "type": "string"
                        },
                        {
                            "internalType": "string",
                            "name": "name",
                            "type": "string"
                        }
                    ],
                    "internalType": "struct KreskoViewer.CollateralAssetInfoUser[]",
                    "name": "result",
                    "type": "tuple[]"
                },
                {
                    "components": [
                        {
                            "internalType": "uint256",
                            "name": "rawValue",
                            "type": "uint256"
                        }
                    ],
                    "internalType": "struct FixedPoint.Unsigned",
                    "name": "totalCollateralUSD",
                    "type": "tuple"
                }
            ],
            "stateMutability": "view",
            "type": "function"
        },
        {
            "inputs": [
                {
                    "internalType": "address[]",
                    "name": "assetAddresses",
                    "type": "address[]"
                }
            ],
            "name": "collateralAssetInfos",
            "outputs": [
                {
                    "components": [
                        {
                            "internalType": "address",
                            "name": "assetAddress",
                            "type": "address"
                        },
                        {
                            "internalType": "address",
                            "name": "oracleAddress",
                            "type": "address"
                        },
                        {
                            "internalType": "address",
                            "name": "underlyingRebasingToken",
                            "type": "address"
                        },
                        {
                            "internalType": "uint256",
                            "name": "price",
                            "type": "uint256"
                        },
                        {
                            "internalType": "uint256",
                            "name": "value",
                            "type": "uint256"
                        },
                        {
                            "components": [
                                {
                                    "internalType": "uint256",
                                    "name": "rawValue",
                                    "type": "uint256"
                                }
                            ],
                            "internalType": "struct FixedPoint.Unsigned",
                            "name": "cFactor",
                            "type": "tuple"
                        },
                        {
                            "internalType": "uint8",
                            "name": "decimals",
                            "type": "uint8"
                        },
                        {
                            "internalType": "string",
                            "name": "symbol",
                            "type": "string"
                        },
                        {
                            "internalType": "string",
                            "name": "name",
                            "type": "string"
                        }
                    ],
                    "internalType": "struct KreskoViewer.CollateralAssetInfo[]",
                    "name": "result",
                    "type": "tuple[]"
                }
            ],
            "stateMutability": "view",
            "type": "function"
        },
        {
            "inputs": [
                {
                    "internalType": "contract IERC20Upgradeable[]",
                    "name": "_tokens",
                    "type": "address[]"
                },
                {
                    "internalType": "address",
                    "name": "owner",
                    "type": "address"
                },
                {
                    "internalType": "address",
                    "name": "spender",
                    "type": "address"
                }
            ],
            "name": "getAllowances",
            "outputs": [
                {
                    "components": [
                        {
                            "internalType": "address",
                            "name": "owner",
                            "type": "address"
                        },
                        {
                            "internalType": "address",
                            "name": "spender",
                            "type": "address"
                        },
                        {
                            "internalType": "uint256",
                            "name": "allowance",
                            "type": "uint256"
                        }
                    ],
                    "internalType": "struct KreskoViewer.Allowance[]",
                    "name": "allowances",
                    "type": "tuple[]"
                }
            ],
            "stateMutability": "view",
            "type": "function"
        },
        {
            "inputs": [
                {
                    "internalType": "address[]",
                    "name": "_collateralAssets",
                    "type": "address[]"
                },
                {
                    "internalType": "address[]",
                    "name": "_krAssets",
                    "type": "address[]"
                }
            ],
            "name": "getAssetInfos",
            "outputs": [
                {
                    "components": [
                        {
                            "internalType": "address",
                            "name": "assetAddress",
                            "type": "address"
                        },
                        {
                            "internalType": "address",
                            "name": "oracleAddress",
                            "type": "address"
                        },
                        {
                            "internalType": "address",
                            "name": "underlyingRebasingToken",
                            "type": "address"
                        },
                        {
                            "internalType": "uint256",
                            "name": "price",
                            "type": "uint256"
                        },
                        {
                            "internalType": "uint256",
                            "name": "value",
                            "type": "uint256"
                        },
                        {
                            "components": [
                                {
                                    "internalType": "uint256",
                                    "name": "rawValue",
                                    "type": "uint256"
                                }
                            ],
                            "internalType": "struct FixedPoint.Unsigned",
                            "name": "cFactor",
                            "type": "tuple"
                        },
                        {
                            "internalType": "uint8",
                            "name": "decimals",
                            "type": "uint8"
                        },
                        {
                            "internalType": "string",
                            "name": "symbol",
                            "type": "string"
                        },
                        {
                            "internalType": "string",
                            "name": "name",
                            "type": "string"
                        }
                    ],
                    "internalType": "struct KreskoViewer.CollateralAssetInfo[]",
                    "name": "collateralAssets",
                    "type": "tuple[]"
                },
                {
                    "components": [
                        {
                            "internalType": "address",
                            "name": "oracleAddress",
                            "type": "address"
                        },
                        {
                            "internalType": "address",
                            "name": "assetAddress",
                            "type": "address"
                        },
                        {
                            "internalType": "uint256",
                            "name": "price",
                            "type": "uint256"
                        },
                        {
                            "internalType": "uint256",
                            "name": "value",
                            "type": "uint256"
                        },
                        {
                            "components": [
                                {
                                    "internalType": "uint256",
                                    "name": "rawValue",
                                    "type": "uint256"
                                }
                            ],
                            "internalType": "struct FixedPoint.Unsigned",
                            "name": "kFactor",
                            "type": "tuple"
                        },
                        {
                            "internalType": "string",
                            "name": "symbol",
                            "type": "string"
                        },
                        {
                            "internalType": "string",
                            "name": "name",
                            "type": "string"
                        }
                    ],
                    "internalType": "struct KreskoViewer.krAssetInfo[]",
                    "name": "krAssets",
                    "type": "tuple[]"
                }
            ],
            "stateMutability": "view",
            "type": "function"
        },
        {
            "inputs": [
                {
                    "internalType": "contract IERC20Upgradeable[]",
                    "name": "_tokens",
                    "type": "address[]"
                },
                {
                    "internalType": "address",
                    "name": "account",
                    "type": "address"
                }
            ],
            "name": "getBalances",
            "outputs": [
                {
                    "components": [
                        {
                            "internalType": "address",
                            "name": "token",
                            "type": "address"
                        },
                        {
                            "internalType": "uint256",
                            "name": "balance",
                            "type": "uint256"
                        }
                    ],
                    "internalType": "struct KreskoViewer.Balance[]",
                    "name": "balances",
                    "type": "tuple[]"
                }
            ],
            "stateMutability": "view",
            "type": "function"
        },
        {
            "inputs": [
                {
                    "internalType": "address",
                    "name": "_account",
                    "type": "address"
                },
                {
                    "internalType": "address",
                    "name": "_asset",
                    "type": "address"
                },
                {
                    "internalType": "contract AggregatorV2V3Interface",
                    "name": "oracle",
                    "type": "address"
                }
            ],
            "name": "getGenericInfo",
            "outputs": [
                {
                    "components": [
                        {
                            "internalType": "address",
                            "name": "assetAddress",
                            "type": "address"
                        },
                        {
                            "components": [
                                {
                                    "internalType": "uint256",
                                    "name": "rawValue",
                                    "type": "uint256"
                                }
                            ],
                            "internalType": "struct FixedPoint.Unsigned",
                            "name": "kFactor",
                            "type": "tuple"
                        },
                        {
                            "components": [
                                {
                                    "internalType": "uint256",
                                    "name": "rawValue",
                                    "type": "uint256"
                                }
                            ],
                            "internalType": "struct FixedPoint.Unsigned",
                            "name": "cFactor",
                            "type": "tuple"
                        },
                        {
                            "internalType": "uint256",
                            "name": "price",
                            "type": "uint256"
                        },
                        {
                            "internalType": "bool",
                            "name": "isKrAsset",
                            "type": "bool"
                        },
                        {
                            "internalType": "bool",
                            "name": "isCollateral",
                            "type": "bool"
                        },
                        {
                            "internalType": "uint256",
                            "name": "debtAmount",
                            "type": "uint256"
                        },
                        {
                            "internalType": "uint256",
                            "name": "depositAmount",
                            "type": "uint256"
                        },
                        {
                            "internalType": "uint256",
                            "name": "walletBalance",
                            "type": "uint256"
                        }
                    ],
                    "internalType": "struct KreskoViewer.GenericInfo",
                    "name": "",
                    "type": "tuple"
                }
            ],
            "stateMutability": "view",
            "type": "function"
        },
        {
            "inputs": [
                {
                    "internalType": "address",
                    "name": "_account",
                    "type": "address"
                }
            ],
            "name": "getStakingData",
            "outputs": [
                {
                    "components": [
                        {
                            "internalType": "uint256",
                            "name": "pid",
                            "type": "uint256"
                        },
                        {
                            "internalType": "address",
                            "name": "depositToken",
                            "type": "address"
                        },
                        {
                            "internalType": "uint256",
                            "name": "totalDeposits",
                            "type": "uint256"
                        },
                        {
                            "internalType": "uint256",
                            "name": "allocPoint",
                            "type": "uint256"
                        },
                        {
                            "internalType": "uint256[]",
                            "name": "rewardPerBlocks",
                            "type": "uint256[]"
                        },
                        {
                            "internalType": "uint256",
                            "name": "lastRewardBlock",
                            "type": "uint256"
                        },
                        {
                            "internalType": "uint256",
                            "name": "depositAmount",
                            "type": "uint256"
                        },
                        {
                            "internalType": "address[]",
                            "name": "rewardTokens",
                            "type": "address[]"
                        },
                        {
                            "internalType": "uint256[]",
                            "name": "rewardAmounts",
                            "type": "uint256[]"
                        }
                    ],
                    "internalType": "struct KreskoViewer.StakingData[]",
                    "name": "result",
                    "type": "tuple[]"
                }
            ],
            "stateMutability": "view",
            "type": "function"
        },
        {
            "inputs": [
                {
                    "internalType": "contract IERC20MetadataUpgradeable[]",
                    "name": "_tokens",
                    "type": "address[]"
                }
            ],
            "name": "getTokenMetadatas",
            "outputs": [
                {
                    "components": [
                        {
                            "internalType": "uint8",
                            "name": "decimals",
                            "type": "uint8"
                        },
                        {
                            "internalType": "string",
                            "name": "symbol",
                            "type": "string"
                        },
                        {
                            "internalType": "string",
                            "name": "name",
                            "type": "string"
                        }
                    ],
                    "internalType": "struct KreskoViewer.TokenMetadata[]",
                    "name": "metadatas",
                    "type": "tuple[]"
                }
            ],
            "stateMutability": "view",
            "type": "function"
        },
        {
            "inputs": [
                {
                    "internalType": "address",
                    "name": "_account",
                    "type": "address"
                }
            ],
            "name": "healthFactorFor",
            "outputs": [
                {
                    "components": [
                        {
                            "internalType": "uint256",
                            "name": "rawValue",
                            "type": "uint256"
                        }
                    ],
                    "internalType": "struct FixedPoint.Unsigned",
                    "name": "",
                    "type": "tuple"
                }
            ],
            "stateMutability": "view",
            "type": "function"
        },
        {
            "inputs": [
                {
                    "internalType": "address",
                    "name": "_account",
                    "type": "address"
                }
            ],
            "name": "krAssetInfoFor",
            "outputs": [
                {
                    "components": [
                        {
                            "internalType": "address",
                            "name": "assetAddress",
                            "type": "address"
                        },
                        {
                            "internalType": "address",
                            "name": "oracleAddress",
                            "type": "address"
                        },
                        {
                            "internalType": "uint256",
                            "name": "amount",
                            "type": "uint256"
                        },
                        {
                            "components": [
                                {
                                    "internalType": "uint256",
                                    "name": "rawValue",
                                    "type": "uint256"
                                }
                            ],
                            "internalType": "struct FixedPoint.Unsigned",
                            "name": "amountUSD",
                            "type": "tuple"
                        },
                        {
                            "internalType": "uint256",
                            "name": "index",
                            "type": "uint256"
                        },
                        {
                            "components": [
                                {
                                    "internalType": "uint256",
                                    "name": "rawValue",
                                    "type": "uint256"
                                }
                            ],
                            "internalType": "struct FixedPoint.Unsigned",
                            "name": "kFactor",
                            "type": "tuple"
                        },
                        {
                            "internalType": "bool",
                            "name": "mintable",
                            "type": "bool"
                        },
                        {
                            "internalType": "uint256",
                            "name": "price",
                            "type": "uint256"
                        },
                        {
                            "internalType": "string",
                            "name": "symbol",
                            "type": "string"
                        },
                        {
                            "internalType": "string",
                            "name": "name",
                            "type": "string"
                        }
                    ],
                    "internalType": "struct KreskoViewer.krAssetInfoUser[]",
                    "name": "result",
                    "type": "tuple[]"
                },
                {
                    "components": [
                        {
                            "internalType": "uint256",
                            "name": "rawValue",
                            "type": "uint256"
                        }
                    ],
                    "internalType": "struct FixedPoint.Unsigned",
                    "name": "totalDebtUSD",
                    "type": "tuple"
                }
            ],
            "stateMutability": "view",
            "type": "function"
        },
        {
            "inputs": [
                {
                    "internalType": "address[]",
                    "name": "assetAddresses",
                    "type": "address[]"
                }
            ],
            "name": "krAssetInfos",
            "outputs": [
                {
                    "components": [
                        {
                            "internalType": "address",
                            "name": "oracleAddress",
                            "type": "address"
                        },
                        {
                            "internalType": "address",
                            "name": "assetAddress",
                            "type": "address"
                        },
                        {
                            "internalType": "uint256",
                            "name": "price",
                            "type": "uint256"
                        },
                        {
                            "internalType": "uint256",
                            "name": "value",
                            "type": "uint256"
                        },
                        {
                            "components": [
                                {
                                    "internalType": "uint256",
                                    "name": "rawValue",
                                    "type": "uint256"
                                }
                            ],
                            "internalType": "struct FixedPoint.Unsigned",
                            "name": "kFactor",
                            "type": "tuple"
                        },
                        {
                            "internalType": "string",
                            "name": "symbol",
                            "type": "string"
                        },
                        {
                            "internalType": "string",
                            "name": "name",
                            "type": "string"
                        }
                    ],
                    "internalType": "struct KreskoViewer.krAssetInfo[]",
                    "name": "result",
                    "type": "tuple[]"
                }
            ],
            "stateMutability": "view",
            "type": "function"
        },
        {
            "inputs": [
                {
                    "internalType": "address",
                    "name": "_account",
                    "type": "address"
                }
            ],
            "name": "kreskoUser",
            "outputs": [
                {
                    "components": [
                        {
                            "components": [
                                {
                                    "internalType": "address",
                                    "name": "assetAddress",
                                    "type": "address"
                                },
                                {
                                    "internalType": "address",
                                    "name": "oracleAddress",
                                    "type": "address"
                                },
                                {
                                    "internalType": "uint256",
                                    "name": "amount",
                                    "type": "uint256"
                                },
                                {
                                    "components": [
                                        {
                                            "internalType": "uint256",
                                            "name": "rawValue",
                                            "type": "uint256"
                                        }
                                    ],
                                    "internalType": "struct FixedPoint.Unsigned",
                                    "name": "amountUSD",
                                    "type": "tuple"
                                },
                                {
                                    "internalType": "uint256",
                                    "name": "index",
                                    "type": "uint256"
                                },
                                {
                                    "components": [
                                        {
                                            "internalType": "uint256",
                                            "name": "rawValue",
                                            "type": "uint256"
                                        }
                                    ],
                                    "internalType": "struct FixedPoint.Unsigned",
                                    "name": "kFactor",
                                    "type": "tuple"
                                },
                                {
                                    "internalType": "bool",
                                    "name": "mintable",
                                    "type": "bool"
                                },
                                {
                                    "internalType": "uint256",
                                    "name": "price",
                                    "type": "uint256"
                                },
                                {
                                    "internalType": "string",
                                    "name": "symbol",
                                    "type": "string"
                                },
                                {
                                    "internalType": "string",
                                    "name": "name",
                                    "type": "string"
                                }
                            ],
                            "internalType": "struct KreskoViewer.krAssetInfoUser[]",
                            "name": "krAssets",
                            "type": "tuple[]"
                        },
                        {
                            "components": [
                                {
                                    "internalType": "address",
                                    "name": "assetAddress",
                                    "type": "address"
                                },
                                {
                                    "internalType": "address",
                                    "name": "oracleAddress",
                                    "type": "address"
                                },
                                {
                                    "internalType": "address",
                                    "name": "underlyingRebasingToken",
                                    "type": "address"
                                },
                                {
                                    "internalType": "uint256",
                                    "name": "amount",
                                    "type": "uint256"
                                },
                                {
                                    "components": [
                                        {
                                            "internalType": "uint256",
                                            "name": "rawValue",
                                            "type": "uint256"
                                        }
                                    ],
                                    "internalType": "struct FixedPoint.Unsigned",
                                    "name": "amountUSD",
                                    "type": "tuple"
                                },
                                {
                                    "components": [
                                        {
                                            "internalType": "uint256",
                                            "name": "rawValue",
                                            "type": "uint256"
                                        }
                                    ],
                                    "internalType": "struct FixedPoint.Unsigned",
                                    "name": "cFactor",
                                    "type": "tuple"
                                },
                                {
                                    "internalType": "uint8",
                                    "name": "decimals",
                                    "type": "uint8"
                                },
                                {
                                    "internalType": "uint256",
                                    "name": "index",
                                    "type": "uint256"
                                },
                                {
                                    "internalType": "uint256",
                                    "name": "price",
                                    "type": "uint256"
                                },
                                {
                                    "internalType": "string",
                                    "name": "symbol",
                                    "type": "string"
                                },
                                {
                                    "internalType": "string",
                                    "name": "name",
                                    "type": "string"
                                }
                            ],
                            "internalType": "struct KreskoViewer.CollateralAssetInfoUser[]",
                            "name": "collateralAssets",
                            "type": "tuple[]"
                        },
                        {
                            "components": [
                                {
                                    "internalType": "uint256",
                                    "name": "rawValue",
                                    "type": "uint256"
                                }
                            ],
                            "internalType": "struct FixedPoint.Unsigned",
                            "name": "healthFactor",
                            "type": "tuple"
                        },
                        {
                            "components": [
                                {
                                    "internalType": "uint256",
                                    "name": "rawValue",
                                    "type": "uint256"
                                }
                            ],
                            "internalType": "struct FixedPoint.Unsigned",
                            "name": "debtActualUSD",
                            "type": "tuple"
                        },
                        {
                            "components": [
                                {
                                    "internalType": "uint256",
                                    "name": "rawValue",
                                    "type": "uint256"
                                }
                            ],
                            "internalType": "struct FixedPoint.Unsigned",
                            "name": "debtUSD",
                            "type": "tuple"
                        },
                        {
                            "components": [
                                {
                                    "internalType": "uint256",
                                    "name": "rawValue",
                                    "type": "uint256"
                                }
                            ],
                            "internalType": "struct FixedPoint.Unsigned",
                            "name": "collateralActualUSD",
                            "type": "tuple"
                        },
                        {
                            "components": [
                                {
                                    "internalType": "uint256",
                                    "name": "rawValue",
                                    "type": "uint256"
                                }
                            ],
                            "internalType": "struct FixedPoint.Unsigned",
                            "name": "collateralUSD",
                            "type": "tuple"
                        },
                        {
                            "components": [
                                {
                                    "internalType": "uint256",
                                    "name": "rawValue",
                                    "type": "uint256"
                                }
                            ],
                            "internalType": "struct FixedPoint.Unsigned",
                            "name": "minCollateralUSD",
                            "type": "tuple"
                        },
                        {
                            "components": [
                                {
                                    "internalType": "uint256",
                                    "name": "rawValue",
                                    "type": "uint256"
                                }
                            ],
                            "internalType": "struct FixedPoint.Unsigned",
                            "name": "borrowingPowerUSD",
                            "type": "tuple"
                        }
                    ],
                    "internalType": "struct KreskoViewer.KreskoUser",
                    "name": "user",
                    "type": "tuple"
                }
            ],
            "stateMutability": "view",
            "type": "function"
        }
    ],
    "transactionHash": "0x19a2a94fe39d9e2ffa49c05a20bfa81dc6ff9c36f15f963824ec7d1d9cda206a",
    "args": [
        "0x2a7Ee5fF65f72DffD25B46beC6A03D36e11E19a4",
        "0xaeC895244ef75f18B4323c5152A4977706e4863D"
    ],
    "numDeployments": 3,
    "solcInputHash": "5470849979173386cd55b87615aa198f",
    "bytecode": "0x60806040523480156200001157600080fd5b50604051620040e5380380620040e583398101604081905262000034916200007f565b600080546001600160a01b039384166001600160a01b03199182161790915560018054929093169116179055620000be565b6001600160a01b03811681146200007c57600080fd5b50565b600080604083850312156200009357600080fd5b8251620000a08162000066565b6020840151909250620000b38162000066565b809150509250929050565b61401780620000ce6000396000f3fe608060405234801561001057600080fd5b50600436106101005760003560e01c8063ac1e25fb11610097578063d1c0702811610066578063d1c0702814610285578063def86ce1146102a5578063f57df22e146102c6578063f79031e8146102f157600080fd5b8063ac1e25fb14610212578063b56274d414610232578063b69a985014610245578063be6d74a01461026557600080fd5b80636bb52909116100d35780636bb529091461018e5780636e0696d6146101af57806378d33ebd146101d0578063983ff615146101f057600080fd5b806327c5607d1461010557806358b23fd71461012e578063624ba7011461014e57806367a7b5f61461016e575b600080fd5b610118610113366004612c4d565b610304565b6040516101259190612dba565b60405180910390f35b61014161013c366004612dcd565b6106a6565b6040516101259190612e67565b61016161015c366004612c4d565b6108ed565b6040516101259190612fad565b61018161017c366004612fc0565b610c36565b6040516101259190613051565b6101a161019c366004613133565b61109e565b604051610125929190613197565b6101c26101bd366004612fc0565b6110be565b6040516101259291906132ab565b6101e36101de3660046132ce565b61159c565b6040516101259190613319565b6102036101fe366004612fc0565b611972565b60405190518152602001610125565b6102256102203660046133f1565b611a9e565b604051610125919061345d565b610203610240366004612fc0565b611c99565b6102586102533660046134c9565b611dd5565b6040516101259190613512565b610278610273366004612fc0565b611f3f565b6040516101259190613640565b6102986102933660046136eb565b612141565b604051610125919061373d565b6102b86102b3366004612fc0565b6122a6565b604051610125929190613788565b6001546102d9906001600160a01b031681565b6040516001600160a01b039091168152602001610125565b6000546102d9906001600160a01b031681565b6060815167ffffffffffffffff81111561032057610320612b0a565b60405190808252806020026020018201604052801561035957816020015b610346612847565b81526020019060019003908161033e5790505b50905060005b82518110156106a057600083828151811061037c5761037c61379b565b602090810291909101015160008054604051635390972760e01b81526001600160a01b0380851660048301529394509192169063539097279060240160a060405180830381865afa1580156103d5573d6000803e3d6000fd5b505050506040513d601f19601f820116820180604052508101906103f99190613819565b90506000826001600160a01b031663313ce5676040518163ffffffff1660e01b8152600401602060405180830381865afa15801561043b573d6000803e3d6000fd5b505050506040513d601f19601f8201168201806040525081019061045f91906138ac565b90506000836001600160a01b03166395d89b416040518163ffffffff1660e01b8152600401600060405180830381865afa1580156104a1573d6000803e3d6000fd5b505050506040513d6000823e601f3d908101601f191682016040526104c991908101906138c7565b600080549192509081906001600160a01b0316633ae000c0876104ed87600a613a4c565b6104f8906001613a5b565b6040517fffffffff0000000000000000000000000000000000000000000000000000000060e085901b1681526001600160a01b0390921660048301526024820152600060448201526064016040805180830381865afa15801561055f573d6000803e3d6000fd5b505050506040513d601f19601f820116820180604052508101906105839190613a7a565b915091506000866001600160a01b03166306fdde036040518163ffffffff1660e01b8152600401600060405180830381865afa1580156105c7573d6000803e3d6000fd5b505050506040513d6000823e601f3d908101601f191682016040526105ef91908101906138c7565b90506000604051806101200160405280896001600160a01b0316815260200188602001516001600160a01b0316815260200188604001516001600160a01b031681526020018460000151815260200185600001518152602001886000015181526020018760ff168152602001868152602001838152509050808a8a8151811061067a5761067a61379b565b60200260200101819052505050505050505050808061069890613aa6565b91505061035f565b50919050565b6060815167ffffffffffffffff8111156106c2576106c2612b0a565b60405190808252806020026020018201604052801561071a57816020015b6107076040518060600160405280600060ff16815260200160608152602001606081525090565b8152602001906001900390816106e05790505b50905060005b82518110156106a05760405180606001604052808483815181106107465761074661379b565b60200260200101516001600160a01b031663313ce5676040518163ffffffff1660e01b8152600401602060405180830381865afa15801561078b573d6000803e3d6000fd5b505050506040513d601f19601f820116820180604052508101906107af91906138ac565b60ff1681526020018483815181106107c9576107c961379b565b60200260200101516001600160a01b03166395d89b416040518163ffffffff1660e01b8152600401600060405180830381865afa15801561080e573d6000803e3d6000fd5b505050506040513d6000823e601f3d908101601f1916820160405261083691908101906138c7565b815260200184838151811061084d5761084d61379b565b60200260200101516001600160a01b03166306fdde036040518163ffffffff1660e01b8152600401600060405180830381865afa158015610892573d6000803e3d6000fd5b505050506040513d6000823e601f3d908101601f191682016040526108ba91908101906138c7565b8152508282815181106108cf576108cf61379b565b602002602001018190525080806108e590613aa6565b915050610720565b6060815167ffffffffffffffff81111561090957610909612b0a565b60405190808252806020026020018201604052801561094257816020015b61092f6128c0565b8152602001906001900390816109275790505b50905060005b82518110156106a05760008382815181106109655761096561379b565b60209081029190910101516000805460405163d7bfcecd60e01b81526001600160a01b0380851660048301529394509192169063d7bfcecd90602401608060405180830381865afa1580156109be573d6000803e3d6000fd5b505050506040513d601f19601f820116820180604052508101906109e29190613ac1565b60008054604051631a69f54b60e21b81526001600160a01b038681166004830152670de0b6b3a7640000602483015260448201849052939450919216906369a7d52c90606401602060405180830381865afa158015610a45573d6000803e3d6000fd5b505050506040513d601f19601f82011682018060405250810190610a699190613b41565b9050600082602001516001600160a01b03166350d25bcd6040518163ffffffff1660e01b8152600401602060405180830381865afa158015610aaf573d6000803e3d6000fd5b505050506040513d601f19601f82011682018060405250810190610ad39190613b5d565b90506000846001600160a01b03166306fdde036040518163ffffffff1660e01b8152600401600060405180830381865afa158015610b15573d6000803e3d6000fd5b505050506040513d6000823e601f3d908101601f19168201604052610b3d91908101906138c7565b90506000856001600160a01b03166395d89b416040518163ffffffff1660e01b8152600401600060405180830381865afa158015610b7f573d6000803e3d6000fd5b505050506040513d6000823e601f3d908101601f19168201604052610ba791908101906138c7565b905060006040518060e0016040528087602001516001600160a01b03168152602001886001600160a01b03168152602001858152602001866000015181526020018760000151815260200183815260200184815250905080898981518110610c1157610c1161379b565b6020026020010181905250505050505050508080610c2e90613aa6565b915050610948565b600154604051632f51fa7d60e11b81526001600160a01b038381166004830152606092600092911690635ea3f4fa90602401600060405180830381865afa158015610c85573d6000803e3d6000fd5b505050506040513d6000823e601f3d908101601f19168201604052610cad9190810190613c35565b9050805167ffffffffffffffff811115610cc957610cc9612b0a565b604051908082528060200260200182016040528015610d5257816020015b610d3f6040518061012001604052806000815260200160006001600160a01b03168152602001600081526020016000815260200160608152602001600081526020016000815260200160608152602001606081525090565b815260200190600190039081610ce75790505b50915060005b81518110156110975760015482516000916001600160a01b0316906393f1a40b90859085908110610d8b57610d8b61379b565b602002602001015160000151876040518363ffffffff1660e01b8152600401610dc79291909182526001600160a01b0316602082015260400190565b600060405180830381865afa158015610de4573d6000803e3d6000fd5b505050506040513d6000823e601f3d908101601f19168201604052610e0c9190810190613d4b565b60015484519192506000916001600160a01b0390911690631526fe2790869086908110610e3b57610e3b61379b565b6020026020010151600001516040518263ffffffff1660e01b8152600401610e6591815260200190565b600060405180830381865afa158015610e82573d6000803e3d6000fd5b505050506040513d6000823e601f3d908101601f19168201604052610eaa9190810190613df8565b9050600081600001519050604051806101200160405280868681518110610ed357610ed361379b565b6020908102919091018101515182526001600160a01b03808516918301919091528451600154604080516370a0823160e01b81529184166004830152909301929116906370a0823190602401602060405180830381865afa158015610f3c573d6000803e3d6000fd5b505050506040513d601f19601f82011682018060405250810190610f609190613b5d565b81526020848101516fffffffffffffffffffffffffffffffff1690820152600154604080516368e2f7b760e01b81526001600160a01b03868116600483015291909301929116906368e2f7b790602401600060405180830381865afa158015610fcd573d6000803e3d6000fd5b505050506040513d6000823e601f3d908101601f19168201604052610ff59190810190613ebe565b815260200183604001516fffffffffffffffffffffffffffffffff168152602001846000015181526020018686815181106110325761103261379b565b60200260200101516020015181526020018686815181106110555761105561379b565b6020026020010151604001518152508685815181106110765761107661379b565b6020026020010181905250505050808061108f90613aa6565b915050610d58565b5050919050565b6060806110aa84610304565b91506110b5836108ed565b90509250929050565b60606110d66040518060200160405280600081525090565b6000805460405163369c411560e11b81526001600160a01b03868116600483015290911690636d38822a90602401600060405180830381865afa158015611121573d6000803e3d6000fd5b505050506040513d6000823e601f3d908101601f191682016040526111499190810190613ef3565b80519091501561159657805167ffffffffffffffff81111561116d5761116d612b0a565b60405190808252806020026020018201604052801561120857816020015b6040805161016081018252600080825260208083018290528284018290526060808401839052845180830186528381526080850152845191820190945281815260a083015260c0820181905260e08201819052610100820152610120810182905261014081019190915281526020019060019003908161118b5790505b50925060005b815181101561159457600082828151811061122b5761122b61379b565b602090810291909101015160008054604051635390972760e01b81526001600160a01b0380851660048301529394509192169063539097279060240160a060405180830381865afa158015611284573d6000803e3d6000fd5b505050506040513d601f19601f820116820180604052508101906112a89190613819565b90506000826001600160a01b031663313ce5676040518163ffffffff1660e01b8152600401602060405180830381865afa1580156112ea573d6000803e3d6000fd5b505050506040513d601f19601f8201168201806040525081019061130e91906138ac565b60008054604051630c65e07b60e01b81526001600160a01b038c81166004830152878116602483015293945091921690630c65e07b90604401602060405180830381865afa158015611364573d6000803e3d6000fd5b505050506040513d601f19601f820116820180604052508101906113889190613b5d565b90506000846001600160a01b03166395d89b416040518163ffffffff1660e01b8152600401600060405180830381865afa1580156113ca573d6000803e3d6000fd5b505050506040513d6000823e601f3d908101601f191682016040526113f291908101906138c7565b6000805460405162eb800360e61b81526001600160a01b038981166004830152602482018790526001604483015293945091928392911690633ae000c0906064016040805180830381865afa15801561144f573d6000803e3d6000fd5b505050506040513d601f19601f820116820180604052508101906114739190613a7a565b915091506000876001600160a01b03166306fdde036040518163ffffffff1660e01b8152600401600060405180830381865afa1580156114b7573d6000803e3d6000fd5b505050506040513d6000823e601f3d908101601f191682016040526114df91908101906138c7565b60408051610160810182526001600160a01b03808c16825260208b8101518216908301528a83015116918101919091526060810187905260808101859052885160a082015260ff881660c082015260e081018b90528351610100820152610120810186905261014081018290529091506115598c8561271f565b50808d8b8151811061156d5761156d61379b565b6020026020010181905250505050505050505050808061158c90613aa6565b91505061120e565b505b50915091565b6115a4612923565b60408051610120810182526001600160a01b03858116808352600054935163d7bfcecd60e01b815260048101919091529192602084019291169063d7bfcecd90602401608060405180830381865afa158015611604573d6000803e3d6000fd5b505050506040513d601f19601f820116820180604052508101906116289190613ac1565b518152600054604051635390972760e01b81526001600160a01b0387811660048301526020909301929091169063539097279060240160a060405180830381865afa15801561167b573d6000803e3d6000fd5b505050506040513d601f19601f8201168201806040525081019061169f9190613819565b600001518152602001836001600160a01b03166350d25bcd6040518163ffffffff1660e01b8152600401602060405180830381865afa1580156116e6573d6000803e3d6000fd5b505050506040513d601f19601f8201168201806040525081019061170a9190613b5d565b8152600054604051639b177c1960e01b81526001600160a01b03878116600483015260209093019290911690639b177c1990602401602060405180830381865afa15801561175c573d6000803e3d6000fd5b505050506040513d601f19601f820116820180604052508101906117809190613f28565b1515815260005460405163a61d1d5160e01b81526001600160a01b0387811660048301526020909301929091169063a61d1d5190602401602060405180830381865afa1580156117d4573d6000803e3d6000fd5b505050506040513d601f19601f820116820180604052508101906117f89190613f28565b15158152600054604051630692479b60e31b81526001600160a01b0388811660048301528781166024830152602090930192909116906334923cd890604401602060405180830381865afa158015611854573d6000803e3d6000fd5b505050506040513d601f19601f820116820180604052508101906118789190613b5d565b8152600054604051630c65e07b60e01b81526001600160a01b038881166004830152878116602483015260209093019290911690630c65e07b90604401602060405180830381865afa1580156118d2573d6000803e3d6000fd5b505050506040513d601f19601f820116820180604052508101906118f69190613b5d565b81526040516370a0823160e01b81526001600160a01b0387811660048301526020909201918616906370a0823190602401602060405180830381865afa158015611944573d6000803e3d6000fd5b505050506040513d601f19601f820116820180604052508101906119689190613b5d565b9052949350505050565b60408051602081019091526000815260008054604051633fa1c54560e21b81526001600160a01b0385811660048301529091169063fe87151490602401602060405180830381865afa1580156119cc573d6000803e3d6000fd5b505050506040513d601f19601f820116820180604052508101906119f09190613b41565b600080546040516307d1a44560e41b81526001600160a01b03878116600483015293945091921690637d1a445090602401602060405180830381865afa158015611a3e573d6000803e3d6000fd5b505050506040513d601f19601f82011682018060405250810190611a629190613b41565b9050611a7081835190511090565b15611a8c57505060408051602081019091526000815292915050565b611a968183612754565b949350505050565b6060838214611af35760405162461bcd60e51b815260206004820152601360248201527f5175657279206d75737420626520657175616c00000000000000000000000000604482015260640160405180910390fd5b8367ffffffffffffffff811115611b0c57611b0c612b0a565b604051908082528060200260200182016040528015611b5e57816020015b604080516080810182526000808252602080830182905292820181905260608201528252600019909201910181611b2a5790505b50905060005b84811015611c90576000806000868685818110611b8357611b8361379b565b9050602002016020810190611b989190612fc0565b6001600160a01b031663feaf968c6040518163ffffffff1660e01b815260040160a060405180830381865afa158015611bd5573d6000803e3d6000fd5b505050506040513d601f19601f82011682018060405250810190611bf99190613f5d565b509350509250925060405180608001604052808381526020018281526020018a8a87818110611c2a57611c2a61379b565b9050602002016020810190611c3f9190612fc0565b6001600160a01b031681526020018469ffffffffffffffffffff16815250858581518110611c6f57611c6f61379b565b60200260200101819052505050508080611c8890613aa6565b915050611b64565b50949350505050565b604080516020810190915260008152600080546040517fff1389c50000000000000000000000000000000000000000000000000000000081526001600160a01b0385811660048301529091169063ff1389c590602401602060405180830381865afa158015611d0c573d6000803e3d6000fd5b505050506040513d601f19601f82011682018060405250810190611d309190613b41565b600080546040516307d1a44560e41b81526001600160a01b03878116600483015293945091921690637d1a445090602401602060405180830381865afa158015611d7e573d6000803e3d6000fd5b505050506040513d601f19601f82011682018060405250810190611da29190613b41565b9050611daf82600061277e565b15611dbe57611a968183612795565b505060408051602081019091526000815292915050565b6060835167ffffffffffffffff811115611df157611df1612b0a565b604051908082528060200260200182016040528015611e3c57816020015b6040805160608101825260008082526020808301829052928201528252600019909201910181611e0f5790505b50905060005b8451811015611f37576040518060600160405280856001600160a01b03168152602001846001600160a01b03168152602001868381518110611e8657611e8661379b565b6020908102919091010151604051636eb1769f60e11b81526001600160a01b03888116600483015287811660248301529091169063dd62ed3e90604401602060405180830381865afa158015611ee0573d6000803e3d6000fd5b505050506040513d601f19601f82011682018060405250810190611f049190613b5d565b815250828281518110611f1957611f1961379b565b60200260200101819052508080611f2f90613aa6565b915050611e42565b509392505050565b611f476129a4565b600080611f53846122a6565b91509150600080611f63866110be565b91509150600084511180611f78575060008251115b1561213857604051806101200160405280858152602001838152602001611f9e88611c99565b815260208101859052600054604080517fff1389c50000000000000000000000000000000000000000000000000000000081526001600160a01b038b81166004830152919093019291169063ff1389c590602401602060405180830381865afa15801561200f573d6000803e3d6000fd5b505050506040513d601f19601f820116820180604052508101906120339190613b41565b815260208101839052600054604080516307d1a44560e41b81526001600160a01b038b811660048301529190930192911690637d1a445090602401602060405180830381865afa15801561208b573d6000803e3d6000fd5b505050506040513d601f19601f820116820180604052508101906120af9190613b41565b8152600054604051633fa1c54560e21b81526001600160a01b038a811660048301526020909301929091169063fe87151490602401602060405180830381865afa158015612101573d6000803e3d6000fd5b505050506040513d601f19601f820116820180604052508101906121259190613b41565b815260200161213388611972565b905294505b50505050919050565b6060825167ffffffffffffffff81111561215d5761215d612b0a565b6040519080825280602002602001820160405280156121a257816020015b604080518082019091526000808252602082015281526020019060019003908161217b5790505b50905060005b835181101561229f5760405180604001604052808583815181106121ce576121ce61379b565b60200260200101516001600160a01b031681526020018583815181106121f6576121f661379b565b60209081029190910101516040516370a0823160e01b81526001600160a01b038781166004830152909116906370a0823190602401602060405180830381865afa158015612248573d6000803e3d6000fd5b505050506040513d601f19601f8201168201806040525081019061226c9190613b5d565b8152508282815181106122815761228161379b565b6020026020010181905250808061229790613aa6565b9150506121a8565b5092915050565b60606122be6040518060200160405280600081525090565b600080546040516377d4074360e11b81526001600160a01b0386811660048301529091169063efa80e8690602401600060405180830381865afa158015612309573d6000803e3d6000fd5b505050506040513d6000823e601f3d908101601f191682016040526123319190810190613ef3565b80519091501561159657805167ffffffffffffffff81111561235557612355612b0a565b60405190808252806020026020018201604052801561238e57816020015b61237b612a7b565b8152602001906001900390816123735790505b50925060005b81518110156115945760008282815181106123b1576123b161379b565b60209081029190910101516000805460405163d7bfcecd60e01b81526001600160a01b0380851660048301529394509192169063d7bfcecd90602401608060405180830381865afa15801561240a573d6000803e3d6000fd5b505050506040513d601f19601f8201168201806040525081019061242e9190613ac1565b60008054604051630692479b60e31b81526001600160a01b038b811660048301528681166024830152939450919216906334923cd890604401602060405180830381865afa158015612484573d6000803e3d6000fd5b505050506040513d601f19601f820116820180604052508101906124a89190613b5d565b9050600082602001516001600160a01b03166350d25bcd6040518163ffffffff1660e01b8152600401602060405180830381865afa1580156124ee573d6000803e3d6000fd5b505050506040513d601f19601f820116820180604052508101906125129190613b5d565b60008054604051631a69f54b60e21b81526001600160a01b0388811660048301526024820187905260016044830152939450919216906369a7d52c90606401602060405180830381865afa15801561256e573d6000803e3d6000fd5b505050506040513d601f19601f820116820180604052508101906125929190613b41565b90506000856001600160a01b03166395d89b416040518163ffffffff1660e01b8152600401600060405180830381865afa1580156125d4573d6000803e3d6000fd5b505050506040513d6000823e601f3d908101601f191682016040526125fc91908101906138c7565b90506000866001600160a01b03166306fdde036040518163ffffffff1660e01b8152600401600060405180830381865afa15801561263e573d6000803e3d6000fd5b505050506040513d6000823e601f3d908101601f1916820160405261266691908101906138c7565b90506000604051806101400160405280896001600160a01b0316815260200188602001516001600160a01b031681526020018781526020018581526020018a8152602001886000015181526020018860600151151581526020018681526020018481526020018381525090506126e5848c61271f90919063ffffffff16565b50808c8a815181106126f9576126f961379b565b60200260200101819052505050505050505050808061271790613aa6565b915050612394565b604080516020810190915260008152604080516020810190915282518451829161274991906127d6565b905290505b92915050565b604080516020810190915260008152604080516020810190915282518451829161274991906127e9565b6000612789826127f5565b51835111905092915050565b604080516020810190915260008152604051806020016040528061274984600001516127d06012600a6127c89190613fad565b88519061282f565b9061283b565b60006127e28284613fb9565b9392505050565b60006127e28284613fd1565b60408051602081019091526000815260405180602001604052806128276012600a6128209190613fad565b859061282f565b905292915050565b60006127e28284613a5b565b60006127e28284613fe8565b60405180610120016040528060006001600160a01b0316815260200160006001600160a01b0316815260200160006001600160a01b0316815260200160008152602001600081526020016128a76040518060200160405280600081525090565b8152600060208201526060604082018190529081015290565b6040518060e0016040528060006001600160a01b0316815260200160006001600160a01b03168152602001600081526020016000815260200161290f6040518060200160405280600081525090565b815260200160608152602001606081525090565b60405180610120016040528060006001600160a01b031681526020016129556040518060200160405280600081525090565b81526020016129706040518060200160405280600081525090565b8152602001600081526020016000151581526020016000151581526020016000815260200160008152602001600081525090565b60405180610120016040528060608152602001606081526020016129d46040518060200160405280600081525090565b81526020016129ef6040518060200160405280600081525090565b8152602001612a0a6040518060200160405280600081525090565b8152602001612a256040518060200160405280600081525090565b8152602001612a406040518060200160405280600081525090565b8152602001612a5b6040518060200160405280600081525090565b8152602001612a766040518060200160405280600081525090565b905290565b60405180610140016040528060006001600160a01b0316815260200160006001600160a01b0316815260200160008152602001612ac46040518060200160405280600081525090565b815260200160008152602001612ae66040518060200160405280600081525090565b81526020016000151581526020016000815260200160608152602001606081525090565b634e487b7160e01b600052604160045260246000fd5b6040516060810167ffffffffffffffff81118282101715612b4357612b43612b0a565b60405290565b60405160a0810167ffffffffffffffff81118282101715612b4357612b43612b0a565b604051601f8201601f1916810167ffffffffffffffff81118282101715612b9557612b95612b0a565b604052919050565b600067ffffffffffffffff821115612bb757612bb7612b0a565b5060051b60200190565b6001600160a01b0381168114612bd657600080fd5b50565b600082601f830112612bea57600080fd5b81356020612bff612bfa83612b9d565b612b6c565b82815260059290921b84018101918181019086841115612c1e57600080fd5b8286015b84811015612c42578035612c3581612bc1565b8352918301918301612c22565b509695505050505050565b600060208284031215612c5f57600080fd5b813567ffffffffffffffff811115612c7657600080fd5b611a9684828501612bd9565b60005b83811015612c9d578181015183820152602001612c85565b83811115612cac576000848401525b50505050565b60008151808452612cca816020860160208601612c82565b601f01601f19169290920160200192915050565b600081518084526020808501808196508360051b8101915082860160005b85811015612dad578284038952815180516001600160a01b0390811686528682015181168787015260408083015190911690860152606080820151908601526080808201519086015260a080820151519086015260c08082015160ff169086015260e0808201516101208288018190529190612d7a83890182612cb2565b925050506101008083015192508682038188015250612d998183612cb2565b9a87019a9550505090840190600101612cfc565b5091979650505050505050565b6020815260006127e26020830184612cde565b60006020808385031215612de057600080fd5b823567ffffffffffffffff811115612df757600080fd5b8301601f81018513612e0857600080fd5b8035612e16612bfa82612b9d565b81815260059190911b82018301908381019087831115612e3557600080fd5b928401925b82841015612e5c578335612e4d81612bc1565b82529284019290840190612e3a565b979650505050505050565b60006020808301818452808551808352604092508286019150828160051b87010184880160005b83811015612eed57603f198984030185528151606060ff825116855288820151818a870152612ebf82870182612cb2565b91505087820151915084810388860152612ed98183612cb2565b968901969450505090860190600101612e8e565b509098975050505050505050565b600081518084526020808501808196508360051b8101915082860160005b85811015612dad578284038952815180516001600160a01b0390811686528682015116868601526040808201519086015260608082015190860152608080820151519086015260a08082015160e08288018190529190612f7b83890182612cb2565b9250505060c08083015192508682038188015250612f998183612cb2565b9a87019a9550505090840190600101612f19565b6020815260006127e26020830184612efb565b600060208284031215612fd257600080fd5b81356127e281612bc1565b600081518084526020808501945080840160005b8381101561300d57815187529582019590820190600101612ff1565b509495945050505050565b600081518084526020808501945080840160005b8381101561300d5781516001600160a01b03168752958201959082019060010161302c565b60006020808301818452808551808352604092508286019150828160051b87010184880160005b83811015612eed57603f19898403018552815180518452878101516001600160a01b03168885015286810151878501526060808201519085015260808082015161012082870181905291906130cf83880182612fdd565b9250505060a080830151818701525060c080830151818701525060e080830151868303828801526131008382613018565b92505050610100808301519250858203818701525061311f8183612fdd565b968901969450505090860190600101613078565b6000806040838503121561314657600080fd5b823567ffffffffffffffff8082111561315e57600080fd5b61316a86838701612bd9565b9350602085013591508082111561318057600080fd5b5061318d85828601612bd9565b9150509250929050565b6040815260006131aa6040830185612cde565b82810360208401526131bc8185612efb565b95945050505050565b600081518084526020808501808196508360051b8101915082860160005b85811015612dad578284038952815180516001600160a01b039081168652868201518116878701526040808301519091169086015260608082015190860152608080820151519086015260a080820151519086015260c08082015160ff169086015260e08082015190860152610100808201519086015261012080820151610160828801819052919061327883890182612cb2565b9250505061014080830151925086820381880152506132978183612cb2565b9a87019a95505050908401906001016131e3565b6040815260006132be60408301856131c5565b9050825160208301529392505050565b6000806000606084860312156132e357600080fd5b83356132ee81612bc1565b925060208401356132fe81612bc1565b9150604084013561330e81612bc1565b809150509250925092565b6000610120820190506001600160a01b0383511682526020830151516020830152604083015161334c6040840182519052565b5060608301516060830152608083015161336a608084018215159052565b5060a083015161337e60a084018215159052565b5060c083015160c083015260e083015160e083015261010080840151818401525092915050565b60008083601f8401126133b757600080fd5b50813567ffffffffffffffff8111156133cf57600080fd5b6020830191508360208260051b85010111156133ea57600080fd5b9250929050565b6000806000806040858703121561340757600080fd5b843567ffffffffffffffff8082111561341f57600080fd5b61342b888389016133a5565b9096509450602087013591508082111561344457600080fd5b50613451878288016133a5565b95989497509550505050565b602080825282518282018190526000919060409081850190868401855b82811015612dad578151805185528681015187860152858101516001600160a01b03168686015260609081015169ffffffffffffffffffff16908501526080909301929085019060010161347a565b6000806000606084860312156134de57600080fd5b833567ffffffffffffffff8111156134f557600080fd5b61350186828701612bd9565b93505060208401356132fe81612bc1565b602080825282518282018190526000919060409081850190868401855b82811015612dad57815180516001600160a01b039081168652878201511687860152850151858501526060909301929085019060010161352f565b600081518084526020808501808196508360051b8101915082860160005b85811015612dad578284038952815180516001600160a01b0390811686528682015116868601526040808201519086015260608082015151908601526080808201519086015260a080820151519086015260c08082015115159086015260e0808201519086015261010080820151610140828801819052919061360d83890182612cb2565b92505050610120808301519250868203818801525061362c8183612cb2565b9a87019a9550505090840190600101613588565b602081526000825161012080602085015261365f61014085018361356a565b91506020850151601f1985840301604086015261367c83826131c5565b92505060408501516136916060860182519052565b50606085015180516080860152506080850151805160a08601525060a0850151805160c08601525060c0850151805160e08601525060e08501516101006136da81870183519052565b909501515193019290925250919050565b600080604083850312156136fe57600080fd5b823567ffffffffffffffff81111561371557600080fd5b61372185828601612bd9565b925050602083013561373281612bc1565b809150509250929050565b602080825282518282018190526000919060409081850190868401855b82811015612dad57815180516001600160a01b0316855286015186850152928401929085019060010161375a565b6040815260006132be604083018561356a565b634e487b7160e01b600052603260045260246000fd5b6000602082840312156137c357600080fd5b6040516020810181811067ffffffffffffffff821117156137e6576137e6612b0a565b6040529151825250919050565b805160ff8116811461380457600080fd5b919050565b8051801515811461380457600080fd5b600060a0828403121561382b57600080fd5b60405160a0810181811067ffffffffffffffff8211171561384e5761384e612b0a565b60405261385b84846137b1565b8152602083015161386b81612bc1565b6020820152604083015161387e81612bc1565b604082015261388f606084016137f3565b60608201526138a060808401613809565b60808201529392505050565b6000602082840312156138be57600080fd5b6127e2826137f3565b6000602082840312156138d957600080fd5b815167ffffffffffffffff808211156138f157600080fd5b818401915084601f83011261390557600080fd5b81518181111561391757613917612b0a565b61392a601f8201601f1916602001612b6c565b915080825285602082850101111561394157600080fd5b611c90816020840160208601612c82565b634e487b7160e01b600052601160045260246000fd5b600181815b808511156139a357816000190482111561398957613989613952565b8085161561399657918102915b93841c939080029061396d565b509250929050565b6000826139ba5750600161274e565b816139c75750600061274e565b81600181146139dd57600281146139e757613a03565b600191505061274e565b60ff8411156139f8576139f8613952565b50506001821b61274e565b5060208310610133831016604e8410600b8410161715613a26575081810a61274e565b613a308383613968565b8060001904821115613a4457613a44613952565b029392505050565b60006127e260ff8416836139ab565b6000816000190483118215151615613a7557613a75613952565b500290565b60008060408385031215613a8d57600080fd5b613a9784846137b1565b91506110b584602085016137b1565b6000600019821415613aba57613aba613952565b5060010190565b600060808284031215613ad357600080fd5b6040516080810181811067ffffffffffffffff82111715613af657613af6612b0a565b604052613b0384846137b1565b81526020830151613b1381612bc1565b6020820152613b2460408401613809565b6040820152613b3560608401613809565b60608201529392505050565b600060208284031215613b5357600080fd5b6127e283836137b1565b600060208284031215613b6f57600080fd5b5051919050565b600082601f830112613b8757600080fd5b81516020613b97612bfa83612b9d565b82815260059290921b84018101918181019086841115613bb657600080fd5b8286015b84811015612c42578051613bcd81612bc1565b8352918301918301613bba565b600082601f830112613beb57600080fd5b81516020613bfb612bfa83612b9d565b82815260059290921b84018101918181019086841115613c1a57600080fd5b8286015b84811015612c425780518352918301918301613c1e565b60006020808385031215613c4857600080fd5b825167ffffffffffffffff80821115613c6057600080fd5b818501915085601f830112613c7457600080fd5b8151613c82612bfa82612b9d565b81815260059190911b83018401908481019088831115613ca157600080fd5b8585015b83811015613d3e57805185811115613cbd5760008081fd5b86016060818c03601f1901811315613cd55760008081fd5b613cdd612b20565b89830151815260408084015189811115613cf75760008081fd5b613d058f8d83880101613b76565b838d015250918301519188831115613d1d5760008081fd5b613d2b8e8c85870101613bda565b9082015285525050918601918601613ca5565b5098975050505050505050565b600060208284031215613d5d57600080fd5b815167ffffffffffffffff80821115613d7557600080fd5b9083019060408286031215613d8957600080fd5b604051604081018181108382111715613da457613da4612b0a565b60405282518152602083015182811115613dbd57600080fd5b613dc987828601613bda565b60208301525095945050505050565b80516fffffffffffffffffffffffffffffffff8116811461380457600080fd5b600060208284031215613e0a57600080fd5b815167ffffffffffffffff80821115613e2257600080fd5b9083019060a08286031215613e3657600080fd5b613e3e612b49565b8251613e4981612bc1565b8152613e5760208401613dd8565b6020820152613e6860408401613dd8565b6040820152606083015182811115613e7f57600080fd5b613e8b87828601613bda565b606083015250608083015182811115613ea357600080fd5b613eaf87828601613b76565b60808301525095945050505050565b600060208284031215613ed057600080fd5b815167ffffffffffffffff811115613ee757600080fd5b611a9684828501613bda565b600060208284031215613f0557600080fd5b815167ffffffffffffffff811115613f1c57600080fd5b611a9684828501613b76565b600060208284031215613f3a57600080fd5b6127e282613809565b805169ffffffffffffffffffff8116811461380457600080fd5b600080600080600060a08688031215613f7557600080fd5b613f7e86613f43565b9450602086015193506040860151925060608601519150613fa160808701613f43565b90509295509295909350565b60006127e283836139ab565b60008219821115613fcc57613fcc613952565b500190565b600082821015613fe357613fe3613952565b500390565b60008261400557634e487b7160e01b600052601260045260246000fd5b50049056fea164736f6c634300080a000a",
    "devdoc": {
        "kind": "dev",
        "methods": {},
        "version": 1
    },
    "userdoc": {
        "kind": "user",
        "methods": {},
        "version": 1
    },
    "storageLayout": {
        "storage": [
            {
                "astId": 20495,
                "contract": "src/contracts/KreskoViewer.sol:KreskoViewer",
                "label": "Kresko",
                "offset": 0,
                "slot": "0",
                "type": "t_contract(IKresko)23388"
            },
            {
                "astId": 20498,
                "contract": "src/contracts/KreskoViewer.sol:KreskoViewer",
                "label": "Staking",
                "offset": 0,
                "slot": "1",
                "type": "t_contract(IKrStaking)23138"
            }
        ],
        "types": {
            "t_contract(IKrStaking)23138": {
                "encoding": "inplace",
                "label": "contract IKrStaking",
                "numberOfBytes": "20"
            },
            "t_contract(IKresko)23388": {
                "encoding": "inplace",
                "label": "contract IKresko",
                "numberOfBytes": "20"
            }
        }
    }
}