{
  "address": "0xfC40E2B7C684C888506928D1F49DB43D83004AaA",
  "abi": [
    {
      "anonymous": false,
      "inputs": [
        {
          "indexed": true,
          "internalType": "address",
          "name": "owner",
          "type": "address"
        },
        {
          "indexed": true,
          "internalType": "address",
          "name": "spender",
          "type": "address"
        },
        {
          "indexed": false,
          "internalType": "uint256",
          "name": "amount",
          "type": "uint256"
        }
      ],
      "name": "Approval",
      "type": "event"
    },
    {
      "anonymous": false,
      "inputs": [
        {
          "indexed": false,
          "internalType": "uint8",
          "name": "version",
          "type": "uint8"
        }
      ],
      "name": "Initialized",
      "type": "event"
    },
    {
      "anonymous": false,
      "inputs": [
        {
          "indexed": true,
          "internalType": "bytes32",
          "name": "role",
          "type": "bytes32"
        },
        {
          "indexed": true,
          "internalType": "bytes32",
          "name": "previousAdminRole",
          "type": "bytes32"
        },
        {
          "indexed": true,
          "internalType": "bytes32",
          "name": "newAdminRole",
          "type": "bytes32"
        }
      ],
      "name": "RoleAdminChanged",
      "type": "event"
    },
    {
      "anonymous": false,
      "inputs": [
        {
          "indexed": true,
          "internalType": "bytes32",
          "name": "role",
          "type": "bytes32"
        },
        {
          "indexed": true,
          "internalType": "address",
          "name": "account",
          "type": "address"
        },
        {
          "indexed": true,
          "internalType": "address",
          "name": "sender",
          "type": "address"
        }
      ],
      "name": "RoleGranted",
      "type": "event"
    },
    {
      "anonymous": false,
      "inputs": [
        {
          "indexed": true,
          "internalType": "bytes32",
          "name": "role",
          "type": "bytes32"
        },
        {
          "indexed": true,
          "internalType": "address",
          "name": "account",
          "type": "address"
        },
        {
          "indexed": true,
          "internalType": "address",
          "name": "sender",
          "type": "address"
        }
      ],
      "name": "RoleRevoked",
      "type": "event"
    },
    {
      "anonymous": false,
      "inputs": [
        {
          "indexed": true,
          "internalType": "address",
          "name": "from",
          "type": "address"
        },
        {
          "indexed": true,
          "internalType": "address",
          "name": "to",
          "type": "address"
        },
        {
          "indexed": false,
          "internalType": "uint256",
          "name": "amount",
          "type": "uint256"
        }
      ],
      "name": "Transfer",
      "type": "event"
    },
    {
      "inputs": [],
      "name": "DEFAULT_ADMIN_ROLE",
      "outputs": [
        {
          "internalType": "bytes32",
          "name": "",
          "type": "bytes32"
        }
      ],
      "stateMutability": "view",
      "type": "function"
    },
    {
      "inputs": [],
      "name": "DOMAIN_SEPARATOR",
      "outputs": [
        {
          "internalType": "bytes32",
          "name": "",
          "type": "bytes32"
        }
      ],
      "stateMutability": "view",
      "type": "function"
    },
    {
      "inputs": [
        {
          "internalType": "address",
          "name": "_owner",
          "type": "address"
        },
        {
          "internalType": "address",
          "name": "_account",
          "type": "address"
        }
      ],
      "name": "allowance",
      "outputs": [
        {
          "internalType": "uint256",
          "name": "",
          "type": "uint256"
        }
      ],
      "stateMutability": "view",
      "type": "function"
    },
    {
      "inputs": [
        {
          "internalType": "address",
          "name": "spender",
          "type": "address"
        },
        {
          "internalType": "uint256",
          "name": "amount",
          "type": "uint256"
        }
      ],
      "name": "approve",
      "outputs": [
        {
          "internalType": "bool",
          "name": "",
          "type": "bool"
        }
      ],
      "stateMutability": "nonpayable",
      "type": "function"
    },
    {
      "inputs": [
        {
          "internalType": "address",
          "name": "_account",
          "type": "address"
        }
      ],
      "name": "balanceOf",
      "outputs": [
        {
          "internalType": "uint256",
          "name": "",
          "type": "uint256"
        }
      ],
      "stateMutability": "view",
      "type": "function"
    },
    {
      "inputs": [
        {
          "internalType": "address",
          "name": "_from",
          "type": "address"
        },
        {
          "internalType": "uint256",
          "name": "_amount",
          "type": "uint256"
        }
      ],
      "name": "burn",
      "outputs": [],
      "stateMutability": "nonpayable",
      "type": "function"
    },
    {
      "inputs": [],
      "name": "decimals",
      "outputs": [
        {
          "internalType": "uint8",
          "name": "",
          "type": "uint8"
        }
      ],
      "stateMutability": "view",
      "type": "function"
    },
    {
      "inputs": [
        {
          "internalType": "bytes32",
          "name": "role",
          "type": "bytes32"
        }
      ],
      "name": "getRoleAdmin",
      "outputs": [
        {
          "internalType": "bytes32",
          "name": "",
          "type": "bytes32"
        }
      ],
      "stateMutability": "view",
      "type": "function"
    },
    {
      "inputs": [
        {
          "internalType": "bytes32",
          "name": "role",
          "type": "bytes32"
        },
        {
          "internalType": "uint256",
          "name": "index",
          "type": "uint256"
        }
      ],
      "name": "getRoleMember",
      "outputs": [
        {
          "internalType": "address",
          "name": "",
          "type": "address"
        }
      ],
      "stateMutability": "view",
      "type": "function"
    },
    {
      "inputs": [
        {
          "internalType": "bytes32",
          "name": "role",
          "type": "bytes32"
        }
      ],
      "name": "getRoleMemberCount",
      "outputs": [
        {
          "internalType": "uint256",
          "name": "",
          "type": "uint256"
        }
      ],
      "stateMutability": "view",
      "type": "function"
    },
    {
      "inputs": [
        {
          "internalType": "bytes32",
          "name": "role",
          "type": "bytes32"
        },
        {
          "internalType": "address",
          "name": "account",
          "type": "address"
        }
      ],
      "name": "grantRole",
      "outputs": [],
      "stateMutability": "nonpayable",
      "type": "function"
    },
    {
      "inputs": [
        {
          "internalType": "bytes32",
          "name": "role",
          "type": "bytes32"
        },
        {
          "internalType": "address",
          "name": "account",
          "type": "address"
        }
      ],
      "name": "hasRole",
      "outputs": [
        {
          "internalType": "bool",
          "name": "",
          "type": "bool"
        }
      ],
      "stateMutability": "view",
      "type": "function"
    },
    {
      "inputs": [
        {
          "internalType": "string",
          "name": "_name",
          "type": "string"
        },
        {
          "internalType": "string",
          "name": "_symbol",
          "type": "string"
        },
        {
          "internalType": "uint8",
          "name": "_decimals",
          "type": "uint8"
        },
        {
          "internalType": "address",
          "name": "_owner",
          "type": "address"
        },
        {
          "internalType": "address",
          "name": "_kresko",
          "type": "address"
        }
      ],
      "name": "initialize",
      "outputs": [],
      "stateMutability": "nonpayable",
      "type": "function"
    },
    {
      "inputs": [],
      "name": "kresko",
      "outputs": [
        {
          "internalType": "address",
          "name": "",
          "type": "address"
        }
      ],
      "stateMutability": "view",
      "type": "function"
    },
    {
      "inputs": [
        {
          "internalType": "address",
          "name": "_to",
          "type": "address"
        },
        {
          "internalType": "uint256",
          "name": "_amount",
          "type": "uint256"
        }
      ],
      "name": "mint",
      "outputs": [],
      "stateMutability": "nonpayable",
      "type": "function"
    },
    {
      "inputs": [],
      "name": "name",
      "outputs": [
        {
          "internalType": "string",
          "name": "",
          "type": "string"
        }
      ],
      "stateMutability": "view",
      "type": "function"
    },
    {
      "inputs": [
        {
          "internalType": "address",
          "name": "",
          "type": "address"
        }
      ],
      "name": "nonces",
      "outputs": [
        {
          "internalType": "uint256",
          "name": "",
          "type": "uint256"
        }
      ],
      "stateMutability": "view",
      "type": "function"
    },
    {
      "inputs": [
        {
          "internalType": "address",
          "name": "owner",
          "type": "address"
        },
        {
          "internalType": "address",
          "name": "spender",
          "type": "address"
        },
        {
          "internalType": "uint256",
          "name": "value",
          "type": "uint256"
        },
        {
          "internalType": "uint256",
          "name": "deadline",
          "type": "uint256"
        },
        {
          "internalType": "uint8",
          "name": "v",
          "type": "uint8"
        },
        {
          "internalType": "bytes32",
          "name": "r",
          "type": "bytes32"
        },
        {
          "internalType": "bytes32",
          "name": "s",
          "type": "bytes32"
        }
      ],
      "name": "permit",
      "outputs": [],
      "stateMutability": "nonpayable",
      "type": "function"
    },
    {
      "inputs": [],
      "name": "rebalance",
      "outputs": [
        {
          "internalType": "bool",
          "name": "expand",
          "type": "bool"
        },
        {
          "internalType": "uint256",
          "name": "rate",
          "type": "uint256"
        }
      ],
      "stateMutability": "view",
      "type": "function"
    },
    {
      "inputs": [],
      "name": "rebalanced",
      "outputs": [
        {
          "internalType": "bool",
          "name": "",
          "type": "bool"
        }
      ],
      "stateMutability": "view",
      "type": "function"
    },
    {
      "inputs": [
        {
          "internalType": "bytes32",
          "name": "role",
          "type": "bytes32"
        },
        {
          "internalType": "address",
          "name": "account",
          "type": "address"
        }
      ],
      "name": "renounceRole",
      "outputs": [],
      "stateMutability": "nonpayable",
      "type": "function"
    },
    {
      "inputs": [
        {
          "internalType": "bytes32",
          "name": "role",
          "type": "bytes32"
        },
        {
          "internalType": "address",
          "name": "account",
          "type": "address"
        }
      ],
      "name": "revokeRole",
      "outputs": [],
      "stateMutability": "nonpayable",
      "type": "function"
    },
    {
      "inputs": [
        {
          "internalType": "uint256",
          "name": "_rate",
          "type": "uint256"
        },
        {
          "internalType": "bool",
          "name": "_expand",
          "type": "bool"
        }
      ],
      "name": "setRebalance",
      "outputs": [],
      "stateMutability": "nonpayable",
      "type": "function"
    },
    {
      "inputs": [
        {
          "internalType": "bytes4",
          "name": "interfaceId",
          "type": "bytes4"
        }
      ],
      "name": "supportsInterface",
      "outputs": [
        {
          "internalType": "bool",
          "name": "",
          "type": "bool"
        }
      ],
      "stateMutability": "view",
      "type": "function"
    },
    {
      "inputs": [],
      "name": "symbol",
      "outputs": [
        {
          "internalType": "string",
          "name": "",
          "type": "string"
        }
      ],
      "stateMutability": "view",
      "type": "function"
    },
    {
      "inputs": [],
      "name": "totalSupply",
      "outputs": [
        {
          "internalType": "uint256",
          "name": "",
          "type": "uint256"
        }
      ],
      "stateMutability": "view",
      "type": "function"
    },
    {
      "inputs": [
        {
          "internalType": "address",
          "name": "_to",
          "type": "address"
        },
        {
          "internalType": "uint256",
          "name": "_amount",
          "type": "uint256"
        }
      ],
      "name": "transfer",
      "outputs": [
        {
          "internalType": "bool",
          "name": "",
          "type": "bool"
        }
      ],
      "stateMutability": "nonpayable",
      "type": "function"
    },
    {
      "inputs": [
        {
          "internalType": "address",
          "name": "_from",
          "type": "address"
        },
        {
          "internalType": "address",
          "name": "_to",
          "type": "address"
        },
        {
          "internalType": "uint256",
          "name": "_amount",
          "type": "uint256"
        }
      ],
      "name": "transferFrom",
      "outputs": [
        {
          "internalType": "bool",
          "name": "",
          "type": "bool"
        }
      ],
      "stateMutability": "nonpayable",
      "type": "function"
    },
    {
      "inputs": [
        {
          "internalType": "string",
          "name": "_name",
          "type": "string"
        },
        {
          "internalType": "string",
          "name": "_symbol",
          "type": "string"
        },
        {
          "internalType": "uint8",
          "name": "_version",
          "type": "uint8"
        }
      ],
      "name": "updateMetaData",
      "outputs": [],
      "stateMutability": "nonpayable",
      "type": "function"
    }
  ],
  "transactionHash": "0x73cd6d5186ddd58b09cf41aea600c3e784d103d6f50ef4d3e363d67b03f5662c",
  "args": [],
  "numDeployments": 1,
  "solcInputHash": "982b6a22f97b2c235980e50ae289fa10",
  "bytecode": "0x60c06040523480156200001157600080fd5b5060008060019054906101000a900460ff16159050808015620000445750600160008054906101000a900460ff1660ff16105b8062000080575062000061306200018260201b620017561760201c565b1580156200007f5750600160008054906101000a900460ff1660ff16145b5b620000c2576040517f08c379a0000000000000000000000000000000000000000000000000000000008152600401620000b990620002bc565b60405180910390fd5b60016000806101000a81548160ff021916908360ff160217905550801562000100576001600060016101000a81548160ff0219169083151502179055505b466080818152505062000118620001a560201b60201c565b60a0818152505080156200017b5760008060016101000a81548160ff0219169083151502179055507f7f26b83ff96e1f2b6a682f133852f6798a09c465da95921460cefb3847402498600160405162000172919062000338565b60405180910390a15b5062000555565b6000808273ffffffffffffffffffffffffffffffffffffffff163b119050919050565b60007f8b73c3c69bb8fe3d512ecc4cf759cc79239f7b179b0ffacaa9a75d522b39400f6001604051620001d9919062000464565b60405180910390207fc89efdaa54c0f20c7adf612882df0950f5a951637e0307cdcb4c672f298b8bc646306040516020016200021a959493929190620004f8565b60405160208183030381529060405280519060200120905090565b600082825260208201905092915050565b7f496e697469616c697a61626c653a20636f6e747261637420697320616c72656160008201527f647920696e697469616c697a6564000000000000000000000000000000000000602082015250565b6000620002a4602e8362000235565b9150620002b18262000246565b604082019050919050565b60006020820190508181036000830152620002d78162000295565b9050919050565b6000819050919050565b600060ff82169050919050565b6000819050919050565b6000620003206200031a6200031484620002de565b620002f5565b620002e8565b9050919050565b6200033281620002ff565b82525050565b60006020820190506200034f600083018462000327565b92915050565b7f4e487b7100000000000000000000000000000000000000000000000000000000600052602260045260246000fd5b600060028204905060018216806200039d57607f821691505b602082108103620003b357620003b262000355565b5b50919050565b600081905092915050565b60008190508160005260206000209050919050565b60008154620003e88162000384565b620003f48186620003b9565b9450600182166000811462000412576001811462000424576200045b565b60ff198316865281860193506200045b565b6200042f85620003c4565b60005b83811015620004535781548189015260018201915060208101905062000432565b838801955050505b50505092915050565b6000620004728284620003d9565b915081905092915050565b6000819050919050565b62000492816200047d565b82525050565b6000819050919050565b620004ad8162000498565b82525050565b600073ffffffffffffffffffffffffffffffffffffffff82169050919050565b6000620004e082620004b3565b9050919050565b620004f281620004d3565b82525050565b600060a0820190506200050f600083018862000487565b6200051e602083018762000487565b6200052d604083018662000487565b6200053c6060830185620004a2565b6200054b6080830184620004e7565b9695505050505050565b60805160a05161383b6200057b6000396000610b1201526000610ade015261383b6000f3fe608060405234801561001057600080fd5b50600436106101cf5760003560e01c80637d7c2a1c11610104578063a3d2563d116100a2578063d505accf11610071578063d505accf14610569578063d547741f14610585578063d77e128c146105a1578063dd62ed3e146105bf576101cf565b8063a3d2563d146104d1578063a9059cbb146104ed578063c820f1461461051d578063ca15c87314610539576101cf565b806391d14854116100de57806391d148541461044957806395d89b41146104795780639dc29fac14610497578063a217fddf146104b3576101cf565b80637d7c2a1c146103ca5780637ecebe00146103e95780639010d07c14610419576101cf565b80632f2ff15d1161017157806336568abe1161014b57806336568abe1461034657806340c10f19146103625780636e820f391461037e57806370a082311461039a576101cf565b80632f2ff15d146102ee578063313ce5671461030a5780633644e51514610328576101cf565b8063095ea7b3116101ad578063095ea7b31461024057806318160ddd1461027057806323b872dd1461028e578063248a9ca3146102be576101cf565b806301ffc9a7146101d45780630437c3af1461020457806306fdde0314610222575b600080fd5b6101ee60048036038101906101e99190612730565b6105ef565b6040516101fb9190612778565b60405180910390f35b61020c6106b9565b6040516102199190612778565b60405180910390f35b61022a6106cc565b604051610237919061282c565b60405180910390f35b61025a600480360381019061025591906128e2565b61075a565b6040516102679190612778565b60405180910390f35b61027861084c565b6040516102859190612931565b60405180910390f35b6102a860048036038101906102a3919061294c565b6108b8565b6040516102b59190612778565b60405180910390f35b6102d860048036038101906102d391906129d5565b610a86565b6040516102e59190612a11565b60405180910390f35b61030860048036038101906103039190612a2c565b610aa6565b005b610312610ac7565b60405161031f9190612a88565b60405180910390f35b610330610ada565b60405161033d9190612a11565b60405180910390f35b610360600480360381019061035b9190612a2c565b610b37565b005b61037c600480360381019061037791906128e2565b610bba565b005b61039860048036038101906103939190612acf565b610c55565b005b6103b460048036038101906103af9190612b0f565b610d24565b6040516103c19190612931565b60405180910390f35b6103d2610dd3565b6040516103e0929190612b3c565b60405180910390f35b61040360048036038101906103fe9190612b0f565b610df2565b6040516104109190612931565b60405180910390f35b610433600480360381019061042e9190612b65565b610e0a565b6040516104409190612bb4565b60405180910390f35b610463600480360381019061045e9190612a2c565b610e39565b6040516104709190612778565b60405180910390f35b610481610ea4565b60405161048e919061282c565b60405180910390f35b6104b160048036038101906104ac91906128e2565b610f32565b005b6104bb610fcd565b6040516104c89190612a11565b60405180910390f35b6104eb60048036038101906104e69190612d30565b610fd4565b005b610507600480360381019061050291906128e2565b6110f7565b6040516105149190612778565b60405180910390f35b61053760048036038101906105329190612dbb565b61110c565b005b610553600480360381019061054e91906129d5565b611305565b6040516105609190612931565b60405180910390f35b610583600480360381019061057e9190612e6e565b611329565b005b61059f600480360381019061059a9190612a2c565b611622565b005b6105a9611643565b6040516105b69190612bb4565b60405180910390f35b6105d960048036038101906105d49190612f10565b611669565b6040516105e69190612931565b60405180910390f35b60007f7646c3c8000000000000000000000000000000000000000000000000000000007bffffffffffffffffffffffffffffffffffffffffffffffffffffffff1916827bffffffffffffffffffffffffffffffffffffffffffffffffffffffff1916148061068257506301ffc9a760e01b827bffffffffffffffffffffffffffffffffffffffffffffffffffffffff1916145b806106b257506336372b0760e01b827bffffffffffffffffffffffffffffffffffffffffffffffffffffffff1916145b9050919050565b60d060009054906101000a900460ff1681565b600180546106d990612f7f565b80601f016020809104026020016040519081016040528092919081815260200182805461070590612f7f565b80156107525780601f1061072757610100808354040283529160200191610752565b820191906000526020600020905b81548152906001019060200180831161073557829003601f168201915b505050505081565b600081600660003373ffffffffffffffffffffffffffffffffffffffff1673ffffffffffffffffffffffffffffffffffffffff16815260200190815260200160002060008573ffffffffffffffffffffffffffffffffffffffff1673ffffffffffffffffffffffffffffffffffffffff168152602001908152602001600020819055508273ffffffffffffffffffffffffffffffffffffffff163373ffffffffffffffffffffffffffffffffffffffff167f8c5be1e5ebec7d5bd14f71427d1e84f3dd0314c0f7b2291e5b200ac8c7c3b9258460405161083a9190612931565b60405180910390a36001905092915050565b600060d060009054906101000a900460ff1661086c5760045490506108b5565b6108b260d16040518060400160405290816000820160009054906101000a900460ff1615151515815260200160018201548152505060045461177990919063ffffffff16565b90505b90565b600080600660008673ffffffffffffffffffffffffffffffffffffffff1673ffffffffffffffffffffffffffffffffffffffff16815260200190815260200160002060003373ffffffffffffffffffffffffffffffffffffffff1673ffffffffffffffffffffffffffffffffffffffff1681526020019081526020016000205490507fffffffffffffffffffffffffffffffffffffffffffffffffffffffffffffffff8114610a7157808311156040518060400160405280600381526020017f3130380000000000000000000000000000000000000000000000000000000000815250906109dc576040517f08c379a00000000000000000000000000000000000000000000000000000000081526004016109d3919061282c565b60405180910390fd5b5082600660008773ffffffffffffffffffffffffffffffffffffffff1673ffffffffffffffffffffffffffffffffffffffff16815260200190815260200160002060003373ffffffffffffffffffffffffffffffffffffffff1673ffffffffffffffffffffffffffffffffffffffff1681526020019081526020016000206000828254610a699190612fdf565b925050819055505b610a7c8585856117c0565b9150509392505050565b6000606c6000838152602001908152602001600020600101549050919050565b610aaf82610a86565b610ab881611a62565b610ac28383611a76565b505050565b600360009054906101000a900460ff1681565b60007f00000000000000000000000000000000000000000000000000000000000000004614610b1057610b0b611aaa565b610b32565b7f00000000000000000000000000000000000000000000000000000000000000005b905090565b610b3f611b36565b73ffffffffffffffffffffffffffffffffffffffff168173ffffffffffffffffffffffffffffffffffffffff1614610bac576040517f08c379a0000000000000000000000000000000000000000000000000000000008152600401610ba390613085565b60405180910390fd5b610bb68282611b3e565b5050565b7f112e48a576fb3a75acc75d9fcf6e0bc670b27b1dbcd2463502e10e68cf57d6fd60001b610be781611a62565b610c508360d060009054906101000a900460ff1615610c4957610c4460d16040518060400160405290816000820160009054906101000a900460ff161515151581526020016001820154815250508561177990919063ffffffff16565b610c4b565b835b611b72565b505050565b7f112e48a576fb3a75acc75d9fcf6e0bc670b27b1dbcd2463502e10e68cf57d6fd60001b610c8281611a62565b6000831480610c985750670de0b6b3a764000083145b15610cbd57600060d060006101000a81548160ff021916908315150217905550610d1f565b600160d060006101000a81548160ff021916908315150217905550604051806040016040528083151581526020018481525060d160008201518160000160006101000a81548160ff021916908315150217905550602082015181600101559050505b505050565b600080600560008473ffffffffffffffffffffffffffffffffffffffff1673ffffffffffffffffffffffffffffffffffffffff16815260200190815260200160002054905060d060009054906101000a900460ff16610d865780915050610dce565b610dca60d16040518060400160405290816000820160009054906101000a900460ff161515151581526020016001820154815250508261177990919063ffffffff16565b9150505b919050565b60d18060000160009054906101000a900460ff16908060010154905082565b60076020528060005260406000206000915090505481565b6000610e3182609e6000868152602001908152602001600020611c4290919063ffffffff16565b905092915050565b6000606c600084815260200190815260200160002060000160008373ffffffffffffffffffffffffffffffffffffffff1673ffffffffffffffffffffffffffffffffffffffff16815260200190815260200160002060009054906101000a900460ff16905092915050565b60028054610eb190612f7f565b80601f0160208091040260200160405190810160405280929190818152602001828054610edd90612f7f565b8015610f2a5780601f10610eff57610100808354040283529160200191610f2a565b820191906000526020600020905b815481529060010190602001808311610f0d57829003601f168201915b505050505081565b7f112e48a576fb3a75acc75d9fcf6e0bc670b27b1dbcd2463502e10e68cf57d6fd60001b610f5f81611a62565b610fc88360d060009054906101000a900460ff1615610fc157610fbc60d16040518060400160405290816000820160009054906101000a900460ff161515151581526020016001820154815250508561177990919063ffffffff16565b610fc3565b835b611c5c565b505050565b6000801b81565b6000801b610fe181611a62565b81600060019054906101000a900460ff1615801561101157508060ff1660008054906101000a900460ff1660ff16105b611050576040517f08c379a000000000000000000000000000000000000000000000000000000000815260040161104790613117565b60405180910390fd5b806000806101000a81548160ff021916908360ff1602179055506001600060016101000a81548160ff02191690831515021790555061109f8585600360009054906101000a900460ff16611d2c565b60008060016101000a81548160ff0219169083151502179055507f7f26b83ff96e1f2b6a682f133852f6798a09c465da95921460cefb3847402498816040516110e89190612a88565b60405180910390a15050505050565b60006111043384846117c0565b905092915050565b60008060019054906101000a900460ff1615905080801561113d5750600160008054906101000a900460ff1660ff16105b8061116a575061114c30611756565b1580156111695750600160008054906101000a900460ff1660ff16145b5b6111a9576040517f08c379a00000000000000000000000000000000000000000000000000000000081526004016111a090613117565b60405180910390fd5b60016000806101000a81548160ff021916908360ff16021790555080156111e6576001600060016101000a81548160ff0219169083151502179055505b6111f1868686611d2c565b6111f9611dc9565b6112066000801b84611e1a565b6112367f112e48a576fb3a75acc75d9fcf6e0bc670b27b1dbcd2463502e10e68cf57d6fd60001b6000801b611e28565b6112637f112e48a576fb3a75acc75d9fcf6e0bc670b27b1dbcd2463502e10e68cf57d6fd60001b83611e1a565b8160d060016101000a81548173ffffffffffffffffffffffffffffffffffffffff021916908373ffffffffffffffffffffffffffffffffffffffff16021790555080156112fd5760008060016101000a81548160ff0219169083151502179055507f7f26b83ff96e1f2b6a682f133852f6798a09c465da95921460cefb384740249860016040516112f4919061317c565b60405180910390a15b505050505050565b6000611322609e6000848152602001908152602001600020611e84565b9050919050565b4284101561136c576040517f08c379a0000000000000000000000000000000000000000000000000000000008152600401611363906131e3565b60405180910390fd5b60006001611378610ada565b7f6e71edae12b1b97f4d1f60370fef10105fa2faae0126114a169c64845d6126c98a8a8a600760008f73ffffffffffffffffffffffffffffffffffffffff1673ffffffffffffffffffffffffffffffffffffffff1681526020019081526020016000206000815480929190600101919050558b60405160200161140096959493929190613203565b604051602081830303815290604052805190602001206040516020016114279291906132dc565b604051602081830303815290604052805190602001208585856040516000815260200160405260405161145d9493929190613313565b6020604051602081039080840390855afa15801561147f573d6000803e3d6000fd5b505050602060405103519050600073ffffffffffffffffffffffffffffffffffffffff168173ffffffffffffffffffffffffffffffffffffffff16141580156114f357508773ffffffffffffffffffffffffffffffffffffffff168173ffffffffffffffffffffffffffffffffffffffff16145b611532576040517f08c379a0000000000000000000000000000000000000000000000000000000008152600401611529906133a4565b60405180910390fd5b85600660008373ffffffffffffffffffffffffffffffffffffffff1673ffffffffffffffffffffffffffffffffffffffff16815260200190815260200160002060008973ffffffffffffffffffffffffffffffffffffffff1673ffffffffffffffffffffffffffffffffffffffff16815260200190815260200160002081905550508573ffffffffffffffffffffffffffffffffffffffff168773ffffffffffffffffffffffffffffffffffffffff167f8c5be1e5ebec7d5bd14f71427d1e84f3dd0314c0f7b2291e5b200ac8c7c3b925876040516116119190612931565b60405180910390a350505050505050565b61162b82610a86565b61163481611a62565b61163e8383611b3e565b505050565b60d060019054906101000a900473ffffffffffffffffffffffffffffffffffffffff1681565b600080600660008573ffffffffffffffffffffffffffffffffffffffff1673ffffffffffffffffffffffffffffffffffffffff16815260200190815260200160002060008473ffffffffffffffffffffffffffffffffffffffff1673ffffffffffffffffffffffffffffffffffffffff16815260200190815260200160002054905060d060009054906101000a900460ff166117085780915050611750565b61174c60d16040518060400160405290816000820160009054906101000a900460ff161515151581526020016001820154815250508261177990919063ffffffff16565b9150505b92915050565b6000808273ffffffffffffffffffffffffffffffffffffffff163b119050919050565b600081600001516117a05761179b826020015184611e9990919063ffffffff16565b6117b8565b6117b7826020015184611eb690919063ffffffff16565b5b905092915050565b600060d060009054906101000a900460ff1661187e5781600560008673ffffffffffffffffffffffffffffffffffffffff1673ffffffffffffffffffffffffffffffffffffffff16815260200190815260200160002060008282546118259190612fdf565b9250508190555081600560008573ffffffffffffffffffffffffffffffffffffffff1673ffffffffffffffffffffffffffffffffffffffff168152602001908152602001600020600082825401925050819055506119f2565b600061188985610d24565b9050808311156040518060400160405280600381526020017f313037000000000000000000000000000000000000000000000000000000000081525090611906576040517f08c379a00000000000000000000000000000000000000000000000000000000081526004016118fd919061282c565b60405180910390fd5b5061194b60d16040518060400160405290816000820160009054906101000a900460ff1615151515815260200160018201548152505084611ed390919063ffffffff16565b925082600560008773ffffffffffffffffffffffffffffffffffffffff1673ffffffffffffffffffffffffffffffffffffffff168152602001908152602001600020600082825461199c9190612fdf565b9250508190555082600560008673ffffffffffffffffffffffffffffffffffffffff1673ffffffffffffffffffffffffffffffffffffffff16815260200190815260200160002060008282540192505081905550505b8273ffffffffffffffffffffffffffffffffffffffff168473ffffffffffffffffffffffffffffffffffffffff167fddf252ad1be2c89b69c2b068fc378daa952ba7f163c4a11628f55a4df523b3ef84604051611a4f9190612931565b60405180910390a3600190509392505050565b611a7381611a6e611b36565b611f1a565b50565b611a808282611fb7565b611aa581609e600085815260200190815260200160002061209890919063ffffffff16565b505050565b60007f8b73c3c69bb8fe3d512ecc4cf759cc79239f7b179b0ffacaa9a75d522b39400f6001604051611adc9190613463565b60405180910390207fc89efdaa54c0f20c7adf612882df0950f5a951637e0307cdcb4c672f298b8bc64630604051602001611b1b95949392919061347a565b60405160208183030381529060405280519060200120905090565b600033905090565b611b4882826120c8565b611b6d81609e60008581526020019081526020016000206121aa90919063ffffffff16565b505050565b8060046000828254611b8491906134cd565b9250508190555080600560008473ffffffffffffffffffffffffffffffffffffffff1673ffffffffffffffffffffffffffffffffffffffff168152602001908152602001600020600082825401925050819055508173ffffffffffffffffffffffffffffffffffffffff16600073ffffffffffffffffffffffffffffffffffffffff167fddf252ad1be2c89b69c2b068fc378daa952ba7f163c4a11628f55a4df523b3ef83604051611c369190612931565b60405180910390a35050565b6000611c5183600001836121da565b60001c905092915050565b80600560008473ffffffffffffffffffffffffffffffffffffffff1673ffffffffffffffffffffffffffffffffffffffff1681526020019081526020016000206000828254611cab9190612fdf565b9250508190555080600460008282540392505081905550600073ffffffffffffffffffffffffffffffffffffffff168273ffffffffffffffffffffffffffffffffffffffff167fddf252ad1be2c89b69c2b068fc378daa952ba7f163c4a11628f55a4df523b3ef83604051611d209190612931565b60405180910390a35050565b600060019054906101000a900460ff16611d7b576040517f08c379a0000000000000000000000000000000000000000000000000000000008152600401611d7290613595565b60405180910390fd5b8260019080519060200190611d91929190612621565b508160029080519060200190611da8929190612621565b5080600360006101000a81548160ff021916908360ff160217905550505050565b600060019054906101000a900460ff16611e18576040517f08c379a0000000000000000000000000000000000000000000000000000000008152600401611e0f90613595565b60405180910390fd5b565b611e248282611a76565b5050565b6000611e3383610a86565b905081606c6000858152602001908152602001600020600101819055508181847fbd79b86ffe0ab8e8776151514217cd7cacd52c909f66475c3af44e129f0b00ff60405160405180910390a4505050565b6000611e9282600001612205565b9050919050565b6000611eae83670de0b6b3a764000084612216565b905092915050565b6000611ecb8383670de0b6b3a7640000612216565b905092915050565b60008160000151611efa57611ef5826020015184611eb690919063ffffffff16565b611f12565b611f11826020015184611e9990919063ffffffff16565b5b905092915050565b611f248282610e39565b611fb357611f498173ffffffffffffffffffffffffffffffffffffffff16601461223e565b611f578360001c602061223e565b604051602001611f6892919061367e565b6040516020818303038152906040526040517f08c379a0000000000000000000000000000000000000000000000000000000008152600401611faa919061282c565b60405180910390fd5b5050565b611fc18282610e39565b612094576001606c600084815260200190815260200160002060000160008373ffffffffffffffffffffffffffffffffffffffff1673ffffffffffffffffffffffffffffffffffffffff16815260200190815260200160002060006101000a81548160ff021916908315150217905550612039611b36565b73ffffffffffffffffffffffffffffffffffffffff168173ffffffffffffffffffffffffffffffffffffffff16837f2f8788117e7eff1d82e926ec794901d17c78024a50270940304540a733656f0d60405160405180910390a45b5050565b60006120c0836000018373ffffffffffffffffffffffffffffffffffffffff1660001b61247a565b905092915050565b6120d28282610e39565b156121a6576000606c600084815260200190815260200160002060000160008373ffffffffffffffffffffffffffffffffffffffff1673ffffffffffffffffffffffffffffffffffffffff16815260200190815260200160002060006101000a81548160ff02191690831515021790555061214b611b36565b73ffffffffffffffffffffffffffffffffffffffff168173ffffffffffffffffffffffffffffffffffffffff16837ff6391f5c32d9c69d2a47ea670b442974b53935d1edc7fd64eb21e047a839171b60405160405180910390a45b5050565b60006121d2836000018373ffffffffffffffffffffffffffffffffffffffff1660001b6124ea565b905092915050565b60008260000182815481106121f2576121f16136b8565b5b9060005260206000200154905092915050565b600081600001805490509050919050565b6000828402905082848204148415178215151661223257600080fd5b81810490509392505050565b60606000600283600261225191906136e7565b61225b91906134cd565b67ffffffffffffffff81111561227457612273612bd9565b5b6040519080825280601f01601f1916602001820160405280156122a65781602001600182028036833780820191505090505b5090507f3000000000000000000000000000000000000000000000000000000000000000816000815181106122de576122dd6136b8565b5b60200101907effffffffffffffffffffffffffffffffffffffffffffffffffffffffffffff1916908160001a9053507f780000000000000000000000000000000000000000000000000000000000000081600181518110612342576123416136b8565b5b60200101907effffffffffffffffffffffffffffffffffffffffffffffffffffffffffffff1916908160001a9053506000600184600261238291906136e7565b61238c91906134cd565b90505b600181111561242c577f3031323334353637383961626364656600000000000000000000000000000000600f8616601081106123ce576123cd6136b8565b5b1a60f81b8282815181106123e5576123e46136b8565b5b60200101907effffffffffffffffffffffffffffffffffffffffffffffffffffffffffffff1916908160001a905350600485901c94508061242590613741565b905061238f565b5060008414612470576040517f08c379a0000000000000000000000000000000000000000000000000000000008152600401612467906137b6565b60405180910390fd5b8091505092915050565b600061248683836125fe565b6124df5782600001829080600181540180825580915050600190039060005260206000200160009091909190915055826000018054905083600101600084815260200190815260200160002081905550600190506124e4565b600090505b92915050565b600080836001016000848152602001908152602001600020549050600081146125f257600060018261251c9190612fdf565b90506000600186600001805490506125349190612fdf565b90508181146125a3576000866000018281548110612555576125546136b8565b5b9060005260206000200154905080876000018481548110612579576125786136b8565b5b90600052602060002001819055508387600101600083815260200190815260200160002081905550505b856000018054806125b7576125b66137d6565b5b6001900381819060005260206000200160009055905585600101600086815260200190815260200160002060009055600193505050506125f8565b60009150505b92915050565b600080836001016000848152602001908152602001600020541415905092915050565b82805461262d90612f7f565b90600052602060002090601f01602090048101928261264f5760008555612696565b82601f1061266857805160ff1916838001178555612696565b82800160010185558215612696579182015b8281111561269557825182559160200191906001019061267a565b5b5090506126a391906126a7565b5090565b5b808211156126c05760008160009055506001016126a8565b5090565b6000604051905090565b600080fd5b600080fd5b60007fffffffff0000000000000000000000000000000000000000000000000000000082169050919050565b61270d816126d8565b811461271857600080fd5b50565b60008135905061272a81612704565b92915050565b600060208284031215612746576127456126ce565b5b60006127548482850161271b565b91505092915050565b60008115159050919050565b6127728161275d565b82525050565b600060208201905061278d6000830184612769565b92915050565b600081519050919050565b600082825260208201905092915050565b60005b838110156127cd5780820151818401526020810190506127b2565b838111156127dc576000848401525b50505050565b6000601f19601f8301169050919050565b60006127fe82612793565b612808818561279e565b93506128188185602086016127af565b612821816127e2565b840191505092915050565b6000602082019050818103600083015261284681846127f3565b905092915050565b600073ffffffffffffffffffffffffffffffffffffffff82169050919050565b60006128798261284e565b9050919050565b6128898161286e565b811461289457600080fd5b50565b6000813590506128a681612880565b92915050565b6000819050919050565b6128bf816128ac565b81146128ca57600080fd5b50565b6000813590506128dc816128b6565b92915050565b600080604083850312156128f9576128f86126ce565b5b600061290785828601612897565b9250506020612918858286016128cd565b9150509250929050565b61292b816128ac565b82525050565b60006020820190506129466000830184612922565b92915050565b600080600060608486031215612965576129646126ce565b5b600061297386828701612897565b935050602061298486828701612897565b9250506040612995868287016128cd565b9150509250925092565b6000819050919050565b6129b28161299f565b81146129bd57600080fd5b50565b6000813590506129cf816129a9565b92915050565b6000602082840312156129eb576129ea6126ce565b5b60006129f9848285016129c0565b91505092915050565b612a0b8161299f565b82525050565b6000602082019050612a266000830184612a02565b92915050565b60008060408385031215612a4357612a426126ce565b5b6000612a51858286016129c0565b9250506020612a6285828601612897565b9150509250929050565b600060ff82169050919050565b612a8281612a6c565b82525050565b6000602082019050612a9d6000830184612a79565b92915050565b612aac8161275d565b8114612ab757600080fd5b50565b600081359050612ac981612aa3565b92915050565b60008060408385031215612ae657612ae56126ce565b5b6000612af4858286016128cd565b9250506020612b0585828601612aba565b9150509250929050565b600060208284031215612b2557612b246126ce565b5b6000612b3384828501612897565b91505092915050565b6000604082019050612b516000830185612769565b612b5e6020830184612922565b9392505050565b60008060408385031215612b7c57612b7b6126ce565b5b6000612b8a858286016129c0565b9250506020612b9b858286016128cd565b9150509250929050565b612bae8161286e565b82525050565b6000602082019050612bc96000830184612ba5565b92915050565b600080fd5b600080fd5b7f4e487b7100000000000000000000000000000000000000000000000000000000600052604160045260246000fd5b612c11826127e2565b810181811067ffffffffffffffff82111715612c3057612c2f612bd9565b5b80604052505050565b6000612c436126c4565b9050612c4f8282612c08565b919050565b600067ffffffffffffffff821115612c6f57612c6e612bd9565b5b612c78826127e2565b9050602081019050919050565b82818337600083830152505050565b6000612ca7612ca284612c54565b612c39565b905082815260208101848484011115612cc357612cc2612bd4565b5b612cce848285612c85565b509392505050565b600082601f830112612ceb57612cea612bcf565b5b8135612cfb848260208601612c94565b91505092915050565b612d0d81612a6c565b8114612d1857600080fd5b50565b600081359050612d2a81612d04565b92915050565b600080600060608486031215612d4957612d486126ce565b5b600084013567ffffffffffffffff811115612d6757612d666126d3565b5b612d7386828701612cd6565b935050602084013567ffffffffffffffff811115612d9457612d936126d3565b5b612da086828701612cd6565b9250506040612db186828701612d1b565b9150509250925092565b600080600080600060a08688031215612dd757612dd66126ce565b5b600086013567ffffffffffffffff811115612df557612df46126d3565b5b612e0188828901612cd6565b955050602086013567ffffffffffffffff811115612e2257612e216126d3565b5b612e2e88828901612cd6565b9450506040612e3f88828901612d1b565b9350506060612e5088828901612897565b9250506080612e6188828901612897565b9150509295509295909350565b600080600080600080600060e0888a031215612e8d57612e8c6126ce565b5b6000612e9b8a828b01612897565b9750506020612eac8a828b01612897565b9650506040612ebd8a828b016128cd565b9550506060612ece8a828b016128cd565b9450506080612edf8a828b01612d1b565b93505060a0612ef08a828b016129c0565b92505060c0612f018a828b016129c0565b91505092959891949750929550565b60008060408385031215612f2757612f266126ce565b5b6000612f3585828601612897565b9250506020612f4685828601612897565b9150509250929050565b7f4e487b7100000000000000000000000000000000000000000000000000000000600052602260045260246000fd5b60006002820490506001821680612f9757607f821691505b602082108103612faa57612fa9612f50565b5b50919050565b7f4e487b7100000000000000000000000000000000000000000000000000000000600052601160045260246000fd5b6000612fea826128ac565b9150612ff5836128ac565b92508282101561300857613007612fb0565b5b828203905092915050565b7f416363657373436f6e74726f6c3a2063616e206f6e6c792072656e6f756e636560008201527f20726f6c657320666f722073656c660000000000000000000000000000000000602082015250565b600061306f602f8361279e565b915061307a82613013565b604082019050919050565b6000602082019050818103600083015261309e81613062565b9050919050565b7f496e697469616c697a61626c653a20636f6e747261637420697320616c72656160008201527f647920696e697469616c697a6564000000000000000000000000000000000000602082015250565b6000613101602e8361279e565b915061310c826130a5565b604082019050919050565b60006020820190508181036000830152613130816130f4565b9050919050565b6000819050919050565b6000819050919050565b600061316661316161315c84613137565b613141565b612a6c565b9050919050565b6131768161314b565b82525050565b6000602082019050613191600083018461316d565b92915050565b7f5045524d49545f444541444c494e455f45585049524544000000000000000000600082015250565b60006131cd60178361279e565b91506131d882613197565b602082019050919050565b600060208201905081810360008301526131fc816131c0565b9050919050565b600060c0820190506132186000830189612a02565b6132256020830188612ba5565b6132326040830187612ba5565b61323f6060830186612922565b61324c6080830185612922565b61325960a0830184612922565b979650505050505050565b600081905092915050565b7f1901000000000000000000000000000000000000000000000000000000000000600082015250565b60006132a5600283613264565b91506132b08261326f565b600282019050919050565b6000819050919050565b6132d66132d18261299f565b6132bb565b82525050565b60006132e782613298565b91506132f382856132c5565b60208201915061330382846132c5565b6020820191508190509392505050565b60006080820190506133286000830187612a02565b6133356020830186612a79565b6133426040830185612a02565b61334f6060830184612a02565b95945050505050565b7f494e56414c49445f5349474e4552000000000000000000000000000000000000600082015250565b600061338e600e8361279e565b915061339982613358565b602082019050919050565b600060208201905081810360008301526133bd81613381565b9050919050565b600081905092915050565b60008190508160005260206000209050919050565b600081546133f181612f7f565b6133fb81866133c4565b9450600182166000811461341657600181146134275761345a565b60ff1983168652818601935061345a565b613430856133cf565b60005b8381101561345257815481890152600182019150602081019050613433565b838801955050505b50505092915050565b600061346f82846133e4565b915081905092915050565b600060a08201905061348f6000830188612a02565b61349c6020830187612a02565b6134a96040830186612a02565b6134b66060830185612922565b6134c36080830184612ba5565b9695505050505050565b60006134d8826128ac565b91506134e3836128ac565b9250827fffffffffffffffffffffffffffffffffffffffffffffffffffffffffffffffff0382111561351857613517612fb0565b5b828201905092915050565b7f496e697469616c697a61626c653a20636f6e7472616374206973206e6f74206960008201527f6e697469616c697a696e67000000000000000000000000000000000000000000602082015250565b600061357f602b8361279e565b915061358a82613523565b604082019050919050565b600060208201905081810360008301526135ae81613572565b9050919050565b7f416363657373436f6e74726f6c3a206163636f756e7420000000000000000000600082015250565b60006135eb601783613264565b91506135f6826135b5565b601782019050919050565b600061360c82612793565b6136168185613264565b93506136268185602086016127af565b80840191505092915050565b7f206973206d697373696e6720726f6c6520000000000000000000000000000000600082015250565b6000613668601183613264565b915061367382613632565b601182019050919050565b6000613689826135de565b91506136958285613601565b91506136a08261365b565b91506136ac8284613601565b91508190509392505050565b7f4e487b7100000000000000000000000000000000000000000000000000000000600052603260045260246000fd5b60006136f2826128ac565b91506136fd836128ac565b9250817fffffffffffffffffffffffffffffffffffffffffffffffffffffffffffffffff048311821515161561373657613735612fb0565b5b828202905092915050565b600061374c826128ac565b91506000820361375f5761375e612fb0565b5b600182039050919050565b7f537472696e67733a20686578206c656e67746820696e73756666696369656e74600082015250565b60006137a060208361279e565b91506137ab8261376a565b602082019050919050565b600060208201905081810360008301526137cf81613793565b9050919050565b7f4e487b7100000000000000000000000000000000000000000000000000000000600052603160045260246000fdfea2646970667358221220a98e033b8b3bb36ec46642552817bd486e814d9b05f01be0377e6be344ae82ff64736f6c634300080e0033",
  "devdoc": {
    "author": "Kresko",
    "kind": "dev",
    "methods": {
      "burn(address,uint256)": {
        "details": "Only callable by operator.",
        "params": {
          "_amount": "The amount of tokens to burn."
        }
      },
      "getRoleAdmin(bytes32)": {
        "details": "Returns the admin role that controls `role`. See {grantRole} and {revokeRole}. To change a role's admin, use {_setRoleAdmin}."
      },
      "getRoleMember(bytes32,uint256)": {
        "details": "Returns one of the accounts that have `role`. `index` must be a value between 0 and {getRoleMemberCount}, non-inclusive. Role bearers are not sorted in any particular way, and their ordering may change at any point. WARNING: When using {getRoleMember} and {getRoleMemberCount}, make sure you perform all queries on the same block. See the following https://forum.openzeppelin.com/t/iterating-over-elements-on-enumerableset-in-openzeppelin-contracts/2296[forum post] for more information."
      },
      "getRoleMemberCount(bytes32)": {
        "details": "Returns the number of accounts that have `role`. Can be used together with {getRoleMember} to enumerate all bearers of a role."
      },
      "grantRole(bytes32,address)": {
        "details": "Grants `role` to `account`. If `account` had not been already granted `role`, emits a {RoleGranted} event. Requirements: - the caller must have ``role``'s admin role. May emit a {RoleGranted} event."
      },
      "hasRole(bytes32,address)": {
        "details": "Returns `true` if `account` has been granted `role`."
      },
      "initialize(string,string,uint8,address,address)": {
        "details": "Intended to be operated by the Kresko smart contract.",
        "params": {
          "_decimals": "Decimals for the asset.",
          "_kresko": "The mint/burn operator.",
          "_name": "The name of the KreskoAsset.",
          "_owner": "The owner of this contract.",
          "_symbol": "The symbol of the KreskoAsset."
        }
      },
      "mint(address,uint256)": {
        "details": "Only callable by operator.",
        "params": {
          "_amount": "The amount of tokens to mint."
        }
      },
      "renounceRole(bytes32,address)": {
        "details": "Revokes `role` from the calling account. Roles are often managed via {grantRole} and {revokeRole}: this function's purpose is to provide a mechanism for accounts to lose their privileges if they are compromised (such as when a trusted device is misplaced). If the calling account had been revoked `role`, emits a {RoleRevoked} event. Requirements: - the caller must be `account`. May emit a {RoleRevoked} event."
      },
      "revokeRole(bytes32,address)": {
        "details": "Revokes `role` from `account`. If `account` had been granted `role`, emits a {RoleRevoked} event. Requirements: - the caller must have ``role``'s admin role. May emit a {RoleRevoked} event."
      },
      "setRebalance(uint256,bool)": {
        "params": {
          "_rate": "conversion rate"
        }
      },
      "updateMetaData(string,string,uint8)": {
        "params": {
          "_name": "new name for the asset",
          "_symbol": "new symbol for the asset",
          "_version": "number that must be greater than latest emitted `Initialized` version"
        }
      }
    },
    "title": "Kresko Synthethic Asset - rebalancing ERC20.",
    "version": 1
  },
  "userdoc": {
    "kind": "user",
    "methods": {
      "burn(address,uint256)": {
        "notice": "Burns tokens from an address."
      },
      "initialize(string,string,uint8,address,address)": {
        "notice": "Initializes a KreskoAsset ERC20 token."
      },
      "mint(address,uint256)": {
        "notice": "Mints tokens to an address."
      },
      "setRebalance(uint256,bool)": {
        "notice": "Updates the rate for conversions between fixed kresko asset"
      },
      "supportsInterface(bytes4)": {
        "notice": "ERC-165 - WrappedKreskoAsset, ERC20 and ERC-165 itself"
      },
      "updateMetaData(string,string,uint8)": {
        "notice": "Updates metadata for the token in case eg. ticker change"
      }
    },
    "notice": "Main purpose of this token is to act as the underlying for the `WrappedKreskoAsset` - This token will rebalance eg. when a stock split happensMinting, burning and rebalancing can only be performed by the `Role.OPERATOR`",
    "version": 1
  },
  "storageLayout": {
    "storage": [
      {
        "astId": 2028,
        "contract": "src/contracts/krAsset/KreskoAsset.sol:KreskoAsset",
        "label": "_initialized",
        "offset": 0,
        "slot": "0",
        "type": "t_uint8"
      },
      {
        "astId": 2031,
        "contract": "src/contracts/krAsset/KreskoAsset.sol:KreskoAsset",
        "label": "_initializing",
        "offset": 1,
        "slot": "0",
        "type": "t_bool"
      },
      {
        "astId": 29861,
        "contract": "src/contracts/krAsset/KreskoAsset.sol:KreskoAsset",
        "label": "name",
        "offset": 0,
        "slot": "1",
        "type": "t_string_storage"
      },
      {
        "astId": 29863,
        "contract": "src/contracts/krAsset/KreskoAsset.sol:KreskoAsset",
        "label": "symbol",
        "offset": 0,
        "slot": "2",
        "type": "t_string_storage"
      },
      {
        "astId": 29865,
        "contract": "src/contracts/krAsset/KreskoAsset.sol:KreskoAsset",
        "label": "decimals",
        "offset": 0,
        "slot": "3",
        "type": "t_uint8"
      },
      {
        "astId": 29867,
        "contract": "src/contracts/krAsset/KreskoAsset.sol:KreskoAsset",
        "label": "_totalSupply",
        "offset": 0,
        "slot": "4",
        "type": "t_uint256"
      },
      {
        "astId": 29871,
        "contract": "src/contracts/krAsset/KreskoAsset.sol:KreskoAsset",
        "label": "_balances",
        "offset": 0,
        "slot": "5",
        "type": "t_mapping(t_address,t_uint256)"
      },
      {
        "astId": 29877,
        "contract": "src/contracts/krAsset/KreskoAsset.sol:KreskoAsset",
        "label": "_allowances",
        "offset": 0,
        "slot": "6",
        "type": "t_mapping(t_address,t_mapping(t_address,t_uint256))"
      },
      {
        "astId": 29881,
        "contract": "src/contracts/krAsset/KreskoAsset.sol:KreskoAsset",
        "label": "nonces",
        "offset": 0,
        "slot": "7",
        "type": "t_mapping(t_address,t_uint256)"
      },
      {
        "astId": 2935,
        "contract": "src/contracts/krAsset/KreskoAsset.sol:KreskoAsset",
        "label": "__gap",
        "offset": 0,
        "slot": "8",
        "type": "t_array(t_uint256)50_storage"
      },
      {
        "astId": 3205,
        "contract": "src/contracts/krAsset/KreskoAsset.sol:KreskoAsset",
        "label": "__gap",
        "offset": 0,
        "slot": "58",
        "type": "t_array(t_uint256)50_storage"
      },
      {
        "astId": 1623,
        "contract": "src/contracts/krAsset/KreskoAsset.sol:KreskoAsset",
        "label": "_roles",
        "offset": 0,
        "slot": "108",
        "type": "t_mapping(t_bytes32,t_struct(RoleData)1618_storage)"
      },
      {
        "astId": 1922,
        "contract": "src/contracts/krAsset/KreskoAsset.sol:KreskoAsset",
        "label": "__gap",
        "offset": 0,
        "slot": "109",
        "type": "t_array(t_uint256)49_storage"
      },
      {
        "astId": 1472,
        "contract": "src/contracts/krAsset/KreskoAsset.sol:KreskoAsset",
        "label": "_roleMembers",
        "offset": 0,
        "slot": "158",
        "type": "t_mapping(t_bytes32,t_struct(AddressSet)3906_storage)"
      },
      {
        "astId": 1582,
        "contract": "src/contracts/krAsset/KreskoAsset.sol:KreskoAsset",
        "label": "__gap",
        "offset": 0,
        "slot": "159",
        "type": "t_array(t_uint256)49_storage"
      },
      {
        "astId": 19308,
        "contract": "src/contracts/krAsset/KreskoAsset.sol:KreskoAsset",
        "label": "rebalanced",
        "offset": 0,
        "slot": "208",
        "type": "t_bool"
      },
      {
        "astId": 19310,
        "contract": "src/contracts/krAsset/KreskoAsset.sol:KreskoAsset",
        "label": "kresko",
        "offset": 1,
        "slot": "208",
        "type": "t_address"
      },
      {
        "astId": 19313,
        "contract": "src/contracts/krAsset/KreskoAsset.sol:KreskoAsset",
        "label": "rebalance",
        "offset": 0,
        "slot": "209",
        "type": "t_struct(Rebalance)31131_storage"
      }
    ],
    "types": {
      "t_address": {
        "encoding": "inplace",
        "label": "address",
        "numberOfBytes": "20"
      },
      "t_array(t_bytes32)dyn_storage": {
        "base": "t_bytes32",
        "encoding": "dynamic_array",
        "label": "bytes32[]",
        "numberOfBytes": "32"
      },
      "t_array(t_uint256)49_storage": {
        "base": "t_uint256",
        "encoding": "inplace",
        "label": "uint256[49]",
        "numberOfBytes": "1568"
      },
      "t_array(t_uint256)50_storage": {
        "base": "t_uint256",
        "encoding": "inplace",
        "label": "uint256[50]",
        "numberOfBytes": "1600"
      },
      "t_bool": {
        "encoding": "inplace",
        "label": "bool",
        "numberOfBytes": "1"
      },
      "t_bytes32": {
        "encoding": "inplace",
        "label": "bytes32",
        "numberOfBytes": "32"
      },
      "t_mapping(t_address,t_bool)": {
        "encoding": "mapping",
        "key": "t_address",
        "label": "mapping(address => bool)",
        "numberOfBytes": "32",
        "value": "t_bool"
      },
      "t_mapping(t_address,t_mapping(t_address,t_uint256))": {
        "encoding": "mapping",
        "key": "t_address",
        "label": "mapping(address => mapping(address => uint256))",
        "numberOfBytes": "32",
        "value": "t_mapping(t_address,t_uint256)"
      },
      "t_mapping(t_address,t_uint256)": {
        "encoding": "mapping",
        "key": "t_address",
        "label": "mapping(address => uint256)",
        "numberOfBytes": "32",
        "value": "t_uint256"
      },
      "t_mapping(t_bytes32,t_struct(AddressSet)3906_storage)": {
        "encoding": "mapping",
        "key": "t_bytes32",
        "label": "mapping(bytes32 => struct EnumerableSetUpgradeable.AddressSet)",
        "numberOfBytes": "32",
        "value": "t_struct(AddressSet)3906_storage"
      },
      "t_mapping(t_bytes32,t_struct(RoleData)1618_storage)": {
        "encoding": "mapping",
        "key": "t_bytes32",
        "label": "mapping(bytes32 => struct AccessControlUpgradeable.RoleData)",
        "numberOfBytes": "32",
        "value": "t_struct(RoleData)1618_storage"
      },
      "t_mapping(t_bytes32,t_uint256)": {
        "encoding": "mapping",
        "key": "t_bytes32",
        "label": "mapping(bytes32 => uint256)",
        "numberOfBytes": "32",
        "value": "t_uint256"
      },
      "t_string_storage": {
        "encoding": "bytes",
        "label": "string",
        "numberOfBytes": "32"
      },
      "t_struct(AddressSet)3906_storage": {
        "encoding": "inplace",
        "label": "struct EnumerableSetUpgradeable.AddressSet",
        "members": [
          {
            "astId": 3905,
            "contract": "src/contracts/krAsset/KreskoAsset.sol:KreskoAsset",
            "label": "_inner",
            "offset": 0,
            "slot": "0",
            "type": "t_struct(Set)3605_storage"
          }
        ],
        "numberOfBytes": "64"
      },
      "t_struct(Rebalance)31131_storage": {
        "encoding": "inplace",
        "label": "struct Rebalance",
        "members": [
          {
            "astId": 31128,
            "contract": "src/contracts/krAsset/KreskoAsset.sol:KreskoAsset",
            "label": "expand",
            "offset": 0,
            "slot": "0",
            "type": "t_bool"
          },
          {
            "astId": 31130,
            "contract": "src/contracts/krAsset/KreskoAsset.sol:KreskoAsset",
            "label": "rate",
            "offset": 0,
            "slot": "1",
            "type": "t_uint256"
          }
        ],
        "numberOfBytes": "64"
      },
      "t_struct(RoleData)1618_storage": {
        "encoding": "inplace",
        "label": "struct AccessControlUpgradeable.RoleData",
        "members": [
          {
            "astId": 1615,
            "contract": "src/contracts/krAsset/KreskoAsset.sol:KreskoAsset",
            "label": "members",
            "offset": 0,
            "slot": "0",
            "type": "t_mapping(t_address,t_bool)"
          },
          {
            "astId": 1617,
            "contract": "src/contracts/krAsset/KreskoAsset.sol:KreskoAsset",
            "label": "adminRole",
            "offset": 0,
            "slot": "1",
            "type": "t_bytes32"
          }
        ],
        "numberOfBytes": "64"
      },
      "t_struct(Set)3605_storage": {
        "encoding": "inplace",
        "label": "struct EnumerableSetUpgradeable.Set",
        "members": [
          {
            "astId": 3600,
            "contract": "src/contracts/krAsset/KreskoAsset.sol:KreskoAsset",
            "label": "_values",
            "offset": 0,
            "slot": "0",
            "type": "t_array(t_bytes32)dyn_storage"
          },
          {
            "astId": 3604,
            "contract": "src/contracts/krAsset/KreskoAsset.sol:KreskoAsset",
            "label": "_indexes",
            "offset": 0,
            "slot": "1",
            "type": "t_mapping(t_bytes32,t_uint256)"
          }
        ],
        "numberOfBytes": "64"
      },
      "t_uint256": {
        "encoding": "inplace",
        "label": "uint256",
        "numberOfBytes": "32"
      },
      "t_uint8": {
        "encoding": "inplace",
        "label": "uint8",
        "numberOfBytes": "1"
      }
    }
  }
}