{
  "address": "0x232d36020fbCa3b0A11Ecd1F05da04CE44af0Ef9",
  "abi": [
    {
      "inputs": [
        {
          "internalType": "contract IUniswapV2Router02",
          "name": "_router",
          "type": "address"
        },
        {
          "internalType": "contract IUniswapV2Factory",
          "name": "_factory",
          "type": "address"
        },
        {
          "internalType": "contract IKrStaking",
          "name": "_staking",
          "type": "address"
        }
      ],
      "stateMutability": "nonpayable",
      "type": "constructor"
    },
    {
      "anonymous": false,
      "inputs": [
        {
          "indexed": true,
          "internalType": "address",
          "name": "to",
          "type": "address"
        }
      ],
      "name": "ClaimRewardsMulti",
      "type": "event"
    },
    {
      "anonymous": false,
      "inputs": [
        {
          "indexed": true,
          "internalType": "address",
          "name": "to",
          "type": "address"
        },
        {
          "indexed": true,
          "internalType": "uint256",
          "name": "amount",
          "type": "uint256"
        },
        {
          "indexed": true,
          "internalType": "uint256",
          "name": "pid",
          "type": "uint256"
        }
      ],
      "name": "LiquidityAndStakeAdded",
      "type": "event"
    },
    {
      "anonymous": false,
      "inputs": [
        {
          "indexed": true,
          "internalType": "address",
          "name": "to",
          "type": "address"
        },
        {
          "indexed": true,
          "internalType": "uint256",
          "name": "amount",
          "type": "uint256"
        },
        {
          "indexed": true,
          "internalType": "uint256",
          "name": "pid",
          "type": "uint256"
        }
      ],
      "name": "LiquidityAndStakeRemoved",
      "type": "event"
    },
    {
      "inputs": [
        {
          "internalType": "address",
          "name": "tokenA",
          "type": "address"
        },
        {
          "internalType": "address",
          "name": "tokenB",
          "type": "address"
        },
        {
          "internalType": "uint256",
          "name": "amountADesired",
          "type": "uint256"
        },
        {
          "internalType": "uint256",
          "name": "amountBDesired",
          "type": "uint256"
        },
        {
          "internalType": "uint256",
          "name": "amountAMin",
          "type": "uint256"
        },
        {
          "internalType": "uint256",
          "name": "amountBMin",
          "type": "uint256"
        },
        {
          "internalType": "address",
          "name": "to",
          "type": "address"
        },
        {
          "internalType": "uint256",
          "name": "deadline",
          "type": "uint256"
        }
      ],
      "name": "addLiquidityAndStake",
      "outputs": [
        {
          "internalType": "uint256",
          "name": "",
          "type": "uint256"
        }
      ],
      "stateMutability": "nonpayable",
      "type": "function"
    },
    {
      "inputs": [
        {
          "internalType": "address",
          "name": "to",
          "type": "address"
        }
      ],
      "name": "claimRewardsMulti",
      "outputs": [],
      "stateMutability": "nonpayable",
      "type": "function"
    },
    {
      "inputs": [],
      "name": "factory",
      "outputs": [
        {
          "internalType": "contract IUniswapV2Factory",
          "name": "",
          "type": "address"
        }
      ],
      "stateMutability": "view",
      "type": "function"
    },
    {
      "inputs": [],
      "name": "router",
      "outputs": [
        {
          "internalType": "contract IUniswapV2Router02",
          "name": "",
          "type": "address"
        }
      ],
      "stateMutability": "view",
      "type": "function"
    },
    {
      "inputs": [],
      "name": "staking",
      "outputs": [
        {
          "internalType": "contract IKrStaking",
          "name": "",
          "type": "address"
        }
      ],
      "stateMutability": "view",
      "type": "function"
    },
    {
      "inputs": [
        {
          "internalType": "address",
          "name": "tokenA",
          "type": "address"
        },
        {
          "internalType": "address",
          "name": "tokenB",
          "type": "address"
        },
        {
          "internalType": "uint256",
          "name": "liquidity",
          "type": "uint256"
        },
        {
          "internalType": "uint256",
          "name": "amountAMin",
          "type": "uint256"
        },
        {
          "internalType": "uint256",
          "name": "amountBMin",
          "type": "uint256"
        },
        {
          "internalType": "address",
          "name": "to",
          "type": "address"
        },
        {
          "internalType": "uint256",
          "name": "deadline",
          "type": "uint256"
        }
      ],
      "name": "withdrawAndRemoveLiquidity",
      "outputs": [],
      "stateMutability": "nonpayable",
      "type": "function"
    }
  ],
  "transactionHash": "0x000688a35f4294c6662790c80dde98d72cbf80b491f914eb6f75e1835dc2f2bb",
  "args": [
    "0xB3AD7504D0391c2cd527bed4a3D8BE9983395b16",
    "0x38bf03AA1a152AAF696e79b4b4772a4F95Ef21f0",
    "0xCE6D339aCaEd5C5252E998B441a212421DA7b489"
  ],
  "numDeployments": 1,
  "solcInputHash": "0ce1e08460d17f4712f59fc37114fb55",
  "bytecode": "0x60806040523480156200001157600080fd5b5060405162001e6d38038062001e6d83398181016040528101906200003791906200020a565b826000806101000a81548173ffffffffffffffffffffffffffffffffffffffff021916908373ffffffffffffffffffffffffffffffffffffffff16021790555081600160006101000a81548173ffffffffffffffffffffffffffffffffffffffff021916908373ffffffffffffffffffffffffffffffffffffffff16021790555080600260006101000a81548173ffffffffffffffffffffffffffffffffffffffff021916908373ffffffffffffffffffffffffffffffffffffffff16021790555050505062000266565b600080fd5b600073ffffffffffffffffffffffffffffffffffffffff82169050919050565b6000620001348262000107565b9050919050565b6000620001488262000127565b9050919050565b6200015a816200013b565b81146200016657600080fd5b50565b6000815190506200017a816200014f565b92915050565b60006200018d8262000127565b9050919050565b6200019f8162000180565b8114620001ab57600080fd5b50565b600081519050620001bf8162000194565b92915050565b6000620001d28262000127565b9050919050565b620001e481620001c5565b8114620001f057600080fd5b50565b6000815190506200020481620001d9565b92915050565b60008060006060848603121562000226576200022562000102565b5b6000620002368682870162000169565b93505060206200024986828701620001ae565b92505060406200025c86828701620001f3565b9150509250925092565b611bf780620002766000396000f3fe608060405234801561001057600080fd5b50600436106100625760003560e01c80632df56a3f146100675780634cf088d914610083578063b4c29b68146100a1578063b6842c60146100d1578063c45a0155146100ed578063f887ea401461010b575b600080fd5b610081600480360381019061007c9190611119565b610129565b005b61008b610548565b604051610098919061121a565b60405180910390f35b6100bb60048036038101906100b69190611235565b61056e565b6040516100c891906112fa565b60405180910390f35b6100eb60048036038101906100e69190611315565b610b35565b005b6100f5610d30565b6040516101029190611363565b60405180910390f35b610113610d56565b604051610120919061139f565b60405180910390f35b600073ffffffffffffffffffffffffffffffffffffffff168273ffffffffffffffffffffffffffffffffffffffff1603610198576040517f08c379a000000000000000000000000000000000000000000000000000000000815260040161018f90611417565b60405180910390fd5b6000600160009054906101000a900473ffffffffffffffffffffffffffffffffffffffff1673ffffffffffffffffffffffffffffffffffffffff1663e6a4390589896040518363ffffffff1660e01b81526004016101f7929190611446565b602060405180830381865afa158015610214573d6000803e3d6000fd5b505050506040513d601f19601f820116820180604052508101906102389190611484565b9050600080600260009054906101000a900473ffffffffffffffffffffffffffffffffffffffff1673ffffffffffffffffffffffffffffffffffffffff1663ba8fc5bf846040518263ffffffff1660e01b815260040161029891906114b1565b6040805180830381865afa1580156102b4573d6000803e3d6000fd5b505050506040513d601f19601f820116820180604052508101906102d89190611519565b915091508061031c576040517f08c379a0000000000000000000000000000000000000000000000000000000008152600401610313906115a5565b60405180910390fd5b600260009054906101000a900473ffffffffffffffffffffffffffffffffffffffff1673ffffffffffffffffffffffffffffffffffffffff166343a4534b33848b896040518563ffffffff1660e01b815260040161037d94939291906115c5565b600060405180830381600087803b15801561039757600080fd5b505af11580156103ab573d6000803e3d6000fd5b505050508273ffffffffffffffffffffffffffffffffffffffff1663095ea7b360008054906101000a900473ffffffffffffffffffffffffffffffffffffffff168a6040518363ffffffff1660e01b815260040161040a92919061160a565b6020604051808303816000875af1158015610429573d6000803e3d6000fd5b505050506040513d601f19601f8201168201806040525081019061044d9190611633565b5060008054906101000a900473ffffffffffffffffffffffffffffffffffffffff1673ffffffffffffffffffffffffffffffffffffffff1663baa2abde8b8b8b8b8b8b8b6040518863ffffffff1660e01b81526004016104b39796959493929190611660565b60408051808303816000875af11580156104d1573d6000803e3d6000fd5b505050506040513d601f19601f820116820180604052508101906104f591906116cf565b505081888673ffffffffffffffffffffffffffffffffffffffff167f27b4eb450d703cc6355f1bc733710bf45d86de95f33ef1c672786817a5c9265d60405160405180910390a450505050505050505050565b600260009054906101000a900473ffffffffffffffffffffffffffffffffffffffff1681565b60008073ffffffffffffffffffffffffffffffffffffffff168373ffffffffffffffffffffffffffffffffffffffff16036105de576040517f08c379a00000000000000000000000000000000000000000000000000000000081526004016105d590611417565b60405180910390fd5b6000600160009054906101000a900473ffffffffffffffffffffffffffffffffffffffff1673ffffffffffffffffffffffffffffffffffffffff1663e6a439058b8b6040518363ffffffff1660e01b815260040161063d929190611446565b602060405180830381865afa15801561065a573d6000803e3d6000fd5b505050506040513d601f19601f8201168201806040525081019061067e9190611484565b9050600080600260009054906101000a900473ffffffffffffffffffffffffffffffffffffffff1673ffffffffffffffffffffffffffffffffffffffff1663ba8fc5bf846040518263ffffffff1660e01b81526004016106de91906114b1565b6040805180830381865afa1580156106fa573d6000803e3d6000fd5b505050506040513d601f19601f8201168201806040525081019061071e9190611519565b9150915080610762576040517f08c379a0000000000000000000000000000000000000000000000000000000008152600401610759906115a5565b60405180910390fd5b61078f33308c8f73ffffffffffffffffffffffffffffffffffffffff16610d7a909392919063ffffffff16565b6107bc33308b8e73ffffffffffffffffffffffffffffffffffffffff16610d7a909392919063ffffffff16565b8b73ffffffffffffffffffffffffffffffffffffffff1663095ea7b360008054906101000a900473ffffffffffffffffffffffffffffffffffffffff168c6040518363ffffffff1660e01b815260040161081792919061160a565b6020604051808303816000875af1158015610836573d6000803e3d6000fd5b505050506040513d601f19601f8201168201806040525081019061085a9190611633565b508a73ffffffffffffffffffffffffffffffffffffffff1663095ea7b360008054906101000a900473ffffffffffffffffffffffffffffffffffffffff168b6040518363ffffffff1660e01b81526004016108b692919061160a565b6020604051808303816000875af11580156108d5573d6000803e3d6000fd5b505050506040513d601f19601f820116820180604052508101906108f99190611633565b5060008060009054906101000a900473ffffffffffffffffffffffffffffffffffffffff1673ffffffffffffffffffffffffffffffffffffffff1663e8e337008e8e8e8e8e8e308e6040518963ffffffff1660e01b815260040161096498979695949392919061170f565b6060604051808303816000875af1158015610983573d6000803e3d6000fd5b505050506040513d601f19601f820116820180604052508101906109a7919061178d565b925050508373ffffffffffffffffffffffffffffffffffffffff1663095ea7b3600260009054906101000a900473ffffffffffffffffffffffffffffffffffffffff16836040518363ffffffff1660e01b8152600401610a0892919061160a565b6020604051808303816000875af1158015610a27573d6000803e3d6000fd5b505050506040513d601f19601f82011682018060405250810190610a4b9190611633565b50600260009054906101000a900473ffffffffffffffffffffffffffffffffffffffff1673ffffffffffffffffffffffffffffffffffffffff16630efe6a8b8885846040518463ffffffff1660e01b8152600401610aab939291906117e0565b600060405180830381600087803b158015610ac557600080fd5b505af1158015610ad9573d6000803e3d6000fd5b5050505082818873ffffffffffffffffffffffffffffffffffffffff167f67153b1f92f8a4e823af8ca2fdb93c3d313b9dcb1404c5da9a9c44234a3302e960405160405180910390a48094505050505098975050505050505050565b600073ffffffffffffffffffffffffffffffffffffffff168173ffffffffffffffffffffffffffffffffffffffff1603610ba4576040517f08c379a0000000000000000000000000000000000000000000000000000000008152600401610b9b90611417565b60405180910390fd5b6000600260009054906101000a900473ffffffffffffffffffffffffffffffffffffffff1673ffffffffffffffffffffffffffffffffffffffff1663081e3eda6040518163ffffffff1660e01b8152600401602060405180830381865afa158015610c13573d6000803e3d6000fd5b505050506040513d601f19601f82011682018060405250810190610c379190611817565b905060005b81811015610ce857600260009054906101000a900473ffffffffffffffffffffffffffffffffffffffff1673ffffffffffffffffffffffffffffffffffffffff1663bf82b7b53383866040518463ffffffff1660e01b8152600401610ca393929190611844565b600060405180830381600087803b158015610cbd57600080fd5b505af1158015610cd1573d6000803e3d6000fd5b505050508080610ce0906118aa565b915050610c3c565b508173ffffffffffffffffffffffffffffffffffffffff167fac4bb348f20fccad9f5419b8d566bc60a544d193931dc39efe624899e5d068b760405160405180910390a25050565b600160009054906101000a900473ffffffffffffffffffffffffffffffffffffffff1681565b60008054906101000a900473ffffffffffffffffffffffffffffffffffffffff1681565b610dfd846323b872dd60e01b858585604051602401610d9b939291906118f2565b604051602081830303815290604052907bffffffffffffffffffffffffffffffffffffffffffffffffffffffff19166020820180517bffffffffffffffffffffffffffffffffffffffffffffffffffffffff8381831617835250505050610e03565b50505050565b6000610e65826040518060400160405280602081526020017f5361666545524332303a206c6f772d6c6576656c2063616c6c206661696c65648152508573ffffffffffffffffffffffffffffffffffffffff16610eca9092919063ffffffff16565b9050600081511115610ec55780806020019051810190610e859190611633565b610ec4576040517f08c379a0000000000000000000000000000000000000000000000000000000008152600401610ebb9061199b565b60405180910390fd5b5b505050565b6060610ed98484600085610ee2565b90509392505050565b606082471015610f27576040517f08c379a0000000000000000000000000000000000000000000000000000000008152600401610f1e90611a2d565b60405180910390fd5b610f3085610ff6565b610f6f576040517f08c379a0000000000000000000000000000000000000000000000000000000008152600401610f6690611a99565b60405180910390fd5b6000808673ffffffffffffffffffffffffffffffffffffffff168587604051610f989190611b33565b60006040518083038185875af1925050503d8060008114610fd5576040519150601f19603f3d011682016040523d82523d6000602084013e610fda565b606091505b5091509150610fea828286611019565b92505050949350505050565b6000808273ffffffffffffffffffffffffffffffffffffffff163b119050919050565b6060831561102957829050611079565b60008351111561103c5782518084602001fd5b816040517f08c379a00000000000000000000000000000000000000000000000000000000081526004016110709190611b9f565b60405180910390fd5b9392505050565b600080fd5b600073ffffffffffffffffffffffffffffffffffffffff82169050919050565b60006110b082611085565b9050919050565b6110c0816110a5565b81146110cb57600080fd5b50565b6000813590506110dd816110b7565b92915050565b6000819050919050565b6110f6816110e3565b811461110157600080fd5b50565b600081359050611113816110ed565b92915050565b600080600080600080600060e0888a03121561113857611137611080565b5b60006111468a828b016110ce565b97505060206111578a828b016110ce565b96505060406111688a828b01611104565b95505060606111798a828b01611104565b945050608061118a8a828b01611104565b93505060a061119b8a828b016110ce565b92505060c06111ac8a828b01611104565b91505092959891949750929550565b6000819050919050565b60006111e06111db6111d684611085565b6111bb565b611085565b9050919050565b60006111f2826111c5565b9050919050565b6000611204826111e7565b9050919050565b611214816111f9565b82525050565b600060208201905061122f600083018461120b565b92915050565b600080600080600080600080610100898b03121561125657611255611080565b5b60006112648b828c016110ce565b98505060206112758b828c016110ce565b97505060406112868b828c01611104565b96505060606112978b828c01611104565b95505060806112a88b828c01611104565b94505060a06112b98b828c01611104565b93505060c06112ca8b828c016110ce565b92505060e06112db8b828c01611104565b9150509295985092959890939650565b6112f4816110e3565b82525050565b600060208201905061130f60008301846112eb565b92915050565b60006020828403121561132b5761132a611080565b5b6000611339848285016110ce565b91505092915050565b600061134d826111e7565b9050919050565b61135d81611342565b82525050565b60006020820190506113786000830184611354565b92915050565b6000611389826111e7565b9050919050565b6113998161137e565b82525050565b60006020820190506113b46000830184611390565b92915050565b600082825260208201905092915050565b7f4b523a2021616464726573730000000000000000000000000000000000000000600082015250565b6000611401600c836113ba565b915061140c826113cb565b602082019050919050565b60006020820190508181036000830152611430816113f4565b9050919050565b611440816110a5565b82525050565b600060408201905061145b6000830185611437565b6114686020830184611437565b9392505050565b60008151905061147e816110b7565b92915050565b60006020828403121561149a57611499611080565b5b60006114a88482850161146f565b91505092915050565b60006020820190506114c66000830184611437565b92915050565b6000815190506114db816110ed565b92915050565b60008115159050919050565b6114f6816114e1565b811461150157600080fd5b50565b600081519050611513816114ed565b92915050565b600080604083850312156115305761152f611080565b5b600061153e858286016114cc565b925050602061154f85828601611504565b9150509250929050565b7f4b523a2021706f6f6c4578697374730000000000000000000000000000000000600082015250565b600061158f600f836113ba565b915061159a82611559565b602082019050919050565b600060208201905081810360008301526115be81611582565b9050919050565b60006080820190506115da6000830187611437565b6115e760208301866112eb565b6115f460408301856112eb565b6116016060830184611437565b95945050505050565b600060408201905061161f6000830185611437565b61162c60208301846112eb565b9392505050565b60006020828403121561164957611648611080565b5b600061165784828501611504565b91505092915050565b600060e082019050611675600083018a611437565b6116826020830189611437565b61168f60408301886112eb565b61169c60608301876112eb565b6116a960808301866112eb565b6116b660a0830185611437565b6116c360c08301846112eb565b98975050505050505050565b600080604083850312156116e6576116e5611080565b5b60006116f4858286016114cc565b9250506020611705858286016114cc565b9150509250929050565b600061010082019050611725600083018b611437565b611732602083018a611437565b61173f60408301896112eb565b61174c60608301886112eb565b61175960808301876112eb565b61176660a08301866112eb565b61177360c0830185611437565b61178060e08301846112eb565b9998505050505050505050565b6000806000606084860312156117a6576117a5611080565b5b60006117b4868287016114cc565b93505060206117c5868287016114cc565b92505060406117d6868287016114cc565b9150509250925092565b60006060820190506117f56000830186611437565b61180260208301856112eb565b61180f60408301846112eb565b949350505050565b60006020828403121561182d5761182c611080565b5b600061183b848285016114cc565b91505092915050565b60006060820190506118596000830186611437565b61186660208301856112eb565b6118736040830184611437565b949350505050565b7f4e487b7100000000000000000000000000000000000000000000000000000000600052601160045260246000fd5b60006118b5826110e3565b91507fffffffffffffffffffffffffffffffffffffffffffffffffffffffffffffffff82036118e7576118e661187b565b5b600182019050919050565b60006060820190506119076000830186611437565b6119146020830185611437565b61192160408301846112eb565b949350505050565b7f5361666545524332303a204552433230206f7065726174696f6e20646964206e60008201527f6f74207375636365656400000000000000000000000000000000000000000000602082015250565b6000611985602a836113ba565b915061199082611929565b604082019050919050565b600060208201905081810360008301526119b481611978565b9050919050565b7f416464726573733a20696e73756666696369656e742062616c616e636520666f60008201527f722063616c6c0000000000000000000000000000000000000000000000000000602082015250565b6000611a176026836113ba565b9150611a22826119bb565b604082019050919050565b60006020820190508181036000830152611a4681611a0a565b9050919050565b7f416464726573733a2063616c6c20746f206e6f6e2d636f6e7472616374000000600082015250565b6000611a83601d836113ba565b9150611a8e82611a4d565b602082019050919050565b60006020820190508181036000830152611ab281611a76565b9050919050565b600081519050919050565b600081905092915050565b60005b83811015611aed578082015181840152602081019050611ad2565b83811115611afc576000848401525b50505050565b6000611b0d82611ab9565b611b178185611ac4565b9350611b27818560208601611acf565b80840191505092915050565b6000611b3f8284611b02565b915081905092915050565b600081519050919050565b6000601f19601f8301169050919050565b6000611b7182611b4a565b611b7b81856113ba565b9350611b8b818560208601611acf565b611b9481611b55565b840191505092915050565b60006020820190508181036000830152611bb98184611b66565b90509291505056fea26469706673582212208c44011c90535506d6200637c490b73df6b8a547b8f463d7193e66f343d2cf7864736f6c634300080e0033",
  "devdoc": {
    "kind": "dev",
    "methods": {
      "addLiquidityAndStake(address,address,uint256,uint256,uint256,uint256,address,uint256)": {
        "params": {
          "amountADesired": "optimal amount of token A",
          "amountAMin": "min amountA (slippage)",
          "amountBDesired": "optimal amount of token B",
          "amountBMin": "min amountB (slippage)",
          "deadline": "transaction deadline (used by router)",
          "to": "address to deposit for",
          "tokenA": "address of tokenA",
          "tokenB": "address of tokenB"
        }
      },
      "claimRewardsMulti(address)": {
        "params": {
          "to": "address that receives the rewards"
        }
      },
      "withdrawAndRemoveLiquidity(address,address,uint256,uint256,uint256,address,uint256)": {
        "params": {
          "amountAMin": "min amountA to receive (slippage)",
          "amountBMin": "min amountB to receive (slippage)",
          "deadline": "transaction deadline (used by router)",
          "liquidity": "liquidity token amount to remove",
          "to": "address that receives the underlying",
          "tokenA": "address of tokenA",
          "tokenB": "address of tokenB"
        }
      }
    },
    "version": 1
  },
  "userdoc": {
    "events": {
      "LiquidityAndStakeAdded(address,uint256,uint256)": {
        "notice": "================================================== ============ Events ============================== =================================================="
      }
    },
    "kind": "user",
    "methods": {
      "addLiquidityAndStake(address,address,uint256,uint256,uint256,uint256,address,uint256)": {
        "notice": "Add liquidity to a pair, deposit liquidity tokens to staking"
      },
      "claimRewardsMulti(address)": {
        "notice": "Claim rewards from each pool"
      },
      "withdrawAndRemoveLiquidity(address,address,uint256,uint256,uint256,address,uint256)": {
        "notice": "Withdraw liquidity tokens from staking, remove the underlying"
      }
    },
    "version": 1
  },
  "storageLayout": {
    "storage": [
      {
        "astId": 29878,
        "contract": "src/contracts/staking/KrStakingHelper.sol:KrStakingHelper",
        "label": "router",
        "offset": 0,
        "slot": "0",
        "type": "t_contract(IUniswapV2Router02)36720"
      },
      {
        "astId": 29881,
        "contract": "src/contracts/staking/KrStakingHelper.sol:KrStakingHelper",
        "label": "factory",
        "offset": 0,
        "slot": "1",
        "type": "t_contract(IUniswapV2Factory)35982"
      },
      {
        "astId": 29884,
        "contract": "src/contracts/staking/KrStakingHelper.sol:KrStakingHelper",
        "label": "staking",
        "offset": 0,
        "slot": "2",
        "type": "t_contract(IKrStaking)30326"
      }
    ],
    "types": {
      "t_contract(IKrStaking)30326": {
        "encoding": "inplace",
        "label": "contract IKrStaking",
        "numberOfBytes": "20"
      },
      "t_contract(IUniswapV2Factory)35982": {
        "encoding": "inplace",
        "label": "contract IUniswapV2Factory",
        "numberOfBytes": "20"
      },
      "t_contract(IUniswapV2Router02)36720": {
        "encoding": "inplace",
        "label": "contract IUniswapV2Router02",
        "numberOfBytes": "20"
      }
    }
  }
}