{
    "address": "0x7FBC9e9e6976E4F43aDCaF5BDd2946067A02bd54",
    "abi": [
        {
            "anonymous": false,
            "inputs": [
                {
                    "indexed": true,
                    "internalType": "address",
                    "name": "user",
                    "type": "address"
                },
                {
                    "indexed": true,
                    "internalType": "address",
                    "name": "rewardToken",
                    "type": "address"
                },
                {
                    "indexed": true,
                    "internalType": "uint256",
                    "name": "amount",
                    "type": "uint256"
                }
            ],
            "name": "ClaimRewards",
            "type": "event"
        },
        {
            "anonymous": false,
            "inputs": [
                {
                    "indexed": true,
                    "internalType": "address",
                    "name": "user",
                    "type": "address"
                },
                {
                    "indexed": true,
                    "internalType": "uint256",
                    "name": "pid",
                    "type": "uint256"
                },
                {
                    "indexed": true,
                    "internalType": "uint256",
                    "name": "amount",
                    "type": "uint256"
                }
            ],
            "name": "Deposit",
            "type": "event"
        },
        {
            "anonymous": false,
            "inputs": [
                {
                    "indexed": true,
                    "internalType": "address",
                    "name": "user",
                    "type": "address"
                },
                {
                    "indexed": true,
                    "internalType": "uint256",
                    "name": "pid",
                    "type": "uint256"
                },
                {
                    "indexed": true,
                    "internalType": "uint256",
                    "name": "amount",
                    "type": "uint256"
                }
            ],
            "name": "EmergencyWithdraw",
            "type": "event"
        },
        {
            "anonymous": false,
            "inputs": [
                {
                    "indexed": false,
                    "internalType": "uint8",
                    "name": "version",
                    "type": "uint8"
                }
            ],
            "name": "Initialized",
            "type": "event"
        },
        {
            "anonymous": false,
            "inputs": [
                {
                    "indexed": true,
                    "internalType": "bytes32",
                    "name": "role",
                    "type": "bytes32"
                },
                {
                    "indexed": true,
                    "internalType": "bytes32",
                    "name": "previousAdminRole",
                    "type": "bytes32"
                },
                {
                    "indexed": true,
                    "internalType": "bytes32",
                    "name": "newAdminRole",
                    "type": "bytes32"
                }
            ],
            "name": "RoleAdminChanged",
            "type": "event"
        },
        {
            "anonymous": false,
            "inputs": [
                {
                    "indexed": true,
                    "internalType": "bytes32",
                    "name": "role",
                    "type": "bytes32"
                },
                {
                    "indexed": true,
                    "internalType": "address",
                    "name": "account",
                    "type": "address"
                },
                {
                    "indexed": true,
                    "internalType": "address",
                    "name": "sender",
                    "type": "address"
                }
            ],
            "name": "RoleGranted",
            "type": "event"
        },
        {
            "anonymous": false,
            "inputs": [
                {
                    "indexed": true,
                    "internalType": "bytes32",
                    "name": "role",
                    "type": "bytes32"
                },
                {
                    "indexed": true,
                    "internalType": "address",
                    "name": "account",
                    "type": "address"
                },
                {
                    "indexed": true,
                    "internalType": "address",
                    "name": "sender",
                    "type": "address"
                }
            ],
            "name": "RoleRevoked",
            "type": "event"
        },
        {
            "anonymous": false,
            "inputs": [
                {
                    "indexed": true,
                    "internalType": "address",
                    "name": "user",
                    "type": "address"
                },
                {
                    "indexed": true,
                    "internalType": "uint256",
                    "name": "pid",
                    "type": "uint256"
                },
                {
                    "indexed": true,
                    "internalType": "uint256",
                    "name": "amount",
                    "type": "uint256"
                }
            ],
            "name": "Withdraw",
            "type": "event"
        },
        {
            "inputs": [],
            "name": "DEFAULT_ADMIN_ROLE",
            "outputs": [
                {
                    "internalType": "bytes32",
                    "name": "",
                    "type": "bytes32"
                }
            ],
            "stateMutability": "view",
            "type": "function"
        },
        {
            "inputs": [],
            "name": "OPERATOR_ROLE",
            "outputs": [
                {
                    "internalType": "bytes32",
                    "name": "",
                    "type": "bytes32"
                }
            ],
            "stateMutability": "view",
            "type": "function"
        },
        {
            "inputs": [
                {
                    "internalType": "address[]",
                    "name": "_rewardTokens",
                    "type": "address[]"
                },
                {
                    "internalType": "contract IERC20",
                    "name": "_depositToken",
                    "type": "address"
                },
                {
                    "internalType": "uint128",
                    "name": "_allocPoint",
                    "type": "uint128"
                },
                {
                    "internalType": "uint128",
                    "name": "_startBlock",
                    "type": "uint128"
                }
            ],
            "name": "addPool",
            "outputs": [],
            "stateMutability": "payable",
            "type": "function"
        },
        {
            "inputs": [
                {
                    "internalType": "address",
                    "name": "_account",
                    "type": "address"
                }
            ],
            "name": "allPendingRewards",
            "outputs": [
                {
                    "components": [
                        {
                            "internalType": "uint256",
                            "name": "pid",
                            "type": "uint256"
                        },
                        {
                            "internalType": "address[]",
                            "name": "tokens",
                            "type": "address[]"
                        },
                        {
                            "internalType": "uint256[]",
                            "name": "amounts",
                            "type": "uint256[]"
                        }
                    ],
                    "internalType": "struct KrStaking.Reward[]",
                    "name": "allRewards",
                    "type": "tuple[]"
                }
            ],
            "stateMutability": "view",
            "type": "function"
        },
        {
            "inputs": [
                {
                    "internalType": "uint256",
                    "name": "_pid",
                    "type": "uint256"
                },
                {
                    "internalType": "address",
                    "name": "_rewardRecipient",
                    "type": "address"
                }
            ],
            "name": "claim",
            "outputs": [],
            "stateMutability": "payable",
            "type": "function"
        },
        {
            "inputs": [
                {
                    "internalType": "address",
                    "name": "_for",
                    "type": "address"
                },
                {
                    "internalType": "uint256",
                    "name": "_pid",
                    "type": "uint256"
                },
                {
                    "internalType": "address",
                    "name": "_rewardRecipient",
                    "type": "address"
                }
            ],
            "name": "claimFor",
            "outputs": [],
            "stateMutability": "payable",
            "type": "function"
        },
        {
            "inputs": [
                {
                    "internalType": "address",
                    "name": "_to",
                    "type": "address"
                },
                {
                    "internalType": "uint256",
                    "name": "_pid",
                    "type": "uint256"
                },
                {
                    "internalType": "uint256",
                    "name": "_amount",
                    "type": "uint256"
                }
            ],
            "name": "deposit",
            "outputs": [],
            "stateMutability": "payable",
            "type": "function"
        },
        {
            "inputs": [
                {
                    "internalType": "uint256",
                    "name": "_pid",
                    "type": "uint256"
                }
            ],
            "name": "emergencyWithdraw",
            "outputs": [],
            "stateMutability": "payable",
            "type": "function"
        },
        {
            "inputs": [
                {
                    "internalType": "address",
                    "name": "_depositToken",
                    "type": "address"
                }
            ],
            "name": "getPidFor",
            "outputs": [
                {
                    "internalType": "uint256",
                    "name": "pid",
                    "type": "uint256"
                },
                {
                    "internalType": "bool",
                    "name": "found",
                    "type": "bool"
                }
            ],
            "stateMutability": "view",
            "type": "function"
        },
        {
            "inputs": [
                {
                    "internalType": "bytes32",
                    "name": "role",
                    "type": "bytes32"
                }
            ],
            "name": "getRoleAdmin",
            "outputs": [
                {
                    "internalType": "bytes32",
                    "name": "",
                    "type": "bytes32"
                }
            ],
            "stateMutability": "view",
            "type": "function"
        },
        {
            "inputs": [
                {
                    "internalType": "bytes32",
                    "name": "role",
                    "type": "bytes32"
                },
                {
                    "internalType": "address",
                    "name": "account",
                    "type": "address"
                }
            ],
            "name": "grantRole",
            "outputs": [],
            "stateMutability": "nonpayable",
            "type": "function"
        },
        {
            "inputs": [
                {
                    "internalType": "bytes32",
                    "name": "role",
                    "type": "bytes32"
                },
                {
                    "internalType": "address",
                    "name": "account",
                    "type": "address"
                }
            ],
            "name": "hasRole",
            "outputs": [
                {
                    "internalType": "bool",
                    "name": "",
                    "type": "bool"
                }
            ],
            "stateMutability": "view",
            "type": "function"
        },
        {
            "inputs": [
                {
                    "internalType": "address[]",
                    "name": "_rewardTokens",
                    "type": "address[]"
                },
                {
                    "internalType": "uint256[]",
                    "name": "_rewardPerBlocks",
                    "type": "uint256[]"
                },
                {
                    "internalType": "contract IERC20",
                    "name": "_depositToken",
                    "type": "address"
                },
                {
                    "internalType": "uint128",
                    "name": "_allocPoint",
                    "type": "uint128"
                },
                {
                    "internalType": "uint128",
                    "name": "_startBlock",
                    "type": "uint128"
                },
                {
                    "internalType": "address",
                    "name": "_admin",
                    "type": "address"
                },
                {
                    "internalType": "address",
                    "name": "_operator",
                    "type": "address"
                }
            ],
            "name": "initialize",
            "outputs": [],
            "stateMutability": "nonpayable",
            "type": "function"
        },
        {
            "inputs": [],
            "name": "massUpdatePools",
            "outputs": [],
            "stateMutability": "payable",
            "type": "function"
        },
        {
            "inputs": [
                {
                    "internalType": "uint256",
                    "name": "_pid",
                    "type": "uint256"
                },
                {
                    "internalType": "address",
                    "name": "_user",
                    "type": "address"
                }
            ],
            "name": "pendingRewards",
            "outputs": [
                {
                    "components": [
                        {
                            "internalType": "uint256",
                            "name": "pid",
                            "type": "uint256"
                        },
                        {
                            "internalType": "address[]",
                            "name": "tokens",
                            "type": "address[]"
                        },
                        {
                            "internalType": "uint256[]",
                            "name": "amounts",
                            "type": "uint256[]"
                        }
                    ],
                    "internalType": "struct KrStaking.Reward",
                    "name": "rewards",
                    "type": "tuple"
                }
            ],
            "stateMutability": "view",
            "type": "function"
        },
        {
            "inputs": [
                {
                    "internalType": "uint256",
                    "name": "_pid",
                    "type": "uint256"
                }
            ],
            "name": "poolInfo",
            "outputs": [
                {
                    "components": [
                        {
                            "internalType": "contract IERC20",
                            "name": "depositToken",
                            "type": "address"
                        },
                        {
                            "internalType": "uint128",
                            "name": "allocPoint",
                            "type": "uint128"
                        },
                        {
                            "internalType": "uint128",
                            "name": "lastRewardBlock",
                            "type": "uint128"
                        },
                        {
                            "internalType": "uint256[]",
                            "name": "accRewardPerShares",
                            "type": "uint256[]"
                        },
                        {
                            "internalType": "address[]",
                            "name": "rewardTokens",
                            "type": "address[]"
                        }
                    ],
                    "internalType": "struct KrStaking.PoolInfo",
                    "name": "",
                    "type": "tuple"
                }
            ],
            "stateMutability": "view",
            "type": "function"
        },
        {
            "inputs": [],
            "name": "poolLength",
            "outputs": [
                {
                    "internalType": "uint256",
                    "name": "",
                    "type": "uint256"
                }
            ],
            "stateMutability": "view",
            "type": "function"
        },
        {
            "inputs": [
                {
                    "internalType": "bytes32",
                    "name": "role",
                    "type": "bytes32"
                },
                {
                    "internalType": "address",
                    "name": "account",
                    "type": "address"
                }
            ],
            "name": "renounceRole",
            "outputs": [],
            "stateMutability": "nonpayable",
            "type": "function"
        },
        {
            "inputs": [],
            "name": "rescueNative",
            "outputs": [],
            "stateMutability": "payable",
            "type": "function"
        },
        {
            "inputs": [
                {
                    "internalType": "contract IERC20",
                    "name": "_tokenToRescue",
                    "type": "address"
                },
                {
                    "internalType": "uint256",
                    "name": "_amount",
                    "type": "uint256"
                }
            ],
            "name": "rescueNonPoolToken",
            "outputs": [],
            "stateMutability": "payable",
            "type": "function"
        },
        {
            "inputs": [
                {
                    "internalType": "bytes32",
                    "name": "role",
                    "type": "bytes32"
                },
                {
                    "internalType": "address",
                    "name": "account",
                    "type": "address"
                }
            ],
            "name": "revokeRole",
            "outputs": [],
            "stateMutability": "nonpayable",
            "type": "function"
        },
        {
            "inputs": [
                {
                    "internalType": "address",
                    "name": "",
                    "type": "address"
                }
            ],
            "name": "rewardPerBlockFor",
            "outputs": [
                {
                    "internalType": "uint256",
                    "name": "",
                    "type": "uint256"
                }
            ],
            "stateMutability": "view",
            "type": "function"
        },
        {
            "inputs": [
                {
                    "internalType": "uint256",
                    "name": "_pid",
                    "type": "uint256"
                },
                {
                    "internalType": "uint128",
                    "name": "_newAllocPoint",
                    "type": "uint128"
                }
            ],
            "name": "setPool",
            "outputs": [],
            "stateMutability": "payable",
            "type": "function"
        },
        {
            "inputs": [
                {
                    "internalType": "address",
                    "name": "_rewardToken",
                    "type": "address"
                },
                {
                    "internalType": "uint256",
                    "name": "_rewardPerBlock",
                    "type": "uint256"
                }
            ],
            "name": "setRewardPerBlockFor",
            "outputs": [],
            "stateMutability": "payable",
            "type": "function"
        },
        {
            "inputs": [
                {
                    "internalType": "bytes4",
                    "name": "interfaceId",
                    "type": "bytes4"
                }
            ],
            "name": "supportsInterface",
            "outputs": [
                {
                    "internalType": "bool",
                    "name": "",
                    "type": "bool"
                }
            ],
            "stateMutability": "view",
            "type": "function"
        },
        {
            "inputs": [],
            "name": "totalAllocPoint",
            "outputs": [
                {
                    "internalType": "uint128",
                    "name": "",
                    "type": "uint128"
                }
            ],
            "stateMutability": "view",
            "type": "function"
        },
        {
            "inputs": [
                {
                    "internalType": "uint256",
                    "name": "_pid",
                    "type": "uint256"
                }
            ],
            "name": "updatePool",
            "outputs": [
                {
                    "components": [
                        {
                            "internalType": "contract IERC20",
                            "name": "depositToken",
                            "type": "address"
                        },
                        {
                            "internalType": "uint128",
                            "name": "allocPoint",
                            "type": "uint128"
                        },
                        {
                            "internalType": "uint128",
                            "name": "lastRewardBlock",
                            "type": "uint128"
                        },
                        {
                            "internalType": "uint256[]",
                            "name": "accRewardPerShares",
                            "type": "uint256[]"
                        },
                        {
                            "internalType": "address[]",
                            "name": "rewardTokens",
                            "type": "address[]"
                        }
                    ],
                    "internalType": "struct KrStaking.PoolInfo",
                    "name": "pool",
                    "type": "tuple"
                }
            ],
            "stateMutability": "payable",
            "type": "function"
        },
        {
            "inputs": [
                {
                    "internalType": "uint256",
                    "name": "_pid",
                    "type": "uint256"
                },
                {
                    "internalType": "address",
                    "name": "_account",
                    "type": "address"
                }
            ],
            "name": "userInfo",
            "outputs": [
                {
                    "components": [
                        {
                            "internalType": "uint256",
                            "name": "amount",
                            "type": "uint256"
                        },
                        {
                            "internalType": "uint256[]",
                            "name": "rewardDebts",
                            "type": "uint256[]"
                        }
                    ],
                    "internalType": "struct KrStaking.UserInfo",
                    "name": "",
                    "type": "tuple"
                }
            ],
            "stateMutability": "view",
            "type": "function"
        },
        {
            "inputs": [
                {
                    "internalType": "uint256",
                    "name": "_pid",
                    "type": "uint256"
                },
                {
                    "internalType": "uint256",
                    "name": "_amount",
                    "type": "uint256"
                },
                {
                    "internalType": "address",
                    "name": "_rewardRecipient",
                    "type": "address"
                }
            ],
            "name": "withdraw",
            "outputs": [],
            "stateMutability": "payable",
            "type": "function"
        },
        {
            "inputs": [
                {
                    "internalType": "address",
                    "name": "_for",
                    "type": "address"
                },
                {
                    "internalType": "uint256",
                    "name": "_pid",
                    "type": "uint256"
                },
                {
                    "internalType": "uint256",
                    "name": "_amount",
                    "type": "uint256"
                },
                {
                    "internalType": "address",
                    "name": "_rewardRecipient",
                    "type": "address"
                }
            ],
            "name": "withdrawFor",
            "outputs": [],
            "stateMutability": "payable",
            "type": "function"
        }
    ],
    "transactionHash": "0xd1954218be0388c8b743e1d22a274a6138260c2ba678da41ef81a40905960f2c",
    "args": [],
    "numDeployments": 1,
    "solcInputHash": "7f151a4c133817a4db425d2f7225b297",
    "bytecode": "0x608080604052346100165761383f908161001c8239f35b600080fdfe60806040526004361015610013575b600080fd5b60003560e01c806301ffc9a71461026b5780630802f76814610262578063081e3eda146102595780630ad58d2f146102505780630dbd1a38146102475780630efe6a8b1461023e5780631526fe271461023557806317caf6f11461022c578063248a9ca3146102235780632f2ff15d1461021a57806336568abe1461021157806343a4534b146102085780634d7ee644146101ff57806351eb05a6146101f65780635312ea8e146101ed5780635ea3f4fa146101e4578063630b5ba1146101db57806368e2f7b7146101d2578063759be515146101c957806391d14854146101c057806392bb9fbf146101b757806393f1a40b146101ae578063a217fddf146101a5578063ba8fc5bf1461019c578063bf82b7b514610193578063d18df53c1461018a578063d547741f14610181578063ddd5e1b214610178578063f5b541a61461016f5763fc82f0841461016757600080fd5b61000e611a6a565b5061000e611a10565b5061000e611915565b5061000e6118b4565b5061000e611856565b5061000e611720565b5061000e611670565b5061000e611635565b5061000e6115ac565b5061000e611523565b5061000e6114ae565b5061000e6113ec565b5061000e611390565b5061000e611346565b5061000e611275565b5061000e6110cd565b5061000e611094565b5061000e610f95565b5061000e610df1565b5061000e610d07565b5061000e610bf1565b5061000e610ba3565b5061000e610b54565b5061000e610af4565b5061000e61083d565b5061000e6107d3565b5061000e610605565b5061000e6105c8565b5061000e61039f565b503461000e576020367ffffffffffffffffffffffffffffffffffffffffffffffffffffffffffffffffc011261000e5760043563ffffffff60e01b811680910361000e576020907f7965db0b0000000000000000000000000000000000000000000000000000000081149081156102e8575b506040519015158152f35b7f01ffc9a700000000000000000000000000000000000000000000000000000000149050386102dd565b9181601f8401121561000e5782359167ffffffffffffffff831161000e576020808501948460051b01011161000e57565b73ffffffffffffffffffffffffffffffffffffffff81160361000e57565b604435906fffffffffffffffffffffffffffffffff8216820361000e57565b606435906fffffffffffffffffffffffffffffffff8216820361000e57565b506080367ffffffffffffffffffffffffffffffffffffffffffffffffffffffffffffffffc011261000e5760043567ffffffffffffffff811161000e576103ea903690600401610312565b602435906103f782610343565b6103ff610361565b92610408610380565b91610411611ab3565b60cb5473ffffffffffffffffffffffffffffffffffffffff8581169060005b8381106105a257505050508015610543578461052261052e946104a16104736105389961046e60cc546fffffffffffffffffffffffffffffffff1690565b6128d5565b6fffffffffffffffffffffffffffffffff166fffffffffffffffffffffffffffffffff1960cc54161760cc55565b6fffffffffffffffffffffffffffffffff8181161561053a57505b6105096104c8856125c3565b936104f06104d46120d3565b73ffffffffffffffffffffffffffffffffffffffff909a168a52565b6fffffffffffffffffffffffffffffffff166020890152565b6fffffffffffffffffffffffffffffffff166040870152565b606085015236916125f5565b608082015261289a565b005b905043166104bc565b6040517f08c379a000000000000000000000000000000000000000000000000000000000815260206004820152601160248201527f4b523a2021726577617264546f6b656e730000000000000000000000000000006044820152606490fd5b806105be84846105b46105c39561264d565b50541614156136cd565b61254c565b610430565b503461000e576000367ffffffffffffffffffffffffffffffffffffffffffffffffffffffffffffffffc011261000e57602060cb54604051908152f35b506060367ffffffffffffffffffffffffffffffffffffffffffffffffffffffffffffffffc011261000e5760243560043560443561064281610343565b610651600260975414156131c1565b6002609755829061066384151561357e565b61068473ffffffffffffffffffffffffffffffffffffffff821615156135e4565b61068d83612fa1565b936106cb6106bb6106a88660005260c9602052604060002090565b3360009081526020919091526040902090565b926106c584612bee565b87613733565b8154808211156107c257505080546000825591505b835161070a908390339073ffffffffffffffffffffffffffffffffffffffff1661364a565b61364a565b600180820194909160608201916080016000845b61075c575b6000878760405191337ff279e6a1f5e320cca91135676d9cb6e44ca8a08c0b88342bcdb1144f6511b5688585a461075a6001609755565bf35b8151518110156107bd576107b7906105be6107926107878654610780858a51612c2f565b51906120ac565b64e8d4a51000900490565b61079c838c61328d565b90919082549060031b600019811b9283911b16911916179055565b8461071e565b610723565b906107cc91612c51565b81556106e0565b506040367ffffffffffffffffffffffffffffffffffffffffffffffffffffffffffffffffc011261000e5760043561080a81610343565b610812611ab3565b73ffffffffffffffffffffffffffffffffffffffff16600090815260ca602052604090206024359055005b506060367ffffffffffffffffffffffffffffffffffffffffffffffffffffffffffffffffc011261000e5760043561087481610343565b6024359060443561088a600260975414156131c1565b60026097556108988361264d565b505473ffffffffffffffffffffffffffffffffffffffff93906108be9085161515613227565b6108c781612fa1565b936108f7846108e08460005260c9602052604060002090565b9060018060a01b0316600052602052604060002090565b946001808701968754156109e8575b9181926109268761091d845160018060a01b031690565b309033906132b3565b6109318782546120bf565b905560006060608083019201925b61097d575b60008888888860405193167f90890809c654f11d6e72a28fa60149770a0d11ec6c92319d6ceb2bb0a4ea1a158585a461075a6001609755565b8151518110156109e357806105be8a6109c46109ae846109a86107878e6107806109dd9a8d51612c2f565b9361328d565b9190926109bf8385549060031b1c90565b6120bf565b9082549060031b600019811b9283911b16911916179055565b8361093f565b610944565b6109ff6109f96080850151516125c3565b896126c9565b610906565b90815180825260208080930193019160005b828110610a24575050505090565b835185529381019392810192600101610a16565b90815180825260208080930193019160005b828110610a58575050505090565b835173ffffffffffffffffffffffffffffffffffffffff1685529381019392810192600101610a4a565b90610af1916020815260018060a01b0382511660208201526fffffffffffffffffffffffffffffffff80602084015116604083015260408301511660608201526080610adc606084015160a08385015260c0840190610a04565b9201519060a0601f1982850301910152610a38565b90565b503461000e576020367ffffffffffffffffffffffffffffffffffffffffffffffffffffffffffffffffc011261000e57610b2c612f74565b50610b50610b44610b3e60043561264d565b50612b3d565b60405191829182610a82565b0390f35b503461000e576000367ffffffffffffffffffffffffffffffffffffffffffffffffffffffffffffffffc011261000e5760206fffffffffffffffffffffffffffffffff60cc5416604051908152f35b503461000e576020367ffffffffffffffffffffffffffffffffffffffffffffffffffffffffffffffffc011261000e5760043560005260656020526020600160406000200154604051908152f35b503461000e5760408060031936011261000e5760043590602435610c1481610343565b6000928084526065602052610c2e60018486200154611bbb565b8084526065602090815283852073ffffffffffffffffffffffffffffffffffffffff841660009081529152604090205460ff1615610c6b57505051f35b8084526065602090815283852073ffffffffffffffffffffffffffffffffffffffff8416600090815291526040902080547fffffffffffffffffffffffffffffffffffffffffffffffffffffffffffffff001660011790558251339273ffffffffffffffffffffffffffffffffffffffff1691907f2f8788117e7eff1d82e926ec794901d17c78024a50270940304540a733656f0d908690a451f35b503461000e576040367ffffffffffffffffffffffffffffffffffffffffffffffffffffffffffffffffc011261000e57602435610d4381610343565b3373ffffffffffffffffffffffffffffffffffffffff821603610d6c5761053890600435611f9a565b6040517f08c379a000000000000000000000000000000000000000000000000000000000815260206004820152602f60248201527f416363657373436f6e74726f6c3a2063616e206f6e6c792072656e6f756e636560448201527f20726f6c657320666f722073656c6600000000000000000000000000000000006064820152608490fd5b506080367ffffffffffffffffffffffffffffffffffffffffffffffffffffffffffffffffc011261000e57600435610e2881610343565b60443590606435602435610e3b82610343565b610e4a600260975414156131c1565b6002609755610e57611ab3565b83610e6385151561357e565b73ffffffffffffffffffffffffffffffffffffffff90610e8684831615156135e4565b610e8f83612fa1565b95610ebb610eab876108e08760005260c9602052604060002090565b95610eb587612bee565b89613733565b845480821115610f8157505050825492600081555b8551610ef590859073ffffffffffffffffffffffffffffffffffffffff16339061364a565b600180820196909160608201916080016000845b610f47575b60008989898960405193167ff279e6a1f5e320cca91135676d9cb6e44ca8a08c0b88342bcdb1144f6511b5688585a461075a6001609755565b815151811015610f7c57806105be8b61079c610f7694610f706107878954610780848d51612c2f565b9261328d565b84610f09565b610f0e565b90610f8e91959295612c51565b8155610ed0565b506040367ffffffffffffffffffffffffffffffffffffffffffffffffffffffffffffffffc011261000e576fffffffffffffffffffffffffffffffff602435600435828216820361000e5761105860019161053894610ff2611ab3565b61100f610ffe8361264d565b50858060a01b039054161515613227565b61102785828661101e8661264d565b500154166128d5565b60cc5491908116828216818110611087575b0316906fffffffffffffffffffffffffffffffff19161760cc5561264d565b5001906fffffffffffffffffffffffffffffffff166fffffffffffffffffffffffffffffffff19825416179055565b61108f61206f565b611039565b506020367ffffffffffffffffffffffffffffffffffffffffffffffffffffffffffffffffc011261000e57610b50610b44600435612fa1565b506020367ffffffffffffffffffffffffffffffffffffffffffffffffffffffffffffffffc011261000e5760043561110a600260975414156131c1565b600260975561111881612fa1565b600082815260c9602090815260408083203380855292528220835181549395949193919261115c929173ffffffffffffffffffffffffffffffffffffffff1661364a565b83825560018083019160800185825b6111a8575b505050505460405191337fbb757047c2b5f3974fe26b7c10f732e7bce710b0952a71082702781e62ae05958585a461075a6001609755565b8151518110156111da57806105be6111c36111d4938761328d565b8154906000199060031b1b19169055565b8261116b565b611170565b610af1918151815260406112026020840151606060208501526060840190610a38565b920151906040818403910152610a04565b602080820190808352835180925260408301928160408460051b8301019501936000915b8483106112475750505050505090565b9091929394958480611265600193603f198682030187528a516111df565b9801930193019194939290611237565b503461000e5760208060031936011261000e5760043561129481610343565b60cb54906112a1826125a2565b926112af6040519485611d31565b8284527fffffffffffffffffffffffffffffffffffffffffffffffffffffffffffffffe06112dc846125a2565b0160005b8181106113305750505060005b8281106113025760405180610b508682611213565b806113108361132b93612c88565b61131a8287612c2f565b526113258186612c2f565b5061254c565b6112ed565b829061133a612aaf565b828289010152016112e0565b506000367ffffffffffffffffffffffffffffffffffffffffffffffffffffffffffffffffc011261000e5760005b60cb54811015610538578061132561138b92612fa1565b611374565b503461000e576020367ffffffffffffffffffffffffffffffffffffffffffffffffffffffffffffffffc011261000e576004356113cc81610343565b60018060a01b031660005260ca6020526020604060002054604051908152f35b503461000e5760e0367ffffffffffffffffffffffffffffffffffffffffffffffffffffffffffffffffc011261000e5767ffffffffffffffff60043581811161000e5761143d903690600401610312565b9160243590811161000e57611456903690600401610312565b60449391933561146581610343565b61146d610380565b90608435926fffffffffffffffffffffffffffffffff8416840361000e576105389660a4359561149c87610343565b60c435976114a989610343565b612365565b503461000e576040367ffffffffffffffffffffffffffffffffffffffffffffffffffffffffffffffffc011261000e57602060ff6115176024356114f181610343565b6004356000526065845260406000209060018060a01b0316600052602052604060002090565b54166040519015158152f35b506040367ffffffffffffffffffffffffffffffffffffffffffffffffffffffffffffffffc011261000e5760043561155a81610343565b611562611ab3565b60cb5473ffffffffffffffffffffffffffffffffffffffff8281169060005b83811061159557610538602435338761364a565b806105be84846105b46115a79561264d565b611581565b503461000e5760408060031936011261000e57602090610b506116156116106024356115d781610343565b60608686516115e581611cec565b60008152015260043560005260c98652846000209060018060a01b0316600052602052604060002090565b612bee565b918051938493818552805182860152015190808401526060830190610a04565b503461000e576000367ffffffffffffffffffffffffffffffffffffffffffffffffffffffffffffffffc011261000e57602060405160008152f35b503461000e576020367ffffffffffffffffffffffffffffffffffffffffffffffffffffffffffffffffc011261000e576004356116ac81610343565b60cb5490600090819073ffffffffffffffffffffffffffffffffffffffff908116905b8484106116e8575b604080518581528415156020820152f35b90919282826116f68361264d565b5054161461170f576117079061254c565b9291906116cf565b9250505060409150600138806116d7565b506060367ffffffffffffffffffffffffffffffffffffffffffffffffffffffffffffffffc011261000e5760043561175781610343565b602435906117d66044359161176b83610343565b61177a600260975414156131c1565b6002609755611787611ab3565b6117a873ffffffffffffffffffffffffffffffffffffffff841615156135e4565b6117b184612fa1565b9360005260c960205260406000209060018060a01b0316600052602052604060002090565b9081546117e8575b6105386001609755565b6117fd906117f7839493612bee565b83613733565b6060810191600191828201906080016000845b61181d575b5050506117de565b8151518110156118515761184b906105be6118416107878754610780858c51612c2f565b61079c838761328d565b84611810565b611815565b503461000e576040367ffffffffffffffffffffffffffffffffffffffffffffffffffffffffffffffffc011261000e57610b506118a060243561189881610343565b600435612c88565b6040519182916020835260208301906111df565b503461000e576040367ffffffffffffffffffffffffffffffffffffffffffffffffffffffffffffffffc011261000e576105386024356004356118f682610343565b806000526065602052611910600160406000200154611bbb565b611f9a565b506040367ffffffffffffffffffffffffffffffffffffffffffffffffffffffffffffffffc011261000e5760043560243561194f81610343565b61195e600260975414156131c1565b600260975561198473ffffffffffffffffffffffffffffffffffffffff821615156135e4565b61198d82612fa1565b600092835260c9602090815260408085203386529091529092209081546119b8576105386001609755565b6119c7906117f7839493612bee565b6060810191600191828201906080016000845b6119e6575050506117de565b81515181101561185157611a0a906105be6118416107878754610780858c51612c2f565b846119da565b503461000e576000367ffffffffffffffffffffffffffffffffffffffffffffffffffffffffffffffffc011261000e5760206040517f8952ae23cc3fea91b9dba0cefa16d18a26ca2bf124b54f42b5d04bce3aacecd28152f35b50600080600319360112611ab057611a80611ab3565b8080808047818115611aa7575b3390f115611a9a57604051f35b611aa2612c22565b604051f35b506108fc611a8d565b80fd5b3360009081527f36445a9eff22e9b54d9de8c6cce3c202b8c41b22158fd9c5163f843551e37e72602052604090205460ff1615611aec57565b611bb76048611b85611afd3361221d565b611b77611b086122c8565b6040519485937f416363657373436f6e74726f6c3a206163636f756e74200000000000000000006020860152611b48815180926020603789019101611c89565b84017f206973206d697373696e6720726f6c652000000000000000000000000000000060378201520190611cbe565b03601f198101835282611d31565b6040517f08c379a000000000000000000000000000000000000000000000000000000000815291829160048301611d53565b0390fd5b600081815260656020908152604080832033845290915290205460ff1615611be05750565b611be93361221d565b90611bf2612102565b906030611bfe83612153565b536078611c0a83612169565b5360415b60018111611c2d57611bb76048611b8586611b7787611b0888156121d2565b9080600f611c7792166010811015611c7c575b7f3031323334353637383961626364656600000000000000000000000000000000901a611c6d848661217a565b5360041c91612199565b611c0e565b611c8461213c565b611c40565b918091926000905b828210611ca9575011611ca2575050565b6000910152565b91508060209183015181860152018291611c91565b90611cd160209282815194859201611c89565b0190565b50634e487b7160e01b600052604160045260246000fd5b6040810190811067ffffffffffffffff821117611d0857604052565b611d10611cd5565b604052565b60a0810190811067ffffffffffffffff821117611d0857604052565b90601f8019910116810190811067ffffffffffffffff821117611d0857604052565b60409160208252611d738151809281602086015260208686019101611c89565b601f017fffffffffffffffffffffffffffffffffffffffffffffffffffffffffffffffe016010190565b73ffffffffffffffffffffffffffffffffffffffff811660009081527fffdfc1249c027f9191656349feb0761381bb32c9f557e01f419fd08754bf5a1b602052604081205460ff1615611dee575050565b80805260656020908152604080832073ffffffffffffffffffffffffffffffffffffffff851660009081529252902080547fffffffffffffffffffffffffffffffffffffffffffffffffffffffffffffff00166001179055604051339273ffffffffffffffffffffffffffffffffffffffff1691907f2f8788117e7eff1d82e926ec794901d17c78024a50270940304540a733656f0d908290a4565b73ffffffffffffffffffffffffffffffffffffffff811660009081527f36445a9eff22e9b54d9de8c6cce3c202b8c41b22158fd9c5163f843551e37e7260205260409020547f8952ae23cc3fea91b9dba0cefa16d18a26ca2bf124b54f42b5d04bce3aacecd29060ff1615611efd575050565b600081815260656020908152604080832073ffffffffffffffffffffffffffffffffffffffff86168452909152902080547fffffffffffffffffffffffffffffffffffffffffffffffffffffffffffffff00166001179055604051339273ffffffffffffffffffffffffffffffffffffffff1691907f2f8788117e7eff1d82e926ec794901d17c78024a50270940304540a733656f0d90600090a4565b600081815260656020908152604080832073ffffffffffffffffffffffffffffffffffffffff8616845290915290205460ff16611fd5575050565b600081815260656020908152604080832073ffffffffffffffffffffffffffffffffffffffff86168452909152902080547fffffffffffffffffffffffffffffffffffffffffffffffffffffffffffffff00169055604051339273ffffffffffffffffffffffffffffffffffffffff1691907ff6391f5c32d9c69d2a47ea670b442974b53935d1edc7fd64eb21e047a839171b90600090a4565b50634e487b7160e01b600052601160045260246000fd5b64e8d4a510009080600019048211811515166120a0570290565b6120a861206f565b0290565b80600019048211811515166120a0570290565b811981116120cb570190565b611cd161206f565b604051906120e082611d15565b565b604051906060820182811067ffffffffffffffff821117611d0857604052565b604051906080820182811067ffffffffffffffff82111761212f575b604052604282526060366020840137565b612137611cd5565b61211e565b50634e487b7160e01b600052603260045260246000fd5b602090805115612161570190565b611cd161213c565b602190805160011015612161570190565b90602091805182101561218c57010190565b61219461213c565b010190565b80156121c5575b7fffffffffffffffffffffffffffffffffffffffffffffffffffffffffffffffff0190565b6121cd61206f565b6121a0565b156121d957565b606460405162461bcd60e51b815260206004820152602060248201527f537472696e67733a20686578206c656e67746820696e73756666696369656e746044820152fd5b604051906060820182811067ffffffffffffffff8211176122bb575b604052602a82526040366020840137603061225383612153565b53607861225f83612169565b536029905b6001821161227757610af19150156121d2565b80600f6122b592166010811015611c7c577f3031323334353637383961626364656600000000000000000000000000000000901a611c6d848661217a565b90612264565b6122c3611cd5565b612239565b7f8952ae23cc3fea91b9dba0cefa16d18a26ca2bf124b54f42b5d04bce3aacecd26122f1612102565b9060306122fd83612153565b53607861230983612169565b536041905b6001821161232157610af19150156121d2565b80600f61235f92166010811015611c7c577f3031323334353637383961626364656600000000000000000000000000000000901a611c6d848661217a565b9061230e565b96949290979593916000549860ff8a60081c1615809a819b6124b2575b8115612492575b501561240d576123af988a6123a6600160ff196000541617600055565b6123f4576128fa565b6123b557565b6123c561ff001960005416600055565b604051600181527f7f26b83ff96e1f2b6a682f133852f6798a09c465da95921460cefb384740249890602090a1565b61240861010061ff00196000541617600055565b6128fa565b6040517f08c379a000000000000000000000000000000000000000000000000000000000815260206004820152602e60248201527f496e697469616c697a61626c653a20636f6e747261637420697320616c72656160448201527f647920696e697469616c697a65640000000000000000000000000000000000006064820152608490fd5b303b159150816124a4575b5038612389565b6001915060ff16143861249d565b600160ff8216109150612382565b156124c757565b6040517f08c379a000000000000000000000000000000000000000000000000000000000815260206004820152602e60248201527f52657761726420746f6b656e73206d757374206861766520612072657761726460448201527f506572426c6f636b2076616c75650000000000000000000000000000000000006064820152608490fd5b6001907fffffffffffffffffffffffffffffffffffffffffffffffffffffffffffffffff81146120cb570190565b919081101561258b575b60051b0190565b61259361213c565b612584565b35610af181610343565b60209067ffffffffffffffff81116125bb5760051b0190565b612593611cd5565b906125cd826125a2565b6125da6040519182611d31565b82815280926125eb601f19916125a2565b0190602036910137565b9291612600826125a2565b9161260e6040519384611d31565b829481845260208094019160051b810192831161000e57905b8282106126345750505050565b838091833561264281610343565b815201910190612627565b60cb54811015612688575b60cb60005260021b7fa7ce836d032b2bf62b7e2097a8e0a6d8aeb35405ad15271e96d3b0188a1d06fb0190600090565b61269061213c565b612658565b90918281106126a357505050565b60009182526020822092830192015b8281106126be57505050565b8181556001016126b2565b815191680100000000000000008311612720575b6126ec83835481855584612695565b602080910191600052806000206000925b84841061270b575050505050565b600183828293518555019201930192906126fd565b612728611cd5565b6126dd565b8151916801000000000000000083116127c3575b61275083835481855584612695565b602080910191600052806000206000925b84841061276f575050505050565b805182547fffffffffffffffffffffffff00000000000000000000000000000000000000001673ffffffffffffffffffffffffffffffffffffffff9190911617825560019384019391909101908201612761565b6127cb611cd5565b612741565b9061288457815181547fffffffffffffffffffffffff00000000000000000000000000000000000000001673ffffffffffffffffffffffffffffffffffffffff909116178155602082015160408301516fffffffffffffffffffffffffffffffff9091167fffffffffffffffffffffffffffffffff00000000000000000000000000000000608092831b1617600183015560608301516120e0936003929161287b90600286016126c9565b0151910161272d565b634e487b7160e01b600052600060045260246000fd5b6120e0906128c260cb54680100000000000000008110156128c8575b6001810160cb5561264d565b906127d0565b6128d0611cd5565b6128b6565b906fffffffffffffffffffffffffffffffff80809316911680920381116120cb570190565b9593969761292b6129309296999493946129158886146124c0565b61291d612a1a565b61292633611d9d565b611d9d565b611e8a565b61293933611e8a565b60005b8481106129c2575050509261052e6120e0959383610473966105226129636129a8976125c3565b9161298b61296f6120d3565b73ffffffffffffffffffffffffffffffffffffffff9098168852565b6fffffffffffffffffffffffffffffffff89166020880152610509565b60cc546fffffffffffffffffffffffffffffffff166128d5565b806129d1612a1592848661257a565b35612a0f6129e86129e3848a8c61257a565b612598565b73ffffffffffffffffffffffffffffffffffffffff16600090815260ca6020526040902090565b5561254c565b61293c565b60ff60005460081c1615612a2a57565b6040517f08c379a000000000000000000000000000000000000000000000000000000000815260206004820152602b60248201527f496e697469616c697a61626c653a20636f6e7472616374206973206e6f74206960448201527f6e697469616c697a696e670000000000000000000000000000000000000000006064820152608490fd5b604051906060820182811067ffffffffffffffff821117612ae1575b6040526060604083600081528260208201520152565b612ae9611cd5565b612acb565b9060405191828154918282526020928383019160005283600020936000905b828210612b23575050506120e092500383611d31565b855484526001958601958895509381019390910190612b0d565b9060405191612b4b83611d15565b8260018060a01b03808354168252600192600384820154916020926fffffffffffffffffffffffffffffffff81168487015260801c6040860152612b9160028201612aee565b606086015201906040519485869483855492838152019460005283600020936000915b838310612bd45750505050505060809291612bd0910384611d31565b0152565b855481168752899750958101959484019491840191612bb4565b90604051612bfb81611cec565b6020612c0e600183958054855201612aee565b910152565b9081602091031261000e575190565b506040513d6000823e3d90fd5b6020918151811015612c44575b60051b010190565b612c4c61213c565b612c3c565b818110612c5c570390565b612c6461206f565b0390565b8115612c72570490565b634e487b7160e01b600052601260045260246000fd5b9190612c92612aaf565b50612cba611610612ca5610b3e8661264d565b926108e08660005260c9602052604060002090565b8151612cf09073ffffffffffffffffffffffffffffffffffffffff165b73ffffffffffffffffffffffffffffffffffffffff1690565b6040517f70a0823100000000000000000000000000000000000000000000000000000000815230600482015294602093918490879060249082905afa958615612f67575b600096612f38575b506080820191825193845191612d51836125c3565b93612d5a6120e2565b908152878101968752604081019485529880151580612f2e575b612d83575b5050505050505050565b600097939793606083018160408501940190612dc8612db360cc546fffffffffffffffffffffffffffffffff1690565b6fffffffffffffffffffffffffffffffff1690565b928601965b8b8110612ddd5750505050612d79565b80825190612dea91612c2f565b518585838d5190612dfa91612c2f565b5173ffffffffffffffffffffffffffffffffffffffff16600090815260ca60205260409020548951612e3e906fffffffffffffffffffffffffffffffff1643612c51565b612e47916120ac565b86516fffffffffffffffffffffffffffffffff166fffffffffffffffffffffffffffffffff16612e76916120ac565b90612e8091612c68565b612e8990612086565b90612e9391612c68565b612e9c916120bf565b875190612ea8916120ac565b64e8d4a51000900481895190612ebd91612c2f565b51612ec791612c51565b818a5190612ed491612c2f565b52808a5190612ee291612c2f565b5173ffffffffffffffffffffffffffffffffffffffff16818c5190612f0691612c2f565b73ffffffffffffffffffffffffffffffffffffffff9091169052612f299061254c565b612dcd565b5082511515612d74565b612f59919650843d8611612f60575b612f518183611d31565b810190612c13565b9438612d3c565b503d612f47565b612f6f612c22565b612d34565b60405190612f8182611d15565b606060808360008152600060208201526000604082015282808201520152565b90612faa612f74565b50612fb7610b3e8361264d565b9160408301612fd9612db382516fffffffffffffffffffffffffffffffff1690565b4311612fe3575050565b83516130049073ffffffffffffffffffffffffffffffffffffffff16612cd7565b6040517f70a0823100000000000000000000000000000000000000000000000000000000815230600482015290602090829060249082905afa9081156131b4575b600091613196575b5080613079575b50436fffffffffffffffffffffffffffffffff1690526120e09083906128c29061264d565b90939192600092608081019460208201916130a8612db360cc546fffffffffffffffffffffffffffffffff1690565b9360608201965b8851805182101561317d57906131528861314861314d8a8f8b61312b612db36131316131489461312b613125612db36131789f8f6130f36129e89161310d93612c2f565b5173ffffffffffffffffffffffffffffffffffffffff1690565b5493516fffffffffffffffffffffffffffffffff1690565b43612c51565b906120ac565b92516fffffffffffffffffffffffffffffffff1690565b612c68565b612086565b6131728261316c8c51936131668386612c2f565b516120bf565b92612c2f565b5261254c565b6130af565b5091989097509195509093506128c29250613054915050565b6131ae915060203d8111612f6057612f518183611d31565b3861304d565b6131bc612c22565b613045565b156131c857565b6040517f08c379a000000000000000000000000000000000000000000000000000000000815260206004820152601f60248201527f5265656e7472616e637947756172643a207265656e7472616e742063616c6c006044820152606490fd5b1561322e57565b6040517f08c379a000000000000000000000000000000000000000000000000000000000815260206004820152600f60248201527f4b523a2021706f6f6c45786973747300000000000000000000000000000000006044820152606490fd5b80548210156132a6575b60005260206000200190600090565b6132ae61213c565b613297565b6040517f23b872dd00000000000000000000000000000000000000000000000000000000602082015273ffffffffffffffffffffffffffffffffffffffff92831660248201529290911660448301526064808301939093529181526120e09161331b82611d15565b6133c4565b9081602091031261000e5751801515810361000e5790565b1561333f57565b6040517f08c379a000000000000000000000000000000000000000000000000000000000815260206004820152602a60248201527f5361666545524332303a204552433230206f7065726174696f6e20646964206e60448201527f6f742073756363656564000000000000000000000000000000000000000000006064820152608490fd5b60405173ffffffffffffffffffffffffffffffffffffffff91909116916133ea82611cec565b6020928383527f5361666545524332303a206c6f772d6c6576656c2063616c6c206661696c656484840152803b15613461576000828192828761343c9796519301915af16134366134c0565b9061352c565b8051908161344957505050565b826120e09361345c938301019101613320565b613338565b6040517f08c379a000000000000000000000000000000000000000000000000000000000815260048101859052601d60248201527f416464726573733a2063616c6c20746f206e6f6e2d636f6e74726163740000006044820152606490fd5b3d15613527573d9067ffffffffffffffff821161351a575b6040519161350e601f82017fffffffffffffffffffffffffffffffffffffffffffffffffffffffffffffffe01660200184611d31565b82523d6000602084013e565b613522611cd5565b6134d8565b606090565b90919015613538575090565b8151156135485750805190602001fd5b6040517f08c379a0000000000000000000000000000000000000000000000000000000008152908190611bb79060048301611d53565b1561358557565b6040517f08c379a000000000000000000000000000000000000000000000000000000000815260206004820152600e60248201527f4b523a20302d77697468647261770000000000000000000000000000000000006044820152606490fd5b156135eb57565b6040517f08c379a000000000000000000000000000000000000000000000000000000000815260206004820152601460248201527f4b523a2021726577617264526563697069656e740000000000000000000000006044820152606490fd5b6040517fa9059cbb00000000000000000000000000000000000000000000000000000000602082015273ffffffffffffffffffffffffffffffffffffffff90921660248301526044808301939093529181526120e0916080820167ffffffffffffffff8111838210176136c0575b6040526133c4565b6136c8611cd5565b6136b8565b156136d457565b6040517f08c379a000000000000000000000000000000000000000000000000000000000815260206004820152600e60248201527f4b523a20706f6f6c4578697374730000000000000000000000000000000000006044820152606490fd5b919290926000805b60808501805151821015613800579061378d918161377e6137696107878a6107808560608f51930151612c2f565b6137778360208d0151612c2f565b5190612c51565b9182613792575b50505061254c565b61373b565b6137a88388610705612cd76130f3878751612c2f565b5173ffffffffffffffffffffffffffffffffffffffff9182916137ce916130f391612c2f565b169086167f9aa05b3d70a9e3e2f004f039648839560576334fb45c81f91b6db03ad9e2efc986604051a4388181613785565b5050505091505056fea2646970667358221220ebae36fd69b0f03c9bd48d9ad3c732c013239919294f91927441dda5c0c6f1c364736f6c634300080e0033",
    "devdoc": {
        "kind": "dev",
        "methods": {
            "addPool(address[],address,uint128,uint128)": {
                "params": {
                    "_allocPoint": "weight of rewards this pool receives",
                    "_depositToken": "token to deposit for rewards",
                    "_rewardTokens": "tokens to reward from this pool"
                }
            },
            "allPendingRewards(address)": {
                "params": {
                    "_account": "to get rewards for"
                }
            },
            "claim(uint256,address)": {
                "params": {
                    "_pid": "id in `_poolInfo`",
                    "_rewardRecipient": "address to send rewards to"
                }
            },
            "claimFor(address,uint256,address)": {
                "params": {
                    "_for": "account to claim for",
                    "_pid": "id in `_poolInfo`",
                    "_rewardRecipient": "address that receives rewards"
                }
            },
            "deposit(address,uint256,uint256)": {
                "params": {
                    "_amount": "amount of tokens to deposit",
                    "_pid": "in `_poolInfo`",
                    "_to": "address that msg.sender deposits tokens for"
                }
            },
            "emergencyWithdraw(uint256)": {
                "params": {
                    "_pid": "pool id to withdraw tokens from"
                }
            },
            "getPidFor(address)": {
                "params": {
                    "_depositToken": "depositToken in `_poolInfo`"
                },
                "returns": {
                    "found": "ensure 0 index",
                    "pid": "of pool with `_depositToken`"
                }
            },
            "getRoleAdmin(bytes32)": {
                "details": "Returns the admin role that controls `role`. See {grantRole} and {revokeRole}. To change a role's admin, use {_setRoleAdmin}."
            },
            "grantRole(bytes32,address)": {
                "details": "Grants `role` to `account`. If `account` had not been already granted `role`, emits a {RoleGranted} event. Requirements: - the caller must have ``role``'s admin role. May emit a {RoleGranted} event."
            },
            "hasRole(bytes32,address)": {
                "details": "Returns `true` if `account` has been granted `role`."
            },
            "pendingRewards(uint256,address)": {
                "params": {
                    "_pid": "id in `_poolInfo`",
                    "_user": "id in `_userInfo[_pid]`"
                }
            },
            "poolInfo(uint256)": {
                "params": {
                    "_pid": "in `_poolInfo`"
                }
            },
            "renounceRole(bytes32,address)": {
                "details": "Revokes `role` from the calling account. Roles are often managed via {grantRole} and {revokeRole}: this function's purpose is to provide a mechanism for accounts to lose their privileges if they are compromised (such as when a trusted device is misplaced). If the calling account had been revoked `role`, emits a {RoleRevoked} event. Requirements: - the caller must be `account`. May emit a {RoleRevoked} event."
            },
            "revokeRole(bytes32,address)": {
                "details": "Revokes `role` from `account`. If `account` had been granted `role`, emits a {RoleRevoked} event. Requirements: - the caller must have ``role``'s admin role. May emit a {RoleRevoked} event."
            },
            "setPool(uint256,uint128)": {
                "params": {
                    "_newAllocPoint": "new allocation (weight) for rewards",
                    "_pid": "pool to modify"
                }
            },
            "setRewardPerBlockFor(address,uint256)": {
                "params": {
                    "_rewardPerBlock": "tokens to drip per block",
                    "_rewardToken": "token to adjust the drip for"
                }
            },
            "supportsInterface(bytes4)": {
                "details": "See {IERC165-supportsInterface}."
            },
            "updatePool(uint256)": {
                "params": {
                    "_pid": "pool to update"
                }
            },
            "userInfo(uint256,address)": {
                "params": {
                    "_account": "to get information for",
                    "_pid": "in `_poolInfo`"
                }
            },
            "withdraw(uint256,uint256,address)": {
                "params": {
                    "_amount": "amount to withdraw",
                    "_pid": "id in `_poolInfo`",
                    "_rewardRecipient": "address to send rewards to"
                }
            },
            "withdrawFor(address,uint256,uint256,address)": {
                "params": {
                    "_amount": "amount to withdraw",
                    "_for": "account to withdraw from",
                    "_pid": "id in `_poolInfo`",
                    "_rewardRecipient": "reward recipient"
                }
            }
        },
        "version": 1
    },
    "userdoc": {
        "events": {
            "Deposit(address,uint256,uint256)": {
                "notice": "================================================== ============== Events ============================ =================================================="
            }
        },
        "kind": "user",
        "methods": {
            "addPool(address[],address,uint128,uint128)": {
                "notice": "Adds a new reward poolUpdates reward token count in case of adding extra tokens"
            },
            "allPendingRewards(address)": {
                "notice": "Get all pending rewards for an account"
            },
            "claim(uint256,address)": {
                "notice": "Claim rewards only"
            },
            "claimFor(address,uint256,address)": {
                "notice": "Trusted helper contract can claim rewards on behalf of an account"
            },
            "deposit(address,uint256,uint256)": {
                "notice": "Deposits tokens for @param _to"
            },
            "emergencyWithdraw(uint256)": {
                "notice": "Emergency function, withdraws deposits from a poolThis will forfeit your rewards."
            },
            "getPidFor(address)": {
                "notice": "Get id for a tokenUseful for external contracts"
            },
            "initialize(address[],uint256[],address,uint128,uint128,address,address)": {
                "notice": "Initialize the contract with a single poolSets initial reward token and ratesSets the caller as DEFAULT_ADMIN"
            },
            "massUpdatePools()": {
                "notice": "Updates all pools to be up-to date"
            },
            "pendingRewards(uint256,address)": {
                "notice": "Get pending rewards from a certain pool"
            },
            "poolInfo(uint256)": {
                "notice": "Get pool information"
            },
            "poolLength()": {
                "notice": "Amount of pools"
            },
            "rescueNative()": {
                "notice": "A rescue function for missent msg.valueSince we are using payable functions to save gas on calls"
            },
            "rescueNonPoolToken(address,uint256)": {
                "notice": "A rescue function for missent tokens / airdropsThis cannot withdraw any deposits due `ensurePoolDoesNotExist` modifier."
            },
            "setPool(uint256,uint128)": {
                "notice": "Set new allocations for a poolSet `_newAllocPoint` to 0 to retire a pool"
            },
            "setRewardPerBlockFor(address,uint256)": {
                "notice": "Adjust/Set reward per block for a particular reward token"
            },
            "updatePool(uint256)": {
                "notice": "Updates a pools reward variables to be up-to date"
            },
            "userInfo(uint256,address)": {
                "notice": "Get account information on a pool"
            },
            "withdraw(uint256,uint256,address)": {
                "notice": "Withdraw deposited tokens and rewards."
            },
            "withdrawFor(address,uint256,uint256,address)": {
                "notice": "Trusted helper contract can withdraw rewards and deposits on behalf of an accountFor eg. withdraw + remove liquidity"
            }
        },
        "version": 1
    },
    "storageLayout": {
        "storage": [
            {
                "astId": 589,
                "contract": "src/contracts/staking/KrStaking.sol:KrStaking",
                "label": "_initialized",
                "offset": 0,
                "slot": "0",
                "type": "t_uint8"
            },
            {
                "astId": 592,
                "contract": "src/contracts/staking/KrStaking.sol:KrStaking",
                "label": "_initializing",
                "offset": 1,
                "slot": "0",
                "type": "t_bool"
            },
            {
                "astId": 1471,
                "contract": "src/contracts/staking/KrStaking.sol:KrStaking",
                "label": "__gap",
                "offset": 0,
                "slot": "1",
                "type": "t_array(t_uint256)50_storage"
            },
            {
                "astId": 1741,
                "contract": "src/contracts/staking/KrStaking.sol:KrStaking",
                "label": "__gap",
                "offset": 0,
                "slot": "51",
                "type": "t_array(t_uint256)50_storage"
            },
            {
                "astId": 184,
                "contract": "src/contracts/staking/KrStaking.sol:KrStaking",
                "label": "_roles",
                "offset": 0,
                "slot": "101",
                "type": "t_mapping(t_bytes32,t_struct(RoleData)179_storage)"
            },
            {
                "astId": 483,
                "contract": "src/contracts/staking/KrStaking.sol:KrStaking",
                "label": "__gap",
                "offset": 0,
                "slot": "102",
                "type": "t_array(t_uint256)49_storage"
            },
            {
                "astId": 747,
                "contract": "src/contracts/staking/KrStaking.sol:KrStaking",
                "label": "_status",
                "offset": 0,
                "slot": "151",
                "type": "t_uint256"
            },
            {
                "astId": 791,
                "contract": "src/contracts/staking/KrStaking.sol:KrStaking",
                "label": "__gap",
                "offset": 0,
                "slot": "152",
                "type": "t_array(t_uint256)49_storage"
            },
            {
                "astId": 26450,
                "contract": "src/contracts/staking/KrStaking.sol:KrStaking",
                "label": "_userInfo",
                "offset": 0,
                "slot": "201",
                "type": "t_mapping(t_uint256,t_mapping(t_address,t_struct(UserInfo)26419_storage))"
            },
            {
                "astId": 26454,
                "contract": "src/contracts/staking/KrStaking.sol:KrStaking",
                "label": "rewardPerBlockFor",
                "offset": 0,
                "slot": "202",
                "type": "t_mapping(t_address,t_uint256)"
            },
            {
                "astId": 26458,
                "contract": "src/contracts/staking/KrStaking.sol:KrStaking",
                "label": "_poolInfo",
                "offset": 0,
                "slot": "203",
                "type": "t_array(t_struct(PoolInfo)26433_storage)dyn_storage"
            },
            {
                "astId": 26460,
                "contract": "src/contracts/staking/KrStaking.sol:KrStaking",
                "label": "totalAllocPoint",
                "offset": 0,
                "slot": "204",
                "type": "t_uint128"
            }
        ],
        "types": {
            "t_address": {
                "encoding": "inplace",
                "label": "address",
                "numberOfBytes": "20"
            },
            "t_array(t_address)dyn_storage": {
                "base": "t_address",
                "encoding": "dynamic_array",
                "label": "address[]",
                "numberOfBytes": "32"
            },
            "t_array(t_struct(PoolInfo)26433_storage)dyn_storage": {
                "base": "t_struct(PoolInfo)26433_storage",
                "encoding": "dynamic_array",
                "label": "struct KrStaking.PoolInfo[]",
                "numberOfBytes": "32"
            },
            "t_array(t_uint256)49_storage": {
                "base": "t_uint256",
                "encoding": "inplace",
                "label": "uint256[49]",
                "numberOfBytes": "1568"
            },
            "t_array(t_uint256)50_storage": {
                "base": "t_uint256",
                "encoding": "inplace",
                "label": "uint256[50]",
                "numberOfBytes": "1600"
            },
            "t_array(t_uint256)dyn_storage": {
                "base": "t_uint256",
                "encoding": "dynamic_array",
                "label": "uint256[]",
                "numberOfBytes": "32"
            },
            "t_bool": {
                "encoding": "inplace",
                "label": "bool",
                "numberOfBytes": "1"
            },
            "t_bytes32": {
                "encoding": "inplace",
                "label": "bytes32",
                "numberOfBytes": "32"
            },
            "t_contract(IERC20)4044": {
                "encoding": "inplace",
                "label": "contract IERC20",
                "numberOfBytes": "20"
            },
            "t_mapping(t_address,t_bool)": {
                "encoding": "mapping",
                "key": "t_address",
                "label": "mapping(address => bool)",
                "numberOfBytes": "32",
                "value": "t_bool"
            },
            "t_mapping(t_address,t_struct(UserInfo)26419_storage)": {
                "encoding": "mapping",
                "key": "t_address",
                "label": "mapping(address => struct KrStaking.UserInfo)",
                "numberOfBytes": "32",
                "value": "t_struct(UserInfo)26419_storage"
            },
            "t_mapping(t_address,t_uint256)": {
                "encoding": "mapping",
                "key": "t_address",
                "label": "mapping(address => uint256)",
                "numberOfBytes": "32",
                "value": "t_uint256"
            },
            "t_mapping(t_bytes32,t_struct(RoleData)179_storage)": {
                "encoding": "mapping",
                "key": "t_bytes32",
                "label": "mapping(bytes32 => struct AccessControlUpgradeable.RoleData)",
                "numberOfBytes": "32",
                "value": "t_struct(RoleData)179_storage"
            },
            "t_mapping(t_uint256,t_mapping(t_address,t_struct(UserInfo)26419_storage))": {
                "encoding": "mapping",
                "key": "t_uint256",
                "label": "mapping(uint256 => mapping(address => struct KrStaking.UserInfo))",
                "numberOfBytes": "32",
                "value": "t_mapping(t_address,t_struct(UserInfo)26419_storage)"
            },
            "t_struct(PoolInfo)26433_storage": {
                "encoding": "inplace",
                "label": "struct KrStaking.PoolInfo",
                "members": [
                    {
                        "astId": 26422,
                        "contract": "src/contracts/staking/KrStaking.sol:KrStaking",
                        "label": "depositToken",
                        "offset": 0,
                        "slot": "0",
                        "type": "t_contract(IERC20)4044"
                    },
                    {
                        "astId": 26424,
                        "contract": "src/contracts/staking/KrStaking.sol:KrStaking",
                        "label": "allocPoint",
                        "offset": 0,
                        "slot": "1",
                        "type": "t_uint128"
                    },
                    {
                        "astId": 26426,
                        "contract": "src/contracts/staking/KrStaking.sol:KrStaking",
                        "label": "lastRewardBlock",
                        "offset": 16,
                        "slot": "1",
                        "type": "t_uint128"
                    },
                    {
                        "astId": 26429,
                        "contract": "src/contracts/staking/KrStaking.sol:KrStaking",
                        "label": "accRewardPerShares",
                        "offset": 0,
                        "slot": "2",
                        "type": "t_array(t_uint256)dyn_storage"
                    },
                    {
                        "astId": 26432,
                        "contract": "src/contracts/staking/KrStaking.sol:KrStaking",
                        "label": "rewardTokens",
                        "offset": 0,
                        "slot": "3",
                        "type": "t_array(t_address)dyn_storage"
                    }
                ],
                "numberOfBytes": "128"
            },
            "t_struct(RoleData)179_storage": {
                "encoding": "inplace",
                "label": "struct AccessControlUpgradeable.RoleData",
                "members": [
                    {
                        "astId": 176,
                        "contract": "src/contracts/staking/KrStaking.sol:KrStaking",
                        "label": "members",
                        "offset": 0,
                        "slot": "0",
                        "type": "t_mapping(t_address,t_bool)"
                    },
                    {
                        "astId": 178,
                        "contract": "src/contracts/staking/KrStaking.sol:KrStaking",
                        "label": "adminRole",
                        "offset": 0,
                        "slot": "1",
                        "type": "t_bytes32"
                    }
                ],
                "numberOfBytes": "64"
            },
            "t_struct(UserInfo)26419_storage": {
                "encoding": "inplace",
                "label": "struct KrStaking.UserInfo",
                "members": [
                    {
                        "astId": 26415,
                        "contract": "src/contracts/staking/KrStaking.sol:KrStaking",
                        "label": "amount",
                        "offset": 0,
                        "slot": "0",
                        "type": "t_uint256"
                    },
                    {
                        "astId": 26418,
                        "contract": "src/contracts/staking/KrStaking.sol:KrStaking",
                        "label": "rewardDebts",
                        "offset": 0,
                        "slot": "1",
                        "type": "t_array(t_uint256)dyn_storage"
                    }
                ],
                "numberOfBytes": "64"
            },
            "t_uint128": {
                "encoding": "inplace",
                "label": "uint128",
                "numberOfBytes": "16"
            },
            "t_uint256": {
                "encoding": "inplace",
                "label": "uint256",
                "numberOfBytes": "32"
            },
            "t_uint8": {
                "encoding": "inplace",
                "label": "uint8",
                "numberOfBytes": "1"
            }
        }
    }
}