{
  "address": "0x775fF67F38AF53C694C0605662f32f101d14DeA8",
  "abi": [
    {
      "anonymous": false,
      "inputs": [
        {
          "indexed": true,
          "internalType": "address",
          "name": "owner",
          "type": "address"
        },
        {
          "indexed": true,
          "internalType": "address",
          "name": "spender",
          "type": "address"
        },
        {
          "indexed": false,
          "internalType": "uint256",
          "name": "amount",
          "type": "uint256"
        }
      ],
      "name": "Approval",
      "type": "event"
    },
    {
      "anonymous": false,
      "inputs": [
        {
          "indexed": false,
          "internalType": "uint8",
          "name": "version",
          "type": "uint8"
        }
      ],
      "name": "Initialized",
      "type": "event"
    },
    {
      "anonymous": false,
      "inputs": [
        {
          "indexed": true,
          "internalType": "bytes32",
          "name": "role",
          "type": "bytes32"
        },
        {
          "indexed": true,
          "internalType": "bytes32",
          "name": "previousAdminRole",
          "type": "bytes32"
        },
        {
          "indexed": true,
          "internalType": "bytes32",
          "name": "newAdminRole",
          "type": "bytes32"
        }
      ],
      "name": "RoleAdminChanged",
      "type": "event"
    },
    {
      "anonymous": false,
      "inputs": [
        {
          "indexed": true,
          "internalType": "bytes32",
          "name": "role",
          "type": "bytes32"
        },
        {
          "indexed": true,
          "internalType": "address",
          "name": "account",
          "type": "address"
        },
        {
          "indexed": true,
          "internalType": "address",
          "name": "sender",
          "type": "address"
        }
      ],
      "name": "RoleGranted",
      "type": "event"
    },
    {
      "anonymous": false,
      "inputs": [
        {
          "indexed": true,
          "internalType": "bytes32",
          "name": "role",
          "type": "bytes32"
        },
        {
          "indexed": true,
          "internalType": "address",
          "name": "account",
          "type": "address"
        },
        {
          "indexed": true,
          "internalType": "address",
          "name": "sender",
          "type": "address"
        }
      ],
      "name": "RoleRevoked",
      "type": "event"
    },
    {
      "anonymous": false,
      "inputs": [
        {
          "indexed": true,
          "internalType": "address",
          "name": "from",
          "type": "address"
        },
        {
          "indexed": true,
          "internalType": "address",
          "name": "to",
          "type": "address"
        },
        {
          "indexed": false,
          "internalType": "uint256",
          "name": "amount",
          "type": "uint256"
        }
      ],
      "name": "Transfer",
      "type": "event"
    },
    {
      "inputs": [],
      "name": "DEFAULT_ADMIN_ROLE",
      "outputs": [
        {
          "internalType": "bytes32",
          "name": "",
          "type": "bytes32"
        }
      ],
      "stateMutability": "view",
      "type": "function"
    },
    {
      "inputs": [],
      "name": "DOMAIN_SEPARATOR",
      "outputs": [
        {
          "internalType": "bytes32",
          "name": "",
          "type": "bytes32"
        }
      ],
      "stateMutability": "view",
      "type": "function"
    },
    {
      "inputs": [
        {
          "internalType": "address",
          "name": "_owner",
          "type": "address"
        },
        {
          "internalType": "address",
          "name": "_account",
          "type": "address"
        }
      ],
      "name": "allowance",
      "outputs": [
        {
          "internalType": "uint256",
          "name": "",
          "type": "uint256"
        }
      ],
      "stateMutability": "view",
      "type": "function"
    },
    {
      "inputs": [
        {
          "internalType": "address",
          "name": "spender",
          "type": "address"
        },
        {
          "internalType": "uint256",
          "name": "amount",
          "type": "uint256"
        }
      ],
      "name": "approve",
      "outputs": [
        {
          "internalType": "bool",
          "name": "",
          "type": "bool"
        }
      ],
      "stateMutability": "nonpayable",
      "type": "function"
    },
    {
      "inputs": [
        {
          "internalType": "address",
          "name": "_account",
          "type": "address"
        }
      ],
      "name": "balanceOf",
      "outputs": [
        {
          "internalType": "uint256",
          "name": "",
          "type": "uint256"
        }
      ],
      "stateMutability": "view",
      "type": "function"
    },
    {
      "inputs": [
        {
          "internalType": "address",
          "name": "_from",
          "type": "address"
        },
        {
          "internalType": "uint256",
          "name": "_amount",
          "type": "uint256"
        }
      ],
      "name": "burn",
      "outputs": [],
      "stateMutability": "nonpayable",
      "type": "function"
    },
    {
      "inputs": [],
      "name": "decimals",
      "outputs": [
        {
          "internalType": "uint8",
          "name": "",
          "type": "uint8"
        }
      ],
      "stateMutability": "view",
      "type": "function"
    },
    {
      "inputs": [
        {
          "internalType": "bytes32",
          "name": "role",
          "type": "bytes32"
        }
      ],
      "name": "getRoleAdmin",
      "outputs": [
        {
          "internalType": "bytes32",
          "name": "",
          "type": "bytes32"
        }
      ],
      "stateMutability": "view",
      "type": "function"
    },
    {
      "inputs": [
        {
          "internalType": "bytes32",
          "name": "role",
          "type": "bytes32"
        },
        {
          "internalType": "uint256",
          "name": "index",
          "type": "uint256"
        }
      ],
      "name": "getRoleMember",
      "outputs": [
        {
          "internalType": "address",
          "name": "",
          "type": "address"
        }
      ],
      "stateMutability": "view",
      "type": "function"
    },
    {
      "inputs": [
        {
          "internalType": "bytes32",
          "name": "role",
          "type": "bytes32"
        }
      ],
      "name": "getRoleMemberCount",
      "outputs": [
        {
          "internalType": "uint256",
          "name": "",
          "type": "uint256"
        }
      ],
      "stateMutability": "view",
      "type": "function"
    },
    {
      "inputs": [
        {
          "internalType": "bytes32",
          "name": "role",
          "type": "bytes32"
        },
        {
          "internalType": "address",
          "name": "account",
          "type": "address"
        }
      ],
      "name": "grantRole",
      "outputs": [],
      "stateMutability": "nonpayable",
      "type": "function"
    },
    {
      "inputs": [
        {
          "internalType": "bytes32",
          "name": "role",
          "type": "bytes32"
        },
        {
          "internalType": "address",
          "name": "account",
          "type": "address"
        }
      ],
      "name": "hasRole",
      "outputs": [
        {
          "internalType": "bool",
          "name": "",
          "type": "bool"
        }
      ],
      "stateMutability": "view",
      "type": "function"
    },
    {
      "inputs": [
        {
          "internalType": "string",
          "name": "_name",
          "type": "string"
        },
        {
          "internalType": "string",
          "name": "_symbol",
          "type": "string"
        },
        {
          "internalType": "uint8",
          "name": "_decimals",
          "type": "uint8"
        },
        {
          "internalType": "address",
          "name": "_owner",
          "type": "address"
        },
        {
          "internalType": "address",
          "name": "_kresko",
          "type": "address"
        }
      ],
      "name": "initialize",
      "outputs": [],
      "stateMutability": "nonpayable",
      "type": "function"
    },
    {
      "inputs": [],
      "name": "isRebased",
      "outputs": [
        {
          "internalType": "bool",
          "name": "",
          "type": "bool"
        }
      ],
      "stateMutability": "view",
      "type": "function"
    },
    {
      "inputs": [],
      "name": "kresko",
      "outputs": [
        {
          "internalType": "address",
          "name": "",
          "type": "address"
        }
      ],
      "stateMutability": "view",
      "type": "function"
    },
    {
      "inputs": [
        {
          "internalType": "address",
          "name": "_to",
          "type": "address"
        },
        {
          "internalType": "uint256",
          "name": "_amount",
          "type": "uint256"
        }
      ],
      "name": "mint",
      "outputs": [],
      "stateMutability": "nonpayable",
      "type": "function"
    },
    {
      "inputs": [],
      "name": "name",
      "outputs": [
        {
          "internalType": "string",
          "name": "",
          "type": "string"
        }
      ],
      "stateMutability": "view",
      "type": "function"
    },
    {
      "inputs": [
        {
          "internalType": "address",
          "name": "",
          "type": "address"
        }
      ],
      "name": "nonces",
      "outputs": [
        {
          "internalType": "uint256",
          "name": "",
          "type": "uint256"
        }
      ],
      "stateMutability": "view",
      "type": "function"
    },
    {
      "inputs": [
        {
          "internalType": "address",
          "name": "owner",
          "type": "address"
        },
        {
          "internalType": "address",
          "name": "spender",
          "type": "address"
        },
        {
          "internalType": "uint256",
          "name": "value",
          "type": "uint256"
        },
        {
          "internalType": "uint256",
          "name": "deadline",
          "type": "uint256"
        },
        {
          "internalType": "uint8",
          "name": "v",
          "type": "uint8"
        },
        {
          "internalType": "bytes32",
          "name": "r",
          "type": "bytes32"
        },
        {
          "internalType": "bytes32",
          "name": "s",
          "type": "bytes32"
        }
      ],
      "name": "permit",
      "outputs": [],
      "stateMutability": "nonpayable",
      "type": "function"
    },
    {
      "inputs": [
        {
          "internalType": "uint256",
          "name": "_denominator",
          "type": "uint256"
        },
        {
          "internalType": "bool",
          "name": "_positive",
          "type": "bool"
        }
      ],
      "name": "rebase",
      "outputs": [],
      "stateMutability": "nonpayable",
      "type": "function"
    },
    {
      "inputs": [],
      "name": "rebaseInfo",
      "outputs": [
        {
          "internalType": "bool",
          "name": "positive",
          "type": "bool"
        },
        {
          "internalType": "uint256",
          "name": "denominator",
          "type": "uint256"
        }
      ],
      "stateMutability": "view",
      "type": "function"
    },
    {
      "inputs": [
        {
          "internalType": "bytes32",
          "name": "role",
          "type": "bytes32"
        },
        {
          "internalType": "address",
          "name": "account",
          "type": "address"
        }
      ],
      "name": "renounceRole",
      "outputs": [],
      "stateMutability": "nonpayable",
      "type": "function"
    },
    {
      "inputs": [
        {
          "internalType": "bytes32",
          "name": "role",
          "type": "bytes32"
        },
        {
          "internalType": "address",
          "name": "account",
          "type": "address"
        }
      ],
      "name": "revokeRole",
      "outputs": [],
      "stateMutability": "nonpayable",
      "type": "function"
    },
    {
      "inputs": [
        {
          "internalType": "bytes4",
          "name": "interfaceId",
          "type": "bytes4"
        }
      ],
      "name": "supportsInterface",
      "outputs": [
        {
          "internalType": "bool",
          "name": "",
          "type": "bool"
        }
      ],
      "stateMutability": "view",
      "type": "function"
    },
    {
      "inputs": [],
      "name": "symbol",
      "outputs": [
        {
          "internalType": "string",
          "name": "",
          "type": "string"
        }
      ],
      "stateMutability": "view",
      "type": "function"
    },
    {
      "inputs": [],
      "name": "totalSupply",
      "outputs": [
        {
          "internalType": "uint256",
          "name": "",
          "type": "uint256"
        }
      ],
      "stateMutability": "view",
      "type": "function"
    },
    {
      "inputs": [
        {
          "internalType": "address",
          "name": "_to",
          "type": "address"
        },
        {
          "internalType": "uint256",
          "name": "_amount",
          "type": "uint256"
        }
      ],
      "name": "transfer",
      "outputs": [
        {
          "internalType": "bool",
          "name": "",
          "type": "bool"
        }
      ],
      "stateMutability": "nonpayable",
      "type": "function"
    },
    {
      "inputs": [
        {
          "internalType": "address",
          "name": "_from",
          "type": "address"
        },
        {
          "internalType": "address",
          "name": "_to",
          "type": "address"
        },
        {
          "internalType": "uint256",
          "name": "_amount",
          "type": "uint256"
        }
      ],
      "name": "transferFrom",
      "outputs": [
        {
          "internalType": "bool",
          "name": "",
          "type": "bool"
        }
      ],
      "stateMutability": "nonpayable",
      "type": "function"
    },
    {
      "inputs": [
        {
          "internalType": "string",
          "name": "_name",
          "type": "string"
        },
        {
          "internalType": "string",
          "name": "_symbol",
          "type": "string"
        },
        {
          "internalType": "uint8",
          "name": "_version",
          "type": "uint8"
        }
      ],
      "name": "updateMetaData",
      "outputs": [],
      "stateMutability": "nonpayable",
      "type": "function"
    }
  ],
  "transactionHash": "0xa77a5a5fdb3325e29323e2653c17cd250ad818e519d1e2c280ac01b6b50c6faa",
  "args": [],
  "numDeployments": 1,
  "solcInputHash": "83713c02c02640d2cd1e3b8340799402",
  "bytecode": "0x60c06040523480156200001157600080fd5b5060008060019054906101000a900460ff16159050808015620000445750600160008054906101000a900460ff1660ff16105b8062000080575062000061306200018260201b6200183e1760201c565b1580156200007f5750600160008054906101000a900460ff1660ff16145b5b620000c2576040517f08c379a0000000000000000000000000000000000000000000000000000000008152600401620000b990620002bc565b60405180910390fd5b60016000806101000a81548160ff021916908360ff160217905550801562000100576001600060016101000a81548160ff0219169083151502179055505b466080818152505062000118620001a560201b60201c565b60a0818152505080156200017b5760008060016101000a81548160ff0219169083151502179055507f7f26b83ff96e1f2b6a682f133852f6798a09c465da95921460cefb3847402498600160405162000172919062000338565b60405180910390a15b5062000555565b6000808273ffffffffffffffffffffffffffffffffffffffff163b119050919050565b60007f8b73c3c69bb8fe3d512ecc4cf759cc79239f7b179b0ffacaa9a75d522b39400f6001604051620001d9919062000464565b60405180910390207fc89efdaa54c0f20c7adf612882df0950f5a951637e0307cdcb4c672f298b8bc646306040516020016200021a959493929190620004f8565b60405160208183030381529060405280519060200120905090565b600082825260208201905092915050565b7f496e697469616c697a61626c653a20636f6e747261637420697320616c72656160008201527f647920696e697469616c697a6564000000000000000000000000000000000000602082015250565b6000620002a4602e8362000235565b9150620002b18262000246565b604082019050919050565b60006020820190508181036000830152620002d78162000295565b9050919050565b6000819050919050565b600060ff82169050919050565b6000819050919050565b6000620003206200031a6200031484620002de565b620002f5565b620002e8565b9050919050565b6200033281620002ff565b82525050565b60006020820190506200034f600083018462000327565b92915050565b7f4e487b7100000000000000000000000000000000000000000000000000000000600052602260045260246000fd5b600060028204905060018216806200039d57607f821691505b602082108103620003b357620003b262000355565b5b50919050565b600081905092915050565b60008190508160005260206000209050919050565b60008154620003e88162000384565b620003f48186620003b9565b9450600182166000811462000412576001811462000424576200045b565b60ff198316865281860193506200045b565b6200042f85620003c4565b60005b83811015620004535781548189015260018201915060208101905062000432565b838801955050505b50505092915050565b6000620004728284620003d9565b915081905092915050565b6000819050919050565b62000492816200047d565b82525050565b6000819050919050565b620004ad8162000498565b82525050565b600073ffffffffffffffffffffffffffffffffffffffff82169050919050565b6000620004e082620004b3565b9050919050565b620004f281620004d3565b82525050565b600060a0820190506200050f600083018862000487565b6200051e602083018762000487565b6200052d604083018662000487565b6200053c6060830185620004a2565b6200054b6080830184620004e7565b9695505050505050565b60805160a05161394b6200057b6000396000610b2f01526000610afb015261394b6000f3fe608060405234801561001057600080fd5b50600436106101cf5760003560e01c80639010d07c11610104578063aff46ab6116100a2578063d547741f11610071578063d547741f14610569578063d77e128c14610585578063dd07a2a3146105a3578063dd62ed3e146105bf576101cf565b8063aff46ab6146104e2578063c820f14614610501578063ca15c8731461051d578063d505accf1461054d576101cf565b80639dc29fac116100de5780639dc29fac1461045c578063a217fddf14610478578063a3d2563d14610496578063a9059cbb146104b2576101cf565b80639010d07c146103de57806391d148541461040e57806395d89b411461043e576101cf565b8063313ce5671161017157806340c10f191161014b57806340c10f19146103445780635a4c6c0d1461036057806370a082311461037e5780637ecebe00146103ae576101cf565b8063313ce567146102ec5780633644e5151461030a57806336568abe14610328576101cf565b806318160ddd116101ad57806318160ddd1461025257806323b872dd14610270578063248a9ca3146102a05780632f2ff15d146102d0576101cf565b806301ffc9a7146101d457806306fdde0314610204578063095ea7b314610222575b600080fd5b6101ee60048036038101906101e99190612840565b6105ef565b6040516101fb9190612888565b60405180910390f35b61020c6106eb565b604051610219919061293c565b60405180910390f35b61023c600480360381019061023791906129f2565b610779565b6040516102499190612888565b60405180910390f35b61025a61086b565b6040516102679190612a41565b60405180910390f35b61028a60048036038101906102859190612a5c565b6108d5565b6040516102979190612888565b60405180910390f35b6102ba60048036038101906102b59190612ae5565b610aa3565b6040516102c79190612b21565b60405180910390f35b6102ea60048036038101906102e59190612b3c565b610ac3565b005b6102f4610ae4565b6040516103019190612b98565b60405180910390f35b610312610af7565b60405161031f9190612b21565b60405180910390f35b610342600480360381019061033d9190612b3c565b610b54565b005b61035e600480360381019061035991906129f2565b610bd7565b005b610368610c71565b6040516103759190612888565b60405180910390f35b61039860048036038101906103939190612bb3565b610c84565b6040516103a59190612a41565b60405180910390f35b6103c860048036038101906103c39190612bb3565b610d30565b6040516103d59190612a41565b60405180910390f35b6103f860048036038101906103f39190612be0565b610d48565b6040516104059190612c2f565b60405180910390f35b61042860048036038101906104239190612b3c565b610d77565b6040516104359190612888565b60405180910390f35b610446610de2565b604051610453919061293c565b60405180910390f35b610476600480360381019061047191906129f2565b610e70565b005b610480610f0a565b60405161048d9190612b21565b60405180910390f35b6104b060048036038101906104ab9190612dab565b610f11565b005b6104cc60048036038101906104c791906129f2565b611034565b6040516104d99190612888565b60405180910390f35b6104ea611049565b6040516104f8929190612e36565b60405180910390f35b61051b60048036038101906105169190612e5f565b611068565b005b61053760048036038101906105329190612ae5565b611261565b6040516105449190612a41565b60405180910390f35b61056760048036038101906105629190612f12565b611285565b005b610583600480360381019061057e9190612b3c565b61157e565b005b61058d61159f565b60405161059a9190612c2f565b60405180910390f35b6105bd60048036038101906105b89190612fe0565b6115c5565b005b6105d960048036038101906105d49190613020565b611754565b6040516105e69190612a41565b60405180910390f35b600063ffffffff60e01b827bffffffffffffffffffffffffffffffffffffffffffffffffffffffff1916141580156106e457507f4930815a000000000000000000000000000000000000000000000000000000007bffffffffffffffffffffffffffffffffffffffffffffffffffffffff1916827bffffffffffffffffffffffffffffffffffffffffffffffffffffffff191614806106b357506301ffc9a760e01b827bffffffffffffffffffffffffffffffffffffffffffffffffffffffff1916145b806106e357506336372b0760e01b827bffffffffffffffffffffffffffffffffffffffffffffffffffffffff1916145b5b9050919050565b600180546106f89061308f565b80601f01602080910402602001604051908101604052809291908181526020018280546107249061308f565b80156107715780601f1061074657610100808354040283529160200191610771565b820191906000526020600020905b81548152906001019060200180831161075457829003601f168201915b505050505081565b600081600660003373ffffffffffffffffffffffffffffffffffffffff1673ffffffffffffffffffffffffffffffffffffffff16815260200190815260200160002060008573ffffffffffffffffffffffffffffffffffffffff1673ffffffffffffffffffffffffffffffffffffffff168152602001908152602001600020819055508273ffffffffffffffffffffffffffffffffffffffff163373ffffffffffffffffffffffffffffffffffffffff167f8c5be1e5ebec7d5bd14f71427d1e84f3dd0314c0f7b2291e5b200ac8c7c3b925846040516108599190612a41565b60405180910390a36001905092915050565b600060d060009054906101000a900460ff16610889576004546108d0565b6108cf60d16040518060400160405290816000820160009054906101000a900460ff1615151515815260200160018201548152505060045461186190919063ffffffff16565b5b905090565b600080600660008673ffffffffffffffffffffffffffffffffffffffff1673ffffffffffffffffffffffffffffffffffffffff16815260200190815260200160002060003373ffffffffffffffffffffffffffffffffffffffff1673ffffffffffffffffffffffffffffffffffffffff1681526020019081526020016000205490507fffffffffffffffffffffffffffffffffffffffffffffffffffffffffffffffff8114610a8e57808311156040518060400160405280600381526020017f3130380000000000000000000000000000000000000000000000000000000000815250906109f9576040517f08c379a00000000000000000000000000000000000000000000000000000000081526004016109f0919061293c565b60405180910390fd5b5082600660008773ffffffffffffffffffffffffffffffffffffffff1673ffffffffffffffffffffffffffffffffffffffff16815260200190815260200160002060003373ffffffffffffffffffffffffffffffffffffffff1673ffffffffffffffffffffffffffffffffffffffff1681526020019081526020016000206000828254610a8691906130ef565b925050819055505b610a998585856118bc565b9150509392505050565b6000606c6000838152602001908152602001600020600101549050919050565b610acc82610aa3565b610ad581611b5e565b610adf8383611b72565b505050565b600360009054906101000a900460ff1681565b60007f00000000000000000000000000000000000000000000000000000000000000004614610b2d57610b28611ba6565b610b4f565b7f00000000000000000000000000000000000000000000000000000000000000005b905090565b610b5c611c32565b73ffffffffffffffffffffffffffffffffffffffff168173ffffffffffffffffffffffffffffffffffffffff1614610bc9576040517f08c379a0000000000000000000000000000000000000000000000000000000008152600401610bc090613195565b60405180910390fd5b610bd38282611c3a565b5050565b7f112e48a576fb3a75acc75d9fcf6e0bc670b27b1dbcd2463502e10e68cf57d6fd60001b610c0481611b5e565b610c6c8360d060009054906101000a900460ff16610c225783610c67565b610c6660d16040518060400160405290816000820160009054906101000a900460ff1615151515815260200160018201548152505085611c6e90919063ffffffff16565b5b611cc9565b505050565b60d060009054906101000a900460ff1681565b600080600560008473ffffffffffffffffffffffffffffffffffffffff1673ffffffffffffffffffffffffffffffffffffffff16815260200190815260200160002054905060d060009054906101000a900460ff16610ce35780610d28565b610d2760d16040518060400160405290816000820160009054906101000a900460ff161515151581526020016001820154815250508261186190919063ffffffff16565b5b915050919050565b60076020528060005260406000206000915090505481565b6000610d6f82609e6000868152602001908152602001600020611d9990919063ffffffff16565b905092915050565b6000606c600084815260200190815260200160002060000160008373ffffffffffffffffffffffffffffffffffffffff1673ffffffffffffffffffffffffffffffffffffffff16815260200190815260200160002060009054906101000a900460ff16905092915050565b60028054610def9061308f565b80601f0160208091040260200160405190810160405280929190818152602001828054610e1b9061308f565b8015610e685780601f10610e3d57610100808354040283529160200191610e68565b820191906000526020600020905b815481529060010190602001808311610e4b57829003601f168201915b505050505081565b7f112e48a576fb3a75acc75d9fcf6e0bc670b27b1dbcd2463502e10e68cf57d6fd60001b610e9d81611b5e565b610f058360d060009054906101000a900460ff16610ebb5783610f00565b610eff60d16040518060400160405290816000820160009054906101000a900460ff1615151515815260200160018201548152505085611c6e90919063ffffffff16565b5b611db3565b505050565b6000801b81565b6000801b610f1e81611b5e565b81600060019054906101000a900460ff16158015610f4e57508060ff1660008054906101000a900460ff1660ff16105b610f8d576040517f08c379a0000000000000000000000000000000000000000000000000000000008152600401610f8490613227565b60405180910390fd5b806000806101000a81548160ff021916908360ff1602179055506001600060016101000a81548160ff021916908315150217905550610fdc8585600360009054906101000a900460ff16611e83565b60008060016101000a81548160ff0219169083151502179055507f7f26b83ff96e1f2b6a682f133852f6798a09c465da95921460cefb3847402498816040516110259190612b98565b60405180910390a15050505050565b60006110413384846118bc565b905092915050565b60d18060000160009054906101000a900460ff16908060010154905082565b60008060019054906101000a900460ff161590508080156110995750600160008054906101000a900460ff1660ff16105b806110c657506110a83061183e565b1580156110c55750600160008054906101000a900460ff1660ff16145b5b611105576040517f08c379a00000000000000000000000000000000000000000000000000000000081526004016110fc90613227565b60405180910390fd5b60016000806101000a81548160ff021916908360ff1602179055508015611142576001600060016101000a81548160ff0219169083151502179055505b61114d868686611e83565b611155611f20565b6111626000801b84611f71565b6111927f112e48a576fb3a75acc75d9fcf6e0bc670b27b1dbcd2463502e10e68cf57d6fd60001b6000801b611f7f565b6111bf7f112e48a576fb3a75acc75d9fcf6e0bc670b27b1dbcd2463502e10e68cf57d6fd60001b83611f71565b8160d060016101000a81548173ffffffffffffffffffffffffffffffffffffffff021916908373ffffffffffffffffffffffffffffffffffffffff16021790555080156112595760008060016101000a81548160ff0219169083151502179055507f7f26b83ff96e1f2b6a682f133852f6798a09c465da95921460cefb38474024986001604051611250919061328c565b60405180910390a15b505050505050565b600061127e609e6000848152602001908152602001600020611fdb565b9050919050565b428410156112c8576040517f08c379a00000000000000000000000000000000000000000000000000000000081526004016112bf906132f3565b60405180910390fd5b600060016112d4610af7565b7f6e71edae12b1b97f4d1f60370fef10105fa2faae0126114a169c64845d6126c98a8a8a600760008f73ffffffffffffffffffffffffffffffffffffffff1673ffffffffffffffffffffffffffffffffffffffff1681526020019081526020016000206000815480929190600101919050558b60405160200161135c96959493929190613313565b604051602081830303815290604052805190602001206040516020016113839291906133ec565b60405160208183030381529060405280519060200120858585604051600081526020016040526040516113b99493929190613423565b6020604051602081039080840390855afa1580156113db573d6000803e3d6000fd5b505050602060405103519050600073ffffffffffffffffffffffffffffffffffffffff168173ffffffffffffffffffffffffffffffffffffffff161415801561144f57508773ffffffffffffffffffffffffffffffffffffffff168173ffffffffffffffffffffffffffffffffffffffff16145b61148e576040517f08c379a0000000000000000000000000000000000000000000000000000000008152600401611485906134b4565b60405180910390fd5b85600660008373ffffffffffffffffffffffffffffffffffffffff1673ffffffffffffffffffffffffffffffffffffffff16815260200190815260200160002060008973ffffffffffffffffffffffffffffffffffffffff1673ffffffffffffffffffffffffffffffffffffffff16815260200190815260200160002081905550508573ffffffffffffffffffffffffffffffffffffffff168773ffffffffffffffffffffffffffffffffffffffff167f8c5be1e5ebec7d5bd14f71427d1e84f3dd0314c0f7b2291e5b200ac8c7c3b9258760405161156d9190612a41565b60405180910390a350505050505050565b61158782610aa3565b61159081611b5e565b61159a8383611c3a565b505050565b60d060019054906101000a900473ffffffffffffffffffffffffffffffffffffffff1681565b7f112e48a576fb3a75acc75d9fcf6e0bc670b27b1dbcd2463502e10e68cf57d6fd60001b6115f281611b5e565b670de0b6b3a76400008310156040518060400160405280600381526020017f353030000000000000000000000000000000000000000000000000000000000081525090611675576040517f08c379a000000000000000000000000000000000000000000000000000000000815260040161166c919061293c565b60405180910390fd5b50670de0b6b3a764000083036116ed57600060d060006101000a81548160ff0219169083151502179055506040518060400160405280600015158152602001600081525060d160008201518160000160006101000a81548160ff0219169083151502179055506020820151816001015590505061174f565b600160d060006101000a81548160ff021916908315150217905550604051806040016040528083151581526020018481525060d160008201518160000160006101000a81548160ff021916908315150217905550602082015181600101559050505b505050565b600080600660008573ffffffffffffffffffffffffffffffffffffffff1673ffffffffffffffffffffffffffffffffffffffff16815260200190815260200160002060008473ffffffffffffffffffffffffffffffffffffffff1673ffffffffffffffffffffffffffffffffffffffff16815260200190815260200160002054905060d060009054906101000a900460ff166117f05780611835565b61183460d16040518060400160405290816000820160009054906101000a900460ff161515151581526020016001820154815250508261186190919063ffffffff16565b5b91505092915050565b6000808273ffffffffffffffffffffffffffffffffffffffff163b119050919050565b600080826020015103611876578290506118b6565b816000015161189b57611896826020015184611ff090919063ffffffff16565b6118b3565b6118b282602001518461200d90919063ffffffff16565b5b90505b92915050565b600060d060009054906101000a900460ff1661197a5781600560008673ffffffffffffffffffffffffffffffffffffffff1673ffffffffffffffffffffffffffffffffffffffff168152602001908152602001600020600082825461192191906130ef565b9250508190555081600560008573ffffffffffffffffffffffffffffffffffffffff1673ffffffffffffffffffffffffffffffffffffffff16815260200190815260200160002060008282540192505081905550611aee565b600061198585610c84565b9050808311156040518060400160405280600381526020017f313037000000000000000000000000000000000000000000000000000000000081525090611a02576040517f08c379a00000000000000000000000000000000000000000000000000000000081526004016119f9919061293c565b60405180910390fd5b50611a4760d16040518060400160405290816000820160009054906101000a900460ff1615151515815260200160018201548152505084611c6e90919063ffffffff16565b925082600560008773ffffffffffffffffffffffffffffffffffffffff1673ffffffffffffffffffffffffffffffffffffffff1681526020019081526020016000206000828254611a9891906130ef565b9250508190555082600560008673ffffffffffffffffffffffffffffffffffffffff1673ffffffffffffffffffffffffffffffffffffffff16815260200190815260200160002060008282540192505081905550505b8273ffffffffffffffffffffffffffffffffffffffff168473ffffffffffffffffffffffffffffffffffffffff167fddf252ad1be2c89b69c2b068fc378daa952ba7f163c4a11628f55a4df523b3ef84604051611b4b9190612a41565b60405180910390a3600190509392505050565b611b6f81611b6a611c32565b61202a565b50565b611b7c82826120c7565b611ba181609e60008581526020019081526020016000206121a890919063ffffffff16565b505050565b60007f8b73c3c69bb8fe3d512ecc4cf759cc79239f7b179b0ffacaa9a75d522b39400f6001604051611bd89190613573565b60405180910390207fc89efdaa54c0f20c7adf612882df0950f5a951637e0307cdcb4c672f298b8bc64630604051602001611c1795949392919061358a565b60405160208183030381529060405280519060200120905090565b600033905090565b611c4482826121d8565b611c6981609e60008581526020019081526020016000206122ba90919063ffffffff16565b505050565b600080826020015103611c8357829050611cc3565b8160000151611ca857611ca382602001518461200d90919063ffffffff16565b611cc0565b611cbf826020015184611ff090919063ffffffff16565b5b90505b92915050565b8060046000828254611cdb91906135dd565b9250508190555080600560008473ffffffffffffffffffffffffffffffffffffffff1673ffffffffffffffffffffffffffffffffffffffff168152602001908152602001600020600082825401925050819055508173ffffffffffffffffffffffffffffffffffffffff16600073ffffffffffffffffffffffffffffffffffffffff167fddf252ad1be2c89b69c2b068fc378daa952ba7f163c4a11628f55a4df523b3ef83604051611d8d9190612a41565b60405180910390a35050565b6000611da883600001836122ea565b60001c905092915050565b80600560008473ffffffffffffffffffffffffffffffffffffffff1673ffffffffffffffffffffffffffffffffffffffff1681526020019081526020016000206000828254611e0291906130ef565b9250508190555080600460008282540392505081905550600073ffffffffffffffffffffffffffffffffffffffff168273ffffffffffffffffffffffffffffffffffffffff167fddf252ad1be2c89b69c2b068fc378daa952ba7f163c4a11628f55a4df523b3ef83604051611e779190612a41565b60405180910390a35050565b600060019054906101000a900460ff16611ed2576040517f08c379a0000000000000000000000000000000000000000000000000000000008152600401611ec9906136a5565b60405180910390fd5b8260019080519060200190611ee8929190612731565b508160029080519060200190611eff929190612731565b5080600360006101000a81548160ff021916908360ff160217905550505050565b600060019054906101000a900460ff16611f6f576040517f08c379a0000000000000000000000000000000000000000000000000000000008152600401611f66906136a5565b60405180910390fd5b565b611f7b8282611b72565b5050565b6000611f8a83610aa3565b905081606c6000858152602001908152602001600020600101819055508181847fbd79b86ffe0ab8e8776151514217cd7cacd52c909f66475c3af44e129f0b00ff60405160405180910390a4505050565b6000611fe982600001612315565b9050919050565b600061200583670de0b6b3a764000084612326565b905092915050565b60006120228383670de0b6b3a7640000612326565b905092915050565b6120348282610d77565b6120c3576120598173ffffffffffffffffffffffffffffffffffffffff16601461234e565b6120678360001c602061234e565b60405160200161207892919061378e565b6040516020818303038152906040526040517f08c379a00000000000000000000000000000000000000000000000000000000081526004016120ba919061293c565b60405180910390fd5b5050565b6120d18282610d77565b6121a4576001606c600084815260200190815260200160002060000160008373ffffffffffffffffffffffffffffffffffffffff1673ffffffffffffffffffffffffffffffffffffffff16815260200190815260200160002060006101000a81548160ff021916908315150217905550612149611c32565b73ffffffffffffffffffffffffffffffffffffffff168173ffffffffffffffffffffffffffffffffffffffff16837f2f8788117e7eff1d82e926ec794901d17c78024a50270940304540a733656f0d60405160405180910390a45b5050565b60006121d0836000018373ffffffffffffffffffffffffffffffffffffffff1660001b61258a565b905092915050565b6121e28282610d77565b156122b6576000606c600084815260200190815260200160002060000160008373ffffffffffffffffffffffffffffffffffffffff1673ffffffffffffffffffffffffffffffffffffffff16815260200190815260200160002060006101000a81548160ff02191690831515021790555061225b611c32565b73ffffffffffffffffffffffffffffffffffffffff168173ffffffffffffffffffffffffffffffffffffffff16837ff6391f5c32d9c69d2a47ea670b442974b53935d1edc7fd64eb21e047a839171b60405160405180910390a45b5050565b60006122e2836000018373ffffffffffffffffffffffffffffffffffffffff1660001b6125fa565b905092915050565b6000826000018281548110612302576123016137c8565b5b9060005260206000200154905092915050565b600081600001805490509050919050565b6000828402905082848204148415178215151661234257600080fd5b81810490509392505050565b60606000600283600261236191906137f7565b61236b91906135dd565b67ffffffffffffffff81111561238457612383612c54565b5b6040519080825280601f01601f1916602001820160405280156123b65781602001600182028036833780820191505090505b5090507f3000000000000000000000000000000000000000000000000000000000000000816000815181106123ee576123ed6137c8565b5b60200101907effffffffffffffffffffffffffffffffffffffffffffffffffffffffffffff1916908160001a9053507f780000000000000000000000000000000000000000000000000000000000000081600181518110612452576124516137c8565b5b60200101907effffffffffffffffffffffffffffffffffffffffffffffffffffffffffffff1916908160001a9053506000600184600261249291906137f7565b61249c91906135dd565b90505b600181111561253c577f3031323334353637383961626364656600000000000000000000000000000000600f8616601081106124de576124dd6137c8565b5b1a60f81b8282815181106124f5576124f46137c8565b5b60200101907effffffffffffffffffffffffffffffffffffffffffffffffffffffffffffff1916908160001a905350600485901c94508061253590613851565b905061249f565b5060008414612580576040517f08c379a0000000000000000000000000000000000000000000000000000000008152600401612577906138c6565b60405180910390fd5b8091505092915050565b6000612596838361270e565b6125ef5782600001829080600181540180825580915050600190039060005260206000200160009091909190915055826000018054905083600101600084815260200190815260200160002081905550600190506125f4565b600090505b92915050565b6000808360010160008481526020019081526020016000205490506000811461270257600060018261262c91906130ef565b905060006001866000018054905061264491906130ef565b90508181146126b3576000866000018281548110612665576126646137c8565b5b9060005260206000200154905080876000018481548110612689576126886137c8565b5b90600052602060002001819055508387600101600083815260200190815260200160002081905550505b856000018054806126c7576126c66138e6565b5b600190038181906000526020600020016000905590558560010160008681526020019081526020016000206000905560019350505050612708565b60009150505b92915050565b600080836001016000848152602001908152602001600020541415905092915050565b82805461273d9061308f565b90600052602060002090601f01602090048101928261275f57600085556127a6565b82601f1061277857805160ff19168380011785556127a6565b828001600101855582156127a6579182015b828111156127a557825182559160200191906001019061278a565b5b5090506127b391906127b7565b5090565b5b808211156127d05760008160009055506001016127b8565b5090565b6000604051905090565b600080fd5b600080fd5b60007fffffffff0000000000000000000000000000000000000000000000000000000082169050919050565b61281d816127e8565b811461282857600080fd5b50565b60008135905061283a81612814565b92915050565b600060208284031215612856576128556127de565b5b60006128648482850161282b565b91505092915050565b60008115159050919050565b6128828161286d565b82525050565b600060208201905061289d6000830184612879565b92915050565b600081519050919050565b600082825260208201905092915050565b60005b838110156128dd5780820151818401526020810190506128c2565b838111156128ec576000848401525b50505050565b6000601f19601f8301169050919050565b600061290e826128a3565b61291881856128ae565b93506129288185602086016128bf565b612931816128f2565b840191505092915050565b600060208201905081810360008301526129568184612903565b905092915050565b600073ffffffffffffffffffffffffffffffffffffffff82169050919050565b60006129898261295e565b9050919050565b6129998161297e565b81146129a457600080fd5b50565b6000813590506129b681612990565b92915050565b6000819050919050565b6129cf816129bc565b81146129da57600080fd5b50565b6000813590506129ec816129c6565b92915050565b60008060408385031215612a0957612a086127de565b5b6000612a17858286016129a7565b9250506020612a28858286016129dd565b9150509250929050565b612a3b816129bc565b82525050565b6000602082019050612a566000830184612a32565b92915050565b600080600060608486031215612a7557612a746127de565b5b6000612a83868287016129a7565b9350506020612a94868287016129a7565b9250506040612aa5868287016129dd565b9150509250925092565b6000819050919050565b612ac281612aaf565b8114612acd57600080fd5b50565b600081359050612adf81612ab9565b92915050565b600060208284031215612afb57612afa6127de565b5b6000612b0984828501612ad0565b91505092915050565b612b1b81612aaf565b82525050565b6000602082019050612b366000830184612b12565b92915050565b60008060408385031215612b5357612b526127de565b5b6000612b6185828601612ad0565b9250506020612b72858286016129a7565b9150509250929050565b600060ff82169050919050565b612b9281612b7c565b82525050565b6000602082019050612bad6000830184612b89565b92915050565b600060208284031215612bc957612bc86127de565b5b6000612bd7848285016129a7565b91505092915050565b60008060408385031215612bf757612bf66127de565b5b6000612c0585828601612ad0565b9250506020612c16858286016129dd565b9150509250929050565b612c298161297e565b82525050565b6000602082019050612c446000830184612c20565b92915050565b600080fd5b600080fd5b7f4e487b7100000000000000000000000000000000000000000000000000000000600052604160045260246000fd5b612c8c826128f2565b810181811067ffffffffffffffff82111715612cab57612caa612c54565b5b80604052505050565b6000612cbe6127d4565b9050612cca8282612c83565b919050565b600067ffffffffffffffff821115612cea57612ce9612c54565b5b612cf3826128f2565b9050602081019050919050565b82818337600083830152505050565b6000612d22612d1d84612ccf565b612cb4565b905082815260208101848484011115612d3e57612d3d612c4f565b5b612d49848285612d00565b509392505050565b600082601f830112612d6657612d65612c4a565b5b8135612d76848260208601612d0f565b91505092915050565b612d8881612b7c565b8114612d9357600080fd5b50565b600081359050612da581612d7f565b92915050565b600080600060608486031215612dc457612dc36127de565b5b600084013567ffffffffffffffff811115612de257612de16127e3565b5b612dee86828701612d51565b935050602084013567ffffffffffffffff811115612e0f57612e0e6127e3565b5b612e1b86828701612d51565b9250506040612e2c86828701612d96565b9150509250925092565b6000604082019050612e4b6000830185612879565b612e586020830184612a32565b9392505050565b600080600080600060a08688031215612e7b57612e7a6127de565b5b600086013567ffffffffffffffff811115612e9957612e986127e3565b5b612ea588828901612d51565b955050602086013567ffffffffffffffff811115612ec657612ec56127e3565b5b612ed288828901612d51565b9450506040612ee388828901612d96565b9350506060612ef4888289016129a7565b9250506080612f05888289016129a7565b9150509295509295909350565b600080600080600080600060e0888a031215612f3157612f306127de565b5b6000612f3f8a828b016129a7565b9750506020612f508a828b016129a7565b9650506040612f618a828b016129dd565b9550506060612f728a828b016129dd565b9450506080612f838a828b01612d96565b93505060a0612f948a828b01612ad0565b92505060c0612fa58a828b01612ad0565b91505092959891949750929550565b612fbd8161286d565b8114612fc857600080fd5b50565b600081359050612fda81612fb4565b92915050565b60008060408385031215612ff757612ff66127de565b5b6000613005858286016129dd565b925050602061301685828601612fcb565b9150509250929050565b60008060408385031215613037576130366127de565b5b6000613045858286016129a7565b9250506020613056858286016129a7565b9150509250929050565b7f4e487b7100000000000000000000000000000000000000000000000000000000600052602260045260246000fd5b600060028204905060018216806130a757607f821691505b6020821081036130ba576130b9613060565b5b50919050565b7f4e487b7100000000000000000000000000000000000000000000000000000000600052601160045260246000fd5b60006130fa826129bc565b9150613105836129bc565b925082821015613118576131176130c0565b5b828203905092915050565b7f416363657373436f6e74726f6c3a2063616e206f6e6c792072656e6f756e636560008201527f20726f6c657320666f722073656c660000000000000000000000000000000000602082015250565b600061317f602f836128ae565b915061318a82613123565b604082019050919050565b600060208201905081810360008301526131ae81613172565b9050919050565b7f496e697469616c697a61626c653a20636f6e747261637420697320616c72656160008201527f647920696e697469616c697a6564000000000000000000000000000000000000602082015250565b6000613211602e836128ae565b915061321c826131b5565b604082019050919050565b6000602082019050818103600083015261324081613204565b9050919050565b6000819050919050565b6000819050919050565b600061327661327161326c84613247565b613251565b612b7c565b9050919050565b6132868161325b565b82525050565b60006020820190506132a1600083018461327d565b92915050565b7f5045524d49545f444541444c494e455f45585049524544000000000000000000600082015250565b60006132dd6017836128ae565b91506132e8826132a7565b602082019050919050565b6000602082019050818103600083015261330c816132d0565b9050919050565b600060c0820190506133286000830189612b12565b6133356020830188612c20565b6133426040830187612c20565b61334f6060830186612a32565b61335c6080830185612a32565b61336960a0830184612a32565b979650505050505050565b600081905092915050565b7f1901000000000000000000000000000000000000000000000000000000000000600082015250565b60006133b5600283613374565b91506133c08261337f565b600282019050919050565b6000819050919050565b6133e66133e182612aaf565b6133cb565b82525050565b60006133f7826133a8565b915061340382856133d5565b60208201915061341382846133d5565b6020820191508190509392505050565b60006080820190506134386000830187612b12565b6134456020830186612b89565b6134526040830185612b12565b61345f6060830184612b12565b95945050505050565b7f494e56414c49445f5349474e4552000000000000000000000000000000000000600082015250565b600061349e600e836128ae565b91506134a982613468565b602082019050919050565b600060208201905081810360008301526134cd81613491565b9050919050565b600081905092915050565b60008190508160005260206000209050919050565b600081546135018161308f565b61350b81866134d4565b9450600182166000811461352657600181146135375761356a565b60ff1983168652818601935061356a565b613540856134df565b60005b8381101561356257815481890152600182019150602081019050613543565b838801955050505b50505092915050565b600061357f82846134f4565b915081905092915050565b600060a08201905061359f6000830188612b12565b6135ac6020830187612b12565b6135b96040830186612b12565b6135c66060830185612a32565b6135d36080830184612c20565b9695505050505050565b60006135e8826129bc565b91506135f3836129bc565b9250827fffffffffffffffffffffffffffffffffffffffffffffffffffffffffffffffff03821115613628576136276130c0565b5b828201905092915050565b7f496e697469616c697a61626c653a20636f6e7472616374206973206e6f74206960008201527f6e697469616c697a696e67000000000000000000000000000000000000000000602082015250565b600061368f602b836128ae565b915061369a82613633565b604082019050919050565b600060208201905081810360008301526136be81613682565b9050919050565b7f416363657373436f6e74726f6c3a206163636f756e7420000000000000000000600082015250565b60006136fb601783613374565b9150613706826136c5565b601782019050919050565b600061371c826128a3565b6137268185613374565b93506137368185602086016128bf565b80840191505092915050565b7f206973206d697373696e6720726f6c6520000000000000000000000000000000600082015250565b6000613778601183613374565b915061378382613742565b601182019050919050565b6000613799826136ee565b91506137a58285613711565b91506137b08261376b565b91506137bc8284613711565b91508190509392505050565b7f4e487b7100000000000000000000000000000000000000000000000000000000600052603260045260246000fd5b6000613802826129bc565b915061380d836129bc565b9250817fffffffffffffffffffffffffffffffffffffffffffffffffffffffffffffffff0483118215151615613846576138456130c0565b5b828202905092915050565b600061385c826129bc565b91506000820361386f5761386e6130c0565b5b600182039050919050565b7f537472696e67733a20686578206c656e67746820696e73756666696369656e74600082015250565b60006138b06020836128ae565b91506138bb8261387a565b602082019050919050565b600060208201905081810360008301526138df816138a3565b9050919050565b7f4e487b7100000000000000000000000000000000000000000000000000000000600052603160045260246000fdfea2646970667358221220bea60c565be3b3a4cddb665a8acdf4efc909d307595c1fe65db577ee7641280564736f6c634300080e0033",
  "devdoc": {
    "author": "Kresko",
    "kind": "dev",
    "methods": {
      "burn(address,uint256)": {
        "details": "Only callable by operator.",
        "params": {
          "_amount": "The amount of tokens to burn."
        }
      },
      "getRoleAdmin(bytes32)": {
        "details": "Returns the admin role that controls `role`. See {grantRole} and {revokeRole}. To change a role's admin, use {_setRoleAdmin}."
      },
      "getRoleMember(bytes32,uint256)": {
        "details": "Returns one of the accounts that have `role`. `index` must be a value between 0 and {getRoleMemberCount}, non-inclusive. Role bearers are not sorted in any particular way, and their ordering may change at any point. WARNING: When using {getRoleMember} and {getRoleMemberCount}, make sure you perform all queries on the same block. See the following https://forum.openzeppelin.com/t/iterating-over-elements-on-enumerableset-in-openzeppelin-contracts/2296[forum post] for more information."
      },
      "getRoleMemberCount(bytes32)": {
        "details": "Returns the number of accounts that have `role`. Can be used together with {getRoleMember} to enumerate all bearers of a role."
      },
      "grantRole(bytes32,address)": {
        "details": "Grants `role` to `account`. If `account` had not been already granted `role`, emits a {RoleGranted} event. Requirements: - the caller must have ``role``'s admin role. May emit a {RoleGranted} event."
      },
      "hasRole(bytes32,address)": {
        "details": "Returns `true` if `account` has been granted `role`."
      },
      "initialize(string,string,uint8,address,address)": {
        "details": "Intended to be operated by the Kresko smart contract.",
        "params": {
          "_decimals": "Decimals for the asset.",
          "_kresko": "The mint/burn operator.",
          "_name": "The name of the KreskoAsset.",
          "_owner": "The owner of this contract.",
          "_symbol": "The symbol of the KreskoAsset."
        }
      },
      "mint(address,uint256)": {
        "details": "Only callable by operator.",
        "params": {
          "_amount": "The amount of tokens to mint."
        }
      },
      "rebase(uint256,bool)": {
        "details": "denumerator values 0 and 1 ether will disable the rebase",
        "params": {
          "_denominator": "the denumerator for the operator, 1 ether = 1",
          "_positive": "supply increasing/reducing rebase"
        }
      },
      "renounceRole(bytes32,address)": {
        "details": "Revokes `role` from the calling account. Roles are often managed via {grantRole} and {revokeRole}: this function's purpose is to provide a mechanism for accounts to lose their privileges if they are compromised (such as when a trusted device is misplaced). If the calling account had been revoked `role`, emits a {RoleRevoked} event. Requirements: - the caller must be `account`. May emit a {RoleRevoked} event."
      },
      "revokeRole(bytes32,address)": {
        "details": "Revokes `role` from `account`. If `account` had been granted `role`, emits a {RoleRevoked} event. Requirements: - the caller must have ``role``'s admin role. May emit a {RoleRevoked} event."
      },
      "updateMetaData(string,string,uint8)": {
        "params": {
          "_name": "new name for the asset",
          "_symbol": "new symbol for the asset",
          "_version": "number that must be greater than latest emitted `Initialized` version"
        }
      }
    },
    "title": "Kresko Synthethic Asset - rebasing ERC20.",
    "version": 1
  },
  "userdoc": {
    "kind": "user",
    "methods": {
      "burn(address,uint256)": {
        "notice": "Burns tokens from an address."
      },
      "initialize(string,string,uint8,address,address)": {
        "notice": "Initializes a KreskoAsset ERC20 token."
      },
      "mint(address,uint256)": {
        "notice": "Mints tokens to an address."
      },
      "rebase(uint256,bool)": {
        "notice": "Perform a rebase, changing the denumerator and its operator"
      },
      "supportsInterface(bytes4)": {
        "notice": "ERC-165 - IKreskoAsset, ERC20 and ERC-165 itself"
      },
      "updateMetaData(string,string,uint8)": {
        "notice": "Updates metadata for the token in case eg. ticker change"
      }
    },
    "notice": "Rebases to adjust for stock splits and reverse stock splitsMinting, burning and rebasing can only be performed by the `Role.OPERATOR`",
    "version": 1
  },
  "storageLayout": {
    "storage": [
      {
        "astId": 2028,
        "contract": "src/contracts/krAsset/KreskoAsset.sol:KreskoAsset",
        "label": "_initialized",
        "offset": 0,
        "slot": "0",
        "type": "t_uint8"
      },
      {
        "astId": 2031,
        "contract": "src/contracts/krAsset/KreskoAsset.sol:KreskoAsset",
        "label": "_initializing",
        "offset": 1,
        "slot": "0",
        "type": "t_bool"
      },
      {
        "astId": 30627,
        "contract": "src/contracts/krAsset/KreskoAsset.sol:KreskoAsset",
        "label": "name",
        "offset": 0,
        "slot": "1",
        "type": "t_string_storage"
      },
      {
        "astId": 30629,
        "contract": "src/contracts/krAsset/KreskoAsset.sol:KreskoAsset",
        "label": "symbol",
        "offset": 0,
        "slot": "2",
        "type": "t_string_storage"
      },
      {
        "astId": 30631,
        "contract": "src/contracts/krAsset/KreskoAsset.sol:KreskoAsset",
        "label": "decimals",
        "offset": 0,
        "slot": "3",
        "type": "t_uint8"
      },
      {
        "astId": 30633,
        "contract": "src/contracts/krAsset/KreskoAsset.sol:KreskoAsset",
        "label": "_totalSupply",
        "offset": 0,
        "slot": "4",
        "type": "t_uint256"
      },
      {
        "astId": 30637,
        "contract": "src/contracts/krAsset/KreskoAsset.sol:KreskoAsset",
        "label": "_balances",
        "offset": 0,
        "slot": "5",
        "type": "t_mapping(t_address,t_uint256)"
      },
      {
        "astId": 30643,
        "contract": "src/contracts/krAsset/KreskoAsset.sol:KreskoAsset",
        "label": "_allowances",
        "offset": 0,
        "slot": "6",
        "type": "t_mapping(t_address,t_mapping(t_address,t_uint256))"
      },
      {
        "astId": 30647,
        "contract": "src/contracts/krAsset/KreskoAsset.sol:KreskoAsset",
        "label": "nonces",
        "offset": 0,
        "slot": "7",
        "type": "t_mapping(t_address,t_uint256)"
      },
      {
        "astId": 2935,
        "contract": "src/contracts/krAsset/KreskoAsset.sol:KreskoAsset",
        "label": "__gap",
        "offset": 0,
        "slot": "8",
        "type": "t_array(t_uint256)50_storage"
      },
      {
        "astId": 3205,
        "contract": "src/contracts/krAsset/KreskoAsset.sol:KreskoAsset",
        "label": "__gap",
        "offset": 0,
        "slot": "58",
        "type": "t_array(t_uint256)50_storage"
      },
      {
        "astId": 1623,
        "contract": "src/contracts/krAsset/KreskoAsset.sol:KreskoAsset",
        "label": "_roles",
        "offset": 0,
        "slot": "108",
        "type": "t_mapping(t_bytes32,t_struct(RoleData)1618_storage)"
      },
      {
        "astId": 1922,
        "contract": "src/contracts/krAsset/KreskoAsset.sol:KreskoAsset",
        "label": "__gap",
        "offset": 0,
        "slot": "109",
        "type": "t_array(t_uint256)49_storage"
      },
      {
        "astId": 1472,
        "contract": "src/contracts/krAsset/KreskoAsset.sol:KreskoAsset",
        "label": "_roleMembers",
        "offset": 0,
        "slot": "158",
        "type": "t_mapping(t_bytes32,t_struct(AddressSet)3906_storage)"
      },
      {
        "astId": 1582,
        "contract": "src/contracts/krAsset/KreskoAsset.sol:KreskoAsset",
        "label": "__gap",
        "offset": 0,
        "slot": "159",
        "type": "t_array(t_uint256)49_storage"
      },
      {
        "astId": 19361,
        "contract": "src/contracts/krAsset/KreskoAsset.sol:KreskoAsset",
        "label": "isRebased",
        "offset": 0,
        "slot": "208",
        "type": "t_bool"
      },
      {
        "astId": 19363,
        "contract": "src/contracts/krAsset/KreskoAsset.sol:KreskoAsset",
        "label": "kresko",
        "offset": 1,
        "slot": "208",
        "type": "t_address"
      },
      {
        "astId": 19366,
        "contract": "src/contracts/krAsset/KreskoAsset.sol:KreskoAsset",
        "label": "rebaseInfo",
        "offset": 0,
        "slot": "209",
        "type": "t_struct(Rebase)32086_storage"
      }
    ],
    "types": {
      "t_address": {
        "encoding": "inplace",
        "label": "address",
        "numberOfBytes": "20"
      },
      "t_array(t_bytes32)dyn_storage": {
        "base": "t_bytes32",
        "encoding": "dynamic_array",
        "label": "bytes32[]",
        "numberOfBytes": "32"
      },
      "t_array(t_uint256)49_storage": {
        "base": "t_uint256",
        "encoding": "inplace",
        "label": "uint256[49]",
        "numberOfBytes": "1568"
      },
      "t_array(t_uint256)50_storage": {
        "base": "t_uint256",
        "encoding": "inplace",
        "label": "uint256[50]",
        "numberOfBytes": "1600"
      },
      "t_bool": {
        "encoding": "inplace",
        "label": "bool",
        "numberOfBytes": "1"
      },
      "t_bytes32": {
        "encoding": "inplace",
        "label": "bytes32",
        "numberOfBytes": "32"
      },
      "t_mapping(t_address,t_bool)": {
        "encoding": "mapping",
        "key": "t_address",
        "label": "mapping(address => bool)",
        "numberOfBytes": "32",
        "value": "t_bool"
      },
      "t_mapping(t_address,t_mapping(t_address,t_uint256))": {
        "encoding": "mapping",
        "key": "t_address",
        "label": "mapping(address => mapping(address => uint256))",
        "numberOfBytes": "32",
        "value": "t_mapping(t_address,t_uint256)"
      },
      "t_mapping(t_address,t_uint256)": {
        "encoding": "mapping",
        "key": "t_address",
        "label": "mapping(address => uint256)",
        "numberOfBytes": "32",
        "value": "t_uint256"
      },
      "t_mapping(t_bytes32,t_struct(AddressSet)3906_storage)": {
        "encoding": "mapping",
        "key": "t_bytes32",
        "label": "mapping(bytes32 => struct EnumerableSetUpgradeable.AddressSet)",
        "numberOfBytes": "32",
        "value": "t_struct(AddressSet)3906_storage"
      },
      "t_mapping(t_bytes32,t_struct(RoleData)1618_storage)": {
        "encoding": "mapping",
        "key": "t_bytes32",
        "label": "mapping(bytes32 => struct AccessControlUpgradeable.RoleData)",
        "numberOfBytes": "32",
        "value": "t_struct(RoleData)1618_storage"
      },
      "t_mapping(t_bytes32,t_uint256)": {
        "encoding": "mapping",
        "key": "t_bytes32",
        "label": "mapping(bytes32 => uint256)",
        "numberOfBytes": "32",
        "value": "t_uint256"
      },
      "t_string_storage": {
        "encoding": "bytes",
        "label": "string",
        "numberOfBytes": "32"
      },
      "t_struct(AddressSet)3906_storage": {
        "encoding": "inplace",
        "label": "struct EnumerableSetUpgradeable.AddressSet",
        "members": [
          {
            "astId": 3905,
            "contract": "src/contracts/krAsset/KreskoAsset.sol:KreskoAsset",
            "label": "_inner",
            "offset": 0,
            "slot": "0",
            "type": "t_struct(Set)3605_storage"
          }
        ],
        "numberOfBytes": "64"
      },
      "t_struct(Rebase)32086_storage": {
        "encoding": "inplace",
        "label": "struct Rebase",
        "members": [
          {
            "astId": 32083,
            "contract": "src/contracts/krAsset/KreskoAsset.sol:KreskoAsset",
            "label": "positive",
            "offset": 0,
            "slot": "0",
            "type": "t_bool"
          },
          {
            "astId": 32085,
            "contract": "src/contracts/krAsset/KreskoAsset.sol:KreskoAsset",
            "label": "denominator",
            "offset": 0,
            "slot": "1",
            "type": "t_uint256"
          }
        ],
        "numberOfBytes": "64"
      },
      "t_struct(RoleData)1618_storage": {
        "encoding": "inplace",
        "label": "struct AccessControlUpgradeable.RoleData",
        "members": [
          {
            "astId": 1615,
            "contract": "src/contracts/krAsset/KreskoAsset.sol:KreskoAsset",
            "label": "members",
            "offset": 0,
            "slot": "0",
            "type": "t_mapping(t_address,t_bool)"
          },
          {
            "astId": 1617,
            "contract": "src/contracts/krAsset/KreskoAsset.sol:KreskoAsset",
            "label": "adminRole",
            "offset": 0,
            "slot": "1",
            "type": "t_bytes32"
          }
        ],
        "numberOfBytes": "64"
      },
      "t_struct(Set)3605_storage": {
        "encoding": "inplace",
        "label": "struct EnumerableSetUpgradeable.Set",
        "members": [
          {
            "astId": 3600,
            "contract": "src/contracts/krAsset/KreskoAsset.sol:KreskoAsset",
            "label": "_values",
            "offset": 0,
            "slot": "0",
            "type": "t_array(t_bytes32)dyn_storage"
          },
          {
            "astId": 3604,
            "contract": "src/contracts/krAsset/KreskoAsset.sol:KreskoAsset",
            "label": "_indexes",
            "offset": 0,
            "slot": "1",
            "type": "t_mapping(t_bytes32,t_uint256)"
          }
        ],
        "numberOfBytes": "64"
      },
      "t_uint256": {
        "encoding": "inplace",
        "label": "uint256",
        "numberOfBytes": "32"
      },
      "t_uint8": {
        "encoding": "inplace",
        "label": "uint8",
        "numberOfBytes": "1"
      }
    }
  }
}