{
  "address": "0x47DE2c2371806f6Ca46De1758817C73a25D1EDAb",
  "abi": [
    {
      "anonymous": false,
      "inputs": [
        {
          "indexed": false,
          "internalType": "bytes32",
          "name": "_hashedPayload",
          "type": "bytes32"
        }
      ],
      "name": "CreditCleared",
      "type": "event"
    },
    {
      "anonymous": false,
      "inputs": [
        {
          "indexed": false,
          "internalType": "bytes32",
          "name": "_hashedPayload",
          "type": "bytes32"
        },
        {
          "indexed": false,
          "internalType": "bytes",
          "name": "_payload",
          "type": "bytes"
        }
      ],
      "name": "CreditStored",
      "type": "event"
    },
    {
      "anonymous": false,
      "inputs": [
        {
          "indexed": true,
          "internalType": "uint16",
          "name": "_srcChainId",
          "type": "uint16"
        },
        {
          "indexed": true,
          "internalType": "bytes",
          "name": "_srcAddress",
          "type": "bytes"
        },
        {
          "indexed": true,
          "internalType": "address",
          "name": "_toAddress",
          "type": "address"
        },
        {
          "indexed": false,
          "internalType": "uint256[]",
          "name": "_tokenIds",
          "type": "uint256[]"
        }
      ],
      "name": "ReceiveFromChain",
      "type": "event"
    },
    {
      "anonymous": false,
      "inputs": [
        {
          "indexed": true,
          "internalType": "uint16",
          "name": "_dstChainId",
          "type": "uint16"
        },
        {
          "indexed": true,
          "internalType": "address",
          "name": "_from",
          "type": "address"
        },
        {
          "indexed": true,
          "internalType": "bytes",
          "name": "_toAddress",
          "type": "bytes"
        },
        {
          "indexed": false,
          "internalType": "uint256[]",
          "name": "_tokenIds",
          "type": "uint256[]"
        }
      ],
      "name": "SendToChain",
      "type": "event"
    },
    {
      "inputs": [
        {
          "internalType": "bytes",
          "name": "_payload",
          "type": "bytes"
        }
      ],
      "name": "clearCredits",
      "outputs": [],
      "stateMutability": "nonpayable",
      "type": "function"
    },
    {
      "inputs": [
        {
          "internalType": "uint16",
          "name": "_dstChainId",
          "type": "uint16"
        },
        {
          "internalType": "bytes",
          "name": "_toAddress",
          "type": "bytes"
        },
        {
          "internalType": "uint256[]",
          "name": "_tokenIds",
          "type": "uint256[]"
        },
        {
          "internalType": "bool",
          "name": "_useZro",
          "type": "bool"
        },
        {
          "internalType": "bytes",
          "name": "_adapterParams",
          "type": "bytes"
        }
      ],
      "name": "estimateSendBatchFee",
      "outputs": [
        {
          "internalType": "uint256",
          "name": "nativeFee",
          "type": "uint256"
        },
        {
          "internalType": "uint256",
          "name": "zroFee",
          "type": "uint256"
        }
      ],
      "stateMutability": "view",
      "type": "function"
    },
    {
      "inputs": [
        {
          "internalType": "uint16",
          "name": "_dstChainId",
          "type": "uint16"
        },
        {
          "internalType": "bytes",
          "name": "_toAddress",
          "type": "bytes"
        },
        {
          "internalType": "uint256",
          "name": "_tokenId",
          "type": "uint256"
        },
        {
          "internalType": "bool",
          "name": "_useZro",
          "type": "bool"
        },
        {
          "internalType": "bytes",
          "name": "_adapterParams",
          "type": "bytes"
        }
      ],
      "name": "estimateSendFee",
      "outputs": [
        {
          "internalType": "uint256",
          "name": "nativeFee",
          "type": "uint256"
        },
        {
          "internalType": "uint256",
          "name": "zroFee",
          "type": "uint256"
        }
      ],
      "stateMutability": "view",
      "type": "function"
    },
    {
      "inputs": [
        {
          "internalType": "uint16",
          "name": "_srcChainId",
          "type": "uint16"
        },
        {
          "internalType": "bytes",
          "name": "_srcAddress",
          "type": "bytes"
        }
      ],
      "name": "forceResumeReceive",
      "outputs": [],
      "stateMutability": "nonpayable",
      "type": "function"
    },
    {
      "inputs": [
        {
          "internalType": "uint16",
          "name": "_version",
          "type": "uint16"
        },
        {
          "internalType": "uint16",
          "name": "_chainId",
          "type": "uint16"
        },
        {
          "internalType": "address",
          "name": "",
          "type": "address"
        },
        {
          "internalType": "uint256",
          "name": "_configType",
          "type": "uint256"
        }
      ],
      "name": "getConfig",
      "outputs": [
        {
          "internalType": "bytes",
          "name": "",
          "type": "bytes"
        }
      ],
      "stateMutability": "view",
      "type": "function"
    },
    {
      "inputs": [
        {
          "internalType": "uint16",
          "name": "_remoteChainId",
          "type": "uint16"
        }
      ],
      "name": "getTrustedRemoteAddress",
      "outputs": [
        {
          "internalType": "bytes",
          "name": "",
          "type": "bytes"
        }
      ],
      "stateMutability": "view",
      "type": "function"
    },
    {
      "inputs": [
        {
          "internalType": "uint16",
          "name": "_srcChainId",
          "type": "uint16"
        },
        {
          "internalType": "bytes",
          "name": "_srcAddress",
          "type": "bytes"
        }
      ],
      "name": "isTrustedRemote",
      "outputs": [
        {
          "internalType": "bool",
          "name": "",
          "type": "bool"
        }
      ],
      "stateMutability": "view",
      "type": "function"
    },
    {
      "inputs": [
        {
          "internalType": "uint16",
          "name": "_srcChainId",
          "type": "uint16"
        },
        {
          "internalType": "bytes",
          "name": "_srcAddress",
          "type": "bytes"
        },
        {
          "internalType": "uint64",
          "name": "_nonce",
          "type": "uint64"
        },
        {
          "internalType": "bytes",
          "name": "_payload",
          "type": "bytes"
        }
      ],
      "name": "lzReceive",
      "outputs": [],
      "stateMutability": "nonpayable",
      "type": "function"
    },
    {
      "inputs": [
        {
          "internalType": "uint16",
          "name": "_srcChainId",
          "type": "uint16"
        },
        {
          "internalType": "bytes",
          "name": "_srcAddress",
          "type": "bytes"
        },
        {
          "internalType": "uint64",
          "name": "_nonce",
          "type": "uint64"
        },
        {
          "internalType": "bytes",
          "name": "_payload",
          "type": "bytes"
        }
      ],
      "name": "nonblockingLzReceive",
      "outputs": [],
      "stateMutability": "nonpayable",
      "type": "function"
    },
    {
      "inputs": [
        {
          "internalType": "uint16",
          "name": "_srcChainId",
          "type": "uint16"
        },
        {
          "internalType": "bytes",
          "name": "_srcAddress",
          "type": "bytes"
        },
        {
          "internalType": "uint64",
          "name": "_nonce",
          "type": "uint64"
        },
        {
          "internalType": "bytes",
          "name": "_payload",
          "type": "bytes"
        }
      ],
      "name": "retryMessage",
      "outputs": [],
      "stateMutability": "payable",
      "type": "function"
    },
    {
      "inputs": [
        {
          "internalType": "address",
          "name": "_from",
          "type": "address"
        },
        {
          "internalType": "uint16",
          "name": "_dstChainId",
          "type": "uint16"
        },
        {
          "internalType": "bytes",
          "name": "_toAddress",
          "type": "bytes"
        },
        {
          "internalType": "uint256[]",
          "name": "_tokenIds",
          "type": "uint256[]"
        },
        {
          "internalType": "address payable",
          "name": "_refundAddress",
          "type": "address"
        },
        {
          "internalType": "address",
          "name": "_zroPaymentAddress",
          "type": "address"
        },
        {
          "internalType": "bytes",
          "name": "_adapterParams",
          "type": "bytes"
        }
      ],
      "name": "sendBatchFrom",
      "outputs": [],
      "stateMutability": "payable",
      "type": "function"
    },
    {
      "inputs": [
        {
          "internalType": "address",
          "name": "_from",
          "type": "address"
        },
        {
          "internalType": "uint16",
          "name": "_dstChainId",
          "type": "uint16"
        },
        {
          "internalType": "bytes",
          "name": "_toAddress",
          "type": "bytes"
        },
        {
          "internalType": "uint256",
          "name": "_tokenId",
          "type": "uint256"
        },
        {
          "internalType": "address payable",
          "name": "_refundAddress",
          "type": "address"
        },
        {
          "internalType": "address",
          "name": "_zroPaymentAddress",
          "type": "address"
        },
        {
          "internalType": "bytes",
          "name": "_adapterParams",
          "type": "bytes"
        }
      ],
      "name": "sendFrom",
      "outputs": [],
      "stateMutability": "payable",
      "type": "function"
    },
    {
      "inputs": [
        {
          "internalType": "uint16",
          "name": "_version",
          "type": "uint16"
        },
        {
          "internalType": "uint16",
          "name": "_chainId",
          "type": "uint16"
        },
        {
          "internalType": "uint256",
          "name": "_configType",
          "type": "uint256"
        },
        {
          "internalType": "bytes",
          "name": "_config",
          "type": "bytes"
        }
      ],
      "name": "setConfig",
      "outputs": [],
      "stateMutability": "nonpayable",
      "type": "function"
    },
    {
      "inputs": [
        {
          "internalType": "uint16",
          "name": "_dstChainId",
          "type": "uint16"
        },
        {
          "internalType": "uint256",
          "name": "_dstChainIdToBatchLimit",
          "type": "uint256"
        }
      ],
      "name": "setDstChainIdToBatchLimit",
      "outputs": [],
      "stateMutability": "nonpayable",
      "type": "function"
    },
    {
      "inputs": [
        {
          "internalType": "uint16",
          "name": "_dstChainId",
          "type": "uint16"
        },
        {
          "internalType": "uint256",
          "name": "_dstChainIdToTransferGas",
          "type": "uint256"
        }
      ],
      "name": "setDstChainIdToTransferGas",
      "outputs": [],
      "stateMutability": "nonpayable",
      "type": "function"
    },
    {
      "inputs": [
        {
          "internalType": "bytes4[]",
          "name": "interfaceIds",
          "type": "bytes4[]"
        },
        {
          "internalType": "bytes4[]",
          "name": "interfaceIdsToRemove",
          "type": "bytes4[]"
        }
      ],
      "name": "setERC165",
      "outputs": [],
      "stateMutability": "nonpayable",
      "type": "function"
    },
    {
      "inputs": [
        {
          "internalType": "uint16",
          "name": "_dstChainId",
          "type": "uint16"
        },
        {
          "internalType": "uint16",
          "name": "_packetType",
          "type": "uint16"
        },
        {
          "internalType": "uint256",
          "name": "_minGas",
          "type": "uint256"
        }
      ],
      "name": "setMinDstGas",
      "outputs": [],
      "stateMutability": "nonpayable",
      "type": "function"
    },
    {
      "inputs": [
        {
          "internalType": "uint256",
          "name": "_minGasToTransferAndStore",
          "type": "uint256"
        }
      ],
      "name": "setMinGasToTransferAndStore",
      "outputs": [],
      "stateMutability": "nonpayable",
      "type": "function"
    },
    {
      "inputs": [
        {
          "internalType": "uint16",
          "name": "_dstChainId",
          "type": "uint16"
        },
        {
          "internalType": "uint256",
          "name": "_size",
          "type": "uint256"
        }
      ],
      "name": "setPayloadSizeLimit",
      "outputs": [],
      "stateMutability": "nonpayable",
      "type": "function"
    },
    {
      "inputs": [
        {
          "internalType": "address",
          "name": "_precrime",
          "type": "address"
        }
      ],
      "name": "setPrecrime",
      "outputs": [],
      "stateMutability": "nonpayable",
      "type": "function"
    },
    {
      "inputs": [
        {
          "internalType": "uint16",
          "name": "_version",
          "type": "uint16"
        }
      ],
      "name": "setReceiveVersion",
      "outputs": [],
      "stateMutability": "nonpayable",
      "type": "function"
    },
    {
      "inputs": [
        {
          "internalType": "uint16",
          "name": "_version",
          "type": "uint16"
        }
      ],
      "name": "setSendVersion",
      "outputs": [],
      "stateMutability": "nonpayable",
      "type": "function"
    },
    {
      "inputs": [
        {
          "internalType": "uint16",
          "name": "_srcChainId",
          "type": "uint16"
        },
        {
          "internalType": "bytes",
          "name": "_path",
          "type": "bytes"
        }
      ],
      "name": "setTrustedRemote",
      "outputs": [],
      "stateMutability": "nonpayable",
      "type": "function"
    },
    {
      "inputs": [
        {
          "internalType": "uint16",
          "name": "_remoteChainId",
          "type": "uint16"
        },
        {
          "internalType": "bytes",
          "name": "_remoteAddress",
          "type": "bytes"
        }
      ],
      "name": "setTrustedRemoteAddress",
      "outputs": [],
      "stateMutability": "nonpayable",
      "type": "function"
    },
    {
      "inputs": [
        {
          "internalType": "uint256",
          "name": "_minGasToTransfer",
          "type": "uint256"
        },
        {
          "internalType": "contract ILayerZeroEndpointUpgradeable",
          "name": "_lzEndpoint",
          "type": "address"
        }
      ],
      "name": "setupLayerZero",
      "outputs": [],
      "stateMutability": "nonpayable",
      "type": "function"
    },
    {
      "inputs": [
        {
          "internalType": "bytes4",
          "name": "interfaceId",
          "type": "bytes4"
        }
      ],
      "name": "supportsInterface",
      "outputs": [
        {
          "internalType": "bool",
          "name": "",
          "type": "bool"
        }
      ],
      "stateMutability": "view",
      "type": "function"
    }
  ],
  "transactionHash": "0x42d557f3613a7dea8a54c1c4b24d42b44d47500c723ef18aeee0bccfaeaf0c06",
  "args": [],
  "numDeployments": 1,
  "solcInputHash": "da64b2514f06331329702e90140ebd5b",
  "bytecode": "0x6080806040523461001657614530908161001c8239f35b600080fdfe6080604052600436101561001257600080fd5b60003560e01c80621d3567146101b657806301ffc9a7146101b157806307e0db17146101ac5780630b4cad4c146101a75780630df37483146101a257806310ddb1371461019d57806328314fe5146101985780632a205e3d146101935780632a8480911461018e5780633d8b38f61461018957806342d65a8d14610184578063519056361461017f57806366ad5c8a1461017a5780638ffa1f2a146101755780639ea5d6b1146101705780639f38369a1461016b578063a6c3d16514610166578063ab3ffb9314610161578063baf3292d1461015c578063cbed8b9c14610157578063d12473a514610152578063d1deba1f1461014d578063df2a5b3b14610148578063eb8d72b714610143578063f23536411461013e5763f5ecbdbc1461013957600080fd5b61218e565b6120f3565b611f9b565b611e58565b611ce7565b611c60565b611b1a565b611a27565b61192b565b61173f565b611638565b611532565b611314565b6110e3565b610ff3565b610f24565b610e28565b610c71565b610b9e565b6108b8565b6107b4565b610739565b610680565b61057c565b6103f8565b610296565b6004359061ffff821682036101cc57565b600080fd5b6024359061ffff821682036101cc57565b9181601f840112156101cc5782359167ffffffffffffffff83116101cc57602083818601950101116101cc57565b9060807ffffffffffffffffffffffffffffffffffffffffffffffffffffffffffffffffc8301126101cc5760043561ffff811681036101cc579167ffffffffffffffff906024358281116101cc578161026b916004016101e2565b9390939260443581811681036101cc57926064359182116101cc57610292916004016101e2565b9091565b346101cc576102a436610210565b91929493906102b1612327565b7fb0ef2b4863b634f72cc1ab80fbd4ca19f5ac7f001fa644ad4b04f5ce5cfa49035473ffffffffffffffffffffffffffffffffffffffff90811691160361036f5761033261033a926103409761032b61031161030c8a6124c6565b6125ba565b8051908184149182610365575b5081610342575b50612932565b3691610b3a565b923691610b3a565b92612a34565b005b905061034f368486610b3a565b6020815191012090602081519101201438610325565b151591503861031e565b6040517f08c379a000000000000000000000000000000000000000000000000000000000815260206004820152601e60248201527f4c7a4170703a20696e76616c696420656e64706f696e742063616c6c657200006044820152606490fd5b7fffffffff000000000000000000000000000000000000000000000000000000008116036101cc57565b346101cc576020367ffffffffffffffffffffffffffffffffffffffffffffffffffffffffffffffffc01126101cc57610496600435610436816103ce565b7fffffffff0000000000000000000000000000000000000000000000000000000081811690811415919082610552575b8215610528575b821561051f575b82156104f5575b50811561049a575b5060405190151581529081906020820190565b0390f35b7fffffffff000000000000000000000000000000000000000000000000000000001660009081527f080f9836d135d84bdc1ee0b4214e5f2ae76516c41178c6f14a73685c9c3e5f0c6020526040902060ff9150541638610483565b7f22bac5d9000000000000000000000000000000000000000000000000000000001491503861047b565b80159250610474565b7f5b5e139f000000000000000000000000000000000000000000000000000000008114925061046d565b7f80ac58cd0000000000000000000000000000000000000000000000000000000081149250610466565b346101cc5760006020367ffffffffffffffffffffffffffffffffffffffffffffffffffffffffffffffffc011261067d576105b56101bb565b816105be612327565b7f080f9836d135d84bdc1ee0b4214e5f2ae76516c41178c6f14a73685c9c3e5f0f5473ffffffffffffffffffffffffffffffffffffffff9161060e918316908316146106086122a4565b906122dd565b7fb0ef2b4863b634f72cc1ab80fbd4ca19f5ac7f001fa644ad4b04f5ce5cfa4903541691823b1561067957602461ffff918360405195869485936307e0db1760e01b85521660048401525af1801561067457610668575080f35b61067190610a6d565b80f35b6123e2565b5080fd5b80fd5b346101cc576020367ffffffffffffffffffffffffffffffffffffffffffffffffffffffffffffffffc01126101cc576004356107026106bd612327565b7f080f9836d135d84bdc1ee0b4214e5f2ae76516c41178c6f14a73685c9c3e5f0f5473ffffffffffffffffffffffffffffffffffffffff9182169116146106086122a4565b61071561070d6126f3565b8215156122dd565b7fb0ef2b4863b634f72cc1ab80fbd4ca19f5ac7f001fa644ad4b04f5ce5cfa48fe55005b346101cc576040367ffffffffffffffffffffffffffffffffffffffffffffffffffffffffffffffffc01126101cc5761ffff6107736101bb565b61077e6106bd612327565b166000527fb0ef2b4863b634f72cc1ab80fbd4ca19f5ac7f001fa644ad4b04f5ce5cfa4906602052602435604060002055600080f35b346101cc5760006020367ffffffffffffffffffffffffffffffffffffffffffffffffffffffffffffffffc011261067d576107ed6101bb565b816107f6612327565b7f080f9836d135d84bdc1ee0b4214e5f2ae76516c41178c6f14a73685c9c3e5f0f5473ffffffffffffffffffffffffffffffffffffffff91610840918316908316146106086122a4565b7fb0ef2b4863b634f72cc1ab80fbd4ca19f5ac7f001fa644ad4b04f5ce5cfa4903541691823b1561067957602461ffff918360405195869485936310ddb13760e01b85521660048401525af1801561067457610668575080f35b73ffffffffffffffffffffffffffffffffffffffff8116036101cc57565b346101cc576040367ffffffffffffffffffffffffffffffffffffffffffffffffffffffffffffffffc01126101cc576103406024356109f26004356108fc8361089a565b610904612327565b7f080f9836d135d84bdc1ee0b4214e5f2ae76516c41178c6f14a73685c9c3e5f0f5473ffffffffffffffffffffffffffffffffffffffff929161094f918416908416146106086122a4565b61099060405161095e81610a86565b600181527f320000000000000000000000000000000000000000000000000000000000000060208201528215156122dd565b7fb0ef2b4863b634f72cc1ab80fbd4ca19f5ac7f001fa644ad4b04f5ce5cfa48fe55604051906109bf82610a86565b600182527f39000000000000000000000000000000000000000000000000000000000000006020830152831615156122dd565b7fb0ef2b4863b634f72cc1ab80fbd4ca19f5ac7f001fa644ad4b04f5ce5cfa490380547fffffffffffffffffffffffff00000000000000000000000000000000000000001673ffffffffffffffffffffffffffffffffffffffff909216919091179055565b634e487b7160e01b600052604160045260246000fd5b67ffffffffffffffff8111610a8157604052565b610a57565b6040810190811067ffffffffffffffff821117610a8157604052565b6020810190811067ffffffffffffffff821117610a8157604052565b90601f8019910116810190811067ffffffffffffffff821117610a8157604052565b604051906080820182811067ffffffffffffffff821117610a8157604052565b67ffffffffffffffff8111610a8157601f017fffffffffffffffffffffffffffffffffffffffffffffffffffffffffffffffe01660200190565b929192610b4682610b00565b91610b546040519384610abe565b8294818452818301116101cc578281602093846000960137010152565b9080601f830112156101cc57816020610b8c93359101610b3a565b90565b6064359081151582036101cc57565b346101cc5760a0367ffffffffffffffffffffffffffffffffffffffffffffffffffffffffffffffffc01126101cc57610bd56101bb565b67ffffffffffffffff906024358281116101cc57610bf7903690600401610b71565b90610c00610b8f565b906084359384116101cc57610c1c610c2e943690600401610b71565b92610c2860443561290d565b91612e6a565b60408051928352602083019190915290f35b9181601f840112156101cc5782359167ffffffffffffffff83116101cc576020808501948460051b0101116101cc57565b346101cc576040367ffffffffffffffffffffffffffffffffffffffffffffffffffffffffffffffffc01126101cc5767ffffffffffffffff6004358181116101cc57610cc1903690600401610c40565b916024359081116101cc57610cda903690600401610c40565b919092610ce86106bd612327565b60005b818110610d8a5750505060005b818110610d0157005b80610d80610d58610d16610d85948688612496565b35610d20816103ce565b63ffffffff60e01b166000527f080f9836d135d84bdc1ee0b4214e5f2ae76516c41178c6f14a73685c9c3e5f0c602052604060002090565b80547fffffffffffffffffffffffffffffffffffffffffffffffffffffffffffffff00169055565b61244e565b610cf8565b80610d9c610d16610dca938587612496565b80547fffffffffffffffffffffffffffffffffffffffffffffffffffffffffffffff0016600117905561244e565b610ceb565b9060407ffffffffffffffffffffffffffffffffffffffffffffffffffffffffffffffffc8301126101cc5760043561ffff811681036101cc57916024359067ffffffffffffffff82116101cc57610292916004016101e2565b346101cc57610e42610e3936610dcf565b919290926124c6565b60405181549391906000610e558661252c565b80835260209687840194600191828116908115610ee65750600114610ead575b610496888a610e978a8a8a610e8c818c0382610abe565b519020933691610b3a565b8051910120604051911481529081906020820190565b60009081528881209093505b828410610ed3575050508101850181610e8c610496610e75565b80548585018a0152928801928101610eb9565b7fffffffffffffffffffffffffffffffffffffffffffffffffffffffffffffff00168752505050151560051b82018601905081610e8c610496610e75565b346101cc57610f90610f3536610dcf565b610f3d612327565b917f080f9836d135d84bdc1ee0b4214e5f2ae76516c41178c6f14a73685c9c3e5f0f546000958694610f6d6122a4565b73ffffffffffffffffffffffffffffffffffffffff9390918416908416146122dd565b7fb0ef2b4863b634f72cc1ab80fbd4ca19f5ac7f001fa644ad4b04f5ce5cfa4903541690813b15610fef5783610fdd95604051968795869485936342d65a8d60e01b8552600485016124ab565b03925af1801561067457610668575080f35b8380fd5b60e0367ffffffffffffffffffffffffffffffffffffffffffffffffffffffffffffffffc01126101cc576004356110298161089a565b6110316101d1565b67ffffffffffffffff916044358381116101cc57611053903690600401610b71565b90608435906110618261089a565b60a4359261106e8461089a565b60c4359586116101cc57611089610340963690600401610b71565b7f080f9836d135d84bdc1ee0b4214e5f2ae76516c41178c6f14a73685c9c3e5f0f549095906110d29073ffffffffffffffffffffffffffffffffffffffff85811691161461272c565b6110dd60643561290d565b926130a8565b346101cc576110f136610210565b93929091506110fe612327565b73ffffffffffffffffffffffffffffffffffffffff9190309083160361128f5761115c7f5b821db8a46f8ecbe1941ba2f51cfeea9643268b56631f70d45e2a745d99026593611154601496611190943691610b3a565b963691610b3a565b94855161117160208089019289010182612829565b9601519661117f8789613d63565b875181106111ac575b505050613077565b936111a761ffff6040519384931697169482613097565b0390a4005b6112757f10e0b70d256bccc84b7027506978bd8b68984a870788b93b479def144c839ad79383519020916111de610ae0565b61ffff8d1681529073ffffffffffffffffffffffffffffffffffffffff8c1660208301525b60408201526001606082015261121883612792565b600260609161ffff8451168154908061ffff19831617835562010000600160b01b03602087015160101b169169ffffffffffffffffffff60b01b16171781556040840151600182015501910151151560ff80198354169116179055565b61128460405192839283613a60565b0390a1388080611188565b6040517f08c379a000000000000000000000000000000000000000000000000000000000815260206004820152602660248201527f4e6f6e626c6f636b696e674c7a4170703a2063616c6c6572206d75737420626560448201527f204c7a41707000000000000000000000000000000000000000000000000000006064820152608490fd5b346101cc576020367ffffffffffffffffffffffffffffffffffffffffffffffffffffffffffffffffc01126101cc5760043567ffffffffffffffff81116101cc57611363903690600401610b71565b7f080f9836d135d84bdc1ee0b4214e5f2ae76516c41178c6f14a73685c9c3e5f0f546113c4906113bd9073ffffffffffffffffffffffffffffffffffffffff165b73ffffffffffffffffffffffffffffffffffffffff1690565b331461272c565b6113fd81516020808401918220936113f36113eb60026113e388612792565b015460ff1690565b6106086127f0565b8051010190612829565b905061140882612792565b506114498161143661141985612792565b5460101c73ffffffffffffffffffffffffffffffffffffffff1690565b600161144186612792565b015490613f15565b90611464600161145885612792565b015483116106086128c0565b5181036114c457506114bf816114af61149d7fd7be02b8dd0d27bd0517a9cb4d7469ce27df4313821ae5ec1ff69acc594ba23394612792565b60026000918281558260018201550155565b6040519081529081906020820190565b0390a1005b611218826114df6114d761034095612792565b5461ffff1690565b926115216114ef61141984612792565b6115046114fa610ae0565b61ffff9097168752565b73ffffffffffffffffffffffffffffffffffffffff166020860152565b604084015260016060840152612792565b346101cc576040367ffffffffffffffffffffffffffffffffffffffffffffffffffffffffffffffffc01126101cc576115696101bb565b61ffff6024359161157b6106bd612327565b61158e6115866126f3565b8415156122dd565b166000527fb0ef2b4863b634f72cc1ab80fbd4ca19f5ac7f001fa644ad4b04f5ce5cfa48ff602052604060002055600080f35b60005b8381106115d45750506000910152565b81810151838201526020016115c4565b906020916115fd815180928185528580860191016115c1565b601f017fffffffffffffffffffffffffffffffffffffffffffffffffffffffffffffffe016010190565b906020610b8c9281815201906115e4565b346101cc576020806003193601126101cc5761165a6116556101bb565b6124c6565b9060405190600092805461166d8161252c565b808552916001918083169081156116ff57506001146116c2575b6104966116b68661169a818a0382610abe565b6116a681511515612660565b6116b081516126c6565b90612cff565b60405191829182611627565b6000908152838120939550925b8284106116ec575050508101909101908061169a81610496611687565b80548585018701529285019281016116cf565b7fffffffffffffffffffffffffffffffffffffffffffffffffffffffffffffff001685870152505050151560051b82010191508061169a81610496611687565b346101cc5761174d36610dcf565b916117596106bd612327565b6040516020908484838301376117846034828781013060601b86820152036014810184520182610abe565b61178d836124c6565b9181519167ffffffffffffffff8311610a81576117b4836117ae865461252c565b86612566565b81601f841160011461181f575091806114bf94927f8c0400cfe2d1199b1a725c78960bcc2a344d869b80590d0f2bd005db15a572ce9894600092611814575b50508160011b916000199060031b1c19161790555b604051938493846124ab565b0151905038806117f3565b9190601f19841661183586600052602060002090565b936000905b82821061189d5750509260019285927f8c0400cfe2d1199b1a725c78960bcc2a344d869b80590d0f2bd005db15a572ce9a966114bf989610611884575b505050811b019055611808565b015160001960f88460031b161c19169055388080611877565b8060018697829497870151815501960194019061183a565b67ffffffffffffffff8111610a815760051b60200190565b81601f820112156101cc578035916118e4836118b5565b926118f26040519485610abe565b808452602092838086019260051b8201019283116101cc578301905b82821061191c575050505090565b8135815290830190830161190e565b60e0367ffffffffffffffffffffffffffffffffffffffffffffffffffffffffffffffffc01126101cc576004356119618161089a565b6119696101d1565b67ffffffffffffffff91906044358381116101cc5761198c903690600401610b71565b6064358481116101cc576119a49036906004016118cd565b608435916119b18361089a565b60a435936119be8561089a565b60c4359687116101cc576119d9610340973690600401610b71565b7f080f9836d135d84bdc1ee0b4214e5f2ae76516c41178c6f14a73685c9c3e5f0f54909690611a229073ffffffffffffffffffffffffffffffffffffffff80841691161461272c565b6130a8565b346101cc576020367ffffffffffffffffffffffffffffffffffffffffffffffffffffffffffffffffc01126101cc577f5db758e995a17ec1ad84bdef7e8c3293a0bd6179bcce400dff5d4c3d87db726b6020600435611a858161089a565b611a8d612327565b7f080f9836d135d84bdc1ee0b4214e5f2ae76516c41178c6f14a73685c9c3e5f0f5473ffffffffffffffffffffffffffffffffffffffff9291611ad8918416908416146106086122a4565b167fb0ef2b4863b634f72cc1ab80fbd4ca19f5ac7f001fa644ad4b04f5ce5cfa4907816bffffffffffffffffffffffff60a01b825416179055604051908152a1005b346101cc576080367ffffffffffffffffffffffffffffffffffffffffffffffffffffffffffffffffc01126101cc57611b516101bb565b611b596101d1565b60643567ffffffffffffffff81116101cc57611b799036906004016101e2565b9092611b83612327565b7f080f9836d135d84bdc1ee0b4214e5f2ae76516c41178c6f14a73685c9c3e5f0f5473ffffffffffffffffffffffffffffffffffffffff91611bcd918316908316146106086122a4565b7fb0ef2b4863b634f72cc1ab80fbd4ca19f5ac7f001fa644ad4b04f5ce5cfa4903541690813b156101cc5760008094611c3d604051978896879586946332fb62e760e21b865261ffff809216600487015216602485015260443560448501526080606485015260848401916123f9565b03925af1801561067457611c4d57005b80611c5a61034092610a6d565b806123ee565b346101cc576040367ffffffffffffffffffffffffffffffffffffffffffffffffffffffffffffffffc01126101cc57611c976101bb565b61ffff60243591611ca96106bd612327565b611cb46115866126f3565b166000527fb0ef2b4863b634f72cc1ab80fbd4ca19f5ac7f001fa644ad4b04f5ce5cfa4900602052604060002055600080f35b611cf036610210565b91611d2f81611d01889694986124f9565b60206040518092878b8337878201908152030190209067ffffffffffffffff16600052602052604060002090565b54918215611dd357611dc784611dc07fc264d91f3adc5588250e1551f547752ca0cfa8f6b530d243b9f9f4cab10ea8e5996000611db487611d9b8d89611d958f6114bf9f8f611d83611d909236908d610b3a565b6020815191012014612b61565b6124f9565b91612b48565b9067ffffffffffffffff16600052602052604060002090565b5561033236868c610b3a565b9087613a77565b60405195869586612bed565b6040517f08c379a000000000000000000000000000000000000000000000000000000000815260206004820152602360248201527f4e6f6e626c6f636b696e674c7a4170703a206e6f2073746f726564206d65737360448201527f61676500000000000000000000000000000000000000000000000000000000006064820152608490fd5b346101cc576060367ffffffffffffffffffffffffffffffffffffffffffffffffffffffffffffffffc01126101cc57611e8f6101bb565b611e976101d1565b9060443591611ea76106bd612327565b8215611f3c5782827f9d5c7c0b934da8fefa9c7760c98383778a12dfbfc0c3b3106518f43fb9508ac094611f2184611f0e60609761ffff166000527fb0ef2b4863b634f72cc1ab80fbd4ca19f5ac7f001fa644ad4b04f5ce5cfa4905602052604060002090565b9061ffff16600052602052604060002090565b556040519261ffff80921684521660208301526040820152a1005b6040517f08c379a000000000000000000000000000000000000000000000000000000000815260206004820152601560248201527f4c7a4170703a20696e76616c6964206d696e47617300000000000000000000006044820152606490fd5b346101cc57611fa936610dcf565b91611fb56106bd612327565b611fbe816124c6565b9267ffffffffffffffff8111610a8157611fdc816117ae865461252c565b600093601f821160011461204457906114bf91817ffa41487ad5d6728f0b19276fa1eddc16558578f5109fc39d2dc33c3230470dab96600091612039575b508260011b906000198460031b1c1916179055604051938493846124ab565b90508501353861201a565b601f1982169461205982600052602060002090565b95815b8181106120db5750958392916114bf947ffa41487ad5d6728f0b19276fa1eddc16558578f5109fc39d2dc33c3230470dab98106120a3575b5050600182811b019055611808565b8601357fffffffffffffffffffffffffffffffffffffffffffffffffffffffffffffffff600385901b60f8161c191690553880612094565b8683013588556001909701966020928301920161205c565b346101cc5760a0367ffffffffffffffffffffffffffffffffffffffffffffffffffffffffffffffffc01126101cc5761212a6101bb565b67ffffffffffffffff906024358281116101cc5761214c903690600401610b71565b6044358381116101cc576121649036906004016118cd565b61216c610b8f565b916084359485116101cc57612188610c2e953690600401610b71565b93612e6a565b346101cc576080367ffffffffffffffffffffffffffffffffffffffffffffffffffffffffffffffffc01126101cc576121c56101bb565b60006121cf6101d1565b916121db60443561089a565b7fb0ef2b4863b634f72cc1ab80fbd4ca19f5ac7f001fa644ad4b04f5ce5cfa4903546040517ff5ecbdbc00000000000000000000000000000000000000000000000000000000815261ffff928316600482015293909116602484015230604484015260648035908401528290608490829073ffffffffffffffffffffffffffffffffffffffff165afa80156106745761049691600091612283575b5060405191829182611627565b61229e913d8091833e6122968183610abe565b8101906123bc565b38612276565b604051906122b182610a86565b602082527f6b724469616d6f6e643a204d757374206265206469616d6f6e64206f776e65726020830152565b156122e55750565b6040517f08c379a0000000000000000000000000000000000000000000000000000000008152602060048201529081906123239060248301906115e4565b0390fd5b3330036123765761233736610b00565b6123446040519182610abe565b3681523660006020830137600060203692909201918201525173ffffffffffffffffffffffffffffffffffffffff1690565b3390565b81601f820112156101cc57805161239081610b00565b9261239e6040519485610abe565b818452602082840101116101cc57610b8c91602080850191016115c1565b906020828203126101cc57815167ffffffffffffffff81116101cc57610b8c920161237a565b6040513d6000823e3d90fd5b60009103126101cc57565b908060209392818452848401376000828201840152601f017fffffffffffffffffffffffffffffffffffffffffffffffffffffffffffffffe016010190565b634e487b7160e01b600052601160045260246000fd5b7fffffffffffffffffffffffffffffffffffffffffffffffffffffffffffffffff811461247b5760010190565b612438565b634e487b7160e01b600052603260045260246000fd5b91908110156124a65760051b0190565b612480565b60409061ffff610b8c959316815281602082015201916123f9565b61ffff166000527fb0ef2b4863b634f72cc1ab80fbd4ca19f5ac7f001fa644ad4b04f5ce5cfa4904602052604060002090565b61ffff166000527fb0ef2b4863b634f72cc1ab80fbd4ca19f5ac7f001fa644ad4b04f5ce5cfa4902602052604060002090565b90600182811c9216801561255c575b602083101461254657565b634e487b7160e01b600052602260045260246000fd5b91607f169161253b565b90601f811161257457505050565b600091825260208220906020601f850160051c830194106125b0575b601f0160051c01915b8281106125a557505050565b818155600101612599565b9092508290612590565b90604051918260008254926125ce8461252c565b90818452600194858116908160001461263d57506001146125fa575b50506125f892500383610abe565b565b9093915060005260209081600020936000915b8183106126255750506125f8935082010138806125ea565b8554888401850152948501948794509183019161260d565b9150506125f894506020925060ff191682840152151560051b82010138806125ea565b1561266757565b6040517f08c379a000000000000000000000000000000000000000000000000000000000815260206004820152601d60248201527f4c7a4170703a206e6f20747275737465642070617468207265636f72640000006044820152606490fd5b7fffffffffffffffffffffffffffffffffffffffffffffffffffffffffffffffec81019190821161247b57565b6040519061270082610a86565b600182527f36000000000000000000000000000000000000000000000000000000000000006020830152565b1561273357565b6040517f08c379a000000000000000000000000000000000000000000000000000000000815260206004820152601160248201527f6e6f7420737570706f72746564207965740000000000000000000000000000006044820152606490fd5b6000527fb0ef2b4863b634f72cc1ab80fbd4ca19f5ac7f001fa644ad4b04f5ce5cfa4901602052604060002090565b6000527fa69d290a9fc968e5d4570d812390b00825a2addd4f76316b7e43122b804de8d6602052604060002090565b604051906127fd82610a86565b600182527f34000000000000000000000000000000000000000000000000000000000000006020830152565b91906040838203126101cc5782519267ffffffffffffffff938481116101cc578261285591830161237a565b93602091828101519182116101cc57019180601f840112156101cc57825161287c816118b5565b9361288a6040519586610abe565b818552838086019260051b8201019283116101cc578301905b8282106128b1575050505090565b815181529083019083016128a3565b604051906128cd82610a86565b600182527f35000000000000000000000000000000000000000000000000000000000000006020830152565b80518210156124a65760209160051b010190565b6040519061291a82610a86565b600182526020820160203682378251156124a6575290565b1561293957565b6040517f08c379a000000000000000000000000000000000000000000000000000000000815260206004820152602660248201527f4c7a4170703a20696e76616c696420736f757263652073656e64696e6720636f60448201527f6e747261637400000000000000000000000000000000000000000000000000006064820152608490fd5b6020906129d89282604051948386809551938492016115c1565b82019081520301902090565b9367ffffffffffffffff612a12612a269461ffff610b8c99979516885260a0602089015260a08801906115e4565b9216604086015284820360608601526115e4565b9160808184039101526115e4565b9091612add5a6040517f66ad5c8a00000000000000000000000000000000000000000000000000000000602082015261ffff851660248201526080604482015290612ad782612ac9612a8960a483018a6115e4565b67ffffffffffffffff881660648401528281037fffffffffffffffffffffffffffffffffffffffffffffffffffffffffffffffdc0160848401528a6115e4565b03601f198101845283610abe565b30612d9d565b9015612aeb575b5050505050565b84612b3b927fe183f33de2837795525b4792ca4cd60535bd77c53b7e7030060bfcf5734d6b0c96516020830120612b2e82611d9b612b28896124f9565b8a6129be565b55604051958695866129e4565b0390a13880808080612ae4565b6020919283604051948593843782019081520301902090565b15612b6857565b6040517f08c379a000000000000000000000000000000000000000000000000000000000815260206004820152602160248201527f4e6f6e626c6f636b696e674c7a4170703a20696e76616c6964207061796c6f6160448201527f64000000000000000000000000000000000000000000000000000000000000006064820152608490fd5b91612c1a9060609461ffff67ffffffffffffffff94999897991685526080602086015260808501916123f9565b951660408201520152565b90601f820180921161247b57565b15612c3a57565b6040517f08c379a000000000000000000000000000000000000000000000000000000000815260206004820152600e60248201527f736c6963655f6f766572666c6f770000000000000000000000000000000000006044820152606490fd5b15612ca057565b6040517f08c379a000000000000000000000000000000000000000000000000000000000815260206004820152601160248201527f736c6963655f6f75744f66426f756e64730000000000000000000000000000006044820152606490fd5b612d1382612d0c81612c25565b1015612c33565b612d208282511015612c99565b81612d38575050604051600081526020810160405290565b60405191601f811691821560051b808486010193838501920101905b808410612d8a5750508252601f017fffffffffffffffffffffffffffffffffffffffffffffffffffffffffffffffe01660405290565b9092835181526020809101930190612d54565b6040519392909160009160c086019167ffffffffffffffff831187841017610a815783926040526096875282602088019560a036883760208451940192f1903d9060968211612df2575b6000908286523e9190565b60969150612de7565b90815180825260208080930193019160005b828110612e1b575050505090565b835185529381019392810192600101612e0d565b9091612e46610b8c936040845260408401906115e4565b916020818403910152612dfb565b91908260409103126101cc576020825192015190565b61ffff90612f2e604095612e9c612ef7999895612e8e895198899260208401612e2f565b03601f198101885287610abe565b60018060a01b037fb0ef2b4863b634f72cc1ab80fbd4ca19f5ac7f001fa644ad4b04f5ce5cfa49035416948751998a978896879663040a7bb160e41b885216600487015230602487015260a0604487015260a48601906115e4565b91151560648501528382037ffffffffffffffffffffffffffffffffffffffffffffffffffffffffffffffffc0160848501526115e4565b03915afa918215610674576000908193612f4757509190565b905061029291925060403d8111612f6b575b612f638183610abe565b810190612e54565b503d612f59565b15612f7957565b6040517f08c379a000000000000000000000000000000000000000000000000000000000815260206004820152601360248201527f746f6b656e4964735b5d20697320656d707479000000000000000000000000006044820152606490fd5b15612fdf57565b6040517f08c379a000000000000000000000000000000000000000000000000000000000815260206004820152602260248201527f62617463682073697a65206578636565647320647374206261746368206c696d60448201527f69740000000000000000000000000000000000000000000000000000000000006064820152608490fd5b8181029291811591840414171561247b57565b61308f906020604051928284809451938492016115c1565b810103902090565b906020610b8c928181520190612dfb565b959094939192936130bb85511515612f72565b84516130d46001918281149081156131e8575b50612fd8565b6000815b6131bc575b50509261318661ffff9361318b937fe1b87c47fdeb4f9cbadbca9df3af7aba453bb6e501075d0440d88125b711522a9660405192613131846131238c8960208401612e2f565b03601f198101865285610abe565b61317e61317761316e8d61ffff166000527fb0ef2b4863b634f72cc1ab80fbd4ca19f5ac7f001fa644ad4b04f5ce5cfa4900602052604060002090565b548c5190613064565b848d61439e565b34938b61390e565b613077565b604051909573ffffffffffffffffffffffffffffffffffffffff16949091169281906131b79082613097565b0390a4565b86518110156131e35780610d806131d66131dd938a6128f9565b518b61329c565b816130d8565b6130dd565b90506132218961ffff166000527fb0ef2b4863b634f72cc1ab80fbd4ca19f5ac7f001fa644ad4b04f5ce5cfa48ff602052604060002090565b541015386130ce565b6040519061323782610a86565b600182527f37000000000000000000000000000000000000000000000000000000000000006020830152565b6040519061327082610a86565b600182527f38000000000000000000000000000000000000000000000000000000000000006020830152565b906132a5612327565b916132af8261348e565b73ffffffffffffffffffffffffffffffffffffffff9380851682861681149290919083156133db575b50508115613319575b506125f8936132f56133129261060861322a565b6132fe8461348e565b613306613263565b918085169116146122dd565b30906135ec565b9050613324836137d4565b1561337c576125f8936132f561331292856000527fa69d290a9fc968e5d4570d812390b00825a2addd4f76316b7e43122b804de8d8602052613372836040600020541660018060a01b031690565b14925050936132e1565b6040517f08c379a000000000000000000000000000000000000000000000000000000000815260206004820152601860248201527f4552433732313a20696e76616c696420746f6b656e20494400000000000000006044820152606490fd5b73ffffffffffffffffffffffffffffffffffffffff1660009081527fa69d290a9fc968e5d4570d812390b00825a2addd4f76316b7e43122b804de8d96020526040902091925060ff9161343e9160018060a01b0316600052602052604060002090565b54169038806132d8565b73ffffffffffffffffffffffffffffffffffffffff1660009081527fa69d290a9fc968e5d4570d812390b00825a2addd4f76316b7e43122b804de8d76020526040902090565b60009081527fa69d290a9fc968e5d4570d812390b00825a2addd4f76316b7e43122b804de8d6602052604090205473ffffffffffffffffffffffffffffffffffffffff1680156134db5790565b6040517f08c379a000000000000000000000000000000000000000000000000000000000815260206004820152602960248201527f455243373231203a61646472657373207a65726f206973206e6f74206120766160448201527f6c6964206f776e657200000000000000000000000000000000000000000000006064820152608490fd5b1561356757565b6040517f08c379a000000000000000000000000000000000000000000000000000000000815260206004820152602560248201527f4552433732313a207472616e736665722066726f6d20696e636f72726563742060448201527f6f776e65720000000000000000000000000000000000000000000000000000006064820152608490fd5b61361d906135f98461348e565b73ffffffffffffffffffffffffffffffffffffffff82811693909182168414613560565b8316928315613750576136a6613729926136438561363d6113a48a61348e565b14613560565b6136a1613679886000527fa69d290a9fc968e5d4570d812390b00825a2addd4f76316b7e43122b804de8d8602052604060002090565b80547fffffffffffffffffffffffff0000000000000000000000000000000000000000169055565b613448565b80547fffffffffffffffffffffffffffffffffffffffffffffffffffffffffffffffff0190556136d581613448565b600181540190556136e5856127c1565b80547fffffffffffffffffffffffff00000000000000000000000000000000000000001673ffffffffffffffffffffffffffffffffffffffff909216919091179055565b7fddf252ad1be2c89b69c2b068fc378daa952ba7f163c4a11628f55a4df523b3ef600080a4565b6040517f08c379a0000000000000000000000000000000000000000000000000000000008152602060048201526024808201527f4552433732313a207472616e7366657220746f20746865207a65726f2061646460448201527f72657373000000000000000000000000000000000000000000000000000000006064820152608490fd5b60009081527fa69d290a9fc968e5d4570d812390b00825a2addd4f76316b7e43122b804de8d6602052604090205473ffffffffffffffffffffffffffffffffffffffff16151590565b1561382457565b6040517f08c379a000000000000000000000000000000000000000000000000000000000815260206004820152603060248201527f4c7a4170703a2064657374696e6174696f6e20636861696e206973206e6f742060448201527f61207472757374656420736f75726365000000000000000000000000000000006064820152608490fd5b926138ce610b8c97959361ffff6138dc9416865260c0602087015260c08601906115e4565b9084820360408601526115e4565b73ffffffffffffffffffffffffffffffffffffffff91821660608401529316608082015280830360a0909101526115e4565b9092919461391b826124c6565b916040519283600082549261392f8461252c565b908184526001948581169081600014613a3d57506001146139fa575b505061395992500384610abe565b6139658351151561381d565b61397085518261446c565b7fb0ef2b4863b634f72cc1ab80fbd4ca19f5ac7f001fa644ad4b04f5ce5cfa4903546139b19073ffffffffffffffffffffffffffffffffffffffff166113a4565b93843b156101cc576000966139dc91604051998a988997889662c5803160e81b8852600488016138a9565b03925af18015610674576139ed5750565b80611c5a6125f892610a6d565b9093915060005260209081600020936000915b818310613a255750506139599350820101388061394b565b85548984018501529485019488945091830191613a0d565b91505061395994506020925060ff191682840152151560051b820101388061394b565b604090610b8c9392815281602082015201906115e4565b9092601490835192602095613a93878088019688010186612829565b9401519460005b8551811015613d2e575a7fb0ef2b4863b634f72cc1ab80fbd4ca19f5ac7f001fa644ad4b04f5ce5cfa48fe5411613c5057613ad581876128f9565b51613adf816137d4565b801580918115613c1b575b50156101cc5715613c0c57604090815191613b0483610aa2565b6000835273ffffffffffffffffffffffffffffffffffffffff8a16908115613baf5750613baa93928280613ba593613b798e613b51613b4c613b48610d809a6137d4565b1590565b6140fc565b613b60613b4c613b48866137d4565b613b6981613448565b600181540190556136e5846127c1565b60007fddf252ad1be2c89b69c2b068fc378daa952ba7f163c4a11628f55a4df523b3ef8180a48b6141d2565b6140c2565b613a9a565b517f08c379a0000000000000000000000000000000000000000000000000000000008152600481018d9052602481018d90527f4552433732313a206d696e7420746f20746865207a65726f20616464726573736044820152606490fd5b90610d80613baa9289306135ec565b905080613c29575b38613aea565b50613c338261348e565b73ffffffffffffffffffffffffffffffffffffffff163014613c23565b9083977f5b821db8a46f8ecbe1941ba2f51cfeea9643268b56631f70d45e2a745d99026595998861ffff96613c9596955b8a518110613cb0575b505050505050613077565b936131b760405192839260018060a01b031697169482613097565b611203613d11937f10e0b70d256bccc84b7027506978bd8b68984a870788b93b479def144c839ad7978751902095613cf3613ce9610ae0565b61ffff9096168652565b73ffffffffffffffffffffffffffffffffffffffff90911690840152565b613d2060405192839283613a60565b0390a1388080888a82613c8a565b9083977f5b821db8a46f8ecbe1941ba2f51cfeea9643268b56631f70d45e2a745d99026595998861ffff96613c959695613c81565b919060005b8151811015613f10575a7fb0ef2b4863b634f72cc1ab80fbd4ca19f5ac7f001fa644ad4b04f5ce5cfa48fe5411613f1057613da381836128f9565b51613dad816137d4565b801580918115613edb575b50156101cc5715613ecc57604090815191613dd283610aa2565b6000835273ffffffffffffffffffffffffffffffffffffffff8716908115613e6f5750613e6a93928280613ba593613e12613b4c613b48610d80986137d4565b613e21613b4c613b48846137d4565b613e2a8b613448565b60018154019055613e3e8b6136e5846127c1565b60007fddf252ad1be2c89b69c2b068fc378daa952ba7f163c4a11628f55a4df523b3ef8180a4886141d2565b613d68565b517f08c379a000000000000000000000000000000000000000000000000000000000815260206004820181905260248201527f4552433732313a206d696e7420746f20746865207a65726f20616464726573736044820152606490fd5b90610d80613e6a9286306135ec565b905080613ee9575b38613db8565b50613ef38261348e565b73ffffffffffffffffffffffffffffffffffffffff163014613ee3565b925050565b9291905b8151811015613f10575a7fb0ef2b4863b634f72cc1ab80fbd4ca19f5ac7f001fa644ad4b04f5ce5cfa48fe5411613f1057613f5481836128f9565b51613f5e816137d4565b80158091811561402f575b50156101cc571561402057604090815191613f8383610aa2565b600080845273ffffffffffffffffffffffffffffffffffffffff8816918215613e6f5750928280613ba59361401b9796613fc5613b4c613b48610d80996137d4565b613fd4613b4c613b48856137d4565b613fdd8c613448565b60018154019055613ff18c6136e5856127c1565b7fddf252ad1be2c89b69c2b068fc378daa952ba7f163c4a11628f55a4df523b3ef8180a4886141d2565b613f19565b90610d8061401b9286306135ec565b90508061403d575b38613f69565b506140478261348e565b73ffffffffffffffffffffffffffffffffffffffff163014614037565b60809060208152603260208201527f4552433732313a207472616e7366657220746f206e6f6e20455243373231526560408201527f63656976657220696d706c656d656e746572000000000000000000000000000060608201520190565b156140c957565b6040517f08c379a00000000000000000000000000000000000000000000000000000000081528061232360048201614064565b1561410357565b6040517f08c379a000000000000000000000000000000000000000000000000000000000815260206004820152601c60248201527f4552433732313a20746f6b656e20616c7265616479206d696e746564000000006044820152606490fd5b908160209103126101cc5751610b8c816103ce565b610b8c939260809260018060a01b0316825260006020830152604082015281606082015201906115e4565b3d156141cd573d906141b382610b00565b916141c16040519384610abe565b82523d6000602084013e565b606090565b909190803b156142ca57614204602091600093604051948580948193630a85bd0160e11b998a84523360048501614177565b039273ffffffffffffffffffffffffffffffffffffffff165af16000918161429a575b50614274576142346141a2565b8051908161426f576040517f08c379a00000000000000000000000000000000000000000000000000000000081528061232360048201614064565b602001fd5b7fffffffff00000000000000000000000000000000000000000000000000000000161490565b6142bc91925060203d81116142c3575b6142b48183610abe565b810190614162565b9038614227565b503d6142aa565b505050600190565b156142d957565b6040517f08c379a000000000000000000000000000000000000000000000000000000000815260206004820152601a60248201527f4c7a4170703a206d696e4761734c696d6974206e6f74207365740000000000006044820152606490fd5b1561433f57565b6040517f08c379a000000000000000000000000000000000000000000000000000000000815260206004820152601b60248201527f4c7a4170703a20676173206c696d697420697320746f6f206c6f7700000000006044820152606490fd5b9190602281511061440d57602261ffff91015192166000527fb0ef2b4863b634f72cc1ab80fbd4ca19f5ac7f001fa644ad4b04f5ce5cfa49056020526040600020600160005260205260406000205490810180911161247b576125f8916144068215156142d2565b1015614338565b6040517f08c379a000000000000000000000000000000000000000000000000000000000815260206004820152601c60248201527f4c7a4170703a20696e76616c69642061646170746572506172616d73000000006044820152606490fd5b61ffff166000527fb0ef2b4863b634f72cc1ab80fbd4ca19f5ac7f001fa644ad4b04f5ce5cfa49066020526040600020549081156144f0575b116144ac57565b606460405162461bcd60e51b815260206004820152602060248201527f4c7a4170703a207061796c6f61642073697a6520697320746f6f206c617267656044820152fd5b61271091506144a556fea2646970667358221220dcd487394a00e6b75910c16ff99517eda8cefc263838a7a7c4b23ccf50563f8164736f6c63430008130033",
  "devdoc": {
    "events": {
      "CreditCleared(bytes32)": {
        "details": "Emitted when `_hashedPayload` has been completely delivered"
      },
      "CreditStored(bytes32,bytes)": {
        "details": "Emitted when `_payload` was received from lz, but not enough gas to deliver all tokenIds"
      },
      "SendToChain(uint16,address,bytes,uint256[])": {
        "details": "Emitted when `_tokenIds[]` are moved from the `_sender` to (`_dstChainId`, `_toAddress`) `_nonce` is the outbound nonce from"
      }
    },
    "kind": "dev",
    "methods": {
      "estimateSendBatchFee(uint16,bytes,uint256[],bool,bytes)": {
        "details": "estimate send token `_tokenId` to (`_dstChainId`, `_toAddress`) _dstChainId - L0 defined chain id to send tokens too _toAddress - dynamic bytes array which contains the address to whom you are sending tokens to on the dstChain _tokenIds[] - token Ids to transfer _useZro - indicates to use zro to pay L0 fees _adapterParams - flexible bytes array to indicate messaging adapter services in L0"
      },
      "estimateSendFee(uint16,bytes,uint256,bool,bytes)": {
        "details": "estimate send token `_tokenId` to (`_dstChainId`, `_toAddress`) _dstChainId - L0 defined chain id to send tokens too _toAddress - dynamic bytes array which contains the address to whom you are sending tokens to on the dstChain _tokenId - token Id to transfer _useZro - indicates to use zro to pay L0 fees _adapterParams - flexible bytes array to indicate messaging adapter services in L0"
      },
      "sendBatchFrom(address,uint16,bytes,uint256[],address,address,bytes)": {
        "details": "send tokens `_tokenIds[]` to (`_dstChainId`, `_toAddress`) from `_from` `_toAddress` can be any size depending on the `dstChainId`. `_zroPaymentAddress` set to address(0x0) if not paying in ZRO (LayerZero Token) `_adapterParams` is a flexible bytes array to indicate messaging adapter services"
      },
      "sendFrom(address,uint16,bytes,uint256,address,address,bytes)": {
        "details": "send token `_tokenId` to (`_dstChainId`, `_toAddress`) from `_from` `_toAddress` can be any size depending on the `dstChainId`. `_zroPaymentAddress` set to address(0x0) if not paying in ZRO (LayerZero Token) `_adapterParams` is a flexible bytes array to indicate messaging adapter services"
      },
      "setERC165(bytes4[],bytes4[])": {
        "params": {
          "interfaceIds": "list of interface id to set as supported",
          "interfaceIdsToRemove": "list of interface id to unset as supported. Technically, you can remove support of ERC165 by having the IERC165 id itself being part of that array."
        }
      },
      "supportsInterface(bytes4)": {
        "details": "Interface identification is specified in ERC-165. This function  uses less than 30,000 gas.",
        "params": {
          "interfaceId": "The interface identifier, as specified in ERC-165"
        },
        "returns": {
          "_0": "`true` if the contract implements `interfaceID` and  `interfaceID` is not 0xffffffff, `false` otherwise"
        }
      }
    },
    "version": 1
  },
  "userdoc": {
    "kind": "user",
    "methods": {
      "setERC165(bytes4[],bytes4[])": {
        "notice": "set or unset ERC165 using DiamondStorage.supportedInterfaces"
      },
      "supportsInterface(bytes4)": {
        "notice": "Query if a contract implements an interface"
      }
    },
    "version": 1
  },
  "storageLayout": {
    "storage": [],
    "types": null
  }
}