{
  "address": "0xf52Eb4F2772f1B8E6E1205C4497362b8d84f11E7",
  "abi": [
    {
      "inputs": [
        {
          "internalType": "uint256",
          "name": "_id",
          "type": "uint256"
        },
        {
          "internalType": "uint256",
          "name": "_amountA",
          "type": "uint256"
        },
        {
          "internalType": "uint256",
          "name": "_amountBMin",
          "type": "uint256"
        }
      ],
      "name": "buy",
      "outputs": [],
      "stateMutability": "nonpayable",
      "type": "function"
    },
    {
      "inputs": [
        {
          "internalType": "uint256",
          "name": "_id",
          "type": "uint256"
        },
        {
          "internalType": "uint256",
          "name": "_amountB",
          "type": "uint256"
        }
      ],
      "name": "buyback",
      "outputs": [],
      "stateMutability": "nonpayable",
      "type": "function"
    },
    {
      "inputs": [
        {
          "internalType": "uint256",
          "name": "_id",
          "type": "uint256"
        }
      ],
      "name": "closePosition",
      "outputs": [],
      "stateMutability": "nonpayable",
      "type": "function"
    },
    {
      "inputs": [
        {
          "components": [
            {
              "internalType": "address",
              "name": "account",
              "type": "address"
            },
            {
              "internalType": "address",
              "name": "assetA",
              "type": "address"
            },
            {
              "internalType": "address",
              "name": "assetB",
              "type": "address"
            },
            {
              "internalType": "uint256",
              "name": "amountA",
              "type": "uint256"
            },
            {
              "internalType": "uint256",
              "name": "amountBMin",
              "type": "uint256"
            },
            {
              "internalType": "uint256",
              "name": "leverage",
              "type": "uint256"
            }
          ],
          "internalType": "struct NewPosition",
          "name": "_position",
          "type": "tuple"
        }
      ],
      "name": "createPosition",
      "outputs": [
        {
          "internalType": "uint256",
          "name": "positionId",
          "type": "uint256"
        }
      ],
      "stateMutability": "nonpayable",
      "type": "function"
    },
    {
      "inputs": [
        {
          "internalType": "uint256",
          "name": "_id",
          "type": "uint256"
        },
        {
          "internalType": "uint256",
          "name": "_amountA",
          "type": "uint256"
        }
      ],
      "name": "deposit",
      "outputs": [],
      "stateMutability": "nonpayable",
      "type": "function"
    },
    {
      "inputs": [
        {
          "internalType": "uint256",
          "name": "_id",
          "type": "uint256"
        }
      ],
      "name": "getPosition",
      "outputs": [
        {
          "components": [
            {
              "internalType": "address",
              "name": "account",
              "type": "address"
            },
            {
              "internalType": "address",
              "name": "assetA",
              "type": "address"
            },
            {
              "internalType": "address",
              "name": "assetB",
              "type": "address"
            },
            {
              "internalType": "uint256",
              "name": "amountA",
              "type": "uint256"
            },
            {
              "internalType": "uint256",
              "name": "amountB",
              "type": "uint256"
            },
            {
              "internalType": "uint256",
              "name": "valueInCache",
              "type": "uint256"
            },
            {
              "internalType": "uint256",
              "name": "leverage",
              "type": "uint256"
            },
            {
              "internalType": "uint256",
              "name": "liquidationIncentive",
              "type": "uint256"
            },
            {
              "internalType": "uint256",
              "name": "closeIncentive",
              "type": "uint256"
            },
            {
              "internalType": "uint256",
              "name": "creationTimestamp",
              "type": "uint256"
            },
            {
              "internalType": "uint256",
              "name": "lastUpdateTimestamp",
              "type": "uint256"
            },
            {
              "internalType": "uint256",
              "name": "nonce",
              "type": "uint256"
            },
            {
              "internalType": "uint256",
              "name": "valueOutCache",
              "type": "uint256"
            }
          ],
          "internalType": "struct Position",
          "name": "",
          "type": "tuple"
        },
        {
          "internalType": "int128",
          "name": "currentLeverage",
          "type": "int128"
        }
      ],
      "stateMutability": "view",
      "type": "function"
    },
    {
      "inputs": [
        {
          "internalType": "uint256[]",
          "name": "_ids",
          "type": "uint256[]"
        }
      ],
      "name": "getPositions",
      "outputs": [
        {
          "components": [
            {
              "internalType": "address",
              "name": "account",
              "type": "address"
            },
            {
              "internalType": "address",
              "name": "assetA",
              "type": "address"
            },
            {
              "internalType": "address",
              "name": "assetB",
              "type": "address"
            },
            {
              "internalType": "uint256",
              "name": "amountA",
              "type": "uint256"
            },
            {
              "internalType": "uint256",
              "name": "amountB",
              "type": "uint256"
            },
            {
              "internalType": "uint256",
              "name": "valueInCache",
              "type": "uint256"
            },
            {
              "internalType": "uint256",
              "name": "leverage",
              "type": "uint256"
            },
            {
              "internalType": "uint256",
              "name": "liquidationIncentive",
              "type": "uint256"
            },
            {
              "internalType": "uint256",
              "name": "closeIncentive",
              "type": "uint256"
            },
            {
              "internalType": "uint256",
              "name": "creationTimestamp",
              "type": "uint256"
            },
            {
              "internalType": "uint256",
              "name": "lastUpdateTimestamp",
              "type": "uint256"
            },
            {
              "internalType": "uint256",
              "name": "nonce",
              "type": "uint256"
            },
            {
              "internalType": "uint256",
              "name": "valueOutCache",
              "type": "uint256"
            }
          ],
          "internalType": "struct Position[]",
          "name": "",
          "type": "tuple[]"
        }
      ],
      "stateMutability": "view",
      "type": "function"
    },
    {
      "inputs": [
        {
          "internalType": "uint256",
          "name": "_id",
          "type": "uint256"
        }
      ],
      "name": "getRatioOf",
      "outputs": [
        {
          "internalType": "int128",
          "name": "",
          "type": "int128"
        }
      ],
      "stateMutability": "view",
      "type": "function"
    },
    {
      "inputs": [
        {
          "internalType": "uint256[]",
          "name": "_ids",
          "type": "uint256[]"
        }
      ],
      "name": "isClosable",
      "outputs": [
        {
          "internalType": "bool[]",
          "name": "results",
          "type": "bool[]"
        }
      ],
      "stateMutability": "view",
      "type": "function"
    },
    {
      "inputs": [
        {
          "internalType": "uint256[]",
          "name": "_ids",
          "type": "uint256[]"
        }
      ],
      "name": "isLiquidatable",
      "outputs": [
        {
          "internalType": "bool[]",
          "name": "results",
          "type": "bool[]"
        }
      ],
      "stateMutability": "view",
      "type": "function"
    },
    {
      "inputs": [
        {
          "internalType": "uint256",
          "name": "_id",
          "type": "uint256"
        },
        {
          "internalType": "uint256",
          "name": "_amountA",
          "type": "uint256"
        }
      ],
      "name": "withdraw",
      "outputs": [],
      "stateMutability": "nonpayable",
      "type": "function"
    }
  ],
  "transactionHash": "0x80eb9d935f9823087589fa679f93d7aea26f0d44574d2b7045b42c52ff82fb7f",
  "args": [],
  "numDeployments": 3,
  "solcInputHash": "32cb28bacbeef2195a515e25ee13ba6a",
  "bytecode": "0x60808060405234610016576125d3908161001c8239f35b600080fdfe6080604052600436101561001257600080fd5b60003560e01c80631a514106146100c757806340993b26146100c2578063441a3e70146100bd578063460ddf8d146100b85780634c723c28146100b35780638d005248146100ae578063a126d601146100a9578063cc82816a146100a4578063e2bbb1581461009f578063eb02c3011461009a5763f85a0a131461009557600080fd5b6110bc565b611054565b610edf565b610e98565b610ca0565b610c3e565b610b3a565b61077e565b6105ed565b610275565b6101cc565b634e487b7160e01b600052604160045260246000fd5b67ffffffffffffffff81116100f657604052565b6100cc565b90601f8019910116810190811067ffffffffffffffff8211176100f657604052565b6040519060c0820182811067ffffffffffffffff8211176100f657604052565b604051906101a0820182811067ffffffffffffffff8211176100f657604052565b6004359073ffffffffffffffffffffffffffffffffffffffff8216820361018157565b600080fd5b6024359073ffffffffffffffffffffffffffffffffffffffff8216820361018157565b6044359073ffffffffffffffffffffffffffffffffffffffff8216820361018157565b346101815760c0367ffffffffffffffffffffffffffffffffffffffffffffffffffffffffffffffffc01126101815760405160c0810181811067ffffffffffffffff8211176100f657610271916102619160405261022861015e565b8152610232610186565b602082015261023f6101a9565b60408201526064356060820152608435608082015260a43560a0820152611228565b6040519081529081906020820190565b0390f35b34610181576060367ffffffffffffffffffffffffffffffffffffffffffffffffffffffffffffffffc0112610181576004356102e36102b382611f7e565b3373ffffffffffffffffffffffffffffffffffffffff8216149081156105bc575b506102dd6115fe565b90611688565b7f7fa3672f0a15500ff7afa2c728d0e7f7814ec4292bd398cee8caf1d13a0c6763805490919061040e906103419073ffffffffffffffffffffffffffffffffffffffff165b73ffffffffffffffffffffffffffffffffffffffff1690565b9261043d61036b610351856111d5565b5473ffffffffffffffffffffffffffffffffffffffff1690565b6103946001610379876111d5565b015473ffffffffffffffffffffffffffffffffffffffff1690565b906103a36002610379886111d5565b916103f960066103b2896111d5565b0154916103dc6103c061011d565b73ffffffffffffffffffffffffffffffffffffffff9095168552565b73ffffffffffffffffffffffffffffffffffffffff166020840152565b60409586938484019060018060a01b03169052565b6024356060830152604435608083015260a08201528151809381926301eb53ef60e71b83523360048401611120565b0381600080995af192831561057b576105119386928791610580575b50610328602093946104b19260036104708a6111d5565b0161047c888254611803565b9055610495600461048c8b6111d5565b01918254611803565b90555473ffffffffffffffffffffffffffffffffffffffff1690565b6104bf6001610379886111d5565b91517f41976e0900000000000000000000000000000000000000000000000000000000815273ffffffffffffffffffffffffffffffffffffffff90921660048301529093849190829081906024820190565b03915afa801561057b5761052c92859161054d575b506115ce565b61053a600561048c846111d5565b9055600a61054842926111d5565b015580f35b61056e915060203d8111610574575b61056681836100fb565b8101906111c6565b38610526565b503d61055c565b611172565b602093506104b191506105ab61032891843d86116105b5575b6105a381836100fb565b81019061110a565b9094509150610459565b503d610599565b60ff91506105e5906105ce3391611bb9565b9060018060a01b0316600052602052604060002090565b5416386102d4565b34610181576040367ffffffffffffffffffffffffffffffffffffffffffffffffffffffffffffffffc01126101815760043560243561062e6102b383611f7e565b7f7fa3672f0a15500ff7afa2c728d0e7f7814ec4292bd398cee8caf1d13a0c67635461066f9073ffffffffffffffffffffffffffffffffffffffff16610328565b61067b610351846111d5565b610684846111d5565b823b15610181576106b192846000809460405196879586948593639f64b31560e01b855260048501611881565b03925af1801561057b57610765575b506107266106eb6106dd60036106d5866111d5565b01548461192a565b6106e6856124f0565b61194c565b61071f6107197f7fa3672f0a15500ff7afa2c728d0e7f7814ec4292bd398cee8caf1d13a0c676654600f0b90565b600f0b90565b1315611965565b61073d6003610734846111d5565b019182546118b7565b905542600a61074b836111d5565b0155600661076161075b83612360565b926111d5565b0155005b80610772610778926100e2565b80611876565b386106c0565b34610181576040367ffffffffffffffffffffffffffffffffffffffffffffffffffffffffffffffffc01126101815760046108f78135916024356107c46102b385611f7e565b8042600a6107d1876111d5565b0155826107dd866111d5565b015411156109a2575b6107fc90826107f4866111d5565b01549061192a565b61080d610808856111d5565b6119cb565b90608082019061081e8183516115ce565b825261082f606084019182516115ce565b8091526108406003610734886111d5565b90555161085083610734876111d5565b90557f7fa3672f0a15500ff7afa2c728d0e7f7814ec4292bd398cee8caf1d13a0c6763546108939073ffffffffffffffffffffffffffffffffffffffff16610328565b906108a26001610379876111d5565b6040517f41976e0900000000000000000000000000000000000000000000000000000000815273ffffffffffffffffffffffffffffffffffffffff909116848201908152602095919291869184918291840190565b0381865afa92831561057b578592600094610981575b5061092f93946000604051809681958294639dd15fad60e01b84528301611aa1565b03925af192831561057b5761095e93600c9361048c9361095893600093610962575b50506115ce565b936111d5565b9055005b610979929350803d106105745761056681836100fb565b903880610951565b61092f945061099c90843d86116105745761056681836100fb565b9361090d565b506107fc816109b0856111d5565b01546109bb85611e53565b90506107e6565b9060207ffffffffffffffffffffffffffffffffffffffffffffffffffffffffffffffffc8301126101815760043567ffffffffffffffff9283821161018157806023830112156101815781600401359384116101815760248460051b83010111610181576024019190565b805173ffffffffffffffffffffffffffffffffffffffff16825260208181015173ffffffffffffffffffffffffffffffffffffffff169083015260408181015173ffffffffffffffffffffffffffffffffffffffff1690830152606081015160608301526080810151608083015260a081015160a083015260c081015160c083015260e081015160e0830152610100808201519083015261012080820151908301526101408082015190830152610160808201519083015261018080910151910152565b6020908160408183019282815285518094520193019160005b828110610b18575050505090565b90919293826101a082610b2e6001948951610a2d565b01950193929101610b0a565b3461018157610b48366109c2565b90610b5282611b30565b91610b6060405193846100fb565b8083527fffffffffffffffffffffffffffffffffffffffffffffffffffffffffffffffe0610b8d82611b30565b0160005b818110610bea57505060005b818110610bb257604051806102718682610af1565b80610bca610bc4610be5938587611b5e565b3561225d565b610bd48287611b73565b52610bdf8186611b73565b50611194565b610b9d565b602090610bf5611abd565b82828801015201610b91565b6020908160408183019282815285518094520193019160005b828110610c28575050505090565b8351151585529381019392810192600101610c1a565b3461018157610c4c366109c2565b90610c5682611b87565b9160005b818110610c6f57604051806102718682610c01565b80610c87610c81610c9b938587611b5e565b35612534565b610c918287611b73565b9015159052611194565b610c5a565b34610181576020806003193601126101815760043542600a610cc1836111d5565b0155610ccc81611f7e565b600092903373ffffffffffffffffffffffffffffffffffffffff8216148015919082610e32575b50507f7fa3672f0a15500ff7afa2c728d0e7f7814ec4292bd398cee8caf1d13a0c676354610d37915073ffffffffffffffffffffffffffffffffffffffff16610328565b92610d9982610d4a6001610379876111d5565b6040517f41976e0900000000000000000000000000000000000000000000000000000000815273ffffffffffffffffffffffffffffffffffffffff909116600482015291829081906024820190565b0381885afa91821561057b57610ddb958492600094610e13575b50610dbd866111d5565b6000604051809981958294639dd15fad60e01b8452600484016117d2565b03925af190811561057b57610e1194610dfc936000936109625750506115ce565b610e0a600c61048c846111d5565b9055611e53565b005b610e2b919450833d85116105745761056681836100fb565b9238610db3565b610e3b85612534565b8015610e89575b610e81575b90610e5992610e6157506102dd6115fe565b388080610cf3565b610e7b9150610e74906105ce3391611bb9565b5460ff1690565b386102d4565b339550610e47565b50610e9385612567565b610e42565b34610181576020367ffffffffffffffffffffffffffffffffffffffffffffffffffffffffffffffffc0112610181576020610ed46004356124f0565b600f0b604051908152f35b34610181576040367ffffffffffffffffffffffffffffffffffffffffffffffffffffffffffffffffc011261018157602435600435610f25610f2082612214565b611810565b610f3b6003610f33836111d5565b01548361192a565b7f7fa3672f0a15500ff7afa2c728d0e7f7814ec4292bd398cee8caf1d13a0c676354909290610f7f9073ffffffffffffffffffffffffffffffffffffffff16610328565b92610f89836111d5565b93803b15610181576040517fe4f06d54000000000000000000000000000000000000000000000000000000008152946000918691829084908290610fd290893360048501611881565b03925af193841561057b57611033670de0b6b3a76400009461103a94600693610e1198611041575b50611009600361048c846111d5565b905542600a611017836111d5565b015561102281612360565b8361102c836111d5565b01556111d5565b01546118b7565b10156118c4565b8061077261104e926100e2565b38610ffa565b34610181576020367ffffffffffffffffffffffffffffffffffffffffffffffffffffffffffffffffc0112610181576101c0600435611091611abd565b506110a461109e8261225d565b916124f0565b600f0b6110b46040518093610a2d565b6101a0820152f35b34610181576110ca366109c2565b906110d482611b87565b9160005b8181106110ed57604051806102718682610c01565b80610c876110ff611105938587611b5e565b35612567565b6110d8565b9190826040910312610181576020825192015190565b90929160a060c09160e0840195600180841b0380911685528082511660208601528060208301511660408601526040820151166060850152606081015160808501526080810151828501520151910152565b6040513d6000823e3d90fd5b634e487b7160e01b600052601160045260246000fd5b7fffffffffffffffffffffffffffffffffffffffffffffffffffffffffffffffff81146111c15760010190565b61117e565b90816020910312610181575190565b6000527f7fa3672f0a15500ff7afa2c728d0e7f7814ec4292bd398cee8caf1d13a0c6767602052604060002090565b604051906020820182811067ffffffffffffffff8211176100f65760405260008252565b7f7fa3672f0a15500ff7afa2c728d0e7f7814ec4292bd398cee8caf1d13a0c676380549092919061126e9073ffffffffffffffffffffffffffffffffffffffff16610328565b9260408051926301eb53ef60e71b845281848061128f843360048401611120565b03816000809a5af193841561057b57869087956115ac575b507fa69d290a9fc968e5d4570d812390b00825a2addd4f76316b7e43122b804de8d354936112fb6112d786611194565b7fa69d290a9fc968e5d4570d812390b00825a2addd4f76316b7e43122b804de8d355565b82519497889573ffffffffffffffffffffffffffffffffffffffff16602085015190929073ffffffffffffffffffffffffffffffffffffffff168587015173ffffffffffffffffffffffffffffffffffffffff1660a087015192549099906113789073ffffffffffffffffffffffffffffffffffffffff16610328565b88517f41976e0900000000000000000000000000000000000000000000000000000000815273ffffffffffffffffffffffffffffffffffffffff841660048201529690602090889060249082905afa801561057b576115aa9b61159b9a6114356113f085611453956115819d8c9161054d57506115ce565b966114186113fc61013d565b73ffffffffffffffffffffffffffffffffffffffff909c168c52565b73ffffffffffffffffffffffffffffffffffffffff1660208b0152565b73ffffffffffffffffffffffffffffffffffffffff90911690880152565b6060860152608085015260a084015260c083015266b1a2bc2ec5000060e0830152662386f26fc100006101008301524261012083015242610140830152806101608301526101808201526114a6856111d5565b8151815473ffffffffffffffffffffffffffffffffffffffff9182167fffffffffffffffffffffffff000000000000000000000000000000000000000091821617835560208401516001840180549184169183169190911790556040840151600284018054919093169116179055606082015160038201556080820151600482015560a0820151600582015560c0820151600682015560e0820151600782015561010082015160088201556101208201516009820155610140820151600a820155610160820151600b82015561018090910151600c90910155565b5173ffffffffffffffffffffffffffffffffffffffff1690565b906115a4611204565b91611c97565b565b90506115c6919450823d84116105b5576105a381836100fb565b9390386112a7565b816706f05b59d3b2000019048111158215171561018157670de0b6b3a764000091026706f05b59d3b20000010490565b604051906040820182811067ffffffffffffffff8211176100f657604052600382527f50433400000000000000000000000000000000000000000000000000000000006020830152565b919082519283825260005b848110611674575050826000602080949584010152601f8019910116010190565b602081830181015184830182015201611653565b156116905750565b6040517f08c379a0000000000000000000000000000000000000000000000000000000008152602060048201529081906116ce906024830190611648565b0390fd5b805473ffffffffffffffffffffffffffffffffffffffff16825261018090600c9060018101546117309073ffffffffffffffffffffffffffffffffffffffff165b73ffffffffffffffffffffffffffffffffffffffff166020860152565b600281015461176d9073ffffffffffffffffffffffffffffffffffffffff165b73ffffffffffffffffffffffffffffffffffffffff166040860152565b6003810154606085015260048101546080850152600581015460a0850152600681015460c0850152600781015460e085015260088101546101008501526009810154610120850152600a810154610140850152600b8101546101608501520154910152565b9092916101a0906117e8836101c08101966116d2565b73ffffffffffffffffffffffffffffffffffffffff16910152565b919082018092116111c157565b1561181757565b6040517f08c379a000000000000000000000000000000000000000000000000000000000815260206004820152600760248201527f21657869737473000000000000000000000000000000000000000000000000006044820152606490fd5b600091031261018157565b73ffffffffffffffffffffffffffffffffffffffff909116815260208101919091526101e0810192916115aa91604001906116d2565b919082039182116111c157565b156118cb57565b6040517f08c379a000000000000000000000000000000000000000000000000000000000815260206004820152601160248201527f216c657665726167652d746f6f2d6c6f770000000000000000000000000000006044820152606490fd5b8160011c90670de0b6b3a7640000908183190481118415176101815702010490565b818103929160001380158285131691841216176111c157565b1561196c57565b6040517f08c379a000000000000000000000000000000000000000000000000000000000815260206004820152601260248201527f216c657665726167652d746f6f2d6869676800000000000000000000000000006044820152606490fd5b90600c6119d661013d565b835473ffffffffffffffffffffffffffffffffffffffff168152926001810154611a159073ffffffffffffffffffffffffffffffffffffffff16611713565b6002810154611a399073ffffffffffffffffffffffffffffffffffffffff16611750565b6003810154606085015260048101546080850152600581015460a0850152600681015460c0850152600781015460e085015260088101546101008501526009810154610120850152600a810154610140850152600b8101546101608501520154610180830152565b6101a0600091939293611ab9816101c0810196610a2d565b0152565b604051906101a0820182811067ffffffffffffffff8211176100f657604052816101806000918281528260208201528260408201528260608201528260808201528260a08201528260c08201528260e0820152826101008201528261012082015282610140820152826101608201520152565b67ffffffffffffffff81116100f65760051b60200190565b634e487b7160e01b600052603260045260246000fd5b9190811015611b6e5760051b0190565b611b48565b8051821015611b6e5760209160051b010190565b90611b9182611b30565b611b9e60405191826100fb565b8281528092611baf601f1991611b30565b0190602036910137565b73ffffffffffffffffffffffffffffffffffffffff1660009081527fa69d290a9fc968e5d4570d812390b00825a2addd4f76316b7e43122b804de8d96020526040902090565b60809060208152603260208201527f4552433732313a207472616e7366657220746f206e6f6e20455243373231526560408201527f63656976657220696d706c656d656e746572000000000000000000000000000060608201520190565b15611c6457565b6040517f08c379a0000000000000000000000000000000000000000000000000000000008152806116ce60048201611bff565b9173ffffffffffffffffffffffffffffffffffffffff8316918215611da9576115aa9381611da494611cd1611ccb83612214565b15611ded565b611cdd611ccb83612214565b60008181527fa69d290a9fc968e5d4570d812390b00825a2addd4f76316b7e43122b804de8d760209081526040808320805460010190558483527fa69d290a9fc968e5d4570d812390b00825a2addd4f76316b7e43122b804de8d6909152812080547fffffffffffffffffffffffff00000000000000000000000000000000000000001673ffffffffffffffffffffffffffffffffffffffff86161790557fddf252ad1be2c89b69c2b068fc378daa952ba7f163c4a11628f55a4df523b3ef8180a4612114565b611c5d565b606460405162461bcd60e51b815260206004820152602060248201527f4552433732313a206d696e7420746f20746865207a65726f20616464726573736044820152fd5b15611df457565b6040517f08c379a000000000000000000000000000000000000000000000000000000000815260206004820152601c60248201527f4552433732313a20746f6b656e20616c7265616479206d696e746564000000006044820152606490fd5b611e5c81611f7e565b50611e6681611f7e565b60008281527fa69d290a9fc968e5d4570d812390b00825a2addd4f76316b7e43122b804de8d86020908152604080832080547fffffffffffffffffffffffff000000000000000000000000000000000000000090811690915573ffffffffffffffffffffffffffffffffffffffff9094168084527fa69d290a9fc968e5d4570d812390b00825a2addd4f76316b7e43122b804de8d7835281842080547fffffffffffffffffffffffffffffffffffffffffffffffffffffffffffffffff0190558584527fa69d290a9fc968e5d4570d812390b00825a2addd4f76316b7e43122b804de8d690925282208054909316909255907fddf252ad1be2c89b69c2b068fc378daa952ba7f163c4a11628f55a4df523b3ef8280a4565b60009081527fa69d290a9fc968e5d4570d812390b00825a2addd4f76316b7e43122b804de8d6602052604090205473ffffffffffffffffffffffffffffffffffffffff168015611fcb5790565b6040517f08c379a000000000000000000000000000000000000000000000000000000000815260206004820152602960248201527f455243373231203a61646472657373207a65726f206973206e6f74206120766160448201527f6c6964206f776e657200000000000000000000000000000000000000000000006064820152608490fd5b9081602091031261018157517fffffffff00000000000000000000000000000000000000000000000000000000811681036101815790565b6120b3939260809260018060a01b031682526000602083015260408201528160608201520190611648565b90565b3d1561210f573d9067ffffffffffffffff82116100f65760405191612103601f82017fffffffffffffffffffffffffffffffffffffffffffffffffffffffffffffffe016602001846100fb565b82523d6000602084013e565b606090565b909190803b1561220c57612146602091600093604051948580948193630a85bd0160e11b998a84523360048501612088565b039273ffffffffffffffffffffffffffffffffffffffff165af1600091816121dc575b506121b6576121766120b6565b805190816121b1576040517f08c379a0000000000000000000000000000000000000000000000000000000008152806116ce60048201611bff565b602001fd5b7fffffffff00000000000000000000000000000000000000000000000000000000161490565b6121fe91925060203d8111612205575b6121f681836100fb565b810190612050565b9038612169565b503d6121ec565b505050600190565b60009081527fa69d290a9fc968e5d4570d812390b00825a2addd4f76316b7e43122b804de8d6602052604090205473ffffffffffffffffffffffffffffffffffffffff16151590565b612265611abd565b506000527f7fa3672f0a15500ff7afa2c728d0e7f7814ec4292bd398cee8caf1d13a0c67676020526040600020600c61229c61013d565b825473ffffffffffffffffffffffffffffffffffffffff16815291600181015473ffffffffffffffffffffffffffffffffffffffff166020840152600281015473ffffffffffffffffffffffffffffffffffffffff1660408401526003810154606084015260048101546080840152600581015460a0840152600681015460c0840152600781015460e084015260088101546101008401526009810154610120840152600a810154610140840152600b810154610160840152015461018082015290565b61080861236c916111d5565b7f7fa3672f0a15500ff7afa2c728d0e7f7814ec4292bd398cee8caf1d13a0c6763546123ad9073ffffffffffffffffffffffffffffffffffffffff16610328565b6020828101516040517f41976e090000000000000000000000000000000000000000000000000000000080825273ffffffffffffffffffffffffffffffffffffffff909216600482015293928285602481845afa94851561057b576000956124c9575b50604084810151905192835273ffffffffffffffffffffffffffffffffffffffff166004830152829082908180602481015b03915afa91821561057b576000926124ac575b5050821580156124a4575b8015612498575b612490576120b392606061248261248a9360808601516115ce565b9301516115ce565b9061192a565b505050600090565b50606082015115612467565b508015612460565b6124c29250803d106105745761056681836100fb565b3880612455565b83919550916124e761244293833d85116105745761056681836100fb565b95915091612410565b6120b3906124fd81612360565b906000527f7fa3672f0a15500ff7afa2c728d0e7f7814ec4292bd398cee8caf1d13a0c67676020526006604060002001549061194c565b61253d906124f0565b7f7fa3672f0a15500ff7afa2c728d0e7f7814ec4292bd398cee8caf1d13a0c676654600f0b121590565b612570906124f0565b7f7fa3672f0a15500ff7afa2c728d0e7f7814ec4292bd398cee8caf1d13a0c67665460801d600f0b13159056fea26469706673582212206fa613d6f91376831eea8b9c6bb734571f6193d34b6090c6e3a222b66fa528cd64736f6c63430008130033",
  "devdoc": {
    "kind": "dev",
    "methods": {
      "buy(uint256,uint256,uint256)": {
        "params": {
          "_buyAmount": "The min amount of asset to buy",
          "_id": "The ID of the position to borrow more from",
          "_sellAmount": "The amount of collateral to sell"
        }
      },
      "buyback(uint256,uint256)": {
        "params": {
          "_amount": "The amount of borrowed asset",
          "_id": "The ID of the position to repay borrowed asset to"
        }
      },
      "closePosition(uint256)": {
        "params": {
          "_id": "The ID of the position to close"
        }
      },
      "createPosition((address,address,address,uint256,uint256,uint256))": {
        "params": {
          "_position": "The parameters of the new position"
        },
        "returns": {
          "positionId": "The ID of the new position"
        }
      },
      "deposit(uint256,uint256)": {
        "params": {
          "_amount": "The amount of collateral to deposit.",
          "_id": "The ID of the position to deposit collateral into."
        }
      },
      "getPosition(uint256)": {
        "returns": {
          "_0": "position the position when last modified",
          "currentLeverage": "the current profit of the position"
        }
      },
      "isLiquidatable(uint256[])": {
        "params": {
          "_ids": "The IDs of the positions"
        },
        "returns": {
          "results": "array of liquidatable results"
        }
      },
      "withdraw(uint256,uint256)": {
        "params": {
          "_amount": "The amount of collateral to withdraw",
          "_id": "The ID of the position to withdraw collateral from"
        }
      }
    },
    "version": 1
  },
  "userdoc": {
    "kind": "user",
    "methods": {
      "buy(uint256,uint256,uint256)": {
        "notice": "Borrow more assets to a position, keeps the leverage."
      },
      "buyback(uint256,uint256)": {
        "notice": "Repay borrowed asset in a position"
      },
      "closePosition(uint256)": {
        "notice": "Close a leveraged position"
      },
      "createPosition((address,address,address,uint256,uint256,uint256))": {
        "notice": "Creates a new leveraged position"
      },
      "deposit(uint256,uint256)": {
        "notice": "Deposit collateral into a leveraged position."
      },
      "getPosition(uint256)": {
        "notice": "returns the info of a position for `_id`"
      },
      "isClosable(uint256[])": {
        "notice": "returns the closable status for positions"
      },
      "isLiquidatable(uint256[])": {
        "notice": "Get the liquidatable status of a lever positions"
      },
      "withdraw(uint256,uint256)": {
        "notice": "Withdraw collateral from a leveraged position"
      }
    },
    "version": 1
  },
  "storageLayout": {
    "storage": [],
    "types": null
  }
}