{
  "address": "0xA1a1a4c6048CbDe7cd741ad9E37BF59496636623",
  "abi": [
    {
      "inputs": [
        {
          "internalType": "address",
          "name": "_asset",
          "type": "address"
        }
      ],
      "name": "collateralAsset",
      "outputs": [
        {
          "components": [
            {
              "components": [
                {
                  "internalType": "uint256",
                  "name": "rawValue",
                  "type": "uint256"
                }
              ],
              "internalType": "struct FixedPoint.Unsigned",
              "name": "factor",
              "type": "tuple"
            },
            {
              "internalType": "contract AggregatorV2V3Interface",
              "name": "oracle",
              "type": "address"
            },
            {
              "internalType": "address",
              "name": "kreskoAsset",
              "type": "address"
            },
            {
              "internalType": "uint8",
              "name": "decimals",
              "type": "uint8"
            },
            {
              "internalType": "bool",
              "name": "exists",
              "type": "bool"
            }
          ],
          "internalType": "struct CollateralAsset",
          "name": "",
          "type": "tuple"
        }
      ],
      "stateMutability": "view",
      "type": "function"
    },
    {
      "inputs": [
        {
          "internalType": "address",
          "name": "_collateralAsset",
          "type": "address"
        }
      ],
      "name": "collateralExists",
      "outputs": [
        {
          "internalType": "bool",
          "name": "",
          "type": "bool"
        }
      ],
      "stateMutability": "view",
      "type": "function"
    },
    {
      "inputs": [],
      "name": "domainSeparator",
      "outputs": [
        {
          "internalType": "bytes32",
          "name": "",
          "type": "bytes32"
        }
      ],
      "stateMutability": "view",
      "type": "function"
    },
    {
      "inputs": [],
      "name": "feeRecipient",
      "outputs": [
        {
          "internalType": "address",
          "name": "",
          "type": "address"
        }
      ],
      "stateMutability": "view",
      "type": "function"
    },
    {
      "inputs": [],
      "name": "getAllParams",
      "outputs": [
        {
          "components": [
            {
              "components": [
                {
                  "internalType": "uint256",
                  "name": "rawValue",
                  "type": "uint256"
                }
              ],
              "internalType": "struct FixedPoint.Unsigned",
              "name": "minimumCollateralizationRatio",
              "type": "tuple"
            },
            {
              "components": [
                {
                  "internalType": "uint256",
                  "name": "rawValue",
                  "type": "uint256"
                }
              ],
              "internalType": "struct FixedPoint.Unsigned",
              "name": "liquidationIncentiveMultiplier",
              "type": "tuple"
            },
            {
              "components": [
                {
                  "internalType": "uint256",
                  "name": "rawValue",
                  "type": "uint256"
                }
              ],
              "internalType": "struct FixedPoint.Unsigned",
              "name": "minimumDebtValue",
              "type": "tuple"
            },
            {
              "components": [
                {
                  "internalType": "uint256",
                  "name": "rawValue",
                  "type": "uint256"
                }
              ],
              "internalType": "struct FixedPoint.Unsigned",
              "name": "liquidationThreshold",
              "type": "tuple"
            },
            {
              "internalType": "address",
              "name": "feeRecipient",
              "type": "address"
            }
          ],
          "internalType": "struct MinterParams",
          "name": "",
          "type": "tuple"
        }
      ],
      "stateMutability": "view",
      "type": "function"
    },
    {
      "inputs": [
        {
          "internalType": "address",
          "name": "_collateralAsset",
          "type": "address"
        },
        {
          "internalType": "uint256",
          "name": "_amount",
          "type": "uint256"
        },
        {
          "internalType": "bool",
          "name": "_ignoreCollateralFactor",
          "type": "bool"
        }
      ],
      "name": "getCollateralValueAndOraclePrice",
      "outputs": [
        {
          "components": [
            {
              "internalType": "uint256",
              "name": "rawValue",
              "type": "uint256"
            }
          ],
          "internalType": "struct FixedPoint.Unsigned",
          "name": "",
          "type": "tuple"
        },
        {
          "components": [
            {
              "internalType": "uint256",
              "name": "rawValue",
              "type": "uint256"
            }
          ],
          "internalType": "struct FixedPoint.Unsigned",
          "name": "",
          "type": "tuple"
        }
      ],
      "stateMutability": "view",
      "type": "function"
    },
    {
      "inputs": [
        {
          "internalType": "address",
          "name": "_kreskoAsset",
          "type": "address"
        },
        {
          "internalType": "uint256",
          "name": "_amount",
          "type": "uint256"
        },
        {
          "internalType": "bool",
          "name": "_ignoreKFactor",
          "type": "bool"
        }
      ],
      "name": "getKrAssetValue",
      "outputs": [
        {
          "components": [
            {
              "internalType": "uint256",
              "name": "rawValue",
              "type": "uint256"
            }
          ],
          "internalType": "struct FixedPoint.Unsigned",
          "name": "",
          "type": "tuple"
        }
      ],
      "stateMutability": "view",
      "type": "function"
    },
    {
      "inputs": [
        {
          "internalType": "address",
          "name": "_krAsset",
          "type": "address"
        }
      ],
      "name": "krAssetExists",
      "outputs": [
        {
          "internalType": "bool",
          "name": "",
          "type": "bool"
        }
      ],
      "stateMutability": "view",
      "type": "function"
    },
    {
      "inputs": [
        {
          "internalType": "address",
          "name": "_asset",
          "type": "address"
        }
      ],
      "name": "kreskoAsset",
      "outputs": [
        {
          "components": [
            {
              "components": [
                {
                  "internalType": "uint256",
                  "name": "rawValue",
                  "type": "uint256"
                }
              ],
              "internalType": "struct FixedPoint.Unsigned",
              "name": "kFactor",
              "type": "tuple"
            },
            {
              "internalType": "contract AggregatorV2V3Interface",
              "name": "oracle",
              "type": "address"
            },
            {
              "internalType": "uint256",
              "name": "supplyLimit",
              "type": "uint256"
            },
            {
              "components": [
                {
                  "internalType": "uint256",
                  "name": "rawValue",
                  "type": "uint256"
                }
              ],
              "internalType": "struct FixedPoint.Unsigned",
              "name": "closeFee",
              "type": "tuple"
            },
            {
              "internalType": "bool",
              "name": "mintable",
              "type": "bool"
            },
            {
              "internalType": "bool",
              "name": "exists",
              "type": "bool"
            }
          ],
          "internalType": "struct KrAsset",
          "name": "",
          "type": "tuple"
        }
      ],
      "stateMutability": "view",
      "type": "function"
    },
    {
      "inputs": [],
      "name": "liquidationIncentiveMultiplier",
      "outputs": [
        {
          "components": [
            {
              "internalType": "uint256",
              "name": "rawValue",
              "type": "uint256"
            }
          ],
          "internalType": "struct FixedPoint.Unsigned",
          "name": "",
          "type": "tuple"
        }
      ],
      "stateMutability": "view",
      "type": "function"
    },
    {
      "inputs": [],
      "name": "liquidationThreshold",
      "outputs": [
        {
          "components": [
            {
              "internalType": "uint256",
              "name": "rawValue",
              "type": "uint256"
            }
          ],
          "internalType": "struct FixedPoint.Unsigned",
          "name": "",
          "type": "tuple"
        }
      ],
      "stateMutability": "view",
      "type": "function"
    },
    {
      "inputs": [],
      "name": "minimumCollateralizationRatio",
      "outputs": [
        {
          "components": [
            {
              "internalType": "uint256",
              "name": "rawValue",
              "type": "uint256"
            }
          ],
          "internalType": "struct FixedPoint.Unsigned",
          "name": "",
          "type": "tuple"
        }
      ],
      "stateMutability": "view",
      "type": "function"
    },
    {
      "inputs": [],
      "name": "minimumDebtValue",
      "outputs": [
        {
          "components": [
            {
              "internalType": "uint256",
              "name": "rawValue",
              "type": "uint256"
            }
          ],
          "internalType": "struct FixedPoint.Unsigned",
          "name": "",
          "type": "tuple"
        }
      ],
      "stateMutability": "view",
      "type": "function"
    },
    {
      "inputs": [],
      "name": "minterInitializations",
      "outputs": [
        {
          "internalType": "uint256",
          "name": "",
          "type": "uint256"
        }
      ],
      "stateMutability": "view",
      "type": "function"
    }
  ],
  "transactionHash": "0x564d5c66b5772a6f25181da69668f26a6ebe0f12942dcfcfeb233cb8f06c1782",
  "args": [],
  "numDeployments": 1,
  "solcInputHash": "982b6a22f97b2c235980e50ae289fa10",
  "bytecode": "0x608060405234801561001057600080fd5b506117fa806100206000396000f3fe608060405234801561001057600080fd5b50600436106100ea5760003560e01c80638fbce7681161008c578063a61d1d5111610066578063a61d1d5114610276578063d127bad1146102a6578063d678e6a2146102c4578063f698da25146102e2576100ea565b80638fbce7681461020a5780639b177c1914610228578063a170052e14610258576100ea565b80634031234c116100c85780634031234c1461016e578063469048401461018c5780635a28f773146101aa57806369a7d52c146101da576100ea565b8063367afebb146100ef57806337e6c1fd1461011f5780633ae000c01461013d575b600080fd5b61010960048036038101906101049190611066565b610300565b60405161011691906111bd565b60405180910390f35b610127610329565b60405161013491906111f4565b60405180910390f35b61015760048036038101906101529190611267565b610356565b6040516101659291906112ba565b60405180910390f35b610176610390565b60405161018391906111f4565b60405180910390f35b6101946103bd565b6040516101a191906112f2565b60405180910390f35b6101c460048036038101906101bf9190611066565b6103f0565b6040516101d191906113a0565b60405180910390f35b6101f460048036038101906101ef9190611267565b610554565b60405161020191906111f4565b60405180910390f35b610212610583565b60405161021f91906111f4565b60405180910390f35b610242600480360381019061023d9190611066565b6105b0565b60405161024f91906113ca565b60405180910390f35b610260610612565b60405161026d919061144d565b60405180910390f35b610290600480360381019061028b9190611066565b6106ed565b60405161029d91906113ca565b60405180910390f35b6102ae61074f565b6040516102bb91906111f4565b60405180910390f35b6102cc61077c565b6040516102d99190611477565b60405180910390f35b6102ea61078f565b6040516102f791906114ab565b60405180910390f35b610308610ed1565b610322826103146107a2565b6107cf90919063ffffffff16565b9050919050565b610331610f2d565b6103396107a2565b600301604051806020016040529081600082015481525050905090565b61035e610f2d565b610366610f2d565b6103848585856103746107a2565b6108fd909392919063ffffffff16565b91509150935093915050565b610398610f2d565b6103a06107a2565b600601604051806020016040529081600082015481525050905090565b60006103c76107a2565b60020160009054906101000a900473ffffffffffffffffffffffffffffffffffffffff16905090565b6103f8610f40565b6104006107a2565b60090160008373ffffffffffffffffffffffffffffffffffffffff1673ffffffffffffffffffffffffffffffffffffffff1681526020019081526020016000206040518060a00160405290816000820160405180602001604052908160008201548152505081526020016001820160009054906101000a900473ffffffffffffffffffffffffffffffffffffffff1673ffffffffffffffffffffffffffffffffffffffff1673ffffffffffffffffffffffffffffffffffffffff1681526020016002820160009054906101000a900473ffffffffffffffffffffffffffffffffffffffff1673ffffffffffffffffffffffffffffffffffffffff1673ffffffffffffffffffffffffffffffffffffffff1681526020016002820160149054906101000a900460ff1660ff1660ff1681526020016002820160159054906101000a900460ff1615151515815250509050919050565b61055c610f2d565b61057a84848461056a6107a2565b610b4b909392919063ffffffff16565b90509392505050565b61058b610f2d565b6105936107a2565b600501604051806020016040529081600082015481525050905090565b60006105ba6107a2565b600c0160008373ffffffffffffffffffffffffffffffffffffffff1673ffffffffffffffffffffffffffffffffffffffff16815260200190815260200160002060040160019054906101000a900460ff169050919050565b61061a610fa6565b60006106246107a2565b90506040518060a001604052808260040160405180602001604052908160008201548152505081526020018260030160405180602001604052908160008201548152505081526020018260050160405180602001604052908160008201548152505081526020018260060160405180602001604052908160008201548152505081526020018260020160009054906101000a900473ffffffffffffffffffffffffffffffffffffffff1673ffffffffffffffffffffffffffffffffffffffff1681525091505090565b60006106f76107a2565b60090160008373ffffffffffffffffffffffffffffffffffffffff1673ffffffffffffffffffffffffffffffffffffffff16815260200190815260200160002060020160159054906101000a900460ff169050919050565b610757610f2d565b61075f6107a2565b600401604051806020016040529081600082015481525050905090565b60006107866107a2565b60000154905090565b60006107996107a2565b60010154905090565b6000807f5076ab9fa18d2a17cfce4375a530b76392de8264a11126885cd5534d39f0a97c90508091505090565b6107d7610ed1565b82600c0160008373ffffffffffffffffffffffffffffffffffffffff1673ffffffffffffffffffffffffffffffffffffffff1681526020019081526020016000206040518060c00160405290816000820160405180602001604052908160008201548152505081526020016001820160009054906101000a900473ffffffffffffffffffffffffffffffffffffffff1673ffffffffffffffffffffffffffffffffffffffff1673ffffffffffffffffffffffffffffffffffffffff168152602001600282015481526020016003820160405180602001604052908160008201548152505081526020016004820160009054906101000a900460ff161515151581526020016004820160019054906101000a900460ff161515151581525050905092915050565b610905610f2d565b61090d610f2d565b60008660090160008773ffffffffffffffffffffffffffffffffffffffff1673ffffffffffffffffffffffffffffffffffffffff1681526020019081526020016000206040518060a00160405290816000820160405180602001604052908160008201548152505081526020016001820160009054906101000a900473ffffffffffffffffffffffffffffffffffffffff1673ffffffffffffffffffffffffffffffffffffffff1673ffffffffffffffffffffffffffffffffffffffff1681526020016002820160009054906101000a900473ffffffffffffffffffffffffffffffffffffffff1673ffffffffffffffffffffffffffffffffffffffff1673ffffffffffffffffffffffffffffffffffffffff1681526020016002820160149054906101000a900460ff1660ff1660ff1681526020016002820160159054906101000a900460ff16151515158152505090506000610a7b86836060015160ff16610d4c90919063ffffffff16565b905060006040518060200160405280846020015173ffffffffffffffffffffffffffffffffffffffff166350d25bcd6040518163ffffffff1660e01b8152600401602060405180830381865afa158015610ad9573d6000803e3d6000fd5b505050506040513d601f19601f82011682018060405250810190610afd91906114fc565b81525090506000610b178284610dea90919063ffffffff16565b905086610b3857610b35846000015182610dea90919063ffffffff16565b90505b8082955095505050505094509492505050565b610b53610f2d565b600085600c0160008673ffffffffffffffffffffffffffffffffffffffff1673ffffffffffffffffffffffffffffffffffffffff1681526020019081526020016000206040518060c00160405290816000820160405180602001604052908160008201548152505081526020016001820160009054906101000a900473ffffffffffffffffffffffffffffffffffffffff1673ffffffffffffffffffffffffffffffffffffffff1673ffffffffffffffffffffffffffffffffffffffff168152602001600282015481526020016003820160405180602001604052908160008201548152505081526020016004820160009054906101000a900460ff161515151581526020016004820160019054906101000a900460ff161515151581525050905060006040518060200160405280836020015173ffffffffffffffffffffffffffffffffffffffff166350d25bcd6040518163ffffffff1660e01b8152600401602060405180830381865afa158015610cd1573d6000803e3d6000fd5b505050506040513d601f19601f82011682018060405250810190610cf591906114fc565b81525090506000610d1d82604051806020016040528089815250610dea90919063ffffffff16565b905084610d3e57610d3b836000015182610dea90919063ffffffff16565b90505b809350505050949350505050565b610d54610f2d565b600060405180602001604052808481525090506012841015610da357610d9b846012610d809190611558565b600a610d8c91906116bf565b82610e3b90919063ffffffff16565b915050610de4565b6012841115610ddf57610dd7601285610dbc9190611558565b600a610dc891906116bf565b82610e7090919063ffffffff16565b915050610de4565b809150505b92915050565b610df2610f2d565b60405180602001604052806012600a610e0b91906116bf565b610e2685600001518760000151610ea590919063ffffffff16565b610e309190611739565b815250905092915050565b610e43610f2d565b6040518060200160405280610e65848660000151610ea590919063ffffffff16565b815250905092915050565b610e78610f2d565b6040518060200160405280610e9a848660000151610ebb90919063ffffffff16565b815250905092915050565b60008183610eb3919061176a565b905092915050565b60008183610ec99190611739565b905092915050565b6040518060c00160405280610ee4610f2d565b8152602001600073ffffffffffffffffffffffffffffffffffffffff16815260200160008152602001610f15610f2d565b81526020016000151581526020016000151581525090565b6040518060200160405280600081525090565b6040518060a00160405280610f53610f2d565b8152602001600073ffffffffffffffffffffffffffffffffffffffff168152602001600073ffffffffffffffffffffffffffffffffffffffff168152602001600060ff1681526020016000151581525090565b6040518060a00160405280610fb9610f2d565b8152602001610fc6610f2d565b8152602001610fd3610f2d565b8152602001610fe0610f2d565b8152602001600073ffffffffffffffffffffffffffffffffffffffff1681525090565b600080fd5b600073ffffffffffffffffffffffffffffffffffffffff82169050919050565b600061103382611008565b9050919050565b61104381611028565b811461104e57600080fd5b50565b6000813590506110608161103a565b92915050565b60006020828403121561107c5761107b611003565b5b600061108a84828501611051565b91505092915050565b6000819050919050565b6110a681611093565b82525050565b6020820160008201516110c2600085018261109d565b50505050565b6000819050919050565b60006110ed6110e86110e384611008565b6110c8565b611008565b9050919050565b60006110ff826110d2565b9050919050565b6000611111826110f4565b9050919050565b61112181611106565b82525050565b60008115159050919050565b61113c81611127565b82525050565b60c08201600082015161115860008501826110ac565b50602082015161116b6020850182611118565b50604082015161117e604085018261109d565b50606082015161119160608501826110ac565b5060808201516111a46080850182611133565b5060a08201516111b760a0850182611133565b50505050565b600060c0820190506111d26000830184611142565b92915050565b6020820160008201516111ee600085018261109d565b50505050565b600060208201905061120960008301846111d8565b92915050565b61121881611093565b811461122357600080fd5b50565b6000813590506112358161120f565b92915050565b61124481611127565b811461124f57600080fd5b50565b6000813590506112618161123b565b92915050565b6000806000606084860312156112805761127f611003565b5b600061128e86828701611051565b935050602061129f86828701611226565b92505060406112b086828701611252565b9150509250925092565b60006040820190506112cf60008301856111d8565b6112dc60208301846111d8565b9392505050565b6112ec81611028565b82525050565b600060208201905061130760008301846112e3565b92915050565b61131681611028565b82525050565b600060ff82169050919050565b6113328161131c565b82525050565b60a08201600082015161134e60008501826110ac565b5060208201516113616020850182611118565b506040820151611374604085018261130d565b5060608201516113876060850182611329565b50608082015161139a6080850182611133565b50505050565b600060a0820190506113b56000830184611338565b92915050565b6113c481611127565b82525050565b60006020820190506113df60008301846113bb565b92915050565b60a0820160008201516113fb60008501826110ac565b50602082015161140e60208501826110ac565b50604082015161142160408501826110ac565b50606082015161143460608501826110ac565b506080820151611447608085018261130d565b50505050565b600060a08201905061146260008301846113e5565b92915050565b61147181611093565b82525050565b600060208201905061148c6000830184611468565b92915050565b6000819050919050565b6114a581611492565b82525050565b60006020820190506114c0600083018461149c565b92915050565b6000819050919050565b6114d9816114c6565b81146114e457600080fd5b50565b6000815190506114f6816114d0565b92915050565b60006020828403121561151257611511611003565b5b6000611520848285016114e7565b91505092915050565b7f4e487b7100000000000000000000000000000000000000000000000000000000600052601160045260246000fd5b600061156382611093565b915061156e83611093565b92508282101561158157611580611529565b5b828203905092915050565b60008160011c9050919050565b6000808291508390505b60018511156115e3578086048111156115bf576115be611529565b5b60018516156115ce5780820291505b80810290506115dc8561158c565b94506115a3565b94509492505050565b6000826115fc57600190506116b8565b8161160a57600090506116b8565b8160018114611620576002811461162a57611659565b60019150506116b8565b60ff84111561163c5761163b611529565b5b8360020a91508482111561165357611652611529565b5b506116b8565b5060208310610133831016604e8410600b841016171561168e5782820a90508381111561168957611688611529565b5b6116b8565b61169b8484846001611599565b925090508184048111156116b2576116b1611529565b5b81810290505b9392505050565b60006116ca82611093565b91506116d583611093565b92506117027fffffffffffffffffffffffffffffffffffffffffffffffffffffffffffffffff84846115ec565b905092915050565b7f4e487b7100000000000000000000000000000000000000000000000000000000600052601260045260246000fd5b600061174482611093565b915061174f83611093565b92508261175f5761175e61170a565b5b828204905092915050565b600061177582611093565b915061178083611093565b9250817fffffffffffffffffffffffffffffffffffffffffffffffffffffffffffffffff04831182151516156117b9576117b8611529565b5b82820290509291505056fea2646970667358221220a66e07e2ccdfc6d1790411f831110b30803b290b23e2726ef14414465d82cc5d64736f6c634300080e0033",
  "devdoc": {
    "author": "Kresko",
    "details": "Structs do not create views for members.",
    "kind": "dev",
    "methods": {
      "collateralAsset(address)": {
        "params": {
          "_asset": "Address of the asset."
        },
        "returns": {
          "_0": "State of assets `CollateralAsset` struct"
        }
      },
      "getCollateralValueAndOraclePrice(address,uint256,bool)": {
        "params": {
          "_amount": "The amount of the collateral asset to calculate the collateral value for.",
          "_collateralAsset": "The address of the collateral asset.",
          "_ignoreCollateralFactor": "Boolean indicating if the asset's collateral factor should be ignored."
        },
        "returns": {
          "_0": "The collateral value for the provided amount of the collateral asset."
        }
      },
      "getKrAssetValue(address,uint256,bool)": {
        "params": {
          "_amount": "The amount of the Kresko asset to calculate the value for.",
          "_ignoreKFactor": "Boolean indicating if the asset's k-factor should be ignored.",
          "_kreskoAsset": "The address of the Kresko asset."
        },
        "returns": {
          "_0": "The value for the provided amount of the Kresko asset."
        }
      },
      "kreskoAsset(address)": {
        "params": {
          "_asset": "Address of the asset."
        },
        "returns": {
          "_0": "State of assets `KrAsset` struct"
        }
      }
    },
    "title": "View functions for protocol parameters and asset values",
    "version": 1
  },
  "userdoc": {
    "kind": "user",
    "methods": {
      "collateralAsset(address)": {
        "notice": "Get the state of a specific collateral asset"
      },
      "collateralExists(address)": {
        "notice": "Returns true if the @param _collateralAsset exists in the protocol"
      },
      "getCollateralValueAndOraclePrice(address,uint256,bool)": {
        "notice": "Gets the collateral value for a single collateral asset and amount."
      },
      "getKrAssetValue(address,uint256,bool)": {
        "notice": "Gets the USD value for a single Kresko asset and amount."
      },
      "krAssetExists(address)": {
        "notice": "Returns true if the @param _krAsset exists in the protocol"
      },
      "kreskoAsset(address)": {
        "notice": "Get the state of a specific krAsset"
      }
    },
    "version": 1
  },
  "storageLayout": {
    "storage": [],
    "types": null
  }
}