{
  "address": "0xDf84261130B865447eDaF99D141b0C78538c20B0",
  "abi": [
    {
      "inputs": [
        {
          "internalType": "address[]",
          "name": "_assets",
          "type": "address[]"
        },
        {
          "internalType": "address[]",
          "name": "_oracles",
          "type": "address[]"
        },
        {
          "internalType": "address[]",
          "name": "_marketStatusOracles",
          "type": "address[]"
        }
      ],
      "name": "batchOracleValues",
      "outputs": [
        {
          "components": [
            {
              "internalType": "uint256",
              "name": "price",
              "type": "uint256"
            },
            {
              "internalType": "uint256",
              "name": "timestamp",
              "type": "uint256"
            },
            {
              "internalType": "address",
              "name": "assetAddress",
              "type": "address"
            },
            {
              "internalType": "uint80",
              "name": "roundId",
              "type": "uint80"
            },
            {
              "internalType": "bool",
              "name": "marketOpen",
              "type": "bool"
            }
          ],
          "internalType": "struct LibUI.Price[]",
          "name": "result",
          "type": "tuple[]"
        }
      ],
      "stateMutability": "view",
      "type": "function"
    },
    {
      "inputs": [
        {
          "internalType": "address",
          "name": "_account",
          "type": "address"
        },
        {
          "internalType": "address[]",
          "name": "_tokens",
          "type": "address[]"
        },
        {
          "internalType": "address",
          "name": "_staking",
          "type": "address"
        }
      ],
      "name": "getAccountData",
      "outputs": [
        {
          "components": [
            {
              "components": [
                {
                  "internalType": "address",
                  "name": "assetAddress",
                  "type": "address"
                },
                {
                  "internalType": "address",
                  "name": "oracleAddress",
                  "type": "address"
                },
                {
                  "internalType": "address",
                  "name": "anchorAddress",
                  "type": "address"
                },
                {
                  "internalType": "uint256",
                  "name": "amount",
                  "type": "uint256"
                },
                {
                  "internalType": "uint256",
                  "name": "amountScaled",
                  "type": "uint256"
                },
                {
                  "internalType": "uint256",
                  "name": "priceRate",
                  "type": "uint256"
                },
                {
                  "internalType": "uint256",
                  "name": "stabilityRate",
                  "type": "uint256"
                },
                {
                  "internalType": "uint256",
                  "name": "amountUSD",
                  "type": "uint256"
                },
                {
                  "internalType": "uint256",
                  "name": "index",
                  "type": "uint256"
                },
                {
                  "internalType": "uint256",
                  "name": "kFactor",
                  "type": "uint256"
                },
                {
                  "internalType": "uint256",
                  "name": "price",
                  "type": "uint256"
                },
                {
                  "internalType": "uint256",
                  "name": "ammPrice",
                  "type": "uint256"
                },
                {
                  "internalType": "string",
                  "name": "symbol",
                  "type": "string"
                },
                {
                  "internalType": "string",
                  "name": "name",
                  "type": "string"
                },
                {
                  "internalType": "uint256",
                  "name": "openFee",
                  "type": "uint256"
                },
                {
                  "internalType": "uint256",
                  "name": "closeFee",
                  "type": "uint256"
                }
              ],
              "internalType": "struct LibUI.krAssetInfoUser[]",
              "name": "krAssets",
              "type": "tuple[]"
            },
            {
              "components": [
                {
                  "internalType": "address",
                  "name": "assetAddress",
                  "type": "address"
                },
                {
                  "internalType": "address",
                  "name": "oracleAddress",
                  "type": "address"
                },
                {
                  "internalType": "address",
                  "name": "anchorAddress",
                  "type": "address"
                },
                {
                  "internalType": "uint256",
                  "name": "amount",
                  "type": "uint256"
                },
                {
                  "internalType": "uint256",
                  "name": "amountUSD",
                  "type": "uint256"
                },
                {
                  "internalType": "uint256",
                  "name": "cFactor",
                  "type": "uint256"
                },
                {
                  "internalType": "uint256",
                  "name": "liquidationIncentive",
                  "type": "uint256"
                },
                {
                  "internalType": "uint8",
                  "name": "decimals",
                  "type": "uint8"
                },
                {
                  "internalType": "uint256",
                  "name": "index",
                  "type": "uint256"
                },
                {
                  "internalType": "uint256",
                  "name": "price",
                  "type": "uint256"
                },
                {
                  "internalType": "string",
                  "name": "symbol",
                  "type": "string"
                },
                {
                  "internalType": "string",
                  "name": "name",
                  "type": "string"
                }
              ],
              "internalType": "struct LibUI.CollateralAssetInfoUser[]",
              "name": "collateralAssets",
              "type": "tuple[]"
            },
            {
              "internalType": "uint256",
              "name": "healthFactor",
              "type": "uint256"
            },
            {
              "internalType": "uint256",
              "name": "debtActualUSD",
              "type": "uint256"
            },
            {
              "internalType": "uint256",
              "name": "debtUSD",
              "type": "uint256"
            },
            {
              "internalType": "uint256",
              "name": "collateralActualUSD",
              "type": "uint256"
            },
            {
              "internalType": "uint256",
              "name": "collateralUSD",
              "type": "uint256"
            },
            {
              "internalType": "uint256",
              "name": "minCollateralUSD",
              "type": "uint256"
            },
            {
              "internalType": "uint256",
              "name": "borrowingPowerUSD",
              "type": "uint256"
            }
          ],
          "internalType": "struct LibUI.KreskoUser",
          "name": "user",
          "type": "tuple"
        },
        {
          "components": [
            {
              "internalType": "address",
              "name": "token",
              "type": "address"
            },
            {
              "internalType": "uint256",
              "name": "balance",
              "type": "uint256"
            }
          ],
          "internalType": "struct LibUI.Balance[]",
          "name": "balances",
          "type": "tuple[]"
        },
        {
          "components": [
            {
              "internalType": "uint256",
              "name": "pid",
              "type": "uint256"
            },
            {
              "internalType": "address",
              "name": "depositToken",
              "type": "address"
            },
            {
              "internalType": "uint256",
              "name": "totalDeposits",
              "type": "uint256"
            },
            {
              "internalType": "uint256",
              "name": "allocPoint",
              "type": "uint256"
            },
            {
              "internalType": "uint256",
              "name": "rewardPerBlocks",
              "type": "uint256"
            },
            {
              "internalType": "uint256",
              "name": "lastRewardBlock",
              "type": "uint256"
            },
            {
              "internalType": "uint256",
              "name": "depositAmount",
              "type": "uint256"
            },
            {
              "internalType": "address[]",
              "name": "rewardTokens",
              "type": "address[]"
            },
            {
              "internalType": "uint256[]",
              "name": "rewardAmounts",
              "type": "uint256[]"
            }
          ],
          "internalType": "struct LibUI.StakingData[]",
          "name": "stakingData",
          "type": "tuple[]"
        }
      ],
      "stateMutability": "view",
      "type": "function"
    },
    {
      "inputs": [
        {
          "internalType": "address[]",
          "name": "_allTokens",
          "type": "address[]"
        },
        {
          "internalType": "address[]",
          "name": "_assets",
          "type": "address[]"
        },
        {
          "internalType": "address[]",
          "name": "_priceFeeds",
          "type": "address[]"
        },
        {
          "internalType": "address[]",
          "name": "_marketStatusOracles",
          "type": "address[]"
        }
      ],
      "name": "getTokenData",
      "outputs": [
        {
          "components": [
            {
              "internalType": "uint8",
              "name": "decimals",
              "type": "uint8"
            },
            {
              "internalType": "string",
              "name": "symbol",
              "type": "string"
            },
            {
              "internalType": "string",
              "name": "name",
              "type": "string"
            },
            {
              "internalType": "uint256",
              "name": "totalSupply",
              "type": "uint256"
            }
          ],
          "internalType": "struct LibUI.TokenMetadata[]",
          "name": "metadatas",
          "type": "tuple[]"
        },
        {
          "components": [
            {
              "internalType": "uint256",
              "name": "price",
              "type": "uint256"
            },
            {
              "internalType": "uint256",
              "name": "timestamp",
              "type": "uint256"
            },
            {
              "internalType": "address",
              "name": "assetAddress",
              "type": "address"
            },
            {
              "internalType": "uint80",
              "name": "roundId",
              "type": "uint80"
            },
            {
              "internalType": "bool",
              "name": "marketOpen",
              "type": "bool"
            }
          ],
          "internalType": "struct LibUI.Price[]",
          "name": "prices",
          "type": "tuple[]"
        }
      ],
      "stateMutability": "view",
      "type": "function"
    }
  ],
  "transactionHash": "0x44f2f5866e099b1f7204cd98e74b4bdb5ac511dd9a65ef203e604769af59500c",
  "args": [],
  "numDeployments": 6,
  "solcInputHash": "da64b2514f06331329702e90140ebd5b",
  "bytecode": "0x6080806040523461001657613748908161001c8239f35b600080fdfe6080604052600436101561001257600080fd5b6000803560e01c908163981d11da1461004a57508063ba9c6864146100455763d297f19d1461004057600080fd5b610b02565b610a50565b346101c6576060367ffffffffffffffffffffffffffffffffffffffffffffffffffffffffffffffffc01126101c65760043590610086826101c9565b60243567ffffffffffffffff81116101c2576100a6903690600401610383565b90604435906100b4826101c9565b6100bc610ba5565b5050826100c7610ba5565b926100d182612fba565b6100da84612c49565b918351158015906101b8575b610114575b85886101106101048a6100fe858b6110b3565b94611512565b60405193849384610862565b0390f35b61011096949750916100fe9391869361012f61010498612b4f565b92610139866136f6565b91610143876121f6565b9061014d88611ee4565b936101797f5076ab9fa18d2a17cfce4375a530b76392de8264a11126885cd5534d39f0a980548a6120c9565b956101826102d3565b988952602089015260408801526060870152608086015260a085015260c084015260e083015261010082015295929481946100eb565b50815115156100e6565b5080fd5b80fd5b73ffffffffffffffffffffffffffffffffffffffff8116036101e757565b600080fd5b634e487b7160e01b600052604160045260246000fd5b610120810190811067ffffffffffffffff82111761021f57604052565b6101ec565b6040810190811067ffffffffffffffff82111761021f57604052565b6060810190811067ffffffffffffffff82111761021f57604052565b60a0810190811067ffffffffffffffff82111761021f57604052565b60e0810190811067ffffffffffffffff82111761021f57604052565b610180810190811067ffffffffffffffff82111761021f57604052565b90601f8019910116810190811067ffffffffffffffff82111761021f57604052565b604051906102e082610202565b565b604051906080820182811067ffffffffffffffff82111761021f57604052565b604051906102e082610224565b604051906102e08261025c565b60405190610100820182811067ffffffffffffffff82111761021f57604052565b604051906102e082610294565b60405190610200820182811067ffffffffffffffff82111761021f57604052565b67ffffffffffffffff811161021f5760051b60200190565b81601f820112156101e75780359161039a8361036b565b926103a860405194856102b1565b808452602092838086019260051b8201019283116101e7578301905b8282106103d2575050505090565b83809183356103e0816101c9565b8152019101906103c4565b60005b8381106103fe5750506000910152565b81810151838201526020016103ee565b90602091610427815180928185528580860191016103eb565b601f017fffffffffffffffffffffffffffffffffffffffffffffffffffffffffffffffe016010190565b908082519081815260208091019281808460051b8301019501936000915b84831061047f5750505050505090565b9091929394958480600192601f198582030186528951906104a881835160018060a01b03169052565b8183015173ffffffffffffffffffffffffffffffffffffffff168184015260408281015173ffffffffffffffffffffffffffffffffffffffff1690820152606080830151908201526080808301519082015260a0808301519082015260c0808301519082015260e0808301519082015261010080830151908201526101208083015190820152610140808301519082015261016080830151908201526105766105626101808085015190610200809186015284019061040e565b6101a080850151908483039085015261040e565b916101c080820151908301526101e080910151910152980193019301919493929061046f565b908082519081815260208091019281808460051b8301019501936000915b8483106105ca5750505050505090565b90919293949584806106ad600193601f198682030187528a516105f582825160018060a01b03169052565b8084015173ffffffffffffffffffffffffffffffffffffffff168285015260408181015173ffffffffffffffffffffffffffffffffffffffff1690830152606081810151908301526080808201519083015260a0808201519083015260c0808201519083015260e08082015160ff1690830152610100808201519083015261012080820151908301526106996101408083015190610180809186015284019061040e565b91610160809201519181840391015261040e565b98019301930191949392906105ba565b90815180825260208080930193019160005b8281106106dd575050505090565b8351805173ffffffffffffffffffffffffffffffffffffffff16865282015185830152604090940193928101926001016106cf565b90815180825260208080930193019160005b828110610732575050505090565b835173ffffffffffffffffffffffffffffffffffffffff1685529381019392810192600101610724565b90815180825260208080930193019160005b82811061077c575050505090565b83518552938101939281019260010161076e565b908082519081815260208091019281808460051b8301019501936000915b8483106107be5750505050505090565b9091929394958480610852600193601f198682030187528a51805182526107f2848201518584019060018060a01b03169052565b60408082015190830152606080820151908301526080808201519083015260a0808201519083015260c0808201519083015261083e60e080830151906101208091860152840190610712565b91610100809201519181840391015261075c565b98019301930191949392906107ae565b916109259391610917916060855281516108c161088d610120928360608a0152610180890190610451565b60208501518882037fffffffffffffffffffffffffffffffffffffffffffffffffffffffffffffffa00160808a015261059c565b92604081015160a0880152606081015160c0880152608081015160e088015260a081015191610100928389015260c08201519088015260e0810151610140880152015161016086015284820360208601526106bd565b916040818403910152610790565b90565b90815180825260208080930193019160005b828110610948575050505090565b835180518652808301518684015260408082015173ffffffffffffffffffffffffffffffffffffffff169087015260608082015169ffffffffffffffffffff169087015260809081015115159086015260a0909401939281019260010161093a565b90929160409182810194838252805180965260609586830190878160051b850101956020809401926000915b8383106109f3575050505050610925949550818403910152610928565b909192939785808c600193605f198b82030187528c519160ff835116825280610a3b610a2b868601516080808988015286019061040e565b898601518582038b87015261040e565b9301519101529a0193019301919392906109d6565b346101e7576080367ffffffffffffffffffffffffffffffffffffffffffffffffffffffffffffffffc01126101e75767ffffffffffffffff6004358181116101e757610aa0903690600401610383565b6024358281116101e757610ab8903690600401610383565b6044358381116101e757610ad0903690600401610383565b906064359384116101e757610aec610af2943690600401610383565b92610d98565b90610110604051928392836109aa565b346101e7576060367ffffffffffffffffffffffffffffffffffffffffffffffffffffffffffffffffc01126101e75767ffffffffffffffff6004358181116101e757610b52903690600401610383565b906024358181116101e757610b6b903690600401610383565b916044359182116101e75761011092610b8b610b91933690600401610383565b91611a4b565b604051918291602083526020830190610928565b60405190610bb282610202565b8160608152606060208201526101006000918260408201528260608201528260808201528260a08201528260c08201528260e08201520152565b90610bf68261036b565b604090610c05825191826102b1565b8381528093610c16601f199161036b565b0190600092835b838110610c2b575050505050565b815190608082019180831067ffffffffffffffff84111761021f576020928452868152606087849180838501528087850152830152828601015201610c1d565b634e487b7160e01b600052601160045260246000fd5b7fffffffffffffffffffffffffffffffffffffffffffffffffffffffffffffffff8114610cae5760010190565b610c6b565b8051821015610cc75760209160051b010190565b634e487b7160e01b600052603260045260246000fd5b908160209103126101e7575160ff811681036101e75790565b6040513d6000823e3d90fd5b6020818303126101e757805167ffffffffffffffff918282116101e757019082601f830112156101e757815190811161021f5760405192610d6b601f83017fffffffffffffffffffffffffffffffffffffffffffffffffffffffffffffffe016602001856102b1565b818452602082840101116101e75761092591602080850191016103eb565b908160209103126101e7575190565b939092610da58551610bec565b9260005b865181101561104357610df8610ddf610ddf610dc5848b610cb3565b5173ffffffffffffffffffffffffffffffffffffffff1690565b73ffffffffffffffffffffffffffffffffffffffff1690565b906040805180809463313ce56760e01b8252602092839160049788915afa928315610f9557848c8793600096610fff575b50610ddf610ddf610dc5600094610e3f94610cb3565b82517f06fdde0300000000000000000000000000000000000000000000000000000000815293849182905afa918215610f9557858d8892600095610fcf575b50610ddf610ddf610dc5600094610e9494610cb3565b83517f95d89b4100000000000000000000000000000000000000000000000000000000815292839182905afa908115610f9557868e8692600094610f9a575b50610ddf610dc5610ee793610ddf93610cb3565b83517f18160ddd00000000000000000000000000000000000000000000000000000000815298899182905afa938415610f9557610f6197600095610f66575b50610f3b610f326102e2565b60ff9097168752565b8501528301526060820152610f508288610cb3565b52610f5b8187610cb3565b50610c81565b610da9565b81610f879296503d8711610f8e575b610f7f81836102b1565b810190610d89565b9338610f26565b503d610f75565b610cf6565b610dc5610ee793610fc4610ddf93610ddf95983d8091833e610fbc81836102b1565b810190610d02565b969350935050610ed3565b610ddf610dc5600094610ff3610ddf94610e94969a3d8091833e610fbc81836102b1565b98945094505050610e7e565b610e3f919650610ddf610dc5600094611030610ddf948a3d8c1161103c575b61102881836102b1565b810190610cdd565b99945094505050610e29565b503d61101e565b50909193610925939550611a4b565b9061105c8261036b565b60409061106b825191826102b1565b838152809361107c601f199161036b565b0191600090815b848110611091575050505050565b602090825161109f81610224565b848152828581830152828701015201611083565b91906110bf8351611052565b92600090815b81518110156111b7576110db610dc58284610cb3565b906110ef610ddf610ddf610dc58487610cb3565b6040517f70a0823100000000000000000000000000000000000000000000000000000000815273ffffffffffffffffffffffffffffffffffffffff8716600482015292906020908190859060249082905afa908115610f9557611193948792611198575b5061117b61115f610302565b73ffffffffffffffffffffffffffffffffffffffff9094168452565b8201526111888289610cb3565b52610f5b8188610cb3565b6110c5565b816111b09293503d8411610f8e57610f7f81836102b1565b9038611153565b50505050565b81601f820112156101e7578051916111d48361036b565b926111e260405194856102b1565b808452602092838086019260051b8201019283116101e7578301905b82821061120c575050505090565b838091835161121a816101c9565b8152019101906111fe565b81601f820112156101e75780519161123c8361036b565b9261124a60405194856102b1565b808452602092838086019260051b8201019283116101e7578301905b828210611274575050505090565b81518152908301908301611266565b60209081818403126101e757805167ffffffffffffffff918282116101e757019083601f830112156101e75781516112ba8161036b565b9460406112c9815197886102b1565b828752858088019360051b860101948286116101e757868101935b8685106112f657505050505050505090565b84518681116101e75782019060609081601f1984880301126101e75784519161131e83610240565b8a8401518352858401518981116101e757878c61133d928701016111bd565b8b840152830151918883116101e75761135d878c80969581960101611225565b868201528152019401936112e4565b906113768261036b565b604090611385825191826102b1565b8381528093611396601f199161036b565b019160005b8381106113a85750505050565b60209082516113b681610202565b6000815282600081830152600085830152606060008184015260006080840152600060a0840152600060c08401528060e084015261010083015282860101520161139b565b51906fffffffffffffffffffffffffffffffff821682036101e757565b906020828203126101e757815167ffffffffffffffff928382116101e757019060a0828203126101e7576040519261144f8461025c565b825161145a816101c9565b8452611468602084016113fb565b6020850152611479604084016113fb565b604085015260608301518181116101e75782611496918501611225565b606085015260808301519081116101e7576114b192016111bd565b608082015290565b906020828203126101e757815167ffffffffffffffff928382116101e75701906040828203126101e757604051926114f084610224565b8251845260208301519081116101e75761150a9201611225565b602082015290565b6040517f5ea3f4fa00000000000000000000000000000000000000000000000000000000815273ffffffffffffffffffffffffffffffffffffffff82166004820152909291906000818060248101038173ffffffffffffffffffffffffffffffffffffffff86165afa908115610f9557600091611919575b50611595815161136c565b9060005b8151811015611912578060006115b26115d39385610cb3565b515160405180948192631526fe2760e01b8352600483019190602083019252565b038173ffffffffffffffffffffffffffffffffffffffff89165afa918215610f95576000926118ed575b50815161161f9073ffffffffffffffffffffffffffffffffffffffff16610ddf565b6116298285610cb3565b5151835190919061164f9073ffffffffffffffffffffffffffffffffffffffff16610ddf565b6040517f70a0823100000000000000000000000000000000000000000000000000000000815273ffffffffffffffffffffffffffffffffffffffff891660048201529490602090869060249082905afa918215610f9557611730956000936118cc575b5060208201516fffffffffffffffffffffffffffffffff1660008c6116d7888b610cb3565b51516040517f93f1a40b000000000000000000000000000000000000000000000000000000008152600481019190915273ffffffffffffffffffffffffffffffffffffffff909116602482015297889081906044820190565b038173ffffffffffffffffffffffffffffffffffffffff8e165afa8015610f95578a976000916118a9575b505191602061176a888b610cb3565b51015193604061177a898c610cb3565b5101516040517f68e2f7b700000000000000000000000000000000000000000000000000000000815273ffffffffffffffffffffffffffffffffffffffff8481166004830152909a9197916020918c916024918391165afa918215610f95576118789a60009361187d575b506040015161182a906fffffffffffffffffffffffffffffffff165b9361180a6102d3565b998a5273ffffffffffffffffffffffffffffffffffffffff1660208a0152565b60408801526fffffffffffffffffffffffffffffffff809316606088015260808701521660a085015260c084015260e083015261010082015261186d8286610cb3565b52610f5b8185610cb3565b611599565b61182a91935060406118a06118019260203d602011610f8e57610f7f81836102b1565b949250506117e5565b6118c691503d806000833e6118be81836102b1565b8101906114b9565b3861175b565b6118e691935060203d602011610f8e57610f7f81836102b1565b91386116b2565b61190b9192503d806000833e61190381836102b1565b810190611418565b90386115fd565b5050925050565b61193691503d806000833e61192e81836102b1565b810190611283565b3861158a565b6040519061194982610224565b600382527f34303100000000000000000000000000000000000000000000000000000000006020830152565b1561197d5750565b6040517f08c379a0000000000000000000000000000000000000000000000000000000008152602060048201529081906119bb90602483019061040e565b0390fd5b906119c98261036b565b6040906119d8825191826102b1565b83815280936119e9601f199161036b565b019160005b8381106119fb5750505050565b6020908251611a098161025c565b600081528260008183015260008583015260006060830152600060808301528286010152016119ee565b908160209103126101e7575180151581036101e75790565b90929192611a658451825114611a5f61193c565b90611975565b611a6f82516119bf565b60005b8351811015611d3957611a8e610ddf610ddf610dc58487610cb3565b604080517f50d25bcd00000000000000000000000000000000000000000000000000000000815260209392909160049185908490849082905afa928315610f9557600093611d18575b50819085611aee610ddf610ddf610dc5898d610cb3565b82517f8205bf6a00000000000000000000000000000000000000000000000000000000815293849182905afa918215610f9557839187878c8c94600097611cdd575b50610ddf610dc583611b4b610dc5611b5196610ddf96610cb3565b97610cb3565b82517f668a0f0200000000000000000000000000000000000000000000000000000000815294859182905afa928315610f9557878e8a92600096611cac575b50610ddf610dc5611ba493610ddf93610cb3565b82517fc6b050c100000000000000000000000000000000000000000000000000000000815296879182905afa938415610f9557611c5c98611c4796600096611c61575b5092611c3e9492611c2a9269ffffffffffffffffffff95611c0661030f565b9a8b528a015273ffffffffffffffffffffffffffffffffffffffff90911690880152565b1669ffffffffffffffffffff166060850152565b15156080830152565b611c518285610cb3565b52610f5b8184610cb3565b611a72565b81965092611c2a92611c98611c3e979569ffffffffffffffffffff97943d8b11611ca5575b611c9081836102b1565b810190611a33565b9792955092509294611be7565b503d611c86565b610ddf919650610dc5611ba493611cd2610ddf93873d8911610f8e57610f7f81836102b1565b989350935050611b90565b610ddf919750610dc583611b4b610dc5611b5196611d0a610ddf968a3d8c11610f8e57610f7f81836102b1565b9c9650505050935050611b30565b82919350611d3290863d8811610f8e57610f7f81836102b1565b9290611ad7565b5093505050565b73ffffffffffffffffffffffffffffffffffffffff1660009081527f028c7d8c2729a6bb9150d56b34c68e690d2d010cd1f97ccb986fdd9fba86b1896020526040902090565b73ffffffffffffffffffffffffffffffffffffffff1660009081527f5076ab9fa18d2a17cfce4375a530b76392de8264a11126885cd5534d39f0a9856020526040902090565b73ffffffffffffffffffffffffffffffffffffffff1660009081527f5076ab9fa18d2a17cfce4375a530b76392de8264a11126885cd5534d39f0a98a6020526040902090565b73ffffffffffffffffffffffffffffffffffffffff1660009081527f5076ab9fa18d2a17cfce4375a530b76392de8264a11126885cd5534d39f0a9886020526040902090565b9060405191828154918282526020928383019160005283600020936000905b828210611e8d575050506102e0925003836102b1565b855473ffffffffffffffffffffffffffffffffffffffff1684526001958601958895509381019390910190611e77565b906b033b2e3c9fd0803ce8000000918201809211610cae57565b91908201809211610cae57565b73ffffffffffffffffffffffffffffffffffffffff811660009081527f5076ab9fa18d2a17cfce4375a530b76392de8264a11126885cd5534d39f0a98760205260408120909190604051808281935480845260208094019160005283600020936000905b828210611fac57505050611f5e925003826102b1565b6000925b8151841015611fa557611f99611f9f91611f92611f82610dc58887610cb3565b611f8c8188611fdc565b906125d3565b5090611ed7565b93610c81565b92611f62565b9250505090565b855473ffffffffffffffffffffffffffffffffffffffff1684526001958601958795509381019390910190611f48565b6120c2610925926120ab611fef82611d86565b93600460405195611fff87610278565b80548752600181015473ffffffffffffffffffffffffffffffffffffffff90811660208901526002820154811660408901526003820154908116606089015260ff60a082901c811660808a015261205e915b60a81c16151560a0890152565b015460c086015273ffffffffffffffffffffffffffffffffffffffff1660009081527f5076ab9fa18d2a17cfce4375a530b76392de8264a11126885cd5534d39f0a9866020526040902090565b9060018060a01b0316600052602052604060002090565b549061257e565b9190916000916120d882611dcc565b90604051808381945480845260208094019188528388209388905b82821061215c57505050612109925003836102b1565b835b825185101561214d576121416121479161213b61212b610dc58988610cb3565b612135818961233e565b9061287a565b90611ed7565b94610c81565b9361210b565b915093915061092592506121c6565b855473ffffffffffffffffffffffffffffffffffffffff16845260019586019588955093810193909101906120f3565b7812725dd1d243aba0e75fe645cc4873f9e65afe688c928e1f2181116101e7576706f05b59d3b20000670de0b6b3a7640000809202010490565b816706f05b59d3b200001904811115821517156101e757670de0b6b3a764000091026706f05b59d3b20000010490565b60009061220281611dcc565b604051808281935480845260208094019160005283600020936000905b82821061226957505050612235925003826102b1565b6000925b8151841015611fa557611f996122639161213b612259610dc58887610cb3565b612135818861233e565b92612239565b855473ffffffffffffffffffffffffffffffffffffffff168452600195860195879550938101939091019061221f565b906102e061233560076122aa61031c565b85548152600186015473ffffffffffffffffffffffffffffffffffffffff16602082015294600281015473ffffffffffffffffffffffffffffffffffffffff16604087015260038101546060870152600481015473ffffffffffffffffffffffffffffffffffffffff166080870152600581015460a0870152600681015460c0870152015460ff1690565b151560e0840152565b6124749061246e612459612443856120ab61235882611e12565b956123fd6123f4600761236961031c565b8a54815260018b015473ffffffffffffffffffffffffffffffffffffffff16602082015299600281015473ffffffffffffffffffffffffffffffffffffffff1660408c0152600381015460608c0152600481015473ffffffffffffffffffffffffffffffffffffffff1660808c0152600581015460a08c0152600681015460c08c0152015460ff1690565b151560e0890152565b73ffffffffffffffffffffffffffffffffffffffff1660009081527f028c7d8c2729a6bb9150d56b34c68e690d2d010cd1f97ccb986fdd9fba86b18a6020526040902090565b546fffffffffffffffffffffffffffffffff1690565b6fffffffffffffffffffffffffffffffff1690565b90612500565b90811561249e576109259161249361248e61249993611d40565b6129f5565b906124a5565b6124e1565b5050600090565b816b019d971e4fe8401e740000001904811115821517156101e7576b033b2e3c9fd0803ce800000091026b019d971e4fe8401e74000000010490565b90631dcd6500633b9aca00808404930610156124f957565b9060010190565b608001516040517f07a2d13a00000000000000000000000000000000000000000000000000000000815260048101929092526020908290602490829073ffffffffffffffffffffffffffffffffffffffff165afa908115610f9557600091612566575090565b610925915060203d8111610f8e57610f7f81836102b1565b6060015173ffffffffffffffffffffffffffffffffffffffff169081156125ce576020906024604051809481936303d1689d60e11b835260048301525afa908115610f9557600091612566575090565b905090565b6126a792916126b76125e76126bf93611d86565b6126b2604051936125f785610278565b82548552600183015473ffffffffffffffffffffffffffffffffffffffff90811660208701526002840154909360049161264b9086165b73ffffffffffffffffffffffffffffffffffffffff166040890152565b600381015494851673ffffffffffffffffffffffffffffffffffffffff16606088015261268a60ff6080890196612051828260a01c16899060ff169052565b015460c08601526126ad61269d86612766565b9889945160ff1690565b60ff1690565b6127f3565b6121c6565b9051906121c6565b9190565b6126a792916126b26126d76126bf93611d86565b916126ad61275c6040516126ea81610278565b85548152600186015473ffffffffffffffffffffffffffffffffffffffff90811660208301526002870154811660408301526003870154908116606083015260ff60a082901c8116608084019081529760049290916127509160a81c16151560a0850152565b015460c0820152612766565b9687945160ff1690565b6020908101516040517f50d25bcd00000000000000000000000000000000000000000000000000000000815291908290600490829073ffffffffffffffffffffffffffffffffffffffff165afa908115610f9557600091612566575090565b91908203918211610cae57565b604d8111610cae57600a0a90565b81810292918115918404141715610cae57565b601281101561281a576012039060128211610cae57612814610925926127d2565b906127e0565b60128111612826575090565b7fffffffffffffffffffffffffffffffffffffffffffffffffffffffffffffffee8101908111610cae57612859906127d2565b908115612864570490565b634e487b7160e01b600052601260045260246000fd5b906126b761288a61092593611e12565b9161293361292a600761289b61031c565b86548152600187015473ffffffffffffffffffffffffffffffffffffffff1660208201529560028101546128e49073ffffffffffffffffffffffffffffffffffffffff1661262e565b60038101546060880152600481015473ffffffffffffffffffffffffffffffffffffffff166080880152600581015460a0880152600681015460c0880152015460ff1690565b151560e0850152565b6126b283612766565b906126b261294c61092593611e12565b6129f06129e7600761295c61031c565b84548152600185015473ffffffffffffffffffffffffffffffffffffffff16602082015293600281015473ffffffffffffffffffffffffffffffffffffffff16604086015260038101546060860152600481015473ffffffffffffffffffffffffffffffffffffffff166080860152600581015460a0860152600681015460c0860152015460ff1690565b151560e0830152565b612766565b600481015473ffffffffffffffffffffffffffffffffffffffff811615612a515764ffffffffff8042169160a01c161461244357610925906fffffffffffffffffffffffffffffffff612a484283612a63565b915416906124a5565b50506b033b2e3c9fd0803ce800000090565b60048101549091612a7e9160a01c64ffffffffff16906127c5565b8015612a5157612b35612b11612b35612b30612b00612b1695612b2a612b23610925996000198401978891600060028711600014612b3a5750612b11612b1c612ad461245960026001198b01955b015460801c90565b9d8e612b11612b0a612b00612af9612aec85806124a5565b66038882915c4000900490565b93846124a5565b6301e13380900490565b978b6127e0565b6127e0565b60011c90565b9a876127e0565b6006900490565b966127e0565b611ebd565b611ed7565b612b1c612ad46124596002612b119495612acc565b612b86612b807f5076ab9fa18d2a17cfce4375a530b76392de8264a11126885cd5534d39f0a980546126b2846121f6565b91611ee4565b9080821015612b96575050600090565b8103908111610cae5790565b90612bac8261036b565b604090612bbb825191826102b1565b8381528093612bcc601f199161036b565b019160005b838110612bde5750505050565b6020908251612bec81610294565b6000815282600081830152600085830152606060008184015260006080840152600060a0840152600060c0840152600060e08401526000610100840152600061012084015280610140840152610160830152828601015201612bd1565b73ffffffffffffffffffffffffffffffffffffffff811660009081527f5076ab9fa18d2a17cfce4375a530b76392de8264a11126885cd5534d39f0a98760205260408120606093919290612ca190611e58565b611e58565b805180612cad57505050565b612cba9192939550612ba2565b9260005b8251811015612eee57612cd4610dc58285610cb3565b6040517f313ce56700000000000000000000000000000000000000000000000000000000815260049073ffffffffffffffffffffffffffffffffffffffff83169060209081818581865afa908115610f9557600091612ed1575b50612d39858a611fdc565b612d4381876126c3565b939086612d4f89611d86565b015492612d7b6003612d608b611d86565b015473ffffffffffffffffffffffffffffffffffffffff1690565b612d8c610ddf6001612d608d611d86565b612d958b611d86565b5494604051996395d89b4160e01b8b5260008b8d81845afa9a8b15610f955760009b612eb2575b506000906040519c8d80926306fdde0360e01b82525afa9a8b15610f955760009b612e95575b50612deb61033d565b73ffffffffffffffffffffffffffffffffffffffff909c168c5273ffffffffffffffffffffffffffffffffffffffff909116908b015273ffffffffffffffffffffffffffffffffffffffff1660408a01526060890152608088015260a087015260c086015260ff1660e085015284610100850152610120840152610140830152610160820152612e7b8287610cb3565b52612e868186610cb3565b50612e9090610c81565b612cbe565b612eab919b503d806000833e610fbc81836102b1565b9938612de2565b6000919b50612eca903d8084833e610fbc81836102b1565b9a90612dbc565b612ee89150823d841161103c5761102881836102b1565b38612d2e565b509293915050565b90612f008261036b565b604090612f0f825191826102b1565b8381528093612f20601f199161036b565b019160005b838110612f325750505050565b602090612f3d61034a565b6000815282600081830152600085830152606060008184015260006080840152600060a0840152600060c0840152600060e08401526000610100840152600061012084015260006101408401526000610160840152806101808401526101a083015260006101c083015260006101e0830152828601015201612f25565b606091600091612fcc612c9c82611dcc565b805180612fd857505050565b612fe59192939550612ef6565b9260005b8251811015612eee57612fff610dc58285610cb3565b61301061300b82611e12565b612299565b61301a82876133a7565b91613025818861233e565b90613030848261293c565b60009060009560009161304a610ddf6004612d6088611d40565b6132a4575b60208701516004949392919061307a9073ffffffffffffffffffffffffffffffffffffffff16610ddf565b608089015190999073ffffffffffffffffffffffffffffffffffffffff169360c08a01519860a08b01519a519460208d6040519a8b80926350d25bcd60e01b82525afa968715610f9557600499600098613283575b506040517f95d89b41000000000000000000000000000000000000000000000000000000008152996000908b908173ffffffffffffffffffffffffffffffffffffffff8f165afa998a15610f955760009a613266575b506040517f06fdde030000000000000000000000000000000000000000000000000000000081529a60008c60048173ffffffffffffffffffffffffffffffffffffffff85165afa9b8c15610f955760009c613249575b5061318461034a565b73ffffffffffffffffffffffffffffffffffffffff90911681529d8e9073ffffffffffffffffffffffffffffffffffffffff16602082015273ffffffffffffffffffffffffffffffffffffffff9091166040919091015260608d015260808c015260a08b015260c08a015260e0890152886101008901526101208801526101408701526101608601526101808501526101a08401526101c08301526101e082015261322f8287610cb3565b5261323a8186610cb3565b5061324490610c81565b612fe9565b61325f919c503d806000833e610fbc81836102b1565b9a3861317b565b61327c919a503d806000833e610fbc81836102b1565b9838613125565b61329d91985060203d602011610f8e57610f7f81836102b1565b96386130cf565b96509150506132ba6132b583611d40565b6135c8565b946132cc6132c784611d40565b6134ac565b7f5076ab9fa18d2a17cfce4375a530b76392de8264a11126885cd5534d39f0a98b5461330f90610ddf9073ffffffffffffffffffffffffffffffffffffffff1681565b6040517fb50d882c00000000000000000000000000000000000000000000000000000000815273ffffffffffffffffffffffffffffffffffffffff86166004820152670de0b6b3a764000060248201529390602090859060449082905afa8015610f9557600494600091613388575b509350909161304f565b6133a1915060203d602011610f8e57610f7f81836102b1565b3861337e565b6134a5610925926120ab6133ba82611e12565b9361345f61345660076133cb61031c565b88548152600189015473ffffffffffffffffffffffffffffffffffffffff16602082015297600281015473ffffffffffffffffffffffffffffffffffffffff1660408a0152600381015460608a0152600481015473ffffffffffffffffffffffffffffffffffffffff1660808a0152600581015460a08a0152600681015460c08a0152015460ff1690565b151560e0870152565b73ffffffffffffffffffffffffffffffffffffffff1660009081527f5076ab9fa18d2a17cfce4375a530b76392de8264a11126885cd5534d39f0a9896020526040902090565b5490612500565b6004015473ffffffffffffffffffffffffffffffffffffffff166134e36134dd6134d861294c84611e12565b61218c565b9161351b565b801561249e57600a916134f5916134f9565b0490565b8160011c90670de0b6b3a7640000908183190481118415176101e75702010490565b7f5076ab9fa18d2a17cfce4375a530b76392de8264a11126885cd5534d39f0a98b5473ffffffffffffffffffffffffffffffffffffffff9081169190821561359c5760446020926040519485938492632d43620b60e21b8452166004830152670de0b6b3a764000060248301525afa908115610f9557600091612566575090565b505050600090565b9190916fffffffffffffffffffffffffffffffff80809416911601918211610cae57565b6135d1816134ac565b80156136b0576136486135e8612459845460801c90565b8083119283156136a257906135fc916127c5565b612493600185015461363f61245961362760028901546fffffffffffffffffffffffffffffffff1690565b6fffffffffffffffffffffffffffffffff84166135a4565b9060801c6136d0565b9061367057612b3561245960036109259401546fffffffffffffffffffffffffffffffff1690565b61369c61369661245960036109259501546fffffffffffffffffffffffffffffffff1690565b91611ebd565b906136d0565b6136ab916127c5565b6135fc565b5060030154610925906fffffffffffffffffffffffffffffffff16612459565b8160011c906b033b2e3c9fd0803ce8000000908183190481118415176101e75702010490565b613702612b80826121f6565b90801561249e57610925916134f956fea26469706673582212202c3d80b82f43d62754331b740beb0f020654586995dfba6cf0ca13c2cbc337ce64736f6c63430008130033",
  "devdoc": {
    "author": "Kresko",
    "kind": "dev",
    "methods": {},
    "title": "UIDataProviderFacet",
    "version": 1
  },
  "userdoc": {
    "kind": "user",
    "methods": {},
    "notice": "UI data aggregation views",
    "version": 1
  },
  "storageLayout": {
    "storage": [],
    "types": null
  }
}