{
  "address": "0x6616bCd10D7ec950B51C731a464C9F9202Af0540",
  "abi": [
    {
      "inputs": [
        {
          "internalType": "address[]",
          "name": "_assets",
          "type": "address[]"
        },
        {
          "internalType": "contract AggregatorV2V3Interface[]",
          "name": "_oracles",
          "type": "address[]"
        }
      ],
      "name": "batchPrices",
      "outputs": [
        {
          "components": [
            {
              "internalType": "uint256",
              "name": "price",
              "type": "uint256"
            },
            {
              "internalType": "uint256",
              "name": "timestamp",
              "type": "uint256"
            },
            {
              "internalType": "address",
              "name": "assetAddress",
              "type": "address"
            },
            {
              "internalType": "uint80",
              "name": "roundId",
              "type": "uint80"
            }
          ],
          "internalType": "struct LibUI.Price[]",
          "name": "result",
          "type": "tuple[]"
        }
      ],
      "stateMutability": "view",
      "type": "function"
    },
    {
      "inputs": [
        {
          "internalType": "address",
          "name": "_account",
          "type": "address"
        },
        {
          "internalType": "contract IERC20Upgradeable[]",
          "name": "_tokens",
          "type": "address[]"
        }
      ],
      "name": "getAccountData",
      "outputs": [
        {
          "components": [
            {
              "components": [
                {
                  "internalType": "address",
                  "name": "assetAddress",
                  "type": "address"
                },
                {
                  "internalType": "address",
                  "name": "oracleAddress",
                  "type": "address"
                },
                {
                  "internalType": "uint256",
                  "name": "amount",
                  "type": "uint256"
                },
                {
                  "components": [
                    {
                      "internalType": "uint256",
                      "name": "rawValue",
                      "type": "uint256"
                    }
                  ],
                  "internalType": "struct FixedPoint.Unsigned",
                  "name": "amountUSD",
                  "type": "tuple"
                },
                {
                  "internalType": "uint256",
                  "name": "index",
                  "type": "uint256"
                },
                {
                  "components": [
                    {
                      "internalType": "uint256",
                      "name": "rawValue",
                      "type": "uint256"
                    }
                  ],
                  "internalType": "struct FixedPoint.Unsigned",
                  "name": "kFactor",
                  "type": "tuple"
                },
                {
                  "internalType": "bool",
                  "name": "mintable",
                  "type": "bool"
                },
                {
                  "internalType": "uint256",
                  "name": "price",
                  "type": "uint256"
                },
                {
                  "internalType": "string",
                  "name": "symbol",
                  "type": "string"
                },
                {
                  "internalType": "string",
                  "name": "name",
                  "type": "string"
                }
              ],
              "internalType": "struct LibUI.krAssetInfoUser[]",
              "name": "krAssets",
              "type": "tuple[]"
            },
            {
              "components": [
                {
                  "internalType": "address",
                  "name": "assetAddress",
                  "type": "address"
                },
                {
                  "internalType": "address",
                  "name": "oracleAddress",
                  "type": "address"
                },
                {
                  "internalType": "uint256",
                  "name": "amount",
                  "type": "uint256"
                },
                {
                  "components": [
                    {
                      "internalType": "uint256",
                      "name": "rawValue",
                      "type": "uint256"
                    }
                  ],
                  "internalType": "struct FixedPoint.Unsigned",
                  "name": "amountUSD",
                  "type": "tuple"
                },
                {
                  "components": [
                    {
                      "internalType": "uint256",
                      "name": "rawValue",
                      "type": "uint256"
                    }
                  ],
                  "internalType": "struct FixedPoint.Unsigned",
                  "name": "cFactor",
                  "type": "tuple"
                },
                {
                  "internalType": "uint8",
                  "name": "decimals",
                  "type": "uint8"
                },
                {
                  "internalType": "uint256",
                  "name": "index",
                  "type": "uint256"
                },
                {
                  "internalType": "uint256",
                  "name": "price",
                  "type": "uint256"
                },
                {
                  "internalType": "string",
                  "name": "symbol",
                  "type": "string"
                },
                {
                  "internalType": "string",
                  "name": "name",
                  "type": "string"
                }
              ],
              "internalType": "struct LibUI.CollateralAssetInfoUser[]",
              "name": "collateralAssets",
              "type": "tuple[]"
            },
            {
              "components": [
                {
                  "internalType": "uint256",
                  "name": "rawValue",
                  "type": "uint256"
                }
              ],
              "internalType": "struct FixedPoint.Unsigned",
              "name": "healthFactor",
              "type": "tuple"
            },
            {
              "components": [
                {
                  "internalType": "uint256",
                  "name": "rawValue",
                  "type": "uint256"
                }
              ],
              "internalType": "struct FixedPoint.Unsigned",
              "name": "debtActualUSD",
              "type": "tuple"
            },
            {
              "components": [
                {
                  "internalType": "uint256",
                  "name": "rawValue",
                  "type": "uint256"
                }
              ],
              "internalType": "struct FixedPoint.Unsigned",
              "name": "debtUSD",
              "type": "tuple"
            },
            {
              "components": [
                {
                  "internalType": "uint256",
                  "name": "rawValue",
                  "type": "uint256"
                }
              ],
              "internalType": "struct FixedPoint.Unsigned",
              "name": "collateralActualUSD",
              "type": "tuple"
            },
            {
              "components": [
                {
                  "internalType": "uint256",
                  "name": "rawValue",
                  "type": "uint256"
                }
              ],
              "internalType": "struct FixedPoint.Unsigned",
              "name": "collateralUSD",
              "type": "tuple"
            },
            {
              "components": [
                {
                  "internalType": "uint256",
                  "name": "rawValue",
                  "type": "uint256"
                }
              ],
              "internalType": "struct FixedPoint.Unsigned",
              "name": "minCollateralUSD",
              "type": "tuple"
            },
            {
              "components": [
                {
                  "internalType": "uint256",
                  "name": "rawValue",
                  "type": "uint256"
                }
              ],
              "internalType": "struct FixedPoint.Unsigned",
              "name": "borrowingPowerUSD",
              "type": "tuple"
            }
          ],
          "internalType": "struct LibUI.KreskoUser",
          "name": "user",
          "type": "tuple"
        },
        {
          "components": [
            {
              "internalType": "address",
              "name": "token",
              "type": "address"
            },
            {
              "internalType": "uint256",
              "name": "balance",
              "type": "uint256"
            }
          ],
          "internalType": "struct LibUI.Balance[]",
          "name": "balances",
          "type": "tuple[]"
        },
        {
          "components": [
            {
              "internalType": "uint256",
              "name": "pid",
              "type": "uint256"
            },
            {
              "internalType": "address",
              "name": "depositToken",
              "type": "address"
            },
            {
              "internalType": "uint256",
              "name": "totalDeposits",
              "type": "uint256"
            },
            {
              "internalType": "uint256",
              "name": "allocPoint",
              "type": "uint256"
            },
            {
              "internalType": "uint256[]",
              "name": "rewardPerBlocks",
              "type": "uint256[]"
            },
            {
              "internalType": "uint256",
              "name": "lastRewardBlock",
              "type": "uint256"
            },
            {
              "internalType": "uint256",
              "name": "depositAmount",
              "type": "uint256"
            },
            {
              "internalType": "address[]",
              "name": "rewardTokens",
              "type": "address[]"
            },
            {
              "internalType": "uint256[]",
              "name": "rewardAmounts",
              "type": "uint256[]"
            }
          ],
          "internalType": "struct LibUI.StakingData[]",
          "name": "stakingData",
          "type": "tuple[]"
        }
      ],
      "stateMutability": "view",
      "type": "function"
    },
    {
      "inputs": [
        {
          "internalType": "address",
          "name": "_account",
          "type": "address"
        },
        {
          "internalType": "address",
          "name": "_asset",
          "type": "address"
        },
        {
          "internalType": "contract AggregatorV2V3Interface",
          "name": "oracle",
          "type": "address"
        }
      ],
      "name": "getGenericInfo",
      "outputs": [
        {
          "components": [
            {
              "internalType": "address",
              "name": "assetAddress",
              "type": "address"
            },
            {
              "components": [
                {
                  "internalType": "uint256",
                  "name": "rawValue",
                  "type": "uint256"
                }
              ],
              "internalType": "struct FixedPoint.Unsigned",
              "name": "kFactor",
              "type": "tuple"
            },
            {
              "components": [
                {
                  "internalType": "uint256",
                  "name": "rawValue",
                  "type": "uint256"
                }
              ],
              "internalType": "struct FixedPoint.Unsigned",
              "name": "cFactor",
              "type": "tuple"
            },
            {
              "internalType": "uint256",
              "name": "price",
              "type": "uint256"
            },
            {
              "internalType": "bool",
              "name": "isKrAsset",
              "type": "bool"
            },
            {
              "internalType": "bool",
              "name": "isCollateral",
              "type": "bool"
            },
            {
              "internalType": "uint256",
              "name": "debtAmount",
              "type": "uint256"
            },
            {
              "internalType": "uint256",
              "name": "depositAmount",
              "type": "uint256"
            },
            {
              "internalType": "uint256",
              "name": "walletBalance",
              "type": "uint256"
            }
          ],
          "internalType": "struct LibUI.GenericInfo",
          "name": "result",
          "type": "tuple"
        }
      ],
      "stateMutability": "view",
      "type": "function"
    },
    {
      "inputs": [
        {
          "internalType": "address[]",
          "name": "_collateralAssets",
          "type": "address[]"
        },
        {
          "internalType": "address[]",
          "name": "_krAssets",
          "type": "address[]"
        }
      ],
      "name": "getGlobalData",
      "outputs": [
        {
          "components": [
            {
              "internalType": "address",
              "name": "assetAddress",
              "type": "address"
            },
            {
              "internalType": "address",
              "name": "oracleAddress",
              "type": "address"
            },
            {
              "internalType": "uint256",
              "name": "price",
              "type": "uint256"
            },
            {
              "internalType": "uint256",
              "name": "value",
              "type": "uint256"
            },
            {
              "components": [
                {
                  "internalType": "uint256",
                  "name": "rawValue",
                  "type": "uint256"
                }
              ],
              "internalType": "struct FixedPoint.Unsigned",
              "name": "cFactor",
              "type": "tuple"
            },
            {
              "internalType": "uint8",
              "name": "decimals",
              "type": "uint8"
            },
            {
              "internalType": "string",
              "name": "symbol",
              "type": "string"
            },
            {
              "internalType": "string",
              "name": "name",
              "type": "string"
            }
          ],
          "internalType": "struct LibUI.CollateralAssetInfo[]",
          "name": "collateralAssets",
          "type": "tuple[]"
        },
        {
          "components": [
            {
              "internalType": "address",
              "name": "oracleAddress",
              "type": "address"
            },
            {
              "internalType": "address",
              "name": "assetAddress",
              "type": "address"
            },
            {
              "internalType": "uint256",
              "name": "price",
              "type": "uint256"
            },
            {
              "internalType": "uint256",
              "name": "value",
              "type": "uint256"
            },
            {
              "components": [
                {
                  "internalType": "uint256",
                  "name": "rawValue",
                  "type": "uint256"
                }
              ],
              "internalType": "struct FixedPoint.Unsigned",
              "name": "kFactor",
              "type": "tuple"
            },
            {
              "internalType": "string",
              "name": "symbol",
              "type": "string"
            },
            {
              "internalType": "string",
              "name": "name",
              "type": "string"
            }
          ],
          "internalType": "struct LibUI.krAssetInfo[]",
          "name": "krAssets",
          "type": "tuple[]"
        },
        {
          "components": [
            {
              "internalType": "uint256",
              "name": "liqMultiplier",
              "type": "uint256"
            },
            {
              "internalType": "uint256",
              "name": "minDebtAmount",
              "type": "uint256"
            },
            {
              "internalType": "uint256",
              "name": "minCollateralRatio",
              "type": "uint256"
            },
            {
              "internalType": "uint256",
              "name": "liquidationThreshold",
              "type": "uint256"
            }
          ],
          "internalType": "struct LibUI.ProtocolParams",
          "name": "protocolParams",
          "type": "tuple"
        }
      ],
      "stateMutability": "view",
      "type": "function"
    },
    {
      "inputs": [
        {
          "internalType": "address[]",
          "name": "_pairAddresses",
          "type": "address[]"
        }
      ],
      "name": "getPairsData",
      "outputs": [
        {
          "components": [
            {
              "internalType": "uint8",
              "name": "decimals0",
              "type": "uint8"
            },
            {
              "internalType": "uint8",
              "name": "decimals1",
              "type": "uint8"
            },
            {
              "internalType": "uint256",
              "name": "reserve0",
              "type": "uint256"
            },
            {
              "internalType": "uint256",
              "name": "reserve1",
              "type": "uint256"
            },
            {
              "internalType": "uint256",
              "name": "totalSupply",
              "type": "uint256"
            }
          ],
          "internalType": "struct LibUI.PairData[]",
          "name": "result",
          "type": "tuple[]"
        }
      ],
      "stateMutability": "view",
      "type": "function"
    },
    {
      "inputs": [
        {
          "internalType": "contract IERC20Upgradeable[]",
          "name": "_allTokens",
          "type": "address[]"
        },
        {
          "internalType": "address[]",
          "name": "_assets",
          "type": "address[]"
        },
        {
          "internalType": "contract AggregatorV2V3Interface[]",
          "name": "_oracles",
          "type": "address[]"
        }
      ],
      "name": "getTokenData",
      "outputs": [
        {
          "components": [
            {
              "internalType": "uint8",
              "name": "decimals",
              "type": "uint8"
            },
            {
              "internalType": "string",
              "name": "symbol",
              "type": "string"
            },
            {
              "internalType": "string",
              "name": "name",
              "type": "string"
            },
            {
              "internalType": "uint256",
              "name": "totalSupply",
              "type": "uint256"
            }
          ],
          "internalType": "struct LibUI.TokenMetadata[]",
          "name": "metadatas",
          "type": "tuple[]"
        },
        {
          "components": [
            {
              "internalType": "uint256",
              "name": "price",
              "type": "uint256"
            },
            {
              "internalType": "uint256",
              "name": "timestamp",
              "type": "uint256"
            },
            {
              "internalType": "address",
              "name": "assetAddress",
              "type": "address"
            },
            {
              "internalType": "uint80",
              "name": "roundId",
              "type": "uint80"
            }
          ],
          "internalType": "struct LibUI.Price[]",
          "name": "prices",
          "type": "tuple[]"
        }
      ],
      "stateMutability": "view",
      "type": "function"
    },
    {
      "inputs": [
        {
          "internalType": "contract IKrStaking",
          "name": "_staking",
          "type": "address"
        }
      ],
      "name": "initialize",
      "outputs": [],
      "stateMutability": "nonpayable",
      "type": "function"
    }
  ],
  "transactionHash": "0x4540f107225ecca0f9a84b1787408f2abefa32a814f3fd0ddd070dd088143829",
  "args": [],
  "numDeployments": 1,
  "solcInputHash": "982b6a22f97b2c235980e50ae289fa10",
  "bytecode": "0x608060405234801561001057600080fd5b5061675480620000216000396000f3fe608060405234801561001057600080fd5b506004361061007d5760003560e01c8063bef9ea751161005b578063bef9ea7514610112578063c4d66de814610144578063f857a06b14610160578063fe42d845146101915761007d565b8063782353901461008257806378d33ebd146100b2578063ac1e25fb146100e2575b600080fd5b61009c60048036038101906100979190613f85565b6101c3565b6040516100a9919061411a565b60405180910390f35b6100cc60048036038101906100c7919061417a565b610577565b6040516100d991906142ca565b60405180910390f35b6100fc60048036038101906100f79190614397565b6109b1565b6040516101099190614541565b60405180910390f35b61012c60048036038101906101279190614664565b6109c9565b60405161013b93929190614f2b565b60405180910390f35b61015e60048036038101906101599190614fb5565b6109fd565b005b61017a60048036038101906101759190614fe2565b610b23565b6040516101889291906151bf565b60405180910390f35b6101ab60048036038101906101a691906151f6565b610e21565b6040516101ba939291906155a1565b60405180910390f35b6060815167ffffffffffffffff8111156101e0576101df613de4565b5b60405190808252806020026020018201604052801561021957816020015b610206613957565b8152602001906001900390816101fe5790505b50905060005b825181101561057157600083828151811061023d5761023c6155e6565b5b6020026020010151905060008173ffffffffffffffffffffffffffffffffffffffff16630dfe16816040518163ffffffff1660e01b8152600401602060405180830381865afa158015610294573d6000803e3d6000fd5b505050506040513d601f19601f820116820180604052508101906102b8919061562a565b905060008273ffffffffffffffffffffffffffffffffffffffff1663d21220a76040518163ffffffff1660e01b8152600401602060405180830381865afa158015610307573d6000803e3d6000fd5b505050506040513d601f19601f8201168201806040525081019061032b919061562a565b90506000808473ffffffffffffffffffffffffffffffffffffffff16630902f1ac6040518163ffffffff1660e01b8152600401606060405180830381865afa15801561037b573d6000803e3d6000fd5b505050506040513d601f19601f8201168201806040525081019061039f91906156d9565b50915091506040518060a001604052808573ffffffffffffffffffffffffffffffffffffffff1663313ce5676040518163ffffffff1660e01b8152600401602060405180830381865afa1580156103fa573d6000803e3d6000fd5b505050506040513d601f19601f8201168201806040525081019061041e9190615758565b60ff1681526020018473ffffffffffffffffffffffffffffffffffffffff1663313ce5676040518163ffffffff1660e01b8152600401602060405180830381865afa158015610471573d6000803e3d6000fd5b505050506040513d601f19601f820116820180604052508101906104959190615758565b60ff168152602001836dffffffffffffffffffffffffffff168152602001826dffffffffffffffffffffffffffff1681526020018673ffffffffffffffffffffffffffffffffffffffff166318160ddd6040518163ffffffff1660e01b8152600401602060405180830381865afa158015610514573d6000803e3d6000fd5b505050506040513d601f19601f8201168201806040525081019061053891906157b1565b81525087878151811061054e5761054d6155e6565b5b6020026020010181905250505050505080806105699061580d565b91505061021f565b50919050565b61057f61398c565b60003090506040518061012001604052808573ffffffffffffffffffffffffffffffffffffffff1681526020018273ffffffffffffffffffffffffffffffffffffffff1663d7bfcecd876040518263ffffffff1660e01b81526004016105e59190615864565b60c060405180830381865afa158015610602573d6000803e3d6000fd5b505050506040513d601f19601f8201168201806040525081019061062691906159a6565b6000015181526020018273ffffffffffffffffffffffffffffffffffffffff166353909727876040518263ffffffff1660e01b81526004016106689190615864565b60a060405180830381865afa158015610685573d6000803e3d6000fd5b505050506040513d601f19601f820116820180604052508101906106a99190615a5f565b6000015181526020018473ffffffffffffffffffffffffffffffffffffffff166350d25bcd6040518163ffffffff1660e01b8152600401602060405180830381865afa1580156106fd573d6000803e3d6000fd5b505050506040513d601f19601f820116820180604052508101906107219190615ac2565b81526020018273ffffffffffffffffffffffffffffffffffffffff16639b177c19876040518263ffffffff1660e01b815260040161075f9190615864565b602060405180830381865afa15801561077c573d6000803e3d6000fd5b505050506040513d601f19601f820116820180604052508101906107a09190615aef565b151581526020018273ffffffffffffffffffffffffffffffffffffffff1663a61d1d51876040518263ffffffff1660e01b81526004016107e09190615864565b602060405180830381865afa1580156107fd573d6000803e3d6000fd5b505050506040513d601f19601f820116820180604052508101906108219190615aef565b151581526020018273ffffffffffffffffffffffffffffffffffffffff166334923cd888886040518363ffffffff1660e01b8152600401610863929190615b1c565b602060405180830381865afa158015610880573d6000803e3d6000fd5b505050506040513d601f19601f820116820180604052508101906108a491906157b1565b81526020018273ffffffffffffffffffffffffffffffffffffffff16630c65e07b88886040518363ffffffff1660e01b81526004016108e4929190615b1c565b602060405180830381865afa158015610901573d6000803e3d6000fd5b505050506040513d601f19601f8201168201806040525081019061092591906157b1565b81526020018573ffffffffffffffffffffffffffffffffffffffff166370a08231886040518263ffffffff1660e01b81526004016109639190615864565b602060405180830381865afa158015610980573d6000803e3d6000fd5b505050506040513d601f19601f820116820180604052508101906109a491906157b1565b8152509150509392505050565b60606109bf85858585610ea4565b9050949350505050565b6109d16139fe565b6060806109dd8561109f565b92506109e984866111a5565b91506109f48561131a565b90509250925092565b610a0561183c565b60060160009054906101000a900473ffffffffffffffffffffffffffffffffffffffff1673ffffffffffffffffffffffffffffffffffffffff16610a47611869565b73ffffffffffffffffffffffffffffffffffffffff16146040518060400160405280602081526020017f6b724469616d6f6e643a204d757374206265206469616d6f6e64206f776e657281525090610ad5576040517f08c379a0000000000000000000000000000000000000000000000000000000008152600401610acc9190615b8f565b60405180910390fd5b5080610adf611919565b60000160006101000a81548173ffffffffffffffffffffffffffffffffffffffff021916908373ffffffffffffffffffffffffffffffffffffffff16021790555050565b606080865167ffffffffffffffff811115610b4157610b40613de4565b5b604051908082528060200260200182016040528015610b7a57816020015b610b67613a74565b815260200190600190039081610b5f5790505b50915060005b8751811015610e08576040518060800160405280898381518110610ba757610ba66155e6565b5b602002602001015173ffffffffffffffffffffffffffffffffffffffff1663313ce5676040518163ffffffff1660e01b8152600401602060405180830381865afa158015610bf9573d6000803e3d6000fd5b505050506040513d601f19601f82011682018060405250810190610c1d9190615758565b60ff168152602001898381518110610c3857610c376155e6565b5b602002602001015173ffffffffffffffffffffffffffffffffffffffff166395d89b416040518163ffffffff1660e01b8152600401600060405180830381865afa158015610c8a573d6000803e3d6000fd5b505050506040513d6000823e3d601f19601f82011682018060405250810190610cb39190615c57565b8152602001898381518110610ccb57610cca6155e6565b5b602002602001015173ffffffffffffffffffffffffffffffffffffffff166306fdde036040518163ffffffff1660e01b8152600401600060405180830381865afa158015610d1d573d6000803e3d6000fd5b505050506040513d6000823e3d601f19601f82011682018060405250810190610d469190615c57565b8152602001898381518110610d5e57610d5d6155e6565b5b602002602001015173ffffffffffffffffffffffffffffffffffffffff166318160ddd6040518163ffffffff1660e01b8152600401602060405180830381865afa158015610db0573d6000803e3d6000fd5b505050506040513d601f19601f82011682018060405250810190610dd491906157b1565b815250838281518110610dea57610de96155e6565b5b60200260200101819052508080610e009061580d565b915050610b80565b50610e1586868686610ea4565b90509550959350505050565b606080610e2c613a9f565b610e3585611946565b9250610e4084611d81565b91506040518060800160405280610e5561216e565b600301600001548152602001610e6961216e565b600501600001548152602001610e7d61216e565b600401600001548152602001610e9161216e565b6006016000015481525090509250925092565b6060828290508585905014610eee576040517f08c379a0000000000000000000000000000000000000000000000000000000008152600401610ee590615cec565b60405180910390fd5b8484905067ffffffffffffffff811115610f0b57610f0a613de4565b5b604051908082528060200260200182016040528015610f4457816020015b610f31613ac7565b815260200190600190039081610f295790505b50905060005b85859050811015611096576000806000868685818110610f6d57610f6c6155e6565b5b9050602002016020810190610f829190615d0c565b73ffffffffffffffffffffffffffffffffffffffff1663feaf968c6040518163ffffffff1660e01b815260040160a060405180830381865afa158015610fcc573d6000803e3d6000fd5b505050506040513d601f19601f82011682018060405250810190610ff09190615d65565b509350509250925060405180608001604052808381526020018281526020018a8a87818110611022576110216155e6565b5b90506020020160208101906110379190615de0565b73ffffffffffffffffffffffffffffffffffffffff1681526020018469ffffffffffffffffffff16815250858581518110611075576110746155e6565b5b6020026020010181905250505050808061108e9061580d565b915050610f4a565b50949350505050565b6110a76139fe565b6000806110b38461219b565b915091506000806110c386612719565b915091506000845111806110d8575060008251115b1561119c576040518061012001604052808581526020018381526020016110fe88612c15565b81526020018481526020016111238861111561216e565b612ca890919063ffffffff16565b81526020018281526020016111488861113a61216e565b612e8390919063ffffffff16565b81526020016111888861115961216e565b60040160405180602001604052908160008201548152505061117961216e565b6130659092919063ffffffff16565b81526020016111968861309b565b81525094505b50505050919050565b6060825167ffffffffffffffff8111156111c2576111c1613de4565b5b6040519080825280602002602001820160405280156111fb57816020015b6111e8613b11565b8152602001906001900390816111e05790505b50905060005b8351811015611313576040518060400160405280858381518110611228576112276155e6565b5b602002602001015173ffffffffffffffffffffffffffffffffffffffff16815260200185838151811061125e5761125d6155e6565b5b602002602001015173ffffffffffffffffffffffffffffffffffffffff166370a08231866040518263ffffffff1660e01b815260040161129e9190615864565b602060405180830381865afa1580156112bb573d6000803e3d6000fd5b505050506040513d601f19601f820116820180604052508101906112df91906157b1565b8152508282815181106112f5576112f46155e6565b5b6020026020010181905250808061130b9061580d565b915050611201565b5092915050565b60606000611326611919565b60000160009054906101000a900473ffffffffffffffffffffffffffffffffffffffff1673ffffffffffffffffffffffffffffffffffffffff16635ea3f4fa846040518263ffffffff1660e01b81526004016113829190615864565b600060405180830381865afa15801561139f573d6000803e3d6000fd5b505050506040513d6000823e3d601f19601f820116820180604052508101906113c891906160e4565b9050805167ffffffffffffffff8111156113e5576113e4613de4565b5b60405190808252806020026020018201604052801561141e57816020015b61140b613b41565b8152602001906001900390816114035790505b50915060005b8151811015611835576000611437611919565b60000160009054906101000a900473ffffffffffffffffffffffffffffffffffffffff1673ffffffffffffffffffffffffffffffffffffffff166393f1a40b848481518110611489576114886155e6565b5b602002602001015160000151876040518363ffffffff1660e01b81526004016114b392919061613c565b600060405180830381865afa1580156114d0573d6000803e3d6000fd5b505050506040513d6000823e3d601f19601f820116820180604052508101906114f991906161d1565b90506000611505611919565b60000160009054906101000a900473ffffffffffffffffffffffffffffffffffffffff1673ffffffffffffffffffffffffffffffffffffffff16631526fe27858581518110611557576115566155e6565b5b6020026020010151600001516040518263ffffffff1660e01b815260040161157f919061621a565b600060405180830381865afa15801561159c573d6000803e3d6000fd5b505050506040513d6000823e3d601f19601f820116820180604052508101906115c5919061637f565b90506000816000015190506040518061012001604052808686815181106115ef576115ee6155e6565b5b60200260200101516000015181526020018273ffffffffffffffffffffffffffffffffffffffff168152602001836000015173ffffffffffffffffffffffffffffffffffffffff166370a08231611644611919565b60000160009054906101000a900473ffffffffffffffffffffffffffffffffffffffff166040518263ffffffff1660e01b81526004016116849190615864565b602060405180830381865afa1580156116a1573d6000803e3d6000fd5b505050506040513d601f19601f820116820180604052508101906116c591906157b1565b815260200183602001516fffffffffffffffffffffffffffffffff1681526020016116ee611919565b60000160009054906101000a900473ffffffffffffffffffffffffffffffffffffffff1673ffffffffffffffffffffffffffffffffffffffff166368e2f7b7846040518263ffffffff1660e01b815260040161174a9190615864565b600060405180830381865afa158015611767573d6000803e3d6000fd5b505050506040513d6000823e3d601f19601f8201168201806040525081019061179091906163c8565b815260200183604001516fffffffffffffffffffffffffffffffff168152602001846000015181526020018686815181106117ce576117cd6155e6565b5b60200260200101516020015181526020018686815181106117f2576117f16155e6565b5b602002602001015160400151815250868581518110611814576118136155e6565b5b6020026020010181905250505050808061182d9061580d565b915050611424565b5050919050565b6000807f080f9836d135d84bdc1ee0b4214e5f2ae76516c41178c6f14a73685c9c3e5f0990508091505090565b60003073ffffffffffffffffffffffffffffffffffffffff163373ffffffffffffffffffffffffffffffffffffffff160361191257600080368080601f016020809104026020016040519081016040528093929190818152602001838380828437600081840152601f19601f820116905080830192505050505050509050600080369050905073ffffffffffffffffffffffffffffffffffffffff818301511692505050611916565b3390505b90565b6000807f06a596d583a92e48422d2c01d2a77cb16a138de33963ac14566707e50a97cf4090508091505090565b6060815167ffffffffffffffff81111561196357611962613de4565b5b60405190808252806020026020018201604052801561199c57816020015b611989613ba3565b8152602001906001900390816119815790505b50905060005b8251811015611d7b5760008382815181106119c0576119bf6155e6565b5b6020026020010151905060006119d461216e565b60090160008373ffffffffffffffffffffffffffffffffffffffff1673ffffffffffffffffffffffffffffffffffffffff1681526020019081526020016000206040518060a00160405290816000820160405180602001604052908160008201548152505081526020016001820160009054906101000a900473ffffffffffffffffffffffffffffffffffffffff1673ffffffffffffffffffffffffffffffffffffffff1673ffffffffffffffffffffffffffffffffffffffff1681526020016002820160009054906101000a900473ffffffffffffffffffffffffffffffffffffffff1673ffffffffffffffffffffffffffffffffffffffff1673ffffffffffffffffffffffffffffffffffffffff1681526020016002820160149054906101000a900460ff1660ff1660ff1681526020016002820160159054906101000a900460ff161515151581525050905060008273ffffffffffffffffffffffffffffffffffffffff1663313ce5676040518163ffffffff1660e01b8152600401602060405180830381865afa158015611b70573d6000803e3d6000fd5b505050506040513d601f19601f82011682018060405250810190611b949190615758565b905060008373ffffffffffffffffffffffffffffffffffffffff166395d89b416040518163ffffffff1660e01b8152600401600060405180830381865afa158015611be3573d6000803e3d6000fd5b505050506040513d6000823e3d601f19601f82011682018060405250810190611c0c9190615c57565b9050600080611c488685600a611c229190616544565b6001611c2e919061658f565b6000611c3861216e565b61314e909392919063ffffffff16565b9150915060008673ffffffffffffffffffffffffffffffffffffffff166306fdde036040518163ffffffff1660e01b8152600401600060405180830381865afa158015611c99573d6000803e3d6000fd5b505050506040513d6000823e3d601f19601f82011682018060405250810190611cc29190615c57565b905060006040518061010001604052808973ffffffffffffffffffffffffffffffffffffffff168152602001886020015173ffffffffffffffffffffffffffffffffffffffff1681526020018460000151815260200185600001518152602001886000015181526020018760ff168152602001868152602001838152509050808a8a81518110611d5557611d546155e6565b5b602002602001018190525050505050505050508080611d739061580d565b9150506119a2565b50919050565b6060815167ffffffffffffffff811115611d9e57611d9d613de4565b5b604051908082528060200260200182016040528015611dd757816020015b611dc4613c1d565b815260200190600190039081611dbc5790505b50905060005b8251811015612168576000838281518110611dfb57611dfa6155e6565b5b602002602001015190506000611e0f61216e565b600c0160008373ffffffffffffffffffffffffffffffffffffffff1673ffffffffffffffffffffffffffffffffffffffff1681526020019081526020016000206040518060c00160405290816000820160405180602001604052908160008201548152505081526020016001820160009054906101000a900473ffffffffffffffffffffffffffffffffffffffff1673ffffffffffffffffffffffffffffffffffffffff1673ffffffffffffffffffffffffffffffffffffffff168152602001600282015481526020016003820160405180602001604052908160008201548152505081526020016004820160009054906101000a900460ff161515151581526020016004820160019054906101000a900460ff16151515158152505090506000611f5783670de0b6b3a76400006000611f4761216e565b61339c909392919063ffffffff16565b90506000826020015173ffffffffffffffffffffffffffffffffffffffff166350d25bcd6040518163ffffffff1660e01b8152600401602060405180830381865afa158015611faa573d6000803e3d6000fd5b505050506040513d601f19601f82011682018060405250810190611fce9190615ac2565b905060008473ffffffffffffffffffffffffffffffffffffffff166306fdde036040518163ffffffff1660e01b8152600401600060405180830381865afa15801561201d573d6000803e3d6000fd5b505050506040513d6000823e3d601f19601f820116820180604052508101906120469190615c57565b905060008573ffffffffffffffffffffffffffffffffffffffff166395d89b416040518163ffffffff1660e01b8152600401600060405180830381865afa158015612095573d6000803e3d6000fd5b505050506040513d6000823e3d601f19601f820116820180604052508101906120be9190615c57565b905060006040518060e00160405280876020015173ffffffffffffffffffffffffffffffffffffffff1681526020018873ffffffffffffffffffffffffffffffffffffffff168152602001858152602001866000015181526020018760000151815260200183815260200184815250905080898981518110612143576121426155e6565b5b60200260200101819052505050505050505080806121609061580d565b915050611ddd565b50919050565b6000807f5076ab9fa18d2a17cfce4375a530b76392de8264a11126885cd5534d39f0a97c90508091505090565b60606121a5613c8c565b60006121af61216e565b600e0160008573ffffffffffffffffffffffffffffffffffffffff1673ffffffffffffffffffffffffffffffffffffffff16815260200190815260200160002080548060200260200160405190810160405280929190818152602001828054801561226f57602002820191906000526020600020905b8160009054906101000a900473ffffffffffffffffffffffffffffffffffffffff1673ffffffffffffffffffffffffffffffffffffffff1681526020019060010190808311612225575b5050505050905060008151111561271357805167ffffffffffffffff81111561229b5761229a613de4565b5b6040519080825280602002602001820160405280156122d457816020015b6122c1613c9f565b8152602001906001900390816122b95790505b50925060005b81518110156127115760008282815181106122f8576122f76155e6565b5b60200260200101519050600061230c61216e565b600c0160008373ffffffffffffffffffffffffffffffffffffffff1673ffffffffffffffffffffffffffffffffffffffff1681526020019081526020016000206040518060c00160405290816000820160405180602001604052908160008201548152505081526020016001820160009054906101000a900473ffffffffffffffffffffffffffffffffffffffff1673ffffffffffffffffffffffffffffffffffffffff1673ffffffffffffffffffffffffffffffffffffffff168152602001600282015481526020016003820160405180602001604052908160008201548152505081526020016004820160009054906101000a900460ff161515151581526020016004820160019054906101000a900460ff1615151515815250509050600061243561216e565b600d0160008973ffffffffffffffffffffffffffffffffffffffff1673ffffffffffffffffffffffffffffffffffffffff16815260200190815260200160002060008473ffffffffffffffffffffffffffffffffffffffff1673ffffffffffffffffffffffffffffffffffffffff1681526020019081526020016000205490506000826020015173ffffffffffffffffffffffffffffffffffffffff166350d25bcd6040518163ffffffff1660e01b8152600401602060405180830381865afa158015612506573d6000803e3d6000fd5b505050506040513d601f19601f8201168201806040525081019061252a9190615ac2565b9050600061254d8584600161253d61216e565b61339c909392919063ffffffff16565b905060008573ffffffffffffffffffffffffffffffffffffffff166395d89b416040518163ffffffff1660e01b8152600401600060405180830381865afa15801561259c573d6000803e3d6000fd5b505050506040513d6000823e3d601f19601f820116820180604052508101906125c59190615c57565b905060008673ffffffffffffffffffffffffffffffffffffffff166306fdde036040518163ffffffff1660e01b8152600401600060405180830381865afa158015612614573d6000803e3d6000fd5b505050506040513d6000823e3d601f19601f8201168201806040525081019061263d9190615c57565b905060006040518061014001604052808973ffffffffffffffffffffffffffffffffffffffff168152602001886020015173ffffffffffffffffffffffffffffffffffffffff1681526020018781526020018581526020018a8152602001886000015181526020018860800151151581526020018681526020018481526020018381525090506126d6848c61359d90919063ffffffff16565b50808c8a815181106126eb576126ea6155e6565b5b6020026020010181905250505050505050505080806127099061580d565b9150506122da565b505b50915091565b6060612723613c8c565b600061273f8461273161216e565b6135d690919063ffffffff16565b9050600081511115612c0f57805167ffffffffffffffff81111561276657612765613de4565b5b60405190808252806020026020018201604052801561279f57816020015b61278c613d2c565b8152602001906001900390816127845790505b50925060005b8151811015612c0d5760008282815181106127c3576127c26155e6565b5b6020026020010151905060006127d761216e565b60090160008373ffffffffffffffffffffffffffffffffffffffff1673ffffffffffffffffffffffffffffffffffffffff1681526020019081526020016000206040518060a00160405290816000820160405180602001604052908160008201548152505081526020016001820160009054906101000a900473ffffffffffffffffffffffffffffffffffffffff1673ffffffffffffffffffffffffffffffffffffffff1673ffffffffffffffffffffffffffffffffffffffff1681526020016002820160009054906101000a900473ffffffffffffffffffffffffffffffffffffffff1673ffffffffffffffffffffffffffffffffffffffff1673ffffffffffffffffffffffffffffffffffffffff1681526020016002820160149054906101000a900460ff1660ff1660ff1681526020016002820160159054906101000a900460ff161515151581525050905060008273ffffffffffffffffffffffffffffffffffffffff1663313ce5676040518163ffffffff1660e01b8152600401602060405180830381865afa158015612973573d6000803e3d6000fd5b505050506040513d601f19601f820116820180604052508101906129979190615758565b905060006129a361216e565b600a0160008a73ffffffffffffffffffffffffffffffffffffffff1673ffffffffffffffffffffffffffffffffffffffff16815260200190815260200160002060008573ffffffffffffffffffffffffffffffffffffffff1673ffffffffffffffffffffffffffffffffffffffff16815260200190815260200160002054905060008473ffffffffffffffffffffffffffffffffffffffff166395d89b416040518163ffffffff1660e01b8152600401600060405180830381865afa158015612a70573d6000803e3d6000fd5b505050506040513d6000823e3d601f19601f82011682018060405250810190612a999190615c57565b9050600080612abd87856001612aad61216e565b61314e909392919063ffffffff16565b9150915060008773ffffffffffffffffffffffffffffffffffffffff166306fdde036040518163ffffffff1660e01b8152600401600060405180830381865afa158015612b0e573d6000803e3d6000fd5b505050506040513d6000823e3d601f19601f82011682018060405250810190612b379190615c57565b905060006040518061014001604052808a73ffffffffffffffffffffffffffffffffffffffff168152602001896020015173ffffffffffffffffffffffffffffffffffffffff168152602001878152602001858152602001896000015181526020018860ff1681526020018b815260200184600001518152602001868152602001838152509050612bd1848d61359d90919063ffffffff16565b50808d8b81518110612be657612be56155e6565b5b60200260200101819052505050505050505050508080612c059061580d565b9150506127a5565b505b50915091565b612c1d613c8c565b6000612c3983612c2b61216e565b612ca890919063ffffffff16565b90506000612c5784612c4961216e565b612e8390919063ffffffff16565b9050612c6d6000836136a690919063ffffffff16565b15612c8e57612c8582826136c390919063ffffffff16565b92505050612ca3565b60405180602001604052806000815250925050505b919050565b612cb0613c8c565b6000604051806020016040528060008152509050600084600e0160008573ffffffffffffffffffffffffffffffffffffffff1673ffffffffffffffffffffffffffffffffffffffff168152602001908152602001600020805480602002602001604051908101604052809291908181526020018280548015612d8757602002820191906000526020600020905b8160009054906101000a900473ffffffffffffffffffffffffffffffffffffffff1673ffffffffffffffffffffffffffffffffffffffff1681526020019060010190808311612d3d575b5050505050905060005b8151811015612e77576000828281518110612daf57612dae6155e6565b5b60200260200101519050612e61612e528289600d0160008a73ffffffffffffffffffffffffffffffffffffffff1673ffffffffffffffffffffffffffffffffffffffff16815260200190815260200160002060008573ffffffffffffffffffffffffffffffffffffffff1673ffffffffffffffffffffffffffffffffffffffff1681526020019081526020016000205460008b61339c909392919063ffffffff16565b8561359d90919063ffffffff16565b9350508080612e6f9061580d565b915050612d91565b50819250505092915050565b612e8b613c8c565b6000604051806020016040528060008152509050600084600b0160008573ffffffffffffffffffffffffffffffffffffffff1673ffffffffffffffffffffffffffffffffffffffff168152602001908152602001600020805480602002602001604051908101604052809291908181526020018280548015612f6257602002820191906000526020600020905b8160009054906101000a900473ffffffffffffffffffffffffffffffffffffffff1673ffffffffffffffffffffffffffffffffffffffff1681526020019060010190808311612f18575b5050505050905060005b8151811015613059576000828281518110612f8a57612f896155e6565b5b60200260200101519050600061302c8289600a0160008a73ffffffffffffffffffffffffffffffffffffffff1673ffffffffffffffffffffffffffffffffffffffff16815260200190815260200160002060008573ffffffffffffffffffffffffffffffffffffffff1673ffffffffffffffffffffffffffffffffffffffff1681526020019081526020016000205460008b61314e909392919063ffffffff16565b509050613042818661359d90919063ffffffff16565b9450505080806130519061580d565b915050612f6c565b50819250505092915050565b61306d613c8c565b613092826130848587612ca890919063ffffffff16565b61371b90919063ffffffff16565b90509392505050565b6130a3613c8c565b60006130e0836130b161216e565b6004016040518060200160405290816000820154815250506130d161216e565b6130659092919063ffffffff16565b905060006130fe846130f061216e565b612e8390919063ffffffff16565b9050613113828261376c90919063ffffffff16565b15613131576040518060200160405280600081525092505050613149565b613144828261378190919063ffffffff16565b925050505b919050565b613156613c8c565b61315e613c8c565b60008660090160008773ffffffffffffffffffffffffffffffffffffffff1673ffffffffffffffffffffffffffffffffffffffff1681526020019081526020016000206040518060a00160405290816000820160405180602001604052908160008201548152505081526020016001820160009054906101000a900473ffffffffffffffffffffffffffffffffffffffff1673ffffffffffffffffffffffffffffffffffffffff1673ffffffffffffffffffffffffffffffffffffffff1681526020016002820160009054906101000a900473ffffffffffffffffffffffffffffffffffffffff1673ffffffffffffffffffffffffffffffffffffffff1673ffffffffffffffffffffffffffffffffffffffff1681526020016002820160149054906101000a900460ff1660ff1660ff1681526020016002820160159054906101000a900460ff161515151581525050905060006132cc86836060015160ff166137ba90919063ffffffff16565b905060006040518060200160405280846020015173ffffffffffffffffffffffffffffffffffffffff166350d25bcd6040518163ffffffff1660e01b8152600401602060405180830381865afa15801561332a573d6000803e3d6000fd5b505050506040513d601f19601f8201168201806040525081019061334e9190615ac2565b81525090506000613368828461371b90919063ffffffff16565b9050866133895761338684600001518261371b90919063ffffffff16565b90505b8082955095505050505094509492505050565b6133a4613c8c565b600085600c0160008673ffffffffffffffffffffffffffffffffffffffff1673ffffffffffffffffffffffffffffffffffffffff1681526020019081526020016000206040518060c00160405290816000820160405180602001604052908160008201548152505081526020016001820160009054906101000a900473ffffffffffffffffffffffffffffffffffffffff1673ffffffffffffffffffffffffffffffffffffffff1673ffffffffffffffffffffffffffffffffffffffff168152602001600282015481526020016003820160405180602001604052908160008201548152505081526020016004820160009054906101000a900460ff161515151581526020016004820160019054906101000a900460ff161515151581525050905060006040518060200160405280836020015173ffffffffffffffffffffffffffffffffffffffff166350d25bcd6040518163ffffffff1660e01b8152600401602060405180830381865afa158015613522573d6000803e3d6000fd5b505050506040513d601f19601f820116820180604052508101906135469190615ac2565b8152509050600061356e8260405180602001604052808981525061371b90919063ffffffff16565b90508461358f5761358c83600001518261371b90919063ffffffff16565b90505b809350505050949350505050565b6135a5613c8c565b60405180602001604052806135cb8460000151866000015161385890919063ffffffff16565b815250905092915050565b606082600b0160008373ffffffffffffffffffffffffffffffffffffffff1673ffffffffffffffffffffffffffffffffffffffff16815260200190815260200160002080548060200260200160405190810160405280929190818152602001828054801561369957602002820191906000526020600020905b8160009054906101000a900473ffffffffffffffffffffffffffffffffffffffff1673ffffffffffffffffffffffffffffffffffffffff168152602001906001019080831161364f575b5050505050905092915050565b60006136b18261386e565b60000151836000015111905092915050565b6136cb613c8c565b604051806020016040528061371084600001516137026012600a6136ef91906165e9565b88600001516138ab90919063ffffffff16565b6138c190919063ffffffff16565b815250905092915050565b613723613c8c565b60405180602001604052806012600a61373c91906165e9565b613757856000015187600001516138ab90919063ffffffff16565b6137619190616663565b815250905092915050565b60008160000151836000015110905092915050565b613789613c8c565b60405180602001604052806137af846000015186600001516138d790919063ffffffff16565b815250905092915050565b6137c2613c8c565b600060405180602001604052808481525090506012841015613811576138098460126137ee9190616694565b600a6137fa91906165e9565b826138ed90919063ffffffff16565b915050613852565b601284111561384d5761384560128561382a9190616694565b600a61383691906165e9565b8261392290919063ffffffff16565b915050613852565b809150505b92915050565b6000818361386691906166c8565b905092915050565b613876613c8c565b60405180602001604052806138a16012600a61389291906165e9565b856138ab90919063ffffffff16565b8152509050919050565b600081836138b9919061658f565b905092915050565b600081836138cf9190616663565b905092915050565b600081836138e59190616694565b905092915050565b6138f5613c8c565b60405180602001604052806139178486600001516138ab90919063ffffffff16565b815250905092915050565b61392a613c8c565b604051806020016040528061394c8486600001516138c190919063ffffffff16565b815250905092915050565b6040518060a00160405280600060ff168152602001600060ff1681526020016000815260200160008152602001600081525090565b604051806101200160405280600073ffffffffffffffffffffffffffffffffffffffff1681526020016139bd613c8c565b81526020016139ca613c8c565b8152602001600081526020016000151581526020016000151581526020016000815260200160008152602001600081525090565b6040518061012001604052806060815260200160608152602001613a20613c8c565b8152602001613a2d613c8c565b8152602001613a3a613c8c565b8152602001613a47613c8c565b8152602001613a54613c8c565b8152602001613a61613c8c565b8152602001613a6e613c8c565b81525090565b6040518060800160405280600060ff1681526020016060815260200160608152602001600081525090565b6040518060800160405280600081526020016000815260200160008152602001600081525090565b60405180608001604052806000815260200160008152602001600073ffffffffffffffffffffffffffffffffffffffff168152602001600069ffffffffffffffffffff1681525090565b6040518060400160405280600073ffffffffffffffffffffffffffffffffffffffff168152602001600081525090565b60405180610120016040528060008152602001600073ffffffffffffffffffffffffffffffffffffffff168152602001600081526020016000815260200160608152602001600081526020016000815260200160608152602001606081525090565b604051806101000160405280600073ffffffffffffffffffffffffffffffffffffffff168152602001600073ffffffffffffffffffffffffffffffffffffffff1681526020016000815260200160008152602001613bff613c8c565b8152602001600060ff16815260200160608152602001606081525090565b6040518060e00160405280600073ffffffffffffffffffffffffffffffffffffffff168152602001600073ffffffffffffffffffffffffffffffffffffffff1681526020016000815260200160008152602001613c78613c8c565b815260200160608152602001606081525090565b6040518060200160405280600081525090565b604051806101400160405280600073ffffffffffffffffffffffffffffffffffffffff168152602001600073ffffffffffffffffffffffffffffffffffffffff16815260200160008152602001613cf4613c8c565b815260200160008152602001613d08613c8c565b81526020016000151581526020016000815260200160608152602001606081525090565b604051806101400160405280600073ffffffffffffffffffffffffffffffffffffffff168152602001600073ffffffffffffffffffffffffffffffffffffffff16815260200160008152602001613d81613c8c565b8152602001613d8e613c8c565b8152602001600060ff168152602001600081526020016000815260200160608152602001606081525090565b6000604051905090565b600080fd5b600080fd5b600080fd5b6000601f19601f8301169050919050565b7f4e487b7100000000000000000000000000000000000000000000000000000000600052604160045260246000fd5b613e1c82613dd3565b810181811067ffffffffffffffff82111715613e3b57613e3a613de4565b5b80604052505050565b6000613e4e613dba565b9050613e5a8282613e13565b919050565b600067ffffffffffffffff821115613e7a57613e79613de4565b5b602082029050602081019050919050565b600080fd5b600073ffffffffffffffffffffffffffffffffffffffff82169050919050565b6000613ebb82613e90565b9050919050565b613ecb81613eb0565b8114613ed657600080fd5b50565b600081359050613ee881613ec2565b92915050565b6000613f01613efc84613e5f565b613e44565b90508083825260208201905060208402830185811115613f2457613f23613e8b565b5b835b81811015613f4d5780613f398882613ed9565b845260208401935050602081019050613f26565b5050509392505050565b600082601f830112613f6c57613f6b613dce565b5b8135613f7c848260208601613eee565b91505092915050565b600060208284031215613f9b57613f9a613dc4565b5b600082013567ffffffffffffffff811115613fb957613fb8613dc9565b5b613fc584828501613f57565b91505092915050565b600081519050919050565b600082825260208201905092915050565b6000819050602082019050919050565b600060ff82169050919050565b61401081613ffa565b82525050565b6000819050919050565b61402981614016565b82525050565b60a0820160008201516140456000850182614007565b5060208201516140586020850182614007565b50604082015161406b6040850182614020565b50606082015161407e6060850182614020565b5060808201516140916080850182614020565b50505050565b60006140a3838361402f565b60a08301905092915050565b6000602082019050919050565b60006140c782613fce565b6140d18185613fd9565b93506140dc83613fea565b8060005b8381101561410d5781516140f48882614097565b97506140ff836140af565b9250506001810190506140e0565b5085935050505092915050565b6000602082019050818103600083015261413481846140bc565b905092915050565b600061414782613eb0565b9050919050565b6141578161413c565b811461416257600080fd5b50565b6000813590506141748161414e565b92915050565b60008060006060848603121561419357614192613dc4565b5b60006141a186828701613ed9565b93505060206141b286828701613ed9565b92505060406141c386828701614165565b9150509250925092565b6141d681613eb0565b82525050565b6020820160008201516141f26000850182614020565b50505050565b60008115159050919050565b61420d816141f8565b82525050565b6101208201600082015161422a60008501826141cd565b50602082015161423d60208501826141dc565b50604082015161425060408501826141dc565b5060608201516142636060850182614020565b5060808201516142766080850182614204565b5060a082015161428960a0850182614204565b5060c082015161429c60c0850182614020565b5060e08201516142af60e0850182614020565b506101008201516142c4610100850182614020565b50505050565b6000610120820190506142e06000830184614213565b92915050565b600080fd5b60008083601f84011261430157614300613dce565b5b8235905067ffffffffffffffff81111561431e5761431d6142e6565b5b60208301915083602082028301111561433a57614339613e8b565b5b9250929050565b60008083601f84011261435757614356613dce565b5b8235905067ffffffffffffffff811115614374576143736142e6565b5b6020830191508360208202830111156143905761438f613e8b565b5b9250929050565b600080600080604085870312156143b1576143b0613dc4565b5b600085013567ffffffffffffffff8111156143cf576143ce613dc9565b5b6143db878288016142eb565b9450945050602085013567ffffffffffffffff8111156143fe576143fd613dc9565b5b61440a87828801614341565b925092505092959194509250565b600081519050919050565b600082825260208201905092915050565b6000819050602082019050919050565b600069ffffffffffffffffffff82169050919050565b61446381614444565b82525050565b60808201600082015161447f6000850182614020565b5060208201516144926020850182614020565b5060408201516144a560408501826141cd565b5060608201516144b8606085018261445a565b50505050565b60006144ca8383614469565b60808301905092915050565b6000602082019050919050565b60006144ee82614418565b6144f88185614423565b935061450383614434565b8060005b8381101561453457815161451b88826144be565b9750614526836144d6565b925050600181019050614507565b5085935050505092915050565b6000602082019050818103600083015261455b81846144e3565b905092915050565b600067ffffffffffffffff82111561457e5761457d613de4565b5b602082029050602081019050919050565b600061459a82613eb0565b9050919050565b6145aa8161458f565b81146145b557600080fd5b50565b6000813590506145c7816145a1565b92915050565b60006145e06145db84614563565b613e44565b9050808382526020820190506020840283018581111561460357614602613e8b565b5b835b8181101561462c578061461888826145b8565b845260208401935050602081019050614605565b5050509392505050565b600082601f83011261464b5761464a613dce565b5b813561465b8482602086016145cd565b91505092915050565b6000806040838503121561467b5761467a613dc4565b5b600061468985828601613ed9565b925050602083013567ffffffffffffffff8111156146aa576146a9613dc9565b5b6146b685828601614636565b9150509250929050565b600081519050919050565b600082825260208201905092915050565b6000819050602082019050919050565b600081519050919050565b600082825260208201905092915050565b60005b8381101561472657808201518184015260208101905061470b565b83811115614735576000848401525b50505050565b6000614746826146ec565b61475081856146f7565b9350614760818560208601614708565b61476981613dd3565b840191505092915050565b60006101408301600083015161478d60008601826141cd565b5060208301516147a060208601826141cd565b5060408301516147b36040860182614020565b5060608301516147c660608601826141dc565b5060808301516147d96080860182614020565b5060a08301516147ec60a08601826141dc565b5060c08301516147ff60c0860182614204565b5060e083015161481260e0860182614020565b5061010083015184820361010086015261482c828261473b565b915050610120830151848203610120860152614848828261473b565b9150508091505092915050565b60006148618383614774565b905092915050565b6000602082019050919050565b6000614881826146c0565b61488b81856146cb565b93508360208202850161489d856146dc565b8060005b858110156148d957848403895281516148ba8582614855565b94506148c583614869565b925060208a019950506001810190506148a1565b50829750879550505050505092915050565b600081519050919050565b600082825260208201905092915050565b6000819050602082019050919050565b60006101408301600083015161493060008601826141cd565b50602083015161494360208601826141cd565b5060408301516149566040860182614020565b50606083015161496960608601826141dc565b50608083015161497c60808601826141dc565b5060a083015161498f60a0860182614007565b5060c08301516149a260c0860182614020565b5060e08301516149b560e0860182614020565b506101008301518482036101008601526149cf828261473b565b9150506101208301518482036101208601526149eb828261473b565b9150508091505092915050565b6000614a048383614917565b905092915050565b6000602082019050919050565b6000614a24826148eb565b614a2e81856148f6565b935083602082028501614a4085614907565b8060005b85811015614a7c5784840389528151614a5d85826149f8565b9450614a6883614a0c565b925060208a01995050600181019050614a44565b50829750879550505050505092915050565b6000610120830160008301518482036000860152614aac8282614876565b91505060208301518482036020860152614ac68282614a19565b9150506040830151614adb60408601826141dc565b506060830151614aee60608601826141dc565b506080830151614b0160808601826141dc565b5060a0830151614b1460a08601826141dc565b5060c0830151614b2760c08601826141dc565b5060e0830151614b3a60e08601826141dc565b50610100830151614b4f6101008601826141dc565b508091505092915050565b600081519050919050565b600082825260208201905092915050565b6000819050602082019050919050565b604082016000820151614b9c60008501826141cd565b506020820151614baf6020850182614020565b50505050565b6000614bc18383614b86565b60408301905092915050565b6000602082019050919050565b6000614be582614b5a565b614bef8185614b65565b9350614bfa83614b76565b8060005b83811015614c2b578151614c128882614bb5565b9750614c1d83614bcd565b925050600181019050614bfe565b5085935050505092915050565b600081519050919050565b600082825260208201905092915050565b6000819050602082019050919050565b600081519050919050565b600082825260208201905092915050565b6000819050602082019050919050565b6000614c9c8383614020565b60208301905092915050565b6000602082019050919050565b6000614cc082614c64565b614cca8185614c6f565b9350614cd583614c80565b8060005b83811015614d06578151614ced8882614c90565b9750614cf883614ca8565b925050600181019050614cd9565b5085935050505092915050565b600081519050919050565b600082825260208201905092915050565b6000819050602082019050919050565b6000614d4b83836141cd565b60208301905092915050565b6000602082019050919050565b6000614d6f82614d13565b614d798185614d1e565b9350614d8483614d2f565b8060005b83811015614db5578151614d9c8882614d3f565b9750614da783614d57565b925050600181019050614d88565b5085935050505092915050565b600061012083016000830151614ddb6000860182614020565b506020830151614dee60208601826141cd565b506040830151614e016040860182614020565b506060830151614e146060860182614020565b5060808301518482036080860152614e2c8282614cb5565b91505060a0830151614e4160a0860182614020565b5060c0830151614e5460c0860182614020565b5060e083015184820360e0860152614e6c8282614d64565b915050610100830151848203610100860152614e888282614cb5565b9150508091505092915050565b6000614ea18383614dc2565b905092915050565b6000602082019050919050565b6000614ec182614c38565b614ecb8185614c43565b935083602082028501614edd85614c54565b8060005b85811015614f195784840389528151614efa8582614e95565b9450614f0583614ea9565b925060208a01995050600181019050614ee1565b50829750879550505050505092915050565b60006060820190508181036000830152614f458186614a8e565b90508181036020830152614f598185614bda565b90508181036040830152614f6d8184614eb6565b9050949350505050565b6000614f8282613eb0565b9050919050565b614f9281614f77565b8114614f9d57600080fd5b50565b600081359050614faf81614f89565b92915050565b600060208284031215614fcb57614fca613dc4565b5b6000614fd984828501614fa0565b91505092915050565b600080600080600060608688031215614ffe57614ffd613dc4565b5b600086013567ffffffffffffffff81111561501c5761501b613dc9565b5b61502888828901614636565b955050602086013567ffffffffffffffff81111561504957615048613dc9565b5b615055888289016142eb565b9450945050604086013567ffffffffffffffff81111561507857615077613dc9565b5b61508488828901614341565b92509250509295509295909350565b600081519050919050565b600082825260208201905092915050565b6000819050602082019050919050565b60006080830160008301516150d76000860182614007565b50602083015184820360208601526150ef828261473b565b91505060408301518482036040860152615109828261473b565b915050606083015161511e6060860182614020565b508091505092915050565b600061513583836150bf565b905092915050565b6000602082019050919050565b600061515582615093565b61515f818561509e565b935083602082028501615171856150af565b8060005b858110156151ad578484038952815161518e8582615129565b94506151998361513d565b925060208a01995050600181019050615175565b50829750879550505050505092915050565b600060408201905081810360008301526151d9818561514a565b905081810360208301526151ed81846144e3565b90509392505050565b6000806040838503121561520d5761520c613dc4565b5b600083013567ffffffffffffffff81111561522b5761522a613dc9565b5b61523785828601613f57565b925050602083013567ffffffffffffffff81111561525857615257613dc9565b5b61526485828601613f57565b9150509250929050565b600081519050919050565b600082825260208201905092915050565b6000819050602082019050919050565b6000610100830160008301516152b360008601826141cd565b5060208301516152c660208601826141cd565b5060408301516152d96040860182614020565b5060608301516152ec6060860182614020565b5060808301516152ff60808601826141dc565b5060a083015161531260a0860182614007565b5060c083015184820360c086015261532a828261473b565b91505060e083015184820360e0860152615344828261473b565b9150508091505092915050565b600061535d838361529a565b905092915050565b6000602082019050919050565b600061537d8261526e565b6153878185615279565b9350836020820285016153998561528a565b8060005b858110156153d557848403895281516153b68582615351565b94506153c183615365565b925060208a0199505060018101905061539d565b50829750879550505050505092915050565b600081519050919050565b600082825260208201905092915050565b6000819050602082019050919050565b600060e08301600083015161542b60008601826141cd565b50602083015161543e60208601826141cd565b5060408301516154516040860182614020565b5060608301516154646060860182614020565b50608083015161547760808601826141dc565b5060a083015184820360a086015261548f828261473b565b91505060c083015184820360c08601526154a9828261473b565b9150508091505092915050565b60006154c28383615413565b905092915050565b6000602082019050919050565b60006154e2826153e7565b6154ec81856153f2565b9350836020820285016154fe85615403565b8060005b8581101561553a578484038952815161551b85826154b6565b9450615526836154ca565b925060208a01995050600181019050615502565b50829750879550505050505092915050565b6080820160008201516155626000850182614020565b5060208201516155756020850182614020565b5060408201516155886040850182614020565b50606082015161559b6060850182614020565b50505050565b600060c08201905081810360008301526155bb8186615372565b905081810360208301526155cf81856154d7565b90506155de604083018461554c565b949350505050565b7f4e487b7100000000000000000000000000000000000000000000000000000000600052603260045260246000fd5b60008151905061562481613ec2565b92915050565b6000602082840312156156405761563f613dc4565b5b600061564e84828501615615565b91505092915050565b60006dffffffffffffffffffffffffffff82169050919050565b61567a81615657565b811461568557600080fd5b50565b60008151905061569781615671565b92915050565b600063ffffffff82169050919050565b6156b68161569d565b81146156c157600080fd5b50565b6000815190506156d3816156ad565b92915050565b6000806000606084860312156156f2576156f1613dc4565b5b600061570086828701615688565b935050602061571186828701615688565b9250506040615722868287016156c4565b9150509250925092565b61573581613ffa565b811461574057600080fd5b50565b6000815190506157528161572c565b92915050565b60006020828403121561576e5761576d613dc4565b5b600061577c84828501615743565b91505092915050565b61578e81614016565b811461579957600080fd5b50565b6000815190506157ab81615785565b92915050565b6000602082840312156157c7576157c6613dc4565b5b60006157d58482850161579c565b91505092915050565b7f4e487b7100000000000000000000000000000000000000000000000000000000600052601160045260246000fd5b600061581882614016565b91507fffffffffffffffffffffffffffffffffffffffffffffffffffffffffffffffff820361584a576158496157de565b5b600182019050919050565b61585e81613eb0565b82525050565b60006020820190506158796000830184615855565b92915050565b600080fd5b600080fd5b60006020828403121561589f5761589e61587f565b5b6158a96020613e44565b905060006158b98482850161579c565b60008301525092915050565b6000815190506158d48161414e565b92915050565b6158e3816141f8565b81146158ee57600080fd5b50565b600081519050615900816158da565b92915050565b600060c0828403121561591c5761591b61587f565b5b61592660c0613e44565b9050600061593684828501615889565b600083015250602061594a848285016158c5565b602083015250604061595e8482850161579c565b604083015250606061597284828501615889565b6060830152506080615986848285016158f1565b60808301525060a061599a848285016158f1565b60a08301525092915050565b600060c082840312156159bc576159bb613dc4565b5b60006159ca84828501615906565b91505092915050565b600060a082840312156159e9576159e861587f565b5b6159f360a0613e44565b90506000615a0384828501615889565b6000830152506020615a17848285016158c5565b6020830152506040615a2b84828501615615565b6040830152506060615a3f84828501615743565b6060830152506080615a53848285016158f1565b60808301525092915050565b600060a08284031215615a7557615a74613dc4565b5b6000615a83848285016159d3565b91505092915050565b6000819050919050565b615a9f81615a8c565b8114615aaa57600080fd5b50565b600081519050615abc81615a96565b92915050565b600060208284031215615ad857615ad7613dc4565b5b6000615ae684828501615aad565b91505092915050565b600060208284031215615b0557615b04613dc4565b5b6000615b13848285016158f1565b91505092915050565b6000604082019050615b316000830185615855565b615b3e6020830184615855565b9392505050565b600082825260208201905092915050565b6000615b61826146ec565b615b6b8185615b45565b9350615b7b818560208601614708565b615b8481613dd3565b840191505092915050565b60006020820190508181036000830152615ba98184615b56565b905092915050565b600080fd5b600067ffffffffffffffff821115615bd157615bd0613de4565b5b615bda82613dd3565b9050602081019050919050565b6000615bfa615bf584615bb6565b613e44565b905082815260208101848484011115615c1657615c15615bb1565b5b615c21848285614708565b509392505050565b600082601f830112615c3e57615c3d613dce565b5b8151615c4e848260208601615be7565b91505092915050565b600060208284031215615c6d57615c6c613dc4565b5b600082015167ffffffffffffffff811115615c8b57615c8a613dc9565b5b615c9784828501615c29565b91505092915050565b7f5175657279206d75737420626520657175616c00000000000000000000000000600082015250565b6000615cd6601383615b45565b9150615ce182615ca0565b602082019050919050565b60006020820190508181036000830152615d0581615cc9565b9050919050565b600060208284031215615d2257615d21613dc4565b5b6000615d3084828501614165565b91505092915050565b615d4281614444565b8114615d4d57600080fd5b50565b600081519050615d5f81615d39565b92915050565b600080600080600060a08688031215615d8157615d80613dc4565b5b6000615d8f88828901615d50565b9550506020615da088828901615aad565b9450506040615db18882890161579c565b9350506060615dc28882890161579c565b9250506080615dd388828901615d50565b9150509295509295909350565b600060208284031215615df657615df5613dc4565b5b6000615e0484828501613ed9565b91505092915050565b600067ffffffffffffffff821115615e2857615e27613de4565b5b602082029050602081019050919050565b6000615e4c615e4784613e5f565b613e44565b90508083825260208201905060208402830185811115615e6f57615e6e613e8b565b5b835b81811015615e985780615e848882615615565b845260208401935050602081019050615e71565b5050509392505050565b600082601f830112615eb757615eb6613dce565b5b8151615ec7848260208601615e39565b91505092915050565b600067ffffffffffffffff821115615eeb57615eea613de4565b5b602082029050602081019050919050565b6000615f0f615f0a84615ed0565b613e44565b90508083825260208201905060208402830185811115615f3257615f31613e8b565b5b835b81811015615f5b5780615f47888261579c565b845260208401935050602081019050615f34565b5050509392505050565b600082601f830112615f7a57615f79613dce565b5b8151615f8a848260208601615efc565b91505092915050565b600060608284031215615fa957615fa861587f565b5b615fb36060613e44565b90506000615fc38482850161579c565b600083015250602082015167ffffffffffffffff811115615fe757615fe6615884565b5b615ff384828501615ea2565b602083015250604082015167ffffffffffffffff81111561601757616016615884565b5b61602384828501615f65565b60408301525092915050565b600061604261603d84615e0d565b613e44565b9050808382526020820190506020840283018581111561606557616064613e8b565b5b835b818110156160ac57805167ffffffffffffffff81111561608a57616089613dce565b5b8086016160978982615f93565b85526020850194505050602081019050616067565b5050509392505050565b600082601f8301126160cb576160ca613dce565b5b81516160db84826020860161602f565b91505092915050565b6000602082840312156160fa576160f9613dc4565b5b600082015167ffffffffffffffff81111561611857616117613dc9565b5b616124848285016160b6565b91505092915050565b61613681614016565b82525050565b6000604082019050616151600083018561612d565b61615e6020830184615855565b9392505050565b60006040828403121561617b5761617a61587f565b5b6161856040613e44565b905060006161958482850161579c565b600083015250602082015167ffffffffffffffff8111156161b9576161b8615884565b5b6161c584828501615f65565b60208301525092915050565b6000602082840312156161e7576161e6613dc4565b5b600082015167ffffffffffffffff81111561620557616204613dc9565b5b61621184828501616165565b91505092915050565b600060208201905061622f600083018461612d565b92915050565b600061624082613eb0565b9050919050565b61625081616235565b811461625b57600080fd5b50565b60008151905061626d81616247565b92915050565b60006fffffffffffffffffffffffffffffffff82169050919050565b61629881616273565b81146162a357600080fd5b50565b6000815190506162b58161628f565b92915050565b600060a082840312156162d1576162d061587f565b5b6162db60a0613e44565b905060006162eb8482850161625e565b60008301525060206162ff848285016162a6565b6020830152506040616313848285016162a6565b604083015250606082015167ffffffffffffffff81111561633757616336615884565b5b61634384828501615f65565b606083015250608082015167ffffffffffffffff81111561636757616366615884565b5b61637384828501615ea2565b60808301525092915050565b60006020828403121561639557616394613dc4565b5b600082015167ffffffffffffffff8111156163b3576163b2613dc9565b5b6163bf848285016162bb565b91505092915050565b6000602082840312156163de576163dd613dc4565b5b600082015167ffffffffffffffff8111156163fc576163fb613dc9565b5b61640884828501615f65565b91505092915050565b60008160011c9050919050565b6000808291508390505b600185111561646857808604811115616444576164436157de565b5b60018516156164535780820291505b808102905061646185616411565b9450616428565b94509492505050565b600082616481576001905061653d565b8161648f576000905061653d565b81600181146164a557600281146164af576164de565b600191505061653d565b60ff8411156164c1576164c06157de565b5b8360020a9150848211156164d8576164d76157de565b5b5061653d565b5060208310610133831016604e8410600b84101617156165135782820a90508381111561650e5761650d6157de565b5b61653d565b616520848484600161641e565b92509050818404811115616537576165366157de565b5b81810290505b9392505050565b600061654f82614016565b915061655a83613ffa565b92506165877fffffffffffffffffffffffffffffffffffffffffffffffffffffffffffffffff8484616471565b905092915050565b600061659a82614016565b91506165a583614016565b9250817fffffffffffffffffffffffffffffffffffffffffffffffffffffffffffffffff04831182151516156165de576165dd6157de565b5b828202905092915050565b60006165f482614016565b91506165ff83614016565b925061662c7fffffffffffffffffffffffffffffffffffffffffffffffffffffffffffffffff8484616471565b905092915050565b7f4e487b7100000000000000000000000000000000000000000000000000000000600052601260045260246000fd5b600061666e82614016565b915061667983614016565b92508261668957616688616634565b5b828204905092915050565b600061669f82614016565b91506166aa83614016565b9250828210156166bd576166bc6157de565b5b828203905092915050565b60006166d382614016565b91506166de83614016565b9250827fffffffffffffffffffffffffffffffffffffffffffffffffffffffffffffffff03821115616713576167126157de565b5b82820190509291505056fea264697066735822122083a5fadec73171d5a752b1607cf84f714278954b4fbbb2710ffa3d9c906a314764736f6c634300080e0033",
  "devdoc": {
    "kind": "dev",
    "methods": {},
    "version": 1
  },
  "userdoc": {
    "kind": "user",
    "methods": {},
    "version": 1
  },
  "storageLayout": {
    "storage": [],
    "types": null
  }
}