{
  "address": "0x6CeDDBD7fC2ab06df816ff5fE60A7ffA1f932701",
  "abi": [
    {
      "inputs": [
        {
          "internalType": "address[]",
          "name": "_assets",
          "type": "address[]"
        },
        {
          "internalType": "address[]",
          "name": "_oracles",
          "type": "address[]"
        }
      ],
      "name": "batchPrices",
      "outputs": [
        {
          "components": [
            {
              "internalType": "uint256",
              "name": "price",
              "type": "uint256"
            },
            {
              "internalType": "uint256",
              "name": "timestamp",
              "type": "uint256"
            },
            {
              "internalType": "address",
              "name": "assetAddress",
              "type": "address"
            },
            {
              "internalType": "uint80",
              "name": "roundId",
              "type": "uint80"
            }
          ],
          "internalType": "struct LibUI.Price[]",
          "name": "result",
          "type": "tuple[]"
        }
      ],
      "stateMutability": "view",
      "type": "function"
    },
    {
      "inputs": [
        {
          "internalType": "address",
          "name": "_account",
          "type": "address"
        },
        {
          "internalType": "address[]",
          "name": "_tokens",
          "type": "address[]"
        },
        {
          "internalType": "address",
          "name": "_staking",
          "type": "address"
        }
      ],
      "name": "getAccountData",
      "outputs": [
        {
          "components": [
            {
              "components": [
                {
                  "internalType": "address",
                  "name": "assetAddress",
                  "type": "address"
                },
                {
                  "internalType": "address",
                  "name": "oracleAddress",
                  "type": "address"
                },
                {
                  "internalType": "address",
                  "name": "anchorAddress",
                  "type": "address"
                },
                {
                  "internalType": "uint256",
                  "name": "amount",
                  "type": "uint256"
                },
                {
                  "components": [
                    {
                      "internalType": "uint256",
                      "name": "rawValue",
                      "type": "uint256"
                    }
                  ],
                  "internalType": "struct FixedPoint.Unsigned",
                  "name": "amountUSD",
                  "type": "tuple"
                },
                {
                  "internalType": "uint256",
                  "name": "index",
                  "type": "uint256"
                },
                {
                  "components": [
                    {
                      "internalType": "uint256",
                      "name": "rawValue",
                      "type": "uint256"
                    }
                  ],
                  "internalType": "struct FixedPoint.Unsigned",
                  "name": "kFactor",
                  "type": "tuple"
                },
                {
                  "internalType": "uint256",
                  "name": "price",
                  "type": "uint256"
                },
                {
                  "internalType": "string",
                  "name": "symbol",
                  "type": "string"
                },
                {
                  "internalType": "string",
                  "name": "name",
                  "type": "string"
                }
              ],
              "internalType": "struct LibUI.krAssetInfoUser[]",
              "name": "krAssets",
              "type": "tuple[]"
            },
            {
              "components": [
                {
                  "internalType": "address",
                  "name": "assetAddress",
                  "type": "address"
                },
                {
                  "internalType": "address",
                  "name": "oracleAddress",
                  "type": "address"
                },
                {
                  "internalType": "address",
                  "name": "anchorAddress",
                  "type": "address"
                },
                {
                  "internalType": "uint256",
                  "name": "amount",
                  "type": "uint256"
                },
                {
                  "components": [
                    {
                      "internalType": "uint256",
                      "name": "rawValue",
                      "type": "uint256"
                    }
                  ],
                  "internalType": "struct FixedPoint.Unsigned",
                  "name": "amountUSD",
                  "type": "tuple"
                },
                {
                  "components": [
                    {
                      "internalType": "uint256",
                      "name": "rawValue",
                      "type": "uint256"
                    }
                  ],
                  "internalType": "struct FixedPoint.Unsigned",
                  "name": "cFactor",
                  "type": "tuple"
                },
                {
                  "internalType": "uint8",
                  "name": "decimals",
                  "type": "uint8"
                },
                {
                  "internalType": "uint256",
                  "name": "index",
                  "type": "uint256"
                },
                {
                  "internalType": "uint256",
                  "name": "price",
                  "type": "uint256"
                },
                {
                  "internalType": "string",
                  "name": "symbol",
                  "type": "string"
                },
                {
                  "internalType": "string",
                  "name": "name",
                  "type": "string"
                }
              ],
              "internalType": "struct LibUI.CollateralAssetInfoUser[]",
              "name": "collateralAssets",
              "type": "tuple[]"
            },
            {
              "components": [
                {
                  "internalType": "uint256",
                  "name": "rawValue",
                  "type": "uint256"
                }
              ],
              "internalType": "struct FixedPoint.Unsigned",
              "name": "healthFactor",
              "type": "tuple"
            },
            {
              "components": [
                {
                  "internalType": "uint256",
                  "name": "rawValue",
                  "type": "uint256"
                }
              ],
              "internalType": "struct FixedPoint.Unsigned",
              "name": "debtActualUSD",
              "type": "tuple"
            },
            {
              "components": [
                {
                  "internalType": "uint256",
                  "name": "rawValue",
                  "type": "uint256"
                }
              ],
              "internalType": "struct FixedPoint.Unsigned",
              "name": "debtUSD",
              "type": "tuple"
            },
            {
              "components": [
                {
                  "internalType": "uint256",
                  "name": "rawValue",
                  "type": "uint256"
                }
              ],
              "internalType": "struct FixedPoint.Unsigned",
              "name": "collateralActualUSD",
              "type": "tuple"
            },
            {
              "components": [
                {
                  "internalType": "uint256",
                  "name": "rawValue",
                  "type": "uint256"
                }
              ],
              "internalType": "struct FixedPoint.Unsigned",
              "name": "collateralUSD",
              "type": "tuple"
            },
            {
              "components": [
                {
                  "internalType": "uint256",
                  "name": "rawValue",
                  "type": "uint256"
                }
              ],
              "internalType": "struct FixedPoint.Unsigned",
              "name": "minCollateralUSD",
              "type": "tuple"
            },
            {
              "components": [
                {
                  "internalType": "uint256",
                  "name": "rawValue",
                  "type": "uint256"
                }
              ],
              "internalType": "struct FixedPoint.Unsigned",
              "name": "borrowingPowerUSD",
              "type": "tuple"
            }
          ],
          "internalType": "struct LibUI.KreskoUser",
          "name": "user",
          "type": "tuple"
        },
        {
          "components": [
            {
              "internalType": "address",
              "name": "token",
              "type": "address"
            },
            {
              "internalType": "uint256",
              "name": "balance",
              "type": "uint256"
            }
          ],
          "internalType": "struct LibUI.Balance[]",
          "name": "balances",
          "type": "tuple[]"
        },
        {
          "components": [
            {
              "internalType": "uint256",
              "name": "pid",
              "type": "uint256"
            },
            {
              "internalType": "address",
              "name": "depositToken",
              "type": "address"
            },
            {
              "internalType": "uint256",
              "name": "totalDeposits",
              "type": "uint256"
            },
            {
              "internalType": "uint256",
              "name": "allocPoint",
              "type": "uint256"
            },
            {
              "internalType": "uint256[]",
              "name": "rewardPerBlocks",
              "type": "uint256[]"
            },
            {
              "internalType": "uint256",
              "name": "lastRewardBlock",
              "type": "uint256"
            },
            {
              "internalType": "uint256",
              "name": "depositAmount",
              "type": "uint256"
            },
            {
              "internalType": "address[]",
              "name": "rewardTokens",
              "type": "address[]"
            },
            {
              "internalType": "uint256[]",
              "name": "rewardAmounts",
              "type": "uint256[]"
            }
          ],
          "internalType": "struct LibUI.StakingData[]",
          "name": "stakingData",
          "type": "tuple[]"
        }
      ],
      "stateMutability": "view",
      "type": "function"
    },
    {
      "inputs": [
        {
          "internalType": "address[]",
          "name": "_collateralAssets",
          "type": "address[]"
        },
        {
          "internalType": "address[]",
          "name": "_krAssets",
          "type": "address[]"
        }
      ],
      "name": "getGlobalData",
      "outputs": [
        {
          "components": [
            {
              "internalType": "address",
              "name": "assetAddress",
              "type": "address"
            },
            {
              "internalType": "address",
              "name": "oracleAddress",
              "type": "address"
            },
            {
              "internalType": "address",
              "name": "anchorAddress",
              "type": "address"
            },
            {
              "internalType": "uint256",
              "name": "price",
              "type": "uint256"
            },
            {
              "internalType": "uint256",
              "name": "value",
              "type": "uint256"
            },
            {
              "components": [
                {
                  "internalType": "uint256",
                  "name": "rawValue",
                  "type": "uint256"
                }
              ],
              "internalType": "struct FixedPoint.Unsigned",
              "name": "cFactor",
              "type": "tuple"
            },
            {
              "internalType": "uint8",
              "name": "decimals",
              "type": "uint8"
            },
            {
              "internalType": "string",
              "name": "symbol",
              "type": "string"
            },
            {
              "internalType": "string",
              "name": "name",
              "type": "string"
            }
          ],
          "internalType": "struct LibUI.CollateralAssetInfo[]",
          "name": "collateralAssets",
          "type": "tuple[]"
        },
        {
          "components": [
            {
              "internalType": "address",
              "name": "oracleAddress",
              "type": "address"
            },
            {
              "internalType": "address",
              "name": "assetAddress",
              "type": "address"
            },
            {
              "internalType": "address",
              "name": "anchorAddress",
              "type": "address"
            },
            {
              "internalType": "uint256",
              "name": "price",
              "type": "uint256"
            },
            {
              "internalType": "uint256",
              "name": "value",
              "type": "uint256"
            },
            {
              "components": [
                {
                  "internalType": "uint256",
                  "name": "rawValue",
                  "type": "uint256"
                }
              ],
              "internalType": "struct FixedPoint.Unsigned",
              "name": "kFactor",
              "type": "tuple"
            },
            {
              "internalType": "string",
              "name": "symbol",
              "type": "string"
            },
            {
              "internalType": "string",
              "name": "name",
              "type": "string"
            }
          ],
          "internalType": "struct LibUI.krAssetInfo[]",
          "name": "krAssets",
          "type": "tuple[]"
        },
        {
          "components": [
            {
              "internalType": "uint256",
              "name": "liqMultiplier",
              "type": "uint256"
            },
            {
              "internalType": "uint256",
              "name": "minDebtValue",
              "type": "uint256"
            },
            {
              "internalType": "uint256",
              "name": "minCollateralRatio",
              "type": "uint256"
            },
            {
              "internalType": "uint256",
              "name": "liquidationThreshold",
              "type": "uint256"
            }
          ],
          "internalType": "struct LibUI.ProtocolParams",
          "name": "protocolParams",
          "type": "tuple"
        }
      ],
      "stateMutability": "view",
      "type": "function"
    },
    {
      "inputs": [
        {
          "internalType": "address[]",
          "name": "_pairAddresses",
          "type": "address[]"
        }
      ],
      "name": "getPairsData",
      "outputs": [
        {
          "components": [
            {
              "internalType": "uint8",
              "name": "decimals0",
              "type": "uint8"
            },
            {
              "internalType": "uint8",
              "name": "decimals1",
              "type": "uint8"
            },
            {
              "internalType": "uint256",
              "name": "reserve0",
              "type": "uint256"
            },
            {
              "internalType": "uint256",
              "name": "reserve1",
              "type": "uint256"
            },
            {
              "internalType": "uint256",
              "name": "totalSupply",
              "type": "uint256"
            }
          ],
          "internalType": "struct LibUI.PairData[]",
          "name": "result",
          "type": "tuple[]"
        }
      ],
      "stateMutability": "view",
      "type": "function"
    },
    {
      "inputs": [
        {
          "internalType": "address[]",
          "name": "_allTokens",
          "type": "address[]"
        },
        {
          "internalType": "address[]",
          "name": "_assets",
          "type": "address[]"
        },
        {
          "internalType": "address[]",
          "name": "_oracles",
          "type": "address[]"
        }
      ],
      "name": "getTokenData",
      "outputs": [
        {
          "components": [
            {
              "internalType": "uint8",
              "name": "decimals",
              "type": "uint8"
            },
            {
              "internalType": "string",
              "name": "symbol",
              "type": "string"
            },
            {
              "internalType": "string",
              "name": "name",
              "type": "string"
            },
            {
              "internalType": "uint256",
              "name": "totalSupply",
              "type": "uint256"
            }
          ],
          "internalType": "struct LibUI.TokenMetadata[]",
          "name": "metadatas",
          "type": "tuple[]"
        },
        {
          "components": [
            {
              "internalType": "uint256",
              "name": "price",
              "type": "uint256"
            },
            {
              "internalType": "uint256",
              "name": "timestamp",
              "type": "uint256"
            },
            {
              "internalType": "address",
              "name": "assetAddress",
              "type": "address"
            },
            {
              "internalType": "uint80",
              "name": "roundId",
              "type": "uint80"
            }
          ],
          "internalType": "struct LibUI.Price[]",
          "name": "prices",
          "type": "tuple[]"
        }
      ],
      "stateMutability": "view",
      "type": "function"
    }
  ],
  "transactionHash": "0xdafce4eacec778fc7fa895d434b7da814931bc5e8d2b7efd1823c41599ad23f5",
  "args": [],
  "numDeployments": 1,
  "solcInputHash": "83713c02c02640d2cd1e3b8340799402",
  "bytecode": "0x608060405234801561001057600080fd5b50615c5880620000216000396000f3fe608060405234801561001057600080fd5b50600436106100575760003560e01c8063782353901461005c578063981d11da1461008c578063ac1e25fb146100be578063f857a06b146100ee578063fe42d8451461011f575b600080fd5b61007660048036038101906100719190613bea565b610151565b6040516100839190613d7f565b60405180910390f35b6100a660048036038101906100a19190613da1565b610505565b6040516100b5939291906146bb565b60405180910390f35b6100d860048036038101906100d39190614707565b61053c565b6040516100e591906148a8565b60405180910390f35b610108600480360381019061010391906148ca565b610550565b604051610116929190614a9d565b60405180910390f35b61013960048036038101906101349190614707565b61084a565b60405161014893929190614e30565b60405180910390f35b6060815167ffffffffffffffff81111561016e5761016d613a49565b5b6040519080825280602002602001820160405280156101a757816020015b6101946135c2565b81526020019060019003908161018c5790505b50905060005b82518110156104ff5760008382815181106101cb576101ca614e75565b5b6020026020010151905060008173ffffffffffffffffffffffffffffffffffffffff16630dfe16816040518163ffffffff1660e01b8152600401602060405180830381865afa158015610222573d6000803e3d6000fd5b505050506040513d601f19601f820116820180604052508101906102469190614eb9565b905060008273ffffffffffffffffffffffffffffffffffffffff1663d21220a76040518163ffffffff1660e01b8152600401602060405180830381865afa158015610295573d6000803e3d6000fd5b505050506040513d601f19601f820116820180604052508101906102b99190614eb9565b90506000808473ffffffffffffffffffffffffffffffffffffffff16630902f1ac6040518163ffffffff1660e01b8152600401606060405180830381865afa158015610309573d6000803e3d6000fd5b505050506040513d601f19601f8201168201806040525081019061032d9190614f68565b50915091506040518060a001604052808573ffffffffffffffffffffffffffffffffffffffff1663313ce5676040518163ffffffff1660e01b8152600401602060405180830381865afa158015610388573d6000803e3d6000fd5b505050506040513d601f19601f820116820180604052508101906103ac9190614fe7565b60ff1681526020018473ffffffffffffffffffffffffffffffffffffffff1663313ce5676040518163ffffffff1660e01b8152600401602060405180830381865afa1580156103ff573d6000803e3d6000fd5b505050506040513d601f19601f820116820180604052508101906104239190614fe7565b60ff168152602001836dffffffffffffffffffffffffffff168152602001826dffffffffffffffffffffffffffff1681526020018673ffffffffffffffffffffffffffffffffffffffff166318160ddd6040518163ffffffff1660e01b8152600401602060405180830381865afa1580156104a2573d6000803e3d6000fd5b505050506040513d601f19601f820116820180604052508101906104c69190615040565b8152508787815181106104dc576104db614e75565b5b6020026020010181905250505050505080806104f79061509c565b9150506101ad565b50919050565b61050d6135f7565b606080610519866108cd565b925061052585876109d3565b91506105318685610b48565b905093509350939050565b60606105488383610f94565b905092915050565b606080845167ffffffffffffffff81111561056e5761056d613a49565b5b6040519080825280602002602001820160405280156105a757816020015b61059461366d565b81526020019060019003908161058c5790505b50915060005b85518110156108355760405180608001604052808783815181106105d4576105d3614e75565b5b602002602001015173ffffffffffffffffffffffffffffffffffffffff1663313ce5676040518163ffffffff1660e01b8152600401602060405180830381865afa158015610626573d6000803e3d6000fd5b505050506040513d601f19601f8201168201806040525081019061064a9190614fe7565b60ff16815260200187838151811061066557610664614e75565b5b602002602001015173ffffffffffffffffffffffffffffffffffffffff166395d89b416040518163ffffffff1660e01b8152600401600060405180830381865afa1580156106b7573d6000803e3d6000fd5b505050506040513d6000823e3d601f19601f820116820180604052508101906106e0919061518a565b81526020018783815181106106f8576106f7614e75565b5b602002602001015173ffffffffffffffffffffffffffffffffffffffff166306fdde036040518163ffffffff1660e01b8152600401600060405180830381865afa15801561074a573d6000803e3d6000fd5b505050506040513d6000823e3d601f19601f82011682018060405250810190610773919061518a565b815260200187838151811061078b5761078a614e75565b5b602002602001015173ffffffffffffffffffffffffffffffffffffffff166318160ddd6040518163ffffffff1660e01b8152600401602060405180830381865afa1580156107dd573d6000803e3d6000fd5b505050506040513d601f19601f820116820180604052508101906108019190615040565b81525083828151811061081757610816614e75565b5b6020026020010181905250808061082d9061509c565b9150506105ad565b506108408484610f94565b9050935093915050565b606080610855613698565b61085e85611127565b925061086984611570565b9150604051806080016040528061087e6119b9565b6003016000015481526020016108926119b9565b6005016000015481526020016108a66119b9565b6004016000015481526020016108ba6119b9565b6006016000015481525090509250925092565b6108d56135f7565b6000806108e1846119e6565b915091506000806108f186611fb9565b91509150600084511180610906575060008251115b156109ca5760405180610120016040528085815260200183815260200161092c88612492565b8152602001848152602001610951886109436119b9565b61252590919063ffffffff16565b8152602001828152602001610976886109686119b9565b61269690919063ffffffff16565b81526020016109b6886109876119b9565b6004016040518060200160405290816000820154815250506109a76119b9565b61280e9092919063ffffffff16565b81526020016109c488612844565b81525094505b50505050919050565b6060825167ffffffffffffffff8111156109f0576109ef613a49565b5b604051908082528060200260200182016040528015610a2957816020015b610a166136c0565b815260200190600190039081610a0e5790505b50905060005b8351811015610b41576040518060400160405280858381518110610a5657610a55614e75565b5b602002602001015173ffffffffffffffffffffffffffffffffffffffff168152602001858381518110610a8c57610a8b614e75565b5b602002602001015173ffffffffffffffffffffffffffffffffffffffff166370a08231866040518263ffffffff1660e01b8152600401610acc91906151e2565b602060405180830381865afa158015610ae9573d6000803e3d6000fd5b505050506040513d601f19601f82011682018060405250810190610b0d9190615040565b815250828281518110610b2357610b22614e75565b5b60200260200101819052508080610b399061509c565b915050610a2f565b5092915050565b6060600082905060008173ffffffffffffffffffffffffffffffffffffffff16635ea3f4fa866040518263ffffffff1660e01b8152600401610b8a91906151e2565b600060405180830381865afa158015610ba7573d6000803e3d6000fd5b505050506040513d6000823e3d601f19601f82011682018060405250810190610bd091906154de565b9050805167ffffffffffffffff811115610bed57610bec613a49565b5b604051908082528060200260200182016040528015610c2657816020015b610c136136f0565b815260200190600190039081610c0b5790505b50925060005b8151811015610f8b5760008373ffffffffffffffffffffffffffffffffffffffff16631526fe27848481518110610c6657610c65614e75565b5b6020026020010151600001516040518263ffffffff1660e01b8152600401610c8e9190615536565b600060405180830381865afa158015610cab573d6000803e3d6000fd5b505050506040513d6000823e3d601f19601f82011682018060405250810190610cd4919061569b565b9050600081600001519050604051806101200160405280858581518110610cfe57610cfd614e75565b5b60200260200101516000015181526020018273ffffffffffffffffffffffffffffffffffffffff168152602001836000015173ffffffffffffffffffffffffffffffffffffffff166370a082318a6040518263ffffffff1660e01b8152600401610d6891906151e2565b602060405180830381865afa158015610d85573d6000803e3d6000fd5b505050506040513d601f19601f82011682018060405250810190610da99190615040565b815260200183602001516fffffffffffffffffffffffffffffffff1681526020018673ffffffffffffffffffffffffffffffffffffffff166368e2f7b7846040518263ffffffff1660e01b8152600401610e0391906151e2565b600060405180830381865afa158015610e20573d6000803e3d6000fd5b505050506040513d6000823e3d601f19601f82011682018060405250810190610e4991906156e4565b815260200183604001516fffffffffffffffffffffffffffffffff1681526020018673ffffffffffffffffffffffffffffffffffffffff166393f1a40b878781518110610e9957610e98614e75565b5b6020026020010151600001518c6040518363ffffffff1660e01b8152600401610ec392919061572d565b600060405180830381865afa158015610ee0573d6000803e3d6000fd5b505050506040513d6000823e3d601f19601f82011682018060405250810190610f0991906157c2565b600001518152602001858581518110610f2557610f24614e75565b5b6020026020010151602001518152602001858581518110610f4957610f48614e75565b5b602002602001015160400151815250868481518110610f6b57610f6a614e75565b5b602002602001018190525050508080610f839061509c565b915050610c2c565b50505092915050565b6060825167ffffffffffffffff811115610fb157610fb0613a49565b5b604051908082528060200260200182016040528015610fea57816020015b610fd7613752565b815260200190600190039081610fcf5790505b50905060005b835181101561112057600080600085848151811061101157611010614e75565b5b602002602001015173ffffffffffffffffffffffffffffffffffffffff1663feaf968c6040518163ffffffff1660e01b815260040160a060405180830381865afa158015611063573d6000803e3d6000fd5b505050506040513d601f19601f82011682018060405250810190611087919061586d565b509350509250925060405180608001604052808381526020018281526020018886815181106110b9576110b8614e75565b5b602002602001015173ffffffffffffffffffffffffffffffffffffffff1681526020018469ffffffffffffffffffff168152508585815181106110ff576110fe614e75565b5b602002602001018190525050505080806111189061509c565b915050610ff0565b5092915050565b6060815167ffffffffffffffff81111561114457611143613a49565b5b60405190808252806020026020018201604052801561117d57816020015b61116a61379c565b8152602001906001900390816111625790505b50905060005b825181101561156a5760008382815181106111a1576111a0614e75565b5b6020026020010151905060006111b56119b9565b60090160008373ffffffffffffffffffffffffffffffffffffffff1673ffffffffffffffffffffffffffffffffffffffff1681526020019081526020016000206040518060a00160405290816000820160405180602001604052908160008201548152505081526020016001820160009054906101000a900473ffffffffffffffffffffffffffffffffffffffff1673ffffffffffffffffffffffffffffffffffffffff1673ffffffffffffffffffffffffffffffffffffffff1681526020016002820160009054906101000a900473ffffffffffffffffffffffffffffffffffffffff1673ffffffffffffffffffffffffffffffffffffffff1673ffffffffffffffffffffffffffffffffffffffff1681526020016002820160149054906101000a900460ff1660ff1660ff1681526020016002820160159054906101000a900460ff161515151581525050905060008273ffffffffffffffffffffffffffffffffffffffff1663313ce5676040518163ffffffff1660e01b8152600401602060405180830381865afa158015611351573d6000803e3d6000fd5b505050506040513d601f19601f820116820180604052508101906113759190614fe7565b90506000806113b18584600a61138b9190615a1b565b60016113979190615a66565b60006113a16119b9565b6128f7909392919063ffffffff16565b915091506040518061012001604052808673ffffffffffffffffffffffffffffffffffffffff168152602001856020015173ffffffffffffffffffffffffffffffffffffffff168152602001856040015173ffffffffffffffffffffffffffffffffffffffff1681526020018260000151815260200183600001518152602001856000015181526020018460ff1681526020018673ffffffffffffffffffffffffffffffffffffffff166395d89b416040518163ffffffff1660e01b8152600401600060405180830381865afa15801561148f573d6000803e3d6000fd5b505050506040513d6000823e3d601f19601f820116820180604052508101906114b8919061518a565b81526020018673ffffffffffffffffffffffffffffffffffffffff166306fdde036040518163ffffffff1660e01b8152600401600060405180830381865afa158015611508573d6000803e3d6000fd5b505050506040513d6000823e3d601f19601f82011682018060405250810190611531919061518a565b81525087878151811061154757611546614e75565b5b6020026020010181905250505050505080806115629061509c565b915050611183565b50919050565b6060815167ffffffffffffffff81111561158d5761158c613a49565b5b6040519080825280602002602001820160405280156115c657816020015b6115b3613833565b8152602001906001900390816115ab5790505b50905060005b82518110156119b35760008382815181106115ea576115e9614e75565b5b6020026020010151905060006115fe6119b9565b600c0160008373ffffffffffffffffffffffffffffffffffffffff1673ffffffffffffffffffffffffffffffffffffffff1681526020019081526020016000206040518060e00160405290816000820160405180602001604052908160008201548152505081526020016001820160009054906101000a900473ffffffffffffffffffffffffffffffffffffffff1673ffffffffffffffffffffffffffffffffffffffff1673ffffffffffffffffffffffffffffffffffffffff168152602001600282015481526020016003820160009054906101000a900473ffffffffffffffffffffffffffffffffffffffff1673ffffffffffffffffffffffffffffffffffffffff1673ffffffffffffffffffffffffffffffffffffffff1681526020016004820160405180602001604052908160008201548152505081526020016005820160405180602001604052908160008201548152505081526020016006820160009054906101000a900460ff1615151515815250509050604051806101000160405280826020015173ffffffffffffffffffffffffffffffffffffffff1681526020018373ffffffffffffffffffffffffffffffffffffffff168152602001826060015173ffffffffffffffffffffffffffffffffffffffff168152602001826020015173ffffffffffffffffffffffffffffffffffffffff166350d25bcd6040518163ffffffff1660e01b8152600401602060405180830381865afa15801561182d573d6000803e3d6000fd5b505050506040513d601f19601f820116820180604052508101906118519190615ac0565b815260200161187d84670de0b6b3a7640000600061186d6119b9565b612b45909392919063ffffffff16565b600001518152602001826000015181526020018373ffffffffffffffffffffffffffffffffffffffff166395d89b416040518163ffffffff1660e01b8152600401600060405180830381865afa1580156118db573d6000803e3d6000fd5b505050506040513d6000823e3d601f19601f82011682018060405250810190611904919061518a565b81526020018373ffffffffffffffffffffffffffffffffffffffff166306fdde036040518163ffffffff1660e01b8152600401600060405180830381865afa158015611954573d6000803e3d6000fd5b505050506040513d6000823e3d601f19601f8201168201806040525081019061197d919061518a565b81525084848151811061199357611992614e75565b5b6020026020010181905250505080806119ab9061509c565b9150506115cc565b50919050565b6000807f5076ab9fa18d2a17cfce4375a530b76392de8264a11126885cd5534d39f0a97c90508091505090565b60606119f06138c0565b60006119fa6119b9565b600e0160008573ffffffffffffffffffffffffffffffffffffffff1673ffffffffffffffffffffffffffffffffffffffff168152602001908152602001600020805480602002602001604051908101604052809291908181526020018280548015611aba57602002820191906000526020600020905b8160009054906101000a900473ffffffffffffffffffffffffffffffffffffffff1673ffffffffffffffffffffffffffffffffffffffff1681526020019060010190808311611a70575b50505050509050600081511115611fb357805167ffffffffffffffff811115611ae657611ae5613a49565b5b604051908082528060200260200182016040528015611b1f57816020015b611b0c6138d3565b815260200190600190039081611b045790505b50925060005b8151811015611fb1576000828281518110611b4357611b42614e75565b5b602002602001015190506000611b576119b9565b600c0160008373ffffffffffffffffffffffffffffffffffffffff1673ffffffffffffffffffffffffffffffffffffffff1681526020019081526020016000206040518060e00160405290816000820160405180602001604052908160008201548152505081526020016001820160009054906101000a900473ffffffffffffffffffffffffffffffffffffffff1673ffffffffffffffffffffffffffffffffffffffff1673ffffffffffffffffffffffffffffffffffffffff168152602001600282015481526020016003820160009054906101000a900473ffffffffffffffffffffffffffffffffffffffff1673ffffffffffffffffffffffffffffffffffffffff1673ffffffffffffffffffffffffffffffffffffffff1681526020016004820160405180602001604052908160008201548152505081526020016005820160405180602001604052908160008201548152505081526020016006820160009054906101000a900460ff16151515158152505090506000611cd96119b9565b600d0160008973ffffffffffffffffffffffffffffffffffffffff1673ffffffffffffffffffffffffffffffffffffffff16815260200190815260200160002060008473ffffffffffffffffffffffffffffffffffffffff1673ffffffffffffffffffffffffffffffffffffffff1681526020019081526020016000205490506000611d7a84836001611d6a6119b9565b612b45909392919063ffffffff16565b9050611d8f8188612d9f90919063ffffffff16565b506040518061014001604052808573ffffffffffffffffffffffffffffffffffffffff168152602001846020015173ffffffffffffffffffffffffffffffffffffffff168152602001846060015173ffffffffffffffffffffffffffffffffffffffff16815260200183815260200182815260200186815260200184600001518152602001846020015173ffffffffffffffffffffffffffffffffffffffff166350d25bcd6040518163ffffffff1660e01b8152600401602060405180830381865afa158015611e63573d6000803e3d6000fd5b505050506040513d601f19601f82011682018060405250810190611e879190615ac0565b81526020018573ffffffffffffffffffffffffffffffffffffffff166395d89b416040518163ffffffff1660e01b8152600401600060405180830381865afa158015611ed7573d6000803e3d6000fd5b505050506040513d6000823e3d601f19601f82011682018060405250810190611f00919061518a565b81526020018573ffffffffffffffffffffffffffffffffffffffff166306fdde036040518163ffffffff1660e01b8152600401600060405180830381865afa158015611f50573d6000803e3d6000fd5b505050506040513d6000823e3d601f19601f82011682018060405250810190611f79919061518a565b815250888681518110611f8f57611f8e614e75565b5b6020026020010181905250505050508080611fa99061509c565b915050611b25565b505b50915091565b6060611fc36138c0565b6000611fdf84611fd16119b9565b612dd890919063ffffffff16565b905060008151111561248c57805167ffffffffffffffff81111561200657612005613a49565b5b60405190808252806020026020018201604052801561203f57816020015b61202c613974565b8152602001906001900390816120245790505b50925060005b815181101561248a57600082828151811061206357612062614e75565b5b6020026020010151905060008173ffffffffffffffffffffffffffffffffffffffff1663313ce5676040518163ffffffff1660e01b8152600401602060405180830381865afa1580156120ba573d6000803e3d6000fd5b505050506040513d601f19601f820116820180604052508101906120de9190614fe7565b905060006120ea6119b9565b600a0160008973ffffffffffffffffffffffffffffffffffffffff1673ffffffffffffffffffffffffffffffffffffffff16815260200190815260200160002060008473ffffffffffffffffffffffffffffffffffffffff1673ffffffffffffffffffffffffffffffffffffffff16815260200190815260200160002054905060008061218c8584600161217c6119b9565b6128f7909392919063ffffffff16565b915091506121a38289612d9f90919063ffffffff16565b506040518061016001604052808673ffffffffffffffffffffffffffffffffffffffff1681526020016121d46119b9565b60090160008873ffffffffffffffffffffffffffffffffffffffff1673ffffffffffffffffffffffffffffffffffffffff16815260200190815260200160002060010160009054906101000a900473ffffffffffffffffffffffffffffffffffffffff1673ffffffffffffffffffffffffffffffffffffffff16815260200161225b6119b9565b60090160008873ffffffffffffffffffffffffffffffffffffffff1673ffffffffffffffffffffffffffffffffffffffff16815260200190815260200160002060020160009054906101000a900473ffffffffffffffffffffffffffffffffffffffff1673ffffffffffffffffffffffffffffffffffffffff1681526020018481526020018381526020016122ee6119b9565b60090160008873ffffffffffffffffffffffffffffffffffffffff1673ffffffffffffffffffffffffffffffffffffffff16815260200190815260200160002060000160405180602001604052908160008201548152505081526020018560ff168152602001878152602001826000015181526020018673ffffffffffffffffffffffffffffffffffffffff166395d89b416040518163ffffffff1660e01b8152600401600060405180830381865afa1580156123af573d6000803e3d6000fd5b505050506040513d6000823e3d601f19601f820116820180604052508101906123d8919061518a565b81526020018673ffffffffffffffffffffffffffffffffffffffff166306fdde036040518163ffffffff1660e01b8152600401600060405180830381865afa158015612428573d6000803e3d6000fd5b505050506040513d6000823e3d601f19601f82011682018060405250810190612451919061518a565b81525089878151811061246757612466614e75565b5b6020026020010181905250505050505080806124829061509c565b915050612045565b505b50915091565b61249a6138c0565b60006124b6836124a86119b9565b61252590919063ffffffff16565b905060006124d4846124c66119b9565b61269690919063ffffffff16565b90506124ea600083612ea890919063ffffffff16565b1561250b576125028282612ec590919063ffffffff16565b92505050612520565b60405180602001604052806000815250925050505b919050565b61252d6138c0565b6000604051806020016040528060008152509050600084600e0160008573ffffffffffffffffffffffffffffffffffffffff1673ffffffffffffffffffffffffffffffffffffffff16815260200190815260200160002080548060200260200160405190810160405280929190818152602001828054801561260457602002820191906000526020600020905b8160009054906101000a900473ffffffffffffffffffffffffffffffffffffffff1673ffffffffffffffffffffffffffffffffffffffff16815260200190600101908083116125ba575b5050505050905060005b815181101561268a57600082828151811061262c5761262b614e75565b5b602002602001015190506126746126658261265289858c612f1d9092919063ffffffff16565b60008b612b45909392919063ffffffff16565b85612d9f90919063ffffffff16565b93505080806126829061509c565b91505061260e565b50819250505092915050565b61269e6138c0565b6000604051806020016040528060008152509050600084600b0160008573ffffffffffffffffffffffffffffffffffffffff1673ffffffffffffffffffffffffffffffffffffffff16815260200190815260200160002080548060200260200160405190810160405280929190818152602001828054801561277557602002820191906000526020600020905b8160009054906101000a900473ffffffffffffffffffffffffffffffffffffffff1673ffffffffffffffffffffffffffffffffffffffff168152602001906001019080831161272b575b5050505050905060005b815181101561280257600082828151811061279d5761279c614e75565b5b6020026020010151905060006127d5826127c289858c6130849092919063ffffffff16565b60008b6128f7909392919063ffffffff16565b5090506127eb8186612d9f90919063ffffffff16565b9450505080806127fa9061509c565b91505061277f565b50819250505092915050565b6128166138c0565b61283b8261282d858761252590919063ffffffff16565b61338690919063ffffffff16565b90509392505050565b61284c6138c0565b60006128898361285a6119b9565b60040160405180602001604052908160008201548152505061287a6119b9565b61280e9092919063ffffffff16565b905060006128a7846128996119b9565b61269690919063ffffffff16565b90506128bc82826133d790919063ffffffff16565b156128da5760405180602001604052806000815250925050506128f2565b6128ed82826133ec90919063ffffffff16565b925050505b919050565b6128ff6138c0565b6129076138c0565b60008660090160008773ffffffffffffffffffffffffffffffffffffffff1673ffffffffffffffffffffffffffffffffffffffff1681526020019081526020016000206040518060a00160405290816000820160405180602001604052908160008201548152505081526020016001820160009054906101000a900473ffffffffffffffffffffffffffffffffffffffff1673ffffffffffffffffffffffffffffffffffffffff1673ffffffffffffffffffffffffffffffffffffffff1681526020016002820160009054906101000a900473ffffffffffffffffffffffffffffffffffffffff1673ffffffffffffffffffffffffffffffffffffffff1673ffffffffffffffffffffffffffffffffffffffff1681526020016002820160149054906101000a900460ff1660ff1660ff1681526020016002820160159054906101000a900460ff16151515158152505090506000612a7586836060015160ff1661342590919063ffffffff16565b905060006040518060200160405280846020015173ffffffffffffffffffffffffffffffffffffffff166350d25bcd6040518163ffffffff1660e01b8152600401602060405180830381865afa158015612ad3573d6000803e3d6000fd5b505050506040513d601f19601f82011682018060405250810190612af79190615ac0565b81525090506000612b11828461338690919063ffffffff16565b905086612b3257612b2f84600001518261338690919063ffffffff16565b90505b8082955095505050505094509492505050565b612b4d6138c0565b600085600c0160008673ffffffffffffffffffffffffffffffffffffffff1673ffffffffffffffffffffffffffffffffffffffff1681526020019081526020016000206040518060e00160405290816000820160405180602001604052908160008201548152505081526020016001820160009054906101000a900473ffffffffffffffffffffffffffffffffffffffff1673ffffffffffffffffffffffffffffffffffffffff1673ffffffffffffffffffffffffffffffffffffffff168152602001600282015481526020016003820160009054906101000a900473ffffffffffffffffffffffffffffffffffffffff1673ffffffffffffffffffffffffffffffffffffffff1673ffffffffffffffffffffffffffffffffffffffff1681526020016004820160405180602001604052908160008201548152505081526020016005820160405180602001604052908160008201548152505081526020016006820160009054906101000a900460ff161515151581525050905060006040518060200160405280836020015173ffffffffffffffffffffffffffffffffffffffff166350d25bcd6040518163ffffffff1660e01b8152600401602060405180830381865afa158015612d24573d6000803e3d6000fd5b505050506040513d601f19601f82011682018060405250810190612d489190615ac0565b81525090506000612d708260405180602001604052808981525061338690919063ffffffff16565b905084612d9157612d8e83600001518261338690919063ffffffff16565b90505b809350505050949350505050565b612da76138c0565b6040518060200160405280612dcd846000015186600001516134c390919063ffffffff16565b815250905092915050565b606082600b0160008373ffffffffffffffffffffffffffffffffffffffff1673ffffffffffffffffffffffffffffffffffffffff168152602001908152602001600020805480602002602001604051908101604052809291908181526020018280548015612e9b57602002820191906000526020600020905b8160009054906101000a900473ffffffffffffffffffffffffffffffffffffffff1673ffffffffffffffffffffffffffffffffffffffff1681526020019060010190808311612e51575b5050505050905092915050565b6000612eb3826134d9565b60000151836000015111905092915050565b612ecd6138c0565b6040518060200160405280612f128460000151612f046012600a612ef19190615aed565b886000015161351690919063ffffffff16565b61352c90919063ffffffff16565b815250905092915050565b600083600c0160008373ffffffffffffffffffffffffffffffffffffffff1673ffffffffffffffffffffffffffffffffffffffff16815260200190815260200160002060030160009054906101000a900473ffffffffffffffffffffffffffffffffffffffff1673ffffffffffffffffffffffffffffffffffffffff166307a2d13a85600d0160008673ffffffffffffffffffffffffffffffffffffffff1673ffffffffffffffffffffffffffffffffffffffff16815260200190815260200160002060008573ffffffffffffffffffffffffffffffffffffffff1673ffffffffffffffffffffffffffffffffffffffff168152602001908152602001600020546040518263ffffffff1660e01b815260040161303a9190615536565b602060405180830381865afa158015613057573d6000803e3d6000fd5b505050506040513d601f19601f8201168201806040525081019061307b9190615040565b90509392505050565b6000808460090160008473ffffffffffffffffffffffffffffffffffffffff1673ffffffffffffffffffffffffffffffffffffffff1681526020019081526020016000206040518060a00160405290816000820160405180602001604052908160008201548152505081526020016001820160009054906101000a900473ffffffffffffffffffffffffffffffffffffffff1673ffffffffffffffffffffffffffffffffffffffff1673ffffffffffffffffffffffffffffffffffffffff1681526020016002820160009054906101000a900473ffffffffffffffffffffffffffffffffffffffff1673ffffffffffffffffffffffffffffffffffffffff1673ffffffffffffffffffffffffffffffffffffffff1681526020016002820160149054906101000a900460ff1660ff1660ff1681526020016002820160159054906101000a900460ff1615151515815250509050600085600a0160008673ffffffffffffffffffffffffffffffffffffffff1673ffffffffffffffffffffffffffffffffffffffff16815260200190815260200160002060008573ffffffffffffffffffffffffffffffffffffffff1673ffffffffffffffffffffffffffffffffffffffff168152602001908152602001600020549050600073ffffffffffffffffffffffffffffffffffffffff16826040015173ffffffffffffffffffffffffffffffffffffffff1614613379578560090160008573ffffffffffffffffffffffffffffffffffffffff1673ffffffffffffffffffffffffffffffffffffffff16815260200190815260200160002060020160009054906101000a900473ffffffffffffffffffffffffffffffffffffffff1673ffffffffffffffffffffffffffffffffffffffff166307a2d13a826040518263ffffffff1660e01b815260040161332f9190615536565b602060405180830381865afa15801561334c573d6000803e3d6000fd5b505050506040513d601f19601f820116820180604052508101906133709190615040565b9250505061337f565b80925050505b9392505050565b61338e6138c0565b60405180602001604052806012600a6133a79190615aed565b6133c28560000151876000015161351690919063ffffffff16565b6133cc9190615b67565b815250905092915050565b60008160000151836000015110905092915050565b6133f46138c0565b604051806020016040528061341a8460000151866000015161354290919063ffffffff16565b815250905092915050565b61342d6138c0565b60006040518060200160405280848152509050601284101561347c576134748460126134599190615b98565b600a6134659190615aed565b8261355890919063ffffffff16565b9150506134bd565b60128411156134b8576134b06012856134959190615b98565b600a6134a19190615aed565b8261358d90919063ffffffff16565b9150506134bd565b809150505b92915050565b600081836134d19190615bcc565b905092915050565b6134e16138c0565b604051806020016040528061350c6012600a6134fd9190615aed565b8561351690919063ffffffff16565b8152509050919050565b600081836135249190615a66565b905092915050565b6000818361353a9190615b67565b905092915050565b600081836135509190615b98565b905092915050565b6135606138c0565b604051806020016040528061358284866000015161351690919063ffffffff16565b815250905092915050565b6135956138c0565b60405180602001604052806135b784866000015161352c90919063ffffffff16565b815250905092915050565b6040518060a00160405280600060ff168152602001600060ff1681526020016000815260200160008152602001600081525090565b60405180610120016040528060608152602001606081526020016136196138c0565b81526020016136266138c0565b81526020016136336138c0565b81526020016136406138c0565b815260200161364d6138c0565b815260200161365a6138c0565b81526020016136676138c0565b81525090565b6040518060800160405280600060ff1681526020016060815260200160608152602001600081525090565b6040518060800160405280600081526020016000815260200160008152602001600081525090565b6040518060400160405280600073ffffffffffffffffffffffffffffffffffffffff168152602001600081525090565b60405180610120016040528060008152602001600073ffffffffffffffffffffffffffffffffffffffff168152602001600081526020016000815260200160608152602001600081526020016000815260200160608152602001606081525090565b60405180608001604052806000815260200160008152602001600073ffffffffffffffffffffffffffffffffffffffff168152602001600069ffffffffffffffffffff1681525090565b604051806101200160405280600073ffffffffffffffffffffffffffffffffffffffff168152602001600073ffffffffffffffffffffffffffffffffffffffff168152602001600073ffffffffffffffffffffffffffffffffffffffff16815260200160008152602001600081526020016138156138c0565b8152602001600060ff16815260200160608152602001606081525090565b604051806101000160405280600073ffffffffffffffffffffffffffffffffffffffff168152602001600073ffffffffffffffffffffffffffffffffffffffff168152602001600073ffffffffffffffffffffffffffffffffffffffff16815260200160008152602001600081526020016138ac6138c0565b815260200160608152602001606081525090565b6040518060200160405280600081525090565b604051806101400160405280600073ffffffffffffffffffffffffffffffffffffffff168152602001600073ffffffffffffffffffffffffffffffffffffffff168152602001600073ffffffffffffffffffffffffffffffffffffffff168152602001600081526020016139456138c0565b8152602001600081526020016139596138c0565b81526020016000815260200160608152602001606081525090565b604051806101600160405280600073ffffffffffffffffffffffffffffffffffffffff168152602001600073ffffffffffffffffffffffffffffffffffffffff168152602001600073ffffffffffffffffffffffffffffffffffffffff168152602001600081526020016139e66138c0565b81526020016139f36138c0565b8152602001600060ff168152602001600081526020016000815260200160608152602001606081525090565b6000604051905090565b600080fd5b600080fd5b600080fd5b6000601f19601f8301169050919050565b7f4e487b7100000000000000000000000000000000000000000000000000000000600052604160045260246000fd5b613a8182613a38565b810181811067ffffffffffffffff82111715613aa057613a9f613a49565b5b80604052505050565b6000613ab3613a1f565b9050613abf8282613a78565b919050565b600067ffffffffffffffff821115613adf57613ade613a49565b5b602082029050602081019050919050565b600080fd5b600073ffffffffffffffffffffffffffffffffffffffff82169050919050565b6000613b2082613af5565b9050919050565b613b3081613b15565b8114613b3b57600080fd5b50565b600081359050613b4d81613b27565b92915050565b6000613b66613b6184613ac4565b613aa9565b90508083825260208201905060208402830185811115613b8957613b88613af0565b5b835b81811015613bb25780613b9e8882613b3e565b845260208401935050602081019050613b8b565b5050509392505050565b600082601f830112613bd157613bd0613a33565b5b8135613be1848260208601613b53565b91505092915050565b600060208284031215613c0057613bff613a29565b5b600082013567ffffffffffffffff811115613c1e57613c1d613a2e565b5b613c2a84828501613bbc565b91505092915050565b600081519050919050565b600082825260208201905092915050565b6000819050602082019050919050565b600060ff82169050919050565b613c7581613c5f565b82525050565b6000819050919050565b613c8e81613c7b565b82525050565b60a082016000820151613caa6000850182613c6c565b506020820151613cbd6020850182613c6c565b506040820151613cd06040850182613c85565b506060820151613ce36060850182613c85565b506080820151613cf66080850182613c85565b50505050565b6000613d088383613c94565b60a08301905092915050565b6000602082019050919050565b6000613d2c82613c33565b613d368185613c3e565b9350613d4183613c4f565b8060005b83811015613d72578151613d598882613cfc565b9750613d6483613d14565b925050600181019050613d45565b5085935050505092915050565b60006020820190508181036000830152613d998184613d21565b905092915050565b600080600060608486031215613dba57613db9613a29565b5b6000613dc886828701613b3e565b935050602084013567ffffffffffffffff811115613de957613de8613a2e565b5b613df586828701613bbc565b9250506040613e0686828701613b3e565b9150509250925092565b600081519050919050565b600082825260208201905092915050565b6000819050602082019050919050565b613e4581613b15565b82525050565b602082016000820151613e616000850182613c85565b50505050565b600081519050919050565b600082825260208201905092915050565b60005b83811015613ea1578082015181840152602081019050613e86565b83811115613eb0576000848401525b50505050565b6000613ec182613e67565b613ecb8185613e72565b9350613edb818560208601613e83565b613ee481613a38565b840191505092915050565b600061014083016000830151613f086000860182613e3c565b506020830151613f1b6020860182613e3c565b506040830151613f2e6040860182613e3c565b506060830151613f416060860182613c85565b506080830151613f546080860182613e4b565b5060a0830151613f6760a0860182613c85565b5060c0830151613f7a60c0860182613e4b565b5060e0830151613f8d60e0860182613c85565b50610100830151848203610100860152613fa78282613eb6565b915050610120830151848203610120860152613fc38282613eb6565b9150508091505092915050565b6000613fdc8383613eef565b905092915050565b6000602082019050919050565b6000613ffc82613e10565b6140068185613e1b565b93508360208202850161401885613e2c565b8060005b8581101561405457848403895281516140358582613fd0565b945061404083613fe4565b925060208a0199505060018101905061401c565b50829750879550505050505092915050565b600081519050919050565b600082825260208201905092915050565b6000819050602082019050919050565b6000610160830160008301516140ab6000860182613e3c565b5060208301516140be6020860182613e3c565b5060408301516140d16040860182613e3c565b5060608301516140e46060860182613c85565b5060808301516140f76080860182613e4b565b5060a083015161410a60a0860182613e4b565b5060c083015161411d60c0860182613c6c565b5060e083015161413060e0860182613c85565b50610100830151614145610100860182613c85565b5061012083015184820361012086015261415f8282613eb6565b91505061014083015184820361014086015261417b8282613eb6565b9150508091505092915050565b60006141948383614092565b905092915050565b6000602082019050919050565b60006141b482614066565b6141be8185614071565b9350836020820285016141d085614082565b8060005b8581101561420c57848403895281516141ed8582614188565b94506141f88361419c565b925060208a019950506001810190506141d4565b50829750879550505050505092915050565b600061012083016000830151848203600086015261423c8282613ff1565b9150506020830151848203602086015261425682826141a9565b915050604083015161426b6040860182613e4b565b50606083015161427e6060860182613e4b565b5060808301516142916080860182613e4b565b5060a08301516142a460a0860182613e4b565b5060c08301516142b760c0860182613e4b565b5060e08301516142ca60e0860182613e4b565b506101008301516142df610100860182613e4b565b508091505092915050565b600081519050919050565b600082825260208201905092915050565b6000819050602082019050919050565b60408201600082015161432c6000850182613e3c565b50602082015161433f6020850182613c85565b50505050565b60006143518383614316565b60408301905092915050565b6000602082019050919050565b6000614375826142ea565b61437f81856142f5565b935061438a83614306565b8060005b838110156143bb5781516143a28882614345565b97506143ad8361435d565b92505060018101905061438e565b5085935050505092915050565b600081519050919050565b600082825260208201905092915050565b6000819050602082019050919050565b600081519050919050565b600082825260208201905092915050565b6000819050602082019050919050565b600061442c8383613c85565b60208301905092915050565b6000602082019050919050565b6000614450826143f4565b61445a81856143ff565b935061446583614410565b8060005b8381101561449657815161447d8882614420565b975061448883614438565b925050600181019050614469565b5085935050505092915050565b600081519050919050565b600082825260208201905092915050565b6000819050602082019050919050565b60006144db8383613e3c565b60208301905092915050565b6000602082019050919050565b60006144ff826144a3565b61450981856144ae565b9350614514836144bf565b8060005b8381101561454557815161452c88826144cf565b9750614537836144e7565b925050600181019050614518565b5085935050505092915050565b60006101208301600083015161456b6000860182613c85565b50602083015161457e6020860182613e3c565b5060408301516145916040860182613c85565b5060608301516145a46060860182613c85565b50608083015184820360808601526145bc8282614445565b91505060a08301516145d160a0860182613c85565b5060c08301516145e460c0860182613c85565b5060e083015184820360e08601526145fc82826144f4565b9150506101008301518482036101008601526146188282614445565b9150508091505092915050565b60006146318383614552565b905092915050565b6000602082019050919050565b6000614651826143c8565b61465b81856143d3565b93508360208202850161466d856143e4565b8060005b858110156146a9578484038952815161468a8582614625565b945061469583614639565b925060208a01995050600181019050614671565b50829750879550505050505092915050565b600060608201905081810360008301526146d5818661421e565b905081810360208301526146e9818561436a565b905081810360408301526146fd8184614646565b9050949350505050565b6000806040838503121561471e5761471d613a29565b5b600083013567ffffffffffffffff81111561473c5761473b613a2e565b5b61474885828601613bbc565b925050602083013567ffffffffffffffff81111561476957614768613a2e565b5b61477585828601613bbc565b9150509250929050565b600081519050919050565b600082825260208201905092915050565b6000819050602082019050919050565b600069ffffffffffffffffffff82169050919050565b6147ca816147ab565b82525050565b6080820160008201516147e66000850182613c85565b5060208201516147f96020850182613c85565b50604082015161480c6040850182613e3c565b50606082015161481f60608501826147c1565b50505050565b600061483183836147d0565b60808301905092915050565b6000602082019050919050565b60006148558261477f565b61485f818561478a565b935061486a8361479b565b8060005b8381101561489b5781516148828882614825565b975061488d8361483d565b92505060018101905061486e565b5085935050505092915050565b600060208201905081810360008301526148c2818461484a565b905092915050565b6000806000606084860312156148e3576148e2613a29565b5b600084013567ffffffffffffffff81111561490157614900613a2e565b5b61490d86828701613bbc565b935050602084013567ffffffffffffffff81111561492e5761492d613a2e565b5b61493a86828701613bbc565b925050604084013567ffffffffffffffff81111561495b5761495a613a2e565b5b61496786828701613bbc565b9150509250925092565b600081519050919050565b600082825260208201905092915050565b6000819050602082019050919050565b60006080830160008301516149b56000860182613c6c565b50602083015184820360208601526149cd8282613eb6565b915050604083015184820360408601526149e78282613eb6565b91505060608301516149fc6060860182613c85565b508091505092915050565b6000614a13838361499d565b905092915050565b6000602082019050919050565b6000614a3382614971565b614a3d818561497c565b935083602082028501614a4f8561498d565b8060005b85811015614a8b5784840389528151614a6c8582614a07565b9450614a7783614a1b565b925060208a01995050600181019050614a53565b50829750879550505050505092915050565b60006040820190508181036000830152614ab78185614a28565b90508181036020830152614acb818461484a565b90509392505050565b600081519050919050565b600082825260208201905092915050565b6000819050602082019050919050565b600061012083016000830151614b196000860182613e3c565b506020830151614b2c6020860182613e3c565b506040830151614b3f6040860182613e3c565b506060830151614b526060860182613c85565b506080830151614b656080860182613c85565b5060a0830151614b7860a0860182613e4b565b5060c0830151614b8b60c0860182613c6c565b5060e083015184820360e0860152614ba38282613eb6565b915050610100830151848203610100860152614bbf8282613eb6565b9150508091505092915050565b6000614bd88383614b00565b905092915050565b6000602082019050919050565b6000614bf882614ad4565b614c028185614adf565b935083602082028501614c1485614af0565b8060005b85811015614c505784840389528151614c318582614bcc565b9450614c3c83614be0565b925060208a01995050600181019050614c18565b50829750879550505050505092915050565b600081519050919050565b600082825260208201905092915050565b6000819050602082019050919050565b600061010083016000830151614ca76000860182613e3c565b506020830151614cba6020860182613e3c565b506040830151614ccd6040860182613e3c565b506060830151614ce06060860182613c85565b506080830151614cf36080860182613c85565b5060a0830151614d0660a0860182613e4b565b5060c083015184820360c0860152614d1e8282613eb6565b91505060e083015184820360e0860152614d388282613eb6565b9150508091505092915050565b6000614d518383614c8e565b905092915050565b6000602082019050919050565b6000614d7182614c62565b614d7b8185614c6d565b935083602082028501614d8d85614c7e565b8060005b85811015614dc95784840389528151614daa8582614d45565b9450614db583614d59565b925060208a01995050600181019050614d91565b50829750879550505050505092915050565b608082016000820151614df16000850182613c85565b506020820151614e046020850182613c85565b506040820151614e176040850182613c85565b506060820151614e2a6060850182613c85565b50505050565b600060c0820190508181036000830152614e4a8186614bed565b90508181036020830152614e5e8185614d66565b9050614e6d6040830184614ddb565b949350505050565b7f4e487b7100000000000000000000000000000000000000000000000000000000600052603260045260246000fd5b600081519050614eb381613b27565b92915050565b600060208284031215614ecf57614ece613a29565b5b6000614edd84828501614ea4565b91505092915050565b60006dffffffffffffffffffffffffffff82169050919050565b614f0981614ee6565b8114614f1457600080fd5b50565b600081519050614f2681614f00565b92915050565b600063ffffffff82169050919050565b614f4581614f2c565b8114614f5057600080fd5b50565b600081519050614f6281614f3c565b92915050565b600080600060608486031215614f8157614f80613a29565b5b6000614f8f86828701614f17565b9350506020614fa086828701614f17565b9250506040614fb186828701614f53565b9150509250925092565b614fc481613c5f565b8114614fcf57600080fd5b50565b600081519050614fe181614fbb565b92915050565b600060208284031215614ffd57614ffc613a29565b5b600061500b84828501614fd2565b91505092915050565b61501d81613c7b565b811461502857600080fd5b50565b60008151905061503a81615014565b92915050565b60006020828403121561505657615055613a29565b5b60006150648482850161502b565b91505092915050565b7f4e487b7100000000000000000000000000000000000000000000000000000000600052601160045260246000fd5b60006150a782613c7b565b91507fffffffffffffffffffffffffffffffffffffffffffffffffffffffffffffffff82036150d9576150d861506d565b5b600182019050919050565b600080fd5b600067ffffffffffffffff82111561510457615103613a49565b5b61510d82613a38565b9050602081019050919050565b600061512d615128846150e9565b613aa9565b905082815260208101848484011115615149576151486150e4565b5b615154848285613e83565b509392505050565b600082601f83011261517157615170613a33565b5b815161518184826020860161511a565b91505092915050565b6000602082840312156151a05761519f613a29565b5b600082015167ffffffffffffffff8111156151be576151bd613a2e565b5b6151ca8482850161515c565b91505092915050565b6151dc81613b15565b82525050565b60006020820190506151f760008301846151d3565b92915050565b600067ffffffffffffffff82111561521857615217613a49565b5b602082029050602081019050919050565b600080fd5b600080fd5b600061524661524184613ac4565b613aa9565b9050808382526020820190506020840283018581111561526957615268613af0565b5b835b81811015615292578061527e8882614ea4565b84526020840193505060208101905061526b565b5050509392505050565b600082601f8301126152b1576152b0613a33565b5b81516152c1848260208601615233565b91505092915050565b600067ffffffffffffffff8211156152e5576152e4613a49565b5b602082029050602081019050919050565b6000615309615304846152ca565b613aa9565b9050808382526020820190506020840283018581111561532c5761532b613af0565b5b835b818110156153555780615341888261502b565b84526020840193505060208101905061532e565b5050509392505050565b600082601f83011261537457615373613a33565b5b81516153848482602086016152f6565b91505092915050565b6000606082840312156153a3576153a2615229565b5b6153ad6060613aa9565b905060006153bd8482850161502b565b600083015250602082015167ffffffffffffffff8111156153e1576153e061522e565b5b6153ed8482850161529c565b602083015250604082015167ffffffffffffffff8111156154115761541061522e565b5b61541d8482850161535f565b60408301525092915050565b600061543c615437846151fd565b613aa9565b9050808382526020820190506020840283018581111561545f5761545e613af0565b5b835b818110156154a657805167ffffffffffffffff81111561548457615483613a33565b5b808601615491898261538d565b85526020850194505050602081019050615461565b5050509392505050565b600082601f8301126154c5576154c4613a33565b5b81516154d5848260208601615429565b91505092915050565b6000602082840312156154f4576154f3613a29565b5b600082015167ffffffffffffffff81111561551257615511613a2e565b5b61551e848285016154b0565b91505092915050565b61553081613c7b565b82525050565b600060208201905061554b6000830184615527565b92915050565b600061555c82613b15565b9050919050565b61556c81615551565b811461557757600080fd5b50565b60008151905061558981615563565b92915050565b60006fffffffffffffffffffffffffffffffff82169050919050565b6155b48161558f565b81146155bf57600080fd5b50565b6000815190506155d1816155ab565b92915050565b600060a082840312156155ed576155ec615229565b5b6155f760a0613aa9565b905060006156078482850161557a565b600083015250602061561b848285016155c2565b602083015250604061562f848285016155c2565b604083015250606082015167ffffffffffffffff8111156156535761565261522e565b5b61565f8482850161535f565b606083015250608082015167ffffffffffffffff8111156156835761568261522e565b5b61568f8482850161529c565b60808301525092915050565b6000602082840312156156b1576156b0613a29565b5b600082015167ffffffffffffffff8111156156cf576156ce613a2e565b5b6156db848285016155d7565b91505092915050565b6000602082840312156156fa576156f9613a29565b5b600082015167ffffffffffffffff81111561571857615717613a2e565b5b6157248482850161535f565b91505092915050565b60006040820190506157426000830185615527565b61574f60208301846151d3565b9392505050565b60006040828403121561576c5761576b615229565b5b6157766040613aa9565b905060006157868482850161502b565b600083015250602082015167ffffffffffffffff8111156157aa576157a961522e565b5b6157b68482850161535f565b60208301525092915050565b6000602082840312156157d8576157d7613a29565b5b600082015167ffffffffffffffff8111156157f6576157f5613a2e565b5b61580284828501615756565b91505092915050565b615814816147ab565b811461581f57600080fd5b50565b6000815190506158318161580b565b92915050565b6000819050919050565b61584a81615837565b811461585557600080fd5b50565b60008151905061586781615841565b92915050565b600080600080600060a0868803121561588957615888613a29565b5b600061589788828901615822565b95505060206158a888828901615858565b94505060406158b98882890161502b565b93505060606158ca8882890161502b565b92505060806158db88828901615822565b9150509295509295909350565b60008160011c9050919050565b6000808291508390505b600185111561593f5780860481111561591b5761591a61506d565b5b600185161561592a5780820291505b8081029050615938856158e8565b94506158ff565b94509492505050565b6000826159585760019050615a14565b816159665760009050615a14565b816001811461597c5760028114615986576159b5565b6001915050615a14565b60ff8411156159985761599761506d565b5b8360020a9150848211156159af576159ae61506d565b5b50615a14565b5060208310610133831016604e8410600b84101617156159ea5782820a9050838111156159e5576159e461506d565b5b615a14565b6159f784848460016158f5565b92509050818404811115615a0e57615a0d61506d565b5b81810290505b9392505050565b6000615a2682613c7b565b9150615a3183613c5f565b9250615a5e7fffffffffffffffffffffffffffffffffffffffffffffffffffffffffffffffff8484615948565b905092915050565b6000615a7182613c7b565b9150615a7c83613c7b565b9250817fffffffffffffffffffffffffffffffffffffffffffffffffffffffffffffffff0483118215151615615ab557615ab461506d565b5b828202905092915050565b600060208284031215615ad657615ad5613a29565b5b6000615ae484828501615858565b91505092915050565b6000615af882613c7b565b9150615b0383613c7b565b9250615b307fffffffffffffffffffffffffffffffffffffffffffffffffffffffffffffffff8484615948565b905092915050565b7f4e487b7100000000000000000000000000000000000000000000000000000000600052601260045260246000fd5b6000615b7282613c7b565b9150615b7d83613c7b565b925082615b8d57615b8c615b38565b5b828204905092915050565b6000615ba382613c7b565b9150615bae83613c7b565b925082821015615bc157615bc061506d565b5b828203905092915050565b6000615bd782613c7b565b9150615be283613c7b565b9250827fffffffffffffffffffffffffffffffffffffffffffffffffffffffffffffffff03821115615c1757615c1661506d565b5b82820190509291505056fea2646970667358221220aa6e8b16c29b7cd7df2a174d6df76126d60d3e3753badada36e634d57387af5664736f6c634300080e0033",
  "devdoc": {
    "kind": "dev",
    "methods": {},
    "version": 1
  },
  "userdoc": {
    "kind": "user",
    "methods": {},
    "version": 1
  },
  "storageLayout": {
    "storage": [],
    "types": null
  }
}