{
  "address": "0x5e836144B41CF9550Adfc71BEf6f0E2a5d3589A8",
  "abi": [
    {
      "inputs": [
        {
          "internalType": "address[]",
          "name": "_assets",
          "type": "address[]"
        },
        {
          "internalType": "address[]",
          "name": "_oracles",
          "type": "address[]"
        }
      ],
      "name": "batchPrices",
      "outputs": [
        {
          "components": [
            {
              "internalType": "uint256",
              "name": "price",
              "type": "uint256"
            },
            {
              "internalType": "uint256",
              "name": "timestamp",
              "type": "uint256"
            },
            {
              "internalType": "address",
              "name": "assetAddress",
              "type": "address"
            },
            {
              "internalType": "uint80",
              "name": "roundId",
              "type": "uint80"
            }
          ],
          "internalType": "struct LibUI.Price[]",
          "name": "result",
          "type": "tuple[]"
        }
      ],
      "stateMutability": "view",
      "type": "function"
    },
    {
      "inputs": [
        {
          "internalType": "address",
          "name": "_account",
          "type": "address"
        },
        {
          "internalType": "address[]",
          "name": "_tokens",
          "type": "address[]"
        },
        {
          "internalType": "address",
          "name": "_staking",
          "type": "address"
        }
      ],
      "name": "getAccountData",
      "outputs": [
        {
          "components": [
            {
              "components": [
                {
                  "internalType": "address",
                  "name": "assetAddress",
                  "type": "address"
                },
                {
                  "internalType": "address",
                  "name": "oracleAddress",
                  "type": "address"
                },
                {
                  "internalType": "address",
                  "name": "anchorAddress",
                  "type": "address"
                },
                {
                  "internalType": "uint256",
                  "name": "amount",
                  "type": "uint256"
                },
                {
                  "components": [
                    {
                      "internalType": "uint256",
                      "name": "rawValue",
                      "type": "uint256"
                    }
                  ],
                  "internalType": "struct FixedPoint.Unsigned",
                  "name": "amountUSD",
                  "type": "tuple"
                },
                {
                  "internalType": "uint256",
                  "name": "index",
                  "type": "uint256"
                },
                {
                  "components": [
                    {
                      "internalType": "uint256",
                      "name": "rawValue",
                      "type": "uint256"
                    }
                  ],
                  "internalType": "struct FixedPoint.Unsigned",
                  "name": "kFactor",
                  "type": "tuple"
                },
                {
                  "internalType": "uint256",
                  "name": "price",
                  "type": "uint256"
                },
                {
                  "internalType": "string",
                  "name": "symbol",
                  "type": "string"
                },
                {
                  "internalType": "string",
                  "name": "name",
                  "type": "string"
                },
                {
                  "components": [
                    {
                      "internalType": "uint256",
                      "name": "rawValue",
                      "type": "uint256"
                    }
                  ],
                  "internalType": "struct FixedPoint.Unsigned",
                  "name": "openFee",
                  "type": "tuple"
                },
                {
                  "components": [
                    {
                      "internalType": "uint256",
                      "name": "rawValue",
                      "type": "uint256"
                    }
                  ],
                  "internalType": "struct FixedPoint.Unsigned",
                  "name": "closeFee",
                  "type": "tuple"
                }
              ],
              "internalType": "struct LibUI.krAssetInfoUser[]",
              "name": "krAssets",
              "type": "tuple[]"
            },
            {
              "components": [
                {
                  "internalType": "address",
                  "name": "assetAddress",
                  "type": "address"
                },
                {
                  "internalType": "address",
                  "name": "oracleAddress",
                  "type": "address"
                },
                {
                  "internalType": "address",
                  "name": "anchorAddress",
                  "type": "address"
                },
                {
                  "internalType": "uint256",
                  "name": "amount",
                  "type": "uint256"
                },
                {
                  "components": [
                    {
                      "internalType": "uint256",
                      "name": "rawValue",
                      "type": "uint256"
                    }
                  ],
                  "internalType": "struct FixedPoint.Unsigned",
                  "name": "amountUSD",
                  "type": "tuple"
                },
                {
                  "components": [
                    {
                      "internalType": "uint256",
                      "name": "rawValue",
                      "type": "uint256"
                    }
                  ],
                  "internalType": "struct FixedPoint.Unsigned",
                  "name": "cFactor",
                  "type": "tuple"
                },
                {
                  "internalType": "uint8",
                  "name": "decimals",
                  "type": "uint8"
                },
                {
                  "internalType": "uint256",
                  "name": "index",
                  "type": "uint256"
                },
                {
                  "internalType": "uint256",
                  "name": "price",
                  "type": "uint256"
                },
                {
                  "internalType": "string",
                  "name": "symbol",
                  "type": "string"
                },
                {
                  "internalType": "string",
                  "name": "name",
                  "type": "string"
                }
              ],
              "internalType": "struct LibUI.CollateralAssetInfoUser[]",
              "name": "collateralAssets",
              "type": "tuple[]"
            },
            {
              "components": [
                {
                  "internalType": "uint256",
                  "name": "rawValue",
                  "type": "uint256"
                }
              ],
              "internalType": "struct FixedPoint.Unsigned",
              "name": "healthFactor",
              "type": "tuple"
            },
            {
              "components": [
                {
                  "internalType": "uint256",
                  "name": "rawValue",
                  "type": "uint256"
                }
              ],
              "internalType": "struct FixedPoint.Unsigned",
              "name": "debtActualUSD",
              "type": "tuple"
            },
            {
              "components": [
                {
                  "internalType": "uint256",
                  "name": "rawValue",
                  "type": "uint256"
                }
              ],
              "internalType": "struct FixedPoint.Unsigned",
              "name": "debtUSD",
              "type": "tuple"
            },
            {
              "components": [
                {
                  "internalType": "uint256",
                  "name": "rawValue",
                  "type": "uint256"
                }
              ],
              "internalType": "struct FixedPoint.Unsigned",
              "name": "collateralActualUSD",
              "type": "tuple"
            },
            {
              "components": [
                {
                  "internalType": "uint256",
                  "name": "rawValue",
                  "type": "uint256"
                }
              ],
              "internalType": "struct FixedPoint.Unsigned",
              "name": "collateralUSD",
              "type": "tuple"
            },
            {
              "components": [
                {
                  "internalType": "uint256",
                  "name": "rawValue",
                  "type": "uint256"
                }
              ],
              "internalType": "struct FixedPoint.Unsigned",
              "name": "minCollateralUSD",
              "type": "tuple"
            },
            {
              "components": [
                {
                  "internalType": "uint256",
                  "name": "rawValue",
                  "type": "uint256"
                }
              ],
              "internalType": "struct FixedPoint.Unsigned",
              "name": "borrowingPowerUSD",
              "type": "tuple"
            }
          ],
          "internalType": "struct LibUI.KreskoUser",
          "name": "user",
          "type": "tuple"
        },
        {
          "components": [
            {
              "internalType": "address",
              "name": "token",
              "type": "address"
            },
            {
              "internalType": "uint256",
              "name": "balance",
              "type": "uint256"
            }
          ],
          "internalType": "struct LibUI.Balance[]",
          "name": "balances",
          "type": "tuple[]"
        },
        {
          "components": [
            {
              "internalType": "uint256",
              "name": "pid",
              "type": "uint256"
            },
            {
              "internalType": "address",
              "name": "depositToken",
              "type": "address"
            },
            {
              "internalType": "uint256",
              "name": "totalDeposits",
              "type": "uint256"
            },
            {
              "internalType": "uint256",
              "name": "allocPoint",
              "type": "uint256"
            },
            {
              "internalType": "uint256[]",
              "name": "rewardPerBlocks",
              "type": "uint256[]"
            },
            {
              "internalType": "uint256",
              "name": "lastRewardBlock",
              "type": "uint256"
            },
            {
              "internalType": "uint256",
              "name": "depositAmount",
              "type": "uint256"
            },
            {
              "internalType": "address[]",
              "name": "rewardTokens",
              "type": "address[]"
            },
            {
              "internalType": "uint256[]",
              "name": "rewardAmounts",
              "type": "uint256[]"
            }
          ],
          "internalType": "struct LibUI.StakingData[]",
          "name": "stakingData",
          "type": "tuple[]"
        }
      ],
      "stateMutability": "view",
      "type": "function"
    },
    {
      "inputs": [
        {
          "internalType": "address[]",
          "name": "_collateralAssets",
          "type": "address[]"
        },
        {
          "internalType": "address[]",
          "name": "_krAssets",
          "type": "address[]"
        }
      ],
      "name": "getGlobalData",
      "outputs": [
        {
          "components": [
            {
              "internalType": "address",
              "name": "assetAddress",
              "type": "address"
            },
            {
              "internalType": "address",
              "name": "oracleAddress",
              "type": "address"
            },
            {
              "internalType": "address",
              "name": "anchorAddress",
              "type": "address"
            },
            {
              "internalType": "uint256",
              "name": "price",
              "type": "uint256"
            },
            {
              "internalType": "uint256",
              "name": "value",
              "type": "uint256"
            },
            {
              "components": [
                {
                  "internalType": "uint256",
                  "name": "rawValue",
                  "type": "uint256"
                }
              ],
              "internalType": "struct FixedPoint.Unsigned",
              "name": "cFactor",
              "type": "tuple"
            },
            {
              "internalType": "uint8",
              "name": "decimals",
              "type": "uint8"
            },
            {
              "internalType": "string",
              "name": "symbol",
              "type": "string"
            },
            {
              "internalType": "string",
              "name": "name",
              "type": "string"
            }
          ],
          "internalType": "struct LibUI.CollateralAssetInfo[]",
          "name": "collateralAssets",
          "type": "tuple[]"
        },
        {
          "components": [
            {
              "internalType": "address",
              "name": "oracleAddress",
              "type": "address"
            },
            {
              "internalType": "address",
              "name": "assetAddress",
              "type": "address"
            },
            {
              "internalType": "address",
              "name": "anchorAddress",
              "type": "address"
            },
            {
              "internalType": "uint256",
              "name": "price",
              "type": "uint256"
            },
            {
              "internalType": "uint256",
              "name": "value",
              "type": "uint256"
            },
            {
              "components": [
                {
                  "internalType": "uint256",
                  "name": "rawValue",
                  "type": "uint256"
                }
              ],
              "internalType": "struct FixedPoint.Unsigned",
              "name": "openFee",
              "type": "tuple"
            },
            {
              "components": [
                {
                  "internalType": "uint256",
                  "name": "rawValue",
                  "type": "uint256"
                }
              ],
              "internalType": "struct FixedPoint.Unsigned",
              "name": "closeFee",
              "type": "tuple"
            },
            {
              "components": [
                {
                  "internalType": "uint256",
                  "name": "rawValue",
                  "type": "uint256"
                }
              ],
              "internalType": "struct FixedPoint.Unsigned",
              "name": "kFactor",
              "type": "tuple"
            },
            {
              "internalType": "string",
              "name": "symbol",
              "type": "string"
            },
            {
              "internalType": "string",
              "name": "name",
              "type": "string"
            }
          ],
          "internalType": "struct LibUI.krAssetInfo[]",
          "name": "krAssets",
          "type": "tuple[]"
        },
        {
          "components": [
            {
              "internalType": "uint256",
              "name": "liqMultiplier",
              "type": "uint256"
            },
            {
              "internalType": "uint256",
              "name": "minDebtValue",
              "type": "uint256"
            },
            {
              "internalType": "uint256",
              "name": "minCollateralRatio",
              "type": "uint256"
            },
            {
              "internalType": "uint256",
              "name": "liquidationThreshold",
              "type": "uint256"
            }
          ],
          "internalType": "struct LibUI.ProtocolParams",
          "name": "protocolParams",
          "type": "tuple"
        }
      ],
      "stateMutability": "view",
      "type": "function"
    },
    {
      "inputs": [
        {
          "internalType": "address[]",
          "name": "_pairAddresses",
          "type": "address[]"
        }
      ],
      "name": "getPairsData",
      "outputs": [
        {
          "components": [
            {
              "internalType": "uint8",
              "name": "decimals0",
              "type": "uint8"
            },
            {
              "internalType": "uint8",
              "name": "decimals1",
              "type": "uint8"
            },
            {
              "internalType": "uint256",
              "name": "reserve0",
              "type": "uint256"
            },
            {
              "internalType": "uint256",
              "name": "reserve1",
              "type": "uint256"
            },
            {
              "internalType": "uint256",
              "name": "totalSupply",
              "type": "uint256"
            }
          ],
          "internalType": "struct LibUI.PairData[]",
          "name": "result",
          "type": "tuple[]"
        }
      ],
      "stateMutability": "view",
      "type": "function"
    },
    {
      "inputs": [
        {
          "internalType": "address[]",
          "name": "_allTokens",
          "type": "address[]"
        },
        {
          "internalType": "address[]",
          "name": "_assets",
          "type": "address[]"
        },
        {
          "internalType": "address[]",
          "name": "_oracles",
          "type": "address[]"
        }
      ],
      "name": "getTokenData",
      "outputs": [
        {
          "components": [
            {
              "internalType": "uint8",
              "name": "decimals",
              "type": "uint8"
            },
            {
              "internalType": "string",
              "name": "symbol",
              "type": "string"
            },
            {
              "internalType": "string",
              "name": "name",
              "type": "string"
            },
            {
              "internalType": "uint256",
              "name": "totalSupply",
              "type": "uint256"
            }
          ],
          "internalType": "struct LibUI.TokenMetadata[]",
          "name": "metadatas",
          "type": "tuple[]"
        },
        {
          "components": [
            {
              "internalType": "uint256",
              "name": "price",
              "type": "uint256"
            },
            {
              "internalType": "uint256",
              "name": "timestamp",
              "type": "uint256"
            },
            {
              "internalType": "address",
              "name": "assetAddress",
              "type": "address"
            },
            {
              "internalType": "uint80",
              "name": "roundId",
              "type": "uint80"
            }
          ],
          "internalType": "struct LibUI.Price[]",
          "name": "prices",
          "type": "tuple[]"
        }
      ],
      "stateMutability": "view",
      "type": "function"
    }
  ],
  "transactionHash": "0x621c28c759a3e6f531aea57b95e76b90dc4347f150535904961f50f0ace26eb9",
  "args": [],
  "numDeployments": 1,
  "solcInputHash": "1e9d8a3d1ac2e98cc6ae75571f3527fa",
  "bytecode": "0x608060405234801561001057600080fd5b5061654780620000216000396000f3fe608060405234801561001057600080fd5b50600436106100575760003560e01c8063782353901461005c578063981d11da1461008c578063ac1e25fb146100be578063f857a06b146100ee578063fe42d8451461011f575b600080fd5b6100766004803603810190610071919061443b565b610151565b60405161008391906145d0565b60405180910390f35b6100a660048036038101906100a191906145f2565b610505565b6040516100b593929190614f36565b60405180910390f35b6100d860048036038101906100d39190614f82565b61053c565b6040516100e59190615123565b60405180910390f35b61010860048036038101906101039190615145565b610550565b604051610116929190615318565b60405180910390f35b61013960048036038101906101349190614f82565b61084a565b604051610148939291906156d5565b60405180910390f35b6060815167ffffffffffffffff81111561016e5761016d61429a565b5b6040519080825280602002602001820160405280156101a757816020015b610194613ddf565b81526020019060019003908161018c5790505b50905060005b82518110156104ff5760008382815181106101cb576101ca61571a565b5b6020026020010151905060008173ffffffffffffffffffffffffffffffffffffffff16630dfe16816040518163ffffffff1660e01b8152600401602060405180830381865afa158015610222573d6000803e3d6000fd5b505050506040513d601f19601f82011682018060405250810190610246919061575e565b905060008273ffffffffffffffffffffffffffffffffffffffff1663d21220a76040518163ffffffff1660e01b8152600401602060405180830381865afa158015610295573d6000803e3d6000fd5b505050506040513d601f19601f820116820180604052508101906102b9919061575e565b90506000808473ffffffffffffffffffffffffffffffffffffffff16630902f1ac6040518163ffffffff1660e01b8152600401606060405180830381865afa158015610309573d6000803e3d6000fd5b505050506040513d601f19601f8201168201806040525081019061032d919061580d565b50915091506040518060a001604052808573ffffffffffffffffffffffffffffffffffffffff1663313ce5676040518163ffffffff1660e01b8152600401602060405180830381865afa158015610388573d6000803e3d6000fd5b505050506040513d601f19601f820116820180604052508101906103ac919061588c565b60ff1681526020018473ffffffffffffffffffffffffffffffffffffffff1663313ce5676040518163ffffffff1660e01b8152600401602060405180830381865afa1580156103ff573d6000803e3d6000fd5b505050506040513d601f19601f82011682018060405250810190610423919061588c565b60ff168152602001836dffffffffffffffffffffffffffff168152602001826dffffffffffffffffffffffffffff1681526020018673ffffffffffffffffffffffffffffffffffffffff166318160ddd6040518163ffffffff1660e01b8152600401602060405180830381865afa1580156104a2573d6000803e3d6000fd5b505050506040513d601f19601f820116820180604052508101906104c691906158e5565b8152508787815181106104dc576104db61571a565b5b6020026020010181905250505050505080806104f790615941565b9150506101ad565b50919050565b61050d613e14565b606080610519866108cd565b925061052585876109d3565b91506105318685610b48565b905093509350939050565b60606105488383610f94565b905092915050565b606080845167ffffffffffffffff81111561056e5761056d61429a565b5b6040519080825280602002602001820160405280156105a757816020015b610594613e8a565b81526020019060019003908161058c5790505b50915060005b85518110156108355760405180608001604052808783815181106105d4576105d361571a565b5b602002602001015173ffffffffffffffffffffffffffffffffffffffff1663313ce5676040518163ffffffff1660e01b8152600401602060405180830381865afa158015610626573d6000803e3d6000fd5b505050506040513d601f19601f8201168201806040525081019061064a919061588c565b60ff1681526020018783815181106106655761066461571a565b5b602002602001015173ffffffffffffffffffffffffffffffffffffffff166395d89b416040518163ffffffff1660e01b8152600401600060405180830381865afa1580156106b7573d6000803e3d6000fd5b505050506040513d6000823e3d601f19601f820116820180604052508101906106e09190615a2f565b81526020018783815181106106f8576106f761571a565b5b602002602001015173ffffffffffffffffffffffffffffffffffffffff166306fdde036040518163ffffffff1660e01b8152600401600060405180830381865afa15801561074a573d6000803e3d6000fd5b505050506040513d6000823e3d601f19601f820116820180604052508101906107739190615a2f565b815260200187838151811061078b5761078a61571a565b5b602002602001015173ffffffffffffffffffffffffffffffffffffffff166318160ddd6040518163ffffffff1660e01b8152600401602060405180830381865afa1580156107dd573d6000803e3d6000fd5b505050506040513d601f19601f8201168201806040525081019061080191906158e5565b8152508382815181106108175761081661571a565b5b6020026020010181905250808061082d90615941565b9150506105ad565b506108408484610f94565b9050935093915050565b606080610855613eb5565b61085e85611128565b9250610869846115c7565b9150604051806080016040528061087e611a7b565b600301600001548152602001610892611a7b565b6005016000015481526020016108a6611a7b565b6004016000015481526020016108ba611a7b565b6006016000015481525090509250925092565b6108d5613e14565b6000806108e184611aa8565b915091506000806108f18661207c565b91509150600084511180610906575060008251115b156109ca5760405180610120016040528085815260200183815260200161092c88612555565b815260200184815260200161095188610943611a7b565b6125e890919063ffffffff16565b815260200182815260200161097688610968611a7b565b61274190919063ffffffff16565b81526020016109b688610987611a7b565b6004016040518060200160405290816000820154815250506109a7611a7b565b6128a19092919063ffffffff16565b81526020016109c4886128d7565b81525094505b50505050919050565b6060825167ffffffffffffffff8111156109f0576109ef61429a565b5b604051908082528060200260200182016040528015610a2957816020015b610a16613edd565b815260200190600190039081610a0e5790505b50905060005b8351811015610b41576040518060400160405280858381518110610a5657610a5561571a565b5b602002602001015173ffffffffffffffffffffffffffffffffffffffff168152602001858381518110610a8c57610a8b61571a565b5b602002602001015173ffffffffffffffffffffffffffffffffffffffff166370a08231866040518263ffffffff1660e01b8152600401610acc9190615a87565b602060405180830381865afa158015610ae9573d6000803e3d6000fd5b505050506040513d601f19601f82011682018060405250810190610b0d91906158e5565b815250828281518110610b2357610b2261571a565b5b60200260200101819052508080610b3990615941565b915050610a2f565b5092915050565b6060600082905060008173ffffffffffffffffffffffffffffffffffffffff16635ea3f4fa866040518263ffffffff1660e01b8152600401610b8a9190615a87565b600060405180830381865afa158015610ba7573d6000803e3d6000fd5b505050506040513d6000823e3d601f19601f82011682018060405250810190610bd09190615d83565b9050805167ffffffffffffffff811115610bed57610bec61429a565b5b604051908082528060200260200182016040528015610c2657816020015b610c13613f0d565b815260200190600190039081610c0b5790505b50925060005b8151811015610f8b5760008373ffffffffffffffffffffffffffffffffffffffff16631526fe27848481518110610c6657610c6561571a565b5b6020026020010151600001516040518263ffffffff1660e01b8152600401610c8e9190615ddb565b600060405180830381865afa158015610cab573d6000803e3d6000fd5b505050506040513d6000823e3d601f19601f82011682018060405250810190610cd49190615f40565b9050600081600001519050604051806101200160405280858581518110610cfe57610cfd61571a565b5b60200260200101516000015181526020018273ffffffffffffffffffffffffffffffffffffffff168152602001836000015173ffffffffffffffffffffffffffffffffffffffff166370a082318a6040518263ffffffff1660e01b8152600401610d689190615a87565b602060405180830381865afa158015610d85573d6000803e3d6000fd5b505050506040513d601f19601f82011682018060405250810190610da991906158e5565b815260200183602001516fffffffffffffffffffffffffffffffff1681526020018673ffffffffffffffffffffffffffffffffffffffff166368e2f7b7846040518263ffffffff1660e01b8152600401610e039190615a87565b600060405180830381865afa158015610e20573d6000803e3d6000fd5b505050506040513d6000823e3d601f19601f82011682018060405250810190610e499190615f89565b815260200183604001516fffffffffffffffffffffffffffffffff1681526020018673ffffffffffffffffffffffffffffffffffffffff166393f1a40b878781518110610e9957610e9861571a565b5b6020026020010151600001518c6040518363ffffffff1660e01b8152600401610ec3929190615fd2565b600060405180830381865afa158015610ee0573d6000803e3d6000fd5b505050506040513d6000823e3d601f19601f82011682018060405250810190610f099190616067565b600001518152602001858581518110610f2557610f2461571a565b5b6020026020010151602001518152602001858581518110610f4957610f4861571a565b5b602002602001015160400151815250868481518110610f6b57610f6a61571a565b5b602002602001018190525050508080610f8390615941565b915050610c2c565b50505092915050565b6060825167ffffffffffffffff811115610fb157610fb061429a565b5b604051908082528060200260200182016040528015610fea57816020015b610fd7613f6f565b815260200190600190039081610fcf5790505b50905060005b83518110156111215760008060008584815181106110115761101061571a565b5b602002602001015173ffffffffffffffffffffffffffffffffffffffff1663feaf968c6040518163ffffffff1660e01b815260040160c060405180830381865afa158015611063573d6000803e3d6000fd5b505050506040513d601f19601f82011682018060405250810190611087919061614a565b50945050509250925060405180608001604052808381526020018281526020018886815181106110ba576110b961571a565b5b602002602001015173ffffffffffffffffffffffffffffffffffffffff1681526020018469ffffffffffffffffffff16815250858581518110611100576110ff61571a565b5b6020026020010181905250505050808061111990615941565b915050610ff0565b5092915050565b6060815167ffffffffffffffff8111156111455761114461429a565b5b60405190808252806020026020018201604052801561117e57816020015b61116b613fb9565b8152602001906001900390816111635790505b50905060005b82518110156115c15760008382815181106111a2576111a161571a565b5b6020026020010151905060006111b6611a7b565b60090160008373ffffffffffffffffffffffffffffffffffffffff1673ffffffffffffffffffffffffffffffffffffffff1681526020019081526020016000206040518060c00160405290816000820160405180602001604052908160008201548152505081526020016001820160009054906101000a900473ffffffffffffffffffffffffffffffffffffffff1673ffffffffffffffffffffffffffffffffffffffff1673ffffffffffffffffffffffffffffffffffffffff1681526020016002820160009054906101000a900473ffffffffffffffffffffffffffffffffffffffff1673ffffffffffffffffffffffffffffffffffffffff1673ffffffffffffffffffffffffffffffffffffffff1681526020016003820160009054906101000a900473ffffffffffffffffffffffffffffffffffffffff1673ffffffffffffffffffffffffffffffffffffffff1673ffffffffffffffffffffffffffffffffffffffff1681526020016003820160149054906101000a900460ff1660ff1660ff1681526020016003820160159054906101000a900460ff161515151581525050905060008273ffffffffffffffffffffffffffffffffffffffff1663313ce5676040518163ffffffff1660e01b8152600401602060405180830381865afa1580156113a8573d6000803e3d6000fd5b505050506040513d601f19601f820116820180604052508101906113cc919061588c565b90506000806114088584600a6113e2919061630a565b60016113ee9190616355565b60006113f8611a7b565b61298a909392919063ffffffff16565b915091506040518061012001604052808673ffffffffffffffffffffffffffffffffffffffff168152602001856020015173ffffffffffffffffffffffffffffffffffffffff168152602001856060015173ffffffffffffffffffffffffffffffffffffffff1681526020018260000151815260200183600001518152602001856000015181526020018460ff1681526020018673ffffffffffffffffffffffffffffffffffffffff166395d89b416040518163ffffffff1660e01b8152600401600060405180830381865afa1580156114e6573d6000803e3d6000fd5b505050506040513d6000823e3d601f19601f8201168201806040525081019061150f9190615a2f565b81526020018673ffffffffffffffffffffffffffffffffffffffff166306fdde036040518163ffffffff1660e01b8152600401600060405180830381865afa15801561155f573d6000803e3d6000fd5b505050506040513d6000823e3d601f19601f820116820180604052508101906115889190615a2f565b81525087878151811061159e5761159d61571a565b5b6020026020010181905250505050505080806115b990615941565b915050611184565b50919050565b6060815167ffffffffffffffff8111156115e4576115e361429a565b5b60405190808252806020026020018201604052801561161d57816020015b61160a614050565b8152602001906001900390816116025790505b50905060005b8251811015611a755760008382815181106116415761164061571a565b5b602002602001015190506000611655611a7b565b600c0160008373ffffffffffffffffffffffffffffffffffffffff1673ffffffffffffffffffffffffffffffffffffffff168152602001908152602001600020604051806101000160405290816000820160405180602001604052908160008201548152505081526020016001820160009054906101000a900473ffffffffffffffffffffffffffffffffffffffff1673ffffffffffffffffffffffffffffffffffffffff1673ffffffffffffffffffffffffffffffffffffffff1681526020016002820160009054906101000a900473ffffffffffffffffffffffffffffffffffffffff1673ffffffffffffffffffffffffffffffffffffffff1673ffffffffffffffffffffffffffffffffffffffff168152602001600382015481526020016004820160009054906101000a900473ffffffffffffffffffffffffffffffffffffffff1673ffffffffffffffffffffffffffffffffffffffff1673ffffffffffffffffffffffffffffffffffffffff1681526020016005820160405180602001604052908160008201548152505081526020016006820160405180602001604052908160008201548152505081526020016007820160009054906101000a900460ff1615151515815250509050604051806101400160405280826020015173ffffffffffffffffffffffffffffffffffffffff1681526020018373ffffffffffffffffffffffffffffffffffffffff168152602001826080015173ffffffffffffffffffffffffffffffffffffffff168152602001826020015173ffffffffffffffffffffffffffffffffffffffff166350d25bcd6040518163ffffffff1660e01b8152600401602060405180830381865afa1580156118db573d6000803e3d6000fd5b505050506040513d601f19601f820116820180604052508101906118ff91906163af565b815260200161192b84670de0b6b3a7640000600061191b611a7b565b612bb6909392919063ffffffff16565b6000015181526020018260c0015181526020018260a001518152602001826000015181526020018373ffffffffffffffffffffffffffffffffffffffff166395d89b416040518163ffffffff1660e01b8152600401600060405180830381865afa15801561199d573d6000803e3d6000fd5b505050506040513d6000823e3d601f19601f820116820180604052508101906119c69190615a2f565b81526020018373ffffffffffffffffffffffffffffffffffffffff166306fdde036040518163ffffffff1660e01b8152600401600060405180830381865afa158015611a16573d6000803e3d6000fd5b505050506040513d6000823e3d601f19601f82011682018060405250810190611a3f9190615a2f565b815250848481518110611a5557611a5461571a565b5b602002602001018190525050508080611a6d90615941565b915050611623565b50919050565b6000807f5076ab9fa18d2a17cfce4375a530b76392de8264a11126885cd5534d39f0a97c90508091505090565b6060611ab26140f7565b6000611abc611a7b565b600e0160008573ffffffffffffffffffffffffffffffffffffffff1673ffffffffffffffffffffffffffffffffffffffff168152602001908152602001600020805480602002602001604051908101604052809291908181526020018280548015611b7c57602002820191906000526020600020905b8160009054906101000a900473ffffffffffffffffffffffffffffffffffffffff1673ffffffffffffffffffffffffffffffffffffffff1681526020019060010190808311611b32575b5050505050905060008151111561207657805167ffffffffffffffff811115611ba857611ba761429a565b5b604051908082528060200260200182016040528015611be157816020015b611bce61410a565b815260200190600190039081611bc65790505b50925060005b8151811015612074576000828281518110611c0557611c0461571a565b5b602002602001015190506000611c19611a7b565b600c0160008373ffffffffffffffffffffffffffffffffffffffff1673ffffffffffffffffffffffffffffffffffffffff168152602001908152602001600020604051806101000160405290816000820160405180602001604052908160008201548152505081526020016001820160009054906101000a900473ffffffffffffffffffffffffffffffffffffffff1673ffffffffffffffffffffffffffffffffffffffff1673ffffffffffffffffffffffffffffffffffffffff1681526020016002820160009054906101000a900473ffffffffffffffffffffffffffffffffffffffff1673ffffffffffffffffffffffffffffffffffffffff1673ffffffffffffffffffffffffffffffffffffffff168152602001600382015481526020016004820160009054906101000a900473ffffffffffffffffffffffffffffffffffffffff1673ffffffffffffffffffffffffffffffffffffffff1673ffffffffffffffffffffffffffffffffffffffff1681526020016005820160405180602001604052908160008201548152505081526020016006820160405180602001604052908160008201548152505081526020016007820160009054906101000a900460ff16151515158152505090506000611e068884611df7611a7b565b612dd39092919063ffffffff16565b90506000611e2984836001611e19611a7b565b612bb6909392919063ffffffff16565b9050611e3e81886130f590919063ffffffff16565b506040518061018001604052808573ffffffffffffffffffffffffffffffffffffffff168152602001846020015173ffffffffffffffffffffffffffffffffffffffff168152602001846080015173ffffffffffffffffffffffffffffffffffffffff16815260200183815260200182815260200186815260200184600001518152602001846020015173ffffffffffffffffffffffffffffffffffffffff166350d25bcd6040518163ffffffff1660e01b8152600401602060405180830381865afa158015611f12573d6000803e3d6000fd5b505050506040513d601f19601f82011682018060405250810190611f3691906163af565b81526020018573ffffffffffffffffffffffffffffffffffffffff166395d89b416040518163ffffffff1660e01b8152600401600060405180830381865afa158015611f86573d6000803e3d6000fd5b505050506040513d6000823e3d601f19601f82011682018060405250810190611faf9190615a2f565b81526020018573ffffffffffffffffffffffffffffffffffffffff166306fdde036040518163ffffffff1660e01b8152600401600060405180830381865afa158015611fff573d6000803e3d6000fd5b505050506040513d6000823e3d601f19601f820116820180604052508101906120289190615a2f565b81526020018460c0015181526020018460a001518152508886815181106120525761205161571a565b5b602002602001018190525050505050808061206c90615941565b915050611be7565b505b50915091565b60606120866140f7565b60006120a284612094611a7b565b61312e90919063ffffffff16565b905060008151111561254f57805167ffffffffffffffff8111156120c9576120c861429a565b5b60405190808252806020026020018201604052801561210257816020015b6120ef6141c5565b8152602001906001900390816120e75790505b50925060005b815181101561254d5760008282815181106121265761212561571a565b5b6020026020010151905060008173ffffffffffffffffffffffffffffffffffffffff1663313ce5676040518163ffffffff1660e01b8152600401602060405180830381865afa15801561217d573d6000803e3d6000fd5b505050506040513d601f19601f820116820180604052508101906121a1919061588c565b905060006121ad611a7b565b600a0160008973ffffffffffffffffffffffffffffffffffffffff1673ffffffffffffffffffffffffffffffffffffffff16815260200190815260200160002060008473ffffffffffffffffffffffffffffffffffffffff1673ffffffffffffffffffffffffffffffffffffffff16815260200190815260200160002054905060008061224f8584600161223f611a7b565b61298a909392919063ffffffff16565b9150915061226682896130f590919063ffffffff16565b506040518061016001604052808673ffffffffffffffffffffffffffffffffffffffff168152602001612297611a7b565b60090160008873ffffffffffffffffffffffffffffffffffffffff1673ffffffffffffffffffffffffffffffffffffffff16815260200190815260200160002060010160009054906101000a900473ffffffffffffffffffffffffffffffffffffffff1673ffffffffffffffffffffffffffffffffffffffff16815260200161231e611a7b565b60090160008873ffffffffffffffffffffffffffffffffffffffff1673ffffffffffffffffffffffffffffffffffffffff16815260200190815260200160002060030160009054906101000a900473ffffffffffffffffffffffffffffffffffffffff1673ffffffffffffffffffffffffffffffffffffffff1681526020018481526020018381526020016123b1611a7b565b60090160008873ffffffffffffffffffffffffffffffffffffffff1673ffffffffffffffffffffffffffffffffffffffff16815260200190815260200160002060000160405180602001604052908160008201548152505081526020018560ff168152602001878152602001826000015181526020018673ffffffffffffffffffffffffffffffffffffffff166395d89b416040518163ffffffff1660e01b8152600401600060405180830381865afa158015612472573d6000803e3d6000fd5b505050506040513d6000823e3d601f19601f8201168201806040525081019061249b9190615a2f565b81526020018673ffffffffffffffffffffffffffffffffffffffff166306fdde036040518163ffffffff1660e01b8152600401600060405180830381865afa1580156124eb573d6000803e3d6000fd5b505050506040513d6000823e3d601f19601f820116820180604052508101906125149190615a2f565b81525089878151811061252a5761252961571a565b5b60200260200101819052505050505050808061254590615941565b915050612108565b505b50915091565b61255d6140f7565b60006125798361256b611a7b565b6125e890919063ffffffff16565b9050600061259784612589611a7b565b61274190919063ffffffff16565b90506125ad6000836131fe90919063ffffffff16565b156125ce576125c5828261321b90919063ffffffff16565b925050506125e3565b60405180602001604052806000815250925050505b919050565b6125f06140f7565b600083600e0160008473ffffffffffffffffffffffffffffffffffffffff1673ffffffffffffffffffffffffffffffffffffffff1681526020019081526020016000208054806020026020016040519081016040528092919081815260200182805480156126b357602002820191906000526020600020905b8160009054906101000a900473ffffffffffffffffffffffffffffffffffffffff1673ffffffffffffffffffffffffffffffffffffffff1681526020019060010190808311612669575b5050505050905060005b81518110156127395760008282815181106126db576126da61571a565b5b602002602001015190506127236127148261270188858b612dd39092919063ffffffff16565b60008a612bb6909392919063ffffffff16565b856130f590919063ffffffff16565b935050808061273190615941565b9150506126bd565b505092915050565b6127496140f7565b600083600b0160008473ffffffffffffffffffffffffffffffffffffffff1673ffffffffffffffffffffffffffffffffffffffff16815260200190815260200160002080548060200260200160405190810160405280929190818152602001828054801561280c57602002820191906000526020600020905b8160009054906101000a900473ffffffffffffffffffffffffffffffffffffffff1673ffffffffffffffffffffffffffffffffffffffff16815260200190600101908083116127c2575b5050505050905060005b81518110156128995760008282815181106128345761283361571a565b5b60200260200101519050600061286c8261285988858b6132739092919063ffffffff16565b60008a61298a909392919063ffffffff16565b50905061288281866130f590919063ffffffff16565b94505050808061289190615941565b915050612816565b505092915050565b6128a96140f7565b6128ce826128c085876125e890919063ffffffff16565b6134b290919063ffffffff16565b90509392505050565b6128df6140f7565b600061291c836128ed611a7b565b60040160405180602001604052908160008201548152505061290d611a7b565b6128a19092919063ffffffff16565b9050600061293a8461292c611a7b565b61274190919063ffffffff16565b905061294f828261350390919063ffffffff16565b1561296d576040518060200160405280600081525092505050612985565b612980828261351890919063ffffffff16565b925050505b919050565b6129926140f7565b61299a6140f7565b60008660090160008773ffffffffffffffffffffffffffffffffffffffff1673ffffffffffffffffffffffffffffffffffffffff1681526020019081526020016000206040518060c00160405290816000820160405180602001604052908160008201548152505081526020016001820160009054906101000a900473ffffffffffffffffffffffffffffffffffffffff1673ffffffffffffffffffffffffffffffffffffffff1673ffffffffffffffffffffffffffffffffffffffff1681526020016002820160009054906101000a900473ffffffffffffffffffffffffffffffffffffffff1673ffffffffffffffffffffffffffffffffffffffff1673ffffffffffffffffffffffffffffffffffffffff1681526020016003820160009054906101000a900473ffffffffffffffffffffffffffffffffffffffff1673ffffffffffffffffffffffffffffffffffffffff1673ffffffffffffffffffffffffffffffffffffffff1681526020016003820160149054906101000a900460ff1660ff1660ff1681526020016003820160159054906101000a900460ff16151515158152505090506000612b5e86836080015160ff1661355190919063ffffffff16565b90506000612b6b836135ef565b90506000612b8282846134b290919063ffffffff16565b905086612ba357612ba08460000151826134b290919063ffffffff16565b90505b8082955095505050505094509492505050565b612bbe6140f7565b600085600c0160008673ffffffffffffffffffffffffffffffffffffffff1673ffffffffffffffffffffffffffffffffffffffff168152602001908152602001600020604051806101000160405290816000820160405180602001604052908160008201548152505081526020016001820160009054906101000a900473ffffffffffffffffffffffffffffffffffffffff1673ffffffffffffffffffffffffffffffffffffffff1673ffffffffffffffffffffffffffffffffffffffff1681526020016002820160009054906101000a900473ffffffffffffffffffffffffffffffffffffffff1673ffffffffffffffffffffffffffffffffffffffff1673ffffffffffffffffffffffffffffffffffffffff168152602001600382015481526020016004820160009054906101000a900473ffffffffffffffffffffffffffffffffffffffff1673ffffffffffffffffffffffffffffffffffffffff1673ffffffffffffffffffffffffffffffffffffffff1681526020016005820160405180602001604052908160008201548152505081526020016006820160405180602001604052908160008201548152505081526020016007820160009054906101000a900460ff16151515158152505090506000612da5858361367990919063ffffffff16565b905083612dc657612dc38260000151826134b290919063ffffffff16565b90505b8092505050949350505050565b60008061306c612de16136ac565b60010160008673ffffffffffffffffffffffffffffffffffffffff1673ffffffffffffffffffffffffffffffffffffffff16815260200190815260200160002060008573ffffffffffffffffffffffffffffffffffffffff1673ffffffffffffffffffffffffffffffffffffffff16815260200190815260200160002060000160009054906101000a90046fffffffffffffffffffffffffffffffff166fffffffffffffffffffffffffffffffff1686600c0160008673ffffffffffffffffffffffffffffffffffffffff1673ffffffffffffffffffffffffffffffffffffffff168152602001908152602001600020604051806101000160405290816000820160405180602001604052908160008201548152505081526020016001820160009054906101000a900473ffffffffffffffffffffffffffffffffffffffff1673ffffffffffffffffffffffffffffffffffffffff1673ffffffffffffffffffffffffffffffffffffffff1681526020016002820160009054906101000a900473ffffffffffffffffffffffffffffffffffffffff1673ffffffffffffffffffffffffffffffffffffffff1673ffffffffffffffffffffffffffffffffffffffff168152602001600382015481526020016004820160009054906101000a900473ffffffffffffffffffffffffffffffffffffffff1673ffffffffffffffffffffffffffffffffffffffff1673ffffffffffffffffffffffffffffffffffffffff1681526020016005820160405180602001604052908160008201548152505081526020016006820160405180602001604052908160008201548152505081526020016007820160009054906101000a900460ff1615151515815250506136d990919063ffffffff16565b9050600081036130805760009150506130ee565b6130ea6130e56130d66130916136ac565b60000160008773ffffffffffffffffffffffffffffffffffffffff1673ffffffffffffffffffffffffffffffffffffffff168152602001908152602001600020613761565b8361389190919063ffffffff16565b6138dc565b9150505b9392505050565b6130fd6140f7565b60405180602001604052806131238460000151866000015161390990919063ffffffff16565b815250905092915050565b606082600b0160008373ffffffffffffffffffffffffffffffffffffffff1673ffffffffffffffffffffffffffffffffffffffff1681526020019081526020016000208054806020026020016040519081016040528092919081815260200182805480156131f157602002820191906000526020600020905b8160009054906101000a900473ffffffffffffffffffffffffffffffffffffffff1673ffffffffffffffffffffffffffffffffffffffff16815260200190600101908083116131a7575b5050505050905092915050565b60006132098261391f565b60000151836000015111905092915050565b6132236140f7565b6040518060200160405280613268846000015161325a6012600a61324791906163dc565b886000015161395c90919063ffffffff16565b61397290919063ffffffff16565b815250905092915050565b60006134a984600a0160008573ffffffffffffffffffffffffffffffffffffffff1673ffffffffffffffffffffffffffffffffffffffff16815260200190815260200160002060008473ffffffffffffffffffffffffffffffffffffffff1673ffffffffffffffffffffffffffffffffffffffff168152602001908152602001600020548560090160008573ffffffffffffffffffffffffffffffffffffffff1673ffffffffffffffffffffffffffffffffffffffff1681526020019081526020016000206040518060c00160405290816000820160405180602001604052908160008201548152505081526020016001820160009054906101000a900473ffffffffffffffffffffffffffffffffffffffff1673ffffffffffffffffffffffffffffffffffffffff1673ffffffffffffffffffffffffffffffffffffffff1681526020016002820160009054906101000a900473ffffffffffffffffffffffffffffffffffffffff1673ffffffffffffffffffffffffffffffffffffffff1673ffffffffffffffffffffffffffffffffffffffff1681526020016003820160009054906101000a900473ffffffffffffffffffffffffffffffffffffffff1673ffffffffffffffffffffffffffffffffffffffff1673ffffffffffffffffffffffffffffffffffffffff1681526020016003820160149054906101000a900460ff1660ff1660ff1681526020016003820160159054906101000a900460ff16151515158152505061398890919063ffffffff16565b90509392505050565b6134ba6140f7565b60405180602001604052806012600a6134d391906163dc565b6134ee8560000151876000015161395c90919063ffffffff16565b6134f89190616456565b815250905092915050565b60008160000151836000015110905092915050565b6135206140f7565b604051806020016040528061354684600001518660000151613a5090919063ffffffff16565b815250905092915050565b6135596140f7565b6000604051806020016040528084815250905060128410156135a8576135a08460126135859190616487565b600a61359191906163dc565b82613a6690919063ffffffff16565b9150506135e9565b60128411156135e4576135dc6012856135c19190616487565b600a6135cd91906163dc565b82613a9b90919063ffffffff16565b9150506135e9565b809150505b92915050565b6135f76140f7565b613672826020015173ffffffffffffffffffffffffffffffffffffffff166350d25bcd6040518163ffffffff1660e01b8152600401602060405180830381865afa158015613649573d6000803e3d6000fd5b505050506040513d601f19601f8201168201806040525081019061366d91906163af565b613ad0565b9050919050565b6136816140f7565b6136a461368d83613aee565b61369685613b0c565b6134b290919063ffffffff16565b905092915050565b6000807f028c7d8c2729a6bb9150d56b34c68e690d2d010cd1f97ccb986fdd9fba86b18990508091505090565b6000826080015173ffffffffffffffffffffffffffffffffffffffff166307a2d13a836040518263ffffffff1660e01b81526004016137189190615ddb565b602060405180830381865afa158015613735573d6000803e3d6000fd5b505050506040513d601f19601f8201168201806040525081019061375991906158e5565b905092915050565b60008073ffffffffffffffffffffffffffffffffffffffff168260040160009054906101000a900473ffffffffffffffffffffffffffffffffffffffff1673ffffffffffffffffffffffffffffffffffffffff16036137ce576b033b2e3c9fd0803ce8000000905061388c565b4264ffffffffff168260040160149054906101000a900464ffffffffff1664ffffffffff1603613832578160000160009054906101000a90046fffffffffffffffffffffffffffffffff166fffffffffffffffffffffffffffffffff16905061388c565b6138898260000160009054906101000a90046fffffffffffffffffffffffffffffffff166fffffffffffffffffffffffffffffffff1661387b4285613b9690919063ffffffff16565b61389190919063ffffffff16565b90505b919050565b6000816b019d971e4fe8401e7400000060001903048311158215176138b557600080fd5b6b033b2e3c9fd0803ce80000006b019d971e4fe8401e740000008385020104905092915050565b6000633b9aca0082049050633b9aca0082066002633b9aca00048110613903576001820191505b50919050565b6000818361391791906164bb565b905092915050565b6139276140f7565b60405180602001604052806139526012600a61394391906163dc565b8561395c90919063ffffffff16565b8152509050919050565b6000818361396a9190616355565b905092915050565b600081836139809190616456565b905092915050565b60008073ffffffffffffffffffffffffffffffffffffffff16836060015173ffffffffffffffffffffffffffffffffffffffff16036139c957819050613a4a565b826060015173ffffffffffffffffffffffffffffffffffffffff166307a2d13a836040518263ffffffff1660e01b8152600401613a069190615ddb565b602060405180830381865afa158015613a23573d6000803e3d6000fd5b505050506040513d601f19601f82011682018060405250810190613a4791906158e5565b90505b92915050565b60008183613a5e9190616487565b905092915050565b613a6e6140f7565b6040518060200160405280613a9084866000015161395c90919063ffffffff16565b815250905092915050565b613aa36140f7565b6040518060200160405280613ac584866000015161397290919063ffffffff16565b815250905092915050565b613ad86140f7565b6040518060200160405280838152509050919050565b613af66140f7565b6040518060200160405280838152509050919050565b613b146140f7565b613b8f826020015173ffffffffffffffffffffffffffffffffffffffff166350d25bcd6040518163ffffffff1660e01b8152600401602060405180830381865afa158015613b66573d6000803e3d6000fd5b505050506040513d601f19601f82011682018060405250810190613b8a91906163af565b613ad0565b9050919050565b6000808360040160149054906101000a900464ffffffffff1664ffffffffff1683613bc19190616487565b905060008103613be0576b033b2e3c9fd0803ce8000000915050613dd9565b60008060008060018503935060028511613bfb576000613c00565b600285035b92506301e133808002613c808960020160109054906101000a90046fffffffffffffffffffffffffffffffff166fffffffffffffffffffffffffffffffff168a60020160109054906101000a90046fffffffffffffffffffffffffffffffff166fffffffffffffffffffffffffffffffff1661389190919063ffffffff16565b81613c8e57613c8d616427565b5b0491506301e13380613cdb8960020160109054906101000a90046fffffffffffffffffffffffffffffffff166fffffffffffffffffffffffffffffffff168461389190919063ffffffff16565b81613ce957613ce8616427565b5b0490506000828587613cfb9190616355565b613d059190616355565b905060028181613d1857613d17616427565b5b049050600082858789613d2b9190616355565b613d359190616355565b613d3f9190616355565b905060068181613d5257613d51616427565b5b04905080826301e13380898d60020160109054906101000a90046fffffffffffffffffffffffffffffffff166fffffffffffffffffffffffffffffffff16613d9a9190616355565b613da49190616456565b6b033b2e3c9fd0803ce8000000613dbb91906164bb565b613dc591906164bb565b613dcf91906164bb565b9750505050505050505b92915050565b6040518060a00160405280600060ff168152602001600060ff1681526020016000815260200160008152602001600081525090565b6040518061012001604052806060815260200160608152602001613e366140f7565b8152602001613e436140f7565b8152602001613e506140f7565b8152602001613e5d6140f7565b8152602001613e6a6140f7565b8152602001613e776140f7565b8152602001613e846140f7565b81525090565b6040518060800160405280600060ff1681526020016060815260200160608152602001600081525090565b6040518060800160405280600081526020016000815260200160008152602001600081525090565b6040518060400160405280600073ffffffffffffffffffffffffffffffffffffffff168152602001600081525090565b60405180610120016040528060008152602001600073ffffffffffffffffffffffffffffffffffffffff168152602001600081526020016000815260200160608152602001600081526020016000815260200160608152602001606081525090565b60405180608001604052806000815260200160008152602001600073ffffffffffffffffffffffffffffffffffffffff168152602001600069ffffffffffffffffffff1681525090565b604051806101200160405280600073ffffffffffffffffffffffffffffffffffffffff168152602001600073ffffffffffffffffffffffffffffffffffffffff168152602001600073ffffffffffffffffffffffffffffffffffffffff16815260200160008152602001600081526020016140326140f7565b8152602001600060ff16815260200160608152602001606081525090565b604051806101400160405280600073ffffffffffffffffffffffffffffffffffffffff168152602001600073ffffffffffffffffffffffffffffffffffffffff168152602001600073ffffffffffffffffffffffffffffffffffffffff16815260200160008152602001600081526020016140c96140f7565b81526020016140d66140f7565b81526020016140e36140f7565b815260200160608152602001606081525090565b6040518060200160405280600081525090565b604051806101800160405280600073ffffffffffffffffffffffffffffffffffffffff168152602001600073ffffffffffffffffffffffffffffffffffffffff168152602001600073ffffffffffffffffffffffffffffffffffffffff1681526020016000815260200161417c6140f7565b8152602001600081526020016141906140f7565b81526020016000815260200160608152602001606081526020016141b26140f7565b81526020016141bf6140f7565b81525090565b604051806101600160405280600073ffffffffffffffffffffffffffffffffffffffff168152602001600073ffffffffffffffffffffffffffffffffffffffff168152602001600073ffffffffffffffffffffffffffffffffffffffff168152602001600081526020016142376140f7565b81526020016142446140f7565b8152602001600060ff168152602001600081526020016000815260200160608152602001606081525090565b6000604051905090565b600080fd5b600080fd5b600080fd5b6000601f19601f8301169050919050565b7f4e487b7100000000000000000000000000000000000000000000000000000000600052604160045260246000fd5b6142d282614289565b810181811067ffffffffffffffff821117156142f1576142f061429a565b5b80604052505050565b6000614304614270565b905061431082826142c9565b919050565b600067ffffffffffffffff8211156143305761432f61429a565b5b602082029050602081019050919050565b600080fd5b600073ffffffffffffffffffffffffffffffffffffffff82169050919050565b600061437182614346565b9050919050565b61438181614366565b811461438c57600080fd5b50565b60008135905061439e81614378565b92915050565b60006143b76143b284614315565b6142fa565b905080838252602082019050602084028301858111156143da576143d9614341565b5b835b8181101561440357806143ef888261438f565b8452602084019350506020810190506143dc565b5050509392505050565b600082601f83011261442257614421614284565b5b81356144328482602086016143a4565b91505092915050565b6000602082840312156144515761445061427a565b5b600082013567ffffffffffffffff81111561446f5761446e61427f565b5b61447b8482850161440d565b91505092915050565b600081519050919050565b600082825260208201905092915050565b6000819050602082019050919050565b600060ff82169050919050565b6144c6816144b0565b82525050565b6000819050919050565b6144df816144cc565b82525050565b60a0820160008201516144fb60008501826144bd565b50602082015161450e60208501826144bd565b50604082015161452160408501826144d6565b50606082015161453460608501826144d6565b50608082015161454760808501826144d6565b50505050565b600061455983836144e5565b60a08301905092915050565b6000602082019050919050565b600061457d82614484565b614587818561448f565b9350614592836144a0565b8060005b838110156145c35781516145aa888261454d565b97506145b583614565565b925050600181019050614596565b5085935050505092915050565b600060208201905081810360008301526145ea8184614572565b905092915050565b60008060006060848603121561460b5761460a61427a565b5b60006146198682870161438f565b935050602084013567ffffffffffffffff81111561463a5761463961427f565b5b6146468682870161440d565b92505060406146578682870161438f565b9150509250925092565b600081519050919050565b600082825260208201905092915050565b6000819050602082019050919050565b61469681614366565b82525050565b6020820160008201516146b260008501826144d6565b50505050565b600081519050919050565b600082825260208201905092915050565b60005b838110156146f25780820151818401526020810190506146d7565b83811115614701576000848401525b50505050565b6000614712826146b8565b61471c81856146c3565b935061472c8185602086016146d4565b61473581614289565b840191505092915050565b600061018083016000830151614759600086018261468d565b50602083015161476c602086018261468d565b50604083015161477f604086018261468d565b50606083015161479260608601826144d6565b5060808301516147a5608086018261469c565b5060a08301516147b860a08601826144d6565b5060c08301516147cb60c086018261469c565b5060e08301516147de60e08601826144d6565b506101008301518482036101008601526147f88282614707565b9150506101208301518482036101208601526148148282614707565b91505061014083015161482b61014086018261469c565b5061016083015161484061016086018261469c565b508091505092915050565b60006148578383614740565b905092915050565b6000602082019050919050565b600061487782614661565b614881818561466c565b9350836020820285016148938561467d565b8060005b858110156148cf57848403895281516148b0858261484b565b94506148bb8361485f565b925060208a01995050600181019050614897565b50829750879550505050505092915050565b600081519050919050565b600082825260208201905092915050565b6000819050602082019050919050565b600061016083016000830151614926600086018261468d565b506020830151614939602086018261468d565b50604083015161494c604086018261468d565b50606083015161495f60608601826144d6565b506080830151614972608086018261469c565b5060a083015161498560a086018261469c565b5060c083015161499860c08601826144bd565b5060e08301516149ab60e08601826144d6565b506101008301516149c06101008601826144d6565b506101208301518482036101208601526149da8282614707565b9150506101408301518482036101408601526149f68282614707565b9150508091505092915050565b6000614a0f838361490d565b905092915050565b6000602082019050919050565b6000614a2f826148e1565b614a3981856148ec565b935083602082028501614a4b856148fd565b8060005b85811015614a875784840389528151614a688582614a03565b9450614a7383614a17565b925060208a01995050600181019050614a4f565b50829750879550505050505092915050565b6000610120830160008301518482036000860152614ab7828261486c565b91505060208301518482036020860152614ad18282614a24565b9150506040830151614ae6604086018261469c565b506060830151614af9606086018261469c565b506080830151614b0c608086018261469c565b5060a0830151614b1f60a086018261469c565b5060c0830151614b3260c086018261469c565b5060e0830151614b4560e086018261469c565b50610100830151614b5a61010086018261469c565b508091505092915050565b600081519050919050565b600082825260208201905092915050565b6000819050602082019050919050565b604082016000820151614ba7600085018261468d565b506020820151614bba60208501826144d6565b50505050565b6000614bcc8383614b91565b60408301905092915050565b6000602082019050919050565b6000614bf082614b65565b614bfa8185614b70565b9350614c0583614b81565b8060005b83811015614c36578151614c1d8882614bc0565b9750614c2883614bd8565b925050600181019050614c09565b5085935050505092915050565b600081519050919050565b600082825260208201905092915050565b6000819050602082019050919050565b600081519050919050565b600082825260208201905092915050565b6000819050602082019050919050565b6000614ca783836144d6565b60208301905092915050565b6000602082019050919050565b6000614ccb82614c6f565b614cd58185614c7a565b9350614ce083614c8b565b8060005b83811015614d11578151614cf88882614c9b565b9750614d0383614cb3565b925050600181019050614ce4565b5085935050505092915050565b600081519050919050565b600082825260208201905092915050565b6000819050602082019050919050565b6000614d56838361468d565b60208301905092915050565b6000602082019050919050565b6000614d7a82614d1e565b614d848185614d29565b9350614d8f83614d3a565b8060005b83811015614dc0578151614da78882614d4a565b9750614db283614d62565b925050600181019050614d93565b5085935050505092915050565b600061012083016000830151614de660008601826144d6565b506020830151614df9602086018261468d565b506040830151614e0c60408601826144d6565b506060830151614e1f60608601826144d6565b5060808301518482036080860152614e378282614cc0565b91505060a0830151614e4c60a08601826144d6565b5060c0830151614e5f60c08601826144d6565b5060e083015184820360e0860152614e778282614d6f565b915050610100830151848203610100860152614e938282614cc0565b9150508091505092915050565b6000614eac8383614dcd565b905092915050565b6000602082019050919050565b6000614ecc82614c43565b614ed68185614c4e565b935083602082028501614ee885614c5f565b8060005b85811015614f245784840389528151614f058582614ea0565b9450614f1083614eb4565b925060208a01995050600181019050614eec565b50829750879550505050505092915050565b60006060820190508181036000830152614f508186614a99565b90508181036020830152614f648185614be5565b90508181036040830152614f788184614ec1565b9050949350505050565b60008060408385031215614f9957614f9861427a565b5b600083013567ffffffffffffffff811115614fb757614fb661427f565b5b614fc38582860161440d565b925050602083013567ffffffffffffffff811115614fe457614fe361427f565b5b614ff08582860161440d565b9150509250929050565b600081519050919050565b600082825260208201905092915050565b6000819050602082019050919050565b600069ffffffffffffffffffff82169050919050565b61504581615026565b82525050565b60808201600082015161506160008501826144d6565b50602082015161507460208501826144d6565b506040820151615087604085018261468d565b50606082015161509a606085018261503c565b50505050565b60006150ac838361504b565b60808301905092915050565b6000602082019050919050565b60006150d082614ffa565b6150da8185615005565b93506150e583615016565b8060005b838110156151165781516150fd88826150a0565b9750615108836150b8565b9250506001810190506150e9565b5085935050505092915050565b6000602082019050818103600083015261513d81846150c5565b905092915050565b60008060006060848603121561515e5761515d61427a565b5b600084013567ffffffffffffffff81111561517c5761517b61427f565b5b6151888682870161440d565b935050602084013567ffffffffffffffff8111156151a9576151a861427f565b5b6151b58682870161440d565b925050604084013567ffffffffffffffff8111156151d6576151d561427f565b5b6151e28682870161440d565b9150509250925092565b600081519050919050565b600082825260208201905092915050565b6000819050602082019050919050565b600060808301600083015161523060008601826144bd565b50602083015184820360208601526152488282614707565b915050604083015184820360408601526152628282614707565b915050606083015161527760608601826144d6565b508091505092915050565b600061528e8383615218565b905092915050565b6000602082019050919050565b60006152ae826151ec565b6152b881856151f7565b9350836020820285016152ca85615208565b8060005b8581101561530657848403895281516152e78582615282565b94506152f283615296565b925060208a019950506001810190506152ce565b50829750879550505050505092915050565b6000604082019050818103600083015261533281856152a3565b9050818103602083015261534681846150c5565b90509392505050565b600081519050919050565b600082825260208201905092915050565b6000819050602082019050919050565b600061012083016000830151615394600086018261468d565b5060208301516153a7602086018261468d565b5060408301516153ba604086018261468d565b5060608301516153cd60608601826144d6565b5060808301516153e060808601826144d6565b5060a08301516153f360a086018261469c565b5060c083015161540660c08601826144bd565b5060e083015184820360e086015261541e8282614707565b91505061010083015184820361010086015261543a8282614707565b9150508091505092915050565b6000615453838361537b565b905092915050565b6000602082019050919050565b60006154738261534f565b61547d818561535a565b93508360208202850161548f8561536b565b8060005b858110156154cb57848403895281516154ac8582615447565b94506154b78361545b565b925060208a01995050600181019050615493565b50829750879550505050505092915050565b600081519050919050565b600082825260208201905092915050565b6000819050602082019050919050565b600061014083016000830151615522600086018261468d565b506020830151615535602086018261468d565b506040830151615548604086018261468d565b50606083015161555b60608601826144d6565b50608083015161556e60808601826144d6565b5060a083015161558160a086018261469c565b5060c083015161559460c086018261469c565b5060e08301516155a760e086018261469c565b506101008301518482036101008601526155c18282614707565b9150506101208301518482036101208601526155dd8282614707565b9150508091505092915050565b60006155f68383615509565b905092915050565b6000602082019050919050565b6000615616826154dd565b61562081856154e8565b935083602082028501615632856154f9565b8060005b8581101561566e578484038952815161564f85826155ea565b945061565a836155fe565b925060208a01995050600181019050615636565b50829750879550505050505092915050565b60808201600082015161569660008501826144d6565b5060208201516156a960208501826144d6565b5060408201516156bc60408501826144d6565b5060608201516156cf60608501826144d6565b50505050565b600060c08201905081810360008301526156ef8186615468565b90508181036020830152615703818561560b565b90506157126040830184615680565b949350505050565b7f4e487b7100000000000000000000000000000000000000000000000000000000600052603260045260246000fd5b60008151905061575881614378565b92915050565b6000602082840312156157745761577361427a565b5b600061578284828501615749565b91505092915050565b60006dffffffffffffffffffffffffffff82169050919050565b6157ae8161578b565b81146157b957600080fd5b50565b6000815190506157cb816157a5565b92915050565b600063ffffffff82169050919050565b6157ea816157d1565b81146157f557600080fd5b50565b600081519050615807816157e1565b92915050565b6000806000606084860312156158265761582561427a565b5b6000615834868287016157bc565b9350506020615845868287016157bc565b9250506040615856868287016157f8565b9150509250925092565b615869816144b0565b811461587457600080fd5b50565b60008151905061588681615860565b92915050565b6000602082840312156158a2576158a161427a565b5b60006158b084828501615877565b91505092915050565b6158c2816144cc565b81146158cd57600080fd5b50565b6000815190506158df816158b9565b92915050565b6000602082840312156158fb576158fa61427a565b5b6000615909848285016158d0565b91505092915050565b7f4e487b7100000000000000000000000000000000000000000000000000000000600052601160045260246000fd5b600061594c826144cc565b91507fffffffffffffffffffffffffffffffffffffffffffffffffffffffffffffffff820361597e5761597d615912565b5b600182019050919050565b600080fd5b600067ffffffffffffffff8211156159a9576159a861429a565b5b6159b282614289565b9050602081019050919050565b60006159d26159cd8461598e565b6142fa565b9050828152602081018484840111156159ee576159ed615989565b5b6159f98482856146d4565b509392505050565b600082601f830112615a1657615a15614284565b5b8151615a268482602086016159bf565b91505092915050565b600060208284031215615a4557615a4461427a565b5b600082015167ffffffffffffffff811115615a6357615a6261427f565b5b615a6f84828501615a01565b91505092915050565b615a8181614366565b82525050565b6000602082019050615a9c6000830184615a78565b92915050565b600067ffffffffffffffff821115615abd57615abc61429a565b5b602082029050602081019050919050565b600080fd5b600080fd5b6000615aeb615ae684614315565b6142fa565b90508083825260208201905060208402830185811115615b0e57615b0d614341565b5b835b81811015615b375780615b238882615749565b845260208401935050602081019050615b10565b5050509392505050565b600082601f830112615b5657615b55614284565b5b8151615b66848260208601615ad8565b91505092915050565b600067ffffffffffffffff821115615b8a57615b8961429a565b5b602082029050602081019050919050565b6000615bae615ba984615b6f565b6142fa565b90508083825260208201905060208402830185811115615bd157615bd0614341565b5b835b81811015615bfa5780615be688826158d0565b845260208401935050602081019050615bd3565b5050509392505050565b600082601f830112615c1957615c18614284565b5b8151615c29848260208601615b9b565b91505092915050565b600060608284031215615c4857615c47615ace565b5b615c5260606142fa565b90506000615c62848285016158d0565b600083015250602082015167ffffffffffffffff811115615c8657615c85615ad3565b5b615c9284828501615b41565b602083015250604082015167ffffffffffffffff811115615cb657615cb5615ad3565b5b615cc284828501615c04565b60408301525092915050565b6000615ce1615cdc84615aa2565b6142fa565b90508083825260208201905060208402830185811115615d0457615d03614341565b5b835b81811015615d4b57805167ffffffffffffffff811115615d2957615d28614284565b5b808601615d368982615c32565b85526020850194505050602081019050615d06565b5050509392505050565b600082601f830112615d6a57615d69614284565b5b8151615d7a848260208601615cce565b91505092915050565b600060208284031215615d9957615d9861427a565b5b600082015167ffffffffffffffff811115615db757615db661427f565b5b615dc384828501615d55565b91505092915050565b615dd5816144cc565b82525050565b6000602082019050615df06000830184615dcc565b92915050565b6000615e0182614366565b9050919050565b615e1181615df6565b8114615e1c57600080fd5b50565b600081519050615e2e81615e08565b92915050565b60006fffffffffffffffffffffffffffffffff82169050919050565b615e5981615e34565b8114615e6457600080fd5b50565b600081519050615e7681615e50565b92915050565b600060a08284031215615e9257615e91615ace565b5b615e9c60a06142fa565b90506000615eac84828501615e1f565b6000830152506020615ec084828501615e67565b6020830152506040615ed484828501615e67565b604083015250606082015167ffffffffffffffff811115615ef857615ef7615ad3565b5b615f0484828501615c04565b606083015250608082015167ffffffffffffffff811115615f2857615f27615ad3565b5b615f3484828501615b41565b60808301525092915050565b600060208284031215615f5657615f5561427a565b5b600082015167ffffffffffffffff811115615f7457615f7361427f565b5b615f8084828501615e7c565b91505092915050565b600060208284031215615f9f57615f9e61427a565b5b600082015167ffffffffffffffff811115615fbd57615fbc61427f565b5b615fc984828501615c04565b91505092915050565b6000604082019050615fe76000830185615dcc565b615ff46020830184615a78565b9392505050565b60006040828403121561601157616010615ace565b5b61601b60406142fa565b9050600061602b848285016158d0565b600083015250602082015167ffffffffffffffff81111561604f5761604e615ad3565b5b61605b84828501615c04565b60208301525092915050565b60006020828403121561607d5761607c61427a565b5b600082015167ffffffffffffffff81111561609b5761609a61427f565b5b6160a784828501615ffb565b91505092915050565b6160b981615026565b81146160c457600080fd5b50565b6000815190506160d6816160b0565b92915050565b6000819050919050565b6160ef816160dc565b81146160fa57600080fd5b50565b60008151905061610c816160e6565b92915050565b60008115159050919050565b61612781616112565b811461613257600080fd5b50565b6000815190506161448161611e565b92915050565b60008060008060008060c087890312156161675761616661427a565b5b600061617589828a016160c7565b965050602061618689828a016160fd565b955050604061619789828a01616135565b94505060606161a889828a016158d0565b93505060806161b989828a016158d0565b92505060a06161ca89828a016160c7565b9150509295509295509295565b60008160011c9050919050565b6000808291508390505b600185111561622e5780860481111561620a57616209615912565b5b60018516156162195780820291505b8081029050616227856161d7565b94506161ee565b94509492505050565b6000826162475760019050616303565b816162555760009050616303565b816001811461626b5760028114616275576162a4565b6001915050616303565b60ff84111561628757616286615912565b5b8360020a91508482111561629e5761629d615912565b5b50616303565b5060208310610133831016604e8410600b84101617156162d95782820a9050838111156162d4576162d3615912565b5b616303565b6162e684848460016161e4565b925090508184048111156162fd576162fc615912565b5b81810290505b9392505050565b6000616315826144cc565b9150616320836144b0565b925061634d7fffffffffffffffffffffffffffffffffffffffffffffffffffffffffffffffff8484616237565b905092915050565b6000616360826144cc565b915061636b836144cc565b9250817fffffffffffffffffffffffffffffffffffffffffffffffffffffffffffffffff04831182151516156163a4576163a3615912565b5b828202905092915050565b6000602082840312156163c5576163c461427a565b5b60006163d3848285016160fd565b91505092915050565b60006163e7826144cc565b91506163f2836144cc565b925061641f7fffffffffffffffffffffffffffffffffffffffffffffffffffffffffffffffff8484616237565b905092915050565b7f4e487b7100000000000000000000000000000000000000000000000000000000600052601260045260246000fd5b6000616461826144cc565b915061646c836144cc565b92508261647c5761647b616427565b5b828204905092915050565b6000616492826144cc565b915061649d836144cc565b9250828210156164b0576164af615912565b5b828203905092915050565b60006164c6826144cc565b91506164d1836144cc565b9250827fffffffffffffffffffffffffffffffffffffffffffffffffffffffffffffffff0382111561650657616505615912565b5b82820190509291505056fea26469706673582212208d077f40417776f93305a8ae074c5db894bf062e623893e787200cd0c7260cea64736f6c634300080e0033",
  "devdoc": {
    "author": "Kresko",
    "kind": "dev",
    "methods": {},
    "title": "UIDataProviderFacet",
    "version": 1
  },
  "userdoc": {
    "kind": "user",
    "methods": {},
    "notice": "UI data aggregation views",
    "version": 1
  },
  "storageLayout": {
    "storage": [],
    "types": null
  }
}