{
  "address": "0x4ED4b57169d4d2e305c52bB2fbb03942E7170b80",
  "abi": [
    {
      "inputs": [
        {
          "internalType": "address[]",
          "name": "_collateralAssets",
          "type": "address[]"
        },
        {
          "internalType": "address[]",
          "name": "_krAssets",
          "type": "address[]"
        }
      ],
      "name": "getGlobalData",
      "outputs": [
        {
          "components": [
            {
              "internalType": "address",
              "name": "assetAddress",
              "type": "address"
            },
            {
              "internalType": "address",
              "name": "oracleAddress",
              "type": "address"
            },
            {
              "internalType": "address",
              "name": "anchorAddress",
              "type": "address"
            },
            {
              "internalType": "uint256",
              "name": "price",
              "type": "uint256"
            },
            {
              "internalType": "uint256",
              "name": "value",
              "type": "uint256"
            },
            {
              "internalType": "uint256",
              "name": "liquidationIncentive",
              "type": "uint256"
            },
            {
              "internalType": "uint256",
              "name": "cFactor",
              "type": "uint256"
            },
            {
              "internalType": "uint8",
              "name": "decimals",
              "type": "uint8"
            },
            {
              "internalType": "string",
              "name": "symbol",
              "type": "string"
            },
            {
              "internalType": "string",
              "name": "name",
              "type": "string"
            },
            {
              "internalType": "bool",
              "name": "marketOpen",
              "type": "bool"
            }
          ],
          "internalType": "struct LibUI.CollateralAssetInfo[]",
          "name": "collateralAssets",
          "type": "tuple[]"
        },
        {
          "components": [
            {
              "internalType": "address",
              "name": "oracleAddress",
              "type": "address"
            },
            {
              "internalType": "address",
              "name": "assetAddress",
              "type": "address"
            },
            {
              "internalType": "address",
              "name": "anchorAddress",
              "type": "address"
            },
            {
              "internalType": "uint256",
              "name": "price",
              "type": "uint256"
            },
            {
              "internalType": "uint256",
              "name": "ammPrice",
              "type": "uint256"
            },
            {
              "internalType": "uint256",
              "name": "priceRate",
              "type": "uint256"
            },
            {
              "internalType": "uint256",
              "name": "stabilityRate",
              "type": "uint256"
            },
            {
              "internalType": "uint256",
              "name": "value",
              "type": "uint256"
            },
            {
              "internalType": "uint256",
              "name": "openFee",
              "type": "uint256"
            },
            {
              "internalType": "uint256",
              "name": "closeFee",
              "type": "uint256"
            },
            {
              "internalType": "uint256",
              "name": "kFactor",
              "type": "uint256"
            },
            {
              "internalType": "string",
              "name": "symbol",
              "type": "string"
            },
            {
              "internalType": "string",
              "name": "name",
              "type": "string"
            },
            {
              "internalType": "bool",
              "name": "marketOpen",
              "type": "bool"
            }
          ],
          "internalType": "struct LibUI.krAssetInfo[]",
          "name": "krAssets",
          "type": "tuple[]"
        },
        {
          "components": [
            {
              "internalType": "uint256",
              "name": "minDebtValue",
              "type": "uint256"
            },
            {
              "internalType": "uint256",
              "name": "minCollateralRatio",
              "type": "uint256"
            },
            {
              "internalType": "uint256",
              "name": "liquidationThreshold",
              "type": "uint256"
            }
          ],
          "internalType": "struct LibUI.ProtocolParams",
          "name": "protocolParams",
          "type": "tuple"
        }
      ],
      "stateMutability": "view",
      "type": "function"
    },
    {
      "inputs": [
        {
          "internalType": "address[]",
          "name": "_pairAddresses",
          "type": "address[]"
        }
      ],
      "name": "getPairsData",
      "outputs": [
        {
          "components": [
            {
              "internalType": "uint8",
              "name": "decimals0",
              "type": "uint8"
            },
            {
              "internalType": "uint8",
              "name": "decimals1",
              "type": "uint8"
            },
            {
              "internalType": "uint256",
              "name": "reserve0",
              "type": "uint256"
            },
            {
              "internalType": "uint256",
              "name": "reserve1",
              "type": "uint256"
            },
            {
              "internalType": "uint256",
              "name": "totalSupply",
              "type": "uint256"
            }
          ],
          "internalType": "struct LibUI.PairData[]",
          "name": "result",
          "type": "tuple[]"
        }
      ],
      "stateMutability": "view",
      "type": "function"
    }
  ],
  "transactionHash": "0xe04942d150c8bcc6cb6ee79db16543245031593b59faf1cf2a5ac7ec28bbdb1c",
  "args": [],
  "numDeployments": 5,
  "solcInputHash": "da64b2514f06331329702e90140ebd5b",
  "bytecode": "0x6080806040523461001657611ce2908161001c8239f35b600080fdfe6040608081526004908136101561001557600080fd5b600090813560e01c92836378235390146100405750505063fe42d8451461003b57600080fd5b6108b4565b34610383576020928360031936011261038057813567ffffffffffffffff811161037c5761007190369084016104db565b9261007c8451610d3c565b90825b855181101561036b576100ce6100b56100b561009b848a610e09565b5173ffffffffffffffffffffffffffffffffffffffff1690565b73ffffffffffffffffffffffffffffffffffffffff1690565b908251630240bc6b60e21b815260609081818981875afa9182156102985787918893610339575b5085517f0dfe1681000000000000000000000000000000000000000000000000000000008152918b838b81895afa92831561029857899361031a575b5086519363313ce56760e01b8086528d868d8160018060a01b038099165afa958615610298578e8d918d986102fb575b508a517fd21220a7000000000000000000000000000000000000000000000000000000008152918290818c5afa908115610298578f928e918e936102cc575b508b5197889384928352165afa938415610298578b978e918c9661029d575b5089517f18160ddd00000000000000000000000000000000000000000000000000000000815298899182905afa938415610298578d61025e988c96610263575b509061022391610219610210610436565b60ff9099168952565b87019060ff169052565b6dffffffffffffffffffffffffffff809216888601521690830152608082015261024d8286610e09565b526102588185610e09565b50610dd7565b61007f565b8196506102899061022393923d8911610291575b6102818183610414565b810190610ec1565b9590916101ff565b503d610277565b610e84565b6102be919650823d84116102c5575b6102b68183610414565b810190610ea8565b948f6101bf565b503d6102ac565b6102ed919350843d86116102f4575b6102e58183610414565b810190610e90565b91386101a0565b503d6102db565b816103139299503d8a116102c5576102b68183610414565b9638610161565b6103329193508c8d3d106102f4576102e58183610414565b918c610131565b9080935061035c92503d8411610364575b6103548183610414565b810190610e4e565b50918b6100f5565b503d61034a565b8151806103788582610543565b0390f35b5080fd5b80fd5b8280fd5b634e487b7160e01b600052604160045260246000fd5b6060810190811067ffffffffffffffff8211176103b957604052565b610387565b6101c0810190811067ffffffffffffffff8211176103b957604052565b610160810190811067ffffffffffffffff8211176103b957604052565b60e0810190811067ffffffffffffffff8211176103b957604052565b90601f8019910116810190811067ffffffffffffffff8211176103b957604052565b6040519060a0820182811067ffffffffffffffff8211176103b957604052565b60405190610463826103db565b565b604051906104638261039d565b60405190610100820182811067ffffffffffffffff8211176103b957604052565b60405190610463826103be565b67ffffffffffffffff81116103b95760051b60200190565b73ffffffffffffffffffffffffffffffffffffffff8116036104d657565b600080fd5b81601f820112156104d6578035916104f2836104a0565b926105006040519485610414565b808452602092838086019260051b8201019283116104d6578301905b82821061052a575050505090565b8380918335610538816104b8565b81520191019061051c565b60208082019080835283518092528060408094019401926000905b83821061056d57505050505090565b8451805160ff90811688528185015116878501528082015187830152606080820151908801526080908101519087015260a0909501949382019360019091019061055e565b60005b8381106105c55750506000910152565b81810151838201526020016105b5565b906020916105ee815180928185528580860191016105b2565b601f017fffffffffffffffffffffffffffffffffffffffffffffffffffffffffffffffe016010190565b908082519081815260208091019281808460051b8301019501936000915b8483106106465750505050505090565b9091929394958480600192601f198582030186526107458a519161067281845160018060a01b03169052565b8284015173ffffffffffffffffffffffffffffffffffffffff168185015260408381015173ffffffffffffffffffffffffffffffffffffffff1690820152606080840151908201526080808401519082015260a0808401519082015260c0808401519082015260e0808401519082015261010080840151908201526101208084015190820152610140808401519082015261073561072161016080860151906101c080918601528401906105d5565b6101808086015190848303908501526105d5565b6101a09384015115159190930152565b9801930193019194939290610636565b93929160a09182860192808752815180945260c09384880194808260051b8a0101956020809501936000925b8b8585106107c65792505050866104639897945060409693506107aa9592500390890152610618565b9401906040809180518452602081015160208501520151910152565b8760019293949596979a819260bf199082030187526108a48c51916107f381845160018060a01b03169052565b8284015173ffffffffffffffffffffffffffffffffffffffff168185015260408381015173ffffffffffffffffffffffffffffffffffffffff169082015260608381015190820152608080840151908201528783015188820152868301518782015260e08084015160ff1690820152610894610880610100808601519061016080918601528401906105d5565b6101208086015190848303908501526105d5565b6101409384015115159190930152565b9a01940194019294939190610781565b346104d6576040367ffffffffffffffffffffffffffffffffffffffffffffffffffffffffffffffffc01126104d65767ffffffffffffffff6004358181116104d6576109049036906004016104db565b906024359081116104d65761091d9036906004016104db565b9060006040805161092d8161039d565b82815282602082015201526109428151611a04565b9060005b8151811015610ca55761095c61009b8284610e09565b73ffffffffffffffffffffffffffffffffffffffff811660009081527f5076ab9fa18d2a17cfce4375a530b76392de8264a11126885cd5534d39f0a985602052604090206109a990611aa3565b6040517f313ce5670000000000000000000000000000000000000000000000000000000081529060208260048173ffffffffffffffffffffffffffffffffffffffff87165afa801561029857600492600091610c86575b50610a13610a0d82611b05565b85611b16565b60208401519193909291610a3c9073ffffffffffffffffffffffffffffffffffffffff166100b5565b606082015190939073ffffffffffffffffffffffffffffffffffffffff169460c0830151916020610a7b6100b56040875197015160018060a01b031690565b6040517fc6b050c1000000000000000000000000000000000000000000000000000000008152998a9182905afa97881561029857600098610c55575b506040517f95d89b410000000000000000000000000000000000000000000000000000000081529660008860048173ffffffffffffffffffffffffffffffffffffffff8e165afa96871561029857600498600098610c38575b506040517f06fdde03000000000000000000000000000000000000000000000000000000008152986000908a908173ffffffffffffffffffffffffffffffffffffffff8f165afa98891561029857600099610c13575b50610b6f610456565b73ffffffffffffffffffffffffffffffffffffffff909b168b5273ffffffffffffffffffffffffffffffffffffffff1660208b015273ffffffffffffffffffffffffffffffffffffffff1660408a01526060890152608088015260a087015260c086015260ff1660e08501526101008401526101208301521515610140820152610bf98285610e09565b52610c048184610e09565b50610c0e90610dd7565b610946565b610c319199503d806000833e610c298183610414565b8101906110d0565b9738610b66565b610c4e9198503d806000833e610c298183610414565b9638610b10565b610c7891985060203d602011610c7f575b610c708183610414565b8101906110b8565b9638610ab7565b503d610c66565b610c9f915060203d6020116102c5576102b68183610414565b38610a00565b82610caf85611157565b906103787f5076ab9fa18d2a17cfce4375a530b76392de8264a11126885cd5534d39f0a980547f5076ab9fa18d2a17cfce4375a530b76392de8264a11126885cd5534d39f0a98154907f5076ab9fa18d2a17cfce4375a530b76392de8264a11126885cd5534d39f0a9825490610d23610465565b9283526020830152604082015260405193849384610755565b90610d46826104a0565b6040610d5481519283610414565b8382528193610d65601f19916104a0565b019060005b828110610d775750505050565b81519060a082019180831067ffffffffffffffff8411176103b957602092845260008152826000818301526000858301526000606083015260006080830152828701015201610d6a565b634e487b7160e01b600052601160045260246000fd5b7fffffffffffffffffffffffffffffffffffffffffffffffffffffffffffffffff8114610e045760010190565b610dc1565b8051821015610e1d5760209160051b010190565b634e487b7160e01b600052603260045260246000fd5b51906dffffffffffffffffffffffffffff821682036104d657565b908160609103126104d657610e6281610e33565b916040610e7160208401610e33565b92015163ffffffff811681036104d65790565b6040513d6000823e3d90fd5b908160209103126104d65751610ea5816104b8565b90565b908160209103126104d6575160ff811681036104d65790565b908160209103126104d6575190565b90610eda826104a0565b604090610ee982519182610414565b8381528093610efa601f19916104a0565b019160005b838110610f0c5750505050565b6020908251610f1a816103be565b6000815282600081830152600085830152606060008184015260006080840152600060a0840152600060c0840152600060e08401526000610100840152600061012084015260006101408401528061016084015261018083015260006101a0830152828601015201610eff565b73ffffffffffffffffffffffffffffffffffffffff1660009081527f5076ab9fa18d2a17cfce4375a530b76392de8264a11126885cd5534d39f0a9886020526040902090565b73ffffffffffffffffffffffffffffffffffffffff1660009081527f028c7d8c2729a6bb9150d56b34c68e690d2d010cd1f97ccb986fdd9fba86b1896020526040902090565b906104636110af6007611024610472565b85548152600186015473ffffffffffffffffffffffffffffffffffffffff16602082015294600281015473ffffffffffffffffffffffffffffffffffffffff16604087015260038101546060870152600481015473ffffffffffffffffffffffffffffffffffffffff166080870152600581015460a0870152600681015460c0870152015460ff1690565b151560e0840152565b908160209103126104d6575180151581036104d65790565b6020818303126104d657805167ffffffffffffffff918282116104d657019082601f830112156104d65781519081116103b95760405192611139601f83017fffffffffffffffffffffffffffffffffffffffffffffffffffffffffffffffe01660200185610414565b818452602082840101116104d657610ea591602080850191016105b2565b6111618151610ed0565b9060005b81518110156115715761117b61009b8284610e09565b61118c61118782610f87565b611013565b6000918291836111be6100b560046111a386610fcd565b015473ffffffffffffffffffffffffffffffffffffffff1690565b61147d575b9082916111d1600494611576565b60208301519096906111f89073ffffffffffffffffffffffffffffffffffffffff166100b5565b608084015190979073ffffffffffffffffffffffffffffffffffffffff169660a08501519360c08601519386519660208c6040519b8c80926350d25bcd60e01b82525afa9081156102985760049a600092611450575b50604001516020906112759073ffffffffffffffffffffffffffffffffffffffff166100b5565b6040517fc6b050c10000000000000000000000000000000000000000000000000000000081529b8c9182905afa998a156102985760009a61142c575b506040517f95d89b41000000000000000000000000000000000000000000000000000000008152999a98999860008a60048173ffffffffffffffffffffffffffffffffffffffff8f165afa998a156102985760009a611411575b506040517f06fdde030000000000000000000000000000000000000000000000000000000081529a60008c60048173ffffffffffffffffffffffffffffffffffffffff85165afa9b8c156102985760009c6113f6575b5061136a610493565b73ffffffffffffffffffffffffffffffffffffffff9e8f168152908e1660208201529c1660408d015260608c015260808b015260a08a015260c089015260e088015261010087015261012086015261014085015261016084015261018083015215156101a08201526113dc8285610e09565b526113e78184610e09565b506113f190610dd7565b611165565b61140a919c3d8091833e610c298183610414565b9a38611361565b611425919a3d8091833e610c298183610414565b983861130b565b6004999a506114499060203d602011610c7f57610c708183610414565b99986112b1565b60209192506100b5604061147361127593853d8711610291576102818183610414565b949350505061124e565b509150916114b76100b56100b57f5076ab9fa18d2a17cfce4375a530b76392de8264a11126885cd5534d39f0a98b5460018060a01b031690565b6040517fb50d882c00000000000000000000000000000000000000000000000000000000815273ffffffffffffffffffffffffffffffffffffffff85166004820152670de0b6b3a764000060248201526020918290829060449082905afa9182156102985760049392611554575b50509261153961153482610fcd565b61187a565b9261154b61154683610fcd565b611720565b909192506111c3565b61156a9250803d10610291576102818183610414565b3880611525565b505090565b611582610ea591610f87565b61162661161d6007611592610472565b84548152600185015473ffffffffffffffffffffffffffffffffffffffff16602082015293600281015473ffffffffffffffffffffffffffffffffffffffff16604086015260038101546060860152600481015473ffffffffffffffffffffffffffffffffffffffff166080860152600581015460a0860152600681015460c0860152015460ff1690565b151560e0830152565b611637611632826116a9565b61163f565b905190611679565b7812725dd1d243aba0e75fe645cc4873f9e65afe688c928e1f2181116104d6576706f05b59d3b20000670de0b6b3a7640000809202010490565b816706f05b59d3b200001904811115821517156104d657670de0b6b3a764000091026706f05b59d3b20000010490565b6020908101516040517f50d25bcd00000000000000000000000000000000000000000000000000000000815291908290600490829073ffffffffffffffffffffffffffffffffffffffff165afa90811561029857600091611708575090565b610ea5915060203d8111610291576102818183610414565b6004015473ffffffffffffffffffffffffffffffffffffffff1661176761176161163261174c84610f87565b61175c61161d6007611592610472565b6116a9565b91611799565b908115611792578060011c670de0b6b3a76400008082190484118315176104d657600a930201040490565b5050600090565b7f5076ab9fa18d2a17cfce4375a530b76392de8264a11126885cd5534d39f0a98b5473ffffffffffffffffffffffffffffffffffffffff9081169190821561181a5760446020926040519485938492632d43620b60e21b8452166004830152670de0b6b3a764000060248301525afa90811561029857600091611708575090565b505050600090565b91908203918211610e0457565b9190916fffffffffffffffffffffffffffffffff80809416911601918211610e0457565b906b033b2e3c9fd0803ce8000000918201809211610e0457565b91908201809211610e0457565b61188381611720565b8015611982576119156118af61189a845460801c90565b6fffffffffffffffffffffffffffffffff1690565b80831192831561197457906118c391611822565b61190f600185015461190661189a6118ee60028901546fffffffffffffffffffffffffffffffff1690565b6fffffffffffffffffffffffffffffffff841661182f565b9060801c6119de565b906119a2565b906119425761193d61189a6003610ea59401546fffffffffffffffffffffffffffffffff1690565b61186d565b61196e61196861189a6003610ea59501546fffffffffffffffffffffffffffffffff1690565b91611853565b906119de565b61197d91611822565b6118c3565b5060030154610ea5906fffffffffffffffffffffffffffffffff1661189a565b816b019d971e4fe8401e740000001904811115821517156104d6576b033b2e3c9fd0803ce800000091026b019d971e4fe8401e74000000010490565b8160011c906b033b2e3c9fd0803ce8000000908183190481118415176104d65702010490565b90611a0e826104a0565b604090611a1d82519182610414565b8381528093611a2e601f19916104a0565b019160005b838110611a405750505050565b6020908251611a4e816103db565b6000815282600081830152600085830152606060008184015260006080840152600060a0840152600060c0840152600060e0840152806101008401526101208301526000610140830152828601015201611a33565b90604051611ab0816103f8565b60c0600482948054845260ff60018060a01b0380600184015416602087015280600284015416604087015260038301549081166060870152818160a01c16608087015260a81c16151560a08501520154910152565b60ff16604d8111610e0457600a0a90565b73ffffffffffffffffffffffffffffffffffffffff1660009081527f5076ab9fa18d2a17cfce4375a530b76392de8264a11126885cd5534d39f0a98560205260409020611bf99291611c099161163790611c0460405193611b76856103f8565b82548552600183015473ffffffffffffffffffffffffffffffffffffffff90811660208701526002840154811660408701526003840154908116606087015260ff60a082901c811660808801908152946004929091611bdc9160a81c16151560a0890152565b015460c0860152611bff611bef866116a9565b9889945160ff1690565b60ff1690565b611c1b565b611679565b9190565b604d8111610e0457600a0a90565b6012811015611c4c5760120360128111610e0457611c3890611c0d565b90818102918183041490151715610e045790565b60128111611c58575090565b7fffffffffffffffffffffffffffffffffffffffffffffffffffffffffffffffee8101908111610e0457611c8b90611c0d565b908115611c96570490565b634e487b7160e01b600052601260045260246000fdfea26469706673582212206f84513f79fefbfe45a7f51673aac3ec7fc8061ad7549c99dae7e5735864effb64736f6c63430008130033",
  "devdoc": {
    "author": "Kresko",
    "kind": "dev",
    "methods": {},
    "title": "UIDataProviderFacet2",
    "version": 1
  },
  "userdoc": {
    "kind": "user",
    "methods": {},
    "notice": "UI data aggregation views",
    "version": 1
  },
  "storageLayout": {
    "storage": [],
    "types": null
  }
}