{
    "address": "0x48A88C2E4cBedCf0A4Fe86BC803D892E1a41d5A4",
    "abi": [
        {
            "inputs": [
                {
                    "internalType": "address",
                    "name": "_factory",
                    "type": "address"
                },
                {
                    "internalType": "address",
                    "name": "_admin",
                    "type": "address"
                }
            ],
            "stateMutability": "nonpayable",
            "type": "constructor"
        },
        {
            "anonymous": false,
            "inputs": [
                {
                    "indexed": true,
                    "internalType": "address",
                    "name": "newAdmin",
                    "type": "address"
                }
            ],
            "name": "NewAdmin",
            "type": "event"
        },
        {
            "anonymous": false,
            "inputs": [
                {
                    "indexed": true,
                    "internalType": "address",
                    "name": "krAsset",
                    "type": "address"
                },
                {
                    "indexed": true,
                    "internalType": "address",
                    "name": "pairAddress",
                    "type": "address"
                }
            ],
            "name": "NewKrAssetPair",
            "type": "event"
        },
        {
            "anonymous": false,
            "inputs": [
                {
                    "indexed": false,
                    "internalType": "uint256",
                    "name": "newMinUpdatePeriod",
                    "type": "uint256"
                }
            ],
            "name": "NewMinUpdatePeriod",
            "type": "event"
        },
        {
            "anonymous": false,
            "inputs": [
                {
                    "indexed": true,
                    "internalType": "address",
                    "name": "pair",
                    "type": "address"
                },
                {
                    "indexed": true,
                    "internalType": "address",
                    "name": "token0",
                    "type": "address"
                },
                {
                    "indexed": true,
                    "internalType": "address",
                    "name": "token1",
                    "type": "address"
                },
                {
                    "indexed": false,
                    "internalType": "uint256",
                    "name": "updatePeriod",
                    "type": "uint256"
                }
            ],
            "name": "NewPair",
            "type": "event"
        },
        {
            "anonymous": false,
            "inputs": [
                {
                    "indexed": true,
                    "internalType": "address",
                    "name": "token0",
                    "type": "address"
                },
                {
                    "indexed": true,
                    "internalType": "address",
                    "name": "token1",
                    "type": "address"
                },
                {
                    "indexed": true,
                    "internalType": "uint32",
                    "name": "blockTimestampLast",
                    "type": "uint32"
                },
                {
                    "components": [
                        {
                            "internalType": "uint224",
                            "name": "_x",
                            "type": "uint224"
                        }
                    ],
                    "indexed": false,
                    "internalType": "struct UQ.uq112x112",
                    "name": "price0CumulativeLast",
                    "type": "tuple"
                },
                {
                    "components": [
                        {
                            "internalType": "uint224",
                            "name": "_x",
                            "type": "uint224"
                        }
                    ],
                    "indexed": false,
                    "internalType": "struct UQ.uq112x112",
                    "name": "price1CumulativeLast",
                    "type": "tuple"
                },
                {
                    "indexed": false,
                    "internalType": "uint256",
                    "name": "updatePeriod",
                    "type": "uint256"
                },
                {
                    "indexed": false,
                    "internalType": "uint256",
                    "name": "timeElapsed",
                    "type": "uint256"
                }
            ],
            "name": "NewPrice",
            "type": "event"
        },
        {
            "anonymous": false,
            "inputs": [
                {
                    "indexed": true,
                    "internalType": "address",
                    "name": "pair",
                    "type": "address"
                },
                {
                    "indexed": true,
                    "internalType": "address",
                    "name": "token0",
                    "type": "address"
                },
                {
                    "indexed": true,
                    "internalType": "address",
                    "name": "token1",
                    "type": "address"
                },
                {
                    "indexed": false,
                    "internalType": "uint256",
                    "name": "updatePeriod",
                    "type": "uint256"
                }
            ],
            "name": "PairUpdated",
            "type": "event"
        },
        {
            "inputs": [],
            "name": "admin",
            "outputs": [
                {
                    "internalType": "address",
                    "name": "",
                    "type": "address"
                }
            ],
            "stateMutability": "view",
            "type": "function"
        },
        {
            "inputs": [
                {
                    "internalType": "address",
                    "name": "_pairAddress",
                    "type": "address"
                },
                {
                    "internalType": "uint256",
                    "name": "_updatePeriod",
                    "type": "uint256"
                }
            ],
            "name": "configurePair",
            "outputs": [],
            "stateMutability": "nonpayable",
            "type": "function"
        },
        {
            "inputs": [
                {
                    "internalType": "address",
                    "name": "_pairAddress",
                    "type": "address"
                },
                {
                    "internalType": "address",
                    "name": "_token",
                    "type": "address"
                },
                {
                    "internalType": "uint256",
                    "name": "_amountIn",
                    "type": "uint256"
                }
            ],
            "name": "consult",
            "outputs": [
                {
                    "internalType": "uint256",
                    "name": "amountOut",
                    "type": "uint256"
                }
            ],
            "stateMutability": "view",
            "type": "function"
        },
        {
            "inputs": [
                {
                    "internalType": "address",
                    "name": "_kreskoAsset",
                    "type": "address"
                },
                {
                    "internalType": "uint256",
                    "name": "_amountIn",
                    "type": "uint256"
                }
            ],
            "name": "consultKrAsset",
            "outputs": [
                {
                    "internalType": "uint256",
                    "name": "amountOut",
                    "type": "uint256"
                }
            ],
            "stateMutability": "view",
            "type": "function"
        },
        {
            "inputs": [],
            "name": "factory",
            "outputs": [
                {
                    "internalType": "contract IUniswapV2Factory",
                    "name": "",
                    "type": "address"
                }
            ],
            "stateMutability": "view",
            "type": "function"
        },
        {
            "inputs": [
                {
                    "internalType": "address",
                    "name": "_pairAddress",
                    "type": "address"
                },
                {
                    "internalType": "address",
                    "name": "_kreskoAsset",
                    "type": "address"
                },
                {
                    "internalType": "uint256",
                    "name": "_updatePeriod",
                    "type": "uint256"
                }
            ],
            "name": "initPair",
            "outputs": [],
            "stateMutability": "nonpayable",
            "type": "function"
        },
        {
            "inputs": [
                {
                    "internalType": "address",
                    "name": "",
                    "type": "address"
                }
            ],
            "name": "krAssets",
            "outputs": [
                {
                    "internalType": "address",
                    "name": "",
                    "type": "address"
                }
            ],
            "stateMutability": "view",
            "type": "function"
        },
        {
            "inputs": [],
            "name": "minUpdatePeriod",
            "outputs": [
                {
                    "internalType": "uint256",
                    "name": "",
                    "type": "uint256"
                }
            ],
            "stateMutability": "view",
            "type": "function"
        },
        {
            "inputs": [
                {
                    "internalType": "address",
                    "name": "",
                    "type": "address"
                }
            ],
            "name": "pairs",
            "outputs": [
                {
                    "components": [
                        {
                            "internalType": "uint224",
                            "name": "_x",
                            "type": "uint224"
                        }
                    ],
                    "internalType": "struct UQ.uq112x112",
                    "name": "price0Average",
                    "type": "tuple"
                },
                {
                    "components": [
                        {
                            "internalType": "uint224",
                            "name": "_x",
                            "type": "uint224"
                        }
                    ],
                    "internalType": "struct UQ.uq112x112",
                    "name": "price1Average",
                    "type": "tuple"
                },
                {
                    "internalType": "address",
                    "name": "token0",
                    "type": "address"
                },
                {
                    "internalType": "address",
                    "name": "token1",
                    "type": "address"
                },
                {
                    "internalType": "uint256",
                    "name": "price0CumulativeLast",
                    "type": "uint256"
                },
                {
                    "internalType": "uint256",
                    "name": "price1CumulativeLast",
                    "type": "uint256"
                },
                {
                    "internalType": "uint32",
                    "name": "blockTimestampLast",
                    "type": "uint32"
                },
                {
                    "internalType": "uint256",
                    "name": "updatePeriod",
                    "type": "uint256"
                }
            ],
            "stateMutability": "view",
            "type": "function"
        },
        {
            "inputs": [
                {
                    "internalType": "address",
                    "name": "_newAdmin",
                    "type": "address"
                }
            ],
            "name": "setAdmin",
            "outputs": [],
            "stateMutability": "nonpayable",
            "type": "function"
        },
        {
            "inputs": [
                {
                    "internalType": "uint256",
                    "name": "_minUpdatePeriod",
                    "type": "uint256"
                }
            ],
            "name": "setMinUpdatePeriod",
            "outputs": [],
            "stateMutability": "nonpayable",
            "type": "function"
        },
        {
            "inputs": [
                {
                    "internalType": "address",
                    "name": "_pairAddress",
                    "type": "address"
                }
            ],
            "name": "update",
            "outputs": [],
            "stateMutability": "nonpayable",
            "type": "function"
        }
    ],
    "transactionHash": "0x56f0714b374984c962e1a763d795037aa762d6f65778701eb54ae4c898ab0b0c",
    "args": [
        "0xc88508156D93BfF0Adce6c84d4269Efc82D4C827",
        "0xDc46c7eA52c6b2ca13D1dB949F79F81Cc0E7193C"
    ],
    "numDeployments": 1,
    "solcInputHash": "41e4719252854300e2aa58bd53a725db",
    "bytecode": "0x60a06040526103846001553480156200001757600080fd5b506040516200183a3803806200183a8339810160408190526200003a9162000122565b60408051808201909152600381526237313160e81b60208201526001600160a01b038316620000875760405162461bcd60e51b81526004016200007e919062000159565b60405180910390fd5b5060408051808201909152600381526203731360ec1b60208201526001600160a01b038216620000cc5760405162461bcd60e51b81526004016200007e919062000159565b5060609190911b6001600160601b031916608052600080546001600160a01b0319166001600160a01b03909216919091179055620001af565b80516001600160a01b03811681146200011d57600080fd5b919050565b6000806040838503121562000135578182fd5b620001408362000105565b9150620001506020840162000105565b90509250929050565b6000602080835283518082850152825b81811015620001875785810183015185820160400152820162000169565b81811115620001995783604083870101525b50601f01601f1916929092016040019392505050565b60805160601c61166d620001cd60003980610e6b525061166d6000f3fe608060405234801561001057600080fd5b50600436106100b45760003560e01c8063999db34511610071578063999db34514610150578063b26237e014610163578063b50d882c1461016b578063c45a01551461017e578063f851a44014610186578063fe33b3021461018e576100b4565b80631c1b8772146100b957806352244ec8146100ce5780635b10f7ac146100e1578063636cfa0c146100f4578063704b6c021461011d578063813c3c9314610130575b600080fd5b6100cc6100c7366004611409565b6101b5565b005b6100cc6100dc366004611481565b6103a2565b6100cc6100ef366004611441565b61051f565b610107610102366004611441565b610acf565b6040516101149190611616565b60405180910390f35b6100cc61012b366004611409565b610c14565b61014361013e366004611409565b610ca3565b604051610114919061152a565b6100cc61015e3660046114fa565b610cbe565b610107610d45565b610107610179366004611481565b610d4b565b610143610e69565b610143610e8d565b6101a161019c366004611409565b610e9c565b604051610114989796959493929190611591565b6001600160a01b0381166000908152600260209081526040918290206006810154835180850190945260038452620dcc0d60ea1b92840192909252919063ffffffff1661021e5760405162461bcd60e51b8152600401610215919061153e565b60405180910390fd5b50600080600061022d85610f15565b6006870154600788015460408051808201909152600381526237303760e81b602082015294975092955090935063ffffffff9081168403929190831610156102885760405162461bcd60e51b8152600401610215919061153e565b5060405180602001604052808263ffffffff1687600401548703816102a957fe5b046001600160e01b03908116909152905186546001600160e01b031916911617855560408051602081019091526005860154819063ffffffff8416908603816102ee57fe5b046001600160e01b0390811690915290516001870180546001600160e01b03191691909216178155600486018590556005860184905560068601805463ffffffff191663ffffffff851690811790915560038701546002880154600789015460405193946001600160a01b039384169493909216927f4801f5931ba41963b02f50608ecec4798a1aaac41e7e85e64c50430e25c38fa492610392928c9289906115e7565b60405180910390a4505050505050565b60005460408051808201909152600381526237303960e81b6020820152906001600160a01b031633146103e85760405162461bcd60e51b8152600401610215919061153e565b506001600160a01b0382811660009081526002602081905260409091200154161580159061043257506001600160a01b038281166000908152600260205260409020600301541615155b604051806040016040528060038152602001620dcc0d60ea1b8152509061046c5760405162461bcd60e51b8152600401610215919061153e565b50600154811015604051806040016040528060038152602001621b981960e91b815250906104ad5760405162461bcd60e51b8152600401610215919061153e565b506001600160a01b038083166000818152600260208190526040918290206007810186905560038101549101549151908416939190911691907f5d6c5f7b483e292dff8098abd4301c1a91d6933f1a5c7bd3304031a6199dd64590610513908690611616565b60405180910390a45050565b60005460408051808201909152600381526237303960e81b6020820152906001600160a01b031633146105655760405162461bcd60e51b8152600401610215919061153e565b5060408051808201909152600381526237303160e81b60208201526001600160a01b0384166105a75760405162461bcd60e51b8152600401610215919061153e565b50600154811015604051806040016040528060038152602001621b981960e91b815250906105e85760405162461bcd60e51b8152600401610215919061153e565b506001600160a01b03838116600090815260026020818152604092839020909101548251808401909352600383526237303360e81b91830191909152909116156106455760405162461bcd60e51b8152600401610215919061153e565b5060008390506000816001600160a01b0316630dfe16816040518163ffffffff1660e01b815260040160206040518083038186803b15801561068657600080fd5b505afa15801561069a573d6000803e3d6000fd5b505050506040513d601f19601f820116820180604052508101906106be9190611425565b90506000826001600160a01b031663d21220a76040518163ffffffff1660e01b815260040160206040518083038186803b1580156106fb57600080fd5b505afa15801561070f573d6000803e3d6000fd5b505050506040513d601f19601f820116820180604052508101906107339190611425565b90506001600160a01b0382161580159061075557506001600160a01b03811615155b604051806040016040528060038152602001620dcc0d60ea1b8152509061078f5760405162461bcd60e51b8152600401610215919061153e565b50816001600160a01b0316856001600160a01b031614806107c15750806001600160a01b0316856001600160a01b0316145b1561081a576001600160a01b0385811660008181526003602052604080822080546001600160a01b031916948b169485179055517feabf019a206f6caf3c62b981b764479e0340f903f1ae92e6188e96401b49fe0c9190a35b6000806000856001600160a01b0316630902f1ac6040518163ffffffff1660e01b815260040160606040518083038186803b15801561085857600080fd5b505afa15801561086c573d6000803e3d6000fd5b505050506040513d601f19601f8201168201806040525081019061089091906114ac565b925092509250826001600160701b03166000141580156108b857506001600160701b03821615155b604051806040016040528060038152602001621b981b60e91b815250906108f25760405162461bcd60e51b8152600401610215919061153e565b506001600160a01b0389811660009081526002602081815260409283902091820180546001600160a01b03199081168b87161790915560039092018054909216888516179091558151635909c0d560e01b8152915192891692635909c0d5926004808201939291829003018186803b15801561096d57600080fd5b505afa158015610981573d6000803e3d6000fd5b505050506040513d601f19601f820116820180604052508101906109a59190611512565b600260008b6001600160a01b03166001600160a01b0316815260200190815260200160002060040181905550856001600160a01b0316635a3d54936040518163ffffffff1660e01b815260040160206040518083038186803b158015610a0a57600080fd5b505afa158015610a1e573d6000803e3d6000fd5b505050506040513d601f19601f82011682018060405250810190610a429190611512565b6001600160a01b038a8116600081815260026020526040908190206005810194909455600784018b90556006909301805463ffffffff191663ffffffff861617905591518682169291881691907f8aec9bfffd40d5d25863c2e7368454e9b267f42b45bcdf7a99feddfa18c09f4c90610abc908c90611616565b60405180910390a4505050505050505050565b6001600160a01b03808416600090815260026020818152604080842081516101208101835281546001600160e01b039081166101008301908152825283518086018552600184015490911681529381019390935292830154851690820181905260038301548516606083015260048301546080830152600583015460a0830152600683015463ffffffff1660c083015260079092015460e0820152919285161415610b99578051610b8990610b84908561110a565b611194565b6001600160901b03169150610c0c565b80606001516001600160a01b0316846001600160a01b0316146040518060400160405280600381526020016206e60760eb1b81525090610bec5760405162461bcd60e51b8152600401610215919061153e565b506020810151610c0090610b84908561110a565b6001600160901b031691505b509392505050565b60005460408051808201909152600381526237303960e81b6020820152906001600160a01b03163314610c5a5760405162461bcd60e51b8152600401610215919061153e565b50600080546001600160a01b0319166001600160a01b038316908117825560405190917f71614071b88dee5e0b2ae578a9dd7b2ebbe9ae832ba419dc0242cd065a290b6c91a250565b6003602052600090815260409020546001600160a01b031681565b60005460408051808201909152600381526237303960e81b6020820152906001600160a01b03163314610d045760405162461bcd60e51b8152600401610215919061153e565b5060018190556040517f8a7025db6a9c815ab177c3a163acda9e7b1fb0fad7da8a4bc340863591925cda90610d3a908390611616565b60405180910390a150565b60015481565b6001600160a01b0380831660008181526003602081815260408084205486168452600280835281852082516101208101845281546001600160e01b039081166101008301908152825284518087018652600184015490911681529481019490945290810154871691830182905292830154909516606082015260048201546080820152600582015460a0820152600682015463ffffffff1660c082015260079091015460e0820152909290911415610e1d578051610e0d90610b84908561110a565b6001600160901b03169150610e62565b80606001516001600160a01b0316846001600160a01b031614610e435760009150610e62565b6020810151610e5690610b84908561110a565b6001600160901b031691505b5092915050565b7f000000000000000000000000000000000000000000000000000000000000000081565b6000546001600160a01b031681565b6002602081815260009283526040928390208351808301855281546001600160e01b03908116825285519384019095526001820154909416825291820154600383015460048401546005850154600686015460079096015494956001600160a01b039485169593909416939192909163ffffffff169088565b6000806000610f2261119f565b9050836001600160a01b0316635909c0d56040518163ffffffff1660e01b815260040160206040518083038186803b158015610f5d57600080fd5b505afa158015610f71573d6000803e3d6000fd5b505050506040513d601f19601f82011682018060405250810190610f959190611512565b9250836001600160a01b0316635a3d54936040518163ffffffff1660e01b815260040160206040518083038186803b158015610fd057600080fd5b505afa158015610fe4573d6000803e3d6000fd5b505050506040513d601f19601f820116820180604052508101906110089190611512565b91506000806000866001600160a01b0316630902f1ac6040518163ffffffff1660e01b815260040160606040518083038186803b15801561104857600080fd5b505afa15801561105c573d6000803e3d6000fd5b505050506040513d601f19601f8201168201806040525081019061108091906114ac565b9250925092508363ffffffff168163ffffffff16146111005780840363ffffffff81166110b96001600160701b038086169087166111a9565b600001516001600160e01b031602870196508063ffffffff166110ee856001600160701b0316856001600160701b03166111a9565b516001600160e01b0316029590950194505b5050509193909250565b6111126113cd565b600082158061113857505082516001600160e01b03168281029083828161113557fe5b04145b61117d576040805162461bcd60e51b815260206004820152601160248201527055513a3a6d756c3a206f766572666c6f7760781b604482015290519081900360640190fd5b604080516020810190915290815290505b92915050565b805160701c5b919050565b63ffffffff421690565b6111b16113e0565b60008211611206576040805162461bcd60e51b815260206004820152601e60248201527f55513a3a6672616374696f6e3a206469766973696f6e206279207a65726f0000604482015290519081900360640190fd5b82611220575060408051602081019091526000815261118e565b6001600160901b0383116112b557600082607085901b8161123d57fe5b0490506001600160e01b03811115611295576040805162461bcd60e51b815260206004820152601660248201527555513a3a6672616374696f6e3a206f766572666c6f7760501b604482015290519081900360640190fd5b6040518060200160405280826001600160e01b031681525091505061118e565b60006112c684600160701b8561131d565b90506001600160e01b03811115611295576040805162461bcd60e51b815260206004820152601660248201527555513a3a6672616374696f6e3a206f766572666c6f7760501b604482015290519081900360640190fd5b6000808060001985870986860292508281109083900303905080611353576000841161134857600080fd5b5082900490506113c6565b80841161135f57600080fd5b6000848688096000868103871696879004966002600389028118808a02820302808a02820302808a02820302808a02820302808a02820302808a02909103029181900381900460010186841190950394909402919094039290920491909117919091029150505b9392505050565b6040518060200160405280600081525090565b60408051602081019091526000815290565b80516001600160701b038116811461119a57600080fd5b60006020828403121561141a578081fd5b81356113c68161161f565b600060208284031215611436578081fd5b81516113c68161161f565b600080600060608486031215611455578182fd5b83356114608161161f565b925060208401356114708161161f565b929592945050506040919091013590565b60008060408385031215611493578182fd5b823561149e8161161f565b946020939093013593505050565b6000806000606084860312156114c0578283fd5b6114c9846113f2565b92506114d7602085016113f2565b9150604084015163ffffffff811681146114ef578182fd5b809150509250925092565b60006020828403121561150b578081fd5b5035919050565b600060208284031215611523578081fd5b5051919050565b6001600160a01b0391909116815260200190565b6000602080835283518082850152825b8181101561156a5785810183015185820160400152820161154e565b8181111561157b5783604083870101525b50601f01601f1916929092016040019392505050565b97516001600160e01b039081168952965190961660208801526001600160a01b039485166040880152929093166060860152608085015260a084019190915263ffffffff1660c083015260e08201526101000190565b93546001600160e01b03908116855292549092166020840152604083015263ffffffff16606082015260800190565b90815260200190565b6001600160a01b038116811461163457600080fd5b5056fea2646970667358221220ca693e5a7336e88289ab4b66593b407671cfc43be7bbd773690d8e5ffb68dc1b64736f6c63430007060033",
    "devdoc": {
        "author": "Kresko",
        "kind": "dev",
        "methods": {
            "configurePair(address,uint256)": {
                "params": {
                    "_pairAddress": "Pair address",
                    "_updatePeriod": "Update period (TWAP)"
                }
            },
            "consult(address,address,uint256)": {
                "params": {
                    "_amountIn": "Amount of token to get value for",
                    "_pairAddress": "Address of the pair that contains the token",
                    "_token": "Address of the token to get value for"
                }
            },
            "consultKrAsset(address,uint256)": {
                "params": {
                    "_amountIn": "Amount of Kresko Asset to get value for",
                    "_kreskoAsset": "Kresko asset address"
                }
            },
            "initPair(address,address,uint256)": {
                "params": {
                    "_kreskoAsset": "Kresko Asset in the pair we want to add helper functionality for",
                    "_pairAddress": "Liquidity token address for the pair",
                    "_updatePeriod": "The update period (TWAP) for this AMM pair"
                }
            },
            "setAdmin(address)": {
                "params": {
                    "_newAdmin": "New admin address"
                }
            },
            "setMinUpdatePeriod(uint256)": {
                "params": {
                    "_minUpdatePeriod": "The new minimum period that can be set for a pair"
                }
            },
            "update(address)": {
                "params": {
                    "_pairAddress": "Pair address"
                }
            }
        },
        "title": "Kresko AMM Oracle (Uniswap V2) Keeps track of time-weighted average prices for tokens in a Uniswap V2 pair. This oracle is intended to be used with Kresko AMM. This oracle is updated by calling the `update` with the liquidity token address. The prices can be queried by calling `consult` or `consultKrAsset` for quality-of-life with Kresko Assets, it does not need the pair address. Bookkeeping is done in terms of time-weighted average prices, and that period has a lower bound of `minUpdatePeriod`. Logic is pretty much what's laid out in https://github.com/Uniswap/v2-periphery/blob/master/contracts/examples/ExampleOracleSimple.sol This contract just extends some storage to deal with many pairs with their own configuration.",
        "version": 1
    },
    "userdoc": {
        "kind": "user",
        "methods": {
            "configurePair(address,uint256)": {
                "notice": "Configures existing values of an AMM pair"
            },
            "consult(address,address,uint256)": {
                "notice": "General consult function, gets a value for _amountIn"
            },
            "consultKrAsset(address,uint256)": {
                "notice": "Get the AMM price for an amount of krAsset"
            },
            "initPair(address,address,uint256)": {
                "notice": "Initializes an Uniswap V2 pair to be tracked by this oracle. The criteria for a pair to be tracked: The pair must not already be tracked by this oracle. The pair must exist. The pair must have reserves. The update period must be greater than the minimum update period."
            },
            "setAdmin(address)": {
                "notice": "Sets a new admin"
            },
            "setMinUpdatePeriod(uint256)": {
                "notice": "Set a new min update period"
            },
            "update(address)": {
                "notice": "Updates the oracle values for a pair"
            }
        },
        "notice": "Kresko gives _NO GUARANTEES_ for the correctness of the prices provided by this oracle.",
        "version": 1
    },
    "storageLayout": {
        "storage": [
            {
                "astId": 336,
                "contract": "src/contracts/minter/UniswapV2Oracle.sol:UniswapV2Oracle",
                "label": "admin",
                "offset": 0,
                "slot": "0",
                "type": "t_address"
            },
            {
                "astId": 339,
                "contract": "src/contracts/minter/UniswapV2Oracle.sol:UniswapV2Oracle",
                "label": "minUpdatePeriod",
                "offset": 0,
                "slot": "1",
                "type": "t_uint256"
            },
            {
                "astId": 343,
                "contract": "src/contracts/minter/UniswapV2Oracle.sol:UniswapV2Oracle",
                "label": "pairs",
                "offset": 0,
                "slot": "2",
                "type": "t_mapping(t_address,t_struct(PairData)332_storage)"
            },
            {
                "astId": 347,
                "contract": "src/contracts/minter/UniswapV2Oracle.sol:UniswapV2Oracle",
                "label": "krAssets",
                "offset": 0,
                "slot": "3",
                "type": "t_mapping(t_address,t_address)"
            }
        ],
        "types": {
            "t_address": {
                "encoding": "inplace",
                "label": "address",
                "numberOfBytes": "20"
            },
            "t_mapping(t_address,t_address)": {
                "encoding": "mapping",
                "key": "t_address",
                "label": "mapping(address => address)",
                "numberOfBytes": "32",
                "value": "t_address"
            },
            "t_mapping(t_address,t_struct(PairData)332_storage)": {
                "encoding": "mapping",
                "key": "t_address",
                "label": "mapping(address => struct UniswapV2Oracle.PairData)",
                "numberOfBytes": "32",
                "value": "t_struct(PairData)332_storage"
            },
            "t_struct(PairData)332_storage": {
                "encoding": "inplace",
                "label": "struct UniswapV2Oracle.PairData",
                "members": [
                    {
                        "astId": 317,
                        "contract": "src/contracts/minter/UniswapV2Oracle.sol:UniswapV2Oracle",
                        "label": "price0Average",
                        "offset": 0,
                        "slot": "0",
                        "type": "t_struct(uq112x112)2099_storage"
                    },
                    {
                        "astId": 319,
                        "contract": "src/contracts/minter/UniswapV2Oracle.sol:UniswapV2Oracle",
                        "label": "price1Average",
                        "offset": 0,
                        "slot": "1",
                        "type": "t_struct(uq112x112)2099_storage"
                    },
                    {
                        "astId": 321,
                        "contract": "src/contracts/minter/UniswapV2Oracle.sol:UniswapV2Oracle",
                        "label": "token0",
                        "offset": 0,
                        "slot": "2",
                        "type": "t_address"
                    },
                    {
                        "astId": 323,
                        "contract": "src/contracts/minter/UniswapV2Oracle.sol:UniswapV2Oracle",
                        "label": "token1",
                        "offset": 0,
                        "slot": "3",
                        "type": "t_address"
                    },
                    {
                        "astId": 325,
                        "contract": "src/contracts/minter/UniswapV2Oracle.sol:UniswapV2Oracle",
                        "label": "price0CumulativeLast",
                        "offset": 0,
                        "slot": "4",
                        "type": "t_uint256"
                    },
                    {
                        "astId": 327,
                        "contract": "src/contracts/minter/UniswapV2Oracle.sol:UniswapV2Oracle",
                        "label": "price1CumulativeLast",
                        "offset": 0,
                        "slot": "5",
                        "type": "t_uint256"
                    },
                    {
                        "astId": 329,
                        "contract": "src/contracts/minter/UniswapV2Oracle.sol:UniswapV2Oracle",
                        "label": "blockTimestampLast",
                        "offset": 0,
                        "slot": "6",
                        "type": "t_uint32"
                    },
                    {
                        "astId": 331,
                        "contract": "src/contracts/minter/UniswapV2Oracle.sol:UniswapV2Oracle",
                        "label": "updatePeriod",
                        "offset": 0,
                        "slot": "7",
                        "type": "t_uint256"
                    }
                ],
                "numberOfBytes": "256"
            },
            "t_struct(uq112x112)2099_storage": {
                "encoding": "inplace",
                "label": "struct UQ.uq112x112",
                "members": [
                    {
                        "astId": 2098,
                        "contract": "src/contracts/minter/UniswapV2Oracle.sol:UniswapV2Oracle",
                        "label": "_x",
                        "offset": 0,
                        "slot": "0",
                        "type": "t_uint224"
                    }
                ],
                "numberOfBytes": "32"
            },
            "t_uint224": {
                "encoding": "inplace",
                "label": "uint224",
                "numberOfBytes": "28"
            },
            "t_uint256": {
                "encoding": "inplace",
                "label": "uint256",
                "numberOfBytes": "32"
            },
            "t_uint32": {
                "encoding": "inplace",
                "label": "uint32",
                "numberOfBytes": "4"
            }
        }
    }
}