{
  "address": "0x51770cb17ae85cB7CEFeCB5BF86eD6547697801a",
  "abi": [
    {
      "inputs": [
        {
          "internalType": "address",
          "name": "_factory",
          "type": "address"
        }
      ],
      "stateMutability": "nonpayable",
      "type": "constructor"
    },
    {
      "inputs": [
        {
          "internalType": "address",
          "name": "_pairAddress",
          "type": "address"
        },
        {
          "internalType": "uint256",
          "name": "_updatePeriod",
          "type": "uint256"
        }
      ],
      "name": "configurePair",
      "outputs": [],
      "stateMutability": "nonpayable",
      "type": "function"
    },
    {
      "inputs": [
        {
          "internalType": "address",
          "name": "_pairAddress",
          "type": "address"
        },
        {
          "internalType": "address",
          "name": "_token",
          "type": "address"
        },
        {
          "internalType": "uint256",
          "name": "_amountIn",
          "type": "uint256"
        }
      ],
      "name": "consult",
      "outputs": [
        {
          "internalType": "uint256",
          "name": "amountOut",
          "type": "uint256"
        }
      ],
      "stateMutability": "view",
      "type": "function"
    },
    {
      "inputs": [
        {
          "internalType": "address",
          "name": "_kreskoAsset",
          "type": "address"
        },
        {
          "internalType": "uint256",
          "name": "_amountIn",
          "type": "uint256"
        }
      ],
      "name": "consultKrAsset",
      "outputs": [
        {
          "internalType": "uint256",
          "name": "amountOut",
          "type": "uint256"
        }
      ],
      "stateMutability": "view",
      "type": "function"
    },
    {
      "inputs": [],
      "name": "factory",
      "outputs": [
        {
          "internalType": "contract IUniswapV2Factory",
          "name": "",
          "type": "address"
        }
      ],
      "stateMutability": "view",
      "type": "function"
    },
    {
      "inputs": [
        {
          "internalType": "address",
          "name": "_pairAddress",
          "type": "address"
        },
        {
          "internalType": "address",
          "name": "_kreskoAsset",
          "type": "address"
        },
        {
          "internalType": "uint256",
          "name": "_updatePeriod",
          "type": "uint256"
        }
      ],
      "name": "initPair",
      "outputs": [],
      "stateMutability": "nonpayable",
      "type": "function"
    },
    {
      "inputs": [
        {
          "internalType": "address",
          "name": "",
          "type": "address"
        }
      ],
      "name": "krAssets",
      "outputs": [
        {
          "internalType": "address",
          "name": "",
          "type": "address"
        }
      ],
      "stateMutability": "view",
      "type": "function"
    },
    {
      "inputs": [],
      "name": "owner",
      "outputs": [
        {
          "internalType": "address",
          "name": "",
          "type": "address"
        }
      ],
      "stateMutability": "view",
      "type": "function"
    },
    {
      "inputs": [
        {
          "internalType": "address",
          "name": "",
          "type": "address"
        }
      ],
      "name": "pairs",
      "outputs": [
        {
          "components": [
            {
              "internalType": "uint224",
              "name": "_x",
              "type": "uint224"
            }
          ],
          "internalType": "struct UQ.uq112x112",
          "name": "price0Average",
          "type": "tuple"
        },
        {
          "components": [
            {
              "internalType": "uint224",
              "name": "_x",
              "type": "uint224"
            }
          ],
          "internalType": "struct UQ.uq112x112",
          "name": "price1Average",
          "type": "tuple"
        },
        {
          "internalType": "address",
          "name": "token0",
          "type": "address"
        },
        {
          "internalType": "address",
          "name": "token1",
          "type": "address"
        },
        {
          "internalType": "uint256",
          "name": "price0CumulativeLast",
          "type": "uint256"
        },
        {
          "internalType": "uint256",
          "name": "price1CumulativeLast",
          "type": "uint256"
        },
        {
          "internalType": "uint32",
          "name": "blockTimestampLast",
          "type": "uint32"
        },
        {
          "internalType": "uint256",
          "name": "updatePeriod",
          "type": "uint256"
        }
      ],
      "stateMutability": "view",
      "type": "function"
    },
    {
      "inputs": [
        {
          "internalType": "address",
          "name": "_pairAddress",
          "type": "address"
        }
      ],
      "name": "update",
      "outputs": [],
      "stateMutability": "nonpayable",
      "type": "function"
    }
  ],
  "transactionHash": "0x3550f9dbb179fb3a6021ccf82710b51e3d45dddaae5699af37a0a52bd9c8c22c",
  "args": [
    "0x38bf03AA1a152AAF696e79b4b4772a4F95Ef21f0"
  ],
  "numDeployments": 1,
  "solcInputHash": "04fc497da52931b7da2a9429110f9986",
  "bytecode": "0x60a06040523480156200001157600080fd5b50604051620028f1380380620028f18339818101604052810190620000379190620000cd565b8073ffffffffffffffffffffffffffffffffffffffff1660808173ffffffffffffffffffffffffffffffffffffffff1660601b8152505033600260006101000a81548173ffffffffffffffffffffffffffffffffffffffff021916908373ffffffffffffffffffffffffffffffffffffffff1602179055505062000147565b600081519050620000c7816200012d565b92915050565b600060208284031215620000e057600080fd5b6000620000f084828501620000b6565b91505092915050565b600062000106826200010d565b9050919050565b600073ffffffffffffffffffffffffffffffffffffffff82169050919050565b6200013881620000f9565b81146200014457600080fd5b50565b60805160601c61278c6200016560003980611972525061278c6000f3fe608060405234801561001057600080fd5b50600436106100935760003560e01c8063813c3c9311610066578063813c3c931461011c5780638da5cb5b1461014c578063b50d882c1461016a578063c45a01551461019a578063fe33b302146101b857610093565b80631c1b87721461009857806352244ec8146100b45780635b10f7ac146100d0578063636cfa0c146100ec575b600080fd5b6100b260048036038101906100ad9190612302565b6101ef565b005b6100ce60048036038101906100c991906123a3565b6104fa565b005b6100ea60048036038101906100e59190612354565b6107b1565b005b61010660048036038101906101019190612354565b6111e7565b60405161011391906125cd565b60405180910390f35b61013660048036038101906101319190612302565b611585565b60405161014391906124f7565b60405180910390f35b6101546115b8565b60405161016191906124f7565b60405180910390f35b610184600480360381019061017f91906123a3565b6115de565b60405161019191906125cd565b60405180910390f35b6101a2611970565b6040516101af9190612512565b60405180910390f35b6101d260048036038101906101cd9190612302565b611994565b6040516101e698979695949392919061254f565b60405180910390f35b60008060006101fd84611b1c565b92509250925060008060008673ffffffffffffffffffffffffffffffffffffffff1673ffffffffffffffffffffffffffffffffffffffff168152602001908152602001600020905060008160060160009054906101000a900463ffffffff1663ffffffff1614156040518060400160405280600381526020017f3730340000000000000000000000000000000000000000000000000000000000815250906102db576040517f08c379a00000000000000000000000000000000000000000000000000000000081526004016102d2919061252d565b60405180910390fd5b5060008160060160009054906101000a900463ffffffff168303905081600701548163ffffffff1610156040518060400160405280600381526020017f37303700000000000000000000000000000000000000000000000000000000008152509061037c576040517f08c379a0000000000000000000000000000000000000000000000000000000008152600401610373919061252d565b60405180910390fd5b5060405180602001604052808263ffffffff16846004015488038161039d57fe5b047bffffffffffffffffffffffffffffffffffffffffffffffffffffffff168152508260000160008201518160000160006101000a8154817bffffffffffffffffffffffffffffffffffffffffffffffffffffffff02191690837bffffffffffffffffffffffffffffffffffffffffffffffffffffffff16021790555090505060405180602001604052808263ffffffff16846005015487038161043d57fe5b047bffffffffffffffffffffffffffffffffffffffffffffffffffffffff168152508260010160008201518160000160006101000a8154817bffffffffffffffffffffffffffffffffffffffffffffffffffffffff02191690837bffffffffffffffffffffffffffffffffffffffffffffffffffffffff160217905550905050848260040181905550838260050181905550828260060160006101000a81548163ffffffff021916908363ffffffff160217905550505050505050565b600260009054906101000a900473ffffffffffffffffffffffffffffffffffffffff1673ffffffffffffffffffffffffffffffffffffffff163373ffffffffffffffffffffffffffffffffffffffff16146040518060400160405280600381526020017f3130300000000000000000000000000000000000000000000000000000000000815250906105c2576040517f08c379a00000000000000000000000000000000000000000000000000000000081526004016105b9919061252d565b60405180910390fd5b50600073ffffffffffffffffffffffffffffffffffffffff166000808473ffffffffffffffffffffffffffffffffffffffff1673ffffffffffffffffffffffffffffffffffffffff16815260200190815260200160002060020160009054906101000a900473ffffffffffffffffffffffffffffffffffffffff1673ffffffffffffffffffffffffffffffffffffffff16141580156106ef5750600073ffffffffffffffffffffffffffffffffffffffff166000808473ffffffffffffffffffffffffffffffffffffffff1673ffffffffffffffffffffffffffffffffffffffff16815260200190815260200160002060030160009054906101000a900473ffffffffffffffffffffffffffffffffffffffff1673ffffffffffffffffffffffffffffffffffffffff1614155b6040518060400160405280600381526020017f373034000000000000000000000000000000000000000000000000000000000081525090610766576040517f08c379a000000000000000000000000000000000000000000000000000000000815260040161075d919061252d565b60405180910390fd5b50806000808473ffffffffffffffffffffffffffffffffffffffff1673ffffffffffffffffffffffffffffffffffffffff168152602001908152602001600020600701819055505050565b600260009054906101000a900473ffffffffffffffffffffffffffffffffffffffff1673ffffffffffffffffffffffffffffffffffffffff163373ffffffffffffffffffffffffffffffffffffffff16146040518060400160405280600381526020017f313030000000000000000000000000000000000000000000000000000000000081525090610879576040517f08c379a0000000000000000000000000000000000000000000000000000000008152600401610870919061252d565b60405180910390fd5b50600073ffffffffffffffffffffffffffffffffffffffff168373ffffffffffffffffffffffffffffffffffffffff1614156040518060400160405280600381526020017f373031000000000000000000000000000000000000000000000000000000000081525090610922576040517f08c379a0000000000000000000000000000000000000000000000000000000008152600401610919919061252d565b60405180910390fd5b5061038481116040518060400160405280600381526020017f37303200000000000000000000000000000000000000000000000000000000008152509061099f576040517f08c379a0000000000000000000000000000000000000000000000000000000008152600401610996919061252d565b60405180910390fd5b50600073ffffffffffffffffffffffffffffffffffffffff166000808573ffffffffffffffffffffffffffffffffffffffff1673ffffffffffffffffffffffffffffffffffffffff16815260200190815260200160002060020160009054906101000a900473ffffffffffffffffffffffffffffffffffffffff1673ffffffffffffffffffffffffffffffffffffffff16146040518060400160405280600381526020017f373033000000000000000000000000000000000000000000000000000000000081525090610aa8576040517f08c379a0000000000000000000000000000000000000000000000000000000008152600401610a9f919061252d565b60405180910390fd5b50600083905060008173ffffffffffffffffffffffffffffffffffffffff16630dfe16816040518163ffffffff1660e01b815260040160206040518083038186803b158015610af657600080fd5b505afa158015610b0a573d6000803e3d6000fd5b505050506040513d601f19601f82011682018060405250810190610b2e919061232b565b905060008273ffffffffffffffffffffffffffffffffffffffff1663d21220a76040518163ffffffff1660e01b815260040160206040518083038186803b158015610b7857600080fd5b505afa158015610b8c573d6000803e3d6000fd5b505050506040513d601f19601f82011682018060405250810190610bb0919061232b565b9050600073ffffffffffffffffffffffffffffffffffffffff168273ffffffffffffffffffffffffffffffffffffffff1614158015610c1c5750600073ffffffffffffffffffffffffffffffffffffffff168173ffffffffffffffffffffffffffffffffffffffff1614155b6040518060400160405280600381526020017f373034000000000000000000000000000000000000000000000000000000000081525090610c93576040517f08c379a0000000000000000000000000000000000000000000000000000000008152600401610c8a919061252d565b60405180910390fd5b508173ffffffffffffffffffffffffffffffffffffffff168573ffffffffffffffffffffffffffffffffffffffff161480610cf957508073ffffffffffffffffffffffffffffffffffffffff168573ffffffffffffffffffffffffffffffffffffffff16145b15610d7d5785600160008773ffffffffffffffffffffffffffffffffffffffff1673ffffffffffffffffffffffffffffffffffffffff16815260200190815260200160002060006101000a81548173ffffffffffffffffffffffffffffffffffffffff021916908373ffffffffffffffffffffffffffffffffffffffff1602179055505b60008060008573ffffffffffffffffffffffffffffffffffffffff16630902f1ac6040518163ffffffff1660e01b815260040160606040518083038186803b158015610dc857600080fd5b505afa158015610ddc573d6000803e3d6000fd5b505050506040513d601f19601f82011682018060405250810190610e0091906123df565b9250925092506000836dffffffffffffffffffffffffffff1614158015610e3857506000826dffffffffffffffffffffffffffff1614155b6040518060400160405280600381526020017f373036000000000000000000000000000000000000000000000000000000000081525090610eaf576040517f08c379a0000000000000000000000000000000000000000000000000000000008152600401610ea6919061252d565b60405180910390fd5b50846000808b73ffffffffffffffffffffffffffffffffffffffff1673ffffffffffffffffffffffffffffffffffffffff16815260200190815260200160002060020160006101000a81548173ffffffffffffffffffffffffffffffffffffffff021916908373ffffffffffffffffffffffffffffffffffffffff160217905550836000808b73ffffffffffffffffffffffffffffffffffffffff1673ffffffffffffffffffffffffffffffffffffffff16815260200190815260200160002060030160006101000a81548173ffffffffffffffffffffffffffffffffffffffff021916908373ffffffffffffffffffffffffffffffffffffffff1602179055508573ffffffffffffffffffffffffffffffffffffffff16635909c0d56040518163ffffffff1660e01b815260040160206040518083038186803b158015610ff657600080fd5b505afa15801561100a573d6000803e3d6000fd5b505050506040513d601f19601f8201168201806040525081019061102e919061242e565b6000808b73ffffffffffffffffffffffffffffffffffffffff1673ffffffffffffffffffffffffffffffffffffffff168152602001908152602001600020600401819055508573ffffffffffffffffffffffffffffffffffffffff16635a3d54936040518163ffffffff1660e01b815260040160206040518083038186803b1580156110b957600080fd5b505afa1580156110cd573d6000803e3d6000fd5b505050506040513d601f19601f820116820180604052508101906110f1919061242e565b6000808b73ffffffffffffffffffffffffffffffffffffffff1673ffffffffffffffffffffffffffffffffffffffff16815260200190815260200160002060050181905550866000808b73ffffffffffffffffffffffffffffffffffffffff1673ffffffffffffffffffffffffffffffffffffffff16815260200190815260200160002060070181905550806000808b73ffffffffffffffffffffffffffffffffffffffff1673ffffffffffffffffffffffffffffffffffffffff16815260200190815260200160002060060160006101000a81548163ffffffff021916908363ffffffff160217905550505050505050505050565b6000806000808673ffffffffffffffffffffffffffffffffffffffff1673ffffffffffffffffffffffffffffffffffffffff16815260200190815260200160002060405180610100016040529081600082016040518060200160405290816000820160009054906101000a90047bffffffffffffffffffffffffffffffffffffffffffffffffffffffff167bffffffffffffffffffffffffffffffffffffffffffffffffffffffff167bffffffffffffffffffffffffffffffffffffffffffffffffffffffff16815250508152602001600182016040518060200160405290816000820160009054906101000a90047bffffffffffffffffffffffffffffffffffffffffffffffffffffffff167bffffffffffffffffffffffffffffffffffffffffffffffffffffffff167bffffffffffffffffffffffffffffffffffffffffffffffffffffffff168152505081526020016002820160009054906101000a900473ffffffffffffffffffffffffffffffffffffffff1673ffffffffffffffffffffffffffffffffffffffff1673ffffffffffffffffffffffffffffffffffffffff1681526020016003820160009054906101000a900473ffffffffffffffffffffffffffffffffffffffff1673ffffffffffffffffffffffffffffffffffffffff1673ffffffffffffffffffffffffffffffffffffffff16815260200160048201548152602001600582015481526020016006820160009054906101000a900463ffffffff1663ffffffff1663ffffffff1681526020016007820154815250509050806040015173ffffffffffffffffffffffffffffffffffffffff168473ffffffffffffffffffffffffffffffffffffffff16141561149c5761148161147c848360000151611d8a90919063ffffffff16565b611e7d565b71ffffffffffffffffffffffffffffffffffff16915061157d565b806060015173ffffffffffffffffffffffffffffffffffffffff168473ffffffffffffffffffffffffffffffffffffffff16146040518060400160405280600381526020017f373038000000000000000000000000000000000000000000000000000000000081525090611546576040517f08c379a000000000000000000000000000000000000000000000000000000000815260040161153d919061252d565b60405180910390fd5b50611566611561848360200151611d8a90919063ffffffff16565b611e7d565b71ffffffffffffffffffffffffffffffffffff1691505b509392505050565b60016020528060005260406000206000915054906101000a900473ffffffffffffffffffffffffffffffffffffffff1681565b600260009054906101000a900473ffffffffffffffffffffffffffffffffffffffff1681565b600080600080600160008773ffffffffffffffffffffffffffffffffffffffff1673ffffffffffffffffffffffffffffffffffffffff16815260200190815260200160002060009054906101000a900473ffffffffffffffffffffffffffffffffffffffff1673ffffffffffffffffffffffffffffffffffffffff1673ffffffffffffffffffffffffffffffffffffffff16815260200190815260200160002060405180610100016040529081600082016040518060200160405290816000820160009054906101000a90047bffffffffffffffffffffffffffffffffffffffffffffffffffffffff167bffffffffffffffffffffffffffffffffffffffffffffffffffffffff167bffffffffffffffffffffffffffffffffffffffffffffffffffffffff16815250508152602001600182016040518060200160405290816000820160009054906101000a90047bffffffffffffffffffffffffffffffffffffffffffffffffffffffff167bffffffffffffffffffffffffffffffffffffffffffffffffffffffff167bffffffffffffffffffffffffffffffffffffffffffffffffffffffff168152505081526020016002820160009054906101000a900473ffffffffffffffffffffffffffffffffffffffff1673ffffffffffffffffffffffffffffffffffffffff1673ffffffffffffffffffffffffffffffffffffffff1681526020016003820160009054906101000a900473ffffffffffffffffffffffffffffffffffffffff1673ffffffffffffffffffffffffffffffffffffffff1673ffffffffffffffffffffffffffffffffffffffff16815260200160048201548152602001600582015481526020016006820160009054906101000a900463ffffffff1663ffffffff1663ffffffff1681526020016007820154815250509050806040015173ffffffffffffffffffffffffffffffffffffffff168473ffffffffffffffffffffffffffffffffffffffff1614156118f2576118d76118d2848360000151611d8a90919063ffffffff16565b611e7d565b71ffffffffffffffffffffffffffffffffffff169150611969565b806060015173ffffffffffffffffffffffffffffffffffffffff168473ffffffffffffffffffffffffffffffffffffffff16146119325760009150611968565b61195161194c848360200151611d8a90919063ffffffff16565b611e7d565b71ffffffffffffffffffffffffffffffffffff1691505b5b5092915050565b7f000000000000000000000000000000000000000000000000000000000000000081565b6000602052806000526040600020600091509050806000016040518060200160405290816000820160009054906101000a90047bffffffffffffffffffffffffffffffffffffffffffffffffffffffff167bffffffffffffffffffffffffffffffffffffffffffffffffffffffff167bffffffffffffffffffffffffffffffffffffffffffffffffffffffff168152505090806001016040518060200160405290816000820160009054906101000a90047bffffffffffffffffffffffffffffffffffffffffffffffffffffffff167bffffffffffffffffffffffffffffffffffffffffffffffffffffffff167bffffffffffffffffffffffffffffffffffffffffffffffffffffffff1681525050908060020160009054906101000a900473ffffffffffffffffffffffffffffffffffffffff16908060030160009054906101000a900473ffffffffffffffffffffffffffffffffffffffff16908060040154908060050154908060060160009054906101000a900463ffffffff16908060070154905088565b6000806000611b29611e92565b90508373ffffffffffffffffffffffffffffffffffffffff16635909c0d56040518163ffffffff1660e01b815260040160206040518083038186803b158015611b7157600080fd5b505afa158015611b85573d6000803e3d6000fd5b505050506040513d601f19601f82011682018060405250810190611ba9919061242e565b92508373ffffffffffffffffffffffffffffffffffffffff16635a3d54936040518163ffffffff1660e01b815260040160206040518083038186803b158015611bf157600080fd5b505afa158015611c05573d6000803e3d6000fd5b505050506040513d601f19601f82011682018060405250810190611c29919061242e565b915060008060008673ffffffffffffffffffffffffffffffffffffffff16630902f1ac6040518163ffffffff1660e01b815260040160606040518083038186803b158015611c7657600080fd5b505afa158015611c8a573d6000803e3d6000fd5b505050506040513d601f19601f82011682018060405250810190611cae91906123df565b9250925092508363ffffffff168163ffffffff1614611d8057600081850390508063ffffffff16611cff846dffffffffffffffffffffffffffff16866dffffffffffffffffffffffffffff16611ea8565b600001517bffffffffffffffffffffffffffffffffffffffffffffffffffffffff1602870196508063ffffffff16611d57856dffffffffffffffffffffffffffff16856dffffffffffffffffffffffffffff16611ea8565b600001517bffffffffffffffffffffffffffffffffffffffffffffffffffffffff160286019550505b5050509193909250565b611d92612240565b600080831480611df3575083600001517bffffffffffffffffffffffffffffffffffffffffffffffffffffffff16838486600001517bffffffffffffffffffffffffffffffffffffffffffffffffffffffff160292508281611df057fe5b04145b611e65576040517f08c379a00000000000000000000000000000000000000000000000000000000081526004018080602001828103825260118152602001807f55513a3a6d756c3a206f766572666c6f7700000000000000000000000000000081525060200191505060405180910390fd5b60405180602001604052808281525091505092915050565b6000607060ff168260000151901c9050919050565b60006401000000004281611ea257fe5b06905090565b611eb0612253565b60008211611f26576040517f08c379a000000000000000000000000000000000000000000000000000000000815260040180806020018281038252601e8152602001807f55513a3a6672616374696f6e3a206469766973696f6e206279207a65726f000081525060200191505060405180910390fd5b6000831415611f6457604051806020016040528060007bffffffffffffffffffffffffffffffffffffffffffffffffffffffff168152509050612160565b7fffffffffffffffffffffffffffffffffffffffffffffffffffffffffffffffff71ffffffffffffffffffffffffffffffffffff16831161207d57600082607060ff1685901b81611fb157fe5b0490507bffffffffffffffffffffffffffffffffffffffffffffffffffffffff8016811115612048576040517f08c379a00000000000000000000000000000000000000000000000000000000081526004018080602001828103825260168152602001807f55513a3a6672616374696f6e3a206f766572666c6f770000000000000000000081525060200191505060405180910390fd5b6040518060200160405280827bffffffffffffffffffffffffffffffffffffffffffffffffffffffff16815250915050612160565b6000612099846e01000000000000000000000000000085612166565b90507bffffffffffffffffffffffffffffffffffffffffffffffffffffffff801681111561212f576040517f08c379a00000000000000000000000000000000000000000000000000000000081526004018080602001828103825260168152602001807f55513a3a6672616374696f6e3a206f766572666c6f770000000000000000000081525060200191505060405180910390fd5b6040518060200160405280827bffffffffffffffffffffffffffffffffffffffffffffffffffffffff168152509150505b92915050565b6000806000801985870985870292508281108382030391505060008114156121a1576000841161219557600080fd5b83820492505050612239565b8084116121ad57600080fd5b600084868809905082811182039150808303925060008586600003169050808604955080840493506001818260000304019050808302841793506000600287600302189050808702600203810290508087026002038102905080870260020381029050808702600203810290508087026002038102905080870260020381029050808502955050505050505b9392505050565b6040518060200160405280600081525090565b604051806020016040528060007bffffffffffffffffffffffffffffffffffffffffffffffffffffffff1681525090565b600081359050612293816126fa565b92915050565b6000815190506122a8816126fa565b92915050565b6000815190506122bd81612711565b92915050565b6000813590506122d281612728565b92915050565b6000815190506122e781612728565b92915050565b6000815190506122fc8161273f565b92915050565b60006020828403121561231457600080fd5b600061232284828501612284565b91505092915050565b60006020828403121561233d57600080fd5b600061234b84828501612299565b91505092915050565b60008060006060848603121561236957600080fd5b600061237786828701612284565b935050602061238886828701612284565b9250506040612399868287016122c3565b9150509250925092565b600080604083850312156123b657600080fd5b60006123c485828601612284565b92505060206123d5858286016122c3565b9150509250929050565b6000806000606084860312156123f457600080fd5b6000612402868287016122ae565b9350506020612413868287016122ae565b9250506040612424868287016122ed565b9150509250925092565b60006020828403121561244057600080fd5b600061244e848285016122d8565b91505092915050565b61246081612604565b82525050565b61246f81612692565b82525050565b6000612480826125e8565b61248a81856125f3565b935061249a8185602086016126b6565b6124a3816126e9565b840191505092915050565b6020820160008201516124c460008501826124ca565b50505050565b6124d381612650565b82525050565b6124e281612678565b82525050565b6124f181612682565b82525050565b600060208201905061250c6000830184612457565b92915050565b60006020820190506125276000830184612466565b92915050565b600060208201905081810360008301526125478184612475565b905092915050565b600061010082019050612565600083018b6124ae565b612572602083018a6124ae565b61257f6040830189612457565b61258c6060830188612457565b61259960808301876124d9565b6125a660a08301866124d9565b6125b360c08301856124e8565b6125c060e08301846124d9565b9998505050505050505050565b60006020820190506125e260008301846124d9565b92915050565b600081519050919050565b600082825260208201905092915050565b600061260f82612630565b9050919050565b60006dffffffffffffffffffffffffffff82169050919050565b600073ffffffffffffffffffffffffffffffffffffffff82169050919050565b60007bffffffffffffffffffffffffffffffffffffffffffffffffffffffff82169050919050565b6000819050919050565b600063ffffffff82169050919050565b600061269d826126a4565b9050919050565b60006126af82612630565b9050919050565b60005b838110156126d45780820151818401526020810190506126b9565b838111156126e3576000848401525b50505050565b6000601f19601f8301169050919050565b61270381612604565b811461270e57600080fd5b50565b61271a81612616565b811461272557600080fd5b50565b61273181612678565b811461273c57600080fd5b50565b61274881612682565b811461275357600080fd5b5056fea26469706673582212203972d6dc7b5abbbe9223d54387a73869625353cdf51323f1830edc2349183fbb64736f6c63430007060033",
  "devdoc": {
    "kind": "dev",
    "methods": {
      "configurePair(address,uint256)": {
        "params": {
          "_pairAddress": "Pair address",
          "_updatePeriod": "Update period (TWAP)"
        }
      },
      "consult(address,address,uint256)": {
        "params": {
          "_amountIn": "Amount in of the asset",
          "_pairAddress": "Pair address",
          "_token": "Token address"
        }
      },
      "consultKrAsset(address,uint256)": {
        "params": {
          "_amountIn": "Amount to get value for",
          "_kreskoAsset": "Kresko asset address"
        }
      },
      "initPair(address,address,uint256)": {
        "params": {
          "_kreskoAsset": "Kresko asset in the pair",
          "_pairAddress": "Pair address",
          "_updatePeriod": "Update period (TWAP)"
        }
      },
      "update(address)": {
        "params": {
          "_pairAddress": "Pair address"
        }
      }
    },
    "version": 1
  },
  "userdoc": {
    "kind": "user",
    "methods": {
      "configurePair(address,uint256)": {
        "notice": "Configures existing values of an AMM pair"
      },
      "consult(address,address,uint256)": {
        "notice": "General consult function, gets a value for _amountIn"
      },
      "consultKrAsset(address,uint256)": {
        "notice": "Get the AMM price for an amount of krAsset"
      },
      "initPair(address,address,uint256)": {
        "notice": "Initializes an AMM pair to the oracle"
      },
      "update(address)": {
        "notice": "Updates the oracle values for a pair"
      }
    },
    "version": 1
  },
  "storageLayout": {
    "storage": [
      {
        "astId": 302,
        "contract": "src/contracts/minter/UniswapV2Oracle.sol:UniswapV2Oracle",
        "label": "pairs",
        "offset": 0,
        "slot": "0",
        "type": "t_mapping(t_address,t_struct(PairData)298_storage)"
      },
      {
        "astId": 306,
        "contract": "src/contracts/minter/UniswapV2Oracle.sol:UniswapV2Oracle",
        "label": "krAssets",
        "offset": 0,
        "slot": "1",
        "type": "t_mapping(t_address,t_address)"
      },
      {
        "astId": 310,
        "contract": "src/contracts/minter/UniswapV2Oracle.sol:UniswapV2Oracle",
        "label": "owner",
        "offset": 0,
        "slot": "2",
        "type": "t_address"
      }
    ],
    "types": {
      "t_address": {
        "encoding": "inplace",
        "label": "address",
        "numberOfBytes": "20"
      },
      "t_mapping(t_address,t_address)": {
        "encoding": "mapping",
        "key": "t_address",
        "label": "mapping(address => address)",
        "numberOfBytes": "32",
        "value": "t_address"
      },
      "t_mapping(t_address,t_struct(PairData)298_storage)": {
        "encoding": "mapping",
        "key": "t_address",
        "label": "mapping(address => struct UniswapV2Oracle.PairData)",
        "numberOfBytes": "32",
        "value": "t_struct(PairData)298_storage"
      },
      "t_struct(PairData)298_storage": {
        "encoding": "inplace",
        "label": "struct UniswapV2Oracle.PairData",
        "members": [
          {
            "astId": 283,
            "contract": "src/contracts/minter/UniswapV2Oracle.sol:UniswapV2Oracle",
            "label": "price0Average",
            "offset": 0,
            "slot": "0",
            "type": "t_struct(uq112x112)1908_storage"
          },
          {
            "astId": 285,
            "contract": "src/contracts/minter/UniswapV2Oracle.sol:UniswapV2Oracle",
            "label": "price1Average",
            "offset": 0,
            "slot": "1",
            "type": "t_struct(uq112x112)1908_storage"
          },
          {
            "astId": 287,
            "contract": "src/contracts/minter/UniswapV2Oracle.sol:UniswapV2Oracle",
            "label": "token0",
            "offset": 0,
            "slot": "2",
            "type": "t_address"
          },
          {
            "astId": 289,
            "contract": "src/contracts/minter/UniswapV2Oracle.sol:UniswapV2Oracle",
            "label": "token1",
            "offset": 0,
            "slot": "3",
            "type": "t_address"
          },
          {
            "astId": 291,
            "contract": "src/contracts/minter/UniswapV2Oracle.sol:UniswapV2Oracle",
            "label": "price0CumulativeLast",
            "offset": 0,
            "slot": "4",
            "type": "t_uint256"
          },
          {
            "astId": 293,
            "contract": "src/contracts/minter/UniswapV2Oracle.sol:UniswapV2Oracle",
            "label": "price1CumulativeLast",
            "offset": 0,
            "slot": "5",
            "type": "t_uint256"
          },
          {
            "astId": 295,
            "contract": "src/contracts/minter/UniswapV2Oracle.sol:UniswapV2Oracle",
            "label": "blockTimestampLast",
            "offset": 0,
            "slot": "6",
            "type": "t_uint32"
          },
          {
            "astId": 297,
            "contract": "src/contracts/minter/UniswapV2Oracle.sol:UniswapV2Oracle",
            "label": "updatePeriod",
            "offset": 0,
            "slot": "7",
            "type": "t_uint256"
          }
        ],
        "numberOfBytes": "256"
      },
      "t_struct(uq112x112)1908_storage": {
        "encoding": "inplace",
        "label": "struct UQ.uq112x112",
        "members": [
          {
            "astId": 1907,
            "contract": "src/contracts/minter/UniswapV2Oracle.sol:UniswapV2Oracle",
            "label": "_x",
            "offset": 0,
            "slot": "0",
            "type": "t_uint224"
          }
        ],
        "numberOfBytes": "32"
      },
      "t_uint224": {
        "encoding": "inplace",
        "label": "uint224",
        "numberOfBytes": "28"
      },
      "t_uint256": {
        "encoding": "inplace",
        "label": "uint256",
        "numberOfBytes": "32"
      },
      "t_uint32": {
        "encoding": "inplace",
        "label": "uint32",
        "numberOfBytes": "4"
      }
    }
  }
}