{
    "address": "0xd70c0ee63a73a6Fb4d5728739A103bC8b39e9401",
    "abi": [
        {
            "inputs": [],
            "stateMutability": "nonpayable",
            "type": "constructor"
        },
        {
            "anonymous": false,
            "inputs": [
                {
                    "indexed": true,
                    "internalType": "address",
                    "name": "src",
                    "type": "address"
                },
                {
                    "indexed": true,
                    "internalType": "address",
                    "name": "guy",
                    "type": "address"
                },
                {
                    "indexed": false,
                    "internalType": "uint256",
                    "name": "wad",
                    "type": "uint256"
                }
            ],
            "name": "Approval",
            "type": "event"
        },
        {
            "anonymous": false,
            "inputs": [
                {
                    "indexed": true,
                    "internalType": "address",
                    "name": "dst",
                    "type": "address"
                },
                {
                    "indexed": false,
                    "internalType": "uint256",
                    "name": "wad",
                    "type": "uint256"
                }
            ],
            "name": "Deposit",
            "type": "event"
        },
        {
            "anonymous": false,
            "inputs": [
                {
                    "indexed": true,
                    "internalType": "address",
                    "name": "src",
                    "type": "address"
                },
                {
                    "indexed": true,
                    "internalType": "address",
                    "name": "dst",
                    "type": "address"
                },
                {
                    "indexed": false,
                    "internalType": "uint256",
                    "name": "wad",
                    "type": "uint256"
                }
            ],
            "name": "Transfer",
            "type": "event"
        },
        {
            "anonymous": false,
            "inputs": [
                {
                    "indexed": true,
                    "internalType": "address",
                    "name": "src",
                    "type": "address"
                },
                {
                    "indexed": false,
                    "internalType": "uint256",
                    "name": "wad",
                    "type": "uint256"
                }
            ],
            "name": "Withdrawal",
            "type": "event"
        },
        {
            "inputs": [
                {
                    "internalType": "address",
                    "name": "",
                    "type": "address"
                },
                {
                    "internalType": "address",
                    "name": "",
                    "type": "address"
                }
            ],
            "name": "allowance",
            "outputs": [
                {
                    "internalType": "uint256",
                    "name": "",
                    "type": "uint256"
                }
            ],
            "stateMutability": "view",
            "type": "function"
        },
        {
            "inputs": [
                {
                    "internalType": "address",
                    "name": "guy",
                    "type": "address"
                },
                {
                    "internalType": "uint256",
                    "name": "wad",
                    "type": "uint256"
                }
            ],
            "name": "approve",
            "outputs": [
                {
                    "internalType": "bool",
                    "name": "",
                    "type": "bool"
                }
            ],
            "stateMutability": "nonpayable",
            "type": "function"
        },
        {
            "inputs": [
                {
                    "internalType": "address",
                    "name": "",
                    "type": "address"
                }
            ],
            "name": "balanceOf",
            "outputs": [
                {
                    "internalType": "uint256",
                    "name": "",
                    "type": "uint256"
                }
            ],
            "stateMutability": "view",
            "type": "function"
        },
        {
            "inputs": [],
            "name": "decimals",
            "outputs": [
                {
                    "internalType": "uint8",
                    "name": "",
                    "type": "uint8"
                }
            ],
            "stateMutability": "view",
            "type": "function"
        },
        {
            "inputs": [
                {
                    "internalType": "uint256",
                    "name": "amount",
                    "type": "uint256"
                }
            ],
            "name": "deposit",
            "outputs": [],
            "stateMutability": "nonpayable",
            "type": "function"
        },
        {
            "inputs": [],
            "name": "deposit",
            "outputs": [],
            "stateMutability": "payable",
            "type": "function"
        },
        {
            "inputs": [
                {
                    "internalType": "address",
                    "name": "",
                    "type": "address"
                }
            ],
            "name": "minters",
            "outputs": [
                {
                    "internalType": "bool",
                    "name": "",
                    "type": "bool"
                }
            ],
            "stateMutability": "view",
            "type": "function"
        },
        {
            "inputs": [],
            "name": "name",
            "outputs": [
                {
                    "internalType": "string",
                    "name": "",
                    "type": "string"
                }
            ],
            "stateMutability": "view",
            "type": "function"
        },
        {
            "inputs": [],
            "name": "symbol",
            "outputs": [
                {
                    "internalType": "string",
                    "name": "",
                    "type": "string"
                }
            ],
            "stateMutability": "view",
            "type": "function"
        },
        {
            "inputs": [],
            "name": "totalSupply",
            "outputs": [
                {
                    "internalType": "uint256",
                    "name": "",
                    "type": "uint256"
                }
            ],
            "stateMutability": "view",
            "type": "function"
        },
        {
            "inputs": [
                {
                    "internalType": "address",
                    "name": "dst",
                    "type": "address"
                },
                {
                    "internalType": "uint256",
                    "name": "wad",
                    "type": "uint256"
                }
            ],
            "name": "transfer",
            "outputs": [
                {
                    "internalType": "bool",
                    "name": "",
                    "type": "bool"
                }
            ],
            "stateMutability": "nonpayable",
            "type": "function"
        },
        {
            "inputs": [
                {
                    "internalType": "address",
                    "name": "src",
                    "type": "address"
                },
                {
                    "internalType": "address",
                    "name": "dst",
                    "type": "address"
                },
                {
                    "internalType": "uint256",
                    "name": "wad",
                    "type": "uint256"
                }
            ],
            "name": "transferFrom",
            "outputs": [
                {
                    "internalType": "bool",
                    "name": "",
                    "type": "bool"
                }
            ],
            "stateMutability": "nonpayable",
            "type": "function"
        },
        {
            "inputs": [
                {
                    "internalType": "uint256",
                    "name": "wad",
                    "type": "uint256"
                }
            ],
            "name": "withdraw",
            "outputs": [],
            "stateMutability": "nonpayable",
            "type": "function"
        }
    ],
    "transactionHash": "0x5fbf6f99f5d2a40628178595848460657657f47b411e541f38321287314c3e6a",
    "args": [],
    "numDeployments": 1,
    "solcInputHash": "9b9fa97d52b096ec7a35e0be35a83020",
    "bytecode": "0x6080806040523461003b5760ff1960128160025416176002553360005260056020526001604060002091825416179055610c2890816100418239f35b600080fdfe60806040526004361015610013575b600080fd5b60003560e01c806306fdde0314610117578063095ea7b31461010e57806318160ddd1461010557806323b872dd146100fc5780632e1a7d4d146100f3578063313ce567146100ea57806370a08231146100e157806395d89b41146100d8578063a9059cbb146100cf578063b6b55f25146100c6578063d0e30db0146100bd578063dd62ed3e146100b45763f46eccc4146100ac57600080fd5b61000e6108e4565b5061000e610860565b5061000e610808565b5061000e610713565b5061000e6106cc565b5061000e61060a565b5061000e6105a4565b5061000e610564565b5061000e61049a565b5061000e610442565b5061000e610407565b5061000e610350565b5061000e6101cd565b90601f8019910116810190811067ffffffffffffffff82111761014257604052565b634e487b7160e01b600052604160045260246000fd5b919091602080825283519081818401526000945b8286106101b75750508060409394116101aa575b601f017fffffffffffffffffffffffffffffffffffffffffffffffffffffffffffffffe016010190565b6000838284010152610180565b858101820151848701604001529481019461016c565b503461000e5760008060031936011261030757604051908080549060019180831c928082169283156102fd575b60209283861085146102d0578588526020880194908115610296575060011461023e575b61023a8761022e81890382610120565b60405191829182610158565b0390f35b6000805294509192917f290decd9548b62a8d60345a988386fc84ba6bc95484008f6362f93160ef3e5635b838610610285575050509101905061022e8261023a388061021e565b805485870152948201948101610269565b7fffffffffffffffffffffffffffffffffffffffffffffffffffffffffffffff0016855250505001915061022e90508261023a388061021e565b7f4e487b710000000000000000000000000000000000000000000000000000000082526022600452602482fd5b93607f16936101fa565b80fd5b6004359073ffffffffffffffffffffffffffffffffffffffff8216820361000e57565b6024359073ffffffffffffffffffffffffffffffffffffffff8216820361000e57565b503461000e576040367ffffffffffffffffffffffffffffffffffffffffffffffffffffffffffffffffc011261000e5761038861030a565b60243590336000526004602052816103b68260406000209060018060a01b0316600052602052604060002090565b5560405191825273ffffffffffffffffffffffffffffffffffffffff169033907f8c5be1e5ebec7d5bd14f71427d1e84f3dd0314c0f7b2291e5b200ac8c7c3b92590602090a3602060405160018152f35b503461000e576000367ffffffffffffffffffffffffffffffffffffffffffffffffffffffffffffffffc011261000e57602047604051908152f35b503461000e576060367ffffffffffffffffffffffffffffffffffffffffffffffffffffffffffffffffc011261000e57602061049061047f61030a565b61048761032d565b60443591610a08565b6040519015158152f35b503461000e576020367ffffffffffffffffffffffffffffffffffffffffffffffffffffffffffffffffc011261000e5760043560009033825260036020526104e8816040842054101561097e565b3382526003602052604082206104ff8282546109e4565b9055818082801561055a575b8280929181923390f11561054d575b60405190815233907f7fcf532c15f0a6db0bd6d0e038bea71d30d808c7d98cb3bf7268a95bf5081b6590602090a2604051f35b6105556109fb565b61051a565b6108fc915061050b565b503461000e576000367ffffffffffffffffffffffffffffffffffffffffffffffffffffffffffffffffc011261000e57602060ff60025416604051908152f35b503461000e576020367ffffffffffffffffffffffffffffffffffffffffffffffffffffffffffffffffc011261000e5773ffffffffffffffffffffffffffffffffffffffff6105f161030a565b1660005260036020526020604060002054604051908152f35b503461000e57600080600319360112610307576040519080600190815480831c928082169283156106c2575b60209283861085146102d057858852602088019490811561029657506001146106695761023a8761022e81890382610120565b600160005294509192917fb10e2d527612073b26eecdfd717e6a320cf44b4afac2b0732d9fcbe2b7fa0cf65b8386106106b1575050509101905061022e8261023a388061021e565b805485870152948201948101610695565b93607f1693610636565b503461000e576040367ffffffffffffffffffffffffffffffffffffffffffffffffffffffffffffffffc011261000e57602061049061070961030a565b6024359033610a08565b503461000e576020367ffffffffffffffffffffffffffffffffffffffffffffffffffffffffffffffffc011261000e5760043533600052600560205260ff60406000205416156107a957336000908152600360205260409020610777828254610966565b905560405190815233907fe1fffcc4923d04b559f4d29a8bfc6cda04eb5b0d3c460751c2402c5c5cc9109c90602090a2005b6040517f08c379a000000000000000000000000000000000000000000000000000000000815260206004820152600c60248201527f4e6f742061206d696e74657200000000000000000000000000000000000000006044820152606490fd5b506000806003193601126103075733815260036020526040812061082d348254610966565b90556040513481527fe1fffcc4923d04b559f4d29a8bfc6cda04eb5b0d3c460751c2402c5c5cc9109c60203392a2604051f35b503461000e576040367ffffffffffffffffffffffffffffffffffffffffffffffffffffffffffffffffc011261000e5760206108db61089d61030a565b6108a561032d565b73ffffffffffffffffffffffffffffffffffffffff91821660009081526004855260408082209290931681526020919091522090565b54604051908152f35b503461000e576020367ffffffffffffffffffffffffffffffffffffffffffffffffffffffffffffffffc011261000e5773ffffffffffffffffffffffffffffffffffffffff61093161030a565b166000526005602052602060ff604060002054166040519015158152f35b50634e487b7160e01b600052601160045260246000fd5b81198111610972570190565b61097a61094f565b0190565b1561098557565b6040517f08c379a000000000000000000000000000000000000000000000000000000000815260206004820152600c60248201527f57455448393a204572726f7200000000000000000000000000000000000000006044820152606490fd5b8181106109ef570390565b6109f761094f565b0390565b506040513d6000823e3d90fd5b907fddf252ad1be2c89b69c2b068fc378daa952ba7f163c4a11628f55a4df523b3ef90610a5384610a4b8560018060a01b03166000526003602052604060002090565b54101561097e565b73ffffffffffffffffffffffffffffffffffffffff83811693909190610aa8903386141580610b97575b610af85773ffffffffffffffffffffffffffffffffffffffff16600090815260036020526040902090565b610ab38682546109e4565b905573ffffffffffffffffffffffffffffffffffffffff81166000908152600360205260409020610ae5868254610966565b90556040519485521692602090a3600190565b610b3387610a4b33610b1c8560018060a01b03166000526004602052604060002090565b9060018060a01b0316600052602052604060002090565b73ffffffffffffffffffffffffffffffffffffffff81166000908152600460205260409020610b63903390610b1c565b610b6e8882546109e4565b905573ffffffffffffffffffffffffffffffffffffffff16600090815260036020526040902090565b5073ffffffffffffffffffffffffffffffffffffffff811660009081526004602052604090207fffffffffffffffffffffffffffffffffffffffffffffffffffffffffffffffff90610bea903390610b1c565b541415610a7d56fea2646970667358221220862234143b25d61db1e0248775beb757ad4741e513b2990ab3a1e27d464ef97f64736f6c634300080e0033",
    "devdoc": {
        "kind": "dev",
        "methods": {},
        "version": 1
    },
    "userdoc": {
        "kind": "user",
        "methods": {},
        "version": 1
    },
    "storageLayout": {
        "storage": [
            {
                "astId": 33277,
                "contract": "src/contracts/test/WETH.sol:WETH",
                "label": "name",
                "offset": 0,
                "slot": "0",
                "type": "t_string_storage"
            },
            {
                "astId": 33279,
                "contract": "src/contracts/test/WETH.sol:WETH",
                "label": "symbol",
                "offset": 0,
                "slot": "1",
                "type": "t_string_storage"
            },
            {
                "astId": 33282,
                "contract": "src/contracts/test/WETH.sol:WETH",
                "label": "decimals",
                "offset": 0,
                "slot": "2",
                "type": "t_uint8"
            },
            {
                "astId": 33314,
                "contract": "src/contracts/test/WETH.sol:WETH",
                "label": "balanceOf",
                "offset": 0,
                "slot": "3",
                "type": "t_mapping(t_address,t_uint256)"
            },
            {
                "astId": 33320,
                "contract": "src/contracts/test/WETH.sol:WETH",
                "label": "allowance",
                "offset": 0,
                "slot": "4",
                "type": "t_mapping(t_address,t_mapping(t_address,t_uint256))"
            },
            {
                "astId": 31773,
                "contract": "src/contracts/test/WETH.sol:WETH",
                "label": "minters",
                "offset": 0,
                "slot": "5",
                "type": "t_mapping(t_address,t_bool)"
            }
        ],
        "types": {
            "t_address": {
                "encoding": "inplace",
                "label": "address",
                "numberOfBytes": "20"
            },
            "t_bool": {
                "encoding": "inplace",
                "label": "bool",
                "numberOfBytes": "1"
            },
            "t_mapping(t_address,t_bool)": {
                "encoding": "mapping",
                "key": "t_address",
                "label": "mapping(address => bool)",
                "numberOfBytes": "32",
                "value": "t_bool"
            },
            "t_mapping(t_address,t_mapping(t_address,t_uint256))": {
                "encoding": "mapping",
                "key": "t_address",
                "label": "mapping(address => mapping(address => uint256))",
                "numberOfBytes": "32",
                "value": "t_mapping(t_address,t_uint256)"
            },
            "t_mapping(t_address,t_uint256)": {
                "encoding": "mapping",
                "key": "t_address",
                "label": "mapping(address => uint256)",
                "numberOfBytes": "32",
                "value": "t_uint256"
            },
            "t_string_storage": {
                "encoding": "bytes",
                "label": "string",
                "numberOfBytes": "32"
            },
            "t_uint256": {
                "encoding": "inplace",
                "label": "uint256",
                "numberOfBytes": "32"
            },
            "t_uint8": {
                "encoding": "inplace",
                "label": "uint8",
                "numberOfBytes": "1"
            }
        }
    }
}