{
  "address": "0x5b2B3d7b785B4Bb8b90a88a19a00e767295e83Eb",
  "abi": [
    {
      "inputs": [
        {
          "internalType": "contract KreskoAsset",
          "name": "_asset",
          "type": "address"
        }
      ],
      "stateMutability": "payable",
      "type": "constructor"
    },
    {
      "anonymous": false,
      "inputs": [
        {
          "indexed": true,
          "internalType": "address",
          "name": "owner",
          "type": "address"
        },
        {
          "indexed": true,
          "internalType": "address",
          "name": "spender",
          "type": "address"
        },
        {
          "indexed": false,
          "internalType": "uint256",
          "name": "amount",
          "type": "uint256"
        }
      ],
      "name": "Approval",
      "type": "event"
    },
    {
      "anonymous": false,
      "inputs": [
        {
          "indexed": true,
          "internalType": "address",
          "name": "caller",
          "type": "address"
        },
        {
          "indexed": true,
          "internalType": "address",
          "name": "owner",
          "type": "address"
        },
        {
          "indexed": false,
          "internalType": "uint256",
          "name": "assets",
          "type": "uint256"
        },
        {
          "indexed": false,
          "internalType": "uint256",
          "name": "shares",
          "type": "uint256"
        }
      ],
      "name": "Deposit",
      "type": "event"
    },
    {
      "anonymous": false,
      "inputs": [
        {
          "indexed": false,
          "internalType": "uint8",
          "name": "version",
          "type": "uint8"
        }
      ],
      "name": "Initialized",
      "type": "event"
    },
    {
      "anonymous": false,
      "inputs": [
        {
          "indexed": true,
          "internalType": "bytes32",
          "name": "role",
          "type": "bytes32"
        },
        {
          "indexed": true,
          "internalType": "bytes32",
          "name": "previousAdminRole",
          "type": "bytes32"
        },
        {
          "indexed": true,
          "internalType": "bytes32",
          "name": "newAdminRole",
          "type": "bytes32"
        }
      ],
      "name": "RoleAdminChanged",
      "type": "event"
    },
    {
      "anonymous": false,
      "inputs": [
        {
          "indexed": true,
          "internalType": "bytes32",
          "name": "role",
          "type": "bytes32"
        },
        {
          "indexed": true,
          "internalType": "address",
          "name": "account",
          "type": "address"
        },
        {
          "indexed": true,
          "internalType": "address",
          "name": "sender",
          "type": "address"
        }
      ],
      "name": "RoleGranted",
      "type": "event"
    },
    {
      "anonymous": false,
      "inputs": [
        {
          "indexed": true,
          "internalType": "bytes32",
          "name": "role",
          "type": "bytes32"
        },
        {
          "indexed": true,
          "internalType": "address",
          "name": "account",
          "type": "address"
        },
        {
          "indexed": true,
          "internalType": "address",
          "name": "sender",
          "type": "address"
        }
      ],
      "name": "RoleRevoked",
      "type": "event"
    },
    {
      "anonymous": false,
      "inputs": [
        {
          "indexed": true,
          "internalType": "address",
          "name": "from",
          "type": "address"
        },
        {
          "indexed": true,
          "internalType": "address",
          "name": "to",
          "type": "address"
        },
        {
          "indexed": false,
          "internalType": "uint256",
          "name": "amount",
          "type": "uint256"
        }
      ],
      "name": "Transfer",
      "type": "event"
    },
    {
      "anonymous": false,
      "inputs": [
        {
          "indexed": true,
          "internalType": "address",
          "name": "caller",
          "type": "address"
        },
        {
          "indexed": true,
          "internalType": "address",
          "name": "receiver",
          "type": "address"
        },
        {
          "indexed": true,
          "internalType": "address",
          "name": "owner",
          "type": "address"
        },
        {
          "indexed": false,
          "internalType": "uint256",
          "name": "assets",
          "type": "uint256"
        },
        {
          "indexed": false,
          "internalType": "uint256",
          "name": "shares",
          "type": "uint256"
        }
      ],
      "name": "Withdraw",
      "type": "event"
    },
    {
      "inputs": [],
      "name": "DEFAULT_ADMIN_ROLE",
      "outputs": [
        {
          "internalType": "bytes32",
          "name": "",
          "type": "bytes32"
        }
      ],
      "stateMutability": "view",
      "type": "function"
    },
    {
      "inputs": [],
      "name": "DOMAIN_SEPARATOR",
      "outputs": [
        {
          "internalType": "bytes32",
          "name": "",
          "type": "bytes32"
        }
      ],
      "stateMutability": "view",
      "type": "function"
    },
    {
      "inputs": [
        {
          "internalType": "address",
          "name": "_owner",
          "type": "address"
        },
        {
          "internalType": "address",
          "name": "_spender",
          "type": "address"
        }
      ],
      "name": "allowance",
      "outputs": [
        {
          "internalType": "uint256",
          "name": "",
          "type": "uint256"
        }
      ],
      "stateMutability": "view",
      "type": "function"
    },
    {
      "inputs": [
        {
          "internalType": "address",
          "name": "spender",
          "type": "address"
        },
        {
          "internalType": "uint256",
          "name": "amount",
          "type": "uint256"
        }
      ],
      "name": "approve",
      "outputs": [
        {
          "internalType": "bool",
          "name": "",
          "type": "bool"
        }
      ],
      "stateMutability": "nonpayable",
      "type": "function"
    },
    {
      "inputs": [],
      "name": "asset",
      "outputs": [
        {
          "internalType": "contract KreskoAsset",
          "name": "",
          "type": "address"
        }
      ],
      "stateMutability": "view",
      "type": "function"
    },
    {
      "inputs": [
        {
          "internalType": "address",
          "name": "_account",
          "type": "address"
        }
      ],
      "name": "balanceOf",
      "outputs": [
        {
          "internalType": "uint256",
          "name": "",
          "type": "uint256"
        }
      ],
      "stateMutability": "view",
      "type": "function"
    },
    {
      "inputs": [
        {
          "internalType": "uint256",
          "name": "shares",
          "type": "uint256"
        }
      ],
      "name": "convertToAssets",
      "outputs": [
        {
          "internalType": "uint256",
          "name": "",
          "type": "uint256"
        }
      ],
      "stateMutability": "view",
      "type": "function"
    },
    {
      "inputs": [
        {
          "internalType": "uint256",
          "name": "assets",
          "type": "uint256"
        }
      ],
      "name": "convertToShares",
      "outputs": [
        {
          "internalType": "uint256",
          "name": "",
          "type": "uint256"
        }
      ],
      "stateMutability": "view",
      "type": "function"
    },
    {
      "inputs": [],
      "name": "decimals",
      "outputs": [
        {
          "internalType": "uint8",
          "name": "",
          "type": "uint8"
        }
      ],
      "stateMutability": "view",
      "type": "function"
    },
    {
      "inputs": [
        {
          "internalType": "uint256",
          "name": "_assets",
          "type": "uint256"
        },
        {
          "internalType": "address",
          "name": "_receiver",
          "type": "address"
        }
      ],
      "name": "deposit",
      "outputs": [
        {
          "internalType": "uint256",
          "name": "shares",
          "type": "uint256"
        }
      ],
      "stateMutability": "nonpayable",
      "type": "function"
    },
    {
      "inputs": [
        {
          "internalType": "bytes32",
          "name": "role",
          "type": "bytes32"
        }
      ],
      "name": "getRoleAdmin",
      "outputs": [
        {
          "internalType": "bytes32",
          "name": "",
          "type": "bytes32"
        }
      ],
      "stateMutability": "view",
      "type": "function"
    },
    {
      "inputs": [
        {
          "internalType": "bytes32",
          "name": "role",
          "type": "bytes32"
        },
        {
          "internalType": "uint256",
          "name": "index",
          "type": "uint256"
        }
      ],
      "name": "getRoleMember",
      "outputs": [
        {
          "internalType": "address",
          "name": "",
          "type": "address"
        }
      ],
      "stateMutability": "view",
      "type": "function"
    },
    {
      "inputs": [
        {
          "internalType": "bytes32",
          "name": "role",
          "type": "bytes32"
        }
      ],
      "name": "getRoleMemberCount",
      "outputs": [
        {
          "internalType": "uint256",
          "name": "",
          "type": "uint256"
        }
      ],
      "stateMutability": "view",
      "type": "function"
    },
    {
      "inputs": [
        {
          "internalType": "bytes32",
          "name": "role",
          "type": "bytes32"
        },
        {
          "internalType": "address",
          "name": "account",
          "type": "address"
        }
      ],
      "name": "grantRole",
      "outputs": [],
      "stateMutability": "nonpayable",
      "type": "function"
    },
    {
      "inputs": [
        {
          "internalType": "bytes32",
          "name": "role",
          "type": "bytes32"
        },
        {
          "internalType": "address",
          "name": "account",
          "type": "address"
        }
      ],
      "name": "hasRole",
      "outputs": [
        {
          "internalType": "bool",
          "name": "",
          "type": "bool"
        }
      ],
      "stateMutability": "view",
      "type": "function"
    },
    {
      "inputs": [
        {
          "internalType": "contract KreskoAsset",
          "name": "_asset",
          "type": "address"
        },
        {
          "internalType": "string",
          "name": "_name",
          "type": "string"
        },
        {
          "internalType": "string",
          "name": "_symbol",
          "type": "string"
        },
        {
          "internalType": "address",
          "name": "_owner",
          "type": "address"
        }
      ],
      "name": "initialize",
      "outputs": [],
      "stateMutability": "nonpayable",
      "type": "function"
    },
    {
      "inputs": [
        {
          "internalType": "address",
          "name": "",
          "type": "address"
        }
      ],
      "name": "maxDeposit",
      "outputs": [
        {
          "internalType": "uint256",
          "name": "",
          "type": "uint256"
        }
      ],
      "stateMutability": "view",
      "type": "function"
    },
    {
      "inputs": [
        {
          "internalType": "address",
          "name": "",
          "type": "address"
        }
      ],
      "name": "maxMint",
      "outputs": [
        {
          "internalType": "uint256",
          "name": "",
          "type": "uint256"
        }
      ],
      "stateMutability": "view",
      "type": "function"
    },
    {
      "inputs": [
        {
          "internalType": "address",
          "name": "owner",
          "type": "address"
        }
      ],
      "name": "maxRedeem",
      "outputs": [
        {
          "internalType": "uint256",
          "name": "",
          "type": "uint256"
        }
      ],
      "stateMutability": "view",
      "type": "function"
    },
    {
      "inputs": [
        {
          "internalType": "address",
          "name": "owner",
          "type": "address"
        }
      ],
      "name": "maxWithdraw",
      "outputs": [
        {
          "internalType": "uint256",
          "name": "",
          "type": "uint256"
        }
      ],
      "stateMutability": "view",
      "type": "function"
    },
    {
      "inputs": [
        {
          "internalType": "uint256",
          "name": "_shares",
          "type": "uint256"
        },
        {
          "internalType": "address",
          "name": "_receiver",
          "type": "address"
        }
      ],
      "name": "mint",
      "outputs": [
        {
          "internalType": "uint256",
          "name": "assets",
          "type": "uint256"
        }
      ],
      "stateMutability": "nonpayable",
      "type": "function"
    },
    {
      "inputs": [],
      "name": "name",
      "outputs": [
        {
          "internalType": "string",
          "name": "",
          "type": "string"
        }
      ],
      "stateMutability": "view",
      "type": "function"
    },
    {
      "inputs": [
        {
          "internalType": "address",
          "name": "",
          "type": "address"
        }
      ],
      "name": "nonces",
      "outputs": [
        {
          "internalType": "uint256",
          "name": "",
          "type": "uint256"
        }
      ],
      "stateMutability": "view",
      "type": "function"
    },
    {
      "inputs": [
        {
          "internalType": "address",
          "name": "owner",
          "type": "address"
        },
        {
          "internalType": "address",
          "name": "spender",
          "type": "address"
        },
        {
          "internalType": "uint256",
          "name": "value",
          "type": "uint256"
        },
        {
          "internalType": "uint256",
          "name": "deadline",
          "type": "uint256"
        },
        {
          "internalType": "uint8",
          "name": "v",
          "type": "uint8"
        },
        {
          "internalType": "bytes32",
          "name": "r",
          "type": "bytes32"
        },
        {
          "internalType": "bytes32",
          "name": "s",
          "type": "bytes32"
        }
      ],
      "name": "permit",
      "outputs": [],
      "stateMutability": "nonpayable",
      "type": "function"
    },
    {
      "inputs": [
        {
          "internalType": "uint256",
          "name": "assets",
          "type": "uint256"
        }
      ],
      "name": "previewDeposit",
      "outputs": [
        {
          "internalType": "uint256",
          "name": "",
          "type": "uint256"
        }
      ],
      "stateMutability": "view",
      "type": "function"
    },
    {
      "inputs": [
        {
          "internalType": "uint256",
          "name": "shares",
          "type": "uint256"
        }
      ],
      "name": "previewMint",
      "outputs": [
        {
          "internalType": "uint256",
          "name": "",
          "type": "uint256"
        }
      ],
      "stateMutability": "view",
      "type": "function"
    },
    {
      "inputs": [
        {
          "internalType": "uint256",
          "name": "shares",
          "type": "uint256"
        }
      ],
      "name": "previewRedeem",
      "outputs": [
        {
          "internalType": "uint256",
          "name": "",
          "type": "uint256"
        }
      ],
      "stateMutability": "view",
      "type": "function"
    },
    {
      "inputs": [
        {
          "internalType": "uint256",
          "name": "assets",
          "type": "uint256"
        }
      ],
      "name": "previewWithdraw",
      "outputs": [
        {
          "internalType": "uint256",
          "name": "",
          "type": "uint256"
        }
      ],
      "stateMutability": "view",
      "type": "function"
    },
    {
      "inputs": [
        {
          "internalType": "uint256",
          "name": "_shares",
          "type": "uint256"
        },
        {
          "internalType": "address",
          "name": "_receiver",
          "type": "address"
        },
        {
          "internalType": "address",
          "name": "_owner",
          "type": "address"
        }
      ],
      "name": "redeem",
      "outputs": [
        {
          "internalType": "uint256",
          "name": "assets",
          "type": "uint256"
        }
      ],
      "stateMutability": "nonpayable",
      "type": "function"
    },
    {
      "inputs": [
        {
          "internalType": "bytes32",
          "name": "role",
          "type": "bytes32"
        },
        {
          "internalType": "address",
          "name": "account",
          "type": "address"
        }
      ],
      "name": "renounceRole",
      "outputs": [],
      "stateMutability": "nonpayable",
      "type": "function"
    },
    {
      "inputs": [
        {
          "internalType": "bytes32",
          "name": "role",
          "type": "bytes32"
        },
        {
          "internalType": "address",
          "name": "account",
          "type": "address"
        }
      ],
      "name": "revokeRole",
      "outputs": [],
      "stateMutability": "nonpayable",
      "type": "function"
    },
    {
      "inputs": [
        {
          "internalType": "bytes4",
          "name": "interfaceId",
          "type": "bytes4"
        }
      ],
      "name": "supportsInterface",
      "outputs": [
        {
          "internalType": "bool",
          "name": "",
          "type": "bool"
        }
      ],
      "stateMutability": "view",
      "type": "function"
    },
    {
      "inputs": [],
      "name": "symbol",
      "outputs": [
        {
          "internalType": "string",
          "name": "",
          "type": "string"
        }
      ],
      "stateMutability": "view",
      "type": "function"
    },
    {
      "inputs": [],
      "name": "totalAssets",
      "outputs": [
        {
          "internalType": "uint256",
          "name": "",
          "type": "uint256"
        }
      ],
      "stateMutability": "view",
      "type": "function"
    },
    {
      "inputs": [],
      "name": "totalSupply",
      "outputs": [
        {
          "internalType": "uint256",
          "name": "",
          "type": "uint256"
        }
      ],
      "stateMutability": "view",
      "type": "function"
    },
    {
      "inputs": [
        {
          "internalType": "address",
          "name": "to",
          "type": "address"
        },
        {
          "internalType": "uint256",
          "name": "amount",
          "type": "uint256"
        }
      ],
      "name": "transfer",
      "outputs": [
        {
          "internalType": "bool",
          "name": "",
          "type": "bool"
        }
      ],
      "stateMutability": "nonpayable",
      "type": "function"
    },
    {
      "inputs": [
        {
          "internalType": "address",
          "name": "from",
          "type": "address"
        },
        {
          "internalType": "address",
          "name": "to",
          "type": "address"
        },
        {
          "internalType": "uint256",
          "name": "amount",
          "type": "uint256"
        }
      ],
      "name": "transferFrom",
      "outputs": [
        {
          "internalType": "bool",
          "name": "",
          "type": "bool"
        }
      ],
      "stateMutability": "nonpayable",
      "type": "function"
    },
    {
      "inputs": [
        {
          "internalType": "string",
          "name": "_name",
          "type": "string"
        },
        {
          "internalType": "string",
          "name": "_symbol",
          "type": "string"
        },
        {
          "internalType": "uint8",
          "name": "_version",
          "type": "uint8"
        }
      ],
      "name": "updateMetaData",
      "outputs": [],
      "stateMutability": "nonpayable",
      "type": "function"
    },
    {
      "inputs": [
        {
          "internalType": "uint256",
          "name": "_assets",
          "type": "uint256"
        },
        {
          "internalType": "address",
          "name": "_receiver",
          "type": "address"
        },
        {
          "internalType": "address",
          "name": "_owner",
          "type": "address"
        }
      ],
      "name": "withdraw",
      "outputs": [
        {
          "internalType": "uint256",
          "name": "shares",
          "type": "uint256"
        }
      ],
      "stateMutability": "nonpayable",
      "type": "function"
    }
  ],
  "transactionHash": "0x780692ac491bb380b6b39956346aa66642ce1858915cc9a0a1a0bac298429f36",
  "args": [
    "0x6156dbb84d01A5ac6Ab001007D777B9caC3Ab627"
  ],
  "numDeployments": 1,
  "solcInputHash": "982b6a22f97b2c235980e50ae289fa10",
  "bytecode": "0x60e06040526040516200508a3803806200508a833981810160405281019062000029919062000301565b8060008060019054906101000a900460ff161590508080156200005c5750600160008054906101000a900460ff1660ff16105b806200009857506200007930620001d060201b62001bf11760201c565b158015620000975750600160008054906101000a900460ff1660ff16145b5b620000da576040517f08c379a0000000000000000000000000000000000000000000000000000000008152600401620000d190620003ba565b60405180910390fd5b60016000806101000a81548160ff021916908360ff160217905550801562000118576001600060016101000a81548160ff0219169083151502179055505b466080818152505062000130620001f360201b60201c565b60a081815250508015620001935760008060016101000a81548160ff0219169083151502179055507f7f26b83ff96e1f2b6a682f133852f6798a09c465da95921460cefb384740249860016040516200018a919062000436565b60405180910390a15b508073ffffffffffffffffffffffffffffffffffffffff1660c08173ffffffffffffffffffffffffffffffffffffffff168152505050506200061f565b6000808273ffffffffffffffffffffffffffffffffffffffff163b119050919050565b60007f8b73c3c69bb8fe3d512ecc4cf759cc79239f7b179b0ffacaa9a75d522b39400f600160405162000227919062000562565b60405180910390207fc89efdaa54c0f20c7adf612882df0950f5a951637e0307cdcb4c672f298b8bc6463060405160200162000268959493929190620005c2565b60405160208183030381529060405280519060200120905090565b600080fd5b600073ffffffffffffffffffffffffffffffffffffffff82169050919050565b6000620002b58262000288565b9050919050565b6000620002c982620002a8565b9050919050565b620002db81620002bc565b8114620002e757600080fd5b50565b600081519050620002fb81620002d0565b92915050565b6000602082840312156200031a576200031962000283565b5b60006200032a84828501620002ea565b91505092915050565b600082825260208201905092915050565b7f496e697469616c697a61626c653a20636f6e747261637420697320616c72656160008201527f647920696e697469616c697a6564000000000000000000000000000000000000602082015250565b6000620003a2602e8362000333565b9150620003af8262000344565b604082019050919050565b60006020820190508181036000830152620003d58162000393565b9050919050565b6000819050919050565b600060ff82169050919050565b6000819050919050565b60006200041e620004186200041284620003dc565b620003f3565b620003e6565b9050919050565b6200043081620003fd565b82525050565b60006020820190506200044d600083018462000425565b92915050565b7f4e487b7100000000000000000000000000000000000000000000000000000000600052602260045260246000fd5b600060028204905060018216806200049b57607f821691505b602082108103620004b157620004b062000453565b5b50919050565b600081905092915050565b60008190508160005260206000209050919050565b60008154620004e68162000482565b620004f28186620004b7565b94506001821660008114620005105760018114620005225762000559565b60ff1983168652818601935062000559565b6200052d85620004c2565b60005b83811015620005515781548189015260018201915060208101905062000530565b838801955050505b50505092915050565b6000620005708284620004d7565b915081905092915050565b6000819050919050565b62000590816200057b565b82525050565b6000819050919050565b620005ab8162000596565b82525050565b620005bc81620002a8565b82525050565b600060a082019050620005d9600083018862000585565b620005e8602083018762000585565b620005f7604083018662000585565b620006066060830185620005a0565b620006156080830184620005b1565b9695505050505050565b60805160a05160c051614a11620006796000396000818161088e01528181610f6a0152818161111b01528181611f5d01528181612052015281816123c5015261266301526000610ec001526000610e8c0152614a116000f3fe608060405234801561001057600080fd5b506004361061023d5760003560e01c80637ecebe001161013b578063ba087652116100b8578063d505accf1161007c578063d505accf146107c2578063d547741f146107de578063d905777e146107fa578063dd62ed3e1461082a578063ef8b30f71461085a5761023d565b8063ba087652146106d2578063c63d75b614610702578063c6e6f59214610732578063ca15c87314610762578063ce96cb77146107925761023d565b8063a217fddf116100ff578063a217fddf14610608578063a3d2563d14610626578063a9059cbb14610642578063b3d7f6b914610672578063b460af94146106a25761023d565b80637ecebe001461052a5780639010d07c1461055a57806391d148541461058a57806394bf804d146105ba57806395d89b41146105ea5761023d565b80632f2ff15d116101c9578063402d267d1161018d578063402d267d1461044e5780634cdad5061461047e578063613d25bb146104ae5780636e553f65146104ca57806370a08231146104fa5761023d565b80632f2ff15d146103bc578063313ce567146103d85780633644e515146103f657806336568abe1461041457806338d52e0f146104305761023d565b8063095ea7b311610210578063095ea7b3146102de5780630a28a4771461030e57806318160ddd1461033e57806323b872dd1461035c578063248a9ca31461038c5761023d565b806301e1d1141461024257806301ffc9a71461026057806306fdde031461029057806307a2d13a146102ae575b600080fd5b61024a61088a565b604051610257919061338b565b60405180910390f35b61027a60048036038101906102759190613412565b610920565b604051610287919061345a565b60405180910390f35b6102986109ea565b6040516102a5919061350e565b60405180910390f35b6102c860048036038101906102c3919061355c565b610a78565b6040516102d5919061338b565b60405180910390f35b6102f860048036038101906102f391906135e7565b610ab3565b604051610305919061345a565b60405180910390f35b6103286004803603810190610323919061355c565b610ba5565b604051610335919061338b565b60405180910390f35b610346610be0565b604051610353919061338b565b60405180910390f35b61037660048036038101906103719190613627565b610bea565b604051610383919061345a565b60405180910390f35b6103a660048036038101906103a191906136b0565b610e34565b6040516103b391906136ec565b60405180910390f35b6103d660048036038101906103d19190613707565b610e54565b005b6103e0610e75565b6040516103ed9190613763565b60405180910390f35b6103fe610e88565b60405161040b91906136ec565b60405180910390f35b61042e60048036038101906104299190613707565b610ee5565b005b610438610f68565b60405161044591906137dd565b60405180910390f35b610468600480360381019061046391906137f8565b610f8c565b604051610475919061338b565b60405180910390f35b6104986004803603810190610493919061355c565b610fb6565b6040516104a5919061338b565b60405180910390f35b6104c860048036038101906104c39190613998565b610fc8565b005b6104e460048036038101906104df9190613a37565b61120d565b6040516104f1919061338b565b60405180910390f35b610514600480360381019061050f91906137f8565b61124f565b604051610521919061338b565b60405180910390f35b610544600480360381019061053f91906137f8565b611298565b604051610551919061338b565b60405180910390f35b610574600480360381019061056f9190613a77565b6112b0565b6040516105819190613ac6565b60405180910390f35b6105a4600480360381019061059f9190613707565b6112df565b6040516105b1919061345a565b60405180910390f35b6105d460048036038101906105cf9190613a37565b61134a565b6040516105e1919061338b565b60405180910390f35b6105f261138c565b6040516105ff919061350e565b60405180910390f35b61061061141a565b60405161061d91906136ec565b60405180910390f35b610640600480360381019061063b9190613b0d565b611421565b005b61065c600480360381019061065791906135e7565b611544565b604051610669919061345a565b60405180910390f35b61068c6004803603810190610687919061355c565b611658565b604051610699919061338b565b60405180910390f35b6106bc60048036038101906106b79190613b98565b611693565b6040516106c9919061338b565b60405180910390f35b6106ec60048036038101906106e79190613b98565b6116d7565b6040516106f9919061338b565b60405180910390f35b61071c600480360381019061071791906137f8565b61171b565b604051610729919061338b565b60405180910390f35b61074c6004803603810190610747919061355c565b611745565b604051610759919061338b565b60405180910390f35b61077c600480360381019061077791906136b0565b611780565b604051610789919061338b565b60405180910390f35b6107ac60048036038101906107a791906137f8565b6117a4565b6040516107b9919061338b565b60405180910390f35b6107dc60048036038101906107d79190613beb565b6117f5565b005b6107f860048036038101906107f39190613707565b611aee565b005b610814600480360381019061080f91906137f8565b611b0f565b604051610821919061338b565b60405180910390f35b610844600480360381019061083f9190613c8d565b611b58565b604051610851919061338b565b60405180910390f35b610874600480360381019061086f919061355c565b611bdf565b604051610881919061338b565b60405180910390f35b60007f000000000000000000000000000000000000000000000000000000000000000073ffffffffffffffffffffffffffffffffffffffff166318160ddd6040518163ffffffff1660e01b8152600401602060405180830381865afa1580156108f7573d6000803e3d6000fd5b505050506040513d601f19601f8201168201806040525081019061091b9190613ce2565b905090565b60007fa0add9da000000000000000000000000000000000000000000000000000000007bffffffffffffffffffffffffffffffffffffffffffffffffffffffff1916827bffffffffffffffffffffffffffffffffffffffffffffffffffffffff191614806109b357506301ffc9a760e01b827bffffffffffffffffffffffffffffffffffffffffffffffffffffffff1916145b806109e357506336372b0760e01b827bffffffffffffffffffffffffffffffffffffffffffffffffffffffff1916145b9050919050565b600180546109f790613d3e565b80601f0160208091040260200160405190810160405280929190818152602001828054610a2390613d3e565b8015610a705780601f10610a4557610100808354040283529160200191610a70565b820191906000526020600020905b815481529060010190602001808311610a5357829003601f168201915b505050505081565b600080600454905060008114610aa957610aa4610a9361088a565b8285611c149092919063ffffffff16565b610aab565b825b915050919050565b600081600660003373ffffffffffffffffffffffffffffffffffffffff1673ffffffffffffffffffffffffffffffffffffffff16815260200190815260200160002060008573ffffffffffffffffffffffffffffffffffffffff1673ffffffffffffffffffffffffffffffffffffffff168152602001908152602001600020819055508273ffffffffffffffffffffffffffffffffffffffff163373ffffffffffffffffffffffffffffffffffffffff167f8c5be1e5ebec7d5bd14f71427d1e84f3dd0314c0f7b2291e5b200ac8c7c3b92584604051610b93919061338b565b60405180910390a36001905092915050565b600080600454905060008114610bd657610bd181610bc161088a565b85611c3c9092919063ffffffff16565b610bd8565b825b915050919050565b6000600454905090565b600080600660008673ffffffffffffffffffffffffffffffffffffffff1673ffffffffffffffffffffffffffffffffffffffff16815260200190815260200160002060003373ffffffffffffffffffffffffffffffffffffffff1673ffffffffffffffffffffffffffffffffffffffff1681526020019081526020016000205490507fffffffffffffffffffffffffffffffffffffffffffffffffffffffffffffffff8114610d20578281610c9f9190613d9e565b600660008773ffffffffffffffffffffffffffffffffffffffff1673ffffffffffffffffffffffffffffffffffffffff16815260200190815260200160002060003373ffffffffffffffffffffffffffffffffffffffff1673ffffffffffffffffffffffffffffffffffffffff168152602001908152602001600020819055505b82600560008773ffffffffffffffffffffffffffffffffffffffff1673ffffffffffffffffffffffffffffffffffffffff1681526020019081526020016000206000828254610d6f9190613d9e565b9250508190555082600560008673ffffffffffffffffffffffffffffffffffffffff1673ffffffffffffffffffffffffffffffffffffffff168152602001908152602001600020600082825401925050819055508373ffffffffffffffffffffffffffffffffffffffff168573ffffffffffffffffffffffffffffffffffffffff167fddf252ad1be2c89b69c2b068fc378daa952ba7f163c4a11628f55a4df523b3ef85604051610e20919061338b565b60405180910390a360019150509392505050565b6000606c6000838152602001908152602001600020600101549050919050565b610e5d82610e34565b610e6681611c6e565b610e708383611c82565b505050565b600360009054906101000a900460ff1681565b60007f00000000000000000000000000000000000000000000000000000000000000004614610ebe57610eb9611cb6565b610ee0565b7f00000000000000000000000000000000000000000000000000000000000000005b905090565b610eed611d42565b73ffffffffffffffffffffffffffffffffffffffff168173ffffffffffffffffffffffffffffffffffffffff1614610f5a576040517f08c379a0000000000000000000000000000000000000000000000000000000008152600401610f5190613e44565b60405180910390fd5b610f648282611d4a565b5050565b7f000000000000000000000000000000000000000000000000000000000000000081565b60007fffffffffffffffffffffffffffffffffffffffffffffffffffffffffffffffff9050919050565b6000610fc182610a78565b9050919050565b60008060019054906101000a900460ff16159050808015610ff95750600160008054906101000a900460ff1660ff16105b80611026575061100830611bf1565b1580156110255750600160008054906101000a900460ff1660ff16145b5b611065576040517f08c379a000000000000000000000000000000000000000000000000000000000815260040161105c90613ed6565b60405180910390fd5b60016000806101000a81548160ff021916908360ff16021790555080156110a2576001600060016101000a81548160ff0219169083151502179055505b6110ad858585611d7e565b6110b5611e4b565b6110c26000801b83611e9c565b6110f27f112e48a576fb3a75acc75d9fcf6e0bc670b27b1dbcd2463502e10e68cf57d6fd60001b6000801b611eaa565b6111ad7f112e48a576fb3a75acc75d9fcf6e0bc670b27b1dbcd2463502e10e68cf57d6fd60001b7f000000000000000000000000000000000000000000000000000000000000000073ffffffffffffffffffffffffffffffffffffffff1663d77e128c6040518163ffffffff1660e01b8152600401602060405180830381865afa158015611184573d6000803e3d6000fd5b505050506040513d601f19601f820116820180604052508101906111a89190613f0b565b611e9c565b80156112065760008060016101000a81548160ff0219169083151502179055507f7f26b83ff96e1f2b6a682f133852f6798a09c465da95921460cefb384740249860016040516111fd9190613f73565b60405180910390a15b5050505050565b60007f112e48a576fb3a75acc75d9fcf6e0bc670b27b1dbcd2463502e10e68cf57d6fd60001b61123c81611c6e565b6112468484611f06565b91505092915050565b6000600560008373ffffffffffffffffffffffffffffffffffffffff1673ffffffffffffffffffffffffffffffffffffffff168152602001908152602001600020549050919050565b60076020528060005260406000206000915090505481565b60006112d782609e600086815260200190815260200160002061202390919063ffffffff16565b905092915050565b6000606c600084815260200190815260200160002060000160008373ffffffffffffffffffffffffffffffffffffffff1673ffffffffffffffffffffffffffffffffffffffff16815260200190815260200160002060009054906101000a900460ff16905092915050565b60007f112e48a576fb3a75acc75d9fcf6e0bc670b27b1dbcd2463502e10e68cf57d6fd60001b61137981611c6e565b611383848461203d565b91505092915050565b6002805461139990613d3e565b80601f01602080910402602001604051908101604052809291908181526020018280546113c590613d3e565b80156114125780601f106113e757610100808354040283529160200191611412565b820191906000526020600020905b8154815290600101906020018083116113f557829003601f168201915b505050505081565b6000801b81565b6000801b61142e81611c6e565b81600060019054906101000a900460ff1615801561145e57508060ff1660008054906101000a900460ff1660ff16105b61149d576040517f08c379a000000000000000000000000000000000000000000000000000000000815260040161149490613ed6565b60405180910390fd5b806000806101000a81548160ff021916908360ff1602179055506001600060016101000a81548160ff0219169083151502179055506114ec8585600360009054906101000a900460ff16612118565b60008060016101000a81548160ff0219169083151502179055507f7f26b83ff96e1f2b6a682f133852f6798a09c465da95921460cefb3847402498816040516115359190613763565b60405180910390a15050505050565b600081600560003373ffffffffffffffffffffffffffffffffffffffff1673ffffffffffffffffffffffffffffffffffffffff16815260200190815260200160002060008282546115959190613d9e565b9250508190555081600560008573ffffffffffffffffffffffffffffffffffffffff1673ffffffffffffffffffffffffffffffffffffffff168152602001908152602001600020600082825401925050819055508273ffffffffffffffffffffffffffffffffffffffff163373ffffffffffffffffffffffffffffffffffffffff167fddf252ad1be2c89b69c2b068fc378daa952ba7f163c4a11628f55a4df523b3ef84604051611646919061338b565b60405180910390a36001905092915050565b6000806004549050600081146116895761168461167361088a565b8285611c3c9092919063ffffffff16565b61168b565b825b915050919050565b60007f112e48a576fb3a75acc75d9fcf6e0bc670b27b1dbcd2463502e10e68cf57d6fd60001b6116c281611c6e565b6116cd8585856121b5565b9150509392505050565b60007f112e48a576fb3a75acc75d9fcf6e0bc670b27b1dbcd2463502e10e68cf57d6fd60001b61170681611c6e565b611711858585612410565b9150509392505050565b60007fffffffffffffffffffffffffffffffffffffffffffffffffffffffffffffffff9050919050565b600080600454905060008114611776576117718161176161088a565b85611c149092919063ffffffff16565b611778565b825b915050919050565b600061179d609e60008481526020019081526020016000206126ae565b9050919050565b60006117ee600560008473ffffffffffffffffffffffffffffffffffffffff1673ffffffffffffffffffffffffffffffffffffffff16815260200190815260200160002054610a78565b9050919050565b42841015611838576040517f08c379a000000000000000000000000000000000000000000000000000000000815260040161182f90613fda565b60405180910390fd5b60006001611844610e88565b7f6e71edae12b1b97f4d1f60370fef10105fa2faae0126114a169c64845d6126c98a8a8a600760008f73ffffffffffffffffffffffffffffffffffffffff1673ffffffffffffffffffffffffffffffffffffffff1681526020019081526020016000206000815480929190600101919050558b6040516020016118cc96959493929190613ffa565b604051602081830303815290604052805190602001206040516020016118f39291906140d3565b6040516020818303038152906040528051906020012085858560405160008152602001604052604051611929949392919061410a565b6020604051602081039080840390855afa15801561194b573d6000803e3d6000fd5b505050602060405103519050600073ffffffffffffffffffffffffffffffffffffffff168173ffffffffffffffffffffffffffffffffffffffff16141580156119bf57508773ffffffffffffffffffffffffffffffffffffffff168173ffffffffffffffffffffffffffffffffffffffff16145b6119fe576040517f08c379a00000000000000000000000000000000000000000000000000000000081526004016119f59061419b565b60405180910390fd5b85600660008373ffffffffffffffffffffffffffffffffffffffff1673ffffffffffffffffffffffffffffffffffffffff16815260200190815260200160002060008973ffffffffffffffffffffffffffffffffffffffff1673ffffffffffffffffffffffffffffffffffffffff16815260200190815260200160002081905550508573ffffffffffffffffffffffffffffffffffffffff168773ffffffffffffffffffffffffffffffffffffffff167f8c5be1e5ebec7d5bd14f71427d1e84f3dd0314c0f7b2291e5b200ac8c7c3b92587604051611add919061338b565b60405180910390a350505050505050565b611af782610e34565b611b0081611c6e565b611b0a8383611d4a565b505050565b6000600560008373ffffffffffffffffffffffffffffffffffffffff1673ffffffffffffffffffffffffffffffffffffffff168152602001908152602001600020549050919050565b6000600660008473ffffffffffffffffffffffffffffffffffffffff1673ffffffffffffffffffffffffffffffffffffffff16815260200190815260200160002060008373ffffffffffffffffffffffffffffffffffffffff1673ffffffffffffffffffffffffffffffffffffffff16815260200190815260200160002054905092915050565b6000611bea82611745565b9050919050565b6000808273ffffffffffffffffffffffffffffffffffffffff163b119050919050565b60008284029050828482041484151782151516611c3057600080fd5b81810490509392505050565b60008284029050828482041484151782151516611c5857600080fd5b6001826001830304018115150290509392505050565b611c7f81611c7a611d42565b6126c3565b50565b611c8c8282612760565b611cb181609e600085815260200190815260200160002061284190919063ffffffff16565b505050565b60007f8b73c3c69bb8fe3d512ecc4cf759cc79239f7b179b0ffacaa9a75d522b39400f6001604051611ce8919061425a565b60405180910390207fc89efdaa54c0f20c7adf612882df0950f5a951637e0307cdcb4c672f298b8bc64630604051602001611d27959493929190614271565b60405160208183030381529060405280519060200120905090565b600033905090565b611d548282612871565b611d7981609e600085815260200190815260200160002061295390919063ffffffff16565b505050565b600060019054906101000a900460ff16611dcd576040517f08c379a0000000000000000000000000000000000000000000000000000000008152600401611dc490614336565b60405180910390fd5b611e4682828573ffffffffffffffffffffffffffffffffffffffff1663313ce5676040518163ffffffff1660e01b8152600401602060405180830381865afa158015611e1d573d6000803e3d6000fd5b505050506040513d601f19601f82011682018060405250810190611e41919061436b565b612118565b505050565b600060019054906101000a900460ff16611e9a576040517f08c379a0000000000000000000000000000000000000000000000000000000008152600401611e9190614336565b60405180910390fd5b565b611ea68282611c82565b5050565b6000611eb583610e34565b905081606c6000858152602001908152602001600020600101819055508181847fbd79b86ffe0ab8e8776151514217cd7cacd52c909f66475c3af44e129f0b00ff60405160405180910390a4505050565b600080611f1284611bdf565b91508103611f55576040517f08c379a0000000000000000000000000000000000000000000000000000000008152600401611f4c906143e4565b60405180910390fd5b611fa23330857f000000000000000000000000000000000000000000000000000000000000000073ffffffffffffffffffffffffffffffffffffffff16612983909392919063ffffffff16565b611fac8282612a0c565b8173ffffffffffffffffffffffffffffffffffffffff163373ffffffffffffffffffffffffffffffffffffffff167fdcbc1c05240f31ff3ad067ef1ee35ce4997762752e3a095284754544f4c709d7858460405161200b929190614404565b60405180910390a361201d8382612adc565b92915050565b60006120328360000183612aea565b60001c905092915050565b600061204883611658565b90506120973330837f000000000000000000000000000000000000000000000000000000000000000073ffffffffffffffffffffffffffffffffffffffff16612983909392919063ffffffff16565b6120a18284612a0c565b8173ffffffffffffffffffffffffffffffffffffffff163373ffffffffffffffffffffffffffffffffffffffff167fdcbc1c05240f31ff3ad067ef1ee35ce4997762752e3a095284754544f4c709d78386604051612100929190614404565b60405180910390a36121128184612adc565b92915050565b600060019054906101000a900460ff16612167576040517f08c379a000000000000000000000000000000000000000000000000000000000815260040161215e90614336565b60405180910390fd5b826001908051906020019061217d9291906132cf565b5081600290805190602001906121949291906132cf565b5080600360006101000a81548160ff021916908360ff160217905550505050565b60006121c084610ba5565b90508173ffffffffffffffffffffffffffffffffffffffff163373ffffffffffffffffffffffffffffffffffffffff161461232c576000600660008473ffffffffffffffffffffffffffffffffffffffff1673ffffffffffffffffffffffffffffffffffffffff16815260200190815260200160002060003373ffffffffffffffffffffffffffffffffffffffff1673ffffffffffffffffffffffffffffffffffffffff1681526020019081526020016000205490507fffffffffffffffffffffffffffffffffffffffffffffffffffffffffffffffff811461232a5781816122a99190613d9e565b600660008573ffffffffffffffffffffffffffffffffffffffff1673ffffffffffffffffffffffffffffffffffffffff16815260200190815260200160002060003373ffffffffffffffffffffffffffffffffffffffff1673ffffffffffffffffffffffffffffffffffffffff168152602001908152602001600020819055505b505b6123368482612b15565b6123408282612b23565b8173ffffffffffffffffffffffffffffffffffffffff168373ffffffffffffffffffffffffffffffffffffffff163373ffffffffffffffffffffffffffffffffffffffff167ffbde797d201c681b91056529119e0b02407c7bb96a4a2c75c01fc9667232c8db87856040516123b6929190614404565b60405180910390a461240983857f000000000000000000000000000000000000000000000000000000000000000073ffffffffffffffffffffffffffffffffffffffff16612bf39092919063ffffffff16565b9392505050565b60008173ffffffffffffffffffffffffffffffffffffffff163373ffffffffffffffffffffffffffffffffffffffff161461257c576000600660008473ffffffffffffffffffffffffffffffffffffffff1673ffffffffffffffffffffffffffffffffffffffff16815260200190815260200160002060003373ffffffffffffffffffffffffffffffffffffffff1673ffffffffffffffffffffffffffffffffffffffff1681526020019081526020016000205490507fffffffffffffffffffffffffffffffffffffffffffffffffffffffffffffffff811461257a5784816124f99190613d9e565b600660008573ffffffffffffffffffffffffffffffffffffffff1673ffffffffffffffffffffffffffffffffffffffff16815260200190815260200160002060003373ffffffffffffffffffffffffffffffffffffffff1673ffffffffffffffffffffffffffffffffffffffff168152602001908152602001600020819055505b505b600061258785610fb6565b915081036125ca576040517f08c379a00000000000000000000000000000000000000000000000000000000081526004016125c190614479565b60405180910390fd5b6125d48185612b15565b6125de8285612b23565b8173ffffffffffffffffffffffffffffffffffffffff168373ffffffffffffffffffffffffffffffffffffffff163373ffffffffffffffffffffffffffffffffffffffff167ffbde797d201c681b91056529119e0b02407c7bb96a4a2c75c01fc9667232c8db8488604051612654929190614404565b60405180910390a46126a783827f000000000000000000000000000000000000000000000000000000000000000073ffffffffffffffffffffffffffffffffffffffff16612bf39092919063ffffffff16565b9392505050565b60006126bc82600001612c79565b9050919050565b6126cd82826112df565b61275c576126f28173ffffffffffffffffffffffffffffffffffffffff166014612c8a565b6127008360001c6020612c8a565b604051602001612711929190614562565b6040516020818303038152906040526040517f08c379a0000000000000000000000000000000000000000000000000000000008152600401612753919061350e565b60405180910390fd5b5050565b61276a82826112df565b61283d576001606c600084815260200190815260200160002060000160008373ffffffffffffffffffffffffffffffffffffffff1673ffffffffffffffffffffffffffffffffffffffff16815260200190815260200160002060006101000a81548160ff0219169083151502179055506127e2611d42565b73ffffffffffffffffffffffffffffffffffffffff168173ffffffffffffffffffffffffffffffffffffffff16837f2f8788117e7eff1d82e926ec794901d17c78024a50270940304540a733656f0d60405160405180910390a45b5050565b6000612869836000018373ffffffffffffffffffffffffffffffffffffffff1660001b612ec6565b905092915050565b61287b82826112df565b1561294f576000606c600084815260200190815260200160002060000160008373ffffffffffffffffffffffffffffffffffffffff1673ffffffffffffffffffffffffffffffffffffffff16815260200190815260200160002060006101000a81548160ff0219169083151502179055506128f4611d42565b73ffffffffffffffffffffffffffffffffffffffff168173ffffffffffffffffffffffffffffffffffffffff16837ff6391f5c32d9c69d2a47ea670b442974b53935d1edc7fd64eb21e047a839171b60405160405180910390a45b5050565b600061297b836000018373ffffffffffffffffffffffffffffffffffffffff1660001b612f36565b905092915050565b612a06846323b872dd60e01b8585856040516024016129a49392919061459c565b604051602081830303815290604052907bffffffffffffffffffffffffffffffffffffffffffffffffffffffff19166020820180517bffffffffffffffffffffffffffffffffffffffffffffffffffffffff838183161783525050505061304a565b50505050565b8060046000828254612a1e91906145d3565b9250508190555080600560008473ffffffffffffffffffffffffffffffffffffffff1673ffffffffffffffffffffffffffffffffffffffff168152602001908152602001600020600082825401925050819055508173ffffffffffffffffffffffffffffffffffffffff16600073ffffffffffffffffffffffffffffffffffffffff167fddf252ad1be2c89b69c2b068fc378daa952ba7f163c4a11628f55a4df523b3ef83604051612ad0919061338b565b60405180910390a35050565b612ae68282613111565b5050565b6000826000018281548110612b0257612b01614629565b5b9060005260206000200154905092915050565b612b1f8282613115565b5050565b80600560008473ffffffffffffffffffffffffffffffffffffffff1673ffffffffffffffffffffffffffffffffffffffff1681526020019081526020016000206000828254612b729190613d9e565b9250508190555080600460008282540392505081905550600073ffffffffffffffffffffffffffffffffffffffff168273ffffffffffffffffffffffffffffffffffffffff167fddf252ad1be2c89b69c2b068fc378daa952ba7f163c4a11628f55a4df523b3ef83604051612be7919061338b565b60405180910390a35050565b612c748363a9059cbb60e01b8484604051602401612c12929190614658565b604051602081830303815290604052907bffffffffffffffffffffffffffffffffffffffffffffffffffffffff19166020820180517bffffffffffffffffffffffffffffffffffffffffffffffffffffffff838183161783525050505061304a565b505050565b600081600001805490509050919050565b606060006002836002612c9d9190614681565b612ca791906145d3565b67ffffffffffffffff811115612cc057612cbf61386d565b5b6040519080825280601f01601f191660200182016040528015612cf25781602001600182028036833780820191505090505b5090507f300000000000000000000000000000000000000000000000000000000000000081600081518110612d2a57612d29614629565b5b60200101907effffffffffffffffffffffffffffffffffffffffffffffffffffffffffffff1916908160001a9053507f780000000000000000000000000000000000000000000000000000000000000081600181518110612d8e57612d8d614629565b5b60200101907effffffffffffffffffffffffffffffffffffffffffffffffffffffffffffff1916908160001a90535060006001846002612dce9190614681565b612dd891906145d3565b90505b6001811115612e78577f3031323334353637383961626364656600000000000000000000000000000000600f861660108110612e1a57612e19614629565b5b1a60f81b828281518110612e3157612e30614629565b5b60200101907effffffffffffffffffffffffffffffffffffffffffffffffffffffffffffff1916908160001a905350600485901c945080612e71906146db565b9050612ddb565b5060008414612ebc576040517f08c379a0000000000000000000000000000000000000000000000000000000008152600401612eb390614750565b60405180910390fd5b8091505092915050565b6000612ed28383613119565b612f2b578260000182908060018154018082558091505060019003906000526020600020016000909190919091505582600001805490508360010160008481526020019081526020016000208190555060019050612f30565b600090505b92915050565b6000808360010160008481526020019081526020016000205490506000811461303e576000600182612f689190613d9e565b9050600060018660000180549050612f809190613d9e565b9050818114612fef576000866000018281548110612fa157612fa0614629565b5b9060005260206000200154905080876000018481548110612fc557612fc4614629565b5b90600052602060002001819055508387600101600083815260200190815260200160002081905550505b8560000180548061300357613002614770565b5b600190038181906000526020600020016000905590558560010160008681526020019081526020016000206000905560019350505050613044565b60009150505b92915050565b60006130ac826040518060400160405280602081526020017f5361666545524332303a206c6f772d6c6576656c2063616c6c206661696c65648152508573ffffffffffffffffffffffffffffffffffffffff1661313c9092919063ffffffff16565b905060008151111561310c57808060200190518101906130cc91906147cb565b61310b576040517f08c379a00000000000000000000000000000000000000000000000000000000081526004016131029061486a565b60405180910390fd5b5b505050565b5050565b5050565b600080836001016000848152602001908152602001600020541415905092915050565b606061314b8484600085613154565b90509392505050565b606082471015613199576040517f08c379a0000000000000000000000000000000000000000000000000000000008152600401613190906148fc565b60405180910390fd5b6131a285611bf1565b6131e1576040517f08c379a00000000000000000000000000000000000000000000000000000000081526004016131d890614968565b60405180910390fd5b6000808673ffffffffffffffffffffffffffffffffffffffff16858760405161320a91906149c4565b60006040518083038185875af1925050503d8060008114613247576040519150601f19603f3d011682016040523d82523d6000602084013e61324c565b606091505b509150915061325c828286613268565b92505050949350505050565b60608315613278578290506132c8565b60008351111561328b5782518084602001fd5b816040517f08c379a00000000000000000000000000000000000000000000000000000000081526004016132bf919061350e565b60405180910390fd5b9392505050565b8280546132db90613d3e565b90600052602060002090601f0160209004810192826132fd5760008555613344565b82601f1061331657805160ff1916838001178555613344565b82800160010185558215613344579182015b82811115613343578251825591602001919060010190613328565b5b5090506133519190613355565b5090565b5b8082111561336e576000816000905550600101613356565b5090565b6000819050919050565b61338581613372565b82525050565b60006020820190506133a0600083018461337c565b92915050565b6000604051905090565b600080fd5b600080fd5b60007fffffffff0000000000000000000000000000000000000000000000000000000082169050919050565b6133ef816133ba565b81146133fa57600080fd5b50565b60008135905061340c816133e6565b92915050565b600060208284031215613428576134276133b0565b5b6000613436848285016133fd565b91505092915050565b60008115159050919050565b6134548161343f565b82525050565b600060208201905061346f600083018461344b565b92915050565b600081519050919050565b600082825260208201905092915050565b60005b838110156134af578082015181840152602081019050613494565b838111156134be576000848401525b50505050565b6000601f19601f8301169050919050565b60006134e082613475565b6134ea8185613480565b93506134fa818560208601613491565b613503816134c4565b840191505092915050565b6000602082019050818103600083015261352881846134d5565b905092915050565b61353981613372565b811461354457600080fd5b50565b60008135905061355681613530565b92915050565b600060208284031215613572576135716133b0565b5b600061358084828501613547565b91505092915050565b600073ffffffffffffffffffffffffffffffffffffffff82169050919050565b60006135b482613589565b9050919050565b6135c4816135a9565b81146135cf57600080fd5b50565b6000813590506135e1816135bb565b92915050565b600080604083850312156135fe576135fd6133b0565b5b600061360c858286016135d2565b925050602061361d85828601613547565b9150509250929050565b6000806000606084860312156136405761363f6133b0565b5b600061364e868287016135d2565b935050602061365f868287016135d2565b925050604061367086828701613547565b9150509250925092565b6000819050919050565b61368d8161367a565b811461369857600080fd5b50565b6000813590506136aa81613684565b92915050565b6000602082840312156136c6576136c56133b0565b5b60006136d48482850161369b565b91505092915050565b6136e68161367a565b82525050565b600060208201905061370160008301846136dd565b92915050565b6000806040838503121561371e5761371d6133b0565b5b600061372c8582860161369b565b925050602061373d858286016135d2565b9150509250929050565b600060ff82169050919050565b61375d81613747565b82525050565b60006020820190506137786000830184613754565b92915050565b6000819050919050565b60006137a361379e61379984613589565b61377e565b613589565b9050919050565b60006137b582613788565b9050919050565b60006137c7826137aa565b9050919050565b6137d7816137bc565b82525050565b60006020820190506137f260008301846137ce565b92915050565b60006020828403121561380e5761380d6133b0565b5b600061381c848285016135d2565b91505092915050565b6000613830826135a9565b9050919050565b61384081613825565b811461384b57600080fd5b50565b60008135905061385d81613837565b92915050565b600080fd5b600080fd5b7f4e487b7100000000000000000000000000000000000000000000000000000000600052604160045260246000fd5b6138a5826134c4565b810181811067ffffffffffffffff821117156138c4576138c361386d565b5b80604052505050565b60006138d76133a6565b90506138e3828261389c565b919050565b600067ffffffffffffffff8211156139035761390261386d565b5b61390c826134c4565b9050602081019050919050565b82818337600083830152505050565b600061393b613936846138e8565b6138cd565b90508281526020810184848401111561395757613956613868565b5b613962848285613919565b509392505050565b600082601f83011261397f5761397e613863565b5b813561398f848260208601613928565b91505092915050565b600080600080608085870312156139b2576139b16133b0565b5b60006139c08782880161384e565b945050602085013567ffffffffffffffff8111156139e1576139e06133b5565b5b6139ed8782880161396a565b935050604085013567ffffffffffffffff811115613a0e57613a0d6133b5565b5b613a1a8782880161396a565b9250506060613a2b878288016135d2565b91505092959194509250565b60008060408385031215613a4e57613a4d6133b0565b5b6000613a5c85828601613547565b9250506020613a6d858286016135d2565b9150509250929050565b60008060408385031215613a8e57613a8d6133b0565b5b6000613a9c8582860161369b565b9250506020613aad85828601613547565b9150509250929050565b613ac0816135a9565b82525050565b6000602082019050613adb6000830184613ab7565b92915050565b613aea81613747565b8114613af557600080fd5b50565b600081359050613b0781613ae1565b92915050565b600080600060608486031215613b2657613b256133b0565b5b600084013567ffffffffffffffff811115613b4457613b436133b5565b5b613b508682870161396a565b935050602084013567ffffffffffffffff811115613b7157613b706133b5565b5b613b7d8682870161396a565b9250506040613b8e86828701613af8565b9150509250925092565b600080600060608486031215613bb157613bb06133b0565b5b6000613bbf86828701613547565b9350506020613bd0868287016135d2565b9250506040613be1868287016135d2565b9150509250925092565b600080600080600080600060e0888a031215613c0a57613c096133b0565b5b6000613c188a828b016135d2565b9750506020613c298a828b016135d2565b9650506040613c3a8a828b01613547565b9550506060613c4b8a828b01613547565b9450506080613c5c8a828b01613af8565b93505060a0613c6d8a828b0161369b565b92505060c0613c7e8a828b0161369b565b91505092959891949750929550565b60008060408385031215613ca457613ca36133b0565b5b6000613cb2858286016135d2565b9250506020613cc3858286016135d2565b9150509250929050565b600081519050613cdc81613530565b92915050565b600060208284031215613cf857613cf76133b0565b5b6000613d0684828501613ccd565b91505092915050565b7f4e487b7100000000000000000000000000000000000000000000000000000000600052602260045260246000fd5b60006002820490506001821680613d5657607f821691505b602082108103613d6957613d68613d0f565b5b50919050565b7f4e487b7100000000000000000000000000000000000000000000000000000000600052601160045260246000fd5b6000613da982613372565b9150613db483613372565b925082821015613dc757613dc6613d6f565b5b828203905092915050565b7f416363657373436f6e74726f6c3a2063616e206f6e6c792072656e6f756e636560008201527f20726f6c657320666f722073656c660000000000000000000000000000000000602082015250565b6000613e2e602f83613480565b9150613e3982613dd2565b604082019050919050565b60006020820190508181036000830152613e5d81613e21565b9050919050565b7f496e697469616c697a61626c653a20636f6e747261637420697320616c72656160008201527f647920696e697469616c697a6564000000000000000000000000000000000000602082015250565b6000613ec0602e83613480565b9150613ecb82613e64565b604082019050919050565b60006020820190508181036000830152613eef81613eb3565b9050919050565b600081519050613f05816135bb565b92915050565b600060208284031215613f2157613f206133b0565b5b6000613f2f84828501613ef6565b91505092915050565b6000819050919050565b6000613f5d613f58613f5384613f38565b61377e565b613747565b9050919050565b613f6d81613f42565b82525050565b6000602082019050613f886000830184613f64565b92915050565b7f5045524d49545f444541444c494e455f45585049524544000000000000000000600082015250565b6000613fc4601783613480565b9150613fcf82613f8e565b602082019050919050565b60006020820190508181036000830152613ff381613fb7565b9050919050565b600060c08201905061400f60008301896136dd565b61401c6020830188613ab7565b6140296040830187613ab7565b614036606083018661337c565b614043608083018561337c565b61405060a083018461337c565b979650505050505050565b600081905092915050565b7f1901000000000000000000000000000000000000000000000000000000000000600082015250565b600061409c60028361405b565b91506140a782614066565b600282019050919050565b6000819050919050565b6140cd6140c88261367a565b6140b2565b82525050565b60006140de8261408f565b91506140ea82856140bc565b6020820191506140fa82846140bc565b6020820191508190509392505050565b600060808201905061411f60008301876136dd565b61412c6020830186613754565b61413960408301856136dd565b61414660608301846136dd565b95945050505050565b7f494e56414c49445f5349474e4552000000000000000000000000000000000000600082015250565b6000614185600e83613480565b91506141908261414f565b602082019050919050565b600060208201905081810360008301526141b481614178565b9050919050565b600081905092915050565b60008190508160005260206000209050919050565b600081546141e881613d3e565b6141f281866141bb565b9450600182166000811461420d576001811461421e57614251565b60ff19831686528186019350614251565b614227856141c6565b60005b838110156142495781548189015260018201915060208101905061422a565b838801955050505b50505092915050565b600061426682846141db565b915081905092915050565b600060a08201905061428660008301886136dd565b61429360208301876136dd565b6142a060408301866136dd565b6142ad606083018561337c565b6142ba6080830184613ab7565b9695505050505050565b7f496e697469616c697a61626c653a20636f6e7472616374206973206e6f74206960008201527f6e697469616c697a696e67000000000000000000000000000000000000000000602082015250565b6000614320602b83613480565b915061432b826142c4565b604082019050919050565b6000602082019050818103600083015261434f81614313565b9050919050565b60008151905061436581613ae1565b92915050565b600060208284031215614381576143806133b0565b5b600061438f84828501614356565b91505092915050565b7f5a45524f5f534841524553000000000000000000000000000000000000000000600082015250565b60006143ce600b83613480565b91506143d982614398565b602082019050919050565b600060208201905081810360008301526143fd816143c1565b9050919050565b6000604082019050614419600083018561337c565b614426602083018461337c565b9392505050565b7f5a45524f5f415353455453000000000000000000000000000000000000000000600082015250565b6000614463600b83613480565b915061446e8261442d565b602082019050919050565b6000602082019050818103600083015261449281614456565b9050919050565b7f416363657373436f6e74726f6c3a206163636f756e7420000000000000000000600082015250565b60006144cf60178361405b565b91506144da82614499565b601782019050919050565b60006144f082613475565b6144fa818561405b565b935061450a818560208601613491565b80840191505092915050565b7f206973206d697373696e6720726f6c6520000000000000000000000000000000600082015250565b600061454c60118361405b565b915061455782614516565b601182019050919050565b600061456d826144c2565b915061457982856144e5565b91506145848261453f565b915061459082846144e5565b91508190509392505050565b60006060820190506145b16000830186613ab7565b6145be6020830185613ab7565b6145cb604083018461337c565b949350505050565b60006145de82613372565b91506145e983613372565b9250827fffffffffffffffffffffffffffffffffffffffffffffffffffffffffffffffff0382111561461e5761461d613d6f565b5b828201905092915050565b7f4e487b7100000000000000000000000000000000000000000000000000000000600052603260045260246000fd5b600060408201905061466d6000830185613ab7565b61467a602083018461337c565b9392505050565b600061468c82613372565b915061469783613372565b9250817fffffffffffffffffffffffffffffffffffffffffffffffffffffffffffffffff04831182151516156146d0576146cf613d6f565b5b828202905092915050565b60006146e682613372565b9150600082036146f9576146f8613d6f565b5b600182039050919050565b7f537472696e67733a20686578206c656e67746820696e73756666696369656e74600082015250565b600061473a602083613480565b915061474582614704565b602082019050919050565b600060208201905081810360008301526147698161472d565b9050919050565b7f4e487b7100000000000000000000000000000000000000000000000000000000600052603160045260246000fd5b6147a88161343f565b81146147b357600080fd5b50565b6000815190506147c58161479f565b92915050565b6000602082840312156147e1576147e06133b0565b5b60006147ef848285016147b6565b91505092915050565b7f5361666545524332303a204552433230206f7065726174696f6e20646964206e60008201527f6f74207375636365656400000000000000000000000000000000000000000000602082015250565b6000614854602a83613480565b915061485f826147f8565b604082019050919050565b6000602082019050818103600083015261488381614847565b9050919050565b7f416464726573733a20696e73756666696369656e742062616c616e636520666f60008201527f722063616c6c0000000000000000000000000000000000000000000000000000602082015250565b60006148e6602683613480565b91506148f18261488a565b604082019050919050565b60006020820190508181036000830152614915816148d9565b9050919050565b7f416464726573733a2063616c6c20746f206e6f6e2d636f6e7472616374000000600082015250565b6000614952601d83613480565b915061495d8261491c565b602082019050919050565b6000602082019050818103600083015261498181614945565b9050919050565b600081519050919050565b600061499e82614988565b6149a881856141bb565b93506149b8818560208601613491565b80840191505092915050565b60006149d08284614993565b91508190509291505056fea2646970667358221220f5731143d65bc35c4cbc14d139a7c2054978834cb53091a54a1c7274c4f66a1564736f6c634300080e0033",
  "devdoc": {
    "author": "Kresko",
    "kind": "dev",
    "methods": {
      "getRoleAdmin(bytes32)": {
        "details": "Returns the admin role that controls `role`. See {grantRole} and {revokeRole}. To change a role's admin, use {_setRoleAdmin}."
      },
      "getRoleMember(bytes32,uint256)": {
        "details": "Returns one of the accounts that have `role`. `index` must be a value between 0 and {getRoleMemberCount}, non-inclusive. Role bearers are not sorted in any particular way, and their ordering may change at any point. WARNING: When using {getRoleMember} and {getRoleMemberCount}, make sure you perform all queries on the same block. See the following https://forum.openzeppelin.com/t/iterating-over-elements-on-enumerableset-in-openzeppelin-contracts/2296[forum post] for more information."
      },
      "getRoleMemberCount(bytes32)": {
        "details": "Returns the number of accounts that have `role`. Can be used together with {getRoleMember} to enumerate all bearers of a role."
      },
      "grantRole(bytes32,address)": {
        "details": "Grants `role` to `account`. If `account` had not been already granted `role`, emits a {RoleGranted} event. Requirements: - the caller must have ``role``'s admin role. May emit a {RoleGranted} event."
      },
      "hasRole(bytes32,address)": {
        "details": "Returns `true` if `account` has been granted `role`."
      },
      "renounceRole(bytes32,address)": {
        "details": "Revokes `role` from the calling account. Roles are often managed via {grantRole} and {revokeRole}: this function's purpose is to provide a mechanism for accounts to lose their privileges if they are compromised (such as when a trusted device is misplaced). If the calling account had been revoked `role`, emits a {RoleRevoked} event. Requirements: - the caller must be `account`. May emit a {RoleRevoked} event."
      },
      "revokeRole(bytes32,address)": {
        "details": "Revokes `role` from `account`. If `account` had been granted `role`, emits a {RoleRevoked} event. Requirements: - the caller must have ``role``'s admin role. May emit a {RoleRevoked} event."
      },
      "totalAssets()": {
        "returns": {
          "_0": "Total supply for the underlying"
        }
      },
      "updateMetaData(string,string,uint8)": {
        "params": {
          "_name": "new name for the asset",
          "_symbol": "new symbol for the asset",
          "_version": "number that must be greater than latest emitted `Initialized` version"
        }
      }
    },
    "title": "Kresko Asset Wrapper - pro-rata representation of the underlying kresko asset. Based on ERC-4626 by Solmate (https://github.com/Rari-Capital/solmate/blob/main/src/mixins/ERC4626.sol)",
    "version": 1
  },
  "userdoc": {
    "kind": "user",
    "methods": {
      "supportsInterface(bytes4)": {
        "notice": "ERC-165 - WrappedKreskoAsset, ERC20 and ERC-165 itself"
      },
      "totalAssets()": {
        "notice": "Track the underlying amount"
      },
      "updateMetaData(string,string,uint8)": {
        "notice": "Updates metadata for the token in case eg. ticker change"
      }
    },
    "notice": "Main purpose of this token is to provide a stable balance for the underlying asset. This enables easier integration with external contracts.",
    "version": 1
  },
  "storageLayout": {
    "storage": [
      {
        "astId": 2028,
        "contract": "src/contracts/krAsset/WrappedKreskoAsset.sol:WrappedKreskoAsset",
        "label": "_initialized",
        "offset": 0,
        "slot": "0",
        "type": "t_uint8"
      },
      {
        "astId": 2031,
        "contract": "src/contracts/krAsset/WrappedKreskoAsset.sol:WrappedKreskoAsset",
        "label": "_initializing",
        "offset": 1,
        "slot": "0",
        "type": "t_bool"
      },
      {
        "astId": 29861,
        "contract": "src/contracts/krAsset/WrappedKreskoAsset.sol:WrappedKreskoAsset",
        "label": "name",
        "offset": 0,
        "slot": "1",
        "type": "t_string_storage"
      },
      {
        "astId": 29863,
        "contract": "src/contracts/krAsset/WrappedKreskoAsset.sol:WrappedKreskoAsset",
        "label": "symbol",
        "offset": 0,
        "slot": "2",
        "type": "t_string_storage"
      },
      {
        "astId": 29865,
        "contract": "src/contracts/krAsset/WrappedKreskoAsset.sol:WrappedKreskoAsset",
        "label": "decimals",
        "offset": 0,
        "slot": "3",
        "type": "t_uint8"
      },
      {
        "astId": 29867,
        "contract": "src/contracts/krAsset/WrappedKreskoAsset.sol:WrappedKreskoAsset",
        "label": "_totalSupply",
        "offset": 0,
        "slot": "4",
        "type": "t_uint256"
      },
      {
        "astId": 29871,
        "contract": "src/contracts/krAsset/WrappedKreskoAsset.sol:WrappedKreskoAsset",
        "label": "_balances",
        "offset": 0,
        "slot": "5",
        "type": "t_mapping(t_address,t_uint256)"
      },
      {
        "astId": 29877,
        "contract": "src/contracts/krAsset/WrappedKreskoAsset.sol:WrappedKreskoAsset",
        "label": "_allowances",
        "offset": 0,
        "slot": "6",
        "type": "t_mapping(t_address,t_mapping(t_address,t_uint256))"
      },
      {
        "astId": 29881,
        "contract": "src/contracts/krAsset/WrappedKreskoAsset.sol:WrappedKreskoAsset",
        "label": "nonces",
        "offset": 0,
        "slot": "7",
        "type": "t_mapping(t_address,t_uint256)"
      },
      {
        "astId": 2935,
        "contract": "src/contracts/krAsset/WrappedKreskoAsset.sol:WrappedKreskoAsset",
        "label": "__gap",
        "offset": 0,
        "slot": "8",
        "type": "t_array(t_uint256)50_storage"
      },
      {
        "astId": 3205,
        "contract": "src/contracts/krAsset/WrappedKreskoAsset.sol:WrappedKreskoAsset",
        "label": "__gap",
        "offset": 0,
        "slot": "58",
        "type": "t_array(t_uint256)50_storage"
      },
      {
        "astId": 1623,
        "contract": "src/contracts/krAsset/WrappedKreskoAsset.sol:WrappedKreskoAsset",
        "label": "_roles",
        "offset": 0,
        "slot": "108",
        "type": "t_mapping(t_bytes32,t_struct(RoleData)1618_storage)"
      },
      {
        "astId": 1922,
        "contract": "src/contracts/krAsset/WrappedKreskoAsset.sol:WrappedKreskoAsset",
        "label": "__gap",
        "offset": 0,
        "slot": "109",
        "type": "t_array(t_uint256)49_storage"
      },
      {
        "astId": 1472,
        "contract": "src/contracts/krAsset/WrappedKreskoAsset.sol:WrappedKreskoAsset",
        "label": "_roleMembers",
        "offset": 0,
        "slot": "158",
        "type": "t_mapping(t_bytes32,t_struct(AddressSet)3906_storage)"
      },
      {
        "astId": 1582,
        "contract": "src/contracts/krAsset/WrappedKreskoAsset.sol:WrappedKreskoAsset",
        "label": "__gap",
        "offset": 0,
        "slot": "159",
        "type": "t_array(t_uint256)49_storage"
      }
    ],
    "types": {
      "t_address": {
        "encoding": "inplace",
        "label": "address",
        "numberOfBytes": "20"
      },
      "t_array(t_bytes32)dyn_storage": {
        "base": "t_bytes32",
        "encoding": "dynamic_array",
        "label": "bytes32[]",
        "numberOfBytes": "32"
      },
      "t_array(t_uint256)49_storage": {
        "base": "t_uint256",
        "encoding": "inplace",
        "label": "uint256[49]",
        "numberOfBytes": "1568"
      },
      "t_array(t_uint256)50_storage": {
        "base": "t_uint256",
        "encoding": "inplace",
        "label": "uint256[50]",
        "numberOfBytes": "1600"
      },
      "t_bool": {
        "encoding": "inplace",
        "label": "bool",
        "numberOfBytes": "1"
      },
      "t_bytes32": {
        "encoding": "inplace",
        "label": "bytes32",
        "numberOfBytes": "32"
      },
      "t_mapping(t_address,t_bool)": {
        "encoding": "mapping",
        "key": "t_address",
        "label": "mapping(address => bool)",
        "numberOfBytes": "32",
        "value": "t_bool"
      },
      "t_mapping(t_address,t_mapping(t_address,t_uint256))": {
        "encoding": "mapping",
        "key": "t_address",
        "label": "mapping(address => mapping(address => uint256))",
        "numberOfBytes": "32",
        "value": "t_mapping(t_address,t_uint256)"
      },
      "t_mapping(t_address,t_uint256)": {
        "encoding": "mapping",
        "key": "t_address",
        "label": "mapping(address => uint256)",
        "numberOfBytes": "32",
        "value": "t_uint256"
      },
      "t_mapping(t_bytes32,t_struct(AddressSet)3906_storage)": {
        "encoding": "mapping",
        "key": "t_bytes32",
        "label": "mapping(bytes32 => struct EnumerableSetUpgradeable.AddressSet)",
        "numberOfBytes": "32",
        "value": "t_struct(AddressSet)3906_storage"
      },
      "t_mapping(t_bytes32,t_struct(RoleData)1618_storage)": {
        "encoding": "mapping",
        "key": "t_bytes32",
        "label": "mapping(bytes32 => struct AccessControlUpgradeable.RoleData)",
        "numberOfBytes": "32",
        "value": "t_struct(RoleData)1618_storage"
      },
      "t_mapping(t_bytes32,t_uint256)": {
        "encoding": "mapping",
        "key": "t_bytes32",
        "label": "mapping(bytes32 => uint256)",
        "numberOfBytes": "32",
        "value": "t_uint256"
      },
      "t_string_storage": {
        "encoding": "bytes",
        "label": "string",
        "numberOfBytes": "32"
      },
      "t_struct(AddressSet)3906_storage": {
        "encoding": "inplace",
        "label": "struct EnumerableSetUpgradeable.AddressSet",
        "members": [
          {
            "astId": 3905,
            "contract": "src/contracts/krAsset/WrappedKreskoAsset.sol:WrappedKreskoAsset",
            "label": "_inner",
            "offset": 0,
            "slot": "0",
            "type": "t_struct(Set)3605_storage"
          }
        ],
        "numberOfBytes": "64"
      },
      "t_struct(RoleData)1618_storage": {
        "encoding": "inplace",
        "label": "struct AccessControlUpgradeable.RoleData",
        "members": [
          {
            "astId": 1615,
            "contract": "src/contracts/krAsset/WrappedKreskoAsset.sol:WrappedKreskoAsset",
            "label": "members",
            "offset": 0,
            "slot": "0",
            "type": "t_mapping(t_address,t_bool)"
          },
          {
            "astId": 1617,
            "contract": "src/contracts/krAsset/WrappedKreskoAsset.sol:WrappedKreskoAsset",
            "label": "adminRole",
            "offset": 0,
            "slot": "1",
            "type": "t_bytes32"
          }
        ],
        "numberOfBytes": "64"
      },
      "t_struct(Set)3605_storage": {
        "encoding": "inplace",
        "label": "struct EnumerableSetUpgradeable.Set",
        "members": [
          {
            "astId": 3600,
            "contract": "src/contracts/krAsset/WrappedKreskoAsset.sol:WrappedKreskoAsset",
            "label": "_values",
            "offset": 0,
            "slot": "0",
            "type": "t_array(t_bytes32)dyn_storage"
          },
          {
            "astId": 3604,
            "contract": "src/contracts/krAsset/WrappedKreskoAsset.sol:WrappedKreskoAsset",
            "label": "_indexes",
            "offset": 0,
            "slot": "1",
            "type": "t_mapping(t_bytes32,t_uint256)"
          }
        ],
        "numberOfBytes": "64"
      },
      "t_uint256": {
        "encoding": "inplace",
        "label": "uint256",
        "numberOfBytes": "32"
      },
      "t_uint8": {
        "encoding": "inplace",
        "label": "uint8",
        "numberOfBytes": "1"
      }
    }
  }
}