{
  "address": "0xA83466Ea14b439Fd0C0f8af57e16E195b291269E",
  "abi": [
    {
      "inputs": [],
      "name": "acceptOwnership",
      "outputs": [],
      "stateMutability": "nonpayable",
      "type": "function"
    },
    {
      "inputs": [],
      "name": "initialized",
      "outputs": [
        {
          "internalType": "bool",
          "name": "initialized_",
          "type": "bool"
        }
      ],
      "stateMutability": "view",
      "type": "function"
    },
    {
      "inputs": [],
      "name": "owner",
      "outputs": [
        {
          "internalType": "address",
          "name": "owner_",
          "type": "address"
        }
      ],
      "stateMutability": "view",
      "type": "function"
    },
    {
      "inputs": [],
      "name": "pendingOwner",
      "outputs": [
        {
          "internalType": "address",
          "name": "pendingOwner_",
          "type": "address"
        }
      ],
      "stateMutability": "view",
      "type": "function"
    },
    {
      "inputs": [
        {
          "internalType": "address",
          "name": "_newOwner",
          "type": "address"
        }
      ],
      "name": "transferOwnership",
      "outputs": [],
      "stateMutability": "nonpayable",
      "type": "function"
    }
  ],
  "transactionHash": "0x07b0a2475b78f4002d989bb8662092cacecbb1be26d11bc16073660b0d5504b5",
  "args": [],
  "numDeployments": 1,
  "solcInputHash": "2796721ae8ad06f4477f7f47306878f4",
  "bytecode": "0x608080604052346100165761065f908161001c8239f35b600080fdfe60806040818152600436101561001457600080fd5b600091823560e01c908163158ef93e146104775750806379ba5097146103165780638da5cb5b146102a5578063e30c3978146102345763f2fde38b1461005957600080fd5b346102305760207ffffffffffffffffffffffffffffffffffffffffffffffffffffffffffffffffc360112610230576004359073ffffffffffffffffffffffffffffffffffffffff9081831680930361022c576100b4610571565b827f080f9836d135d84bdc1ee0b4214e5f2ae76516c41178c6f14a73685c9c3e5f0f54169282519183830183811067ffffffffffffffff8211176101ff57845260208084527f6b724469616d6f6e643a204d757374206265206469616d6f6e64206f776e65729084015261012b92911684146104d5565b82156101a257507f080f9836d135d84bdc1ee0b4214e5f2ae76516c41178c6f14a73685c9c3e5f10827fffffffffffffffffffffffff00000000000000000000000000000000000000008254161790557f23e1f881d1e797ea57a7247e53536f0bfc37c42e6645b3bdc4b1c9a0e0d8a1338380a380f35b606490517f08c379a000000000000000000000000000000000000000000000000000000000815260206004820152601d60248201527f44533a204f776e65722063616e6e6f7420626520302d616464726573730000006044820152fd5b6024887f4e487b710000000000000000000000000000000000000000000000000000000081526041600452fd5b8380fd5b5080fd5b503461023057817ffffffffffffffffffffffffffffffffffffffffffffffffffffffffffffffffc3601126102305760209073ffffffffffffffffffffffffffffffffffffffff7f080f9836d135d84bdc1ee0b4214e5f2ae76516c41178c6f14a73685c9c3e5f1054169051908152f35b503461023057817ffffffffffffffffffffffffffffffffffffffffffffffffffffffffffffffffc3601126102305760209073ffffffffffffffffffffffffffffffffffffffff7f080f9836d135d84bdc1ee0b4214e5f2ae76516c41178c6f14a73685c9c3e5f0f54169051908152f35b503461023057817ffffffffffffffffffffffffffffffffffffffffffffffffffffffffffffffffc3601126102305761034d610571565b7f080f9836d135d84bdc1ee0b4214e5f2ae76516c41178c6f14a73685c9c3e5f10805473ffffffffffffffffffffffffffffffffffffffff8082169316938051906060820182811067ffffffffffffffff8211176101ff578152602982527f6b724469616d6f6e643a204d7573742062652070656e64696e6720636f6e747260208301527f616374206f776e6572000000000000000000000000000000000000000000000090820152610402908585146104d5565b7fffffffffffffffffffffffff0000000000000000000000000000000000000000907f080f9836d135d84bdc1ee0b4214e5f2ae76516c41178c6f14a73685c9c3e5f0f84838254161790551690557f8be0079c531659141344cd1fd0a4f28419497f9722a3daafe3b4186f6b6457e08380a380f35b83903461023057817ffffffffffffffffffffffffffffffffffffffffffffffffffffffffffffffffc3601126102305760209060ff7f080f9836d135d84bdc1ee0b4214e5f2ae76516c41178c6f14a73685c9c3e5f0d541615158152f35b156104dd5750565b604051907f08c379a000000000000000000000000000000000000000000000000000000000825281602080600483015282519283602484015260005b84811061055a575050507fffffffffffffffffffffffffffffffffffffffffffffffffffffffffffffffe0601f836000604480968601015201168101030190fd5b818101830151868201604401528593508201610519565b3330036106255767ffffffffffffffff8036116105f6576040517fffffffffffffffffffffffffffffffffffffffffffffffffffffffffffffffe0603f81601f3601160116810191818310908311176105f65773ffffffffffffffffffffffffffffffffffffffff916040523681523660006020830137360160006020820152511690565b7f4e487b7100000000000000000000000000000000000000000000000000000000600052604160045260246000fd5b339056fea26469706673582212201b4b7d86d2fe3db1ffc0e99d9acfbd443191bea9223fc79252da3ca28919390464736f6c63430008130033",
  "devdoc": {
    "kind": "dev",
    "methods": {
      "initialized()": {
        "returns": {
          "initialized_": "bool True if the contract is initialized, false otherwise."
        }
      },
      "owner()": {
        "returns": {
          "owner_": "The address of the owner."
        }
      },
      "pendingOwner()": {
        "returns": {
          "pendingOwner_": "The address of the pending owner.*"
        }
      },
      "transferOwnership(address)": {
        "params": {
          "_newOwner": "address that is set as the pending new owner"
        }
      }
    },
    "version": 1
  },
  "userdoc": {
    "kind": "user",
    "methods": {
      "acceptOwnership()": {
        "notice": "Transfer the ownership to the new pending ownercaller must be the pending owneremits a {AuthEvent.OwnershipTransferred} event"
      },
      "initialized()": {
        "notice": "Check if the contract is initialized"
      },
      "owner()": {
        "notice": "Get the address of the owner"
      },
      "pendingOwner()": {
        "notice": "Get the address of pending owner"
      },
      "transferOwnership(address)": {
        "notice": "Initiate ownership transfer to a new addresscaller must be the current contract ownerthe new owner cannot be address(0)emits a {AuthEvent.PendingOwnershipTransfer} event"
      }
    },
    "version": 1
  },
  "storageLayout": {
    "storage": [],
    "types": null
  }
}