{
  "address": "0xc68b751a4ECBAC633a1E3b8F2FA1651DBd0dA801",
  "abi": [
    {
      "anonymous": false,
      "inputs": [
        {
          "indexed": true,
          "internalType": "address",
          "name": "owner",
          "type": "address"
        },
        {
          "indexed": true,
          "internalType": "address",
          "name": "spender",
          "type": "address"
        },
        {
          "indexed": false,
          "internalType": "uint256",
          "name": "amount",
          "type": "uint256"
        }
      ],
      "name": "Approval",
      "type": "event"
    },
    {
      "anonymous": false,
      "inputs": [
        {
          "indexed": false,
          "internalType": "uint8",
          "name": "version",
          "type": "uint8"
        }
      ],
      "name": "Initialized",
      "type": "event"
    },
    {
      "anonymous": false,
      "inputs": [
        {
          "indexed": false,
          "internalType": "uint256",
          "name": "newMaxOperators",
          "type": "uint256"
        }
      ],
      "name": "NewMaxOperators",
      "type": "event"
    },
    {
      "anonymous": false,
      "inputs": [
        {
          "indexed": true,
          "internalType": "address",
          "name": "newOperator",
          "type": "address"
        }
      ],
      "name": "NewOperator",
      "type": "event"
    },
    {
      "anonymous": false,
      "inputs": [
        {
          "indexed": true,
          "internalType": "address",
          "name": "pendingNewOperator",
          "type": "address"
        },
        {
          "indexed": false,
          "internalType": "uint256",
          "name": "unlockTimestamp",
          "type": "uint256"
        }
      ],
      "name": "NewOperatorInitialized",
      "type": "event"
    },
    {
      "anonymous": false,
      "inputs": [
        {
          "indexed": false,
          "internalType": "uint256",
          "name": "newPeriod",
          "type": "uint256"
        }
      ],
      "name": "NewPendingOperatorWaitPeriod",
      "type": "event"
    },
    {
      "anonymous": false,
      "inputs": [
        {
          "indexed": false,
          "internalType": "address",
          "name": "account",
          "type": "address"
        }
      ],
      "name": "Paused",
      "type": "event"
    },
    {
      "anonymous": false,
      "inputs": [
        {
          "indexed": true,
          "internalType": "bytes32",
          "name": "role",
          "type": "bytes32"
        },
        {
          "indexed": true,
          "internalType": "bytes32",
          "name": "previousAdminRole",
          "type": "bytes32"
        },
        {
          "indexed": true,
          "internalType": "bytes32",
          "name": "newAdminRole",
          "type": "bytes32"
        }
      ],
      "name": "RoleAdminChanged",
      "type": "event"
    },
    {
      "anonymous": false,
      "inputs": [
        {
          "indexed": true,
          "internalType": "bytes32",
          "name": "role",
          "type": "bytes32"
        },
        {
          "indexed": true,
          "internalType": "address",
          "name": "account",
          "type": "address"
        },
        {
          "indexed": true,
          "internalType": "address",
          "name": "sender",
          "type": "address"
        }
      ],
      "name": "RoleGranted",
      "type": "event"
    },
    {
      "anonymous": false,
      "inputs": [
        {
          "indexed": true,
          "internalType": "bytes32",
          "name": "role",
          "type": "bytes32"
        },
        {
          "indexed": true,
          "internalType": "address",
          "name": "account",
          "type": "address"
        },
        {
          "indexed": true,
          "internalType": "address",
          "name": "sender",
          "type": "address"
        }
      ],
      "name": "RoleRevoked",
      "type": "event"
    },
    {
      "anonymous": false,
      "inputs": [
        {
          "indexed": true,
          "internalType": "address",
          "name": "from",
          "type": "address"
        },
        {
          "indexed": true,
          "internalType": "address",
          "name": "to",
          "type": "address"
        },
        {
          "indexed": false,
          "internalType": "uint256",
          "name": "amount",
          "type": "uint256"
        }
      ],
      "name": "Transfer",
      "type": "event"
    },
    {
      "anonymous": false,
      "inputs": [
        {
          "indexed": false,
          "internalType": "address",
          "name": "account",
          "type": "address"
        }
      ],
      "name": "Unpaused",
      "type": "event"
    },
    {
      "inputs": [],
      "name": "DEFAULT_ADMIN_ROLE",
      "outputs": [
        {
          "internalType": "bytes32",
          "name": "",
          "type": "bytes32"
        }
      ],
      "stateMutability": "view",
      "type": "function"
    },
    {
      "inputs": [],
      "name": "DOMAIN_SEPARATOR",
      "outputs": [
        {
          "internalType": "bytes32",
          "name": "",
          "type": "bytes32"
        }
      ],
      "stateMutability": "view",
      "type": "function"
    },
    {
      "inputs": [],
      "name": "MINTER_ROLE",
      "outputs": [
        {
          "internalType": "bytes32",
          "name": "",
          "type": "bytes32"
        }
      ],
      "stateMutability": "view",
      "type": "function"
    },
    {
      "inputs": [],
      "name": "PAUSER_ROLE",
      "outputs": [
        {
          "internalType": "bytes32",
          "name": "",
          "type": "bytes32"
        }
      ],
      "stateMutability": "view",
      "type": "function"
    },
    {
      "inputs": [
        {
          "internalType": "address",
          "name": "_owner",
          "type": "address"
        },
        {
          "internalType": "address",
          "name": "_spender",
          "type": "address"
        }
      ],
      "name": "allowance",
      "outputs": [
        {
          "internalType": "uint256",
          "name": "",
          "type": "uint256"
        }
      ],
      "stateMutability": "view",
      "type": "function"
    },
    {
      "inputs": [
        {
          "internalType": "address",
          "name": "spender",
          "type": "address"
        },
        {
          "internalType": "uint256",
          "name": "amount",
          "type": "uint256"
        }
      ],
      "name": "approve",
      "outputs": [
        {
          "internalType": "bool",
          "name": "",
          "type": "bool"
        }
      ],
      "stateMutability": "nonpayable",
      "type": "function"
    },
    {
      "inputs": [
        {
          "internalType": "address",
          "name": "_account",
          "type": "address"
        }
      ],
      "name": "balanceOf",
      "outputs": [
        {
          "internalType": "uint256",
          "name": "",
          "type": "uint256"
        }
      ],
      "stateMutability": "view",
      "type": "function"
    },
    {
      "inputs": [
        {
          "internalType": "uint256",
          "name": "shares",
          "type": "uint256"
        }
      ],
      "name": "convertToAssets",
      "outputs": [
        {
          "internalType": "uint256",
          "name": "",
          "type": "uint256"
        }
      ],
      "stateMutability": "pure",
      "type": "function"
    },
    {
      "inputs": [
        {
          "internalType": "uint256",
          "name": "assets",
          "type": "uint256"
        }
      ],
      "name": "convertToShares",
      "outputs": [
        {
          "internalType": "uint256",
          "name": "",
          "type": "uint256"
        }
      ],
      "stateMutability": "pure",
      "type": "function"
    },
    {
      "inputs": [],
      "name": "decimals",
      "outputs": [
        {
          "internalType": "uint8",
          "name": "",
          "type": "uint8"
        }
      ],
      "stateMutability": "view",
      "type": "function"
    },
    {
      "inputs": [
        {
          "internalType": "uint256",
          "name": "_amount",
          "type": "uint256"
        },
        {
          "internalType": "address",
          "name": "_from",
          "type": "address"
        }
      ],
      "name": "destroy",
      "outputs": [
        {
          "internalType": "uint256",
          "name": "",
          "type": "uint256"
        }
      ],
      "stateMutability": "nonpayable",
      "type": "function"
    },
    {
      "inputs": [
        {
          "internalType": "bytes32",
          "name": "role",
          "type": "bytes32"
        }
      ],
      "name": "getRoleAdmin",
      "outputs": [
        {
          "internalType": "bytes32",
          "name": "",
          "type": "bytes32"
        }
      ],
      "stateMutability": "view",
      "type": "function"
    },
    {
      "inputs": [
        {
          "internalType": "bytes32",
          "name": "role",
          "type": "bytes32"
        },
        {
          "internalType": "uint256",
          "name": "index",
          "type": "uint256"
        }
      ],
      "name": "getRoleMember",
      "outputs": [
        {
          "internalType": "address",
          "name": "",
          "type": "address"
        }
      ],
      "stateMutability": "view",
      "type": "function"
    },
    {
      "inputs": [
        {
          "internalType": "bytes32",
          "name": "role",
          "type": "bytes32"
        }
      ],
      "name": "getRoleMemberCount",
      "outputs": [
        {
          "internalType": "uint256",
          "name": "",
          "type": "uint256"
        }
      ],
      "stateMutability": "view",
      "type": "function"
    },
    {
      "inputs": [
        {
          "internalType": "bytes32",
          "name": "_role",
          "type": "bytes32"
        },
        {
          "internalType": "address",
          "name": "_to",
          "type": "address"
        }
      ],
      "name": "grantRole",
      "outputs": [],
      "stateMutability": "nonpayable",
      "type": "function"
    },
    {
      "inputs": [
        {
          "internalType": "bytes32",
          "name": "role",
          "type": "bytes32"
        },
        {
          "internalType": "address",
          "name": "account",
          "type": "address"
        }
      ],
      "name": "hasRole",
      "outputs": [
        {
          "internalType": "bool",
          "name": "",
          "type": "bool"
        }
      ],
      "stateMutability": "view",
      "type": "function"
    },
    {
      "inputs": [
        {
          "internalType": "string",
          "name": "name_",
          "type": "string"
        },
        {
          "internalType": "string",
          "name": "symbol_",
          "type": "string"
        },
        {
          "internalType": "uint8",
          "name": "dec_",
          "type": "uint8"
        },
        {
          "internalType": "address",
          "name": "admin_",
          "type": "address"
        },
        {
          "internalType": "address",
          "name": "kresko_",
          "type": "address"
        }
      ],
      "name": "initialize",
      "outputs": [],
      "stateMutability": "nonpayable",
      "type": "function"
    },
    {
      "inputs": [
        {
          "internalType": "uint256",
          "name": "_amount",
          "type": "uint256"
        },
        {
          "internalType": "address",
          "name": "_to",
          "type": "address"
        }
      ],
      "name": "issue",
      "outputs": [
        {
          "internalType": "uint256",
          "name": "",
          "type": "uint256"
        }
      ],
      "stateMutability": "nonpayable",
      "type": "function"
    },
    {
      "inputs": [],
      "name": "kresko",
      "outputs": [
        {
          "internalType": "address",
          "name": "",
          "type": "address"
        }
      ],
      "stateMutability": "view",
      "type": "function"
    },
    {
      "inputs": [],
      "name": "maxOperators",
      "outputs": [
        {
          "internalType": "uint256",
          "name": "",
          "type": "uint256"
        }
      ],
      "stateMutability": "view",
      "type": "function"
    },
    {
      "inputs": [
        {
          "internalType": "address",
          "name": "_to",
          "type": "address"
        },
        {
          "internalType": "uint256",
          "name": "_amount",
          "type": "uint256"
        }
      ],
      "name": "mint",
      "outputs": [],
      "stateMutability": "nonpayable",
      "type": "function"
    },
    {
      "inputs": [],
      "name": "name",
      "outputs": [
        {
          "internalType": "string",
          "name": "",
          "type": "string"
        }
      ],
      "stateMutability": "view",
      "type": "function"
    },
    {
      "inputs": [
        {
          "internalType": "address",
          "name": "",
          "type": "address"
        }
      ],
      "name": "nonces",
      "outputs": [
        {
          "internalType": "uint256",
          "name": "",
          "type": "uint256"
        }
      ],
      "stateMutability": "view",
      "type": "function"
    },
    {
      "inputs": [],
      "name": "pause",
      "outputs": [],
      "stateMutability": "nonpayable",
      "type": "function"
    },
    {
      "inputs": [],
      "name": "paused",
      "outputs": [
        {
          "internalType": "bool",
          "name": "",
          "type": "bool"
        }
      ],
      "stateMutability": "view",
      "type": "function"
    },
    {
      "inputs": [],
      "name": "pendingOperator",
      "outputs": [
        {
          "internalType": "address",
          "name": "",
          "type": "address"
        }
      ],
      "stateMutability": "view",
      "type": "function"
    },
    {
      "inputs": [],
      "name": "pendingOperatorUnlockTime",
      "outputs": [
        {
          "internalType": "uint256",
          "name": "",
          "type": "uint256"
        }
      ],
      "stateMutability": "view",
      "type": "function"
    },
    {
      "inputs": [],
      "name": "pendingOperatorWaitPeriod",
      "outputs": [
        {
          "internalType": "uint256",
          "name": "",
          "type": "uint256"
        }
      ],
      "stateMutability": "view",
      "type": "function"
    },
    {
      "inputs": [
        {
          "internalType": "address",
          "name": "owner",
          "type": "address"
        },
        {
          "internalType": "address",
          "name": "spender",
          "type": "address"
        },
        {
          "internalType": "uint256",
          "name": "value",
          "type": "uint256"
        },
        {
          "internalType": "uint256",
          "name": "deadline",
          "type": "uint256"
        },
        {
          "internalType": "uint8",
          "name": "v",
          "type": "uint8"
        },
        {
          "internalType": "bytes32",
          "name": "r",
          "type": "bytes32"
        },
        {
          "internalType": "bytes32",
          "name": "s",
          "type": "bytes32"
        }
      ],
      "name": "permit",
      "outputs": [],
      "stateMutability": "nonpayable",
      "type": "function"
    },
    {
      "inputs": [
        {
          "internalType": "bytes32",
          "name": "role",
          "type": "bytes32"
        },
        {
          "internalType": "address",
          "name": "account",
          "type": "address"
        }
      ],
      "name": "renounceRole",
      "outputs": [],
      "stateMutability": "nonpayable",
      "type": "function"
    },
    {
      "inputs": [
        {
          "internalType": "bytes32",
          "name": "role",
          "type": "bytes32"
        },
        {
          "internalType": "address",
          "name": "account",
          "type": "address"
        }
      ],
      "name": "revokeRole",
      "outputs": [],
      "stateMutability": "nonpayable",
      "type": "function"
    },
    {
      "inputs": [
        {
          "internalType": "uint256",
          "name": "_maxOperators",
          "type": "uint256"
        }
      ],
      "name": "setMaxOperators",
      "outputs": [],
      "stateMutability": "nonpayable",
      "type": "function"
    },
    {
      "inputs": [
        {
          "internalType": "uint256",
          "name": "_newPeriod",
          "type": "uint256"
        }
      ],
      "name": "setPendingOperatorWaitPeriod",
      "outputs": [],
      "stateMutability": "nonpayable",
      "type": "function"
    },
    {
      "inputs": [
        {
          "internalType": "bytes4",
          "name": "interfaceId",
          "type": "bytes4"
        }
      ],
      "name": "supportsInterface",
      "outputs": [
        {
          "internalType": "bool",
          "name": "",
          "type": "bool"
        }
      ],
      "stateMutability": "view",
      "type": "function"
    },
    {
      "inputs": [],
      "name": "symbol",
      "outputs": [
        {
          "internalType": "string",
          "name": "",
          "type": "string"
        }
      ],
      "stateMutability": "view",
      "type": "function"
    },
    {
      "inputs": [],
      "name": "totalSupply",
      "outputs": [
        {
          "internalType": "uint256",
          "name": "",
          "type": "uint256"
        }
      ],
      "stateMutability": "view",
      "type": "function"
    },
    {
      "inputs": [
        {
          "internalType": "address",
          "name": "to",
          "type": "address"
        },
        {
          "internalType": "uint256",
          "name": "amount",
          "type": "uint256"
        }
      ],
      "name": "transfer",
      "outputs": [
        {
          "internalType": "bool",
          "name": "",
          "type": "bool"
        }
      ],
      "stateMutability": "nonpayable",
      "type": "function"
    },
    {
      "inputs": [
        {
          "internalType": "address",
          "name": "from",
          "type": "address"
        },
        {
          "internalType": "address",
          "name": "to",
          "type": "address"
        },
        {
          "internalType": "uint256",
          "name": "amount",
          "type": "uint256"
        }
      ],
      "name": "transferFrom",
      "outputs": [
        {
          "internalType": "bool",
          "name": "",
          "type": "bool"
        }
      ],
      "stateMutability": "nonpayable",
      "type": "function"
    },
    {
      "inputs": [],
      "name": "unpause",
      "outputs": [],
      "stateMutability": "nonpayable",
      "type": "function"
    }
  ],
  "transactionHash": "0x523bfb2b297b59e4559745f61fe59fc79142a5340fa102f79364c09173dda606",
  "args": [],
  "numDeployments": 1,
  "solcInputHash": "079388a8e8a9d8d86a3d39a30e78213e",
  "bytecode": "0x60c0604090808252346200036f5760009081549060ff8260081c16159081809262000361575b801562000348575b15620002c65750600160ff1992828285831617865562000297575b50466080528451918482549081841c8483169283156200028c575b60209788831085146200025f57889083895281890195928360001462000248575050506001146200020e575b5067ffffffffffffffff9490819003601f017fffffffffffffffffffffffffffffffffffffffffffffffffffffffffffffffe0168101919085831181841017620001e15782895251902090858101917f8b73c3c69bb8fe3d512ecc4cf759cc79239f7b179b0ffacaa9a75d522b39400f8352888201527fc89efdaa54c0f20c7adf612882df0950f5a951637e0307cdcb4c672f298b8bc660608201524660808201523060a082015260a0815260c081019481861090861117620001b45784885251902060a0526200017c575b84516137ba90816200037582396080518161353b015260a051816135620152f35b7f7f26b83ff96e1f2b6a682f133852f6798a09c465da95921460cefb38474024989361ff001981541690558152a1388080806200015b565b7f4e487b710000000000000000000000000000000000000000000000000000000087526041600452602487fd5b7f4e487b710000000000000000000000000000000000000000000000000000000088526041600452602488fd5b869150848852818820908589925b8284106200023157505050850101386200008f565b8054848a018601528994909301928791016200021c565b9194509150168352151560051b850101386200008f565b7f4e487b71000000000000000000000000000000000000000000000000000000008a52602260045260248afd5b90607f169062000063565b7fffffffffffffffffffffffffffffffffffffffffffffffffffffffffffff0000166101011784553862000048565b7f08c379a000000000000000000000000000000000000000000000000000000000815260206004820152602e60248201527f496e697469616c697a61626c653a20636f6e747261637420697320616c72656160448201527f647920696e697469616c697a65640000000000000000000000000000000000006064820152608490fd5b50303b1580156200002d5750600160ff8416146200002d565b50600160ff84161062000025565b600080fdfe608080604052600436101561001357600080fd5b60003560e01c90816301ffc9a7146124af57508063025a1fc01461247257806306b22e70146123c457806306fdde031461230357806307a2d13a146115bf578063095ea7b31461225e57806318160ddd1461222257806323b872dd146120ea578063248a9ca31461209d5780632f2ff15d14612053578063313ce567146120145780633644e51514611fdb57806336568abe14611ef75780633f4ba83a14611df657806340c10f1914611d9c5780635c975abb14611d5b57806370a0823114611cf657806375e1a8b114611cb95780637ecebe0014611c545780638456cb5914611b505780638dec3daa14611a885780639010d07c14611a175780639189cb4c146119ac57806391d148541461193357806395d89b4114611819578063a217fddf146117df578063a9059cbb146116be578063ac7e534e1461166b578063b4e854cc1461162e578063b696a6ad146115c4578063c6e6f592146115bf578063c820f14614610938578063ca15c873146108ee578063d505accf1461060e578063d5391393146105b5578063d547741f146102fa578063d77e128c146102a7578063dd62ed3e1461022a5763e63ab1e9146101cc57600080fd5b346102255760007ffffffffffffffffffffffffffffffffffffffffffffffffffffffffffffffffc3601126102255760206040517f65d7a28e3265b37a6474929f336521b332c1681b933f6cb9f3376673440d862a8152f35b600080fd5b346102255760407ffffffffffffffffffffffffffffffffffffffffffffffffffffffffffffffffc360112610225576102616127ec565b61026961280f565b9073ffffffffffffffffffffffffffffffffffffffff8091166000526006602052604060002091166000526020526020604060002054604051908152f35b346102255760007ffffffffffffffffffffffffffffffffffffffffffffffffffffffffffffffffc36011261022557602073ffffffffffffffffffffffffffffffffffffffff6101065416604051908152f35b346102255760407ffffffffffffffffffffffffffffffffffffffffffffffffffffffffffffffffc3601126102255760043561033461280f565b81600052602091609e83526001806040600020015480600052604060002033600052855260ff60406000205416156103725761037084846128a7565b005b84925061037e33612d8a565b6040519161038b836126e7565b604283528483019360603686378351156105865760308553835181101561058657607860218501536041905b8082116104e857505061048b5761048793610411936104559361044660489460405197857f416363657373436f6e74726f6c3a206163636f756e74200000000000000000008a978801528251928391603789019101612744565b8401917f206973206d697373696e6720726f6c6520000000000000000000000000000000603784015251809386840190612744565b01036028810184520182612703565b6040519182917f08c379a000000000000000000000000000000000000000000000000000000000835260048301612767565b0390fd5b606484604051907f08c379a000000000000000000000000000000000000000000000000000000000825280600483015260248201527f537472696e67733a20686578206c656e67746820696e73756666696369656e746044820152fd5b9091600f81166010811015610586577f3031323334353637383961626364656600000000000000000000000000000000901a6105248487612d79565b5360041c918015610557577fffffffffffffffffffffffffffffffffffffffffffffffffffffffffffffffff01906103b7565b7f4e487b7100000000000000000000000000000000000000000000000000000000600052601160045260246000fd5b7f4e487b7100000000000000000000000000000000000000000000000000000000600052603260045260246000fd5b346102255760007ffffffffffffffffffffffffffffffffffffffffffffffffffffffffffffffffc3601126102255760206040517f9f2df0fed2c77648de5860a4cc508cd0818c85b8b8a1ab4ceeef8d981c8956a68152f35b346102255760e07ffffffffffffffffffffffffffffffffffffffffffffffffffffffffffffffffc360112610225576106456127ec565b61064d61280f565b90604435606435906084359260ff84168094036102255742831061089057610673613536565b9373ffffffffffffffffffffffffffffffffffffffff80921694856000526020946007865260406000209788549860018a0190556040519185888401927f6e71edae12b1b97f4d1f60370fef10105fa2faae0126114a169c64845d6126c984528a604086015216998a606085015287608085015260a084015260c083015260c0825260e082019167ffffffffffffffff91818410838511176108615783604052815190206101008201947f19010000000000000000000000000000000000000000000000000000000000008652610102830152610122820152604283526101608101918383109083111761086157879460009460809484604052519020835261018082015260a4356101a08201526101c060c43591015282805260015afa1561085557600051168015158061084c575b156107ee57907f8c5be1e5ebec7d5bd14f71427d1e84f3dd0314c0f7b2291e5b200ac8c7c3b925929160005260068252604060002085600052825280604060002055604051908152a3005b606483604051907f08c379a00000000000000000000000000000000000000000000000000000000082526004820152600e60248201527f494e56414c49445f5349474e45520000000000000000000000000000000000006044820152fd5b508381146107a3565b6040513d6000823e3d90fd5b7f4e487b7100000000000000000000000000000000000000000000000000000000600052604160045260246000fd5b60646040517f08c379a000000000000000000000000000000000000000000000000000000000815260206004820152601760248201527f5045524d49545f444541444c494e455f455850495245440000000000000000006044820152fd5b346102255760207ffffffffffffffffffffffffffffffffffffffffffffffffffffffffffffffffc3601126102255760043560005260d06020526020604060002054604051908152f35b346102255760a07ffffffffffffffffffffffffffffffffffffffffffffffffffffffffffffffffc3601126102255760043567ffffffffffffffff811161022557610987903690600401612832565b60243567ffffffffffffffff8111610225576109a7903690600401612832565b9060443560ff811681036102255773ffffffffffffffffffffffffffffffffffffffff9081606435166064350361022557816084351660843503610225576000549260ff8460081c1615938480956115b2575b801561159b575b15611517578460017fffffffffffffffffffffffffffffffffffffffffffffffffffffffffffffff008316176000556114e8575b50610a7b6084353b151560405190610a4c826126cb565b600382527f383034000000000000000000000000000000000000000000000000000000000060208301526130c3565b610ac06064353b151560405190610a91826126cb565b600382527f383035000000000000000000000000000000000000000000000000000000000060208301526130c3565b80519067ffffffffffffffff8211610861578190610adf600154612678565b601f811161143e575b50602090601f831160011461135a5760009261134f575b50507fffffffffffffffffffffffffffffffffffffffffffffffffffffffffffffffff8260011b9260031b1c1916176001555b835167ffffffffffffffff811161086157610b4e600254612678565b601f81116112b0575b506020601f82116001146111cb57819060ff9495966000926111c0575b50507fffffffffffffffffffffffffffffffffffffffffffffffffffffffffffffffff8260011b9260031b1c1916176002555b167fffffffffffffffffffffffffffffffffffffffffffffffffffffffffffffff0060035416176003556002610104556103846101025560008052609e806020526040600020826064351660005260205260ff6040600020541615611151575b6000805260d0602081905291610c4160643582167f790dca8aa28f25f1915553dd78bb1fae41686aabbb62ea6516ab2cafb7d258996131ed565b507fb9dacdf02281f2e98ddbadaaf44db270b3d5a916342df47c59f77937a6bcd5d880600052826020526040600020826064351660005260205260ff60406000205416156110da575b60005282602052610ca3816064351660406000206131ed565b5061010681608435167fffffffffffffffffffffffff0000000000000000000000000000000000000000825416179055610cde608435613101565b7f9f2df0fed2c77648de5860a4cc508cd0818c85b8b8a1ab4ceeef8d981c8956a680600052826020526040600020826084351660005260205260ff6040600020541615611063575b8060005283602052610d40826084351660406000206131ed565b50610da37f65d7a28e3265b37a6474929f336521b332c1681b933f6cb9f3376673440d862a9283600052846020526040600020816084351660005260205260ff6040600020541615610fec575b83600052856020526084351660406000206131ed565b50806000528260205260406000203360005260205260ff60406000205416610f80575b60005282602052610ddb336040600020612f35565b50806000528160205260406000203360005260205260ff60406000205416610f14575b60005281602052610e13336040600020612f35565b50600080528060205260406000203360005260205260ff60406000205416610ea8575b5060008052602052610e4c336040600020612f35565b50610e5357005b7fffffffffffffffffffffffffffffffffffffffffffffffffffffffffffff00ff600054166000557f7f26b83ff96e1f2b6a682f133852f6798a09c465da95921460cefb3847402498602060405160018152a1005b6000805260205260406000203360005260205260406000207fffffffffffffffffffffffffffffffffffffffffffffffffffffffffffffff008154169055333360007ff6391f5c32d9c69d2a47ea670b442974b53935d1edc7fd64eb21e047a839171b8180a482610e36565b806000528160205260406000203360005260205260406000207fffffffffffffffffffffffffffffffffffffffffffffffffffffffffffffff0081541690553333827ff6391f5c32d9c69d2a47ea670b442974b53935d1edc7fd64eb21e047a839171b600080a4610dfe565b806000528260205260406000203360005260205260406000207fffffffffffffffffffffffffffffffffffffffffffffffffffffffffffffff0081541690553333827ff6391f5c32d9c69d2a47ea670b442974b53935d1edc7fd64eb21e047a839171b600080a4610dc6565b836000528460205260406000208160843516600052602052604060002060017fffffffffffffffffffffffffffffffffffffffffffffffffffffffffffffff00825416179055338160843516857f2f8788117e7eff1d82e926ec794901d17c78024a50270940304540a733656f0d600080a4610d8d565b806000528260205260406000208260843516600052602052604060002060017fffffffffffffffffffffffffffffffffffffffffffffffffffffffffffffff00825416179055338260843516827f2f8788117e7eff1d82e926ec794901d17c78024a50270940304540a733656f0d600080a4610d26565b806000528260205260406000208260643516600052602052604060002060017fffffffffffffffffffffffffffffffffffffffffffffffffffffffffffffff00825416179055338260643516827f2f8788117e7eff1d82e926ec794901d17c78024a50270940304540a733656f0d600080a4610c8a565b60008080526020828152604080832060643586168085529252822080547fffffffffffffffffffffffffffffffffffffffffffffffffffffffffffffff0016600117905533917f2f8788117e7eff1d82e926ec794901d17c78024a50270940304540a733656f0d8180a4610c07565b015190508680610b74565b60026000527f405787fa12a823e0f2b7631cc41b3ba8828b3321ca811111fa75cd3aa3bb5ace9560005b7fffffffffffffffffffffffffffffffffffffffffffffffffffffffffffffffe084168110611298575095829160ff959697837fffffffffffffffffffffffffffffffffffffffffffffffffffffffffffffffe06001961610611261575b505050811b01600255610ba7565b01517fffffffffffffffffffffffffffffffffffffffffffffffffffffffffffffffff60f88460031b161c19169055868080611253565b828201518855600190970196602092830192016111f5565b6002600052601f820160051c7f405787fa12a823e0f2b7631cc41b3ba8828b3321ca811111fa75cd3aa3bb5ace0160208310611328575b601f820160051c7f405787fa12a823e0f2b7631cc41b3ba8828b3321ca811111fa75cd3aa3bb5ace01811061131c5750610b57565b600081556001016112e7565b507f405787fa12a823e0f2b7631cc41b3ba8828b3321ca811111fa75cd3aa3bb5ace6112e7565b015190508680610aff565b925060016000527fb10e2d527612073b26eecdfd717e6a320cf44b4afac2b0732d9fcbe2b7fa0cf6906000935b7fffffffffffffffffffffffffffffffffffffffffffffffffffffffffffffffe0841685106114235760019450837fffffffffffffffffffffffffffffffffffffffffffffffffffffffffffffffe08116106113ec575b505050811b01600155610b32565b01517fffffffffffffffffffffffffffffffffffffffffffffffffffffffffffffffff60f88460031b161c191690558680806113de565b81810151835560209485019460019093019290910190611387565b9091506001600052601f830160051c7fb10e2d527612073b26eecdfd717e6a320cf44b4afac2b0732d9fcbe2b7fa0cf601602084106114c1575b908392915b601f820160051c7fb10e2d527612073b26eecdfd717e6a320cf44b4afac2b0732d9fcbe2b7fa0cf60181106114b25750610ae8565b6000815584935060010161147d565b507fb10e2d527612073b26eecdfd717e6a320cf44b4afac2b0732d9fcbe2b7fa0cf6611478565b7fffffffffffffffffffffffffffffffffffffffffffffffffffffffffffff0000166101011760005585610a35565b60846040517f08c379a000000000000000000000000000000000000000000000000000000000815260206004820152602e60248201527f496e697469616c697a61626c653a20636f6e747261637420697320616c72656160448201527f647920696e697469616c697a65640000000000000000000000000000000000006064820152fd5b50303b158015610a015750600160ff821614610a01565b50600160ff8216106109fa565b6127b1565b346102255760407ffffffffffffffffffffffffffffffffffffffffffffffffffffffffffffffffc3601126102255760206004356116268161160461280f565b611619333b1515611613613279565b906130c3565b611621612bf5565b613714565b604051908152f35b346102255760007ffffffffffffffffffffffffffffffffffffffffffffffffffffffffffffffffc36011261022557602061010354604051908152f35b346102255760007ffffffffffffffffffffffffffffffffffffffffffffffffffffffffffffffffc36011261022557602073ffffffffffffffffffffffffffffffffffffffff6101055416604051908152f35b346102255760407ffffffffffffffffffffffffffffffffffffffffffffffffffffffffffffffffc360112610225576116f56127ec565b6024359060ff603a54166117815773ffffffffffffffffffffffffffffffffffffffff903360005260056020526040600020611732848254612f10565b9055169081600052600560205260406000208181540190556040519081527fddf252ad1be2c89b69c2b068fc378daa952ba7f163c4a11628f55a4df523b3ef60203392a3602060405160018152f35b60646040517f08c379a000000000000000000000000000000000000000000000000000000000815260206004820152600c60248201527f4b4953533a2050617573656400000000000000000000000000000000000000006044820152fd5b346102255760007ffffffffffffffffffffffffffffffffffffffffffffffffffffffffffffffffc36011261022557602060405160008152f35b346102255760007ffffffffffffffffffffffffffffffffffffffffffffffffffffffffffffffffc36011261022557604051600060025461185981612678565b808452906001908181169081156118ee5750600114611893575b61188f8461188381860382612703565b60405191829182612767565b0390f35b6002600090815292507f405787fa12a823e0f2b7631cc41b3ba8828b3321ca811111fa75cd3aa3bb5ace5b8284106118d657505050810160200161188382611873565b805460208587018101919091529093019281016118be565b7fffffffffffffffffffffffffffffffffffffffffffffffffffffffffffffff001660208087019190915292151560051b850190920192506118839150839050611873565b346102255760407ffffffffffffffffffffffffffffffffffffffffffffffffffffffffffffffffc3601126102255761196a61280f565b600435600052609e60205273ffffffffffffffffffffffffffffffffffffffff60406000209116600052602052602060ff604060002054166040519015158152f35b346102255760207ffffffffffffffffffffffffffffffffffffffffffffffffffffffffffffffffc360112610225577fd6c519a9f18a7ef0183f3bee1f48840de0b5e4f1f6a27a89abd46e7a242d89f86020600435611a0961295c565b8061010455604051908152a1005b346102255760407ffffffffffffffffffffffffffffffffffffffffffffffffffffffffffffffffc3601126102255760043560005260d0602052602073ffffffffffffffffffffffffffffffffffffffff611a786024356040600020612f1d565b9190546040519260031b1c168152f35b346102255760407ffffffffffffffffffffffffffffffffffffffffffffffffffffffffffffffffc36011261022557600435611ac261280f565b90611ad2333b1515611613613279565b611ada612bf5565b60ff603a541661178157600073ffffffffffffffffffffffffffffffffffffffff602093168082526005845260408220611b15848254612f10565b905582600454036004557fddf252ad1be2c89b69c2b068fc378daa952ba7f163c4a11628f55a4df523b3ef84604051858152a3604051908152f35b346102255760007ffffffffffffffffffffffffffffffffffffffffffffffffffffffffffffffffc36011261022557611b8e333b1515611613613279565b611b9661295c565b603a5460ff8116611bf6577fffffffffffffffffffffffffffffffffffffffffffffffffffffffffffffff006001911617603a557f62e78cea01bee320cd4e420270b5ea74000d11b0c9f74754ebdbfc544b05a2586020604051338152a1005b60646040517f08c379a000000000000000000000000000000000000000000000000000000000815260206004820152601060248201527f5061757361626c653a20706175736564000000000000000000000000000000006044820152fd5b346102255760207ffffffffffffffffffffffffffffffffffffffffffffffffffffffffffffffffc3601126102255773ffffffffffffffffffffffffffffffffffffffff611ca06127ec565b1660005260076020526020604060002054604051908152f35b346102255760007ffffffffffffffffffffffffffffffffffffffffffffffffffffffffffffffffc36011261022557602061010454604051908152f35b346102255760207ffffffffffffffffffffffffffffffffffffffffffffffffffffffffffffffffc3601126102255773ffffffffffffffffffffffffffffffffffffffff611d426127ec565b1660005260056020526020604060002054604051908152f35b346102255760007ffffffffffffffffffffffffffffffffffffffffffffffffffffffffffffffffc36011261022557602060ff603a54166040519015158152f35b346102255760407ffffffffffffffffffffffffffffffffffffffffffffffffffffffffffffffffc36011261022557610370611dd66127ec565b611de5333b1515611613613279565b611ded612bf5565b60243590613714565b346102255760007ffffffffffffffffffffffffffffffffffffffffffffffffffffffffffffffffc36011261022557611e34333b1515611613613279565b611e3c61295c565b603a5460ff811615611e99577fffffffffffffffffffffffffffffffffffffffffffffffffffffffffffffff0016603a557f5db9ee0a495bf2e6ff9c91a7834c1ba4fdd244a5e8aa4e537bd38aeae4b073aa6020604051338152a1005b60646040517f08c379a000000000000000000000000000000000000000000000000000000000815260206004820152601460248201527f5061757361626c653a206e6f74207061757365640000000000000000000000006044820152fd5b346102255760407ffffffffffffffffffffffffffffffffffffffffffffffffffffffffffffffffc36011261022557611f2e61280f565b3373ffffffffffffffffffffffffffffffffffffffff821603611f5757610370906004356128a7565b60846040517f08c379a000000000000000000000000000000000000000000000000000000000815260206004820152602f60248201527f416363657373436f6e74726f6c3a2063616e206f6e6c792072656e6f756e636560448201527f20726f6c657320666f722073656c6600000000000000000000000000000000006064820152fd5b346102255760007ffffffffffffffffffffffffffffffffffffffffffffffffffffffffffffffffc360112610225576020611626613536565b346102255760007ffffffffffffffffffffffffffffffffffffffffffffffffffffffffffffffffc36011261022557602060ff60035416604051908152f35b346102255760407ffffffffffffffffffffffffffffffffffffffffffffffffffffffffffffffffc3601126102255761037061208d61280f565b61209561295c565b6004356132b2565b346102255760207ffffffffffffffffffffffffffffffffffffffffffffffffffffffffffffffffc36011261022557600435600052609e6020526020600160406000200154604051908152f35b346102255760607ffffffffffffffffffffffffffffffffffffffffffffffffffffffffffffffffc360112610225576121216127ec565b61212961280f565b6044359060ff603a5416611781577fddf252ad1be2c89b69c2b068fc378daa952ba7f163c4a11628f55a4df523b3ef73ffffffffffffffffffffffffffffffffffffffff80941691826000526020948591600683526040600020336000528352604060002054867fffffffffffffffffffffffffffffffffffffffffffffffffffffffffffffffff82036121f9575b5050846000526005835260406000206121d2878254612f10565b9055169384600052600582526040600020818154019055604051908152a360405160018152f35b61220291612f10565b8560005260068452604060002033600052845260406000205587866121b8565b346102255760007ffffffffffffffffffffffffffffffffffffffffffffffffffffffffffffffffc360112610225576020600454604051908152f35b346102255760407ffffffffffffffffffffffffffffffffffffffffffffffffffffffffffffffffc360112610225576122956127ec565b60243533600052600660205273ffffffffffffffffffffffffffffffffffffffff604060002092169182600052602052806040600020556040519081527f8c5be1e5ebec7d5bd14f71427d1e84f3dd0314c0f7b2291e5b200ac8c7c3b92560203392a3602060405160018152f35b346102255760007ffffffffffffffffffffffffffffffffffffffffffffffffffffffffffffffffc360112610225576040516000600180549061234582612678565b808552918181169081156118ee575060011461236b5761188f8461188381860382612703565b600081815292507fb10e2d527612073b26eecdfd717e6a320cf44b4afac2b0732d9fcbe2b7fa0cf65b8284106123ac57505050810160200161188382611873565b80546020858701810191909152909301928101612394565b346102255760207ffffffffffffffffffffffffffffffffffffffffffffffffffffffffffffffffc360112610225577f2bad6e075a588960f394ac13285a7e6ab9dedc5e55d5a1ccad37d9c28770c3a7602060043561242161295c565b612464604051612430816126cb565b600381527f3830360000000000000000000000000000000000000000000000000000000000848201526103848310156130c3565b8061010255604051908152a1005b346102255760007ffffffffffffffffffffffffffffffffffffffffffffffffffffffffffffffffc36011261022557602061010254604051908152f35b346102255760207ffffffffffffffffffffffffffffffffffffffffffffffffffffffffffffffffc36011261022557600435907fffffffff0000000000000000000000000000000000000000000000000000000091828116809103610225576020928114159081612522575b5015158152f35b7f15c54c2f0000000000000000000000000000000000000000000000000000000081149150811561264e575b8115612624575b81156125fa575b811561256a575b508361251b565b7f5a05180f0000000000000000000000000000000000000000000000000000000081149150811561259d575b5083612563565b7f7965db0b000000000000000000000000000000000000000000000000000000008114915081156125d0575b5083612596565b7f01ffc9a700000000000000000000000000000000000000000000000000000000915014836125c9565b7f36372b07000000000000000000000000000000000000000000000000000000008114915061255c565b7f01ffc9a70000000000000000000000000000000000000000000000000000000081149150612555565b7ffa3ebfaf000000000000000000000000000000000000000000000000000000008114915061254e565b90600182811c921680156126c1575b602083101461269257565b7f4e487b7100000000000000000000000000000000000000000000000000000000600052602260045260246000fd5b91607f1691612687565b6040810190811067ffffffffffffffff82111761086157604052565b6080810190811067ffffffffffffffff82111761086157604052565b90601f7fffffffffffffffffffffffffffffffffffffffffffffffffffffffffffffffe0910116810190811067ffffffffffffffff82111761086157604052565b60005b8381106127575750506000910152565b8181015183820152602001612747565b7fffffffffffffffffffffffffffffffffffffffffffffffffffffffffffffffe0601f604093602084526127aa8151809281602088015260208888019101612744565b0116010190565b346102255760207ffffffffffffffffffffffffffffffffffffffffffffffffffffffffffffffffc3601126102255760206040516004358152f35b6004359073ffffffffffffffffffffffffffffffffffffffff8216820361022557565b6024359073ffffffffffffffffffffffffffffffffffffffff8216820361022557565b81601f820112156102255780359067ffffffffffffffff8211610861576040519261288560207fffffffffffffffffffffffffffffffffffffffffffffffffffffffffffffffe0601f8601160185612703565b8284526020838301011161022557816000926020809301838601378301015290565b9060406128f392600090808252609e60205273ffffffffffffffffffffffffffffffffffffffff83832094169384835260205260ff83832054166128f6575b815260d060205220612f35565b50565b808252609e6020528282208483526020528282207fffffffffffffffffffffffffffffffffffffffffffffffffffffffffffffff0081541690553384827ff6391f5c32d9c69d2a47ea670b442974b53935d1edc7fd64eb21e047a839171b8580a46128e6565b3360009081527f55cb91e06e1a08d4acea80509ef894a2ec83a28aeefa145f852f6a431c399cee60209081526040808320549092907fb9dacdf02281f2e98ddbadaaf44db270b3d5a916342df47c59f77937a6bcd5d89060ff16156129c15750505050565b6129ca33612d8a565b8451916129d6836126e7565b60428352848301936060368637835115612bc85760308553835190600191821015612bc85790607860218601536041915b818311612afd57505050612aa157610411938593612a7193612a62604894610487995198857f416363657373436f6e74726f6c3a206163636f756e74200000000000000000008b978801528251928391603789019101612744565b01036028810185520183612703565b519182917f08c379a000000000000000000000000000000000000000000000000000000000835260048301612767565b6064848651907f08c379a000000000000000000000000000000000000000000000000000000000825280600483015260248201527f537472696e67733a20686578206c656e67746820696e73756666696369656e746044820152fd5b909192600f81166010811015612b9b577f3031323334353637383961626364656600000000000000000000000000000000901a612b3a8588612d79565b5360041c928015612b6e577fffffffffffffffffffffffffffffffffffffffffffffffffffffffffffffffff019190612a07565b6024827f4e487b710000000000000000000000000000000000000000000000000000000081526011600452fd5b6024837f4e487b710000000000000000000000000000000000000000000000000000000081526032600452fd5b807f4e487b7100000000000000000000000000000000000000000000000000000000602492526032600452fd5b3360009081527faac3c5968714020ae11c5c74affd9db1357bbbceaffea83e4d346346da7d8bf660209081526040808320549092907f112e48a576fb3a75acc75d9fcf6e0bc670b27b1dbcd2463502e10e68cf57d6fd9060ff1615612c5a5750505050565b612c6333612d8a565b845191612c6f836126e7565b60428352848301936060368637835115612bc85760308553835190600191821015612bc85790607860218601536041915b818311612cfb57505050612aa157610411938593612a7193612a62604894610487995198857f416363657373436f6e74726f6c3a206163636f756e74200000000000000000008b978801528251928391603789019101612744565b909192600f81166010811015612b9b577f3031323334353637383961626364656600000000000000000000000000000000901a612d388588612d79565b5360041c928015612b6e577fffffffffffffffffffffffffffffffffffffffffffffffffffffffffffffffff019190612ca0565b9190820180921161055757565b908151811015610586570160200190565b604051906060820182811067ffffffffffffffff82111761086157604052602a82526020820160403682378251156105865760309053815160019081101561058657607860218401536029905b808211612e45575050612de75790565b60646040517f08c379a000000000000000000000000000000000000000000000000000000000815260206004820152602060248201527f537472696e67733a20686578206c656e67746820696e73756666696369656e746044820152fd5b9091600f81166010811015612ee2577f3031323334353637383961626364656600000000000000000000000000000000901a612e818486612d79565b5360041c918015612eb4577fffffffffffffffffffffffffffffffffffffffffffffffffffffffffffffffff0190612dd7565b602460007f4e487b710000000000000000000000000000000000000000000000000000000081526011600452fd5b602460007f4e487b710000000000000000000000000000000000000000000000000000000081526032600452fd5b9190820391821161055757565b80548210156105865760005260206000200190600090565b906001820190600092818452826020526040842054908115156000146130bc577fffffffffffffffffffffffffffffffffffffffffffffffffffffffffffffffff9182810181811161308f5782549084820191821161306257808203612ff8575b50505080548015612fcb57820191612fae8383612f1d565b909182549160031b1b191690555582526020526040812055600190565b6024867f4e487b710000000000000000000000000000000000000000000000000000000081526031600452fd5b61304d6130086130189386612f1d565b90549060031b1c92839286612f1d565b81939154907fffffffffffffffffffffffffffffffffffffffffffffffffffffffffffffffff9060031b92831b921b19161790565b90558652846020526040862055388080612f96565b6024887f4e487b710000000000000000000000000000000000000000000000000000000081526011600452fd5b6024877f4e487b710000000000000000000000000000000000000000000000000000000081526011600452fd5b5050505090565b156130cb5750565b610487906040519182917f08c379a000000000000000000000000000000000000000000000000000000000835260048301612767565b73ffffffffffffffffffffffffffffffffffffffff1660008181527faac3c5968714020ae11c5c74affd9db1357bbbceaffea83e4d346346da7d8bf66020526040808220546128f39392907f112e48a576fb3a75acc75d9fcf6e0bc670b27b1dbcd2463502e10e68cf57d6fd9060ff1615613184575b815260d0602052206131ed565b808252609e60205282822084835260205282822060017fffffffffffffffffffffffffffffffffffffffffffffffffffffffffffffff008254161790553384827f2f8788117e7eff1d82e926ec794901d17c78024a50270940304540a733656f0d8580a4613177565b9190600183016000908282528060205260408220541560001461327357845494680100000000000000008610156132465783613236613018886001604098999a01855584612f1d565b9055549382526020522055600190565b6024837f4e487b710000000000000000000000000000000000000000000000000000000081526041600452fd5b50925050565b60405190613286826126cb565b600382527f38303200000000000000000000000000000000000000000000000000000000006020830152565b7f112e48a576fb3a75acc75d9fcf6e0bc670b27b1dbcd2463502e10e68cf57d6fd908181036134e8575061331f823b1515604051906132f0826126cb565b600382527f383033000000000000000000000000000000000000000000000000000000000060208301526130c3565b6101058054909273ffffffffffffffffffffffffffffffffffffffff918216156133e757507fffffffffffffffffffffffff000000000000000000000000000000000000000091506133ac610103546040519061337b826126cb565b600382527f3830300000000000000000000000000000000000000000000000000000000000602083015242116130c3565b6133b881845416613101565b82549081167fda12ee837e6978172aaf54b16145ffe08414fd8710092ef033c71b8eb6ec189a600080a2169055565b6101038054909390156134af57917f298e4e2fc26cd2a88f744ccefe049db51c8315ee831a0b84af6aef760f09d12b939160209360005260d0845261346c6040600020546101045410156040519061343e826126cb565b600382527f3830310000000000000000000000000000000000000000000000000000000000878301526130c3565b6134796101025442612d6c565b8093551693847fffffffffffffffffffffffff0000000000000000000000000000000000000000825416179055604051908152a2565b50909192506134bd81613101565b167fda12ee837e6978172aaf54b16145ffe08414fd8710092ef033c71b8eb6ec189a600080a2429055565b6128f3929150604090600090808252609e60205273ffffffffffffffffffffffffffffffffffffffff83832094169384835260205260ff83832054161561318457815260d0602052206131ed565b6000467f00000000000000000000000000000000000000000000000000000000000000000361358457507f000000000000000000000000000000000000000000000000000000000000000090565b604051816001918254918161359884612678565b91828252602095868301958782821691826000146136d857505060011461367f575b506135c792500382612703565b51902091604051918201927f8b73c3c69bb8fe3d512ecc4cf759cc79239f7b179b0ffacaa9a75d522b39400f845260408301527fc89efdaa54c0f20c7adf612882df0950f5a951637e0307cdcb4c672f298b8bc660608301524660808301523060a083015260a0825260c082019082821067ffffffffffffffff831117613652575060405251902090565b807f4e487b7100000000000000000000000000000000000000000000000000000000602492526041600452fd5b80885286915087907fb10e2d527612073b26eecdfd717e6a320cf44b4afac2b0732d9fcbe2b7fa0cf65b8583106136c05750506135c79350820101386135ba565b805483880185015286945088939092019181016136a9565b7fffffffffffffffffffffffffffffffffffffffffffffffffffffffffffffff001688526135c795151560051b85010192503891506135ba9050565b60ff603a5416611781577fddf252ad1be2c89b69c2b068fc378daa952ba7f163c4a11628f55a4df523b3ef602073ffffffffffffffffffffffffffffffffffffffff60009361376586600454612d6c565b60045516938484526005825260408420818154019055604051908152a356fea2646970667358221220ba9ee503abbe82f7905f0fe58ee19380a7afaa0ef3657852521be4b8a069aba164736f6c63430008130033",
  "devdoc": {
    "author": "Kresko",
    "events": {
      "Initialized(uint8)": {
        "details": "Triggered when the contract has been initialized or reinitialized."
      },
      "Paused(address)": {
        "details": "Emitted when the pause is triggered by `account`."
      },
      "RoleAdminChanged(bytes32,bytes32,bytes32)": {
        "details": "Emitted when `newAdminRole` is set as ``role``'s admin role, replacing `previousAdminRole` `DEFAULT_ADMIN_ROLE` is the starting admin for all roles, despite {RoleAdminChanged} not being emitted signaling this. _Available since v3.1._"
      },
      "RoleGranted(bytes32,address,address)": {
        "details": "Emitted when `account` is granted `role`. `sender` is the account that originated the contract call, an admin role bearer except when using {AccessControl-_setupRole}."
      },
      "RoleRevoked(bytes32,address,address)": {
        "details": "Emitted when `account` is revoked `role`. `sender` is the account that originated the contract call:   - if using `revokeRole`, it is the admin role bearer   - if using `renounceRole`, it is the role bearer (i.e. `account`)"
      },
      "Unpaused(address)": {
        "details": "Emitted when the pause is lifted by `account`."
      }
    },
    "kind": "dev",
    "methods": {
      "destroy(uint256,address)": {
        "params": {
          "_from": "address to burn tokens from",
          "destroyed": "amount burned"
        }
      },
      "getRoleAdmin(bytes32)": {
        "details": "Returns the admin role that controls `role`. See {grantRole} and {revokeRole}. To change a role's admin, use {_setRoleAdmin}."
      },
      "getRoleMember(bytes32,uint256)": {
        "details": "Returns one of the accounts that have `role`. `index` must be a value between 0 and {getRoleMemberCount}, non-inclusive. Role bearers are not sorted in any particular way, and their ordering may change at any point. WARNING: When using {getRoleMember} and {getRoleMemberCount}, make sure you perform all queries on the same block. See the following https://forum.openzeppelin.com/t/iterating-over-elements-on-enumerableset-in-openzeppelin-contracts/2296[forum post] for more information."
      },
      "getRoleMemberCount(bytes32)": {
        "details": "Returns the number of accounts that have `role`. Can be used together with {getRoleMember} to enumerate all bearers of a role."
      },
      "grantRole(bytes32,address)": {
        "params": {
          "_role": "role to grant",
          "_to": "address to grant role for"
        }
      },
      "hasRole(bytes32,address)": {
        "details": "Returns `true` if `account` has been granted `role`."
      },
      "issue(uint256,address)": {
        "params": {
          "_amount": "amount to mint",
          "_to": "address to mint tokens to"
        },
        "returns": {
          "_0": "amount minted"
        }
      },
      "mint(address,uint256)": {
        "details": "Does not return a value",
        "params": {
          "_amount": "amount to mint",
          "_to": "address to mint tokens to"
        }
      },
      "pause()": {
        "details": "Triggers stopped state. Requirements: - The contract must not be paused."
      },
      "paused()": {
        "details": "Returns true if the contract is paused, and false otherwise."
      },
      "renounceRole(bytes32,address)": {
        "details": "Revokes `role` from the calling account. Roles are often managed via {grantRole} and {revokeRole}: this function's purpose is to provide a mechanism for accounts to lose their privileges if they are compromised (such as when a trusted device is misplaced). If the calling account had been revoked `role`, emits a {RoleRevoked} event. Requirements: - the caller must be `account`. May emit a {RoleRevoked} event."
      },
      "revokeRole(bytes32,address)": {
        "details": "Revokes `role` from `account`. If `account` had been granted `role`, emits a {RoleRevoked} event. Requirements: - the caller must have ``role``'s admin role. May emit a {RoleRevoked} event."
      },
      "setMaxOperators(uint256)": {
        "params": {
          "_maxOperators": "new maximum amount of operators"
        }
      },
      "setPendingOperatorWaitPeriod(uint256)": {
        "params": {
          "_newPeriod": "the period, in seconds"
        }
      },
      "supportsInterface(bytes4)": {
        "details": "Interface identification is specified in ERC-165. This function  uses less than 30,000 gas.",
        "params": {
          "interfaceId": "The interface identifier, as specified in ERC-165"
        },
        "returns": {
          "_0": "`true` if the contract implements `interfaceID` and  `interfaceID` is not 0xffffffff, `false` otherwise"
        }
      },
      "unpause()": {
        "details": "Returns to normal state. Requirements: - The contract must be paused."
      }
    },
    "title": "Kresko Integrated Stable System This is a non-rebasing Kresko Asset, intended to be paired to a stable-value underlying.",
    "version": 1
  },
  "userdoc": {
    "kind": "user",
    "methods": {
      "convertToAssets(uint256)": {
        "notice": "Returns the total amount of krAssets out"
      },
      "convertToShares(uint256)": {
        "notice": "Returns the total amount of anchor tokens out"
      },
      "destroy(uint256,address)": {
        "notice": "This function removes KISS from circulation Caller must be a contract and have the OPERATOR_ROLE"
      },
      "grantRole(bytes32,address)": {
        "notice": "Overrides `AccessControl.grantRole` for following: * Implement a cooldown period of `pendingOperatorWaitPeriod` minutes for setting a new OPERATOR_ROLE * EOA cannot be granted the operator role * The first operator can be set without a cooldown periodOPERATOR_ROLE can still be revoked without this cooldown periodPAUSER_ROLE can still be granted without this cooldown period"
      },
      "issue(uint256,address)": {
        "notice": "This function adds KISS to circulation Caller must be a contract and have the OPERATOR_ROLE"
      },
      "mint(address,uint256)": {
        "notice": "Use operator role for minting, so override the parent Caller must be a contract and have the OPERATOR_ROLE"
      },
      "setMaxOperators(uint256)": {
        "notice": "Allows ADMIN_ROLE to change the maximum operators"
      },
      "setPendingOperatorWaitPeriod(uint256)": {
        "notice": "Set a new waiting period for a new operator Must be at least 15 minutes"
      },
      "supportsInterface(bytes4)": {
        "notice": "Query if a contract implements an interface"
      }
    },
    "version": 1
  },
  "storageLayout": {
    "storage": [
      {
        "astId": 585,
        "contract": "src/contracts/kiss/KISS.sol:KISS",
        "label": "_initialized",
        "offset": 0,
        "slot": "0",
        "type": "t_uint8"
      },
      {
        "astId": 588,
        "contract": "src/contracts/kiss/KISS.sol:KISS",
        "label": "_initializing",
        "offset": 1,
        "slot": "0",
        "type": "t_bool"
      },
      {
        "astId": 25394,
        "contract": "src/contracts/kiss/KISS.sol:KISS",
        "label": "name",
        "offset": 0,
        "slot": "1",
        "type": "t_string_storage"
      },
      {
        "astId": 25396,
        "contract": "src/contracts/kiss/KISS.sol:KISS",
        "label": "symbol",
        "offset": 0,
        "slot": "2",
        "type": "t_string_storage"
      },
      {
        "astId": 25398,
        "contract": "src/contracts/kiss/KISS.sol:KISS",
        "label": "decimals",
        "offset": 0,
        "slot": "3",
        "type": "t_uint8"
      },
      {
        "astId": 25400,
        "contract": "src/contracts/kiss/KISS.sol:KISS",
        "label": "_totalSupply",
        "offset": 0,
        "slot": "4",
        "type": "t_uint256"
      },
      {
        "astId": 25404,
        "contract": "src/contracts/kiss/KISS.sol:KISS",
        "label": "_balances",
        "offset": 0,
        "slot": "5",
        "type": "t_mapping(t_address,t_uint256)"
      },
      {
        "astId": 25410,
        "contract": "src/contracts/kiss/KISS.sol:KISS",
        "label": "_allowances",
        "offset": 0,
        "slot": "6",
        "type": "t_mapping(t_address,t_mapping(t_address,t_uint256))"
      },
      {
        "astId": 25414,
        "contract": "src/contracts/kiss/KISS.sol:KISS",
        "label": "nonces",
        "offset": 0,
        "slot": "7",
        "type": "t_mapping(t_address,t_uint256)"
      },
      {
        "astId": 1199,
        "contract": "src/contracts/kiss/KISS.sol:KISS",
        "label": "__gap",
        "offset": 0,
        "slot": "8",
        "type": "t_array(t_uint256)50_storage"
      },
      {
        "astId": 768,
        "contract": "src/contracts/kiss/KISS.sol:KISS",
        "label": "_paused",
        "offset": 0,
        "slot": "58",
        "type": "t_bool"
      },
      {
        "astId": 873,
        "contract": "src/contracts/kiss/KISS.sol:KISS",
        "label": "__gap",
        "offset": 0,
        "slot": "59",
        "type": "t_array(t_uint256)49_storage"
      },
      {
        "astId": 1418,
        "contract": "src/contracts/kiss/KISS.sol:KISS",
        "label": "__gap",
        "offset": 0,
        "slot": "108",
        "type": "t_array(t_uint256)50_storage"
      },
      {
        "astId": 184,
        "contract": "src/contracts/kiss/KISS.sol:KISS",
        "label": "_roles",
        "offset": 0,
        "slot": "158",
        "type": "t_mapping(t_bytes32,t_struct(RoleData)179_storage)"
      },
      {
        "astId": 479,
        "contract": "src/contracts/kiss/KISS.sol:KISS",
        "label": "__gap",
        "offset": 0,
        "slot": "159",
        "type": "t_array(t_uint256)49_storage"
      },
      {
        "astId": 33,
        "contract": "src/contracts/kiss/KISS.sol:KISS",
        "label": "_roleMembers",
        "offset": 0,
        "slot": "208",
        "type": "t_mapping(t_bytes32,t_struct(AddressSet)2622_storage)"
      },
      {
        "astId": 143,
        "contract": "src/contracts/kiss/KISS.sol:KISS",
        "label": "__gap",
        "offset": 0,
        "slot": "209",
        "type": "t_array(t_uint256)49_storage"
      },
      {
        "astId": 7670,
        "contract": "src/contracts/kiss/KISS.sol:KISS",
        "label": "pendingOperatorWaitPeriod",
        "offset": 0,
        "slot": "258",
        "type": "t_uint256"
      },
      {
        "astId": 7672,
        "contract": "src/contracts/kiss/KISS.sol:KISS",
        "label": "pendingOperatorUnlockTime",
        "offset": 0,
        "slot": "259",
        "type": "t_uint256"
      },
      {
        "astId": 7674,
        "contract": "src/contracts/kiss/KISS.sol:KISS",
        "label": "maxOperators",
        "offset": 0,
        "slot": "260",
        "type": "t_uint256"
      },
      {
        "astId": 7676,
        "contract": "src/contracts/kiss/KISS.sol:KISS",
        "label": "pendingOperator",
        "offset": 0,
        "slot": "261",
        "type": "t_address"
      },
      {
        "astId": 7678,
        "contract": "src/contracts/kiss/KISS.sol:KISS",
        "label": "kresko",
        "offset": 0,
        "slot": "262",
        "type": "t_address"
      }
    ],
    "types": {
      "t_address": {
        "encoding": "inplace",
        "label": "address",
        "numberOfBytes": "20"
      },
      "t_array(t_bytes32)dyn_storage": {
        "base": "t_bytes32",
        "encoding": "dynamic_array",
        "label": "bytes32[]",
        "numberOfBytes": "32"
      },
      "t_array(t_uint256)49_storage": {
        "base": "t_uint256",
        "encoding": "inplace",
        "label": "uint256[49]",
        "numberOfBytes": "1568"
      },
      "t_array(t_uint256)50_storage": {
        "base": "t_uint256",
        "encoding": "inplace",
        "label": "uint256[50]",
        "numberOfBytes": "1600"
      },
      "t_bool": {
        "encoding": "inplace",
        "label": "bool",
        "numberOfBytes": "1"
      },
      "t_bytes32": {
        "encoding": "inplace",
        "label": "bytes32",
        "numberOfBytes": "32"
      },
      "t_mapping(t_address,t_bool)": {
        "encoding": "mapping",
        "key": "t_address",
        "label": "mapping(address => bool)",
        "numberOfBytes": "32",
        "value": "t_bool"
      },
      "t_mapping(t_address,t_mapping(t_address,t_uint256))": {
        "encoding": "mapping",
        "key": "t_address",
        "label": "mapping(address => mapping(address => uint256))",
        "numberOfBytes": "32",
        "value": "t_mapping(t_address,t_uint256)"
      },
      "t_mapping(t_address,t_uint256)": {
        "encoding": "mapping",
        "key": "t_address",
        "label": "mapping(address => uint256)",
        "numberOfBytes": "32",
        "value": "t_uint256"
      },
      "t_mapping(t_bytes32,t_struct(AddressSet)2622_storage)": {
        "encoding": "mapping",
        "key": "t_bytes32",
        "label": "mapping(bytes32 => struct EnumerableSetUpgradeable.AddressSet)",
        "numberOfBytes": "32",
        "value": "t_struct(AddressSet)2622_storage"
      },
      "t_mapping(t_bytes32,t_struct(RoleData)179_storage)": {
        "encoding": "mapping",
        "key": "t_bytes32",
        "label": "mapping(bytes32 => struct AccessControlUpgradeable.RoleData)",
        "numberOfBytes": "32",
        "value": "t_struct(RoleData)179_storage"
      },
      "t_mapping(t_bytes32,t_uint256)": {
        "encoding": "mapping",
        "key": "t_bytes32",
        "label": "mapping(bytes32 => uint256)",
        "numberOfBytes": "32",
        "value": "t_uint256"
      },
      "t_string_storage": {
        "encoding": "bytes",
        "label": "string",
        "numberOfBytes": "32"
      },
      "t_struct(AddressSet)2622_storage": {
        "encoding": "inplace",
        "label": "struct EnumerableSetUpgradeable.AddressSet",
        "members": [
          {
            "astId": 2621,
            "contract": "src/contracts/kiss/KISS.sol:KISS",
            "label": "_inner",
            "offset": 0,
            "slot": "0",
            "type": "t_struct(Set)2307_storage"
          }
        ],
        "numberOfBytes": "64"
      },
      "t_struct(RoleData)179_storage": {
        "encoding": "inplace",
        "label": "struct AccessControlUpgradeable.RoleData",
        "members": [
          {
            "astId": 176,
            "contract": "src/contracts/kiss/KISS.sol:KISS",
            "label": "members",
            "offset": 0,
            "slot": "0",
            "type": "t_mapping(t_address,t_bool)"
          },
          {
            "astId": 178,
            "contract": "src/contracts/kiss/KISS.sol:KISS",
            "label": "adminRole",
            "offset": 0,
            "slot": "1",
            "type": "t_bytes32"
          }
        ],
        "numberOfBytes": "64"
      },
      "t_struct(Set)2307_storage": {
        "encoding": "inplace",
        "label": "struct EnumerableSetUpgradeable.Set",
        "members": [
          {
            "astId": 2302,
            "contract": "src/contracts/kiss/KISS.sol:KISS",
            "label": "_values",
            "offset": 0,
            "slot": "0",
            "type": "t_array(t_bytes32)dyn_storage"
          },
          {
            "astId": 2306,
            "contract": "src/contracts/kiss/KISS.sol:KISS",
            "label": "_indexes",
            "offset": 0,
            "slot": "1",
            "type": "t_mapping(t_bytes32,t_uint256)"
          }
        ],
        "numberOfBytes": "64"
      },
      "t_uint256": {
        "encoding": "inplace",
        "label": "uint256",
        "numberOfBytes": "32"
      },
      "t_uint8": {
        "encoding": "inplace",
        "label": "uint8",
        "numberOfBytes": "1"
      }
    }
  }
}