{
  "address": "0xcF71Be97E2aFacdC0F712FA74E58aA68B9DDa2B5",
  "abi": [
    {
      "anonymous": false,
      "inputs": [
        {
          "indexed": true,
          "internalType": "address",
          "name": "owner",
          "type": "address"
        },
        {
          "indexed": true,
          "internalType": "address",
          "name": "spender",
          "type": "address"
        },
        {
          "indexed": false,
          "internalType": "uint256",
          "name": "amount",
          "type": "uint256"
        }
      ],
      "name": "Approval",
      "type": "event"
    },
    {
      "anonymous": false,
      "inputs": [
        {
          "indexed": false,
          "internalType": "uint8",
          "name": "version",
          "type": "uint8"
        }
      ],
      "name": "Initialized",
      "type": "event"
    },
    {
      "anonymous": false,
      "inputs": [
        {
          "indexed": true,
          "internalType": "bytes32",
          "name": "role",
          "type": "bytes32"
        },
        {
          "indexed": true,
          "internalType": "bytes32",
          "name": "previousAdminRole",
          "type": "bytes32"
        },
        {
          "indexed": true,
          "internalType": "bytes32",
          "name": "newAdminRole",
          "type": "bytes32"
        }
      ],
      "name": "RoleAdminChanged",
      "type": "event"
    },
    {
      "anonymous": false,
      "inputs": [
        {
          "indexed": true,
          "internalType": "bytes32",
          "name": "role",
          "type": "bytes32"
        },
        {
          "indexed": true,
          "internalType": "address",
          "name": "account",
          "type": "address"
        },
        {
          "indexed": true,
          "internalType": "address",
          "name": "sender",
          "type": "address"
        }
      ],
      "name": "RoleGranted",
      "type": "event"
    },
    {
      "anonymous": false,
      "inputs": [
        {
          "indexed": true,
          "internalType": "bytes32",
          "name": "role",
          "type": "bytes32"
        },
        {
          "indexed": true,
          "internalType": "address",
          "name": "account",
          "type": "address"
        },
        {
          "indexed": true,
          "internalType": "address",
          "name": "sender",
          "type": "address"
        }
      ],
      "name": "RoleRevoked",
      "type": "event"
    },
    {
      "anonymous": false,
      "inputs": [
        {
          "indexed": true,
          "internalType": "address",
          "name": "from",
          "type": "address"
        },
        {
          "indexed": true,
          "internalType": "address",
          "name": "to",
          "type": "address"
        },
        {
          "indexed": false,
          "internalType": "uint256",
          "name": "amount",
          "type": "uint256"
        }
      ],
      "name": "Transfer",
      "type": "event"
    },
    {
      "inputs": [],
      "name": "DEFAULT_ADMIN_ROLE",
      "outputs": [
        {
          "internalType": "bytes32",
          "name": "",
          "type": "bytes32"
        }
      ],
      "stateMutability": "view",
      "type": "function"
    },
    {
      "inputs": [],
      "name": "DOMAIN_SEPARATOR",
      "outputs": [
        {
          "internalType": "bytes32",
          "name": "",
          "type": "bytes32"
        }
      ],
      "stateMutability": "view",
      "type": "function"
    },
    {
      "inputs": [
        {
          "internalType": "address",
          "name": "_owner",
          "type": "address"
        },
        {
          "internalType": "address",
          "name": "_account",
          "type": "address"
        }
      ],
      "name": "allowance",
      "outputs": [
        {
          "internalType": "uint256",
          "name": "",
          "type": "uint256"
        }
      ],
      "stateMutability": "view",
      "type": "function"
    },
    {
      "inputs": [
        {
          "internalType": "address",
          "name": "spender",
          "type": "address"
        },
        {
          "internalType": "uint256",
          "name": "amount",
          "type": "uint256"
        }
      ],
      "name": "approve",
      "outputs": [
        {
          "internalType": "bool",
          "name": "",
          "type": "bool"
        }
      ],
      "stateMutability": "nonpayable",
      "type": "function"
    },
    {
      "inputs": [
        {
          "internalType": "address",
          "name": "_account",
          "type": "address"
        }
      ],
      "name": "balanceOf",
      "outputs": [
        {
          "internalType": "uint256",
          "name": "",
          "type": "uint256"
        }
      ],
      "stateMutability": "view",
      "type": "function"
    },
    {
      "inputs": [
        {
          "internalType": "address",
          "name": "_from",
          "type": "address"
        },
        {
          "internalType": "uint256",
          "name": "_amount",
          "type": "uint256"
        }
      ],
      "name": "burn",
      "outputs": [],
      "stateMutability": "nonpayable",
      "type": "function"
    },
    {
      "inputs": [],
      "name": "decimals",
      "outputs": [
        {
          "internalType": "uint8",
          "name": "",
          "type": "uint8"
        }
      ],
      "stateMutability": "view",
      "type": "function"
    },
    {
      "inputs": [
        {
          "internalType": "bytes32",
          "name": "role",
          "type": "bytes32"
        }
      ],
      "name": "getRoleAdmin",
      "outputs": [
        {
          "internalType": "bytes32",
          "name": "",
          "type": "bytes32"
        }
      ],
      "stateMutability": "view",
      "type": "function"
    },
    {
      "inputs": [
        {
          "internalType": "bytes32",
          "name": "role",
          "type": "bytes32"
        },
        {
          "internalType": "uint256",
          "name": "index",
          "type": "uint256"
        }
      ],
      "name": "getRoleMember",
      "outputs": [
        {
          "internalType": "address",
          "name": "",
          "type": "address"
        }
      ],
      "stateMutability": "view",
      "type": "function"
    },
    {
      "inputs": [
        {
          "internalType": "bytes32",
          "name": "role",
          "type": "bytes32"
        }
      ],
      "name": "getRoleMemberCount",
      "outputs": [
        {
          "internalType": "uint256",
          "name": "",
          "type": "uint256"
        }
      ],
      "stateMutability": "view",
      "type": "function"
    },
    {
      "inputs": [
        {
          "internalType": "bytes32",
          "name": "role",
          "type": "bytes32"
        },
        {
          "internalType": "address",
          "name": "account",
          "type": "address"
        }
      ],
      "name": "grantRole",
      "outputs": [],
      "stateMutability": "nonpayable",
      "type": "function"
    },
    {
      "inputs": [
        {
          "internalType": "bytes32",
          "name": "role",
          "type": "bytes32"
        },
        {
          "internalType": "address",
          "name": "account",
          "type": "address"
        }
      ],
      "name": "hasRole",
      "outputs": [
        {
          "internalType": "bool",
          "name": "",
          "type": "bool"
        }
      ],
      "stateMutability": "view",
      "type": "function"
    },
    {
      "inputs": [
        {
          "internalType": "string",
          "name": "_name",
          "type": "string"
        },
        {
          "internalType": "string",
          "name": "_symbol",
          "type": "string"
        },
        {
          "internalType": "uint8",
          "name": "_decimals",
          "type": "uint8"
        },
        {
          "internalType": "address",
          "name": "_admin",
          "type": "address"
        },
        {
          "internalType": "address",
          "name": "_kresko",
          "type": "address"
        }
      ],
      "name": "initialize",
      "outputs": [],
      "stateMutability": "nonpayable",
      "type": "function"
    },
    {
      "inputs": [],
      "name": "isRebased",
      "outputs": [
        {
          "internalType": "bool",
          "name": "",
          "type": "bool"
        }
      ],
      "stateMutability": "view",
      "type": "function"
    },
    {
      "inputs": [],
      "name": "kresko",
      "outputs": [
        {
          "internalType": "address",
          "name": "",
          "type": "address"
        }
      ],
      "stateMutability": "view",
      "type": "function"
    },
    {
      "inputs": [
        {
          "internalType": "address",
          "name": "_to",
          "type": "address"
        },
        {
          "internalType": "uint256",
          "name": "_amount",
          "type": "uint256"
        }
      ],
      "name": "mint",
      "outputs": [],
      "stateMutability": "nonpayable",
      "type": "function"
    },
    {
      "inputs": [],
      "name": "name",
      "outputs": [
        {
          "internalType": "string",
          "name": "",
          "type": "string"
        }
      ],
      "stateMutability": "view",
      "type": "function"
    },
    {
      "inputs": [
        {
          "internalType": "address",
          "name": "",
          "type": "address"
        }
      ],
      "name": "nonces",
      "outputs": [
        {
          "internalType": "uint256",
          "name": "",
          "type": "uint256"
        }
      ],
      "stateMutability": "view",
      "type": "function"
    },
    {
      "inputs": [
        {
          "internalType": "address",
          "name": "owner",
          "type": "address"
        },
        {
          "internalType": "address",
          "name": "spender",
          "type": "address"
        },
        {
          "internalType": "uint256",
          "name": "value",
          "type": "uint256"
        },
        {
          "internalType": "uint256",
          "name": "deadline",
          "type": "uint256"
        },
        {
          "internalType": "uint8",
          "name": "v",
          "type": "uint8"
        },
        {
          "internalType": "bytes32",
          "name": "r",
          "type": "bytes32"
        },
        {
          "internalType": "bytes32",
          "name": "s",
          "type": "bytes32"
        }
      ],
      "name": "permit",
      "outputs": [],
      "stateMutability": "nonpayable",
      "type": "function"
    },
    {
      "inputs": [
        {
          "internalType": "uint256",
          "name": "_denominator",
          "type": "uint256"
        },
        {
          "internalType": "bool",
          "name": "_positive",
          "type": "bool"
        },
        {
          "internalType": "address[]",
          "name": "_pools",
          "type": "address[]"
        }
      ],
      "name": "rebase",
      "outputs": [],
      "stateMutability": "nonpayable",
      "type": "function"
    },
    {
      "inputs": [],
      "name": "rebaseInfo",
      "outputs": [
        {
          "components": [
            {
              "internalType": "bool",
              "name": "positive",
              "type": "bool"
            },
            {
              "internalType": "uint256",
              "name": "denominator",
              "type": "uint256"
            }
          ],
          "internalType": "struct IKreskoAsset.Rebase",
          "name": "",
          "type": "tuple"
        }
      ],
      "stateMutability": "view",
      "type": "function"
    },
    {
      "inputs": [
        {
          "internalType": "string",
          "name": "_name",
          "type": "string"
        },
        {
          "internalType": "string",
          "name": "_symbol",
          "type": "string"
        },
        {
          "internalType": "uint8",
          "name": "_version",
          "type": "uint8"
        }
      ],
      "name": "reinitializeERC20",
      "outputs": [],
      "stateMutability": "nonpayable",
      "type": "function"
    },
    {
      "inputs": [
        {
          "internalType": "bytes32",
          "name": "role",
          "type": "bytes32"
        },
        {
          "internalType": "address",
          "name": "account",
          "type": "address"
        }
      ],
      "name": "renounceRole",
      "outputs": [],
      "stateMutability": "nonpayable",
      "type": "function"
    },
    {
      "inputs": [
        {
          "internalType": "bytes32",
          "name": "role",
          "type": "bytes32"
        },
        {
          "internalType": "address",
          "name": "account",
          "type": "address"
        }
      ],
      "name": "revokeRole",
      "outputs": [],
      "stateMutability": "nonpayable",
      "type": "function"
    },
    {
      "inputs": [
        {
          "internalType": "bytes4",
          "name": "interfaceId",
          "type": "bytes4"
        }
      ],
      "name": "supportsInterface",
      "outputs": [
        {
          "internalType": "bool",
          "name": "",
          "type": "bool"
        }
      ],
      "stateMutability": "view",
      "type": "function"
    },
    {
      "inputs": [],
      "name": "symbol",
      "outputs": [
        {
          "internalType": "string",
          "name": "",
          "type": "string"
        }
      ],
      "stateMutability": "view",
      "type": "function"
    },
    {
      "inputs": [],
      "name": "totalSupply",
      "outputs": [
        {
          "internalType": "uint256",
          "name": "",
          "type": "uint256"
        }
      ],
      "stateMutability": "view",
      "type": "function"
    },
    {
      "inputs": [
        {
          "internalType": "address",
          "name": "_to",
          "type": "address"
        },
        {
          "internalType": "uint256",
          "name": "_amount",
          "type": "uint256"
        }
      ],
      "name": "transfer",
      "outputs": [
        {
          "internalType": "bool",
          "name": "",
          "type": "bool"
        }
      ],
      "stateMutability": "nonpayable",
      "type": "function"
    },
    {
      "inputs": [
        {
          "internalType": "address",
          "name": "_from",
          "type": "address"
        },
        {
          "internalType": "address",
          "name": "_to",
          "type": "address"
        },
        {
          "internalType": "uint256",
          "name": "_amount",
          "type": "uint256"
        }
      ],
      "name": "transferFrom",
      "outputs": [
        {
          "internalType": "bool",
          "name": "",
          "type": "bool"
        }
      ],
      "stateMutability": "nonpayable",
      "type": "function"
    }
  ],
  "transactionHash": "0xbfa6c2080c982e5f99798cb21526c5f4be7d3e2a7af439363cde0a1eef966ba9",
  "args": [],
  "numDeployments": 1,
  "solcInputHash": "2796721ae8ad06f4477f7f47306878f4",
  "bytecode": "0x60c0604090808252346200036f5760009081549060ff8260081c16159081809262000361575b801562000348575b15620002c65750600160ff1992828285831617865562000297575b50466080528451918482549081841c8483169283156200028c575b60209788831085146200025f57889083895281890195928360001462000248575050506001146200020e575b5067ffffffffffffffff9490819003601f017fffffffffffffffffffffffffffffffffffffffffffffffffffffffffffffffe0168101919085831181841017620001e15782895251902090858101917f8b73c3c69bb8fe3d512ecc4cf759cc79239f7b179b0ffacaa9a75d522b39400f8352888201527fc89efdaa54c0f20c7adf612882df0950f5a951637e0307cdcb4c672f298b8bc660608201524660808201523060a082015260a0815260c081019481861090861117620001b45784885251902060a0526200017c575b845161322f908162000375823960805181613051015260a051816130780152f35b7f7f26b83ff96e1f2b6a682f133852f6798a09c465da95921460cefb38474024989361ff001981541690558152a1388080806200015b565b7f4e487b710000000000000000000000000000000000000000000000000000000087526041600452602487fd5b7f4e487b710000000000000000000000000000000000000000000000000000000088526041600452602488fd5b869150848852818820908589925b8284106200023157505050850101386200008f565b8054848a018601528994909301928791016200021c565b9194509150168352151560051b850101386200008f565b7f4e487b71000000000000000000000000000000000000000000000000000000008a52602260045260248afd5b90607f169062000063565b7fffffffffffffffffffffffffffffffffffffffffffffffffffffffffffff0000166101011784553862000048565b7f08c379a000000000000000000000000000000000000000000000000000000000815260206004820152602e60248201527f496e697469616c697a61626c653a20636f6e747261637420697320616c72656160448201527f647920696e697469616c697a65640000000000000000000000000000000000006064820152608490fd5b50303b1580156200002d5750600160ff8416146200002d565b50600160ff84161062000025565b600080fdfe6080604052600436101561001257600080fd5b60003560e01c806301ffc9a7146101e757806306fdde03146101e2578063095ea7b3146101dd57806318160ddd146101d857806323b872dd146101d3578063248a9ca3146101ce5780632f2ff15d146101c9578063313ce567146101c45780633644e515146101bf57806336568abe146101ba57806340c10f19146101b55780635a4c6c0d146101b057806370a08231146101ab5780637ecebe00146101a65780638d317305146101a15780639010d07c1461019c57806391d148541461019757806395d89b41146101925780639dc29fac1461018d578063a217fddf14610188578063a9059cbb14610183578063aff46ab61461017e578063c820f14614610179578063ca15c87314610174578063d505accf1461016f578063d547741f1461016a578063d77e128c14610165578063dd62ed3e146101605763ff1619cb1461015b57600080fd5b611815565b611778565b611723565b6116c3565b61141a565b6113d0565b611218565b611112565b6110be565b611084565b610fc1565b610efc565b610e7a565b610e09565b610d83565b610d1a565b610cd5565b610c94565b610bcd565b610ae3565b610aaa565b610a6b565b61090a565b6108bd565b610750565b610703565b61063d565b610504565b3461038f5760207ffffffffffffffffffffffffffffffffffffffffffffffffffffffffffffffffc36011261038f576004357fffffffff000000000000000000000000000000000000000000000000000000009081811680910361038f5761026691811415908161026a575b5060405190151581529081906020820190565b0390f35b7f73f5340d00000000000000000000000000000000000000000000000000000000811491508115610365575b811561033b575b81156102ab575b5038610253565b7f5a05180f000000000000000000000000000000000000000000000000000000008114915081156102de575b50386102a4565b7f7965db0b00000000000000000000000000000000000000000000000000000000811491508115610311575b50386102d7565b7f01ffc9a7000000000000000000000000000000000000000000000000000000009150143861030a565b7f36372b07000000000000000000000000000000000000000000000000000000008114915061029d565b7f01ffc9a70000000000000000000000000000000000000000000000000000000081149150610296565b600080fd5b600091031261038f57565b90600182811c921680156103e8575b60208310146103b957565b7f4e487b7100000000000000000000000000000000000000000000000000000000600052602260045260246000fd5b91607f16916103ae565b7f4e487b7100000000000000000000000000000000000000000000000000000000600052604160045260246000fd5b6040810190811067ffffffffffffffff82111761043d57604052565b6103f2565b67ffffffffffffffff811161043d57604052565b90601f7fffffffffffffffffffffffffffffffffffffffffffffffffffffffffffffffe0910116810190811067ffffffffffffffff82111761043d57604052565b60005b8381106104aa5750506000910152565b818101518382015260200161049a565b7fffffffffffffffffffffffffffffffffffffffffffffffffffffffffffffffe0601f604093602084526104fd8151809281602088015260208888019101610497565b0116010190565b3461038f576000807ffffffffffffffffffffffffffffffffffffffffffffffffffffffffffffffffc36011261061c57604051908060018054916105478361039f565b808652928281169081156105d4575060011461057a575b6102668561056e81870382610456565b604051918291826104ba565b92508083527fb10e2d527612073b26eecdfd717e6a320cf44b4afac2b0732d9fcbe2b7fa0cf65b8284106105bc57505050810160200161056e8261026661055e565b805460208587018101919091529093019281016105a1565b8695506102669693506020925061056e9491507fffffffffffffffffffffffffffffffffffffffffffffffffffffffffffffff001682840152151560051b820101929361055e565b80fd5b73ffffffffffffffffffffffffffffffffffffffff81160361038f57565b3461038f5760407ffffffffffffffffffffffffffffffffffffffffffffffffffffffffffffffffc36011261038f576004356106788161061f565b73ffffffffffffffffffffffffffffffffffffffff60243591336000526006602052826106c98260406000209073ffffffffffffffffffffffffffffffffffffffff16600052602052604060002090565b5560405192835216907f8c5be1e5ebec7d5bd14f71427d1e84f3dd0314c0f7b2291e5b200ac8c7c3b92560203392a3602060405160018152f35b3461038f5760007ffffffffffffffffffffffffffffffffffffffffffffffffffffffffffffffffc36011261038f576020610748600454610742612804565b90612d35565b604051908152f35b3461038f5760607ffffffffffffffffffffffffffffffffffffffffffffffffffffffffffffffffc36011261038f5761026661081f6004356107918161061f565b60243561079d8161061f565b6044359173ffffffffffffffffffffffffffffffffffffffff81168060005260066020526107ef3360406000209073ffffffffffffffffffffffffffffffffffffffff16600052602052604060002090565b547fffffffffffffffffffffffffffffffffffffffffffffffffffffffffffffffff8103610831575b5050612bf3565b60405190151581529081906020820190565b6040516108739161084182610421565b600382527f3130380000000000000000000000000000000000000000000000000000000000602083015286111561297d565b60005260066020526108a93360406000209073ffffffffffffffffffffffffffffffffffffffff16600052602052604060002090565b6108b4848254612369565b90553880610818565b3461038f5760207ffffffffffffffffffffffffffffffffffffffffffffffffffffffffffffffffc36011261038f57600435600052606c6020526020600160406000200154604051908152f35b3461038f5760407ffffffffffffffffffffffffffffffffffffffffffffffffffffffffffffffffc36011261038f576004356109bc60243561094b8161061f565b6109b7600093808552606c6020526109696001604087200154611d52565b808552606c60205260ff6109a084604088209073ffffffffffffffffffffffffffffffffffffffff16600052602052604060002090565b5416156109c057600052609e602052604060002090565b612261565b5080f35b808552606c6020526109f583604087209073ffffffffffffffffffffffffffffffffffffffff16600052602052604060002090565b60017fffffffffffffffffffffffffffffffffffffffffffffffffffffffffffffff008254161790553373ffffffffffffffffffffffffffffffffffffffff8416827f2f8788117e7eff1d82e926ec794901d17c78024a50270940304540a733656f0d8880a4600052609e602052604060002090565b3461038f5760007ffffffffffffffffffffffffffffffffffffffffffffffffffffffffffffffffc36011261038f57602060ff60035416604051908152f35b3461038f5760007ffffffffffffffffffffffffffffffffffffffffffffffffffffffffffffffffc36011261038f57602061074861304c565b3461038f5760407ffffffffffffffffffffffffffffffffffffffffffffffffffffffffffffffffc36011261038f57602435610b1e8161061f565b3373ffffffffffffffffffffffffffffffffffffffff821603610b4957610b4790600435611e4b565b005b60846040517f08c379a000000000000000000000000000000000000000000000000000000000815260206004820152602f60248201527f416363657373436f6e74726f6c3a2063616e206f6e6c792072656e6f756e636560448201527f20726f6c657320666f722073656c6600000000000000000000000000000000006064820152fd5b3461038f5760407ffffffffffffffffffffffffffffffffffffffffffffffffffffffffffffffffc36011261038f57600435610c088161061f565b602435610c13611bd7565b610c24610c1e612804565b82612cc8565b9160045490838201809211610c8f5760009273ffffffffffffffffffffffffffffffffffffffff6020927fddf252ad1be2c89b69c2b068fc378daa952ba7f163c4a11628f55a4df523b3ef9460045516948585526005835260408520908154019055604051908152a3005b611f3f565b3461038f5760007ffffffffffffffffffffffffffffffffffffffffffffffffffffffffffffffffc36011261038f57602060ff60d054166040519015158152f35b3461038f5760207ffffffffffffffffffffffffffffffffffffffffffffffffffffffffffffffffc36011261038f576020610748600435610d158161061f565b612825565b3461038f5760207ffffffffffffffffffffffffffffffffffffffffffffffffffffffffffffffffc36011261038f5773ffffffffffffffffffffffffffffffffffffffff600435610d6a8161061f565b1660005260076020526020604060002054604051908152f35b3461038f5760607ffffffffffffffffffffffffffffffffffffffffffffffffffffffffffffffffc36011261038f57602435801515810361038f576044359067ffffffffffffffff9081831161038f573660238401121561038f57826004013591821161038f573660248360051b8501011161038f576024610b479301906004356129bb565b3461038f5760407ffffffffffffffffffffffffffffffffffffffffffffffffffffffffffffffffc36011261038f57600435600052609e602052602073ffffffffffffffffffffffffffffffffffffffff610e6a6024356040600020612281565b9190546040519260031b1c168152f35b3461038f5760407ffffffffffffffffffffffffffffffffffffffffffffffffffffffffffffffffc36011261038f57602060ff610ef0602435610ebc8161061f565b600435600052606c845260406000209073ffffffffffffffffffffffffffffffffffffffff16600052602052604060002090565b54166040519015158152f35b3461038f576000807ffffffffffffffffffffffffffffffffffffffffffffffffffffffffffffffffc36011261061c576040519080600254610f3d8161039f565b808552916001918083169081156105d45750600114610f66576102668561056e81870382610456565b9250600283527f405787fa12a823e0f2b7631cc41b3ba8828b3321ca811111fa75cd3aa3bb5ace5b828410610fa957505050810160200161056e8261026661055e565b80546020858701810191909152909301928101610f8e565b3461038f5760407ffffffffffffffffffffffffffffffffffffffffffffffffffffffffffffffffc36011261038f57600435610ffc8161061f565b602435611007611bd7565b73ffffffffffffffffffffffffffffffffffffffff61102d611027612804565b83612cc8565b9216908160005260056020526040600020805491848303928311610c8f576000947fddf252ad1be2c89b69c2b068fc378daa952ba7f163c4a11628f55a4df523b3ef936020935560045403600455604051908152a3005b3461038f5760007ffffffffffffffffffffffffffffffffffffffffffffffffffffffffffffffffc36011261038f57602060405160008152f35b3461038f5760407ffffffffffffffffffffffffffffffffffffffffffffffffffffffffffffffffc36011261038f5760206111086004356110fe8161061f565b6024359033612bf3565b6040519015158152f35b3461038f5760007ffffffffffffffffffffffffffffffffffffffffffffffffffffffffffffffffc36011261038f576000602060405161115181610421565b82815201526040611160612804565b602082519180511515835201516020820152f35b6040519061118182610421565b565b81601f8201121561038f5780359067ffffffffffffffff821161043d57604051926111d660207fffffffffffffffffffffffffffffffffffffffffffffffffffffffffffffffe0601f8601160185610456565b8284526020838301011161038f57816000926020809301838601378301015290565b6044359060ff8216820361038f57565b6084359060ff8216820361038f57565b3461038f5760a07ffffffffffffffffffffffffffffffffffffffffffffffffffffffffffffffffc36011261038f5767ffffffffffffffff60043581811161038f57611268903690600401611183565b9060243590811161038f57611284611305913690600401611183565b61128c6111f8565b606435906112998261061f565b608435926112a68461061f565b600054956112cb60ff8860081c1615809881996113c2575b81156113a2575b506124c0565b866112fc60017fffffffffffffffffffffffffffffffffffffffffffffffffffffffffffffff006000541617600055565b61136c5761254b565b61130b57005b6113387fffffffffffffffffffffffffffffffffffffffffffffffffffffffffffff00ff60005416600055565b604051600181527f7f26b83ff96e1f2b6a682f133852f6798a09c465da95921460cefb38474024989080602081015b0390a1005b61139d6101007fffffffffffffffffffffffffffffffffffffffffffffffffffffffffffff00ff6000541617600055565b61254b565b303b159150816113b4575b50386112c5565b6001915060ff1614386113ad565b600160ff82161091506112be565b3461038f5760207ffffffffffffffffffffffffffffffffffffffffffffffffffffffffffffffffc36011261038f57600435600052609e6020526020604060002054604051908152f35b3461038f5760e07ffffffffffffffffffffffffffffffffffffffffffffffffffffffffffffffffc36011261038f576004356114558161061f565b602435906114628261061f565b6044356064359260206115e7611476611208565b9561148342821015612f82565b6115ae6115ba61149161304c565b92886114bd8173ffffffffffffffffffffffffffffffffffffffff166000526007602052604060002090565b8054906001820190556115386040519384928c8c8c8601968791959493909260a09360c08401977f6e71edae12b1b97f4d1f60370fef10105fa2faae0126114a169c64845d6126c9855273ffffffffffffffffffffffffffffffffffffffff8092166020860152166040840152606083015260808201520152565b039161156a7fffffffffffffffffffffffffffffffffffffffffffffffffffffffffffffffe093848101835282610456565b519020604051938491888301968790916042927f19010000000000000000000000000000000000000000000000000000000000008352600283015260228201520190565b03908101835282610456565b5190206040805191825260ff909716602082015260a4359681019690965260c43560608701526080860190565b856000968792838052039060015afa156116be577f8c5be1e5ebec7d5bd14f71427d1e84f3dd0314c0f7b2291e5b200ac8c7c3b925908451908361169f8261167a73ffffffffffffffffffffffffffffffffffffffff9561165487821680151590816116b2575b50612fe7565b73ffffffffffffffffffffffffffffffffffffffff166000526006602052604060002090565b9073ffffffffffffffffffffffffffffffffffffffff16600052602052604060002090565b556040519384528116931691602090a380f35b9050888c16143861164e565b612be7565b3461038f5760407ffffffffffffffffffffffffffffffffffffffffffffffffffffffffffffffffc36011261038f57610b476024356004356117048261061f565b80600052606c60205261171e600160406000200154611d52565b611e4b565b3461038f5760007ffffffffffffffffffffffffffffffffffffffffffffffffffffffffffffffffc36011261038f57602073ffffffffffffffffffffffffffffffffffffffff60d05460081c16604051908152f35b3461038f5760407ffffffffffffffffffffffffffffffffffffffffffffffffffffffffffffffffc36011261038f57602061180c6004356117b88161061f565b73ffffffffffffffffffffffffffffffffffffffff602435916117da8361061f565b166000526006835260406000209073ffffffffffffffffffffffffffffffffffffffff16600052602052604060002090565b54604051908152f35b3461038f5760607ffffffffffffffffffffffffffffffffffffffffffffffffffffffffffffffffc36011261038f5767ffffffffffffffff60043581811161038f57611865903690600401611183565b9060243590811161038f577f7f26b83ff96e1f2b6a682f133852f6798a09c465da95921460cefb3847402498916119046118a6611367933690600401611183565b6118ae6111f8565b926118b7611cfd565b61010060005460ff8160081c161580611945575b6118d4906124c0565b7fffffffffffffffffffffffffffffffffffffffffffffffffffffffffffff00001660ff86161717600055612854565b6119317fffffffffffffffffffffffffffffffffffffffffffffffffffffffffffff00ff60005416600055565b60405160ff90911681529081906020820190565b5060ff868116908216106118cb565b73ffffffffffffffffffffffffffffffffffffffff81811660009081527f7febd347df14ea35c529e50fb2dd629d4a6226f5ccc893710fb466f8b83823fc6020526040808220546119bc9493929060ff16156119bf575b808052609e602052209116906122d5565b50565b808052606c6020526119f3848383209073ffffffffffffffffffffffffffffffffffffffff16600052602052604060002090565b60017fffffffffffffffffffffffffffffffffffffffffffffffffffffffffffffff0082541617905533838516827f2f8788117e7eff1d82e926ec794901d17c78024a50270940304540a733656f0d8180a46119ab565b73ffffffffffffffffffffffffffffffffffffffff80821660009081527fa4ac56bae9b924eb088a27052e4fc6397274f4bdc274811ef2e6d36f8b7ee61e60205260408082206119bc949392907fb9dacdf02281f2e98ddbadaaf44db270b3d5a916342df47c59f77937a6bcd5d89060ff905b541615611ad5575b8152609e602052209116906122d5565b808252606c602052611b09858484209073ffffffffffffffffffffffffffffffffffffffff16600052602052604060002090565b60017fffffffffffffffffffffffffffffffffffffffffffffffffffffffffffffff0082541617905533848616827f2f8788117e7eff1d82e926ec794901d17c78024a50270940304540a733656f0d8580a4611ac5565b73ffffffffffffffffffffffffffffffffffffffff80821660009081527f64cc6f6f685b3276a90c73e0133bcdef2e020f1e725303b7d260892943ebae9e60205260408082206119bc949392907f112e48a576fb3a75acc75d9fcf6e0bc670b27b1dbcd2463502e10e68cf57d6fd9060ff90611abd565b3360009081527f64cc6f6f685b3276a90c73e0133bcdef2e020f1e725303b7d260892943ebae9e602052604090205460ff1615611c1057565b611cf96048611cc7611c2133612087565b611c9b611c2c612127565b6040519485937f416363657373436f6e74726f6c3a206163636f756e74200000000000000000006020860152611c6c815180926020603789019101610497565b84017f206973206d697373696e6720726f6c652000000000000000000000000000000060378201520190611e34565b037fffffffffffffffffffffffffffffffffffffffffffffffffffffffffffffffe08101835282610456565b6040519182917f08c379a0000000000000000000000000000000000000000000000000000000008352600483016104ba565b0390fd5b3360009081527fa4ac56bae9b924eb088a27052e4fc6397274f4bdc274811ef2e6d36f8b7ee61e602052604090205460ff1615611d3657565b611cf96048611cc7611d4733612087565b611c9b611c2c6121c4565b80600052606c60205260ff611d8b3360406000209073ffffffffffffffffffffffffffffffffffffffff16600052602052604060002090565b541615611d955750565b611d9e33612087565b611da6611f6e565b916030611db284611fc9565b536078611dbe84611fd6565b5360415b60018111611de157611cf96048611cc785611c9b88611c2c8815612022565b90600f8116906010821015611e2f577f3031323334353637383961626364656600000000000000000000000000000000611e2a921a611e208487611fe6565b5360041c91611ff7565b611dc2565b611f9a565b90611e4760209282815194859201610497565b0190565b9073ffffffffffffffffffffffffffffffffffffffff60406119bc93600090808252606c60205260ff611ea0868585209073ffffffffffffffffffffffffffffffffffffffff16600052602052604060002090565b5416611eb7575b8152609e602052209116906123ed565b808252606c602052611eeb858484209073ffffffffffffffffffffffffffffffffffffffff16600052602052604060002090565b7fffffffffffffffffffffffffffffffffffffffffffffffffffffffffffffff00815416905533848616827ff6391f5c32d9c69d2a47ea670b442974b53935d1edc7fd64eb21e047a839171b8580a4611ea7565b7f4e487b7100000000000000000000000000000000000000000000000000000000600052601160045260246000fd5b604051906080820182811067ffffffffffffffff82111761043d57604052604282526060366020840137565b7f4e487b7100000000000000000000000000000000000000000000000000000000600052603260045260246000fd5b805115611e2f5760200190565b805160011015611e2f5760210190565b908151811015611e2f570160200190565b8015610c8f577fffffffffffffffffffffffffffffffffffffffffffffffffffffffffffffffff0190565b1561202957565b60646040517f08c379a000000000000000000000000000000000000000000000000000000000815260206004820152602060248201527f537472696e67733a20686578206c656e67746820696e73756666696369656e746044820152fd5b604051906060820182811067ffffffffffffffff82111761043d57604052602a8252604036602084013760306120bc83611fc9565b5360786120c883611fd6565b536029905b600182116120e3576120e0915015612022565b90565b600f8116906010821015611e2f577f3031323334353637383961626364656600000000000000000000000000000000612121921a611e208486611fe6565b906120cd565b7f112e48a576fb3a75acc75d9fcf6e0bc670b27b1dbcd2463502e10e68cf57d6fd612150611f6e565b90603061215c83611fc9565b53607861216883611fd6565b536041905b60018211612180576120e0915015612022565b600f8116906010821015611e2f577f30313233343536373839616263646566000000000000000000000000000000006121be921a611e208486611fe6565b9061216d565b7fb9dacdf02281f2e98ddbadaaf44db270b3d5a916342df47c59f77937a6bcd5d86121ed611f6e565b9060306121f983611fc9565b53607861220583611fd6565b536041905b6001821161221d576120e0915015612022565b600f8116906010821015611e2f577f303132333435363738396162636465660000000000000000000000000000000061225b921a611e208486611fe6565b9061220a565b73ffffffffffffffffffffffffffffffffffffffff6120e09216906122d5565b8054821015611e2f5760005260206000200190600090565b916122d1918354907fffffffffffffffffffffffffffffffffffffffffffffffffffffffffffffffff9060031b92831b921b19161790565b9055565b60018101908260005281602052604060002054156000146123615780546801000000000000000081101561043d5761234c612317826001879401855584612281565b81939154907fffffffffffffffffffffffffffffffffffffffffffffffffffffffffffffffff9060031b92831b921b19161790565b90555491600052602052604060002055600190565b505050600090565b91908203918211610c8f57565b80549081156123be577fffffffffffffffffffffffffffffffffffffffffffffffffffffffffffffffff809201916123ae8383612281565b909182549160031b1b1916905555565b7f4e487b7100000000000000000000000000000000000000000000000000000000600052603160045260246000fd5b60018101918060005282602052604060002054928315156000146124b7577fffffffffffffffffffffffffffffffffffffffffffffffffffffffffffffffff9283850190858211610c8f578054948501948511610c8f57600095858361245f9461246e9803612474575b505050612376565b90600052602052604060002090565b55600190565b61249e612498916124886124ae9487612281565b90549060031b1c92839187612281565b90612299565b8590600052602052604060002090565b55388080612457565b50505050600090565b156124c757565b60846040517f08c379a000000000000000000000000000000000000000000000000000000000815260206004820152602e60248201527f496e697469616c697a61626c653a20636f6e747261637420697320616c72656160448201527f647920696e697469616c697a65640000000000000000000000000000000000006064820152fd5b61255c60ff60005460081c16612768565b805167ffffffffffffffff811161043d576001916125838261257e855461039f565b612d5a565b60209081601f8411600114612696575093612613938361263b97946125e5946111819b9a9860009261268b575b50507fffffffffffffffffffffffffffffffffffffffffffffffffffffffffffffffff82841b9260031b1c1916179055612e3f565b60ff167fffffffffffffffffffffffffffffffffffffffffffffffffffffffffffffff006003541617600355565b61261b6127f3565b61262433611954565b61262d33611a4a565b61263681611954565b611a4a565b61264481611b60565b7fffffffffffffffffffffff0000000000000000000000000000000000000000ff74ffffffffffffffffffffffffffffffffffffffff0060d0549260081b1691161760d055565b0151905038806125b0565b600160005291907fffffffffffffffffffffffffffffffffffffffffffffffffffffffffffffffe084167fb10e2d527612073b26eecdfd717e6a320cf44b4afac2b0732d9fcbe2b7fa0cf6936000905b82821061275157505094846125e5946111819b9a9894839461263b9b986126139a1061271a575b505050811b019055612e3f565b01517fffffffffffffffffffffffffffffffffffffffffffffffffffffffffffffffff60f88460031b161c1916905538808061270d565b8088869782949787015181550196019401906126e6565b1561276f57565b60846040517f08c379a000000000000000000000000000000000000000000000000000000000815260206004820152602b60248201527f496e697469616c697a61626c653a20636f6e7472616374206973206e6f74206960448201527f6e697469616c697a696e670000000000000000000000000000000000000000006064820152fd5b61118160ff60005460081c16612768565b6040519061281182610421565b60d15460ff161515825260d2546020830152565b73ffffffffffffffffffffffffffffffffffffffff1660005260056020526120e0604060002054610742612804565b919060ff600354169061286e60ff60005460081c16612768565b83519367ffffffffffffffff851161043d576001906128918661257e845461039f565b60209081601f88116001146128ea575095806125e5949392611181979860009261268b5750507fffffffffffffffffffffffffffffffffffffffffffffffffffffffffffffffff82841b9260031b1c1916179055612e3f565b600160005291907fffffffffffffffffffffffffffffffffffffffffffffffffffffffffffffffe088167fb10e2d527612073b26eecdfd717e6a320cf44b4afac2b0732d9fcbe2b7fa0cf6936000905b828210612966575050928493928992611181999a6125e59897951061271a57505050811b019055612e3f565b80878697829497870151815501960194019061293a565b156129855750565b611cf9906040519182917f08c379a0000000000000000000000000000000000000000000000000000000008352600483016104ba565b909291926129c7611cfd565b6129cf612b94565b6129e5670de0b6b3a7640000918285101561297d565b8203612b09575050612a1a7fffffffffffffffffffffffffffffffffffffffffffffffffffffffffffffff0060d0541660d055565b612a5f612a25611174565b6000808252602090910181905260d180547fffffffffffffffffffffffffffffffffffffffffffffffffffffffffffffff0016905560d255565b60005b818110612a6e57505050565b612aa0612a87612a87612a82848688612bcd565b612bdd565b73ffffffffffffffffffffffffffffffffffffffff1690565b90813b1561038f57600080926004604051809581937ffff6cae90000000000000000000000000000000000000000000000000000000083525af19182156116be57600192612af0575b5001612a62565b80612afd612b0392610442565b80610394565b38612ae9565b612b8f91612b3d60017fffffffffffffffffffffffffffffffffffffffffffffffffffffffffffffff0060d054161760d055565b612b4f612b48611174565b9215158352565b60208201526020908051151560ff7fffffffffffffffffffffffffffffffffffffffffffffffffffffffffffffff0060d1541691161760d155015160d255565b612a5f565b60405190612ba182610421565b600382527f35303000000000000000000000000000000000000000000000000000000000006020830152565b9190811015611e2f5760051b0190565b356120e08161061f565b6040513d6000823e3d90fd5b9190612c40612c0184612825565b83111560405190612c1182610421565b600382527f3130370000000000000000000000000000000000000000000000000000000000602083015261297d565b612c4b611027612804565b9273ffffffffffffffffffffffffffffffffffffffff80911692836000526005602052604060002091825493868503948511610c8f577fddf252ad1be2c89b69c2b068fc378daa952ba7f163c4a11628f55a4df523b3ef9460209455169485600052600583526040600020908154019055604051908152a3600190565b906020810151908115612ced575115612ce4576120e091612d13565b6120e091612cf2565b505090565b81810291818304149015176001161561038f57670de0b6b3a7640000900490565b670de0b6b3a7640000908181029181830414901517821515161561038f570490565b906020810151908115612ced575115612d51576120e091612cf2565b6120e091612d13565b90601f8211612d67575050565b6001916000908382527fb10e2d527612073b26eecdfd717e6a320cf44b4afac2b0732d9fcbe2b7fa0cf6906020601f850160051c83019410612dc4575b601f0160051c01915b828110612dba5750505050565b8181558301612dad565b9092508290612da4565b601f8111612dda575050565b600090600282527f405787fa12a823e0f2b7631cc41b3ba8828b3321ca811111fa75cd3aa3bb5ace906020601f850160051c83019410612e35575b601f0160051c01915b828110612e2a57505050565b818155600101612e1e565b9092508290612e15565b90815167ffffffffffffffff811161043d57612e6581612e6060025461039f565b612dce565b602080601f8311600114612ebe5750819293600092612eb3575b50507fffffffffffffffffffffffffffffffffffffffffffffffffffffffffffffffff8260011b9260031b1c191617600255565b015190503880612e7f565b907fffffffffffffffffffffffffffffffffffffffffffffffffffffffffffffffe0831694612f0f60026000527f405787fa12a823e0f2b7631cc41b3ba8828b3321ca811111fa75cd3aa3bb5ace90565b926000905b878210612f6a575050836001959610612f33575b505050811b01600255565b01517fffffffffffffffffffffffffffffffffffffffffffffffffffffffffffffffff60f88460031b161c19169055388080612f28565b80600185968294968601518155019501930190612f14565b15612f8957565b60646040517f08c379a000000000000000000000000000000000000000000000000000000000815260206004820152601760248201527f5045524d49545f444541444c494e455f455850495245440000000000000000006044820152fd5b15612fee57565b60646040517f08c379a000000000000000000000000000000000000000000000000000000000815260206004820152600e60248201527f494e56414c49445f5349474e45520000000000000000000000000000000000006044820152fd5b6000467f00000000000000000000000000000000000000000000000000000000000000000361309a57507f000000000000000000000000000000000000000000000000000000000000000090565b60405181906001918254926130ae8461039f565b90818452602095868501958783821691826000146131b657505060011461315e575b50505091816130e761315893611c9b950382610456565b519020604080517f8b73c3c69bb8fe3d512ecc4cf759cc79239f7b179b0ffacaa9a75d522b39400f95810195865260208601929092527fc89efdaa54c0f20c7adf612882df0950f5a951637e0307cdcb4c672f298b8bc69085015246606085015230608085015291829060a0850190565b51902090565b91908693508083527fb10e2d527612073b26eecdfd717e6a320cf44b4afac2b0732d9fcbe2b7fa0cf65b8284106131a157505050820101816130e76131586130d0565b80548685018601528794909301928101613188565b7fffffffffffffffffffffffffffffffffffffffffffffffffffffffffffffff0016885293151560051b860190930193508492506130e7915061315890506130d056fea2646970667358221220f7a44ac20b81431c3114efabda8ab265e75642f59c2fa6c07375d30b842acfdc64736f6c63430008130033",
  "devdoc": {
    "author": "Kresko",
    "events": {
      "Initialized(uint8)": {
        "details": "Triggered when the contract has been initialized or reinitialized."
      },
      "RoleAdminChanged(bytes32,bytes32,bytes32)": {
        "details": "Emitted when `newAdminRole` is set as ``role``'s admin role, replacing `previousAdminRole` `DEFAULT_ADMIN_ROLE` is the starting admin for all roles, despite {RoleAdminChanged} not being emitted signaling this. _Available since v3.1._"
      },
      "RoleGranted(bytes32,address,address)": {
        "details": "Emitted when `account` is granted `role`. `sender` is the account that originated the contract call, an admin role bearer except when using {AccessControl-_setupRole}."
      },
      "RoleRevoked(bytes32,address,address)": {
        "details": "Emitted when `account` is revoked `role`. `sender` is the account that originated the contract call:   - if using `revokeRole`, it is the admin role bearer   - if using `renounceRole`, it is the role bearer (i.e. `account`)"
      }
    },
    "kind": "dev",
    "methods": {
      "burn(address,uint256)": {
        "details": "Only callable by operator.Internal balances are always unrebased, events emitted are not.",
        "params": {
          "_amount": "The amount of tokens to burn.",
          "_from": "The address to burn tokens from."
        }
      },
      "getRoleAdmin(bytes32)": {
        "details": "Returns the admin role that controls `role`. See {grantRole} and {revokeRole}. To change a role's admin, use {_setRoleAdmin}."
      },
      "getRoleMember(bytes32,uint256)": {
        "details": "Returns one of the accounts that have `role`. `index` must be a value between 0 and {getRoleMemberCount}, non-inclusive. Role bearers are not sorted in any particular way, and their ordering may change at any point. WARNING: When using {getRoleMember} and {getRoleMemberCount}, make sure you perform all queries on the same block. See the following https://forum.openzeppelin.com/t/iterating-over-elements-on-enumerableset-in-openzeppelin-contracts/2296[forum post] for more information."
      },
      "getRoleMemberCount(bytes32)": {
        "details": "Returns the number of accounts that have `role`. Can be used together with {getRoleMember} to enumerate all bearers of a role."
      },
      "grantRole(bytes32,address)": {
        "details": "Grants `role` to `account`. If `account` had not been already granted `role`, emits a {RoleGranted} event. Requirements: - the caller must have ``role``'s admin role. May emit a {RoleGranted} event."
      },
      "hasRole(bytes32,address)": {
        "details": "Returns `true` if `account` has been granted `role`."
      },
      "initialize(string,string,uint8,address,address)": {
        "details": "Intended to be operated by the Kresko smart contract.",
        "params": {
          "_admin": "The adminstrator of this contract.",
          "_decimals": "Decimals for the asset.",
          "_kresko": "The protocol, can perform mint and burn.",
          "_name": "The name of the KreskoAsset.",
          "_symbol": "The symbol of the KreskoAsset."
        }
      },
      "mint(address,uint256)": {
        "details": "Only callable by operator.Internal balances are always unrebased, events emitted are not.",
        "params": {
          "_amount": "The amount of tokens to mint.",
          "_to": "The address to mint tokens to."
        }
      },
      "rebase(uint256,bool,address[])": {
        "details": "denumerator values 0 and 1 ether will disable the rebase",
        "params": {
          "_denominator": "the denumerator for the operator, 1 ether = 1",
          "_pools": "UniswapV2Pair address to sync so we wont get rekt by skim() calls.",
          "_positive": "supply increasing/reducing rebase"
        }
      },
      "reinitializeERC20(string,string,uint8)": {
        "params": {
          "_name": "new name for the asset",
          "_symbol": "new symbol for the asset",
          "_version": "number that must be greater than latest emitted `Initialized` version"
        }
      },
      "renounceRole(bytes32,address)": {
        "details": "Revokes `role` from the calling account. Roles are often managed via {grantRole} and {revokeRole}: this function's purpose is to provide a mechanism for accounts to lose their privileges if they are compromised (such as when a trusted device is misplaced). If the calling account had been revoked `role`, emits a {RoleRevoked} event. Requirements: - the caller must be `account`. May emit a {RoleRevoked} event."
      },
      "revokeRole(bytes32,address)": {
        "details": "Revokes `role` from `account`. If `account` had been granted `role`, emits a {RoleRevoked} event. Requirements: - the caller must have ``role``'s admin role. May emit a {RoleRevoked} event."
      },
      "supportsInterface(bytes4)": {
        "details": "Interface identification is specified in ERC-165. This function  uses less than 30,000 gas.",
        "params": {
          "interfaceId": "The interface identifier, as specified in ERC-165"
        },
        "returns": {
          "_0": "`true` if the contract implements `interfaceID` and  `interfaceID` is not 0xffffffff, `false` otherwise"
        }
      }
    },
    "title": "Kresko Synthethic Asset - rebasing ERC20.",
    "version": 1
  },
  "userdoc": {
    "kind": "user",
    "methods": {
      "balanceOf(address)": {
        "notice": "Returns the balance of @param _accountThis amount is adjusted by rebases."
      },
      "burn(address,uint256)": {
        "notice": "Burns tokens from an address."
      },
      "initialize(string,string,uint8,address,address)": {
        "notice": "Initializes a KreskoAsset ERC20 token."
      },
      "mint(address,uint256)": {
        "notice": "Mints tokens to an address."
      },
      "rebase(uint256,bool,address[])": {
        "notice": "Perform a rebase, changing the denumerator and its operator"
      },
      "reinitializeERC20(string,string,uint8)": {
        "notice": "Updates ERC20 metadata for the token in case eg. a ticker change"
      },
      "supportsInterface(bytes4)": {
        "notice": "Query if a contract implements an interface"
      },
      "totalSupply()": {
        "notice": "Returns the total supply of the token.This amount is adjusted by rebases."
      }
    },
    "notice": "Rebases to adjust for stock splits and reverse stock splitsMinting, burning and rebasing can only be performed by the `Role.OPERATOR`",
    "version": 1
  },
  "storageLayout": {
    "storage": [
      {
        "astId": 2024,
        "contract": "src/contracts/kreskoasset/KreskoAsset.sol:KreskoAsset",
        "label": "_initialized",
        "offset": 0,
        "slot": "0",
        "type": "t_uint8"
      },
      {
        "astId": 2027,
        "contract": "src/contracts/kreskoasset/KreskoAsset.sol:KreskoAsset",
        "label": "_initializing",
        "offset": 1,
        "slot": "0",
        "type": "t_bool"
      },
      {
        "astId": 28859,
        "contract": "src/contracts/kreskoasset/KreskoAsset.sol:KreskoAsset",
        "label": "name",
        "offset": 0,
        "slot": "1",
        "type": "t_string_storage"
      },
      {
        "astId": 28861,
        "contract": "src/contracts/kreskoasset/KreskoAsset.sol:KreskoAsset",
        "label": "symbol",
        "offset": 0,
        "slot": "2",
        "type": "t_string_storage"
      },
      {
        "astId": 28863,
        "contract": "src/contracts/kreskoasset/KreskoAsset.sol:KreskoAsset",
        "label": "decimals",
        "offset": 0,
        "slot": "3",
        "type": "t_uint8"
      },
      {
        "astId": 28865,
        "contract": "src/contracts/kreskoasset/KreskoAsset.sol:KreskoAsset",
        "label": "_totalSupply",
        "offset": 0,
        "slot": "4",
        "type": "t_uint256"
      },
      {
        "astId": 28869,
        "contract": "src/contracts/kreskoasset/KreskoAsset.sol:KreskoAsset",
        "label": "_balances",
        "offset": 0,
        "slot": "5",
        "type": "t_mapping(t_address,t_uint256)"
      },
      {
        "astId": 28875,
        "contract": "src/contracts/kreskoasset/KreskoAsset.sol:KreskoAsset",
        "label": "_allowances",
        "offset": 0,
        "slot": "6",
        "type": "t_mapping(t_address,t_mapping(t_address,t_uint256))"
      },
      {
        "astId": 28879,
        "contract": "src/contracts/kreskoasset/KreskoAsset.sol:KreskoAsset",
        "label": "nonces",
        "offset": 0,
        "slot": "7",
        "type": "t_mapping(t_address,t_uint256)"
      },
      {
        "astId": 2711,
        "contract": "src/contracts/kreskoasset/KreskoAsset.sol:KreskoAsset",
        "label": "__gap",
        "offset": 0,
        "slot": "8",
        "type": "t_array(t_uint256)50_storage"
      },
      {
        "astId": 2930,
        "contract": "src/contracts/kreskoasset/KreskoAsset.sol:KreskoAsset",
        "label": "__gap",
        "offset": 0,
        "slot": "58",
        "type": "t_array(t_uint256)50_storage"
      },
      {
        "astId": 1623,
        "contract": "src/contracts/kreskoasset/KreskoAsset.sol:KreskoAsset",
        "label": "_roles",
        "offset": 0,
        "slot": "108",
        "type": "t_mapping(t_bytes32,t_struct(RoleData)1618_storage)"
      },
      {
        "astId": 1918,
        "contract": "src/contracts/kreskoasset/KreskoAsset.sol:KreskoAsset",
        "label": "__gap",
        "offset": 0,
        "slot": "109",
        "type": "t_array(t_uint256)49_storage"
      },
      {
        "astId": 1472,
        "contract": "src/contracts/kreskoasset/KreskoAsset.sol:KreskoAsset",
        "label": "_roleMembers",
        "offset": 0,
        "slot": "158",
        "type": "t_mapping(t_bytes32,t_struct(AddressSet)4134_storage)"
      },
      {
        "astId": 1582,
        "contract": "src/contracts/kreskoasset/KreskoAsset.sol:KreskoAsset",
        "label": "__gap",
        "offset": 0,
        "slot": "159",
        "type": "t_array(t_uint256)49_storage"
      },
      {
        "astId": 12864,
        "contract": "src/contracts/kreskoasset/KreskoAsset.sol:KreskoAsset",
        "label": "isRebased",
        "offset": 0,
        "slot": "208",
        "type": "t_bool"
      },
      {
        "astId": 12866,
        "contract": "src/contracts/kreskoasset/KreskoAsset.sol:KreskoAsset",
        "label": "kresko",
        "offset": 1,
        "slot": "208",
        "type": "t_address"
      },
      {
        "astId": 12869,
        "contract": "src/contracts/kreskoasset/KreskoAsset.sol:KreskoAsset",
        "label": "_rebaseInfo",
        "offset": 0,
        "slot": "209",
        "type": "t_struct(Rebase)12604_storage"
      }
    ],
    "types": {
      "t_address": {
        "encoding": "inplace",
        "label": "address",
        "numberOfBytes": "20"
      },
      "t_array(t_bytes32)dyn_storage": {
        "base": "t_bytes32",
        "encoding": "dynamic_array",
        "label": "bytes32[]",
        "numberOfBytes": "32"
      },
      "t_array(t_uint256)49_storage": {
        "base": "t_uint256",
        "encoding": "inplace",
        "label": "uint256[49]",
        "numberOfBytes": "1568"
      },
      "t_array(t_uint256)50_storage": {
        "base": "t_uint256",
        "encoding": "inplace",
        "label": "uint256[50]",
        "numberOfBytes": "1600"
      },
      "t_bool": {
        "encoding": "inplace",
        "label": "bool",
        "numberOfBytes": "1"
      },
      "t_bytes32": {
        "encoding": "inplace",
        "label": "bytes32",
        "numberOfBytes": "32"
      },
      "t_mapping(t_address,t_bool)": {
        "encoding": "mapping",
        "key": "t_address",
        "label": "mapping(address => bool)",
        "numberOfBytes": "32",
        "value": "t_bool"
      },
      "t_mapping(t_address,t_mapping(t_address,t_uint256))": {
        "encoding": "mapping",
        "key": "t_address",
        "label": "mapping(address => mapping(address => uint256))",
        "numberOfBytes": "32",
        "value": "t_mapping(t_address,t_uint256)"
      },
      "t_mapping(t_address,t_uint256)": {
        "encoding": "mapping",
        "key": "t_address",
        "label": "mapping(address => uint256)",
        "numberOfBytes": "32",
        "value": "t_uint256"
      },
      "t_mapping(t_bytes32,t_struct(AddressSet)4134_storage)": {
        "encoding": "mapping",
        "key": "t_bytes32",
        "label": "mapping(bytes32 => struct EnumerableSetUpgradeable.AddressSet)",
        "numberOfBytes": "32",
        "value": "t_struct(AddressSet)4134_storage"
      },
      "t_mapping(t_bytes32,t_struct(RoleData)1618_storage)": {
        "encoding": "mapping",
        "key": "t_bytes32",
        "label": "mapping(bytes32 => struct AccessControlUpgradeable.RoleData)",
        "numberOfBytes": "32",
        "value": "t_struct(RoleData)1618_storage"
      },
      "t_mapping(t_bytes32,t_uint256)": {
        "encoding": "mapping",
        "key": "t_bytes32",
        "label": "mapping(bytes32 => uint256)",
        "numberOfBytes": "32",
        "value": "t_uint256"
      },
      "t_string_storage": {
        "encoding": "bytes",
        "label": "string",
        "numberOfBytes": "32"
      },
      "t_struct(AddressSet)4134_storage": {
        "encoding": "inplace",
        "label": "struct EnumerableSetUpgradeable.AddressSet",
        "members": [
          {
            "astId": 4133,
            "contract": "src/contracts/kreskoasset/KreskoAsset.sol:KreskoAsset",
            "label": "_inner",
            "offset": 0,
            "slot": "0",
            "type": "t_struct(Set)3819_storage"
          }
        ],
        "numberOfBytes": "64"
      },
      "t_struct(Rebase)12604_storage": {
        "encoding": "inplace",
        "label": "struct IKreskoAsset.Rebase",
        "members": [
          {
            "astId": 12601,
            "contract": "src/contracts/kreskoasset/KreskoAsset.sol:KreskoAsset",
            "label": "positive",
            "offset": 0,
            "slot": "0",
            "type": "t_bool"
          },
          {
            "astId": 12603,
            "contract": "src/contracts/kreskoasset/KreskoAsset.sol:KreskoAsset",
            "label": "denominator",
            "offset": 0,
            "slot": "1",
            "type": "t_uint256"
          }
        ],
        "numberOfBytes": "64"
      },
      "t_struct(RoleData)1618_storage": {
        "encoding": "inplace",
        "label": "struct AccessControlUpgradeable.RoleData",
        "members": [
          {
            "astId": 1615,
            "contract": "src/contracts/kreskoasset/KreskoAsset.sol:KreskoAsset",
            "label": "members",
            "offset": 0,
            "slot": "0",
            "type": "t_mapping(t_address,t_bool)"
          },
          {
            "astId": 1617,
            "contract": "src/contracts/kreskoasset/KreskoAsset.sol:KreskoAsset",
            "label": "adminRole",
            "offset": 0,
            "slot": "1",
            "type": "t_bytes32"
          }
        ],
        "numberOfBytes": "64"
      },
      "t_struct(Set)3819_storage": {
        "encoding": "inplace",
        "label": "struct EnumerableSetUpgradeable.Set",
        "members": [
          {
            "astId": 3814,
            "contract": "src/contracts/kreskoasset/KreskoAsset.sol:KreskoAsset",
            "label": "_values",
            "offset": 0,
            "slot": "0",
            "type": "t_array(t_bytes32)dyn_storage"
          },
          {
            "astId": 3818,
            "contract": "src/contracts/kreskoasset/KreskoAsset.sol:KreskoAsset",
            "label": "_indexes",
            "offset": 0,
            "slot": "1",
            "type": "t_mapping(t_bytes32,t_uint256)"
          }
        ],
        "numberOfBytes": "64"
      },
      "t_uint256": {
        "encoding": "inplace",
        "label": "uint256",
        "numberOfBytes": "32"
      },
      "t_uint8": {
        "encoding": "inplace",
        "label": "uint8",
        "numberOfBytes": "1"
      }
    }
  }
}