{
  "address": "0xD409f9CE4037C06e6143580eF36a8fb5F275AD4A",
  "abi": [
    {
      "anonymous": false,
      "inputs": [
        {
          "indexed": true,
          "internalType": "address",
          "name": "user",
          "type": "address"
        },
        {
          "indexed": true,
          "internalType": "address",
          "name": "rewardToken",
          "type": "address"
        },
        {
          "indexed": true,
          "internalType": "uint256",
          "name": "amount",
          "type": "uint256"
        }
      ],
      "name": "ClaimRewards",
      "type": "event"
    },
    {
      "anonymous": false,
      "inputs": [
        {
          "indexed": true,
          "internalType": "address",
          "name": "user",
          "type": "address"
        },
        {
          "indexed": true,
          "internalType": "uint256",
          "name": "pid",
          "type": "uint256"
        },
        {
          "indexed": true,
          "internalType": "uint256",
          "name": "amount",
          "type": "uint256"
        }
      ],
      "name": "Deposit",
      "type": "event"
    },
    {
      "anonymous": false,
      "inputs": [
        {
          "indexed": true,
          "internalType": "address",
          "name": "user",
          "type": "address"
        },
        {
          "indexed": true,
          "internalType": "uint256",
          "name": "pid",
          "type": "uint256"
        },
        {
          "indexed": true,
          "internalType": "uint256",
          "name": "amount",
          "type": "uint256"
        }
      ],
      "name": "EmergencyWithdraw",
      "type": "event"
    },
    {
      "anonymous": false,
      "inputs": [
        {
          "indexed": false,
          "internalType": "uint8",
          "name": "version",
          "type": "uint8"
        }
      ],
      "name": "Initialized",
      "type": "event"
    },
    {
      "anonymous": false,
      "inputs": [
        {
          "indexed": true,
          "internalType": "uint256",
          "name": "pid",
          "type": "uint256"
        },
        {
          "indexed": true,
          "internalType": "uint256",
          "name": "allocPoint",
          "type": "uint256"
        }
      ],
      "name": "LogSetPool",
      "type": "event"
    },
    {
      "anonymous": false,
      "inputs": [
        {
          "indexed": true,
          "internalType": "bytes32",
          "name": "role",
          "type": "bytes32"
        },
        {
          "indexed": true,
          "internalType": "bytes32",
          "name": "previousAdminRole",
          "type": "bytes32"
        },
        {
          "indexed": true,
          "internalType": "bytes32",
          "name": "newAdminRole",
          "type": "bytes32"
        }
      ],
      "name": "RoleAdminChanged",
      "type": "event"
    },
    {
      "anonymous": false,
      "inputs": [
        {
          "indexed": true,
          "internalType": "bytes32",
          "name": "role",
          "type": "bytes32"
        },
        {
          "indexed": true,
          "internalType": "address",
          "name": "account",
          "type": "address"
        },
        {
          "indexed": true,
          "internalType": "address",
          "name": "sender",
          "type": "address"
        }
      ],
      "name": "RoleGranted",
      "type": "event"
    },
    {
      "anonymous": false,
      "inputs": [
        {
          "indexed": true,
          "internalType": "bytes32",
          "name": "role",
          "type": "bytes32"
        },
        {
          "indexed": true,
          "internalType": "address",
          "name": "account",
          "type": "address"
        },
        {
          "indexed": true,
          "internalType": "address",
          "name": "sender",
          "type": "address"
        }
      ],
      "name": "RoleRevoked",
      "type": "event"
    },
    {
      "anonymous": false,
      "inputs": [
        {
          "indexed": true,
          "internalType": "address",
          "name": "user",
          "type": "address"
        },
        {
          "indexed": true,
          "internalType": "uint256",
          "name": "pid",
          "type": "uint256"
        },
        {
          "indexed": true,
          "internalType": "uint256",
          "name": "amount",
          "type": "uint256"
        }
      ],
      "name": "Withdraw",
      "type": "event"
    },
    {
      "inputs": [],
      "name": "DEFAULT_ADMIN_ROLE",
      "outputs": [
        {
          "internalType": "bytes32",
          "name": "",
          "type": "bytes32"
        }
      ],
      "stateMutability": "view",
      "type": "function"
    },
    {
      "inputs": [],
      "name": "OPERATOR_ROLE",
      "outputs": [
        {
          "internalType": "bytes32",
          "name": "",
          "type": "bytes32"
        }
      ],
      "stateMutability": "view",
      "type": "function"
    },
    {
      "inputs": [
        {
          "internalType": "address[]",
          "name": "_rewardTokens",
          "type": "address[]"
        },
        {
          "internalType": "contract IERC20",
          "name": "_depositToken",
          "type": "address"
        },
        {
          "internalType": "uint128",
          "name": "_allocPoint",
          "type": "uint128"
        },
        {
          "internalType": "uint128",
          "name": "_startBlock",
          "type": "uint128"
        }
      ],
      "name": "addPool",
      "outputs": [],
      "stateMutability": "payable",
      "type": "function"
    },
    {
      "inputs": [
        {
          "internalType": "address",
          "name": "_account",
          "type": "address"
        }
      ],
      "name": "allPendingRewards",
      "outputs": [
        {
          "components": [
            {
              "internalType": "uint256",
              "name": "pid",
              "type": "uint256"
            },
            {
              "internalType": "address[]",
              "name": "tokens",
              "type": "address[]"
            },
            {
              "internalType": "uint256[]",
              "name": "amounts",
              "type": "uint256[]"
            }
          ],
          "internalType": "struct IKrStaking.Reward[]",
          "name": "allRewards",
          "type": "tuple[]"
        }
      ],
      "stateMutability": "view",
      "type": "function"
    },
    {
      "inputs": [
        {
          "internalType": "uint256",
          "name": "_pid",
          "type": "uint256"
        },
        {
          "internalType": "address",
          "name": "_rewardRecipient",
          "type": "address"
        }
      ],
      "name": "claim",
      "outputs": [],
      "stateMutability": "payable",
      "type": "function"
    },
    {
      "inputs": [
        {
          "internalType": "address",
          "name": "_for",
          "type": "address"
        },
        {
          "internalType": "uint256",
          "name": "_pid",
          "type": "uint256"
        },
        {
          "internalType": "address",
          "name": "_rewardRecipient",
          "type": "address"
        }
      ],
      "name": "claimFor",
      "outputs": [],
      "stateMutability": "payable",
      "type": "function"
    },
    {
      "inputs": [
        {
          "internalType": "address",
          "name": "_to",
          "type": "address"
        },
        {
          "internalType": "uint256",
          "name": "_pid",
          "type": "uint256"
        },
        {
          "internalType": "uint256",
          "name": "_amount",
          "type": "uint256"
        }
      ],
      "name": "deposit",
      "outputs": [],
      "stateMutability": "payable",
      "type": "function"
    },
    {
      "inputs": [
        {
          "internalType": "uint256",
          "name": "_pid",
          "type": "uint256"
        }
      ],
      "name": "emergencyWithdraw",
      "outputs": [],
      "stateMutability": "payable",
      "type": "function"
    },
    {
      "inputs": [
        {
          "internalType": "address",
          "name": "_depositToken",
          "type": "address"
        }
      ],
      "name": "getPidFor",
      "outputs": [
        {
          "internalType": "uint256",
          "name": "pid",
          "type": "uint256"
        },
        {
          "internalType": "bool",
          "name": "found",
          "type": "bool"
        }
      ],
      "stateMutability": "view",
      "type": "function"
    },
    {
      "inputs": [
        {
          "internalType": "bytes32",
          "name": "role",
          "type": "bytes32"
        }
      ],
      "name": "getRoleAdmin",
      "outputs": [
        {
          "internalType": "bytes32",
          "name": "",
          "type": "bytes32"
        }
      ],
      "stateMutability": "view",
      "type": "function"
    },
    {
      "inputs": [
        {
          "internalType": "bytes32",
          "name": "role",
          "type": "bytes32"
        },
        {
          "internalType": "address",
          "name": "account",
          "type": "address"
        }
      ],
      "name": "grantRole",
      "outputs": [],
      "stateMutability": "nonpayable",
      "type": "function"
    },
    {
      "inputs": [
        {
          "internalType": "bytes32",
          "name": "role",
          "type": "bytes32"
        },
        {
          "internalType": "address",
          "name": "account",
          "type": "address"
        }
      ],
      "name": "hasRole",
      "outputs": [
        {
          "internalType": "bool",
          "name": "",
          "type": "bool"
        }
      ],
      "stateMutability": "view",
      "type": "function"
    },
    {
      "inputs": [
        {
          "internalType": "address[]",
          "name": "_rewardTokens",
          "type": "address[]"
        },
        {
          "internalType": "uint256[]",
          "name": "_rewardPerBlocks",
          "type": "uint256[]"
        },
        {
          "internalType": "contract IERC20",
          "name": "_depositToken",
          "type": "address"
        },
        {
          "internalType": "uint128",
          "name": "_allocPoint",
          "type": "uint128"
        },
        {
          "internalType": "uint128",
          "name": "_startBlock",
          "type": "uint128"
        },
        {
          "internalType": "address",
          "name": "_admin",
          "type": "address"
        },
        {
          "internalType": "address",
          "name": "_operator",
          "type": "address"
        }
      ],
      "name": "initialize",
      "outputs": [],
      "stateMutability": "nonpayable",
      "type": "function"
    },
    {
      "inputs": [],
      "name": "massUpdatePools",
      "outputs": [],
      "stateMutability": "payable",
      "type": "function"
    },
    {
      "inputs": [
        {
          "internalType": "uint256",
          "name": "_pid",
          "type": "uint256"
        },
        {
          "internalType": "address",
          "name": "_user",
          "type": "address"
        }
      ],
      "name": "pendingRewards",
      "outputs": [
        {
          "components": [
            {
              "internalType": "uint256",
              "name": "pid",
              "type": "uint256"
            },
            {
              "internalType": "address[]",
              "name": "tokens",
              "type": "address[]"
            },
            {
              "internalType": "uint256[]",
              "name": "amounts",
              "type": "uint256[]"
            }
          ],
          "internalType": "struct IKrStaking.Reward",
          "name": "rewards",
          "type": "tuple"
        }
      ],
      "stateMutability": "view",
      "type": "function"
    },
    {
      "inputs": [
        {
          "internalType": "uint256",
          "name": "_pid",
          "type": "uint256"
        }
      ],
      "name": "poolInfo",
      "outputs": [
        {
          "components": [
            {
              "internalType": "contract IERC20",
              "name": "depositToken",
              "type": "address"
            },
            {
              "internalType": "uint128",
              "name": "allocPoint",
              "type": "uint128"
            },
            {
              "internalType": "uint128",
              "name": "lastRewardBlock",
              "type": "uint128"
            },
            {
              "internalType": "uint256[]",
              "name": "accRewardPerShares",
              "type": "uint256[]"
            },
            {
              "internalType": "address[]",
              "name": "rewardTokens",
              "type": "address[]"
            }
          ],
          "internalType": "struct IKrStaking.PoolInfo",
          "name": "",
          "type": "tuple"
        }
      ],
      "stateMutability": "view",
      "type": "function"
    },
    {
      "inputs": [],
      "name": "poolLength",
      "outputs": [
        {
          "internalType": "uint256",
          "name": "",
          "type": "uint256"
        }
      ],
      "stateMutability": "view",
      "type": "function"
    },
    {
      "inputs": [
        {
          "internalType": "bytes32",
          "name": "role",
          "type": "bytes32"
        },
        {
          "internalType": "address",
          "name": "account",
          "type": "address"
        }
      ],
      "name": "renounceRole",
      "outputs": [],
      "stateMutability": "nonpayable",
      "type": "function"
    },
    {
      "inputs": [],
      "name": "rescueNative",
      "outputs": [],
      "stateMutability": "payable",
      "type": "function"
    },
    {
      "inputs": [
        {
          "internalType": "contract IERC20",
          "name": "_tokenToRescue",
          "type": "address"
        },
        {
          "internalType": "uint256",
          "name": "_amount",
          "type": "uint256"
        }
      ],
      "name": "rescueNonPoolToken",
      "outputs": [],
      "stateMutability": "payable",
      "type": "function"
    },
    {
      "inputs": [
        {
          "internalType": "bytes32",
          "name": "role",
          "type": "bytes32"
        },
        {
          "internalType": "address",
          "name": "account",
          "type": "address"
        }
      ],
      "name": "revokeRole",
      "outputs": [],
      "stateMutability": "nonpayable",
      "type": "function"
    },
    {
      "inputs": [
        {
          "internalType": "address",
          "name": "",
          "type": "address"
        }
      ],
      "name": "rewardPerBlockFor",
      "outputs": [
        {
          "internalType": "uint256",
          "name": "",
          "type": "uint256"
        }
      ],
      "stateMutability": "view",
      "type": "function"
    },
    {
      "inputs": [
        {
          "internalType": "uint256",
          "name": "_pid",
          "type": "uint256"
        },
        {
          "internalType": "uint128",
          "name": "_newAllocPoint",
          "type": "uint128"
        }
      ],
      "name": "setPool",
      "outputs": [],
      "stateMutability": "payable",
      "type": "function"
    },
    {
      "inputs": [
        {
          "internalType": "address",
          "name": "_rewardToken",
          "type": "address"
        },
        {
          "internalType": "uint256",
          "name": "_rewardPerBlock",
          "type": "uint256"
        }
      ],
      "name": "setRewardPerBlockFor",
      "outputs": [],
      "stateMutability": "payable",
      "type": "function"
    },
    {
      "inputs": [
        {
          "internalType": "bytes4",
          "name": "interfaceId",
          "type": "bytes4"
        }
      ],
      "name": "supportsInterface",
      "outputs": [
        {
          "internalType": "bool",
          "name": "",
          "type": "bool"
        }
      ],
      "stateMutability": "view",
      "type": "function"
    },
    {
      "inputs": [],
      "name": "totalAllocPoint",
      "outputs": [
        {
          "internalType": "uint128",
          "name": "",
          "type": "uint128"
        }
      ],
      "stateMutability": "view",
      "type": "function"
    },
    {
      "inputs": [
        {
          "internalType": "uint256",
          "name": "_pid",
          "type": "uint256"
        }
      ],
      "name": "updatePool",
      "outputs": [
        {
          "components": [
            {
              "internalType": "contract IERC20",
              "name": "depositToken",
              "type": "address"
            },
            {
              "internalType": "uint128",
              "name": "allocPoint",
              "type": "uint128"
            },
            {
              "internalType": "uint128",
              "name": "lastRewardBlock",
              "type": "uint128"
            },
            {
              "internalType": "uint256[]",
              "name": "accRewardPerShares",
              "type": "uint256[]"
            },
            {
              "internalType": "address[]",
              "name": "rewardTokens",
              "type": "address[]"
            }
          ],
          "internalType": "struct IKrStaking.PoolInfo",
          "name": "pool",
          "type": "tuple"
        }
      ],
      "stateMutability": "payable",
      "type": "function"
    },
    {
      "inputs": [
        {
          "internalType": "uint256",
          "name": "_pid",
          "type": "uint256"
        },
        {
          "internalType": "address",
          "name": "_account",
          "type": "address"
        }
      ],
      "name": "userInfo",
      "outputs": [
        {
          "components": [
            {
              "internalType": "uint256",
              "name": "amount",
              "type": "uint256"
            },
            {
              "internalType": "uint256[]",
              "name": "rewardDebts",
              "type": "uint256[]"
            }
          ],
          "internalType": "struct IKrStaking.UserInfo",
          "name": "",
          "type": "tuple"
        }
      ],
      "stateMutability": "view",
      "type": "function"
    },
    {
      "inputs": [
        {
          "internalType": "uint256",
          "name": "_pid",
          "type": "uint256"
        },
        {
          "internalType": "uint256",
          "name": "_amount",
          "type": "uint256"
        },
        {
          "internalType": "address",
          "name": "_rewardRecipient",
          "type": "address"
        }
      ],
      "name": "withdraw",
      "outputs": [],
      "stateMutability": "payable",
      "type": "function"
    },
    {
      "inputs": [
        {
          "internalType": "address",
          "name": "_for",
          "type": "address"
        },
        {
          "internalType": "uint256",
          "name": "_pid",
          "type": "uint256"
        },
        {
          "internalType": "uint256",
          "name": "_amount",
          "type": "uint256"
        },
        {
          "internalType": "address",
          "name": "_rewardRecipient",
          "type": "address"
        }
      ],
      "name": "withdrawFor",
      "outputs": [],
      "stateMutability": "payable",
      "type": "function"
    }
  ],
  "transactionHash": "0x8f6f96fa70776e56397d49339b44c91ecdbc8190d6311987d0df893e1d05c0b4",
  "args": [],
  "numDeployments": 1,
  "solcInputHash": "2796721ae8ad06f4477f7f47306878f4",
  "bytecode": "0x60808060405234610016576138dd908161001c8239f35b600080fdfe608080604052600436101561001357600080fd5b60003560e01c90816301ffc9a714611d95575080630802f76814611be6578063081e3eda14611baa5780630ad58d2f14611a595780630dbd1a38146119f35780630efe6a8b1461177f5780631526fe271461173657806317caf6f1146116e8578063248a9ca31461169b5780632f2ff15d1461159e57806336568abe146114ba57806343a4534b146112a25780634d7ee6441461116457806351eb05a6146111205780635312ea8e14610ffb5780635ea3f4fa14610ea5578063630b5ba114610e5657806368e2f7b714610df1578063759be5151461066b57806391d14854146105f257806392bb9fbf1461055f57806393f1a40b146104b3578063a217fddf14610479578063ba8fc5bf146103d0578063bf82b7b514610379578063d18df53c1461031c578063d547741f146102bd578063ddd5e1b214610270578063f5b541a6146102175763fc82f0841461016957600080fd5b60007ffffffffffffffffffffffffffffffffffffffffffffffffffffffffffffffffc3601126102125761019b61205a565b600080808047335af16101ac6134be565b50156101b457005b60646040517f08c379a000000000000000000000000000000000000000000000000000000000815260206004820152601060248201527f5472616e73666572206661696c65642e000000000000000000000000000000006044820152fd5b600080fd5b346102125760007ffffffffffffffffffffffffffffffffffffffffffffffffffffffffffffffffc3601126102125760206040517f8952ae23cc3fea91b9dba0cefa16d18a26ca2bf124b54f42b5d04bce3aacecd28152f35b60407ffffffffffffffffffffffffffffffffffffffffffffffffffffffffffffffffc360112610212576102b66102a5611e82565b6102ad613326565b600435336137ec565b6001609755005b346102125760407ffffffffffffffffffffffffffffffffffffffffffffffffffffffffffffffffc3601126102125761031a6004356102fa611e82565b9080600052606560205261031560016040600020015461232c565b612585565b005b346102125760407ffffffffffffffffffffffffffffffffffffffffffffffffffffffffffffffffc36011261021257610375610361610359611e82565b600435612de2565b604051918291602083526020830190612026565b0390f35b60607ffffffffffffffffffffffffffffffffffffffffffffffffffffffffffffffffc360112610212576102b66103ae611ec8565b6103b6611ea5565b906103bf613326565b6103c761205a565b602435906137ec565b346102125760207ffffffffffffffffffffffffffffffffffffffffffffffffffffffffffffffffc36011261021257610407611ec8565b60008060cb549273ffffffffffffffffffffffffffffffffffffffff809116905b848410610441575b604080518581528415156020820152f35b909192828261044f8361290b565b5054161461046857610460906127fc565b929190610428565b925050506040915060018380610430565b346102125760007ffffffffffffffffffffffffffffffffffffffffffffffffffffffffffffffffc36011261021257602060405160008152f35b346102125760407ffffffffffffffffffffffffffffffffffffffffffffffffffffffffffffffffc360112610212576104ea611e82565b604051906104f7826124a6565b60008252606060208093015260043560005260c9825273ffffffffffffffffffffffffffffffffffffffff60406000209116600052815261053b6040600020612d63565b61037560405192839281845280518285015201516040808401526060830190611f0a565b60407ffffffffffffffffffffffffffffffffffffffffffffffffffffffffffffffffc36011261021257610591611ec8565b61059961205a565b60cb5473ffffffffffffffffffffffffffffffffffffffff8281169060005b8381106105cc5761031a60243533876135e0565b806105e884846105de6105ed9561290b565b5054161415613653565b6127fc565b6105b8565b346102125760407ffffffffffffffffffffffffffffffffffffffffffffffffffffffffffffffffc36011261021257610629611e82565b600435600052606560205273ffffffffffffffffffffffffffffffffffffffff60406000209116600052602052602060ff604060002054166040519015158152f35b346102125760e07ffffffffffffffffffffffffffffffffffffffffffffffffffffffffffffffffc3601126102125767ffffffffffffffff600435818111610212576106bb903690600401611e51565b91602435908111610212576106d4903690600401611e51565b9290916106df611ea5565b916106e8611eeb565b93608435906fffffffffffffffffffffffffffffffff821682036102125760a4359673ffffffffffffffffffffffffffffffffffffffff881688036102125760c43573ffffffffffffffffffffffffffffffffffffffff81168103610212576000549860ff8a60081c1615998a809b610de4575b8015610dcd575b15610d49578a60017fffffffffffffffffffffffffffffffffffffffffffffffffffffffffffffff00831617600055610d1a575b50858303610c96576107c260ff60005460081c166107b481612baa565b6107bd81612baa565b612baa565b60016097553360009081527fffdfc1249c027f9191656349feb0761381bb32c9f557e01f419fd08754bf5a1b602052604090205460ff1615610c14575b73ffffffffffffffffffffffffffffffffffffffff811660009081527fffdfc1249c027f9191656349feb0761381bb32c9f557e01f419fd08754bf5a1b602052604090205460ff1615610b7b575b5073ffffffffffffffffffffffffffffffffffffffff811660009081527f36445a9eff22e9b54d9de8c6cce3c202b8c41b22158fd9c5163f843551e37e7260205260409020547f8952ae23cc3fea91b9dba0cefa16d18a26ca2bf124b54f42b5d04bce3aacecd2919060ff1615610ade575b5080600052606560205260406000203360005260205260ff6040600020541615610a6c575b5060005b848110610a0357505050918161096094936fffffffffffffffffffffffffffffffff61091661095695612851565b9173ffffffffffffffffffffffffffffffffffffffff604051976109398961248a565b1687528189166020880152166040860152606085015236916128a0565b6080820152612b56565b7fffffffffffffffffffffffffffffffff000000000000000000000000000000006fffffffffffffffffffffffffffffffff6109a160cc5493828516612b86565b1691161760cc556109ae57005b7fffffffffffffffffffffffffffffffffffffffffffffffffffffffffffff00ff600054166000557f7f26b83ff96e1f2b6a682f133852f6798a09c465da95921460cefb3847402498602060405160018152a1005b610a0e818385612829565b3590610a1b818789612829565b359173ffffffffffffffffffffffffffffffffffffffff831683036102125773ffffffffffffffffffffffffffffffffffffffff610a67931660005260ca6020526040600020556127fc565b6108e8565b806000526065602052604060002033600052602052604060002060017fffffffffffffffffffffffffffffffffffffffffffffffffffffffffffffff00825416179055339033907f2f8788117e7eff1d82e926ec794901d17c78024a50270940304540a733656f0d600080a4886108e4565b816000526065602052604060002073ffffffffffffffffffffffffffffffffffffffff8216600052602052604060002060017fffffffffffffffffffffffffffffffffffffffffffffffffffffffffffffff0082541617905573ffffffffffffffffffffffffffffffffffffffff339116827f2f8788117e7eff1d82e926ec794901d17c78024a50270940304540a733656f0d600080a4896108bf565b73ffffffffffffffffffffffffffffffffffffffff1660008181527fffdfc1249c027f9191656349feb0761381bb32c9f557e01f419fd08754bf5a1b6020526040812080547fffffffffffffffffffffffffffffffffffffffffffffffffffffffffffffff001660011790553391907f2f8788117e7eff1d82e926ec794901d17c78024a50270940304540a733656f0d8180a48961084d565b3360008181527fffdfc1249c027f9191656349feb0761381bb32c9f557e01f419fd08754bf5a1b6020526040812080547fffffffffffffffffffffffffffffffffffffffffffffffffffffffffffffff0016600117905581907f2f8788117e7eff1d82e926ec794901d17c78024a50270940304540a733656f0d8180a46107ff565b60846040517f08c379a000000000000000000000000000000000000000000000000000000000815260206004820152602e60248201527f52657761726420746f6b656e73206d757374206861766520612072657761726460448201527f506572426c6f636b2076616c75650000000000000000000000000000000000006064820152fd5b7fffffffffffffffffffffffffffffffffffffffffffffffffffffffffffff000016610101176000558a610797565b60846040517f08c379a000000000000000000000000000000000000000000000000000000000815260206004820152602e60248201527f496e697469616c697a61626c653a20636f6e747261637420697320616c72656160448201527f647920696e697469616c697a65640000000000000000000000000000000000006064820152fd5b50303b1580156107635750600160ff821614610763565b50600160ff82161061075c565b346102125760207ffffffffffffffffffffffffffffffffffffffffffffffffffffffffffffffffc3601126102125773ffffffffffffffffffffffffffffffffffffffff610e3d611ec8565b1660005260ca6020526020604060002054604051908152f35b60007ffffffffffffffffffffffffffffffffffffffffffffffffffffffffffffffffc3601126102125760005b60cb5481101561031a5780610e9a610ea09261307d565b506127fc565b610e83565b34610212576020807ffffffffffffffffffffffffffffffffffffffffffffffffffffffffffffffffc36011261021257610edd611ec8565b60cb54610ee981612839565b91610ef760405193846124fa565b8183527fffffffffffffffffffffffffffffffffffffffffffffffffffffffffffffffe0610f2483612839565b018460005b828110610fe55750505060005b828110610fbd575050506040519082820192808352815180945260408301938160408260051b8601019301916000955b828710610f735785850386f35b909192938280610fad837fffffffffffffffffffffffffffffffffffffffffffffffffffffffffffffffc08a600196030186528851612026565b9601920196019592919092610f66565b80610fcb83610fe093612de2565b610fd58287612d88565b52610e9a8186612d88565b610f36565b610fed612c35565b828288010152018590610f29565b60207ffffffffffffffffffffffffffffffffffffffffffffffffffffffffffffffffc36011261021257600435611030613326565b61104261103c8261290b565b50612ca4565b908060005260c9602052604060002033600052602052604060002061108273ffffffffffffffffffffffffffffffffffffffff84511682549033906135e0565b600080825560019384830191859160800190825b6110cc575b505050505490337fbb757047c2b5f3974fe26b7c10f732e7bce710b0952a71082702781e62ae0595600080a4609755005b81515181101561111b57806110e4611115928661330e565b7fffffffffffffffffffffffffffffffffffffffffffffffffffffffffffffffff82549160031b1b191690556127fc565b82611096565b61109b565b60207ffffffffffffffffffffffffffffffffffffffffffffffffffffffffffffffffc3601126102125761037561115860043561307d565b60405191829182611f88565b60407ffffffffffffffffffffffffffffffffffffffffffffffffffffffffffffffffc36011261021257600435602435906fffffffffffffffffffffffffffffffff9182811692838203610212576111ba61205a565b6111e573ffffffffffffffffffffffffffffffffffffffff6111db8561290b565b50541615156132a9565b60cc54918160016111f58661290b565b5001541682841603908282116112735761120e91612b86565b167fffffffffffffffffffffffffffffffff000000000000000000000000000000008092161760cc558260016112438461290b565b5001918254161790557f942cc7e17a17c164bd977f32ab8c54265d5b9d481e4e352bf874f1e568874e7c600080a3005b7f4e487b7100000000000000000000000000000000000000000000000000000000600052601160045260246000fd5b60807ffffffffffffffffffffffffffffffffffffffffffffffffffffffffffffffffc360112610212576112d4611ec8565b602435604435906064359273ffffffffffffffffffffffffffffffffffffffff9283851680860361021257611307613326565b61130f61205a565b8190821561145c576113229015156136b8565b61132b8461307d565b918460005260c96020528560406000209416938460005260205261135d60406000209761135789612d63565b8561371d565b8654808211156114445750505061138085548095600088555b83511633906135e0565b60019480860191869160608201916080016000845b6113ca575b5050505050507ff279e6a1f5e320cca91135676d9cb6e44ca8a08c0b88342bcdb1144f6511b568600080a4609755005b81515181101561143f57611439906105e864e8d4a510006113f886546113f1858a51612d88565b5190612627565b04611403838a61330e565b9091907fffffffffffffffffffffffffffffffffffffffffffffffffffffffffffffffff83549160031b92831b921b1916179055565b84611395565b61139a565b956114558397926113809493612d9c565b8855611376565b60646040517f08c379a000000000000000000000000000000000000000000000000000000000815260206004820152600e60248201527f4b523a20302d77697468647261770000000000000000000000000000000000006044820152fd5b346102125760407ffffffffffffffffffffffffffffffffffffffffffffffffffffffffffffffffc360112610212576114f1611e82565b3373ffffffffffffffffffffffffffffffffffffffff82160361151a5761031a90600435612585565b60846040517f08c379a000000000000000000000000000000000000000000000000000000000815260206004820152602f60248201527f416363657373436f6e74726f6c3a2063616e206f6e6c792072656e6f756e636560448201527f20726f6c657320666f722073656c6600000000000000000000000000000000006064820152fd5b346102125760407ffffffffffffffffffffffffffffffffffffffffffffffffffffffffffffffffc360112610212576004356115d8611e82565b8160005260656020526115f260016040600020015461232c565b81600052606560205273ffffffffffffffffffffffffffffffffffffffff60406000209116908160005260205260ff604060002054161561162f57005b816000526065602052604060002081600052602052604060002060017fffffffffffffffffffffffffffffffffffffffffffffffffffffffffffffff0082541617905533917f2f8788117e7eff1d82e926ec794901d17c78024a50270940304540a733656f0d600080a4005b346102125760207ffffffffffffffffffffffffffffffffffffffffffffffffffffffffffffffffc3601126102125760043560005260656020526020600160406000200154604051908152f35b346102125760007ffffffffffffffffffffffffffffffffffffffffffffffffffffffffffffffffc3601126102125760206fffffffffffffffffffffffffffffffff60cc5416604051908152f35b346102125760207ffffffffffffffffffffffffffffffffffffffffffffffffffffffffffffffffc3601126102125761176d613050565b5061037561115861103c60043561290b565b60607ffffffffffffffffffffffffffffffffffffffffffffffffffffffffffffffffc360112610212576117b1611ec8565b6044356024356117bf613326565b6117c88161290b565b50926117ed73ffffffffffffffffffffffffffffffffffffffff8095541615156132a9565b6117f68261307d565b938260005260209460c9865281604060002093169283600052865260406000206001968782019384548015611955575b509161188084928a9594869551167f23b872dd00000000000000000000000000000000000000000000000000000000604051928301523360248301523060448301528a60648301526064825261187b8261248a565b613395565b61188b88825461263a565b905560006060608083019201925b6118cd575b50505050507f90890809c654f11d6e72a28fa60149770a0d11ec6c92319d6ceb2bb0a4ea1a15600080a4609755005b81515181101561195057806105e864e8d4a510006118f96118f261194a958851612d88565b518c612627565b04611916611907848a61330e565b91909283548360031b1c61263a565b907fffffffffffffffffffffffffffffffffffffffffffffffffffffffffffffffff83549160031b92831b921b1916179055565b83611899565b61189e565b611963608086015151612851565b9081519167ffffffffffffffff83116119c4576801000000000000000083116119c457611995838693818b558a612945565b0186600052836000208b60005b8481106119b25750505050611826565b86845194019381840155018c906119a2565b7f4e487b7100000000000000000000000000000000000000000000000000000000600052604160045260246000fd5b60407ffffffffffffffffffffffffffffffffffffffffffffffffffffffffffffffffc3601126102125773ffffffffffffffffffffffffffffffffffffffff611a3a611ec8565b611a4261205a565b1660005260ca602052602435604060002055600080f35b60607ffffffffffffffffffffffffffffffffffffffffffffffffffffffffffffffffc36011261021257600435602435611a91611ea5565b91611a9a613326565b81801561145c5773ffffffffffffffffffffffffffffffffffffffff92611ac484861615156136b8565b611acd8361307d565b918360005260c9602052604060002033600052602052611af560406000209661135788612d63565b855480821115611b9257505050611b1884548094600087555b33908451166135e0565b60019380850191859160608201916080016000845b611b60575b848888337ff279e6a1f5e320cca91135676d9cb6e44ca8a08c0b88342bcdb1144f6511b568600080a4609755005b815151811015611b8d57611b87906105e864e8d4a510006113f886546113f1858a51612d88565b84611b2d565b611b32565b94611ba3839692611b189493612d9c565b8755611b0e565b346102125760007ffffffffffffffffffffffffffffffffffffffffffffffffffffffffffffffffc36011261021257602060cb54604051908152f35b60807ffffffffffffffffffffffffffffffffffffffffffffffffffffffffffffffffc3601126102125760043567ffffffffffffffff811161021257611c30903690600401611e51565b90611c39611e82565b90604435906fffffffffffffffffffffffffffffffff9384831680840361021257611c62611eeb565b95611c6b61205a565b60cb5473ffffffffffffffffffffffffffffffffffffffff9687169660005b828110611d7e575050508215611d205761031a96610956957fffffffffffffffffffffffffffffffff0000000000000000000000000000000083611cd360cc5493828516612b86565b1691161760cc558181161515600014611d17575b611cf084612851565b9260405197611cfe8961248a565b88526020880152166040860152606085015236916128a0565b50804316611ce7565b60646040517f08c379a000000000000000000000000000000000000000000000000000000000815260206004820152601160248201527f4b523a2021726577617264546f6b656e730000000000000000000000000000006044820152fd5b806105e88a846105de611d909561290b565b611c8a565b346102125760207ffffffffffffffffffffffffffffffffffffffffffffffffffffffffffffffffc36011261021257600435907fffffffff00000000000000000000000000000000000000000000000000000000821680920361021257817f7965db0b0000000000000000000000000000000000000000000000000000000060209314908115611e27575b5015158152f35b7f01ffc9a70000000000000000000000000000000000000000000000000000000091501483611e20565b9181601f840112156102125782359167ffffffffffffffff8311610212576020808501948460051b01011161021257565b6024359073ffffffffffffffffffffffffffffffffffffffff8216820361021257565b6044359073ffffffffffffffffffffffffffffffffffffffff8216820361021257565b6004359073ffffffffffffffffffffffffffffffffffffffff8216820361021257565b606435906fffffffffffffffffffffffffffffffff8216820361021257565b90815180825260208080930193019160005b828110611f2a575050505090565b835185529381019392810192600101611f1c565b90815180825260208080930193019160005b828110611f5e575050505090565b835173ffffffffffffffffffffffffffffffffffffffff1685529381019392810192600101611f50565b90612023916020815273ffffffffffffffffffffffffffffffffffffffff82511660208201526fffffffffffffffffffffffffffffffff80602084015116604083015260408301511660608201526080611ff0606084015160a08385015260c0840190611f0a565b9201519060a07fffffffffffffffffffffffffffffffffffffffffffffffffffffffffffffffe082850301910152611f3e565b90565b612023918151815260406120496020840151606060208501526060840190611f3e565b920151906040818403910152611f0a565b3360009081527f36445a9eff22e9b54d9de8c6cce3c202b8c41b22158fd9c5163f843551e37e7260209081526040808320549092907f8952ae23cc3fea91b9dba0cefa16d18a26ca2bf124b54f42b5d04bce3aacecd29060ff16156120bf5750505050565b6120c833612687565b8451916120d4836124de565b604283528483019360603686378351156122ff57603085538351906001918210156122ff5790607860218601536041915b818311612234575050506121d8576121609385936121a4936121956048946121d4995198857f416363657373436f6e74726f6c3a206163636f756e74200000000000000000008b978801528251928391603789019101612467565b8401917f206973206d697373696e6720726f6c6520000000000000000000000000000000603784015251809386840190612467565b010360288101855201836124fa565b519182917f08c379a00000000000000000000000000000000000000000000000000000000083526004830161253b565b0390fd5b6064848651907f08c379a000000000000000000000000000000000000000000000000000000000825280600483015260248201527f537472696e67733a20686578206c656e67746820696e73756666696369656e746044820152fd5b909192600f811660108110156122d2577f3031323334353637383961626364656600000000000000000000000000000000901a6122718588612647565b5360041c9280156122a5577fffffffffffffffffffffffffffffffffffffffffffffffffffffffffffffffff019190612105565b6024827f4e487b710000000000000000000000000000000000000000000000000000000081526011600452fd5b6024837f4e487b710000000000000000000000000000000000000000000000000000000081526032600452fd5b807f4e487b7100000000000000000000000000000000000000000000000000000000602492526032600452fd5b600081815260209060658252604092838220338352835260ff8483205416156123555750505050565b61235e33612687565b84519161236a836124de565b604283528483019360603686378351156122ff57603085538351906001918210156122ff5790607860218601536041915b8183116123f6575050506121d8576121609385936121a4936121956048946121d4995198857f416363657373436f6e74726f6c3a206163636f756e74200000000000000000008b978801528251928391603789019101612467565b909192600f811660108110156122d2577f3031323334353637383961626364656600000000000000000000000000000000901a6124338588612647565b5360041c9280156122a5577fffffffffffffffffffffffffffffffffffffffffffffffffffffffffffffffff01919061239b565b60005b83811061247a5750506000910152565b818101518382015260200161246a565b60a0810190811067ffffffffffffffff8211176119c457604052565b6040810190811067ffffffffffffffff8211176119c457604052565b6060810190811067ffffffffffffffff8211176119c457604052565b6080810190811067ffffffffffffffff8211176119c457604052565b90601f7fffffffffffffffffffffffffffffffffffffffffffffffffffffffffffffffe0910116810190811067ffffffffffffffff8211176119c457604052565b7fffffffffffffffffffffffffffffffffffffffffffffffffffffffffffffffe0601f6040936020845261257e8151809281602088015260208888019101612467565b0116010190565b90600091808352606560205273ffffffffffffffffffffffffffffffffffffffff6040842092169182845260205260ff6040842054166125c457505050565b808352606560205260408320828452602052604083207fffffffffffffffffffffffffffffffffffffffffffffffffffffffffffffff0081541690557ff6391f5c32d9c69d2a47ea670b442974b53935d1edc7fd64eb21e047a839171b339380a4565b8181029291811591840414171561127357565b9190820180921161127357565b908151811015612658570160200190565b7f4e487b7100000000000000000000000000000000000000000000000000000000600052603260045260246000fd5b60405190612694826124c2565b602a82526020820160403682378251156126585760309053815160019081101561265857607860218401536029905b8082116127315750506126d35790565b60646040517f08c379a000000000000000000000000000000000000000000000000000000000815260206004820152602060248201527f537472696e67733a20686578206c656e67746820696e73756666696369656e746044820152fd5b9091600f811660108110156127ce577f3031323334353637383961626364656600000000000000000000000000000000901a61276d8486612647565b5360041c9180156127a0577fffffffffffffffffffffffffffffffffffffffffffffffffffffffffffffffff01906126c3565b602460007f4e487b710000000000000000000000000000000000000000000000000000000081526011600452fd5b602460007f4e487b710000000000000000000000000000000000000000000000000000000081526032600452fd5b7fffffffffffffffffffffffffffffffffffffffffffffffffffffffffffffffff81146112735760010190565b91908110156126585760051b0190565b67ffffffffffffffff81116119c45760051b60200190565b9061285b82612839565b61286860405191826124fa565b8281527fffffffffffffffffffffffffffffffffffffffffffffffffffffffffffffffe06128968294612839565b0190602036910137565b92916128ab82612839565b916128b960405193846124fa565b829481845260208094019160051b810192831161021257905b8282106128df5750505050565b813573ffffffffffffffffffffffffffffffffffffffff811681036102125781529083019083016128d2565b60cb548110156126585760cb60005260021b7fa7ce836d032b2bf62b7e2097a8e0a6d8aeb35405ad15271e96d3b0188a1d06fb0190600090565b909182811061295357505050565b60009182526020822092830192015b82811061296e57505050565b818155600101612962565b90612b275773ffffffffffffffffffffffffffffffffffffffff91828151167fffffffffffffffffffffffff00000000000000000000000000000000000000008354161782556020926fffffffffffffffffffffffffffffffff8483015116936040830151947fffffffffffffffffffffffffffffffff0000000000000000000000000000000060019660801b1617858501556002840191606084015180519567ffffffffffffffff968781116119c45768010000000000000000928382116119c4578590612a4d838954818b558a612945565b0160009687528587208a885b848110612b15575050505050600360809101950151908151968711612ae8578611612abb578290612a8f87875481895588612945565b01938352818320925b858110612aa85750505050505050565b8451821684820155938201938601612a98565b6024847f4e487b710000000000000000000000000000000000000000000000000000000081526041600452fd5b6024857f4e487b710000000000000000000000000000000000000000000000000000000081526041600452fd5b88845194019381840155018b90612a59565b7f4e487b7100000000000000000000000000000000000000000000000000000000600052600060045260246000fd5b60cb5490680100000000000000008210156119c457612b7e826001612b84940160cb5561290b565b90612979565b565b9190916fffffffffffffffffffffffffffffffff8080941691160191821161127357565b15612bb157565b60846040517f08c379a000000000000000000000000000000000000000000000000000000000815260206004820152602b60248201527f496e697469616c697a61626c653a20636f6e7472616374206973206e6f74206960448201527f6e697469616c697a696e670000000000000000000000000000000000000000006064820152fd5b60405190612c42826124c2565b6060604083600081528260208201520152565b9060405191828154918282526020928383019160005283600020936000905b828210612c8a57505050612b84925003836124fa565b855484526001958601958895509381019390910190612c74565b9060405191612cb28361248a565b8273ffffffffffffffffffffffffffffffffffffffff808354168252600192600384820154916020926fffffffffffffffffffffffffffffffff81168487015260801c6040860152612d0660028201612c55565b606086015201906040519485869483855492838152019460005283600020936000915b838310612d495750505050505060809291612d459103846124fa565b0152565b855481168752899750958101959484019491840191612d29565b90604051612d70816124a6565b6020612d83600183958054855201612c55565b910152565b80518210156126585760209160051b010190565b9190820391821161127357565b8115612db3570490565b7f4e487b7100000000000000000000000000000000000000000000000000000000600052601260045260246000fd5b602490929192612df0612c35565b50612dfd61103c8261290b565b938160005260c960205273ffffffffffffffffffffffffffffffffffffffff60406000209116600052602052612e366040600020612d63565b90602073ffffffffffffffffffffffffffffffffffffffff865116604051948580927f70a082310000000000000000000000000000000000000000000000000000000082523060048301525afa92831561304457600093613010575b50608085015191825192612ea584612851565b9060405193612eb3856124c2565b845260208401526040830152819584151580613006575b612ed6575b5050505050565b60cc546fffffffffffffffffffffffffffffffff1660005b858110612efc575050612ecf565b612f0a816060850151612d88565b519073ffffffffffffffffffffffffffffffffffffffff612f2f826080870151612d88565b511660005260ca602052612f9183612f8c612f6f604060002054612f696fffffffffffffffffffffffffffffffff60408b01511643612d9c565b90612627565b6fffffffffffffffffffffffffffffffff60208901511690612627565b612da9565b918264e8d4a5100081020464e8d4a5100014831517156112735764e8d4a51000612fd7612fd0612fed93612fca8d856130019902612da9565b9061263a565b8851612627565b04612fe6836020890151612d88565b5190612d9c565b612ffb826040890151612d88565b526127fc565b612eee565b5081511515612eca565b9092506020813d60201161303c575b8161302c602093836124fa565b8101031261021257519138612e92565b3d915061301f565b6040513d6000823e3d90fd5b6040519061305d8261248a565b606060808360008152600060208201526000604082015282808201520152565b90613086613050565b5061309361103c8361290b565b916fffffffffffffffffffffffffffffffff60408401511643116130b45750565b602073ffffffffffffffffffffffffffffffffffffffff845116604051918280927f70a0823100000000000000000000000000000000000000000000000000000000825230600483015260249384915afa91821561304457600092613272575b5081613142575b505082612b7e612b84926fffffffffffffffffffffffffffffffff4316604084015261290b565b9093916000906fffffffffffffffffffffffffffffffff60cc5416915b6080850151805182101561325f5761318c8273ffffffffffffffffffffffffffffffffffffffff92612d88565b511660005260ca6020526131e383612f8c6131c6604060002054612f696fffffffffffffffffffffffffffffffff60408c01511643612d9c565b6fffffffffffffffffffffffffffffffff60208a01511690612627565b64e8d4a51000908082810204821481151715613231578861322c93926132099202612da9565b612ffb8261322660608a0151936132208386612d88565b5161263a565b92612d88565b61315f565b857f4e487b710000000000000000000000000000000000000000000000000000000060005260116004526000fd5b509395509250849150612b7e905061311b565b90916020823d6020116132a1575b8161328d602093836124fa565b8101031261329e5750519038613114565b80fd5b3d9150613280565b156132b057565b60646040517f08c379a000000000000000000000000000000000000000000000000000000000815260206004820152600f60248201527f4b523a2021706f6f6c45786973747300000000000000000000000000000000006044820152fd5b80548210156126585760005260206000200190600090565b600260975414613337576002609755565b60646040517f08c379a000000000000000000000000000000000000000000000000000000000815260206004820152601f60248201527f5265656e7472616e637947756172643a207265656e7472616e742063616c6c006044820152fd5b73ffffffffffffffffffffffffffffffffffffffff16906134026040516133bb816124a6565b6020938482527f5361666545524332303a206c6f772d6c6576656c2063616c6c206661696c6564858301526000808587829751910182855af16133fc6134be565b9161351c565b805180613410575b50505050565b818491810103126134ba578201519081159182150361329e57506134365780808061340a565b608490604051907f08c379a00000000000000000000000000000000000000000000000000000000082526004820152602a60248201527f5361666545524332303a204552433230206f7065726174696f6e20646964206e60448201527f6f742073756363656564000000000000000000000000000000000000000000006064820152fd5b5080fd5b3d15613517573d9067ffffffffffffffff82116119c4576040519161350b60207fffffffffffffffffffffffffffffffffffffffffffffffffffffffffffffffe0601f84011601846124fa565b82523d6000602084013e565b606090565b919290156135975750815115613530575090565b3b156135395790565b60646040517f08c379a000000000000000000000000000000000000000000000000000000000815260206004820152601d60248201527f416464726573733a2063616c6c20746f206e6f6e2d636f6e74726163740000006044820152fd5b8251909150156135aa5750805190602001fd5b6121d4906040519182917f08c379a00000000000000000000000000000000000000000000000000000000083526004830161253b565b9173ffffffffffffffffffffffffffffffffffffffff604051927fa9059cbb000000000000000000000000000000000000000000000000000000006020850152166024830152604482015260448152608081019181831067ffffffffffffffff8411176119c457612b8492604052613395565b1561365a57565b60646040517f08c379a000000000000000000000000000000000000000000000000000000000815260206004820152600e60248201527f4b523a20706f6f6c4578697374730000000000000000000000000000000000006044820152fd5b156136bf57565b60646040517f08c379a000000000000000000000000000000000000000000000000000000000815260206004820152601460248201527f4b523a2021726577617264526563697069656e740000000000000000000000006044820152fd5b919290926000805b608085018051518210156137e35790613774918161376564e8d4a510006137568a6113f18560608f51930151612d88565b04612fe68360208d0151612d88565b9182613779575b5050506127fc565b613725565b6137b273ffffffffffffffffffffffffffffffffffffffff92826137ac868b876137a586829951612d88565b51166135e0565b51612d88565b51169086167f9aa05b3d70a9e3e2f004f039648839560576334fb45c81f91b6db03ad9e2efc98680a438818161376c565b50505050915050565b91909173ffffffffffffffffffffffffffffffffffffffff61381181841615156136b8565b61381a8461307d565b9360005260c960205260406000209116600052602052604060002090815461384157505050565b6138549061384e83612d63565b8461371d565b600180820192909160608201916080016000845b613875575b505050505050565b8151518110156138a25761389c906105e864e8d4a510006113f886546113f1858a51612d88565b84613868565b61386d56fea26469706673582212201beb828431d0f874be65c7f99d2dfb0de7e2e7e64fd71bf12d68525b0cbd1a8464736f6c63430008130033",
  "devdoc": {
    "events": {
      "Initialized(uint8)": {
        "details": "Triggered when the contract has been initialized or reinitialized."
      },
      "RoleAdminChanged(bytes32,bytes32,bytes32)": {
        "details": "Emitted when `newAdminRole` is set as ``role``'s admin role, replacing `previousAdminRole` `DEFAULT_ADMIN_ROLE` is the starting admin for all roles, despite {RoleAdminChanged} not being emitted signaling this. _Available since v3.1._"
      },
      "RoleGranted(bytes32,address,address)": {
        "details": "Emitted when `account` is granted `role`. `sender` is the account that originated the contract call, an admin role bearer except when using {AccessControl-_setupRole}."
      },
      "RoleRevoked(bytes32,address,address)": {
        "details": "Emitted when `account` is revoked `role`. `sender` is the account that originated the contract call:   - if using `revokeRole`, it is the admin role bearer   - if using `renounceRole`, it is the role bearer (i.e. `account`)"
      }
    },
    "kind": "dev",
    "methods": {
      "addPool(address[],address,uint128,uint128)": {
        "params": {
          "_allocPoint": "weight of rewards this pool receives",
          "_depositToken": "token to deposit for rewards",
          "_rewardTokens": "tokens to reward from this pool",
          "_startBlock": "block when rewards start"
        }
      },
      "allPendingRewards(address)": {
        "params": {
          "_account": "to get rewards for"
        },
        "returns": {
          "allRewards": "all pending rewards"
        }
      },
      "claim(uint256,address)": {
        "params": {
          "_pid": "id in `_poolInfo`",
          "_rewardRecipient": "address to send rewards to"
        }
      },
      "claimFor(address,uint256,address)": {
        "params": {
          "_for": "account to claim for",
          "_pid": "id in `_poolInfo`",
          "_rewardRecipient": "address that receives rewards"
        }
      },
      "deposit(address,uint256,uint256)": {
        "params": {
          "_amount": "amount of tokens to deposit",
          "_pid": "in `_poolInfo`",
          "_to": "address that msg.sender deposits tokens for"
        }
      },
      "emergencyWithdraw(uint256)": {
        "params": {
          "_pid": "pool id to withdraw tokens from"
        }
      },
      "getPidFor(address)": {
        "params": {
          "_depositToken": "depositToken in `_poolInfo`"
        },
        "returns": {
          "found": "ensure 0 index",
          "pid": "of pool with `_depositToken`"
        }
      },
      "getRoleAdmin(bytes32)": {
        "details": "Returns the admin role that controls `role`. See {grantRole} and {revokeRole}. To change a role's admin, use {_setRoleAdmin}."
      },
      "grantRole(bytes32,address)": {
        "details": "Grants `role` to `account`. If `account` had not been already granted `role`, emits a {RoleGranted} event. Requirements: - the caller must have ``role``'s admin role. May emit a {RoleGranted} event."
      },
      "hasRole(bytes32,address)": {
        "details": "Returns `true` if `account` has been granted `role`."
      },
      "pendingRewards(uint256,address)": {
        "params": {
          "_pid": "id in `_poolInfo`",
          "_user": "id in `_userInfo[_pid]`"
        },
        "returns": {
          "rewards": "pending rewards"
        }
      },
      "poolInfo(uint256)": {
        "params": {
          "_pid": "in `_poolInfo`"
        },
        "returns": {
          "_0": "pool information"
        }
      },
      "renounceRole(bytes32,address)": {
        "details": "Revokes `role` from the calling account. Roles are often managed via {grantRole} and {revokeRole}: this function's purpose is to provide a mechanism for accounts to lose their privileges if they are compromised (such as when a trusted device is misplaced). If the calling account had been revoked `role`, emits a {RoleRevoked} event. Requirements: - the caller must be `account`. May emit a {RoleRevoked} event."
      },
      "revokeRole(bytes32,address)": {
        "details": "Revokes `role` from `account`. If `account` had been granted `role`, emits a {RoleRevoked} event. Requirements: - the caller must have ``role``'s admin role. May emit a {RoleRevoked} event."
      },
      "setPool(uint256,uint128)": {
        "params": {
          "_newAllocPoint": "new allocation (weight) for rewards",
          "_pid": "pool to modify"
        }
      },
      "setRewardPerBlockFor(address,uint256)": {
        "params": {
          "_rewardPerBlock": "tokens to drip per block",
          "_rewardToken": "token to adjust the drip for"
        }
      },
      "supportsInterface(bytes4)": {
        "details": "See {IERC165-supportsInterface}."
      },
      "updatePool(uint256)": {
        "params": {
          "_pid": "pool to update"
        }
      },
      "userInfo(uint256,address)": {
        "params": {
          "_account": "to get information for",
          "_pid": "in `_poolInfo`"
        },
        "returns": {
          "_0": "information on the account"
        }
      },
      "withdraw(uint256,uint256,address)": {
        "params": {
          "_amount": "amount to withdraw",
          "_pid": "id in `_poolInfo`",
          "_rewardRecipient": "address to send rewards to"
        }
      },
      "withdrawFor(address,uint256,uint256,address)": {
        "params": {
          "_amount": "amount to withdraw",
          "_for": "account to withdraw from",
          "_pid": "id in `_poolInfo`",
          "_rewardRecipient": "reward recipient"
        }
      }
    },
    "version": 1
  },
  "userdoc": {
    "events": {
      "Deposit(address,uint256,uint256)": {
        "notice": "================================================== ============== Events ============================ =================================================="
      }
    },
    "kind": "user",
    "methods": {
      "addPool(address[],address,uint128,uint128)": {
        "notice": "Adds a new reward poolUpdates reward token count in case of adding extra tokens"
      },
      "allPendingRewards(address)": {
        "notice": "Get all pending rewards for an account"
      },
      "claim(uint256,address)": {
        "notice": "Claim rewards only"
      },
      "claimFor(address,uint256,address)": {
        "notice": "Trusted helper contract can claim rewards on behalf of an account"
      },
      "deposit(address,uint256,uint256)": {
        "notice": "Deposits tokens for @param _to"
      },
      "emergencyWithdraw(uint256)": {
        "notice": "Emergency function, withdraws deposits from a poolThis will forfeit your rewards."
      },
      "getPidFor(address)": {
        "notice": "Get id for a tokenUseful for external contracts"
      },
      "initialize(address[],uint256[],address,uint128,uint128,address,address)": {
        "notice": "Initialize the contract with a single poolSets initial reward token and ratesSets the caller as DEFAULT_ADMIN"
      },
      "massUpdatePools()": {
        "notice": "Updates all pools to be up-to date"
      },
      "pendingRewards(uint256,address)": {
        "notice": "Get pending rewards from a certain pool"
      },
      "poolInfo(uint256)": {
        "notice": "Get pool information"
      },
      "poolLength()": {
        "notice": "Amount of pools"
      },
      "rescueNative()": {
        "notice": "A rescue function for missent msg.valueSince we are using payable functions to save gas on calls"
      },
      "rescueNonPoolToken(address,uint256)": {
        "notice": "A rescue function for missent tokens / airdropsThis cannot withdraw any deposits due `ensurePoolDoesNotExist` modifier."
      },
      "setPool(uint256,uint128)": {
        "notice": "Set new allocations for a poolSet `_newAllocPoint` to 0 to retire a pool"
      },
      "setRewardPerBlockFor(address,uint256)": {
        "notice": "Adjust/Set reward per block for a particular reward token"
      },
      "updatePool(uint256)": {
        "notice": "Updates a pools reward variables to be up-to date"
      },
      "userInfo(uint256,address)": {
        "notice": "Get account information on a pool"
      },
      "withdraw(uint256,uint256,address)": {
        "notice": "Withdraw deposited tokens and rewards."
      },
      "withdrawFor(address,uint256,uint256,address)": {
        "notice": "Trusted helper contract can withdraw rewards and deposits on behalf of an accountFor eg. withdraw + remove liquidity"
      }
    },
    "version": 1
  },
  "storageLayout": {
    "storage": [
      {
        "astId": 2024,
        "contract": "src/contracts/staking/KrStaking.sol:KrStaking",
        "label": "_initialized",
        "offset": 0,
        "slot": "0",
        "type": "t_uint8"
      },
      {
        "astId": 2027,
        "contract": "src/contracts/staking/KrStaking.sol:KrStaking",
        "label": "_initializing",
        "offset": 1,
        "slot": "0",
        "type": "t_bool"
      },
      {
        "astId": 2711,
        "contract": "src/contracts/staking/KrStaking.sol:KrStaking",
        "label": "__gap",
        "offset": 0,
        "slot": "1",
        "type": "t_array(t_uint256)50_storage"
      },
      {
        "astId": 2930,
        "contract": "src/contracts/staking/KrStaking.sol:KrStaking",
        "label": "__gap",
        "offset": 0,
        "slot": "51",
        "type": "t_array(t_uint256)50_storage"
      },
      {
        "astId": 1623,
        "contract": "src/contracts/staking/KrStaking.sol:KrStaking",
        "label": "_roles",
        "offset": 0,
        "slot": "101",
        "type": "t_mapping(t_bytes32,t_struct(RoleData)1618_storage)"
      },
      {
        "astId": 1918,
        "contract": "src/contracts/staking/KrStaking.sol:KrStaking",
        "label": "__gap",
        "offset": 0,
        "slot": "102",
        "type": "t_array(t_uint256)49_storage"
      },
      {
        "astId": 2327,
        "contract": "src/contracts/staking/KrStaking.sol:KrStaking",
        "label": "_status",
        "offset": 0,
        "slot": "151",
        "type": "t_uint256"
      },
      {
        "astId": 2385,
        "contract": "src/contracts/staking/KrStaking.sol:KrStaking",
        "label": "__gap",
        "offset": 0,
        "slot": "152",
        "type": "t_array(t_uint256)49_storage"
      },
      {
        "astId": 29682,
        "contract": "src/contracts/staking/KrStaking.sol:KrStaking",
        "label": "_userInfo",
        "offset": 0,
        "slot": "201",
        "type": "t_mapping(t_uint256,t_mapping(t_address,t_struct(UserInfo)31381_storage))"
      },
      {
        "astId": 29686,
        "contract": "src/contracts/staking/KrStaking.sol:KrStaking",
        "label": "rewardPerBlockFor",
        "offset": 0,
        "slot": "202",
        "type": "t_mapping(t_address,t_uint256)"
      },
      {
        "astId": 29690,
        "contract": "src/contracts/staking/KrStaking.sol:KrStaking",
        "label": "_poolInfo",
        "offset": 0,
        "slot": "203",
        "type": "t_array(t_struct(PoolInfo)31395_storage)dyn_storage"
      },
      {
        "astId": 29692,
        "contract": "src/contracts/staking/KrStaking.sol:KrStaking",
        "label": "totalAllocPoint",
        "offset": 0,
        "slot": "204",
        "type": "t_uint128"
      }
    ],
    "types": {
      "t_address": {
        "encoding": "inplace",
        "label": "address",
        "numberOfBytes": "20"
      },
      "t_array(t_address)dyn_storage": {
        "base": "t_address",
        "encoding": "dynamic_array",
        "label": "address[]",
        "numberOfBytes": "32"
      },
      "t_array(t_struct(PoolInfo)31395_storage)dyn_storage": {
        "base": "t_struct(PoolInfo)31395_storage",
        "encoding": "dynamic_array",
        "label": "struct IKrStaking.PoolInfo[]",
        "numberOfBytes": "32"
      },
      "t_array(t_uint256)49_storage": {
        "base": "t_uint256",
        "encoding": "inplace",
        "label": "uint256[49]",
        "numberOfBytes": "1568"
      },
      "t_array(t_uint256)50_storage": {
        "base": "t_uint256",
        "encoding": "inplace",
        "label": "uint256[50]",
        "numberOfBytes": "1600"
      },
      "t_array(t_uint256)dyn_storage": {
        "base": "t_uint256",
        "encoding": "dynamic_array",
        "label": "uint256[]",
        "numberOfBytes": "32"
      },
      "t_bool": {
        "encoding": "inplace",
        "label": "bool",
        "numberOfBytes": "1"
      },
      "t_bytes32": {
        "encoding": "inplace",
        "label": "bytes32",
        "numberOfBytes": "32"
      },
      "t_contract(IERC20)4888": {
        "encoding": "inplace",
        "label": "contract IERC20",
        "numberOfBytes": "20"
      },
      "t_mapping(t_address,t_bool)": {
        "encoding": "mapping",
        "key": "t_address",
        "label": "mapping(address => bool)",
        "numberOfBytes": "32",
        "value": "t_bool"
      },
      "t_mapping(t_address,t_struct(UserInfo)31381_storage)": {
        "encoding": "mapping",
        "key": "t_address",
        "label": "mapping(address => struct IKrStaking.UserInfo)",
        "numberOfBytes": "32",
        "value": "t_struct(UserInfo)31381_storage"
      },
      "t_mapping(t_address,t_uint256)": {
        "encoding": "mapping",
        "key": "t_address",
        "label": "mapping(address => uint256)",
        "numberOfBytes": "32",
        "value": "t_uint256"
      },
      "t_mapping(t_bytes32,t_struct(RoleData)1618_storage)": {
        "encoding": "mapping",
        "key": "t_bytes32",
        "label": "mapping(bytes32 => struct AccessControlUpgradeable.RoleData)",
        "numberOfBytes": "32",
        "value": "t_struct(RoleData)1618_storage"
      },
      "t_mapping(t_uint256,t_mapping(t_address,t_struct(UserInfo)31381_storage))": {
        "encoding": "mapping",
        "key": "t_uint256",
        "label": "mapping(uint256 => mapping(address => struct IKrStaking.UserInfo))",
        "numberOfBytes": "32",
        "value": "t_mapping(t_address,t_struct(UserInfo)31381_storage)"
      },
      "t_struct(PoolInfo)31395_storage": {
        "encoding": "inplace",
        "label": "struct IKrStaking.PoolInfo",
        "members": [
          {
            "astId": 31384,
            "contract": "src/contracts/staking/KrStaking.sol:KrStaking",
            "label": "depositToken",
            "offset": 0,
            "slot": "0",
            "type": "t_contract(IERC20)4888"
          },
          {
            "astId": 31386,
            "contract": "src/contracts/staking/KrStaking.sol:KrStaking",
            "label": "allocPoint",
            "offset": 0,
            "slot": "1",
            "type": "t_uint128"
          },
          {
            "astId": 31388,
            "contract": "src/contracts/staking/KrStaking.sol:KrStaking",
            "label": "lastRewardBlock",
            "offset": 16,
            "slot": "1",
            "type": "t_uint128"
          },
          {
            "astId": 31391,
            "contract": "src/contracts/staking/KrStaking.sol:KrStaking",
            "label": "accRewardPerShares",
            "offset": 0,
            "slot": "2",
            "type": "t_array(t_uint256)dyn_storage"
          },
          {
            "astId": 31394,
            "contract": "src/contracts/staking/KrStaking.sol:KrStaking",
            "label": "rewardTokens",
            "offset": 0,
            "slot": "3",
            "type": "t_array(t_address)dyn_storage"
          }
        ],
        "numberOfBytes": "128"
      },
      "t_struct(RoleData)1618_storage": {
        "encoding": "inplace",
        "label": "struct AccessControlUpgradeable.RoleData",
        "members": [
          {
            "astId": 1615,
            "contract": "src/contracts/staking/KrStaking.sol:KrStaking",
            "label": "members",
            "offset": 0,
            "slot": "0",
            "type": "t_mapping(t_address,t_bool)"
          },
          {
            "astId": 1617,
            "contract": "src/contracts/staking/KrStaking.sol:KrStaking",
            "label": "adminRole",
            "offset": 0,
            "slot": "1",
            "type": "t_bytes32"
          }
        ],
        "numberOfBytes": "64"
      },
      "t_struct(UserInfo)31381_storage": {
        "encoding": "inplace",
        "label": "struct IKrStaking.UserInfo",
        "members": [
          {
            "astId": 31377,
            "contract": "src/contracts/staking/KrStaking.sol:KrStaking",
            "label": "amount",
            "offset": 0,
            "slot": "0",
            "type": "t_uint256"
          },
          {
            "astId": 31380,
            "contract": "src/contracts/staking/KrStaking.sol:KrStaking",
            "label": "rewardDebts",
            "offset": 0,
            "slot": "1",
            "type": "t_array(t_uint256)dyn_storage"
          }
        ],
        "numberOfBytes": "64"
      },
      "t_uint128": {
        "encoding": "inplace",
        "label": "uint128",
        "numberOfBytes": "16"
      },
      "t_uint256": {
        "encoding": "inplace",
        "label": "uint256",
        "numberOfBytes": "32"
      },
      "t_uint8": {
        "encoding": "inplace",
        "label": "uint8",
        "numberOfBytes": "1"
      }
    }
  }
}