{
  "address": "0xc1095aFDe55cab6a8F0a11476694B283d5bf3f83",
  "abi": [
    {
      "inputs": [],
      "name": "CalldataMustHaveValidPayload",
      "type": "error"
    },
    {
      "inputs": [],
      "name": "CalldataOverOrUnderFlow",
      "type": "error"
    },
    {
      "inputs": [],
      "name": "CanNotPickMedianOfEmptyArray",
      "type": "error"
    },
    {
      "inputs": [],
      "name": "IncorrectUnsignedMetadataSize",
      "type": "error"
    },
    {
      "inputs": [
        {
          "internalType": "uint256",
          "name": "receivedSignersCount",
          "type": "uint256"
        },
        {
          "internalType": "uint256",
          "name": "requiredSignersCount",
          "type": "uint256"
        }
      ],
      "name": "InsufficientNumberOfUniqueSigners",
      "type": "error"
    },
    {
      "inputs": [
        {
          "internalType": "address",
          "name": "receivedSigner",
          "type": "address"
        }
      ],
      "name": "SignerNotAuthorised",
      "type": "error"
    },
    {
      "inputs": [
        {
          "internalType": "address[]",
          "name": "_assets",
          "type": "address[]"
        },
        {
          "internalType": "address[]",
          "name": "_oracles",
          "type": "address[]"
        },
        {
          "internalType": "address[]",
          "name": "_marketStatusOracles",
          "type": "address[]"
        }
      ],
      "name": "batchOracleValues",
      "outputs": [
        {
          "components": [
            {
              "internalType": "uint256",
              "name": "price",
              "type": "uint256"
            },
            {
              "internalType": "uint256",
              "name": "timestamp",
              "type": "uint256"
            },
            {
              "internalType": "address",
              "name": "assetAddress",
              "type": "address"
            },
            {
              "internalType": "uint80",
              "name": "roundId",
              "type": "uint80"
            },
            {
              "internalType": "bool",
              "name": "marketOpen",
              "type": "bool"
            }
          ],
          "internalType": "struct LibUI.Price[]",
          "name": "result",
          "type": "tuple[]"
        }
      ],
      "stateMutability": "view",
      "type": "function"
    },
    {
      "inputs": [
        {
          "internalType": "address",
          "name": "_account",
          "type": "address"
        },
        {
          "internalType": "address[]",
          "name": "_tokens",
          "type": "address[]"
        },
        {
          "internalType": "address",
          "name": "_staking",
          "type": "address"
        }
      ],
      "name": "getAccountData",
      "outputs": [
        {
          "components": [
            {
              "components": [
                {
                  "internalType": "address",
                  "name": "assetAddress",
                  "type": "address"
                },
                {
                  "internalType": "address",
                  "name": "oracleAddress",
                  "type": "address"
                },
                {
                  "internalType": "address",
                  "name": "anchorAddress",
                  "type": "address"
                },
                {
                  "internalType": "uint256",
                  "name": "amount",
                  "type": "uint256"
                },
                {
                  "internalType": "uint256",
                  "name": "amountScaled",
                  "type": "uint256"
                },
                {
                  "internalType": "uint256",
                  "name": "priceRate",
                  "type": "uint256"
                },
                {
                  "internalType": "uint256",
                  "name": "stabilityRate",
                  "type": "uint256"
                },
                {
                  "internalType": "uint256",
                  "name": "amountUSD",
                  "type": "uint256"
                },
                {
                  "internalType": "uint256",
                  "name": "index",
                  "type": "uint256"
                },
                {
                  "internalType": "uint256",
                  "name": "kFactor",
                  "type": "uint256"
                },
                {
                  "internalType": "uint256",
                  "name": "price",
                  "type": "uint256"
                },
                {
                  "internalType": "uint256",
                  "name": "ammPrice",
                  "type": "uint256"
                },
                {
                  "internalType": "string",
                  "name": "symbol",
                  "type": "string"
                },
                {
                  "internalType": "string",
                  "name": "name",
                  "type": "string"
                },
                {
                  "internalType": "uint256",
                  "name": "openFee",
                  "type": "uint256"
                },
                {
                  "internalType": "uint256",
                  "name": "closeFee",
                  "type": "uint256"
                }
              ],
              "internalType": "struct LibUI.krAssetInfoUser[]",
              "name": "krAssets",
              "type": "tuple[]"
            },
            {
              "components": [
                {
                  "internalType": "address",
                  "name": "assetAddress",
                  "type": "address"
                },
                {
                  "internalType": "address",
                  "name": "oracleAddress",
                  "type": "address"
                },
                {
                  "internalType": "address",
                  "name": "anchorAddress",
                  "type": "address"
                },
                {
                  "internalType": "uint256",
                  "name": "amount",
                  "type": "uint256"
                },
                {
                  "internalType": "uint256",
                  "name": "amountUSD",
                  "type": "uint256"
                },
                {
                  "internalType": "uint256",
                  "name": "cFactor",
                  "type": "uint256"
                },
                {
                  "internalType": "uint256",
                  "name": "liquidationIncentive",
                  "type": "uint256"
                },
                {
                  "internalType": "uint8",
                  "name": "decimals",
                  "type": "uint8"
                },
                {
                  "internalType": "uint256",
                  "name": "index",
                  "type": "uint256"
                },
                {
                  "internalType": "uint256",
                  "name": "price",
                  "type": "uint256"
                },
                {
                  "internalType": "string",
                  "name": "symbol",
                  "type": "string"
                },
                {
                  "internalType": "string",
                  "name": "name",
                  "type": "string"
                }
              ],
              "internalType": "struct LibUI.CollateralAssetInfoUser[]",
              "name": "collateralAssets",
              "type": "tuple[]"
            },
            {
              "internalType": "uint256",
              "name": "healthFactor",
              "type": "uint256"
            },
            {
              "internalType": "uint256",
              "name": "debtActualUSD",
              "type": "uint256"
            },
            {
              "internalType": "uint256",
              "name": "debtUSD",
              "type": "uint256"
            },
            {
              "internalType": "uint256",
              "name": "collateralActualUSD",
              "type": "uint256"
            },
            {
              "internalType": "uint256",
              "name": "collateralUSD",
              "type": "uint256"
            },
            {
              "internalType": "uint256",
              "name": "minCollateralUSD",
              "type": "uint256"
            },
            {
              "internalType": "uint256",
              "name": "borrowingPowerUSD",
              "type": "uint256"
            }
          ],
          "internalType": "struct LibUI.KreskoUser",
          "name": "user",
          "type": "tuple"
        },
        {
          "components": [
            {
              "internalType": "address",
              "name": "token",
              "type": "address"
            },
            {
              "internalType": "uint256",
              "name": "balance",
              "type": "uint256"
            }
          ],
          "internalType": "struct LibUI.Balance[]",
          "name": "balances",
          "type": "tuple[]"
        },
        {
          "components": [
            {
              "internalType": "uint256",
              "name": "pid",
              "type": "uint256"
            },
            {
              "internalType": "address",
              "name": "depositToken",
              "type": "address"
            },
            {
              "internalType": "uint256",
              "name": "totalDeposits",
              "type": "uint256"
            },
            {
              "internalType": "uint256",
              "name": "allocPoint",
              "type": "uint256"
            },
            {
              "internalType": "uint256",
              "name": "rewardPerBlocks",
              "type": "uint256"
            },
            {
              "internalType": "uint256",
              "name": "lastRewardBlock",
              "type": "uint256"
            },
            {
              "internalType": "uint256",
              "name": "depositAmount",
              "type": "uint256"
            },
            {
              "internalType": "address[]",
              "name": "rewardTokens",
              "type": "address[]"
            },
            {
              "internalType": "uint256[]",
              "name": "rewardAmounts",
              "type": "uint256[]"
            }
          ],
          "internalType": "struct LibUI.StakingData[]",
          "name": "stakingData",
          "type": "tuple[]"
        }
      ],
      "stateMutability": "view",
      "type": "function"
    },
    {
      "inputs": [
        {
          "internalType": "address[]",
          "name": "_allTokens",
          "type": "address[]"
        },
        {
          "internalType": "address[]",
          "name": "_assets",
          "type": "address[]"
        },
        {
          "internalType": "address[]",
          "name": "_priceFeeds",
          "type": "address[]"
        },
        {
          "internalType": "address[]",
          "name": "_marketStatusOracles",
          "type": "address[]"
        }
      ],
      "name": "getTokenData",
      "outputs": [
        {
          "components": [
            {
              "internalType": "uint8",
              "name": "decimals",
              "type": "uint8"
            },
            {
              "internalType": "string",
              "name": "symbol",
              "type": "string"
            },
            {
              "internalType": "string",
              "name": "name",
              "type": "string"
            },
            {
              "internalType": "uint256",
              "name": "totalSupply",
              "type": "uint256"
            }
          ],
          "internalType": "struct LibUI.TokenMetadata[]",
          "name": "metadatas",
          "type": "tuple[]"
        },
        {
          "components": [
            {
              "internalType": "uint256",
              "name": "price",
              "type": "uint256"
            },
            {
              "internalType": "uint256",
              "name": "timestamp",
              "type": "uint256"
            },
            {
              "internalType": "address",
              "name": "assetAddress",
              "type": "address"
            },
            {
              "internalType": "uint80",
              "name": "roundId",
              "type": "uint80"
            },
            {
              "internalType": "bool",
              "name": "marketOpen",
              "type": "bool"
            }
          ],
          "internalType": "struct LibUI.Price[]",
          "name": "prices",
          "type": "tuple[]"
        }
      ],
      "stateMutability": "view",
      "type": "function"
    }
  ],
  "transactionHash": "0xf113bf98920a6c17f0b5f5c1d9aaf6478d8e32e319c09c11f36316276a87eb6a",
  "args": [],
  "numDeployments": 1,
  "solcInputHash": "2796721ae8ad06f4477f7f47306878f4",
  "bytecode": "0x6080806040523461001657614aa9908161001c8239f35b600080fdfe6080604052600436101561001257600080fd5b6000803560e01c908163981d11da1461004a57508063ba9c6864146100455763d297f19d1461004057600080fd5b610bb7565b610b05565b346101c65760607ffffffffffffffffffffffffffffffffffffffffffffffffffffffffffffffffc3601126101c65760043590610086826101c9565b60243567ffffffffffffffff81116101c2576100a69036906004016103bb565b90604435906100b4826101c9565b6100bc610c5a565b5050826100c7610c5a565b926100d182613ff3565b6100da84613b34565b918351158015906101b8575b610114575b85886101106101048a6100fe858b6111fc565b94611696565b604051938493846108f9565b0390f35b61011096949750916100fe9391869361012f61010498613a1d565b9261013986614a57565b9161014387612273565b9061014d88611eba565b936101797f5076ab9fa18d2a17cfce4375a530b76392de8264a11126885cd5534d39f0a980548a6120ef565b9561018261030b565b988952602089015260408801526060870152608086015260a085015260c084015260e083015261010082015295929481946100eb565b50815115156100e6565b5080fd5b80fd5b73ffffffffffffffffffffffffffffffffffffffff8116036101e757565b600080fd5b7f4e487b7100000000000000000000000000000000000000000000000000000000600052604160045260246000fd5b610120810190811067ffffffffffffffff82111761023857604052565b6101ec565b6040810190811067ffffffffffffffff82111761023857604052565b6060810190811067ffffffffffffffff82111761023857604052565b60a0810190811067ffffffffffffffff82111761023857604052565b60e0810190811067ffffffffffffffff82111761023857604052565b610180810190811067ffffffffffffffff82111761023857604052565b90601f7fffffffffffffffffffffffffffffffffffffffffffffffffffffffffffffffe0910116810190811067ffffffffffffffff82111761023857604052565b604051906103188261021b565b565b604051906080820182811067ffffffffffffffff82111761023857604052565b604051906103188261023d565b6040519061031882610275565b60405190610100820182811067ffffffffffffffff82111761023857604052565b60405190610318826102ad565b60405190610200820182811067ffffffffffffffff82111761023857604052565b67ffffffffffffffff81116102385760051b60200190565b81601f820112156101e7578035916103d2836103a3565b926103e060405194856102ca565b808452602092838086019260051b8201019283116101e7578301905b82821061040a575050505090565b8380918335610418816101c9565b8152019101906103fc565b60005b8381106104365750506000910152565b8181015183820152602001610426565b907fffffffffffffffffffffffffffffffffffffffffffffffffffffffffffffffe0601f60209361048281518092818752878088019101610423565b0116010190565b908082519081815260208091019281808460051b8301019501936000915b8483106104b75750505050505090565b9091929394958480827fffffffffffffffffffffffffffffffffffffffffffffffffffffffffffffffe0856001950301865289519061050c81835173ffffffffffffffffffffffffffffffffffffffff169052565b8183015173ffffffffffffffffffffffffffffffffffffffff168184015260408281015173ffffffffffffffffffffffffffffffffffffffff1690820152606080830151908201526080808301519082015260a0808301519082015260c0808301519082015260e0808301519082015261010080830151908201526101208083015190820152610140808301519082015261016080830151908201526105da6105c661018080850151906102008091860152840190610446565b6101a0808501519084830390850152610446565b916101c080820151908301526101e08091015191015298019301930191949392906104a7565b908082519081815260208091019281808460051b8301019501936000915b84831061062e5750505050505090565b909192939495848061073d837fffffffffffffffffffffffffffffffffffffffffffffffffffffffffffffffe086600196030187528a5161068582825173ffffffffffffffffffffffffffffffffffffffff169052565b8084015173ffffffffffffffffffffffffffffffffffffffff168285015260408181015173ffffffffffffffffffffffffffffffffffffffff1690830152606081810151908301526080808201519083015260a0808201519083015260c0808201519083015260e08082015160ff16908301526101008082015190830152610120808201519083015261072961014080830151906101808091860152840190610446565b916101608092015191818403910152610446565b980193019301919493929061061e565b90815180825260208080930193019160005b82811061076d575050505090565b8351805173ffffffffffffffffffffffffffffffffffffffff168652820151858301526040909401939281019260010161075f565b90815180825260208080930193019160005b8281106107c2575050505090565b835173ffffffffffffffffffffffffffffffffffffffff16855293810193928101926001016107b4565b90815180825260208080930193019160005b82811061080c575050505090565b8351855293810193928101926001016107fe565b90815180825260208092019182818360051b82019501936000915b84831061084b5750505050505090565b90919293949584806108e983856001950387528a5180518252610889848201518584019073ffffffffffffffffffffffffffffffffffffffff169052565b60408082015190830152606080820151908301526080808201519083015260a0808201519083015260c080820151908301526108d560e0808301519061012080918601528401906107a2565b9161010080920151918184039101526107ec565b980193019301919493929061083b565b916109bc93916109ae91606085528151610958610924610120928360608a0152610180890190610489565b60208501517fffffffffffffffffffffffffffffffffffffffffffffffffffffffffffffffa08983030160808a0152610600565b92604081015160a0880152606081015160c0880152608081015160e088015260a081015191610100928389015260c08201519088015260e08101516101408801520151610160860152848203602086015261074d565b916040818403910152610820565b90565b90815180825260208080930193019160005b8281106109df575050505090565b835180518652808301518684015260408082015173ffffffffffffffffffffffffffffffffffffffff169087015260608082015169ffffffffffffffffffff169087015260809081015115159086015260a090940193928101926001016109d1565b90929160409182810194838252805180965260609586830190878160051b850101956020809401926000915b838310610a8a5750505050506109bc9495508184039101526109bf565b909192939785808c837fffffffffffffffffffffffffffffffffffffffffffffffffffffffffffffffa08b600196030187528c519160ff835116825280610af0610ae08686015160808089880152860190610446565b898601518582038b870152610446565b9301519101529a019301930191939290610a6d565b346101e75760807ffffffffffffffffffffffffffffffffffffffffffffffffffffffffffffffffc3601126101e75767ffffffffffffffff6004358181116101e757610b559036906004016103bb565b6024358281116101e757610b6d9036906004016103bb565b6044358381116101e757610b859036906004016103bb565b906064359384116101e757610ba1610ba79436906004016103bb565b92610eae565b9061011060405192839283610a41565b346101e75760607ffffffffffffffffffffffffffffffffffffffffffffffffffffffffffffffffc3601126101e75767ffffffffffffffff6004358181116101e757610c079036906004016103bb565b906024358181116101e757610c209036906004016103bb565b916044359182116101e75761011092610c40610c469336906004016103bb565b91611c62565b6040519182916020835260208301906109bf565b60405190610c678261021b565b8160608152606060208201526101006000918260408201528260608201528260808201528260a08201528260c08201528260e08201520152565b90610cab826103a3565b604090610cba825191826102ca565b8381527fffffffffffffffffffffffffffffffffffffffffffffffffffffffffffffffe0610ce882956103a3565b0190600092835b838110610cfd575050505050565b815190608082019180831067ffffffffffffffff841117610238576020928452868152606087849180838501528087850152830152828601015201610cef565b7f4e487b7100000000000000000000000000000000000000000000000000000000600052601160045260246000fd5b7fffffffffffffffffffffffffffffffffffffffffffffffffffffffffffffffff8114610d995760010190565b610d3d565b7f4e487b7100000000000000000000000000000000000000000000000000000000600052603260045260246000fd5b805115610dda5760200190565b610d9e565b8051821015610dda5760209160051b010190565b908160209103126101e7575160ff811681036101e75790565b6040513d6000823e3d90fd5b6020818303126101e757805167ffffffffffffffff918282116101e757019082601f830112156101e75781519081116102385760405192610e8160207fffffffffffffffffffffffffffffffffffffffffffffffffffffffffffffffe0601f85011601856102ca565b818452602082840101116101e7576109bc9160208085019101610423565b908160209103126101e7575190565b939092610ebb8551610ca1565b9260005b865181101561116f57610f0e610ef5610ef5610edb848b610ddf565b5173ffffffffffffffffffffffffffffffffffffffff1690565b73ffffffffffffffffffffffffffffffffffffffff1690565b90604080518080947f313ce567000000000000000000000000000000000000000000000000000000008252602092839160049788915afa9283156110c157848c879360009661112b575b50610ef5610ef5610edb600094610f6e94610ddf565b8251938480927f06fdde030000000000000000000000000000000000000000000000000000000082525afa9182156110c157858d88926000956110fb575b50610ef5610ef5610edb600094610fc294610ddf565b8351928380927f95d89b410000000000000000000000000000000000000000000000000000000082525afa9081156110c157868e86926000946110c6575b50610ef5610edb61101493610ef593610ddf565b8351988980927f18160ddd0000000000000000000000000000000000000000000000000000000082525afa9384156110c15761108d97600095611092575b5061106761105e61031a565b60ff9097168752565b850152830152606082015261107c8288610ddf565b526110878187610ddf565b50610d6c565b610ebf565b816110b39296503d87116110ba575b6110ab81836102ca565b810190610e9f565b9338611052565b503d6110a1565b610e0c565b610edb611014936110f0610ef593610ef595983d8091833e6110e881836102ca565b810190610e18565b969350935050611000565b610ef5610edb60009461111f610ef594610fc2969a3d8091833e6110e881836102ca565b98945094505050610fac565b610f6e919650610ef5610edb60009461115c610ef5948a3d8c11611168575b61115481836102ca565b810190610df3565b99945094505050610f58565b503d61114a565b509091936109bc939550611c62565b90611188826103a3565b604090611197825191826102ca565b8381527fffffffffffffffffffffffffffffffffffffffffffffffffffffffffffffffe06111c582956103a3565b0191600090815b8481106111da575050505050565b60209082516111e88161023d565b8481528285818301528287010152016111cc565b9190611208835161117e565b92600090815b815181101561130057611224610edb8284610ddf565b90611238610ef5610ef5610edb8487610ddf565b6040517f70a0823100000000000000000000000000000000000000000000000000000000815273ffffffffffffffffffffffffffffffffffffffff8716600482015292906020908190859060249082905afa9081156110c1576112dc9487926112e1575b506112c46112a861033a565b73ffffffffffffffffffffffffffffffffffffffff9094168452565b8201526112d18289610ddf565b526110878188610ddf565b61120e565b816112f99293503d84116110ba576110ab81836102ca565b903861129c565b50505050565b81601f820112156101e75780519161131d836103a3565b9261132b60405194856102ca565b808452602092838086019260051b8201019283116101e7578301905b828210611355575050505090565b8380918351611363816101c9565b815201910190611347565b81601f820112156101e757805191611385836103a3565b9261139360405194856102ca565b808452602092838086019260051b8201019283116101e7578301905b8282106113bd575050505090565b815181529083019083016113af565b60209081818403126101e757805167ffffffffffffffff918282116101e757019083601f830112156101e7578151611403816103a3565b946040611412815197886102ca565b828752858088019360051b860101948286116101e757868101935b86851061143f57505050505050505090565b84518681116101e757820190606090817fffffffffffffffffffffffffffffffffffffffffffffffffffffffffffffffe084880301126101e75784519161148583610259565b8a8401518352858401518981116101e757878c6114a492870101611306565b8b840152830151918883116101e7576114c4878c8096958196010161136e565b8682015281520194019361142d565b906114dd826103a3565b6040906114ec825191826102ca565b8381527fffffffffffffffffffffffffffffffffffffffffffffffffffffffffffffffe061151a82956103a3565b019160005b83811061152c5750505050565b602090825161153a8161021b565b6000815282600081830152600085830152606060008184015260006080840152600060a0840152600060c08401528060e084015261010083015282860101520161151f565b51906fffffffffffffffffffffffffffffffff821682036101e757565b906020828203126101e757815167ffffffffffffffff928382116101e757019060a0828203126101e757604051926115d384610275565b82516115de816101c9565b84526115ec6020840161157f565b60208501526115fd6040840161157f565b604085015260608301518181116101e7578261161a91850161136e565b606085015260808301519081116101e7576116359201611306565b608082015290565b906020828203126101e757815167ffffffffffffffff928382116101e75701906040828203126101e757604051926116748461023d565b8251845260208301519081116101e75761168e920161136e565b602082015290565b6040517f5ea3f4fa00000000000000000000000000000000000000000000000000000000815273ffffffffffffffffffffffffffffffffffffffff82166004820152909291906000818060248101038173ffffffffffffffffffffffffffffffffffffffff86165afa9081156110c157600091611ad1575b5061171981516114d3565b9060005b8151811015611aca578060006117366117709385610ddf565b5151604051809481927f1526fe27000000000000000000000000000000000000000000000000000000008352600483019190602083019252565b038173ffffffffffffffffffffffffffffffffffffffff89165afa9182156110c157600092611aa5575b506117bc610ef5835173ffffffffffffffffffffffffffffffffffffffff1690565b6117c68285610ddf565b5151906117ea610ef5855173ffffffffffffffffffffffffffffffffffffffff1690565b6040517f70a0823100000000000000000000000000000000000000000000000000000000815273ffffffffffffffffffffffffffffffffffffffff891660048201529490602090869060249082905afa9182156110c1576118e295600093611a84575b5060208201516fffffffffffffffffffffffffffffffff1660008c8b611873898c610ddf565b515173ffffffffffffffffffffffffffffffffffffffff604051809c819582947f93f1a40b0000000000000000000000000000000000000000000000000000000084526004840190929173ffffffffffffffffffffffffffffffffffffffff6020916040840195845216910152565b0392165afa80156110c1578a97600091611a61575b5051916020611906888b610ddf565b510151936040611916898c610ddf565b510151956020604051809b7f68e2f7b70000000000000000000000000000000000000000000000000000000082528173ffffffffffffffffffffffffffffffffffffffff81611985896004830191909173ffffffffffffffffffffffffffffffffffffffff6020820193169052565b0392165afa9182156110c157611a309a600093611a35575b50604001516119e2906fffffffffffffffffffffffffffffffff165b936119c261030b565b998a5273ffffffffffffffffffffffffffffffffffffffff1660208a0152565b60408801526fffffffffffffffffffffffffffffffff809316606088015260808701521660a085015260c084015260e0830152610100820152611a258286610ddf565b526110878185610ddf565b61171d565b6119e29193506040611a586119b99260203d6020116110ba576110ab81836102ca565b9492505061199d565b611a7e91503d806000833e611a7681836102ca565b81019061163d565b386118f7565b611a9e91935060203d6020116110ba576110ab81836102ca565b913861184d565b611ac39192503d806000833e611abb81836102ca565b81019061159c565b903861179a565b5050925050565b611aee91503d806000833e611ae681836102ca565b8101906113cc565b3861170e565b60405190611b018261023d565b600382527f34303100000000000000000000000000000000000000000000000000000000006020830152565b9060206109bc928181520190610446565b15611b465750565b611b84906040519182917f08c379a0000000000000000000000000000000000000000000000000000000008352602060048401526024830190610446565b0390fd5b90611b92826103a3565b604090611ba1825191826102ca565b8381527fffffffffffffffffffffffffffffffffffffffffffffffffffffffffffffffe0611bcf82956103a3565b019160005b838110611be15750505050565b6020908251611bef81610275565b60008152826000818301526000858301526000606083015260006080830152828601015201611bd4565b519069ffffffffffffffffffff821682036101e757565b908160a09103126101e757611c4481611c19565b916020820151916040810151916109bc608060608401519301611c19565b9291611c7a9051825114611c74611af4565b90611b3e565b611c848351611b88565b9060005b8451811015611db057611ca4610ef5610ef5610edb8486610ddf565b90604091825180917ffeaf968c00000000000000000000000000000000000000000000000000000000825281600460a09485935afa80156110c157611d5b94848a60009485968695611d60575b505091611d09610edb611d4a969593611d3795610ddf565b91611d12610347565b968752602087015285019073ffffffffffffffffffffffffffffffffffffffff169052565b69ffffffffffffffffffff166060830152565b60016080820152611a258286610ddf565b611c88565b610edb9750611d4a9650611d379492939550611d099181611d9592903d10611da9575b611d8d81836102ca565b810190611c30565b509992905096909896975093929450611cf1565b503d611d83565b50509150565b9060405191828154918282526020928383019160005283600020936000905b828210611deb57505050610318925003836102ca565b855473ffffffffffffffffffffffffffffffffffffffff1684526001958601958895509381019390910190611dd5565b90670de0b6b3a7640000918201809211610d9957565b9060028201809211610d9957565b9060208201809211610d9957565b90600d8201809211610d9957565b9060688201809211610d9957565b9060418201809211610d9957565b604e019081604e11610d9957565b9060098201809211610d9957565b906b033b2e3c9fd0803ce8000000918201809211610d9957565b91908201809211610d9957565b600090611f068173ffffffffffffffffffffffffffffffffffffffff166000527f5076ab9fa18d2a17cfce4375a530b76392de8264a11126885cd5534d39f0a987602052604060002090565b604051808281935480845260208094019160005283600020936000905b828210611f8757505050611f39925003826102ca565b6000925b8151841015611f8057611f74611f7a91611f6d611f5d610edb8887610ddf565b611f678188611fb7565b90612792565b5090611ead565b93610d6c565b92611f3d565b9250505090565b855473ffffffffffffffffffffffffffffffffffffffff1684526001958601958795509381019390910190611f23565b6120e86109bc926120c361200a8273ffffffffffffffffffffffffffffffffffffffff166000527f5076ab9fa18d2a17cfce4375a530b76392de8264a11126885cd5534d39f0a985602052604060002090565b9360046040519561201a87610291565b80548752600181015473ffffffffffffffffffffffffffffffffffffffff90811660208901526002820154908116604089015260ff60a082901c811660608a015261206d915b60a81c1615156080890152565b600381015460a0880152015460c086015273ffffffffffffffffffffffffffffffffffffffff166000527f5076ab9fa18d2a17cfce4375a530b76392de8264a11126885cd5534d39f0a986602052604060002090565b9073ffffffffffffffffffffffffffffffffffffffff16600052602052604060002090565b5490612724565b91909160009161213e8273ffffffffffffffffffffffffffffffffffffffff166000527f5076ab9fa18d2a17cfce4375a530b76392de8264a11126885cd5534d39f0a98a602052604060002090565b90604051808381945480845260208094019188528388209388905b8282106121c25750505061216f925003836102ca565b835b82518510156121b3576121a76121ad916121a1612191610edb8988610ddf565b61219b8189612429565b90612dc5565b90611ead565b94610d6c565b93612171565b91509391506109bc925061222c565b855473ffffffffffffffffffffffffffffffffffffffff1684526001958601958895509381019390910190612159565b7812725dd1d243aba0e75fe645cc4873f9e65afe688c928e1f2181116101e7576706f05b59d3b20000670de0b6b3a7640000809202010490565b817ffffffffffffffffffffffffffffffffffffffffffffffffff90fa4a62c4dffff04811115821517156101e757670de0b6b3a764000091026706f05b59d3b20000010490565b6000906122bf8173ffffffffffffffffffffffffffffffffffffffff166000527f5076ab9fa18d2a17cfce4375a530b76392de8264a11126885cd5534d39f0a98a602052604060002090565b604051808281935480845260208094019160005283600020936000905b828210612326575050506122f2925003826102ca565b6000925b8151841015611f8057611f74612320916121a1612316610edb8887610ddf565b61219b8188612429565b926122f6565b855473ffffffffffffffffffffffffffffffffffffffff16845260019586019587955093810193909101906122dc565b906007612361610354565b92805484526123a761238a600183015473ffffffffffffffffffffffffffffffffffffffff1690565b73ffffffffffffffffffffffffffffffffffffffff166020860152565b600281015460408501526123f26123d5600383015473ffffffffffffffffffffffffffffffffffffffff1690565b73ffffffffffffffffffffffffffffffffffffffff166060860152565b60048101546080850152600581015460a0850152612420612417600683015460ff1690565b151560c0860152565b015460e0830152565b6125ca906125c46125af612599856120c36124838273ffffffffffffffffffffffffffffffffffffffff166000527f5076ab9fa18d2a17cfce4375a530b76392de8264a11126885cd5534d39f0a988602052604060002090565b95600761248e610354565b97805489526124d46124b7600183015473ffffffffffffffffffffffffffffffffffffffff1690565b73ffffffffffffffffffffffffffffffffffffffff1660208b0152565b600281015460408a015261251f612502600383015473ffffffffffffffffffffffffffffffffffffffff1690565b73ffffffffffffffffffffffffffffffffffffffff1660608b0152565b600481015460808a0152600581015460a08a015261254d612544600683015460ff1690565b151560c08b0152565b015460e088015273ffffffffffffffffffffffffffffffffffffffff166000527f028c7d8c2729a6bb9150d56b34c68e690d2d010cd1f97ccb986fdd9fba86b18a602052604060002090565b546fffffffffffffffffffffffffffffffff1690565b6fffffffffffffffffffffffffffffffff1690565b906126a9565b908115612634576109bc9161262961262461262f9373ffffffffffffffffffffffffffffffffffffffff166000527f028c7d8c2729a6bb9150d56b34c68e690d2d010cd1f97ccb986fdd9fba86b189602052604060002090565b613892565b9061263b565b61268a565b5050600090565b817ffffffffffffffffffffffffffffffffffffffffffe6268e1b017bfe18bffffff04811115821517156101e7576b033b2e3c9fd0803ce800000091026b019d971e4fe8401e74000000010490565b90631dcd6500633b9aca00808404930610156126a257565b9060010190565b73ffffffffffffffffffffffffffffffffffffffff6060602092015116916024604051809481937f07a2d13a00000000000000000000000000000000000000000000000000000000835260048301525afa9081156110c15760009161270c575090565b6109bc915060203d81116110ba576110ab81836102ca565b6040015173ffffffffffffffffffffffffffffffffffffffff1690811561278d576020906024604051809481937f07a2d13a00000000000000000000000000000000000000000000000000000000835260048301525afa9081156110c15760009161270c575090565b905090565b61289292916128a26127e66128aa9373ffffffffffffffffffffffffffffffffffffffff166000527f5076ab9fa18d2a17cfce4375a530b76392de8264a11126885cd5534d39f0a985602052604060002090565b61289d604051936127f685610291565b82548552600183015473ffffffffffffffffffffffffffffffffffffffff9081166020870152600284015490811660408701529260049061284960ff6060890196612060828260a01c16899060ff169052565b600381015460a0880152015460c08601526128986128887f5076ab9fa18d2a17cfce4375a530b76392de8264a11126885cd5534d39f0a98d54876129b8565b9889945160ff1690565b60ff1690565b612d25565b61222c565b90519061222c565b9190565b612892929161289d6129026128aa9373ffffffffffffffffffffffffffffffffffffffff166000527f5076ab9fa18d2a17cfce4375a530b76392de8264a11126885cd5534d39f0a985602052604060002090565b916128986129ae60405161291581610291565b85548152600186015473ffffffffffffffffffffffffffffffffffffffff9081166020830152600287015490811660408301529560049061297560ff6060850199612968828260a01c168c9060ff169052565b60a81c1615156080850152565b600381015460a0840152015460c08201527f5076ab9fa18d2a17cfce4375a530b76392de8264a11126885cd5534d39f0a98d54906129b8565b9687945160ff1690565b906109bc916129d360c06129cb83612a29565b920151613056565b90612b64565b90670de0b6b3a7640000918203918211610d9957565b907fffffffffffffffffffffffffffffffffffffffffffffffffffffffffffffffff8201918211610d9957565b91908203918211610d9957565b60a073ffffffffffffffffffffffffffffffffffffffff6020600493015116604051928380927ffeaf968c0000000000000000000000000000000000000000000000000000000082525afa80156110c1576000918291612b02575b50612ad290612acc604051612a988161023d565b600381527f323533000000000000000000000000000000000000000000000000000000000060208201526000851215611b3e565b42612a1c565b7f5076ab9fa18d2a17cfce4375a530b76392de8264a11126885cd5534d39f0a9905410612afc5790565b50600090565b612ad29250612b1f915060a03d8111611da957611d8d81836102ca565b50939250509190612a84565b60405190612b388261023d565b600382527f32353200000000000000000000000000000000000000000000000000000000006020830152565b919073ffffffffffffffffffffffffffffffffffffffff612bb97f5076ab9fa18d2a17cfce4375a530b76392de8264a11126885cd5534d39f0a98e5473ffffffffffffffffffffffffffffffffffffffff1690565b1680612c5a575b508215612c545780839115612c4e5781612be2612bdc856129d9565b8361222c565b11159283612c2f575b5050506109bc57611b84612bfd612b2b565b6040519182917f08c379a000000000000000000000000000000000000000000000000000000000835260048301611b2d565b612c44929350612c3e90611e1b565b9061222c565b1015813880612beb565b50505090565b91505090565b60a0600491604051928380927ffeaf968c0000000000000000000000000000000000000000000000000000000082525afa9081156110c1576000908192612ce0575b50612cd957612cab9042612a1c565b7f5076ab9fa18d2a17cfce4375a530b76392de8264a11126885cd5534d39f0a98f541015612c545738612bc0565b5091505090565b9050612cfa915060a03d8111611da957611d8d81836102ca565b5050915038612c9c565b604d8111610d9957600a0a90565b81810292918115918404141715610d9957565b6012811015612d4c576012039060128211610d9957612d466109bc92612d04565b90612d12565b60128111612d58575090565b7fffffffffffffffffffffffffffffffffffffffffffffffffffffffffffffffee8101908111610d9957612d8b90612d04565b908115612d96570490565b7f4e487b7100000000000000000000000000000000000000000000000000000000600052601260045260246000fd5b906128a2612e156109bc9373ffffffffffffffffffffffffffffffffffffffff166000527f5076ab9fa18d2a17cfce4375a530b76392de8264a11126885cd5534d39f0a988602052604060002090565b916007612e20610354565b9380548552612e66612e49600183015473ffffffffffffffffffffffffffffffffffffffff1690565b73ffffffffffffffffffffffffffffffffffffffff166020870152565b60028101546040860152612eb1612e94600383015473ffffffffffffffffffffffffffffffffffffffff1690565b73ffffffffffffffffffffffffffffffffffffffff166060870152565b60048101546080860152600581015460a0860152612edf612ed6600683015460ff1690565b151560c0870152565b015460e08401527f5076ab9fa18d2a17cfce4375a530b76392de8264a11126885cd5534d39f0a98d549083613038565b90612f5c6109bc9273ffffffffffffffffffffffffffffffffffffffff166000527f5076ab9fa18d2a17cfce4375a530b76392de8264a11126885cd5534d39f0a988602052604060002090565b906007612f67610354565b9280548452612f9061238a600183015473ffffffffffffffffffffffffffffffffffffffff1690565b60028101546040850152612fbe6123d5600383015473ffffffffffffffffffffffffffffffffffffffff1690565b60048101546080850152600581015460a0850152612fe3612417600683015460ff1690565b015460e08301527f5076ab9fa18d2a17cfce4375a530b76392de8264a11126885cd5534d39f0a98d5491613038565b906109bc916129d361302b60e061303061302b85612a29565b6121f2565b930151613056565b6129d36109bc939261289d60e06130528361289d87612a29565b9401515b6040908151916130658361023d565b600191828452602084016020368237845115610dda57526130868351613160565b926130918151613160565b9161309c82516131af565b936000815b61311c575b50506130b06136c4565b926130cd6130c76130c0866137cc565b61ffff1690565b94611e31565b908251936000925b8684106130f957505050505050506130f5916130f0916134dc565b610dcd565b5190565b61310d816121a1613116938b878e8861322f565b93868652610d6c565b926130d5565b83518110156131415761313b90613131613146565b6112d18289610ddf565b816130a1565b6130a6565b604051906131538261023d565b6001825260203681840137565b9061316a826103a3565b61317760405191826102ca565b8281527fffffffffffffffffffffffffffffffffffffffffffffffffffffffffffffffe06131a582946103a3565b0190602036910137565b906131b9826103a3565b6131c660405191826102ca565b8281527fffffffffffffffffffffffffffffffffffffffffffffffffffffffffffffffe06131f482946103a3565b019060005b82811061320557505050565b8060606020809385010152016131f9565b9060405191818352602082840101604052602083013790565b919390929361323d82613647565b94909561324986611e3f565b6132539088612d12565b61325c90611e4d565b61326585611e5b565b61326f9036612a1c565b50808061327b87611e69565b9061328591611ead565b61328f9036612a1c565b9061329991613216565b602001206132a685611e69565b6132af916133fc565b6132b890613438565b60ff1690600094855b8987106132ea5750505050505050506109bc916132e06132e592611e3f565b612d12565b611e77565b919497939699909295986132ff8a8686613805565b959094845b8d518110156133e657613317818f610ddf565b51871461332c5761332790610d6c565b613304565b90989550898b9895949d9a976133488361336d969f959e610ddf565b5160019188838b1b938484161590816133d2575b50613374575b505050505050610d6c565b95906132c1565b846133b76133b1886133aa816133bd9661339a613394836133c69e610ddf565b51610d6c565b6133a48389610ddf565b52610ddf565b5193610ddf565b516129ef565b90610ddf565b52179189610ddf565b52388681808088613362565b90506133de8787610ddf565b51103861335c565b50979450989592919a9794509861336d90610d6c565b60806000916020809436036040519283526040810135851a82840152803560408401520135606082015282805260015afa156110c15760005190565b73ffffffffffffffffffffffffffffffffffffffff1673926e370fd53c23f8b71ad2b3217b227e41a92b128114612afc57730c39486f770b26f5527bbbf942726537986cd7eb81146134d65773f39fd6e51aad88f6f4ce6ab8827279cfffb9226681146134d057602490604051907fec459bc00000000000000000000000000000000000000000000000000000000082526004820152fd5b50600290565b50600190565b91906134e88351613160565b9060005b8451811015613576576001806135028385610ddf565b511061353557508061352061351a6135309388610ddf565b5161357d565b61352a8286610ddf565b52610d6c565b6134ec565b61354160449284610ddf565b5190604051917f2b13aef500000000000000000000000000000000000000000000000000000000835260048301526024820152fd5b5090925050565b80511561361d57805160209060051b82018101818301805b8281106135eb57505050508051600181811c9116156000146135e2576109bc916135d5826135ce6135c86135dc956129ef565b84610ddf565b5192610ddf565b5190611ead565b60011c90565b6130f591610ddf565b83825b8281106135fc575001613595565b82518151808210613612575b50500184906135ee565b845281523880613608565b60046040517f9e198af9000000000000000000000000000000000000000000000000000000008152fd5b60418101808211610d99576061820110610d99573603907fffffffffffffffffffffffffffffffffffffffffffffffffffffffffffffff9f820191368311610d99577fffffffffffffffffffffffffffffffffffffffffffffffffffffffffffffff9c0191808311610d99573562ffffff16913563ffffffff1690565b6602ed57011e0000807fffffffffffffffffffffffffffffffffffffffffffffffffffffffffffffffe036013516036137a257366029116137785762ffffff7fffffffffffffffffffffffffffffffffffffffffffffffffffffffffffffffd73601351660038101809111610d995761373c90611e85565b3661374682611e31565b1161374e5790565b60046040517fc30a7bd7000000000000000000000000000000000000000000000000000000008152fd5b60046040517f5796f78a000000000000000000000000000000000000000000000000000000008152fd5b60046040517fe7764c9e000000000000000000000000000000000000000000000000000000008152fd5b60208101808211610d995736106137785736037fffffffffffffffffffffffffffffffffffffffffffffffffffffffffffffffe0013590565b90604e820192838311610d99576001019081600111610d995760208101809111610d995761383291612d12565b0190604e820110610d99573603907fffffffffffffffffffffffffffffffffffffffffffffffffffffffffffffffb28201368111610d995735917fffffffffffffffffffffffffffffffffffffffffffffffffffffffffffffffd2013590565b600481015473ffffffffffffffffffffffffffffffffffffffff8116156138ee5764ffffffffff8042169160a01c1614612599576109bc906fffffffffffffffffffffffffffffffff6138e54283613900565b9154169061263b565b50506b033b2e3c9fd0803ce800000090565b6004810154909161391b9160a01c64ffffffffff1690612a1c565b80156138ee57613a036132e0613a036139fe6139d9856139f86139f16109bc997fffffffffffffffffffffffffffffffffffffffffffffffffffffffffffffffff6135dc9a01978891600060028711600014613a0857506132e06139ea6139ad6125af60027ffffffffffffffffffffffffffffffffffffffffffffffffffffffffffffffffe8b01955b015460801c90565b9d8e6132e06139e36139d96139d26139c5858061263b565b66038882915c4000900490565b938461263b565b6301e13380900490565b978b612d12565b9a87612d12565b6006900490565b96612d12565b611e93565b611ead565b6139ea6139ad6125af60026132e094956139a5565b613a54613a4e7f5076ab9fa18d2a17cfce4375a530b76392de8264a11126885cd5534d39f0a9805461289d84612273565b91611eba565b9080821015613a64575050600090565b8103908111610d995790565b90613a7a826103a3565b604090613a89825191826102ca565b8381527fffffffffffffffffffffffffffffffffffffffffffffffffffffffffffffffe0613ab782956103a3565b019160005b838110613ac95750505050565b6020908251613ad7816102ad565b6000815282600081830152600085830152606060008184015260006080840152600060a0840152600060c0840152600060e08401526000610100840152600061012084015280610140840152610160830152828601015201613abc565b606091600091613b8b613b868273ffffffffffffffffffffffffffffffffffffffff166000527f5076ab9fa18d2a17cfce4375a530b76392de8264a11126885cd5534d39f0a987602052604060002090565b611db6565b805180613b9757505050565b613ba49192939550613a70565b9260005b8251811015613f0a57613bbe610edb8285610ddf565b73ffffffffffffffffffffffffffffffffffffffff8116604051907f313ce567000000000000000000000000000000000000000000000000000000008252602060049281818581865afa9081156110c157600091613eed575b50613c22858a611fb7565b613c2c81876128ae565b93906003613c798973ffffffffffffffffffffffffffffffffffffffff166000527f5076ab9fa18d2a17cfce4375a530b76392de8264a11126885cd5534d39f0a985602052604060002090565b015492613ce56002613cca8b73ffffffffffffffffffffffffffffffffffffffff166000527f5076ab9fa18d2a17cfce4375a530b76392de8264a11126885cd5534d39f0a985602052604060002090565b015473ffffffffffffffffffffffffffffffffffffffff1690565b613d36610ef56001613cca8d73ffffffffffffffffffffffffffffffffffffffff166000527f5076ab9fa18d2a17cfce4375a530b76392de8264a11126885cd5534d39f0a985602052604060002090565b613d7f8b73ffffffffffffffffffffffffffffffffffffffff166000527f5076ab9fa18d2a17cfce4375a530b76392de8264a11126885cd5534d39f0a985602052604060002090565b5494604051997f95d89b41000000000000000000000000000000000000000000000000000000008b5260008b8d81845afa9a8b156110c15760009b613ece575b506000906040519c8d80927f06fdde030000000000000000000000000000000000000000000000000000000082525afa9a8b156110c15760009b613eb1575b50613e07610375565b73ffffffffffffffffffffffffffffffffffffffff909c168c5273ffffffffffffffffffffffffffffffffffffffff909116908b015273ffffffffffffffffffffffffffffffffffffffff1660408a01526060890152608088015260a087015260c086015260ff1660e085015284610100850152610120840152610140830152610160820152613e978287610ddf565b52613ea28186610ddf565b50613eac90610d6c565b613ba8565b613ec7919b503d806000833e6110e881836102ca565b9938613dfe565b6000919b50613ee6903d8084833e6110e881836102ca565b9a90613dbf565b613f049150823d84116111685761115481836102ca565b38613c17565b509293915050565b90613f1c826103a3565b604090613f2b825191826102ca565b8381527fffffffffffffffffffffffffffffffffffffffffffffffffffffffffffffffe0613f5982956103a3565b019160005b838110613f6b5750505050565b602090613f76610382565b6000815282600081830152600085830152606060008184015260006080840152600060a0840152600060c0840152600060e08401526000610100840152600061012084015260006101408401526000610160840152806101808401526101a083015260006101c083015260006101e0830152828601015201613f5e565b606091600091614045613b868273ffffffffffffffffffffffffffffffffffffffff166000527f5076ab9fa18d2a17cfce4375a530b76392de8264a11126885cd5534d39f0a98a602052604060002090565b80518061405157505050565b61405e9192939550613f12565b9260005b8251811015613f0a57614078610edb8285610ddf565b6140c96140c48273ffffffffffffffffffffffffffffffffffffffff166000527f5076ab9fa18d2a17cfce4375a530b76392de8264a11126885cd5534d39f0a988602052604060002090565b612356565b6140d3828761456f565b6140dd8388612429565b926140e88282612f0f565b93600090600090600096614143610ef56004613cca8873ffffffffffffffffffffffffffffffffffffffff166000527f028c7d8c2729a6bb9150d56b34c68e690d2d010cd1f97ccb986fdd9fba86b189602052604060002090565b6143ea575b906004939291602088019260a0614176610ef5865173ffffffffffffffffffffffffffffffffffffffff1690565b604051978880927ffeaf968c0000000000000000000000000000000000000000000000000000000082525afa9384156110c15773ffffffffffffffffffffffffffffffffffffffff966000956143bc575b50516141e89073ffffffffffffffffffffffffffffffffffffffff16610ef5565b9961420a60608b015173ffffffffffffffffffffffffffffffffffffffff1690565b9360a08b01519960808c01519b519560008b6004604051809d81937f95d89b41000000000000000000000000000000000000000000000000000000008352165afa998a156110c15760009a61439f575b506040519a7f06fdde03000000000000000000000000000000000000000000000000000000008c5260008c60048173ffffffffffffffffffffffffffffffffffffffff85165afa9b8c156110c15760009c614382575b506142b9610382565b73ffffffffffffffffffffffffffffffffffffffff90911681529d8e9073ffffffffffffffffffffffffffffffffffffffff16602082015260400190614314919073ffffffffffffffffffffffffffffffffffffffff169052565b60608d015260808c015260a08b015260c08a015260e0890152886101008901526101208801526101408701526101608601526101808501526101a08401526101c08301526101e08201526143688287610ddf565b526143738186610ddf565b5061437d90610d6c565b614062565b614398919c503d806000833e6110e881836102ca565b9a386142b0565b6143b5919a503d806000833e6110e881836102ca565b983861425a565b6141e89195506143dd610ef59160a03d60a011611da957611d8d81836102ca565b50505090509591506141c7565b965091505061444061443b8373ffffffffffffffffffffffffffffffffffffffff166000527f028c7d8c2729a6bb9150d56b34c68e690d2d010cd1f97ccb986fdd9fba86b189602052604060002090565b614929565b9461449261448d8473ffffffffffffffffffffffffffffffffffffffff166000527f028c7d8c2729a6bb9150d56b34c68e690d2d010cd1f97ccb986fdd9fba86b189602052604060002090565b6146df565b956144d7610ef5610ef57f5076ab9fa18d2a17cfce4375a530b76392de8264a11126885cd5534d39f0a98b5473ffffffffffffffffffffffffffffffffffffffff1690565b6040517fb50d882c00000000000000000000000000000000000000000000000000000000815273ffffffffffffffffffffffffffffffffffffffff86166004820152670de0b6b3a764000060248201529390602090859060449082905afa80156110c157600494600091614550575b5093509091614148565b614569915060203d6020116110ba576110ab81836102ca565b38614546565b6146d86109bc926120c36145c28273ffffffffffffffffffffffffffffffffffffffff166000527f5076ab9fa18d2a17cfce4375a530b76392de8264a11126885cd5534d39f0a988602052604060002090565b9360076145cd610354565b95805487526146136145f6600183015473ffffffffffffffffffffffffffffffffffffffff1690565b73ffffffffffffffffffffffffffffffffffffffff166020890152565b6002810154604088015261465e614641600383015473ffffffffffffffffffffffffffffffffffffffff1690565b73ffffffffffffffffffffffffffffffffffffffff166060890152565b60048101546080880152600581015460a088015261468c614683600683015460ff1690565b151560c0890152565b015460e086015273ffffffffffffffffffffffffffffffffffffffff166000527f5076ab9fa18d2a17cfce4375a530b76392de8264a11126885cd5534d39f0a989602052604060002090565b54906126a9565b6004015473ffffffffffffffffffffffffffffffffffffffff1660008181527f5076ab9fa18d2a17cfce4375a530b76392de8264a11126885cd5534d39f0a9886020526040902061482c90614826906007614738610354565b918054835261477e614761600183015473ffffffffffffffffffffffffffffffffffffffff1690565b73ffffffffffffffffffffffffffffffffffffffff166020850152565b600281015460408401526147c96147ac600383015473ffffffffffffffffffffffffffffffffffffffff1690565b73ffffffffffffffffffffffffffffffffffffffff166060850152565b60048101546080840152600581015460a08401526147f76147ee600683015460ff1690565b151560c0850152565b015460e08201527f5076ab9fa18d2a17cfce4375a530b76392de8264a11126885cd5534d39f0a98d5490613012565b91614864565b801561263457600a9161483e91614842565b0490565b8160011c90670de0b6b3a7640000908183190481118415176101e75702010490565b73ffffffffffffffffffffffffffffffffffffffff90817f5076ab9fa18d2a17cfce4375a530b76392de8264a11126885cd5534d39f0a98b54169182156148fd57604460209260405194859384927fb50d882c000000000000000000000000000000000000000000000000000000008452166004830152670de0b6b3a764000060248301525afa9081156110c15760009161270c575090565b505050600090565b9190916fffffffffffffffffffffffffffffffff80809416911601918211610d9957565b614932816146df565b8015614a11576149a96149496125af845460801c90565b808311928315614a03579061495d91612a1c565b61262960018501546149a06125af61498860028901546fffffffffffffffffffffffffffffffff1690565b6fffffffffffffffffffffffffffffffff8416614905565b9060801c614a31565b906149d157613a036125af60036109bc9401546fffffffffffffffffffffffffffffffff1690565b6149fd6149f76125af60036109bc9501546fffffffffffffffffffffffffffffffff1690565b91611e93565b90614a31565b614a0c91612a1c565b61495d565b50600301546109bc906fffffffffffffffffffffffffffffffff166125af565b8160011c906b033b2e3c9fd0803ce8000000908183190481118415176101e75702010490565b614a63613a4e82612273565b908015612634576109bc9161484256fea26469706673582212209b604b2b80f87e42d4b36eacc8ea45fd2fd5480cdb0a1412216dee12559751d864736f6c63430008130033",
  "devdoc": {
    "author": "Kresko",
    "kind": "dev",
    "methods": {},
    "title": "UIDataProviderFacet",
    "version": 1
  },
  "userdoc": {
    "kind": "user",
    "methods": {},
    "notice": "UI data aggregation views",
    "version": 1
  },
  "storageLayout": {
    "storage": [],
    "types": null
  }
}