{
  "address": "0xDD2A261B01c2Bfe42d5d0D0a38758050aF083512",
  "abi": [
    {
      "inputs": [
        {
          "internalType": "address",
          "name": "_factory",
          "type": "address"
        },
        {
          "internalType": "address",
          "name": "_admin",
          "type": "address"
        }
      ],
      "stateMutability": "nonpayable",
      "type": "constructor"
    },
    {
      "anonymous": false,
      "inputs": [
        {
          "indexed": true,
          "internalType": "address",
          "name": "newAdmin",
          "type": "address"
        }
      ],
      "name": "NewAdmin",
      "type": "event"
    },
    {
      "anonymous": false,
      "inputs": [
        {
          "indexed": true,
          "internalType": "address",
          "name": "krAsset",
          "type": "address"
        },
        {
          "indexed": true,
          "internalType": "address",
          "name": "pairAddress",
          "type": "address"
        }
      ],
      "name": "NewKrAssetPair",
      "type": "event"
    },
    {
      "anonymous": false,
      "inputs": [
        {
          "indexed": false,
          "internalType": "uint256",
          "name": "newMinUpdatePeriod",
          "type": "uint256"
        }
      ],
      "name": "NewMinUpdatePeriod",
      "type": "event"
    },
    {
      "anonymous": false,
      "inputs": [
        {
          "indexed": true,
          "internalType": "address",
          "name": "pair",
          "type": "address"
        },
        {
          "indexed": true,
          "internalType": "address",
          "name": "token0",
          "type": "address"
        },
        {
          "indexed": true,
          "internalType": "address",
          "name": "token1",
          "type": "address"
        },
        {
          "indexed": false,
          "internalType": "uint256",
          "name": "updatePeriod",
          "type": "uint256"
        }
      ],
      "name": "NewPair",
      "type": "event"
    },
    {
      "anonymous": false,
      "inputs": [
        {
          "indexed": true,
          "internalType": "address",
          "name": "token0",
          "type": "address"
        },
        {
          "indexed": true,
          "internalType": "address",
          "name": "token1",
          "type": "address"
        },
        {
          "indexed": true,
          "internalType": "uint32",
          "name": "blockTimestampLast",
          "type": "uint32"
        },
        {
          "components": [
            {
              "internalType": "uint224",
              "name": "_x",
              "type": "uint224"
            }
          ],
          "indexed": false,
          "internalType": "struct UQ.uq112x112",
          "name": "price0CumulativeLast",
          "type": "tuple"
        },
        {
          "components": [
            {
              "internalType": "uint224",
              "name": "_x",
              "type": "uint224"
            }
          ],
          "indexed": false,
          "internalType": "struct UQ.uq112x112",
          "name": "price1CumulativeLast",
          "type": "tuple"
        },
        {
          "indexed": false,
          "internalType": "uint256",
          "name": "updatePeriod",
          "type": "uint256"
        },
        {
          "indexed": false,
          "internalType": "uint256",
          "name": "timeElapsed",
          "type": "uint256"
        }
      ],
      "name": "NewPrice",
      "type": "event"
    },
    {
      "anonymous": false,
      "inputs": [
        {
          "indexed": true,
          "internalType": "address",
          "name": "pair",
          "type": "address"
        },
        {
          "indexed": true,
          "internalType": "address",
          "name": "token0",
          "type": "address"
        },
        {
          "indexed": true,
          "internalType": "address",
          "name": "token1",
          "type": "address"
        },
        {
          "indexed": false,
          "internalType": "uint256",
          "name": "updatePeriod",
          "type": "uint256"
        }
      ],
      "name": "PairUpdated",
      "type": "event"
    },
    {
      "inputs": [],
      "name": "admin",
      "outputs": [
        {
          "internalType": "address",
          "name": "",
          "type": "address"
        }
      ],
      "stateMutability": "view",
      "type": "function"
    },
    {
      "inputs": [
        {
          "internalType": "address",
          "name": "_pairAddress",
          "type": "address"
        },
        {
          "internalType": "uint256",
          "name": "_updatePeriod",
          "type": "uint256"
        }
      ],
      "name": "configurePair",
      "outputs": [],
      "stateMutability": "nonpayable",
      "type": "function"
    },
    {
      "inputs": [
        {
          "internalType": "address",
          "name": "_pairAddress",
          "type": "address"
        },
        {
          "internalType": "address",
          "name": "_token",
          "type": "address"
        },
        {
          "internalType": "uint256",
          "name": "_amountIn",
          "type": "uint256"
        }
      ],
      "name": "consult",
      "outputs": [
        {
          "internalType": "uint256",
          "name": "amountOut",
          "type": "uint256"
        }
      ],
      "stateMutability": "view",
      "type": "function"
    },
    {
      "inputs": [
        {
          "internalType": "address",
          "name": "_kreskoAsset",
          "type": "address"
        },
        {
          "internalType": "uint256",
          "name": "_amountIn",
          "type": "uint256"
        }
      ],
      "name": "consultKrAsset",
      "outputs": [
        {
          "internalType": "uint256",
          "name": "amountOut",
          "type": "uint256"
        }
      ],
      "stateMutability": "view",
      "type": "function"
    },
    {
      "inputs": [
        {
          "internalType": "address",
          "name": "_erc20",
          "type": "address"
        },
        {
          "internalType": "address",
          "name": "_to",
          "type": "address"
        }
      ],
      "name": "drainERC20",
      "outputs": [],
      "stateMutability": "nonpayable",
      "type": "function"
    },
    {
      "inputs": [],
      "name": "factory",
      "outputs": [
        {
          "internalType": "contract IUniswapV2Factory",
          "name": "",
          "type": "address"
        }
      ],
      "stateMutability": "view",
      "type": "function"
    },
    {
      "inputs": [
        {
          "internalType": "address",
          "name": "_kreskoAsset",
          "type": "address"
        }
      ],
      "name": "getKrAssetPair",
      "outputs": [
        {
          "components": [
            {
              "components": [
                {
                  "internalType": "uint224",
                  "name": "_x",
                  "type": "uint224"
                }
              ],
              "internalType": "struct UQ.uq112x112",
              "name": "price0Average",
              "type": "tuple"
            },
            {
              "components": [
                {
                  "internalType": "uint224",
                  "name": "_x",
                  "type": "uint224"
                }
              ],
              "internalType": "struct UQ.uq112x112",
              "name": "price1Average",
              "type": "tuple"
            },
            {
              "internalType": "address",
              "name": "token0",
              "type": "address"
            },
            {
              "internalType": "address",
              "name": "token1",
              "type": "address"
            },
            {
              "internalType": "uint256",
              "name": "price0CumulativeLast",
              "type": "uint256"
            },
            {
              "internalType": "uint256",
              "name": "price1CumulativeLast",
              "type": "uint256"
            },
            {
              "internalType": "uint32",
              "name": "blockTimestampLast",
              "type": "uint32"
            },
            {
              "internalType": "uint256",
              "name": "updatePeriod",
              "type": "uint256"
            }
          ],
          "internalType": "struct IUniswapV2Oracle.PairData",
          "name": "",
          "type": "tuple"
        }
      ],
      "stateMutability": "view",
      "type": "function"
    },
    {
      "inputs": [
        {
          "internalType": "address",
          "name": "_pairAddress",
          "type": "address"
        }
      ],
      "name": "getPair",
      "outputs": [
        {
          "components": [
            {
              "components": [
                {
                  "internalType": "uint224",
                  "name": "_x",
                  "type": "uint224"
                }
              ],
              "internalType": "struct UQ.uq112x112",
              "name": "price0Average",
              "type": "tuple"
            },
            {
              "components": [
                {
                  "internalType": "uint224",
                  "name": "_x",
                  "type": "uint224"
                }
              ],
              "internalType": "struct UQ.uq112x112",
              "name": "price1Average",
              "type": "tuple"
            },
            {
              "internalType": "address",
              "name": "token0",
              "type": "address"
            },
            {
              "internalType": "address",
              "name": "token1",
              "type": "address"
            },
            {
              "internalType": "uint256",
              "name": "price0CumulativeLast",
              "type": "uint256"
            },
            {
              "internalType": "uint256",
              "name": "price1CumulativeLast",
              "type": "uint256"
            },
            {
              "internalType": "uint32",
              "name": "blockTimestampLast",
              "type": "uint32"
            },
            {
              "internalType": "uint256",
              "name": "updatePeriod",
              "type": "uint256"
            }
          ],
          "internalType": "struct IUniswapV2Oracle.PairData",
          "name": "",
          "type": "tuple"
        }
      ],
      "stateMutability": "view",
      "type": "function"
    },
    {
      "inputs": [],
      "name": "incentiveAmount",
      "outputs": [
        {
          "internalType": "uint256",
          "name": "",
          "type": "uint256"
        }
      ],
      "stateMutability": "view",
      "type": "function"
    },
    {
      "inputs": [],
      "name": "incentiveToken",
      "outputs": [
        {
          "internalType": "contract IERC20Minimal",
          "name": "",
          "type": "address"
        }
      ],
      "stateMutability": "view",
      "type": "function"
    },
    {
      "inputs": [
        {
          "internalType": "address",
          "name": "_pairAddress",
          "type": "address"
        },
        {
          "internalType": "address",
          "name": "_kreskoAsset",
          "type": "address"
        },
        {
          "internalType": "uint256",
          "name": "_updatePeriod",
          "type": "uint256"
        }
      ],
      "name": "initPair",
      "outputs": [],
      "stateMutability": "nonpayable",
      "type": "function"
    },
    {
      "inputs": [
        {
          "internalType": "address",
          "name": "",
          "type": "address"
        }
      ],
      "name": "krAssets",
      "outputs": [
        {
          "internalType": "address",
          "name": "",
          "type": "address"
        }
      ],
      "stateMutability": "view",
      "type": "function"
    },
    {
      "inputs": [],
      "name": "minUpdatePeriod",
      "outputs": [
        {
          "internalType": "uint256",
          "name": "",
          "type": "uint256"
        }
      ],
      "stateMutability": "view",
      "type": "function"
    },
    {
      "inputs": [
        {
          "internalType": "address",
          "name": "_newAdmin",
          "type": "address"
        }
      ],
      "name": "setAdmin",
      "outputs": [],
      "stateMutability": "nonpayable",
      "type": "function"
    },
    {
      "inputs": [
        {
          "internalType": "address",
          "name": "_newIncentiveToken",
          "type": "address"
        },
        {
          "internalType": "uint256",
          "name": "amount",
          "type": "uint256"
        }
      ],
      "name": "setIncentiveToken",
      "outputs": [],
      "stateMutability": "nonpayable",
      "type": "function"
    },
    {
      "inputs": [
        {
          "internalType": "uint256",
          "name": "_minUpdatePeriod",
          "type": "uint256"
        }
      ],
      "name": "setMinUpdatePeriod",
      "outputs": [],
      "stateMutability": "nonpayable",
      "type": "function"
    },
    {
      "inputs": [
        {
          "internalType": "address",
          "name": "_pairAddress",
          "type": "address"
        }
      ],
      "name": "update",
      "outputs": [],
      "stateMutability": "nonpayable",
      "type": "function"
    },
    {
      "inputs": [
        {
          "internalType": "address",
          "name": "_kreskoAsset",
          "type": "address"
        }
      ],
      "name": "updateWithIncentive",
      "outputs": [],
      "stateMutability": "nonpayable",
      "type": "function"
    }
  ],
  "transactionHash": "0xd17d1eaf0dc01752904c8e4177c379aaffb0f1d811e572db4b70c159f0e11cc4",
  "args": [
    "0x6af5142d9102De2C6c1A937f5F317f76598fB04E",
    "0xB48bB6b68Ab4D366B4f9A30eE6f7Ee55125c2D9d"
  ],
  "numDeployments": 1,
  "solcInputHash": "b2440e2ee25a3b56f6c1ab3d15a60cd4",
  "bytecode": "0x60a06040526729a2241af62c00006001556103846003553480156200002357600080fd5b5060405162001e6538038062001e6583398101604081905262000046916200012e565b60408051808201909152600381526237313160e81b60208201526001600160a01b038316620000935760405162461bcd60e51b81526004016200008a919062000165565b60405180910390fd5b5060408051808201909152600381526203731360ec1b60208201526001600160a01b038216620000d85760405162461bcd60e51b81526004016200008a919062000165565b5060609190911b6001600160601b031916608052600280546001600160a01b0319166001600160a01b03909216919091179055620001bb565b80516001600160a01b03811681146200012957600080fd5b919050565b6000806040838503121562000141578182fd5b6200014c8362000111565b91506200015c6020840162000111565b90509250929050565b6000602080835283518082850152825b81811015620001935785810183015185820160400152820162000175565b81811115620001a55783604083870101525b50601f01601f1916929092016040019392505050565b60805160601c611c8c620001d96000398061121e5250611c8c6000f3fe608060405234801561001057600080fd5b50600436106101165760003560e01c8063813c3c93116100a2578063b50d882c11610071578063b50d882c1461022e578063c45310d414610241578063c45a015514610254578063cae5d73b1461025c578063f851a4401461026457610116565b8063813c3c93146101ed578063999db345146102005780639e89404714610213578063b26237e01461022657610116565b80635b10f7ac116100e95780635b10f7ac1461017f578063636cfa0c14610192578063638126f8146101b2578063704b6c02146101c75780637e56402f146101da57610116565b80631a788a021461011b5780631c1b8772146101445780633cfdaa7d1461015957806352244ec81461016c575b600080fd5b61012e61012936600461197a565b61026c565b60405161013b9190611b8a565b60405180910390f35b61015761015236600461197a565b610316565b005b61012e61016736600461197a565b610322565b61015761017a366004611a2a565b6103d7565b61015761018d3660046119ea565b61055d565b6101a56101a03660046119ea565b610b0a565b60405161013b9190611c38565b6101ba610c4f565b60405161013b9190611b0a565b6101576101d536600461197a565b610c5e565b6101576101e83660046119b2565b610d31565b6101ba6101fb36600461197a565b610e72565b61015761020e366004611ac3565b610e8d565b61015761022136600461197a565b610f14565b6101a561108d565b6101a561023c366004611a2a565b611093565b61015761024f366004611a2a565b6111af565b6101ba61121c565b6101a5611240565b6101ba611246565b6102746118ed565b506001600160a01b0380821660009081526004602081815260409283902083516101208101855281546001600160e01b03908116610100830190815282528551808501875260018401549091168152928101929092526002810154851693820193909352600383015490931660608401528101546080830152600581015460a0830152600681015463ffffffff1660c08301526007015460e08201525b919050565b61031f81611255565b50565b61032a6118ed565b506001600160a01b039081166000908152600560208181526040808420548516845260048083529381902081516101208101835281546001600160e01b039081166101008301908152825283518086018552600184015490911681529381019390935260028101548616918301919091526003810154909416606082015291830154608083015282015460a0820152600682015463ffffffff1660c082015260079091015460e082015290565b60025460408051808201909152600381526237303960e81b6020820152906001600160a01b031633146104265760405162461bcd60e51b815260040161041d9190611b37565b60405180910390fd5b506001600160a01b03828116600090815260046020526040902060020154161580159061046f57506001600160a01b038281166000908152600460205260409020600301541615155b604051806040016040528060038152602001620dcc0d60ea1b815250906104a95760405162461bcd60e51b815260040161041d9190611b37565b50600354811015604051806040016040528060038152602001621b981960e91b815250906104ea5760405162461bcd60e51b815260040161041d9190611b37565b506001600160a01b03808316600081815260046020526040908190206007810185905560038101546002909101549151908416939190911691907f5d6c5f7b483e292dff8098abd4301c1a91d6933f1a5c7bd3304031a6199dd64590610551908690611c38565b60405180910390a45050565b60025460408051808201909152600381526237303960e81b6020820152906001600160a01b031633146105a35760405162461bcd60e51b815260040161041d9190611b37565b5060408051808201909152600381526237303160e81b60208201526001600160a01b0384166105e55760405162461bcd60e51b815260040161041d9190611b37565b50600354811015604051806040016040528060038152602001621b981960e91b815250906106265760405162461bcd60e51b815260040161041d9190611b37565b506001600160a01b03838116600090815260046020908152604091829020600201548251808401909352600383526237303360e81b91830191909152909116156106835760405162461bcd60e51b815260040161041d9190611b37565b5060008390506000816001600160a01b0316630dfe16816040518163ffffffff1660e01b815260040160206040518083038186803b1580156106c457600080fd5b505afa1580156106d8573d6000803e3d6000fd5b505050506040513d601f19601f820116820180604052508101906106fc9190611996565b90506000826001600160a01b031663d21220a76040518163ffffffff1660e01b815260040160206040518083038186803b15801561073957600080fd5b505afa15801561074d573d6000803e3d6000fd5b505050506040513d601f19601f820116820180604052508101906107719190611996565b90506001600160a01b0382161580159061079357506001600160a01b03811615155b604051806040016040528060038152602001620dcc0d60ea1b815250906107cd5760405162461bcd60e51b815260040161041d9190611b37565b50816001600160a01b0316856001600160a01b031614806107ff5750806001600160a01b0316856001600160a01b0316145b15610858576001600160a01b0385811660008181526005602052604080822080546001600160a01b031916948b169485179055517feabf019a206f6caf3c62b981b764479e0340f903f1ae92e6188e96401b49fe0c9190a35b6000806000856001600160a01b0316630902f1ac6040518163ffffffff1660e01b815260040160606040518083038186803b15801561089657600080fd5b505afa1580156108aa573d6000803e3d6000fd5b505050506040513d601f19601f820116820180604052508101906108ce9190611a75565b925092509250826001600160701b03166000141580156108f657506001600160701b03821615155b604051806040016040528060038152602001621b981b60e91b815250906109305760405162461bcd60e51b815260040161041d9190611b37565b506001600160a01b038981166000908152600460208181526040928390206002810180546001600160a01b03199081168c881617909155600390910180549091168986161790558251635909c0d560e01b81529251938a1693635909c0d5938084019390829003018186803b1580156109a857600080fd5b505afa1580156109bc573d6000803e3d6000fd5b505050506040513d601f19601f820116820180604052508101906109e09190611adb565b600460008b6001600160a01b03166001600160a01b0316815260200190815260200160002060040181905550856001600160a01b0316635a3d54936040518163ffffffff1660e01b815260040160206040518083038186803b158015610a4557600080fd5b505afa158015610a59573d6000803e3d6000fd5b505050506040513d601f19601f82011682018060405250810190610a7d9190611adb565b6001600160a01b038a8116600081815260046020526040908190206005810194909455600784018b90556006909301805463ffffffff191663ffffffff861617905591518682169291881691907f8aec9bfffd40d5d25863c2e7368454e9b267f42b45bcdf7a99feddfa18c09f4c90610af7908c90611c38565b60405180910390a4505050505050505050565b6001600160a01b03808416600090815260046020818152604080842081516101208101835281546001600160e01b039081166101008301908152825283518086018552600184015490911681529381019390935260028101548616918301829052600381015486166060840152928301546080830152600583015460a0830152600683015463ffffffff1660c083015260079092015460e0820152919285161415610bd4578051610bc490610bbf9085611439565b6114c3565b6001600160901b03169150610c47565b80606001516001600160a01b0316846001600160a01b0316146040518060400160405280600381526020016206e60760eb1b81525090610c275760405162461bcd60e51b815260040161041d9190611b37565b506020810151610c3b90610bbf9085611439565b6001600160901b031691505b509392505050565b6000546001600160a01b031681565b60025460408051808201909152600381526237303960e81b6020820152906001600160a01b03163314610ca45760405162461bcd60e51b815260040161041d9190611b37565b5060408051808201909152600381526237313360e81b60208201526001600160a01b038216610ce65760405162461bcd60e51b815260040161041d9190611b37565b50600280546001600160a01b0319166001600160a01b0383169081179091556040517f71614071b88dee5e0b2ae578a9dd7b2ebbe9ae832ba419dc0242cd065a290b6c90600090a250565b60025460408051808201909152600381526237303960e81b6020820152906001600160a01b03163314610d775760405162461bcd60e51b815260040161041d9190611b37565b506040516370a0823160e01b81526001600160a01b0383169063a9059cbb90839083906370a0823190610dae903090600401611b0a565b60206040518083038186803b158015610dc657600080fd5b505afa158015610dda573d6000803e3d6000fd5b505050506040513d601f19601f82011682018060405250810190610dfe9190611adb565b6040518363ffffffff1660e01b8152600401610e1b929190611b1e565b602060405180830381600087803b158015610e3557600080fd5b505af1158015610e49573d6000803e3d6000fd5b505050506040513d601f19601f82011682018060405250810190610e6d9190611a55565b505050565b6005602052600090815260409020546001600160a01b031681565b60025460408051808201909152600381526237303960e81b6020820152906001600160a01b03163314610ed35760405162461bcd60e51b815260040161041d9190611b37565b5060038190556040517f8a7025db6a9c815ab177c3a163acda9e7b1fb0fad7da8a4bc340863591925cda90610f09908390611c38565b60405180910390a150565b6001600160a01b03808216600090815260056020526040902054610f389116611255565b6000546040516370a0823160e01b81526729a2241af62c0000916001600160a01b0316906370a0823190610f70903090600401611b0a565b60206040518083038186803b158015610f8857600080fd5b505afa158015610f9c573d6000803e3d6000fd5b505050506040513d601f19601f82011682018060405250810190610fc09190611adb565b1015604051806040016040528060038152602001621b989960e91b81525090610ffc5760405162461bcd60e51b815260040161041d9190611b37565b5060005460405163a9059cbb60e01b81526001600160a01b039091169063a9059cbb906110379033906729a2241af62c000090600401611b1e565b602060405180830381600087803b15801561105157600080fd5b505af1158015611065573d6000803e3d6000fd5b505050506040513d601f19601f820116820180604052508101906110899190611a55565b5050565b60035481565b6001600160a01b0380831660008181526005602081815260408084205486168452600480835281852082516101208101845281546001600160e01b0390811661010083019081528252845180870186526001840154909116815294810194909452600281015488169284018390526003810154909716606084015286015460808301529185015460a0820152600685015463ffffffff1660c082015260079094015460e0850152909291141561116357805161115390610bbf9085611439565b6001600160901b031691506111a8565b80606001516001600160a01b0316846001600160a01b03161461118957600091506111a8565b602081015161119c90610bbf9085611439565b6001600160901b031691505b5092915050565b60025460408051808201909152600381526237303960e81b6020820152906001600160a01b031633146111f55760405162461bcd60e51b815260040161041d9190611b37565b50600080546001600160a01b0319166001600160a01b039390931692909217909155600155565b7f000000000000000000000000000000000000000000000000000000000000000081565b60015481565b6002546001600160a01b031681565b6001600160a01b0381166000908152600460209081526040918290206006810154835180850190945260038452620dcc0d60ea1b92840192909252919063ffffffff166112b55760405162461bcd60e51b815260040161041d9190611b37565b5060008060006112c4856114ca565b6006870154600788015460408051808201909152600381526237303760e81b602082015294975092955090935063ffffffff90811684039291908316101561131f5760405162461bcd60e51b815260040161041d9190611b37565b5060405180602001604052808263ffffffff16876004015487038161134057fe5b046001600160e01b03908116909152905186546001600160e01b031916911617855560408051602081019091526005860154819063ffffffff84169086038161138557fe5b046001600160e01b0390811690915290516001870180546001600160e01b03191691909216178155600486018590556005860184905560068601805463ffffffff191663ffffffff851690811790915560038701546002880154600789015460405193946001600160a01b039384169493909216927f4801f5931ba41963b02f50608ecec4798a1aaac41e7e85e64c50430e25c38fa492611429928c928990611c09565b60405180910390a4505050505050565b61144161193e565b600082158061146757505082516001600160e01b03168281029083828161146457fe5b04145b6114ac576040805162461bcd60e51b815260206004820152601160248201527055513a3a6d756c3a206f766572666c6f7760781b604482015290519081900360640190fd5b604080516020810190915290815290505b92915050565b5160701c90565b60008060006114d76116bf565b9050836001600160a01b0316635909c0d56040518163ffffffff1660e01b815260040160206040518083038186803b15801561151257600080fd5b505afa158015611526573d6000803e3d6000fd5b505050506040513d601f19601f8201168201806040525081019061154a9190611adb565b9250836001600160a01b0316635a3d54936040518163ffffffff1660e01b815260040160206040518083038186803b15801561158557600080fd5b505afa158015611599573d6000803e3d6000fd5b505050506040513d601f19601f820116820180604052508101906115bd9190611adb565b91506000806000866001600160a01b0316630902f1ac6040518163ffffffff1660e01b815260040160606040518083038186803b1580156115fd57600080fd5b505afa158015611611573d6000803e3d6000fd5b505050506040513d601f19601f820116820180604052508101906116359190611a75565b9250925092508363ffffffff168163ffffffff16146116b55780840363ffffffff811661166e6001600160701b038086169087166116c9565b600001516001600160e01b031602870196508063ffffffff166116a3856001600160701b0316856001600160701b03166116c9565b516001600160e01b0316029590950194505b5050509193909250565b63ffffffff421690565b6116d1611951565b60008211611726576040805162461bcd60e51b815260206004820152601e60248201527f55513a3a6672616374696f6e3a206469766973696f6e206279207a65726f0000604482015290519081900360640190fd5b8261174057506040805160208101909152600081526114bd565b6001600160901b0383116117d557600082607085901b8161175d57fe5b0490506001600160e01b038111156117b5576040805162461bcd60e51b815260206004820152601660248201527555513a3a6672616374696f6e3a206f766572666c6f7760501b604482015290519081900360640190fd5b6040518060200160405280826001600160e01b03168152509150506114bd565b60006117e684600160701b8561183d565b90506001600160e01b038111156117b5576040805162461bcd60e51b815260206004820152601660248201527555513a3a6672616374696f6e3a206f766572666c6f7760501b604482015290519081900360640190fd5b6000808060001985870986860292508281109083900303905080611873576000841161186857600080fd5b5082900490506118e6565b80841161187f57600080fd5b6000848688096000868103871696879004966002600389028118808a02820302808a02820302808a02820302808a02820302808a02820302808a02909103029181900381900460010186841190950394909402919094039290920491909117919091029150505b9392505050565b604051806101000160405280611901611951565b815260200161190e611951565b815260006020820181905260408201819052606082018190526080820181905260a0820181905260c09091015290565b6040518060200160405280600081525090565b60408051602081019091526000815290565b80516001600160701b038116811461031157600080fd5b60006020828403121561198b578081fd5b81356118e681611c41565b6000602082840312156119a7578081fd5b81516118e681611c41565b600080604083850312156119c4578081fd5b82356119cf81611c41565b915060208301356119df81611c41565b809150509250929050565b6000806000606084860312156119fe578081fd5b8335611a0981611c41565b92506020840135611a1981611c41565b929592945050506040919091013590565b60008060408385031215611a3c578182fd5b8235611a4781611c41565b946020939093013593505050565b600060208284031215611a66578081fd5b815180151581146118e6578182fd5b600080600060608486031215611a89578283fd5b611a9284611963565b9250611aa060208501611963565b9150604084015163ffffffff81168114611ab8578182fd5b809150509250925092565b600060208284031215611ad4578081fd5b5035919050565b600060208284031215611aec578081fd5b5051919050565b6001600160a01b03169052565b63ffffffff169052565b6001600160a01b0391909116815260200190565b6001600160a01b03929092168252602082015260400190565b6000602080835283518082850152825b81811015611b6357858101830151858201604001528201611b47565b81811115611b745783604083870101525b50601f01601f1916929092016040019392505050565b8151516001600160e01b03908116825260208084015151909116908201526040808301516001600160a01b031690820152606080830151610100830191611bd390840182611af3565b506080830151608083015260a083015160a083015260c0830151611bfa60c0840182611b00565b5060e092830151919092015290565b93546001600160e01b03908116855292549092166020840152604083015263ffffffff16606082015260800190565b90815260200190565b6001600160a01b038116811461031f57600080fdfea26469706673582212203bd2908e9afb1b25548984227deda33cf751fd75e5347b81274660718c5b0bd964736f6c63430007060033",
  "devdoc": {
    "author": "Kresko",
    "kind": "dev",
    "methods": {
      "configurePair(address,uint256)": {
        "params": {
          "_pairAddress": "Pair address",
          "_updatePeriod": "Update period (TWAP)"
        }
      },
      "consult(address,address,uint256)": {
        "params": {
          "_amountIn": "Amount of token to get value for",
          "_pairAddress": "Address of the pair that contains the token",
          "_token": "Address of the token to get value for"
        },
        "returns": {
          "amountOut": "Amount of tokenOut that `_amountIn` of `_token` is worth"
        }
      },
      "consultKrAsset(address,uint256)": {
        "params": {
          "_amountIn": "Amount of Kresko Asset to get value for",
          "_kreskoAsset": "Kresko asset address"
        }
      },
      "drainERC20(address,address)": {
        "params": {
          "_erc20": "drain any sent tokens",
          "_to": "drain any sent tokens"
        }
      },
      "getKrAssetPair(address)": {
        "params": {
          "_kreskoAsset": "Kresko Asset in the pair we want to get pair data for"
        }
      },
      "initPair(address,address,uint256)": {
        "params": {
          "_krAsset": "Kresko Asset in the pair we want to add helper functionality for",
          "_pairAddress": "Liquidity token address for the pair",
          "_updatePeriod": "The update period (TWAP) for this AMM pair"
        }
      },
      "setAdmin(address)": {
        "params": {
          "_newAdmin": "New admin address"
        }
      },
      "setIncentiveToken(address,uint256)": {
        "params": {
          "_newIncentiveToken": "new incentive token for updater",
          "amount": "amount of incentive tokens"
        }
      },
      "setMinUpdatePeriod(uint256)": {
        "params": {
          "_minUpdatePeriod": "The new minimum period that can be set for a pair"
        }
      },
      "update(address)": {
        "params": {
          "_pairAddress": "Pair address"
        }
      },
      "updateWithIncentive(address)": {
        "params": {
          "_kreskoAsset": "Kresko Asset in the pair we want to update pair data for"
        }
      }
    },
    "title": "Kresko AMM Oracle (Uniswap V2) Keeps track of time-weighted average prices for tokens in a Uniswap V2 pair. This oracle is intended to be used with Kresko AMM. This oracle is updated by calling the `update` with the liquidity token address. The prices can be queried by calling `consult` or `consultKrAsset` for quality-of-life with Kresko Assets, it does not need the pair address. Bookkeeping is done in terms of time-weighted average prices, and that period has a lower bound of `minUpdatePeriod`. Logic is pretty much what's laid out in https://github.com/Uniswap/v2-periphery/blob/master/contracts/examples/ExampleOracleSimple.sol This contract just extends some storage to deal with many pairs with their own configuration.",
    "version": 1
  },
  "userdoc": {
    "kind": "user",
    "methods": {
      "admin()": {
        "notice": "returns the current admin of the oracle"
      },
      "configurePair(address,uint256)": {
        "notice": "Configures existing values of an AMM pair"
      },
      "consult(address,address,uint256)": {
        "notice": "General consult function, gets a value for `_amountIn` of `_token` in terms of `_tokenOut`"
      },
      "consultKrAsset(address,uint256)": {
        "notice": "Get the AMM price for an amount of krAsset"
      },
      "drainERC20(address,address)": {
        "notice": "Move any missent tokens"
      },
      "factory()": {
        "notice": "returns the connected univ2 factory"
      },
      "getKrAssetPair(address)": {
        "notice": "Get the current data for a pair"
      },
      "incentiveAmount()": {
        "notice": "returns the amount of incentive tokens sent using the incentivized update"
      },
      "incentiveToken()": {
        "notice": "returns the incentive token for the incentivized update"
      },
      "initPair(address,address,uint256)": {
        "notice": "Initializes an Uniswap V2 pair to be tracked by this oracle. The criteria for a pair to be tracked: The pair must not already be tracked by this oracle. The pair must exist. The pair must have reserves. The update period must be greater than the minimum update period."
      },
      "krAssets(address)": {
        "notice": "returns the pair address for a given krAsset"
      },
      "minUpdatePeriod()": {
        "notice": "returns the TWAP time period in seconds"
      },
      "setAdmin(address)": {
        "notice": "Sets a new admin"
      },
      "setMinUpdatePeriod(uint256)": {
        "notice": "Set a new min update period"
      },
      "update(address)": {
        "notice": "Updates the oracle values for a pair"
      },
      "updateWithIncentive(address)": {
        "notice": "Update pair data with incentives sent"
      }
    },
    "notice": "Kresko gives _NO GUARANTEES_ for the correctness of the prices provided by this oracle.",
    "version": 1
  },
  "storageLayout": {
    "storage": [
      {
        "astId": 587,
        "contract": "src/contracts/minter/amm-oracle/UniswapV2Oracle.sol:UniswapV2Oracle",
        "label": "incentiveToken",
        "offset": 0,
        "slot": "0",
        "type": "t_contract(IERC20Minimal)1494"
      },
      {
        "astId": 591,
        "contract": "src/contracts/minter/amm-oracle/UniswapV2Oracle.sol:UniswapV2Oracle",
        "label": "incentiveAmount",
        "offset": 0,
        "slot": "1",
        "type": "t_uint256"
      },
      {
        "astId": 594,
        "contract": "src/contracts/minter/amm-oracle/UniswapV2Oracle.sol:UniswapV2Oracle",
        "label": "admin",
        "offset": 0,
        "slot": "2",
        "type": "t_address"
      },
      {
        "astId": 598,
        "contract": "src/contracts/minter/amm-oracle/UniswapV2Oracle.sol:UniswapV2Oracle",
        "label": "minUpdatePeriod",
        "offset": 0,
        "slot": "3",
        "type": "t_uint256"
      },
      {
        "astId": 602,
        "contract": "src/contracts/minter/amm-oracle/UniswapV2Oracle.sol:UniswapV2Oracle",
        "label": "_pairs",
        "offset": 0,
        "slot": "4",
        "type": "t_mapping(t_address,t_struct(PairData)378_storage)"
      },
      {
        "astId": 607,
        "contract": "src/contracts/minter/amm-oracle/UniswapV2Oracle.sol:UniswapV2Oracle",
        "label": "krAssets",
        "offset": 0,
        "slot": "5",
        "type": "t_mapping(t_address,t_address)"
      }
    ],
    "types": {
      "t_address": {
        "encoding": "inplace",
        "label": "address",
        "numberOfBytes": "20"
      },
      "t_contract(IERC20Minimal)1494": {
        "encoding": "inplace",
        "label": "contract IERC20Minimal",
        "numberOfBytes": "20"
      },
      "t_mapping(t_address,t_address)": {
        "encoding": "mapping",
        "key": "t_address",
        "label": "mapping(address => address)",
        "numberOfBytes": "32",
        "value": "t_address"
      },
      "t_mapping(t_address,t_struct(PairData)378_storage)": {
        "encoding": "mapping",
        "key": "t_address",
        "label": "mapping(address => struct IUniswapV2Oracle.PairData)",
        "numberOfBytes": "32",
        "value": "t_struct(PairData)378_storage"
      },
      "t_struct(PairData)378_storage": {
        "encoding": "inplace",
        "label": "struct IUniswapV2Oracle.PairData",
        "members": [
          {
            "astId": 363,
            "contract": "src/contracts/minter/amm-oracle/UniswapV2Oracle.sol:UniswapV2Oracle",
            "label": "price0Average",
            "offset": 0,
            "slot": "0",
            "type": "t_struct(uq112x112)2538_storage"
          },
          {
            "astId": 365,
            "contract": "src/contracts/minter/amm-oracle/UniswapV2Oracle.sol:UniswapV2Oracle",
            "label": "price1Average",
            "offset": 0,
            "slot": "1",
            "type": "t_struct(uq112x112)2538_storage"
          },
          {
            "astId": 367,
            "contract": "src/contracts/minter/amm-oracle/UniswapV2Oracle.sol:UniswapV2Oracle",
            "label": "token0",
            "offset": 0,
            "slot": "2",
            "type": "t_address"
          },
          {
            "astId": 369,
            "contract": "src/contracts/minter/amm-oracle/UniswapV2Oracle.sol:UniswapV2Oracle",
            "label": "token1",
            "offset": 0,
            "slot": "3",
            "type": "t_address"
          },
          {
            "astId": 371,
            "contract": "src/contracts/minter/amm-oracle/UniswapV2Oracle.sol:UniswapV2Oracle",
            "label": "price0CumulativeLast",
            "offset": 0,
            "slot": "4",
            "type": "t_uint256"
          },
          {
            "astId": 373,
            "contract": "src/contracts/minter/amm-oracle/UniswapV2Oracle.sol:UniswapV2Oracle",
            "label": "price1CumulativeLast",
            "offset": 0,
            "slot": "5",
            "type": "t_uint256"
          },
          {
            "astId": 375,
            "contract": "src/contracts/minter/amm-oracle/UniswapV2Oracle.sol:UniswapV2Oracle",
            "label": "blockTimestampLast",
            "offset": 0,
            "slot": "6",
            "type": "t_uint32"
          },
          {
            "astId": 377,
            "contract": "src/contracts/minter/amm-oracle/UniswapV2Oracle.sol:UniswapV2Oracle",
            "label": "updatePeriod",
            "offset": 0,
            "slot": "7",
            "type": "t_uint256"
          }
        ],
        "numberOfBytes": "256"
      },
      "t_struct(uq112x112)2538_storage": {
        "encoding": "inplace",
        "label": "struct UQ.uq112x112",
        "members": [
          {
            "astId": 2537,
            "contract": "src/contracts/minter/amm-oracle/UniswapV2Oracle.sol:UniswapV2Oracle",
            "label": "_x",
            "offset": 0,
            "slot": "0",
            "type": "t_uint224"
          }
        ],
        "numberOfBytes": "32"
      },
      "t_uint224": {
        "encoding": "inplace",
        "label": "uint224",
        "numberOfBytes": "28"
      },
      "t_uint256": {
        "encoding": "inplace",
        "label": "uint256",
        "numberOfBytes": "32"
      },
      "t_uint32": {
        "encoding": "inplace",
        "label": "uint32",
        "numberOfBytes": "4"
      }
    }
  }
}